{
  "address": "0x8903D8D4F4c06814D7ecb42b1258E2209d53A7d4",
  "abi": [
    {
      "inputs": [
        {
          "internalType": "address",
          "name": "admin",
          "type": "address"
        },
        {
          "internalType": "string",
          "name": "name",
          "type": "string"
        },
        {
          "internalType": "string",
          "name": "symbol",
          "type": "string"
        },
        {
          "internalType": "string",
          "name": "baseTokenURI",
          "type": "string"
        },
        {
          "components": [
            {
              "internalType": "address",
              "name": "swapRouter",
              "type": "address"
            },
            {
              "internalType": "address",
              "name": "wrappedNativeToken",
              "type": "address"
            },
            {
              "internalType": "address",
              "name": "stableCoin",
              "type": "address"
            },
            {
              "internalType": "address",
              "name": "masaToken",
              "type": "address"
            },
            {
              "internalType": "address",
              "name": "projectFeeReceiver",
              "type": "address"
            },
            {
              "internalType": "address",
              "name": "protocolFeeReceiver",
              "type": "address"
            },
            {
              "internalType": "uint256",
              "name": "protocolFeeAmount",
              "type": "uint256"
            },
            {
              "internalType": "uint256",
              "name": "protocolFeePercent",
              "type": "uint256"
            },
            {
              "internalType": "uint256",
              "name": "protocolFeePercentSub",
              "type": "uint256"
            }
          ],
          "internalType": "struct PaymentGateway.PaymentParams",
          "name": "paymentParams",
          "type": "tuple"
        }
      ],
      "stateMutability": "nonpayable",
      "type": "constructor"
    },
    {
      "inputs": [],
      "name": "AlreadyAdded",
      "type": "error"
    },
    {
      "inputs": [
        {
          "internalType": "address",
          "name": "to",
          "type": "address"
        }
      ],
      "name": "IdentityAlreadyCreated",
      "type": "error"
    },
    {
      "inputs": [
        {
          "internalType": "uint256",
          "name": "amount",
          "type": "uint256"
        }
      ],
      "name": "InsufficientEthAmount",
      "type": "error"
    },
    {
      "inputs": [
        {
          "internalType": "address",
          "name": "paymentMethod",
          "type": "address"
        }
      ],
      "name": "InvalidPaymentMethod",
      "type": "error"
    },
    {
      "inputs": [
        {
          "internalType": "address",
          "name": "token",
          "type": "address"
        }
      ],
      "name": "InvalidToken",
      "type": "error"
    },
    {
      "inputs": [
        {
          "internalType": "address",
          "name": "erc20token",
          "type": "address"
        }
      ],
      "name": "NonExistingErc20Token",
      "type": "error"
    },
    {
      "inputs": [],
      "name": "NotLinkedToAnIdentitySBT",
      "type": "error"
    },
    {
      "inputs": [],
      "name": "PaymentParamsNotSet",
      "type": "error"
    },
    {
      "inputs": [],
      "name": "ProtocolFeeReceiverNotSet",
      "type": "error"
    },
    {
      "inputs": [],
      "name": "RefundFailed",
      "type": "error"
    },
    {
      "inputs": [],
      "name": "SameValue",
      "type": "error"
    },
    {
      "inputs": [],
      "name": "SoulNameContractNotSet",
      "type": "error"
    },
    {
      "inputs": [],
      "name": "TransferFailed",
      "type": "error"
    },
    {
      "inputs": [],
      "name": "UserMustHaveProtocolOrProjectAdminRole",
      "type": "error"
    },
    {
      "inputs": [],
      "name": "ZeroAddress",
      "type": "error"
    },
    {
      "anonymous": false,
      "inputs": [
        {
          "indexed": true,
          "internalType": "address",
          "name": "_owner",
          "type": "address"
        },
        {
          "indexed": true,
          "internalType": "uint256",
          "name": "_tokenId",
          "type": "uint256"
        }
      ],
      "name": "Burn",
      "type": "event"
    },
    {
      "anonymous": false,
      "inputs": [
        {
          "indexed": true,
          "internalType": "address",
          "name": "_owner",
          "type": "address"
        },
        {
          "indexed": true,
          "internalType": "uint256",
          "name": "_tokenId",
          "type": "uint256"
        }
      ],
      "name": "Mint",
      "type": "event"
    },
    {
      "anonymous": false,
      "inputs": [
        {
          "indexed": true,
          "internalType": "bytes32",
          "name": "role",
          "type": "bytes32"
        },
        {
          "indexed": true,
          "internalType": "bytes32",
          "name": "previousAdminRole",
          "type": "bytes32"
        },
        {
          "indexed": true,
          "internalType": "bytes32",
          "name": "newAdminRole",
          "type": "bytes32"
        }
      ],
      "name": "RoleAdminChanged",
      "type": "event"
    },
    {
      "anonymous": false,
      "inputs": [
        {
          "indexed": true,
          "internalType": "bytes32",
          "name": "role",
          "type": "bytes32"
        },
        {
          "indexed": true,
          "internalType": "address",
          "name": "account",
          "type": "address"
        },
        {
          "indexed": true,
          "internalType": "address",
          "name": "sender",
          "type": "address"
        }
      ],
      "name": "RoleGranted",
      "type": "event"
    },
    {
      "anonymous": false,
      "inputs": [
        {
          "indexed": true,
          "internalType": "bytes32",
          "name": "role",
          "type": "bytes32"
        },
        {
          "indexed": true,
          "internalType": "address",
          "name": "account",
          "type": "address"
        },
        {
          "indexed": true,
          "internalType": "address",
          "name": "sender",
          "type": "address"
        }
      ],
      "name": "RoleRevoked",
      "type": "event"
    },
    {
      "inputs": [],
      "name": "DEFAULT_ADMIN_ROLE",
      "outputs": [
        {
          "internalType": "bytes32",
          "name": "",
          "type": "bytes32"
        }
      ],
      "stateMutability": "view",
      "type": "function"
    },
    {
      "inputs": [],
      "name": "MINTER_ROLE",
      "outputs": [
        {
          "internalType": "bytes32",
          "name": "",
          "type": "bytes32"
        }
      ],
      "stateMutability": "view",
      "type": "function"
    },
    {
      "inputs": [],
      "name": "PROJECT_ADMIN_ROLE",
      "outputs": [
        {
          "internalType": "bytes32",
          "name": "",
          "type": "bytes32"
        }
      ],
      "stateMutability": "view",
      "type": "function"
    },
    {
      "inputs": [],
      "name": "addLinkPrice",
      "outputs": [
        {
          "internalType": "uint256",
          "name": "",
          "type": "uint256"
        }
      ],
      "stateMutability": "view",
      "type": "function"
    },
    {
      "inputs": [],
      "name": "addLinkPriceMASA",
      "outputs": [
        {
          "internalType": "uint256",
          "name": "",
          "type": "uint256"
        }
      ],
      "stateMutability": "view",
      "type": "function"
    },
    {
      "inputs": [
        {
          "internalType": "address",
          "name": "owner",
          "type": "address"
        }
      ],
      "name": "balanceOf",
      "outputs": [
        {
          "internalType": "uint256",
          "name": "",
          "type": "uint256"
        }
      ],
      "stateMutability": "view",
      "type": "function"
    },
    {
      "inputs": [
        {
          "internalType": "uint256",
          "name": "tokenId",
          "type": "uint256"
        }
      ],
      "name": "burn",
      "outputs": [],
      "stateMutability": "nonpayable",
      "type": "function"
    },
    {
      "inputs": [
        {
          "internalType": "address",
          "name": "_paymentMethod",
          "type": "address"
        }
      ],
      "name": "disablePaymentMethod",
      "outputs": [],
      "stateMutability": "nonpayable",
      "type": "function"
    },
    {
      "inputs": [
        {
          "internalType": "address",
          "name": "_paymentMethod",
          "type": "address"
        }
      ],
      "name": "enablePaymentMethod",
      "outputs": [],
      "stateMutability": "nonpayable",
      "type": "function"
    },
    {
      "inputs": [
        {
          "internalType": "address",
          "name": "",
          "type": "address"
        }
      ],
      "name": "enabledPaymentMethod",
      "outputs": [
        {
          "internalType": "bool",
          "name": "",
          "type": "bool"
        }
      ],
      "stateMutability": "view",
      "type": "function"
    },
    {
      "inputs": [
        {
          "internalType": "uint256",
          "name": "",
          "type": "uint256"
        }
      ],
      "name": "enabledPaymentMethods",
      "outputs": [
        {
          "internalType": "address",
          "name": "",
          "type": "address"
        }
      ],
      "stateMutability": "view",
      "type": "function"
    },
    {
      "inputs": [
        {
          "internalType": "uint256",
          "name": "tokenId",
          "type": "uint256"
        }
      ],
      "name": "exists",
      "outputs": [
        {
          "internalType": "bool",
          "name": "",
          "type": "bool"
        }
      ],
      "stateMutability": "view",
      "type": "function"
    },
    {
      "inputs": [],
      "name": "getEnabledPaymentMethods",
      "outputs": [
        {
          "internalType": "address[]",
          "name": "",
          "type": "address[]"
        }
      ],
      "stateMutability": "view",
      "type": "function"
    },
    {
      "inputs": [],
      "name": "getExtension",
      "outputs": [
        {
          "internalType": "string",
          "name": "",
          "type": "string"
        }
      ],
      "stateMutability": "view",
      "type": "function"
    },
    {
      "inputs": [
        {
          "internalType": "uint256",
          "name": "tokenId",
          "type": "uint256"
        }
      ],
      "name": "getIdentityId",
      "outputs": [
        {
          "internalType": "uint256",
          "name": "",
          "type": "uint256"
        }
      ],
      "stateMutability": "view",
      "type": "function"
    },
    {
      "inputs": [
        {
          "internalType": "address",
          "name": "paymentMethod",
          "type": "address"
        }
      ],
      "name": "getMintPrice",
      "outputs": [
        {
          "internalType": "uint256",
          "name": "price",
          "type": "uint256"
        }
      ],
      "stateMutability": "view",
      "type": "function"
    },
    {
      "inputs": [
        {
          "internalType": "address",
          "name": "paymentMethod",
          "type": "address"
        }
      ],
      "name": "getMintPriceWithProtocolFee",
      "outputs": [
        {
          "internalType": "uint256",
          "name": "price",
          "type": "uint256"
        },
        {
          "internalType": "uint256",
          "name": "protocolFee",
          "type": "uint256"
        }
      ],
      "stateMutability": "view",
      "type": "function"
    },
    {
      "inputs": [
        {
          "internalType": "address",
          "name": "paymentMethod",
          "type": "address"
        },
        {
          "internalType": "uint256",
          "name": "amount",
          "type": "uint256"
        }
      ],
      "name": "getProtocolFee",
      "outputs": [
        {
          "internalType": "uint256",
          "name": "",
          "type": "uint256"
        }
      ],
      "stateMutability": "view",
      "type": "function"
    },
    {
      "inputs": [
        {
          "internalType": "uint256",
          "name": "amount",
          "type": "uint256"
        }
      ],
      "name": "getProtocolFeeSub",
      "outputs": [
        {
          "internalType": "uint256",
          "name": "",
          "type": "uint256"
        }
      ],
      "stateMutability": "view",
      "type": "function"
    },
    {
      "inputs": [
        {
          "internalType": "bytes32",
          "name": "role",
          "type": "bytes32"
        }
      ],
      "name": "getRoleAdmin",
      "outputs": [
        {
          "internalType": "bytes32",
          "name": "",
          "type": "bytes32"
        }
      ],
      "stateMutability": "view",
      "type": "function"
    },
    {
      "inputs": [],
      "name": "getSoulName",
      "outputs": [
        {
          "internalType": "contract ISoulName",
          "name": "",
          "type": "address"
        }
      ],
      "stateMutability": "view",
      "type": "function"
    },
    {
      "inputs": [
        {
          "internalType": "uint256",
          "name": "tokenId",
          "type": "uint256"
        }
      ],
      "name": "getSoulNames",
      "outputs": [
        {
          "internalType": "string[]",
          "name": "sbtNames",
          "type": "string[]"
        }
      ],
      "stateMutability": "view",
      "type": "function"
    },
    {
      "inputs": [
        {
          "internalType": "address",
          "name": "owner",
          "type": "address"
        }
      ],
      "name": "getSoulNames",
      "outputs": [
        {
          "internalType": "string[]",
          "name": "sbtNames",
          "type": "string[]"
        }
      ],
      "stateMutability": "view",
      "type": "function"
    },
    {
      "inputs": [
        {
          "internalType": "string",
          "name": "name",
          "type": "string"
        }
      ],
      "name": "getTokenData",
      "outputs": [
        {
          "internalType": "string",
          "name": "sbtName",
          "type": "string"
        },
        {
          "internalType": "bool",
          "name": "linked",
          "type": "bool"
        },
        {
          "internalType": "uint256",
          "name": "identityId",
          "type": "uint256"
        },
        {
          "internalType": "uint256",
          "name": "tokenId",
          "type": "uint256"
        },
        {
          "internalType": "uint256",
          "name": "expirationDate",
          "type": "uint256"
        },
        {
          "internalType": "bool",
          "name": "active",
          "type": "bool"
        }
      ],
      "stateMutability": "view",
      "type": "function"
    },
    {
      "inputs": [
        {
          "internalType": "bytes32",
          "name": "role",
          "type": "bytes32"
        },
        {
          "internalType": "address",
          "name": "account",
          "type": "address"
        }
      ],
      "name": "grantRole",
      "outputs": [],
      "stateMutability": "nonpayable",
      "type": "function"
    },
    {
      "inputs": [
        {
          "internalType": "bytes32",
          "name": "role",
          "type": "bytes32"
        },
        {
          "internalType": "address",
          "name": "account",
          "type": "address"
        }
      ],
      "name": "hasRole",
      "outputs": [
        {
          "internalType": "bool",
          "name": "",
          "type": "bool"
        }
      ],
      "stateMutability": "view",
      "type": "function"
    },
    {
      "inputs": [
        {
          "internalType": "string",
          "name": "name",
          "type": "string"
        }
      ],
      "name": "isAvailable",
      "outputs": [
        {
          "internalType": "bool",
          "name": "available",
          "type": "bool"
        }
      ],
      "stateMutability": "view",
      "type": "function"
    },
    {
      "inputs": [],
      "name": "masaToken",
      "outputs": [
        {
          "internalType": "address",
          "name": "",
          "type": "address"
        }
      ],
      "stateMutability": "view",
      "type": "function"
    },
    {
      "inputs": [
        {
          "internalType": "address",
          "name": "to",
          "type": "address"
        }
      ],
      "name": "mint",
      "outputs": [
        {
          "internalType": "uint256",
          "name": "",
          "type": "uint256"
        }
      ],
      "stateMutability": "payable",
      "type": "function"
    },
    {
      "inputs": [
        {
          "internalType": "address",
          "name": "paymentMethod",
          "type": "address"
        },
        {
          "internalType": "address",
          "name": "to",
          "type": "address"
        }
      ],
      "name": "mint",
      "outputs": [
        {
          "internalType": "uint256",
          "name": "",
          "type": "uint256"
        }
      ],
      "stateMutability": "payable",
      "type": "function"
    },
    {
      "inputs": [
        {
          "internalType": "address",
          "name": "to",
          "type": "address"
        },
        {
          "internalType": "string",
          "name": "name",
          "type": "string"
        },
        {
          "internalType": "uint256",
          "name": "yearsPeriod",
          "type": "uint256"
        },
        {
          "internalType": "string",
          "name": "_tokenURI",
          "type": "string"
        }
      ],
      "name": "mintIdentityWithName",
      "outputs": [
        {
          "internalType": "uint256",
          "name": "",
          "type": "uint256"
        }
      ],
      "stateMutability": "payable",
      "type": "function"
    },
    {
      "inputs": [
        {
          "internalType": "address",
          "name": "paymentMethod",
          "type": "address"
        },
        {
          "internalType": "address",
          "name": "to",
          "type": "address"
        },
        {
          "internalType": "string",
          "name": "name",
          "type": "string"
        },
        {
          "internalType": "uint256",
          "name": "yearsPeriod",
          "type": "uint256"
        },
        {
          "internalType": "string",
          "name": "_tokenURI",
          "type": "string"
        }
      ],
      "name": "mintIdentityWithName",
      "outputs": [
        {
          "internalType": "uint256",
          "name": "",
          "type": "uint256"
        }
      ],
      "stateMutability": "payable",
      "type": "function"
    },
    {
      "inputs": [],
      "name": "mintPrice",
      "outputs": [
        {
          "internalType": "uint256",
          "name": "",
          "type": "uint256"
        }
      ],
      "stateMutability": "view",
      "type": "function"
    },
    {
      "inputs": [],
      "name": "mintPriceMASA",
      "outputs": [
        {
          "internalType": "uint256",
          "name": "",
          "type": "uint256"
        }
      ],
      "stateMutability": "view",
      "type": "function"
    },
    {
      "inputs": [],
      "name": "name",
      "outputs": [
        {
          "internalType": "string",
          "name": "",
          "type": "string"
        }
      ],
      "stateMutability": "view",
      "type": "function"
    },
    {
      "inputs": [
        {
          "internalType": "uint256",
          "name": "tokenId",
          "type": "uint256"
        }
      ],
      "name": "ownerOf",
      "outputs": [
        {
          "internalType": "address",
          "name": "",
          "type": "address"
        }
      ],
      "stateMutability": "view",
      "type": "function"
    },
    {
      "inputs": [
        {
          "internalType": "string",
          "name": "name",
          "type": "string"
        }
      ],
      "name": "ownerOf",
      "outputs": [
        {
          "internalType": "address",
          "name": "",
          "type": "address"
        }
      ],
      "stateMutability": "view",
      "type": "function"
    },
    {
      "inputs": [],
      "name": "projectFeeReceiver",
      "outputs": [
        {
          "internalType": "address",
          "name": "",
          "type": "address"
        }
      ],
      "stateMutability": "view",
      "type": "function"
    },
    {
      "inputs": [],
      "name": "protocolFeeAmount",
      "outputs": [
        {
          "internalType": "uint256",
          "name": "",
          "type": "uint256"
        }
      ],
      "stateMutability": "view",
      "type": "function"
    },
    {
      "inputs": [],
      "name": "protocolFeePercent",
      "outputs": [
        {
          "internalType": "uint256",
          "name": "",
          "type": "uint256"
        }
      ],
      "stateMutability": "view",
      "type": "function"
    },
    {
      "inputs": [],
      "name": "protocolFeePercentSub",
      "outputs": [
        {
          "internalType": "uint256",
          "name": "",
          "type": "uint256"
        }
      ],
      "stateMutability": "view",
      "type": "function"
    },
    {
      "inputs": [],
      "name": "protocolFeeReceiver",
      "outputs": [
        {
          "internalType": "address",
          "name": "",
          "type": "address"
        }
      ],
      "stateMutability": "view",
      "type": "function"
    },
    {
      "inputs": [],
      "name": "queryLinkPrice",
      "outputs": [
        {
          "internalType": "uint256",
          "name": "",
          "type": "uint256"
        }
      ],
      "stateMutability": "view",
      "type": "function"
    },
    {
      "inputs": [],
      "name": "queryLinkPriceMASA",
      "outputs": [
        {
          "internalType": "uint256",
          "name": "",
          "type": "uint256"
        }
      ],
      "stateMutability": "view",
      "type": "function"
    },
    {
      "inputs": [
        {
          "internalType": "bytes32",
          "name": "role",
          "type": "bytes32"
        },
        {
          "internalType": "address",
          "name": "account",
          "type": "address"
        }
      ],
      "name": "renounceRole",
      "outputs": [],
      "stateMutability": "nonpayable",
      "type": "function"
    },
    {
      "inputs": [
        {
          "internalType": "bytes32",
          "name": "role",
          "type": "bytes32"
        },
        {
          "internalType": "address",
          "name": "account",
          "type": "address"
        }
      ],
      "name": "revokeRole",
      "outputs": [],
      "stateMutability": "nonpayable",
      "type": "function"
    },
    {
      "inputs": [
        {
          "internalType": "uint256",
          "name": "_addLinkPrice",
          "type": "uint256"
        }
      ],
      "name": "setAddLinkPrice",
      "outputs": [],
      "stateMutability": "nonpayable",
      "type": "function"
    },
    {
      "inputs": [
        {
          "internalType": "uint256",
          "name": "_addLinkPriceMASA",
          "type": "uint256"
        }
      ],
      "name": "setAddLinkPriceMASA",
      "outputs": [],
      "stateMutability": "nonpayable",
      "type": "function"
    },
    {
      "inputs": [
        {
          "internalType": "address",
          "name": "_masaToken",
          "type": "address"
        }
      ],
      "name": "setMasaToken",
      "outputs": [],
      "stateMutability": "nonpayable",
      "type": "function"
    },
    {
      "inputs": [
        {
          "internalType": "uint256",
          "name": "_mintPrice",
          "type": "uint256"
        }
      ],
      "name": "setMintPrice",
      "outputs": [],
      "stateMutability": "nonpayable",
      "type": "function"
    },
    {
      "inputs": [
        {
          "internalType": "uint256",
          "name": "_mintPriceMASA",
          "type": "uint256"
        }
      ],
      "name": "setMintPriceMASA",
      "outputs": [],
      "stateMutability": "nonpayable",
      "type": "function"
    },
    {
      "inputs": [
        {
          "internalType": "address",
          "name": "_projectFeeReceiver",
          "type": "address"
        }
      ],
      "name": "setProjectFeeReceiver",
      "outputs": [],
      "stateMutability": "nonpayable",
      "type": "function"
    },
    {
      "inputs": [
        {
          "internalType": "uint256",
          "name": "_protocolFeeAmount",
          "type": "uint256"
        }
      ],
      "name": "setProtocolFeeAmount",
      "outputs": [],
      "stateMutability": "nonpayable",
      "type": "function"
    },
    {
      "inputs": [
        {
          "internalType": "uint256",
          "name": "_protocolFeePercent",
          "type": "uint256"
        }
      ],
      "name": "setProtocolFeePercent",
      "outputs": [],
      "stateMutability": "nonpayable",
      "type": "function"
    },
    {
      "inputs": [
        {
          "internalType": "uint256",
          "name": "_protocolFeePercentSub",
          "type": "uint256"
        }
      ],
      "name": "setProtocolFeePercentSub",
      "outputs": [],
      "stateMutability": "nonpayable",
      "type": "function"
    },
    {
      "inputs": [
        {
          "internalType": "address",
          "name": "_protocolFeeReceiver",
          "type": "address"
        }
      ],
      "name": "setProtocolFeeReceiver",
      "outputs": [],
      "stateMutability": "nonpayable",
      "type": "function"
    },
    {
      "inputs": [
        {
          "internalType": "uint256",
          "name": "_queryLinkPrice",
          "type": "uint256"
        }
      ],
      "name": "setQueryLinkPrice",
      "outputs": [],
      "stateMutability": "nonpayable",
      "type": "function"
    },
    {
      "inputs": [
        {
          "internalType": "uint256",
          "name": "_queryLinkPriceMASA",
          "type": "uint256"
        }
      ],
      "name": "setQueryLinkPriceMASA",
      "outputs": [],
      "stateMutability": "nonpayable",
      "type": "function"
    },
    {
      "inputs": [
        {
          "internalType": "contract ISoulName",
          "name": "_soulName",
          "type": "address"
        }
      ],
      "name": "setSoulName",
      "outputs": [],
      "stateMutability": "nonpayable",
      "type": "function"
    },
    {
      "inputs": [
        {
          "internalType": "address",
          "name": "_soulboundIdentity",
          "type": "address"
        }
      ],
      "name": "setSoulboundIdentity",
      "outputs": [],
      "stateMutability": "nonpayable",
      "type": "function"
    },
    {
      "inputs": [
        {
          "internalType": "address",
          "name": "_stableCoin",
          "type": "address"
        }
      ],
      "name": "setStableCoin",
      "outputs": [],
      "stateMutability": "nonpayable",
      "type": "function"
    },
    {
      "inputs": [
        {
          "internalType": "address",
          "name": "_swapRouter",
          "type": "address"
        }
      ],
      "name": "setSwapRouter",
      "outputs": [],
      "stateMutability": "nonpayable",
      "type": "function"
    },
    {
      "inputs": [
        {
          "internalType": "address",
          "name": "_wrappedNativeToken",
          "type": "address"
        }
      ],
      "name": "setWrappedNativeToken",
      "outputs": [],
      "stateMutability": "nonpayable",
      "type": "function"
    },
    {
      "inputs": [],
      "name": "soulName",
      "outputs": [
        {
          "internalType": "contract ISoulName",
          "name": "",
          "type": "address"
        }
      ],
      "stateMutability": "view",
      "type": "function"
    },
    {
      "inputs": [],
      "name": "soulboundIdentity",
      "outputs": [
        {
          "internalType": "contract ISoulboundIdentity",
          "name": "",
          "type": "address"
        }
      ],
      "stateMutability": "view",
      "type": "function"
    },
    {
      "inputs": [],
      "name": "stableCoin",
      "outputs": [
        {
          "internalType": "address",
          "name": "",
          "type": "address"
        }
      ],
      "stateMutability": "view",
      "type": "function"
    },
    {
      "inputs": [
        {
          "internalType": "bytes4",
          "name": "interfaceId",
          "type": "bytes4"
        }
      ],
      "name": "supportsInterface",
      "outputs": [
        {
          "internalType": "bool",
          "name": "",
          "type": "bool"
        }
      ],
      "stateMutability": "view",
      "type": "function"
    },
    {
      "inputs": [],
      "name": "swapRouter",
      "outputs": [
        {
          "internalType": "address",
          "name": "",
          "type": "address"
        }
      ],
      "stateMutability": "view",
      "type": "function"
    },
    {
      "inputs": [],
      "name": "symbol",
      "outputs": [
        {
          "internalType": "string",
          "name": "",
          "type": "string"
        }
      ],
      "stateMutability": "view",
      "type": "function"
    },
    {
      "inputs": [
        {
          "internalType": "uint256",
          "name": "index",
          "type": "uint256"
        }
      ],
      "name": "tokenByIndex",
      "outputs": [
        {
          "internalType": "uint256",
          "name": "",
          "type": "uint256"
        }
      ],
      "stateMutability": "view",
      "type": "function"
    },
    {
      "inputs": [
        {
          "internalType": "address",
          "name": "owner",
          "type": "address"
        }
      ],
      "name": "tokenOfOwner",
      "outputs": [
        {
          "internalType": "uint256",
          "name": "",
          "type": "uint256"
        }
      ],
      "stateMutability": "view",
      "type": "function"
    },
    {
      "inputs": [
        {
          "internalType": "address",
          "name": "owner",
          "type": "address"
        },
        {
          "internalType": "uint256",
          "name": "index",
          "type": "uint256"
        }
      ],
      "name": "tokenOfOwnerByIndex",
      "outputs": [
        {
          "internalType": "uint256",
          "name": "",
          "type": "uint256"
        }
      ],
      "stateMutability": "view",
      "type": "function"
    },
    {
      "inputs": [
        {
          "internalType": "string",
          "name": "name",
          "type": "string"
        }
      ],
      "name": "tokenURI",
      "outputs": [
        {
          "internalType": "string",
          "name": "",
          "type": "string"
        }
      ],
      "stateMutability": "view",
      "type": "function"
    },
    {
      "inputs": [
        {
          "internalType": "address",
          "name": "owner",
          "type": "address"
        }
      ],
      "name": "tokenURI",
      "outputs": [
        {
          "internalType": "string",
          "name": "",
          "type": "string"
        }
      ],
      "stateMutability": "view",
      "type": "function"
    },
    {
      "inputs": [
        {
          "internalType": "uint256",
          "name": "tokenId",
          "type": "uint256"
        }
      ],
      "name": "tokenURI",
      "outputs": [
        {
          "internalType": "string",
          "name": "",
          "type": "string"
        }
      ],
      "stateMutability": "view",
      "type": "function"
    },
    {
      "inputs": [],
      "name": "totalSupply",
      "outputs": [
        {
          "internalType": "uint256",
          "name": "",
          "type": "uint256"
        }
      ],
      "stateMutability": "view",
      "type": "function"
    },
    {
      "inputs": [],
      "name": "wrappedNativeToken",
      "outputs": [
        {
          "internalType": "address",
          "name": "",
          "type": "address"
        }
      ],
      "stateMutability": "view",
      "type": "function"
    }
  ],
  "transactionHash": "0x1e194cd60c57ec189dfc4a785a2c8e04a698d8cf1678e2b60d962da7aa0b8ed1",
  "args": [
    "0x84a74cC52048dd8421Df4a9EB139D91bb7744b4E",
    "Masa Identity",
    "MID",
    "https://metadata.masa.finance/v1.0/identity/scroll/",
    [
      "0x7a250d5630B4cF539739dF2C5dAcb4c659F2488D",
      "0xB4FBF271143F4FBf7B91A5ded31805e42b2208d6",
      "0xD87Ba7A50B2E7E660f678A895E4B72E7CB4CCd9C",
      "0x1f9840a85d5aF5bf1D1762F925BDADdC4201F984",
      "0x0000000000000000000000000000000000000000",
      "0x0000000000000000000000000000000000000000",
      "0",
      "0",
      "0"
    ]
  ],
  "numDeployments": 1,
  "solcInputHash": "fad0f42b1b0874fb8aeaf6a83804c963",
  "bytecode": "0x60806040523480156200001157600080fd5b5060405162004d0138038062004d01833981016040819052620000349162000592565b8484848460008585858585858584848783620000518683620001ae565b8051600180546001600160a01b03199081166001600160a01b039384161790915560208084015160028054841691851691909117905560408401516003805484169185169190911790556060840151600480548416918516919091179055608084015160078054841691851691909117905560a084015160088054909316931692909217905560c082015160095560e0820151600a5561010090910151600b558351620001059250600c9185019062000262565b5080516200011b90600d90602084019062000262565b506200012d91506000905087620001ae565b82516200014290601490602086019062000262565b5050601580546001600160a01b0319166001600160a01b0392909216919091179055506200019792507f9f2df0fed2c77648de5860a4cc508cd0818c85b8b8a1ab4ceeef8d981c8956a69150889050620001ae565b50506001601d5550620006b2975050505050505050565b620001ba828262000237565b62000233576000828152602081815260408083206001600160a01b03851684529091529020805460ff19166001179055620001f23390565b6001600160a01b0316816001600160a01b0316837f2f8788117e7eff1d82e926ec794901d17c78024a50270940304540a733656f0d60405160405180910390a45b5050565b6000828152602081815260408083206001600160a01b038516845290915290205460ff165b92915050565b828054620002709062000681565b90600052602060002090601f016020900481019282620002945760008555620002df565b82601f10620002af57805160ff1916838001178555620002df565b82800160010185558215620002df579182015b82811115620002df578251825591602001919060010190620002c2565b50620002ed929150620002f1565b5090565b5b80821115620002ed5760008155600101620002f2565b60006001600160a01b0382166200025c565b620003258162000308565b81146200033157600080fd5b50565b80516200025c816200031a565b601f01601f191690565b634e487b7160e01b600052604160045260246000fd5b6200036c8262000341565b81018181106001600160401b03821117156200038c576200038c6200034b565b6040525050565b60006200039f60405190565b9050620003ad828262000361565b919050565b60006001600160401b03821115620003ce57620003ce6200034b565b620003d98262000341565b60200192915050565b60005b83811015620003ff578181015183820152602001620003e5565b838111156200040f576000848401525b50505050565b60006200042c6200042684620003b2565b62000393565b905082815260208101848484011115620004495762000449600080fd5b62000456848285620003e2565b509392505050565b600082601f830112620004745762000474600080fd5b81516200048684826020860162000415565b949350505050565b8062000325565b80516200025c816200048e565b60006101208284031215620004ba57620004ba600080fd5b620004c761012062000393565b90506000620004d7848462000334565b8252506020620004ea8484830162000334565b6020830152506040620005008482850162000334565b6040830152506060620005168482850162000334565b60608301525060806200052c8482850162000334565b60808301525060a0620005428482850162000334565b60a08301525060c0620005588482850162000495565b60c08301525060e06200056e8482850162000495565b60e083015250610100620005858482850162000495565b6101008301525092915050565b60008060008060006101a08688031215620005b057620005b0600080fd5b6000620005be888862000334565b95505060208601516001600160401b03811115620005df57620005df600080fd5b620005ed888289016200045e565b94505060408601516001600160401b038111156200060e576200060e600080fd5b6200061c888289016200045e565b93505060608601516001600160401b038111156200063d576200063d600080fd5b6200064b888289016200045e565b92505060806200065e88828901620004a2565b9150509295509295909350565b634e487b7160e01b600052602260045260246000fd5b6002810460018216806200069657607f821691505b60208210811415620006ac57620006ac6200066b565b50919050565b61463f80620006c26000396000f3fe6080604052600436106103615760003560e01c8062bdfde51461036657806301ffc9a7146103885780630513c3e9146103be57806306fdde03146103eb5780630f2e68af1461040d578063102005191461043a578063126ed01c1461045c57806313150b4814610489578063135f470c1461049f57806317fcb39b146104b557806318160ddd146104d55780631830e881146104ea5780631f37c12414610500578063217a2c7b1461051657806323af4e1714610536578063248a9ca314610556578063289c686b14610576578063294cdf0d146105965780632f2ff15d146105b65780632f745c59146105d657806336568abe146105f657806339a51be5146106165780633ad3033e146106365780633c72ae7014610656578063412736571461067657806341c04d5e1461069657806342966c68146106b857806346877b1a146106d857806346b2b087146106f85780634962a1581461072a5780634cf12d261461074a5780634f558e791461076a5780634f6ccce71461078a5780635141453e146107aa5780636352211e146107bd5780636817c76c146107dd5780636a627842146107f35780636bfd499f1461080657806370a0823114610826578063719d0f2b1461084657806376ad199714610866578063776ce6a114610886578063776d1a541461089b57806377bed5ed146108b15780637a0d1646146108d15780637db8cb68146109015780637e669891146109215780638d0184611461094e5780638ec9c93b1461096e57806391d1485414610984578063920ffa26146109a457806393702f33146109c457806394a665e9146109e457806395d89b4114610a04578063965306aa14610a1957806398acb9a914610a39578063992642e514610a4c57806399b589cb14610a6c578063a217fddf14610a8c578063a498342114610aa1578063b507d48114610ac1578063b79636b614610adf578063b97d6b2314610aff578063c1177d1914610b15578063c31c9c0714610b35578063c86aadb614610b55578063c87b56dd14610b75578063d539139314610b95578063d547741f14610bb7578063d6e6eb9f14610bd7578063da058ae314610bed578063eb93e85514610c0d578063ebda439614610c3b578063ee1fe2ad14610c5b578063ee7a9ec514610c6e578063f4a0a52814610c8e578063fd48ac8314610cae575b600080fd5b34801561037257600080fd5b5061038661038136600461364c565b610cce565b005b34801561039457600080fd5b506103a86103a3366004613688565b610d02565b6040516103b591906136b3565b60405180910390f35b3480156103ca57600080fd5b506103de6103d936600461364c565b610d13565b6040516103b591906136e1565b3480156103f757600080fd5b50610400610d3d565b6040516103b59190613759565b34801561041957600080fd5b50601e5461042d906001600160a01b031681565b6040516103b591906137a2565b34801561044657600080fd5b5061044f610dcf565b6040516103b5919061380d565b34801561046857600080fd5b5061047c61047736600461364c565b610e30565b6040516103b59190613824565b34801561049557600080fd5b5061047c601b5481565b3480156104ab57600080fd5b5061047c600b5481565b3480156104c157600080fd5b506002546103de906001600160a01b031681565b3480156104e157600080fd5b5060125461047c565b3480156104f657600080fd5b5061047c60175481565b34801561050c57600080fd5b5061047c60185481565b34801561052257600080fd5b5061047c610531366004613846565b610e3b565b34801561054257600080fd5b50610386610551366004613883565b610e4e565b34801561056257600080fd5b5061047c61057136600461364c565b610eab565b34801561058257600080fd5b5061038661059136600461364c565b610ec0565b3480156105a257600080fd5b5061047c6105b1366004613883565b610f33565b3480156105c257600080fd5b506103866105d13660046138a4565b610f40565b3480156105e257600080fd5b5061047c6105f1366004613846565b610f61565b34801561060257600080fd5b506103866106113660046138a4565b610fbc565b34801561062257600080fd5b506008546103de906001600160a01b031681565b34801561064257600080fd5b50610386610651366004613883565b610ff2565b34801561066257600080fd5b5061038661067136600461364c565b61104f565b34801561068257600080fd5b50610386610691366004613883565b6110c2565b3480156106a257600080fd5b5061047c6000805160206145ca83398151915281565b3480156106c457600080fd5b506103866106d336600461364c565b61111f565b3480156106e457600080fd5b506103866106f3366004613883565b611151565b34801561070457600080fd5b506107186107133660046139c5565b6111ae565b6040516103b5969594939291906139ff565b34801561073657600080fd5b5061038661074536600461364c565b61127d565b34801561075657600080fd5b506104006107653660046139c5565b6112f0565b34801561077657600080fd5b506103a861078536600461364c565b6113ba565b34801561079657600080fd5b5061047c6107a536600461364c565b6113c5565b61047c6107b8366004613a53565b611413565b3480156107c957600080fd5b506103de6107d836600461364c565b611458565b3480156107e957600080fd5b5061047c60165481565b61047c610801366004613883565b611463565b34801561081257600080fd5b5061038661082136600461364c565b611470565b34801561083257600080fd5b5061047c610841366004613883565b6114a4565b34801561085257600080fd5b5061047c610861366004613883565b6114e8565b34801561087257600080fd5b50610386610881366004613883565b6115e3565b34801561089257600080fd5b50610400611640565b3480156108a757600080fd5b5061047c60195481565b3480156108bd57600080fd5b5060155461042d906001600160a01b031681565b3480156108dd57600080fd5b506103a86108ec366004613883565b60056020526000908152604090205460ff1681565b34801561090d57600080fd5b5061038661091c36600461364c565b6116c6565b34801561092d57600080fd5b5061094161093c36600461364c565b611739565b6040516103b59190613b5d565b34801561095a57600080fd5b50610386610969366004613883565b6117e9565b34801561097a57600080fd5b5061047c60095481565b34801561099057600080fd5b506103a861099f3660046138a4565b611885565b3480156109b057600080fd5b506103de6109bf3660046139c5565b6118ae565b3480156109d057600080fd5b506104006109df366004613883565b61196f565b3480156109f057600080fd5b506103866109ff366004613883565b611987565b348015610a1057600080fd5b50610400611af4565b348015610a2557600080fd5b506103a8610a343660046139c5565b611b03565b61047c610a47366004613b6e565b611baf565b348015610a5857600080fd5b506003546103de906001600160a01b031681565b348015610a7857600080fd5b506007546103de906001600160a01b031681565b348015610a9857600080fd5b5061047c600081565b348015610aad57600080fd5b50610386610abc36600461364c565b611c8e565b348015610acd57600080fd5b50601e546001600160a01b031661042d565b348015610aeb57600080fd5b50610941610afa366004613883565b611cc2565b348015610b0b57600080fd5b5061047c601a5481565b348015610b2157600080fd5b5061047c610b3036600461364c565b611d1e565b348015610b4157600080fd5b506001546103de906001600160a01b031681565b348015610b6157600080fd5b50610386610b70366004613883565b611dd6565b348015610b8157600080fd5b50610400610b9036600461364c565b611e82565b348015610ba157600080fd5b5061047c6000805160206145ea83398151915281565b348015610bc357600080fd5b50610386610bd23660046138a4565b611ee8565b348015610be357600080fd5b5061047c600a5481565b348015610bf957600080fd5b50610386610c08366004613883565b611f04565b348015610c1957600080fd5b50610c2d610c28366004613883565b611f61565b6040516103b5929190613c1a565b348015610c4757600080fd5b506004546103de906001600160a01b031681565b61047c610c69366004613c35565b611f83565b348015610c7a57600080fd5b50610386610c89366004613c76565b611fba565b348015610c9a57600080fd5b50610386610ca936600461364c565b61203e565b348015610cba57600080fd5b50610386610cc936600461364c565b6120b1565b6000610cd981612124565b600954821415610cfc5760405163c23f6ccb60e01b815260040160405180910390fd5b50600955565b6000610d0d8261212e565b92915050565b60068181548110610d2357600080fd5b6000918252602090912001546001600160a01b0316905081565b6060600c8054610d4c90613cad565b80601f0160208091040260200160405190810160405280929190818152602001828054610d7890613cad565b8015610dc55780601f10610d9a57610100808354040283529160200191610dc5565b820191906000526020600020905b815481529060010190602001808311610da857829003601f168201915b5050505050905090565b60606006805480602002602001604051908101604052809291908181526020018280548015610dc557602002820191906000526020600020905b81546001600160a01b03168152600190910190602001808311610e09575050505050905090565b6000610d0d82612153565b6000610e478383612186565b9392505050565b6000610e5981612124565b6003546001600160a01b0383811691161415610e885760405163c23f6ccb60e01b815260040160405180910390fd5b50600380546001600160a01b0319166001600160a01b0392909216919091179055565b60009081526020819052604090206001015490565b610ecb600033611885565b158015610eed5750610eeb6000805160206145ca83398151915233611885565b155b15610f0b576040516326f0f48160e01b815260040160405180910390fd5b806018541415610f2e5760405163c23f6ccb60e01b815260040160405180910390fd5b601855565b6000610d0d826000610f61565b610f4982610eab565b610f5281612124565b610f5c83836121ed565b505050565b6000610f6c836114a4565b8210610f935760405162461bcd60e51b8152600401610f8a90613d22565b60405180910390fd5b506001600160a01b03919091166000908152601060209081526040808320938352929052205490565b6001600160a01b0381163314610fe45760405162461bcd60e51b8152600401610f8a90613d7e565b610fee8282612271565b5050565b6000610ffd81612124565b6015546001600160a01b038381169116141561102c5760405163c23f6ccb60e01b815260040160405180910390fd5b50601580546001600160a01b0319166001600160a01b0392909216919091179055565b61105a600033611885565b15801561107c575061107a6000805160206145ca83398151915233611885565b155b1561109a576040516326f0f48160e01b815260040160405180910390fd5b8060195414156110bd5760405163c23f6ccb60e01b815260040160405180910390fd5b601955565b60006110cd81612124565b6001546001600160a01b03838116911614156110fc5760405163c23f6ccb60e01b815260040160405180910390fd5b50600180546001600160a01b0319166001600160a01b0392909216919091179055565b61112933826122d6565b6111455760405162461bcd60e51b8152600401610f8a90613dc5565b61114e816122f9565b50565b600061115c81612124565b6008546001600160a01b038381169116141561118b5760405163c23f6ccb60e01b815260040160405180910390fd5b50600880546001600160a01b0319166001600160a01b0392909216919091179055565b601e5460609060009081908190819081906001600160a01b03166111e557604051636d9e949f60e01b815260040160405180910390fd5b601e546040516346b2b08760e01b81526001600160a01b03909116906346b2b08790611215908a90600401613759565b60006040518083038186803b15801561122d57600080fd5b505afa158015611241573d6000803e3d6000fd5b505050506040513d6000823e601f3d908101601f191682016040526112699190810190613e4b565b949c939b5091995097509550909350915050565b611288600033611885565b1580156112aa57506112a86000805160206145ca83398151915233611885565b155b156112c8576040516326f0f48160e01b815260040160405180910390fd5b8060175414156112eb5760405163c23f6ccb60e01b815260040160405180910390fd5b601755565b601e546060906001600160a01b031661131c57604051636d9e949f60e01b815260040160405180910390fd5b601e546040516346b2b08760e01b81526000916001600160a01b0316906346b2b0879061134d908690600401613759565b60006040518083038186803b15801561136557600080fd5b505afa158015611379573d6000803e3d6000fd5b505050506040513d6000823e601f3d908101601f191682016040526113a19190810190613e4b565b505050925050506113b181611e82565b9150505b919050565b6000610d0d82612393565b60006113d060125490565b82106113ee5760405162461bcd60e51b8152600401610f8a90613f34565b6012828154811061140157611401613f44565b90600052602060002001549050919050565b601e546000906001600160a01b031661143f57604051636d9e949f60e01b815260040160405180910390fd5b61144d600086868686611baf565b90505b949350505050565b6000610d0d826123b0565b6000610d0d600083611f83565b600061147b81612124565b600b5482141561149e5760405163c23f6ccb60e01b815260040160405180910390fd5b50600b55565b60006001600160a01b0382166114cc5760405162461bcd60e51b8152600401610f8a90613f9d565b506001600160a01b03166000908152600f602052604090205490565b600060165460001480156114fc5750601754155b1561150957506000919050565b6004546001600160a01b03838116911614801561153e57506001600160a01b03821660009081526005602052604090205460ff165b801561154c57506000601754115b1561155957505060175490565b6003546001600160a01b03838116911614801561158e57506001600160a01b03821660009081526005602052604090205460ff165b1561159b57505060165490565b6001600160a01b03821660009081526005602052604090205460ff16156115c857610d0d826016546123e5565b81604051630ac29ab760e31b8152600401610f8a91906136e1565b60006115ee81612124565b6004546001600160a01b038381169116141561161d5760405163c23f6ccb60e01b815260040160405180910390fd5b50600480546001600160a01b0319166001600160a01b0392909216919091179055565b601e546040805163776ce6a160e01b815290516060926001600160a01b03169163776ce6a1916004808301926000929190829003018186803b15801561168557600080fd5b505afa158015611699573d6000803e3d6000fd5b505050506040513d6000823e601f3d908101601f191682016040526116c19190810190613fad565b905090565b6116d1600033611885565b1580156116f357506116f16000805160206145ca83398151915233611885565b155b15611711576040516326f0f48160e01b815260040160405180910390fd5b80601b5414156117345760405163c23f6ccb60e01b815260040160405180910390fd5b601b55565b601e546060906001600160a01b031661176557604051636d9e949f60e01b815260040160405180910390fd5b601e54604051637e66989160e01b81526001600160a01b0390911690637e66989190611795908590600401613824565b60006040518083038186803b1580156117ad57600080fd5b505afa1580156117c1573d6000803e3d6000fd5b505050506040513d6000823e601f3d908101601f19168201604052610d0d91908101906140a5565b6117f4600033611885565b15801561181657506118146000805160206145ca83398151915233611885565b155b15611834576040516326f0f48160e01b815260040160405180910390fd5b6007546001600160a01b03828116911614156118635760405163c23f6ccb60e01b815260040160405180910390fd5b600780546001600160a01b0319166001600160a01b0392909216919091179055565b6000918252602082815260408084206001600160a01b0393909316845291905290205460ff1690565b601e546000906001600160a01b03166118da57604051636d9e949f60e01b815260040160405180910390fd5b601e546040516346b2b08760e01b81526000916001600160a01b0316906346b2b0879061190b908690600401613759565b60006040518083038186803b15801561192357600080fd5b505afa158015611937573d6000803e3d6000fd5b505050506040513d6000823e601f3d908101601f1916820160405261195f9190810190613e4b565b505050925050506113b1816123b0565b6060600061197c83610f33565b90506113b181611e82565b600061199281612124565b6001600160a01b03821660009081526005602052604090205460ff166119cd57816040516318317bd560e01b8152600401610f8a91906136e1565b6001600160a01b0382166000908152600560205260408120805460ff191690555b600654811015610f5c57826001600160a01b031660068281548110611a1557611a15613f44565b6000918252602090912001546001600160a01b03161415611ae25760068054611a40906001906140f5565b81548110611a5057611a50613f44565b600091825260209091200154600680546001600160a01b039092169183908110611a7c57611a7c613f44565b9060005260206000200160006101000a8154816001600160a01b0302191690836001600160a01b031602179055506006805480611abb57611abb61410c565b600082815260209020810160001990810180546001600160a01b0319169055019055505050565b80611aec81614122565b9150506119ee565b6060600d8054610d4c90613cad565b601e546000906001600160a01b0316611b2f57604051636d9e949f60e01b815260040160405180910390fd5b601e54604051634b29835560e11b81526001600160a01b039091169063965306aa90611b5f908590600401613759565b60206040518083038186803b158015611b7757600080fd5b505afa158015611b8b573d6000803e3d6000fd5b505050506040513d601f19601f82011682018060405250810190610d0d919061413d565b601e546000906001600160a01b0316611bdb57604051636d9e949f60e01b815260040160405180910390fd5b611be3612578565b6000611bef8787611f83565b601e546040516303dd904360e41b81529192506001600160a01b031690633dd9043090611c2690899089908990899060040161415e565b602060405180830381600087803b158015611c4057600080fd5b505af1158015611c54573d6000803e3d6000fd5b505050506040513d601f19601f82011682018060405250810190611c78919061419f565b509050611c856001601d55565b95945050505050565b6000611c9981612124565b600a54821415611cbc5760405163c23f6ccb60e01b815260040160405180910390fd5b50600a55565b601e546060906001600160a01b0316611cee57604051636d9e949f60e01b815260040160405180910390fd5b601e54604051635bcb1b5b60e11b81526001600160a01b039091169063b79636b6906117959085906004016136e1565b6015546000906001600160a01b0316611d4a57604051630d7fe67b60e41b815260040160405180910390fd5b6000611d55836123b0565b60155460405163294cdf0d60e01b81529192506001600160a01b03169063294cdf0d90611d869084906004016136e1565b60206040518083038186803b158015611d9e57600080fd5b505afa158015611db2573d6000803e3d6000fd5b505050506040513d601f19601f820116820180604052508101906113b1919061419f565b6000611de181612124565b6001600160a01b03821660009081526005602052604090205460ff1615611e1b5760405163f411c32760e01b815260040160405180910390fd5b506001600160a01b03166000818152600560205260408120805460ff191660019081179091556006805491820181559091527ff652222313e28459528d920b65115c16c04f3efc82aaedc97be59f3f377c0d3f0180546001600160a01b0319169091179055565b6060611e8d826125a2565b6000611e976125c7565b90506000815111611eb757604051806020016040528060008152506113b1565b80611ec1846125d6565b604051602001611ed29291906141e2565b6040516020818303038152906040529392505050565b611ef182610eab565b611efa81612124565b610f5c8383612271565b6000611f0f81612124565b6002546001600160a01b0383811691161415611f3e5760405163c23f6ccb60e01b815260040160405180910390fd5b50600280546001600160a01b0319166001600160a01b0392909216919091179055565b600080611f6d836114e8565b915081611f7a8484612186565b91509150915091565b600080611f8f836114a4565b1115611fb057816040516312d5c31d60e01b8152600401610f8a91906136e1565b610e478383612672565b6000611fc581612124565b6001600160a01b038216611fec5760405163d92e233d60e01b815260040160405180910390fd5b601e546001600160a01b038381169116141561201b5760405163c23f6ccb60e01b815260040160405180910390fd5b50601e80546001600160a01b0319166001600160a01b0392909216919091179055565b612049600033611885565b15801561206b57506120696000805160206145ca83398151915233611885565b155b15612089576040516326f0f48160e01b815260040160405180910390fd5b8060165414156120ac5760405163c23f6ccb60e01b815260040160405180910390fd5b601655565b6120bc600033611885565b1580156120de57506120dc6000805160206145ca83398151915233611885565b155b156120fc576040516326f0f48160e01b815260040160405180910390fd5b80601a54141561211f5760405163c23f6ccb60e01b815260040160405180910390fd5b601a55565b61114e81336126d6565b60006001600160e01b0319821663780e9d6360e01b1480610d0d5750610d0d8261272f565b600b546000901561217e57610d0d6064612178600b548561276f90919063ffffffff16565b9061277b565b506000919050565b6009546000908190156121c1576003546001600160a01b03858116911614156121b257506009546121c1565b6121be846009546123e5565b90505b600a5415610e47576114506121e66064612178600a548761276f90919063ffffffff16565b8290612787565b6121f78282611885565b610fee576000828152602081815260408083206001600160a01b03851684529091529020805460ff1916600117905561222d3390565b6001600160a01b0316816001600160a01b0316837f2f8788117e7eff1d82e926ec794901d17c78024a50270940304540a733656f0d60405160405180910390a45050565b61227b8282611885565b15610fee576000828152602081815260408083206001600160a01b0385168085529252808320805460ff1916905551339285917ff6391f5c32d9c69d2a47ea670b442974b53935d1edc7fd64eb21e047a839171b9190a45050565b6000806122e2836123b0565b6001600160a01b0385811691161491505092915050565b6000612304826123b0565b905061231281600084612793565b6001600160a01b0381166000908152600f6020526040812080546001929061233b9084906140f5565b90915550506000828152600e602052604080822080546001600160a01b03191690555183916001600160a01b038416917fcc16f5dbb4873280815c1ee09dbd06736cffcc184412cf7a71a0fdb75d397ca59190a35050565b6000908152600e60205260409020546001600160a01b0316151590565b6000818152600e60205260408120546001600160a01b031680610d0d5760405162461bcd60e51b8152600401610f8a9061423c565b60008160008111801561240157506001546001600160a01b0316155b1561241f5760405163fca2174f60e01b815260040160405180910390fd5b60008111801561243857506002546001600160a01b0316155b156124565760405163fca2174f60e01b815260040160405180910390fd5b60008111801561246f57506003546001600160a01b0316155b1561248d5760405163fca2174f60e01b815260040160405180910390fd5b6000811180156124a657506007546001600160a01b0316155b156124c45760405163fca2174f60e01b815260040160405180910390fd5b6001600160a01b03841660009081526005602052604090205460ff1615806124f957506003546001600160a01b038581169116145b15612519578360405163961c9a4f60e01b8152600401610f8a91906136e1565b826125275760009150612571565b6001600160a01b03841661255957600254600354612552916001600160a01b0390811691168561279e565b9150612571565b6003546125529085906001600160a01b03168561279e565b5092915050565b6002601d54141561259b5760405162461bcd60e51b8152600401610f8a90614280565b6002601d55565b6125ab81612393565b61114e5760405162461bcd60e51b8152600401610f8a9061423c565b606060148054610d4c90613cad565b606060006125e38361285c565b60010190506000816001600160401b03811115612602576126026138d7565b6040519080825280601f01601f19166020018201604052801561262c576020820181803683370190505b5090508181016020015b600019016f181899199a1a9b1b9c1cb0b131b232b360811b600a86061a8153600a85049450846126655761266a565b612636565b509392505050565b60006000805160206145ea83398151915261268c81612124565b60008061269886611f61565b915091506126a7868383612932565b60006126b2601c5490565b90506126c2601c80546001019055565b6126cc8682612de6565b9695505050505050565b6126e08282611885565b610fee576126ed81612ec2565b6126f8836020612ed4565b6040516020016127099291906142a6565b60408051601f198184030181529082905262461bcd60e51b8252610f8a91600401613759565b60006001600160e01b031982166313f2a32f60e01b148061276057506001600160e01b03198216635b5e139f60e01b145b80610d0d5750610d0d8261303f565b6000610e4782846142f8565b6000610e478284614317565b6000610e47828461432b565b610f5c838383613074565b60006060806127ad868661312c565b6001546040516307c0329d60e21b81529192506001600160a01b031690631f00ca74906127e09087908590600401614343565b60006040518083038186803b1580156127f857600080fd5b505afa15801561280c573d6000803e3d6000fd5b505050506040513d6000823e601f3d908101601f1916820160405261283491908101906143d8565b91508160008151811061284957612849613f44565b6020026020010151925050509392505050565b60008072184f03e93ff9f4daa797ed6e38ed64bf6a1f0160401b831061289b5772184f03e93ff9f4daa797ed6e38ed64bf6a1f0160401b830492506040015b6904ee2d6d415b85acef8160201b83106128c5576904ee2d6d415b85acef8160201b830492506020015b662386f26fc1000083106128e357662386f26fc10000830492506010015b6305f5e10083106128fb576305f5e100830492506008015b612710831061290f57612710830492506004015b60648310612921576064830492506002015b600a8310610d0d5760010192915050565b61293c8282612787565b60008111801561295557506001546001600160a01b0316155b156129735760405163fca2174f60e01b815260040160405180910390fd5b60008111801561298c57506002546001600160a01b0316155b156129aa5760405163fca2174f60e01b815260040160405180910390fd5b6000811180156129c357506003546001600160a01b0316155b156129e15760405163fca2174f60e01b815260040160405180910390fd5b6000811180156129fa57506007546001600160a01b0316155b15612a185760405163fca2174f60e01b815260040160405180910390fd5b82158015612a24575081155b15612a2e57612de0565b6000612a3984612153565b90506000831180612a4a5750600081115b8015612a5f57506008546001600160a01b0316155b15612a7d5760405163910af6f560e01b815260040160405180910390fd5b6001600160a01b03851660009081526005602052604090205460ff16612ab85784604051630ac29ab760e31b8152600401610f8a91906136e1565b6001600160a01b038516612d5a57612ad08484612787565b341015612afb57612ae18484612787565b60405163091a6d0f60e01b8152600401610f8a9190613824565b6000612b0785836132be565b1115612b98576007546000906001600160a01b0316612b2686846132be565b604051612b3290614412565b60006040518083038185875af1925050503d8060008114612b6f576040519150601f19603f3d011682016040523d82523d6000602084013e612b74565b606091505b5050905080612b96576040516312171d8360e31b815260040160405180910390fd5b505b8215612c22576008546040516000916001600160a01b0316908590612bbc90614412565b60006040518083038185875af1925050503d8060008114612bf9576040519150601f19603f3d011682016040523d82523d6000602084013e612bfe565b606091505b5050905080612c20576040516312171d8360e31b815260040160405180910390fd5b505b8015612cac576008546040516000916001600160a01b0316908390612c4690614412565b60006040518083038185875af1925050503d8060008114612c83576040519150601f19603f3d011682016040523d82523d6000602084013e612c88565b606091505b5050905080612caa576040516312171d8360e31b815260040160405180910390fd5b505b612cb68484612787565b341115612d55576000612cd3612ccc8686612787565b34906132be565b90506000336001600160a01b031682604051612cee90614412565b60006040518083038185875af1925050503d8060008114612d2b576040519150601f19603f3d011682016040523d82523d6000602084013e612d30565b606091505b5050905080612d5257604051633c31275160e21b815260040160405180910390fd5b50505b612dde565b6000612d6685836132be565b1115612d9a57600754612d9a9033906001600160a01b0316612d8887856132be565b6001600160a01b0389169291906132ca565b8215612dbc57600854612dbc906001600160a01b0387811691339116866132ca565b8015612dde57600854612dde906001600160a01b0387811691339116846132ca565b505b50505050565b6001600160a01b038216612e0c5760405162461bcd60e51b8152600401610f8a90614451565b612e1581612393565b15612e325760405162461bcd60e51b8152600401610f8a90614491565b612e3e60008383612793565b6001600160a01b0382166000908152600f60205260408120805460019290612e6790849061432b565b90915550506000818152600e602052604080822080546001600160a01b0319166001600160a01b038616908117909155905183927f0f6798a560793a54c3bcfe86a93cde1e73087d944c0ea20544137d412139688591a35050565b6060610d0d6001600160a01b03831660145b60606000612ee38360026142f8565b612eee90600261432b565b6001600160401b03811115612f0557612f056138d7565b6040519080825280601f01601f191660200182016040528015612f2f576020820181803683370190505b509050600360fc1b81600081518110612f4a57612f4a613f44565b60200101906001600160f81b031916908160001a905350600f60fb1b81600181518110612f7957612f79613f44565b60200101906001600160f81b031916908160001a9053506000612f9d8460026142f8565b612fa890600161432b565b90505b6001811115613020576f181899199a1a9b1b9c1cb0b131b232b360811b85600f1660108110612fdc57612fdc613f44565b1a60f81b828281518110612ff257612ff2613f44565b60200101906001600160f81b031916908160001a90535060049490941c93613019816144a1565b9050612fab565b508315610e475760405162461bcd60e51b8152600401610f8a906144ea565b60006001600160e01b03198216637965db0b60e01b1480610d0d57506301ffc9a760e01b6001600160e01b0319831614610d0d565b6001600160a01b0383166130cf576130ca81601280546000838152601360205260408120829055600182018355919091527fbb8a6a4669ba250d26cd7a459eca9d215f8307e33aebe50379bc5a3617ec34440155565b6130f2565b816001600160a01b0316836001600160a01b0316146130f2576130f28382613322565b6001600160a01b03821661310957610f5c816133bf565b826001600160a01b0316826001600160a01b031614610f5c57610f5c828261346e565b6002546060906001600160a01b038481169116148061315857506002546001600160a01b038381169116145b1561322257604080516002808252606082018352600092602083019080368337019050506002549091506001600160a01b0385811691161461319a57836131a7565b6002546001600160a01b03165b816000815181106131ba576131ba613f44565b6001600160a01b0392831660209182029290920101526002548482169116146131e357826131f0565b6002546001600160a01b03165b8160018151811061320357613203613f44565b6001600160a01b03909216602092830291909101909101529050610d0d565b6040805160038082526080820190925260009160208201606080368337019050509050838160008151811061325957613259613f44565b6001600160a01b03928316602091820292909201015260025482519116908290600190811061328a5761328a613f44565b60200260200101906001600160a01b031690816001600160a01b031681525050828160028151811061320357613203613f44565b6000610e4782846140f5565b612de0846323b872dd60e01b8585856040516024016132eb939291906144fa565b60408051601f198184030181529190526020810180516001600160e01b03166001600160e01b0319909316929092179091526134b2565b6000600161332f846114a4565b61333991906140f5565b60008381526011602052604090205490915080821461338c576001600160a01b03841660009081526010602090815260408083208584528252808320548484528184208190558352601190915290208190555b5060009182526011602090815260408084208490556001600160a01b039094168352601081528383209183525290812055565b6012546000906133d1906001906140f5565b600083815260136020526040812054601280549394509092849081106133f9576133f9613f44565b90600052602060002001549050806012838154811061341a5761341a613f44565b60009182526020808320909101929092558281526013909152604080822084905585825281205560128054806134525761345261410c565b6001900381819060005260206000200160009055905550505050565b6000613479836114a4565b6001600160a01b039093166000908152601060209081526040808320868452825280832085905593825260119052919091209190915550565b6000613507826040518060400160405280602081526020017f5361666545524332303a206c6f772d6c6576656c2063616c6c206661696c6564815250856001600160a01b03166135449092919063ffffffff16565b9050805160001480613528575080806020019051810190613528919061413d565b610f5c5760405162461bcd60e51b8152600401610f8a90614569565b6060611450848460008585600080866001600160a01b0316858760405161356b9190614579565b60006040518083038185875af1925050503d80600081146135a8576040519150601f19603f3d011682016040523d82523d6000602084013e6135ad565b606091505b50915091506135be878383876135c9565b979650505050505050565b606083156136055782516135fe576001600160a01b0385163b6135fe5760405162461bcd60e51b8152600401610f8a906145b9565b5081611450565b611450838381511561361a5781518083602001fd5b8060405162461bcd60e51b8152600401610f8a9190613759565b805b811461114e57600080fd5b8035610d0d81613634565b60006020828403121561366157613661600080fd5b60006114508484613641565b6001600160e01b03198116613636565b8035610d0d8161366d565b60006020828403121561369d5761369d600080fd5b6000611450848461367d565b8015155b82525050565b60208101610d0d82846136a9565b6001600160a01b031690565b6000610d0d826136c1565b6136ad816136cd565b60208101610d0d82846136d8565b60005b8381101561370a5781810151838201526020016136f2565b83811115612de05750506000910152565b601f01601f191690565b600061372f825190565b8084526020840193506137468185602086016136ef565b61374f8161371b565b9093019392505050565b60208082528101610e478184613725565b6000610d0d61377e61377b846136c1565b90565b6136c1565b6000610d0d8261376a565b6000610d0d82613783565b6136ad8161378e565b60208101610d0d8284613799565b60006137bc83836136d8565b505060200190565b60006137ce825190565b80845260209384019383018060005b838110156138025781516137f188826137b0565b9750602083019250506001016137dd565b509495945050505050565b60208082528101610e4781846137c4565b806136ad565b60208101610d0d828461381e565b613636816136cd565b8035610d0d81613832565b6000806040838503121561385c5761385c600080fd5b6000613868858561383b565b925050602061387985828601613641565b9150509250929050565b60006020828403121561389857613898600080fd5b6000611450848461383b565b600080604083850312156138ba576138ba600080fd5b60006138c68585613641565b92505060206138798582860161383b565b634e487b7160e01b600052604160045260246000fd5b6138f68261371b565b81018181106001600160401b0382111715613913576139136138d7565b6040525050565b600061392560405190565b90506113b582826138ed565b60006001600160401b0382111561394a5761394a6138d7565b6139538261371b565b60200192915050565b82818337506000910152565b600061397b61397684613931565b61391a565b90508281526020810184848401111561399657613996600080fd5b61266a84828561395c565b600082601f8301126139b5576139b5600080fd5b8135611450848260208601613968565b6000602082840312156139da576139da600080fd5b81356001600160401b038111156139f3576139f3600080fd5b611450848285016139a1565b60c08082528101613a108189613725565b9050613a1f60208301886136a9565b613a2c604083018761381e565b613a39606083018661381e565b613a46608083018561381e565b6135be60a08301846136a9565b60008060008060808587031215613a6c57613a6c600080fd5b6000613a78878761383b565b94505060208501356001600160401b03811115613a9757613a97600080fd5b613aa3878288016139a1565b9350506040613ab487828801613641565b92505060608501356001600160401b03811115613ad357613ad3600080fd5b613adf878288016139a1565b91505092959194509250565b6000610e478383613725565b6000613b01825190565b80845260208401935083602082028501613b1b8560200190565b8060005b85811015613b505784840389528151613b388582613aeb565b94506020830160209a909a0199925050600101613b1f565b5091979650505050505050565b60208082528101610e478184613af7565b600080600080600060a08688031215613b8957613b89600080fd5b6000613b95888861383b565b9550506020613ba68882890161383b565b94505060408601356001600160401b03811115613bc557613bc5600080fd5b613bd1888289016139a1565b9350506060613be288828901613641565b92505060808601356001600160401b03811115613c0157613c01600080fd5b613c0d888289016139a1565b9150509295509295909350565b60408101613c28828561381e565b610e47602083018461381e565b60008060408385031215613c4b57613c4b600080fd5b60006138c6858561383b565b6000610d0d826136cd565b61363681613c57565b8035610d0d81613c62565b600060208284031215613c8b57613c8b600080fd5b60006114508484613c6b565b634e487b7160e01b600052602260045260246000fd5b600281046001821680613cc157607f821691505b60208210811415613cd457613cd4613c97565b50919050565b602881526000602082017f534254456e756d657261626c653a206f776e657220696e646578206f7574206f8152676620626f756e647360c01b602082015291505b5060400190565b60208082528101610d0d81613cda565b602f81526000602082017f416363657373436f6e74726f6c3a2063616e206f6e6c792072656e6f756e636581526e103937b632b9903337b91039b2b63360891b60208201529150613d1b565b60208082528101610d0d81613d32565b601e81526000602082017f5342543a2063616c6c6572206973206e6f7420746f6b656e206f776e65720000815291505b5060200190565b60208082528101610d0d81613d8e565b6000613de361397684613931565b905082815260208101848484011115613dfe57613dfe600080fd5b61266a8482856136ef565b600082601f830112613e1d57613e1d600080fd5b8151611450848260208601613dd5565b801515613636565b8051610d0d81613e2d565b8051610d0d81613634565b60008060008060008060c08789031215613e6757613e67600080fd5b86516001600160401b03811115613e8057613e80600080fd5b613e8c89828a01613e09565b9650506020613e9d89828a01613e35565b9550506040613eae89828a01613e40565b9450506060613ebf89828a01613e40565b9350506080613ed089828a01613e40565b92505060a0613ee189828a01613e35565b9150509295509295509295565b602981526000602082017f534254456e756d657261626c653a20676c6f62616c20696e646578206f7574208152686f6620626f756e647360b81b60208201529150613d1b565b60208082528101610d0d81613eee565b634e487b7160e01b600052603260045260246000fd5b602681526000602082017f5342543a2061646472657373207a65726f206973206e6f7420612076616c69648152651037bbb732b960d11b60208201529150613d1b565b60208082528101610d0d81613f5a565b600060208284031215613fc257613fc2600080fd5b81516001600160401b03811115613fdb57613fdb600080fd5b61145084828501613e09565b60006001600160401b03821115614000576140006138d7565b5060209081020190565b600061401861397684613fe7565b8381529050602080820190840283018581111561403757614037600080fd5b835b818110156140775780516001600160401b0381111561405a5761405a600080fd5b8086016140678982613e09565b8552505060209283019201614039565b5050509392505050565b600082601f83011261409557614095600080fd5b815161145084826020860161400a565b6000602082840312156140ba576140ba600080fd5b81516001600160401b038111156140d3576140d3600080fd5b61145084828501614081565b634e487b7160e01b600052601160045260246000fd5b600082821015614107576141076140df565b500390565b634e487b7160e01b600052603160045260246000fd5b6000600019821415614136576141366140df565b5060010190565b60006020828403121561415257614152600080fd5b60006114508484613e35565b6080810161416c82876136d8565b818103602083015261417e8186613725565b905061418d604083018561381e565b81810360608301526126cc8184613725565b6000602082840312156141b4576141b4600080fd5b60006114508484613e40565b60006141ca825190565b6141d88185602086016136ef565b9290920192915050565b60006141ee82856141c0565b91506141fa82846141c0565b64173539b7b760d91b8152915060058201611450565b601581526000602082017414d0950e881a5b9d985b1a59081d1bdad95b881251605a1b81529150613dbe565b60208082528101610d0d81614210565b601f81526000602082017f5265656e7472616e637947756172643a207265656e7472616e742063616c6c0081529150613dbe565b60208082528101610d0d8161424c565b634e487b7160e01b600052601260045260246000fd5b76020b1b1b2b9b9a1b7b73a3937b61d1030b1b1b7bab73a1604d1b815260170160006142d282856141c0565b7001034b99036b4b9b9b4b733903937b6329607d1b8152601101915061145082846141c0565b6000816000190483118215151615614312576143126140df565b500290565b60008261432657614326614290565b500490565b6000821982111561433e5761433e6140df565b500190565b60408101614351828561381e565b818103602083015261145081846137c4565b600061437161397684613fe7565b8381529050602080820190840283018581111561439057614390600080fd5b835b8181101561407757806143a58882613e40565b84525060209283019201614392565b600082601f8301126143c8576143c8600080fd5b8151611450848260208601614363565b6000602082840312156143ed576143ed600080fd5b81516001600160401b0381111561440657614406600080fd5b611450848285016143b4565b6000610d0d8261377b565b601d81526000602082017f5342543a206d696e7420746f20746865207a65726f206164647265737300000081529150613dbe565b60208082528101610d0d8161441d565b601981526000602082017814d0950e881d1bdad95b88185b1c9958591e481b5a5b9d1959603a1b81529150613dbe565b60208082528101610d0d81614461565b6000816144b0576144b06140df565b506000190190565b60208082527f537472696e67733a20686578206c656e67746820696e73756666696369656e7491019081526000613dbe565b60208082528101610d0d816144b8565b6060810161450882866136d8565b61451560208301856136d8565b611450604083018461381e565b602a81526000602082017f5361666545524332303a204552433230206f7065726174696f6e20646964206e8152691bdd081cdd58d8d9595960b21b60208201529150613d1b565b60208082528101610d0d81614522565b6000610e4782846141c0565b601d81526000602082017f416464726573733a2063616c6c20746f206e6f6e2d636f6e747261637400000081529150613dbe565b60208082528101610d0d8161458556fe52eafc11f6f81f86878bffd31109a0d92f37506527754f00788853ff9f63b1309f2df0fed2c77648de5860a4cc508cd0818c85b8b8a1ab4ceeef8d981c8956a6a2646970667358221220114efb2066dcf0edcbbc770ad0954d558b8811ae581b239c7cabbdccb9d8dae264736f6c63430008080033",
  "devdoc": {
    "author": "Masa Finance",
    "details": "Soulbound identity, that inherits from the SBT contract.",
    "kind": "dev",
    "methods": {
      "balanceOf(address)": {
        "details": "See {ISBT-balanceOf}."
      },
      "burn(uint256)": {
        "details": "Burns `tokenId`. See {SBT-_burn}. Requirements: - The caller must own `tokenId` or be an approved operator."
      },
      "constructor": {
        "details": "Creates a new soulbound identity, inheriting from the SBT contract.",
        "params": {
          "admin": "Administrator of the smart contract",
          "baseTokenURI": "Base URI of the token",
          "name": "Name of the token",
          "paymentParams": "Payment gateway params",
          "symbol": "Symbol of the token"
        }
      },
      "disablePaymentMethod(address)": {
        "details": "The caller must have the admin role to call this function",
        "params": {
          "_paymentMethod": "Token to remove"
        }
      },
      "enablePaymentMethod(address)": {
        "details": "The caller must have the admin role to call this function",
        "params": {
          "_paymentMethod": "New token to add"
        }
      },
      "exists(uint256)": {
        "details": "Returns true if the token has been minted",
        "params": {
          "tokenId": "Token to check"
        },
        "returns": {
          "_0": "True if the token exists"
        }
      },
      "getEnabledPaymentMethods()": {
        "details": "Returns the address of all available payment methods",
        "returns": {
          "_0": "Array of all enabled payment methods"
        }
      },
      "getExtension()": {
        "details": "This function returns the extension of the soul name",
        "returns": {
          "_0": "Extension of the soul name"
        }
      },
      "getIdentityId(uint256)": {
        "params": {
          "tokenId": "Id of the token"
        },
        "returns": {
          "_0": "Id of the identity"
        }
      },
      "getMintPrice(address)": {
        "details": "Returns current pricing for minting",
        "params": {
          "paymentMethod": "Address of token that user want to pay"
        },
        "returns": {
          "price": "Current price for minting in the given payment method"
        }
      },
      "getMintPriceWithProtocolFee(address)": {
        "details": "Returns current pricing for minting with protocol fee",
        "params": {
          "paymentMethod": "Address of token that user want to pay"
        },
        "returns": {
          "price": "Current price for minting in the given payment method",
          "protocolFee": "Current protocol fee for minting in the given payment method"
        }
      },
      "getProtocolFee(address,uint256)": {
        "details": "This method will calculate the protocol fee based on the payment method",
        "params": {
          "amount": "Price to be paid in the specified payment method",
          "paymentMethod": "Address of token that user want to pay"
        }
      },
      "getProtocolFeeSub(uint256)": {
        "details": "This method will calculate the protocol fee based on the payment method",
        "params": {
          "amount": "Price to be paid in the specified payment method"
        }
      },
      "getRoleAdmin(bytes32)": {
        "details": "Returns the admin role that controls `role`. See {grantRole} and {revokeRole}. To change a role's admin, use {_setRoleAdmin}."
      },
      "getSoulName()": {
        "details": "This function returns the address of the SoulName contract linked to this identity",
        "returns": {
          "_0": "Address of the SoulName contract"
        }
      },
      "getSoulNames(address)": {
        "details": "This function queries all the identity names of the specified account",
        "params": {
          "owner": "Address of the owner of the identities"
        },
        "returns": {
          "sbtNames": "Array of soul names associated to the account"
        }
      },
      "getSoulNames(uint256)": {
        "details": "This function queries all the identity names of the specified identity Id",
        "params": {
          "tokenId": "TokenId of the identity"
        },
        "returns": {
          "sbtNames": "Array of soul names associated to the identity Id"
        }
      },
      "getTokenData(string)": {
        "details": "This function queries the information of a soul name",
        "params": {
          "name": "Name of the soul name"
        },
        "returns": {
          "active": "`true` if the soul name is active, `false` otherwise",
          "expirationDate": "Expiration date of the soul name",
          "identityId": "Identity id of the soul name",
          "linked": "`true` if the soul name is linked, `false` otherwise",
          "sbtName": "Soul name, in upper/lower case and extension",
          "tokenId": "SoulName id of the soul name"
        }
      },
      "grantRole(bytes32,address)": {
        "details": "Grants `role` to `account`. If `account` had not been already granted `role`, emits a {RoleGranted} event. Requirements: - the caller must have ``role``'s admin role. May emit a {RoleGranted} event."
      },
      "hasRole(bytes32,address)": {
        "details": "Returns `true` if `account` has been granted `role`."
      },
      "isAvailable(string)": {
        "details": "This function queries if a soul name already exists and is in the available state",
        "params": {
          "name": "Name of the soul name"
        },
        "returns": {
          "available": "`true` if the soul name is available, `false` otherwise"
        }
      },
      "mint(address)": {
        "details": "The caller can only mint one identity per address",
        "params": {
          "to": "Address of the owner of the new identity"
        },
        "returns": {
          "_0": "The identity ID of the newly minted identity"
        }
      },
      "mint(address,address)": {
        "details": "The caller can only mint one identity per address",
        "params": {
          "paymentMethod": "Address of the payment method to use",
          "to": "Address of the owner of the new identity"
        },
        "returns": {
          "_0": "The identity ID of the newly minted identity"
        }
      },
      "mintIdentityWithName(address,address,string,uint256,string)": {
        "details": "The caller can only mint one identity per address, and the name must be unique",
        "params": {
          "_tokenURI": "URI of the NFT",
          "name": "Name of the new identity",
          "paymentMethod": "Address of the payment method to use",
          "to": "Address of the owner of the new identity",
          "yearsPeriod": "Years of validity of the name"
        }
      },
      "mintIdentityWithName(address,string,uint256,string)": {
        "details": "The caller can only mint one identity per address, and the name must be unique",
        "params": {
          "_tokenURI": "URI of the NFT",
          "name": "Name of the new identity",
          "to": "Address of the owner of the new identity",
          "yearsPeriod": "Years of validity of the name"
        }
      },
      "name()": {
        "details": "See {ISBTMetadata-name}."
      },
      "ownerOf(string)": {
        "details": "This function returns the owner address of the soul name identity specified by the name",
        "params": {
          "name": "Name of the soul name"
        },
        "returns": {
          "_0": "Address of the owner of the identity"
        }
      },
      "ownerOf(uint256)": {
        "details": "This function returns the owner address of the identity specified by the tokenId",
        "params": {
          "tokenId": "TokenId of the identity"
        },
        "returns": {
          "_0": "Address of the owner of the identity"
        }
      },
      "renounceRole(bytes32,address)": {
        "details": "Revokes `role` from the calling account. Roles are often managed via {grantRole} and {revokeRole}: this function's purpose is to provide a mechanism for accounts to lose their privileges if they are compromised (such as when a trusted device is misplaced). If the calling account had been revoked `role`, emits a {RoleRevoked} event. Requirements: - the caller must be `account`. May emit a {RoleRevoked} event."
      },
      "revokeRole(bytes32,address)": {
        "details": "Revokes `role` from `account`. If `account` had been granted `role`, emits a {RoleRevoked} event. Requirements: - the caller must have ``role``'s admin role. May emit a {RoleRevoked} event."
      },
      "setAddLinkPrice(uint256)": {
        "details": "The caller must have the admin or project admin role to call this function",
        "params": {
          "_addLinkPrice": "New price for adding the link in SoulLinker in stable coin"
        }
      },
      "setAddLinkPriceMASA(uint256)": {
        "details": "The caller must have the admin or project admin role to call this function",
        "params": {
          "_addLinkPriceMASA": "New price for adding the link in SoulLinker in MASA"
        }
      },
      "setMasaToken(address)": {
        "details": "The caller must have the admin role to call this function It can be set to address(0) to disable paying in MASA",
        "params": {
          "_masaToken": "New utility token to pay the fee in"
        }
      },
      "setMintPrice(uint256)": {
        "details": "The caller must have the admin or project admin role to call this function",
        "params": {
          "_mintPrice": "New price of minting in stable coin"
        }
      },
      "setMintPriceMASA(uint256)": {
        "details": "The caller must have the admin or project admin role to call this function",
        "params": {
          "_mintPriceMASA": "New price of minting in MASA"
        }
      },
      "setProjectFeeReceiver(address)": {
        "details": "The caller must have the admin or project admin role to call this function",
        "params": {
          "_projectFeeReceiver": "New project fee receiver wallet"
        }
      },
      "setProtocolFeeAmount(uint256)": {
        "details": "The caller must have the admin role to call this function",
        "params": {
          "_protocolFeeAmount": "New protocol fee amount"
        }
      },
      "setProtocolFeePercent(uint256)": {
        "details": "The caller must have the admin role to call this function",
        "params": {
          "_protocolFeePercent": "New protocol fee percent added to the project fee"
        }
      },
      "setProtocolFeePercentSub(uint256)": {
        "details": "The caller must have the admin role to call this function",
        "params": {
          "_protocolFeePercentSub": "New protocol fee percent substracted from the amount"
        }
      },
      "setProtocolFeeReceiver(address)": {
        "details": "The caller must have the admin role to call this function",
        "params": {
          "_protocolFeeReceiver": "New protocol fee wallet"
        }
      },
      "setQueryLinkPrice(uint256)": {
        "details": "The caller must have the admin or project admin role to call this function",
        "params": {
          "_queryLinkPrice": "New price for reading data in SoulLinker in stable coin"
        }
      },
      "setQueryLinkPriceMASA(uint256)": {
        "details": "The caller must have the admin or project admin role to call this function",
        "params": {
          "_queryLinkPriceMASA": "New price for reading data in SoulLinker in MASA"
        }
      },
      "setSoulName(address)": {
        "details": "The caller must have the admin role to call this function",
        "params": {
          "_soulName": "Address of the SoulName contract"
        }
      },
      "setSoulboundIdentity(address)": {
        "details": "The caller must be the admin to call this function",
        "params": {
          "_soulboundIdentity": "Address of the SoulboundIdentity contract"
        }
      },
      "setStableCoin(address)": {
        "details": "The caller must have the admin role to call this function",
        "params": {
          "_stableCoin": "New stable coin to pay the fee in"
        }
      },
      "setSwapRouter(address)": {
        "details": "The caller must have the admin role to call this function",
        "params": {
          "_swapRouter": "New swap router address"
        }
      },
      "setWrappedNativeToken(address)": {
        "details": "The caller must have the admin role to call this function",
        "params": {
          "_wrappedNativeToken": "New wrapped native token address"
        }
      },
      "supportsInterface(bytes4)": {
        "details": "Interface identification is specified in ERC-165.",
        "params": {
          "interfaceId": "The interface identifier, as specified in ERC-165"
        },
        "returns": {
          "_0": "`true` if the contract implements `interfaceId` and  `interfaceId` is not 0xffffffff, `false` otherwise"
        }
      },
      "symbol()": {
        "details": "See {ISBTMetadata-symbol}."
      },
      "tokenByIndex(uint256)": {
        "details": "See {ISBTEnumerable-tokenByIndex}."
      },
      "tokenOfOwner(address)": {
        "details": "This function returns the tokenId of the identity owned by an account",
        "params": {
          "owner": "Address of the owner of the identity"
        },
        "returns": {
          "_0": "TokenId of the identity owned by the account"
        }
      },
      "tokenOfOwnerByIndex(address,uint256)": {
        "details": "See {ISBTEnumerable-tokenOfOwnerByIndex}."
      },
      "tokenURI(address)": {
        "details": "This function returns the token URI of the identity owned by an account",
        "params": {
          "owner": "Address of the owner of the identity"
        },
        "returns": {
          "_0": "URI of the identity owned by the account"
        }
      },
      "tokenURI(string)": {
        "details": "This function returns the token URI of the soul name identity specified by the name",
        "params": {
          "name": "Name of the soul name"
        },
        "returns": {
          "_0": "URI of the identity associated to a soul name"
        }
      },
      "tokenURI(uint256)": {
        "details": "Throws if `_tokenId` is not a valid SBT. URIs are defined in RFC  3986. The URI may point to a JSON file that conforms to the \"ERC721  Metadata JSON Schema\".",
        "params": {
          "tokenId": "SBT to get the URI of"
        },
        "returns": {
          "_0": "URI of the SBT"
        }
      },
      "totalSupply()": {
        "details": "See {ISBTEnumerable-totalSupply}."
      }
    },
    "title": "Soulbound Identity",
    "version": 1
  },
  "userdoc": {
    "kind": "user",
    "methods": {
      "constructor": {
        "notice": "Creates a new soulbound identity"
      },
      "disablePaymentMethod(address)": {
        "notice": "Removes a token as a valid payment method"
      },
      "enablePaymentMethod(address)": {
        "notice": "Adds a new token as a valid payment method"
      },
      "exists(uint256)": {
        "notice": "Returns true if the token exists"
      },
      "getEnabledPaymentMethods()": {
        "notice": "Returns all available payment methods"
      },
      "getExtension()": {
        "notice": "Returns the extension of the soul name"
      },
      "getIdentityId(uint256)": {
        "notice": "Returns the identityId owned by the given token"
      },
      "getMintPrice(address)": {
        "notice": "Returns the price for minting"
      },
      "getMintPriceWithProtocolFee(address)": {
        "notice": "Returns the price for minting with protocol fee"
      },
      "getProtocolFee(address,uint256)": {
        "notice": "Calculates the protocol fee added to the project fee"
      },
      "getProtocolFeeSub(uint256)": {
        "notice": "Calculates the protocol fee substracted from the amount"
      },
      "getSoulName()": {
        "notice": "Returns the address of the SoulName contract linked to this identity"
      },
      "getSoulNames(address)": {
        "notice": "Returns all the active soul names of an account"
      },
      "getSoulNames(uint256)": {
        "notice": "Returns all the active soul names of an account"
      },
      "getTokenData(string)": {
        "notice": "Returns the information of a soul name"
      },
      "isAvailable(string)": {
        "notice": "Checks if a soul name is available"
      },
      "mint(address)": {
        "notice": "Mints a new soulbound identity"
      },
      "mint(address,address)": {
        "notice": "Mints a new soulbound identity"
      },
      "mintIdentityWithName(address,address,string,uint256,string)": {
        "notice": "Mints a new soulbound identity with a SoulName associated to it"
      },
      "mintIdentityWithName(address,string,uint256,string)": {
        "notice": "Mints a new soulbound identity with a SoulName associated to it"
      },
      "ownerOf(string)": {
        "notice": "Returns the owner address of a soul name"
      },
      "ownerOf(uint256)": {
        "notice": "Returns the owner address of an identity"
      },
      "setAddLinkPrice(uint256)": {
        "notice": "Sets the price for adding the link in SoulLinker in stable coin"
      },
      "setAddLinkPriceMASA(uint256)": {
        "notice": "Sets the price for adding the link in SoulLinker in MASA"
      },
      "setMasaToken(address)": {
        "notice": "Sets the utility token to pay the fee in (MASA)"
      },
      "setMintPrice(uint256)": {
        "notice": "Sets the price of minting in stable coin"
      },
      "setMintPriceMASA(uint256)": {
        "notice": "Sets the price of minting in MASA"
      },
      "setProjectFeeReceiver(address)": {
        "notice": "Set the project fee receiver wallet"
      },
      "setProtocolFeeAmount(uint256)": {
        "notice": "Set the protocol fee amount"
      },
      "setProtocolFeePercent(uint256)": {
        "notice": "Set the protocol fee percent added to the project fee"
      },
      "setProtocolFeePercentSub(uint256)": {
        "notice": "Set the protocol fee percent substracted from the amount"
      },
      "setProtocolFeeReceiver(address)": {
        "notice": "Set the protocol fee wallet"
      },
      "setQueryLinkPrice(uint256)": {
        "notice": "Sets the price for reading data in SoulLinker in stable coin"
      },
      "setQueryLinkPriceMASA(uint256)": {
        "notice": "Sets the price for reading data in SoulLinker in MASA"
      },
      "setSoulName(address)": {
        "notice": "Sets the SoulName contract address linked to this identity"
      },
      "setSoulboundIdentity(address)": {
        "notice": "Sets the SoulboundIdentity contract address linked to this SBT"
      },
      "setStableCoin(address)": {
        "notice": "Sets the stable coin to pay the fee in (USDC)"
      },
      "setSwapRouter(address)": {
        "notice": "Sets the swap router address"
      },
      "setWrappedNativeToken(address)": {
        "notice": "Sets the wrapped native token address"
      },
      "supportsInterface(bytes4)": {
        "notice": "Query if a contract implements an interface"
      },
      "tokenOfOwner(address)": {
        "notice": "Returns the identity id of an account"
      },
      "tokenURI(address)": {
        "notice": "Returns the URI of the owner of an identity"
      },
      "tokenURI(string)": {
        "notice": "Returns the URI of a soul name"
      },
      "tokenURI(uint256)": {
        "notice": "A distinct Uniform Resource Identifier (URI) for a given asset."
      }
    },
    "notice": "Soulbound token that represents an identity.",
    "version": 1
  },
  "storageLayout": {
    "storage": [
      {
        "astId": 24,
        "contract": "contracts/SoulboundIdentity.sol:SoulboundIdentity",
        "label": "_roles",
        "offset": 0,
        "slot": "0",
        "type": "t_mapping(t_bytes32,t_struct(RoleData)19_storage)"
      },
      {
        "astId": 9952,
        "contract": "contracts/SoulboundIdentity.sol:SoulboundIdentity",
        "label": "swapRouter",
        "offset": 0,
        "slot": "1",
        "type": "t_address"
      },
      {
        "astId": 9954,
        "contract": "contracts/SoulboundIdentity.sol:SoulboundIdentity",
        "label": "wrappedNativeToken",
        "offset": 0,
        "slot": "2",
        "type": "t_address"
      },
      {
        "astId": 9956,
        "contract": "contracts/SoulboundIdentity.sol:SoulboundIdentity",
        "label": "stableCoin",
        "offset": 0,
        "slot": "3",
        "type": "t_address"
      },
      {
        "astId": 9958,
        "contract": "contracts/SoulboundIdentity.sol:SoulboundIdentity",
        "label": "masaToken",
        "offset": 0,
        "slot": "4",
        "type": "t_address"
      },
      {
        "astId": 9962,
        "contract": "contracts/SoulboundIdentity.sol:SoulboundIdentity",
        "label": "enabledPaymentMethod",
        "offset": 0,
        "slot": "5",
        "type": "t_mapping(t_address,t_bool)"
      },
      {
        "astId": 9965,
        "contract": "contracts/SoulboundIdentity.sol:SoulboundIdentity",
        "label": "enabledPaymentMethods",
        "offset": 0,
        "slot": "6",
        "type": "t_array(t_address)dyn_storage"
      },
      {
        "astId": 9967,
        "contract": "contracts/SoulboundIdentity.sol:SoulboundIdentity",
        "label": "projectFeeReceiver",
        "offset": 0,
        "slot": "7",
        "type": "t_address"
      },
      {
        "astId": 9969,
        "contract": "contracts/SoulboundIdentity.sol:SoulboundIdentity",
        "label": "protocolFeeReceiver",
        "offset": 0,
        "slot": "8",
        "type": "t_address"
      },
      {
        "astId": 9971,
        "contract": "contracts/SoulboundIdentity.sol:SoulboundIdentity",
        "label": "protocolFeeAmount",
        "offset": 0,
        "slot": "9",
        "type": "t_uint256"
      },
      {
        "astId": 9973,
        "contract": "contracts/SoulboundIdentity.sol:SoulboundIdentity",
        "label": "protocolFeePercent",
        "offset": 0,
        "slot": "10",
        "type": "t_uint256"
      },
      {
        "astId": 9975,
        "contract": "contracts/SoulboundIdentity.sol:SoulboundIdentity",
        "label": "protocolFeePercentSub",
        "offset": 0,
        "slot": "11",
        "type": "t_uint256"
      },
      {
        "astId": 26511,
        "contract": "contracts/SoulboundIdentity.sol:SoulboundIdentity",
        "label": "_name",
        "offset": 0,
        "slot": "12",
        "type": "t_string_storage"
      },
      {
        "astId": 26513,
        "contract": "contracts/SoulboundIdentity.sol:SoulboundIdentity",
        "label": "_symbol",
        "offset": 0,
        "slot": "13",
        "type": "t_string_storage"
      },
      {
        "astId": 26517,
        "contract": "contracts/SoulboundIdentity.sol:SoulboundIdentity",
        "label": "_owners",
        "offset": 0,
        "slot": "14",
        "type": "t_mapping(t_uint256,t_address)"
      },
      {
        "astId": 26521,
        "contract": "contracts/SoulboundIdentity.sol:SoulboundIdentity",
        "label": "_balances",
        "offset": 0,
        "slot": "15",
        "type": "t_mapping(t_address,t_uint256)"
      },
      {
        "astId": 26980,
        "contract": "contracts/SoulboundIdentity.sol:SoulboundIdentity",
        "label": "_ownedTokens",
        "offset": 0,
        "slot": "16",
        "type": "t_mapping(t_address,t_mapping(t_uint256,t_uint256))"
      },
      {
        "astId": 26984,
        "contract": "contracts/SoulboundIdentity.sol:SoulboundIdentity",
        "label": "_ownedTokensIndex",
        "offset": 0,
        "slot": "17",
        "type": "t_mapping(t_uint256,t_uint256)"
      },
      {
        "astId": 26987,
        "contract": "contracts/SoulboundIdentity.sol:SoulboundIdentity",
        "label": "_allTokens",
        "offset": 0,
        "slot": "18",
        "type": "t_array(t_uint256)dyn_storage"
      },
      {
        "astId": 26991,
        "contract": "contracts/SoulboundIdentity.sol:SoulboundIdentity",
        "label": "_allTokensIndex",
        "offset": 0,
        "slot": "19",
        "type": "t_mapping(t_uint256,t_uint256)"
      },
      {
        "astId": 25597,
        "contract": "contracts/SoulboundIdentity.sol:SoulboundIdentity",
        "label": "_baseTokenURI",
        "offset": 0,
        "slot": "20",
        "type": "t_string_storage"
      },
      {
        "astId": 25600,
        "contract": "contracts/SoulboundIdentity.sol:SoulboundIdentity",
        "label": "soulboundIdentity",
        "offset": 0,
        "slot": "21",
        "type": "t_contract(ISoulboundIdentity)11115"
      },
      {
        "astId": 25602,
        "contract": "contracts/SoulboundIdentity.sol:SoulboundIdentity",
        "label": "mintPrice",
        "offset": 0,
        "slot": "22",
        "type": "t_uint256"
      },
      {
        "astId": 25604,
        "contract": "contracts/SoulboundIdentity.sol:SoulboundIdentity",
        "label": "mintPriceMASA",
        "offset": 0,
        "slot": "23",
        "type": "t_uint256"
      },
      {
        "astId": 25607,
        "contract": "contracts/SoulboundIdentity.sol:SoulboundIdentity",
        "label": "addLinkPrice",
        "offset": 0,
        "slot": "24",
        "type": "t_uint256"
      },
      {
        "astId": 25610,
        "contract": "contracts/SoulboundIdentity.sol:SoulboundIdentity",
        "label": "addLinkPriceMASA",
        "offset": 0,
        "slot": "25",
        "type": "t_uint256"
      },
      {
        "astId": 25613,
        "contract": "contracts/SoulboundIdentity.sol:SoulboundIdentity",
        "label": "queryLinkPrice",
        "offset": 0,
        "slot": "26",
        "type": "t_uint256"
      },
      {
        "astId": 25616,
        "contract": "contracts/SoulboundIdentity.sol:SoulboundIdentity",
        "label": "queryLinkPriceMASA",
        "offset": 0,
        "slot": "27",
        "type": "t_uint256"
      },
      {
        "astId": 26143,
        "contract": "contracts/SoulboundIdentity.sol:SoulboundIdentity",
        "label": "_tokenIdCounter",
        "offset": 0,
        "slot": "28",
        "type": "t_struct(Counter)3050_storage"
      },
      {
        "astId": 645,
        "contract": "contracts/SoulboundIdentity.sol:SoulboundIdentity",
        "label": "_status",
        "offset": 0,
        "slot": "29",
        "type": "t_uint256"
      },
      {
        "astId": 9517,
        "contract": "contracts/SoulboundIdentity.sol:SoulboundIdentity",
        "label": "soulName",
        "offset": 0,
        "slot": "30",
        "type": "t_contract(ISoulName)11051"
      }
    ],
    "types": {
      "t_address": {
        "encoding": "inplace",
        "label": "address",
        "numberOfBytes": "20"
      },
      "t_array(t_address)dyn_storage": {
        "base": "t_address",
        "encoding": "dynamic_array",
        "label": "address[]",
        "numberOfBytes": "32"
      },
      "t_array(t_uint256)dyn_storage": {
        "base": "t_uint256",
        "encoding": "dynamic_array",
        "label": "uint256[]",
        "numberOfBytes": "32"
      },
      "t_bool": {
        "encoding": "inplace",
        "label": "bool",
        "numberOfBytes": "1"
      },
      "t_bytes32": {
        "encoding": "inplace",
        "label": "bytes32",
        "numberOfBytes": "32"
      },
      "t_contract(ISoulName)11051": {
        "encoding": "inplace",
        "label": "contract ISoulName",
        "numberOfBytes": "20"
      },
      "t_contract(ISoulboundIdentity)11115": {
        "encoding": "inplace",
        "label": "contract ISoulboundIdentity",
        "numberOfBytes": "20"
      },
      "t_mapping(t_address,t_bool)": {
        "encoding": "mapping",
        "key": "t_address",
        "label": "mapping(address => bool)",
        "numberOfBytes": "32",
        "value": "t_bool"
      },
      "t_mapping(t_address,t_mapping(t_uint256,t_uint256))": {
        "encoding": "mapping",
        "key": "t_address",
        "label": "mapping(address => mapping(uint256 => uint256))",
        "numberOfBytes": "32",
        "value": "t_mapping(t_uint256,t_uint256)"
      },
      "t_mapping(t_address,t_uint256)": {
        "encoding": "mapping",
        "key": "t_address",
        "label": "mapping(address => uint256)",
        "numberOfBytes": "32",
        "value": "t_uint256"
      },
      "t_mapping(t_bytes32,t_struct(RoleData)19_storage)": {
        "encoding": "mapping",
        "key": "t_bytes32",
        "label": "mapping(bytes32 => struct AccessControl.RoleData)",
        "numberOfBytes": "32",
        "value": "t_struct(RoleData)19_storage"
      },
      "t_mapping(t_uint256,t_address)": {
        "encoding": "mapping",
        "key": "t_uint256",
        "label": "mapping(uint256 => address)",
        "numberOfBytes": "32",
        "value": "t_address"
      },
      "t_mapping(t_uint256,t_uint256)": {
        "encoding": "mapping",
        "key": "t_uint256",
        "label": "mapping(uint256 => uint256)",
        "numberOfBytes": "32",
        "value": "t_uint256"
      },
      "t_string_storage": {
        "encoding": "bytes",
        "label": "string",
        "numberOfBytes": "32"
      },
      "t_struct(Counter)3050_storage": {
        "encoding": "inplace",
        "label": "struct Counters.Counter",
        "members": [
          {
            "astId": 3049,
            "contract": "contracts/SoulboundIdentity.sol:SoulboundIdentity",
            "label": "_value",
            "offset": 0,
            "slot": "0",
            "type": "t_uint256"
          }
        ],
        "numberOfBytes": "32"
      },
      "t_struct(RoleData)19_storage": {
        "encoding": "inplace",
        "label": "struct AccessControl.RoleData",
        "members": [
          {
            "astId": 16,
            "contract": "contracts/SoulboundIdentity.sol:SoulboundIdentity",
            "label": "members",
            "offset": 0,
            "slot": "0",
            "type": "t_mapping(t_address,t_bool)"
          },
          {
            "astId": 18,
            "contract": "contracts/SoulboundIdentity.sol:SoulboundIdentity",
            "label": "adminRole",
            "offset": 0,
            "slot": "1",
            "type": "t_bytes32"
          }
        ],
        "numberOfBytes": "64"
      },
      "t_uint256": {
        "encoding": "inplace",
        "label": "uint256",
        "numberOfBytes": "32"
      }
    }
  }
}