{
  "address": "0x6Aa37dF2392007209C54A2162beF21623705dC22",
  "abi": [
    {
      "inputs": [
        {
          "internalType": "address",
          "name": "admin",
          "type": "address"
        },
        {
          "internalType": "contract ISoulboundIdentity",
          "name": "_soulBoundIdentity",
          "type": "address"
        },
        {
          "internalType": "contract ISoulName",
          "name": "_soulName",
          "type": "address"
        },
        {
          "internalType": "uint256",
          "name": "_nameRegistrationPricePerYear",
          "type": "uint256"
        },
        {
          "components": [
            {
              "internalType": "address",
              "name": "swapRouter",
              "type": "address"
            },
            {
              "internalType": "address",
              "name": "wrappedNativeToken",
              "type": "address"
            },
            {
              "internalType": "address",
              "name": "stableCoin",
              "type": "address"
            },
            {
              "internalType": "address",
              "name": "masaToken",
              "type": "address"
            },
            {
              "internalType": "address",
              "name": "projectFeeReceiver",
              "type": "address"
            },
            {
              "internalType": "address",
              "name": "protocolFeeReceiver",
              "type": "address"
            },
            {
              "internalType": "uint256",
              "name": "protocolFeeAmount",
              "type": "uint256"
            },
            {
              "internalType": "uint256",
              "name": "protocolFeePercent",
              "type": "uint256"
            }
          ],
          "internalType": "struct PaymentGateway.PaymentParams",
          "name": "paymentParams",
          "type": "tuple"
        }
      ],
      "stateMutability": "nonpayable",
      "type": "constructor"
    },
    {
      "inputs": [],
      "name": "AlreadyAdded",
      "type": "error"
    },
    {
      "inputs": [
        {
          "internalType": "address",
          "name": "authority",
          "type": "address"
        }
      ],
      "name": "AuthorityNotExists",
      "type": "error"
    },
    {
      "inputs": [
        {
          "internalType": "uint256",
          "name": "amount",
          "type": "uint256"
        }
      ],
      "name": "InsufficientEthAmount",
      "type": "error"
    },
    {
      "inputs": [
        {
          "internalType": "address",
          "name": "paymentMethod",
          "type": "address"
        }
      ],
      "name": "InvalidPaymentMethod",
      "type": "error"
    },
    {
      "inputs": [],
      "name": "InvalidSignature",
      "type": "error"
    },
    {
      "inputs": [
        {
          "internalType": "address",
          "name": "token",
          "type": "address"
        }
      ],
      "name": "InvalidToken",
      "type": "error"
    },
    {
      "inputs": [
        {
          "internalType": "address",
          "name": "erc20token",
          "type": "address"
        }
      ],
      "name": "NonExistingErc20Token",
      "type": "error"
    },
    {
      "inputs": [
        {
          "internalType": "address",
          "name": "signer",
          "type": "address"
        }
      ],
      "name": "NotAuthorized",
      "type": "error"
    },
    {
      "inputs": [],
      "name": "PaymentParamsNotSet",
      "type": "error"
    },
    {
      "inputs": [],
      "name": "ProtocolFeeReceiverNotSet",
      "type": "error"
    },
    {
      "inputs": [],
      "name": "RefundFailed",
      "type": "error"
    },
    {
      "inputs": [],
      "name": "SameValue",
      "type": "error"
    },
    {
      "inputs": [],
      "name": "TransferFailed",
      "type": "error"
    },
    {
      "inputs": [],
      "name": "UserMustHaveProtocolOrProjectAdminRole",
      "type": "error"
    },
    {
      "inputs": [],
      "name": "ZeroAddress",
      "type": "error"
    },
    {
      "anonymous": false,
      "inputs": [
        {
          "indexed": false,
          "internalType": "address",
          "name": "account",
          "type": "address"
        }
      ],
      "name": "Paused",
      "type": "event"
    },
    {
      "anonymous": false,
      "inputs": [
        {
          "indexed": true,
          "internalType": "bytes32",
          "name": "role",
          "type": "bytes32"
        },
        {
          "indexed": true,
          "internalType": "bytes32",
          "name": "previousAdminRole",
          "type": "bytes32"
        },
        {
          "indexed": true,
          "internalType": "bytes32",
          "name": "newAdminRole",
          "type": "bytes32"
        }
      ],
      "name": "RoleAdminChanged",
      "type": "event"
    },
    {
      "anonymous": false,
      "inputs": [
        {
          "indexed": true,
          "internalType": "bytes32",
          "name": "role",
          "type": "bytes32"
        },
        {
          "indexed": true,
          "internalType": "address",
          "name": "account",
          "type": "address"
        },
        {
          "indexed": true,
          "internalType": "address",
          "name": "sender",
          "type": "address"
        }
      ],
      "name": "RoleGranted",
      "type": "event"
    },
    {
      "anonymous": false,
      "inputs": [
        {
          "indexed": true,
          "internalType": "bytes32",
          "name": "role",
          "type": "bytes32"
        },
        {
          "indexed": true,
          "internalType": "address",
          "name": "account",
          "type": "address"
        },
        {
          "indexed": true,
          "internalType": "address",
          "name": "sender",
          "type": "address"
        }
      ],
      "name": "RoleRevoked",
      "type": "event"
    },
    {
      "anonymous": false,
      "inputs": [
        {
          "indexed": true,
          "internalType": "address",
          "name": "account",
          "type": "address"
        },
        {
          "indexed": false,
          "internalType": "uint256",
          "name": "tokenId",
          "type": "uint256"
        },
        {
          "indexed": true,
          "internalType": "string",
          "name": "name",
          "type": "string"
        },
        {
          "indexed": false,
          "internalType": "uint256",
          "name": "yearsPeriod",
          "type": "uint256"
        }
      ],
      "name": "SoulNamePurchased",
      "type": "event"
    },
    {
      "anonymous": false,
      "inputs": [
        {
          "indexed": true,
          "internalType": "address",
          "name": "account",
          "type": "address"
        },
        {
          "indexed": false,
          "internalType": "uint256",
          "name": "tokenId",
          "type": "uint256"
        },
        {
          "indexed": true,
          "internalType": "string",
          "name": "name",
          "type": "string"
        },
        {
          "indexed": false,
          "internalType": "uint256",
          "name": "yearsPeriod",
          "type": "uint256"
        }
      ],
      "name": "SoulboundIdentityAndNamePurchased",
      "type": "event"
    },
    {
      "anonymous": false,
      "inputs": [
        {
          "indexed": true,
          "internalType": "address",
          "name": "account",
          "type": "address"
        },
        {
          "indexed": false,
          "internalType": "uint256",
          "name": "tokenId",
          "type": "uint256"
        }
      ],
      "name": "SoulboundIdentityPurchased",
      "type": "event"
    },
    {
      "anonymous": false,
      "inputs": [
        {
          "indexed": false,
          "internalType": "address",
          "name": "account",
          "type": "address"
        }
      ],
      "name": "Unpaused",
      "type": "event"
    },
    {
      "inputs": [],
      "name": "DEFAULT_ADMIN_ROLE",
      "outputs": [
        {
          "internalType": "bytes32",
          "name": "",
          "type": "bytes32"
        }
      ],
      "stateMutability": "view",
      "type": "function"
    },
    {
      "inputs": [],
      "name": "PROJECT_ADMIN_ROLE",
      "outputs": [
        {
          "internalType": "bytes32",
          "name": "",
          "type": "bytes32"
        }
      ],
      "stateMutability": "view",
      "type": "function"
    },
    {
      "inputs": [
        {
          "internalType": "address",
          "name": "_authority",
          "type": "address"
        }
      ],
      "name": "addAuthority",
      "outputs": [],
      "stateMutability": "nonpayable",
      "type": "function"
    },
    {
      "inputs": [
        {
          "internalType": "address",
          "name": "",
          "type": "address"
        }
      ],
      "name": "authorities",
      "outputs": [
        {
          "internalType": "bool",
          "name": "",
          "type": "bool"
        }
      ],
      "stateMutability": "view",
      "type": "function"
    },
    {
      "inputs": [
        {
          "internalType": "address",
          "name": "_paymentMethod",
          "type": "address"
        }
      ],
      "name": "disablePaymentMethod",
      "outputs": [],
      "stateMutability": "nonpayable",
      "type": "function"
    },
    {
      "inputs": [
        {
          "internalType": "address",
          "name": "_paymentMethod",
          "type": "address"
        }
      ],
      "name": "enablePaymentMethod",
      "outputs": [],
      "stateMutability": "nonpayable",
      "type": "function"
    },
    {
      "inputs": [
        {
          "internalType": "address",
          "name": "",
          "type": "address"
        }
      ],
      "name": "enabledPaymentMethod",
      "outputs": [
        {
          "internalType": "bool",
          "name": "",
          "type": "bool"
        }
      ],
      "stateMutability": "view",
      "type": "function"
    },
    {
      "inputs": [
        {
          "internalType": "uint256",
          "name": "",
          "type": "uint256"
        }
      ],
      "name": "enabledPaymentMethods",
      "outputs": [
        {
          "internalType": "address",
          "name": "",
          "type": "address"
        }
      ],
      "stateMutability": "view",
      "type": "function"
    },
    {
      "inputs": [],
      "name": "getEnabledPaymentMethods",
      "outputs": [
        {
          "internalType": "address[]",
          "name": "",
          "type": "address[]"
        }
      ],
      "stateMutability": "view",
      "type": "function"
    },
    {
      "inputs": [
        {
          "internalType": "uint256",
          "name": "nameLength",
          "type": "uint256"
        }
      ],
      "name": "getNameRegistrationPricePerYear",
      "outputs": [
        {
          "internalType": "uint256",
          "name": "",
          "type": "uint256"
        }
      ],
      "stateMutability": "view",
      "type": "function"
    },
    {
      "inputs": [
        {
          "internalType": "address",
          "name": "paymentMethod",
          "type": "address"
        },
        {
          "internalType": "uint256",
          "name": "nameLength",
          "type": "uint256"
        },
        {
          "internalType": "uint256",
          "name": "yearsPeriod",
          "type": "uint256"
        }
      ],
      "name": "getPriceForMintingName",
      "outputs": [
        {
          "internalType": "uint256",
          "name": "price",
          "type": "uint256"
        }
      ],
      "stateMutability": "view",
      "type": "function"
    },
    {
      "inputs": [
        {
          "internalType": "address",
          "name": "paymentMethod",
          "type": "address"
        },
        {
          "internalType": "uint256",
          "name": "nameLength",
          "type": "uint256"
        },
        {
          "internalType": "uint256",
          "name": "yearsPeriod",
          "type": "uint256"
        }
      ],
      "name": "getPriceForMintingNameWithProtocolFee",
      "outputs": [
        {
          "internalType": "uint256",
          "name": "price",
          "type": "uint256"
        },
        {
          "internalType": "uint256",
          "name": "protocolFee",
          "type": "uint256"
        }
      ],
      "stateMutability": "view",
      "type": "function"
    },
    {
      "inputs": [
        {
          "internalType": "address",
          "name": "paymentMethod",
          "type": "address"
        },
        {
          "internalType": "uint256",
          "name": "amount",
          "type": "uint256"
        }
      ],
      "name": "getProtocolFee",
      "outputs": [
        {
          "internalType": "uint256",
          "name": "",
          "type": "uint256"
        }
      ],
      "stateMutability": "view",
      "type": "function"
    },
    {
      "inputs": [
        {
          "internalType": "bytes32",
          "name": "role",
          "type": "bytes32"
        }
      ],
      "name": "getRoleAdmin",
      "outputs": [
        {
          "internalType": "bytes32",
          "name": "",
          "type": "bytes32"
        }
      ],
      "stateMutability": "view",
      "type": "function"
    },
    {
      "inputs": [
        {
          "internalType": "bytes32",
          "name": "role",
          "type": "bytes32"
        },
        {
          "internalType": "address",
          "name": "account",
          "type": "address"
        }
      ],
      "name": "grantRole",
      "outputs": [],
      "stateMutability": "nonpayable",
      "type": "function"
    },
    {
      "inputs": [
        {
          "internalType": "bytes32",
          "name": "role",
          "type": "bytes32"
        },
        {
          "internalType": "address",
          "name": "account",
          "type": "address"
        }
      ],
      "name": "hasRole",
      "outputs": [
        {
          "internalType": "bool",
          "name": "",
          "type": "bool"
        }
      ],
      "stateMutability": "view",
      "type": "function"
    },
    {
      "inputs": [],
      "name": "masaToken",
      "outputs": [
        {
          "internalType": "address",
          "name": "",
          "type": "address"
        }
      ],
      "stateMutability": "view",
      "type": "function"
    },
    {
      "inputs": [
        {
          "internalType": "uint256",
          "name": "",
          "type": "uint256"
        }
      ],
      "name": "nameRegistrationPricePerYear",
      "outputs": [
        {
          "internalType": "uint256",
          "name": "",
          "type": "uint256"
        }
      ],
      "stateMutability": "view",
      "type": "function"
    },
    {
      "inputs": [],
      "name": "pause",
      "outputs": [],
      "stateMutability": "nonpayable",
      "type": "function"
    },
    {
      "inputs": [],
      "name": "paused",
      "outputs": [
        {
          "internalType": "bool",
          "name": "",
          "type": "bool"
        }
      ],
      "stateMutability": "view",
      "type": "function"
    },
    {
      "inputs": [],
      "name": "projectFeeReceiver",
      "outputs": [
        {
          "internalType": "address",
          "name": "",
          "type": "address"
        }
      ],
      "stateMutability": "view",
      "type": "function"
    },
    {
      "inputs": [],
      "name": "protocolFeeAmount",
      "outputs": [
        {
          "internalType": "uint256",
          "name": "",
          "type": "uint256"
        }
      ],
      "stateMutability": "view",
      "type": "function"
    },
    {
      "inputs": [],
      "name": "protocolFeePercent",
      "outputs": [
        {
          "internalType": "uint256",
          "name": "",
          "type": "uint256"
        }
      ],
      "stateMutability": "view",
      "type": "function"
    },
    {
      "inputs": [],
      "name": "protocolFeeReceiver",
      "outputs": [
        {
          "internalType": "address",
          "name": "",
          "type": "address"
        }
      ],
      "stateMutability": "view",
      "type": "function"
    },
    {
      "inputs": [],
      "name": "purchaseIdentity",
      "outputs": [
        {
          "internalType": "uint256",
          "name": "",
          "type": "uint256"
        }
      ],
      "stateMutability": "nonpayable",
      "type": "function"
    },
    {
      "inputs": [
        {
          "internalType": "address",
          "name": "paymentMethod",
          "type": "address"
        },
        {
          "internalType": "string",
          "name": "name",
          "type": "string"
        },
        {
          "internalType": "uint256",
          "name": "nameLength",
          "type": "uint256"
        },
        {
          "internalType": "uint256",
          "name": "yearsPeriod",
          "type": "uint256"
        },
        {
          "internalType": "string",
          "name": "tokenURI",
          "type": "string"
        },
        {
          "internalType": "address",
          "name": "authorityAddress",
          "type": "address"
        },
        {
          "internalType": "bytes",
          "name": "signature",
          "type": "bytes"
        }
      ],
      "name": "purchaseIdentityAndName",
      "outputs": [
        {
          "internalType": "uint256",
          "name": "",
          "type": "uint256"
        }
      ],
      "stateMutability": "payable",
      "type": "function"
    },
    {
      "inputs": [
        {
          "internalType": "address",
          "name": "paymentMethod",
          "type": "address"
        },
        {
          "internalType": "address",
          "name": "to",
          "type": "address"
        },
        {
          "internalType": "string",
          "name": "name",
          "type": "string"
        },
        {
          "internalType": "uint256",
          "name": "nameLength",
          "type": "uint256"
        },
        {
          "internalType": "uint256",
          "name": "yearsPeriod",
          "type": "uint256"
        },
        {
          "internalType": "string",
          "name": "tokenURI",
          "type": "string"
        },
        {
          "internalType": "address",
          "name": "authorityAddress",
          "type": "address"
        },
        {
          "internalType": "bytes",
          "name": "signature",
          "type": "bytes"
        }
      ],
      "name": "purchaseName",
      "outputs": [
        {
          "internalType": "uint256",
          "name": "",
          "type": "uint256"
        }
      ],
      "stateMutability": "payable",
      "type": "function"
    },
    {
      "inputs": [
        {
          "internalType": "address",
          "name": "_authority",
          "type": "address"
        }
      ],
      "name": "removeAuthority",
      "outputs": [],
      "stateMutability": "nonpayable",
      "type": "function"
    },
    {
      "inputs": [
        {
          "internalType": "bytes32",
          "name": "role",
          "type": "bytes32"
        },
        {
          "internalType": "address",
          "name": "account",
          "type": "address"
        }
      ],
      "name": "renounceRole",
      "outputs": [],
      "stateMutability": "nonpayable",
      "type": "function"
    },
    {
      "inputs": [
        {
          "internalType": "bytes32",
          "name": "role",
          "type": "bytes32"
        },
        {
          "internalType": "address",
          "name": "account",
          "type": "address"
        }
      ],
      "name": "revokeRole",
      "outputs": [],
      "stateMutability": "nonpayable",
      "type": "function"
    },
    {
      "inputs": [
        {
          "internalType": "address",
          "name": "_masaToken",
          "type": "address"
        }
      ],
      "name": "setMasaToken",
      "outputs": [],
      "stateMutability": "nonpayable",
      "type": "function"
    },
    {
      "inputs": [
        {
          "internalType": "uint256",
          "name": "_nameLength",
          "type": "uint256"
        },
        {
          "internalType": "uint256",
          "name": "_nameRegistrationPricePerYear",
          "type": "uint256"
        }
      ],
      "name": "setNameRegistrationPricePerYear",
      "outputs": [],
      "stateMutability": "nonpayable",
      "type": "function"
    },
    {
      "inputs": [
        {
          "internalType": "address",
          "name": "_projectFeeReceiver",
          "type": "address"
        }
      ],
      "name": "setProjectFeeReceiver",
      "outputs": [],
      "stateMutability": "nonpayable",
      "type": "function"
    },
    {
      "inputs": [
        {
          "internalType": "uint256",
          "name": "_protocolFeeAmount",
          "type": "uint256"
        }
      ],
      "name": "setProtocolFeeAmount",
      "outputs": [],
      "stateMutability": "nonpayable",
      "type": "function"
    },
    {
      "inputs": [
        {
          "internalType": "uint256",
          "name": "_protocolFeePercent",
          "type": "uint256"
        }
      ],
      "name": "setProtocolFeePercent",
      "outputs": [],
      "stateMutability": "nonpayable",
      "type": "function"
    },
    {
      "inputs": [
        {
          "internalType": "address",
          "name": "_protocolFeeReceiver",
          "type": "address"
        }
      ],
      "name": "setProtocolFeeReceiver",
      "outputs": [],
      "stateMutability": "nonpayable",
      "type": "function"
    },
    {
      "inputs": [
        {
          "internalType": "contract ISoulName",
          "name": "_soulName",
          "type": "address"
        }
      ],
      "name": "setSoulName",
      "outputs": [],
      "stateMutability": "nonpayable",
      "type": "function"
    },
    {
      "inputs": [
        {
          "internalType": "contract ISoulboundIdentity",
          "name": "_soulboundIdentity",
          "type": "address"
        }
      ],
      "name": "setSoulboundIdentity",
      "outputs": [],
      "stateMutability": "nonpayable",
      "type": "function"
    },
    {
      "inputs": [
        {
          "internalType": "address",
          "name": "_stableCoin",
          "type": "address"
        }
      ],
      "name": "setStableCoin",
      "outputs": [],
      "stateMutability": "nonpayable",
      "type": "function"
    },
    {
      "inputs": [
        {
          "internalType": "address",
          "name": "_swapRouter",
          "type": "address"
        }
      ],
      "name": "setSwapRouter",
      "outputs": [],
      "stateMutability": "nonpayable",
      "type": "function"
    },
    {
      "inputs": [
        {
          "internalType": "address",
          "name": "_wrappedNativeToken",
          "type": "address"
        }
      ],
      "name": "setWrappedNativeToken",
      "outputs": [],
      "stateMutability": "nonpayable",
      "type": "function"
    },
    {
      "inputs": [],
      "name": "soulName",
      "outputs": [
        {
          "internalType": "contract ISoulName",
          "name": "",
          "type": "address"
        }
      ],
      "stateMutability": "view",
      "type": "function"
    },
    {
      "inputs": [],
      "name": "soulboundIdentity",
      "outputs": [
        {
          "internalType": "contract ISoulboundIdentity",
          "name": "",
          "type": "address"
        }
      ],
      "stateMutability": "view",
      "type": "function"
    },
    {
      "inputs": [],
      "name": "stableCoin",
      "outputs": [
        {
          "internalType": "address",
          "name": "",
          "type": "address"
        }
      ],
      "stateMutability": "view",
      "type": "function"
    },
    {
      "inputs": [
        {
          "internalType": "bytes4",
          "name": "interfaceId",
          "type": "bytes4"
        }
      ],
      "name": "supportsInterface",
      "outputs": [
        {
          "internalType": "bool",
          "name": "",
          "type": "bool"
        }
      ],
      "stateMutability": "view",
      "type": "function"
    },
    {
      "inputs": [],
      "name": "swapRouter",
      "outputs": [
        {
          "internalType": "address",
          "name": "",
          "type": "address"
        }
      ],
      "stateMutability": "view",
      "type": "function"
    },
    {
      "inputs": [],
      "name": "unpause",
      "outputs": [],
      "stateMutability": "nonpayable",
      "type": "function"
    },
    {
      "inputs": [],
      "name": "wrappedNativeToken",
      "outputs": [
        {
          "internalType": "address",
          "name": "",
          "type": "address"
        }
      ],
      "stateMutability": "view",
      "type": "function"
    }
  ],
  "transactionHash": "0xb445411e2582e1c00550e030ffdd2bb0d61127ad7ee502a41320eb792af592ed",
  "args": [
    "0x84a74cc52048dd8421df4a9eb139d91bb7744b4e",
    "0x576E82208df807B07b9e4B4bDBd7F7862F1152a9",
    "0x836198F984431EcdC97A7549C1Bd6B3Cd9E7a89B",
    "1000000",
    [
      "0xFB7eF66a7e61224DD6FcD0D7d9C3be5C8B049b9f",
      "0x4200000000000000000000000000000000000006",
      "0xd9aAEc86B65D86f6A7B5B1b0c42FFA531710b6CA",
      "0x0000000000000000000000000000000000000000",
      "0x95e3B737EA33B45AcabC111569eF65e6D0b44312",
      "0x0000000000000000000000000000000000000000",
      "0",
      "0"
    ]
  ],
  "numDeployments": 1,
  "solcInputHash": "fe68c6697cea43bd8e5b3cb6caa1ad6d",
  "bytecode": "0x6101406040523480156200001257600080fd5b5060405162003e3738038062003e378339810160408190526200003591620004d9565b6040805180820182526009815268536f756c53746f726560b81b602080830191909152825180840190935260058352640312e302e360dc1b90830152908683620000816000836200023b565b8051600180546001600160a01b03199081166001600160a01b0393841617825560208085015160028054841691861691909117905560408501516003805484169186169190911790556060850151600480548416918616919091179055608085015160078054841691861691909117905560a0808601516008805490941695169490941790915560c084015160095560e093840151600a55600b805460ff19169055600c91909155855186820120855191860191909120928190526101008390524690915291507f8b73c3c69bb8fe3d512ecc4cf759cc79239f7b179b0ffacaa9a75d522b39400f62000176818484620002c4565b6080523060601b60c05261012052505050506001600160a01b038416620001b05760405163d92e233d60e01b815260040160405180910390fd5b6001600160a01b038316620001d85760405163d92e233d60e01b815260040160405180910390fd5b50600d80546001600160a01b039485166001600160a01b031991821617909155600e80549390941692169190911790915560008052600f6020527ff4803e074bd026baaf6ed2e288c9515f68c72fb7216eebdd7cae1718a53ec3755550620005c7565b62000247828262000300565b620002c0576000828152602081815260408083206001600160a01b03851684529091529020805460ff191660011790556200027f3390565b6001600160a01b0316816001600160a01b0316837f2f8788117e7eff1d82e926ec794901d17c78024a50270940304540a733656f0d60405160405180910390a45b5050565b60008383834630604051602001620002e195949392919062000571565b6040516020818303038152906040528051906020012090509392505050565b6000828152602081815260408083206001600160a01b038516845290915290205460ff165b92915050565b60006001600160a01b03821662000325565b62000348816200032b565b81146200035457600080fd5b50565b805162000325816200033d565b600062000325826200032b565b620003488162000364565b8051620003258162000371565b8062000348565b8051620003258162000389565b634e487b7160e01b600052604160045260246000fd5b601f19601f83011681018181106001600160401b0382111715620003db57620003db6200039d565b6040525050565b6000620003ee60405190565b9050620003fc8282620003b3565b919050565b60006101008284031215620004195762000419600080fd5b62000426610100620003e2565b9050600062000436848462000357565b8252506020620004498484830162000357565b60208301525060406200045f8482850162000357565b6040830152506060620004758482850162000357565b60608301525060806200048b8482850162000357565b60808301525060a0620004a18482850162000357565b60a08301525060c0620004b78482850162000390565b60c08301525060e0620004cd8482850162000390565b60e08301525092915050565b60008060008060006101808688031215620004f757620004f7600080fd5b600062000505888862000357565b955050602062000518888289016200037c565b94505060406200052b888289016200037c565b93505060606200053e8882890162000390565b9250506080620005518882890162000401565b9150509295509295909350565b805b82525050565b62000560816200032b565b60a081016200058182886200055e565b6200059060208301876200055e565b6200059f60408301866200055e565b620005ae60608301856200055e565b620005bd608083018462000566565b9695505050505050565b60805160a05160c05160601c60e051610100516101205161381d6200061a600039600061262e015260006126700152600061264f015260006125b3015260006125dd01526000612607015261381d6000f3fe6080604052600436106102225760003560e01c8062bdfde51461022757806301ffc9a7146102495780630513c3e91461027f5780630f2e68af146102ac57806310200519146102d957806312553e41146102fb57806317fcb39b1461031d578063217a2c7b1461033d57806323af4e171461035d578063248a9ca31461037d57806326defa731461039d5780632f2ff15d146103bd5780633151ded8146103dd57806336568abe1461040b57806339a51be51461042b5780633ad3033e1461044b5780633f4ba83a1461046b578063412736571461048057806341c04d5e146104a057806346877b1a146104c25780634e273d21146104e25780635a394675146105025780635c975abb1461051557806374a99f8b1461052d57806376ad19971461054d57806377bed5ed1461056d5780637a0d16461461058d5780638456cb59146105bd5780638d018461146105d25780638ec9c93b146105f257806390ce84161461060857806391223d691461062857806391d148541461065857806394a665e914610678578063992642e51461069857806399b589cb146106b8578063a217fddf146106d8578063a4983421146106ed578063c31c9c071461070d578063c86aadb61461072d578063d544e0101461074d578063d547741f1461076d578063d6e6eb9f1461078d578063da058ae3146107a3578063eaf94aec146107c3578063ebda4396146107f0578063ee7a9ec514610810578063f615283a14610830575b600080fd5b34801561023357600080fd5b506102476102423660046129c6565b610843565b005b34801561025557600080fd5b50610269610264366004612a02565b610877565b6040516102769190612a2d565b60405180910390f35b34801561028b57600080fd5b5061029f61029a3660046129c6565b6108ae565b6040516102769190612a5b565b3480156102b857600080fd5b50600e546102cc906001600160a01b031681565b6040516102769190612aa1565b3480156102e557600080fd5b506102ee6108d8565b6040516102769190612b0c565b34801561030757600080fd5b5061031061093a565b6040516102769190612b23565b34801561032957600080fd5b5060025461029f906001600160a01b031681565b34801561034957600080fd5b50610310610358366004612b45565b61094a565b34801561036957600080fd5b50610247610378366004612b82565b61095d565b34801561038957600080fd5b506103106103983660046129c6565b6109ba565b3480156103a957600080fd5b506102476103b8366004612b82565b6109cf565b3480156103c957600080fd5b506102476103d8366004612ba3565b610a9f565b3480156103e957600080fd5b506103fd6103f8366004612bd6565b610ac0565b604051610276929190612c26565b34801561041757600080fd5b50610247610426366004612ba3565b610ae7565b34801561043757600080fd5b5060085461029f906001600160a01b031681565b34801561045757600080fd5b50610247610466366004612c60565b610b26565b34801561047757600080fd5b50610247610baa565b34801561048c57600080fd5b5061024761049b366004612b82565b610bc0565b3480156104ac57600080fd5b506103106000805160206137c883398151915281565b3480156104ce57600080fd5b506102476104dd366004612b82565b610c1d565b3480156104ee57600080fd5b506103106104fd3660046129c6565b610c7a565b610310610510366004612dc8565b610cbf565b34801561052157600080fd5b50600b5460ff16610269565b34801561053957600080fd5b50610247610548366004612ecd565b610d19565b34801561055957600080fd5b50610247610568366004612b82565b610da5565b34801561057957600080fd5b50600d546102cc906001600160a01b031681565b34801561059957600080fd5b506102696105a8366004612b82565b60056020526000908152604090205460ff1681565b3480156105c957600080fd5b50610247610e02565b3480156105de57600080fd5b506102476105ed366004612b82565b610e15565b3480156105fe57600080fd5b5061031060095481565b34801561061457600080fd5b50610310610623366004612bd6565b610eb1565b34801561063457600080fd5b50610269610643366004612b82565b60106020526000908152604090205460ff1681565b34801561066457600080fd5b50610269610673366004612ba3565b610f6e565b34801561068457600080fd5b50610247610693366004612b82565b610f97565b3480156106a457600080fd5b5060035461029f906001600160a01b031681565b3480156106c457600080fd5b5060075461029f906001600160a01b031681565b3480156106e457600080fd5b50610310600081565b3480156106f957600080fd5b506102476107083660046129c6565b611104565b34801561071957600080fd5b5060015461029f906001600160a01b031681565b34801561073957600080fd5b50610247610748366004612b82565b611138565b34801561075957600080fd5b50610247610768366004612b82565b6111e4565b34801561077957600080fd5b50610247610788366004612ba3565b6112b2565b34801561079957600080fd5b50610310600a5481565b3480156107af57600080fd5b506102476107be366004612b82565b6112ce565b3480156107cf57600080fd5b506103106107de3660046129c6565b600f6020526000908152604090205481565b3480156107fc57600080fd5b5060045461029f906001600160a01b031681565b34801561081c57600080fd5b5061024761082b366004612c60565b61132b565b61031061083e366004612eef565b6113af565b600061084e81611408565b6009548214156108715760405163c23f6ccb60e01b815260040160405180910390fd5b50600955565b60006001600160e01b03198216637965db0b60e01b14806108a857506301ffc9a760e01b6001600160e01b03198316145b92915050565b600681815481106108be57600080fd5b6000918252602090912001546001600160a01b0316905081565b6060600680548060200260200160405190810160405280929190818152602001828054801561093057602002820191906000526020600020905b81546001600160a01b03168152600190910190602001808311610912575b5050505050905090565b600061094533611412565b905090565b600061095683836114e2565b9392505050565b600061096881611408565b6003546001600160a01b03838116911614156109975760405163c23f6ccb60e01b815260040160405180910390fd5b50600380546001600160a01b0319166001600160a01b0392909216919091179055565b60009081526020819052604090206001015490565b6109da600033610f6e565b1580156109fc57506109fa6000805160206137c883398151915233610f6e565b155b15610a1a576040516326f0f48160e01b815260040160405180910390fd5b6001600160a01b038116610a415760405163d92e233d60e01b815260040160405180910390fd5b6001600160a01b03811660009081526010602052604090205460ff1615610a7b5760405163f411c32760e01b815260040160405180910390fd5b6001600160a01b03166000908152601060205260409020805460ff19166001179055565b610aa8826109ba565b610ab181611408565b610abb8383611557565b505050565b600080610ace858585610eb1565b915081610adb86846114e2565b91509150935093915050565b6001600160a01b0381163314610b185760405162461bcd60e51b8152600401610b0f9061302f565b60405180910390fd5b610b2282826115db565b5050565b6000610b3181611408565b6001600160a01b038216610b585760405163d92e233d60e01b815260040160405180910390fd5b600d546001600160a01b0383811691161415610b875760405163c23f6ccb60e01b815260040160405180910390fd5b50600d80546001600160a01b0319166001600160a01b0392909216919091179055565b6000610bb581611408565b610bbd611640565b50565b6000610bcb81611408565b6001546001600160a01b0383811691161415610bfa5760405163c23f6ccb60e01b815260040160405180910390fd5b50600180546001600160a01b0319166001600160a01b0392909216919091179055565b6000610c2881611408565b6008546001600160a01b0383811691161415610c575760405163c23f6ccb60e01b815260040160405180910390fd5b50600880546001600160a01b0319166001600160a01b0392909216919091179055565b6000818152600f6020526040812054806108a85750506000805250600f6020527ff4803e074bd026baaf6ed2e288c9515f68c72fb7216eebdd7cae1718a53ec3755490565b6000610cc961168c565b610cd16116b1565b600080610cdf8c8a8a610ac0565b91509150610cee8c83836116db565b610cfe8b8b8b8b8b8b8b8b611a98565b92505050610d0c6001600c55565b9998505050505050505050565b610d24600033610f6e565b158015610d465750610d446000805160206137c883398151915233610f6e565b155b15610d64576040516326f0f48160e01b815260040160405180910390fd5b6000828152600f6020526040902054811415610d935760405163c23f6ccb60e01b815260040160405180910390fd5b6000918252600f602052604090912055565b6000610db081611408565b6004546001600160a01b0383811691161415610ddf5760405163c23f6ccb60e01b815260040160405180910390fd5b50600480546001600160a01b0319166001600160a01b0392909216919091179055565b6000610e0d81611408565b610bbd611bd9565b610e20600033610f6e565b158015610e425750610e406000805160206137c883398151915233610f6e565b155b15610e60576040516326f0f48160e01b815260040160405180910390fd5b6007546001600160a01b0382811691161415610e8f5760405163c23f6ccb60e01b815260040160405180910390fd5b600780546001600160a01b0319166001600160a01b0392909216919091179055565b600080610ec783610ec186610c7a565b90611c16565b905080610ed75760009150610f66565b6003546001600160a01b038681169116148015610f0c57506001600160a01b03851660009081526005602052604090205460ff165b15610f1957809150610f66565b6001600160a01b03851660009081526005602052604090205460ff1615610f4b57610f448582611c22565b9150610f66565b84604051630ac29ab760e31b8152600401610b0f9190612a5b565b509392505050565b6000918252602082815260408084206001600160a01b0393909316845291905290205460ff1690565b6000610fa281611408565b6001600160a01b03821660009081526005602052604090205460ff16610fdd57816040516318317bd560e01b8152600401610b0f9190612a5b565b6001600160a01b0382166000908152600560205260408120805460ff191690555b600654811015610abb57826001600160a01b0316600682815481106110255761102561303f565b6000918252602090912001546001600160a01b031614156110f257600680546110509060019061306b565b815481106110605761106061303f565b600091825260209091200154600680546001600160a01b03909216918390811061108c5761108c61303f565b9060005260206000200160006101000a8154816001600160a01b0302191690836001600160a01b0316021790555060068054806110cb576110cb613082565b600082815260209020810160001990810180546001600160a01b0319169055019055505050565b806110fc81613098565b915050610ffe565b600061110f81611408565b600a548214156111325760405163c23f6ccb60e01b815260040160405180910390fd5b50600a55565b600061114381611408565b6001600160a01b03821660009081526005602052604090205460ff161561117d5760405163f411c32760e01b815260040160405180910390fd5b506001600160a01b03166000818152600560205260408120805460ff191660019081179091556006805491820181559091527ff652222313e28459528d920b65115c16c04f3efc82aaedc97be59f3f377c0d3f0180546001600160a01b0319169091179055565b6111ef600033610f6e565b158015611211575061120f6000805160206137c883398151915233610f6e565b155b1561122f576040516326f0f48160e01b815260040160405180910390fd5b6001600160a01b0381166112565760405163d92e233d60e01b815260040160405180910390fd5b6001600160a01b03811660009081526010602052604090205460ff1661129157806040516324b1f80560e21b8152600401610b0f9190612a5b565b6001600160a01b03166000908152601060205260409020805460ff19169055565b6112bb826109ba565b6112c481611408565b610abb83836115db565b60006112d981611408565b6002546001600160a01b03838116911614156113085760405163c23f6ccb60e01b815260040160405180910390fd5b50600280546001600160a01b0319166001600160a01b0392909216919091179055565b600061133681611408565b6001600160a01b03821661135d5760405163d92e233d60e01b815260040160405180910390fd5b600e546001600160a01b038381169116141561138c5760405163c23f6ccb60e01b815260040160405180910390fd5b50600e80546001600160a01b0319166001600160a01b0392909216919091179055565b60006113b961168c565b6113c16116b1565b6000806113cf8b8a8a610ac0565b915091506113de8b83836116db565b6113ee338b8b8b8b8b8b8b611db5565b925050506113fc6001600c55565b98975050505050505050565b610bbd8133611f25565b600d546040516335313c2160e11b815260009182916001600160a01b0390911690636a62784290611447908690600401612a5b565b602060405180830381600087803b15801561146157600080fd5b505af1158015611475573d6000803e3d6000fd5b505050506040513d601f19601f8201168201806040525081019061149991906130be565b9050826001600160a01b03167fe6fdadff80ae44015b9aa37d4edb70f70a8db7535a0df98de6dc5ffd11ec0c2f826040516114d49190612b23565b60405180910390a292915050565b60095460009081901561151d576003546001600160a01b038581169116141561150e575060095461151d565b61151a84600954611c22565b90505b600a54156109565761154f6115486064611542600a5487611c1690919063ffffffff16565b90611f7e565b8290611f8a565b949350505050565b6115618282610f6e565b610b22576000828152602081815260408083206001600160a01b03851684529091529020805460ff191660011790556115973390565b6001600160a01b0316816001600160a01b0316837f2f8788117e7eff1d82e926ec794901d17c78024a50270940304540a733656f0d60405160405180910390a45050565b6115e58282610f6e565b15610b22576000828152602081815260408083206001600160a01b0385168085529252808320805460ff1916905551339285917ff6391f5c32d9c69d2a47ea670b442974b53935d1edc7fd64eb21e047a839171b9190a45050565b611648611f96565b600b805460ff191690557f5db9ee0a495bf2e6ff9c91a7834c1ba4fdd244a5e8aa4e537bd38aeae4b073aa335b6040516116829190612a5b565b60405180910390a1565b600b5460ff16156116af5760405162461bcd60e51b8152600401610b0f90613109565b565b6002600c5414156116d45760405162461bcd60e51b8152600401610b0f9061314d565b6002600c55565b6116e58282611f8a565b6000811180156116fe57506001546001600160a01b0316155b1561171c5760405163fca2174f60e01b815260040160405180910390fd5b60008111801561173557506002546001600160a01b0316155b156117535760405163fca2174f60e01b815260040160405180910390fd5b60008111801561176c57506003546001600160a01b0316155b1561178a5760405163fca2174f60e01b815260040160405180910390fd5b6000811180156117a357506007546001600160a01b0316155b156117c15760405163fca2174f60e01b815260040160405180910390fd5b821580156117cd575081155b156117d757611a92565b6000821180156117f057506008546001600160a01b0316155b1561180e5760405163910af6f560e01b815260040160405180910390fd5b6001600160a01b03841660009081526005602052604090205460ff166118495783604051630ac29ab760e31b8152600401610b0f9190612a5b565b6001600160a01b038416611a4e576118618383611f8a565b34101561188c576118728383611f8a565b60405163091a6d0f60e01b8152600401610b0f9190612b23565b8215611916576007546040516000916001600160a01b03169085906118b09061315d565b60006040518083038185875af1925050503d80600081146118ed576040519150601f19603f3d011682016040523d82523d6000602084013e6118f2565b606091505b5050905080611914576040516312171d8360e31b815260040160405180910390fd5b505b81156119a0576008546040516000916001600160a01b031690849061193a9061315d565b60006040518083038185875af1925050503d8060008114611977576040519150601f19603f3d011682016040523d82523d6000602084013e61197c565b606091505b505090508061199e576040516312171d8360e31b815260040160405180910390fd5b505b6119aa8383611f8a565b341115611a495760006119c76119c08585611f8a565b3490611fb8565b90506000336001600160a01b0316826040516119e29061315d565b60006040518083038185875af1925050503d8060008114611a1f576040519150601f19603f3d011682016040523d82523d6000602084013e611a24565b606091505b5050905080611a4657604051633c31275160e21b815260040160405180910390fd5b50505b611a92565b8215611a7057600754611a70906001600160a01b038681169133911686611fc4565b8115611a9257600854611a92906001600160a01b038681169133911685611fc4565b50505050565b6000611ae8611aaa8a8a8a8a8a61201c565b84848080601f016020809104026020016040519081016040528093929190818152602001838380828437600092019190915250899250612091915050565b600e546040516303dd904360e41b81526000916001600160a01b031690633dd9043090611b1f908d908d908c908c906004016131c8565b602060405180830381600087803b158015611b3957600080fd5b505af1158015611b4d573d6000803e3d6000fd5b505050506040513d601f19601f82011682018060405250810190611b7191906130be565b905088604051611b81919061322b565b60405180910390208a6001600160a01b03167f32044e50415e96c0068a718b8df9993f4803b2e54518d56c52ef6438a91619aa838a604051611bc4929190612c26565b60405180910390a39998505050505050505050565b611be161168c565b600b805460ff191660011790557f62e78cea01bee320cd4e420270b5ea74000d11b0c9f74754ebdbfc544b05a2586116753390565b60006109568284613237565b600081600081118015611c3e57506001546001600160a01b0316155b15611c5c5760405163fca2174f60e01b815260040160405180910390fd5b600081118015611c7557506002546001600160a01b0316155b15611c935760405163fca2174f60e01b815260040160405180910390fd5b600081118015611cac57506003546001600160a01b0316155b15611cca5760405163fca2174f60e01b815260040160405180910390fd5b600081118015611ce357506007546001600160a01b0316155b15611d015760405163fca2174f60e01b815260040160405180910390fd5b6001600160a01b03841660009081526005602052604090205460ff161580611d3657506003546001600160a01b038581169116145b15611d56578360405163961c9a4f60e01b8152600401610b0f9190612a5b565b82611d645760009150611dae565b6001600160a01b038416611d9657600254600354611d8f916001600160a01b0390811691168561210c565b9150611dae565b600354611d8f9085906001600160a01b03168561210c565b5092915050565b6000611dc7611aaa8a8a8a8a8a61201c565b600d546040516335313c2160e11b81526000916001600160a01b031690636a62784290611df8908d90600401612a5b565b602060405180830381600087803b158015611e1257600080fd5b505af1158015611e26573d6000803e3d6000fd5b505050506040513d601f19601f82011682018060405250810190611e4a91906130be565b600e546040516303dd904360e41b81529192506001600160a01b031690633dd9043090611e81908d908d908c908c906004016131c8565b602060405180830381600087803b158015611e9b57600080fd5b505af1158015611eaf573d6000803e3d6000fd5b505050506040513d601f19601f82011682018060405250810190611ed391906130be565b5088604051611ee2919061322b565b60405180910390208a6001600160a01b03167f60579b770d8bde9b5f57c468ffb4acb023252b190304137b45b86b72f66a1940838a604051611bc4929190612c26565b611f2f8282610f6e565b610b2257611f3c816121ca565b611f478360206121dc565b604051602001611f58929190613256565b60408051601f198184030181529082905262461bcd60e51b8252610b0f916004016132a8565b600061095682846132cf565b600061095682846132e3565b600b5460ff166116af5760405162461bcd60e51b8152600401610b0f90613326565b6000610956828461306b565b611a92846323b872dd60e01b858585604051602401611fe593929190613336565b60408051601f198184030181529190526020810180516001600160e01b03166001600160e01b031990931692909217909152612347565b60006120857f7503a77cf463259868f167e5b04bb93b908e722f1d532d8a0635f83ea802a2c18787805190602001208787878051906020012060405160200161206a9695949392919061335e565b604051602081830303815290604052805190602001206123d6565b90505b95945050505050565b600061209d84846123e9565b9050816001600160a01b0316816001600160a01b0316146120d157604051638baa579f60e01b815260040160405180910390fd5b6001600160a01b03811660009081526010602052604090205460ff16611a925780604051634a0bfec160e01b8152600401610b0f9190612a5b565b600060608061211b8686612405565b6001546040516307c0329d60e21b81529192506001600160a01b031690631f00ca749061214e90879085906004016133ad565b60006040518083038186803b15801561216657600080fd5b505afa15801561217a573d6000803e3d6000fd5b505050506040513d6000823e601f3d908101601f191682016040526121a2919081019061346f565b9150816000815181106121b7576121b761303f565b6020026020010151925050509392505050565b60606108a86001600160a01b03831660145b606060006121eb836002613237565b6121f69060026132e3565b6001600160401b0381111561220d5761220d612c8b565b6040519080825280601f01601f191660200182016040528015612237576020820181803683370190505b509050600360fc1b816000815181106122525761225261303f565b60200101906001600160f81b031916908160001a905350600f60fb1b816001815181106122815761228161303f565b60200101906001600160f81b031916908160001a90535060006122a5846002613237565b6122b09060016132e3565b90505b6001811115612328576f181899199a1a9b1b9c1cb0b131b232b360811b85600f16601081106122e4576122e461303f565b1a60f81b8282815181106122fa576122fa61303f565b60200101906001600160f81b031916908160001a90535060049490941c93612321816134a9565b90506122b3565b5083156109565760405162461bcd60e51b8152600401610b0f906134f2565b600061239c826040518060400160405280602081526020017f5361666545524332303a206c6f772d6c6576656c2063616c6c206661696c6564815250856001600160a01b03166125979092919063ffffffff16565b805190915015610abb57808060200190518101906123ba9190613515565b610abb5760405162461bcd60e51b8152600401610b0f9061357d565b60006108a86123e36125a6565b83612694565b60008060006123f885856126c7565b91509150610f668161270d565b6002546060906001600160a01b038481169116148061243157506002546001600160a01b038381169116145b156124fb57604080516002808252606082018352600092602083019080368337019050506002549091506001600160a01b038581169116146124735783612480565b6002546001600160a01b03165b816000815181106124935761249361303f565b6001600160a01b0392831660209182029290920101526002548482169116146124bc57826124c9565b6002546001600160a01b03165b816001815181106124dc576124dc61303f565b6001600160a01b039092166020928302919091019091015290506108a8565b604080516003808252608082019092526000916020820160608036833701905050905083816000815181106125325761253261303f565b6001600160a01b0392831660209182029290920101526002548251911690829060019081106125635761256361303f565b60200260200101906001600160a01b031690816001600160a01b03168152505082816002815181106124dc576124dc61303f565b606061154f84846000856127c0565b6000306001600160a01b037f0000000000000000000000000000000000000000000000000000000000000000161480156125ff57507f000000000000000000000000000000000000000000000000000000000000000046145b1561262957507f000000000000000000000000000000000000000000000000000000000000000090565b6109457f00000000000000000000000000000000000000000000000000000000000000007f00000000000000000000000000000000000000000000000000000000000000007f000000000000000000000000000000000000000000000000000000000000000061285c565b600082826040516020016126a992919061358d565b60405160208183030381529060405280519060200120905092915050565b6000808251604114156126fe5760208301516040840151606085015160001a6126f287828585612896565b94509450505050612706565b506000905060025b9250929050565b6000816004811115612721576127216135be565b141561272a5750565b600181600481111561273e5761273e6135be565b141561275c5760405162461bcd60e51b8152600401610b0f90613603565b6002816004811115612770576127706135be565b141561278e5760405162461bcd60e51b8152600401610b0f90613647565b60038160048111156127a2576127a26135be565b1415610bbd5760405162461bcd60e51b8152600401610b0f90613696565b6060824710156127e25760405162461bcd60e51b8152600401610b0f906136e9565b600080866001600160a01b031685876040516127fe919061322b565b60006040518083038185875af1925050503d806000811461283b576040519150601f19603f3d011682016040523d82523d6000602084013e612840565b606091505b509150915061285187838387612943565b979650505050505050565b600083838346306040516020016128779594939291906136f9565b6040516020818303038152906040528051906020012090509392505050565b6000806fa2a8918ca85bafe22016d0b997e4df60600160ff1b038311156128c3575060009050600361293a565b6000600187878787604051600081526020016040526040516128e8949392919061374e565b6020604051602081039080840390855afa15801561290a573d6000803e3d6000fd5b5050604051601f1901519150506001600160a01b0381166129335760006001925092505061293a565b9150600090505b94509492505050565b6060831561297f578251612978576001600160a01b0385163b6129785760405162461bcd60e51b8152600401610b0f906137b7565b508161154f565b61154f83838151156129945781518083602001fd5b8060405162461bcd60e51b8152600401610b0f91906132a8565b805b8114610bbd57600080fd5b80356108a8816129ae565b6000602082840312156129db576129db600080fd5b600061154f84846129bb565b6001600160e01b031981166129b0565b80356108a8816129e7565b600060208284031215612a1757612a17600080fd5b600061154f84846129f7565b8015155b82525050565b602081016108a88284612a23565b6001600160a01b031690565b60006108a882612a3b565b612a2781612a47565b602081016108a88284612a52565b60006108a8612a7d612a7a84612a3b565b90565b612a3b565b60006108a882612a69565b60006108a882612a82565b612a2781612a8d565b602081016108a88284612a98565b6000612abb8383612a52565b505060200190565b6000612acd825190565b80845260209384019383018060005b83811015612b01578151612af08882612aaf565b975060208301925050600101612adc565b509495945050505050565b602080825281016109568184612ac3565b80612a27565b602081016108a88284612b1d565b6129b081612a47565b80356108a881612b31565b60008060408385031215612b5b57612b5b600080fd5b6000612b678585612b3a565b9250506020612b78858286016129bb565b9150509250929050565b600060208284031215612b9757612b97600080fd5b600061154f8484612b3a565b60008060408385031215612bb957612bb9600080fd5b6000612bc585856129bb565b9250506020612b7885828601612b3a565b600080600060608486031215612bee57612bee600080fd5b6000612bfa8686612b3a565b9350506020612c0b868287016129bb565b9250506040612c1c868287016129bb565b9150509250925092565b60408101612c348285612b1d565b6109566020830184612b1d565b60006108a882612a47565b6129b081612c41565b80356108a881612c4c565b600060208284031215612c7557612c75600080fd5b600061154f8484612c55565b601f01601f191690565b634e487b7160e01b600052604160045260246000fd5b612caa82612c81565b81018181106001600160401b0382111715612cc757612cc7612c8b565b6040525050565b6000612cd960405190565b9050612ce58282612ca1565b919050565b60006001600160401b03821115612d0357612d03612c8b565b612d0c82612c81565b60200192915050565b82818337506000910152565b6000612d34612d2f84612cea565b612cce565b905082815260208101848484011115612d4f57612d4f600080fd5b610f66848285612d15565b600082601f830112612d6e57612d6e600080fd5b813561154f848260208601612d21565b60008083601f840112612d9357612d93600080fd5b5081356001600160401b03811115612dad57612dad600080fd5b60208301915083600182028301111561270657612706600080fd5b60008060008060008060008060006101008a8c031215612dea57612dea600080fd5b6000612df68c8c612b3a565b9950506020612e078c828d01612b3a565b98505060408a01356001600160401b03811115612e2657612e26600080fd5b612e328c828d01612d5a565b9750506060612e438c828d016129bb565b9650506080612e548c828d016129bb565b95505060a08a01356001600160401b03811115612e7357612e73600080fd5b612e7f8c828d01612d5a565b94505060c0612e908c828d01612b3a565b93505060e08a01356001600160401b03811115612eaf57612eaf600080fd5b612ebb8c828d01612d7e565b92509250509295985092959850929598565b60008060408385031215612ee357612ee3600080fd5b6000612b6785856129bb565b60008060008060008060008060e0898b031215612f0e57612f0e600080fd5b6000612f1a8b8b612b3a565b98505060208901356001600160401b03811115612f3957612f39600080fd5b612f458b828c01612d5a565b9750506040612f568b828c016129bb565b9650506060612f678b828c016129bb565b95505060808901356001600160401b03811115612f8657612f86600080fd5b612f928b828c01612d5a565b94505060a0612fa38b828c01612b3a565b93505060c08901356001600160401b03811115612fc257612fc2600080fd5b612fce8b828c01612d7e565b92509250509295985092959890939650565b602f81526000602082017f416363657373436f6e74726f6c3a2063616e206f6e6c792072656e6f756e636581526e103937b632b9903337b91039b2b63360891b602082015291505b5060400190565b602080825281016108a881612fe0565b634e487b7160e01b600052603260045260246000fd5b634e487b7160e01b600052601160045260246000fd5b60008282101561307d5761307d613055565b500390565b634e487b7160e01b600052603160045260246000fd5b60006000198214156130ac576130ac613055565b5060010190565b80516108a8816129ae565b6000602082840312156130d3576130d3600080fd5b600061154f84846130b3565b601081526000602082016f14185d5cd8589b194e881c185d5cd95960821b815291505b5060200190565b602080825281016108a8816130df565b601f81526000602082017f5265656e7472616e637947756172643a207265656e7472616e742063616c6c0081529150613102565b602080825281016108a881613119565b60006108a882612a7a565b60005b8381101561318357818101518382015260200161316b565b83811115611a925750506000910152565b600061319e825190565b8084526020840193506131b5818560208601613168565b6131be81612c81565b9093019392505050565b608081016131d68287612a52565b81810360208301526131e88186613194565b90506131f76040830185612b1d565b81810360608301526120858184613194565b6000613213825190565b613221818560208601613168565b9290920192915050565b60006109568284613209565b600081600019048311821515161561325157613251613055565b500290565b76020b1b1b2b9b9a1b7b73a3937b61d1030b1b1b7bab73a1604d1b815260170160006132828285613209565b7001034b99036b4b9b9b4b733903937b6329607d1b8152601101915061154f8284613209565b602080825281016109568184613194565b634e487b7160e01b600052601260045260246000fd5b6000826132de576132de6132b9565b500490565b600082198211156132f6576132f6613055565b500190565b601481526000602082017314185d5cd8589b194e881b9bdd081c185d5cd95960621b81529150613102565b602080825281016108a8816132fb565b606081016133448286612a52565b6133516020830185612a52565b61154f6040830184612b1d565b60c0810161336c8289612b1d565b6133796020830188612a52565b6133866040830187612b1d565b6133936060830186612b1d565b6133a06080830185612b1d565b61285160a0830184612b1d565b604081016133bb8285612b1d565b818103602083015261154f8184612ac3565b60006001600160401b038211156133e6576133e6612c8b565b5060209081020190565b60006133fe612d2f846133cd565b8381529050602080820190840283018581111561341d5761341d600080fd5b835b81811015613441578061343288826130b3565b8452506020928301920161341f565b5050509392505050565b600082601f83011261345f5761345f600080fd5b815161154f8482602086016133f0565b60006020828403121561348457613484600080fd5b81516001600160401b0381111561349d5761349d600080fd5b61154f8482850161344b565b6000816134b8576134b8613055565b506000190190565b60208082527f537472696e67733a20686578206c656e67746820696e73756666696369656e7491019081526000613102565b602080825281016108a8816134c0565b8015156129b0565b80516108a881613502565b60006020828403121561352a5761352a600080fd5b600061154f848461350a565b602a81526000602082017f5361666545524332303a204552433230206f7065726174696f6e20646964206e8152691bdd081cdd58d8d9595960b21b60208201529150613028565b602080825281016108a881613536565b61190160f01b815260020160006135a48285612b1d565b6020820191506135b48284612b1d565b5060200192915050565b634e487b7160e01b600052602160045260246000fd5b601881526000602082017745434453413a20696e76616c6964207369676e617475726560401b81529150613102565b602080825281016108a8816135d4565b601f81526000602082017f45434453413a20696e76616c6964207369676e6174757265206c656e6774680081529150613102565b602080825281016108a881613613565b602281526000602082017f45434453413a20696e76616c6964207369676e6174757265202773272076616c815261756560f01b60208201529150613028565b602080825281016108a881613657565b602681526000602082017f416464726573733a20696e73756666696369656e742062616c616e636520666f8152651c8818d85b1b60d21b60208201529150613028565b602080825281016108a8816136a6565b60a081016137078288612b1d565b6137146020830187612b1d565b6137216040830186612b1d565b61372e6060830185612b1d565b61373b6080830184612a52565b9695505050505050565b60ff8116612a27565b6080810161375c8287612b1d565b6137696020830186613745565b6137766040830185612b1d565b6120886060830184612b1d565b601d81526000602082017f416464726573733a2063616c6c20746f206e6f6e2d636f6e747261637400000081529150613102565b602080825281016108a88161378356fe52eafc11f6f81f86878bffd31109a0d92f37506527754f00788853ff9f63b130a2646970667358221220dda8df9d8e876b90ffa6849d3bce10ec20bc9369c823613d077b49596b760de264736f6c63430008080033",
  "devdoc": {
    "author": "Masa Finance",
    "details": "From this smart contract we can mint new Soulbound Identities and Soul Name NFTs. This minting can be done paying a fee in ETH, USDC or MASA",
    "kind": "dev",
    "methods": {
      "addAuthority(address)": {
        "details": "The caller must have the admin or project admin role to call this function",
        "params": {
          "_authority": "New authority to add"
        }
      },
      "constructor": {
        "details": "Creates a new Soul Store, that has the role to minting new Soulbound Identities and Soul Name NFTs, paying a fee",
        "params": {
          "_nameRegistrationPricePerYear": "Price of the default name registering in stable coin per year",
          "_soulBoundIdentity": "Address of the Soulbound identity contract",
          "_soulName": "Address of the SoulName contract",
          "admin": "Administrator of the smart contract",
          "paymentParams": "Payment gateway params"
        }
      },
      "disablePaymentMethod(address)": {
        "details": "The caller must have the admin role to call this function",
        "params": {
          "_paymentMethod": "Token to remove"
        }
      },
      "enablePaymentMethod(address)": {
        "details": "The caller must have the admin role to call this function",
        "params": {
          "_paymentMethod": "New token to add"
        }
      },
      "getEnabledPaymentMethods()": {
        "details": "Returns the address of all available payment methods",
        "returns": {
          "_0": "Array of all enabled payment methods"
        }
      },
      "getNameRegistrationPricePerYear(uint256)": {
        "details": "Returns the price for registering per year in USD for an specific name length",
        "params": {
          "nameLength": "Length of the name"
        },
        "returns": {
          "_0": "Price in stable coin for that name length"
        }
      },
      "getPriceForMintingName(address,uint256,uint256)": {
        "details": "Returns current pricing for name minting for a given name length and years period",
        "params": {
          "nameLength": "Length of the name",
          "paymentMethod": "Address of token that user want to pay",
          "yearsPeriod": "Years of validity of the name"
        },
        "returns": {
          "price": "Current price of the name minting in the given payment method"
        }
      },
      "getPriceForMintingNameWithProtocolFee(address,uint256,uint256)": {
        "details": "Returns current pricing for name minting for a given name length and years period with protocol fee",
        "params": {
          "nameLength": "Length of the name",
          "paymentMethod": "Address of token that user want to pay",
          "yearsPeriod": "Years of validity of the name"
        },
        "returns": {
          "price": "Current price of the name minting in the given payment method",
          "protocolFee": "Current protocol fee of the name minting in the given payment method"
        }
      },
      "getProtocolFee(address,uint256)": {
        "details": "This method will calculate the protocol fee based on the payment method",
        "params": {
          "amount": "Price to be paid in the specified payment method",
          "paymentMethod": "Address of token that user want to pay"
        }
      },
      "getRoleAdmin(bytes32)": {
        "details": "Returns the admin role that controls `role`. See {grantRole} and {revokeRole}. To change a role's admin, use {_setRoleAdmin}."
      },
      "grantRole(bytes32,address)": {
        "details": "Grants `role` to `account`. If `account` had not been already granted `role`, emits a {RoleGranted} event. Requirements: - the caller must have ``role``'s admin role. May emit a {RoleGranted} event."
      },
      "hasRole(bytes32,address)": {
        "details": "Returns `true` if `account` has been granted `role`."
      },
      "pause()": {
        "details": "The caller must have the admin role to call this function"
      },
      "paused()": {
        "details": "Returns true if the contract is paused, and false otherwise."
      },
      "purchaseIdentity()": {
        "details": "This function allows the purchase of a soulbound identity for free",
        "returns": {
          "_0": "TokenId of the new soulbound identity"
        }
      },
      "purchaseIdentityAndName(address,string,uint256,uint256,string,address,bytes)": {
        "details": "This function allows the purchase of a soulbound identity and name using stable coin (USDC), native token (ETH) or utility token (MASA)",
        "params": {
          "authorityAddress": "Address of the authority",
          "name": "Name of the new soul name",
          "nameLength": "Length of the name",
          "paymentMethod": "Address of token that user want to pay",
          "signature": "Signature of the authority",
          "tokenURI": "URI of the NFT",
          "yearsPeriod": "Years of validity of the name"
        },
        "returns": {
          "_0": "TokenId of the new soulbound identity"
        }
      },
      "purchaseName(address,address,string,uint256,uint256,string,address,bytes)": {
        "details": "This function allows the purchase of a soul name using stable coin (USDC), native token (ETH) or utility token (MASA)",
        "params": {
          "authorityAddress": "Address of the authority",
          "name": "Name of the new soul name",
          "nameLength": "Length of the name",
          "paymentMethod": "Address of token that user want to pay",
          "signature": "Signature of the authority",
          "to": "Address of the owner of the new soul name",
          "tokenURI": "URI of the NFT",
          "yearsPeriod": "Years of validity of the name"
        },
        "returns": {
          "_0": "TokenId of the new sou name"
        }
      },
      "removeAuthority(address)": {
        "details": "The caller must have the admin or project admin role to call this function",
        "params": {
          "_authority": "Authority to remove"
        }
      },
      "renounceRole(bytes32,address)": {
        "details": "Revokes `role` from the calling account. Roles are often managed via {grantRole} and {revokeRole}: this function's purpose is to provide a mechanism for accounts to lose their privileges if they are compromised (such as when a trusted device is misplaced). If the calling account had been revoked `role`, emits a {RoleRevoked} event. Requirements: - the caller must be `account`. May emit a {RoleRevoked} event."
      },
      "revokeRole(bytes32,address)": {
        "details": "Revokes `role` from `account`. If `account` had been granted `role`, emits a {RoleRevoked} event. Requirements: - the caller must have ``role``'s admin role. May emit a {RoleRevoked} event."
      },
      "setMasaToken(address)": {
        "details": "The caller must have the admin role to call this function It can be set to address(0) to disable paying in MASA",
        "params": {
          "_masaToken": "New utility token to pay the fee in"
        }
      },
      "setNameRegistrationPricePerYear(uint256,uint256)": {
        "details": "The caller must have the admin or project admin role to call this function",
        "params": {
          "_nameLength": "Length of the name",
          "_nameRegistrationPricePerYear": "New price of the name registering per one year in stable coin for that name length per year"
        }
      },
      "setProjectFeeReceiver(address)": {
        "details": "The caller must have the admin or project admin role to call this function",
        "params": {
          "_projectFeeReceiver": "New project fee receiver wallet"
        }
      },
      "setProtocolFeeAmount(uint256)": {
        "details": "The caller must have the admin role to call this function",
        "params": {
          "_protocolFeeAmount": "New protocol fee amount"
        }
      },
      "setProtocolFeePercent(uint256)": {
        "details": "The caller must have the admin role to call this function",
        "params": {
          "_protocolFeePercent": "New protocol fee percent"
        }
      },
      "setProtocolFeeReceiver(address)": {
        "details": "The caller must have the admin role to call this function",
        "params": {
          "_protocolFeeReceiver": "New protocol fee wallet"
        }
      },
      "setSoulName(address)": {
        "details": "The caller must have the admin role to call this function",
        "params": {
          "_soulName": "New SoulName contract address"
        }
      },
      "setSoulboundIdentity(address)": {
        "details": "The caller must have the admin role to call this function",
        "params": {
          "_soulboundIdentity": "New SoulboundIdentity contract address"
        }
      },
      "setStableCoin(address)": {
        "details": "The caller must have the admin role to call this function",
        "params": {
          "_stableCoin": "New stable coin to pay the fee in"
        }
      },
      "setSwapRouter(address)": {
        "details": "The caller must have the admin role to call this function",
        "params": {
          "_swapRouter": "New swap router address"
        }
      },
      "setWrappedNativeToken(address)": {
        "details": "The caller must have the admin role to call this function",
        "params": {
          "_wrappedNativeToken": "New wrapped native token address"
        }
      },
      "supportsInterface(bytes4)": {
        "details": "See {IERC165-supportsInterface}."
      },
      "unpause()": {
        "details": "The caller must have the admin role to call this function"
      }
    },
    "title": "Soul Store",
    "version": 1
  },
  "userdoc": {
    "kind": "user",
    "methods": {
      "addAuthority(address)": {
        "notice": "Adds a new authority to the list of authorities"
      },
      "constructor": {
        "notice": "Creates a new Soul Store"
      },
      "disablePaymentMethod(address)": {
        "notice": "Removes a token as a valid payment method"
      },
      "enablePaymentMethod(address)": {
        "notice": "Adds a new token as a valid payment method"
      },
      "getEnabledPaymentMethods()": {
        "notice": "Returns all available payment methods"
      },
      "getNameRegistrationPricePerYear(uint256)": {
        "notice": "Returns the price of register a name per year in stable coin for an specific length"
      },
      "getPriceForMintingName(address,uint256,uint256)": {
        "notice": "Returns the price of the name minting"
      },
      "getPriceForMintingNameWithProtocolFee(address,uint256,uint256)": {
        "notice": "Returns the price of the name minting with protocol fee"
      },
      "getProtocolFee(address,uint256)": {
        "notice": "Calculates the protocol fee"
      },
      "pause()": {
        "notice": "Pauses the smart contract"
      },
      "purchaseIdentity()": {
        "notice": "Mints a new Soulbound Identity purchasing it"
      },
      "purchaseIdentityAndName(address,string,uint256,uint256,string,address,bytes)": {
        "notice": "Mints a new Soulbound Identity and Name purchasing it"
      },
      "purchaseName(address,address,string,uint256,uint256,string,address,bytes)": {
        "notice": "Mints a new Soul Name purchasing it"
      },
      "removeAuthority(address)": {
        "notice": "Removes an authority from the list of authorities"
      },
      "setMasaToken(address)": {
        "notice": "Sets the utility token to pay the fee in (MASA)"
      },
      "setNameRegistrationPricePerYear(uint256,uint256)": {
        "notice": "Sets the price of the name registering per one year in stable coin"
      },
      "setProjectFeeReceiver(address)": {
        "notice": "Set the project fee receiver wallet"
      },
      "setProtocolFeeAmount(uint256)": {
        "notice": "Set the protocol fee amount"
      },
      "setProtocolFeePercent(uint256)": {
        "notice": "Set the protocol fee percent"
      },
      "setProtocolFeeReceiver(address)": {
        "notice": "Set the protocol fee wallet"
      },
      "setSoulName(address)": {
        "notice": "Sets the SoulName contract address linked to this store"
      },
      "setSoulboundIdentity(address)": {
        "notice": "Sets the SoulboundIdentity contract address linked to this store"
      },
      "setStableCoin(address)": {
        "notice": "Sets the stable coin to pay the fee in (USDC)"
      },
      "setSwapRouter(address)": {
        "notice": "Sets the swap router address"
      },
      "setWrappedNativeToken(address)": {
        "notice": "Sets the wrapped native token address"
      },
      "unpause()": {
        "notice": "Unpauses the smart contract"
      }
    },
    "notice": "Soul Store, that can mint new Soulbound Identities and Soul Name NFTs, paying a fee",
    "version": 1
  },
  "storageLayout": {
    "storage": [
      {
        "astId": 24,
        "contract": "contracts/SoulStore.sol:SoulStore",
        "label": "_roles",
        "offset": 0,
        "slot": "0",
        "type": "t_mapping(t_bytes32,t_struct(RoleData)19_storage)"
      },
      {
        "astId": 9246,
        "contract": "contracts/SoulStore.sol:SoulStore",
        "label": "swapRouter",
        "offset": 0,
        "slot": "1",
        "type": "t_address"
      },
      {
        "astId": 9248,
        "contract": "contracts/SoulStore.sol:SoulStore",
        "label": "wrappedNativeToken",
        "offset": 0,
        "slot": "2",
        "type": "t_address"
      },
      {
        "astId": 9250,
        "contract": "contracts/SoulStore.sol:SoulStore",
        "label": "stableCoin",
        "offset": 0,
        "slot": "3",
        "type": "t_address"
      },
      {
        "astId": 9252,
        "contract": "contracts/SoulStore.sol:SoulStore",
        "label": "masaToken",
        "offset": 0,
        "slot": "4",
        "type": "t_address"
      },
      {
        "astId": 9256,
        "contract": "contracts/SoulStore.sol:SoulStore",
        "label": "enabledPaymentMethod",
        "offset": 0,
        "slot": "5",
        "type": "t_mapping(t_address,t_bool)"
      },
      {
        "astId": 9259,
        "contract": "contracts/SoulStore.sol:SoulStore",
        "label": "enabledPaymentMethods",
        "offset": 0,
        "slot": "6",
        "type": "t_array(t_address)dyn_storage"
      },
      {
        "astId": 9261,
        "contract": "contracts/SoulStore.sol:SoulStore",
        "label": "projectFeeReceiver",
        "offset": 0,
        "slot": "7",
        "type": "t_address"
      },
      {
        "astId": 9263,
        "contract": "contracts/SoulStore.sol:SoulStore",
        "label": "protocolFeeReceiver",
        "offset": 0,
        "slot": "8",
        "type": "t_address"
      },
      {
        "astId": 9265,
        "contract": "contracts/SoulStore.sol:SoulStore",
        "label": "protocolFeeAmount",
        "offset": 0,
        "slot": "9",
        "type": "t_uint256"
      },
      {
        "astId": 9267,
        "contract": "contracts/SoulStore.sol:SoulStore",
        "label": "protocolFeePercent",
        "offset": 0,
        "slot": "10",
        "type": "t_uint256"
      },
      {
        "astId": 519,
        "contract": "contracts/SoulStore.sol:SoulStore",
        "label": "_paused",
        "offset": 0,
        "slot": "11",
        "type": "t_bool"
      },
      {
        "astId": 620,
        "contract": "contracts/SoulStore.sol:SoulStore",
        "label": "_status",
        "offset": 0,
        "slot": "12",
        "type": "t_uint256"
      },
      {
        "astId": 7524,
        "contract": "contracts/SoulStore.sol:SoulStore",
        "label": "soulboundIdentity",
        "offset": 0,
        "slot": "13",
        "type": "t_contract(ISoulboundIdentity)10282"
      },
      {
        "astId": 7527,
        "contract": "contracts/SoulStore.sol:SoulStore",
        "label": "soulName",
        "offset": 0,
        "slot": "14",
        "type": "t_contract(ISoulName)10218"
      },
      {
        "astId": 7531,
        "contract": "contracts/SoulStore.sol:SoulStore",
        "label": "nameRegistrationPricePerYear",
        "offset": 0,
        "slot": "15",
        "type": "t_mapping(t_uint256,t_uint256)"
      },
      {
        "astId": 7535,
        "contract": "contracts/SoulStore.sol:SoulStore",
        "label": "authorities",
        "offset": 0,
        "slot": "16",
        "type": "t_mapping(t_address,t_bool)"
      }
    ],
    "types": {
      "t_address": {
        "encoding": "inplace",
        "label": "address",
        "numberOfBytes": "20"
      },
      "t_array(t_address)dyn_storage": {
        "base": "t_address",
        "encoding": "dynamic_array",
        "label": "address[]",
        "numberOfBytes": "32"
      },
      "t_bool": {
        "encoding": "inplace",
        "label": "bool",
        "numberOfBytes": "1"
      },
      "t_bytes32": {
        "encoding": "inplace",
        "label": "bytes32",
        "numberOfBytes": "32"
      },
      "t_contract(ISoulName)10218": {
        "encoding": "inplace",
        "label": "contract ISoulName",
        "numberOfBytes": "20"
      },
      "t_contract(ISoulboundIdentity)10282": {
        "encoding": "inplace",
        "label": "contract ISoulboundIdentity",
        "numberOfBytes": "20"
      },
      "t_mapping(t_address,t_bool)": {
        "encoding": "mapping",
        "key": "t_address",
        "label": "mapping(address => bool)",
        "numberOfBytes": "32",
        "value": "t_bool"
      },
      "t_mapping(t_bytes32,t_struct(RoleData)19_storage)": {
        "encoding": "mapping",
        "key": "t_bytes32",
        "label": "mapping(bytes32 => struct AccessControl.RoleData)",
        "numberOfBytes": "32",
        "value": "t_struct(RoleData)19_storage"
      },
      "t_mapping(t_uint256,t_uint256)": {
        "encoding": "mapping",
        "key": "t_uint256",
        "label": "mapping(uint256 => uint256)",
        "numberOfBytes": "32",
        "value": "t_uint256"
      },
      "t_struct(RoleData)19_storage": {
        "encoding": "inplace",
        "label": "struct AccessControl.RoleData",
        "members": [
          {
            "astId": 16,
            "contract": "contracts/SoulStore.sol:SoulStore",
            "label": "members",
            "offset": 0,
            "slot": "0",
            "type": "t_mapping(t_address,t_bool)"
          },
          {
            "astId": 18,
            "contract": "contracts/SoulStore.sol:SoulStore",
            "label": "adminRole",
            "offset": 0,
            "slot": "1",
            "type": "t_bytes32"
          }
        ],
        "numberOfBytes": "64"
      },
      "t_uint256": {
        "encoding": "inplace",
        "label": "uint256",
        "numberOfBytes": "32"
      }
    }
  }
}