{
  "address": "0x0dDD88779fBB936B4dDd5a7C4D18f29C0bcd8e2d",
  "abi": [
    {
      "inputs": [
        {
          "internalType": "address",
          "name": "admin",
          "type": "address"
        },
        {
          "internalType": "string",
          "name": "name",
          "type": "string"
        },
        {
          "internalType": "string",
          "name": "symbol",
          "type": "string"
        },
        {
          "internalType": "string",
          "name": "baseTokenURI",
          "type": "string"
        },
        {
          "components": [
            {
              "internalType": "address",
              "name": "swapRouter",
              "type": "address"
            },
            {
              "internalType": "address",
              "name": "wrappedNativeToken",
              "type": "address"
            },
            {
              "internalType": "address",
              "name": "stableCoin",
              "type": "address"
            },
            {
              "internalType": "address",
              "name": "masaToken",
              "type": "address"
            },
            {
              "internalType": "address",
              "name": "projectFeeReceiver",
              "type": "address"
            },
            {
              "internalType": "address",
              "name": "protocolFeeReceiver",
              "type": "address"
            },
            {
              "internalType": "uint256",
              "name": "protocolFeeAmount",
              "type": "uint256"
            },
            {
              "internalType": "uint256",
              "name": "protocolFeePercent",
              "type": "uint256"
            },
            {
              "internalType": "uint256",
              "name": "protocolFeePercentSub",
              "type": "uint256"
            }
          ],
          "internalType": "struct PaymentGateway.PaymentParams",
          "name": "paymentParams",
          "type": "tuple"
        }
      ],
      "stateMutability": "nonpayable",
      "type": "constructor"
    },
    {
      "inputs": [],
      "name": "AlreadyAdded",
      "type": "error"
    },
    {
      "inputs": [
        {
          "internalType": "uint256",
          "name": "amount",
          "type": "uint256"
        }
      ],
      "name": "InsufficientEthAmount",
      "type": "error"
    },
    {
      "inputs": [
        {
          "internalType": "address",
          "name": "paymentMethod",
          "type": "address"
        }
      ],
      "name": "InvalidPaymentMethod",
      "type": "error"
    },
    {
      "inputs": [
        {
          "internalType": "address",
          "name": "token",
          "type": "address"
        }
      ],
      "name": "InvalidToken",
      "type": "error"
    },
    {
      "inputs": [
        {
          "internalType": "address",
          "name": "to",
          "type": "address"
        },
        {
          "internalType": "uint256",
          "name": "maximum",
          "type": "uint256"
        }
      ],
      "name": "MaxSBTMinted",
      "type": "error"
    },
    {
      "inputs": [
        {
          "internalType": "address",
          "name": "erc20token",
          "type": "address"
        }
      ],
      "name": "NonExistingErc20Token",
      "type": "error"
    },
    {
      "inputs": [],
      "name": "NotLinkedToAnIdentitySBT",
      "type": "error"
    },
    {
      "inputs": [],
      "name": "PaymentParamsNotSet",
      "type": "error"
    },
    {
      "inputs": [],
      "name": "ProtocolFeeReceiverNotSet",
      "type": "error"
    },
    {
      "inputs": [],
      "name": "RefundFailed",
      "type": "error"
    },
    {
      "inputs": [],
      "name": "SameValue",
      "type": "error"
    },
    {
      "inputs": [],
      "name": "SoulNameContractNotSet",
      "type": "error"
    },
    {
      "inputs": [],
      "name": "TransferFailed",
      "type": "error"
    },
    {
      "inputs": [],
      "name": "UserMustHaveProtocolOrProjectAdminRole",
      "type": "error"
    },
    {
      "inputs": [],
      "name": "ZeroAddress",
      "type": "error"
    },
    {
      "anonymous": false,
      "inputs": [
        {
          "indexed": true,
          "internalType": "address",
          "name": "_owner",
          "type": "address"
        },
        {
          "indexed": true,
          "internalType": "uint256",
          "name": "_tokenId",
          "type": "uint256"
        }
      ],
      "name": "Burn",
      "type": "event"
    },
    {
      "anonymous": false,
      "inputs": [
        {
          "indexed": true,
          "internalType": "address",
          "name": "_owner",
          "type": "address"
        },
        {
          "indexed": true,
          "internalType": "uint256",
          "name": "_tokenId",
          "type": "uint256"
        }
      ],
      "name": "Mint",
      "type": "event"
    },
    {
      "anonymous": false,
      "inputs": [
        {
          "indexed": false,
          "internalType": "uint256",
          "name": "tokenId",
          "type": "uint256"
        },
        {
          "indexed": false,
          "internalType": "address",
          "name": "to",
          "type": "address"
        }
      ],
      "name": "MintedToAddress",
      "type": "event"
    },
    {
      "anonymous": false,
      "inputs": [
        {
          "indexed": false,
          "internalType": "uint256",
          "name": "tokenId",
          "type": "uint256"
        },
        {
          "indexed": false,
          "internalType": "uint256",
          "name": "identityId",
          "type": "uint256"
        }
      ],
      "name": "MintedToIdentity",
      "type": "event"
    },
    {
      "anonymous": false,
      "inputs": [
        {
          "indexed": true,
          "internalType": "address",
          "name": "paymentMethod",
          "type": "address"
        },
        {
          "indexed": false,
          "internalType": "uint256",
          "name": "amount",
          "type": "uint256"
        },
        {
          "indexed": false,
          "internalType": "uint256",
          "name": "protocolFee",
          "type": "uint256"
        }
      ],
      "name": "Pay",
      "type": "event"
    },
    {
      "anonymous": false,
      "inputs": [
        {
          "indexed": true,
          "internalType": "bytes32",
          "name": "role",
          "type": "bytes32"
        },
        {
          "indexed": true,
          "internalType": "bytes32",
          "name": "previousAdminRole",
          "type": "bytes32"
        },
        {
          "indexed": true,
          "internalType": "bytes32",
          "name": "newAdminRole",
          "type": "bytes32"
        }
      ],
      "name": "RoleAdminChanged",
      "type": "event"
    },
    {
      "anonymous": false,
      "inputs": [
        {
          "indexed": true,
          "internalType": "bytes32",
          "name": "role",
          "type": "bytes32"
        },
        {
          "indexed": true,
          "internalType": "address",
          "name": "account",
          "type": "address"
        },
        {
          "indexed": true,
          "internalType": "address",
          "name": "sender",
          "type": "address"
        }
      ],
      "name": "RoleGranted",
      "type": "event"
    },
    {
      "anonymous": false,
      "inputs": [
        {
          "indexed": true,
          "internalType": "bytes32",
          "name": "role",
          "type": "bytes32"
        },
        {
          "indexed": true,
          "internalType": "address",
          "name": "account",
          "type": "address"
        },
        {
          "indexed": true,
          "internalType": "address",
          "name": "sender",
          "type": "address"
        }
      ],
      "name": "RoleRevoked",
      "type": "event"
    },
    {
      "inputs": [],
      "name": "DEFAULT_ADMIN_ROLE",
      "outputs": [
        {
          "internalType": "bytes32",
          "name": "",
          "type": "bytes32"
        }
      ],
      "stateMutability": "view",
      "type": "function"
    },
    {
      "inputs": [],
      "name": "MINTER_ROLE",
      "outputs": [
        {
          "internalType": "bytes32",
          "name": "",
          "type": "bytes32"
        }
      ],
      "stateMutability": "view",
      "type": "function"
    },
    {
      "inputs": [],
      "name": "PROJECT_ADMIN_ROLE",
      "outputs": [
        {
          "internalType": "bytes32",
          "name": "",
          "type": "bytes32"
        }
      ],
      "stateMutability": "view",
      "type": "function"
    },
    {
      "inputs": [],
      "name": "addLinkPrice",
      "outputs": [
        {
          "internalType": "uint256",
          "name": "",
          "type": "uint256"
        }
      ],
      "stateMutability": "view",
      "type": "function"
    },
    {
      "inputs": [],
      "name": "addLinkPriceMASA",
      "outputs": [
        {
          "internalType": "uint256",
          "name": "",
          "type": "uint256"
        }
      ],
      "stateMutability": "view",
      "type": "function"
    },
    {
      "inputs": [
        {
          "internalType": "address",
          "name": "owner",
          "type": "address"
        }
      ],
      "name": "balanceOf",
      "outputs": [
        {
          "internalType": "uint256",
          "name": "",
          "type": "uint256"
        }
      ],
      "stateMutability": "view",
      "type": "function"
    },
    {
      "inputs": [
        {
          "internalType": "uint256",
          "name": "tokenId",
          "type": "uint256"
        }
      ],
      "name": "burn",
      "outputs": [],
      "stateMutability": "nonpayable",
      "type": "function"
    },
    {
      "inputs": [
        {
          "internalType": "address",
          "name": "_paymentMethod",
          "type": "address"
        }
      ],
      "name": "disablePaymentMethod",
      "outputs": [],
      "stateMutability": "nonpayable",
      "type": "function"
    },
    {
      "inputs": [
        {
          "internalType": "address",
          "name": "_paymentMethod",
          "type": "address"
        }
      ],
      "name": "enablePaymentMethod",
      "outputs": [],
      "stateMutability": "nonpayable",
      "type": "function"
    },
    {
      "inputs": [
        {
          "internalType": "address",
          "name": "",
          "type": "address"
        }
      ],
      "name": "enabledPaymentMethod",
      "outputs": [
        {
          "internalType": "bool",
          "name": "",
          "type": "bool"
        }
      ],
      "stateMutability": "view",
      "type": "function"
    },
    {
      "inputs": [
        {
          "internalType": "uint256",
          "name": "",
          "type": "uint256"
        }
      ],
      "name": "enabledPaymentMethods",
      "outputs": [
        {
          "internalType": "address",
          "name": "",
          "type": "address"
        }
      ],
      "stateMutability": "view",
      "type": "function"
    },
    {
      "inputs": [
        {
          "internalType": "uint256",
          "name": "tokenId",
          "type": "uint256"
        }
      ],
      "name": "exists",
      "outputs": [
        {
          "internalType": "bool",
          "name": "",
          "type": "bool"
        }
      ],
      "stateMutability": "view",
      "type": "function"
    },
    {
      "inputs": [],
      "name": "getEnabledPaymentMethods",
      "outputs": [
        {
          "internalType": "address[]",
          "name": "",
          "type": "address[]"
        }
      ],
      "stateMutability": "view",
      "type": "function"
    },
    {
      "inputs": [],
      "name": "getExtension",
      "outputs": [
        {
          "internalType": "string",
          "name": "",
          "type": "string"
        }
      ],
      "stateMutability": "view",
      "type": "function"
    },
    {
      "inputs": [
        {
          "internalType": "uint256",
          "name": "tokenId",
          "type": "uint256"
        }
      ],
      "name": "getIdentityId",
      "outputs": [
        {
          "internalType": "uint256",
          "name": "",
          "type": "uint256"
        }
      ],
      "stateMutability": "view",
      "type": "function"
    },
    {
      "inputs": [
        {
          "internalType": "address",
          "name": "paymentMethod",
          "type": "address"
        }
      ],
      "name": "getMintPrice",
      "outputs": [
        {
          "internalType": "uint256",
          "name": "price",
          "type": "uint256"
        }
      ],
      "stateMutability": "view",
      "type": "function"
    },
    {
      "inputs": [
        {
          "internalType": "address",
          "name": "paymentMethod",
          "type": "address"
        }
      ],
      "name": "getMintPriceWithProtocolFee",
      "outputs": [
        {
          "internalType": "uint256",
          "name": "price",
          "type": "uint256"
        },
        {
          "internalType": "uint256",
          "name": "protocolFee",
          "type": "uint256"
        }
      ],
      "stateMutability": "view",
      "type": "function"
    },
    {
      "inputs": [
        {
          "internalType": "address",
          "name": "paymentMethod",
          "type": "address"
        },
        {
          "internalType": "uint256",
          "name": "amount",
          "type": "uint256"
        }
      ],
      "name": "getProtocolFee",
      "outputs": [
        {
          "internalType": "uint256",
          "name": "",
          "type": "uint256"
        }
      ],
      "stateMutability": "view",
      "type": "function"
    },
    {
      "inputs": [
        {
          "internalType": "uint256",
          "name": "amount",
          "type": "uint256"
        }
      ],
      "name": "getProtocolFeeSub",
      "outputs": [
        {
          "internalType": "uint256",
          "name": "",
          "type": "uint256"
        }
      ],
      "stateMutability": "view",
      "type": "function"
    },
    {
      "inputs": [
        {
          "internalType": "bytes32",
          "name": "role",
          "type": "bytes32"
        }
      ],
      "name": "getRoleAdmin",
      "outputs": [
        {
          "internalType": "bytes32",
          "name": "",
          "type": "bytes32"
        }
      ],
      "stateMutability": "view",
      "type": "function"
    },
    {
      "inputs": [],
      "name": "getSoulName",
      "outputs": [
        {
          "internalType": "contract ISoulName",
          "name": "",
          "type": "address"
        }
      ],
      "stateMutability": "view",
      "type": "function"
    },
    {
      "inputs": [
        {
          "internalType": "uint256",
          "name": "tokenId",
          "type": "uint256"
        }
      ],
      "name": "getSoulNames",
      "outputs": [
        {
          "internalType": "string[]",
          "name": "sbtNames",
          "type": "string[]"
        }
      ],
      "stateMutability": "view",
      "type": "function"
    },
    {
      "inputs": [
        {
          "internalType": "address",
          "name": "owner",
          "type": "address"
        }
      ],
      "name": "getSoulNames",
      "outputs": [
        {
          "internalType": "string[]",
          "name": "sbtNames",
          "type": "string[]"
        }
      ],
      "stateMutability": "view",
      "type": "function"
    },
    {
      "inputs": [
        {
          "internalType": "string",
          "name": "name",
          "type": "string"
        }
      ],
      "name": "getTokenData",
      "outputs": [
        {
          "internalType": "string",
          "name": "sbtName",
          "type": "string"
        },
        {
          "internalType": "bool",
          "name": "linked",
          "type": "bool"
        },
        {
          "internalType": "uint256",
          "name": "identityId",
          "type": "uint256"
        },
        {
          "internalType": "uint256",
          "name": "tokenId",
          "type": "uint256"
        },
        {
          "internalType": "uint256",
          "name": "expirationDate",
          "type": "uint256"
        },
        {
          "internalType": "bool",
          "name": "active",
          "type": "bool"
        }
      ],
      "stateMutability": "view",
      "type": "function"
    },
    {
      "inputs": [
        {
          "internalType": "bytes32",
          "name": "role",
          "type": "bytes32"
        },
        {
          "internalType": "address",
          "name": "account",
          "type": "address"
        }
      ],
      "name": "grantRole",
      "outputs": [],
      "stateMutability": "nonpayable",
      "type": "function"
    },
    {
      "inputs": [
        {
          "internalType": "bytes32",
          "name": "role",
          "type": "bytes32"
        },
        {
          "internalType": "address",
          "name": "account",
          "type": "address"
        }
      ],
      "name": "hasRole",
      "outputs": [
        {
          "internalType": "bool",
          "name": "",
          "type": "bool"
        }
      ],
      "stateMutability": "view",
      "type": "function"
    },
    {
      "inputs": [
        {
          "internalType": "string",
          "name": "name",
          "type": "string"
        }
      ],
      "name": "isAvailable",
      "outputs": [
        {
          "internalType": "bool",
          "name": "available",
          "type": "bool"
        }
      ],
      "stateMutability": "view",
      "type": "function"
    },
    {
      "inputs": [],
      "name": "masaToken",
      "outputs": [
        {
          "internalType": "address",
          "name": "",
          "type": "address"
        }
      ],
      "stateMutability": "view",
      "type": "function"
    },
    {
      "inputs": [],
      "name": "maxSBTToMint",
      "outputs": [
        {
          "internalType": "uint256",
          "name": "",
          "type": "uint256"
        }
      ],
      "stateMutability": "view",
      "type": "function"
    },
    {
      "inputs": [
        {
          "internalType": "address",
          "name": "to",
          "type": "address"
        }
      ],
      "name": "mint",
      "outputs": [
        {
          "internalType": "uint256",
          "name": "",
          "type": "uint256"
        }
      ],
      "stateMutability": "payable",
      "type": "function"
    },
    {
      "inputs": [
        {
          "internalType": "address",
          "name": "paymentMethod",
          "type": "address"
        },
        {
          "internalType": "address",
          "name": "to",
          "type": "address"
        }
      ],
      "name": "mint",
      "outputs": [
        {
          "internalType": "uint256",
          "name": "",
          "type": "uint256"
        }
      ],
      "stateMutability": "payable",
      "type": "function"
    },
    {
      "inputs": [
        {
          "internalType": "address",
          "name": "to",
          "type": "address"
        },
        {
          "internalType": "string",
          "name": "name",
          "type": "string"
        },
        {
          "internalType": "uint256",
          "name": "yearsPeriod",
          "type": "uint256"
        },
        {
          "internalType": "string",
          "name": "_tokenURI",
          "type": "string"
        }
      ],
      "name": "mintIdentityWithName",
      "outputs": [
        {
          "internalType": "uint256",
          "name": "",
          "type": "uint256"
        }
      ],
      "stateMutability": "payable",
      "type": "function"
    },
    {
      "inputs": [
        {
          "internalType": "address",
          "name": "paymentMethod",
          "type": "address"
        },
        {
          "internalType": "address",
          "name": "to",
          "type": "address"
        },
        {
          "internalType": "string",
          "name": "name",
          "type": "string"
        },
        {
          "internalType": "uint256",
          "name": "yearsPeriod",
          "type": "uint256"
        },
        {
          "internalType": "string",
          "name": "_tokenURI",
          "type": "string"
        }
      ],
      "name": "mintIdentityWithName",
      "outputs": [
        {
          "internalType": "uint256",
          "name": "",
          "type": "uint256"
        }
      ],
      "stateMutability": "payable",
      "type": "function"
    },
    {
      "inputs": [],
      "name": "mintPrice",
      "outputs": [
        {
          "internalType": "uint256",
          "name": "",
          "type": "uint256"
        }
      ],
      "stateMutability": "view",
      "type": "function"
    },
    {
      "inputs": [],
      "name": "mintPriceMASA",
      "outputs": [
        {
          "internalType": "uint256",
          "name": "",
          "type": "uint256"
        }
      ],
      "stateMutability": "view",
      "type": "function"
    },
    {
      "inputs": [],
      "name": "name",
      "outputs": [
        {
          "internalType": "string",
          "name": "",
          "type": "string"
        }
      ],
      "stateMutability": "view",
      "type": "function"
    },
    {
      "inputs": [
        {
          "internalType": "uint256",
          "name": "tokenId",
          "type": "uint256"
        }
      ],
      "name": "ownerOf",
      "outputs": [
        {
          "internalType": "address",
          "name": "",
          "type": "address"
        }
      ],
      "stateMutability": "view",
      "type": "function"
    },
    {
      "inputs": [
        {
          "internalType": "string",
          "name": "name",
          "type": "string"
        }
      ],
      "name": "ownerOf",
      "outputs": [
        {
          "internalType": "address",
          "name": "",
          "type": "address"
        }
      ],
      "stateMutability": "view",
      "type": "function"
    },
    {
      "inputs": [],
      "name": "projectFeeReceiver",
      "outputs": [
        {
          "internalType": "address",
          "name": "",
          "type": "address"
        }
      ],
      "stateMutability": "view",
      "type": "function"
    },
    {
      "inputs": [],
      "name": "protocolFeeAmount",
      "outputs": [
        {
          "internalType": "uint256",
          "name": "",
          "type": "uint256"
        }
      ],
      "stateMutability": "view",
      "type": "function"
    },
    {
      "inputs": [],
      "name": "protocolFeePercent",
      "outputs": [
        {
          "internalType": "uint256",
          "name": "",
          "type": "uint256"
        }
      ],
      "stateMutability": "view",
      "type": "function"
    },
    {
      "inputs": [],
      "name": "protocolFeePercentSub",
      "outputs": [
        {
          "internalType": "uint256",
          "name": "",
          "type": "uint256"
        }
      ],
      "stateMutability": "view",
      "type": "function"
    },
    {
      "inputs": [],
      "name": "protocolFeeReceiver",
      "outputs": [
        {
          "internalType": "address",
          "name": "",
          "type": "address"
        }
      ],
      "stateMutability": "view",
      "type": "function"
    },
    {
      "inputs": [],
      "name": "queryLinkPrice",
      "outputs": [
        {
          "internalType": "uint256",
          "name": "",
          "type": "uint256"
        }
      ],
      "stateMutability": "view",
      "type": "function"
    },
    {
      "inputs": [],
      "name": "queryLinkPriceMASA",
      "outputs": [
        {
          "internalType": "uint256",
          "name": "",
          "type": "uint256"
        }
      ],
      "stateMutability": "view",
      "type": "function"
    },
    {
      "inputs": [
        {
          "internalType": "bytes32",
          "name": "role",
          "type": "bytes32"
        },
        {
          "internalType": "address",
          "name": "account",
          "type": "address"
        }
      ],
      "name": "renounceRole",
      "outputs": [],
      "stateMutability": "nonpayable",
      "type": "function"
    },
    {
      "inputs": [
        {
          "internalType": "bytes32",
          "name": "role",
          "type": "bytes32"
        },
        {
          "internalType": "address",
          "name": "account",
          "type": "address"
        }
      ],
      "name": "revokeRole",
      "outputs": [],
      "stateMutability": "nonpayable",
      "type": "function"
    },
    {
      "inputs": [
        {
          "internalType": "uint256",
          "name": "_addLinkPrice",
          "type": "uint256"
        }
      ],
      "name": "setAddLinkPrice",
      "outputs": [],
      "stateMutability": "nonpayable",
      "type": "function"
    },
    {
      "inputs": [
        {
          "internalType": "uint256",
          "name": "_addLinkPriceMASA",
          "type": "uint256"
        }
      ],
      "name": "setAddLinkPriceMASA",
      "outputs": [],
      "stateMutability": "nonpayable",
      "type": "function"
    },
    {
      "inputs": [
        {
          "internalType": "address",
          "name": "_masaToken",
          "type": "address"
        }
      ],
      "name": "setMasaToken",
      "outputs": [],
      "stateMutability": "nonpayable",
      "type": "function"
    },
    {
      "inputs": [
        {
          "internalType": "uint256",
          "name": "_mintPrice",
          "type": "uint256"
        }
      ],
      "name": "setMintPrice",
      "outputs": [],
      "stateMutability": "nonpayable",
      "type": "function"
    },
    {
      "inputs": [
        {
          "internalType": "uint256",
          "name": "_mintPriceMASA",
          "type": "uint256"
        }
      ],
      "name": "setMintPriceMASA",
      "outputs": [],
      "stateMutability": "nonpayable",
      "type": "function"
    },
    {
      "inputs": [
        {
          "internalType": "address",
          "name": "_projectFeeReceiver",
          "type": "address"
        }
      ],
      "name": "setProjectFeeReceiver",
      "outputs": [],
      "stateMutability": "nonpayable",
      "type": "function"
    },
    {
      "inputs": [
        {
          "internalType": "uint256",
          "name": "_protocolFeeAmount",
          "type": "uint256"
        }
      ],
      "name": "setProtocolFeeAmount",
      "outputs": [],
      "stateMutability": "nonpayable",
      "type": "function"
    },
    {
      "inputs": [
        {
          "internalType": "uint256",
          "name": "_protocolFeePercent",
          "type": "uint256"
        }
      ],
      "name": "setProtocolFeePercent",
      "outputs": [],
      "stateMutability": "nonpayable",
      "type": "function"
    },
    {
      "inputs": [
        {
          "internalType": "uint256",
          "name": "_protocolFeePercentSub",
          "type": "uint256"
        }
      ],
      "name": "setProtocolFeePercentSub",
      "outputs": [],
      "stateMutability": "nonpayable",
      "type": "function"
    },
    {
      "inputs": [
        {
          "internalType": "address",
          "name": "_protocolFeeReceiver",
          "type": "address"
        }
      ],
      "name": "setProtocolFeeReceiver",
      "outputs": [],
      "stateMutability": "nonpayable",
      "type": "function"
    },
    {
      "inputs": [
        {
          "internalType": "uint256",
          "name": "_queryLinkPrice",
          "type": "uint256"
        }
      ],
      "name": "setQueryLinkPrice",
      "outputs": [],
      "stateMutability": "nonpayable",
      "type": "function"
    },
    {
      "inputs": [
        {
          "internalType": "uint256",
          "name": "_queryLinkPriceMASA",
          "type": "uint256"
        }
      ],
      "name": "setQueryLinkPriceMASA",
      "outputs": [],
      "stateMutability": "nonpayable",
      "type": "function"
    },
    {
      "inputs": [
        {
          "internalType": "contract ISoulName",
          "name": "_soulName",
          "type": "address"
        }
      ],
      "name": "setSoulName",
      "outputs": [],
      "stateMutability": "nonpayable",
      "type": "function"
    },
    {
      "inputs": [
        {
          "internalType": "address",
          "name": "_soulboundIdentity",
          "type": "address"
        }
      ],
      "name": "setSoulboundIdentity",
      "outputs": [],
      "stateMutability": "nonpayable",
      "type": "function"
    },
    {
      "inputs": [
        {
          "internalType": "address",
          "name": "_stableCoin",
          "type": "address"
        }
      ],
      "name": "setStableCoin",
      "outputs": [],
      "stateMutability": "nonpayable",
      "type": "function"
    },
    {
      "inputs": [
        {
          "internalType": "address",
          "name": "_swapRouter",
          "type": "address"
        }
      ],
      "name": "setSwapRouter",
      "outputs": [],
      "stateMutability": "nonpayable",
      "type": "function"
    },
    {
      "inputs": [
        {
          "internalType": "address",
          "name": "_wrappedNativeToken",
          "type": "address"
        }
      ],
      "name": "setWrappedNativeToken",
      "outputs": [],
      "stateMutability": "nonpayable",
      "type": "function"
    },
    {
      "inputs": [],
      "name": "soulName",
      "outputs": [
        {
          "internalType": "contract ISoulName",
          "name": "",
          "type": "address"
        }
      ],
      "stateMutability": "view",
      "type": "function"
    },
    {
      "inputs": [],
      "name": "soulboundIdentity",
      "outputs": [
        {
          "internalType": "contract ISoulboundIdentity",
          "name": "",
          "type": "address"
        }
      ],
      "stateMutability": "view",
      "type": "function"
    },
    {
      "inputs": [],
      "name": "stableCoin",
      "outputs": [
        {
          "internalType": "address",
          "name": "",
          "type": "address"
        }
      ],
      "stateMutability": "view",
      "type": "function"
    },
    {
      "inputs": [
        {
          "internalType": "bytes4",
          "name": "interfaceId",
          "type": "bytes4"
        }
      ],
      "name": "supportsInterface",
      "outputs": [
        {
          "internalType": "bool",
          "name": "",
          "type": "bool"
        }
      ],
      "stateMutability": "view",
      "type": "function"
    },
    {
      "inputs": [],
      "name": "swapRouter",
      "outputs": [
        {
          "internalType": "address",
          "name": "",
          "type": "address"
        }
      ],
      "stateMutability": "view",
      "type": "function"
    },
    {
      "inputs": [],
      "name": "symbol",
      "outputs": [
        {
          "internalType": "string",
          "name": "",
          "type": "string"
        }
      ],
      "stateMutability": "view",
      "type": "function"
    },
    {
      "inputs": [
        {
          "internalType": "uint256",
          "name": "index",
          "type": "uint256"
        }
      ],
      "name": "tokenByIndex",
      "outputs": [
        {
          "internalType": "uint256",
          "name": "",
          "type": "uint256"
        }
      ],
      "stateMutability": "view",
      "type": "function"
    },
    {
      "inputs": [
        {
          "internalType": "address",
          "name": "owner",
          "type": "address"
        }
      ],
      "name": "tokenOfOwner",
      "outputs": [
        {
          "internalType": "uint256",
          "name": "",
          "type": "uint256"
        }
      ],
      "stateMutability": "view",
      "type": "function"
    },
    {
      "inputs": [
        {
          "internalType": "address",
          "name": "owner",
          "type": "address"
        },
        {
          "internalType": "uint256",
          "name": "index",
          "type": "uint256"
        }
      ],
      "name": "tokenOfOwnerByIndex",
      "outputs": [
        {
          "internalType": "uint256",
          "name": "",
          "type": "uint256"
        }
      ],
      "stateMutability": "view",
      "type": "function"
    },
    {
      "inputs": [
        {
          "internalType": "string",
          "name": "name",
          "type": "string"
        }
      ],
      "name": "tokenURI",
      "outputs": [
        {
          "internalType": "string",
          "name": "",
          "type": "string"
        }
      ],
      "stateMutability": "view",
      "type": "function"
    },
    {
      "inputs": [
        {
          "internalType": "address",
          "name": "owner",
          "type": "address"
        }
      ],
      "name": "tokenURI",
      "outputs": [
        {
          "internalType": "string",
          "name": "",
          "type": "string"
        }
      ],
      "stateMutability": "view",
      "type": "function"
    },
    {
      "inputs": [
        {
          "internalType": "uint256",
          "name": "tokenId",
          "type": "uint256"
        }
      ],
      "name": "tokenURI",
      "outputs": [
        {
          "internalType": "string",
          "name": "",
          "type": "string"
        }
      ],
      "stateMutability": "view",
      "type": "function"
    },
    {
      "inputs": [],
      "name": "totalSupply",
      "outputs": [
        {
          "internalType": "uint256",
          "name": "",
          "type": "uint256"
        }
      ],
      "stateMutability": "view",
      "type": "function"
    },
    {
      "inputs": [],
      "name": "wrappedNativeToken",
      "outputs": [
        {
          "internalType": "address",
          "name": "",
          "type": "address"
        }
      ],
      "stateMutability": "view",
      "type": "function"
    }
  ],
  "transactionHash": "0x8396165676b9d2366b4874c3ed55d159845d994ff6373531df0cee208b2cf3b3",
  "args": [
    "0x06168A0f16DFbe0cea6fa3E2807026617C96a2b8",
    "Masa Identity",
    "MID",
    "https://metadata.masa.finance/v1.0/identity/masa/",
    [
      "0x0000000000000000000000000000000000000000",
      "0x0000000000000000000000000000000000000000",
      "0x0000000000000000000000000000000000000000",
      "0x0000000000000000000000000000000000000000",
      "0x0000000000000000000000000000000000000000",
      "0x0000000000000000000000000000000000000000",
      "0",
      "0",
      "0"
    ]
  ],
  "numDeployments": 1,
  "solcInputHash": "b78b66d34cd979a59275f934898ed4ec",
  "bytecode": "0x60a06040523480156200001157600080fd5b5060405162004e5738038062004e578339810160408190526200003491620004d1565b8484848460008560018686868686868685858884620000548783620001a0565b8051600180546001600160a01b03199081166001600160a01b0393841617909155602083015160028054831691841691909117905560408301516003805483169184169190911790556060830151600480548316918416919091179055608083015160078054831691841691909117905560a083015160088054909216921691909117905560c081015160095560e0810151600a556101000151600b5550600c620001008382620006cc565b50600d6200010f8282620006cc565b506200012191506000905088620001a0565b60156200012f8582620006cc565b50601680546001600160a01b0319166001600160a01b03949094169390931790925550608052506200018892507f9f2df0fed2c77648de5860a4cc508cd0818c85b8b8a1ab4ceeef8d981c8956a69150899050620001a0565b50506001601d55506200079b98505050505050505050565b620001ac828262000229565b62000225576000828152602081815260408083206001600160a01b03851684529091529020805460ff19166001179055620001e43390565b6001600160a01b0316816001600160a01b0316837f2f8788117e7eff1d82e926ec794901d17c78024a50270940304540a733656f0d60405160405180910390a45b5050565b6000828152602081815260408083206001600160a01b038516845290915290205460ff165b92915050565b60006001600160a01b0382166200024e565b620002718162000254565b81146200027d57600080fd5b50565b80516200024e8162000266565b601f01601f191690565b634e487b7160e01b600052604160045260246000fd5b620002b8826200028d565b81018181106001600160401b0382111715620002d857620002d862000297565b6040525050565b6000620002eb60405190565b9050620002f98282620002ad565b919050565b60006001600160401b038211156200031a576200031a62000297565b62000325826200028d565b60200192915050565b60005b838110156200034b57818101518382015260200162000331565b50506000910152565b60006200036b6200036584620002fe565b620002df565b905082815260208101848484011115620003885762000388600080fd5b620003958482856200032e565b509392505050565b600082601f830112620003b357620003b3600080fd5b8151620003c584826020860162000354565b949350505050565b8062000271565b80516200024e81620003cd565b60006101208284031215620003f957620003f9600080fd5b62000406610120620002df565b9050600062000416848462000280565b8252506020620004298484830162000280565b60208301525060406200043f8482850162000280565b6040830152506060620004558482850162000280565b60608301525060806200046b8482850162000280565b60808301525060a0620004818482850162000280565b60a08301525060c06200049784828501620003d4565b60c08301525060e0620004ad84828501620003d4565b60e083015250610100620004c484828501620003d4565b6101008301525092915050565b60008060008060006101a08688031215620004ef57620004ef600080fd5b6000620004fd888862000280565b95505060208601516001600160401b038111156200051e576200051e600080fd5b6200052c888289016200039d565b94505060408601516001600160401b038111156200054d576200054d600080fd5b6200055b888289016200039d565b93505060608601516001600160401b038111156200057c576200057c600080fd5b6200058a888289016200039d565b92505060806200059d88828901620003e1565b9150509295509295909350565b634e487b7160e01b600052602260045260246000fd5b600281046001821680620005d557607f821691505b602082108103620005ea57620005ea620005aa565b50919050565b60006200024e620005fe8381565b90565b6200060c83620005f0565b815460001960089490940293841b1916921b91909117905550565b60006200063681848462000601565b505050565b8181101562000225576200065160008262000627565b6001016200063b565b601f82111562000636576000818152602090206020601f85010481016020851015620006835750805b620006976020601f8601048301826200063b565b5050505050565b6000196008929092029190911c191690565b6000620006be83836200069e565b600290930290921792915050565b81516001600160401b03811115620006e857620006e862000297565b620006f48254620005c0565b620007018282856200065a565b6020601f8311600181146200073457600084156200071f5750858201515b6200072b8582620006b0565b86555062000793565b600085815260208120601f198616915b8281101562000766578885015182556020948501946001909201910162000744565b8683101562000786578489015162000782601f8916826200069e565b8355505b6001600288020188555050505b505050505050565b60805161468b620007cc6000396000818161096b01528181612888015281816128b101526128e4015261468b6000f3fe60806040526004361061036c5760003560e01c8062bdfde51461037157806301ffc9a7146103935780630513c3e9146103c957806306fdde03146103f65780630f2e68af146104185780631020051914610445578063126ed01c1461046757806313150b4814610494578063135f470c146104aa57806317fcb39b146104c057806318160ddd146104e05780631830e881146104f55780631f37c1241461050b578063217a2c7b1461052157806323af4e1714610541578063248a9ca314610561578063289c686b14610581578063294cdf0d146105a15780632f2ff15d146105c15780632f745c59146105e157806336568abe1461060157806339a51be5146106215780633ad3033e146106415780633c72ae7014610661578063412736571461068157806341c04d5e146106a157806342966c68146106c357806346877b1a146106e357806346b2b087146107035780634962a158146107355780634cf12d26146107555780634f558e79146107755780634f6ccce7146107955780635141453e146107b55780636352211e146107c85780636817c76c146107e85780636a627842146107fe5780636bfd499f1461081157806370a0823114610831578063719d0f2b1461085157806376ad199714610871578063776ce6a114610891578063776d1a54146108a657806377bed5ed146108bc5780637a0d1646146108dc5780637db8cb681461090c5780637e6698911461092c57806381e392ad146109595780638d0184611461098d5780638ec9c93b146109ad57806391d14854146109c3578063920ffa26146109e357806393702f3314610a0357806394a665e914610a2357806395d89b4114610a43578063965306aa14610a5857806398acb9a914610a78578063992642e514610a8b57806399b589cb14610aab578063a217fddf14610acb578063a498342114610ae0578063b507d48114610b00578063b79636b614610b1e578063b97d6b2314610b3e578063c1177d1914610b54578063c31c9c0714610b74578063c86aadb614610b94578063c87b56dd14610bb4578063d539139314610bd4578063d547741f14610bf6578063d6e6eb9f14610c16578063da058ae314610c2c578063eb93e85514610c4c578063ebda439614610c7a578063ee1fe2ad14610c9a578063ee7a9ec514610cad578063f4a0a52814610ccd578063fd48ac8314610ced575b600080fd5b34801561037d57600080fd5b5061039161038c36600461367f565b610d0d565b005b34801561039f57600080fd5b506103b36103ae3660046136bb565b610d40565b6040516103c091906136e6565b60405180910390f35b3480156103d557600080fd5b506103e96103e436600461367f565b610d51565b6040516103c09190613714565b34801561040257600080fd5b5061040b610d7b565b6040516103c09190613784565b34801561042457600080fd5b50601e54610438906001600160a01b031681565b6040516103c091906137cd565b34801561045157600080fd5b5061045a610e0d565b6040516103c09190613838565b34801561047357600080fd5b5061048761048236600461367f565b610e6e565b6040516103c0919061384f565b3480156104a057600080fd5b50610487601c5481565b3480156104b657600080fd5b50610487600b5481565b3480156104cc57600080fd5b506002546103e9906001600160a01b031681565b3480156104ec57600080fd5b50601254610487565b34801561050157600080fd5b5061048760185481565b34801561051757600080fd5b5061048760195481565b34801561052d57600080fd5b5061048761053c366004613871565b610e79565b34801561054d57600080fd5b5061039161055c3660046138ae565b610e8c565b34801561056d57600080fd5b5061048761057c36600461367f565b610ee8565b34801561058d57600080fd5b5061039161059c36600461367f565b610efd565b3480156105ad57600080fd5b506104876105bc3660046138ae565b610f6f565b3480156105cd57600080fd5b506103916105dc3660046138cf565b610f7c565b3480156105ed57600080fd5b506104876105fc366004613871565b610f9d565b34801561060d57600080fd5b5061039161061c3660046138cf565b610ff8565b34801561062d57600080fd5b506008546103e9906001600160a01b031681565b34801561064d57600080fd5b5061039161065c3660046138ae565b61102e565b34801561066d57600080fd5b5061039161067c36600461367f565b61108a565b34801561068d57600080fd5b5061039161069c3660046138ae565b6110fc565b3480156106ad57600080fd5b5061048760008051602061461683398151915281565b3480156106cf57600080fd5b506103916106de36600461367f565b611158565b3480156106ef57600080fd5b506103916106fe3660046138ae565b61118a565b34801561070f57600080fd5b5061072361071e3660046139f0565b6111e7565b6040516103c096959493929190613a2a565b34801561074157600080fd5b5061039161075036600461367f565b6112a7565b34801561076157600080fd5b5061040b6107703660046139f0565b611319565b34801561078157600080fd5b506103b361079036600461367f565b6113d4565b3480156107a157600080fd5b506104876107b036600461367f565b6113df565b6104876107c3366004613a7e565b61142d565b3480156107d457600080fd5b506103e96107e336600461367f565b611472565b3480156107f457600080fd5b5061048760175481565b61048761080c3660046138ae565b61147d565b34801561081d57600080fd5b5061039161082c36600461367f565b61148a565b34801561083d57600080fd5b5061048761084c3660046138ae565b6114bd565b34801561085d57600080fd5b5061048761086c3660046138ae565b611501565b34801561087d57600080fd5b5061039161088c3660046138ae565b6115fc565b34801561089d57600080fd5b5061040b611658565b3480156108b257600080fd5b50610487601a5481565b3480156108c857600080fd5b50601654610438906001600160a01b031681565b3480156108e857600080fd5b506103b36108f73660046138ae565b60056020526000908152604090205460ff1681565b34801561091857600080fd5b5061039161092736600461367f565b6116cf565b34801561093857600080fd5b5061094c61094736600461367f565b611741565b6040516103c09190613b88565b34801561096557600080fd5b506104877f000000000000000000000000000000000000000000000000000000000000000081565b34801561099957600080fd5b506103916109a83660046138ae565b6117e2565b3480156109b957600080fd5b5061048760095481565b3480156109cf57600080fd5b506103b36109de3660046138cf565b61187e565b3480156109ef57600080fd5b506103e96109fe3660046139f0565b6118a7565b348015610a0f57600080fd5b5061040b610a1e3660046138ae565b611959565b348015610a2f57600080fd5b50610391610a3e3660046138ae565b611971565b348015610a4f57600080fd5b5061040b611add565b348015610a6457600080fd5b506103b3610a733660046139f0565b611aec565b610487610a86366004613b99565b611b89565b348015610a9757600080fd5b506003546103e9906001600160a01b031681565b348015610ab757600080fd5b506007546103e9906001600160a01b031681565b348015610ad757600080fd5b50610487600081565b348015610aec57600080fd5b50610391610afb36600461367f565b611c1b565b348015610b0c57600080fd5b50601e546001600160a01b0316610438565b348015610b2a57600080fd5b5061094c610b393660046138ae565b611c4e565b348015610b4a57600080fd5b50610487601b5481565b348015610b6057600080fd5b50610487610b6f36600461367f565b611caa565b348015610b8057600080fd5b506001546103e9906001600160a01b031681565b348015610ba057600080fd5b50610391610baf3660046138ae565b611d53565b348015610bc057600080fd5b5061040b610bcf36600461367f565b611dff565b348015610be057600080fd5b5061048760008051602061463683398151915281565b348015610c0257600080fd5b50610391610c113660046138cf565b611e65565b348015610c2257600080fd5b50610487600a5481565b348015610c3857600080fd5b50610391610c473660046138ae565b611e81565b348015610c5857600080fd5b50610c6c610c673660046138ae565b611edd565b6040516103c0929190613c45565b348015610c8657600080fd5b506004546103e9906001600160a01b031681565b610487610ca8366004613c60565b611eff565b348015610cb957600080fd5b50610391610cc8366004613ca1565b611f1f565b348015610cd957600080fd5b50610391610ce836600461367f565b611fa2565b348015610cf957600080fd5b50610391610d0836600461367f565b612014565b6000610d1881612086565b6009548203610d3a5760405163c23f6ccb60e01b815260040160405180910390fd5b50600955565b6000610d4b82612090565b92915050565b60068181548110610d6157600080fd5b6000918252602090912001546001600160a01b0316905081565b6060600c8054610d8a90613cd8565b80601f0160208091040260200160405190810160405280929190818152602001828054610db690613cd8565b8015610e035780601f10610dd857610100808354040283529160200191610e03565b820191906000526020600020905b815481529060010190602001808311610de657829003601f168201915b5050505050905090565b60606006805480602002602001604051908101604052809291908181526020018280548015610e0357602002820191906000526020600020905b81546001600160a01b03168152600190910190602001808311610e47575050505050905090565b6000610d4b826120b5565b6000610e8583836120e8565b9392505050565b6000610e9781612086565b6003546001600160a01b03808416911603610ec55760405163c23f6ccb60e01b815260040160405180910390fd5b50600380546001600160a01b0319166001600160a01b0392909216919091179055565b60009081526020819052604090206001015490565b610f0860003361187e565b158015610f2a5750610f286000805160206146168339815191523361187e565b155b15610f48576040516326f0f48160e01b815260040160405180910390fd5b8060195403610f6a5760405163c23f6ccb60e01b815260040160405180910390fd5b601955565b6000610d4b826000610f9d565b610f8582610ee8565b610f8e81612086565b610f98838361214f565b505050565b6000610fa8836114bd565b8210610fcf5760405162461bcd60e51b8152600401610fc690613d4c565b60405180910390fd5b506001600160a01b03919091166000908152601060209081526040808320938352929052205490565b6001600160a01b03811633146110205760405162461bcd60e51b8152600401610fc690613da8565b61102a82826121d3565b5050565b600061103981612086565b6016546001600160a01b038084169116036110675760405163c23f6ccb60e01b815260040160405180910390fd5b50601680546001600160a01b0319166001600160a01b0392909216919091179055565b61109560003361187e565b1580156110b757506110b56000805160206146168339815191523361187e565b155b156110d5576040516326f0f48160e01b815260040160405180910390fd5b80601a54036110f75760405163c23f6ccb60e01b815260040160405180910390fd5b601a55565b600061110781612086565b6001546001600160a01b038084169116036111355760405163c23f6ccb60e01b815260040160405180910390fd5b50600180546001600160a01b0319166001600160a01b0392909216919091179055565b6111623382612238565b61117e5760405162461bcd60e51b8152600401610fc690613def565b6111878161225b565b50565b600061119581612086565b6008546001600160a01b03908116908316036111c45760405163c23f6ccb60e01b815260040160405180910390fd5b50600880546001600160a01b0319166001600160a01b0392909216919091179055565b601e5460609060009081908190819081906001600160a01b031661121e57604051636d9e949f60e01b815260040160405180910390fd5b601e546040516346b2b08760e01b81526001600160a01b03909116906346b2b0879061124e908a90600401613784565b600060405180830381865afa15801561126b573d6000803e3d6000fd5b505050506040513d6000823e601f3d908101601f191682016040526112939190810190613e75565b949c939b5091995097509550909350915050565b6112b260003361187e565b1580156112d457506112d26000805160206146168339815191523361187e565b155b156112f2576040516326f0f48160e01b815260040160405180910390fd5b80601854036113145760405163c23f6ccb60e01b815260040160405180910390fd5b601855565b601e546060906001600160a01b031661134557604051636d9e949f60e01b815260040160405180910390fd5b601e546040516346b2b08760e01b81526000916001600160a01b0316906346b2b08790611376908690600401613784565b600060405180830381865afa158015611393573d6000803e3d6000fd5b505050506040513d6000823e601f3d908101601f191682016040526113bb9190810190613e75565b505050925050506113cb81611dff565b9150505b919050565b6000610d4b826122f5565b60006113ea60125490565b82106114085760405162461bcd60e51b8152600401610fc690613f5e565b6012828154811061141b5761141b613f6e565b90600052602060002001549050919050565b601e546000906001600160a01b031661145957604051636d9e949f60e01b815260040160405180910390fd5b611467600086868686611b89565b90505b949350505050565b6000610d4b82612312565b6000610d4b600083611eff565b600061149581612086565b600b5482036114b75760405163c23f6ccb60e01b815260040160405180910390fd5b50600b55565b60006001600160a01b0382166114e55760405162461bcd60e51b8152600401610fc690613fc7565b506001600160a01b03166000908152600f602052604090205490565b600060175460001480156115155750601854155b1561152257506000919050565b6004546001600160a01b03838116911614801561155757506001600160a01b03821660009081526005602052604090205460ff165b801561156557506000601854115b1561157257505060185490565b6003546001600160a01b0383811691161480156115a757506001600160a01b03821660009081526005602052604090205460ff165b156115b457505060175490565b6001600160a01b03821660009081526005602052604090205460ff16156115e157610d4b82601754612347565b81604051630ac29ab760e31b8152600401610fc69190613714565b600061160781612086565b6004546001600160a01b038084169116036116355760405163c23f6ccb60e01b815260040160405180910390fd5b50600480546001600160a01b0319166001600160a01b0392909216919091179055565b601e546040805163776ce6a160e01b815290516060926001600160a01b03169163776ce6a19160048083019260009291908290030181865afa1580156116a2573d6000803e3d6000fd5b505050506040513d6000823e601f3d908101601f191682016040526116ca9190810190613fd7565b905090565b6116da60003361187e565b1580156116fc57506116fa6000805160206146168339815191523361187e565b155b1561171a576040516326f0f48160e01b815260040160405180910390fd5b80601c540361173c5760405163c23f6ccb60e01b815260040160405180910390fd5b601c55565b601e546060906001600160a01b031661176d57604051636d9e949f60e01b815260040160405180910390fd5b601e54604051637e66989160e01b81526001600160a01b0390911690637e6698919061179d90859060040161384f565b600060405180830381865afa1580156117ba573d6000803e3d6000fd5b505050506040513d6000823e601f3d908101601f19168201604052610d4b91908101906140cf565b6117ed60003361187e565b15801561180f575061180d6000805160206146168339815191523361187e565b155b1561182d576040516326f0f48160e01b815260040160405180910390fd5b6007546001600160a01b039081169082160361185c5760405163c23f6ccb60e01b815260040160405180910390fd5b600780546001600160a01b0319166001600160a01b0392909216919091179055565b6000918252602082815260408084206001600160a01b0393909316845291905290205460ff1690565b601e546000906001600160a01b03166118d357604051636d9e949f60e01b815260040160405180910390fd5b601e546040516346b2b08760e01b81526000916001600160a01b0316906346b2b08790611904908690600401613784565b600060405180830381865afa158015611921573d6000803e3d6000fd5b505050506040513d6000823e601f3d908101601f191682016040526119499190810190613e75565b505050925050506113cb81612312565b6060600061196683610f6f565b90506113cb81611dff565b600061197c81612086565b6001600160a01b03821660009081526005602052604090205460ff166119b757816040516318317bd560e01b8152600401610fc69190613714565b6001600160a01b0382166000908152600560205260408120805460ff191690555b600654811015610f9857826001600160a01b0316600682815481106119ff576119ff613f6e565b6000918252602090912001546001600160a01b031603611acb5760068054611a299060019061411f565b81548110611a3957611a39613f6e565b600091825260209091200154600680546001600160a01b039092169183908110611a6557611a65613f6e565b9060005260206000200160006101000a8154816001600160a01b0302191690836001600160a01b031602179055506006805480611aa457611aa4614132565b600082815260209020810160001990810180546001600160a01b0319169055019055505050565b80611ad581614148565b9150506119d8565b6060600d8054610d8a90613cd8565b601e546000906001600160a01b0316611b1857604051636d9e949f60e01b815260040160405180910390fd5b601e54604051634b29835560e11b81526001600160a01b039091169063965306aa90611b48908590600401613784565b602060405180830381865afa158015611b65573d6000803e3d6000fd5b505050506040513d601f19601f82011682018060405250810190610d4b9190614162565b600080611b968787611eff565b601e546040516303dd904360e41b81529192506001600160a01b031690633dd9043090611bcd908990899089908990600401614183565b6020604051808303816000875af1158015611bec573d6000803e3d6000fd5b505050506040513d601f19601f82011682018060405250810190611c1091906141ce565b509695505050505050565b6000611c2681612086565b600a548203611c485760405163c23f6ccb60e01b815260040160405180910390fd5b50600a55565b601e546060906001600160a01b0316611c7a57604051636d9e949f60e01b815260040160405180910390fd5b601e54604051635bcb1b5b60e11b81526001600160a01b039091169063b79636b69061179d908590600401613714565b6016546000906001600160a01b0316611cd657604051630d7fe67b60e41b815260040160405180910390fd5b6000611ce183612312565b60165460405163294cdf0d60e01b81529192506001600160a01b03169063294cdf0d90611d12908490600401613714565b602060405180830381865afa158015611d2f573d6000803e3d6000fd5b505050506040513d601f19601f820116820180604052508101906113cb91906141ce565b6000611d5e81612086565b6001600160a01b03821660009081526005602052604090205460ff1615611d985760405163f411c32760e01b815260040160405180910390fd5b506001600160a01b03166000818152600560205260408120805460ff191660019081179091556006805491820181559091527ff652222313e28459528d920b65115c16c04f3efc82aaedc97be59f3f377c0d3f0180546001600160a01b0319169091179055565b6060611e0a826124dd565b6000611e14612502565b90506000815111611e3457604051806020016040528060008152506113cb565b80611e3e84612511565b604051602001611e4f929190614211565b6040516020818303038152906040529392505050565b611e6e82610ee8565b611e7781612086565b610f9883836121d3565b6000611e8c81612086565b6002546001600160a01b03808416911603611eba5760405163c23f6ccb60e01b815260040160405180910390fd5b50600280546001600160a01b0319166001600160a01b0392909216919091179055565b600080611ee983611501565b915081611ef684846120e8565b91509150915091565b6000611f096125a4565b611f1383836125cd565b9050610d4b6001601d55565b6000611f2a81612086565b6001600160a01b038216611f515760405163d92e233d60e01b815260040160405180910390fd5b601e546001600160a01b03808416911603611f7f5760405163c23f6ccb60e01b815260040160405180910390fd5b50601e80546001600160a01b0319166001600160a01b0392909216919091179055565b611fad60003361187e565b158015611fcf5750611fcd6000805160206146168339815191523361187e565b155b15611fed576040516326f0f48160e01b815260040160405180910390fd5b806017540361200f5760405163c23f6ccb60e01b815260040160405180910390fd5b601755565b61201f60003361187e565b158015612041575061203f6000805160206146168339815191523361187e565b155b1561205f576040516326f0f48160e01b815260040160405180910390fd5b80601b54036120815760405163c23f6ccb60e01b815260040160405180910390fd5b601b55565b6111878133612636565b60006001600160e01b0319821663780e9d6360e01b1480610d4b5750610d4b8261268f565b600b54600090156120e057610d4b60646120da600b54856126cf90919063ffffffff16565b906126db565b506000919050565b600954600090819015612123576003546001600160a01b03908116908516036121145750600954612123565b61212084600954612347565b90505b600a5415610e855761146a61214860646120da600a54876126cf90919063ffffffff16565b82906126e7565b612159828261187e565b61102a576000828152602081815260408083206001600160a01b03851684529091529020805460ff1916600117905561218f3390565b6001600160a01b0316816001600160a01b0316837f2f8788117e7eff1d82e926ec794901d17c78024a50270940304540a733656f0d60405160405180910390a45050565b6121dd828261187e565b1561102a576000828152602081815260408083206001600160a01b0385168085529252808320805460ff1916905551339285917ff6391f5c32d9c69d2a47ea670b442974b53935d1edc7fd64eb21e047a839171b9190a45050565b60008061224483612312565b6001600160a01b0385811691161491505092915050565b600061226682612312565b9050612274816000846126f3565b6001600160a01b0381166000908152600f6020526040812080546001929061229d90849061411f565b90915550506000828152600e602052604080822080546001600160a01b03191690555183916001600160a01b038416917fcc16f5dbb4873280815c1ee09dbd06736cffcc184412cf7a71a0fdb75d397ca59190a35050565b6000908152600e60205260409020546001600160a01b0316151590565b6000818152600e60205260408120546001600160a01b031680610d4b5760405162461bcd60e51b8152600401610fc69061426b565b60008160008111801561236357506001546001600160a01b0316155b156123815760405163fca2174f60e01b815260040160405180910390fd5b60008111801561239a57506002546001600160a01b0316155b156123b85760405163fca2174f60e01b815260040160405180910390fd5b6000811180156123d157506003546001600160a01b0316155b156123ef5760405163fca2174f60e01b815260040160405180910390fd5b60008111801561240857506007546001600160a01b0316155b156124265760405163fca2174f60e01b815260040160405180910390fd5b6001600160a01b03841660009081526005602052604090205460ff16158061245b57506003546001600160a01b038581169116145b1561247b578360405163961c9a4f60e01b8152600401610fc69190613714565b8260000361248c57600091506124d6565b6001600160a01b0384166124be576002546003546124b7916001600160a01b039081169116856126fe565b91506124d6565b6003546124b79085906001600160a01b0316856126fe565b5092915050565b6124e6816122f5565b6111875760405162461bcd60e51b8152600401610fc69061426b565b606060158054610d8a90613cd8565b6060600061251e836127ad565b60010190506000816001600160401b0381111561253d5761253d613902565b6040519080825280601f01601f191660200182016040528015612567576020820181803683370190505b5090508181016020015b600019016f181899199a1a9b1b9c1cb0b131b232b360811b600a86061a8153600a8504945084612571575b509392505050565b6002601d54036125c65760405162461bcd60e51b8152600401610fc6906142c5565b6002601d55565b60006000805160206146368339815191526125e781612086565b60006125f38585612883565b90507f0843ee1fcdab527b7002d046bba3513b0d6f0b9817d6c5588c025420ffe3ba1781856040516126269291906142d5565b60405180910390a1949350505050565b612640828261187e565b61102a5761264d81612967565b612658836020612979565b6040516020016126699291906142f0565b60408051601f198184030181529082905262461bcd60e51b8252610fc691600401613784565b60006001600160e01b031982166313f2a32f60e01b14806126c057506001600160e01b03198216635b5e139f60e01b145b80610d4b5750610d4b82612ae4565b6000610e858284614342565b6000610e85828461435a565b6000610e85828461436e565b610f98838383612b19565b600060608061270d8686612bd1565b6001546040516307c0329d60e21b81529192506001600160a01b031690631f00ca74906127409087908590600401614381565b600060405180830381865afa15801561275d573d6000803e3d6000fd5b505050506040513d6000823e601f3d908101601f191682016040526127859190810190614416565b91508160008151811061279a5761279a613f6e565b6020026020010151925050509392505050565b60008072184f03e93ff9f4daa797ed6e38ed64bf6a1f0160401b83106127ec5772184f03e93ff9f4daa797ed6e38ed64bf6a1f0160401b830492506040015b6904ee2d6d415b85acef8160201b8310612816576904ee2d6d415b85acef8160201b830492506020015b662386f26fc10000831061283457662386f26fc10000830492506010015b6305f5e100831061284c576305f5e100830492506008015b612710831061286057612710830492506004015b60648310612872576064830492506002015b600a8310610d4b5760010192915050565b6000807f00000000000000000000000000000000000000000000000000000000000000001180156128dc57507f00000000000000000000000000000000000000000000000000000000000000006128d9836114bd565b10155b1561291e57817f00000000000000000000000000000000000000000000000000000000000000006040516305dfb04760e01b8152600401610fc6929190614450565b60008061292a85611edd565b91509150612939858383612d26565b600061294460145490565b9050612954601480546001019055565b61295e8582613217565b95945050505050565b6060610d4b6001600160a01b03831660145b60606000612988836002614342565b61299390600261436e565b6001600160401b038111156129aa576129aa613902565b6040519080825280601f01601f1916602001820160405280156129d4576020820181803683370190505b509050600360fc1b816000815181106129ef576129ef613f6e565b60200101906001600160f81b031916908160001a905350600f60fb1b81600181518110612a1e57612a1e613f6e565b60200101906001600160f81b031916908160001a9053506000612a42846002614342565b612a4d90600161436e565b90505b6001811115612ac5576f181899199a1a9b1b9c1cb0b131b232b360811b85600f1660108110612a8157612a81613f6e565b1a60f81b828281518110612a9757612a97613f6e565b60200101906001600160f81b031916908160001a90535060049490941c93612abe8161445e565b9050612a50565b508315610e855760405162461bcd60e51b8152600401610fc6906144a7565b60006001600160e01b03198216637965db0b60e01b1480610d4b57506301ffc9a760e01b6001600160e01b0319831614610d4b565b6001600160a01b038316612b7457612b6f81601280546000838152601360205260408120829055600182018355919091527fbb8a6a4669ba250d26cd7a459eca9d215f8307e33aebe50379bc5a3617ec34440155565b612b97565b816001600160a01b0316836001600160a01b031614612b9757612b9783826132f3565b6001600160a01b038216612bae57610f9881613390565b826001600160a01b0316826001600160a01b031614610f9857610f98828261343f565b6002546060906001600160a01b0384811691161480612bfd57506002546001600160a01b038381169116145b15612c8a576040805160028082526060820183526000926020830190803683370190505090508381600081518110612c3757612c37613f6e565b60200260200101906001600160a01b031690816001600160a01b0316815250508281600181518110612c6b57612c6b613f6e565b6001600160a01b03909216602092830291909101909101529050610d4b565b60408051600380825260808201909252600091602082016060803683370190505090508381600081518110612cc157612cc1613f6e565b6001600160a01b039283166020918202929092010152600254825191169082906001908110612cf257612cf2613f6e565b60200260200101906001600160a01b031690816001600160a01b0316815250508281600281518110612c6b57612c6b613f6e565b612d3082826126e7565b600081118015612d4957506001546001600160a01b0316155b15612d675760405163fca2174f60e01b815260040160405180910390fd5b600081118015612d8057506002546001600160a01b0316155b15612d9e5760405163fca2174f60e01b815260040160405180910390fd5b600081118015612db757506003546001600160a01b0316155b15612dd55760405163fca2174f60e01b815260040160405180910390fd5b600081118015612dee57506007546001600160a01b0316155b15612e0c5760405163fca2174f60e01b815260040160405180910390fd5b82158015612e18575081155b613211576000612e27846120b5565b90506000831180612e385750600081115b8015612e4d57506008546001600160a01b0316155b15612e6b5760405163910af6f560e01b815260040160405180910390fd5b6001600160a01b03851660009081526005602052604090205460ff16612ea65784604051630ac29ab760e31b8152600401610fc69190613714565b6001600160a01b03851661314857612ebe84846126e7565b341015612ee957612ecf84846126e7565b60405163091a6d0f60e01b8152600401610fc6919061384f565b6000612ef58583613483565b1115612f86576007546000906001600160a01b0316612f148684613483565b604051612f20906144b7565b60006040518083038185875af1925050503d8060008114612f5d576040519150601f19603f3d011682016040523d82523d6000602084013e612f62565b606091505b5050905080612f84576040516312171d8360e31b815260040160405180910390fd5b505b8215613010576008546040516000916001600160a01b0316908590612faa906144b7565b60006040518083038185875af1925050503d8060008114612fe7576040519150601f19603f3d011682016040523d82523d6000602084013e612fec565b606091505b505090508061300e576040516312171d8360e31b815260040160405180910390fd5b505b801561309a576008546040516000916001600160a01b0316908390613034906144b7565b60006040518083038185875af1925050503d8060008114613071576040519150601f19603f3d011682016040523d82523d6000602084013e613076565b606091505b5050905080613098576040516312171d8360e31b815260040160405180910390fd5b505b6130a484846126e7565b3411156131435760006130c16130ba86866126e7565b3490613483565b90506000336001600160a01b0316826040516130dc906144b7565b60006040518083038185875af1925050503d8060008114613119576040519150601f19603f3d011682016040523d82523d6000602084013e61311e565b606091505b505090508061314057604051633c31275160e21b815260040160405180910390fd5b50505b6131cc565b60006131548583613483565b1115613188576007546131889033906001600160a01b03166131768785613483565b6001600160a01b03891692919061348f565b82156131aa576008546131aa906001600160a01b03878116913391168661348f565b80156131cc576008546131cc906001600160a01b03878116913391168461348f565b846001600160a01b03167f32c8827c44bf4e71963135be394d95e34ec7302da6f5d8fca5439557863a33f48585604051613207929190613c45565b60405180910390a2505b50505050565b6001600160a01b03821661323d5760405162461bcd60e51b8152600401610fc6906144f6565b613246816122f5565b156132635760405162461bcd60e51b8152600401610fc690614536565b61326f600083836126f3565b6001600160a01b0382166000908152600f6020526040812080546001929061329890849061436e565b90915550506000818152600e602052604080822080546001600160a01b0319166001600160a01b038616908117909155905183927f0f6798a560793a54c3bcfe86a93cde1e73087d944c0ea20544137d412139688591a35050565b60006001613300846114bd565b61330a919061411f565b60008381526011602052604090205490915080821461335d576001600160a01b03841660009081526010602090815260408083208584528252808320548484528184208190558352601190915290208190555b5060009182526011602090815260408084208490556001600160a01b039094168352601081528383209183525290812055565b6012546000906133a29060019061411f565b600083815260136020526040812054601280549394509092849081106133ca576133ca613f6e565b9060005260206000200154905080601283815481106133eb576133eb613f6e565b600091825260208083209091019290925582815260139091526040808220849055858252812055601280548061342357613423614132565b6001900381819060005260206000200160009055905550505050565b600061344a836114bd565b6001600160a01b039093166000908152601060209081526040808320868452825280832085905593825260119052919091209190915550565b6000610e85828461411f565b613211846323b872dd60e01b8585856040516024016134b093929190614546565b60408051601f198184030181529190526020810180516001600160e01b03166001600160e01b0319909316929092179091526000613537826040518060400160405280602081526020017f5361666545524332303a206c6f772d6c6576656c2063616c6c206661696c6564815250856001600160a01b03166135749092919063ffffffff16565b90508051600014806135585750808060200190518101906135589190614162565b610f985760405162461bcd60e51b8152600401610fc6906145b5565b606061146a848460008585600080866001600160a01b0316858760405161359b91906145c5565b60006040518083038185875af1925050503d80600081146135d8576040519150601f19603f3d011682016040523d82523d6000602084013e6135dd565b606091505b50915091506135ee878383876135f9565b979650505050505050565b60608315613638578251600003613631576001600160a01b0385163b6136315760405162461bcd60e51b8152600401610fc690614605565b508161146a565b61146a838381511561364d5781518083602001fd5b8060405162461bcd60e51b8152600401610fc69190613784565b805b811461118757600080fd5b8035610d4b81613667565b60006020828403121561369457613694600080fd5b600061146a8484613674565b6001600160e01b03198116613669565b8035610d4b816136a0565b6000602082840312156136d0576136d0600080fd5b600061146a84846136b0565b8015155b82525050565b60208101610d4b82846136dc565b6001600160a01b031690565b6000610d4b826136f4565b6136e081613700565b60208101610d4b828461370b565b60005b8381101561373d578181015183820152602001613725565b50506000910152565b601f01601f191690565b600061375a825190565b808452602084019350613771818560208601613722565b61377a81613746565b9093019392505050565b60208082528101610e858184613750565b6000610d4b6137a96137a6846136f4565b90565b6136f4565b6000610d4b82613795565b6000610d4b826137ae565b6136e0816137b9565b60208101610d4b82846137c4565b60006137e7838361370b565b505060200190565b60006137f9825190565b80845260209384019383018060005b8381101561382d57815161381c88826137db565b975060208301925050600101613808565b509495945050505050565b60208082528101610e8581846137ef565b806136e0565b60208101610d4b8284613849565b61366981613700565b8035610d4b8161385d565b6000806040838503121561388757613887600080fd5b60006138938585613866565b92505060206138a485828601613674565b9150509250929050565b6000602082840312156138c3576138c3600080fd5b600061146a8484613866565b600080604083850312156138e5576138e5600080fd5b60006138f18585613674565b92505060206138a485828601613866565b634e487b7160e01b600052604160045260246000fd5b61392182613746565b81018181106001600160401b038211171561393e5761393e613902565b6040525050565b600061395060405190565b90506113cf8282613918565b60006001600160401b0382111561397557613975613902565b61397e82613746565b60200192915050565b82818337506000910152565b60006139a66139a18461395c565b613945565b9050828152602081018484840111156139c1576139c1600080fd5b61259c848285613987565b600082601f8301126139e0576139e0600080fd5b813561146a848260208601613993565b600060208284031215613a0557613a05600080fd5b81356001600160401b03811115613a1e57613a1e600080fd5b61146a848285016139cc565b60c08082528101613a3b8189613750565b9050613a4a60208301886136dc565b613a576040830187613849565b613a646060830186613849565b613a716080830185613849565b6135ee60a08301846136dc565b60008060008060808587031215613a9757613a97600080fd5b6000613aa38787613866565b94505060208501356001600160401b03811115613ac257613ac2600080fd5b613ace878288016139cc565b9350506040613adf87828801613674565b92505060608501356001600160401b03811115613afe57613afe600080fd5b613b0a878288016139cc565b91505092959194509250565b6000610e858383613750565b6000613b2c825190565b80845260208401935083602082028501613b468560200190565b8060005b85811015613b7b5784840389528151613b638582613b16565b94506020830160209a909a0199925050600101613b4a565b5091979650505050505050565b60208082528101610e858184613b22565b600080600080600060a08688031215613bb457613bb4600080fd5b6000613bc08888613866565b9550506020613bd188828901613866565b94505060408601356001600160401b03811115613bf057613bf0600080fd5b613bfc888289016139cc565b9350506060613c0d88828901613674565b92505060808601356001600160401b03811115613c2c57613c2c600080fd5b613c38888289016139cc565b9150509295509295909350565b60408101613c538285613849565b610e856020830184613849565b60008060408385031215613c7657613c76600080fd5b60006138f18585613866565b6000610d4b82613700565b61366981613c82565b8035610d4b81613c8d565b600060208284031215613cb657613cb6600080fd5b600061146a8484613c96565b634e487b7160e01b600052602260045260246000fd5b600281046001821680613cec57607f821691505b602082108103613cfe57613cfe613cc2565b50919050565b602881526000602082017f534254456e756d657261626c653a206f776e657220696e646578206f7574206f8152676620626f756e647360c01b602082015291505b5060400190565b60208082528101610d4b81613d04565b602f81526000602082017f416363657373436f6e74726f6c3a2063616e206f6e6c792072656e6f756e636581526e103937b632b9903337b91039b2b63360891b60208201529150613d45565b60208082528101610d4b81613d5c565b601e81526000602082017f5342543a2063616c6c6572206973206e6f7420746f6b656e206f776e65720000815291505b5060200190565b60208082528101610d4b81613db8565b6000613e0d6139a18461395c565b905082815260208101848484011115613e2857613e28600080fd5b61259c848285613722565b600082601f830112613e4757613e47600080fd5b815161146a848260208601613dff565b801515613669565b8051610d4b81613e57565b8051610d4b81613667565b60008060008060008060c08789031215613e9157613e91600080fd5b86516001600160401b03811115613eaa57613eaa600080fd5b613eb689828a01613e33565b9650506020613ec789828a01613e5f565b9550506040613ed889828a01613e6a565b9450506060613ee989828a01613e6a565b9350506080613efa89828a01613e6a565b92505060a0613f0b89828a01613e5f565b9150509295509295509295565b602981526000602082017f534254456e756d657261626c653a20676c6f62616c20696e646578206f7574208152686f6620626f756e647360b81b60208201529150613d45565b60208082528101610d4b81613f18565b634e487b7160e01b600052603260045260246000fd5b602681526000602082017f5342543a2061646472657373207a65726f206973206e6f7420612076616c69648152651037bbb732b960d11b60208201529150613d45565b60208082528101610d4b81613f84565b600060208284031215613fec57613fec600080fd5b81516001600160401b0381111561400557614005600080fd5b61146a84828501613e33565b60006001600160401b0382111561402a5761402a613902565b5060209081020190565b60006140426139a184614011565b8381529050602080820190840283018581111561406157614061600080fd5b835b818110156140a15780516001600160401b0381111561408457614084600080fd5b8086016140918982613e33565b8552505060209283019201614063565b5050509392505050565b600082601f8301126140bf576140bf600080fd5b815161146a848260208601614034565b6000602082840312156140e4576140e4600080fd5b81516001600160401b038111156140fd576140fd600080fd5b61146a848285016140ab565b634e487b7160e01b600052601160045260246000fd5b81810381811115610d4b57610d4b614109565b634e487b7160e01b600052603160045260246000fd5b6000600019820361415b5761415b614109565b5060010190565b60006020828403121561417757614177600080fd5b600061146a8484613e5f565b60808101614191828761370b565b81810360208301526141a38186613750565b90506141b26040830185613849565b81810360608301526141c48184613750565b9695505050505050565b6000602082840312156141e3576141e3600080fd5b600061146a8484613e6a565b60006141f9825190565b614207818560208601613722565b9290920192915050565b600061421d82856141ef565b915061422982846141ef565b64173539b7b760d91b815291506005820161146a565b601581526000602082017414d0950e881a5b9d985b1a59081d1bdad95b881251605a1b81529150613de8565b60208082528101610d4b8161423f565b634e487b7160e01b600052601260045260246000fd5b601f81526000602082017f5265656e7472616e637947756172643a207265656e7472616e742063616c6c0081529150613de8565b60208082528101610d4b81614291565b604081016142e38285613849565b610e85602083018461370b565b76020b1b1b2b9b9a1b7b73a3937b61d1030b1b1b7bab73a1604d1b8152601701600061431c82856141ef565b7001034b99036b4b9b9b4b733903937b6329607d1b8152601101915061146a82846141ef565b8181028082158382048514176124d6576124d6614109565b6000826143695761436961427b565b500490565b80820180821115610d4b57610d4b614109565b6040810161438f8285613849565b818103602083015261146a81846137ef565b60006143af6139a184614011565b838152905060208082019084028301858111156143ce576143ce600080fd5b835b818110156140a157806143e38882613e6a565b845250602092830192016143d0565b600082601f83011261440657614406600080fd5b815161146a8482602086016143a1565b60006020828403121561442b5761442b600080fd5b81516001600160401b0381111561444457614444600080fd5b61146a848285016143f2565b60408101613c53828561370b565b60008161446d5761446d614109565b506000190190565b60208082527f537472696e67733a20686578206c656e67746820696e73756666696369656e7491019081526000613de8565b60208082528101610d4b81614475565b6000610d4b826137a6565b601d81526000602082017f5342543a206d696e7420746f20746865207a65726f206164647265737300000081529150613de8565b60208082528101610d4b816144c2565b601981526000602082017814d0950e881d1bdad95b88185b1c9958591e481b5a5b9d1959603a1b81529150613de8565b60208082528101610d4b81614506565b60608101614554828661370b565b614561602083018561370b565b61146a6040830184613849565b602a81526000602082017f5361666545524332303a204552433230206f7065726174696f6e20646964206e8152691bdd081cdd58d8d9595960b21b60208201529150613d45565b60208082528101610d4b8161456e565b6000610e8582846141ef565b601d81526000602082017f416464726573733a2063616c6c20746f206e6f6e2d636f6e747261637400000081529150613de8565b60208082528101610d4b816145d156fe52eafc11f6f81f86878bffd31109a0d92f37506527754f00788853ff9f63b1309f2df0fed2c77648de5860a4cc508cd0818c85b8b8a1ab4ceeef8d981c8956a6a264697066735822122014ef0cafa65d89fe9eae21b3e45ffc18660e09b91a60d3196f08770c9e6bf7a764736f6c63430008120033",
  "devdoc": {
    "author": "Masa Finance",
    "details": "Soulbound identity, that inherits from the SBT contract.",
    "events": {
      "Burn(address,uint256)": {
        "details": "This emits when an SBT is burned  This event emits when SBTs are destroyed"
      },
      "Mint(address,uint256)": {
        "details": "This emits when an SBT is newly minted.  This event emits when SBTs are created"
      },
      "RoleAdminChanged(bytes32,bytes32,bytes32)": {
        "details": "Emitted when `newAdminRole` is set as ``role``'s admin role, replacing `previousAdminRole` `DEFAULT_ADMIN_ROLE` is the starting admin for all roles, despite {RoleAdminChanged} not being emitted signaling this. _Available since v3.1._"
      },
      "RoleGranted(bytes32,address,address)": {
        "details": "Emitted when `account` is granted `role`. `sender` is the account that originated the contract call, an admin role bearer except when using {AccessControl-_setupRole}."
      },
      "RoleRevoked(bytes32,address,address)": {
        "details": "Emitted when `account` is revoked `role`. `sender` is the account that originated the contract call:   - if using `revokeRole`, it is the admin role bearer   - if using `renounceRole`, it is the role bearer (i.e. `account`)"
      }
    },
    "kind": "dev",
    "methods": {
      "balanceOf(address)": {
        "details": "See {ISBT-balanceOf}."
      },
      "burn(uint256)": {
        "details": "Burns `tokenId`. See {SBT-_burn}. Requirements: - The caller must own `tokenId` or be an approved operator."
      },
      "constructor": {
        "details": "Creates a new soulbound identity, inheriting from the SBT contract.",
        "params": {
          "admin": "Administrator of the smart contract",
          "baseTokenURI": "Base URI of the token",
          "name": "Name of the token",
          "paymentParams": "Payment gateway params",
          "symbol": "Symbol of the token"
        }
      },
      "disablePaymentMethod(address)": {
        "details": "The caller must have the admin role to call this function",
        "params": {
          "_paymentMethod": "Token to remove"
        }
      },
      "enablePaymentMethod(address)": {
        "details": "The caller must have the admin role to call this function",
        "params": {
          "_paymentMethod": "New token to add"
        }
      },
      "exists(uint256)": {
        "details": "Returns true if the token has been minted",
        "params": {
          "tokenId": "Token to check"
        },
        "returns": {
          "_0": "True if the token exists"
        }
      },
      "getEnabledPaymentMethods()": {
        "details": "Returns the address of all available payment methods",
        "returns": {
          "_0": "Array of all enabled payment methods"
        }
      },
      "getExtension()": {
        "details": "This function returns the extension of the soul name",
        "returns": {
          "_0": "Extension of the soul name"
        }
      },
      "getIdentityId(uint256)": {
        "params": {
          "tokenId": "Id of the token"
        },
        "returns": {
          "_0": "Id of the identity"
        }
      },
      "getMintPrice(address)": {
        "details": "Returns current pricing for minting",
        "params": {
          "paymentMethod": "Address of token that user want to pay"
        },
        "returns": {
          "price": "Current price for minting in the given payment method"
        }
      },
      "getMintPriceWithProtocolFee(address)": {
        "details": "Returns current pricing for minting with protocol fee",
        "params": {
          "paymentMethod": "Address of token that user want to pay"
        },
        "returns": {
          "price": "Current price for minting in the given payment method",
          "protocolFee": "Current protocol fee for minting in the given payment method"
        }
      },
      "getProtocolFee(address,uint256)": {
        "details": "This method will calculate the protocol fee based on the payment method",
        "params": {
          "amount": "Price to be paid in the specified payment method",
          "paymentMethod": "Address of token that user want to pay"
        }
      },
      "getProtocolFeeSub(uint256)": {
        "details": "This method will calculate the protocol fee based on the payment method",
        "params": {
          "amount": "Price to be paid in the specified payment method"
        }
      },
      "getRoleAdmin(bytes32)": {
        "details": "Returns the admin role that controls `role`. See {grantRole} and {revokeRole}. To change a role's admin, use {_setRoleAdmin}."
      },
      "getSoulName()": {
        "details": "This function returns the address of the SoulName contract linked to this identity",
        "returns": {
          "_0": "Address of the SoulName contract"
        }
      },
      "getSoulNames(address)": {
        "details": "This function queries all the identity names of the specified account",
        "params": {
          "owner": "Address of the owner of the identities"
        },
        "returns": {
          "sbtNames": "Array of soul names associated to the account"
        }
      },
      "getSoulNames(uint256)": {
        "details": "This function queries all the identity names of the specified identity Id",
        "params": {
          "tokenId": "TokenId of the identity"
        },
        "returns": {
          "sbtNames": "Array of soul names associated to the identity Id"
        }
      },
      "getTokenData(string)": {
        "details": "This function queries the information of a soul name",
        "params": {
          "name": "Name of the soul name"
        },
        "returns": {
          "active": "`true` if the soul name is active, `false` otherwise",
          "expirationDate": "Expiration date of the soul name",
          "identityId": "Identity id of the soul name",
          "linked": "`true` if the soul name is linked, `false` otherwise",
          "sbtName": "Soul name, in upper/lower case and extension",
          "tokenId": "SoulName id of the soul name"
        }
      },
      "grantRole(bytes32,address)": {
        "details": "Grants `role` to `account`. If `account` had not been already granted `role`, emits a {RoleGranted} event. Requirements: - the caller must have ``role``'s admin role. May emit a {RoleGranted} event."
      },
      "hasRole(bytes32,address)": {
        "details": "Returns `true` if `account` has been granted `role`."
      },
      "isAvailable(string)": {
        "details": "This function queries if a soul name already exists and is in the available state",
        "params": {
          "name": "Name of the soul name"
        },
        "returns": {
          "available": "`true` if the soul name is available, `false` otherwise"
        }
      },
      "mint(address)": {
        "details": "The caller must have the MINTER role",
        "params": {
          "to": "The address to mint the SBT to"
        },
        "returns": {
          "_0": "The SBT ID of the newly minted SBT"
        }
      },
      "mint(address,address)": {
        "details": "The caller must have the MINTER role",
        "params": {
          "paymentMethod": "Address of token that user want to pay",
          "to": "The address to mint the SBT to"
        },
        "returns": {
          "_0": "The SBT ID of the newly minted SBT"
        }
      },
      "mintIdentityWithName(address,address,string,uint256,string)": {
        "details": "The caller can only mint one identity per address, and the name must be unique",
        "params": {
          "_tokenURI": "URI of the NFT",
          "name": "Name of the new identity",
          "paymentMethod": "Address of the payment method to use",
          "to": "Address of the owner of the new identity",
          "yearsPeriod": "Years of validity of the name"
        }
      },
      "mintIdentityWithName(address,string,uint256,string)": {
        "details": "The caller can only mint one identity per address, and the name must be unique",
        "params": {
          "_tokenURI": "URI of the NFT",
          "name": "Name of the new identity",
          "to": "Address of the owner of the new identity",
          "yearsPeriod": "Years of validity of the name"
        }
      },
      "name()": {
        "details": "See {ISBTMetadata-name}."
      },
      "ownerOf(string)": {
        "details": "This function returns the owner address of the soul name identity specified by the name",
        "params": {
          "name": "Name of the soul name"
        },
        "returns": {
          "_0": "Address of the owner of the identity"
        }
      },
      "ownerOf(uint256)": {
        "details": "This function returns the owner address of the identity specified by the tokenId",
        "params": {
          "tokenId": "TokenId of the identity"
        },
        "returns": {
          "_0": "Address of the owner of the identity"
        }
      },
      "renounceRole(bytes32,address)": {
        "details": "Revokes `role` from the calling account. Roles are often managed via {grantRole} and {revokeRole}: this function's purpose is to provide a mechanism for accounts to lose their privileges if they are compromised (such as when a trusted device is misplaced). If the calling account had been revoked `role`, emits a {RoleRevoked} event. Requirements: - the caller must be `account`. May emit a {RoleRevoked} event."
      },
      "revokeRole(bytes32,address)": {
        "details": "Revokes `role` from `account`. If `account` had been granted `role`, emits a {RoleRevoked} event. Requirements: - the caller must have ``role``'s admin role. May emit a {RoleRevoked} event."
      },
      "setAddLinkPrice(uint256)": {
        "details": "The caller must have the admin or project admin role to call this function",
        "params": {
          "_addLinkPrice": "New price for adding the link in SoulLinker in stable coin"
        }
      },
      "setAddLinkPriceMASA(uint256)": {
        "details": "The caller must have the admin or project admin role to call this function",
        "params": {
          "_addLinkPriceMASA": "New price for adding the link in SoulLinker in MASA"
        }
      },
      "setMasaToken(address)": {
        "details": "The caller must have the admin role to call this function It can be set to address(0) to disable paying in MASA",
        "params": {
          "_masaToken": "New utility token to pay the fee in"
        }
      },
      "setMintPrice(uint256)": {
        "details": "The caller must have the admin or project admin role to call this function",
        "params": {
          "_mintPrice": "New price of minting in stable coin"
        }
      },
      "setMintPriceMASA(uint256)": {
        "details": "The caller must have the admin or project admin role to call this function",
        "params": {
          "_mintPriceMASA": "New price of minting in MASA"
        }
      },
      "setProjectFeeReceiver(address)": {
        "details": "The caller must have the admin or project admin role to call this function",
        "params": {
          "_projectFeeReceiver": "New project fee receiver wallet"
        }
      },
      "setProtocolFeeAmount(uint256)": {
        "details": "The caller must have the admin role to call this function",
        "params": {
          "_protocolFeeAmount": "New protocol fee amount"
        }
      },
      "setProtocolFeePercent(uint256)": {
        "details": "The caller must have the admin role to call this function",
        "params": {
          "_protocolFeePercent": "New protocol fee percent added to the project fee"
        }
      },
      "setProtocolFeePercentSub(uint256)": {
        "details": "The caller must have the admin role to call this function",
        "params": {
          "_protocolFeePercentSub": "New protocol fee percent substracted from the amount"
        }
      },
      "setProtocolFeeReceiver(address)": {
        "details": "The caller must have the admin role to call this function",
        "params": {
          "_protocolFeeReceiver": "New protocol fee wallet"
        }
      },
      "setQueryLinkPrice(uint256)": {
        "details": "The caller must have the admin or project admin role to call this function",
        "params": {
          "_queryLinkPrice": "New price for reading data in SoulLinker in stable coin"
        }
      },
      "setQueryLinkPriceMASA(uint256)": {
        "details": "The caller must have the admin or project admin role to call this function",
        "params": {
          "_queryLinkPriceMASA": "New price for reading data in SoulLinker in MASA"
        }
      },
      "setSoulName(address)": {
        "details": "The caller must have the admin role to call this function",
        "params": {
          "_soulName": "Address of the SoulName contract"
        }
      },
      "setSoulboundIdentity(address)": {
        "details": "The caller must be the admin to call this function",
        "params": {
          "_soulboundIdentity": "Address of the SoulboundIdentity contract"
        }
      },
      "setStableCoin(address)": {
        "details": "The caller must have the admin role to call this function",
        "params": {
          "_stableCoin": "New stable coin to pay the fee in"
        }
      },
      "setSwapRouter(address)": {
        "details": "The caller must have the admin role to call this function",
        "params": {
          "_swapRouter": "New swap router address"
        }
      },
      "setWrappedNativeToken(address)": {
        "details": "The caller must have the admin role to call this function",
        "params": {
          "_wrappedNativeToken": "New wrapped native token address"
        }
      },
      "supportsInterface(bytes4)": {
        "details": "Interface identification is specified in ERC-165.",
        "params": {
          "interfaceId": "The interface identifier, as specified in ERC-165"
        },
        "returns": {
          "_0": "`true` if the contract implements `interfaceId` and  `interfaceId` is not 0xffffffff, `false` otherwise"
        }
      },
      "symbol()": {
        "details": "See {ISBTMetadata-symbol}."
      },
      "tokenByIndex(uint256)": {
        "details": "See {ISBTEnumerable-tokenByIndex}."
      },
      "tokenOfOwner(address)": {
        "details": "This function returns the tokenId of the identity owned by an account",
        "params": {
          "owner": "Address of the owner of the identity"
        },
        "returns": {
          "_0": "TokenId of the identity owned by the account"
        }
      },
      "tokenOfOwnerByIndex(address,uint256)": {
        "details": "See {ISBTEnumerable-tokenOfOwnerByIndex}."
      },
      "tokenURI(address)": {
        "details": "This function returns the token URI of the identity owned by an account",
        "params": {
          "owner": "Address of the owner of the identity"
        },
        "returns": {
          "_0": "URI of the identity owned by the account"
        }
      },
      "tokenURI(string)": {
        "details": "This function returns the token URI of the soul name identity specified by the name",
        "params": {
          "name": "Name of the soul name"
        },
        "returns": {
          "_0": "URI of the identity associated to a soul name"
        }
      },
      "tokenURI(uint256)": {
        "details": "Throws if `_tokenId` is not a valid SBT. URIs are defined in RFC  3986. The URI may point to a JSON file that conforms to the \"ERC721  Metadata JSON Schema\".",
        "params": {
          "tokenId": "SBT to get the URI of"
        },
        "returns": {
          "_0": "URI of the SBT"
        }
      },
      "totalSupply()": {
        "details": "See {ISBTEnumerable-totalSupply}."
      }
    },
    "title": "Soulbound Identity",
    "version": 1
  },
  "userdoc": {
    "kind": "user",
    "methods": {
      "constructor": {
        "notice": "Creates a new soulbound identity"
      },
      "disablePaymentMethod(address)": {
        "notice": "Removes a token as a valid payment method"
      },
      "enablePaymentMethod(address)": {
        "notice": "Adds a new token as a valid payment method"
      },
      "exists(uint256)": {
        "notice": "Returns true if the token exists"
      },
      "getEnabledPaymentMethods()": {
        "notice": "Returns all available payment methods"
      },
      "getExtension()": {
        "notice": "Returns the extension of the soul name"
      },
      "getIdentityId(uint256)": {
        "notice": "Returns the identityId owned by the given token"
      },
      "getMintPrice(address)": {
        "notice": "Returns the price for minting"
      },
      "getMintPriceWithProtocolFee(address)": {
        "notice": "Returns the price for minting with protocol fee"
      },
      "getProtocolFee(address,uint256)": {
        "notice": "Calculates the protocol fee added to the project fee"
      },
      "getProtocolFeeSub(uint256)": {
        "notice": "Calculates the protocol fee substracted from the amount"
      },
      "getSoulName()": {
        "notice": "Returns the address of the SoulName contract linked to this identity"
      },
      "getSoulNames(address)": {
        "notice": "Returns all the active soul names of an account"
      },
      "getSoulNames(uint256)": {
        "notice": "Returns all the active soul names of an account"
      },
      "getTokenData(string)": {
        "notice": "Returns the information of a soul name"
      },
      "isAvailable(string)": {
        "notice": "Checks if a soul name is available"
      },
      "mint(address)": {
        "notice": "Mints a new SBT"
      },
      "mint(address,address)": {
        "notice": "Mints a new SBT"
      },
      "mintIdentityWithName(address,address,string,uint256,string)": {
        "notice": "Mints a new soulbound identity with a SoulName associated to it"
      },
      "mintIdentityWithName(address,string,uint256,string)": {
        "notice": "Mints a new soulbound identity with a SoulName associated to it"
      },
      "ownerOf(string)": {
        "notice": "Returns the owner address of a soul name"
      },
      "ownerOf(uint256)": {
        "notice": "Returns the owner address of an identity"
      },
      "setAddLinkPrice(uint256)": {
        "notice": "Sets the price for adding the link in SoulLinker in stable coin"
      },
      "setAddLinkPriceMASA(uint256)": {
        "notice": "Sets the price for adding the link in SoulLinker in MASA"
      },
      "setMasaToken(address)": {
        "notice": "Sets the utility token to pay the fee in (MASA)"
      },
      "setMintPrice(uint256)": {
        "notice": "Sets the price of minting in stable coin"
      },
      "setMintPriceMASA(uint256)": {
        "notice": "Sets the price of minting in MASA"
      },
      "setProjectFeeReceiver(address)": {
        "notice": "Set the project fee receiver wallet"
      },
      "setProtocolFeeAmount(uint256)": {
        "notice": "Set the protocol fee amount"
      },
      "setProtocolFeePercent(uint256)": {
        "notice": "Set the protocol fee percent added to the project fee"
      },
      "setProtocolFeePercentSub(uint256)": {
        "notice": "Set the protocol fee percent substracted from the amount"
      },
      "setProtocolFeeReceiver(address)": {
        "notice": "Set the protocol fee wallet"
      },
      "setQueryLinkPrice(uint256)": {
        "notice": "Sets the price for reading data in SoulLinker in stable coin"
      },
      "setQueryLinkPriceMASA(uint256)": {
        "notice": "Sets the price for reading data in SoulLinker in MASA"
      },
      "setSoulName(address)": {
        "notice": "Sets the SoulName contract address linked to this identity"
      },
      "setSoulboundIdentity(address)": {
        "notice": "Sets the SoulboundIdentity contract address linked to this SBT"
      },
      "setStableCoin(address)": {
        "notice": "Sets the stable coin to pay the fee in (USDC)"
      },
      "setSwapRouter(address)": {
        "notice": "Sets the swap router address"
      },
      "setWrappedNativeToken(address)": {
        "notice": "Sets the wrapped native token address"
      },
      "supportsInterface(bytes4)": {
        "notice": "Query if a contract implements an interface"
      },
      "tokenOfOwner(address)": {
        "notice": "Returns the identity id of an account"
      },
      "tokenURI(address)": {
        "notice": "Returns the URI of the owner of an identity"
      },
      "tokenURI(string)": {
        "notice": "Returns the URI of a soul name"
      },
      "tokenURI(uint256)": {
        "notice": "A distinct Uniform Resource Identifier (URI) for a given asset."
      }
    },
    "notice": "Soulbound token that represents an identity.",
    "version": 1
  },
  "storageLayout": {
    "storage": [
      {
        "astId": 24,
        "contract": "contracts/SoulboundIdentity.sol:SoulboundIdentity",
        "label": "_roles",
        "offset": 0,
        "slot": "0",
        "type": "t_mapping(t_bytes32,t_struct(RoleData)19_storage)"
      },
      {
        "astId": 10581,
        "contract": "contracts/SoulboundIdentity.sol:SoulboundIdentity",
        "label": "swapRouter",
        "offset": 0,
        "slot": "1",
        "type": "t_address"
      },
      {
        "astId": 10583,
        "contract": "contracts/SoulboundIdentity.sol:SoulboundIdentity",
        "label": "wrappedNativeToken",
        "offset": 0,
        "slot": "2",
        "type": "t_address"
      },
      {
        "astId": 10585,
        "contract": "contracts/SoulboundIdentity.sol:SoulboundIdentity",
        "label": "stableCoin",
        "offset": 0,
        "slot": "3",
        "type": "t_address"
      },
      {
        "astId": 10587,
        "contract": "contracts/SoulboundIdentity.sol:SoulboundIdentity",
        "label": "masaToken",
        "offset": 0,
        "slot": "4",
        "type": "t_address"
      },
      {
        "astId": 10591,
        "contract": "contracts/SoulboundIdentity.sol:SoulboundIdentity",
        "label": "enabledPaymentMethod",
        "offset": 0,
        "slot": "5",
        "type": "t_mapping(t_address,t_bool)"
      },
      {
        "astId": 10594,
        "contract": "contracts/SoulboundIdentity.sol:SoulboundIdentity",
        "label": "enabledPaymentMethods",
        "offset": 0,
        "slot": "6",
        "type": "t_array(t_address)dyn_storage"
      },
      {
        "astId": 10596,
        "contract": "contracts/SoulboundIdentity.sol:SoulboundIdentity",
        "label": "projectFeeReceiver",
        "offset": 0,
        "slot": "7",
        "type": "t_address"
      },
      {
        "astId": 10598,
        "contract": "contracts/SoulboundIdentity.sol:SoulboundIdentity",
        "label": "protocolFeeReceiver",
        "offset": 0,
        "slot": "8",
        "type": "t_address"
      },
      {
        "astId": 10600,
        "contract": "contracts/SoulboundIdentity.sol:SoulboundIdentity",
        "label": "protocolFeeAmount",
        "offset": 0,
        "slot": "9",
        "type": "t_uint256"
      },
      {
        "astId": 10602,
        "contract": "contracts/SoulboundIdentity.sol:SoulboundIdentity",
        "label": "protocolFeePercent",
        "offset": 0,
        "slot": "10",
        "type": "t_uint256"
      },
      {
        "astId": 10604,
        "contract": "contracts/SoulboundIdentity.sol:SoulboundIdentity",
        "label": "protocolFeePercentSub",
        "offset": 0,
        "slot": "11",
        "type": "t_uint256"
      },
      {
        "astId": 27713,
        "contract": "contracts/SoulboundIdentity.sol:SoulboundIdentity",
        "label": "_name",
        "offset": 0,
        "slot": "12",
        "type": "t_string_storage"
      },
      {
        "astId": 27715,
        "contract": "contracts/SoulboundIdentity.sol:SoulboundIdentity",
        "label": "_symbol",
        "offset": 0,
        "slot": "13",
        "type": "t_string_storage"
      },
      {
        "astId": 27719,
        "contract": "contracts/SoulboundIdentity.sol:SoulboundIdentity",
        "label": "_owners",
        "offset": 0,
        "slot": "14",
        "type": "t_mapping(t_uint256,t_address)"
      },
      {
        "astId": 27723,
        "contract": "contracts/SoulboundIdentity.sol:SoulboundIdentity",
        "label": "_balances",
        "offset": 0,
        "slot": "15",
        "type": "t_mapping(t_address,t_uint256)"
      },
      {
        "astId": 28182,
        "contract": "contracts/SoulboundIdentity.sol:SoulboundIdentity",
        "label": "_ownedTokens",
        "offset": 0,
        "slot": "16",
        "type": "t_mapping(t_address,t_mapping(t_uint256,t_uint256))"
      },
      {
        "astId": 28186,
        "contract": "contracts/SoulboundIdentity.sol:SoulboundIdentity",
        "label": "_ownedTokensIndex",
        "offset": 0,
        "slot": "17",
        "type": "t_mapping(t_uint256,t_uint256)"
      },
      {
        "astId": 28189,
        "contract": "contracts/SoulboundIdentity.sol:SoulboundIdentity",
        "label": "_allTokens",
        "offset": 0,
        "slot": "18",
        "type": "t_array(t_uint256)dyn_storage"
      },
      {
        "astId": 28193,
        "contract": "contracts/SoulboundIdentity.sol:SoulboundIdentity",
        "label": "_allTokensIndex",
        "offset": 0,
        "slot": "19",
        "type": "t_mapping(t_uint256,t_uint256)"
      },
      {
        "astId": 26054,
        "contract": "contracts/SoulboundIdentity.sol:SoulboundIdentity",
        "label": "_tokenIdCounter",
        "offset": 0,
        "slot": "20",
        "type": "t_struct(Counter)3058_storage"
      },
      {
        "astId": 26056,
        "contract": "contracts/SoulboundIdentity.sol:SoulboundIdentity",
        "label": "_baseTokenURI",
        "offset": 0,
        "slot": "21",
        "type": "t_string_storage"
      },
      {
        "astId": 26061,
        "contract": "contracts/SoulboundIdentity.sol:SoulboundIdentity",
        "label": "soulboundIdentity",
        "offset": 0,
        "slot": "22",
        "type": "t_contract(ISoulboundIdentity)11748"
      },
      {
        "astId": 26063,
        "contract": "contracts/SoulboundIdentity.sol:SoulboundIdentity",
        "label": "mintPrice",
        "offset": 0,
        "slot": "23",
        "type": "t_uint256"
      },
      {
        "astId": 26065,
        "contract": "contracts/SoulboundIdentity.sol:SoulboundIdentity",
        "label": "mintPriceMASA",
        "offset": 0,
        "slot": "24",
        "type": "t_uint256"
      },
      {
        "astId": 26068,
        "contract": "contracts/SoulboundIdentity.sol:SoulboundIdentity",
        "label": "addLinkPrice",
        "offset": 0,
        "slot": "25",
        "type": "t_uint256"
      },
      {
        "astId": 26071,
        "contract": "contracts/SoulboundIdentity.sol:SoulboundIdentity",
        "label": "addLinkPriceMASA",
        "offset": 0,
        "slot": "26",
        "type": "t_uint256"
      },
      {
        "astId": 26074,
        "contract": "contracts/SoulboundIdentity.sol:SoulboundIdentity",
        "label": "queryLinkPrice",
        "offset": 0,
        "slot": "27",
        "type": "t_uint256"
      },
      {
        "astId": 26077,
        "contract": "contracts/SoulboundIdentity.sol:SoulboundIdentity",
        "label": "queryLinkPriceMASA",
        "offset": 0,
        "slot": "28",
        "type": "t_uint256"
      },
      {
        "astId": 645,
        "contract": "contracts/SoulboundIdentity.sol:SoulboundIdentity",
        "label": "_status",
        "offset": 0,
        "slot": "29",
        "type": "t_uint256"
      },
      {
        "astId": 10157,
        "contract": "contracts/SoulboundIdentity.sol:SoulboundIdentity",
        "label": "soulName",
        "offset": 0,
        "slot": "30",
        "type": "t_contract(ISoulName)11684"
      }
    ],
    "types": {
      "t_address": {
        "encoding": "inplace",
        "label": "address",
        "numberOfBytes": "20"
      },
      "t_array(t_address)dyn_storage": {
        "base": "t_address",
        "encoding": "dynamic_array",
        "label": "address[]",
        "numberOfBytes": "32"
      },
      "t_array(t_uint256)dyn_storage": {
        "base": "t_uint256",
        "encoding": "dynamic_array",
        "label": "uint256[]",
        "numberOfBytes": "32"
      },
      "t_bool": {
        "encoding": "inplace",
        "label": "bool",
        "numberOfBytes": "1"
      },
      "t_bytes32": {
        "encoding": "inplace",
        "label": "bytes32",
        "numberOfBytes": "32"
      },
      "t_contract(ISoulName)11684": {
        "encoding": "inplace",
        "label": "contract ISoulName",
        "numberOfBytes": "20"
      },
      "t_contract(ISoulboundIdentity)11748": {
        "encoding": "inplace",
        "label": "contract ISoulboundIdentity",
        "numberOfBytes": "20"
      },
      "t_mapping(t_address,t_bool)": {
        "encoding": "mapping",
        "key": "t_address",
        "label": "mapping(address => bool)",
        "numberOfBytes": "32",
        "value": "t_bool"
      },
      "t_mapping(t_address,t_mapping(t_uint256,t_uint256))": {
        "encoding": "mapping",
        "key": "t_address",
        "label": "mapping(address => mapping(uint256 => uint256))",
        "numberOfBytes": "32",
        "value": "t_mapping(t_uint256,t_uint256)"
      },
      "t_mapping(t_address,t_uint256)": {
        "encoding": "mapping",
        "key": "t_address",
        "label": "mapping(address => uint256)",
        "numberOfBytes": "32",
        "value": "t_uint256"
      },
      "t_mapping(t_bytes32,t_struct(RoleData)19_storage)": {
        "encoding": "mapping",
        "key": "t_bytes32",
        "label": "mapping(bytes32 => struct AccessControl.RoleData)",
        "numberOfBytes": "32",
        "value": "t_struct(RoleData)19_storage"
      },
      "t_mapping(t_uint256,t_address)": {
        "encoding": "mapping",
        "key": "t_uint256",
        "label": "mapping(uint256 => address)",
        "numberOfBytes": "32",
        "value": "t_address"
      },
      "t_mapping(t_uint256,t_uint256)": {
        "encoding": "mapping",
        "key": "t_uint256",
        "label": "mapping(uint256 => uint256)",
        "numberOfBytes": "32",
        "value": "t_uint256"
      },
      "t_string_storage": {
        "encoding": "bytes",
        "label": "string",
        "numberOfBytes": "32"
      },
      "t_struct(Counter)3058_storage": {
        "encoding": "inplace",
        "label": "struct Counters.Counter",
        "members": [
          {
            "astId": 3057,
            "contract": "contracts/SoulboundIdentity.sol:SoulboundIdentity",
            "label": "_value",
            "offset": 0,
            "slot": "0",
            "type": "t_uint256"
          }
        ],
        "numberOfBytes": "32"
      },
      "t_struct(RoleData)19_storage": {
        "encoding": "inplace",
        "label": "struct AccessControl.RoleData",
        "members": [
          {
            "astId": 16,
            "contract": "contracts/SoulboundIdentity.sol:SoulboundIdentity",
            "label": "members",
            "offset": 0,
            "slot": "0",
            "type": "t_mapping(t_address,t_bool)"
          },
          {
            "astId": 18,
            "contract": "contracts/SoulboundIdentity.sol:SoulboundIdentity",
            "label": "adminRole",
            "offset": 0,
            "slot": "1",
            "type": "t_bytes32"
          }
        ],
        "numberOfBytes": "64"
      },
      "t_uint256": {
        "encoding": "inplace",
        "label": "uint256",
        "numberOfBytes": "32"
      }
    }
  }
}