{
  "address": "0x486085dBC5ec794E640AFe81767Bf603Fb1a25A5",
  "abi": [
    {
      "inputs": [
        {
          "internalType": "address",
          "name": "admin",
          "type": "address"
        },
        {
          "internalType": "contract ISoulboundIdentity",
          "name": "_soulBoundIdentity",
          "type": "address"
        },
        {
          "internalType": "uint256",
          "name": "_nameRegistrationPricePerYear",
          "type": "uint256"
        },
        {
          "components": [
            {
              "internalType": "address",
              "name": "swapRouter",
              "type": "address"
            },
            {
              "internalType": "address",
              "name": "wrappedNativeToken",
              "type": "address"
            },
            {
              "internalType": "address",
              "name": "stableCoin",
              "type": "address"
            },
            {
              "internalType": "address",
              "name": "masaToken",
              "type": "address"
            },
            {
              "internalType": "address",
              "name": "reserveWallet",
              "type": "address"
            }
          ],
          "internalType": "struct PaymentGateway.PaymentParams",
          "name": "paymentParams",
          "type": "tuple"
        }
      ],
      "stateMutability": "nonpayable",
      "type": "constructor"
    },
    {
      "inputs": [],
      "name": "AlreadyAdded",
      "type": "error"
    },
    {
      "inputs": [
        {
          "internalType": "address",
          "name": "authority",
          "type": "address"
        }
      ],
      "name": "AuthorityNotExists",
      "type": "error"
    },
    {
      "inputs": [
        {
          "internalType": "uint256",
          "name": "amount",
          "type": "uint256"
        }
      ],
      "name": "InsufficientEthAmount",
      "type": "error"
    },
    {
      "inputs": [
        {
          "internalType": "address",
          "name": "paymentMethod",
          "type": "address"
        }
      ],
      "name": "InvalidPaymentMethod",
      "type": "error"
    },
    {
      "inputs": [],
      "name": "InvalidSignature",
      "type": "error"
    },
    {
      "inputs": [
        {
          "internalType": "address",
          "name": "token",
          "type": "address"
        }
      ],
      "name": "InvalidToken",
      "type": "error"
    },
    {
      "inputs": [
        {
          "internalType": "address",
          "name": "erc20token",
          "type": "address"
        }
      ],
      "name": "NonExistingErc20Token",
      "type": "error"
    },
    {
      "inputs": [
        {
          "internalType": "address",
          "name": "signer",
          "type": "address"
        }
      ],
      "name": "NotAuthorized",
      "type": "error"
    },
    {
      "inputs": [],
      "name": "RefundFailed",
      "type": "error"
    },
    {
      "inputs": [],
      "name": "SameValue",
      "type": "error"
    },
    {
      "inputs": [],
      "name": "TransferFailed",
      "type": "error"
    },
    {
      "inputs": [],
      "name": "ZeroAddress",
      "type": "error"
    },
    {
      "anonymous": false,
      "inputs": [
        {
          "indexed": false,
          "internalType": "address",
          "name": "account",
          "type": "address"
        }
      ],
      "name": "Paused",
      "type": "event"
    },
    {
      "anonymous": false,
      "inputs": [
        {
          "indexed": true,
          "internalType": "bytes32",
          "name": "role",
          "type": "bytes32"
        },
        {
          "indexed": true,
          "internalType": "bytes32",
          "name": "previousAdminRole",
          "type": "bytes32"
        },
        {
          "indexed": true,
          "internalType": "bytes32",
          "name": "newAdminRole",
          "type": "bytes32"
        }
      ],
      "name": "RoleAdminChanged",
      "type": "event"
    },
    {
      "anonymous": false,
      "inputs": [
        {
          "indexed": true,
          "internalType": "bytes32",
          "name": "role",
          "type": "bytes32"
        },
        {
          "indexed": true,
          "internalType": "address",
          "name": "account",
          "type": "address"
        },
        {
          "indexed": true,
          "internalType": "address",
          "name": "sender",
          "type": "address"
        }
      ],
      "name": "RoleGranted",
      "type": "event"
    },
    {
      "anonymous": false,
      "inputs": [
        {
          "indexed": true,
          "internalType": "bytes32",
          "name": "role",
          "type": "bytes32"
        },
        {
          "indexed": true,
          "internalType": "address",
          "name": "account",
          "type": "address"
        },
        {
          "indexed": true,
          "internalType": "address",
          "name": "sender",
          "type": "address"
        }
      ],
      "name": "RoleRevoked",
      "type": "event"
    },
    {
      "anonymous": false,
      "inputs": [
        {
          "indexed": true,
          "internalType": "address",
          "name": "account",
          "type": "address"
        },
        {
          "indexed": false,
          "internalType": "uint256",
          "name": "tokenId",
          "type": "uint256"
        },
        {
          "indexed": true,
          "internalType": "string",
          "name": "name",
          "type": "string"
        },
        {
          "indexed": false,
          "internalType": "uint256",
          "name": "yearsPeriod",
          "type": "uint256"
        }
      ],
      "name": "SoulNamePurchased",
      "type": "event"
    },
    {
      "anonymous": false,
      "inputs": [
        {
          "indexed": true,
          "internalType": "address",
          "name": "account",
          "type": "address"
        },
        {
          "indexed": false,
          "internalType": "uint256",
          "name": "tokenId",
          "type": "uint256"
        },
        {
          "indexed": true,
          "internalType": "string",
          "name": "name",
          "type": "string"
        },
        {
          "indexed": false,
          "internalType": "uint256",
          "name": "yearsPeriod",
          "type": "uint256"
        }
      ],
      "name": "SoulboundIdentityAndNamePurchased",
      "type": "event"
    },
    {
      "anonymous": false,
      "inputs": [
        {
          "indexed": true,
          "internalType": "address",
          "name": "account",
          "type": "address"
        },
        {
          "indexed": false,
          "internalType": "uint256",
          "name": "tokenId",
          "type": "uint256"
        }
      ],
      "name": "SoulboundIdentityPurchased",
      "type": "event"
    },
    {
      "anonymous": false,
      "inputs": [
        {
          "indexed": false,
          "internalType": "address",
          "name": "account",
          "type": "address"
        }
      ],
      "name": "Unpaused",
      "type": "event"
    },
    {
      "inputs": [],
      "name": "DEFAULT_ADMIN_ROLE",
      "outputs": [
        {
          "internalType": "bytes32",
          "name": "",
          "type": "bytes32"
        }
      ],
      "stateMutability": "view",
      "type": "function"
    },
    {
      "inputs": [
        {
          "internalType": "address",
          "name": "_authority",
          "type": "address"
        }
      ],
      "name": "addAuthority",
      "outputs": [],
      "stateMutability": "nonpayable",
      "type": "function"
    },
    {
      "inputs": [
        {
          "internalType": "address",
          "name": "",
          "type": "address"
        }
      ],
      "name": "authorities",
      "outputs": [
        {
          "internalType": "bool",
          "name": "",
          "type": "bool"
        }
      ],
      "stateMutability": "view",
      "type": "function"
    },
    {
      "inputs": [
        {
          "internalType": "address",
          "name": "_paymentMethod",
          "type": "address"
        }
      ],
      "name": "disablePaymentMethod",
      "outputs": [],
      "stateMutability": "nonpayable",
      "type": "function"
    },
    {
      "inputs": [
        {
          "internalType": "address",
          "name": "_paymentMethod",
          "type": "address"
        }
      ],
      "name": "enablePaymentMethod",
      "outputs": [],
      "stateMutability": "nonpayable",
      "type": "function"
    },
    {
      "inputs": [
        {
          "internalType": "address",
          "name": "",
          "type": "address"
        }
      ],
      "name": "enabledPaymentMethod",
      "outputs": [
        {
          "internalType": "bool",
          "name": "",
          "type": "bool"
        }
      ],
      "stateMutability": "view",
      "type": "function"
    },
    {
      "inputs": [
        {
          "internalType": "uint256",
          "name": "",
          "type": "uint256"
        }
      ],
      "name": "enabledPaymentMethods",
      "outputs": [
        {
          "internalType": "address",
          "name": "",
          "type": "address"
        }
      ],
      "stateMutability": "view",
      "type": "function"
    },
    {
      "inputs": [],
      "name": "getEnabledPaymentMethods",
      "outputs": [
        {
          "internalType": "address[]",
          "name": "",
          "type": "address[]"
        }
      ],
      "stateMutability": "view",
      "type": "function"
    },
    {
      "inputs": [
        {
          "internalType": "uint256",
          "name": "nameLength",
          "type": "uint256"
        }
      ],
      "name": "getNameRegistrationPricePerYear",
      "outputs": [
        {
          "internalType": "uint256",
          "name": "",
          "type": "uint256"
        }
      ],
      "stateMutability": "view",
      "type": "function"
    },
    {
      "inputs": [
        {
          "internalType": "address",
          "name": "paymentMethod",
          "type": "address"
        },
        {
          "internalType": "uint256",
          "name": "nameLength",
          "type": "uint256"
        },
        {
          "internalType": "uint256",
          "name": "yearsPeriod",
          "type": "uint256"
        }
      ],
      "name": "getPriceForMintingName",
      "outputs": [
        {
          "internalType": "uint256",
          "name": "",
          "type": "uint256"
        }
      ],
      "stateMutability": "view",
      "type": "function"
    },
    {
      "inputs": [
        {
          "internalType": "bytes32",
          "name": "role",
          "type": "bytes32"
        }
      ],
      "name": "getRoleAdmin",
      "outputs": [
        {
          "internalType": "bytes32",
          "name": "",
          "type": "bytes32"
        }
      ],
      "stateMutability": "view",
      "type": "function"
    },
    {
      "inputs": [
        {
          "internalType": "bytes32",
          "name": "role",
          "type": "bytes32"
        },
        {
          "internalType": "address",
          "name": "account",
          "type": "address"
        }
      ],
      "name": "grantRole",
      "outputs": [],
      "stateMutability": "nonpayable",
      "type": "function"
    },
    {
      "inputs": [
        {
          "internalType": "bytes32",
          "name": "role",
          "type": "bytes32"
        },
        {
          "internalType": "address",
          "name": "account",
          "type": "address"
        }
      ],
      "name": "hasRole",
      "outputs": [
        {
          "internalType": "bool",
          "name": "",
          "type": "bool"
        }
      ],
      "stateMutability": "view",
      "type": "function"
    },
    {
      "inputs": [],
      "name": "masaToken",
      "outputs": [
        {
          "internalType": "address",
          "name": "",
          "type": "address"
        }
      ],
      "stateMutability": "view",
      "type": "function"
    },
    {
      "inputs": [
        {
          "internalType": "uint256",
          "name": "",
          "type": "uint256"
        }
      ],
      "name": "nameRegistrationPricePerYear",
      "outputs": [
        {
          "internalType": "uint256",
          "name": "",
          "type": "uint256"
        }
      ],
      "stateMutability": "view",
      "type": "function"
    },
    {
      "inputs": [],
      "name": "pause",
      "outputs": [],
      "stateMutability": "nonpayable",
      "type": "function"
    },
    {
      "inputs": [],
      "name": "paused",
      "outputs": [
        {
          "internalType": "bool",
          "name": "",
          "type": "bool"
        }
      ],
      "stateMutability": "view",
      "type": "function"
    },
    {
      "inputs": [],
      "name": "purchaseIdentity",
      "outputs": [
        {
          "internalType": "uint256",
          "name": "",
          "type": "uint256"
        }
      ],
      "stateMutability": "nonpayable",
      "type": "function"
    },
    {
      "inputs": [
        {
          "internalType": "address",
          "name": "paymentMethod",
          "type": "address"
        },
        {
          "internalType": "string",
          "name": "name",
          "type": "string"
        },
        {
          "internalType": "uint256",
          "name": "nameLength",
          "type": "uint256"
        },
        {
          "internalType": "uint256",
          "name": "yearsPeriod",
          "type": "uint256"
        },
        {
          "internalType": "string",
          "name": "tokenURI",
          "type": "string"
        },
        {
          "internalType": "address",
          "name": "authorityAddress",
          "type": "address"
        },
        {
          "internalType": "bytes",
          "name": "signature",
          "type": "bytes"
        }
      ],
      "name": "purchaseIdentityAndName",
      "outputs": [
        {
          "internalType": "uint256",
          "name": "",
          "type": "uint256"
        }
      ],
      "stateMutability": "payable",
      "type": "function"
    },
    {
      "inputs": [
        {
          "internalType": "address",
          "name": "paymentMethod",
          "type": "address"
        },
        {
          "internalType": "address",
          "name": "to",
          "type": "address"
        },
        {
          "internalType": "string",
          "name": "name",
          "type": "string"
        },
        {
          "internalType": "uint256",
          "name": "nameLength",
          "type": "uint256"
        },
        {
          "internalType": "uint256",
          "name": "yearsPeriod",
          "type": "uint256"
        },
        {
          "internalType": "string",
          "name": "tokenURI",
          "type": "string"
        },
        {
          "internalType": "address",
          "name": "authorityAddress",
          "type": "address"
        },
        {
          "internalType": "bytes",
          "name": "signature",
          "type": "bytes"
        }
      ],
      "name": "purchaseName",
      "outputs": [
        {
          "internalType": "uint256",
          "name": "",
          "type": "uint256"
        }
      ],
      "stateMutability": "payable",
      "type": "function"
    },
    {
      "inputs": [
        {
          "internalType": "address",
          "name": "_authority",
          "type": "address"
        }
      ],
      "name": "removeAuthority",
      "outputs": [],
      "stateMutability": "nonpayable",
      "type": "function"
    },
    {
      "inputs": [
        {
          "internalType": "bytes32",
          "name": "role",
          "type": "bytes32"
        },
        {
          "internalType": "address",
          "name": "account",
          "type": "address"
        }
      ],
      "name": "renounceRole",
      "outputs": [],
      "stateMutability": "nonpayable",
      "type": "function"
    },
    {
      "inputs": [],
      "name": "reserveWallet",
      "outputs": [
        {
          "internalType": "address",
          "name": "",
          "type": "address"
        }
      ],
      "stateMutability": "view",
      "type": "function"
    },
    {
      "inputs": [
        {
          "internalType": "bytes32",
          "name": "role",
          "type": "bytes32"
        },
        {
          "internalType": "address",
          "name": "account",
          "type": "address"
        }
      ],
      "name": "revokeRole",
      "outputs": [],
      "stateMutability": "nonpayable",
      "type": "function"
    },
    {
      "inputs": [
        {
          "internalType": "address",
          "name": "_masaToken",
          "type": "address"
        }
      ],
      "name": "setMasaToken",
      "outputs": [],
      "stateMutability": "nonpayable",
      "type": "function"
    },
    {
      "inputs": [
        {
          "internalType": "uint256",
          "name": "_nameLength",
          "type": "uint256"
        },
        {
          "internalType": "uint256",
          "name": "_nameRegistrationPricePerYear",
          "type": "uint256"
        }
      ],
      "name": "setNameRegistrationPricePerYear",
      "outputs": [],
      "stateMutability": "nonpayable",
      "type": "function"
    },
    {
      "inputs": [
        {
          "internalType": "address",
          "name": "_reserveWallet",
          "type": "address"
        }
      ],
      "name": "setReserveWallet",
      "outputs": [],
      "stateMutability": "nonpayable",
      "type": "function"
    },
    {
      "inputs": [
        {
          "internalType": "contract ISoulboundIdentity",
          "name": "_soulboundIdentity",
          "type": "address"
        }
      ],
      "name": "setSoulboundIdentity",
      "outputs": [],
      "stateMutability": "nonpayable",
      "type": "function"
    },
    {
      "inputs": [
        {
          "internalType": "address",
          "name": "_stableCoin",
          "type": "address"
        }
      ],
      "name": "setStableCoin",
      "outputs": [],
      "stateMutability": "nonpayable",
      "type": "function"
    },
    {
      "inputs": [
        {
          "internalType": "address",
          "name": "_swapRouter",
          "type": "address"
        }
      ],
      "name": "setSwapRouter",
      "outputs": [],
      "stateMutability": "nonpayable",
      "type": "function"
    },
    {
      "inputs": [
        {
          "internalType": "address",
          "name": "_wrappedNativeToken",
          "type": "address"
        }
      ],
      "name": "setWrappedNativeToken",
      "outputs": [],
      "stateMutability": "nonpayable",
      "type": "function"
    },
    {
      "inputs": [],
      "name": "soulboundIdentity",
      "outputs": [
        {
          "internalType": "contract ISoulboundIdentity",
          "name": "",
          "type": "address"
        }
      ],
      "stateMutability": "view",
      "type": "function"
    },
    {
      "inputs": [],
      "name": "stableCoin",
      "outputs": [
        {
          "internalType": "address",
          "name": "",
          "type": "address"
        }
      ],
      "stateMutability": "view",
      "type": "function"
    },
    {
      "inputs": [
        {
          "internalType": "bytes4",
          "name": "interfaceId",
          "type": "bytes4"
        }
      ],
      "name": "supportsInterface",
      "outputs": [
        {
          "internalType": "bool",
          "name": "",
          "type": "bool"
        }
      ],
      "stateMutability": "view",
      "type": "function"
    },
    {
      "inputs": [],
      "name": "swapRouter",
      "outputs": [
        {
          "internalType": "address",
          "name": "",
          "type": "address"
        }
      ],
      "stateMutability": "view",
      "type": "function"
    },
    {
      "inputs": [],
      "name": "unpause",
      "outputs": [],
      "stateMutability": "nonpayable",
      "type": "function"
    },
    {
      "inputs": [],
      "name": "wrappedNativeToken",
      "outputs": [
        {
          "internalType": "address",
          "name": "",
          "type": "address"
        }
      ],
      "stateMutability": "view",
      "type": "function"
    }
  ],
  "transactionHash": "0x6bfecd5af797a1175b0dff959f801a97c54dade3ac6b78a90dd5c6783ec655bc",
  "args": [
    "0xA38dd237a3A8D50537B74a4B0D4E7E8A5359386F",
    "0x78A660183257C4699a57a2D85a7Cf49b4DA75A6E",
    "10000000",
    [
      "0xD99D1c33F9fC3444f8101754aBC46c52416550D1",
      "0xae13d989daC2f0dEbFf460aC112a837C89BAa7cd",
      "0x64544969ed7EBf5f083679233325356EbE738930",
      "0xEC5dCb5Dbf4B114C9d0F65BcCAb49EC54F6A0867",
      "0xA38dd237a3A8D50537B74a4B0D4E7E8A5359386F"
    ]
  ],
  "numDeployments": 1,
  "solcInputHash": "8691f678d5656fa2149432894459082e",
  "bytecode": "0x6101406040523480156200001257600080fd5b506040516200379338038062003793833981016040819052620000359162000446565b60405180604001604052806009815260200168536f756c53746f726560b81b815250604051806040016040528060058152602001640312e302e360dc1b815250858360006001600160a01b031681600001516001600160a01b03161415620000b05760405163d92e233d60e01b815260040160405180910390fd5b60208101516001600160a01b0316620000dc5760405163d92e233d60e01b815260040160405180910390fd5b60408101516001600160a01b0316620001085760405163d92e233d60e01b815260040160405180910390fd5b60808101516001600160a01b0316620001345760405163d92e233d60e01b815260040160405180910390fd5b620001416000836200029b565b8051600180546001600160a01b03199081166001600160a01b0393841617825560208085015160028054841691861691909117905560408501516003805484169186169190911790556060850151600480549093169085161790915560809093015160078054919093166001600160a81b03199091161790915560085583518482012083519184019190912060e08290526101008190524660a0529091507f8b73c3c69bb8fe3d512ecc4cf759cc79239f7b179b0ffacaa9a75d522b39400f6200020d81848462000324565b6080523060601b60c05261012052505050506001600160a01b038316620002475760405163d92e233d60e01b815260040160405180910390fd5b50600980546001600160a01b0319166001600160a01b03939093169290921790915560008052600a6020527f13da86008ba1c6922daee3e07db95305ef49ebced9f5467a0b8613fcc6b343e35550620005d2565b620002a7828262000360565b62000320576000828152602081815260408083206001600160a01b03851684529091529020805460ff19166001179055620002df3390565b6001600160a01b0316816001600160a01b0316837f2f8788117e7eff1d82e926ec794901d17c78024a50270940304540a733656f0d60405160405180910390a45b5050565b6000838383463060405160200162000341959493929190620004cd565b6040516020818303038152906040528051906020012090509392505050565b6000828152602081815260408083206001600160a01b038516845290915290205460ff165b92915050565b80516200038581620005a6565b80516200038581620005c0565b600060a08284031215620003bc57620003bc600080fd5b620003c860a062000523565b90506000620003d884846200038b565b8252506020620003eb848483016200038b565b602083015250604062000401848285016200038b565b604083015250606062000417848285016200038b565b60608301525060806200042d848285016200038b565b60808301525092915050565b80516200038581620005cb565b6000806000806101008587031215620004625762000462600080fd5b60006200047087876200038b565b9450506020620004838782880162000398565b9350506040620004968782880162000439565b9250506060620004a987828801620003a5565b91505092959194509250565b620004c08162000542565b82525050565b80620004c0565b60a08101620004dd8288620004c6565b620004ec6020830187620004c6565b620004fb6040830186620004c6565b6200050a6060830185620004c6565b620005196080830184620004b5565b9695505050505050565b60006200052f60405190565b90506200053d828262000561565b919050565b60006001600160a01b03821662000385565b6000620003858262000542565b601f19601f83011681018181106001600160401b038211171562000589576200058962000590565b6040525050565b634e487b7160e01b600052604160045260246000fd5b620005b18162000542565b8114620005bd57600080fd5b50565b620005b18162000554565b80620005b1565b60805160a05160c05160601c60e051610100516101205161316e620006256000396000611f3601526000611f7801526000611f5701526000611ebb01526000611ee501526000611f0f015261316e6000f3fe6080604052600436106101aa5760003560e01c806301ffc9a7146101af5780630513c3e9146101e5578063102005191461021257806312553e411461023457806317fcb39b1461025657806323af4e1714610276578063248a9ca31461029857806326defa73146102b85780632f2ff15d146102d857806336568abe146102f85780633ad3033e146103185780633f4ba83a14610338578063412736571461034d5780634e273d211461036d5780635a3946751461038d5780635c975abb146103a057806374a99f8b146103b557806376ad1997146103d557806377bed5ed146103f55780637a0d1646146104225780638456cb591461045257806390ce84161461046757806391223d691461048757806391d14854146104b757806394a665e9146104d7578063992642e5146104f7578063a217fddf14610517578063c31c9c071461052c578063c86aadb61461054c578063d544e0101461056c578063d547741f1461058c578063d72b11bd146105ac578063da058ae3146105cc578063dda4fa8f146105ec578063eaf94aec1461060c578063ebda439614610639578063f615283a14610659575b600080fd5b3480156101bb57600080fd5b506101cf6101ca3660046127a8565b61066c565b6040516101dc9190612d09565b60405180910390f35b3480156101f157600080fd5b5061020561020036600461274a565b6106a3565b6040516101dc9190612c81565b34801561021e57600080fd5b506102276106cd565b6040516101dc9190612cf8565b34801561024057600080fd5b5061024961072f565b6040516101dc9190612d17565b34801561026257600080fd5b50600254610205906001600160a01b031681565b34801561028257600080fd5b50610296610291366004612488565b61077d565b005b3480156102a457600080fd5b506102496102b336600461274a565b610801565b3480156102c457600080fd5b506102966102d3366004612488565b610816565b3480156102e457600080fd5b506102966102f336600461276b565b6108a7565b34801561030457600080fd5b5061029661031336600461276b565b6108c8565b34801561032457600080fd5b506102966103333660046127ea565b6108fe565b34801561034457600080fd5b50610296610982565b34801561035957600080fd5b50610296610368366004612488565b610998565b34801561037957600080fd5b5061024961038836600461274a565b610a1c565b61024961039b3660046124a9565b610a61565b3480156103ac57600080fd5b506101cf610aca565b3480156103c157600080fd5b506102966103d036600461282c565b610ada565b3480156103e157600080fd5b506102966103f0366004612488565b610b27565b34801561040157600080fd5b50600954610415906001600160a01b031681565b6040516101dc9190612df5565b34801561042e57600080fd5b506101cf61043d366004612488565b60056020526000908152604090205460ff1681565b34801561045e57600080fd5b50610296610b84565b34801561047357600080fd5b5061024961048236600461269f565b610b97565b34801561049357600080fd5b506101cf6104a2366004612488565b600b6020526000908152604090205460ff1681565b3480156104c357600080fd5b506101cf6104d236600461276b565b610c56565b3480156104e357600080fd5b506102966104f2366004612488565b610c7f565b34801561050357600080fd5b50600354610205906001600160a01b031681565b34801561052357600080fd5b50610249600081565b34801561053857600080fd5b50600154610205906001600160a01b031681565b34801561055857600080fd5b50610296610567366004612488565b610dec565b34801561057857600080fd5b50610296610587366004612488565b610e98565b34801561059857600080fd5b506102966105a736600461276b565b610f27565b3480156105b857600080fd5b50600754610205906001600160a01b031681565b3480156105d857600080fd5b506102966105e7366004612488565b610f43565b3480156105f857600080fd5b50610296610607366004612488565b610fc7565b34801561061857600080fd5b5061024961062736600461274a565b600a6020526000908152604090205481565b34801561064557600080fd5b50600454610205906001600160a01b031681565b6102496106673660046125ae565b61104b565b60006001600160e01b03198216637965db0b60e01b148061069d57506301ffc9a760e01b6001600160e01b03198316145b92915050565b600681815481106106b357600080fd5b6000918252602090912001546001600160a01b0316905081565b6060600680548060200260200160405190810160405280929190818152602001828054801561072557602002820191906000526020600020905b81546001600160a01b03168152600190910190602001808311610707575b5050505050905090565b60006107396110ae565b600260085414156107655760405162461bcd60e51b815260040161075c90612eb4565b60405180910390fd5b6002600855610773336110d5565b9050600160085590565b6000610788816111a5565b6001600160a01b0382166107af5760405163d92e233d60e01b815260040160405180910390fd5b6003546001600160a01b03838116911614156107de5760405163c23f6ccb60e01b815260040160405180910390fd5b50600380546001600160a01b0319166001600160a01b0392909216919091179055565b60009081526020819052604090206001015490565b6000610821816111a5565b6001600160a01b0382166108485760405163d92e233d60e01b815260040160405180910390fd5b6001600160a01b0382166000908152600b602052604090205460ff16156108825760405163f411c32760e01b815260040160405180910390fd5b506001600160a01b03166000908152600b60205260409020805460ff19166001179055565b6108b082610801565b6108b9816111a5565b6108c383836111af565b505050565b6001600160a01b03811633146108f05760405162461bcd60e51b815260040161075c90612ec4565b6108fa8282611233565b5050565b6000610909816111a5565b6001600160a01b0382166109305760405163d92e233d60e01b815260040160405180910390fd5b6009546001600160a01b038381169116141561095f5760405163c23f6ccb60e01b815260040160405180910390fd5b50600980546001600160a01b0319166001600160a01b0392909216919091179055565b600061098d816111a5565b610995611298565b50565b60006109a3816111a5565b6001600160a01b0382166109ca5760405163d92e233d60e01b815260040160405180910390fd5b6001546001600160a01b03838116911614156109f95760405163c23f6ccb60e01b815260040160405180910390fd5b50600180546001600160a01b0319166001600160a01b0392909216919091179055565b6000818152600a60205260408120548061069d5750506000805250600a6020527f13da86008ba1c6922daee3e07db95305ef49ebced9f5467a0b8613fcc6b343e35490565b6000610a6b6110ae565b60026008541415610a8e5760405162461bcd60e51b815260040161075c90612eb4565b6002600855610aa78a610aa2818a8a610b97565b6112e7565b610ab78989898989898989611493565b60016008559a9950505050505050505050565b600754600160a01b900460ff1690565b6000610ae5816111a5565b6000838152600a6020526040902054821415610b145760405163c23f6ccb60e01b815260040160405180910390fd5b506000918252600a602052604090912055565b6000610b32816111a5565b6004546001600160a01b0383811691161415610b615760405163c23f6ccb60e01b815260040160405180910390fd5b50600480546001600160a01b0319166001600160a01b0392909216919091179055565b6000610b8f816111a5565b610995611651565b600080610bad83610ba786610a1c565b90611694565b905080610bbe576000915050610c4f565b6003546001600160a01b038681169116148015610bf357506001600160a01b03851660009081526005602052604090205460ff165b15610bff579050610c4f565b6001600160a01b03851660009081526005602052604090205460ff1615610c3257610c2a85826116a0565b915050610c4f565b84604051630ac29ab760e31b815260040161075c9190612c81565b505b9392505050565b6000918252602082815260408084206001600160a01b0393909316845291905290205460ff1690565b6000610c8a816111a5565b6001600160a01b03821660009081526005602052604090205460ff16610cc557816040516318317bd560e01b815260040161075c9190612c81565b6001600160a01b0382166000908152600560205260408120805460ff191690555b6006548110156108c357826001600160a01b031660068281548110610d0d57610d0d6130c7565b6000918252602090912001546001600160a01b03161415610dda5760068054610d3890600190612fb0565b81548110610d4857610d486130c7565b600091825260209091200154600680546001600160a01b039092169183908110610d7457610d746130c7565b9060005260206000200160006101000a8154816001600160a01b0302191690836001600160a01b031602179055506006805480610db357610db36130b1565b600082815260209020810160001990810180546001600160a01b0319169055019055505050565b80610de48161306a565b915050610ce6565b6000610df7816111a5565b6001600160a01b03821660009081526005602052604090205460ff1615610e315760405163f411c32760e01b815260040160405180910390fd5b506001600160a01b03166000818152600560205260408120805460ff191660019081179091556006805491820181559091527ff652222313e28459528d920b65115c16c04f3efc82aaedc97be59f3f377c0d3f0180546001600160a01b0319169091179055565b6000610ea3816111a5565b6001600160a01b038216610eca5760405163d92e233d60e01b815260040160405180910390fd5b6001600160a01b0382166000908152600b602052604090205460ff16610f0557816040516324b1f80560e21b815260040161075c9190612c81565b506001600160a01b03166000908152600b60205260409020805460ff19169055565b610f3082610801565b610f39816111a5565b6108c38383611233565b6000610f4e816111a5565b6001600160a01b038216610f755760405163d92e233d60e01b815260040160405180910390fd5b6002546001600160a01b0383811691161415610fa45760405163c23f6ccb60e01b815260040160405180910390fd5b50600280546001600160a01b0319166001600160a01b0392909216919091179055565b6000610fd2816111a5565b6001600160a01b038216610ff95760405163d92e233d60e01b815260040160405180910390fd5b6007546001600160a01b03838116911614156110285760405163c23f6ccb60e01b815260040160405180910390fd5b50600780546001600160a01b0319166001600160a01b0392909216919091179055565b60006110556110ae565b600260085414156110785760405162461bcd60e51b815260040161075c90612eb4565b600260085561108c89610aa2818a8a610b97565b61109c338989898989898961173f565b60016008559998505050505050505050565b6110b6610aca565b156110d35760405162461bcd60e51b815260040161075c90612e74565b565b6009546040516335313c2160e11b815260009182916001600160a01b0390911690636a6278429061110a908690600401612c81565b602060405180830381600087803b15801561112457600080fd5b505af1158015611138573d6000803e3d6000fd5b505050506040513d601f19601f8201168201806040525081019061115c919061280b565b9050826001600160a01b03167fe6fdadff80ae44015b9aa37d4edb70f70a8db7535a0df98de6dc5ffd11ec0c2f826040516111979190612d17565b60405180910390a292915050565b6109958133611842565b6111b98282610c56565b6108fa576000828152602081815260408083206001600160a01b03851684529091529020805460ff191660011790556111ef3390565b6001600160a01b0316816001600160a01b0316837f2f8788117e7eff1d82e926ec794901d17c78024a50270940304540a733656f0d60405160405180910390a45050565b61123d8282610c56565b156108fa576000828152602081815260408083206001600160a01b0385168085529252808320805460ff1916905551339285917ff6391f5c32d9c69d2a47ea670b442974b53935d1edc7fd64eb21e047a839171b9190a45050565b6112a06118a6565b6007805460ff60a01b191690557f5db9ee0a495bf2e6ff9c91a7834c1ba4fdd244a5e8aa4e537bd38aeae4b073aa335b6040516112dd9190612c81565b60405180910390a1565b806112f0575050565b6001600160a01b03821660009081526005602052604090205460ff1661132b5781604051630ac29ab760e31b815260040161075c9190612c81565b6001600160a01b038216611477578034101561135c578060405163091a6d0f60e01b815260040161075c9190612d17565b6007546040516000916001600160a01b031690839061137a90612c27565b60006040518083038185875af1925050503d80600081146113b7576040519150601f19603f3d011682016040523d82523d6000602084013e6113bc565b606091505b50509050806113de576040516312171d8360e31b815260040160405180910390fd5b813411156108c35760006113f234846118ca565b9050336001600160a01b03168160405161140b90612c27565b60006040518083038185875af1925050503d8060008114611448576040519150601f19603f3d011682016040523d82523d6000602084013e61144d565b606091505b5050809250508161147157604051633c31275160e21b815260040160405180910390fd5b50505050565b6007546108fa906001600160a01b0384811691339116846118d6565b60006114e36114a58a8a8a8a8a61192e565b84848080601f0160208091040260200160405190810160405280939291908181526020018383808284376000920191909152508992506119a3915050565b6009546040805163b507d48160e01b815290516000926001600160a01b03169163b507d481916004808301926020929190829003018186803b15801561152857600080fd5b505afa15801561153c573d6000803e3d6000fd5b505050506040513d601f19601f8201168201806040525081019061156091906127c9565b90506000816001600160a01b0316633dd904308c8c8b8b6040518563ffffffff1660e01b81526004016115969493929190612cb7565b602060405180830381600087803b1580156115b057600080fd5b505af11580156115c4573d6000803e3d6000fd5b505050506040513d601f19601f820116820180604052508101906115e8919061280b565b9050896040516115f89190612bea565b60405180910390208b6001600160a01b03167f32044e50415e96c0068a718b8df9993f4803b2e54518d56c52ef6438a91619aa838b60405161163b929190612ef4565b60405180910390a39a9950505050505050505050565b6116596110ae565b6007805460ff60a01b1916600160a01b1790557f62e78cea01bee320cd4e420270b5ea74000d11b0c9f74754ebdbfc544b05a2586112d03390565b6000610c4f8284612f91565b6001600160a01b03821660009081526005602052604081205460ff1615806116d557506003546001600160a01b038481169116145b156116f5578260405163961c9a4f60e01b815260040161075c9190612c81565b6001600160a01b03831661172757600254600354611720916001600160a01b03908116911684611a1e565b905061069d565b6003546117209084906001600160a01b031684611a1e565b60006117516114a58a8a8a8a8a61192e565b6009546040516328a0a29f60e11b81526000916001600160a01b031690635141453e90611788908d908d908c908c90600401612cb7565b602060405180830381600087803b1580156117a257600080fd5b505af11580156117b6573d6000803e3d6000fd5b505050506040513d601f19601f820116820180604052508101906117da919061280b565b9050886040516117ea9190612bea565b60405180910390208a6001600160a01b03167f60579b770d8bde9b5f57c468ffb4acb023252b190304137b45b86b72f66a1940838a60405161182d929190612ef4565b60405180910390a39998505050505050505050565b61184c8282610c56565b6108fa57611864816001600160a01b03166014611adc565b61186f836020611adc565b604051602001611880929190612c2f565b60408051601f198184030181529082905262461bcd60e51b825261075c91600401612e03565b6118ae610aca565b6110d35760405162461bcd60e51b815260040161075c90612e34565b6000610c4f8284612fb0565b611471846323b872dd60e01b8585856040516024016118f793929190612c8f565b60408051601f198184030181529190526020810180516001600160e01b03166001600160e01b031990931692909217909152611c47565b60006119977f7503a77cf463259868f167e5b04bb93b908e722f1d532d8a0635f83ea802a2c18787805190602001208787878051906020012060405160200161197c96959493929190612d25565b60405160208183030381529060405280519060200120611cd6565b90505b95945050505050565b60006119af8484611ce9565b9050816001600160a01b0316816001600160a01b0316146119e357604051638baa579f60e01b815260040160405180910390fd5b6001600160a01b0381166000908152600b602052604090205460ff166114715780604051634a0bfec160e01b815260040161075c9190612c81565b6000606080611a2d8686611d05565b6001546040516307c0329d60e21b81529192506001600160a01b031690631f00ca7490611a609087908590600401612ed4565b60006040518083038186803b158015611a7857600080fd5b505afa158015611a8c573d6000803e3d6000fd5b505050506040513d6000823e601f3d908101601f19168201604052611ab491908101906126ef565b915081600081518110611ac957611ac96130c7565b6020026020010151925050509392505050565b60606000611aeb836002612f91565b611af6906002612f79565b6001600160401b03811115611b0d57611b0d6130dd565b6040519080825280601f01601f191660200182016040528015611b37576020820181803683370190505b509050600360fc1b81600081518110611b5257611b526130c7565b60200101906001600160f81b031916908160001a905350600f60fb1b81600181518110611b8157611b816130c7565b60200101906001600160f81b031916908160001a9053506000611ba5846002612f91565b611bb0906001612f79565b90505b6001811115611c28576f181899199a1a9b1b9c1cb0b131b232b360811b85600f1660108110611be457611be46130c7565b1a60f81b828281518110611bfa57611bfa6130c7565b60200101906001600160f81b031916908160001a90535060049490941c93611c2181613026565b9050611bb3565b508315610c4f5760405162461bcd60e51b815260040161075c90612e24565b6000611c9c826040518060400160405280602081526020017f5361666545524332303a206c6f772d6c6576656c2063616c6c206661696c6564815250856001600160a01b0316611e979092919063ffffffff16565b8051909150156108c35780806020019051810190611cba9190612729565b6108c35760405162461bcd60e51b815260040161075c90612ea4565b600061069d611ce3611eae565b83611fa1565b6000806000611cf88585611fd4565b91509150610c4d8161201a565b6002546060906001600160a01b0384811691161480611d3157506002546001600160a01b038381169116145b15611dfb57604080516002808252606082018352600092602083019080368337019050506002549091506001600160a01b03858116911614611d735783611d80565b6002546001600160a01b03165b81600081518110611d9357611d936130c7565b6001600160a01b039283166020918202929092010152600254848216911614611dbc5782611dc9565b6002546001600160a01b03165b81600181518110611ddc57611ddc6130c7565b6001600160a01b0390921660209283029190910190910152905061069d565b60408051600380825260808201909252600091602082016060803683370190505090508381600081518110611e3257611e326130c7565b6001600160a01b039283166020918202929092010152600254825191169082906001908110611e6357611e636130c7565b60200260200101906001600160a01b031690816001600160a01b0316815250508281600281518110611ddc57611ddc6130c7565b6060611ea684846000856120ff565b949350505050565b6000306001600160a01b037f000000000000000000000000000000000000000000000000000000000000000016148015611f0757507f000000000000000000000000000000000000000000000000000000000000000046145b15611f3157507f000000000000000000000000000000000000000000000000000000000000000090565b611f9c7f00000000000000000000000000000000000000000000000000000000000000007f00000000000000000000000000000000000000000000000000000000000000007f00000000000000000000000000000000000000000000000000000000000000006121c1565b905090565b60008282604051602001611fb6929190612bf6565b60405160208183030381529060405280519060200120905092915050565b60008082516041141561200b5760208301516040840151606085015160001a611fff878285856121fb565b94509450505050612013565b506000905060025b9250929050565b600081600481111561202e5761202e61309b565b14156120375750565b600181600481111561204b5761204b61309b565b14156120695760405162461bcd60e51b815260040161075c90612e14565b600281600481111561207d5761207d61309b565b141561209b5760405162461bcd60e51b815260040161075c90612e44565b60038160048111156120af576120af61309b565b14156120cd5760405162461bcd60e51b815260040161075c90612e54565b60048160048111156120e1576120e161309b565b14156109955760405162461bcd60e51b815260040161075c90612e84565b6060824710156121215760405162461bcd60e51b815260040161075c90612e64565b6001600160a01b0385163b6121485760405162461bcd60e51b815260040161075c90612e94565b600080866001600160a01b031685876040516121649190612bea565b60006040518083038185875af1925050503d80600081146121a1576040519150601f19603f3d011682016040523d82523d6000602084013e6121a6565b606091505b50915091506121b68282866122d1565b979650505050505050565b600083838346306040516020016121dc959493929190612d74565b6040516020818303038152906040528051906020012090509392505050565b6000806fa2a8918ca85bafe22016d0b997e4df60600160ff1b0383111561222857506000905060036122c8565b8460ff16601b1415801561224057508460ff16601c14155b1561225157506000905060046122c8565b6000600187878787604051600081526020016040526040516122769493929190612dc0565b6020604051602081039080840390855afa158015612298573d6000803e3d6000fd5b5050604051601f1901519150506001600160a01b0381166122c1576000600192509250506122c8565b9150600090505b94509492505050565b606083156122e0575081610c4f565b8251156122f05782518084602001fd5b8160405162461bcd60e51b815260040161075c9190612e03565b600061231d61231884612f2b565b612f0f565b9050808382526020820190508285602086028201111561233f5761233f600080fd5b60005b8581101561236b5781612355888261247d565b8452506020928301929190910190600101612342565b5050509392505050565b600061238361231884612f4e565b90508281526020810184848401111561239e5761239e600080fd5b610c4d848285612fee565b803561069d816130fd565b600082601f8301126123c8576123c8600080fd5b8151611ea684826020860161230a565b805161069d81613111565b803561069d81613119565b803561069d8161311f565b60008083601f84011261240e5761240e600080fd5b5081356001600160401b0381111561242857612428600080fd5b60208301915083600182028301111561201357612013600080fd5b805161069d8161312f565b803561069d8161312f565b600082601f83011261246d5761246d600080fd5b8135611ea6848260208601612375565b805161069d81613119565b60006020828403121561249d5761249d600080fd5b6000611ea684846123a9565b60008060008060008060008060006101008a8c0312156124cb576124cb600080fd5b60006124d78c8c6123a9565b99505060206124e88c828d016123a9565b98505060408a01356001600160401b0381111561250757612507600080fd5b6125138c828d01612459565b97505060606125248c828d016123e3565b96505060806125358c828d016123e3565b95505060a08a01356001600160401b0381111561255457612554600080fd5b6125608c828d01612459565b94505060c06125718c828d016123a9565b93505060e08a01356001600160401b0381111561259057612590600080fd5b61259c8c828d016123f9565b92509250509295985092959850929598565b60008060008060008060008060e0898b0312156125cd576125cd600080fd5b60006125d98b8b6123a9565b98505060208901356001600160401b038111156125f8576125f8600080fd5b6126048b828c01612459565b97505060406126158b828c016123e3565b96505060606126268b828c016123e3565b95505060808901356001600160401b0381111561264557612645600080fd5b6126518b828c01612459565b94505060a06126628b828c016123a9565b93505060c08901356001600160401b0381111561268157612681600080fd5b61268d8b828c016123f9565b92509250509295985092959890939650565b6000806000606084860312156126b7576126b7600080fd5b60006126c386866123a9565b93505060206126d4868287016123e3565b92505060406126e5868287016123e3565b9150509250925092565b60006020828403121561270457612704600080fd5b81516001600160401b0381111561271d5761271d600080fd5b611ea6848285016123b4565b60006020828403121561273e5761273e600080fd5b6000611ea684846123d8565b60006020828403121561275f5761275f600080fd5b6000611ea684846123e3565b6000806040838503121561278157612781600080fd5b600061278d85856123e3565b925050602061279e858286016123a9565b9150509250929050565b6000602082840312156127bd576127bd600080fd5b6000611ea684846123ee565b6000602082840312156127de576127de600080fd5b6000611ea68484612443565b6000602082840312156127ff576127ff600080fd5b6000611ea6848461244e565b60006020828403121561282057612820600080fd5b6000611ea6848461247d565b6000806040838503121561284257612842600080fd5b600061284e85856123e3565b925050602061279e858286016123e3565b600061286b8383612873565b505060200190565b61287c81612fc7565b82525050565b600061288c825190565b80845260209384019383018060005b838110156128c05781516128af888261285f565b97506020830192505060010161289b565b509495945050505050565b80151561287c565b8061287c565b60006128e3825190565b6128f1818560208601612ffa565b9290920192915050565b61287c81612fe3565b600061290e825190565b808452602084019350612925818560208601612ffa565b61292e816130f3565b9093019392505050565b601881526000602082017745434453413a20696e76616c6964207369676e617475726560401b815291505b5060200190565b60208082527f537472696e67733a20686578206c656e67746820696e73756666696369656e7491019081526000612963565b601481526000602082017314185d5cd8589b194e881b9bdd081c185d5cd95960621b81529150612963565b601f81526000602082017f45434453413a20696e76616c6964207369676e6174757265206c656e6774680081529150612963565b602281526000602082017f45434453413a20696e76616c6964207369676e6174757265202773272076616c815261756560f01b602082015291505b5060400190565b602681526000602082017f416464726573733a20696e73756666696369656e742062616c616e636520666f8152651c8818d85b1b60d21b60208201529150612a36565b601081526000602082016f14185d5cd8589b194e881c185d5cd95960821b81529150612963565b602281526000602082017f45434453413a20696e76616c6964207369676e6174757265202776272076616c815261756560f01b60208201529150612a36565b601d81526000602082017f416464726573733a2063616c6c20746f206e6f6e2d636f6e747261637400000081529150612963565b602a81526000602082017f5361666545524332303a204552433230206f7065726174696f6e20646964206e8152691bdd081cdd58d8d9595960b21b60208201529150612a36565b601f81526000602082017f5265656e7472616e637947756172643a207265656e7472616e742063616c6c0081529150612963565b602f81526000602082017f416363657373436f6e74726f6c3a2063616e206f6e6c792072656e6f756e636581526e103937b632b9903337b91039b2b63360891b60208201529150612a36565b60ff811661287c565b6000610c4f82846128d9565b61190160f01b81526002016000612c0d82856128d3565b602082019150612c1d82846128d3565b5060200192915050565b60008161069d565b76020b1b1b2b9b9a1b7b73a3937b61d1030b1b1b7bab73a1604d1b81526017016000612c5b82856128d9565b7001034b99036b4b9b9b4b733903937b6329607d1b81526011019150611ea682846128d9565b6020810161069d8284612873565b60608101612c9d8286612873565b612caa6020830185612873565b611ea660408301846128d3565b60808101612cc58287612873565b8181036020830152612cd78186612904565b9050612ce660408301856128d3565b81810360608301526119978184612904565b60208082528101610c4f8184612882565b6020810161069d82846128cb565b6020810161069d82846128d3565b60c08101612d3382896128d3565b612d406020830188612873565b612d4d60408301876128d3565b612d5a60608301866128d3565b612d6760808301856128d3565b6121b660a08301846128d3565b60a08101612d8282886128d3565b612d8f60208301876128d3565b612d9c60408301866128d3565b612da960608301856128d3565b612db66080830184612873565b9695505050505050565b60808101612dce82876128d3565b612ddb6020830186612be1565b612de860408301856128d3565b61199a60608301846128d3565b6020810161069d82846128fb565b60208082528101610c4f8184612904565b6020808252810161069d81612938565b6020808252810161069d8161296a565b6020808252810161069d8161299c565b6020808252810161069d816129c7565b6020808252810161069d816129fb565b6020808252810161069d81612a3d565b6020808252810161069d81612a80565b6020808252810161069d81612aa7565b6020808252810161069d81612ae6565b6020808252810161069d81612b1a565b6020808252810161069d81612b61565b6020808252810161069d81612b95565b60408101612ee282856128d3565b8181036020830152611ea68184612882565b60408101612f0282856128d3565b610c4f60208301846128d3565b6000612f1a60405190565b9050612f26828261303d565b919050565b60006001600160401b03821115612f4457612f446130dd565b5060209081020190565b60006001600160401b03821115612f6757612f676130dd565b612f70826130f3565b60200192915050565b60008219821115612f8c57612f8c613085565b500190565b6000816000190483118215151615612fab57612fab613085565b500290565b600082821015612fc257612fc2613085565b500390565b60006001600160a01b03821661069d565b600061069d82612fc7565b600061069d82612fd8565b82818337506000910152565b60005b83811015613015578181015183820152602001612ffd565b838111156114715750506000910152565b60008161303557613035613085565b506000190190565b613046826130f3565b81018181106001600160401b0382111715613063576130636130dd565b6040525050565b600060001982141561307e5761307e613085565b5060010190565b634e487b7160e01b600052601160045260246000fd5b634e487b7160e01b600052602160045260246000fd5b634e487b7160e01b600052603160045260246000fd5b634e487b7160e01b600052603260045260246000fd5b634e487b7160e01b600052604160045260246000fd5b601f01601f191690565b61310681612fc7565b811461099557600080fd5b801515613106565b80613106565b6001600160e01b03198116613106565b61310681612fd856fea2646970667358221220ef17f80800a9f18984737a9538c144c72f9bcec4a6df3a3b47b8e6534b8aef8764736f6c63430008070033",
  "devdoc": {
    "author": "Masa Finance",
    "details": "From this smart contract we can mint new Soulbound Identities and Soul Name NFTs. This minting can be done paying a fee in ETH, USDC or MASA",
    "kind": "dev",
    "methods": {
      "addAuthority(address)": {
        "details": "The caller must have the admin role to call this function",
        "params": {
          "_authority": "New authority to add"
        }
      },
      "constructor": {
        "details": "Creates a new Soul Store, that has the role to minting new Soulbound Identities and Soul Name NFTs, paying a fee",
        "params": {
          "_nameRegistrationPricePerYear": "Price of the default name registering in stable coin per year",
          "_soulBoundIdentity": "Address of the Soulbound identity contract",
          "admin": "Administrator of the smart contract",
          "paymentParams": "Payment gateway params"
        }
      },
      "disablePaymentMethod(address)": {
        "details": "The caller must have the admin role to call this function",
        "params": {
          "_paymentMethod": "Token to remove"
        }
      },
      "enablePaymentMethod(address)": {
        "details": "The caller must have the admin role to call this function",
        "params": {
          "_paymentMethod": "New token to add"
        }
      },
      "getEnabledPaymentMethods()": {
        "details": "Returns the address of all available payment methods",
        "returns": {
          "_0": "Array of all enabled payment methods"
        }
      },
      "getNameRegistrationPricePerYear(uint256)": {
        "details": "Returns the price for registering per year in USD for an specific name length",
        "params": {
          "nameLength": "Length of the name"
        },
        "returns": {
          "_0": "Price in stable coin for that name length"
        }
      },
      "getPriceForMintingName(address,uint256,uint256)": {
        "details": "Returns current pricing for name minting for a given name length and years period",
        "params": {
          "nameLength": "Length of the name",
          "paymentMethod": "Address of token that user want to pay",
          "yearsPeriod": "Years of validity of the name"
        },
        "returns": {
          "_0": "Current price of the name minting in the given payment method"
        }
      },
      "getRoleAdmin(bytes32)": {
        "details": "Returns the admin role that controls `role`. See {grantRole} and {revokeRole}. To change a role's admin, use {_setRoleAdmin}."
      },
      "grantRole(bytes32,address)": {
        "details": "Grants `role` to `account`. If `account` had not been already granted `role`, emits a {RoleGranted} event. Requirements: - the caller must have ``role``'s admin role. May emit a {RoleGranted} event."
      },
      "hasRole(bytes32,address)": {
        "details": "Returns `true` if `account` has been granted `role`."
      },
      "pause()": {
        "details": "The caller must have the admin role to call this function"
      },
      "paused()": {
        "details": "Returns true if the contract is paused, and false otherwise."
      },
      "purchaseIdentity()": {
        "details": "This function allows the purchase of a soulbound identity for free",
        "returns": {
          "_0": "TokenId of the new soulbound identity"
        }
      },
      "purchaseIdentityAndName(address,string,uint256,uint256,string,address,bytes)": {
        "details": "This function allows the purchase of a soulbound identity and name using stable coin (USDC), native token (ETH) or utility token (MASA)",
        "params": {
          "authorityAddress": "Address of the authority",
          "name": "Name of the new soul name",
          "nameLength": "Length of the name",
          "paymentMethod": "Address of token that user want to pay",
          "signature": "Signature of the authority",
          "tokenURI": "URI of the NFT",
          "yearsPeriod": "Years of validity of the name"
        },
        "returns": {
          "_0": "TokenId of the new soulbound identity"
        }
      },
      "purchaseName(address,address,string,uint256,uint256,string,address,bytes)": {
        "details": "This function allows the purchase of a soul name using stable coin (USDC), native token (ETH) or utility token (MASA)",
        "params": {
          "authorityAddress": "Address of the authority",
          "name": "Name of the new soul name",
          "nameLength": "Length of the name",
          "paymentMethod": "Address of token that user want to pay",
          "signature": "Signature of the authority",
          "to": "Address of the owner of the new soul name",
          "tokenURI": "URI of the NFT",
          "yearsPeriod": "Years of validity of the name"
        },
        "returns": {
          "_0": "TokenId of the new sou name"
        }
      },
      "removeAuthority(address)": {
        "details": "The caller must have the admin role to call this function",
        "params": {
          "_authority": "Authority to remove"
        }
      },
      "renounceRole(bytes32,address)": {
        "details": "Revokes `role` from the calling account. Roles are often managed via {grantRole} and {revokeRole}: this function's purpose is to provide a mechanism for accounts to lose their privileges if they are compromised (such as when a trusted device is misplaced). If the calling account had been revoked `role`, emits a {RoleRevoked} event. Requirements: - the caller must be `account`. May emit a {RoleRevoked} event."
      },
      "revokeRole(bytes32,address)": {
        "details": "Revokes `role` from `account`. If `account` had been granted `role`, emits a {RoleRevoked} event. Requirements: - the caller must have ``role``'s admin role. May emit a {RoleRevoked} event."
      },
      "setMasaToken(address)": {
        "details": "The caller must have the admin role to call this function It can be set to address(0) to disable paying in MASA",
        "params": {
          "_masaToken": "New utility token to pay the fee in"
        }
      },
      "setNameRegistrationPricePerYear(uint256,uint256)": {
        "details": "The caller must have the admin role to call this function",
        "params": {
          "_nameLength": "Length of the name",
          "_nameRegistrationPricePerYear": "New price of the name registering per one year in stable coin for that name length per year"
        }
      },
      "setReserveWallet(address)": {
        "details": "The caller must have the admin role to call this function",
        "params": {
          "_reserveWallet": "New reserve wallet"
        }
      },
      "setSoulboundIdentity(address)": {
        "details": "The caller must have the admin role to call this function",
        "params": {
          "_soulboundIdentity": "New SoulboundIdentity contract address"
        }
      },
      "setStableCoin(address)": {
        "details": "The caller must have the admin role to call this function",
        "params": {
          "_stableCoin": "New stable coin to pay the fee in"
        }
      },
      "setSwapRouter(address)": {
        "details": "The caller must have the admin role to call this function",
        "params": {
          "_swapRouter": "New swap router address"
        }
      },
      "setWrappedNativeToken(address)": {
        "details": "The caller must have the admin role to call this function",
        "params": {
          "_wrappedNativeToken": "New wrapped native token address"
        }
      },
      "supportsInterface(bytes4)": {
        "details": "See {IERC165-supportsInterface}."
      },
      "unpause()": {
        "details": "The caller must have the admin role to call this function"
      }
    },
    "title": "Soul Store",
    "version": 1
  },
  "userdoc": {
    "kind": "user",
    "methods": {
      "addAuthority(address)": {
        "notice": "Adds a new authority to the list of authorities"
      },
      "constructor": {
        "notice": "Creates a new Soul Store"
      },
      "disablePaymentMethod(address)": {
        "notice": "Removes a token as a valid payment method"
      },
      "enablePaymentMethod(address)": {
        "notice": "Adds a new token as a valid payment method"
      },
      "getEnabledPaymentMethods()": {
        "notice": "Returns all available payment methods"
      },
      "getNameRegistrationPricePerYear(uint256)": {
        "notice": "Returns the price of register a name per year in stable coin for an specific length"
      },
      "getPriceForMintingName(address,uint256,uint256)": {
        "notice": "Returns the price of the name minting"
      },
      "pause()": {
        "notice": "Pauses the smart contract"
      },
      "purchaseIdentity()": {
        "notice": "Mints a new Soulbound Identity purchasing it"
      },
      "purchaseIdentityAndName(address,string,uint256,uint256,string,address,bytes)": {
        "notice": "Mints a new Soulbound Identity and Name purchasing it"
      },
      "purchaseName(address,address,string,uint256,uint256,string,address,bytes)": {
        "notice": "Mints a new Soul Name purchasing it"
      },
      "removeAuthority(address)": {
        "notice": "Removes an authority from the list of authorities"
      },
      "setMasaToken(address)": {
        "notice": "Sets the utility token to pay the fee in (MASA)"
      },
      "setNameRegistrationPricePerYear(uint256,uint256)": {
        "notice": "Sets the price of the name registering per one year in stable coin"
      },
      "setReserveWallet(address)": {
        "notice": "Set the reserve wallet"
      },
      "setSoulboundIdentity(address)": {
        "notice": "Sets the SoulboundIdentity contract address linked to this store"
      },
      "setStableCoin(address)": {
        "notice": "Sets the stable coin to pay the fee in (USDC)"
      },
      "setSwapRouter(address)": {
        "notice": "Sets the swap router address"
      },
      "setWrappedNativeToken(address)": {
        "notice": "Sets the wrapped native token address"
      },
      "unpause()": {
        "notice": "Unpauses the smart contract"
      }
    },
    "notice": "Soul Store, that can mint new Soulbound Identities and Soul Name NFTs, paying a fee",
    "version": 1
  },
  "storageLayout": {
    "storage": [
      {
        "astId": 24,
        "contract": "contracts/SoulStore.sol:SoulStore",
        "label": "_roles",
        "offset": 0,
        "slot": "0",
        "type": "t_mapping(t_bytes32,t_struct(RoleData)19_storage)"
      },
      {
        "astId": 7471,
        "contract": "contracts/SoulStore.sol:SoulStore",
        "label": "swapRouter",
        "offset": 0,
        "slot": "1",
        "type": "t_address"
      },
      {
        "astId": 7473,
        "contract": "contracts/SoulStore.sol:SoulStore",
        "label": "wrappedNativeToken",
        "offset": 0,
        "slot": "2",
        "type": "t_address"
      },
      {
        "astId": 7475,
        "contract": "contracts/SoulStore.sol:SoulStore",
        "label": "stableCoin",
        "offset": 0,
        "slot": "3",
        "type": "t_address"
      },
      {
        "astId": 7477,
        "contract": "contracts/SoulStore.sol:SoulStore",
        "label": "masaToken",
        "offset": 0,
        "slot": "4",
        "type": "t_address"
      },
      {
        "astId": 7481,
        "contract": "contracts/SoulStore.sol:SoulStore",
        "label": "enabledPaymentMethod",
        "offset": 0,
        "slot": "5",
        "type": "t_mapping(t_address,t_bool)"
      },
      {
        "astId": 7484,
        "contract": "contracts/SoulStore.sol:SoulStore",
        "label": "enabledPaymentMethods",
        "offset": 0,
        "slot": "6",
        "type": "t_array(t_address)dyn_storage"
      },
      {
        "astId": 7486,
        "contract": "contracts/SoulStore.sol:SoulStore",
        "label": "reserveWallet",
        "offset": 0,
        "slot": "7",
        "type": "t_address"
      },
      {
        "astId": 523,
        "contract": "contracts/SoulStore.sol:SoulStore",
        "label": "_paused",
        "offset": 20,
        "slot": "7",
        "type": "t_bool"
      },
      {
        "astId": 624,
        "contract": "contracts/SoulStore.sol:SoulStore",
        "label": "_status",
        "offset": 0,
        "slot": "8",
        "type": "t_uint256"
      },
      {
        "astId": 6094,
        "contract": "contracts/SoulStore.sol:SoulStore",
        "label": "soulboundIdentity",
        "offset": 0,
        "slot": "9",
        "type": "t_contract(ISoulboundIdentity)8231"
      },
      {
        "astId": 6098,
        "contract": "contracts/SoulStore.sol:SoulStore",
        "label": "nameRegistrationPricePerYear",
        "offset": 0,
        "slot": "10",
        "type": "t_mapping(t_uint256,t_uint256)"
      },
      {
        "astId": 6102,
        "contract": "contracts/SoulStore.sol:SoulStore",
        "label": "authorities",
        "offset": 0,
        "slot": "11",
        "type": "t_mapping(t_address,t_bool)"
      }
    ],
    "types": {
      "t_address": {
        "encoding": "inplace",
        "label": "address",
        "numberOfBytes": "20"
      },
      "t_array(t_address)dyn_storage": {
        "base": "t_address",
        "encoding": "dynamic_array",
        "label": "address[]",
        "numberOfBytes": "32"
      },
      "t_bool": {
        "encoding": "inplace",
        "label": "bool",
        "numberOfBytes": "1"
      },
      "t_bytes32": {
        "encoding": "inplace",
        "label": "bytes32",
        "numberOfBytes": "32"
      },
      "t_contract(ISoulboundIdentity)8231": {
        "encoding": "inplace",
        "label": "contract ISoulboundIdentity",
        "numberOfBytes": "20"
      },
      "t_mapping(t_address,t_bool)": {
        "encoding": "mapping",
        "key": "t_address",
        "label": "mapping(address => bool)",
        "numberOfBytes": "32",
        "value": "t_bool"
      },
      "t_mapping(t_bytes32,t_struct(RoleData)19_storage)": {
        "encoding": "mapping",
        "key": "t_bytes32",
        "label": "mapping(bytes32 => struct AccessControl.RoleData)",
        "numberOfBytes": "32",
        "value": "t_struct(RoleData)19_storage"
      },
      "t_mapping(t_uint256,t_uint256)": {
        "encoding": "mapping",
        "key": "t_uint256",
        "label": "mapping(uint256 => uint256)",
        "numberOfBytes": "32",
        "value": "t_uint256"
      },
      "t_struct(RoleData)19_storage": {
        "encoding": "inplace",
        "label": "struct AccessControl.RoleData",
        "members": [
          {
            "astId": 16,
            "contract": "contracts/SoulStore.sol:SoulStore",
            "label": "members",
            "offset": 0,
            "slot": "0",
            "type": "t_mapping(t_address,t_bool)"
          },
          {
            "astId": 18,
            "contract": "contracts/SoulStore.sol:SoulStore",
            "label": "adminRole",
            "offset": 0,
            "slot": "1",
            "type": "t_bytes32"
          }
        ],
        "numberOfBytes": "64"
      },
      "t_uint256": {
        "encoding": "inplace",
        "label": "uint256",
        "numberOfBytes": "32"
      }
    }
  }
}