{
  "address": "0x1fCE0Ae50a8900f09E4A437F33E95313225Bb4b7",
  "abi": [
    {
      "inputs": [
        {
          "internalType": "address",
          "name": "admin",
          "type": "address"
        },
        {
          "internalType": "string",
          "name": "name",
          "type": "string"
        },
        {
          "internalType": "string",
          "name": "symbol",
          "type": "string"
        },
        {
          "internalType": "string",
          "name": "baseTokenURI",
          "type": "string"
        },
        {
          "components": [
            {
              "internalType": "address",
              "name": "swapRouter",
              "type": "address"
            },
            {
              "internalType": "address",
              "name": "wrappedNativeToken",
              "type": "address"
            },
            {
              "internalType": "address",
              "name": "stableCoin",
              "type": "address"
            },
            {
              "internalType": "address",
              "name": "masaToken",
              "type": "address"
            },
            {
              "internalType": "address",
              "name": "projectFeeReceiver",
              "type": "address"
            },
            {
              "internalType": "address",
              "name": "protocolFeeReceiver",
              "type": "address"
            },
            {
              "internalType": "uint256",
              "name": "protocolFeeAmount",
              "type": "uint256"
            },
            {
              "internalType": "uint256",
              "name": "protocolFeePercent",
              "type": "uint256"
            }
          ],
          "internalType": "struct PaymentGateway.PaymentParams",
          "name": "paymentParams",
          "type": "tuple"
        }
      ],
      "stateMutability": "nonpayable",
      "type": "constructor"
    },
    {
      "inputs": [],
      "name": "AlreadyAdded",
      "type": "error"
    },
    {
      "inputs": [
        {
          "internalType": "address",
          "name": "to",
          "type": "address"
        }
      ],
      "name": "IdentityAlreadyCreated",
      "type": "error"
    },
    {
      "inputs": [
        {
          "internalType": "uint256",
          "name": "amount",
          "type": "uint256"
        }
      ],
      "name": "InsufficientEthAmount",
      "type": "error"
    },
    {
      "inputs": [
        {
          "internalType": "address",
          "name": "paymentMethod",
          "type": "address"
        }
      ],
      "name": "InvalidPaymentMethod",
      "type": "error"
    },
    {
      "inputs": [
        {
          "internalType": "address",
          "name": "token",
          "type": "address"
        }
      ],
      "name": "InvalidToken",
      "type": "error"
    },
    {
      "inputs": [
        {
          "internalType": "address",
          "name": "erc20token",
          "type": "address"
        }
      ],
      "name": "NonExistingErc20Token",
      "type": "error"
    },
    {
      "inputs": [],
      "name": "NotLinkedToAnIdentitySBT",
      "type": "error"
    },
    {
      "inputs": [],
      "name": "PaymentParamsNotSet",
      "type": "error"
    },
    {
      "inputs": [],
      "name": "ProtocolFeeReceiverNotSet",
      "type": "error"
    },
    {
      "inputs": [],
      "name": "RefundFailed",
      "type": "error"
    },
    {
      "inputs": [],
      "name": "SameValue",
      "type": "error"
    },
    {
      "inputs": [],
      "name": "SoulNameContractNotSet",
      "type": "error"
    },
    {
      "inputs": [],
      "name": "TransferFailed",
      "type": "error"
    },
    {
      "inputs": [],
      "name": "UserMustHaveProtocolOrProjectAdminRole",
      "type": "error"
    },
    {
      "inputs": [],
      "name": "ZeroAddress",
      "type": "error"
    },
    {
      "anonymous": false,
      "inputs": [
        {
          "indexed": true,
          "internalType": "address",
          "name": "_owner",
          "type": "address"
        },
        {
          "indexed": true,
          "internalType": "uint256",
          "name": "_tokenId",
          "type": "uint256"
        }
      ],
      "name": "Burn",
      "type": "event"
    },
    {
      "anonymous": false,
      "inputs": [
        {
          "indexed": true,
          "internalType": "address",
          "name": "_owner",
          "type": "address"
        },
        {
          "indexed": true,
          "internalType": "uint256",
          "name": "_tokenId",
          "type": "uint256"
        }
      ],
      "name": "Mint",
      "type": "event"
    },
    {
      "anonymous": false,
      "inputs": [
        {
          "indexed": true,
          "internalType": "bytes32",
          "name": "role",
          "type": "bytes32"
        },
        {
          "indexed": true,
          "internalType": "bytes32",
          "name": "previousAdminRole",
          "type": "bytes32"
        },
        {
          "indexed": true,
          "internalType": "bytes32",
          "name": "newAdminRole",
          "type": "bytes32"
        }
      ],
      "name": "RoleAdminChanged",
      "type": "event"
    },
    {
      "anonymous": false,
      "inputs": [
        {
          "indexed": true,
          "internalType": "bytes32",
          "name": "role",
          "type": "bytes32"
        },
        {
          "indexed": true,
          "internalType": "address",
          "name": "account",
          "type": "address"
        },
        {
          "indexed": true,
          "internalType": "address",
          "name": "sender",
          "type": "address"
        }
      ],
      "name": "RoleGranted",
      "type": "event"
    },
    {
      "anonymous": false,
      "inputs": [
        {
          "indexed": true,
          "internalType": "bytes32",
          "name": "role",
          "type": "bytes32"
        },
        {
          "indexed": true,
          "internalType": "address",
          "name": "account",
          "type": "address"
        },
        {
          "indexed": true,
          "internalType": "address",
          "name": "sender",
          "type": "address"
        }
      ],
      "name": "RoleRevoked",
      "type": "event"
    },
    {
      "inputs": [],
      "name": "DEFAULT_ADMIN_ROLE",
      "outputs": [
        {
          "internalType": "bytes32",
          "name": "",
          "type": "bytes32"
        }
      ],
      "stateMutability": "view",
      "type": "function"
    },
    {
      "inputs": [],
      "name": "MINTER_ROLE",
      "outputs": [
        {
          "internalType": "bytes32",
          "name": "",
          "type": "bytes32"
        }
      ],
      "stateMutability": "view",
      "type": "function"
    },
    {
      "inputs": [],
      "name": "PROJECT_ADMIN_ROLE",
      "outputs": [
        {
          "internalType": "bytes32",
          "name": "",
          "type": "bytes32"
        }
      ],
      "stateMutability": "view",
      "type": "function"
    },
    {
      "inputs": [],
      "name": "addLinkPrice",
      "outputs": [
        {
          "internalType": "uint256",
          "name": "",
          "type": "uint256"
        }
      ],
      "stateMutability": "view",
      "type": "function"
    },
    {
      "inputs": [],
      "name": "addLinkPriceMASA",
      "outputs": [
        {
          "internalType": "uint256",
          "name": "",
          "type": "uint256"
        }
      ],
      "stateMutability": "view",
      "type": "function"
    },
    {
      "inputs": [
        {
          "internalType": "address",
          "name": "owner",
          "type": "address"
        }
      ],
      "name": "balanceOf",
      "outputs": [
        {
          "internalType": "uint256",
          "name": "",
          "type": "uint256"
        }
      ],
      "stateMutability": "view",
      "type": "function"
    },
    {
      "inputs": [
        {
          "internalType": "uint256",
          "name": "tokenId",
          "type": "uint256"
        }
      ],
      "name": "burn",
      "outputs": [],
      "stateMutability": "nonpayable",
      "type": "function"
    },
    {
      "inputs": [
        {
          "internalType": "address",
          "name": "_paymentMethod",
          "type": "address"
        }
      ],
      "name": "disablePaymentMethod",
      "outputs": [],
      "stateMutability": "nonpayable",
      "type": "function"
    },
    {
      "inputs": [
        {
          "internalType": "address",
          "name": "_paymentMethod",
          "type": "address"
        }
      ],
      "name": "enablePaymentMethod",
      "outputs": [],
      "stateMutability": "nonpayable",
      "type": "function"
    },
    {
      "inputs": [
        {
          "internalType": "address",
          "name": "",
          "type": "address"
        }
      ],
      "name": "enabledPaymentMethod",
      "outputs": [
        {
          "internalType": "bool",
          "name": "",
          "type": "bool"
        }
      ],
      "stateMutability": "view",
      "type": "function"
    },
    {
      "inputs": [
        {
          "internalType": "uint256",
          "name": "",
          "type": "uint256"
        }
      ],
      "name": "enabledPaymentMethods",
      "outputs": [
        {
          "internalType": "address",
          "name": "",
          "type": "address"
        }
      ],
      "stateMutability": "view",
      "type": "function"
    },
    {
      "inputs": [
        {
          "internalType": "uint256",
          "name": "tokenId",
          "type": "uint256"
        }
      ],
      "name": "exists",
      "outputs": [
        {
          "internalType": "bool",
          "name": "",
          "type": "bool"
        }
      ],
      "stateMutability": "view",
      "type": "function"
    },
    {
      "inputs": [],
      "name": "getEnabledPaymentMethods",
      "outputs": [
        {
          "internalType": "address[]",
          "name": "",
          "type": "address[]"
        }
      ],
      "stateMutability": "view",
      "type": "function"
    },
    {
      "inputs": [],
      "name": "getExtension",
      "outputs": [
        {
          "internalType": "string",
          "name": "",
          "type": "string"
        }
      ],
      "stateMutability": "view",
      "type": "function"
    },
    {
      "inputs": [
        {
          "internalType": "uint256",
          "name": "tokenId",
          "type": "uint256"
        }
      ],
      "name": "getIdentityId",
      "outputs": [
        {
          "internalType": "uint256",
          "name": "",
          "type": "uint256"
        }
      ],
      "stateMutability": "view",
      "type": "function"
    },
    {
      "inputs": [
        {
          "internalType": "address",
          "name": "paymentMethod",
          "type": "address"
        }
      ],
      "name": "getMintPrice",
      "outputs": [
        {
          "internalType": "uint256",
          "name": "price",
          "type": "uint256"
        }
      ],
      "stateMutability": "view",
      "type": "function"
    },
    {
      "inputs": [
        {
          "internalType": "address",
          "name": "paymentMethod",
          "type": "address"
        }
      ],
      "name": "getMintPriceWithProtocolFee",
      "outputs": [
        {
          "internalType": "uint256",
          "name": "price",
          "type": "uint256"
        },
        {
          "internalType": "uint256",
          "name": "protocolFee",
          "type": "uint256"
        }
      ],
      "stateMutability": "view",
      "type": "function"
    },
    {
      "inputs": [
        {
          "internalType": "address",
          "name": "paymentMethod",
          "type": "address"
        },
        {
          "internalType": "uint256",
          "name": "amount",
          "type": "uint256"
        }
      ],
      "name": "getProtocolFee",
      "outputs": [
        {
          "internalType": "uint256",
          "name": "",
          "type": "uint256"
        }
      ],
      "stateMutability": "view",
      "type": "function"
    },
    {
      "inputs": [
        {
          "internalType": "bytes32",
          "name": "role",
          "type": "bytes32"
        }
      ],
      "name": "getRoleAdmin",
      "outputs": [
        {
          "internalType": "bytes32",
          "name": "",
          "type": "bytes32"
        }
      ],
      "stateMutability": "view",
      "type": "function"
    },
    {
      "inputs": [],
      "name": "getSoulName",
      "outputs": [
        {
          "internalType": "contract ISoulName",
          "name": "",
          "type": "address"
        }
      ],
      "stateMutability": "view",
      "type": "function"
    },
    {
      "inputs": [
        {
          "internalType": "uint256",
          "name": "tokenId",
          "type": "uint256"
        }
      ],
      "name": "getSoulNames",
      "outputs": [
        {
          "internalType": "string[]",
          "name": "sbtNames",
          "type": "string[]"
        }
      ],
      "stateMutability": "view",
      "type": "function"
    },
    {
      "inputs": [
        {
          "internalType": "address",
          "name": "owner",
          "type": "address"
        }
      ],
      "name": "getSoulNames",
      "outputs": [
        {
          "internalType": "string[]",
          "name": "sbtNames",
          "type": "string[]"
        }
      ],
      "stateMutability": "view",
      "type": "function"
    },
    {
      "inputs": [
        {
          "internalType": "string",
          "name": "name",
          "type": "string"
        }
      ],
      "name": "getTokenData",
      "outputs": [
        {
          "internalType": "string",
          "name": "sbtName",
          "type": "string"
        },
        {
          "internalType": "bool",
          "name": "linked",
          "type": "bool"
        },
        {
          "internalType": "uint256",
          "name": "identityId",
          "type": "uint256"
        },
        {
          "internalType": "uint256",
          "name": "tokenId",
          "type": "uint256"
        },
        {
          "internalType": "uint256",
          "name": "expirationDate",
          "type": "uint256"
        },
        {
          "internalType": "bool",
          "name": "active",
          "type": "bool"
        }
      ],
      "stateMutability": "view",
      "type": "function"
    },
    {
      "inputs": [
        {
          "internalType": "bytes32",
          "name": "role",
          "type": "bytes32"
        },
        {
          "internalType": "address",
          "name": "account",
          "type": "address"
        }
      ],
      "name": "grantRole",
      "outputs": [],
      "stateMutability": "nonpayable",
      "type": "function"
    },
    {
      "inputs": [
        {
          "internalType": "bytes32",
          "name": "role",
          "type": "bytes32"
        },
        {
          "internalType": "address",
          "name": "account",
          "type": "address"
        }
      ],
      "name": "hasRole",
      "outputs": [
        {
          "internalType": "bool",
          "name": "",
          "type": "bool"
        }
      ],
      "stateMutability": "view",
      "type": "function"
    },
    {
      "inputs": [
        {
          "internalType": "string",
          "name": "name",
          "type": "string"
        }
      ],
      "name": "isAvailable",
      "outputs": [
        {
          "internalType": "bool",
          "name": "available",
          "type": "bool"
        }
      ],
      "stateMutability": "view",
      "type": "function"
    },
    {
      "inputs": [],
      "name": "masaToken",
      "outputs": [
        {
          "internalType": "address",
          "name": "",
          "type": "address"
        }
      ],
      "stateMutability": "view",
      "type": "function"
    },
    {
      "inputs": [
        {
          "internalType": "address",
          "name": "to",
          "type": "address"
        }
      ],
      "name": "mint",
      "outputs": [
        {
          "internalType": "uint256",
          "name": "",
          "type": "uint256"
        }
      ],
      "stateMutability": "payable",
      "type": "function"
    },
    {
      "inputs": [
        {
          "internalType": "address",
          "name": "paymentMethod",
          "type": "address"
        },
        {
          "internalType": "address",
          "name": "to",
          "type": "address"
        }
      ],
      "name": "mint",
      "outputs": [
        {
          "internalType": "uint256",
          "name": "",
          "type": "uint256"
        }
      ],
      "stateMutability": "payable",
      "type": "function"
    },
    {
      "inputs": [
        {
          "internalType": "address",
          "name": "to",
          "type": "address"
        },
        {
          "internalType": "string",
          "name": "name",
          "type": "string"
        },
        {
          "internalType": "uint256",
          "name": "yearsPeriod",
          "type": "uint256"
        },
        {
          "internalType": "string",
          "name": "_tokenURI",
          "type": "string"
        }
      ],
      "name": "mintIdentityWithName",
      "outputs": [
        {
          "internalType": "uint256",
          "name": "",
          "type": "uint256"
        }
      ],
      "stateMutability": "payable",
      "type": "function"
    },
    {
      "inputs": [
        {
          "internalType": "address",
          "name": "paymentMethod",
          "type": "address"
        },
        {
          "internalType": "address",
          "name": "to",
          "type": "address"
        },
        {
          "internalType": "string",
          "name": "name",
          "type": "string"
        },
        {
          "internalType": "uint256",
          "name": "yearsPeriod",
          "type": "uint256"
        },
        {
          "internalType": "string",
          "name": "_tokenURI",
          "type": "string"
        }
      ],
      "name": "mintIdentityWithName",
      "outputs": [
        {
          "internalType": "uint256",
          "name": "",
          "type": "uint256"
        }
      ],
      "stateMutability": "payable",
      "type": "function"
    },
    {
      "inputs": [],
      "name": "mintPrice",
      "outputs": [
        {
          "internalType": "uint256",
          "name": "",
          "type": "uint256"
        }
      ],
      "stateMutability": "view",
      "type": "function"
    },
    {
      "inputs": [],
      "name": "mintPriceMASA",
      "outputs": [
        {
          "internalType": "uint256",
          "name": "",
          "type": "uint256"
        }
      ],
      "stateMutability": "view",
      "type": "function"
    },
    {
      "inputs": [],
      "name": "name",
      "outputs": [
        {
          "internalType": "string",
          "name": "",
          "type": "string"
        }
      ],
      "stateMutability": "view",
      "type": "function"
    },
    {
      "inputs": [
        {
          "internalType": "uint256",
          "name": "tokenId",
          "type": "uint256"
        }
      ],
      "name": "ownerOf",
      "outputs": [
        {
          "internalType": "address",
          "name": "",
          "type": "address"
        }
      ],
      "stateMutability": "view",
      "type": "function"
    },
    {
      "inputs": [
        {
          "internalType": "string",
          "name": "name",
          "type": "string"
        }
      ],
      "name": "ownerOf",
      "outputs": [
        {
          "internalType": "address",
          "name": "",
          "type": "address"
        }
      ],
      "stateMutability": "view",
      "type": "function"
    },
    {
      "inputs": [],
      "name": "projectFeeReceiver",
      "outputs": [
        {
          "internalType": "address",
          "name": "",
          "type": "address"
        }
      ],
      "stateMutability": "view",
      "type": "function"
    },
    {
      "inputs": [],
      "name": "protocolFeeAmount",
      "outputs": [
        {
          "internalType": "uint256",
          "name": "",
          "type": "uint256"
        }
      ],
      "stateMutability": "view",
      "type": "function"
    },
    {
      "inputs": [],
      "name": "protocolFeePercent",
      "outputs": [
        {
          "internalType": "uint256",
          "name": "",
          "type": "uint256"
        }
      ],
      "stateMutability": "view",
      "type": "function"
    },
    {
      "inputs": [],
      "name": "protocolFeeReceiver",
      "outputs": [
        {
          "internalType": "address",
          "name": "",
          "type": "address"
        }
      ],
      "stateMutability": "view",
      "type": "function"
    },
    {
      "inputs": [],
      "name": "queryLinkPrice",
      "outputs": [
        {
          "internalType": "uint256",
          "name": "",
          "type": "uint256"
        }
      ],
      "stateMutability": "view",
      "type": "function"
    },
    {
      "inputs": [],
      "name": "queryLinkPriceMASA",
      "outputs": [
        {
          "internalType": "uint256",
          "name": "",
          "type": "uint256"
        }
      ],
      "stateMutability": "view",
      "type": "function"
    },
    {
      "inputs": [
        {
          "internalType": "bytes32",
          "name": "role",
          "type": "bytes32"
        },
        {
          "internalType": "address",
          "name": "account",
          "type": "address"
        }
      ],
      "name": "renounceRole",
      "outputs": [],
      "stateMutability": "nonpayable",
      "type": "function"
    },
    {
      "inputs": [
        {
          "internalType": "bytes32",
          "name": "role",
          "type": "bytes32"
        },
        {
          "internalType": "address",
          "name": "account",
          "type": "address"
        }
      ],
      "name": "revokeRole",
      "outputs": [],
      "stateMutability": "nonpayable",
      "type": "function"
    },
    {
      "inputs": [
        {
          "internalType": "uint256",
          "name": "_addLinkPrice",
          "type": "uint256"
        }
      ],
      "name": "setAddLinkPrice",
      "outputs": [],
      "stateMutability": "nonpayable",
      "type": "function"
    },
    {
      "inputs": [
        {
          "internalType": "uint256",
          "name": "_addLinkPriceMASA",
          "type": "uint256"
        }
      ],
      "name": "setAddLinkPriceMASA",
      "outputs": [],
      "stateMutability": "nonpayable",
      "type": "function"
    },
    {
      "inputs": [
        {
          "internalType": "address",
          "name": "_masaToken",
          "type": "address"
        }
      ],
      "name": "setMasaToken",
      "outputs": [],
      "stateMutability": "nonpayable",
      "type": "function"
    },
    {
      "inputs": [
        {
          "internalType": "uint256",
          "name": "_mintPrice",
          "type": "uint256"
        }
      ],
      "name": "setMintPrice",
      "outputs": [],
      "stateMutability": "nonpayable",
      "type": "function"
    },
    {
      "inputs": [
        {
          "internalType": "uint256",
          "name": "_mintPriceMASA",
          "type": "uint256"
        }
      ],
      "name": "setMintPriceMASA",
      "outputs": [],
      "stateMutability": "nonpayable",
      "type": "function"
    },
    {
      "inputs": [
        {
          "internalType": "address",
          "name": "_projectFeeReceiver",
          "type": "address"
        }
      ],
      "name": "setProjectFeeReceiver",
      "outputs": [],
      "stateMutability": "nonpayable",
      "type": "function"
    },
    {
      "inputs": [
        {
          "internalType": "uint256",
          "name": "_protocolFeeAmount",
          "type": "uint256"
        }
      ],
      "name": "setProtocolFeeAmount",
      "outputs": [],
      "stateMutability": "nonpayable",
      "type": "function"
    },
    {
      "inputs": [
        {
          "internalType": "uint256",
          "name": "_protocolFeePercent",
          "type": "uint256"
        }
      ],
      "name": "setProtocolFeePercent",
      "outputs": [],
      "stateMutability": "nonpayable",
      "type": "function"
    },
    {
      "inputs": [
        {
          "internalType": "address",
          "name": "_protocolFeeReceiver",
          "type": "address"
        }
      ],
      "name": "setProtocolFeeReceiver",
      "outputs": [],
      "stateMutability": "nonpayable",
      "type": "function"
    },
    {
      "inputs": [
        {
          "internalType": "uint256",
          "name": "_queryLinkPrice",
          "type": "uint256"
        }
      ],
      "name": "setQueryLinkPrice",
      "outputs": [],
      "stateMutability": "nonpayable",
      "type": "function"
    },
    {
      "inputs": [
        {
          "internalType": "uint256",
          "name": "_queryLinkPriceMASA",
          "type": "uint256"
        }
      ],
      "name": "setQueryLinkPriceMASA",
      "outputs": [],
      "stateMutability": "nonpayable",
      "type": "function"
    },
    {
      "inputs": [
        {
          "internalType": "contract ISoulName",
          "name": "_soulName",
          "type": "address"
        }
      ],
      "name": "setSoulName",
      "outputs": [],
      "stateMutability": "nonpayable",
      "type": "function"
    },
    {
      "inputs": [
        {
          "internalType": "address",
          "name": "_soulboundIdentity",
          "type": "address"
        }
      ],
      "name": "setSoulboundIdentity",
      "outputs": [],
      "stateMutability": "nonpayable",
      "type": "function"
    },
    {
      "inputs": [
        {
          "internalType": "address",
          "name": "_stableCoin",
          "type": "address"
        }
      ],
      "name": "setStableCoin",
      "outputs": [],
      "stateMutability": "nonpayable",
      "type": "function"
    },
    {
      "inputs": [
        {
          "internalType": "address",
          "name": "_swapRouter",
          "type": "address"
        }
      ],
      "name": "setSwapRouter",
      "outputs": [],
      "stateMutability": "nonpayable",
      "type": "function"
    },
    {
      "inputs": [
        {
          "internalType": "address",
          "name": "_wrappedNativeToken",
          "type": "address"
        }
      ],
      "name": "setWrappedNativeToken",
      "outputs": [],
      "stateMutability": "nonpayable",
      "type": "function"
    },
    {
      "inputs": [],
      "name": "soulName",
      "outputs": [
        {
          "internalType": "contract ISoulName",
          "name": "",
          "type": "address"
        }
      ],
      "stateMutability": "view",
      "type": "function"
    },
    {
      "inputs": [],
      "name": "soulboundIdentity",
      "outputs": [
        {
          "internalType": "contract ISoulboundIdentity",
          "name": "",
          "type": "address"
        }
      ],
      "stateMutability": "view",
      "type": "function"
    },
    {
      "inputs": [],
      "name": "stableCoin",
      "outputs": [
        {
          "internalType": "address",
          "name": "",
          "type": "address"
        }
      ],
      "stateMutability": "view",
      "type": "function"
    },
    {
      "inputs": [
        {
          "internalType": "bytes4",
          "name": "interfaceId",
          "type": "bytes4"
        }
      ],
      "name": "supportsInterface",
      "outputs": [
        {
          "internalType": "bool",
          "name": "",
          "type": "bool"
        }
      ],
      "stateMutability": "view",
      "type": "function"
    },
    {
      "inputs": [],
      "name": "swapRouter",
      "outputs": [
        {
          "internalType": "address",
          "name": "",
          "type": "address"
        }
      ],
      "stateMutability": "view",
      "type": "function"
    },
    {
      "inputs": [],
      "name": "symbol",
      "outputs": [
        {
          "internalType": "string",
          "name": "",
          "type": "string"
        }
      ],
      "stateMutability": "view",
      "type": "function"
    },
    {
      "inputs": [
        {
          "internalType": "uint256",
          "name": "index",
          "type": "uint256"
        }
      ],
      "name": "tokenByIndex",
      "outputs": [
        {
          "internalType": "uint256",
          "name": "",
          "type": "uint256"
        }
      ],
      "stateMutability": "view",
      "type": "function"
    },
    {
      "inputs": [
        {
          "internalType": "address",
          "name": "owner",
          "type": "address"
        }
      ],
      "name": "tokenOfOwner",
      "outputs": [
        {
          "internalType": "uint256",
          "name": "",
          "type": "uint256"
        }
      ],
      "stateMutability": "view",
      "type": "function"
    },
    {
      "inputs": [
        {
          "internalType": "address",
          "name": "owner",
          "type": "address"
        },
        {
          "internalType": "uint256",
          "name": "index",
          "type": "uint256"
        }
      ],
      "name": "tokenOfOwnerByIndex",
      "outputs": [
        {
          "internalType": "uint256",
          "name": "",
          "type": "uint256"
        }
      ],
      "stateMutability": "view",
      "type": "function"
    },
    {
      "inputs": [
        {
          "internalType": "string",
          "name": "name",
          "type": "string"
        }
      ],
      "name": "tokenURI",
      "outputs": [
        {
          "internalType": "string",
          "name": "",
          "type": "string"
        }
      ],
      "stateMutability": "view",
      "type": "function"
    },
    {
      "inputs": [
        {
          "internalType": "address",
          "name": "owner",
          "type": "address"
        }
      ],
      "name": "tokenURI",
      "outputs": [
        {
          "internalType": "string",
          "name": "",
          "type": "string"
        }
      ],
      "stateMutability": "view",
      "type": "function"
    },
    {
      "inputs": [
        {
          "internalType": "uint256",
          "name": "tokenId",
          "type": "uint256"
        }
      ],
      "name": "tokenURI",
      "outputs": [
        {
          "internalType": "string",
          "name": "",
          "type": "string"
        }
      ],
      "stateMutability": "view",
      "type": "function"
    },
    {
      "inputs": [],
      "name": "totalSupply",
      "outputs": [
        {
          "internalType": "uint256",
          "name": "",
          "type": "uint256"
        }
      ],
      "stateMutability": "view",
      "type": "function"
    },
    {
      "inputs": [],
      "name": "wrappedNativeToken",
      "outputs": [
        {
          "internalType": "address",
          "name": "",
          "type": "address"
        }
      ],
      "stateMutability": "view",
      "type": "function"
    }
  ],
  "transactionHash": "0x1c48496e1130a730d96edfe72e584597af0ee88cc7a57ae1abe6aac0534e52da",
  "args": [
    "0x46c9cdA3F83C5c13C767A07b6E80aEd302E40B28",
    "Masa Identity",
    "MID",
    "https://beta.metadata.masa.finance/v1.0/identity/bsctest/",
    [
      "0xD99D1c33F9fC3444f8101754aBC46c52416550D1",
      "0xae13d989daC2f0dEbFf460aC112a837C89BAa7cd",
      "0x64544969ed7EBf5f083679233325356EbE738930",
      "0xEC5dCb5Dbf4B114C9d0F65BcCAb49EC54F6A0867",
      "0x46c9cdA3F83C5c13C767A07b6E80aEd302E40B28",
      "0x0000000000000000000000000000000000000000",
      "0",
      "0"
    ]
  ],
  "numDeployments": 1,
  "solcInputHash": "e12b643433beb94768a1b1af52cafef8",
  "bytecode": "0x60806040523480156200001157600080fd5b5060405162004b0638038062004b06833981016040819052620000349162000571565b8484848460008585858585858584848783620000518683620001a5565b8051600180546001600160a01b03199081166001600160a01b039384161790915560208084015160028054841691851691909117905560408401516003805484169185169190911790556060840151600480548416918516919091179055608084015160078054841691851691909117905560a084015160088054909316931692909217905560c082015160095560e090910151600a558351620000fc9250600b9185019062000259565b5080516200011290600c90602084019062000259565b506200012491506000905087620001a5565b82516200013990601390602086019062000259565b5050601480546001600160a01b0319166001600160a01b0392909216919091179055506200018e92507f9f2df0fed2c77648de5860a4cc508cd0818c85b8b8a1ab4ceeef8d981c8956a69150889050620001a5565b50506001601c555062000691975050505050505050565b620001b182826200022e565b6200022a576000828152602081815260408083206001600160a01b03851684529091529020805460ff19166001179055620001e93390565b6001600160a01b0316816001600160a01b0316837f2f8788117e7eff1d82e926ec794901d17c78024a50270940304540a733656f0d60405160405180910390a45b5050565b6000828152602081815260408083206001600160a01b038516845290915290205460ff165b92915050565b828054620002679062000660565b90600052602060002090601f0160209004810192826200028b5760008555620002d6565b82601f10620002a657805160ff1916838001178555620002d6565b82800160010185558215620002d6579182015b82811115620002d6578251825591602001919060010190620002b9565b50620002e4929150620002e8565b5090565b5b80821115620002e45760008155600101620002e9565b60006001600160a01b03821662000253565b6200031c81620002ff565b81146200032857600080fd5b50565b8051620002538162000311565b601f01601f191690565b634e487b7160e01b600052604160045260246000fd5b620003638262000338565b81018181106001600160401b038211171562000383576200038362000342565b6040525050565b60006200039660405190565b9050620003a4828262000358565b919050565b60006001600160401b03821115620003c557620003c562000342565b620003d08262000338565b60200192915050565b60005b83811015620003f6578181015183820152602001620003dc565b8381111562000406576000848401525b50505050565b6000620004236200041d84620003a9565b6200038a565b905082815260208101848484011115620004405762000440600080fd5b6200044d848285620003d9565b509392505050565b600082601f8301126200046b576200046b600080fd5b81516200047d8482602086016200040c565b949350505050565b806200031c565b8051620002538162000485565b60006101008284031215620004b157620004b1600080fd5b620004be6101006200038a565b90506000620004ce84846200032b565b8252506020620004e1848483016200032b565b6020830152506040620004f7848285016200032b565b60408301525060606200050d848285016200032b565b606083015250608062000523848285016200032b565b60808301525060a062000539848285016200032b565b60a08301525060c06200054f848285016200048c565b60c08301525060e062000565848285016200048c565b60e08301525092915050565b600080600080600061018086880312156200058f576200058f600080fd5b60006200059d88886200032b565b95505060208601516001600160401b03811115620005be57620005be600080fd5b620005cc8882890162000455565b94505060408601516001600160401b03811115620005ed57620005ed600080fd5b620005fb8882890162000455565b93505060608601516001600160401b038111156200061c576200061c600080fd5b6200062a8882890162000455565b92505060806200063d8882890162000499565b9150509295509295909350565b634e487b7160e01b600052602260045260246000fd5b6002810460018216806200067557607f821691505b602082108114156200068b576200068b6200064a565b50919050565b61446580620006a16000396000f3fe6080604052600436106103405760003560e01c8062bdfde51461034557806301ffc9a7146103675780630513c3e91461039d57806306fdde03146103ca5780630f2e68af146103ec578063102005191461041957806313150b481461043b57806317fcb39b1461045e57806318160ddd1461047e5780631830e881146104935780631f37c124146104a9578063217a2c7b146104bf57806323af4e17146104df578063248a9ca3146104ff578063289c686b1461051f578063294cdf0d1461053f5780632f2ff15d1461055f5780632f745c591461057f57806336568abe1461059f57806339a51be5146105bf5780633ad3033e146105df5780633c72ae70146105ff578063412736571461061f57806341c04d5e1461063f57806342966c681461066157806346877b1a1461068157806346b2b087146106a15780634962a158146106d35780634cf12d26146106f35780634f558e79146107135780634f6ccce7146107335780635141453e146107535780636352211e146107665780636817c76c146107865780636a6278421461079c57806370a08231146107af578063719d0f2b146107cf57806376ad1997146107ef578063776ce6a11461080f578063776d1a541461082457806377bed5ed1461083a5780637a0d16461461085a5780637db8cb681461088a5780637e669891146108aa5780638d018461146108d75780638ec9c93b146108f757806391d148541461090d578063920ffa261461092d57806393702f331461094d57806394a665e91461096d57806395d89b411461098d578063965306aa146109a257806398acb9a9146109c2578063992642e5146109d557806399b589cb146109f5578063a217fddf14610a15578063a498342114610a2a578063b507d48114610a4a578063b79636b614610a68578063b97d6b2314610a88578063c1177d1914610a9e578063c31c9c0714610abe578063c86aadb614610ade578063c87b56dd14610afe578063d539139314610b1e578063d547741f14610b40578063d6e6eb9f14610b60578063da058ae314610b76578063eb93e85514610b96578063ebda439614610bc4578063ee1fe2ad14610be4578063ee7a9ec514610bf7578063f4a0a52814610c17578063fd48ac8314610c37575b600080fd5b34801561035157600080fd5b50610365610360366004613472565b610c57565b005b34801561037357600080fd5b506103876103823660046134ae565b610c8b565b60405161039491906134d9565b60405180910390f35b3480156103a957600080fd5b506103bd6103b8366004613472565b610c9c565b6040516103949190613507565b3480156103d657600080fd5b506103df610cc6565b604051610394919061357f565b3480156103f857600080fd5b50601d5461040c906001600160a01b031681565b60405161039491906135c8565b34801561042557600080fd5b5061042e610d58565b6040516103949190613633565b34801561044757600080fd5b50610451601a5481565b604051610394919061364a565b34801561046a57600080fd5b506002546103bd906001600160a01b031681565b34801561048a57600080fd5b50601154610451565b34801561049f57600080fd5b5061045160165481565b3480156104b557600080fd5b5061045160175481565b3480156104cb57600080fd5b506104516104da36600461366c565b610db9565b3480156104eb57600080fd5b506103656104fa3660046136a9565b610dcc565b34801561050b57600080fd5b5061045161051a366004613472565b610e29565b34801561052b57600080fd5b5061036561053a366004613472565b610e3e565b34801561054b57600080fd5b5061045161055a3660046136a9565b610eb1565b34801561056b57600080fd5b5061036561057a3660046136ca565b610ebe565b34801561058b57600080fd5b5061045161059a36600461366c565b610edf565b3480156105ab57600080fd5b506103656105ba3660046136ca565b610f3a565b3480156105cb57600080fd5b506008546103bd906001600160a01b031681565b3480156105eb57600080fd5b506103656105fa3660046136a9565b610f70565b34801561060b57600080fd5b5061036561061a366004613472565b610fcd565b34801561062b57600080fd5b5061036561063a3660046136a9565b611040565b34801561064b57600080fd5b506104516000805160206143f083398151915281565b34801561066d57600080fd5b5061036561067c366004613472565b61109d565b34801561068d57600080fd5b5061036561069c3660046136a9565b6110cf565b3480156106ad57600080fd5b506106c16106bc3660046137eb565b61112c565b60405161039496959493929190613825565b3480156106df57600080fd5b506103656106ee366004613472565b6111fb565b3480156106ff57600080fd5b506103df61070e3660046137eb565b61126e565b34801561071f57600080fd5b5061038761072e366004613472565b611338565b34801561073f57600080fd5b5061045161074e366004613472565b611343565b610451610761366004613879565b611391565b34801561077257600080fd5b506103bd610781366004613472565b6113d6565b34801561079257600080fd5b5061045160155481565b6104516107aa3660046136a9565b6113e1565b3480156107bb57600080fd5b506104516107ca3660046136a9565b6113ee565b3480156107db57600080fd5b506104516107ea3660046136a9565b611432565b3480156107fb57600080fd5b5061036561080a3660046136a9565b61152d565b34801561081b57600080fd5b506103df61158a565b34801561083057600080fd5b5061045160185481565b34801561084657600080fd5b5060145461040c906001600160a01b031681565b34801561086657600080fd5b506103876108753660046136a9565b60056020526000908152604090205460ff1681565b34801561089657600080fd5b506103656108a5366004613472565b611610565b3480156108b657600080fd5b506108ca6108c5366004613472565b611683565b6040516103949190613983565b3480156108e357600080fd5b506103656108f23660046136a9565b611733565b34801561090357600080fd5b5061045160095481565b34801561091957600080fd5b506103876109283660046136ca565b6117cf565b34801561093957600080fd5b506103bd6109483660046137eb565b6117f8565b34801561095957600080fd5b506103df6109683660046136a9565b6118b9565b34801561097957600080fd5b506103656109883660046136a9565b6118d1565b34801561099957600080fd5b506103df611a3e565b3480156109ae57600080fd5b506103876109bd3660046137eb565b611a4d565b6104516109d0366004613994565b611af9565b3480156109e157600080fd5b506003546103bd906001600160a01b031681565b348015610a0157600080fd5b506007546103bd906001600160a01b031681565b348015610a2157600080fd5b50610451600081565b348015610a3657600080fd5b50610365610a45366004613472565b611bd8565b348015610a5657600080fd5b50601d546001600160a01b031661040c565b348015610a7457600080fd5b506108ca610a833660046136a9565b611c0c565b348015610a9457600080fd5b5061045160195481565b348015610aaa57600080fd5b50610451610ab9366004613472565b611c68565b348015610aca57600080fd5b506001546103bd906001600160a01b031681565b348015610aea57600080fd5b50610365610af93660046136a9565b611d20565b348015610b0a57600080fd5b506103df610b19366004613472565b611dcc565b348015610b2a57600080fd5b5061045160008051602061441083398151915281565b348015610b4c57600080fd5b50610365610b5b3660046136ca565b611e32565b348015610b6c57600080fd5b50610451600a5481565b348015610b8257600080fd5b50610365610b913660046136a9565b611e4e565b348015610ba257600080fd5b50610bb6610bb13660046136a9565b611eab565b604051610394929190613a40565b348015610bd057600080fd5b506004546103bd906001600160a01b031681565b610451610bf2366004613a5b565b611ecd565b348015610c0357600080fd5b50610365610c12366004613a9c565b611f04565b348015610c2357600080fd5b50610365610c32366004613472565b611f88565b348015610c4357600080fd5b50610365610c52366004613472565b611ffb565b6000610c628161206e565b600954821415610c855760405163c23f6ccb60e01b815260040160405180910390fd5b50600955565b6000610c9682612078565b92915050565b60068181548110610cac57600080fd5b6000918252602090912001546001600160a01b0316905081565b6060600b8054610cd590613ad3565b80601f0160208091040260200160405190810160405280929190818152602001828054610d0190613ad3565b8015610d4e5780601f10610d2357610100808354040283529160200191610d4e565b820191906000526020600020905b815481529060010190602001808311610d3157829003601f168201915b5050505050905090565b60606006805480602002602001604051908101604052809291908181526020018280548015610d4e57602002820191906000526020600020905b81546001600160a01b03168152600190910190602001808311610d92575050505050905090565b6000610dc5838361209d565b9392505050565b6000610dd78161206e565b6003546001600160a01b0383811691161415610e065760405163c23f6ccb60e01b815260040160405180910390fd5b50600380546001600160a01b0319166001600160a01b0392909216919091179055565b60009081526020819052604090206001015490565b610e496000336117cf565b158015610e6b5750610e696000805160206143f0833981519152336117cf565b155b15610e89576040516326f0f48160e01b815260040160405180910390fd5b806017541415610eac5760405163c23f6ccb60e01b815260040160405180910390fd5b601755565b6000610c96826000610edf565b610ec782610e29565b610ed08161206e565b610eda838361210a565b505050565b6000610eea836113ee565b8210610f115760405162461bcd60e51b8152600401610f0890613b48565b60405180910390fd5b506001600160a01b03919091166000908152600f60209081526040808320938352929052205490565b6001600160a01b0381163314610f625760405162461bcd60e51b8152600401610f0890613ba4565b610f6c828261218e565b5050565b6000610f7b8161206e565b6014546001600160a01b0383811691161415610faa5760405163c23f6ccb60e01b815260040160405180910390fd5b50601480546001600160a01b0319166001600160a01b0392909216919091179055565b610fd86000336117cf565b158015610ffa5750610ff86000805160206143f0833981519152336117cf565b155b15611018576040516326f0f48160e01b815260040160405180910390fd5b80601854141561103b5760405163c23f6ccb60e01b815260040160405180910390fd5b601855565b600061104b8161206e565b6001546001600160a01b038381169116141561107a5760405163c23f6ccb60e01b815260040160405180910390fd5b50600180546001600160a01b0319166001600160a01b0392909216919091179055565b6110a733826121f3565b6110c35760405162461bcd60e51b8152600401610f0890613beb565b6110cc81612216565b50565b60006110da8161206e565b6008546001600160a01b03838116911614156111095760405163c23f6ccb60e01b815260040160405180910390fd5b50600880546001600160a01b0319166001600160a01b0392909216919091179055565b601d5460609060009081908190819081906001600160a01b031661116357604051636d9e949f60e01b815260040160405180910390fd5b601d546040516346b2b08760e01b81526001600160a01b03909116906346b2b08790611193908a9060040161357f565b60006040518083038186803b1580156111ab57600080fd5b505afa1580156111bf573d6000803e3d6000fd5b505050506040513d6000823e601f3d908101601f191682016040526111e79190810190613c71565b949c939b5091995097509550909350915050565b6112066000336117cf565b15801561122857506112266000805160206143f0833981519152336117cf565b155b15611246576040516326f0f48160e01b815260040160405180910390fd5b8060165414156112695760405163c23f6ccb60e01b815260040160405180910390fd5b601655565b601d546060906001600160a01b031661129a57604051636d9e949f60e01b815260040160405180910390fd5b601d546040516346b2b08760e01b81526000916001600160a01b0316906346b2b087906112cb90869060040161357f565b60006040518083038186803b1580156112e357600080fd5b505afa1580156112f7573d6000803e3d6000fd5b505050506040513d6000823e601f3d908101601f1916820160405261131f9190810190613c71565b5050509250505061132f81611dcc565b9150505b919050565b6000610c96826122b0565b600061134e60115490565b821061136c5760405162461bcd60e51b8152600401610f0890613d5a565b6011828154811061137f5761137f613d6a565b90600052602060002001549050919050565b601d546000906001600160a01b03166113bd57604051636d9e949f60e01b815260040160405180910390fd5b6113cb600086868686611af9565b90505b949350505050565b6000610c96826122cd565b6000610c96600083611ecd565b60006001600160a01b0382166114165760405162461bcd60e51b8152600401610f0890613dc3565b506001600160a01b03166000908152600e602052604090205490565b600060155460001480156114465750601654155b1561145357506000919050565b6004546001600160a01b03838116911614801561148857506001600160a01b03821660009081526005602052604090205460ff165b801561149657506000601654115b156114a357505060165490565b6003546001600160a01b0383811691161480156114d857506001600160a01b03821660009081526005602052604090205460ff165b156114e557505060155490565b6001600160a01b03821660009081526005602052604090205460ff161561151257610c9682601554612302565b81604051630ac29ab760e31b8152600401610f089190613507565b60006115388161206e565b6004546001600160a01b03838116911614156115675760405163c23f6ccb60e01b815260040160405180910390fd5b50600480546001600160a01b0319166001600160a01b0392909216919091179055565b601d546040805163776ce6a160e01b815290516060926001600160a01b03169163776ce6a1916004808301926000929190829003018186803b1580156115cf57600080fd5b505afa1580156115e3573d6000803e3d6000fd5b505050506040513d6000823e601f3d908101601f1916820160405261160b9190810190613dd3565b905090565b61161b6000336117cf565b15801561163d575061163b6000805160206143f0833981519152336117cf565b155b1561165b576040516326f0f48160e01b815260040160405180910390fd5b80601a54141561167e5760405163c23f6ccb60e01b815260040160405180910390fd5b601a55565b601d546060906001600160a01b03166116af57604051636d9e949f60e01b815260040160405180910390fd5b601d54604051637e66989160e01b81526001600160a01b0390911690637e669891906116df90859060040161364a565b60006040518083038186803b1580156116f757600080fd5b505afa15801561170b573d6000803e3d6000fd5b505050506040513d6000823e601f3d908101601f19168201604052610c969190810190613ecb565b61173e6000336117cf565b158015611760575061175e6000805160206143f0833981519152336117cf565b155b1561177e576040516326f0f48160e01b815260040160405180910390fd5b6007546001600160a01b03828116911614156117ad5760405163c23f6ccb60e01b815260040160405180910390fd5b600780546001600160a01b0319166001600160a01b0392909216919091179055565b6000918252602082815260408084206001600160a01b0393909316845291905290205460ff1690565b601d546000906001600160a01b031661182457604051636d9e949f60e01b815260040160405180910390fd5b601d546040516346b2b08760e01b81526000916001600160a01b0316906346b2b0879061185590869060040161357f565b60006040518083038186803b15801561186d57600080fd5b505afa158015611881573d6000803e3d6000fd5b505050506040513d6000823e601f3d908101601f191682016040526118a99190810190613c71565b5050509250505061132f816122cd565b606060006118c683610eb1565b905061132f81611dcc565b60006118dc8161206e565b6001600160a01b03821660009081526005602052604090205460ff1661191757816040516318317bd560e01b8152600401610f089190613507565b6001600160a01b0382166000908152600560205260408120805460ff191690555b600654811015610eda57826001600160a01b03166006828154811061195f5761195f613d6a565b6000918252602090912001546001600160a01b03161415611a2c576006805461198a90600190613f1b565b8154811061199a5761199a613d6a565b600091825260209091200154600680546001600160a01b0390921691839081106119c6576119c6613d6a565b9060005260206000200160006101000a8154816001600160a01b0302191690836001600160a01b031602179055506006805480611a0557611a05613f32565b600082815260209020810160001990810180546001600160a01b0319169055019055505050565b80611a3681613f48565b915050611938565b6060600c8054610cd590613ad3565b601d546000906001600160a01b0316611a7957604051636d9e949f60e01b815260040160405180910390fd5b601d54604051634b29835560e11b81526001600160a01b039091169063965306aa90611aa990859060040161357f565b60206040518083038186803b158015611ac157600080fd5b505afa158015611ad5573d6000803e3d6000fd5b505050506040513d601f19601f82011682018060405250810190610c969190613f63565b601d546000906001600160a01b0316611b2557604051636d9e949f60e01b815260040160405180910390fd5b611b2d612495565b6000611b398787611ecd565b601d546040516303dd904360e41b81529192506001600160a01b031690633dd9043090611b70908990899089908990600401613f84565b602060405180830381600087803b158015611b8a57600080fd5b505af1158015611b9e573d6000803e3d6000fd5b505050506040513d601f19601f82011682018060405250810190611bc29190613fc5565b509050611bcf6001601c55565b95945050505050565b6000611be38161206e565b600a54821415611c065760405163c23f6ccb60e01b815260040160405180910390fd5b50600a55565b601d546060906001600160a01b0316611c3857604051636d9e949f60e01b815260040160405180910390fd5b601d54604051635bcb1b5b60e11b81526001600160a01b039091169063b79636b6906116df908590600401613507565b6014546000906001600160a01b0316611c9457604051630d7fe67b60e41b815260040160405180910390fd5b6000611c9f836122cd565b60145460405163294cdf0d60e01b81529192506001600160a01b03169063294cdf0d90611cd0908490600401613507565b60206040518083038186803b158015611ce857600080fd5b505afa158015611cfc573d6000803e3d6000fd5b505050506040513d601f19601f8201168201806040525081019061132f9190613fc5565b6000611d2b8161206e565b6001600160a01b03821660009081526005602052604090205460ff1615611d655760405163f411c32760e01b815260040160405180910390fd5b506001600160a01b03166000818152600560205260408120805460ff191660019081179091556006805491820181559091527ff652222313e28459528d920b65115c16c04f3efc82aaedc97be59f3f377c0d3f0180546001600160a01b0319169091179055565b6060611dd7826124bf565b6000611de16124e4565b90506000815111611e01576040518060200160405280600081525061132f565b80611e0b846124f3565b604051602001611e1c929190614008565b6040516020818303038152906040529392505050565b611e3b82610e29565b611e448161206e565b610eda838361218e565b6000611e598161206e565b6002546001600160a01b0383811691161415611e885760405163c23f6ccb60e01b815260040160405180910390fd5b50600280546001600160a01b0319166001600160a01b0392909216919091179055565b600080611eb783611432565b915081611ec4848461209d565b91509150915091565b600080611ed9836113ee565b1115611efa57816040516312d5c31d60e01b8152600401610f089190613507565b610dc5838361258f565b6000611f0f8161206e565b6001600160a01b038216611f365760405163d92e233d60e01b815260040160405180910390fd5b601d546001600160a01b0383811691161415611f655760405163c23f6ccb60e01b815260040160405180910390fd5b50601d80546001600160a01b0319166001600160a01b0392909216919091179055565b611f936000336117cf565b158015611fb55750611fb36000805160206143f0833981519152336117cf565b155b15611fd3576040516326f0f48160e01b815260040160405180910390fd5b806015541415611ff65760405163c23f6ccb60e01b815260040160405180910390fd5b601555565b6120066000336117cf565b15801561202857506120266000805160206143f0833981519152336117cf565b155b15612046576040516326f0f48160e01b815260040160405180910390fd5b8060195414156120695760405163c23f6ccb60e01b815260040160405180910390fd5b601955565b6110cc81336125f3565b60006001600160e01b0319821663780e9d6360e01b1480610c965750610c968261264c565b6009546000908190156120d8576003546001600160a01b03858116911614156120c957506009546120d8565b6120d584600954612302565b90505b600a5415610dc5576113ce61210360646120fd600a548761268c90919063ffffffff16565b90612698565b82906126a4565b61211482826117cf565b610f6c576000828152602081815260408083206001600160a01b03851684529091529020805460ff1916600117905561214a3390565b6001600160a01b0316816001600160a01b0316837f2f8788117e7eff1d82e926ec794901d17c78024a50270940304540a733656f0d60405160405180910390a45050565b61219882826117cf565b15610f6c576000828152602081815260408083206001600160a01b0385168085529252808320805460ff1916905551339285917ff6391f5c32d9c69d2a47ea670b442974b53935d1edc7fd64eb21e047a839171b9190a45050565b6000806121ff836122cd565b6001600160a01b0385811691161491505092915050565b6000612221826122cd565b905061222f816000846126b0565b6001600160a01b0381166000908152600e60205260408120805460019290612258908490613f1b565b90915550506000828152600d602052604080822080546001600160a01b03191690555183916001600160a01b038416917fcc16f5dbb4873280815c1ee09dbd06736cffcc184412cf7a71a0fdb75d397ca59190a35050565b6000908152600d60205260409020546001600160a01b0316151590565b6000818152600d60205260408120546001600160a01b031680610c965760405162461bcd60e51b8152600401610f0890614062565b60008160008111801561231e57506001546001600160a01b0316155b1561233c5760405163fca2174f60e01b815260040160405180910390fd5b60008111801561235557506002546001600160a01b0316155b156123735760405163fca2174f60e01b815260040160405180910390fd5b60008111801561238c57506003546001600160a01b0316155b156123aa5760405163fca2174f60e01b815260040160405180910390fd5b6000811180156123c357506007546001600160a01b0316155b156123e15760405163fca2174f60e01b815260040160405180910390fd5b6001600160a01b03841660009081526005602052604090205460ff16158061241657506003546001600160a01b038581169116145b15612436578360405163961c9a4f60e01b8152600401610f089190613507565b82612444576000915061248e565b6001600160a01b0384166124765760025460035461246f916001600160a01b039081169116856126bb565b915061248e565b60035461246f9085906001600160a01b0316856126bb565b5092915050565b6002601c5414156124b85760405162461bcd60e51b8152600401610f08906140a6565b6002601c55565b6124c8816122b0565b6110cc5760405162461bcd60e51b8152600401610f0890614062565b606060138054610cd590613ad3565b6060600061250083612779565b60010190506000816001600160401b0381111561251f5761251f6136fd565b6040519080825280601f01601f191660200182016040528015612549576020820181803683370190505b5090508181016020015b600019016f181899199a1a9b1b9c1cb0b131b232b360811b600a86061a8153600a850494508461258257612587565b612553565b509392505050565b60006000805160206144108339815191526125a98161206e565b6000806125b586611eab565b915091506125c486838361284f565b60006125cf601b5490565b90506125df601b80546001019055565b6125e98682612c0c565b9695505050505050565b6125fd82826117cf565b610f6c5761260a81612ce8565b612615836020612cfa565b6040516020016126269291906140cc565b60408051601f198184030181529082905262461bcd60e51b8252610f089160040161357f565b60006001600160e01b031982166313f2a32f60e01b148061267d57506001600160e01b03198216635b5e139f60e01b145b80610c965750610c9682612e65565b6000610dc5828461411e565b6000610dc5828461413d565b6000610dc58284614151565b610eda838383612e9a565b60006060806126ca8686612f52565b6001546040516307c0329d60e21b81529192506001600160a01b031690631f00ca74906126fd9087908590600401614169565b60006040518083038186803b15801561271557600080fd5b505afa158015612729573d6000803e3d6000fd5b505050506040513d6000823e601f3d908101601f1916820160405261275191908101906141fe565b91508160008151811061276657612766613d6a565b6020026020010151925050509392505050565b60008072184f03e93ff9f4daa797ed6e38ed64bf6a1f0160401b83106127b85772184f03e93ff9f4daa797ed6e38ed64bf6a1f0160401b830492506040015b6904ee2d6d415b85acef8160201b83106127e2576904ee2d6d415b85acef8160201b830492506020015b662386f26fc10000831061280057662386f26fc10000830492506010015b6305f5e1008310612818576305f5e100830492506008015b612710831061282c57612710830492506004015b6064831061283e576064830492506002015b600a8310610c965760010192915050565b61285982826126a4565b60008111801561287257506001546001600160a01b0316155b156128905760405163fca2174f60e01b815260040160405180910390fd5b6000811180156128a957506002546001600160a01b0316155b156128c75760405163fca2174f60e01b815260040160405180910390fd5b6000811180156128e057506003546001600160a01b0316155b156128fe5760405163fca2174f60e01b815260040160405180910390fd5b60008111801561291757506007546001600160a01b0316155b156129355760405163fca2174f60e01b815260040160405180910390fd5b82158015612941575081155b1561294b57612c06565b60008211801561296457506008546001600160a01b0316155b156129825760405163910af6f560e01b815260040160405180910390fd5b6001600160a01b03841660009081526005602052604090205460ff166129bd5783604051630ac29ab760e31b8152600401610f089190613507565b6001600160a01b038416612bc2576129d583836126a4565b341015612a00576129e683836126a4565b60405163091a6d0f60e01b8152600401610f08919061364a565b8215612a8a576007546040516000916001600160a01b0316908590612a2490614238565b60006040518083038185875af1925050503d8060008114612a61576040519150601f19603f3d011682016040523d82523d6000602084013e612a66565b606091505b5050905080612a88576040516312171d8360e31b815260040160405180910390fd5b505b8115612b14576008546040516000916001600160a01b0316908490612aae90614238565b60006040518083038185875af1925050503d8060008114612aeb576040519150601f19603f3d011682016040523d82523d6000602084013e612af0565b606091505b5050905080612b12576040516312171d8360e31b815260040160405180910390fd5b505b612b1e83836126a4565b341115612bbd576000612b3b612b3485856126a4565b34906130e4565b90506000336001600160a01b031682604051612b5690614238565b60006040518083038185875af1925050503d8060008114612b93576040519150601f19603f3d011682016040523d82523d6000602084013e612b98565b606091505b5050905080612bba57604051633c31275160e21b815260040160405180910390fd5b50505b612c06565b8215612be457600754612be4906001600160a01b0386811691339116866130f0565b8115612c0657600854612c06906001600160a01b0386811691339116856130f0565b50505050565b6001600160a01b038216612c325760405162461bcd60e51b8152600401610f0890614277565b612c3b816122b0565b15612c585760405162461bcd60e51b8152600401610f08906142b7565b612c64600083836126b0565b6001600160a01b0382166000908152600e60205260408120805460019290612c8d908490614151565b90915550506000818152600d602052604080822080546001600160a01b0319166001600160a01b038616908117909155905183927f0f6798a560793a54c3bcfe86a93cde1e73087d944c0ea20544137d412139688591a35050565b6060610c966001600160a01b03831660145b60606000612d0983600261411e565b612d14906002614151565b6001600160401b03811115612d2b57612d2b6136fd565b6040519080825280601f01601f191660200182016040528015612d55576020820181803683370190505b509050600360fc1b81600081518110612d7057612d70613d6a565b60200101906001600160f81b031916908160001a905350600f60fb1b81600181518110612d9f57612d9f613d6a565b60200101906001600160f81b031916908160001a9053506000612dc384600261411e565b612dce906001614151565b90505b6001811115612e46576f181899199a1a9b1b9c1cb0b131b232b360811b85600f1660108110612e0257612e02613d6a565b1a60f81b828281518110612e1857612e18613d6a565b60200101906001600160f81b031916908160001a90535060049490941c93612e3f816142c7565b9050612dd1565b508315610dc55760405162461bcd60e51b8152600401610f0890614310565b60006001600160e01b03198216637965db0b60e01b1480610c9657506301ffc9a760e01b6001600160e01b0319831614610c96565b6001600160a01b038316612ef557612ef081601180546000838152601260205260408120829055600182018355919091527f31ecc21a745e3968a04e9570e4425bc18fa8019c68028196b546d1669c200c680155565b612f18565b816001600160a01b0316836001600160a01b031614612f1857612f188382613148565b6001600160a01b038216612f2f57610eda816131e5565b826001600160a01b0316826001600160a01b031614610eda57610eda8282613294565b6002546060906001600160a01b0384811691161480612f7e57506002546001600160a01b038381169116145b1561304857604080516002808252606082018352600092602083019080368337019050506002549091506001600160a01b03858116911614612fc05783612fcd565b6002546001600160a01b03165b81600081518110612fe057612fe0613d6a565b6001600160a01b0392831660209182029290920101526002548482169116146130095782613016565b6002546001600160a01b03165b8160018151811061302957613029613d6a565b6001600160a01b03909216602092830291909101909101529050610c96565b6040805160038082526080820190925260009160208201606080368337019050509050838160008151811061307f5761307f613d6a565b6001600160a01b0392831660209182029290920101526002548251911690829060019081106130b0576130b0613d6a565b60200260200101906001600160a01b031690816001600160a01b031681525050828160028151811061302957613029613d6a565b6000610dc58284613f1b565b612c06846323b872dd60e01b85858560405160240161311193929190614320565b60408051601f198184030181529190526020810180516001600160e01b03166001600160e01b0319909316929092179091526132d8565b60006001613155846113ee565b61315f9190613f1b565b6000838152601060205260409020549091508082146131b2576001600160a01b0384166000908152600f602090815260408083208584528252808320548484528184208190558352601090915290208190555b5060009182526010602090815260408084208490556001600160a01b039094168352600f81528383209183525290812055565b6011546000906131f790600190613f1b565b6000838152601260205260408120546011805493945090928490811061321f5761321f613d6a565b90600052602060002001549050806011838154811061324057613240613d6a565b600091825260208083209091019290925582815260129091526040808220849055858252812055601180548061327857613278613f32565b6001900381819060005260206000200160009055905550505050565b600061329f836113ee565b6001600160a01b039093166000908152600f60209081526040808320868452825280832085905593825260109052919091209190915550565b600061332d826040518060400160405280602081526020017f5361666545524332303a206c6f772d6c6576656c2063616c6c206661696c6564815250856001600160a01b031661336a9092919063ffffffff16565b905080516000148061334e57508080602001905181019061334e9190613f63565b610eda5760405162461bcd60e51b8152600401610f089061438f565b60606113ce848460008585600080866001600160a01b03168587604051613391919061439f565b60006040518083038185875af1925050503d80600081146133ce576040519150601f19603f3d011682016040523d82523d6000602084013e6133d3565b606091505b50915091506133e4878383876133ef565b979650505050505050565b6060831561342b578251613424576001600160a01b0385163b6134245760405162461bcd60e51b8152600401610f08906143df565b50816113ce565b6113ce83838151156134405781518083602001fd5b8060405162461bcd60e51b8152600401610f08919061357f565b805b81146110cc57600080fd5b8035610c968161345a565b60006020828403121561348757613487600080fd5b60006113ce8484613467565b6001600160e01b0319811661345c565b8035610c9681613493565b6000602082840312156134c3576134c3600080fd5b60006113ce84846134a3565b8015155b82525050565b60208101610c9682846134cf565b6001600160a01b031690565b6000610c96826134e7565b6134d3816134f3565b60208101610c9682846134fe565b60005b83811015613530578181015183820152602001613518565b83811115612c065750506000910152565b601f01601f191690565b6000613555825190565b80845260208401935061356c818560208601613515565b61357581613541565b9093019392505050565b60208082528101610dc5818461354b565b6000610c966135a46135a1846134e7565b90565b6134e7565b6000610c9682613590565b6000610c96826135a9565b6134d3816135b4565b60208101610c9682846135bf565b60006135e283836134fe565b505060200190565b60006135f4825190565b80845260209384019383018060005b8381101561362857815161361788826135d6565b975060208301925050600101613603565b509495945050505050565b60208082528101610dc581846135ea565b806134d3565b60208101610c968284613644565b61345c816134f3565b8035610c9681613658565b6000806040838503121561368257613682600080fd5b600061368e8585613661565b925050602061369f85828601613467565b9150509250929050565b6000602082840312156136be576136be600080fd5b60006113ce8484613661565b600080604083850312156136e0576136e0600080fd5b60006136ec8585613467565b925050602061369f85828601613661565b634e487b7160e01b600052604160045260246000fd5b61371c82613541565b81018181106001600160401b0382111715613739576137396136fd565b6040525050565b600061374b60405190565b90506113338282613713565b60006001600160401b03821115613770576137706136fd565b61377982613541565b60200192915050565b82818337506000910152565b60006137a161379c84613757565b613740565b9050828152602081018484840111156137bc576137bc600080fd5b612587848285613782565b600082601f8301126137db576137db600080fd5b81356113ce84826020860161378e565b60006020828403121561380057613800600080fd5b81356001600160401b0381111561381957613819600080fd5b6113ce848285016137c7565b60c08082528101613836818961354b565b905061384560208301886134cf565b6138526040830187613644565b61385f6060830186613644565b61386c6080830185613644565b6133e460a08301846134cf565b6000806000806080858703121561389257613892600080fd5b600061389e8787613661565b94505060208501356001600160401b038111156138bd576138bd600080fd5b6138c9878288016137c7565b93505060406138da87828801613467565b92505060608501356001600160401b038111156138f9576138f9600080fd5b613905878288016137c7565b91505092959194509250565b6000610dc5838361354b565b6000613927825190565b808452602084019350836020820285016139418560200190565b8060005b85811015613976578484038952815161395e8582613911565b94506020830160209a909a0199925050600101613945565b5091979650505050505050565b60208082528101610dc5818461391d565b600080600080600060a086880312156139af576139af600080fd5b60006139bb8888613661565b95505060206139cc88828901613661565b94505060408601356001600160401b038111156139eb576139eb600080fd5b6139f7888289016137c7565b9350506060613a0888828901613467565b92505060808601356001600160401b03811115613a2757613a27600080fd5b613a33888289016137c7565b9150509295509295909350565b60408101613a4e8285613644565b610dc56020830184613644565b60008060408385031215613a7157613a71600080fd5b60006136ec8585613661565b6000610c96826134f3565b61345c81613a7d565b8035610c9681613a88565b600060208284031215613ab157613ab1600080fd5b60006113ce8484613a91565b634e487b7160e01b600052602260045260246000fd5b600281046001821680613ae757607f821691505b60208210811415613afa57613afa613abd565b50919050565b602881526000602082017f534254456e756d657261626c653a206f776e657220696e646578206f7574206f8152676620626f756e647360c01b602082015291505b5060400190565b60208082528101610c9681613b00565b602f81526000602082017f416363657373436f6e74726f6c3a2063616e206f6e6c792072656e6f756e636581526e103937b632b9903337b91039b2b63360891b60208201529150613b41565b60208082528101610c9681613b58565b601e81526000602082017f5342543a2063616c6c6572206973206e6f7420746f6b656e206f776e65720000815291505b5060200190565b60208082528101610c9681613bb4565b6000613c0961379c84613757565b905082815260208101848484011115613c2457613c24600080fd5b612587848285613515565b600082601f830112613c4357613c43600080fd5b81516113ce848260208601613bfb565b80151561345c565b8051610c9681613c53565b8051610c968161345a565b60008060008060008060c08789031215613c8d57613c8d600080fd5b86516001600160401b03811115613ca657613ca6600080fd5b613cb289828a01613c2f565b9650506020613cc389828a01613c5b565b9550506040613cd489828a01613c66565b9450506060613ce589828a01613c66565b9350506080613cf689828a01613c66565b92505060a0613d0789828a01613c5b565b9150509295509295509295565b602981526000602082017f534254456e756d657261626c653a20676c6f62616c20696e646578206f7574208152686f6620626f756e647360b81b60208201529150613b41565b60208082528101610c9681613d14565b634e487b7160e01b600052603260045260246000fd5b602681526000602082017f5342543a2061646472657373207a65726f206973206e6f7420612076616c69648152651037bbb732b960d11b60208201529150613b41565b60208082528101610c9681613d80565b600060208284031215613de857613de8600080fd5b81516001600160401b03811115613e0157613e01600080fd5b6113ce84828501613c2f565b60006001600160401b03821115613e2657613e266136fd565b5060209081020190565b6000613e3e61379c84613e0d565b83815290506020808201908402830185811115613e5d57613e5d600080fd5b835b81811015613e9d5780516001600160401b03811115613e8057613e80600080fd5b808601613e8d8982613c2f565b8552505060209283019201613e5f565b5050509392505050565b600082601f830112613ebb57613ebb600080fd5b81516113ce848260208601613e30565b600060208284031215613ee057613ee0600080fd5b81516001600160401b03811115613ef957613ef9600080fd5b6113ce84828501613ea7565b634e487b7160e01b600052601160045260246000fd5b600082821015613f2d57613f2d613f05565b500390565b634e487b7160e01b600052603160045260246000fd5b6000600019821415613f5c57613f5c613f05565b5060010190565b600060208284031215613f7857613f78600080fd5b60006113ce8484613c5b565b60808101613f9282876134fe565b8181036020830152613fa4818661354b565b9050613fb36040830185613644565b81810360608301526125e9818461354b565b600060208284031215613fda57613fda600080fd5b60006113ce8484613c66565b6000613ff0825190565b613ffe818560208601613515565b9290920192915050565b60006140148285613fe6565b91506140208284613fe6565b64173539b7b760d91b81529150600582016113ce565b601581526000602082017414d0950e881a5b9d985b1a59081d1bdad95b881251605a1b81529150613be4565b60208082528101610c9681614036565b601f81526000602082017f5265656e7472616e637947756172643a207265656e7472616e742063616c6c0081529150613be4565b60208082528101610c9681614072565b634e487b7160e01b600052601260045260246000fd5b76020b1b1b2b9b9a1b7b73a3937b61d1030b1b1b7bab73a1604d1b815260170160006140f88285613fe6565b7001034b99036b4b9b9b4b733903937b6329607d1b815260110191506113ce8284613fe6565b600081600019048311821515161561413857614138613f05565b500290565b60008261414c5761414c6140b6565b500490565b6000821982111561416457614164613f05565b500190565b604081016141778285613644565b81810360208301526113ce81846135ea565b600061419761379c84613e0d565b838152905060208082019084028301858111156141b6576141b6600080fd5b835b81811015613e9d57806141cb8882613c66565b845250602092830192016141b8565b600082601f8301126141ee576141ee600080fd5b81516113ce848260208601614189565b60006020828403121561421357614213600080fd5b81516001600160401b0381111561422c5761422c600080fd5b6113ce848285016141da565b6000610c96826135a1565b601d81526000602082017f5342543a206d696e7420746f20746865207a65726f206164647265737300000081529150613be4565b60208082528101610c9681614243565b601981526000602082017814d0950e881d1bdad95b88185b1c9958591e481b5a5b9d1959603a1b81529150613be4565b60208082528101610c9681614287565b6000816142d6576142d6613f05565b506000190190565b60208082527f537472696e67733a20686578206c656e67746820696e73756666696369656e7491019081526000613be4565b60208082528101610c96816142de565b6060810161432e82866134fe565b61433b60208301856134fe565b6113ce6040830184613644565b602a81526000602082017f5361666545524332303a204552433230206f7065726174696f6e20646964206e8152691bdd081cdd58d8d9595960b21b60208201529150613b41565b60208082528101610c9681614348565b6000610dc58284613fe6565b601d81526000602082017f416464726573733a2063616c6c20746f206e6f6e2d636f6e747261637400000081529150613be4565b60208082528101610c96816143ab56fe52eafc11f6f81f86878bffd31109a0d92f37506527754f00788853ff9f63b1309f2df0fed2c77648de5860a4cc508cd0818c85b8b8a1ab4ceeef8d981c8956a6a264697066735822122094be9ca07f525fe081d63af8a10cd91cf70af2905dc64ef7eb5fa4f97439466764736f6c63430008080033",
  "devdoc": {
    "author": "Masa Finance",
    "details": "Soulbound identity, that inherits from the SBT contract.",
    "kind": "dev",
    "methods": {
      "balanceOf(address)": {
        "details": "See {ISBT-balanceOf}."
      },
      "burn(uint256)": {
        "details": "Burns `tokenId`. See {SBT-_burn}. Requirements: - The caller must own `tokenId` or be an approved operator."
      },
      "constructor": {
        "details": "Creates a new soulbound identity, inheriting from the SBT contract.",
        "params": {
          "admin": "Administrator of the smart contract",
          "baseTokenURI": "Base URI of the token",
          "name": "Name of the token",
          "paymentParams": "Payment gateway params",
          "symbol": "Symbol of the token"
        }
      },
      "disablePaymentMethod(address)": {
        "details": "The caller must have the admin role to call this function",
        "params": {
          "_paymentMethod": "Token to remove"
        }
      },
      "enablePaymentMethod(address)": {
        "details": "The caller must have the admin role to call this function",
        "params": {
          "_paymentMethod": "New token to add"
        }
      },
      "exists(uint256)": {
        "details": "Returns true if the token has been minted",
        "params": {
          "tokenId": "Token to check"
        },
        "returns": {
          "_0": "True if the token exists"
        }
      },
      "getEnabledPaymentMethods()": {
        "details": "Returns the address of all available payment methods",
        "returns": {
          "_0": "Array of all enabled payment methods"
        }
      },
      "getExtension()": {
        "details": "This function returns the extension of the soul name",
        "returns": {
          "_0": "Extension of the soul name"
        }
      },
      "getIdentityId(uint256)": {
        "params": {
          "tokenId": "Id of the token"
        },
        "returns": {
          "_0": "Id of the identity"
        }
      },
      "getMintPrice(address)": {
        "details": "Returns current pricing for minting",
        "params": {
          "paymentMethod": "Address of token that user want to pay"
        },
        "returns": {
          "price": "Current price for minting in the given payment method"
        }
      },
      "getMintPriceWithProtocolFee(address)": {
        "details": "Returns current pricing for minting with protocol fee",
        "params": {
          "paymentMethod": "Address of token that user want to pay"
        },
        "returns": {
          "price": "Current price for minting in the given payment method",
          "protocolFee": "Current protocol fee for minting in the given payment method"
        }
      },
      "getProtocolFee(address,uint256)": {
        "details": "This method will calculate the protocol fee based on the payment method",
        "params": {
          "amount": "Price to be paid in the specified payment method",
          "paymentMethod": "Address of token that user want to pay"
        }
      },
      "getRoleAdmin(bytes32)": {
        "details": "Returns the admin role that controls `role`. See {grantRole} and {revokeRole}. To change a role's admin, use {_setRoleAdmin}."
      },
      "getSoulName()": {
        "details": "This function returns the address of the SoulName contract linked to this identity",
        "returns": {
          "_0": "Address of the SoulName contract"
        }
      },
      "getSoulNames(address)": {
        "details": "This function queries all the identity names of the specified account",
        "params": {
          "owner": "Address of the owner of the identities"
        },
        "returns": {
          "sbtNames": "Array of soul names associated to the account"
        }
      },
      "getSoulNames(uint256)": {
        "details": "This function queries all the identity names of the specified identity Id",
        "params": {
          "tokenId": "TokenId of the identity"
        },
        "returns": {
          "sbtNames": "Array of soul names associated to the identity Id"
        }
      },
      "getTokenData(string)": {
        "details": "This function queries the information of a soul name",
        "params": {
          "name": "Name of the soul name"
        },
        "returns": {
          "active": "`true` if the soul name is active, `false` otherwise",
          "expirationDate": "Expiration date of the soul name",
          "identityId": "Identity id of the soul name",
          "linked": "`true` if the soul name is linked, `false` otherwise",
          "sbtName": "Soul name, in upper/lower case and extension",
          "tokenId": "SoulName id of the soul name"
        }
      },
      "grantRole(bytes32,address)": {
        "details": "Grants `role` to `account`. If `account` had not been already granted `role`, emits a {RoleGranted} event. Requirements: - the caller must have ``role``'s admin role. May emit a {RoleGranted} event."
      },
      "hasRole(bytes32,address)": {
        "details": "Returns `true` if `account` has been granted `role`."
      },
      "isAvailable(string)": {
        "details": "This function queries if a soul name already exists and is in the available state",
        "params": {
          "name": "Name of the soul name"
        },
        "returns": {
          "available": "`true` if the soul name is available, `false` otherwise"
        }
      },
      "mint(address)": {
        "details": "The caller can only mint one identity per address",
        "params": {
          "to": "Address of the owner of the new identity"
        },
        "returns": {
          "_0": "The identity ID of the newly minted identity"
        }
      },
      "mint(address,address)": {
        "details": "The caller can only mint one identity per address",
        "params": {
          "paymentMethod": "Address of the payment method to use",
          "to": "Address of the owner of the new identity"
        },
        "returns": {
          "_0": "The identity ID of the newly minted identity"
        }
      },
      "mintIdentityWithName(address,address,string,uint256,string)": {
        "details": "The caller can only mint one identity per address, and the name must be unique",
        "params": {
          "_tokenURI": "URI of the NFT",
          "name": "Name of the new identity",
          "paymentMethod": "Address of the payment method to use",
          "to": "Address of the owner of the new identity",
          "yearsPeriod": "Years of validity of the name"
        }
      },
      "mintIdentityWithName(address,string,uint256,string)": {
        "details": "The caller can only mint one identity per address, and the name must be unique",
        "params": {
          "_tokenURI": "URI of the NFT",
          "name": "Name of the new identity",
          "to": "Address of the owner of the new identity",
          "yearsPeriod": "Years of validity of the name"
        }
      },
      "name()": {
        "details": "See {ISBTMetadata-name}."
      },
      "ownerOf(string)": {
        "details": "This function returns the owner address of the soul name identity specified by the name",
        "params": {
          "name": "Name of the soul name"
        },
        "returns": {
          "_0": "Address of the owner of the identity"
        }
      },
      "ownerOf(uint256)": {
        "details": "This function returns the owner address of the identity specified by the tokenId",
        "params": {
          "tokenId": "TokenId of the identity"
        },
        "returns": {
          "_0": "Address of the owner of the identity"
        }
      },
      "renounceRole(bytes32,address)": {
        "details": "Revokes `role` from the calling account. Roles are often managed via {grantRole} and {revokeRole}: this function's purpose is to provide a mechanism for accounts to lose their privileges if they are compromised (such as when a trusted device is misplaced). If the calling account had been revoked `role`, emits a {RoleRevoked} event. Requirements: - the caller must be `account`. May emit a {RoleRevoked} event."
      },
      "revokeRole(bytes32,address)": {
        "details": "Revokes `role` from `account`. If `account` had been granted `role`, emits a {RoleRevoked} event. Requirements: - the caller must have ``role``'s admin role. May emit a {RoleRevoked} event."
      },
      "setAddLinkPrice(uint256)": {
        "details": "The caller must have the admin or project admin role to call this function",
        "params": {
          "_addLinkPrice": "New price for adding the link in SoulLinker in stable coin"
        }
      },
      "setAddLinkPriceMASA(uint256)": {
        "details": "The caller must have the admin or project admin role to call this function",
        "params": {
          "_addLinkPriceMASA": "New price for adding the link in SoulLinker in MASA"
        }
      },
      "setMasaToken(address)": {
        "details": "The caller must have the admin role to call this function It can be set to address(0) to disable paying in MASA",
        "params": {
          "_masaToken": "New utility token to pay the fee in"
        }
      },
      "setMintPrice(uint256)": {
        "details": "The caller must have the admin or project admin role to call this function",
        "params": {
          "_mintPrice": "New price of minting in stable coin"
        }
      },
      "setMintPriceMASA(uint256)": {
        "details": "The caller must have the admin or project admin role to call this function",
        "params": {
          "_mintPriceMASA": "New price of minting in MASA"
        }
      },
      "setProjectFeeReceiver(address)": {
        "details": "The caller must have the admin or project admin role to call this function",
        "params": {
          "_projectFeeReceiver": "New project fee receiver wallet"
        }
      },
      "setProtocolFeeAmount(uint256)": {
        "details": "The caller must have the admin role to call this function",
        "params": {
          "_protocolFeeAmount": "New protocol fee amount"
        }
      },
      "setProtocolFeePercent(uint256)": {
        "details": "The caller must have the admin role to call this function",
        "params": {
          "_protocolFeePercent": "New protocol fee percent"
        }
      },
      "setProtocolFeeReceiver(address)": {
        "details": "The caller must have the admin role to call this function",
        "params": {
          "_protocolFeeReceiver": "New protocol fee wallet"
        }
      },
      "setQueryLinkPrice(uint256)": {
        "details": "The caller must have the admin or project admin role to call this function",
        "params": {
          "_queryLinkPrice": "New price for reading data in SoulLinker in stable coin"
        }
      },
      "setQueryLinkPriceMASA(uint256)": {
        "details": "The caller must have the admin or project admin role to call this function",
        "params": {
          "_queryLinkPriceMASA": "New price for reading data in SoulLinker in MASA"
        }
      },
      "setSoulName(address)": {
        "details": "The caller must have the admin role to call this function",
        "params": {
          "_soulName": "Address of the SoulName contract"
        }
      },
      "setSoulboundIdentity(address)": {
        "details": "The caller must be the admin to call this function",
        "params": {
          "_soulboundIdentity": "Address of the SoulboundIdentity contract"
        }
      },
      "setStableCoin(address)": {
        "details": "The caller must have the admin role to call this function",
        "params": {
          "_stableCoin": "New stable coin to pay the fee in"
        }
      },
      "setSwapRouter(address)": {
        "details": "The caller must have the admin role to call this function",
        "params": {
          "_swapRouter": "New swap router address"
        }
      },
      "setWrappedNativeToken(address)": {
        "details": "The caller must have the admin role to call this function",
        "params": {
          "_wrappedNativeToken": "New wrapped native token address"
        }
      },
      "supportsInterface(bytes4)": {
        "details": "Interface identification is specified in ERC-165.",
        "params": {
          "interfaceId": "The interface identifier, as specified in ERC-165"
        },
        "returns": {
          "_0": "`true` if the contract implements `interfaceId` and  `interfaceId` is not 0xffffffff, `false` otherwise"
        }
      },
      "symbol()": {
        "details": "See {ISBTMetadata-symbol}."
      },
      "tokenByIndex(uint256)": {
        "details": "See {ISBTEnumerable-tokenByIndex}."
      },
      "tokenOfOwner(address)": {
        "details": "This function returns the tokenId of the identity owned by an account",
        "params": {
          "owner": "Address of the owner of the identity"
        },
        "returns": {
          "_0": "TokenId of the identity owned by the account"
        }
      },
      "tokenOfOwnerByIndex(address,uint256)": {
        "details": "See {ISBTEnumerable-tokenOfOwnerByIndex}."
      },
      "tokenURI(address)": {
        "details": "This function returns the token URI of the identity owned by an account",
        "params": {
          "owner": "Address of the owner of the identity"
        },
        "returns": {
          "_0": "URI of the identity owned by the account"
        }
      },
      "tokenURI(string)": {
        "details": "This function returns the token URI of the soul name identity specified by the name",
        "params": {
          "name": "Name of the soul name"
        },
        "returns": {
          "_0": "URI of the identity associated to a soul name"
        }
      },
      "tokenURI(uint256)": {
        "details": "Throws if `_tokenId` is not a valid SBT. URIs are defined in RFC  3986. The URI may point to a JSON file that conforms to the \"ERC721  Metadata JSON Schema\".",
        "params": {
          "tokenId": "SBT to get the URI of"
        },
        "returns": {
          "_0": "URI of the SBT"
        }
      },
      "totalSupply()": {
        "details": "See {ISBTEnumerable-totalSupply}."
      }
    },
    "title": "Soulbound Identity",
    "version": 1
  },
  "userdoc": {
    "kind": "user",
    "methods": {
      "constructor": {
        "notice": "Creates a new soulbound identity"
      },
      "disablePaymentMethod(address)": {
        "notice": "Removes a token as a valid payment method"
      },
      "enablePaymentMethod(address)": {
        "notice": "Adds a new token as a valid payment method"
      },
      "exists(uint256)": {
        "notice": "Returns true if the token exists"
      },
      "getEnabledPaymentMethods()": {
        "notice": "Returns all available payment methods"
      },
      "getExtension()": {
        "notice": "Returns the extension of the soul name"
      },
      "getIdentityId(uint256)": {
        "notice": "Returns the identityId owned by the given token"
      },
      "getMintPrice(address)": {
        "notice": "Returns the price for minting"
      },
      "getMintPriceWithProtocolFee(address)": {
        "notice": "Returns the price for minting with protocol fee"
      },
      "getProtocolFee(address,uint256)": {
        "notice": "Calculates the protocol fee"
      },
      "getSoulName()": {
        "notice": "Returns the address of the SoulName contract linked to this identity"
      },
      "getSoulNames(address)": {
        "notice": "Returns all the active soul names of an account"
      },
      "getSoulNames(uint256)": {
        "notice": "Returns all the active soul names of an account"
      },
      "getTokenData(string)": {
        "notice": "Returns the information of a soul name"
      },
      "isAvailable(string)": {
        "notice": "Checks if a soul name is available"
      },
      "mint(address)": {
        "notice": "Mints a new soulbound identity"
      },
      "mint(address,address)": {
        "notice": "Mints a new soulbound identity"
      },
      "mintIdentityWithName(address,address,string,uint256,string)": {
        "notice": "Mints a new soulbound identity with a SoulName associated to it"
      },
      "mintIdentityWithName(address,string,uint256,string)": {
        "notice": "Mints a new soulbound identity with a SoulName associated to it"
      },
      "ownerOf(string)": {
        "notice": "Returns the owner address of a soul name"
      },
      "ownerOf(uint256)": {
        "notice": "Returns the owner address of an identity"
      },
      "setAddLinkPrice(uint256)": {
        "notice": "Sets the price for adding the link in SoulLinker in stable coin"
      },
      "setAddLinkPriceMASA(uint256)": {
        "notice": "Sets the price for adding the link in SoulLinker in MASA"
      },
      "setMasaToken(address)": {
        "notice": "Sets the utility token to pay the fee in (MASA)"
      },
      "setMintPrice(uint256)": {
        "notice": "Sets the price of minting in stable coin"
      },
      "setMintPriceMASA(uint256)": {
        "notice": "Sets the price of minting in MASA"
      },
      "setProjectFeeReceiver(address)": {
        "notice": "Set the project fee receiver wallet"
      },
      "setProtocolFeeAmount(uint256)": {
        "notice": "Set the protocol fee amount"
      },
      "setProtocolFeePercent(uint256)": {
        "notice": "Set the protocol fee percent"
      },
      "setProtocolFeeReceiver(address)": {
        "notice": "Set the protocol fee wallet"
      },
      "setQueryLinkPrice(uint256)": {
        "notice": "Sets the price for reading data in SoulLinker in stable coin"
      },
      "setQueryLinkPriceMASA(uint256)": {
        "notice": "Sets the price for reading data in SoulLinker in MASA"
      },
      "setSoulName(address)": {
        "notice": "Sets the SoulName contract address linked to this identity"
      },
      "setSoulboundIdentity(address)": {
        "notice": "Sets the SoulboundIdentity contract address linked to this SBT"
      },
      "setStableCoin(address)": {
        "notice": "Sets the stable coin to pay the fee in (USDC)"
      },
      "setSwapRouter(address)": {
        "notice": "Sets the swap router address"
      },
      "setWrappedNativeToken(address)": {
        "notice": "Sets the wrapped native token address"
      },
      "supportsInterface(bytes4)": {
        "notice": "Query if a contract implements an interface"
      },
      "tokenOfOwner(address)": {
        "notice": "Returns the identity id of an account"
      },
      "tokenURI(address)": {
        "notice": "Returns the URI of the owner of an identity"
      },
      "tokenURI(string)": {
        "notice": "Returns the URI of a soul name"
      },
      "tokenURI(uint256)": {
        "notice": "A distinct Uniform Resource Identifier (URI) for a given asset."
      }
    },
    "notice": "Soulbound token that represents an identity.",
    "version": 1
  },
  "storageLayout": {
    "storage": [
      {
        "astId": 24,
        "contract": "contracts/SoulboundIdentity.sol:SoulboundIdentity",
        "label": "_roles",
        "offset": 0,
        "slot": "0",
        "type": "t_mapping(t_bytes32,t_struct(RoleData)19_storage)"
      },
      {
        "astId": 9918,
        "contract": "contracts/SoulboundIdentity.sol:SoulboundIdentity",
        "label": "swapRouter",
        "offset": 0,
        "slot": "1",
        "type": "t_address"
      },
      {
        "astId": 9920,
        "contract": "contracts/SoulboundIdentity.sol:SoulboundIdentity",
        "label": "wrappedNativeToken",
        "offset": 0,
        "slot": "2",
        "type": "t_address"
      },
      {
        "astId": 9922,
        "contract": "contracts/SoulboundIdentity.sol:SoulboundIdentity",
        "label": "stableCoin",
        "offset": 0,
        "slot": "3",
        "type": "t_address"
      },
      {
        "astId": 9924,
        "contract": "contracts/SoulboundIdentity.sol:SoulboundIdentity",
        "label": "masaToken",
        "offset": 0,
        "slot": "4",
        "type": "t_address"
      },
      {
        "astId": 9928,
        "contract": "contracts/SoulboundIdentity.sol:SoulboundIdentity",
        "label": "enabledPaymentMethod",
        "offset": 0,
        "slot": "5",
        "type": "t_mapping(t_address,t_bool)"
      },
      {
        "astId": 9931,
        "contract": "contracts/SoulboundIdentity.sol:SoulboundIdentity",
        "label": "enabledPaymentMethods",
        "offset": 0,
        "slot": "6",
        "type": "t_array(t_address)dyn_storage"
      },
      {
        "astId": 9933,
        "contract": "contracts/SoulboundIdentity.sol:SoulboundIdentity",
        "label": "projectFeeReceiver",
        "offset": 0,
        "slot": "7",
        "type": "t_address"
      },
      {
        "astId": 9935,
        "contract": "contracts/SoulboundIdentity.sol:SoulboundIdentity",
        "label": "protocolFeeReceiver",
        "offset": 0,
        "slot": "8",
        "type": "t_address"
      },
      {
        "astId": 9937,
        "contract": "contracts/SoulboundIdentity.sol:SoulboundIdentity",
        "label": "protocolFeeAmount",
        "offset": 0,
        "slot": "9",
        "type": "t_uint256"
      },
      {
        "astId": 9939,
        "contract": "contracts/SoulboundIdentity.sol:SoulboundIdentity",
        "label": "protocolFeePercent",
        "offset": 0,
        "slot": "10",
        "type": "t_uint256"
      },
      {
        "astId": 12945,
        "contract": "contracts/SoulboundIdentity.sol:SoulboundIdentity",
        "label": "_name",
        "offset": 0,
        "slot": "11",
        "type": "t_string_storage"
      },
      {
        "astId": 12947,
        "contract": "contracts/SoulboundIdentity.sol:SoulboundIdentity",
        "label": "_symbol",
        "offset": 0,
        "slot": "12",
        "type": "t_string_storage"
      },
      {
        "astId": 12951,
        "contract": "contracts/SoulboundIdentity.sol:SoulboundIdentity",
        "label": "_owners",
        "offset": 0,
        "slot": "13",
        "type": "t_mapping(t_uint256,t_address)"
      },
      {
        "astId": 12955,
        "contract": "contracts/SoulboundIdentity.sol:SoulboundIdentity",
        "label": "_balances",
        "offset": 0,
        "slot": "14",
        "type": "t_mapping(t_address,t_uint256)"
      },
      {
        "astId": 13414,
        "contract": "contracts/SoulboundIdentity.sol:SoulboundIdentity",
        "label": "_ownedTokens",
        "offset": 0,
        "slot": "15",
        "type": "t_mapping(t_address,t_mapping(t_uint256,t_uint256))"
      },
      {
        "astId": 13418,
        "contract": "contracts/SoulboundIdentity.sol:SoulboundIdentity",
        "label": "_ownedTokensIndex",
        "offset": 0,
        "slot": "16",
        "type": "t_mapping(t_uint256,t_uint256)"
      },
      {
        "astId": 13421,
        "contract": "contracts/SoulboundIdentity.sol:SoulboundIdentity",
        "label": "_allTokens",
        "offset": 0,
        "slot": "17",
        "type": "t_array(t_uint256)dyn_storage"
      },
      {
        "astId": 13425,
        "contract": "contracts/SoulboundIdentity.sol:SoulboundIdentity",
        "label": "_allTokensIndex",
        "offset": 0,
        "slot": "18",
        "type": "t_mapping(t_uint256,t_uint256)"
      },
      {
        "astId": 12031,
        "contract": "contracts/SoulboundIdentity.sol:SoulboundIdentity",
        "label": "_baseTokenURI",
        "offset": 0,
        "slot": "19",
        "type": "t_string_storage"
      },
      {
        "astId": 12034,
        "contract": "contracts/SoulboundIdentity.sol:SoulboundIdentity",
        "label": "soulboundIdentity",
        "offset": 0,
        "slot": "20",
        "type": "t_contract(ISoulboundIdentity)10954"
      },
      {
        "astId": 12036,
        "contract": "contracts/SoulboundIdentity.sol:SoulboundIdentity",
        "label": "mintPrice",
        "offset": 0,
        "slot": "21",
        "type": "t_uint256"
      },
      {
        "astId": 12038,
        "contract": "contracts/SoulboundIdentity.sol:SoulboundIdentity",
        "label": "mintPriceMASA",
        "offset": 0,
        "slot": "22",
        "type": "t_uint256"
      },
      {
        "astId": 12041,
        "contract": "contracts/SoulboundIdentity.sol:SoulboundIdentity",
        "label": "addLinkPrice",
        "offset": 0,
        "slot": "23",
        "type": "t_uint256"
      },
      {
        "astId": 12044,
        "contract": "contracts/SoulboundIdentity.sol:SoulboundIdentity",
        "label": "addLinkPriceMASA",
        "offset": 0,
        "slot": "24",
        "type": "t_uint256"
      },
      {
        "astId": 12047,
        "contract": "contracts/SoulboundIdentity.sol:SoulboundIdentity",
        "label": "queryLinkPrice",
        "offset": 0,
        "slot": "25",
        "type": "t_uint256"
      },
      {
        "astId": 12050,
        "contract": "contracts/SoulboundIdentity.sol:SoulboundIdentity",
        "label": "queryLinkPriceMASA",
        "offset": 0,
        "slot": "26",
        "type": "t_uint256"
      },
      {
        "astId": 12577,
        "contract": "contracts/SoulboundIdentity.sol:SoulboundIdentity",
        "label": "_tokenIdCounter",
        "offset": 0,
        "slot": "27",
        "type": "t_struct(Counter)3050_storage"
      },
      {
        "astId": 645,
        "contract": "contracts/SoulboundIdentity.sol:SoulboundIdentity",
        "label": "_status",
        "offset": 0,
        "slot": "28",
        "type": "t_uint256"
      },
      {
        "astId": 9485,
        "contract": "contracts/SoulboundIdentity.sol:SoulboundIdentity",
        "label": "soulName",
        "offset": 0,
        "slot": "29",
        "type": "t_contract(ISoulName)10890"
      }
    ],
    "types": {
      "t_address": {
        "encoding": "inplace",
        "label": "address",
        "numberOfBytes": "20"
      },
      "t_array(t_address)dyn_storage": {
        "base": "t_address",
        "encoding": "dynamic_array",
        "label": "address[]",
        "numberOfBytes": "32"
      },
      "t_array(t_uint256)dyn_storage": {
        "base": "t_uint256",
        "encoding": "dynamic_array",
        "label": "uint256[]",
        "numberOfBytes": "32"
      },
      "t_bool": {
        "encoding": "inplace",
        "label": "bool",
        "numberOfBytes": "1"
      },
      "t_bytes32": {
        "encoding": "inplace",
        "label": "bytes32",
        "numberOfBytes": "32"
      },
      "t_contract(ISoulName)10890": {
        "encoding": "inplace",
        "label": "contract ISoulName",
        "numberOfBytes": "20"
      },
      "t_contract(ISoulboundIdentity)10954": {
        "encoding": "inplace",
        "label": "contract ISoulboundIdentity",
        "numberOfBytes": "20"
      },
      "t_mapping(t_address,t_bool)": {
        "encoding": "mapping",
        "key": "t_address",
        "label": "mapping(address => bool)",
        "numberOfBytes": "32",
        "value": "t_bool"
      },
      "t_mapping(t_address,t_mapping(t_uint256,t_uint256))": {
        "encoding": "mapping",
        "key": "t_address",
        "label": "mapping(address => mapping(uint256 => uint256))",
        "numberOfBytes": "32",
        "value": "t_mapping(t_uint256,t_uint256)"
      },
      "t_mapping(t_address,t_uint256)": {
        "encoding": "mapping",
        "key": "t_address",
        "label": "mapping(address => uint256)",
        "numberOfBytes": "32",
        "value": "t_uint256"
      },
      "t_mapping(t_bytes32,t_struct(RoleData)19_storage)": {
        "encoding": "mapping",
        "key": "t_bytes32",
        "label": "mapping(bytes32 => struct AccessControl.RoleData)",
        "numberOfBytes": "32",
        "value": "t_struct(RoleData)19_storage"
      },
      "t_mapping(t_uint256,t_address)": {
        "encoding": "mapping",
        "key": "t_uint256",
        "label": "mapping(uint256 => address)",
        "numberOfBytes": "32",
        "value": "t_address"
      },
      "t_mapping(t_uint256,t_uint256)": {
        "encoding": "mapping",
        "key": "t_uint256",
        "label": "mapping(uint256 => uint256)",
        "numberOfBytes": "32",
        "value": "t_uint256"
      },
      "t_string_storage": {
        "encoding": "bytes",
        "label": "string",
        "numberOfBytes": "32"
      },
      "t_struct(Counter)3050_storage": {
        "encoding": "inplace",
        "label": "struct Counters.Counter",
        "members": [
          {
            "astId": 3049,
            "contract": "contracts/SoulboundIdentity.sol:SoulboundIdentity",
            "label": "_value",
            "offset": 0,
            "slot": "0",
            "type": "t_uint256"
          }
        ],
        "numberOfBytes": "32"
      },
      "t_struct(RoleData)19_storage": {
        "encoding": "inplace",
        "label": "struct AccessControl.RoleData",
        "members": [
          {
            "astId": 16,
            "contract": "contracts/SoulboundIdentity.sol:SoulboundIdentity",
            "label": "members",
            "offset": 0,
            "slot": "0",
            "type": "t_mapping(t_address,t_bool)"
          },
          {
            "astId": 18,
            "contract": "contracts/SoulboundIdentity.sol:SoulboundIdentity",
            "label": "adminRole",
            "offset": 0,
            "slot": "1",
            "type": "t_bytes32"
          }
        ],
        "numberOfBytes": "64"
      },
      "t_uint256": {
        "encoding": "inplace",
        "label": "uint256",
        "numberOfBytes": "32"
      }
    }
  }
}