{
  "address": "0xAa25a4e6Ef094894d0cdAe294b2A321222DE1df6",
  "abi": [
    {
      "inputs": [
        {
          "internalType": "address",
          "name": "owner",
          "type": "address"
        },
        {
          "internalType": "contract SoulboundIdentity",
          "name": "_soulBoundIdentity",
          "type": "address"
        },
        {
          "internalType": "uint256",
          "name": "_mintingPrice",
          "type": "uint256"
        },
        {
          "internalType": "address",
          "name": "_defaultStableCoin",
          "type": "address"
        },
        {
          "internalType": "address",
          "name": "_utilityToken",
          "type": "address"
        },
        {
          "internalType": "address",
          "name": "_reserveWallet",
          "type": "address"
        }
      ],
      "stateMutability": "nonpayable",
      "type": "constructor"
    },
    {
      "anonymous": false,
      "inputs": [
        {
          "indexed": false,
          "internalType": "address",
          "name": "account",
          "type": "address"
        }
      ],
      "name": "Paused",
      "type": "event"
    },
    {
      "anonymous": false,
      "inputs": [
        {
          "indexed": true,
          "internalType": "bytes32",
          "name": "role",
          "type": "bytes32"
        },
        {
          "indexed": true,
          "internalType": "bytes32",
          "name": "previousAdminRole",
          "type": "bytes32"
        },
        {
          "indexed": true,
          "internalType": "bytes32",
          "name": "newAdminRole",
          "type": "bytes32"
        }
      ],
      "name": "RoleAdminChanged",
      "type": "event"
    },
    {
      "anonymous": false,
      "inputs": [
        {
          "indexed": true,
          "internalType": "bytes32",
          "name": "role",
          "type": "bytes32"
        },
        {
          "indexed": true,
          "internalType": "address",
          "name": "account",
          "type": "address"
        },
        {
          "indexed": true,
          "internalType": "address",
          "name": "sender",
          "type": "address"
        }
      ],
      "name": "RoleGranted",
      "type": "event"
    },
    {
      "anonymous": false,
      "inputs": [
        {
          "indexed": true,
          "internalType": "bytes32",
          "name": "role",
          "type": "bytes32"
        },
        {
          "indexed": true,
          "internalType": "address",
          "name": "account",
          "type": "address"
        },
        {
          "indexed": true,
          "internalType": "address",
          "name": "sender",
          "type": "address"
        }
      ],
      "name": "RoleRevoked",
      "type": "event"
    },
    {
      "anonymous": false,
      "inputs": [
        {
          "indexed": true,
          "internalType": "address",
          "name": "account",
          "type": "address"
        },
        {
          "indexed": true,
          "internalType": "string",
          "name": "name",
          "type": "string"
        },
        {
          "indexed": false,
          "internalType": "uint256",
          "name": "price",
          "type": "uint256"
        }
      ],
      "name": "SoulboundIdentityPurchased",
      "type": "event"
    },
    {
      "anonymous": false,
      "inputs": [
        {
          "indexed": false,
          "internalType": "address",
          "name": "account",
          "type": "address"
        }
      ],
      "name": "Unpaused",
      "type": "event"
    },
    {
      "inputs": [],
      "name": "DEFAULT_ADMIN_ROLE",
      "outputs": [
        {
          "internalType": "bytes32",
          "name": "",
          "type": "bytes32"
        }
      ],
      "stateMutability": "view",
      "type": "function"
    },
    {
      "inputs": [],
      "name": "PAUSER_ROLE",
      "outputs": [
        {
          "internalType": "bytes32",
          "name": "",
          "type": "bytes32"
        }
      ],
      "stateMutability": "view",
      "type": "function"
    },
    {
      "inputs": [],
      "name": "defaultStableCoin",
      "outputs": [
        {
          "internalType": "address",
          "name": "",
          "type": "address"
        }
      ],
      "stateMutability": "view",
      "type": "function"
    },
    {
      "inputs": [
        {
          "internalType": "bytes32",
          "name": "role",
          "type": "bytes32"
        }
      ],
      "name": "getRoleAdmin",
      "outputs": [
        {
          "internalType": "bytes32",
          "name": "",
          "type": "bytes32"
        }
      ],
      "stateMutability": "view",
      "type": "function"
    },
    {
      "inputs": [
        {
          "internalType": "bytes32",
          "name": "role",
          "type": "bytes32"
        },
        {
          "internalType": "address",
          "name": "account",
          "type": "address"
        }
      ],
      "name": "grantRole",
      "outputs": [],
      "stateMutability": "nonpayable",
      "type": "function"
    },
    {
      "inputs": [
        {
          "internalType": "bytes32",
          "name": "role",
          "type": "bytes32"
        },
        {
          "internalType": "address",
          "name": "account",
          "type": "address"
        }
      ],
      "name": "hasRole",
      "outputs": [
        {
          "internalType": "bool",
          "name": "",
          "type": "bool"
        }
      ],
      "stateMutability": "view",
      "type": "function"
    },
    {
      "inputs": [],
      "name": "mintingPrice",
      "outputs": [
        {
          "internalType": "uint256",
          "name": "",
          "type": "uint256"
        }
      ],
      "stateMutability": "view",
      "type": "function"
    },
    {
      "inputs": [],
      "name": "pause",
      "outputs": [],
      "stateMutability": "nonpayable",
      "type": "function"
    },
    {
      "inputs": [],
      "name": "paused",
      "outputs": [
        {
          "internalType": "bool",
          "name": "",
          "type": "bool"
        }
      ],
      "stateMutability": "view",
      "type": "function"
    },
    {
      "inputs": [
        {
          "internalType": "address",
          "name": "paymentMethod",
          "type": "address"
        },
        {
          "internalType": "string",
          "name": "name",
          "type": "string"
        }
      ],
      "name": "purchase",
      "outputs": [
        {
          "internalType": "uint256",
          "name": "",
          "type": "uint256"
        }
      ],
      "stateMutability": "payable",
      "type": "function"
    },
    {
      "inputs": [],
      "name": "purchaseInfo",
      "outputs": [
        {
          "internalType": "uint256",
          "name": "priceInStableCoin",
          "type": "uint256"
        },
        {
          "internalType": "uint256",
          "name": "priceInETH",
          "type": "uint256"
        },
        {
          "internalType": "uint256",
          "name": "priceInUtilityToken",
          "type": "uint256"
        }
      ],
      "stateMutability": "view",
      "type": "function"
    },
    {
      "inputs": [
        {
          "internalType": "bytes32",
          "name": "role",
          "type": "bytes32"
        },
        {
          "internalType": "address",
          "name": "account",
          "type": "address"
        }
      ],
      "name": "renounceRole",
      "outputs": [],
      "stateMutability": "nonpayable",
      "type": "function"
    },
    {
      "inputs": [],
      "name": "reserveWallet",
      "outputs": [
        {
          "internalType": "address",
          "name": "",
          "type": "address"
        }
      ],
      "stateMutability": "view",
      "type": "function"
    },
    {
      "inputs": [
        {
          "internalType": "bytes32",
          "name": "role",
          "type": "bytes32"
        },
        {
          "internalType": "address",
          "name": "account",
          "type": "address"
        }
      ],
      "name": "revokeRole",
      "outputs": [],
      "stateMutability": "nonpayable",
      "type": "function"
    },
    {
      "inputs": [
        {
          "internalType": "address",
          "name": "_defaultStableCoin",
          "type": "address"
        }
      ],
      "name": "setDefaultStableCoin",
      "outputs": [],
      "stateMutability": "nonpayable",
      "type": "function"
    },
    {
      "inputs": [
        {
          "internalType": "uint256",
          "name": "_mintingPrice",
          "type": "uint256"
        }
      ],
      "name": "setMintingPrice",
      "outputs": [],
      "stateMutability": "nonpayable",
      "type": "function"
    },
    {
      "inputs": [
        {
          "internalType": "address",
          "name": "_reserveWallet",
          "type": "address"
        }
      ],
      "name": "setReserveWallet",
      "outputs": [],
      "stateMutability": "nonpayable",
      "type": "function"
    },
    {
      "inputs": [
        {
          "internalType": "contract SoulboundIdentity",
          "name": "_soulboundIdentity",
          "type": "address"
        }
      ],
      "name": "setSoulboundIdentity",
      "outputs": [],
      "stateMutability": "nonpayable",
      "type": "function"
    },
    {
      "inputs": [
        {
          "internalType": "address",
          "name": "_utilityToken",
          "type": "address"
        }
      ],
      "name": "setUtilityToken",
      "outputs": [],
      "stateMutability": "nonpayable",
      "type": "function"
    },
    {
      "inputs": [],
      "name": "soulboundIdentity",
      "outputs": [
        {
          "internalType": "contract SoulboundIdentity",
          "name": "",
          "type": "address"
        }
      ],
      "stateMutability": "view",
      "type": "function"
    },
    {
      "inputs": [
        {
          "internalType": "bytes4",
          "name": "interfaceId",
          "type": "bytes4"
        }
      ],
      "name": "supportsInterface",
      "outputs": [
        {
          "internalType": "bool",
          "name": "",
          "type": "bool"
        }
      ],
      "stateMutability": "view",
      "type": "function"
    },
    {
      "inputs": [],
      "name": "unpause",
      "outputs": [],
      "stateMutability": "nonpayable",
      "type": "function"
    },
    {
      "inputs": [],
      "name": "utilityToken",
      "outputs": [
        {
          "internalType": "address",
          "name": "",
          "type": "address"
        }
      ],
      "stateMutability": "view",
      "type": "function"
    }
  ],
  "transactionHash": "0x7dfc61a10b4133d3ce50729c90e3d2fe63f5ed03091a2599ac8cd6ceff27f364",
  "args": [
    "0x3c8D9f130970358b7E8cbc1DbD0a1EbA6EBE368F",
    "0x514b35F067Bc78589986832d3c25caA9a4dD9fC7",
    "5000000",
    "0x0000000000000000000000000000000000000000",
    "0x1fE931dAF1bE58022155b6825092896c840BA419",
    "0x3c8D9f130970358b7E8cbc1DbD0a1EbA6EBE368F"
  ],
  "numDeployments": 1,
  "solcInputHash": "4fbfb609d0cf7ba9059b4e86ded135cc",
  "bytecode": "0x60806040523480156200001157600080fd5b506040516200138a3803806200138a8339810160408190526200003491620001ec565b6000805460ff191690556001600160a01b038116620000895760405162461bcd60e51b815260206004820152600c60248201526b5a45524f5f4144445245535360a01b60448201526064015b60405180910390fd5b6001600160a01b038516620000d05760405162461bcd60e51b815260206004820152600c60248201526b5a45524f5f4144445245535360a01b604482015260640162000080565b620000dd60008762000163565b620001097f65d7a28e3265b37a6474929f336521b332c1681b933f6cb9f3376673440d862a8762000163565b600280546001600160a01b039687166001600160a01b03199182161790915560039490945560048054938616938516939093179092556005805491851691841691909117905560068054919093169116179055506200028d565b60008281526001602090815260408083206001600160a01b038516845290915290205460ff16620001e85760008281526001602081815260408084206001600160a01b0386168086529252808420805460ff19169093179092559051339285917f2f8788117e7eff1d82e926ec794901d17c78024a50270940304540a733656f0d9190a45b5050565b60008060008060008060c087890312156200020657600080fd5b8651620002138162000274565b6020880151909650620002268162000274565b604088015160608901519196509450620002408162000274565b6080880151909350620002538162000274565b60a0880151909250620002668162000274565b809150509295509295509295565b6001600160a01b03811681146200028a57600080fd5b50565b6110ed806200029d6000396000f3fe6080604052600436106101405760003560e01c80638417b47f116100b6578063ae86ed891161006f578063ae86ed891461037f578063d0871a6a1461039f578063d547741f146103bf578063d72b11bd146103df578063dda4fa8f146103ff578063e63ab1e91461041f57600080fd5b80638417b47f146102d55780638456cb59146102f55780639013ae081461030a57806391d148541461032a57806393593db21461034a578063a217fddf1461036a57600080fd5b80633a1b1d57116101085780633a1b1d57146102115780633ad3033e146102245780633f4ba83a146102445780635c975abb1461025957806377bed5ed146102715780637f84d03d146102a957600080fd5b806301ffc9a714610145578063248a9ca31461017a5780632f2ff15d146101b957806335db70b5146101db57806336568abe146101f1575b600080fd5b34801561015157600080fd5b50610165610160366004610e59565b610453565b60405190151581526020015b60405180910390f35b34801561018657600080fd5b506101ab610195366004610e10565b6000908152600160208190526040909120015490565b604051908152602001610171565b3480156101c557600080fd5b506101d96101d4366004610e29565b61048a565b005b3480156101e757600080fd5b506101ab60035481565b3480156101fd57600080fd5b506101d961020c366004610e29565b6104b5565b6101ab61021f366004610d4c565b610538565b34801561023057600080fd5b506101d961023f366004610d2f565b610553565b34801561025057600080fd5b506101d96105d5565b34801561026557600080fd5b5060005460ff16610165565b34801561027d57600080fd5b50600254610291906001600160a01b031681565b6040516001600160a01b039091168152602001610171565b3480156102b557600080fd5b506003546040805191825260006020830181905290820152606001610171565b3480156102e157600080fd5b506101d96102f0366004610e10565b61060a565b34801561030157600080fd5b506101d961063d565b34801561031657600080fd5b506101d9610325366004610d2f565b61066f565b34801561033657600080fd5b50610165610345366004610e29565b6106f1565b34801561035657600080fd5b50600454610291906001600160a01b031681565b34801561037657600080fd5b506101ab600081565b34801561038b57600080fd5b50600554610291906001600160a01b031681565b3480156103ab57600080fd5b506101d96103ba366004610d2f565b61071c565b3480156103cb57600080fd5b506101d96103da366004610e29565b61079e565b3480156103eb57600080fd5b50600654610291906001600160a01b031681565b34801561040b57600080fd5b506101d961041a366004610d2f565b6107c4565b34801561042b57600080fd5b506101ab7f65d7a28e3265b37a6474929f336521b332c1681b933f6cb9f3376673440d862a81565b60006001600160e01b03198216637965db0b60e01b148061048457506301ffc9a760e01b6001600160e01b03198316145b92915050565b600082815260016020819052604090912001546104a681610846565b6104b08383610850565b505050565b6001600160a01b038116331461052a5760405162461bcd60e51b815260206004820152602f60248201527f416363657373436f6e74726f6c3a2063616e206f6e6c792072656e6f756e636560448201526e103937b632b9903337b91039b2b63360891b60648201526084015b60405180910390fd5b61053482826108bb565b5050565b6000610542610922565b61054c338361096a565b9392505050565b600061055e81610846565b6001600160a01b0382166105845760405162461bcd60e51b815260040161052190610fbc565b6002546001600160a01b03838116911614156105b25760405162461bcd60e51b815260040161052190610f98565b50600280546001600160a01b0319166001600160a01b0392909216919091179055565b7f65d7a28e3265b37a6474929f336521b332c1681b933f6cb9f3376673440d862a6105ff81610846565b610607610a57565b50565b600061061581610846565b8160035414156106375760405162461bcd60e51b815260040161052190610f98565b50600355565b7f65d7a28e3265b37a6474929f336521b332c1681b933f6cb9f3376673440d862a61066781610846565b610607610aa9565b600061067a81610846565b6001600160a01b0382166106a05760405162461bcd60e51b815260040161052190610fbc565b6005546001600160a01b03838116911614156106ce5760405162461bcd60e51b815260040161052190610f98565b50600580546001600160a01b0319166001600160a01b0392909216919091179055565b60009182526001602090815260408084206001600160a01b0393909316845291905290205460ff1690565b600061072781610846565b6001600160a01b03821661074d5760405162461bcd60e51b815260040161052190610fbc565b6004546001600160a01b038381169116141561077b5760405162461bcd60e51b815260040161052190610f98565b50600480546001600160a01b0319166001600160a01b0392909216919091179055565b600082815260016020819052604090912001546107ba81610846565b6104b083836108bb565b60006107cf81610846565b6001600160a01b0382166107f55760405162461bcd60e51b815260040161052190610fbc565b6006546001600160a01b03838116911614156108235760405162461bcd60e51b815260040161052190610f98565b50600680546001600160a01b0319166001600160a01b0392909216919091179055565b6106078133610ae6565b61085a82826106f1565b6105345760008281526001602081815260408084206001600160a01b0386168086529252808420805460ff19169093179092559051339285917f2f8788117e7eff1d82e926ec794901d17c78024a50270940304540a733656f0d9190a45050565b6108c582826106f1565b156105345760008281526001602090815260408083206001600160a01b0385168085529252808320805460ff1916905551339285917ff6391f5c32d9c69d2a47ea670b442974b53935d1edc7fd64eb21e047a839171b9190a45050565b60005460ff16156109685760405162461bcd60e51b815260206004820152601060248201526f14185d5cd8589b194e881c185d5cd95960821b6044820152606401610521565b565b600254604051636132c61360e11b815260009182916001600160a01b039091169063c2658c26906109a19087908790600401610f59565b602060405180830381600087803b1580156109bb57600080fd5b505af11580156109cf573d6000803e3d6000fd5b505050506040513d601f19601f820116820180604052508101906109f39190610e83565b905082604051610a039190610ec8565b6040518091039020846001600160a01b03167febdd29c034ae90376912e7a85653b9037f3bd04483ea3de899d31fd89afb4204600354604051610a4891815260200190565b60405180910390a39392505050565b610a5f610b4a565b6000805460ff191690557f5db9ee0a495bf2e6ff9c91a7834c1ba4fdd244a5e8aa4e537bd38aeae4b073aa335b6040516001600160a01b03909116815260200160405180910390a1565b610ab1610922565b6000805460ff191660011790557f62e78cea01bee320cd4e420270b5ea74000d11b0c9f74754ebdbfc544b05a258610a8c3390565b610af082826106f1565b61053457610b08816001600160a01b03166014610b93565b610b13836020610b93565b604051602001610b24929190610ee4565b60408051601f198184030181529082905262461bcd60e51b825261052191600401610f85565b60005460ff166109685760405162461bcd60e51b815260206004820152601460248201527314185d5cd8589b194e881b9bdd081c185d5cd95960621b6044820152606401610521565b60606000610ba2836002610ffa565b610bad906002610fe2565b67ffffffffffffffff811115610bc557610bc561108c565b6040519080825280601f01601f191660200182016040528015610bef576020820181803683370190505b509050600360fc1b81600081518110610c0a57610c0a611076565b60200101906001600160f81b031916908160001a905350600f60fb1b81600181518110610c3957610c39611076565b60200101906001600160f81b031916908160001a9053506000610c5d846002610ffa565b610c68906001610fe2565b90505b6001811115610ce0576f181899199a1a9b1b9c1cb0b131b232b360811b85600f1660108110610c9c57610c9c611076565b1a60f81b828281518110610cb257610cb2611076565b60200101906001600160f81b031916908160001a90535060049490941c93610cd981611049565b9050610c6b565b50831561054c5760405162461bcd60e51b815260206004820181905260248201527f537472696e67733a20686578206c656e67746820696e73756666696369656e746044820152606401610521565b600060208284031215610d4157600080fd5b813561054c816110a2565b60008060408385031215610d5f57600080fd5b8235610d6a816110a2565b9150602083013567ffffffffffffffff80821115610d8757600080fd5b818501915085601f830112610d9b57600080fd5b813581811115610dad57610dad61108c565b604051601f8201601f19908116603f01168101908382118183101715610dd557610dd561108c565b81604052828152886020848701011115610dee57600080fd5b8260208601602083013760006020848301015280955050505050509250929050565b600060208284031215610e2257600080fd5b5035919050565b60008060408385031215610e3c57600080fd5b823591506020830135610e4e816110a2565b809150509250929050565b600060208284031215610e6b57600080fd5b81356001600160e01b03198116811461054c57600080fd5b600060208284031215610e9557600080fd5b5051919050565b60008151808452610eb4816020860160208601611019565b601f01601f19169290920160200192915050565b60008251610eda818460208701611019565b9190910192915050565b7f416363657373436f6e74726f6c3a206163636f756e7420000000000000000000815260008351610f1c816017850160208801611019565b7001034b99036b4b9b9b4b733903937b6329607d1b6017918401918201528351610f4d816028840160208801611019565b01602801949350505050565b6001600160a01b0383168152604060208201819052600090610f7d90830184610e9c565b949350505050565b60208152600061054c6020830184610e9c565b6020808252600a908201526953414d455f56414c554560b01b604082015260600190565b6020808252600c908201526b5a45524f5f4144445245535360a01b604082015260600190565b60008219821115610ff557610ff5611060565b500190565b600081600019048311821515161561101457611014611060565b500290565b60005b8381101561103457818101518382015260200161101c565b83811115611043576000848401525b50505050565b60008161105857611058611060565b506000190190565b634e487b7160e01b600052601160045260246000fd5b634e487b7160e01b600052603260045260246000fd5b634e487b7160e01b600052604160045260246000fd5b6001600160a01b038116811461060757600080fdfea2646970667358221220eec2837dc2a4de7b1d9bd27405dbefc9e620749c5059e4eed4349dc622c05d2a64736f6c63430008070033",
  "devdoc": {
    "author": "Masa Finance",
    "details": "From this smart contract we can mint new Soulbound Identities and Soul Name NFTs. This minting can be done paying a fee in ETH, USDC or CORN",
    "kind": "dev",
    "methods": {
      "constructor": {
        "details": "Creates a new Soul Factory, that has the role to minting new Soulbound Identities and Soul Name NFTs, paying a fee",
        "params": {
          "_defaultStableCoin": "Default stable coin to pay the fee in (USDC)",
          "_mintingPrice": "Price of the minting in stable coin",
          "_reserveWallet": "Wallet that will receive the fee",
          "_soulBoundIdentity": "Address of the Soulbound identity contract",
          "_utilityToken": "Utility token to pay the fee in ($CORN)",
          "owner": "Owner of the smart contract"
        }
      },
      "getRoleAdmin(bytes32)": {
        "details": "Returns the admin role that controls `role`. See {grantRole} and {revokeRole}. To change a role's admin, use {_setRoleAdmin}."
      },
      "grantRole(bytes32,address)": {
        "details": "Grants `role` to `account`. If `account` had not been already granted `role`, emits a {RoleGranted} event. Requirements: - the caller must have ``role``'s admin role. May emit a {RoleGranted} event."
      },
      "hasRole(bytes32,address)": {
        "details": "Returns `true` if `account` has been granted `role`."
      },
      "pause()": {
        "details": "Sets an emergency stop mechanism that can be triggered by an authorized account."
      },
      "paused()": {
        "details": "Returns true if the contract is paused, and false otherwise."
      },
      "purchase(address,string)": {
        "details": "This function allows the purchase of a soulbount identity usign stable coin (USDC), native token (ETH) or utility token ($CORN)",
        "params": {
          "name": "Name of the new soul name",
          "paymentMethod": "Address of token that user want to pay"
        },
        "returns": {
          "_0": "TokenId of the new soulbound identity"
        }
      },
      "purchaseInfo()": {
        "details": "Returns all current pricing and amount informations for a purchase",
        "returns": {
          "priceInETH": "Current price of the minting in native token (ETH)",
          "priceInStableCoin": "Current price of the minting in stable coin",
          "priceInUtilityToken": "Current price of the minting in utility token ($CORN)"
        }
      },
      "renounceRole(bytes32,address)": {
        "details": "Revokes `role` from the calling account. Roles are often managed via {grantRole} and {revokeRole}: this function's purpose is to provide a mechanism for accounts to lose their privileges if they are compromised (such as when a trusted device is misplaced). If the calling account had been revoked `role`, emits a {RoleRevoked} event. Requirements: - the caller must be `account`. May emit a {RoleRevoked} event."
      },
      "revokeRole(bytes32,address)": {
        "details": "Revokes `role` from `account`. If `account` had been granted `role`, emits a {RoleRevoked} event. Requirements: - the caller must have ``role``'s admin role. May emit a {RoleRevoked} event."
      },
      "setDefaultStableCoin(address)": {
        "details": "The caller must have the admin role to call this function",
        "params": {
          "_defaultStableCoin": "New default stable coin to pay the fee in"
        }
      },
      "setMintingPrice(uint256)": {
        "details": "The caller must have the admin role to call this function",
        "params": {
          "_mintingPrice": "New price of the minting in stable coin"
        }
      },
      "setReserveWallet(address)": {
        "details": "Let change the reserve walled. It can be triggered by an authorized account.",
        "params": {
          "_reserveWallet": "New reserve wallet"
        }
      },
      "setSoulboundIdentity(address)": {
        "details": "The caller must have the admin role to call this function",
        "params": {
          "_soulboundIdentity": "New SoulboundIdentity contract address"
        }
      },
      "setUtilityToken(address)": {
        "details": "The caller must have the admin role to call this function",
        "params": {
          "_utilityToken": "New utility token to pay the fee in"
        }
      },
      "supportsInterface(bytes4)": {
        "details": "See {IERC165-supportsInterface}."
      },
      "unpause()": {
        "details": "Unsets an emergency stop mechanism. It can be triggered by an authorized account."
      }
    },
    "title": "Soul Factory",
    "version": 1
  },
  "userdoc": {
    "kind": "user",
    "methods": {
      "constructor": {
        "notice": "Creates a new Soul Factory"
      },
      "pause()": {
        "notice": "Pauses the operations in the smart contract"
      },
      "purchase(address,string)": {
        "notice": "Mints a new Soulbound Identity purchasing it"
      },
      "purchaseInfo()": {
        "notice": "Returns the price of the minting"
      },
      "setDefaultStableCoin(address)": {
        "notice": "Sets the default stable coin to pay the fee in (USDC)"
      },
      "setMintingPrice(uint256)": {
        "notice": "Sets the price of the minting in stable coin"
      },
      "setReserveWallet(address)": {
        "notice": "Set the reserve wallet"
      },
      "setSoulboundIdentity(address)": {
        "notice": "Sets the SoulboundIdentity contract address linked to this factory"
      },
      "setUtilityToken(address)": {
        "notice": "Sets the utility token to pay the fee in ($CORN)"
      },
      "unpause()": {
        "notice": "Unpauses the operations in the smart contract"
      }
    },
    "notice": "Soul Factory, that can mint new Soulbound Identities and Soul Name NFTs, paying a fee",
    "version": 1
  },
  "storageLayout": {
    "storage": [
      {
        "astId": 523,
        "contract": "contracts/SoulFactory.sol:SoulFactory",
        "label": "_paused",
        "offset": 0,
        "slot": "0",
        "type": "t_bool"
      },
      {
        "astId": 24,
        "contract": "contracts/SoulFactory.sol:SoulFactory",
        "label": "_roles",
        "offset": 0,
        "slot": "1",
        "type": "t_mapping(t_bytes32,t_struct(RoleData)19_storage)"
      },
      {
        "astId": 3448,
        "contract": "contracts/SoulFactory.sol:SoulFactory",
        "label": "soulboundIdentity",
        "offset": 0,
        "slot": "2",
        "type": "t_contract(SoulboundIdentity)4811"
      },
      {
        "astId": 3450,
        "contract": "contracts/SoulFactory.sol:SoulFactory",
        "label": "mintingPrice",
        "offset": 0,
        "slot": "3",
        "type": "t_uint256"
      },
      {
        "astId": 3452,
        "contract": "contracts/SoulFactory.sol:SoulFactory",
        "label": "defaultStableCoin",
        "offset": 0,
        "slot": "4",
        "type": "t_address"
      },
      {
        "astId": 3454,
        "contract": "contracts/SoulFactory.sol:SoulFactory",
        "label": "utilityToken",
        "offset": 0,
        "slot": "5",
        "type": "t_address"
      },
      {
        "astId": 3456,
        "contract": "contracts/SoulFactory.sol:SoulFactory",
        "label": "reserveWallet",
        "offset": 0,
        "slot": "6",
        "type": "t_address"
      }
    ],
    "types": {
      "t_address": {
        "encoding": "inplace",
        "label": "address",
        "numberOfBytes": "20"
      },
      "t_bool": {
        "encoding": "inplace",
        "label": "bool",
        "numberOfBytes": "1"
      },
      "t_bytes32": {
        "encoding": "inplace",
        "label": "bytes32",
        "numberOfBytes": "32"
      },
      "t_contract(SoulboundIdentity)4811": {
        "encoding": "inplace",
        "label": "contract SoulboundIdentity",
        "numberOfBytes": "20"
      },
      "t_mapping(t_address,t_bool)": {
        "encoding": "mapping",
        "key": "t_address",
        "label": "mapping(address => bool)",
        "numberOfBytes": "32",
        "value": "t_bool"
      },
      "t_mapping(t_bytes32,t_struct(RoleData)19_storage)": {
        "encoding": "mapping",
        "key": "t_bytes32",
        "label": "mapping(bytes32 => struct AccessControl.RoleData)",
        "numberOfBytes": "32",
        "value": "t_struct(RoleData)19_storage"
      },
      "t_struct(RoleData)19_storage": {
        "encoding": "inplace",
        "label": "struct AccessControl.RoleData",
        "members": [
          {
            "astId": 16,
            "contract": "contracts/SoulFactory.sol:SoulFactory",
            "label": "members",
            "offset": 0,
            "slot": "0",
            "type": "t_mapping(t_address,t_bool)"
          },
          {
            "astId": 18,
            "contract": "contracts/SoulFactory.sol:SoulFactory",
            "label": "adminRole",
            "offset": 0,
            "slot": "1",
            "type": "t_bytes32"
          }
        ],
        "numberOfBytes": "64"
      },
      "t_uint256": {
        "encoding": "inplace",
        "label": "uint256",
        "numberOfBytes": "32"
      }
    }
  }
}