{
  "address": "0x7CB1BAD68E1B642F4cf9FdbB165cb534E5B1DAF9",
  "abi": [
    {
      "inputs": [
        {
          "internalType": "address",
          "name": "admin",
          "type": "address"
        },
        {
          "internalType": "string",
          "name": "name",
          "type": "string"
        },
        {
          "internalType": "string",
          "name": "symbol",
          "type": "string"
        },
        {
          "internalType": "contract ISoulboundIdentity",
          "name": "_soulboundIdentity",
          "type": "address"
        },
        {
          "internalType": "string",
          "name": "_extension",
          "type": "string"
        },
        {
          "internalType": "string",
          "name": "_contractURI",
          "type": "string"
        }
      ],
      "stateMutability": "nonpayable",
      "type": "constructor"
    },
    {
      "inputs": [
        {
          "internalType": "address",
          "name": "to",
          "type": "address"
        }
      ],
      "name": "AddressDoesNotHaveIdentity",
      "type": "error"
    },
    {
      "inputs": [
        {
          "internalType": "address",
          "name": "caller",
          "type": "address"
        }
      ],
      "name": "CallerNotOwner",
      "type": "error"
    },
    {
      "inputs": [
        {
          "internalType": "string",
          "name": "tokenURI",
          "type": "string"
        }
      ],
      "name": "InvalidTokenURI",
      "type": "error"
    },
    {
      "inputs": [
        {
          "internalType": "string",
          "name": "name",
          "type": "string"
        }
      ],
      "name": "NameAlreadyExists",
      "type": "error"
    },
    {
      "inputs": [
        {
          "internalType": "string",
          "name": "name",
          "type": "string"
        }
      ],
      "name": "NameNotFound",
      "type": "error"
    },
    {
      "inputs": [
        {
          "internalType": "string",
          "name": "name",
          "type": "string"
        },
        {
          "internalType": "uint256",
          "name": "tokenId",
          "type": "uint256"
        }
      ],
      "name": "NameRegisteredByOtherAccount",
      "type": "error"
    },
    {
      "inputs": [],
      "name": "SameValue",
      "type": "error"
    },
    {
      "inputs": [
        {
          "internalType": "uint256",
          "name": "tokenId",
          "type": "uint256"
        }
      ],
      "name": "TokenNotFound",
      "type": "error"
    },
    {
      "inputs": [
        {
          "internalType": "string",
          "name": "tokenURI",
          "type": "string"
        }
      ],
      "name": "URIAlreadyExists",
      "type": "error"
    },
    {
      "inputs": [],
      "name": "ZeroAddress",
      "type": "error"
    },
    {
      "inputs": [
        {
          "internalType": "string",
          "name": "name",
          "type": "string"
        }
      ],
      "name": "ZeroLengthName",
      "type": "error"
    },
    {
      "inputs": [
        {
          "internalType": "uint256",
          "name": "yearsPeriod",
          "type": "uint256"
        }
      ],
      "name": "ZeroYearsPeriod",
      "type": "error"
    },
    {
      "anonymous": false,
      "inputs": [
        {
          "indexed": true,
          "internalType": "address",
          "name": "owner",
          "type": "address"
        },
        {
          "indexed": true,
          "internalType": "address",
          "name": "approved",
          "type": "address"
        },
        {
          "indexed": true,
          "internalType": "uint256",
          "name": "tokenId",
          "type": "uint256"
        }
      ],
      "name": "Approval",
      "type": "event"
    },
    {
      "anonymous": false,
      "inputs": [
        {
          "indexed": true,
          "internalType": "address",
          "name": "owner",
          "type": "address"
        },
        {
          "indexed": true,
          "internalType": "address",
          "name": "operator",
          "type": "address"
        },
        {
          "indexed": false,
          "internalType": "bool",
          "name": "approved",
          "type": "bool"
        }
      ],
      "name": "ApprovalForAll",
      "type": "event"
    },
    {
      "anonymous": false,
      "inputs": [
        {
          "indexed": true,
          "internalType": "address",
          "name": "previousOwner",
          "type": "address"
        },
        {
          "indexed": true,
          "internalType": "address",
          "name": "newOwner",
          "type": "address"
        }
      ],
      "name": "OwnershipTransferred",
      "type": "event"
    },
    {
      "anonymous": false,
      "inputs": [
        {
          "indexed": true,
          "internalType": "bytes32",
          "name": "role",
          "type": "bytes32"
        },
        {
          "indexed": true,
          "internalType": "bytes32",
          "name": "previousAdminRole",
          "type": "bytes32"
        },
        {
          "indexed": true,
          "internalType": "bytes32",
          "name": "newAdminRole",
          "type": "bytes32"
        }
      ],
      "name": "RoleAdminChanged",
      "type": "event"
    },
    {
      "anonymous": false,
      "inputs": [
        {
          "indexed": true,
          "internalType": "bytes32",
          "name": "role",
          "type": "bytes32"
        },
        {
          "indexed": true,
          "internalType": "address",
          "name": "account",
          "type": "address"
        },
        {
          "indexed": true,
          "internalType": "address",
          "name": "sender",
          "type": "address"
        }
      ],
      "name": "RoleGranted",
      "type": "event"
    },
    {
      "anonymous": false,
      "inputs": [
        {
          "indexed": true,
          "internalType": "bytes32",
          "name": "role",
          "type": "bytes32"
        },
        {
          "indexed": true,
          "internalType": "address",
          "name": "account",
          "type": "address"
        },
        {
          "indexed": true,
          "internalType": "address",
          "name": "sender",
          "type": "address"
        }
      ],
      "name": "RoleRevoked",
      "type": "event"
    },
    {
      "anonymous": false,
      "inputs": [
        {
          "indexed": true,
          "internalType": "address",
          "name": "from",
          "type": "address"
        },
        {
          "indexed": true,
          "internalType": "address",
          "name": "to",
          "type": "address"
        },
        {
          "indexed": true,
          "internalType": "uint256",
          "name": "tokenId",
          "type": "uint256"
        }
      ],
      "name": "Transfer",
      "type": "event"
    },
    {
      "anonymous": false,
      "inputs": [
        {
          "indexed": false,
          "internalType": "uint256",
          "name": "tokenId",
          "type": "uint256"
        },
        {
          "indexed": false,
          "internalType": "uint256",
          "name": "yearsPeriod",
          "type": "uint256"
        },
        {
          "indexed": false,
          "internalType": "uint256",
          "name": "newExpirationDate",
          "type": "uint256"
        }
      ],
      "name": "YearsPeriodRenewed",
      "type": "event"
    },
    {
      "inputs": [],
      "name": "DEFAULT_ADMIN_ROLE",
      "outputs": [
        {
          "internalType": "bytes32",
          "name": "",
          "type": "bytes32"
        }
      ],
      "stateMutability": "view",
      "type": "function"
    },
    {
      "inputs": [],
      "name": "MINTER_ROLE",
      "outputs": [
        {
          "internalType": "bytes32",
          "name": "",
          "type": "bytes32"
        }
      ],
      "stateMutability": "view",
      "type": "function"
    },
    {
      "inputs": [
        {
          "internalType": "address",
          "name": "to",
          "type": "address"
        },
        {
          "internalType": "uint256",
          "name": "tokenId",
          "type": "uint256"
        }
      ],
      "name": "approve",
      "outputs": [],
      "stateMutability": "nonpayable",
      "type": "function"
    },
    {
      "inputs": [
        {
          "internalType": "address",
          "name": "owner",
          "type": "address"
        }
      ],
      "name": "balanceOf",
      "outputs": [
        {
          "internalType": "uint256",
          "name": "",
          "type": "uint256"
        }
      ],
      "stateMutability": "view",
      "type": "function"
    },
    {
      "inputs": [
        {
          "internalType": "uint256",
          "name": "tokenId",
          "type": "uint256"
        }
      ],
      "name": "burn",
      "outputs": [],
      "stateMutability": "nonpayable",
      "type": "function"
    },
    {
      "inputs": [],
      "name": "contractURI",
      "outputs": [
        {
          "internalType": "string",
          "name": "",
          "type": "string"
        }
      ],
      "stateMutability": "view",
      "type": "function"
    },
    {
      "inputs": [
        {
          "internalType": "uint256",
          "name": "tokenId",
          "type": "uint256"
        }
      ],
      "name": "exists",
      "outputs": [
        {
          "internalType": "bool",
          "name": "",
          "type": "bool"
        }
      ],
      "stateMutability": "view",
      "type": "function"
    },
    {
      "inputs": [],
      "name": "extension",
      "outputs": [
        {
          "internalType": "string",
          "name": "",
          "type": "string"
        }
      ],
      "stateMutability": "view",
      "type": "function"
    },
    {
      "inputs": [
        {
          "internalType": "uint256",
          "name": "tokenId",
          "type": "uint256"
        }
      ],
      "name": "getApproved",
      "outputs": [
        {
          "internalType": "address",
          "name": "",
          "type": "address"
        }
      ],
      "stateMutability": "view",
      "type": "function"
    },
    {
      "inputs": [],
      "name": "getExtension",
      "outputs": [
        {
          "internalType": "string",
          "name": "",
          "type": "string"
        }
      ],
      "stateMutability": "view",
      "type": "function"
    },
    {
      "inputs": [
        {
          "internalType": "bytes32",
          "name": "role",
          "type": "bytes32"
        }
      ],
      "name": "getRoleAdmin",
      "outputs": [
        {
          "internalType": "bytes32",
          "name": "",
          "type": "bytes32"
        }
      ],
      "stateMutability": "view",
      "type": "function"
    },
    {
      "inputs": [
        {
          "internalType": "uint256",
          "name": "identityId",
          "type": "uint256"
        }
      ],
      "name": "getSoulNames",
      "outputs": [
        {
          "internalType": "string[]",
          "name": "sbtNames",
          "type": "string[]"
        }
      ],
      "stateMutability": "view",
      "type": "function"
    },
    {
      "inputs": [
        {
          "internalType": "address",
          "name": "owner",
          "type": "address"
        }
      ],
      "name": "getSoulNames",
      "outputs": [
        {
          "internalType": "string[]",
          "name": "sbtNames",
          "type": "string[]"
        }
      ],
      "stateMutability": "view",
      "type": "function"
    },
    {
      "inputs": [
        {
          "internalType": "string",
          "name": "name",
          "type": "string"
        }
      ],
      "name": "getTokenData",
      "outputs": [
        {
          "internalType": "string",
          "name": "sbtName",
          "type": "string"
        },
        {
          "internalType": "bool",
          "name": "linked",
          "type": "bool"
        },
        {
          "internalType": "uint256",
          "name": "identityId",
          "type": "uint256"
        },
        {
          "internalType": "uint256",
          "name": "tokenId",
          "type": "uint256"
        },
        {
          "internalType": "uint256",
          "name": "expirationDate",
          "type": "uint256"
        },
        {
          "internalType": "bool",
          "name": "active",
          "type": "bool"
        }
      ],
      "stateMutability": "view",
      "type": "function"
    },
    {
      "inputs": [
        {
          "internalType": "string",
          "name": "name",
          "type": "string"
        }
      ],
      "name": "getTokenId",
      "outputs": [
        {
          "internalType": "uint256",
          "name": "",
          "type": "uint256"
        }
      ],
      "stateMutability": "view",
      "type": "function"
    },
    {
      "inputs": [
        {
          "internalType": "bytes32",
          "name": "role",
          "type": "bytes32"
        },
        {
          "internalType": "address",
          "name": "account",
          "type": "address"
        }
      ],
      "name": "grantRole",
      "outputs": [],
      "stateMutability": "nonpayable",
      "type": "function"
    },
    {
      "inputs": [
        {
          "internalType": "bytes32",
          "name": "role",
          "type": "bytes32"
        },
        {
          "internalType": "address",
          "name": "account",
          "type": "address"
        }
      ],
      "name": "hasRole",
      "outputs": [
        {
          "internalType": "bool",
          "name": "",
          "type": "bool"
        }
      ],
      "stateMutability": "view",
      "type": "function"
    },
    {
      "inputs": [
        {
          "internalType": "address",
          "name": "owner",
          "type": "address"
        },
        {
          "internalType": "address",
          "name": "operator",
          "type": "address"
        }
      ],
      "name": "isApprovedForAll",
      "outputs": [
        {
          "internalType": "bool",
          "name": "",
          "type": "bool"
        }
      ],
      "stateMutability": "view",
      "type": "function"
    },
    {
      "inputs": [
        {
          "internalType": "string",
          "name": "name",
          "type": "string"
        }
      ],
      "name": "isAvailable",
      "outputs": [
        {
          "internalType": "bool",
          "name": "available",
          "type": "bool"
        }
      ],
      "stateMutability": "view",
      "type": "function"
    },
    {
      "inputs": [
        {
          "internalType": "address",
          "name": "to",
          "type": "address"
        },
        {
          "internalType": "string",
          "name": "name",
          "type": "string"
        },
        {
          "internalType": "uint256",
          "name": "yearsPeriod",
          "type": "uint256"
        },
        {
          "internalType": "string",
          "name": "_tokenURI",
          "type": "string"
        }
      ],
      "name": "mint",
      "outputs": [
        {
          "internalType": "uint256",
          "name": "",
          "type": "uint256"
        }
      ],
      "stateMutability": "nonpayable",
      "type": "function"
    },
    {
      "inputs": [],
      "name": "name",
      "outputs": [
        {
          "internalType": "string",
          "name": "",
          "type": "string"
        }
      ],
      "stateMutability": "view",
      "type": "function"
    },
    {
      "inputs": [
        {
          "internalType": "string",
          "name": "",
          "type": "string"
        }
      ],
      "name": "nameData",
      "outputs": [
        {
          "internalType": "bool",
          "name": "exists",
          "type": "bool"
        },
        {
          "internalType": "uint256",
          "name": "tokenId",
          "type": "uint256"
        }
      ],
      "stateMutability": "view",
      "type": "function"
    },
    {
      "inputs": [],
      "name": "owner",
      "outputs": [
        {
          "internalType": "address",
          "name": "",
          "type": "address"
        }
      ],
      "stateMutability": "view",
      "type": "function"
    },
    {
      "inputs": [
        {
          "internalType": "uint256",
          "name": "tokenId",
          "type": "uint256"
        }
      ],
      "name": "ownerOf",
      "outputs": [
        {
          "internalType": "address",
          "name": "",
          "type": "address"
        }
      ],
      "stateMutability": "view",
      "type": "function"
    },
    {
      "inputs": [
        {
          "internalType": "uint256",
          "name": "tokenId",
          "type": "uint256"
        },
        {
          "internalType": "uint256",
          "name": "yearsPeriod",
          "type": "uint256"
        }
      ],
      "name": "renewYearsPeriod",
      "outputs": [],
      "stateMutability": "nonpayable",
      "type": "function"
    },
    {
      "inputs": [],
      "name": "renounceOwnership",
      "outputs": [],
      "stateMutability": "nonpayable",
      "type": "function"
    },
    {
      "inputs": [
        {
          "internalType": "bytes32",
          "name": "role",
          "type": "bytes32"
        },
        {
          "internalType": "address",
          "name": "account",
          "type": "address"
        }
      ],
      "name": "renounceRole",
      "outputs": [],
      "stateMutability": "nonpayable",
      "type": "function"
    },
    {
      "inputs": [
        {
          "internalType": "bytes32",
          "name": "role",
          "type": "bytes32"
        },
        {
          "internalType": "address",
          "name": "account",
          "type": "address"
        }
      ],
      "name": "revokeRole",
      "outputs": [],
      "stateMutability": "nonpayable",
      "type": "function"
    },
    {
      "inputs": [
        {
          "internalType": "address",
          "name": "from",
          "type": "address"
        },
        {
          "internalType": "address",
          "name": "to",
          "type": "address"
        },
        {
          "internalType": "uint256",
          "name": "tokenId",
          "type": "uint256"
        }
      ],
      "name": "safeTransferFrom",
      "outputs": [],
      "stateMutability": "nonpayable",
      "type": "function"
    },
    {
      "inputs": [
        {
          "internalType": "address",
          "name": "from",
          "type": "address"
        },
        {
          "internalType": "address",
          "name": "to",
          "type": "address"
        },
        {
          "internalType": "uint256",
          "name": "tokenId",
          "type": "uint256"
        },
        {
          "internalType": "bytes",
          "name": "data",
          "type": "bytes"
        }
      ],
      "name": "safeTransferFrom",
      "outputs": [],
      "stateMutability": "nonpayable",
      "type": "function"
    },
    {
      "inputs": [
        {
          "internalType": "address",
          "name": "operator",
          "type": "address"
        },
        {
          "internalType": "bool",
          "name": "approved",
          "type": "bool"
        }
      ],
      "name": "setApprovalForAll",
      "outputs": [],
      "stateMutability": "nonpayable",
      "type": "function"
    },
    {
      "inputs": [
        {
          "internalType": "string",
          "name": "_contractURI",
          "type": "string"
        }
      ],
      "name": "setContractURI",
      "outputs": [],
      "stateMutability": "nonpayable",
      "type": "function"
    },
    {
      "inputs": [
        {
          "internalType": "string",
          "name": "_extension",
          "type": "string"
        }
      ],
      "name": "setExtension",
      "outputs": [],
      "stateMutability": "nonpayable",
      "type": "function"
    },
    {
      "inputs": [
        {
          "internalType": "contract ISoulboundIdentity",
          "name": "_soulboundIdentity",
          "type": "address"
        }
      ],
      "name": "setSoulboundIdentity",
      "outputs": [],
      "stateMutability": "nonpayable",
      "type": "function"
    },
    {
      "inputs": [],
      "name": "soulboundIdentity",
      "outputs": [
        {
          "internalType": "contract ISoulboundIdentity",
          "name": "",
          "type": "address"
        }
      ],
      "stateMutability": "view",
      "type": "function"
    },
    {
      "inputs": [
        {
          "internalType": "bytes4",
          "name": "interfaceId",
          "type": "bytes4"
        }
      ],
      "name": "supportsInterface",
      "outputs": [
        {
          "internalType": "bool",
          "name": "",
          "type": "bool"
        }
      ],
      "stateMutability": "view",
      "type": "function"
    },
    {
      "inputs": [],
      "name": "symbol",
      "outputs": [
        {
          "internalType": "string",
          "name": "",
          "type": "string"
        }
      ],
      "stateMutability": "view",
      "type": "function"
    },
    {
      "inputs": [
        {
          "internalType": "uint256",
          "name": "index",
          "type": "uint256"
        }
      ],
      "name": "tokenByIndex",
      "outputs": [
        {
          "internalType": "uint256",
          "name": "",
          "type": "uint256"
        }
      ],
      "stateMutability": "view",
      "type": "function"
    },
    {
      "inputs": [
        {
          "internalType": "uint256",
          "name": "",
          "type": "uint256"
        }
      ],
      "name": "tokenData",
      "outputs": [
        {
          "internalType": "string",
          "name": "name",
          "type": "string"
        },
        {
          "internalType": "uint256",
          "name": "expirationDate",
          "type": "uint256"
        }
      ],
      "stateMutability": "view",
      "type": "function"
    },
    {
      "inputs": [
        {
          "internalType": "address",
          "name": "owner",
          "type": "address"
        },
        {
          "internalType": "uint256",
          "name": "index",
          "type": "uint256"
        }
      ],
      "name": "tokenOfOwnerByIndex",
      "outputs": [
        {
          "internalType": "uint256",
          "name": "",
          "type": "uint256"
        }
      ],
      "stateMutability": "view",
      "type": "function"
    },
    {
      "inputs": [
        {
          "internalType": "string",
          "name": "name",
          "type": "string"
        }
      ],
      "name": "tokenURI",
      "outputs": [
        {
          "internalType": "string",
          "name": "",
          "type": "string"
        }
      ],
      "stateMutability": "view",
      "type": "function"
    },
    {
      "inputs": [
        {
          "internalType": "uint256",
          "name": "tokenId",
          "type": "uint256"
        }
      ],
      "name": "tokenURI",
      "outputs": [
        {
          "internalType": "string",
          "name": "",
          "type": "string"
        }
      ],
      "stateMutability": "view",
      "type": "function"
    },
    {
      "inputs": [],
      "name": "totalSupply",
      "outputs": [
        {
          "internalType": "uint256",
          "name": "",
          "type": "uint256"
        }
      ],
      "stateMutability": "view",
      "type": "function"
    },
    {
      "inputs": [
        {
          "internalType": "address",
          "name": "from",
          "type": "address"
        },
        {
          "internalType": "address",
          "name": "to",
          "type": "address"
        },
        {
          "internalType": "uint256",
          "name": "tokenId",
          "type": "uint256"
        }
      ],
      "name": "transferFrom",
      "outputs": [],
      "stateMutability": "nonpayable",
      "type": "function"
    },
    {
      "inputs": [
        {
          "internalType": "address",
          "name": "newOwner",
          "type": "address"
        }
      ],
      "name": "transferOwnership",
      "outputs": [],
      "stateMutability": "nonpayable",
      "type": "function"
    }
  ],
  "transactionHash": "0xf7e1a69ba7b211f617eb1b5bad266f615ec4db7d36caee1d790918c7ad27eadc",
  "args": [
    "0x46c9cdA3F83C5c13C767A07b6E80aEd302E40B28",
    "Prosperity Passport Domain",
    "PPD",
    "0xbB05d511f5a3d60C17CCf8899F5FD0680af58eb3",
    ".celo",
    "ar://bfG2m3VJU19fj6uGgyaxNY0QhK0G7RINYtw-GRVVqTM"
  ],
  "numDeployments": 1,
  "solcInputHash": "eb1c9cbe365d036e292b691dc2b1d7f4",
  "bytecode": "0x60806040523480156200001157600080fd5b50604051620043413803806200434183398101604081905262000034916200043d565b85858560405180602001604052806000815250828281600090805190602001906200006192919062000304565b5080516200007790600190602084019062000304565b505050620000946200008e6200017d60201b60201c565b62000181565b620000aa84620001d360201b620018051760201c565b620000b76000856200021d565b620000e37f9f2df0fed2c77648de5860a4cc508cd0818c85b8b8a1ab4ceeef8d981c8956a6856200021d565b8051620000f890600d90602084019062000304565b50506001600e555050506001600160a01b0383166200012a5760405163d92e233d60e01b815260040160405180910390fd5b600f80546001600160a01b0319166001600160a01b03851617905581516200015a90601090602085019062000304565b5080516200017090601190602084019062000304565b5050505050505062000727565b3390565b600a80546001600160a01b038381166001600160a01b0319831681179093556040519116919082907f8be0079c531659141344cd1fd0a4f28419497f9722a3daafe3b4186f6b6457e090600090a35050565b620001dd620002a8565b6001600160a01b0381166200020f5760405162461bcd60e51b8152600401620002069062000545565b60405180910390fd5b6200021a8162000181565b50565b620002298282620002d7565b620002a4576000828152600b602090815260408083206001600160a01b03851684529091529020805460ff19166001179055620002633390565b6001600160a01b0316816001600160a01b0316837f2f8788117e7eff1d82e926ec794901d17c78024a50270940304540a733656f0d60405160405180910390a45b5050565b600a546001600160a01b03163314620002d55760405162461bcd60e51b8152600401620002069062000590565b565b6000828152600b602090815260408083206001600160a01b038516845290915290205460ff165b92915050565b82805462000312906200066c565b90600052602060002090601f01602090048101928262000336576000855562000381565b82601f106200035157805160ff191683800117855562000381565b8280016001018555821562000381579182015b828111156200038157825182559160200191906001019062000364565b506200038f92915062000393565b5090565b5b808211156200038f576000815560010162000394565b6000620003c1620003bb84620005ea565b620005cb565b905082815260208101848484011115620003de57620003de600080fd5b620003eb84828562000639565b509392505050565b8051620002fe8162000705565b8051620002fe816200071c565b600082601f830112620004235762000423600080fd5b815162000435848260208601620003aa565b949350505050565b60008060008060008060c087890312156200045b576200045b600080fd5b6000620004698989620003f3565b96505060208701516001600160401b038111156200048a576200048a600080fd5b6200049889828a016200040d565b95505060408701516001600160401b03811115620004b957620004b9600080fd5b620004c789828a016200040d565b9450506060620004da89828a0162000400565b93505060808701516001600160401b03811115620004fb57620004fb600080fd5b6200050989828a016200040d565b92505060a08701516001600160401b038111156200052a576200052a600080fd5b6200053889828a016200040d565b9150509295509295509295565b60208082528101620002fe81602681527f4f776e61626c653a206e6577206f776e657220697320746865207a65726f206160208201526564647265737360d01b604082015260600190565b60208082528181019081527f4f776e61626c653a2063616c6c6572206973206e6f7420746865206f776e6572604083015260608201620002fe565b6000620005d760405190565b9050620005e582826200069d565b919050565b60006001600160401b03821115620006065762000606620006e5565b6200061182620006fb565b60200192915050565b60006001600160a01b038216620002fe565b6000620002fe826200061a565b60005b83811015620006565781810151838201526020016200063c565b8381111562000666576000848401525b50505050565b6002810460018216806200068157607f821691505b60208210811415620006975762000697620006cf565b50919050565b620006a882620006fb565b81018181106001600160401b0382111715620006c857620006c8620006e5565b6040525050565b634e487b7160e01b600052602260045260246000fd5b634e487b7160e01b600052604160045260246000fd5b601f01601f191690565b62000710816200061a565b81146200021a57600080fd5b62000710816200062c565b613c0a80620007376000396000f3fe608060405234801561001057600080fd5b506004361061020f5760003560e01c806301ffc9a71461021457806306fdde031461023d578063081812fc14610252578063095ea7b31461027257806318160ddd146102875780631e7663bc1461029857806323b872dd146102ab578063248a9ca3146102be5780632d5537b0146102d15780632f2ff15d146102d95780632f745c59146102ec57806336568abe146102ff5780633ad3033e146103125780633dd904301461032557806342842e0e1461033857806342966c681461034b57806346b2b0871461035e5780634cf12d26146103835780634f558e79146103965780634f6ccce7146103a95780636352211e146103bc57806370a08231146103cf578063715018a6146103e2578063776ce6a1146103ea57806377bed5ed146103f25780637e2285aa146104125780637e669891146104255780638da5cb5b1461044557806391d148541461044d578063938e3d7b1461046057806395d89b4114610473578063965306aa1461047b578063a217fddf1461048e578063a22cb46514610496578063b4b5b48f146104a9578063b79636b6146104ca578063b88d4fde146104dd578063bdf29a85146104f0578063c87b56dd14610536578063d539139314610549578063d547741f1461055e578063e8a3d48514610571578063e985e9c514610579578063ebfcbee11461058c578063f2fde38b1461059f575b600080fd5b610227610222366004612ee8565b6105b2565b6040516102349190613719565b60405180910390f35b6102456105c3565b604051610234919061375e565b610265610260366004612ea5565b610655565b60405161023491906136b6565b610285610280366004612e72565b61067c565b005b6008545b6040516102349190613742565b61028b6102a6366004612f4b565b61070b565b6102856102b9366004612d21565b610716565b61028b6102cc366004612ea5565b610748565b61024561075d565b6102856102e7366004612ec6565b6107eb565b61028b6102fa366004612e72565b610807565b61028561030d366004612ec6565b610859565b610285610320366004612f2a565b61088f565b61028b610333366004612e22565b610913565b610285610346366004612d21565b610b7b565b610285610359366004612ea5565b610b96565b61037161036c366004612f4b565b610d5a565b6040516102349695949392919061376f565b610245610391366004612f4b565b610f6e565b6102276103a4366004612ea5565b610f8d565b61028b6103b7366004612ea5565b610f98565b6102656103ca366004612ea5565b610fe6565b61028b6103dd366004612ca2565b61101a565b61028561105e565b610245611072565b600f54610405906001600160a01b031681565b6040516102349190613750565b610285610420366004612f4b565b611081565b610438610433366004612ea5565b61110d565b6040516102349190613708565b61026561119e565b61022761045b366004612ec6565b6111ad565b61028561046e366004612f4b565b6111d8565b610245611264565b610227610489366004612f4b565b611273565b61028b600081565b6102856104a4366004612def565b611300565b6104bc6104b7366004612ea5565b61130b565b6040516102349291906137ce565b6104386104d8366004612ca2565b6113af565b6102856104eb366004612d71565b6114fd565b6105286104fe366004612f4b565b80516020818301810180516015825292820191909301209152805460019091015460ff9091169082565b604051610234929190613727565b610245610544366004612ea5565b611536565b61028b600080516020613b9583398151915281565b61028561056c366004612ec6565b611632565b61024561164e565b610227610587366004612ce4565b61165b565b61028561059a366004612fa6565b611689565b6102856105ad366004612ca2565b611805565b60006105bd8261183f565b92915050565b6060600080546105d290613a72565b80601f01602080910402602001604051908101604052809291908181526020018280546105fe90613a72565b801561064b5780601f106106205761010080835404028352916020019161064b565b820191906000526020600020905b81548152906001019060200180831161062e57829003601f168201915b5050505050905090565b600061066082611864565b506000908152600460205260409020546001600160a01b031690565b600061068782610fe6565b9050806001600160a01b0316836001600160a01b031614156106c45760405162461bcd60e51b81526004016106bb906138be565b60405180910390fd5b336001600160a01b03821614806106e057506106e0813361165b565b6106fc5760405162461bcd60e51b81526004016106bb906138ce565b6107068383611889565b505050565b60006105bd826118f7565b610721335b82611971565b61073d5760405162461bcd60e51b81526004016106bb906137fe565b6107068383836119cf565b6000908152600b602052604090206001015490565b6010805461076a90613a72565b80601f016020809104026020016040519081016040528092919081815260200182805461079690613a72565b80156107e35780601f106107b8576101008083540402835291602001916107e3565b820191906000526020600020905b8154815290600101906020018083116107c657829003601f168201915b505050505081565b6107f482610748565b6107fd81611af2565b6107068383611afc565b60006108128361101a565b82106108305760405162461bcd60e51b81526004016106bb9061380e565b506001600160a01b03919091166000908152600660209081526040808320938352929052205490565b6001600160a01b03811633146108815760405162461bcd60e51b81526004016106bb9061390e565b61088b8282611b82565b5050565b600061089a81611af2565b6001600160a01b0382166108c15760405163d92e233d60e01b815260040160405180910390fd5b600f546001600160a01b03838116911614156108f05760405163c23f6ccb60e01b815260040160405180910390fd5b50600f80546001600160a01b0319166001600160a01b0392909216919091179055565b600061091d611be9565b61092684611273565b61094557836040516309463f9760e31b81526004016106bb919061375e565b8351610966578360405163234371eb60e21b81526004016106bb919061375e565b8261098657826040516372eab4d960e01b81526004016106bb9190613742565b600f546040516370a0823160e01b81526001600160a01b03909116906370a08231906109b69088906004016136b6565b60206040518083038186803b1580156109ce57600080fd5b505afa1580156109e2573d6000803e3d6000fd5b505050506040513d601f19601f82011682018060405250810190610a069190612f85565b610a25578460405163678391f160e01b81526004016106bb91906136b6565b610a4c826040518060400160405280600581526020016461723a2f2f60d81b815250611c13565b158015610a7f5750610a7d8260405180604001604052806007815260200166697066733a2f2f60c81b815250611c13565b155b15610a9f5781604051639bc1a52f60e01b81526004016106bb919061375e565b6000610aaa86611c79565b9050610ab68184611cb8565b60008181526014602090815260409091208651610ad592880190612b1e565b50610aee610ae76301e1338086611d79565b4290611d85565b600082815260146020526040812060010191909155610b0c86611d91565b905081601582604051610b1f919061360a565b9081526020016040518091039020600101819055506001601582604051610b46919061360a565b908152604051908190036020019020805491151560ff19909216919091179055509050610b736001600e55565b949350505050565b610706838383604051806020016040528060008152506114fd565b610b9f81611f07565b610bbe57806040516306caeb1360e41b81526004016106bb9190613742565b60008181526014602052604081208054610c5f9190610bdc90613a72565b80601f0160208091040260200160405190810160405280929190818152602001828054610c0890613a72565b8015610c555780601f10610c2a57610100808354040283529160200191610c55565b820191906000526020600020905b815481529060010190602001808311610c3857829003601f168201915b5050505050611d91565b6000838152601460205260408120919250610c7a8282612ba2565b6001820160009055505081601582604051610c95919061360a565b9081526020016040518091039020600101541415610cdd57601581604051610cbd919061360a565b908152604051908190036020019020805460ff1916815560006001909101555b60008281526012602052604090208054610cf690613a72565b159050610d51576000828152601260205260408082209051601391610d1a9161365c565b9081526040805160209281900383019020805460ff19169315159390931790925560008481526012909152908120610d5191612ba2565b61088b82611f24565b60606000806000806000610d6d876118f7565b92506000610d7a84610fe6565b600f546040516370a0823160e01b815291925060009182916001600160a01b0316906370a0823190610db09086906004016136b6565b60206040518083038186803b158015610dc857600080fd5b505afa158015610ddc573d6000803e3d6000fd5b505050506040513d601f19601f82011682018060405250810190610e009190612f85565b11905060008115610e8e57600f5460405163294cdf0d60e01b81526001600160a01b039091169063294cdf0d90610e3b9086906004016136b6565b60206040518083038186803b158015610e5357600080fd5b505afa158015610e67573d6000803e3d6000fd5b505050506040513d601f19601f82011682018060405250810190610e8b9190612f85565b90505b6000868152601460205260408082208151808301909252805482908290610eb490613a72565b80601f0160208091040260200160405190810160405280929190818152602001828054610ee090613a72565b8015610f2d5780601f10610f0257610100808354040283529160200191610f2d565b820191906000526020600020905b815481529060010190602001808311610f1057829003601f168201915b505050505081526020016001820154815250509050610f4f8160000151611f52565b6020909101519099509197509550925050504281101591939550919395565b60606000610f7b836118f7565b9050610f8681611536565b9392505050565b60006105bd82611f07565b6000610fa360085490565b8210610fc15760405162461bcd60e51b81526004016106bb906138de565b60088281548110610fd457610fd4613b23565b90600052602060002001549050919050565b600080610ff283611f7e565b90506001600160a01b0381166105bd5760405162461bcd60e51b81526004016106bb906138ae565b60006001600160a01b0382166110425760405162461bcd60e51b81526004016106bb9061387e565b506001600160a01b031660009081526003602052604090205490565b611066611f99565b6110706000611fc8565b565b6060601080546105d290613a72565b600061108c81611af2565b8160405160200161109d919061360a565b6040516020818303038152906040528051906020012060106040516020016110c5919061365c565b6040516020818303038152906040528051906020012014156110fa5760405163c23f6ccb60e01b815260040160405180910390fd5b8151610706906010906020850190612b1e565b600f546040516331a9108f60e11b81526060916000916001600160a01b0390911690636352211e90611143908690600401613742565b60206040518083038186803b15801561115b57600080fd5b505afa15801561116f573d6000803e3d6000fd5b505050506040513d601f19601f820116820180604052508101906111939190612cc3565b9050610f86816113af565b600a546001600160a01b031690565b6000918252600b602090815260408084206001600160a01b0393909316845291905290205460ff1690565b60006111e381611af2565b816040516020016111f4919061360a565b60405160208183030381529060405280519060200120601160405160200161121c919061365c565b6040516020818303038152906040528051906020012014156112515760405163c23f6ccb60e01b815260040160405180910390fd5b8151610706906011906020850190612b1e565b6060600180546105d290613a72565b60008061127f83611d91565b9050601581604051611291919061360a565b9081526040519081900360200190205460ff16156112f15760006015826040516112bb919061360a565b90815260200160405180910390206001015490504260146000838152602001908152602001600020600101541092505050919050565b50600192915050565b50919050565b61088b33838361201a565b60146020526000908152604090208054819061132690613a72565b80601f016020809104026020016040519081016040528092919081815260200182805461135290613a72565b801561139f5780601f106113745761010080835404028352916020019161139f565b820191906000526020600020905b81548152906001019060200180831161138257829003601f168201915b5050505050908060010154905082565b60606000806113bd8461101a565b905060005b818110156114125760006113d68683610807565b60008181526014602052604090206001015490915042116113ff576113fc846001611d85565b93505b508061140a81613ac6565b9150506113c2565b506000826001600160401b0381111561142d5761142d613b39565b60405190808252806020026020018201604052801561146057816020015b606081526020019060019003908161144b5790505b5090506000805b838110156114f257600061147b8883610807565b60008181526014602052604090206001015490915042116114df57600081815260146020526040902080546114b49190610bdc90613a72565b8484815181106114c6576114c6613b23565b60209081029190910101526114dc836001611d85565b92505b50806114ea81613ac6565b915050611467565b509095945050505050565b611508335b83611971565b6115245760405162461bcd60e51b81526004016106bb906137fe565b611530848484846120bd565b50505050565b606061154182611864565b6000828152601260205260408120805461155a90613a72565b80601f016020809104026020016040519081016040528092919081815260200182805461158690613a72565b80156115d35780601f106115a8576101008083540402835291602001916115d3565b820191906000526020600020905b8154815290600101906020018083116115b657829003601f168201915b5050505050905060006115e46120f0565b90508051600014156115f7575092915050565b815115611629578082604051602001611611929190613616565b60405160208183030381529060405292505050919050565b610b73846120ff565b61163b82610748565b61164481611af2565b6107068383611b82565b6011805461076a90613a72565b6001600160a01b03918216600090815260056020908152604080832093909416825291909152205460ff1690565b61169233611502565b6116b1573360405163060296c760e31b81526004016106bb91906136b6565b806116d157806040516372eab4d960e01b81526004016106bb9190613742565b600082815260146020526040812080546116ef9190610bdc90613a72565b905082601582604051611702919061360a565b908152602001604051809103902060010154146117365780836040516309a3b96f60e21b81526004016106bb9291906137ce565b60008381526014602052604090206001015442111561177757611760610ae76301e1338084611d79565b6000848152601460205260409020600101556117b3565b6117a06117886301e1338084611d79565b60008581526014602052604090206001015490611d85565b6000848152601460205260409020600101555b600083815260146020526040908190206001015490517f88ef5d91ad01b04046836022a7aade9038eb1188da66972705cc01ae3d49f083916117f8918691869161391e565b60405180910390a1505050565b61180d611f99565b6001600160a01b0381166118335760405162461bcd60e51b81526004016106bb9061382e565b61183c81611fc8565b50565b60006001600160e01b03198216637965db0b60e01b14806105bd57506105bd82612165565b61186d81611f07565b61183c5760405162461bcd60e51b81526004016106bb906138ae565b600081815260046020526040902080546001600160a01b0319166001600160a01b03841690811790915581906118be82610fe6565b6001600160a01b03167f8c5be1e5ebec7d5bd14f71427d1e84f3dd0314c0f7b2291e5b200ac8c7c3b92560405160405180910390a45050565b60008061190383611d91565b9050601581604051611915919061360a565b9081526040519081900360200190205460ff166119475782604051636de04b9f60e01b81526004016106bb919061375e565b601581604051611957919061360a565b908152602001604051809103902060010154915050919050565b60008061197d83610fe6565b9050806001600160a01b0316846001600160a01b031614806119a457506119a4818561165b565b80610b735750836001600160a01b03166119bd84610655565b6001600160a01b031614949350505050565b826001600160a01b03166119e282610fe6565b6001600160a01b031614611a085760405162461bcd60e51b81526004016106bb9061383e565b6001600160a01b038216611a2e5760405162461bcd60e51b81526004016106bb9061385e565b611a3b838383600161218a565b826001600160a01b0316611a4e82610fe6565b6001600160a01b031614611a745760405162461bcd60e51b81526004016106bb9061383e565b600081815260046020908152604080832080546001600160a01b03199081169091556001600160a01b038781168086526003855283862080546000190190559087168086528386208054600101905586865260029094528285208054909216841790915590518493600080516020613bb583398151915291a4505050565b61183c8133612196565b611b0682826111ad565b61088b576000828152600b602090815260408083206001600160a01b03851684529091529020805460ff19166001179055611b3e3390565b6001600160a01b0316816001600160a01b0316837f2f8788117e7eff1d82e926ec794901d17c78024a50270940304540a733656f0d60405160405180910390a45050565b611b8c82826111ad565b1561088b576000828152600b602090815260408083206001600160a01b0385168085529252808320805460ff1916905551339285917ff6391f5c32d9c69d2a47ea670b442974b53935d1edc7fd64eb21e047a839171b9190a45050565b6002600e541415611c0c5760405162461bcd60e51b81526004016106bb906138fe565b6002600e55565b600080611c1f846121ef565b90506000611c2c846121ef565b805183519192501115611c44576000925050506105bd565b806020015182602001511415611c5f576001925050506105bd565b805160209283015192909101518190209120149392505050565b6000600080516020613b95833981519152611c9381611af2565b6000611c9e600c5490565b9050611cae600c80546001019055565b610f86848261221c565b611cc182611f07565b611ce057816040516306caeb1360e41b81526004016106bb9190613742565b601381604051611cf0919061360a565b9081526040519081900360200190205460ff1615611d23578060405163f62081bb60e01b81526004016106bb919061375e565b60008281526012602090815260409091208251611d4292840190612b1e565b506001601382604051611d55919061360a565b908152604051908190036020019020805491151560ff199092169190911790555050565b6000610f8682846139c6565b6000610f86828461398d565b60606000829050600081516001600160401b03811115611db357611db3613b39565b6040519080825280601f01601f191660200182016040528015611ddd576020820181803683370190505b50905060005b8251811015611eff57604160f81b838281518110611e0357611e03613b23565b01602001516001600160f81b03191610801590611e445750605a60f81b838281518110611e3257611e32613b23565b01602001516001600160f81b03191611155b15611ea657828181518110611e5b57611e5b613b23565b602001015160f81c60f81b60f81c6020611e7591906139a5565b60f81b828281518110611e8a57611e8a613b23565b60200101906001600160f81b031916908160001a905350611eed565b828181518110611eb857611eb8613b23565b602001015160f81c60f81b828281518110611ed557611ed5613b23565b60200101906001600160f81b031916908160001a9053505b80611ef781613ac6565b915050611de3565b509392505050565b600080611f1383611f7e565b6001600160a01b0316141592915050565b611f2d3361071b565b611f495760405162461bcd60e51b81526004016106bb906137fe565b61183c81612236565b6060816010604051602001611f689291906135f2565b6040516020818303038152906040529050919050565b6000908152600260205260409020546001600160a01b031690565b33611fa261119e565b6001600160a01b0316146110705760405162461bcd60e51b81526004016106bb9061389e565b600a80546001600160a01b038381166001600160a01b0319831681179093556040519116919082907f8be0079c531659141344cd1fd0a4f28419497f9722a3daafe3b4186f6b6457e090600090a35050565b816001600160a01b0316836001600160a01b0316141561204c5760405162461bcd60e51b81526004016106bb9061386e565b6001600160a01b0383811660008181526005602090815260408083209487168084529490915290819020805460ff1916851515179055517f17307eab39ab6107e8899845ad3d59bd9653f200f220920489ca2b5937696c31906120b0908590613719565b60405180910390a3505050565b6120c88484846119cf565b6120d4848484846122c7565b6115305760405162461bcd60e51b81526004016106bb9061381e565b6060600d80546105d290613a72565b606061210a82611864565b60006121146120f0565b905060008151116121345760405180602001604052806000815250610f86565b8061213e846123d1565b60405160200161214f92919061362e565b6040516020818303038152906040529392505050565b60006001600160e01b0319821663780e9d6360e01b14806105bd57506105bd82612465565b611530848484846124b5565b6121a082826111ad565b61088b576121ad816125a7565b6121b88360206125b9565b6040516020016121c9929190613668565b60408051601f198184030181529082905262461bcd60e51b82526106bb9160040161375e565b60408051808201825260008082526020918201528151808301909252825182529182019181019190915290565b61088b828260405180602001604052806000815250612724565b600061224182610fe6565b905061225181600084600161218a565b61225a82610fe6565b600083815260046020908152604080832080546001600160a01b03199081169091556001600160a01b038516808552600384528285208054600019019055878552600290935281842080549091169055519293508492600080516020613bb5833981519152908390a45050565b60006001600160a01b0384163b156123c957604051630a85bd0160e11b81526001600160a01b0385169063150b7a029061230b9033908990889088906004016136c4565b602060405180830381600087803b15801561232557600080fd5b505af1925050508015612355575060408051601f3d908101601f1916820190925261235291810190612f09565b60015b6123af573d808015612383576040519150601f19603f3d011682016040523d82523d6000602084013e612388565b606091505b5080516123a75760405162461bcd60e51b81526004016106bb9061381e565b805181602001fd5b6001600160e01b031916630a85bd0160e11b149050610b73565b506001610b73565b606060006123de83612757565b60010190506000816001600160401b038111156123fd576123fd613b39565b6040519080825280601f01601f191660200182016040528015612427576020820181803683370190505b5090508181016020015b600019016f181899199a1a9b1b9c1cb0b131b232b360811b600a86061a8153600a850494508461246057611eff565b612431565b60006001600160e01b031982166380ac58cd60e01b148061249657506001600160e01b03198216635b5e139f60e01b145b806105bd57506301ffc9a760e01b6001600160e01b03198316146105bd565b6124c18484848461282d565b60018111156124e25760405162461bcd60e51b81526004016106bb906138ee565b816001600160a01b03851661253e5761253981600880546000838152600960205260408120829055600182018355919091527ff3f7a9fe364faab93b216da50a3214154f22a0a2b415b23a84c8169e8b636ee30155565b612561565b836001600160a01b0316856001600160a01b0316146125615761256185826128b5565b6001600160a01b03841661257d5761257881612952565b6125a0565b846001600160a01b0316846001600160a01b0316146125a0576125a08482612a01565b5050505050565b60606105bd6001600160a01b03831660145b606060006125c88360026139c6565b6125d390600261398d565b6001600160401b038111156125ea576125ea613b39565b6040519080825280601f01601f191660200182016040528015612614576020820181803683370190505b509050600360fc1b8160008151811061262f5761262f613b23565b60200101906001600160f81b031916908160001a905350600f60fb1b8160018151811061265e5761265e613b23565b60200101906001600160f81b031916908160001a90535060006126828460026139c6565b61268d90600161398d565b90505b6001811115612705576f181899199a1a9b1b9c1cb0b131b232b360811b85600f16601081106126c1576126c1613b23565b1a60f81b8282815181106126d7576126d7613b23565b60200101906001600160f81b031916908160001a90535060049490941c936126fe81613a5b565b9050612690565b508315610f865760405162461bcd60e51b81526004016106bb906137ee565b61272e8383612a45565b61273b60008484846122c7565b6107065760405162461bcd60e51b81526004016106bb9061381e565b60008072184f03e93ff9f4daa797ed6e38ed64bf6a1f0160401b83106127965772184f03e93ff9f4daa797ed6e38ed64bf6a1f0160401b830492506040015b6904ee2d6d415b85acef8160201b83106127c0576904ee2d6d415b85acef8160201b830492506020015b662386f26fc1000083106127de57662386f26fc10000830492506010015b6305f5e10083106127f6576305f5e100830492506008015b612710831061280a57612710830492506004015b6064831061281c576064830492506002015b600a83106105bd5760010192915050565b6001811115611530576001600160a01b03841615612873576001600160a01b0384166000908152600360205260408120805483929061286d9084906139e5565b90915550505b6001600160a01b03831615611530576001600160a01b038316600090815260036020526040812080548392906128aa90849061398d565b909155505050505050565b600060016128c28461101a565b6128cc91906139e5565b60008381526007602052604090205490915080821461291f576001600160a01b03841660009081526006602090815260408083208584528252808320548484528184208190558352600790915290208190555b5060009182526007602090815260408084208490556001600160a01b039094168352600681528383209183525290812055565b600854600090612964906001906139e5565b6000838152600960205260408120546008805493945090928490811061298c5761298c613b23565b9060005260206000200154905080600883815481106129ad576129ad613b23565b60009182526020808320909101929092558281526009909152604080822084905585825281205560088054806129e5576129e5613b0d565b6001900381819060005260206000200160009055905550505050565b6000612a0c8361101a565b6001600160a01b039093166000908152600660209081526040808320868452825280832085905593825260079052919091209190915550565b6001600160a01b038216612a6b5760405162461bcd60e51b81526004016106bb9061388e565b612a7481611f07565b15612a915760405162461bcd60e51b81526004016106bb9061384e565b612a9f60008383600161218a565b612aa881611f07565b15612ac55760405162461bcd60e51b81526004016106bb9061384e565b6001600160a01b038216600081815260036020908152604080832080546001019055848352600290915280822080546001600160a01b031916841790555183929190600080516020613bb5833981519152908290a45050565b828054612b2a90613a72565b90600052602060002090601f016020900481019282612b4c5760008555612b92565b82601f10612b6557805160ff1916838001178555612b92565b82800160010185558215612b92579182015b82811115612b92578251825591602001919060010190612b77565b50612b9e929150612bd8565b5090565b508054612bae90613a72565b6000825580601f10612bbe575050565b601f01602090049060005260206000209081019061183c91905b5b80821115612b9e5760008155600101612bd9565b6000612c00612bfb84613962565b613946565b905082815260208101848484011115612c1b57612c1b600080fd5b611eff848285613a23565b80356105bd81613b59565b80516105bd81613b59565b80356105bd81613b6d565b80356105bd81613b75565b80356105bd81613b7b565b80516105bd81613b7b565b600082601f830112612c7c57612c7c600080fd5b8135610b73848260208601612bed565b80356105bd81613b8b565b80516105bd81613b75565b600060208284031215612cb757612cb7600080fd5b6000610b738484612c26565b600060208284031215612cd857612cd8600080fd5b6000610b738484612c31565b60008060408385031215612cfa57612cfa600080fd5b6000612d068585612c26565b9250506020612d1785828601612c26565b9150509250929050565b600080600060608486031215612d3957612d39600080fd5b6000612d458686612c26565b9350506020612d5686828701612c26565b9250506040612d6786828701612c47565b9150509250925092565b60008060008060808587031215612d8a57612d8a600080fd5b6000612d968787612c26565b9450506020612da787828801612c26565b9350506040612db887828801612c47565b92505060608501356001600160401b03811115612dd757612dd7600080fd5b612de387828801612c68565b91505092959194509250565b60008060408385031215612e0557612e05600080fd5b6000612e118585612c26565b9250506020612d1785828601612c3c565b60008060008060808587031215612e3b57612e3b600080fd5b6000612e478787612c26565b94505060208501356001600160401b03811115612e6657612e66600080fd5b612da787828801612c68565b60008060408385031215612e8857612e88600080fd5b6000612e948585612c26565b9250506020612d1785828601612c47565b600060208284031215612eba57612eba600080fd5b6000610b738484612c47565b60008060408385031215612edc57612edc600080fd5b6000612d068585612c47565b600060208284031215612efd57612efd600080fd5b6000610b738484612c52565b600060208284031215612f1e57612f1e600080fd5b6000610b738484612c5d565b600060208284031215612f3f57612f3f600080fd5b6000610b738484612c8c565b600060208284031215612f6057612f60600080fd5b81356001600160401b03811115612f7957612f79600080fd5b610b7384828501612c68565b600060208284031215612f9a57612f9a600080fd5b6000610b738484612c97565b60008060408385031215612fbc57612fbc600080fd5b6000612e948585612c47565b6000610f868383613057565b612fdd816139fc565b82525050565b6000612fed825190565b808452602084019350836020820285016130078560200190565b8060005b8581101561303c57848403895281516130248582612fc8565b94506020830160209a909a019992505060010161300b565b5091979650505050505050565b801515612fdd565b80612fdd565b6000613061825190565b808452602084019350613078818560208601613a2f565b61308181613b4f565b9093019392505050565b6000613095825190565b6130a3818560208601613a2f565b9290920192915050565b600081546130ba81613a72565b6001821680156130d157600181146130e257613112565b60ff19831686528186019350613112565b60008581526020902060005b8381101561310a578154888201526001909101906020016130ee565b838801955050505b50505092915050565b612fdd81613a18565b60208082527f537472696e67733a20686578206c656e67746820696e73756666696369656e74910190815260005b5060200190565b602d81526000602082017f4552433732313a2063616c6c6572206973206e6f7420746f6b656e206f776e6581526c1c881bdc88185c1c1c9bdd9959609a1b602082015291505b5060400190565b602b81526000602082017f455243373231456e756d657261626c653a206f776e657220696e646578206f7581526a74206f6620626f756e647360a81b6020820152915061319f565b603281526000602082017f4552433732313a207472616e7366657220746f206e6f6e20455243373231526581527131b2b4bb32b91034b6b83632b6b2b73a32b960711b6020820152915061319f565b602681526000602082017f4f776e61626c653a206e6577206f776e657220697320746865207a65726f206181526564647265737360d01b6020820152915061319f565b602581526000602082017f4552433732313a207472616e736665722066726f6d20696e636f72726563742081526437bbb732b960d91b6020820152915061319f565b601c81526000602082017b115490cdcc8c4e881d1bdad95b88185b1c9958591e481b5a5b9d195960221b81529150613152565b602481526000602082017f4552433732313a207472616e7366657220746f20746865207a65726f206164648152637265737360e01b6020820152915061319f565b601981526000602082017822a9219b99189d1030b8383937bb32903a379031b0b63632b960391b81529150613152565b602981526000602082017f4552433732313a2061646472657373207a65726f206973206e6f7420612076618152683634b21037bbb732b960b91b6020820152915061319f565b60208082527f4552433732313a206d696e7420746f20746865207a65726f206164647265737391019081526000613152565b60208082527f4f776e61626c653a2063616c6c6572206973206e6f7420746865206f776e657291019081526000613152565b6018815260006020820177115490cdcc8c4e881a5b9d985b1a59081d1bdad95b88125160421b81529150613152565b602181526000602082017f4552433732313a20617070726f76616c20746f2063757272656e74206f776e658152603960f91b6020820152915061319f565b603d81526000602082017f4552433732313a20617070726f76652063616c6c6572206973206e6f7420746f81527f6b656e206f776e6572206f7220617070726f76656420666f7220616c6c0000006020820152915061319f565b602c81526000602082017f455243373231456e756d657261626c653a20676c6f62616c20696e646578206f81526b7574206f6620626f756e647360a01b6020820152915061319f565b603581526000602082017f455243373231456e756d657261626c653a20636f6e7365637574697665207472815274185b9cd9995c9cc81b9bdd081cdd5c1c1bdc9d1959605a1b6020820152915061319f565b601f81526000602082017f5265656e7472616e637947756172643a207265656e7472616e742063616c6c0081529150613152565b602f81526000602082017f416363657373436f6e74726f6c3a2063616e206f6e6c792072656e6f756e636581526e103937b632b9903337b91039b2b63360891b6020820152915061319f565b60006135fe828561308b565b9150610b7382846130ad565b6000610f86828461308b565b6000613622828561308b565b9150610b73828461308b565b600061363a828561308b565b9150613646828461308b565b64173539b7b760d91b8152915060058201610b73565b6000610f8682846130ad565b76020b1b1b2b9b9a1b7b73a3937b61d1030b1b1b7bab73a1604d1b81526017016000613694828561308b565b7001034b99036b4b9b9b4b733903937b6329607d1b8152915060118201613622565b602081016105bd8284612fd4565b608081016136d28287612fd4565b6136df6020830186612fd4565b6136ec6040830185613051565b81810360608301526136fe8184613057565b9695505050505050565b60208082528101610f868184612fe3565b602081016105bd8284613049565b604081016137358285613049565b610f866020830184613051565b602081016105bd8284613051565b602081016105bd828461311b565b60208082528101610f868184613057565b60c080825281016137808189613057565b905061378f6020830188613049565b61379c6040830187613051565b6137a96060830186613051565b6137b66080830185613051565b6137c360a0830184613049565b979650505050505050565b604080825281016137df8185613057565b9050610f866020830184613051565b602080825281016105bd81613124565b602080825281016105bd81613159565b602080825281016105bd816131a6565b602080825281016105bd816131ee565b602080825281016105bd8161323d565b602080825281016105bd81613280565b602080825281016105bd816132c2565b602080825281016105bd816132f5565b602080825281016105bd81613336565b602080825281016105bd81613366565b602080825281016105bd816133ac565b602080825281016105bd816133de565b602080825281016105bd81613410565b602080825281016105bd8161343f565b602080825281016105bd8161347d565b602080825281016105bd816134d7565b602080825281016105bd81613520565b602080825281016105bd81613572565b602080825281016105bd816135a6565b6060810161392c8286613051565b6139396020830185613051565b610b736040830184613051565b600061395160405190565b905061395d8282613a99565b919050565b60006001600160401b0382111561397b5761397b613b39565b61398482613b4f565b60200192915050565b600082198211156139a0576139a0613ae1565b500190565b600060ff8216915060ff831692508260ff038211156139a0576139a0613ae1565b60008160001904831182151516156139e0576139e0613ae1565b500290565b6000828210156139f7576139f7613ae1565b500390565b60006001600160a01b0382166105bd565b60006105bd826139fc565b60006105bd82613a0d565b82818337506000910152565b60005b83811015613a4a578181015183820152602001613a32565b838111156115305750506000910152565b600081613a6a57613a6a613ae1565b506000190190565b600281046001821680613a8657607f821691505b602082108114156112fa576112fa613af7565b613aa282613b4f565b81018181106001600160401b0382111715613abf57613abf613b39565b6040525050565b6000600019821415613ada57613ada613ae1565b5060010190565b634e487b7160e01b600052601160045260246000fd5b634e487b7160e01b600052602260045260246000fd5b634e487b7160e01b600052603160045260246000fd5b634e487b7160e01b600052603260045260246000fd5b634e487b7160e01b600052604160045260246000fd5b601f01601f191690565b613b62816139fc565b811461183c57600080fd5b801515613b62565b80613b62565b6001600160e01b03198116613b62565b613b6281613a0d56fe9f2df0fed2c77648de5860a4cc508cd0818c85b8b8a1ab4ceeef8d981c8956a6ddf252ad1be2c89b69c2b068fc378daa952ba7f163c4a11628f55a4df523b3efa264697066735822122053448970f442e1655f9d981a38fb304275154eeb9c16e359d306651ea34602c564736f6c63430008070033",
  "devdoc": {
    "author": "Masa Finance",
    "details": "SoulName NFT, that inherits from the NFT contract, and points to a Soulbound identity token. It has an extension, and stores all the information about the identity names.",
    "kind": "dev",
    "methods": {
      "approve(address,uint256)": {
        "details": "See {IERC721-approve}."
      },
      "balanceOf(address)": {
        "details": "See {IERC721-balanceOf}."
      },
      "burn(uint256)": {
        "details": "The caller must be the owner or an approved address of the soul name.",
        "params": {
          "tokenId": "TokenId of the soul name to burn"
        }
      },
      "constructor": {
        "details": "Creates a new SoulName NFT, that points to a Soulbound identity, inheriting from the NFT contract.",
        "params": {
          "_contractURI": "URI of the smart contract metadata",
          "_extension": "Extension of the soul name",
          "_soulboundIdentity": "Address of the Soulbound identity contract",
          "admin": "Administrator of the smart contract",
          "name": "Name of the token",
          "symbol": "Symbol of the token"
        }
      },
      "exists(uint256)": {
        "details": "Returns true if the token has been minted",
        "params": {
          "tokenId": "Token to check"
        },
        "returns": {
          "_0": "True if the token exists"
        }
      },
      "getApproved(uint256)": {
        "details": "See {IERC721-getApproved}."
      },
      "getExtension()": {
        "details": "This function is used to get the extension of the soul name",
        "returns": {
          "_0": "Extension of the soul name"
        }
      },
      "getRoleAdmin(bytes32)": {
        "details": "Returns the admin role that controls `role`. See {grantRole} and {revokeRole}. To change a role's admin, use {_setRoleAdmin}."
      },
      "getSoulNames(address)": {
        "details": "This function queries all the identity names of the specified account",
        "params": {
          "owner": "Address of the owner of the identities"
        },
        "returns": {
          "sbtNames": "Array of soul names associated to the account"
        }
      },
      "getSoulNames(uint256)": {
        "details": "This function queries all the identity names of the specified identity Id",
        "params": {
          "identityId": "TokenId of the identity"
        },
        "returns": {
          "sbtNames": "Array of soul names associated to the identity Id"
        }
      },
      "getTokenData(string)": {
        "details": "This function queries the information of a soul name",
        "params": {
          "name": "Name of the soul name"
        },
        "returns": {
          "active": "`true` if the soul name is active, `false` otherwise",
          "expirationDate": "Expiration date of the soul name",
          "identityId": "Identity id of the soul name",
          "linked": "`true` if the soul name is linked, `false` otherwise",
          "sbtName": "Soul name, in upper/lower case and extension",
          "tokenId": "SoulName id of the soul name"
        }
      },
      "getTokenId(string)": {
        "details": "This function queries the token id of a soul name",
        "params": {
          "name": "Name of the soul name"
        },
        "returns": {
          "_0": "SoulName id of the soul name"
        }
      },
      "grantRole(bytes32,address)": {
        "details": "Grants `role` to `account`. If `account` had not been already granted `role`, emits a {RoleGranted} event. Requirements: - the caller must have ``role``'s admin role. May emit a {RoleGranted} event."
      },
      "hasRole(bytes32,address)": {
        "details": "Returns `true` if `account` has been granted `role`."
      },
      "isApprovedForAll(address,address)": {
        "details": "See {IERC721-isApprovedForAll}."
      },
      "isAvailable(string)": {
        "details": "This function queries if a soul name already exists and is in the available state",
        "params": {
          "name": "Name of the soul name"
        },
        "returns": {
          "available": "`true` if the soul name is available, `false` otherwise"
        }
      },
      "mint(address,string,uint256,string)": {
        "details": "The caller can mint more than one name. The soul name must be unique.",
        "params": {
          "_tokenURI": "URI of the NFT",
          "name": "Name of the new soul name",
          "to": "Address of the owner of the new soul name",
          "yearsPeriod": "Years of validity of the name"
        }
      },
      "name()": {
        "details": "See {IERC721Metadata-name}."
      },
      "owner()": {
        "details": "Returns the address of the current owner."
      },
      "ownerOf(uint256)": {
        "details": "See {IERC721-ownerOf}."
      },
      "renewYearsPeriod(uint256,uint256)": {
        "details": "The caller must be the owner or an approved address of the soul name.",
        "params": {
          "tokenId": "TokenId of the soul name",
          "yearsPeriod": "Years of validity of the name"
        }
      },
      "renounceOwnership()": {
        "details": "Leaves the contract without owner. It will not be possible to call `onlyOwner` functions anymore. Can only be called by the current owner. NOTE: Renouncing ownership will leave the contract without an owner, thereby removing any functionality that is only available to the owner."
      },
      "renounceRole(bytes32,address)": {
        "details": "Revokes `role` from the calling account. Roles are often managed via {grantRole} and {revokeRole}: this function's purpose is to provide a mechanism for accounts to lose their privileges if they are compromised (such as when a trusted device is misplaced). If the calling account had been revoked `role`, emits a {RoleRevoked} event. Requirements: - the caller must be `account`. May emit a {RoleRevoked} event."
      },
      "revokeRole(bytes32,address)": {
        "details": "Revokes `role` from `account`. If `account` had been granted `role`, emits a {RoleRevoked} event. Requirements: - the caller must have ``role``'s admin role. May emit a {RoleRevoked} event."
      },
      "safeTransferFrom(address,address,uint256)": {
        "details": "See {IERC721-safeTransferFrom}."
      },
      "safeTransferFrom(address,address,uint256,bytes)": {
        "details": "See {IERC721-safeTransferFrom}."
      },
      "setApprovalForAll(address,bool)": {
        "details": "See {IERC721-setApprovalForAll}."
      },
      "setContractURI(string)": {
        "details": "The caller must have the admin role to call this function",
        "params": {
          "_contractURI": "URI of the smart contract metadata"
        }
      },
      "setExtension(string)": {
        "details": "The caller must have the admin role to call this function",
        "params": {
          "_extension": "Extension of the soul name"
        }
      },
      "setSoulboundIdentity(address)": {
        "details": "The caller must have the admin role to call this function",
        "params": {
          "_soulboundIdentity": "Address of the SoulboundIdentity contract"
        }
      },
      "supportsInterface(bytes4)": {
        "details": "Interface identification is specified in ERC-165.",
        "params": {
          "interfaceId": "The interface identifier, as specified in ERC-165"
        },
        "returns": {
          "_0": "`true` if the contract implements `interfaceId` and  `interfaceId` is not 0xffffffff, `false` otherwise"
        }
      },
      "symbol()": {
        "details": "See {IERC721Metadata-symbol}."
      },
      "tokenByIndex(uint256)": {
        "details": "See {IERC721Enumerable-tokenByIndex}."
      },
      "tokenOfOwnerByIndex(address,uint256)": {
        "details": "See {IERC721Enumerable-tokenOfOwnerByIndex}."
      },
      "tokenURI(string)": {
        "details": "This function returns the token URI of the soul name specified by the name",
        "params": {
          "name": "Name of the soul name"
        },
        "returns": {
          "_0": "URI of the soulname associated to a name"
        }
      },
      "tokenURI(uint256)": {
        "details": "Throws if `_tokenId` is not a valid NFT. URIs are defined in RFC  3986. The URI may point to a JSON file that conforms to the \"ERC721  Metadata JSON Schema\".",
        "params": {
          "tokenId": "NFT to get the URI of"
        },
        "returns": {
          "_0": "URI of the NFT"
        }
      },
      "totalSupply()": {
        "details": "See {IERC721Enumerable-totalSupply}."
      },
      "transferFrom(address,address,uint256)": {
        "details": "See {IERC721-transferFrom}."
      },
      "transferOwnership(address)": {
        "details": "Transfers ownership of the contract to a new account (`newOwner`). Can only be called by the current owner."
      }
    },
    "title": "SoulName NFT",
    "version": 1
  },
  "userdoc": {
    "kind": "user",
    "methods": {
      "burn(uint256)": {
        "notice": "Burn a soul name"
      },
      "constructor": {
        "notice": "Creates a new SoulName NFT"
      },
      "exists(uint256)": {
        "notice": "Returns true if the token exists"
      },
      "getExtension()": {
        "notice": "Returns the extension of the soul name"
      },
      "getSoulNames(address)": {
        "notice": "Returns all the active soul names of an account"
      },
      "getSoulNames(uint256)": {
        "notice": "Returns all the active soul names of an account"
      },
      "getTokenData(string)": {
        "notice": "Returns the information of a soul name"
      },
      "getTokenId(string)": {
        "notice": "Returns the token id of a soul name"
      },
      "isAvailable(string)": {
        "notice": "Checks if a soul name is available"
      },
      "mint(address,string,uint256,string)": {
        "notice": "Mints a new soul name"
      },
      "renewYearsPeriod(uint256,uint256)": {
        "notice": "Update the expiration date of a soul name"
      },
      "setContractURI(string)": {
        "notice": "Sets the URI of the smart contract metadata"
      },
      "setExtension(string)": {
        "notice": "Sets the extension of the soul name"
      },
      "setSoulboundIdentity(address)": {
        "notice": "Sets the SoulboundIdentity contract address linked to this soul name"
      },
      "supportsInterface(bytes4)": {
        "notice": "Query if a contract implements an interface"
      },
      "tokenURI(string)": {
        "notice": "A distinct Uniform Resource Identifier (URI) for a given asset."
      },
      "tokenURI(uint256)": {
        "notice": "A distinct Uniform Resource Identifier (URI) for a given asset."
      }
    },
    "notice": "SoulName NFT that points to a Soulbound identity token",
    "version": 1
  },
  "storageLayout": {
    "storage": [
      {
        "astId": 1084,
        "contract": "contracts/SoulName.sol:SoulName",
        "label": "_name",
        "offset": 0,
        "slot": "0",
        "type": "t_string_storage"
      },
      {
        "astId": 1086,
        "contract": "contracts/SoulName.sol:SoulName",
        "label": "_symbol",
        "offset": 0,
        "slot": "1",
        "type": "t_string_storage"
      },
      {
        "astId": 1090,
        "contract": "contracts/SoulName.sol:SoulName",
        "label": "_owners",
        "offset": 0,
        "slot": "2",
        "type": "t_mapping(t_uint256,t_address)"
      },
      {
        "astId": 1094,
        "contract": "contracts/SoulName.sol:SoulName",
        "label": "_balances",
        "offset": 0,
        "slot": "3",
        "type": "t_mapping(t_address,t_uint256)"
      },
      {
        "astId": 1098,
        "contract": "contracts/SoulName.sol:SoulName",
        "label": "_tokenApprovals",
        "offset": 0,
        "slot": "4",
        "type": "t_mapping(t_uint256,t_address)"
      },
      {
        "astId": 1104,
        "contract": "contracts/SoulName.sol:SoulName",
        "label": "_operatorApprovals",
        "offset": 0,
        "slot": "5",
        "type": "t_mapping(t_address,t_mapping(t_address,t_bool))"
      },
      {
        "astId": 2182,
        "contract": "contracts/SoulName.sol:SoulName",
        "label": "_ownedTokens",
        "offset": 0,
        "slot": "6",
        "type": "t_mapping(t_address,t_mapping(t_uint256,t_uint256))"
      },
      {
        "astId": 2186,
        "contract": "contracts/SoulName.sol:SoulName",
        "label": "_ownedTokensIndex",
        "offset": 0,
        "slot": "7",
        "type": "t_mapping(t_uint256,t_uint256)"
      },
      {
        "astId": 2189,
        "contract": "contracts/SoulName.sol:SoulName",
        "label": "_allTokens",
        "offset": 0,
        "slot": "8",
        "type": "t_array(t_uint256)dyn_storage"
      },
      {
        "astId": 2193,
        "contract": "contracts/SoulName.sol:SoulName",
        "label": "_allTokensIndex",
        "offset": 0,
        "slot": "9",
        "type": "t_mapping(t_uint256,t_uint256)"
      },
      {
        "astId": 396,
        "contract": "contracts/SoulName.sol:SoulName",
        "label": "_owner",
        "offset": 0,
        "slot": "10",
        "type": "t_address"
      },
      {
        "astId": 24,
        "contract": "contracts/SoulName.sol:SoulName",
        "label": "_roles",
        "offset": 0,
        "slot": "11",
        "type": "t_mapping(t_bytes32,t_struct(RoleData)19_storage)"
      },
      {
        "astId": 9726,
        "contract": "contracts/SoulName.sol:SoulName",
        "label": "_tokenIdCounter",
        "offset": 0,
        "slot": "12",
        "type": "t_struct(Counter)2937_storage"
      },
      {
        "astId": 9728,
        "contract": "contracts/SoulName.sol:SoulName",
        "label": "_baseTokenURI",
        "offset": 0,
        "slot": "13",
        "type": "t_string_storage"
      },
      {
        "astId": 620,
        "contract": "contracts/SoulName.sol:SoulName",
        "label": "_status",
        "offset": 0,
        "slot": "14",
        "type": "t_uint256"
      },
      {
        "astId": 6051,
        "contract": "contracts/SoulName.sol:SoulName",
        "label": "soulboundIdentity",
        "offset": 0,
        "slot": "15",
        "type": "t_contract(ISoulboundIdentity)9324"
      },
      {
        "astId": 6053,
        "contract": "contracts/SoulName.sol:SoulName",
        "label": "extension",
        "offset": 0,
        "slot": "16",
        "type": "t_string_storage"
      },
      {
        "astId": 6055,
        "contract": "contracts/SoulName.sol:SoulName",
        "label": "contractURI",
        "offset": 0,
        "slot": "17",
        "type": "t_string_storage"
      },
      {
        "astId": 6059,
        "contract": "contracts/SoulName.sol:SoulName",
        "label": "_tokenURIs",
        "offset": 0,
        "slot": "18",
        "type": "t_mapping(t_uint256,t_string_storage)"
      },
      {
        "astId": 6063,
        "contract": "contracts/SoulName.sol:SoulName",
        "label": "_URIs",
        "offset": 0,
        "slot": "19",
        "type": "t_mapping(t_string_memory_ptr,t_bool)"
      },
      {
        "astId": 6068,
        "contract": "contracts/SoulName.sol:SoulName",
        "label": "tokenData",
        "offset": 0,
        "slot": "20",
        "type": "t_mapping(t_uint256,t_struct(TokenData)6078_storage)"
      },
      {
        "astId": 6073,
        "contract": "contracts/SoulName.sol:SoulName",
        "label": "nameData",
        "offset": 0,
        "slot": "21",
        "type": "t_mapping(t_string_memory_ptr,t_struct(NameData)6083_storage)"
      }
    ],
    "types": {
      "t_address": {
        "encoding": "inplace",
        "label": "address",
        "numberOfBytes": "20"
      },
      "t_array(t_uint256)dyn_storage": {
        "base": "t_uint256",
        "encoding": "dynamic_array",
        "label": "uint256[]",
        "numberOfBytes": "32"
      },
      "t_bool": {
        "encoding": "inplace",
        "label": "bool",
        "numberOfBytes": "1"
      },
      "t_bytes32": {
        "encoding": "inplace",
        "label": "bytes32",
        "numberOfBytes": "32"
      },
      "t_contract(ISoulboundIdentity)9324": {
        "encoding": "inplace",
        "label": "contract ISoulboundIdentity",
        "numberOfBytes": "20"
      },
      "t_mapping(t_address,t_bool)": {
        "encoding": "mapping",
        "key": "t_address",
        "label": "mapping(address => bool)",
        "numberOfBytes": "32",
        "value": "t_bool"
      },
      "t_mapping(t_address,t_mapping(t_address,t_bool))": {
        "encoding": "mapping",
        "key": "t_address",
        "label": "mapping(address => mapping(address => bool))",
        "numberOfBytes": "32",
        "value": "t_mapping(t_address,t_bool)"
      },
      "t_mapping(t_address,t_mapping(t_uint256,t_uint256))": {
        "encoding": "mapping",
        "key": "t_address",
        "label": "mapping(address => mapping(uint256 => uint256))",
        "numberOfBytes": "32",
        "value": "t_mapping(t_uint256,t_uint256)"
      },
      "t_mapping(t_address,t_uint256)": {
        "encoding": "mapping",
        "key": "t_address",
        "label": "mapping(address => uint256)",
        "numberOfBytes": "32",
        "value": "t_uint256"
      },
      "t_mapping(t_bytes32,t_struct(RoleData)19_storage)": {
        "encoding": "mapping",
        "key": "t_bytes32",
        "label": "mapping(bytes32 => struct AccessControl.RoleData)",
        "numberOfBytes": "32",
        "value": "t_struct(RoleData)19_storage"
      },
      "t_mapping(t_string_memory_ptr,t_bool)": {
        "encoding": "mapping",
        "key": "t_string_memory_ptr",
        "label": "mapping(string => bool)",
        "numberOfBytes": "32",
        "value": "t_bool"
      },
      "t_mapping(t_string_memory_ptr,t_struct(NameData)6083_storage)": {
        "encoding": "mapping",
        "key": "t_string_memory_ptr",
        "label": "mapping(string => struct SoulName.NameData)",
        "numberOfBytes": "32",
        "value": "t_struct(NameData)6083_storage"
      },
      "t_mapping(t_uint256,t_address)": {
        "encoding": "mapping",
        "key": "t_uint256",
        "label": "mapping(uint256 => address)",
        "numberOfBytes": "32",
        "value": "t_address"
      },
      "t_mapping(t_uint256,t_string_storage)": {
        "encoding": "mapping",
        "key": "t_uint256",
        "label": "mapping(uint256 => string)",
        "numberOfBytes": "32",
        "value": "t_string_storage"
      },
      "t_mapping(t_uint256,t_struct(TokenData)6078_storage)": {
        "encoding": "mapping",
        "key": "t_uint256",
        "label": "mapping(uint256 => struct SoulName.TokenData)",
        "numberOfBytes": "32",
        "value": "t_struct(TokenData)6078_storage"
      },
      "t_mapping(t_uint256,t_uint256)": {
        "encoding": "mapping",
        "key": "t_uint256",
        "label": "mapping(uint256 => uint256)",
        "numberOfBytes": "32",
        "value": "t_uint256"
      },
      "t_string_memory_ptr": {
        "encoding": "bytes",
        "label": "string",
        "numberOfBytes": "32"
      },
      "t_string_storage": {
        "encoding": "bytes",
        "label": "string",
        "numberOfBytes": "32"
      },
      "t_struct(Counter)2937_storage": {
        "encoding": "inplace",
        "label": "struct Counters.Counter",
        "members": [
          {
            "astId": 2936,
            "contract": "contracts/SoulName.sol:SoulName",
            "label": "_value",
            "offset": 0,
            "slot": "0",
            "type": "t_uint256"
          }
        ],
        "numberOfBytes": "32"
      },
      "t_struct(NameData)6083_storage": {
        "encoding": "inplace",
        "label": "struct SoulName.NameData",
        "members": [
          {
            "astId": 6080,
            "contract": "contracts/SoulName.sol:SoulName",
            "label": "exists",
            "offset": 0,
            "slot": "0",
            "type": "t_bool"
          },
          {
            "astId": 6082,
            "contract": "contracts/SoulName.sol:SoulName",
            "label": "tokenId",
            "offset": 0,
            "slot": "1",
            "type": "t_uint256"
          }
        ],
        "numberOfBytes": "64"
      },
      "t_struct(RoleData)19_storage": {
        "encoding": "inplace",
        "label": "struct AccessControl.RoleData",
        "members": [
          {
            "astId": 16,
            "contract": "contracts/SoulName.sol:SoulName",
            "label": "members",
            "offset": 0,
            "slot": "0",
            "type": "t_mapping(t_address,t_bool)"
          },
          {
            "astId": 18,
            "contract": "contracts/SoulName.sol:SoulName",
            "label": "adminRole",
            "offset": 0,
            "slot": "1",
            "type": "t_bytes32"
          }
        ],
        "numberOfBytes": "64"
      },
      "t_struct(TokenData)6078_storage": {
        "encoding": "inplace",
        "label": "struct SoulName.TokenData",
        "members": [
          {
            "astId": 6075,
            "contract": "contracts/SoulName.sol:SoulName",
            "label": "name",
            "offset": 0,
            "slot": "0",
            "type": "t_string_storage"
          },
          {
            "astId": 6077,
            "contract": "contracts/SoulName.sol:SoulName",
            "label": "expirationDate",
            "offset": 0,
            "slot": "1",
            "type": "t_uint256"
          }
        ],
        "numberOfBytes": "64"
      },
      "t_uint256": {
        "encoding": "inplace",
        "label": "uint256",
        "numberOfBytes": "32"
      }
    }
  }
}