{
  "address": "0x47fF7Cab4AF63ac2C0c62122866c979c40217Ffe",
  "abi": [
    {
      "inputs": [
        {
          "internalType": "address",
          "name": "owner",
          "type": "address"
        },
        {
          "internalType": "contract SoulBoundIdentity",
          "name": "_soulBoundIdentity",
          "type": "address"
        },
        {
          "internalType": "string",
          "name": "_extension",
          "type": "string"
        },
        {
          "internalType": "string",
          "name": "baseTokenURI",
          "type": "string"
        }
      ],
      "stateMutability": "nonpayable",
      "type": "constructor"
    },
    {
      "anonymous": false,
      "inputs": [
        {
          "indexed": true,
          "internalType": "address",
          "name": "owner",
          "type": "address"
        },
        {
          "indexed": true,
          "internalType": "address",
          "name": "approved",
          "type": "address"
        },
        {
          "indexed": true,
          "internalType": "uint256",
          "name": "tokenId",
          "type": "uint256"
        }
      ],
      "name": "Approval",
      "type": "event"
    },
    {
      "anonymous": false,
      "inputs": [
        {
          "indexed": true,
          "internalType": "address",
          "name": "owner",
          "type": "address"
        },
        {
          "indexed": true,
          "internalType": "address",
          "name": "operator",
          "type": "address"
        },
        {
          "indexed": false,
          "internalType": "bool",
          "name": "approved",
          "type": "bool"
        }
      ],
      "name": "ApprovalForAll",
      "type": "event"
    },
    {
      "anonymous": false,
      "inputs": [
        {
          "indexed": false,
          "internalType": "address",
          "name": "account",
          "type": "address"
        }
      ],
      "name": "Paused",
      "type": "event"
    },
    {
      "anonymous": false,
      "inputs": [
        {
          "indexed": true,
          "internalType": "bytes32",
          "name": "role",
          "type": "bytes32"
        },
        {
          "indexed": true,
          "internalType": "bytes32",
          "name": "previousAdminRole",
          "type": "bytes32"
        },
        {
          "indexed": true,
          "internalType": "bytes32",
          "name": "newAdminRole",
          "type": "bytes32"
        }
      ],
      "name": "RoleAdminChanged",
      "type": "event"
    },
    {
      "anonymous": false,
      "inputs": [
        {
          "indexed": true,
          "internalType": "bytes32",
          "name": "role",
          "type": "bytes32"
        },
        {
          "indexed": true,
          "internalType": "address",
          "name": "account",
          "type": "address"
        },
        {
          "indexed": true,
          "internalType": "address",
          "name": "sender",
          "type": "address"
        }
      ],
      "name": "RoleGranted",
      "type": "event"
    },
    {
      "anonymous": false,
      "inputs": [
        {
          "indexed": true,
          "internalType": "bytes32",
          "name": "role",
          "type": "bytes32"
        },
        {
          "indexed": true,
          "internalType": "address",
          "name": "account",
          "type": "address"
        },
        {
          "indexed": true,
          "internalType": "address",
          "name": "sender",
          "type": "address"
        }
      ],
      "name": "RoleRevoked",
      "type": "event"
    },
    {
      "anonymous": false,
      "inputs": [
        {
          "indexed": true,
          "internalType": "address",
          "name": "from",
          "type": "address"
        },
        {
          "indexed": true,
          "internalType": "address",
          "name": "to",
          "type": "address"
        },
        {
          "indexed": true,
          "internalType": "uint256",
          "name": "tokenId",
          "type": "uint256"
        }
      ],
      "name": "Transfer",
      "type": "event"
    },
    {
      "anonymous": false,
      "inputs": [
        {
          "indexed": false,
          "internalType": "address",
          "name": "account",
          "type": "address"
        }
      ],
      "name": "Unpaused",
      "type": "event"
    },
    {
      "inputs": [],
      "name": "DEFAULT_ADMIN_ROLE",
      "outputs": [
        {
          "internalType": "bytes32",
          "name": "",
          "type": "bytes32"
        }
      ],
      "stateMutability": "view",
      "type": "function"
    },
    {
      "inputs": [],
      "name": "MINTER_ROLE",
      "outputs": [
        {
          "internalType": "bytes32",
          "name": "",
          "type": "bytes32"
        }
      ],
      "stateMutability": "view",
      "type": "function"
    },
    {
      "inputs": [],
      "name": "PAUSER_ROLE",
      "outputs": [
        {
          "internalType": "bytes32",
          "name": "",
          "type": "bytes32"
        }
      ],
      "stateMutability": "view",
      "type": "function"
    },
    {
      "inputs": [
        {
          "internalType": "address",
          "name": "to",
          "type": "address"
        },
        {
          "internalType": "uint256",
          "name": "tokenId",
          "type": "uint256"
        }
      ],
      "name": "approve",
      "outputs": [],
      "stateMutability": "nonpayable",
      "type": "function"
    },
    {
      "inputs": [
        {
          "internalType": "address",
          "name": "owner",
          "type": "address"
        }
      ],
      "name": "balanceOf",
      "outputs": [
        {
          "internalType": "uint256",
          "name": "",
          "type": "uint256"
        }
      ],
      "stateMutability": "view",
      "type": "function"
    },
    {
      "inputs": [
        {
          "internalType": "uint256",
          "name": "tokenId",
          "type": "uint256"
        }
      ],
      "name": "burn",
      "outputs": [],
      "stateMutability": "nonpayable",
      "type": "function"
    },
    {
      "inputs": [],
      "name": "extension",
      "outputs": [
        {
          "internalType": "string",
          "name": "",
          "type": "string"
        }
      ],
      "stateMutability": "view",
      "type": "function"
    },
    {
      "inputs": [
        {
          "internalType": "uint256",
          "name": "tokenId",
          "type": "uint256"
        }
      ],
      "name": "getApproved",
      "outputs": [
        {
          "internalType": "address",
          "name": "",
          "type": "address"
        }
      ],
      "stateMutability": "view",
      "type": "function"
    },
    {
      "inputs": [
        {
          "internalType": "string",
          "name": "name",
          "type": "string"
        }
      ],
      "name": "getIdentityData",
      "outputs": [
        {
          "internalType": "string",
          "name": "sbtName",
          "type": "string"
        },
        {
          "internalType": "uint256",
          "name": "identityId",
          "type": "uint256"
        }
      ],
      "stateMutability": "view",
      "type": "function"
    },
    {
      "inputs": [
        {
          "internalType": "uint256",
          "name": "identityId",
          "type": "uint256"
        }
      ],
      "name": "getIdentityNames",
      "outputs": [
        {
          "internalType": "string[]",
          "name": "sbtNames",
          "type": "string[]"
        }
      ],
      "stateMutability": "view",
      "type": "function"
    },
    {
      "inputs": [
        {
          "internalType": "bytes32",
          "name": "role",
          "type": "bytes32"
        }
      ],
      "name": "getRoleAdmin",
      "outputs": [
        {
          "internalType": "bytes32",
          "name": "",
          "type": "bytes32"
        }
      ],
      "stateMutability": "view",
      "type": "function"
    },
    {
      "inputs": [
        {
          "internalType": "bytes32",
          "name": "role",
          "type": "bytes32"
        },
        {
          "internalType": "address",
          "name": "account",
          "type": "address"
        }
      ],
      "name": "grantRole",
      "outputs": [],
      "stateMutability": "nonpayable",
      "type": "function"
    },
    {
      "inputs": [
        {
          "internalType": "bytes32",
          "name": "role",
          "type": "bytes32"
        },
        {
          "internalType": "address",
          "name": "account",
          "type": "address"
        }
      ],
      "name": "hasRole",
      "outputs": [
        {
          "internalType": "bool",
          "name": "",
          "type": "bool"
        }
      ],
      "stateMutability": "view",
      "type": "function"
    },
    {
      "inputs": [
        {
          "internalType": "address",
          "name": "owner",
          "type": "address"
        },
        {
          "internalType": "address",
          "name": "operator",
          "type": "address"
        }
      ],
      "name": "isApprovedForAll",
      "outputs": [
        {
          "internalType": "bool",
          "name": "",
          "type": "bool"
        }
      ],
      "stateMutability": "view",
      "type": "function"
    },
    {
      "inputs": [
        {
          "internalType": "address",
          "name": "to",
          "type": "address"
        },
        {
          "internalType": "string",
          "name": "name",
          "type": "string"
        },
        {
          "internalType": "uint256",
          "name": "identityId",
          "type": "uint256"
        }
      ],
      "name": "mint",
      "outputs": [
        {
          "internalType": "uint256",
          "name": "",
          "type": "uint256"
        }
      ],
      "stateMutability": "nonpayable",
      "type": "function"
    },
    {
      "inputs": [],
      "name": "name",
      "outputs": [
        {
          "internalType": "string",
          "name": "",
          "type": "string"
        }
      ],
      "stateMutability": "view",
      "type": "function"
    },
    {
      "inputs": [
        {
          "internalType": "string",
          "name": "name",
          "type": "string"
        }
      ],
      "name": "nameExists",
      "outputs": [
        {
          "internalType": "bool",
          "name": "exists",
          "type": "bool"
        }
      ],
      "stateMutability": "view",
      "type": "function"
    },
    {
      "inputs": [
        {
          "internalType": "uint256",
          "name": "tokenId",
          "type": "uint256"
        }
      ],
      "name": "ownerOf",
      "outputs": [
        {
          "internalType": "address",
          "name": "",
          "type": "address"
        }
      ],
      "stateMutability": "view",
      "type": "function"
    },
    {
      "inputs": [],
      "name": "pause",
      "outputs": [],
      "stateMutability": "nonpayable",
      "type": "function"
    },
    {
      "inputs": [],
      "name": "paused",
      "outputs": [
        {
          "internalType": "bool",
          "name": "",
          "type": "bool"
        }
      ],
      "stateMutability": "view",
      "type": "function"
    },
    {
      "inputs": [
        {
          "internalType": "bytes32",
          "name": "role",
          "type": "bytes32"
        },
        {
          "internalType": "address",
          "name": "account",
          "type": "address"
        }
      ],
      "name": "renounceRole",
      "outputs": [],
      "stateMutability": "nonpayable",
      "type": "function"
    },
    {
      "inputs": [
        {
          "internalType": "bytes32",
          "name": "role",
          "type": "bytes32"
        },
        {
          "internalType": "address",
          "name": "account",
          "type": "address"
        }
      ],
      "name": "revokeRole",
      "outputs": [],
      "stateMutability": "nonpayable",
      "type": "function"
    },
    {
      "inputs": [
        {
          "internalType": "address",
          "name": "from",
          "type": "address"
        },
        {
          "internalType": "address",
          "name": "to",
          "type": "address"
        },
        {
          "internalType": "uint256",
          "name": "tokenId",
          "type": "uint256"
        }
      ],
      "name": "safeTransferFrom",
      "outputs": [],
      "stateMutability": "nonpayable",
      "type": "function"
    },
    {
      "inputs": [
        {
          "internalType": "address",
          "name": "from",
          "type": "address"
        },
        {
          "internalType": "address",
          "name": "to",
          "type": "address"
        },
        {
          "internalType": "uint256",
          "name": "tokenId",
          "type": "uint256"
        },
        {
          "internalType": "bytes",
          "name": "data",
          "type": "bytes"
        }
      ],
      "name": "safeTransferFrom",
      "outputs": [],
      "stateMutability": "nonpayable",
      "type": "function"
    },
    {
      "inputs": [
        {
          "internalType": "address",
          "name": "operator",
          "type": "address"
        },
        {
          "internalType": "bool",
          "name": "approved",
          "type": "bool"
        }
      ],
      "name": "setApprovalForAll",
      "outputs": [],
      "stateMutability": "nonpayable",
      "type": "function"
    },
    {
      "inputs": [
        {
          "internalType": "string",
          "name": "_extension",
          "type": "string"
        }
      ],
      "name": "setExtension",
      "outputs": [],
      "stateMutability": "nonpayable",
      "type": "function"
    },
    {
      "inputs": [],
      "name": "soulBoundIdentity",
      "outputs": [
        {
          "internalType": "contract SoulBoundIdentity",
          "name": "",
          "type": "address"
        }
      ],
      "stateMutability": "view",
      "type": "function"
    },
    {
      "inputs": [
        {
          "internalType": "bytes4",
          "name": "interfaceId",
          "type": "bytes4"
        }
      ],
      "name": "supportsInterface",
      "outputs": [
        {
          "internalType": "bool",
          "name": "",
          "type": "bool"
        }
      ],
      "stateMutability": "view",
      "type": "function"
    },
    {
      "inputs": [],
      "name": "symbol",
      "outputs": [
        {
          "internalType": "string",
          "name": "",
          "type": "string"
        }
      ],
      "stateMutability": "view",
      "type": "function"
    },
    {
      "inputs": [
        {
          "internalType": "uint256",
          "name": "index",
          "type": "uint256"
        }
      ],
      "name": "tokenByIndex",
      "outputs": [
        {
          "internalType": "uint256",
          "name": "",
          "type": "uint256"
        }
      ],
      "stateMutability": "view",
      "type": "function"
    },
    {
      "inputs": [
        {
          "internalType": "address",
          "name": "owner",
          "type": "address"
        },
        {
          "internalType": "uint256",
          "name": "index",
          "type": "uint256"
        }
      ],
      "name": "tokenOfOwnerByIndex",
      "outputs": [
        {
          "internalType": "uint256",
          "name": "",
          "type": "uint256"
        }
      ],
      "stateMutability": "view",
      "type": "function"
    },
    {
      "inputs": [
        {
          "internalType": "uint256",
          "name": "tokenId",
          "type": "uint256"
        }
      ],
      "name": "tokenURI",
      "outputs": [
        {
          "internalType": "string",
          "name": "",
          "type": "string"
        }
      ],
      "stateMutability": "view",
      "type": "function"
    },
    {
      "inputs": [],
      "name": "totalSupply",
      "outputs": [
        {
          "internalType": "uint256",
          "name": "",
          "type": "uint256"
        }
      ],
      "stateMutability": "view",
      "type": "function"
    },
    {
      "inputs": [
        {
          "internalType": "address",
          "name": "from",
          "type": "address"
        },
        {
          "internalType": "address",
          "name": "to",
          "type": "address"
        },
        {
          "internalType": "uint256",
          "name": "tokenId",
          "type": "uint256"
        }
      ],
      "name": "transferFrom",
      "outputs": [],
      "stateMutability": "nonpayable",
      "type": "function"
    },
    {
      "inputs": [],
      "name": "unpause",
      "outputs": [],
      "stateMutability": "nonpayable",
      "type": "function"
    },
    {
      "inputs": [
        {
          "internalType": "uint256",
          "name": "tokenId",
          "type": "uint256"
        },
        {
          "internalType": "uint256",
          "name": "identityId",
          "type": "uint256"
        }
      ],
      "name": "updateIdentityId",
      "outputs": [],
      "stateMutability": "nonpayable",
      "type": "function"
    }
  ],
  "transactionHash": "0xe9b0d0495638377a7ea742c3640cd39e921f427ab0f19a56e7edaf29cba899c1",
  "args": [
    "0x3c8D9f130970358b7E8cbc1DbD0a1EbA6EBE368F",
    "0xD0f3C1361d8Fba40CbC85cC546c38511b510dedd",
    ".sol",
    ""
  ],
  "numDeployments": 2,
  "solcInputHash": "75e998f7ec91628ba34f0bbdcfd8d1a9",
  "bytecode": "0x60806040523480156200001157600080fd5b5060405162003b0138038062003b018339810160408190526200003491620003b8565b60408051808201825260128152714d617361204964656e74697479204e616d6560701b60208083019182528351808501909452600384526226a4a760e91b9084015281518793918591849184916200008f916000916200025b565b508051620000a59060019060208401906200025b565b5050600a805460ff1916905550620000bf600085620001b6565b620000eb7f65d7a28e3265b37a6474929f336521b332c1681b933f6cb9f3376673440d862a85620001b6565b620001177f9f2df0fed2c77648de5860a4cc508cd0818c85b8b8a1ab4ceeef8d981c8956a685620001b6565b80516200012c90600d9060208401906200025b565b50505050506001600160a01b0383166200017b5760405162461bcd60e51b815260206004820152600c60248201526b5a45524f5f4144445245535360a01b604482015260640160405180910390fd5b600e80546001600160a01b0319166001600160a01b0385161790558151620001ab90600f9060208501906200025b565b5050505050620004b9565b6000828152600b602090815260408083206001600160a01b038516845290915290205460ff1662000257576000828152600b602090815260408083206001600160a01b03851684529091529020805460ff19166001179055620002163390565b6001600160a01b0316816001600160a01b0316837f2f8788117e7eff1d82e926ec794901d17c78024a50270940304540a733656f0d60405160405180910390a45b5050565b82805462000269906200044d565b90600052602060002090601f0160209004810192826200028d5760008555620002d8565b82601f10620002a857805160ff1916838001178555620002d8565b82800160010185558215620002d8579182015b82811115620002d8578251825591602001919060010190620002bb565b50620002e6929150620002ea565b5090565b5b80821115620002e65760008155600101620002eb565b600082601f8301126200031357600080fd5b81516001600160401b03808211156200033057620003306200048a565b604051601f8301601f19908116603f011681019082821181831017156200035b576200035b6200048a565b816040528381526020925086838588010111156200037857600080fd5b600091505b838210156200039c57858201830151818301840152908201906200037d565b83821115620003ae5760008385830101525b9695505050505050565b60008060008060808587031215620003cf57600080fd5b8451620003dc81620004a0565b6020860151909450620003ef81620004a0565b60408601519093506001600160401b03808211156200040d57600080fd5b6200041b8883890162000301565b935060608701519150808211156200043257600080fd5b50620004418782880162000301565b91505092959194509250565b600181811c908216806200046257607f821691505b602082108114156200048457634e487b7160e01b600052602260045260246000fd5b50919050565b634e487b7160e01b600052604160045260246000fd5b6001600160a01b0381168114620004b657600080fd5b50565b61363880620004c96000396000f3fe608060405234801561001057600080fd5b506004361061021c5760003560e01c806370a0823111610125578063b88d4fde116100ad578063d53913931161007c578063d53913931461048a578063d547741f146104b1578063e5937072146104c4578063e63ab1e9146104d7578063e985e9c5146104fe57600080fd5b8063b88d4fde1461043e578063ba7aef4314610451578063c87b56dd14610464578063cc637afe1461047757600080fd5b806387cc8492116100f457806387cc8492146103e757806391d148541461040857806395d89b411461041b578063a217fddf14610423578063a22cb4651461042b57600080fd5b806370a08231146103995780637e2285aa146103ac5780637e259b9e146103bf5780638456cb59146103df57600080fd5b80632f745c59116101a857806342842e0e1161017757806342842e0e1461034257806342966c68146103555780634f6ccce7146103685780635c975abb1461037b5780636352211e1461038657600080fd5b80632f745c591461030157806336568abe146103145780633d44f8e0146103275780633f4ba83a1461033a57600080fd5b806318160ddd116101ef57806318160ddd1461029e57806323b872dd146102b0578063248a9ca3146102c35780632d5537b0146102e65780632f2ff15d146102ee57600080fd5b806301ffc9a71461022157806306fdde0314610249578063081812fc1461025e578063095ea7b314610289575b600080fd5b61023461022f366004612f3d565b61053a565b60405190151581526020015b60405180910390f35b61025161054b565b6040516102409190613326565b61027161026c366004612eff565b6105dd565b6040516001600160a01b039091168152602001610240565b61029c610297366004612ed3565b610604565b005b6008545b604051908152602001610240565b61029c6102be366004612d86565b61071f565b6102a26102d1366004612eff565b6000908152600b602052604090206001015490565b610251610751565b61029c6102fc366004612f18565b6107df565b6102a261030f366004612ed3565b610804565b61029c610322366004612f18565b61089a565b61029c610335366004612fac565b610918565b61029c610b2e565b61029c610350366004612d86565b610b63565b61029c610363366004612eff565b610b7e565b6102a2610376366004612eff565b610cfa565b600a5460ff16610234565b610271610394366004612eff565b610d8d565b6102a26103a7366004612d13565b610ded565b61029c6103ba366004612f77565b610e73565b6103d26103cd366004612eff565b610f1b565b60405161024091906132c4565b61029c611007565b6103fa6103f5366004612f77565b611039565b604051610240929190613339565b610234610416366004612f18565b61118c565b6102516111b7565b6102a2600081565b61029c610439366004612e47565b6111c6565b61029c61044c366004612dc7565b6111d1565b6102a261045f366004612e7a565b611208565b610251610472366004612eff565b611437565b610234610485366004612f77565b6116b9565b6102a27f9f2df0fed2c77648de5860a4cc508cd0818c85b8b8a1ab4ceeef8d981c8956a681565b61029c6104bf366004612f18565b6116fe565b600e54610271906001600160a01b031681565b6102a27f65d7a28e3265b37a6474929f336521b332c1681b933f6cb9f3376673440d862a81565b61023461050c366004612d4d565b6001600160a01b03918216600090815260056020908152604080832093909416825291909152205460ff1690565b600061054582611723565b92915050565b60606000805461055a906134c5565b80601f0160208091040260200160405190810160405280929190818152602001828054610586906134c5565b80156105d35780601f106105a8576101008083540402835291602001916105d3565b820191906000526020600020905b8154815290600101906020018083116105b657829003601f168201915b5050505050905090565b60006105e882611748565b506000908152600460205260409020546001600160a01b031690565b600061060f82610d8d565b9050806001600160a01b0316836001600160a01b031614156106825760405162461bcd60e51b815260206004820152602160248201527f4552433732313a20617070726f76616c20746f2063757272656e74206f776e656044820152603960f91b60648201526084015b60405180910390fd5b336001600160a01b038216148061069e575061069e813361050c565b6107105760405162461bcd60e51b815260206004820152603e60248201527f4552433732313a20617070726f76652063616c6c6572206973206e6f7420746f60448201527f6b656e206f776e6572206e6f7220617070726f76656420666f7220616c6c00006064820152608401610679565b61071a83836117a7565b505050565b61072a335b82611815565b6107465760405162461bcd60e51b8152600401610679906133ad565b61071a838383611894565b600f805461075e906134c5565b80601f016020809104026020016040519081016040528092919081815260200182805461078a906134c5565b80156107d75780601f106107ac576101008083540402835291602001916107d7565b820191906000526020600020905b8154815290600101906020018083116107ba57829003601f168201915b505050505081565b6000828152600b60205260409020600101546107fa81611a3b565b61071a8383611a45565b600061080f83610ded565b82106108715760405162461bcd60e51b815260206004820152602b60248201527f455243373231456e756d657261626c653a206f776e657220696e646578206f7560448201526a74206f6620626f756e647360a81b6064820152608401610679565b506001600160a01b03919091166000908152600660209081526040808320938352929052205490565b6001600160a01b038116331461090a5760405162461bcd60e51b815260206004820152602f60248201527f416363657373436f6e74726f6c3a2063616e206f6e6c792072656e6f756e636560448201526e103937b632b9903337b91039b2b63360891b6064820152608401610679565b6109148282611acb565b5050565b610923335b83611815565b61093f5760405162461bcd60e51b8152600401610679906133ad565b600e546040516331a9108f60e11b8152600481018390526000916001600160a01b031690636352211e9060240160206040518083038186803b15801561098457600080fd5b505afa158015610998573d6000803e3d6000fd5b505050506040513d601f19601f820116820180604052508101906109bc9190612d30565b6001600160a01b03161415610a085760405162461bcd60e51b8152602060048201526012602482015271125111539512551657d393d517d193d5539160721b6044820152606401610679565b60008281526010602052604081208054610a21906134c5565b80601f0160208091040260200160405190810160405280929190818152602001828054610a4d906134c5565b8015610a9a5780601f10610a6f57610100808354040283529160200191610a9a565b820191906000526020600020905b815481529060010190602001808311610a7d57829003601f168201915b505050505090506000601182604051610ab391906130ba565b908152602001604051809103902060010154905082601183604051610ad891906130ba565b90815260405190819003602001902060010155610af58183611b32565b600083815260126020908152604082208054600181018255908352918190208451610b27939190910191850190612b2f565b5050505050565b7f65d7a28e3265b37a6474929f336521b332c1681b933f6cb9f3376673440d862a610b5881611a3b565b610b60611c96565b50565b61071a838383604051806020016040528060008152506111d1565b6000818152600260205260409020546001600160a01b0316610bd45760405162461bcd60e51b815260206004820152600f60248201526e1513d2d15397d393d517d193d55391608a1b6044820152606401610679565b60008181526010602052604081208054610bed906134c5565b80601f0160208091040260200160405190810160405280929190818152602001828054610c19906134c5565b8015610c665780601f10610c3b57610100808354040283529160200191610c66565b820191906000526020600020905b815481529060010190602001808311610c4957829003601f168201915b505050505090506000601182604051610c7f91906130ba565b9081526020016040518091039020600101549050601060008481526020019081526020016000206000610cb29190612bb3565b601182604051610cc291906130ba565b9081526040519081900360200190206000610cdd8282612bb3565b60018201600090555050610cf18183611b32565b61071a83611ce8565b6000610d0560085490565b8210610d685760405162461bcd60e51b815260206004820152602c60248201527f455243373231456e756d657261626c653a20676c6f62616c20696e646578206f60448201526b7574206f6620626f756e647360a01b6064820152608401610679565b60088281548110610d7b57610d7b61356b565b90600052602060002001549050919050565b6000818152600260205260408120546001600160a01b0316806105455760405162461bcd60e51b8152602060048201526018602482015277115490cdcc8c4e881a5b9d985b1a59081d1bdad95b88125160421b6044820152606401610679565b60006001600160a01b038216610e575760405162461bcd60e51b815260206004820152602960248201527f4552433732313a2061646472657373207a65726f206973206e6f7420612076616044820152683634b21037bbb732b960b91b6064820152608401610679565b506001600160a01b031660009081526003602052604090205490565b6000610e7e81611a3b565b81604051602001610e8f91906130ba565b60405160208183030381529060405280519060200120600f604051602001610eb791906130d6565b604051602081830303815290604052805190602001201415610f085760405162461bcd60e51b815260206004820152600a60248201526953414d455f56414c554560b01b6044820152606401610679565b815161071a90600f906020850190612b2f565b606060126000838152602001908152602001600020805480602002602001604051908101604052809291908181526020016000905b82821015610ffc578382906000526020600020018054610f6f906134c5565b80601f0160208091040260200160405190810160405280929190818152602001828054610f9b906134c5565b8015610fe85780601f10610fbd57610100808354040283529160200191610fe8565b820191906000526020600020905b815481529060010190602001808311610fcb57829003601f168201915b505050505081526020019060010190610f50565b505050509050919050565b7f65d7a28e3265b37a6474929f336521b332c1681b933f6cb9f3376673440d862a61103181611a3b565b610b60611d16565b606060008061104784611d53565b9050600060118260405161105b91906130ba565b9081526020016040518091039020604051806040016040529081600082018054611084906134c5565b80601f01602080910402602001604051908101604052809291908181526020018280546110b0906134c5565b80156110fd5780601f106110d2576101008083540402835291602001916110fd565b820191906000526020600020905b8154815290600101906020018083116110e057829003601f168201915b5050505050815260200160018201548152505090506000816000015151116111585760405162461bcd60e51b815260206004820152600e60248201526d1390535157d393d517d193d5539160921b6044820152606401610679565b805160405161116d9190600f90602001613093565b6040516020818303038152906040528160200151935093505050915091565b6000918252600b602090815260408084206001600160a01b0393909316845291905290205460ff1690565b60606001805461055a906134c5565b610914338383611eca565b6111da3361091d565b6111f65760405162461bcd60e51b8152600401610679906133ad565b61120284848484611f99565b50505050565b6000611213836116b9565b156112565760405162461bcd60e51b81526020600482015260136024820152724e414d455f414c52454144595f45584953545360681b6044820152606401610679565b600083511161129a5760405162461bcd60e51b815260206004820152601060248201526f5a45524f5f4c454e4754485f4e414d4560801b6044820152606401610679565b600e546040516331a9108f60e11b8152600481018490526000916001600160a01b031690636352211e9060240160206040518083038186803b1580156112df57600080fd5b505afa1580156112f3573d6000803e3d6000fd5b505050506040513d601f19601f820116820180604052508101906113179190612d30565b6001600160a01b031614156113635760405162461bcd60e51b8152602060048201526012602482015271125111539512551657d393d517d193d5539160721b6044820152606401610679565b600061136e85611fcc565b9050600061137b85611d53565b6000838152601060209081526040909120825192935061139f929091840190612b2f565b50846011826040516113b191906130ba565b908152602001604051809103902060000190805190602001906113d5929190612b2f565b50836011826040516113e791906130ba565b9081526040805160209281900383019020600190810193909355600087815260128352908120805493840181558152819020835161142c939190910191840190612b2f565b509095945050505050565b600081815260106020526040812080546060929190611455906134c5565b80601f0160208091040260200160405190810160405280929190818152602001828054611481906134c5565b80156114ce5780601f106114a3576101008083540402835291602001916114ce565b820191906000526020600020905b8154815290600101906020018083116114b157829003601f168201915b505050505090508051600014156115195760405162461bcd60e51b815260206004820152600f60248201526e1513d2d15397d393d517d193d55391608a1b6044820152606401610679565b600061152482611d53565b9050600060118260405161153891906130ba565b9081526020016040518091039020604051806040016040529081600082018054611561906134c5565b80601f016020809104026020016040519081016040528092919081815260200182805461158d906134c5565b80156115da5780601f106115af576101008083540402835291602001916115da565b820191906000526020600020905b8154815290600101906020018083116115bd57829003601f168201915b5050505050815260200160018201548152505090506000816000015151116116355760405162461bcd60e51b815260206004820152600e60248201526d1390535157d393d517d193d5539160921b6044820152606401610679565b805160405160009161164c91600f90602001613093565b60405160208183030381529060405261166487612026565b6040516020016116759291906130e2565b604051602081830303815290604052905061168f81612124565b60405160200161169f91906131cd565b604051602081830303815290604052945050505050919050565b6000806116c583611d53565b905060006011826040516116d991906130ba565b90815260405190819003602001902080546116f3906134c5565b905011915050919050565b6000828152600b602052604090206001015461171981611a3b565b61071a8383611acb565b60006001600160e01b03198216637965db0b60e01b1480610545575061054582612278565b6000818152600260205260409020546001600160a01b0316610b605760405162461bcd60e51b8152602060048201526018602482015277115490cdcc8c4e881a5b9d985b1a59081d1bdad95b88125160421b6044820152606401610679565b600081815260046020526040902080546001600160a01b0319166001600160a01b03841690811790915581906117dc82610d8d565b6001600160a01b03167f8c5be1e5ebec7d5bd14f71427d1e84f3dd0314c0f7b2291e5b200ac8c7c3b92560405160405180910390a45050565b60008061182183610d8d565b9050806001600160a01b0316846001600160a01b0316148061186857506001600160a01b0380821660009081526005602090815260408083209388168352929052205460ff165b8061188c5750836001600160a01b0316611881846105dd565b6001600160a01b0316145b949350505050565b826001600160a01b03166118a782610d8d565b6001600160a01b03161461190b5760405162461bcd60e51b815260206004820152602560248201527f4552433732313a207472616e736665722066726f6d20696e636f72726563742060448201526437bbb732b960d91b6064820152608401610679565b6001600160a01b03821661196d5760405162461bcd60e51b8152602060048201526024808201527f4552433732313a207472616e7366657220746f20746865207a65726f206164646044820152637265737360e01b6064820152608401610679565b61197883838361229d565b6119836000826117a7565b6001600160a01b03831660009081526003602052604081208054600192906119ac90849061346b565b90915550506001600160a01b03821660009081526003602052604081208054600192906119da9084906133fb565b909155505060008181526002602052604080822080546001600160a01b0319166001600160a01b0386811691821790925591518493918716917fddf252ad1be2c89b69c2b068fc378daa952ba7f163c4a11628f55a4df523b3ef91a4505050565b610b6081336122b0565b611a4f828261118c565b610914576000828152600b602090815260408083206001600160a01b03851684529091529020805460ff19166001179055611a873390565b6001600160a01b0316816001600160a01b0316837f2f8788117e7eff1d82e926ec794901d17c78024a50270940304540a733656f0d60405160405180910390a45050565b611ad5828261118c565b15610914576000828152600b602090815260408083206001600160a01b0385168085529252808320805460ff1916905551339285917ff6391f5c32d9c69d2a47ea670b442974b53935d1edc7fd64eb21e047a839171b9190a45050565b60005b60008381526012602052604090205481101561071a5781604051602001611b5c91906130ba565b60408051601f198184030181529181528151602092830120600086815260129093529120805483908110611b9257611b9261356b565b90600052602060002001604051602001611bac91906130d6565b604051602081830303815290604052805190602001201415611c845760008381526012602052604090208054611be49060019061346b565b81548110611bf457611bf461356b565b90600052602060002001601260008581526020019081526020016000208281548110611c2257611c2261356b565b90600052602060002001908054611c38906134c5565b611c43929190612bed565b506000838152601260205260409020805480611c6157611c61613555565b600190038181906000526020600020016000611c7d9190612bb3565b9055505050565b80611c8e816134fa565b915050611b35565b611c9e612314565b600a805460ff191690557f5db9ee0a495bf2e6ff9c91a7834c1ba4fdd244a5e8aa4e537bd38aeae4b073aa335b6040516001600160a01b03909116815260200160405180910390a1565b611cf133610724565b611d0d5760405162461bcd60e51b8152600401610679906133ad565b610b608161235f565b611d1e612406565b600a805460ff191660011790557f62e78cea01bee320cd4e420270b5ea74000d11b0c9f74754ebdbfc544b05a258611ccb3390565b606060008290506000815167ffffffffffffffff811115611d7657611d76613581565b6040519080825280601f01601f191660200182016040528015611da0576020820181803683370190505b50905060005b8251811015611ec257604160f81b838281518110611dc657611dc661356b565b01602001516001600160f81b03191610801590611e075750605a60f81b838281518110611df557611df561356b565b01602001516001600160f81b03191611155b15611e6957828181518110611e1e57611e1e61356b565b602001015160f81c60f81b60f81c6020611e389190613413565b60f81b828281518110611e4d57611e4d61356b565b60200101906001600160f81b031916908160001a905350611eb0565b828181518110611e7b57611e7b61356b565b602001015160f81c60f81b828281518110611e9857611e9861356b565b60200101906001600160f81b031916908160001a9053505b80611eba816134fa565b915050611da6565b509392505050565b816001600160a01b0316836001600160a01b03161415611f2c5760405162461bcd60e51b815260206004820152601960248201527f4552433732313a20617070726f766520746f2063616c6c6572000000000000006044820152606401610679565b6001600160a01b03838116600081815260056020908152604080832094871680845294825291829020805460ff191686151590811790915591519182527f17307eab39ab6107e8899845ad3d59bd9653f200f220920489ca2b5937696c31910160405180910390a3505050565b611fa4848484611894565b611fb08484848461244c565b6112025760405162461bcd60e51b81526004016106799061335b565b60007f9f2df0fed2c77648de5860a4cc508cd0818c85b8b8a1ab4ceeef8d981c8956a6611ff881611a3b565b6000612003600c5490565b9050612013600c80546001019055565b61201d8482612559565b91505b50919050565b60608161204a5750506040805180820190915260018152600360fc1b602082015290565b8160005b8115612074578061205e816134fa565b915061206d9050600a83613438565b915061204e565b60008167ffffffffffffffff81111561208f5761208f613581565b6040519080825280601f01601f1916602001820160405280156120b9576020820181803683370190505b5090505b841561188c576120ce60018361346b565b91506120db600a86613515565b6120e69060306133fb565b60f81b8183815181106120fb576120fb61356b565b60200101906001600160f81b031916908160001a90535061211d600a86613438565b94506120bd565b606081516000141561214457505060408051602081019091526000815290565b60006040518060600160405280604081526020016135c3604091399050600060038451600261217391906133fb565b61217d9190613438565b61218890600461344c565b67ffffffffffffffff8111156121a0576121a0613581565b6040519080825280601f01601f1916602001820160405280156121ca576020820181803683370190505b509050600182016020820185865187015b80821015612236576003820191508151603f8160121c168501518453600184019350603f81600c1c168501518453600184019350603f8160061c168501518453600184019350603f81168501518453506001830192506121db565b505060038651066001811461225257600281146122655761226d565b603d6001830353603d600283035361226d565b603d60018303535b509195945050505050565b60006001600160e01b0319821663780e9d6360e01b1480610545575061054582612573565b6122a5612406565b61071a8383836125c3565b6122ba828261118c565b610914576122d2816001600160a01b0316601461267b565b6122dd83602061267b565b6040516020016122ee929190613212565b60408051601f198184030181529082905262461bcd60e51b825261067991600401613326565b600a5460ff1661235d5760405162461bcd60e51b815260206004820152601460248201527314185d5cd8589b194e881b9bdd081c185d5cd95960621b6044820152606401610679565b565b600061236a82610d8d565b90506123788160008461229d565b6123836000836117a7565b6001600160a01b03811660009081526003602052604081208054600192906123ac90849061346b565b909155505060008281526002602052604080822080546001600160a01b0319169055518391906001600160a01b038416907fddf252ad1be2c89b69c2b068fc378daa952ba7f163c4a11628f55a4df523b3ef908390a45050565b600a5460ff161561235d5760405162461bcd60e51b815260206004820152601060248201526f14185d5cd8589b194e881c185d5cd95960821b6044820152606401610679565b60006001600160a01b0384163b1561254e57604051630a85bd0160e11b81526001600160a01b0385169063150b7a0290612490903390899088908890600401613287565b602060405180830381600087803b1580156124aa57600080fd5b505af19250505080156124da575060408051601f3d908101601f191682019092526124d791810190612f5a565b60015b612534573d808015612508576040519150601f19603f3d011682016040523d82523d6000602084013e61250d565b606091505b50805161252c5760405162461bcd60e51b81526004016106799061335b565b805181602001fd5b6001600160e01b031916630a85bd0160e11b14905061188c565b506001949350505050565b61091482826040518060200160405280600081525061281e565b60006001600160e01b031982166380ac58cd60e01b14806125a457506001600160e01b03198216635b5e139f60e01b145b8061054557506301ffc9a760e01b6001600160e01b0319831614610545565b6001600160a01b03831661261e5761261981600880546000838152600960205260408120829055600182018355919091527ff3f7a9fe364faab93b216da50a3214154f22a0a2b415b23a84c8169e8b636ee30155565b612641565b816001600160a01b0316836001600160a01b031614612641576126418382612851565b6001600160a01b0382166126585761071a816128ee565b826001600160a01b0316826001600160a01b03161461071a5761071a828261299d565b6060600061268a83600261344c565b6126959060026133fb565b67ffffffffffffffff8111156126ad576126ad613581565b6040519080825280601f01601f1916602001820160405280156126d7576020820181803683370190505b509050600360fc1b816000815181106126f2576126f261356b565b60200101906001600160f81b031916908160001a905350600f60fb1b816001815181106127215761272161356b565b60200101906001600160f81b031916908160001a905350600061274584600261344c565b6127509060016133fb565b90505b60018111156127c8576f181899199a1a9b1b9c1cb0b131b232b360811b85600f16601081106127845761278461356b565b1a60f81b82828151811061279a5761279a61356b565b60200101906001600160f81b031916908160001a90535060049490941c936127c1816134ae565b9050612753565b5083156128175760405162461bcd60e51b815260206004820181905260248201527f537472696e67733a20686578206c656e67746820696e73756666696369656e746044820152606401610679565b9392505050565b61282883836129e1565b612835600084848461244c565b61071a5760405162461bcd60e51b81526004016106799061335b565b6000600161285e84610ded565b612868919061346b565b6000838152600760205260409020549091508082146128bb576001600160a01b03841660009081526006602090815260408083208584528252808320548484528184208190558352600790915290208190555b5060009182526007602090815260408084208490556001600160a01b039094168352600681528383209183525290812055565b6008546000906129009060019061346b565b600083815260096020526040812054600880549394509092849081106129285761292861356b565b9060005260206000200154905080600883815481106129495761294961356b565b600091825260208083209091019290925582815260099091526040808220849055858252812055600880548061298157612981613555565b6001900381819060005260206000200160009055905550505050565b60006129a883610ded565b6001600160a01b039093166000908152600660209081526040808320868452825280832085905593825260079052919091209190915550565b6001600160a01b038216612a375760405162461bcd60e51b815260206004820181905260248201527f4552433732313a206d696e7420746f20746865207a65726f20616464726573736044820152606401610679565b6000818152600260205260409020546001600160a01b031615612a9c5760405162461bcd60e51b815260206004820152601c60248201527f4552433732313a20746f6b656e20616c7265616479206d696e746564000000006044820152606401610679565b612aa86000838361229d565b6001600160a01b0382166000908152600360205260408120805460019290612ad19084906133fb565b909155505060008181526002602052604080822080546001600160a01b0319166001600160a01b03861690811790915590518392907fddf252ad1be2c89b69c2b068fc378daa952ba7f163c4a11628f55a4df523b3ef908290a45050565b828054612b3b906134c5565b90600052602060002090601f016020900481019282612b5d5760008555612ba3565b82601f10612b7657805160ff1916838001178555612ba3565b82800160010185558215612ba3579182015b82811115612ba3578251825591602001919060010190612b88565b50612baf929150612c68565b5090565b508054612bbf906134c5565b6000825580601f10612bcf575050565b601f016020900490600052602060002090810190610b609190612c68565b828054612bf9906134c5565b90600052602060002090601f016020900481019282612c1b5760008555612ba3565b82601f10612c2c5780548555612ba3565b82800160010185558215612ba357600052602060002091601f016020900482015b82811115612ba3578254825591600101919060010190612c4d565b5b80821115612baf5760008155600101612c69565b600067ffffffffffffffff80841115612c9857612c98613581565b604051601f8501601f19908116603f01168101908282118183101715612cc057612cc0613581565b81604052809350858152868686011115612cd957600080fd5b858560208301376000602087830101525050509392505050565b600082601f830112612d0457600080fd5b61281783833560208501612c7d565b600060208284031215612d2557600080fd5b813561281781613597565b600060208284031215612d4257600080fd5b815161281781613597565b60008060408385031215612d6057600080fd5b8235612d6b81613597565b91506020830135612d7b81613597565b809150509250929050565b600080600060608486031215612d9b57600080fd5b8335612da681613597565b92506020840135612db681613597565b929592945050506040919091013590565b60008060008060808587031215612ddd57600080fd5b8435612de881613597565b93506020850135612df881613597565b925060408501359150606085013567ffffffffffffffff811115612e1b57600080fd5b8501601f81018713612e2c57600080fd5b612e3b87823560208401612c7d565b91505092959194509250565b60008060408385031215612e5a57600080fd5b8235612e6581613597565b915060208301358015158114612d7b57600080fd5b600080600060608486031215612e8f57600080fd5b8335612e9a81613597565b9250602084013567ffffffffffffffff811115612eb657600080fd5b612ec286828701612cf3565b925050604084013590509250925092565b60008060408385031215612ee657600080fd5b8235612ef181613597565b946020939093013593505050565b600060208284031215612f1157600080fd5b5035919050565b60008060408385031215612f2b57600080fd5b823591506020830135612d7b81613597565b600060208284031215612f4f57600080fd5b8135612817816135ac565b600060208284031215612f6c57600080fd5b8151612817816135ac565b600060208284031215612f8957600080fd5b813567ffffffffffffffff811115612fa057600080fd5b61188c84828501612cf3565b60008060408385031215612fbf57600080fd5b50508035926020909101359150565b60008151808452612fe6816020860160208601613482565b601f01601f19169290920160200192915050565b8054600090600181811c908083168061301457607f831692505b602080841082141561303657634e487b7160e01b600052602260045260246000fd5b81801561304a576001811461305b57613087565b60ff19861689528489019650613087565b876000528160002060005b8681101561307f5781548b820152908501908301613066565b505084890196505b50505050505092915050565b600083516130a5818460208801613482565b6130b181840185612ffa565b95945050505050565b600082516130cc818460208701613482565b9190910192915050565b60006128178284612ffa565b607b60f81b815268113730b6b2911d101160b91b6001820152825160009061311181600a850160208801613482565b6201116160ed1b600a9184019182018190527f226465736372697074696f6e223a202254686973206973206120536f756c426f600d83015266756e644e616d6560c81b602d83015260348201527f2265787465726e616c5f75726c223a202268747470733a2f2f736f756c626f7560378201526a6e646e616d652e636f6d2f60a81b605782015283516131ab816062840160208801613482565b601160f91b91016062810191909152607d60f81b6063820152606481016130b1565b7f646174613a6170706c69636174696f6e2f6a736f6e3b6261736536342c00000081526000825161320581601d850160208701613482565b91909101601d0192915050565b7f416363657373436f6e74726f6c3a206163636f756e742000000000000000000081526000835161324a816017850160208801613482565b7001034b99036b4b9b9b4b733903937b6329607d1b601791840191820152835161327b816028840160208801613482565b01602801949350505050565b6001600160a01b03858116825284166020820152604081018390526080606082018190526000906132ba90830184612fce565b9695505050505050565b6000602080830181845280855180835260408601915060408160051b870101925083870160005b8281101561331957603f19888603018452613307858351612fce565b945092850192908501906001016132eb565b5092979650505050505050565b6020815260006128176020830184612fce565b60408152600061334c6040830185612fce565b90508260208301529392505050565b60208082526032908201527f4552433732313a207472616e7366657220746f206e6f6e20455243373231526560408201527131b2b4bb32b91034b6b83632b6b2b73a32b960711b606082015260800190565b6020808252602e908201527f4552433732313a2063616c6c6572206973206e6f7420746f6b656e206f776e6560408201526d1c881b9bdc88185c1c1c9bdd995960921b606082015260800190565b6000821982111561340e5761340e613529565b500190565b600060ff821660ff84168060ff0382111561343057613430613529565b019392505050565b6000826134475761344761353f565b500490565b600081600019048311821515161561346657613466613529565b500290565b60008282101561347d5761347d613529565b500390565b60005b8381101561349d578181015183820152602001613485565b838111156112025750506000910152565b6000816134bd576134bd613529565b506000190190565b600181811c908216806134d957607f821691505b6020821081141561202057634e487b7160e01b600052602260045260246000fd5b600060001982141561350e5761350e613529565b5060010190565b6000826135245761352461353f565b500690565b634e487b7160e01b600052601160045260246000fd5b634e487b7160e01b600052601260045260246000fd5b634e487b7160e01b600052603160045260246000fd5b634e487b7160e01b600052603260045260246000fd5b634e487b7160e01b600052604160045260246000fd5b6001600160a01b0381168114610b6057600080fd5b6001600160e01b031981168114610b6057600080fdfe4142434445464748494a4b4c4d4e4f505152535455565758595a6162636465666768696a6b6c6d6e6f707172737475767778797a303132333435363738392b2fa2646970667358221220bc2c61ae4c2e2bac5e69e86fe2dae77baccd1f6bec2ab371ff82474b1fca314564736f6c63430008070033",
  "devdoc": {
    "kind": "dev",
    "methods": {
      "approve(address,uint256)": {
        "details": "See {IERC721-approve}."
      },
      "balanceOf(address)": {
        "details": "See {IERC721-balanceOf}."
      },
      "burn(uint256)": {
        "details": "Burns `tokenId`. See {ERC721-_burn}. Requirements: - The caller must own `tokenId` or be an approved operator."
      },
      "getApproved(uint256)": {
        "details": "See {IERC721-getApproved}."
      },
      "getRoleAdmin(bytes32)": {
        "details": "Returns the admin role that controls `role`. See {grantRole} and {revokeRole}. To change a role's admin, use {_setRoleAdmin}."
      },
      "grantRole(bytes32,address)": {
        "details": "Grants `role` to `account`. If `account` had not been already granted `role`, emits a {RoleGranted} event. Requirements: - the caller must have ``role``'s admin role. May emit a {RoleGranted} event."
      },
      "hasRole(bytes32,address)": {
        "details": "Returns `true` if `account` has been granted `role`."
      },
      "isApprovedForAll(address,address)": {
        "details": "See {IERC721-isApprovedForAll}."
      },
      "name()": {
        "details": "See {IERC721Metadata-name}."
      },
      "ownerOf(uint256)": {
        "details": "See {IERC721-ownerOf}."
      },
      "paused()": {
        "details": "Returns true if the contract is paused, and false otherwise."
      },
      "renounceRole(bytes32,address)": {
        "details": "Revokes `role` from the calling account. Roles are often managed via {grantRole} and {revokeRole}: this function's purpose is to provide a mechanism for accounts to lose their privileges if they are compromised (such as when a trusted device is misplaced). If the calling account had been revoked `role`, emits a {RoleRevoked} event. Requirements: - the caller must be `account`. May emit a {RoleRevoked} event."
      },
      "revokeRole(bytes32,address)": {
        "details": "Revokes `role` from `account`. If `account` had been granted `role`, emits a {RoleRevoked} event. Requirements: - the caller must have ``role``'s admin role. May emit a {RoleRevoked} event."
      },
      "safeTransferFrom(address,address,uint256)": {
        "details": "See {IERC721-safeTransferFrom}."
      },
      "safeTransferFrom(address,address,uint256,bytes)": {
        "details": "See {IERC721-safeTransferFrom}."
      },
      "setApprovalForAll(address,bool)": {
        "details": "See {IERC721-setApprovalForAll}."
      },
      "symbol()": {
        "details": "See {IERC721Metadata-symbol}."
      },
      "tokenByIndex(uint256)": {
        "details": "See {IERC721Enumerable-tokenByIndex}."
      },
      "tokenOfOwnerByIndex(address,uint256)": {
        "details": "See {IERC721Enumerable-tokenOfOwnerByIndex}."
      },
      "tokenURI(uint256)": {
        "details": "See {IERC721Metadata-tokenURI}."
      },
      "totalSupply()": {
        "details": "See {IERC721Enumerable-totalSupply}."
      },
      "transferFrom(address,address,uint256)": {
        "details": "See {IERC721-transferFrom}."
      }
    },
    "version": 1
  },
  "userdoc": {
    "kind": "user",
    "methods": {},
    "version": 1
  },
  "storageLayout": {
    "storage": [
      {
        "astId": 639,
        "contract": "contracts/SoulBoundName.sol:SoulBoundName",
        "label": "_name",
        "offset": 0,
        "slot": "0",
        "type": "t_string_storage"
      },
      {
        "astId": 641,
        "contract": "contracts/SoulBoundName.sol:SoulBoundName",
        "label": "_symbol",
        "offset": 0,
        "slot": "1",
        "type": "t_string_storage"
      },
      {
        "astId": 645,
        "contract": "contracts/SoulBoundName.sol:SoulBoundName",
        "label": "_owners",
        "offset": 0,
        "slot": "2",
        "type": "t_mapping(t_uint256,t_address)"
      },
      {
        "astId": 649,
        "contract": "contracts/SoulBoundName.sol:SoulBoundName",
        "label": "_balances",
        "offset": 0,
        "slot": "3",
        "type": "t_mapping(t_address,t_uint256)"
      },
      {
        "astId": 653,
        "contract": "contracts/SoulBoundName.sol:SoulBoundName",
        "label": "_tokenApprovals",
        "offset": 0,
        "slot": "4",
        "type": "t_mapping(t_uint256,t_address)"
      },
      {
        "astId": 659,
        "contract": "contracts/SoulBoundName.sol:SoulBoundName",
        "label": "_operatorApprovals",
        "offset": 0,
        "slot": "5",
        "type": "t_mapping(t_address,t_mapping(t_address,t_bool))"
      },
      {
        "astId": 1659,
        "contract": "contracts/SoulBoundName.sol:SoulBoundName",
        "label": "_ownedTokens",
        "offset": 0,
        "slot": "6",
        "type": "t_mapping(t_address,t_mapping(t_uint256,t_uint256))"
      },
      {
        "astId": 1663,
        "contract": "contracts/SoulBoundName.sol:SoulBoundName",
        "label": "_ownedTokensIndex",
        "offset": 0,
        "slot": "7",
        "type": "t_mapping(t_uint256,t_uint256)"
      },
      {
        "astId": 1666,
        "contract": "contracts/SoulBoundName.sol:SoulBoundName",
        "label": "_allTokens",
        "offset": 0,
        "slot": "8",
        "type": "t_array(t_uint256)dyn_storage"
      },
      {
        "astId": 1670,
        "contract": "contracts/SoulBoundName.sol:SoulBoundName",
        "label": "_allTokensIndex",
        "offset": 0,
        "slot": "9",
        "type": "t_mapping(t_uint256,t_uint256)"
      },
      {
        "astId": 523,
        "contract": "contracts/SoulBoundName.sol:SoulBoundName",
        "label": "_paused",
        "offset": 0,
        "slot": "10",
        "type": "t_bool"
      },
      {
        "astId": 24,
        "contract": "contracts/SoulBoundName.sol:SoulBoundName",
        "label": "_roles",
        "offset": 0,
        "slot": "11",
        "type": "t_mapping(t_bytes32,t_struct(RoleData)19_storage)"
      },
      {
        "astId": 3931,
        "contract": "contracts/SoulBoundName.sol:SoulBoundName",
        "label": "_tokenIdCounter",
        "offset": 0,
        "slot": "12",
        "type": "t_struct(Counter)2410_storage"
      },
      {
        "astId": 3933,
        "contract": "contracts/SoulBoundName.sol:SoulBoundName",
        "label": "_baseTokenURI",
        "offset": 0,
        "slot": "13",
        "type": "t_string_storage"
      },
      {
        "astId": 3172,
        "contract": "contracts/SoulBoundName.sol:SoulBoundName",
        "label": "soulBoundIdentity",
        "offset": 0,
        "slot": "14",
        "type": "t_contract(SoulBoundIdentity)2809"
      },
      {
        "astId": 3174,
        "contract": "contracts/SoulBoundName.sol:SoulBoundName",
        "label": "extension",
        "offset": 0,
        "slot": "15",
        "type": "t_string_storage"
      },
      {
        "astId": 3178,
        "contract": "contracts/SoulBoundName.sol:SoulBoundName",
        "label": "tokenIdToName",
        "offset": 0,
        "slot": "16",
        "type": "t_mapping(t_uint256,t_string_storage)"
      },
      {
        "astId": 3183,
        "contract": "contracts/SoulBoundName.sol:SoulBoundName",
        "label": "soulBoundNames",
        "offset": 0,
        "slot": "17",
        "type": "t_mapping(t_string_memory_ptr,t_struct(SoulBoundNameData)3193_storage)"
      },
      {
        "astId": 3188,
        "contract": "contracts/SoulBoundName.sol:SoulBoundName",
        "label": "identityIdToNames",
        "offset": 0,
        "slot": "18",
        "type": "t_mapping(t_uint256,t_array(t_string_storage)dyn_storage)"
      }
    ],
    "types": {
      "t_address": {
        "encoding": "inplace",
        "label": "address",
        "numberOfBytes": "20"
      },
      "t_array(t_string_storage)dyn_storage": {
        "base": "t_string_storage",
        "encoding": "dynamic_array",
        "label": "string[]",
        "numberOfBytes": "32"
      },
      "t_array(t_uint256)dyn_storage": {
        "base": "t_uint256",
        "encoding": "dynamic_array",
        "label": "uint256[]",
        "numberOfBytes": "32"
      },
      "t_bool": {
        "encoding": "inplace",
        "label": "bool",
        "numberOfBytes": "1"
      },
      "t_bytes32": {
        "encoding": "inplace",
        "label": "bytes32",
        "numberOfBytes": "32"
      },
      "t_contract(SoulBoundIdentity)2809": {
        "encoding": "inplace",
        "label": "contract SoulBoundIdentity",
        "numberOfBytes": "20"
      },
      "t_mapping(t_address,t_bool)": {
        "encoding": "mapping",
        "key": "t_address",
        "label": "mapping(address => bool)",
        "numberOfBytes": "32",
        "value": "t_bool"
      },
      "t_mapping(t_address,t_mapping(t_address,t_bool))": {
        "encoding": "mapping",
        "key": "t_address",
        "label": "mapping(address => mapping(address => bool))",
        "numberOfBytes": "32",
        "value": "t_mapping(t_address,t_bool)"
      },
      "t_mapping(t_address,t_mapping(t_uint256,t_uint256))": {
        "encoding": "mapping",
        "key": "t_address",
        "label": "mapping(address => mapping(uint256 => uint256))",
        "numberOfBytes": "32",
        "value": "t_mapping(t_uint256,t_uint256)"
      },
      "t_mapping(t_address,t_uint256)": {
        "encoding": "mapping",
        "key": "t_address",
        "label": "mapping(address => uint256)",
        "numberOfBytes": "32",
        "value": "t_uint256"
      },
      "t_mapping(t_bytes32,t_struct(RoleData)19_storage)": {
        "encoding": "mapping",
        "key": "t_bytes32",
        "label": "mapping(bytes32 => struct AccessControl.RoleData)",
        "numberOfBytes": "32",
        "value": "t_struct(RoleData)19_storage"
      },
      "t_mapping(t_string_memory_ptr,t_struct(SoulBoundNameData)3193_storage)": {
        "encoding": "mapping",
        "key": "t_string_memory_ptr",
        "label": "mapping(string => struct SoulBoundName.SoulBoundNameData)",
        "numberOfBytes": "32",
        "value": "t_struct(SoulBoundNameData)3193_storage"
      },
      "t_mapping(t_uint256,t_address)": {
        "encoding": "mapping",
        "key": "t_uint256",
        "label": "mapping(uint256 => address)",
        "numberOfBytes": "32",
        "value": "t_address"
      },
      "t_mapping(t_uint256,t_array(t_string_storage)dyn_storage)": {
        "encoding": "mapping",
        "key": "t_uint256",
        "label": "mapping(uint256 => string[])",
        "numberOfBytes": "32",
        "value": "t_array(t_string_storage)dyn_storage"
      },
      "t_mapping(t_uint256,t_string_storage)": {
        "encoding": "mapping",
        "key": "t_uint256",
        "label": "mapping(uint256 => string)",
        "numberOfBytes": "32",
        "value": "t_string_storage"
      },
      "t_mapping(t_uint256,t_uint256)": {
        "encoding": "mapping",
        "key": "t_uint256",
        "label": "mapping(uint256 => uint256)",
        "numberOfBytes": "32",
        "value": "t_uint256"
      },
      "t_string_memory_ptr": {
        "encoding": "bytes",
        "label": "string",
        "numberOfBytes": "32"
      },
      "t_string_storage": {
        "encoding": "bytes",
        "label": "string",
        "numberOfBytes": "32"
      },
      "t_struct(Counter)2410_storage": {
        "encoding": "inplace",
        "label": "struct Counters.Counter",
        "members": [
          {
            "astId": 2409,
            "contract": "contracts/SoulBoundName.sol:SoulBoundName",
            "label": "_value",
            "offset": 0,
            "slot": "0",
            "type": "t_uint256"
          }
        ],
        "numberOfBytes": "32"
      },
      "t_struct(RoleData)19_storage": {
        "encoding": "inplace",
        "label": "struct AccessControl.RoleData",
        "members": [
          {
            "astId": 16,
            "contract": "contracts/SoulBoundName.sol:SoulBoundName",
            "label": "members",
            "offset": 0,
            "slot": "0",
            "type": "t_mapping(t_address,t_bool)"
          },
          {
            "astId": 18,
            "contract": "contracts/SoulBoundName.sol:SoulBoundName",
            "label": "adminRole",
            "offset": 0,
            "slot": "1",
            "type": "t_bytes32"
          }
        ],
        "numberOfBytes": "64"
      },
      "t_struct(SoulBoundNameData)3193_storage": {
        "encoding": "inplace",
        "label": "struct SoulBoundName.SoulBoundNameData",
        "members": [
          {
            "astId": 3190,
            "contract": "contracts/SoulBoundName.sol:SoulBoundName",
            "label": "name",
            "offset": 0,
            "slot": "0",
            "type": "t_string_storage"
          },
          {
            "astId": 3192,
            "contract": "contracts/SoulBoundName.sol:SoulBoundName",
            "label": "identityId",
            "offset": 0,
            "slot": "1",
            "type": "t_uint256"
          }
        ],
        "numberOfBytes": "64"
      },
      "t_uint256": {
        "encoding": "inplace",
        "label": "uint256",
        "numberOfBytes": "32"
      }
    }
  }
}