{
  "address": "0x16C2f2c5F3aea4b70595Ea45693784247f951aD1",
  "abi": [
    {
      "inputs": [
        {
          "internalType": "address",
          "name": "owner",
          "type": "address"
        },
        {
          "internalType": "address",
          "name": "soulLinker",
          "type": "address"
        },
        {
          "internalType": "string",
          "name": "baseTokenTokenURI",
          "type": "string"
        }
      ],
      "stateMutability": "nonpayable",
      "type": "constructor"
    },
    {
      "anonymous": false,
      "inputs": [
        {
          "indexed": true,
          "internalType": "address",
          "name": "owner",
          "type": "address"
        },
        {
          "indexed": true,
          "internalType": "address",
          "name": "approved",
          "type": "address"
        },
        {
          "indexed": true,
          "internalType": "uint256",
          "name": "tokenId",
          "type": "uint256"
        }
      ],
      "name": "Approval",
      "type": "event"
    },
    {
      "anonymous": false,
      "inputs": [
        {
          "indexed": true,
          "internalType": "address",
          "name": "owner",
          "type": "address"
        },
        {
          "indexed": true,
          "internalType": "address",
          "name": "operator",
          "type": "address"
        },
        {
          "indexed": false,
          "internalType": "bool",
          "name": "approved",
          "type": "bool"
        }
      ],
      "name": "ApprovalForAll",
      "type": "event"
    },
    {
      "anonymous": false,
      "inputs": [
        {
          "indexed": false,
          "internalType": "address",
          "name": "account",
          "type": "address"
        }
      ],
      "name": "Paused",
      "type": "event"
    },
    {
      "anonymous": false,
      "inputs": [
        {
          "indexed": true,
          "internalType": "bytes32",
          "name": "role",
          "type": "bytes32"
        },
        {
          "indexed": true,
          "internalType": "bytes32",
          "name": "previousAdminRole",
          "type": "bytes32"
        },
        {
          "indexed": true,
          "internalType": "bytes32",
          "name": "newAdminRole",
          "type": "bytes32"
        }
      ],
      "name": "RoleAdminChanged",
      "type": "event"
    },
    {
      "anonymous": false,
      "inputs": [
        {
          "indexed": true,
          "internalType": "bytes32",
          "name": "role",
          "type": "bytes32"
        },
        {
          "indexed": true,
          "internalType": "address",
          "name": "account",
          "type": "address"
        },
        {
          "indexed": true,
          "internalType": "address",
          "name": "sender",
          "type": "address"
        }
      ],
      "name": "RoleGranted",
      "type": "event"
    },
    {
      "anonymous": false,
      "inputs": [
        {
          "indexed": true,
          "internalType": "bytes32",
          "name": "role",
          "type": "bytes32"
        },
        {
          "indexed": true,
          "internalType": "address",
          "name": "account",
          "type": "address"
        },
        {
          "indexed": true,
          "internalType": "address",
          "name": "sender",
          "type": "address"
        }
      ],
      "name": "RoleRevoked",
      "type": "event"
    },
    {
      "anonymous": false,
      "inputs": [
        {
          "indexed": true,
          "internalType": "address",
          "name": "from",
          "type": "address"
        },
        {
          "indexed": true,
          "internalType": "address",
          "name": "to",
          "type": "address"
        },
        {
          "indexed": true,
          "internalType": "uint256",
          "name": "tokenId",
          "type": "uint256"
        }
      ],
      "name": "Transfer",
      "type": "event"
    },
    {
      "anonymous": false,
      "inputs": [
        {
          "indexed": false,
          "internalType": "address",
          "name": "account",
          "type": "address"
        }
      ],
      "name": "Unpaused",
      "type": "event"
    },
    {
      "inputs": [],
      "name": "DEFAULT_ADMIN_ROLE",
      "outputs": [
        {
          "internalType": "bytes32",
          "name": "",
          "type": "bytes32"
        }
      ],
      "stateMutability": "view",
      "type": "function"
    },
    {
      "inputs": [],
      "name": "MINTER_ROLE",
      "outputs": [
        {
          "internalType": "bytes32",
          "name": "",
          "type": "bytes32"
        }
      ],
      "stateMutability": "view",
      "type": "function"
    },
    {
      "inputs": [],
      "name": "PAUSER_ROLE",
      "outputs": [
        {
          "internalType": "bytes32",
          "name": "",
          "type": "bytes32"
        }
      ],
      "stateMutability": "view",
      "type": "function"
    },
    {
      "inputs": [
        {
          "internalType": "address",
          "name": "to",
          "type": "address"
        },
        {
          "internalType": "uint256",
          "name": "tokenId",
          "type": "uint256"
        }
      ],
      "name": "approve",
      "outputs": [],
      "stateMutability": "nonpayable",
      "type": "function"
    },
    {
      "inputs": [
        {
          "internalType": "address",
          "name": "owner",
          "type": "address"
        }
      ],
      "name": "balanceOf",
      "outputs": [
        {
          "internalType": "uint256",
          "name": "",
          "type": "uint256"
        }
      ],
      "stateMutability": "view",
      "type": "function"
    },
    {
      "inputs": [
        {
          "internalType": "uint256",
          "name": "tokenId",
          "type": "uint256"
        }
      ],
      "name": "burn",
      "outputs": [],
      "stateMutability": "nonpayable",
      "type": "function"
    },
    {
      "inputs": [
        {
          "internalType": "uint256",
          "name": "tokenId",
          "type": "uint256"
        }
      ],
      "name": "getApproved",
      "outputs": [
        {
          "internalType": "address",
          "name": "",
          "type": "address"
        }
      ],
      "stateMutability": "view",
      "type": "function"
    },
    {
      "inputs": [
        {
          "internalType": "bytes32",
          "name": "role",
          "type": "bytes32"
        }
      ],
      "name": "getRoleAdmin",
      "outputs": [
        {
          "internalType": "bytes32",
          "name": "",
          "type": "bytes32"
        }
      ],
      "stateMutability": "view",
      "type": "function"
    },
    {
      "inputs": [
        {
          "internalType": "bytes32",
          "name": "role",
          "type": "bytes32"
        },
        {
          "internalType": "address",
          "name": "account",
          "type": "address"
        }
      ],
      "name": "grantRole",
      "outputs": [],
      "stateMutability": "nonpayable",
      "type": "function"
    },
    {
      "inputs": [
        {
          "internalType": "bytes32",
          "name": "role",
          "type": "bytes32"
        },
        {
          "internalType": "address",
          "name": "account",
          "type": "address"
        }
      ],
      "name": "hasRole",
      "outputs": [
        {
          "internalType": "bool",
          "name": "",
          "type": "bool"
        }
      ],
      "stateMutability": "view",
      "type": "function"
    },
    {
      "inputs": [
        {
          "internalType": "address",
          "name": "owner",
          "type": "address"
        },
        {
          "internalType": "address",
          "name": "operator",
          "type": "address"
        }
      ],
      "name": "isApprovedForAll",
      "outputs": [
        {
          "internalType": "bool",
          "name": "",
          "type": "bool"
        }
      ],
      "stateMutability": "view",
      "type": "function"
    },
    {
      "inputs": [
        {
          "internalType": "address",
          "name": "to",
          "type": "address"
        }
      ],
      "name": "mint",
      "outputs": [
        {
          "internalType": "uint256",
          "name": "",
          "type": "uint256"
        }
      ],
      "stateMutability": "nonpayable",
      "type": "function"
    },
    {
      "inputs": [],
      "name": "name",
      "outputs": [
        {
          "internalType": "string",
          "name": "",
          "type": "string"
        }
      ],
      "stateMutability": "view",
      "type": "function"
    },
    {
      "inputs": [
        {
          "internalType": "uint256",
          "name": "tokenId",
          "type": "uint256"
        }
      ],
      "name": "ownerOf",
      "outputs": [
        {
          "internalType": "address",
          "name": "",
          "type": "address"
        }
      ],
      "stateMutability": "view",
      "type": "function"
    },
    {
      "inputs": [],
      "name": "pause",
      "outputs": [],
      "stateMutability": "nonpayable",
      "type": "function"
    },
    {
      "inputs": [],
      "name": "paused",
      "outputs": [
        {
          "internalType": "bool",
          "name": "",
          "type": "bool"
        }
      ],
      "stateMutability": "view",
      "type": "function"
    },
    {
      "inputs": [
        {
          "internalType": "bytes32",
          "name": "role",
          "type": "bytes32"
        },
        {
          "internalType": "address",
          "name": "account",
          "type": "address"
        }
      ],
      "name": "renounceRole",
      "outputs": [],
      "stateMutability": "nonpayable",
      "type": "function"
    },
    {
      "inputs": [
        {
          "internalType": "bytes32",
          "name": "role",
          "type": "bytes32"
        },
        {
          "internalType": "address",
          "name": "account",
          "type": "address"
        }
      ],
      "name": "revokeRole",
      "outputs": [],
      "stateMutability": "nonpayable",
      "type": "function"
    },
    {
      "inputs": [
        {
          "internalType": "address",
          "name": "",
          "type": "address"
        },
        {
          "internalType": "address",
          "name": "",
          "type": "address"
        },
        {
          "internalType": "uint256",
          "name": "",
          "type": "uint256"
        }
      ],
      "name": "safeTransferFrom",
      "outputs": [],
      "stateMutability": "pure",
      "type": "function"
    },
    {
      "inputs": [
        {
          "internalType": "address",
          "name": "",
          "type": "address"
        },
        {
          "internalType": "address",
          "name": "",
          "type": "address"
        },
        {
          "internalType": "uint256",
          "name": "",
          "type": "uint256"
        },
        {
          "internalType": "bytes",
          "name": "",
          "type": "bytes"
        }
      ],
      "name": "safeTransferFrom",
      "outputs": [],
      "stateMutability": "pure",
      "type": "function"
    },
    {
      "inputs": [
        {
          "internalType": "address",
          "name": "operator",
          "type": "address"
        },
        {
          "internalType": "bool",
          "name": "approved",
          "type": "bool"
        }
      ],
      "name": "setApprovalForAll",
      "outputs": [],
      "stateMutability": "nonpayable",
      "type": "function"
    },
    {
      "inputs": [],
      "name": "soulLinker",
      "outputs": [
        {
          "internalType": "contract ISoulLinker",
          "name": "",
          "type": "address"
        }
      ],
      "stateMutability": "view",
      "type": "function"
    },
    {
      "inputs": [
        {
          "internalType": "bytes4",
          "name": "interfaceId",
          "type": "bytes4"
        }
      ],
      "name": "supportsInterface",
      "outputs": [
        {
          "internalType": "bool",
          "name": "",
          "type": "bool"
        }
      ],
      "stateMutability": "view",
      "type": "function"
    },
    {
      "inputs": [],
      "name": "symbol",
      "outputs": [
        {
          "internalType": "string",
          "name": "",
          "type": "string"
        }
      ],
      "stateMutability": "view",
      "type": "function"
    },
    {
      "inputs": [
        {
          "internalType": "uint256",
          "name": "index",
          "type": "uint256"
        }
      ],
      "name": "tokenByIndex",
      "outputs": [
        {
          "internalType": "uint256",
          "name": "",
          "type": "uint256"
        }
      ],
      "stateMutability": "view",
      "type": "function"
    },
    {
      "inputs": [
        {
          "internalType": "address",
          "name": "owner",
          "type": "address"
        },
        {
          "internalType": "uint256",
          "name": "index",
          "type": "uint256"
        }
      ],
      "name": "tokenOfOwnerByIndex",
      "outputs": [
        {
          "internalType": "uint256",
          "name": "",
          "type": "uint256"
        }
      ],
      "stateMutability": "view",
      "type": "function"
    },
    {
      "inputs": [
        {
          "internalType": "uint256",
          "name": "tokenId",
          "type": "uint256"
        }
      ],
      "name": "tokenURI",
      "outputs": [
        {
          "internalType": "string",
          "name": "",
          "type": "string"
        }
      ],
      "stateMutability": "view",
      "type": "function"
    },
    {
      "inputs": [],
      "name": "totalSupply",
      "outputs": [
        {
          "internalType": "uint256",
          "name": "",
          "type": "uint256"
        }
      ],
      "stateMutability": "view",
      "type": "function"
    },
    {
      "inputs": [
        {
          "internalType": "address",
          "name": "",
          "type": "address"
        },
        {
          "internalType": "address",
          "name": "",
          "type": "address"
        },
        {
          "internalType": "uint256",
          "name": "",
          "type": "uint256"
        }
      ],
      "name": "transferFrom",
      "outputs": [],
      "stateMutability": "pure",
      "type": "function"
    },
    {
      "inputs": [],
      "name": "unpause",
      "outputs": [],
      "stateMutability": "nonpayable",
      "type": "function"
    }
  ],
  "transactionHash": "0x67b06a034a368b51dc6168aac9a2b93559e7928e6f3fff77cf8812ac58f5cc9a",
  "args": [
    "0x3c8D9f130970358b7E8cbc1DbD0a1EbA6EBE368F",
    "0x5D3e2fd5eB8685f964d0fAb2B0F34436bFcB3A42",
    "https://dev.api.masa.finance/v1.0/credit-report/"
  ],
  "numDeployments": 4,
  "solcInputHash": "9a68077915494fcee3d59075ef4aa032",
  "bytecode": "0x60806040523480156200001157600080fd5b5060405162002403380380620024038339810160408190526200003491620002d5565b82826040518060400160405280601281526020017113585cd84810dc99591a5d0814995c1bdc9d60721b8152506040518060400160405280600381526020016226a1a960e91b8152508484838383828281600090805190602001906200009c92919062000212565b508051620000b290600190602084019062000212565b5050600a805460ff1916905550620000cc6000856200016d565b620000f87f65d7a28e3265b37a6474929f336521b332c1681b933f6cb9f3376673440d862a856200016d565b620001247f9f2df0fed2c77648de5860a4cc508cd0818c85b8b8a1ab4ceeef8d981c8956a6856200016d565b80516200013990600d90602084019062000212565b5050600e80546001600160a01b0319166001600160a01b039890981697909717909655506200042c98505050505050505050565b6000828152600b602090815260408083206001600160a01b038516845290915290205460ff166200020e576000828152600b602090815260408083206001600160a01b03851684529091529020805460ff19166001179055620001cd3390565b6001600160a01b0316816001600160a01b0316837f2f8788117e7eff1d82e926ec794901d17c78024a50270940304540a733656f0d60405160405180910390a45b5050565b8280546200022090620003d9565b90600052602060002090601f0160209004810192826200024457600085556200028f565b82601f106200025f57805160ff19168380011785556200028f565b828001600101855582156200028f579182015b828111156200028f57825182559160200191906001019062000272565b506200029d929150620002a1565b5090565b5b808211156200029d5760008155600101620002a2565b80516001600160a01b0381168114620002d057600080fd5b919050565b600080600060608486031215620002eb57600080fd5b620002f684620002b8565b9250602062000307818601620002b8565b60408601519093506001600160401b03808211156200032557600080fd5b818701915087601f8301126200033a57600080fd5b8151818111156200034f576200034f62000416565b604051601f8201601f19908116603f011681019083821181831017156200037a576200037a62000416565b816040528281528a868487010111156200039357600080fd5b600093505b82841015620003b7578484018601518185018701529285019262000398565b82841115620003c95760008684830101525b8096505050505050509250925092565b600181811c90821680620003ee57607f821691505b602082108114156200041057634e487b7160e01b600052602260045260246000fd5b50919050565b634e487b7160e01b600052604160045260246000fd5b611fc7806200043c6000396000f3fe608060405234801561001057600080fd5b50600436106101da5760003560e01c80635c975abb11610104578063a217fddf116100a2578063d539139311610071578063d5391393146103c1578063d547741f146103e8578063e63ab1e9146103fb578063e985e9c51461042257600080fd5b8063a217fddf14610385578063a22cb4651461038d578063b88d4fde146103a0578063c87b56dd146103ae57600080fd5b806370a08231116100de57806370a082311461034f5780638456cb591461036257806391d148541461036a57806395d89b411461037d57600080fd5b80635c975abb1461031e5780636352211e146103295780636a6278421461033c57600080fd5b80632f2ff15d1161017c57806342842e0e1161014b57806342842e0e1461026e57806342966c68146102e557806345390070146102f85780634f6ccce71461030b57600080fd5b80632f2ff15d146102a45780632f745c59146102b757806336568abe146102ca5780633f4ba83a146102dd57600080fd5b8063095ea7b3116101b8578063095ea7b31461024757806318160ddd1461025c57806323b872dd1461026e578063248a9ca31461028157600080fd5b806301ffc9a7146101df57806306fdde0314610207578063081812fc1461021c575b600080fd5b6101f26101ed366004611c36565b61045e565b60405190151581526020015b60405180910390f35b61020f61046f565b6040516101fe9190611d8d565b61022f61022a366004611bfa565b610501565b6040516001600160a01b0390911681526020016101fe565b61025a610255366004611bb3565b610528565b005b6008545b6040519081526020016101fe565b61025a61027c366004611a64565b610643565b61026061028f366004611bfa565b6000908152600b602052604090206001015490565b61025a6102b2366004611c13565b6106a3565b6102606102c5366004611bb3565b6106c8565b61025a6102d8366004611c13565b61075e565b61025a6107dc565b61025a6102f3366004611bfa565b610811565b600e5461022f906001600160a01b031681565b610260610319366004611bfa565b610919565b600a5460ff166101f2565b61022f610337366004611bfa565b6109ac565b61026061034a366004611a16565b610a0c565b61026061035d366004611a16565b610a17565b61025a610a9d565b6101f2610378366004611c13565b610acf565b61020f610afa565b610260600081565b61025a61039b366004611b7c565b610b09565b61025a61027c366004611aa0565b61020f6103bc366004611bfa565b610b14565b6102607f9f2df0fed2c77648de5860a4cc508cd0818c85b8b8a1ab4ceeef8d981c8956a681565b61025a6103f6366004611c13565b610b7b565b6102607f65d7a28e3265b37a6474929f336521b332c1681b933f6cb9f3376673440d862a81565b6101f2610430366004611a31565b6001600160a01b03918216600090815260056020908152604080832093909416825291909152205460ff1690565b600061046982610ba0565b92915050565b60606000805461047e90611e9b565b80601f01602080910402602001604051908101604052809291908181526020018280546104aa90611e9b565b80156104f75780601f106104cc576101008083540402835291602001916104f7565b820191906000526020600020905b8154815290600101906020018083116104da57829003601f168201915b5050505050905090565b600061050c82610bc5565b506000908152600460205260409020546001600160a01b031690565b6000610533826109ac565b9050806001600160a01b0316836001600160a01b031614156105a65760405162461bcd60e51b815260206004820152602160248201527f4552433732313a20617070726f76616c20746f2063757272656e74206f776e656044820152603960f91b60648201526084015b60405180910390fd5b336001600160a01b03821614806105c257506105c28133610430565b6106345760405162461bcd60e51b815260206004820152603e60248201527f4552433732313a20617070726f76652063616c6c6572206973206e6f7420746f60448201527f6b656e206f776e6572206e6f7220617070726f76656420666f7220616c6c0000606482015260840161059d565b61063e8383610c24565b505050565b60405162461bcd60e51b815260206004820152602f60248201527f5472616e7366657272696e6720736f756c626f756e6420546f6b656e7320697360448201526e206e6f74207065726d69747465642160881b606482015260840161059d565b6000828152600b60205260409020600101546106be81610c92565b61063e8383610c9c565b60006106d383610a17565b82106107355760405162461bcd60e51b815260206004820152602b60248201527f455243373231456e756d657261626c653a206f776e657220696e646578206f7560448201526a74206f6620626f756e647360a81b606482015260840161059d565b506001600160a01b03919091166000908152600660209081526040808320938352929052205490565b6001600160a01b03811633146107ce5760405162461bcd60e51b815260206004820152602f60248201527f416363657373436f6e74726f6c3a2063616e206f6e6c792072656e6f756e636560448201526e103937b632b9903337b91039b2b63360891b606482015260840161059d565b6107d88282610d22565b5050565b7f65d7a28e3265b37a6474929f336521b332c1681b933f6cb9f3376673440d862a61080681610c92565b61080e610d89565b50565b600e54604051633f278e0b60e21b8152306004820152602481018390526001600160a01b039091169063fc9e382c9060440160206040518083038186803b15801561085b57600080fd5b505afa15801561086f573d6000803e3d6000fd5b505050506040513d601f19601f820116820180604052508101906108939190611bdd565b156109105760405162461bcd60e51b815260206004820152604160248201527f4120536f756c626f756e6420546f6b656e2063616e2774206265206275726e6560448201527f64206173206c6f6e672061732069742068617320616374697665206c696e6b736064820152602160f81b608482015260a40161059d565b61080e81610ddb565b600061092460085490565b82106109875760405162461bcd60e51b815260206004820152602c60248201527f455243373231456e756d657261626c653a20676c6f62616c20696e646578206f60448201526b7574206f6620626f756e647360a01b606482015260840161059d565b6008828154811061099a5761099a611f41565b90600052602060002001549050919050565b6000818152600260205260408120546001600160a01b0316806104695760405162461bcd60e51b8152602060048201526018602482015277115490cdcc8c4e881a5b9d985b1a59081d1bdad95b88125160421b604482015260640161059d565b600061046982610e51565b60006001600160a01b038216610a815760405162461bcd60e51b815260206004820152602960248201527f4552433732313a2061646472657373207a65726f206973206e6f7420612076616044820152683634b21037bbb732b960b91b606482015260840161059d565b506001600160a01b031660009081526003602052604090205490565b7f65d7a28e3265b37a6474929f336521b332c1681b933f6cb9f3376673440d862a610ac781610c92565b61080e610eab565b6000918252600b602090815260408084206001600160a01b0393909316845291905290205460ff1690565b60606001805461047e90611e9b565b6107d8338383610ee8565b6060610b1f82610bc5565b6000610b29610fb7565b90506000815111610b495760405180602001604052806000815250610b74565b80610b5384610fc6565b604051602001610b64929190611c9c565b6040516020818303038152906040525b9392505050565b6000828152600b6020526040902060010154610b9681610c92565b61063e8383610d22565b60006001600160e01b03198216637965db0b60e01b14806104695750610469826110cc565b6000818152600260205260409020546001600160a01b031661080e5760405162461bcd60e51b8152602060048201526018602482015277115490cdcc8c4e881a5b9d985b1a59081d1bdad95b88125160421b604482015260640161059d565b600081815260046020526040902080546001600160a01b0319166001600160a01b0384169081179091558190610c59826109ac565b6001600160a01b03167f8c5be1e5ebec7d5bd14f71427d1e84f3dd0314c0f7b2291e5b200ac8c7c3b92560405160405180910390a45050565b61080e81336110f1565b610ca68282610acf565b6107d8576000828152600b602090815260408083206001600160a01b03851684529091529020805460ff19166001179055610cde3390565b6001600160a01b0316816001600160a01b0316837f2f8788117e7eff1d82e926ec794901d17c78024a50270940304540a733656f0d60405160405180910390a45050565b610d2c8282610acf565b156107d8576000828152600b602090815260408083206001600160a01b0385168085529252808320805460ff1916905551339285917ff6391f5c32d9c69d2a47ea670b442974b53935d1edc7fd64eb21e047a839171b9190a45050565b610d91611155565b600a805460ff191690557f5db9ee0a495bf2e6ff9c91a7834c1ba4fdd244a5e8aa4e537bd38aeae4b073aa335b6040516001600160a01b03909116815260200160405180910390a1565b610de533826111a0565b610e485760405162461bcd60e51b815260206004820152602e60248201527f4552433732313a2063616c6c6572206973206e6f7420746f6b656e206f776e6560448201526d1c881b9bdc88185c1c1c9bdd995960921b606482015260840161059d565b61080e8161121e565b60007f9f2df0fed2c77648de5860a4cc508cd0818c85b8b8a1ab4ceeef8d981c8956a6610e7d81610c92565b6000610e88600c5490565b9050610e98600c80546001019055565b610ea284826112c5565b91505b50919050565b610eb36112df565b600a805460ff191660011790557f62e78cea01bee320cd4e420270b5ea74000d11b0c9f74754ebdbfc544b05a258610dbe3390565b816001600160a01b0316836001600160a01b03161415610f4a5760405162461bcd60e51b815260206004820152601960248201527f4552433732313a20617070726f766520746f2063616c6c657200000000000000604482015260640161059d565b6001600160a01b03838116600081815260056020908152604080832094871680845294825291829020805460ff191686151590811790915591519182527f17307eab39ab6107e8899845ad3d59bd9653f200f220920489ca2b5937696c31910160405180910390a3505050565b6060600d805461047e90611e9b565b606081610fea5750506040805180820190915260018152600360fc1b602082015290565b8160005b81156110145780610ffe81611ed0565b915061100d9050600a83611e0a565b9150610fee565b60008167ffffffffffffffff81111561102f5761102f611f57565b6040519080825280601f01601f191660200182016040528015611059576020820181803683370190505b5090505b84156110c45761106e600183611e3d565b915061107b600a86611eeb565b611086906030611df2565b60f81b81838151811061109b5761109b611f41565b60200101906001600160f81b031916908160001a9053506110bd600a86611e0a565b945061105d565b949350505050565b60006001600160e01b0319821663780e9d6360e01b1480610469575061046982611325565b6110fb8282610acf565b6107d857611113816001600160a01b03166014611375565b61111e836020611375565b60405160200161112f929190611cdb565b60408051601f198184030181529082905262461bcd60e51b825261059d91600401611d8d565b600a5460ff1661119e5760405162461bcd60e51b815260206004820152601460248201527314185d5cd8589b194e881b9bdd081c185d5cd95960621b604482015260640161059d565b565b6000806111ac836109ac565b9050806001600160a01b0316846001600160a01b031614806111f357506001600160a01b0380821660009081526005602090815260408083209388168352929052205460ff165b806110c45750836001600160a01b031661120c84610501565b6001600160a01b031614949350505050565b6000611229826109ac565b905061123781600084611511565b611242600083610c24565b6001600160a01b038116600090815260036020526040812080546001929061126b908490611e3d565b909155505060008281526002602052604080822080546001600160a01b0319169055518391906001600160a01b038416907fddf252ad1be2c89b69c2b068fc378daa952ba7f163c4a11628f55a4df523b3ef908390a45050565b6107d8828260405180602001604052806000815250611524565b600a5460ff161561119e5760405162461bcd60e51b815260206004820152601060248201526f14185d5cd8589b194e881c185d5cd95960821b604482015260640161059d565b60006001600160e01b031982166380ac58cd60e01b148061135657506001600160e01b03198216635b5e139f60e01b145b8061046957506301ffc9a760e01b6001600160e01b0319831614610469565b60606000611384836002611e1e565b61138f906002611df2565b67ffffffffffffffff8111156113a7576113a7611f57565b6040519080825280601f01601f1916602001820160405280156113d1576020820181803683370190505b509050600360fc1b816000815181106113ec576113ec611f41565b60200101906001600160f81b031916908160001a905350600f60fb1b8160018151811061141b5761141b611f41565b60200101906001600160f81b031916908160001a905350600061143f846002611e1e565b61144a906001611df2565b90505b60018111156114c2576f181899199a1a9b1b9c1cb0b131b232b360811b85600f166010811061147e5761147e611f41565b1a60f81b82828151811061149457611494611f41565b60200101906001600160f81b031916908160001a90535060049490941c936114bb81611e84565b905061144d565b508315610b745760405162461bcd60e51b815260206004820181905260248201527f537472696e67733a20686578206c656e67746820696e73756666696369656e74604482015260640161059d565b6115196112df565b61063e838383611557565b61152e838361160f565b61153b600084848461175d565b61063e5760405162461bcd60e51b815260040161059d90611da0565b6001600160a01b0383166115b2576115ad81600880546000838152600960205260408120829055600182018355919091527ff3f7a9fe364faab93b216da50a3214154f22a0a2b415b23a84c8169e8b636ee30155565b6115d5565b816001600160a01b0316836001600160a01b0316146115d5576115d5838261186a565b6001600160a01b0382166115ec5761063e81611907565b826001600160a01b0316826001600160a01b03161461063e5761063e82826119b6565b6001600160a01b0382166116655760405162461bcd60e51b815260206004820181905260248201527f4552433732313a206d696e7420746f20746865207a65726f2061646472657373604482015260640161059d565b6000818152600260205260409020546001600160a01b0316156116ca5760405162461bcd60e51b815260206004820152601c60248201527f4552433732313a20746f6b656e20616c7265616479206d696e74656400000000604482015260640161059d565b6116d660008383611511565b6001600160a01b03821660009081526003602052604081208054600192906116ff908490611df2565b909155505060008181526002602052604080822080546001600160a01b0319166001600160a01b03861690811790915590518392907fddf252ad1be2c89b69c2b068fc378daa952ba7f163c4a11628f55a4df523b3ef908290a45050565b60006001600160a01b0384163b1561185f57604051630a85bd0160e11b81526001600160a01b0385169063150b7a02906117a1903390899088908890600401611d50565b602060405180830381600087803b1580156117bb57600080fd5b505af19250505080156117eb575060408051601f3d908101601f191682019092526117e891810190611c53565b60015b611845573d808015611819576040519150601f19603f3d011682016040523d82523d6000602084013e61181e565b606091505b50805161183d5760405162461bcd60e51b815260040161059d90611da0565b805181602001fd5b6001600160e01b031916630a85bd0160e11b1490506110c4565b506001949350505050565b6000600161187784610a17565b6118819190611e3d565b6000838152600760205260409020549091508082146118d4576001600160a01b03841660009081526006602090815260408083208584528252808320548484528184208190558352600790915290208190555b5060009182526007602090815260408084208490556001600160a01b039094168352600681528383209183525290812055565b60085460009061191990600190611e3d565b6000838152600960205260408120546008805493945090928490811061194157611941611f41565b90600052602060002001549050806008838154811061196257611962611f41565b600091825260208083209091019290925582815260099091526040808220849055858252812055600880548061199a5761199a611f2b565b6001900381819060005260206000200160009055905550505050565b60006119c183610a17565b6001600160a01b039093166000908152600660209081526040808320868452825280832085905593825260079052919091209190915550565b80356001600160a01b0381168114611a1157600080fd5b919050565b600060208284031215611a2857600080fd5b610b74826119fa565b60008060408385031215611a4457600080fd5b611a4d836119fa565b9150611a5b602084016119fa565b90509250929050565b600080600060608486031215611a7957600080fd5b611a82846119fa565b9250611a90602085016119fa565b9150604084013590509250925092565b60008060008060808587031215611ab657600080fd5b611abf856119fa565b9350611acd602086016119fa565b925060408501359150606085013567ffffffffffffffff80821115611af157600080fd5b818701915087601f830112611b0557600080fd5b813581811115611b1757611b17611f57565b604051601f8201601f19908116603f01168101908382118183101715611b3f57611b3f611f57565b816040528281528a6020848701011115611b5857600080fd5b82602086016020830137600060208483010152809550505050505092959194509250565b60008060408385031215611b8f57600080fd5b611b98836119fa565b91506020830135611ba881611f6d565b809150509250929050565b60008060408385031215611bc657600080fd5b611bcf836119fa565b946020939093013593505050565b600060208284031215611bef57600080fd5b8151610b7481611f6d565b600060208284031215611c0c57600080fd5b5035919050565b60008060408385031215611c2657600080fd5b82359150611a5b602084016119fa565b600060208284031215611c4857600080fd5b8135610b7481611f7b565b600060208284031215611c6557600080fd5b8151610b7481611f7b565b60008151808452611c88816020860160208601611e54565b601f01601f19169290920160200192915050565b60008351611cae818460208801611e54565b835190830190611cc2818360208801611e54565b64173539b7b760d91b9101908152600501949350505050565b7f416363657373436f6e74726f6c3a206163636f756e7420000000000000000000815260008351611d13816017850160208801611e54565b7001034b99036b4b9b9b4b733903937b6329607d1b6017918401918201528351611d44816028840160208801611e54565b01602801949350505050565b6001600160a01b0385811682528416602082015260408101839052608060608201819052600090611d8390830184611c70565b9695505050505050565b602081526000610b746020830184611c70565b60208082526032908201527f4552433732313a207472616e7366657220746f206e6f6e20455243373231526560408201527131b2b4bb32b91034b6b83632b6b2b73a32b960711b606082015260800190565b60008219821115611e0557611e05611eff565b500190565b600082611e1957611e19611f15565b500490565b6000816000190483118215151615611e3857611e38611eff565b500290565b600082821015611e4f57611e4f611eff565b500390565b60005b83811015611e6f578181015183820152602001611e57565b83811115611e7e576000848401525b50505050565b600081611e9357611e93611eff565b506000190190565b600181811c90821680611eaf57607f821691505b60208210811415610ea557634e487b7160e01b600052602260045260246000fd5b6000600019821415611ee457611ee4611eff565b5060010190565b600082611efa57611efa611f15565b500690565b634e487b7160e01b600052601160045260246000fd5b634e487b7160e01b600052601260045260246000fd5b634e487b7160e01b600052603160045260246000fd5b634e487b7160e01b600052603260045260246000fd5b634e487b7160e01b600052604160045260246000fd5b801515811461080e57600080fd5b6001600160e01b03198116811461080e57600080fdfea2646970667358221220d24a80996f9a7c788e07d5843ca2ede2f750388cf66515b286f553563aa02b5d64736f6c63430008070033",
  "devdoc": {
    "kind": "dev",
    "methods": {
      "approve(address,uint256)": {
        "details": "See {IERC721-approve}."
      },
      "balanceOf(address)": {
        "details": "See {IERC721-balanceOf}."
      },
      "burn(uint256)": {
        "details": "Burns `tokenId`. See {ERC721-_burn}. Requirements: - The caller must own `tokenId` or be an approved operator."
      },
      "getApproved(uint256)": {
        "details": "See {IERC721-getApproved}."
      },
      "getRoleAdmin(bytes32)": {
        "details": "Returns the admin role that controls `role`. See {grantRole} and {revokeRole}. To change a role's admin, use {_setRoleAdmin}."
      },
      "grantRole(bytes32,address)": {
        "details": "Grants `role` to `account`. If `account` had not been already granted `role`, emits a {RoleGranted} event. Requirements: - the caller must have ``role``'s admin role. May emit a {RoleGranted} event."
      },
      "hasRole(bytes32,address)": {
        "details": "Returns `true` if `account` has been granted `role`."
      },
      "isApprovedForAll(address,address)": {
        "details": "See {IERC721-isApprovedForAll}."
      },
      "name()": {
        "details": "See {IERC721Metadata-name}."
      },
      "ownerOf(uint256)": {
        "details": "See {IERC721-ownerOf}."
      },
      "paused()": {
        "details": "Returns true if the contract is paused, and false otherwise."
      },
      "renounceRole(bytes32,address)": {
        "details": "Revokes `role` from the calling account. Roles are often managed via {grantRole} and {revokeRole}: this function's purpose is to provide a mechanism for accounts to lose their privileges if they are compromised (such as when a trusted device is misplaced). If the calling account had been revoked `role`, emits a {RoleRevoked} event. Requirements: - the caller must be `account`. May emit a {RoleRevoked} event."
      },
      "revokeRole(bytes32,address)": {
        "details": "Revokes `role` from `account`. If `account` had been granted `role`, emits a {RoleRevoked} event. Requirements: - the caller must have ``role``'s admin role. May emit a {RoleRevoked} event."
      },
      "setApprovalForAll(address,bool)": {
        "details": "See {IERC721-setApprovalForAll}."
      },
      "symbol()": {
        "details": "See {IERC721Metadata-symbol}."
      },
      "tokenByIndex(uint256)": {
        "details": "See {IERC721Enumerable-tokenByIndex}."
      },
      "tokenOfOwnerByIndex(address,uint256)": {
        "details": "See {IERC721Enumerable-tokenOfOwnerByIndex}."
      },
      "tokenURI(uint256)": {
        "details": "See {IERC721Metadata-tokenURI}."
      },
      "totalSupply()": {
        "details": "See {IERC721Enumerable-totalSupply}."
      }
    },
    "version": 1
  },
  "userdoc": {
    "kind": "user",
    "methods": {},
    "version": 1
  },
  "storageLayout": {
    "storage": [
      {
        "astId": 639,
        "contract": "contracts/SoulBoundCreditReport.sol:SoulBoundCreditReport",
        "label": "_name",
        "offset": 0,
        "slot": "0",
        "type": "t_string_storage"
      },
      {
        "astId": 641,
        "contract": "contracts/SoulBoundCreditReport.sol:SoulBoundCreditReport",
        "label": "_symbol",
        "offset": 0,
        "slot": "1",
        "type": "t_string_storage"
      },
      {
        "astId": 645,
        "contract": "contracts/SoulBoundCreditReport.sol:SoulBoundCreditReport",
        "label": "_owners",
        "offset": 0,
        "slot": "2",
        "type": "t_mapping(t_uint256,t_address)"
      },
      {
        "astId": 649,
        "contract": "contracts/SoulBoundCreditReport.sol:SoulBoundCreditReport",
        "label": "_balances",
        "offset": 0,
        "slot": "3",
        "type": "t_mapping(t_address,t_uint256)"
      },
      {
        "astId": 653,
        "contract": "contracts/SoulBoundCreditReport.sol:SoulBoundCreditReport",
        "label": "_tokenApprovals",
        "offset": 0,
        "slot": "4",
        "type": "t_mapping(t_uint256,t_address)"
      },
      {
        "astId": 659,
        "contract": "contracts/SoulBoundCreditReport.sol:SoulBoundCreditReport",
        "label": "_operatorApprovals",
        "offset": 0,
        "slot": "5",
        "type": "t_mapping(t_address,t_mapping(t_address,t_bool))"
      },
      {
        "astId": 1659,
        "contract": "contracts/SoulBoundCreditReport.sol:SoulBoundCreditReport",
        "label": "_ownedTokens",
        "offset": 0,
        "slot": "6",
        "type": "t_mapping(t_address,t_mapping(t_uint256,t_uint256))"
      },
      {
        "astId": 1663,
        "contract": "contracts/SoulBoundCreditReport.sol:SoulBoundCreditReport",
        "label": "_ownedTokensIndex",
        "offset": 0,
        "slot": "7",
        "type": "t_mapping(t_uint256,t_uint256)"
      },
      {
        "astId": 1666,
        "contract": "contracts/SoulBoundCreditReport.sol:SoulBoundCreditReport",
        "label": "_allTokens",
        "offset": 0,
        "slot": "8",
        "type": "t_array(t_uint256)dyn_storage"
      },
      {
        "astId": 1670,
        "contract": "contracts/SoulBoundCreditReport.sol:SoulBoundCreditReport",
        "label": "_allTokensIndex",
        "offset": 0,
        "slot": "9",
        "type": "t_mapping(t_uint256,t_uint256)"
      },
      {
        "astId": 523,
        "contract": "contracts/SoulBoundCreditReport.sol:SoulBoundCreditReport",
        "label": "_paused",
        "offset": 0,
        "slot": "10",
        "type": "t_bool"
      },
      {
        "astId": 24,
        "contract": "contracts/SoulBoundCreditReport.sol:SoulBoundCreditReport",
        "label": "_roles",
        "offset": 0,
        "slot": "11",
        "type": "t_mapping(t_bytes32,t_struct(RoleData)19_storage)"
      },
      {
        "astId": 3747,
        "contract": "contracts/SoulBoundCreditReport.sol:SoulBoundCreditReport",
        "label": "_tokenIdCounter",
        "offset": 0,
        "slot": "12",
        "type": "t_struct(Counter)2410_storage"
      },
      {
        "astId": 3749,
        "contract": "contracts/SoulBoundCreditReport.sol:SoulBoundCreditReport",
        "label": "_baseTokenURI",
        "offset": 0,
        "slot": "13",
        "type": "t_string_storage"
      },
      {
        "astId": 3931,
        "contract": "contracts/SoulBoundCreditReport.sol:SoulBoundCreditReport",
        "label": "soulLinker",
        "offset": 0,
        "slot": "14",
        "type": "t_contract(ISoulLinker)3708"
      }
    ],
    "types": {
      "t_address": {
        "encoding": "inplace",
        "label": "address",
        "numberOfBytes": "20"
      },
      "t_array(t_uint256)dyn_storage": {
        "base": "t_uint256",
        "encoding": "dynamic_array",
        "label": "uint256[]",
        "numberOfBytes": "32"
      },
      "t_bool": {
        "encoding": "inplace",
        "label": "bool",
        "numberOfBytes": "1"
      },
      "t_bytes32": {
        "encoding": "inplace",
        "label": "bytes32",
        "numberOfBytes": "32"
      },
      "t_contract(ISoulLinker)3708": {
        "encoding": "inplace",
        "label": "contract ISoulLinker",
        "numberOfBytes": "20"
      },
      "t_mapping(t_address,t_bool)": {
        "encoding": "mapping",
        "key": "t_address",
        "label": "mapping(address => bool)",
        "numberOfBytes": "32",
        "value": "t_bool"
      },
      "t_mapping(t_address,t_mapping(t_address,t_bool))": {
        "encoding": "mapping",
        "key": "t_address",
        "label": "mapping(address => mapping(address => bool))",
        "numberOfBytes": "32",
        "value": "t_mapping(t_address,t_bool)"
      },
      "t_mapping(t_address,t_mapping(t_uint256,t_uint256))": {
        "encoding": "mapping",
        "key": "t_address",
        "label": "mapping(address => mapping(uint256 => uint256))",
        "numberOfBytes": "32",
        "value": "t_mapping(t_uint256,t_uint256)"
      },
      "t_mapping(t_address,t_uint256)": {
        "encoding": "mapping",
        "key": "t_address",
        "label": "mapping(address => uint256)",
        "numberOfBytes": "32",
        "value": "t_uint256"
      },
      "t_mapping(t_bytes32,t_struct(RoleData)19_storage)": {
        "encoding": "mapping",
        "key": "t_bytes32",
        "label": "mapping(bytes32 => struct AccessControl.RoleData)",
        "numberOfBytes": "32",
        "value": "t_struct(RoleData)19_storage"
      },
      "t_mapping(t_uint256,t_address)": {
        "encoding": "mapping",
        "key": "t_uint256",
        "label": "mapping(uint256 => address)",
        "numberOfBytes": "32",
        "value": "t_address"
      },
      "t_mapping(t_uint256,t_uint256)": {
        "encoding": "mapping",
        "key": "t_uint256",
        "label": "mapping(uint256 => uint256)",
        "numberOfBytes": "32",
        "value": "t_uint256"
      },
      "t_string_storage": {
        "encoding": "bytes",
        "label": "string",
        "numberOfBytes": "32"
      },
      "t_struct(Counter)2410_storage": {
        "encoding": "inplace",
        "label": "struct Counters.Counter",
        "members": [
          {
            "astId": 2409,
            "contract": "contracts/SoulBoundCreditReport.sol:SoulBoundCreditReport",
            "label": "_value",
            "offset": 0,
            "slot": "0",
            "type": "t_uint256"
          }
        ],
        "numberOfBytes": "32"
      },
      "t_struct(RoleData)19_storage": {
        "encoding": "inplace",
        "label": "struct AccessControl.RoleData",
        "members": [
          {
            "astId": 16,
            "contract": "contracts/SoulBoundCreditReport.sol:SoulBoundCreditReport",
            "label": "members",
            "offset": 0,
            "slot": "0",
            "type": "t_mapping(t_address,t_bool)"
          },
          {
            "astId": 18,
            "contract": "contracts/SoulBoundCreditReport.sol:SoulBoundCreditReport",
            "label": "adminRole",
            "offset": 0,
            "slot": "1",
            "type": "t_bytes32"
          }
        ],
        "numberOfBytes": "64"
      },
      "t_uint256": {
        "encoding": "inplace",
        "label": "uint256",
        "numberOfBytes": "32"
      }
    }
  }
}