{
  "address": "0xF339e2D564CE47C2FA29b073D6BD7B439e333589",
  "abi": [
    {
      "inputs": [
        {
          "internalType": "address",
          "name": "admin",
          "type": "address"
        },
        {
          "internalType": "string",
          "name": "baseTokenURI",
          "type": "string"
        },
        {
          "internalType": "contract ISoulboundIdentity",
          "name": "soulboundIdentity",
          "type": "address"
        },
        {
          "components": [
            {
              "internalType": "address",
              "name": "swapRouter",
              "type": "address"
            },
            {
              "internalType": "address",
              "name": "wrappedNativeToken",
              "type": "address"
            },
            {
              "internalType": "address",
              "name": "stableCoin",
              "type": "address"
            },
            {
              "internalType": "address",
              "name": "masaToken",
              "type": "address"
            },
            {
              "internalType": "address",
              "name": "reserveWallet",
              "type": "address"
            }
          ],
          "internalType": "struct PaymentGateway.PaymentParams",
          "name": "paymentParams",
          "type": "tuple"
        }
      ],
      "stateMutability": "nonpayable",
      "type": "constructor"
    },
    {
      "inputs": [],
      "name": "AlreadyAdded",
      "type": "error"
    },
    {
      "inputs": [
        {
          "internalType": "address",
          "name": "authority",
          "type": "address"
        }
      ],
      "name": "AuthorityNotExists",
      "type": "error"
    },
    {
      "inputs": [
        {
          "internalType": "address",
          "name": "caller",
          "type": "address"
        }
      ],
      "name": "CallerNotOwner",
      "type": "error"
    },
    {
      "inputs": [
        {
          "internalType": "uint256",
          "name": "amount",
          "type": "uint256"
        }
      ],
      "name": "InsufficientEthAmount",
      "type": "error"
    },
    {
      "inputs": [
        {
          "internalType": "address",
          "name": "paymentMethod",
          "type": "address"
        }
      ],
      "name": "InvalidPaymentMethod",
      "type": "error"
    },
    {
      "inputs": [],
      "name": "InvalidSignature",
      "type": "error"
    },
    {
      "inputs": [
        {
          "internalType": "address",
          "name": "token",
          "type": "address"
        }
      ],
      "name": "InvalidToken",
      "type": "error"
    },
    {
      "inputs": [
        {
          "internalType": "address",
          "name": "erc20token",
          "type": "address"
        }
      ],
      "name": "NonExistingErc20Token",
      "type": "error"
    },
    {
      "inputs": [
        {
          "internalType": "address",
          "name": "signer",
          "type": "address"
        }
      ],
      "name": "NotAuthorized",
      "type": "error"
    },
    {
      "inputs": [],
      "name": "NotLinkedToAnIdentitySBT",
      "type": "error"
    },
    {
      "inputs": [],
      "name": "RefundFailed",
      "type": "error"
    },
    {
      "inputs": [],
      "name": "SameValue",
      "type": "error"
    },
    {
      "inputs": [],
      "name": "TransferFailed",
      "type": "error"
    },
    {
      "inputs": [],
      "name": "ZeroAddress",
      "type": "error"
    },
    {
      "anonymous": false,
      "inputs": [
        {
          "indexed": true,
          "internalType": "address",
          "name": "_owner",
          "type": "address"
        },
        {
          "indexed": true,
          "internalType": "uint256",
          "name": "_tokenId",
          "type": "uint256"
        }
      ],
      "name": "Burn",
      "type": "event"
    },
    {
      "anonymous": false,
      "inputs": [
        {
          "indexed": true,
          "internalType": "address",
          "name": "_owner",
          "type": "address"
        },
        {
          "indexed": true,
          "internalType": "uint256",
          "name": "_tokenId",
          "type": "uint256"
        }
      ],
      "name": "Mint",
      "type": "event"
    },
    {
      "anonymous": false,
      "inputs": [
        {
          "indexed": true,
          "internalType": "bytes32",
          "name": "role",
          "type": "bytes32"
        },
        {
          "indexed": true,
          "internalType": "bytes32",
          "name": "previousAdminRole",
          "type": "bytes32"
        },
        {
          "indexed": true,
          "internalType": "bytes32",
          "name": "newAdminRole",
          "type": "bytes32"
        }
      ],
      "name": "RoleAdminChanged",
      "type": "event"
    },
    {
      "anonymous": false,
      "inputs": [
        {
          "indexed": true,
          "internalType": "bytes32",
          "name": "role",
          "type": "bytes32"
        },
        {
          "indexed": true,
          "internalType": "address",
          "name": "account",
          "type": "address"
        },
        {
          "indexed": true,
          "internalType": "address",
          "name": "sender",
          "type": "address"
        }
      ],
      "name": "RoleGranted",
      "type": "event"
    },
    {
      "anonymous": false,
      "inputs": [
        {
          "indexed": true,
          "internalType": "bytes32",
          "name": "role",
          "type": "bytes32"
        },
        {
          "indexed": true,
          "internalType": "address",
          "name": "account",
          "type": "address"
        },
        {
          "indexed": true,
          "internalType": "address",
          "name": "sender",
          "type": "address"
        }
      ],
      "name": "RoleRevoked",
      "type": "event"
    },
    {
      "anonymous": false,
      "inputs": [
        {
          "indexed": false,
          "internalType": "uint256",
          "name": "tokenId",
          "type": "uint256"
        },
        {
          "indexed": false,
          "internalType": "address",
          "name": "to",
          "type": "address"
        },
        {
          "indexed": false,
          "internalType": "address",
          "name": "authorityAddress",
          "type": "address"
        },
        {
          "indexed": false,
          "internalType": "uint256",
          "name": "signatureDate",
          "type": "uint256"
        },
        {
          "indexed": false,
          "internalType": "address",
          "name": "paymentMethod",
          "type": "address"
        },
        {
          "indexed": false,
          "internalType": "uint256",
          "name": "mintPrice",
          "type": "uint256"
        }
      ],
      "name": "SoulboundGreenMintedToAddress",
      "type": "event"
    },
    {
      "anonymous": false,
      "inputs": [
        {
          "indexed": false,
          "internalType": "uint256",
          "name": "tokenId",
          "type": "uint256"
        },
        {
          "indexed": false,
          "internalType": "uint256",
          "name": "identityId",
          "type": "uint256"
        },
        {
          "indexed": false,
          "internalType": "address",
          "name": "authorityAddress",
          "type": "address"
        },
        {
          "indexed": false,
          "internalType": "uint256",
          "name": "signatureDate",
          "type": "uint256"
        },
        {
          "indexed": false,
          "internalType": "address",
          "name": "paymentMethod",
          "type": "address"
        },
        {
          "indexed": false,
          "internalType": "uint256",
          "name": "mintPrice",
          "type": "uint256"
        }
      ],
      "name": "SoulboundGreenMintedToIdentity",
      "type": "event"
    },
    {
      "inputs": [],
      "name": "DEFAULT_ADMIN_ROLE",
      "outputs": [
        {
          "internalType": "bytes32",
          "name": "",
          "type": "bytes32"
        }
      ],
      "stateMutability": "view",
      "type": "function"
    },
    {
      "inputs": [
        {
          "internalType": "address",
          "name": "_authority",
          "type": "address"
        }
      ],
      "name": "addAuthority",
      "outputs": [],
      "stateMutability": "nonpayable",
      "type": "function"
    },
    {
      "inputs": [],
      "name": "addLinkPrice",
      "outputs": [
        {
          "internalType": "uint256",
          "name": "",
          "type": "uint256"
        }
      ],
      "stateMutability": "view",
      "type": "function"
    },
    {
      "inputs": [],
      "name": "addLinkPriceMASA",
      "outputs": [
        {
          "internalType": "uint256",
          "name": "",
          "type": "uint256"
        }
      ],
      "stateMutability": "view",
      "type": "function"
    },
    {
      "inputs": [
        {
          "internalType": "address",
          "name": "",
          "type": "address"
        }
      ],
      "name": "authorities",
      "outputs": [
        {
          "internalType": "bool",
          "name": "",
          "type": "bool"
        }
      ],
      "stateMutability": "view",
      "type": "function"
    },
    {
      "inputs": [
        {
          "internalType": "address",
          "name": "owner",
          "type": "address"
        }
      ],
      "name": "balanceOf",
      "outputs": [
        {
          "internalType": "uint256",
          "name": "",
          "type": "uint256"
        }
      ],
      "stateMutability": "view",
      "type": "function"
    },
    {
      "inputs": [
        {
          "internalType": "uint256",
          "name": "tokenId",
          "type": "uint256"
        }
      ],
      "name": "burn",
      "outputs": [],
      "stateMutability": "nonpayable",
      "type": "function"
    },
    {
      "inputs": [
        {
          "internalType": "address",
          "name": "_paymentMethod",
          "type": "address"
        }
      ],
      "name": "disablePaymentMethod",
      "outputs": [],
      "stateMutability": "nonpayable",
      "type": "function"
    },
    {
      "inputs": [
        {
          "internalType": "address",
          "name": "_paymentMethod",
          "type": "address"
        }
      ],
      "name": "enablePaymentMethod",
      "outputs": [],
      "stateMutability": "nonpayable",
      "type": "function"
    },
    {
      "inputs": [
        {
          "internalType": "address",
          "name": "",
          "type": "address"
        }
      ],
      "name": "enabledPaymentMethod",
      "outputs": [
        {
          "internalType": "bool",
          "name": "",
          "type": "bool"
        }
      ],
      "stateMutability": "view",
      "type": "function"
    },
    {
      "inputs": [
        {
          "internalType": "uint256",
          "name": "",
          "type": "uint256"
        }
      ],
      "name": "enabledPaymentMethods",
      "outputs": [
        {
          "internalType": "address",
          "name": "",
          "type": "address"
        }
      ],
      "stateMutability": "view",
      "type": "function"
    },
    {
      "inputs": [
        {
          "internalType": "uint256",
          "name": "tokenId",
          "type": "uint256"
        }
      ],
      "name": "exists",
      "outputs": [
        {
          "internalType": "bool",
          "name": "",
          "type": "bool"
        }
      ],
      "stateMutability": "view",
      "type": "function"
    },
    {
      "inputs": [],
      "name": "getEnabledPaymentMethods",
      "outputs": [
        {
          "internalType": "address[]",
          "name": "",
          "type": "address[]"
        }
      ],
      "stateMutability": "view",
      "type": "function"
    },
    {
      "inputs": [
        {
          "internalType": "uint256",
          "name": "tokenId",
          "type": "uint256"
        }
      ],
      "name": "getIdentityId",
      "outputs": [
        {
          "internalType": "uint256",
          "name": "",
          "type": "uint256"
        }
      ],
      "stateMutability": "view",
      "type": "function"
    },
    {
      "inputs": [
        {
          "internalType": "address",
          "name": "paymentMethod",
          "type": "address"
        }
      ],
      "name": "getMintPrice",
      "outputs": [
        {
          "internalType": "uint256",
          "name": "",
          "type": "uint256"
        }
      ],
      "stateMutability": "view",
      "type": "function"
    },
    {
      "inputs": [
        {
          "internalType": "bytes32",
          "name": "role",
          "type": "bytes32"
        }
      ],
      "name": "getRoleAdmin",
      "outputs": [
        {
          "internalType": "bytes32",
          "name": "",
          "type": "bytes32"
        }
      ],
      "stateMutability": "view",
      "type": "function"
    },
    {
      "inputs": [
        {
          "internalType": "bytes32",
          "name": "role",
          "type": "bytes32"
        },
        {
          "internalType": "address",
          "name": "account",
          "type": "address"
        }
      ],
      "name": "grantRole",
      "outputs": [],
      "stateMutability": "nonpayable",
      "type": "function"
    },
    {
      "inputs": [
        {
          "internalType": "bytes32",
          "name": "role",
          "type": "bytes32"
        },
        {
          "internalType": "address",
          "name": "account",
          "type": "address"
        }
      ],
      "name": "hasRole",
      "outputs": [
        {
          "internalType": "bool",
          "name": "",
          "type": "bool"
        }
      ],
      "stateMutability": "view",
      "type": "function"
    },
    {
      "inputs": [],
      "name": "masaToken",
      "outputs": [
        {
          "internalType": "address",
          "name": "",
          "type": "address"
        }
      ],
      "stateMutability": "view",
      "type": "function"
    },
    {
      "inputs": [
        {
          "internalType": "address",
          "name": "paymentMethod",
          "type": "address"
        },
        {
          "internalType": "uint256",
          "name": "identityId",
          "type": "uint256"
        },
        {
          "internalType": "address",
          "name": "authorityAddress",
          "type": "address"
        },
        {
          "internalType": "uint256",
          "name": "signatureDate",
          "type": "uint256"
        },
        {
          "internalType": "bytes",
          "name": "signature",
          "type": "bytes"
        }
      ],
      "name": "mint",
      "outputs": [
        {
          "internalType": "uint256",
          "name": "",
          "type": "uint256"
        }
      ],
      "stateMutability": "payable",
      "type": "function"
    },
    {
      "inputs": [
        {
          "internalType": "address",
          "name": "paymentMethod",
          "type": "address"
        },
        {
          "internalType": "address",
          "name": "to",
          "type": "address"
        },
        {
          "internalType": "address",
          "name": "authorityAddress",
          "type": "address"
        },
        {
          "internalType": "uint256",
          "name": "signatureDate",
          "type": "uint256"
        },
        {
          "internalType": "bytes",
          "name": "signature",
          "type": "bytes"
        }
      ],
      "name": "mint",
      "outputs": [
        {
          "internalType": "uint256",
          "name": "",
          "type": "uint256"
        }
      ],
      "stateMutability": "payable",
      "type": "function"
    },
    {
      "inputs": [],
      "name": "mintPrice",
      "outputs": [
        {
          "internalType": "uint256",
          "name": "",
          "type": "uint256"
        }
      ],
      "stateMutability": "view",
      "type": "function"
    },
    {
      "inputs": [],
      "name": "mintPriceMASA",
      "outputs": [
        {
          "internalType": "uint256",
          "name": "",
          "type": "uint256"
        }
      ],
      "stateMutability": "view",
      "type": "function"
    },
    {
      "inputs": [],
      "name": "name",
      "outputs": [
        {
          "internalType": "string",
          "name": "",
          "type": "string"
        }
      ],
      "stateMutability": "view",
      "type": "function"
    },
    {
      "inputs": [
        {
          "internalType": "uint256",
          "name": "tokenId",
          "type": "uint256"
        }
      ],
      "name": "ownerOf",
      "outputs": [
        {
          "internalType": "address",
          "name": "",
          "type": "address"
        }
      ],
      "stateMutability": "view",
      "type": "function"
    },
    {
      "inputs": [],
      "name": "queryLinkPrice",
      "outputs": [
        {
          "internalType": "uint256",
          "name": "",
          "type": "uint256"
        }
      ],
      "stateMutability": "view",
      "type": "function"
    },
    {
      "inputs": [],
      "name": "queryLinkPriceMASA",
      "outputs": [
        {
          "internalType": "uint256",
          "name": "",
          "type": "uint256"
        }
      ],
      "stateMutability": "view",
      "type": "function"
    },
    {
      "inputs": [
        {
          "internalType": "address",
          "name": "_authority",
          "type": "address"
        }
      ],
      "name": "removeAuthority",
      "outputs": [],
      "stateMutability": "nonpayable",
      "type": "function"
    },
    {
      "inputs": [
        {
          "internalType": "bytes32",
          "name": "role",
          "type": "bytes32"
        },
        {
          "internalType": "address",
          "name": "account",
          "type": "address"
        }
      ],
      "name": "renounceRole",
      "outputs": [],
      "stateMutability": "nonpayable",
      "type": "function"
    },
    {
      "inputs": [],
      "name": "reserveWallet",
      "outputs": [
        {
          "internalType": "address",
          "name": "",
          "type": "address"
        }
      ],
      "stateMutability": "view",
      "type": "function"
    },
    {
      "inputs": [
        {
          "internalType": "bytes32",
          "name": "role",
          "type": "bytes32"
        },
        {
          "internalType": "address",
          "name": "account",
          "type": "address"
        }
      ],
      "name": "revokeRole",
      "outputs": [],
      "stateMutability": "nonpayable",
      "type": "function"
    },
    {
      "inputs": [
        {
          "internalType": "uint256",
          "name": "_addLinkPrice",
          "type": "uint256"
        }
      ],
      "name": "setAddLinkPrice",
      "outputs": [],
      "stateMutability": "nonpayable",
      "type": "function"
    },
    {
      "inputs": [
        {
          "internalType": "uint256",
          "name": "_addLinkPriceMASA",
          "type": "uint256"
        }
      ],
      "name": "setAddLinkPriceMASA",
      "outputs": [],
      "stateMutability": "nonpayable",
      "type": "function"
    },
    {
      "inputs": [
        {
          "internalType": "address",
          "name": "_masaToken",
          "type": "address"
        }
      ],
      "name": "setMasaToken",
      "outputs": [],
      "stateMutability": "nonpayable",
      "type": "function"
    },
    {
      "inputs": [
        {
          "internalType": "uint256",
          "name": "_mintPrice",
          "type": "uint256"
        }
      ],
      "name": "setMintPrice",
      "outputs": [],
      "stateMutability": "nonpayable",
      "type": "function"
    },
    {
      "inputs": [
        {
          "internalType": "uint256",
          "name": "_mintPriceMASA",
          "type": "uint256"
        }
      ],
      "name": "setMintPriceMASA",
      "outputs": [],
      "stateMutability": "nonpayable",
      "type": "function"
    },
    {
      "inputs": [
        {
          "internalType": "uint256",
          "name": "_queryLinkPrice",
          "type": "uint256"
        }
      ],
      "name": "setQueryLinkPrice",
      "outputs": [],
      "stateMutability": "nonpayable",
      "type": "function"
    },
    {
      "inputs": [
        {
          "internalType": "uint256",
          "name": "_queryLinkPriceMASA",
          "type": "uint256"
        }
      ],
      "name": "setQueryLinkPriceMASA",
      "outputs": [],
      "stateMutability": "nonpayable",
      "type": "function"
    },
    {
      "inputs": [
        {
          "internalType": "address",
          "name": "_reserveWallet",
          "type": "address"
        }
      ],
      "name": "setReserveWallet",
      "outputs": [],
      "stateMutability": "nonpayable",
      "type": "function"
    },
    {
      "inputs": [
        {
          "internalType": "contract ISoulboundIdentity",
          "name": "_soulboundIdentity",
          "type": "address"
        }
      ],
      "name": "setSoulboundIdentity",
      "outputs": [],
      "stateMutability": "nonpayable",
      "type": "function"
    },
    {
      "inputs": [
        {
          "internalType": "address",
          "name": "_stableCoin",
          "type": "address"
        }
      ],
      "name": "setStableCoin",
      "outputs": [],
      "stateMutability": "nonpayable",
      "type": "function"
    },
    {
      "inputs": [
        {
          "internalType": "address",
          "name": "_swapRouter",
          "type": "address"
        }
      ],
      "name": "setSwapRouter",
      "outputs": [],
      "stateMutability": "nonpayable",
      "type": "function"
    },
    {
      "inputs": [
        {
          "internalType": "address",
          "name": "_wrappedNativeToken",
          "type": "address"
        }
      ],
      "name": "setWrappedNativeToken",
      "outputs": [],
      "stateMutability": "nonpayable",
      "type": "function"
    },
    {
      "inputs": [],
      "name": "soulboundIdentity",
      "outputs": [
        {
          "internalType": "contract ISoulboundIdentity",
          "name": "",
          "type": "address"
        }
      ],
      "stateMutability": "view",
      "type": "function"
    },
    {
      "inputs": [],
      "name": "stableCoin",
      "outputs": [
        {
          "internalType": "address",
          "name": "",
          "type": "address"
        }
      ],
      "stateMutability": "view",
      "type": "function"
    },
    {
      "inputs": [
        {
          "internalType": "bytes4",
          "name": "interfaceId",
          "type": "bytes4"
        }
      ],
      "name": "supportsInterface",
      "outputs": [
        {
          "internalType": "bool",
          "name": "",
          "type": "bool"
        }
      ],
      "stateMutability": "view",
      "type": "function"
    },
    {
      "inputs": [],
      "name": "swapRouter",
      "outputs": [
        {
          "internalType": "address",
          "name": "",
          "type": "address"
        }
      ],
      "stateMutability": "view",
      "type": "function"
    },
    {
      "inputs": [],
      "name": "symbol",
      "outputs": [
        {
          "internalType": "string",
          "name": "",
          "type": "string"
        }
      ],
      "stateMutability": "view",
      "type": "function"
    },
    {
      "inputs": [
        {
          "internalType": "uint256",
          "name": "index",
          "type": "uint256"
        }
      ],
      "name": "tokenByIndex",
      "outputs": [
        {
          "internalType": "uint256",
          "name": "",
          "type": "uint256"
        }
      ],
      "stateMutability": "view",
      "type": "function"
    },
    {
      "inputs": [
        {
          "internalType": "address",
          "name": "owner",
          "type": "address"
        },
        {
          "internalType": "uint256",
          "name": "index",
          "type": "uint256"
        }
      ],
      "name": "tokenOfOwnerByIndex",
      "outputs": [
        {
          "internalType": "uint256",
          "name": "",
          "type": "uint256"
        }
      ],
      "stateMutability": "view",
      "type": "function"
    },
    {
      "inputs": [
        {
          "internalType": "uint256",
          "name": "tokenId",
          "type": "uint256"
        }
      ],
      "name": "tokenURI",
      "outputs": [
        {
          "internalType": "string",
          "name": "",
          "type": "string"
        }
      ],
      "stateMutability": "view",
      "type": "function"
    },
    {
      "inputs": [],
      "name": "totalSupply",
      "outputs": [
        {
          "internalType": "uint256",
          "name": "",
          "type": "uint256"
        }
      ],
      "stateMutability": "view",
      "type": "function"
    },
    {
      "inputs": [],
      "name": "wrappedNativeToken",
      "outputs": [
        {
          "internalType": "address",
          "name": "",
          "type": "address"
        }
      ],
      "stateMutability": "view",
      "type": "function"
    }
  ],
  "transactionHash": "0x1757dc3a0bfc355bd8da6e4c546c4e0f865b626ad34dede4718c611af6b44574",
  "args": [
    "0x46c9cdA3F83C5c13C767A07b6E80aEd302E40B28",
    "https://beta.middleware.masa.finance/v1.0/green/alfajores/",
    "0x0000000000000000000000000000000000000000",
    [
      "0xE3D8bd6Aed4F159bc8000a9cD47CffDb95F96121",
      "0x524d97A67f50F4A062C28c74F60703Aec9028a94",
      "0x37f39aD164cBBf0Cc03Dd638472F3FbeC7aE426C",
      "0x7d91E51C8F218f7140188A155f5C75388630B6a8",
      "0x46c9cdA3F83C5c13C767A07b6E80aEd302E40B28"
    ]
  ],
  "numDeployments": 1,
  "solcInputHash": "750ebd52688cd849878181c85e4cb9cc",
  "bytecode": "0x6101406040523480156200001257600080fd5b50604051620042fc380380620042fc8339810160408190526200003591620005a8565b836040518060400160405280600a81526020016926b0b9b09023b932b2b760b11b8152506040518060400160405280600381526020016226992360e91b8152508585856040518060400160405280600e81526020016d29b7bab63137bab73223b932b2b760911b815250604051806040016040528060058152602001640312e302e360dc1b815250878787878b8784848160009080519060200190620000dd929190620003db565b508051620000f3906001906020840190620003db565b505081516001600160a01b031615159050620001225760405163d92e233d60e01b815260040160405180910390fd5b60208101516001600160a01b03166200014e5760405163d92e233d60e01b815260040160405180910390fd5b60408101516001600160a01b03166200017a5760405163d92e233d60e01b815260040160405180910390fd5b60808101516001600160a01b0316620001a65760405163d92e233d60e01b815260040160405180910390fd5b620001b3600083620002e7565b8051600980546001600160a01b03199081166001600160a01b03938416179091556020830151600a805483169184169190911790556040830151600b805483169184169190911790556060830151600c80548316918416919091179055608090920151600f805490931691161790555062000230600085620002e7565b805162000245906010906020840190620003db565b5050845160208087019190912085519186019190912060e08290526101008190524660a05290935091507f8b73c3c69bb8fe3d512ecc4cf759cc79239f7b179b0ffacaa9a75d522b39400f90506200029f81848462000372565b6080523060601b60c052610120525050601680546001600160a01b0319166001600160a01b03959095169490941790935550506001601a555062000800975050505050505050565b620002f38282620003ae565b6200036e5760008281526008602090815260408083206001600160a01b03851684529091529020805460ff191660011790556200032d3390565b6001600160a01b0316816001600160a01b0316837f2f8788117e7eff1d82e926ec794901d17c78024a50270940304540a733656f0d60405160405180910390a45b5050565b600083838346306040516020016200038f9594939291906200064b565b6040516020818303038152906040528051906020012090509392505050565b60008281526008602090815260408083206001600160a01b038516845290915290205460ff165b92915050565b828054620003e99062000742565b90600052602060002090601f0160209004810192826200040d576000855562000458565b82601f106200042857805160ff191683800117855562000458565b8280016001018555821562000458579182015b82811115620004585782518255916020019190600101906200043b565b50620004669291506200046a565b5090565b5b808211156200046657600081556001016200046b565b6000620004986200049284620006c0565b620006a1565b905082815260208101848484011115620004b557620004b5600080fd5b620004c28482856200070f565b509392505050565b8051620003d581620007db565b8051620003d581620007f5565b600082601f830112620004fa57620004fa600080fd5b81516200050c84826020860162000481565b949350505050565b600060a082840312156200052b576200052b600080fd5b6200053760a0620006a1565b90506000620005478484620004ca565b82525060206200055a84848301620004ca565b60208301525060406200057084828501620004ca565b60408301525060606200058684828501620004ca565b60608301525060806200059c84828501620004ca565b60808301525092915050565b6000806000806101008587031215620005c457620005c4600080fd5b6000620005d28787620004ca565b94505060208501516001600160401b03811115620005f357620005f3600080fd5b6200060187828801620004e4565b93505060406200061487828801620004d7565b9250506060620006278782880162000514565b91505092959194509250565b6200063e81620006f0565b82525050565b806200063e565b60a081016200065b828862000644565b6200066a602083018762000644565b62000679604083018662000644565b62000688606083018562000644565b62000697608083018462000633565b9695505050505050565b6000620006ad60405190565b9050620006bb828262000773565b919050565b60006001600160401b03821115620006dc57620006dc620007bb565b620006e782620007d1565b60200192915050565b60006001600160a01b038216620003d5565b6000620003d582620006f0565b60005b838110156200072c57818101518382015260200162000712565b838111156200073c576000848401525b50505050565b6002810460018216806200075757607f821691505b602082108114156200076d576200076d620007a5565b50919050565b6200077e82620007d1565b81018181106001600160401b03821117156200079e576200079e620007bb565b6040525050565b634e487b7160e01b600052602260045260246000fd5b634e487b7160e01b600052604160045260246000fd5b601f01601f191690565b620007e681620006f0565b8114620007f257600080fd5b50565b620007e68162000702565b60805160a05160c05160601c60e0516101005161012051613aa962000853600039600061220a0152600061224c0152600061222b0152600061218f015260006121b9015260006121e30152613aa96000f3fe60806040526004361061025a5760003560e01c806301ffc9a71461025f5780630513c3e91461029557806306fdde03146102c257806310200519146102e457806313150b481461030657806317fcb39b1461032957806318160ddd146103495780631830e8811461035e5780631f37c1241461037457806320d558aa1461038a57806323af4e171461039d578063248a9ca3146103bf57806326defa73146103df578063289c686b146103ff5780632f2ff15d1461041f5780632f745c591461043f57806336568abe1461045f5780633ad3033e1461047f5780633c72ae701461049f57806341273657146104bf57806342966c68146104df5780634962a158146104ff5780634f558e791461051f5780634f6ccce71461053f5780636352211e1461055f5780636817c76c1461057f57806370a0823114610595578063719d0f2b146105b557806376ad1997146105d5578063776d1a54146105f557806377bed5ed1461060b5780637a0d1646146106385780637ad09dff146106685780637db8cb681461067b57806391223d691461069b57806391d14854146106cb57806394a665e9146106eb57806395d89b411461070b578063992642e514610720578063a217fddf14610740578063b97d6b2314610755578063c1177d191461076b578063c31c9c071461078b578063c86aadb6146107ab578063c87b56dd146107cb578063d544e010146107eb578063d547741f1461080b578063d72b11bd1461082b578063da058ae31461084b578063dda4fa8f1461086b578063ebda43961461088b578063f4a0a528146108ab578063fd48ac83146108cb575b600080fd5b34801561026b57600080fd5b5061027f61027a366004612f33565b6108eb565b60405161028c919061356d565b60405180910390f35b3480156102a157600080fd5b506102b56102b0366004612edf565b6108fc565b60405161028c9190613526565b3480156102ce57600080fd5b506102d7610926565b60405161028c919061365a565b3480156102f057600080fd5b506102f96109b8565b60405161028c919061355c565b34801561031257600080fd5b5061031c60145481565b60405161028c919061357b565b34801561033557600080fd5b50600a546102b5906001600160a01b031681565b34801561035557600080fd5b5060065461031c565b34801561036a57600080fd5b5061031c60185481565b34801561038057600080fd5b5061031c60115481565b61031c610398366004612e4b565b610a19565b3480156103a957600080fd5b506103bd6103b8366004612d37565b610bba565b005b3480156103cb57600080fd5b5061031c6103da366004612edf565b610c3e565b3480156103eb57600080fd5b506103bd6103fa366004612d37565b610c53565b34801561040b57600080fd5b506103bd61041a366004612edf565b610ce4565b34801561042b57600080fd5b506103bd61043a366004612f00565b610d18565b34801561044b57600080fd5b5061031c61045a366004612e0e565b610d39565b34801561046b57600080fd5b506103bd61047a366004612f00565b610d8b565b34801561048b57600080fd5b506103bd61049a366004612f54565b610dc1565b3480156104ab57600080fd5b506103bd6104ba366004612edf565b610e1e565b3480156104cb57600080fd5b506103bd6104da366004612d37565b610e52565b3480156104eb57600080fd5b506103bd6104fa366004612edf565b610ed6565b34801561050b57600080fd5b506103bd61051a366004612edf565b610f08565b34801561052b57600080fd5b5061027f61053a366004612edf565b610f3c565b34801561054b57600080fd5b5061031c61055a366004612edf565b610f47565b34801561056b57600080fd5b506102b561057a366004612edf565b610f95565b34801561058b57600080fd5b5061031c60175481565b3480156105a157600080fd5b5061031c6105b0366004612d37565b610fca565b3480156105c157600080fd5b5061031c6105d0366004612d37565b61100e565b3480156105e157600080fd5b506103bd6105f0366004612d37565b61110e565b34801561060157600080fd5b5061031c60125481565b34801561061757600080fd5b5060165461062b906001600160a01b031681565b60405161028c919061364c565b34801561064457600080fd5b5061027f610653366004612d37565b600d6020526000908152604090205460ff1681565b61031c610676366004612d79565b61116b565b34801561068757600080fd5b506103bd610696366004612edf565b611239565b3480156106a757600080fd5b5061027f6106b6366004612d37565b60196020526000908152604090205460ff1681565b3480156106d757600080fd5b5061027f6106e6366004612f00565b61126d565b3480156106f757600080fd5b506103bd610706366004612d37565b611298565b34801561071757600080fd5b506102d7611405565b34801561072c57600080fd5b50600b546102b5906001600160a01b031681565b34801561074c57600080fd5b5061031c600081565b34801561076157600080fd5b5061031c60135481565b34801561077757600080fd5b5061031c610786366004612edf565b611414565b34801561079757600080fd5b506009546102b5906001600160a01b031681565b3480156107b757600080fd5b506103bd6107c6366004612d37565b6114d3565b3480156107d757600080fd5b506102d76107e6366004612edf565b61157f565b3480156107f757600080fd5b506103bd610806366004612d37565b6115e5565b34801561081757600080fd5b506103bd610826366004612f00565b611674565b34801561083757600080fd5b50600f546102b5906001600160a01b031681565b34801561085757600080fd5b506103bd610866366004612d37565b611690565b34801561087757600080fd5b506103bd610886366004612d37565b611714565b34801561089757600080fd5b50600c546102b5906001600160a01b031681565b3480156108b757600080fd5b506103bd6108c6366004612edf565b611798565b3480156108d757600080fd5b506103bd6108e6366004612edf565b6117cc565b60006108f682611800565b92915050565b600e818154811061090c57600080fd5b6000918252602090912001546001600160a01b0316905081565b6060600080546109359061390b565b80601f01602080910402602001604051908101604052809291908181526020018280546109619061390b565b80156109ae5780601f10610983576101008083540402835291602001916109ae565b820191906000526020600020905b81548152906001019060200180831161099157829003601f168201915b5050505050905090565b6060600e8054806020026020016040519081016040528092919081815260200182805480156109ae57602002820191906000526020600020905b81546001600160a01b031681526001909101906020018083116109f2575050505050905090565b60006002601a541415610a475760405162461bcd60e51b8152600401610a3e9061375b565b60405180910390fd5b6002601a556016546040516331a9108f60e11b81526000916001600160a01b031690636352211e90610a7d908a9060040161357b565b60206040518083038186803b158015610a9557600080fd5b505afa158015610aa9573d6000803e3d6000fd5b505050506040513d601f19601f82011682018060405250810190610acd9190612d58565b90506001600160a01b0381163314610afb57335b60405163060296c760e31b8152600401610a3e9190613526565b610b47610b0988888861180b565b85858080601f0160208091040260200160405190810160405280939291908181526020018383808284376000920191909152508b925061186a915050565b610b5988610b548a61100e565b6118eb565b6000610b6482611a91565b90507fdc7a913fb88ef84b4edaae2c1ccc524475744905088d5c1362bab12c676f9e97818989898d601754604051610ba1969594939291906137ea565b60405180910390a16001601a5598975050505050505050565b6000610bc581611ab7565b6001600160a01b038216610bec5760405163d92e233d60e01b815260040160405180910390fd5b600b546001600160a01b0383811691161415610c1b5760405163c23f6ccb60e01b815260040160405180910390fd5b50600b80546001600160a01b0319166001600160a01b0392909216919091179055565b60009081526008602052604090206001015490565b6000610c5e81611ab7565b6001600160a01b038216610c855760405163d92e233d60e01b815260040160405180910390fd5b6001600160a01b03821660009081526019602052604090205460ff1615610cbf5760405163f411c32760e01b815260040160405180910390fd5b506001600160a01b03166000908152601960205260409020805460ff19166001179055565b6000610cef81611ab7565b816011541415610d125760405163c23f6ccb60e01b815260040160405180910390fd5b50601155565b610d2182610c3e565b610d2a81611ab7565b610d348383611ac1565b505050565b6000610d4483610fca565b8210610d625760405162461bcd60e51b8152600401610a3e906136ab565b506001600160a01b03919091166000908152600460209081526040808320938352929052205490565b6001600160a01b0381163314610db35760405162461bcd60e51b8152600401610a3e9061376b565b610dbd8282611b47565b5050565b6000610dcc81611ab7565b6016546001600160a01b0383811691161415610dfb5760405163c23f6ccb60e01b815260040160405180910390fd5b50601680546001600160a01b0319166001600160a01b0392909216919091179055565b6000610e2981611ab7565b816012541415610e4c5760405163c23f6ccb60e01b815260040160405180910390fd5b50601255565b6000610e5d81611ab7565b6001600160a01b038216610e845760405163d92e233d60e01b815260040160405180910390fd5b6009546001600160a01b0383811691161415610eb35760405163c23f6ccb60e01b815260040160405180910390fd5b50600980546001600160a01b0319166001600160a01b0392909216919091179055565b610ee03382611bae565b610efc5760405162461bcd60e51b8152600401610a3e906136eb565b610f0581611bd1565b50565b6000610f1381611ab7565b816018541415610f365760405163c23f6ccb60e01b815260040160405180910390fd5b50601855565b60006108f682611c6b565b6000610f5260065490565b8210610f705760405162461bcd60e51b8152600401610a3e9061374b565b60068281548110610f8357610f83613a02565b90600052602060002001549050919050565b6000818152600260205260408120546001600160a01b0316806108f65760405162461bcd60e51b8152600401610a3e9061371b565b60006001600160a01b038216610ff25760405162461bcd60e51b8152600401610a3e906136db565b506001600160a01b031660009081526003602052604090205490565b600060175460001480156110225750601854155b1561102f57506000919050565b600c546001600160a01b03838116911614801561106457506001600160a01b0382166000908152600d602052604090205460ff165b801561107257506000601854115b1561107f57505060185490565b600b546001600160a01b0383811691161480156110b457506001600160a01b0382166000908152600d602052604090205460ff165b156110c157505060175490565b6001600160a01b0382166000908152600d602052604090205460ff16156110ee576108f682601754611c88565b81604051630ac29ab760e31b8152600401610a3e9190613526565b919050565b600061111981611ab7565b600c546001600160a01b03838116911614156111485760405163c23f6ccb60e01b815260040160405180910390fd5b50600c80546001600160a01b0319166001600160a01b0392909216919091179055565b60006001600160a01b03861633146111835733610ae1565b6111cf611191878787611d27565b84848080601f0160208091040260200160405190810160405280939291908181526020018383808284376000920191909152508a925061186a915050565b6111dc87610b548961100e565b60006111e787611a91565b90507f7650948236619e679e44bf502d527ec950d1d58336e6babf229f483c57d04672818888888c6017546040516112249695949392919061377b565b60405180910390a190505b9695505050505050565b600061124481611ab7565b8160145414156112675760405163c23f6ccb60e01b815260040160405180910390fd5b50601455565b60009182526008602090815260408084206001600160a01b0393909316845291905290205460ff1690565b60006112a381611ab7565b6001600160a01b0382166000908152600d602052604090205460ff166112de57816040516318317bd560e01b8152600401610a3e9190613526565b6001600160a01b0382166000908152600d60205260408120805460ff191690555b600e54811015610d3457826001600160a01b0316600e828154811061132657611326613a02565b6000918252602090912001546001600160a01b031614156113f357600e80546113519060019061388a565b8154811061136157611361613a02565b600091825260209091200154600e80546001600160a01b03909216918390811061138d5761138d613a02565b9060005260206000200160006101000a8154816001600160a01b0302191690836001600160a01b03160217905550600e8054806113cc576113cc6139ec565b600082815260209020810160001990810180546001600160a01b0319169055019055505050565b806113fd81613965565b9150506112ff565b6060600180546109359061390b565b6016546000906001600160a01b031661144057604051630d7fe67b60e41b815260040160405180910390fd5b600061144b83610f95565b60165460405163294cdf0d60e01b81529192506001600160a01b03169063294cdf0d9061147c908490600401613526565b60206040518083038186803b15801561149457600080fd5b505afa1580156114a8573d6000803e3d6000fd5b505050506040513d601f19601f820116820180604052508101906114cc9190612f75565b9392505050565b60006114de81611ab7565b6001600160a01b0382166000908152600d602052604090205460ff16156115185760405163f411c32760e01b815260040160405180910390fd5b506001600160a01b03166000818152600d60205260408120805460ff19166001908117909155600e805491820181559091527fbb7b4a454dc3493923482f07822329ed19e8244eff582cc204f8554c3620c3fd0180546001600160a01b0319169091179055565b606061158a82611d63565b6000611594611d88565b905060008151116115b457604051806020016040528060008152506114cc565b806115be84611d97565b6040516020016115cf92919061346d565b6040516020818303038152906040529392505050565b60006115f081611ab7565b6001600160a01b0382166116175760405163d92e233d60e01b815260040160405180910390fd5b6001600160a01b03821660009081526019602052604090205460ff1661165257816040516324b1f80560e21b8152600401610a3e9190613526565b506001600160a01b03166000908152601960205260409020805460ff19169055565b61167d82610c3e565b61168681611ab7565b610d348383611b47565b600061169b81611ab7565b6001600160a01b0382166116c25760405163d92e233d60e01b815260040160405180910390fd5b600a546001600160a01b03838116911614156116f15760405163c23f6ccb60e01b815260040160405180910390fd5b50600a80546001600160a01b0319166001600160a01b0392909216919091179055565b600061171f81611ab7565b6001600160a01b0382166117465760405163d92e233d60e01b815260040160405180910390fd5b600f546001600160a01b03838116911614156117755760405163c23f6ccb60e01b815260040160405180910390fd5b50600f80546001600160a01b0319166001600160a01b0392909216919091179055565b60006117a381611ab7565b8160175414156117c65760405163c23f6ccb60e01b815260040160405180910390fd5b50601755565b60006117d781611ab7565b8160135414156117fa5760405163c23f6ccb60e01b815260040160405180910390fd5b50601355565b60006108f682611e94565b60006118627f94b1435871abae349525e55cb9a064ad0eac0fab877fee876ed90f72fcf33cce8585856040516020016118479493929190613609565b60405160208183030381529060405280519060200120611eb9565b949350505050565b60006118768484611ecc565b9050816001600160a01b0316816001600160a01b0316146118aa57604051638baa579f60e01b815260040160405180910390fd5b6001600160a01b03811660009081526019602052604090205460ff166118e55780604051634a0bfec160e01b8152600401610a3e9190613526565b50505050565b806118f4575050565b6001600160a01b0382166000908152600d602052604090205460ff1661192f5781604051630ac29ab760e31b8152600401610a3e9190613526565b6001600160a01b038216611a755780341015611960578060405163091a6d0f60e01b8152600401610a3e919061357b565b600f546040516000916001600160a01b031690839061197e906134cc565b60006040518083038185875af1925050503d80600081146119bb576040519150601f19603f3d011682016040523d82523d6000602084013e6119c0565b606091505b50509050806119e2576040516312171d8360e31b815260040160405180910390fd5b81341115610d345760006119f63484611ef0565b9050336001600160a01b031681604051611a0f906134cc565b60006040518083038185875af1925050503d8060008114611a4c576040519150601f19603f3d011682016040523d82523d6000602084013e611a51565b606091505b505080925050816118e557604051633c31275160e21b815260040160405180910390fd5b600f54610dbd906001600160a01b038481169133911684611efc565b600080611a9d60155490565b9050611aad601580546001019055565b6108f68382611f54565b610f058133612030565b611acb828261126d565b610dbd5760008281526008602090815260408083206001600160a01b03851684529091529020805460ff19166001179055611b033390565b6001600160a01b0316816001600160a01b0316837f2f8788117e7eff1d82e926ec794901d17c78024a50270940304540a733656f0d60405160405180910390a45050565b611b51828261126d565b15610dbd5760008281526008602090815260408083206001600160a01b0385168085529252808320805460ff1916905551339285917ff6391f5c32d9c69d2a47ea670b442974b53935d1edc7fd64eb21e047a839171b9190a45050565b600080611bba83610f95565b6001600160a01b0385811691161491505092915050565b6000611bdc82610f95565b9050611bea81600084612094565b6001600160a01b0381166000908152600360205260408120805460019290611c1390849061388a565b909155505060008281526002602052604080822080546001600160a01b03191690555183916001600160a01b038416917fcc16f5dbb4873280815c1ee09dbd06736cffcc184412cf7a71a0fdb75d397ca59190a35050565b6000908152600260205260409020546001600160a01b0316151590565b6001600160a01b0382166000908152600d602052604081205460ff161580611cbd5750600b546001600160a01b038481169116145b15611cdd578260405163961c9a4f60e01b8152600401610a3e9190613526565b6001600160a01b038316611d0f57600a54600b54611d08916001600160a01b0390811691168461209f565b90506108f6565b600b54611d089084906001600160a01b03168461209f565b60006118627f885d61cd569c3c85a110715a0d188c45590cf3f8a77e71714f4f0211ead7ac8c8585856040516020016118479493929190613589565b611d6c81611c6b565b610f055760405162461bcd60e51b8152600401610a3e9061371b565b6060601080546109359061390b565b606081611dbb5750506040805180820190915260018152600360fc1b602082015290565b8160005b8115611de55780611dcf81613965565b9150611dde9050600a83613857565b9150611dbf565b6000816001600160401b03811115611dff57611dff613a18565b6040519080825280601f01601f191660200182016040528015611e29576020820181803683370190505b5090505b841561186257611e3e60018361388a565b9150611e4b600a86613980565b611e5690603061383f565b60f81b818381518110611e6b57611e6b613a02565b60200101906001600160f81b031916908160001a905350611e8d600a86613857565b9450611e2d565b60006001600160e01b03198216637965db0b60e01b14806108f657506108f68261215d565b60006108f6611ec6612182565b83612275565b6000806000611edb85856122a8565b91509150611ee8816122ee565b509392505050565b60006114cc828461388a565b6118e5846323b872dd60e01b858585604051602401611f1d93929190613534565b60408051601f198184030181529190526020810180516001600160e01b03166001600160e01b0319909316929092179091526123d3565b6001600160a01b038216611f7a5760405162461bcd60e51b8152600401610a3e9061369b565b611f8381611c6b565b15611fa05760405162461bcd60e51b8152600401610a3e9061370b565b611fac60008383612094565b6001600160a01b0382166000908152600360205260408120805460019290611fd590849061383f565b909155505060008181526002602052604080822080546001600160a01b0319166001600160a01b038616908117909155905183927f0f6798a560793a54c3bcfe86a93cde1e73087d944c0ea20544137d412139688591a35050565b61203a828261126d565b610dbd57612052816001600160a01b03166014612462565b61205d836020612462565b60405160200161206e9291906134d4565b60408051601f198184030181529082905262461bcd60e51b8252610a3e9160040161365a565b610d348383836125cd565b60006060806120ae8686612685565b6009546040516307c0329d60e21b81529192506001600160a01b031690631f00ca74906120e190879085906004016137ca565b60006040518083038186803b1580156120f957600080fd5b505afa15801561210d573d6000803e3d6000fd5b505050506040513d6000823e601f3d908101601f191682016040526121359190810190612e84565b91508160008151811061214a5761214a613a02565b6020026020010151925050509392505050565b60006001600160e01b0319821663780e9d6360e01b14806108f657506108f682612817565b6000306001600160a01b037f0000000000000000000000000000000000000000000000000000000000000000161480156121db57507f000000000000000000000000000000000000000000000000000000000000000046145b1561220557507f000000000000000000000000000000000000000000000000000000000000000090565b6122707f00000000000000000000000000000000000000000000000000000000000000007f00000000000000000000000000000000000000000000000000000000000000007f0000000000000000000000000000000000000000000000000000000000000000612867565b905090565b6000828260405160200161228a92919061349b565b60405160208183030381529060405280519060200120905092915050565b6000808251604114156122df5760208301516040840151606085015160001a6122d3878285856128a1565b945094505050506122e7565b506000905060025b9250929050565b6000816004811115612302576123026139c0565b141561230b5750565b600181600481111561231f5761231f6139c0565b141561233d5760405162461bcd60e51b8152600401610a3e9061366b565b6002816004811115612351576123516139c0565b141561236f5760405162461bcd60e51b8152600401610a3e9061368b565b6003816004811115612383576123836139c0565b14156123a15760405162461bcd60e51b8152600401610a3e906136bb565b60048160048111156123b5576123b56139c0565b1415610f055760405162461bcd60e51b8152600401610a3e906136fb565b6000612428826040518060400160405280602081526020017f5361666545524332303a206c6f772d6c6576656c2063616c6c206661696c6564815250856001600160a01b03166129779092919063ffffffff16565b805190915015610d3457808060200190518101906124469190612ebe565b610d345760405162461bcd60e51b8152600401610a3e9061373b565b6060600061247183600261386b565b61247c90600261383f565b6001600160401b0381111561249357612493613a18565b6040519080825280601f01601f1916602001820160405280156124bd576020820181803683370190505b509050600360fc1b816000815181106124d8576124d8613a02565b60200101906001600160f81b031916908160001a905350600f60fb1b8160018151811061250757612507613a02565b60200101906001600160f81b031916908160001a905350600061252b84600261386b565b61253690600161383f565b90505b60018111156125ae576f181899199a1a9b1b9c1cb0b131b232b360811b85600f166010811061256a5761256a613a02565b1a60f81b82828151811061258057612580613a02565b60200101906001600160f81b031916908160001a90535060049490941c936125a7816138f4565b9050612539565b5083156114cc5760405162461bcd60e51b8152600401610a3e9061367b565b6001600160a01b0383166126285761262381600680546000838152600760205260408120829055600182018355919091527ff652222313e28459528d920b65115c16c04f3efc82aaedc97be59f3f377c0d3f0155565b61264b565b816001600160a01b0316836001600160a01b03161461264b5761264b8382612986565b6001600160a01b03821661266257610d3481612a23565b826001600160a01b0316826001600160a01b031614610d3457610d348282612ad2565b600a546060906001600160a01b03848116911614806126b15750600a546001600160a01b038381169116145b1561277b5760408051600280825260608201835260009260208301908036833701905050600a549091506001600160a01b038581169116146126f35783612700565b600a546001600160a01b03165b8160008151811061271357612713613a02565b6001600160a01b039283166020918202929092010152600a5484821691161461273c5782612749565b600a546001600160a01b03165b8160018151811061275c5761275c613a02565b6001600160a01b039092166020928302919091019091015290506108f6565b604080516003808252608082019092526000916020820160608036833701905050905083816000815181106127b2576127b2613a02565b6001600160a01b039283166020918202929092010152600a548251911690829060019081106127e3576127e3613a02565b60200260200101906001600160a01b031690816001600160a01b031681525050828160028151811061275c5761275c613a02565b60006001600160e01b031982166313f2a32f60e01b148061284857506001600160e01b03198216635b5e139f60e01b145b806108f657506301ffc9a760e01b6001600160e01b03198316146108f6565b600083838346306040516020016128829594939291906135c7565b6040516020818303038152906040528051906020012090509392505050565b6000806fa2a8918ca85bafe22016d0b997e4df60600160ff1b038311156128ce575060009050600361296e565b8460ff16601b141580156128e657508460ff16601c14155b156128f7575060009050600461296e565b60006001878787876040516000815260200160405260405161291c9493929190613624565b6020604051602081039080840390855afa15801561293e573d6000803e3d6000fd5b5050604051601f1901519150506001600160a01b0381166129675760006001925092505061296e565b9150600090505b94509492505050565b60606118628484600085612b16565b6000600161299384610fca565b61299d919061388a565b6000838152600560205260409020549091508082146129f0576001600160a01b03841660009081526004602090815260408083208584528252808320548484528184208190558352600590915290208190555b5060009182526005602090815260408084208490556001600160a01b039094168352600481528383209183525290812055565b600654600090612a359060019061388a565b60008381526007602052604081205460068054939450909284908110612a5d57612a5d613a02565b906000526020600020015490508060068381548110612a7e57612a7e613a02565b6000918252602080832090910192909255828152600790915260408082208490558582528120556006805480612ab657612ab66139ec565b6001900381819060005260206000200160009055905550505050565b6000612add83610fca565b6001600160a01b039093166000908152600460209081526040808320868452825280832085905593825260059052919091209190915550565b606082471015612b385760405162461bcd60e51b8152600401610a3e906136cb565b6001600160a01b0385163b612b5f5760405162461bcd60e51b8152600401610a3e9061372b565b600080866001600160a01b03168587604051612b7b9190613461565b60006040518083038185875af1925050503d8060008114612bb8576040519150601f19603f3d011682016040523d82523d6000602084013e612bbd565b606091505b5091509150612bcd828286612bd8565b979650505050505050565b60608315612be75750816114cc565b825115612bf75782518084602001fd5b8160405162461bcd60e51b8152600401610a3e919061365a565b6000612c24612c1f8461381c565b613805565b90508083825260208201905082856020860282011115612c4657612c46600080fd5b60005b85811015612c725781612c5c8882612d2c565b8452506020928301929190910190600101612c49565b5050509392505050565b80356108f681613a38565b80516108f681613a38565b600082601f830112612ca657612ca6600080fd5b8151611862848260208601612c11565b80516108f681613a4c565b80356108f681613a54565b80356108f681613a5a565b60008083601f840112612cec57612cec600080fd5b5081356001600160401b03811115612d0657612d06600080fd5b6020830191508360018202830111156122e7576122e7600080fd5b80356108f681613a6a565b80516108f681613a54565b600060208284031215612d4c57612d4c600080fd5b60006118628484612c7c565b600060208284031215612d6d57612d6d600080fd5b60006118628484612c87565b60008060008060008060a08789031215612d9557612d95600080fd5b6000612da18989612c7c565b9650506020612db289828a01612c7c565b9550506040612dc389828a01612c7c565b9450506060612dd489828a01612cc1565b93505060808701356001600160401b03811115612df357612df3600080fd5b612dff89828a01612cd7565b92509250509295509295509295565b60008060408385031215612e2457612e24600080fd5b6000612e308585612c7c565b9250506020612e4185828601612cc1565b9150509250929050565b60008060008060008060a08789031215612e6757612e67600080fd5b6000612e738989612c7c565b9650506020612db289828a01612cc1565b600060208284031215612e9957612e99600080fd5b81516001600160401b03811115612eb257612eb2600080fd5b61186284828501612c92565b600060208284031215612ed357612ed3600080fd5b60006118628484612cb6565b600060208284031215612ef457612ef4600080fd5b60006118628484612cc1565b60008060408385031215612f1657612f16600080fd5b6000612f228585612cc1565b9250506020612e4185828601612c7c565b600060208284031215612f4857612f48600080fd5b60006118628484612ccc565b600060208284031215612f6957612f69600080fd5b60006118628484612d21565b600060208284031215612f8a57612f8a600080fd5b60006118628484612d2c565b6000612fa28383612faa565b505060200190565b612fb3816138a1565b82525050565b6000612fc3825190565b80845260209384019383018060005b83811015612ff7578151612fe68882612f96565b975060208301925050600101612fd2565b509495945050505050565b801515612fb3565b80612fb3565b600061301a825190565b6130288185602086016138c8565b9290920192915050565b612fb3816138bd565b6000613045825190565b80845260208401935061305c8185602086016138c8565b61306581613a2e565b9093019392505050565b601881526000602082017745434453413a20696e76616c6964207369676e617475726560401b815291505b5060200190565b60208082527f537472696e67733a20686578206c656e67746820696e73756666696369656e749101908152600061309a565b601f81526000602082017f45434453413a20696e76616c6964207369676e6174757265206c656e677468008152915061309a565b601d81526000602082017f5342543a206d696e7420746f20746865207a65726f20616464726573730000008152915061309a565b602881526000602082017f534254456e756d657261626c653a206f776e657220696e646578206f7574206f8152676620626f756e647360c01b602082015291505b5060400190565b602281526000602082017f45434453413a20696e76616c6964207369676e6174757265202773272076616c815261756560f01b6020820152915061317c565b602681526000602082017f416464726573733a20696e73756666696369656e742062616c616e636520666f8152651c8818d85b1b60d21b6020820152915061317c565b602681526000602082017f5342543a2061646472657373207a65726f206973206e6f7420612076616c69648152651037bbb732b960d11b6020820152915061317c565b601e81526000602082017f5342543a2063616c6c6572206973206e6f7420746f6b656e206f776e657200008152915061309a565b602281526000602082017f45434453413a20696e76616c6964207369676e6174757265202776272076616c815261756560f01b6020820152915061317c565b601981526000602082017814d0950e881d1bdad95b88185b1c9958591e481b5a5b9d1959603a1b8152915061309a565b601581526000602082017414d0950e881a5b9d985b1a59081d1bdad95b881251605a1b8152915061309a565b601d81526000602082017f416464726573733a2063616c6c20746f206e6f6e2d636f6e74726163740000008152915061309a565b602a81526000602082017f5361666545524332303a204552433230206f7065726174696f6e20646964206e8152691bdd081cdd58d8d9595960b21b6020820152915061317c565b602981526000602082017f534254456e756d657261626c653a20676c6f62616c20696e646578206f7574208152686f6620626f756e647360b81b6020820152915061317c565b601f81526000602082017f5265656e7472616e637947756172643a207265656e7472616e742063616c6c008152915061309a565b602f81526000602082017f416363657373436f6e74726f6c3a2063616e206f6e6c792072656e6f756e636581526e103937b632b9903337b91039b2b63360891b6020820152915061317c565b60ff8116612fb3565b60006114cc8284613010565b60006134798285613010565b91506134858284613010565b64173539b7b760d91b8152915060058201611862565b61190160f01b815260020160006134b2828561300a565b6020820191506134c2828461300a565b5060200192915050565b6000816108f6565b76020b1b1b2b9b9a1b7b73a3937b61d1030b1b1b7bab73a1604d1b815260170160006135008285613010565b7001034b99036b4b9b9b4b733903937b6329607d1b815260110191506118628284613010565b602081016108f68284612faa565b606081016135428286612faa565b61354f6020830185612faa565b611862604083018461300a565b602080825281016114cc8184612fb9565b602081016108f68284613002565b602081016108f6828461300a565b60808101613597828761300a565b6135a46020830186612faa565b6135b16040830185612faa565b6135be606083018461300a565b95945050505050565b60a081016135d5828861300a565b6135e2602083018761300a565b6135ef604083018661300a565b6135fc606083018561300a565b61122f6080830184612faa565b60808101613617828761300a565b6135a4602083018661300a565b60808101613632828761300a565b61363f6020830186613458565b6135b1604083018561300a565b602081016108f68284613032565b602080825281016114cc818461303b565b602080825281016108f68161306f565b602080825281016108f6816130a1565b602080825281016108f6816130d3565b602080825281016108f681613107565b602080825281016108f68161313b565b602080825281016108f681613183565b602080825281016108f6816131c2565b602080825281016108f681613205565b602080825281016108f681613248565b602080825281016108f68161327c565b602080825281016108f6816132bb565b602080825281016108f6816132eb565b602080825281016108f681613317565b602080825281016108f68161334b565b602080825281016108f681613392565b602080825281016108f6816133d8565b602080825281016108f68161340c565b60c08101613789828961300a565b6137966020830188612faa565b6137a36040830187612faa565b6137b0606083018661300a565b6137bd6080830185612faa565b612bcd60a083018461300a565b604081016137d8828561300a565b81810360208301526118628184612fb9565b60c081016137f8828961300a565b613796602083018861300a565b600061381060405190565b90506111098282613938565b60006001600160401b0382111561383557613835613a18565b5060209081020190565b6000821982111561385257613852613994565b500190565b600082613866576138666139aa565b500490565b600081600019048311821515161561388557613885613994565b500290565b60008282101561389c5761389c613994565b500390565b60006001600160a01b0382166108f6565b60006108f6826138a1565b60006108f6826138b2565b60005b838110156138e35781810151838201526020016138cb565b838111156118e55750506000910152565b60008161390357613903613994565b506000190190565b60028104600182168061391f57607f821691505b60208210811415613932576139326139d6565b50919050565b61394182613a2e565b81018181106001600160401b038211171561395e5761395e613a18565b6040525050565b600060001982141561397957613979613994565b5060010190565b60008261398f5761398f6139aa565b500690565b634e487b7160e01b600052601160045260246000fd5b634e487b7160e01b600052601260045260246000fd5b634e487b7160e01b600052602160045260246000fd5b634e487b7160e01b600052602260045260246000fd5b634e487b7160e01b600052603160045260246000fd5b634e487b7160e01b600052603260045260246000fd5b634e487b7160e01b600052604160045260246000fd5b601f01601f191690565b613a41816138a1565b8114610f0557600080fd5b801515613a41565b80613a41565b6001600160e01b03198116613a41565b613a41816138b256fea26469706673582212206dd315e2af852d071a41b9ce8085ff0f22bd61b52800386f25c60fbab114b6e764736f6c63430008070033",
  "devdoc": {
    "author": "Masa Finance",
    "details": "Soulbound Green, that inherits from the SBT contract.",
    "kind": "dev",
    "methods": {
      "addAuthority(address)": {
        "details": "The caller must have the admin role to call this function",
        "params": {
          "_authority": "New authority to add"
        }
      },
      "balanceOf(address)": {
        "details": "See {ISBT-balanceOf}."
      },
      "burn(uint256)": {
        "details": "Burns `tokenId`. See {SBT-_burn}. Requirements: - The caller must own `tokenId` or be an approved operator."
      },
      "constructor": {
        "details": "Creates a new soulbound Green, inheriting from the SBT contract.",
        "params": {
          "admin": "Administrator of the smart contract",
          "baseTokenURI": "Base URI of the token",
          "paymentParams": "Payment gateway params",
          "soulboundIdentity": "Address of the SoulboundIdentity contract"
        }
      },
      "disablePaymentMethod(address)": {
        "details": "The caller must have the admin role to call this function",
        "params": {
          "_paymentMethod": "Token to remove"
        }
      },
      "enablePaymentMethod(address)": {
        "details": "The caller must have the admin role to call this function",
        "params": {
          "_paymentMethod": "New token to add"
        }
      },
      "exists(uint256)": {
        "details": "Returns true if the token has been minted",
        "params": {
          "tokenId": "Token to check"
        },
        "returns": {
          "_0": "True if the token exists"
        }
      },
      "getEnabledPaymentMethods()": {
        "details": "Returns the address of all available payment methods",
        "returns": {
          "_0": "Array of all enabled payment methods"
        }
      },
      "getIdentityId(uint256)": {
        "params": {
          "tokenId": "Id of the token"
        },
        "returns": {
          "_0": "Id of the identity"
        }
      },
      "getMintPrice(address)": {
        "details": "Returns current pricing for minting",
        "params": {
          "paymentMethod": "Address of token that user want to pay"
        },
        "returns": {
          "_0": "Current price for minting in the given payment method"
        }
      },
      "getRoleAdmin(bytes32)": {
        "details": "Returns the admin role that controls `role`. See {grantRole} and {revokeRole}. To change a role's admin, use {_setRoleAdmin}."
      },
      "grantRole(bytes32,address)": {
        "details": "Grants `role` to `account`. If `account` had not been already granted `role`, emits a {RoleGranted} event. Requirements: - the caller must have ``role``'s admin role. May emit a {RoleGranted} event."
      },
      "hasRole(bytes32,address)": {
        "details": "Returns `true` if `account` has been granted `role`."
      },
      "mint(address,address,address,uint256,bytes)": {
        "details": "The caller must have the MINTER role",
        "params": {
          "authorityAddress": "Address of the authority that signed the message",
          "paymentMethod": "Address of token that user want to pay",
          "signature": "Signature of the message",
          "signatureDate": "Date of the signature",
          "to": "The address to mint the SBT to"
        },
        "returns": {
          "_0": "The SBT ID of the newly minted SBT"
        }
      },
      "mint(address,uint256,address,uint256,bytes)": {
        "details": "The caller must have the MINTER role",
        "params": {
          "authorityAddress": "Address of the authority that signed the message",
          "identityId": "TokenId of the identity to mint the NFT to",
          "paymentMethod": "Address of token that user want to pay",
          "signature": "Signature of the message",
          "signatureDate": "Date of the signature"
        },
        "returns": {
          "_0": "The NFT ID of the newly minted SBT"
        }
      },
      "name()": {
        "details": "See {ISBTMetadata-name}."
      },
      "ownerOf(uint256)": {
        "details": "See {ISBT-ownerOf}."
      },
      "removeAuthority(address)": {
        "details": "The caller must have the admin role to call this function",
        "params": {
          "_authority": "Authority to remove"
        }
      },
      "renounceRole(bytes32,address)": {
        "details": "Revokes `role` from the calling account. Roles are often managed via {grantRole} and {revokeRole}: this function's purpose is to provide a mechanism for accounts to lose their privileges if they are compromised (such as when a trusted device is misplaced). If the calling account had been revoked `role`, emits a {RoleRevoked} event. Requirements: - the caller must be `account`. May emit a {RoleRevoked} event."
      },
      "revokeRole(bytes32,address)": {
        "details": "Revokes `role` from `account`. If `account` had been granted `role`, emits a {RoleRevoked} event. Requirements: - the caller must have ``role``'s admin role. May emit a {RoleRevoked} event."
      },
      "setAddLinkPrice(uint256)": {
        "details": "The caller must have the admin role to call this function",
        "params": {
          "_addLinkPrice": "New price for adding the link in SoulLinker in stable coin"
        }
      },
      "setAddLinkPriceMASA(uint256)": {
        "details": "The caller must have the admin role to call this function",
        "params": {
          "_addLinkPriceMASA": "New price for adding the link in SoulLinker in MASA"
        }
      },
      "setMasaToken(address)": {
        "details": "The caller must have the admin role to call this function It can be set to address(0) to disable paying in MASA",
        "params": {
          "_masaToken": "New utility token to pay the fee in"
        }
      },
      "setMintPrice(uint256)": {
        "details": "The caller must have the admin role to call this function",
        "params": {
          "_mintPrice": "New price of minting in stable coin"
        }
      },
      "setMintPriceMASA(uint256)": {
        "details": "The caller must have the admin role to call this function",
        "params": {
          "_mintPriceMASA": "New price of minting in MASA"
        }
      },
      "setQueryLinkPrice(uint256)": {
        "details": "The caller must have the admin role to call this function",
        "params": {
          "_queryLinkPrice": "New price for reading data in SoulLinker in stable coin"
        }
      },
      "setQueryLinkPriceMASA(uint256)": {
        "details": "The caller must have the admin role to call this function",
        "params": {
          "_queryLinkPriceMASA": "New price for reading data in SoulLinker in MASA"
        }
      },
      "setReserveWallet(address)": {
        "details": "The caller must have the admin role to call this function",
        "params": {
          "_reserveWallet": "New reserve wallet"
        }
      },
      "setSoulboundIdentity(address)": {
        "details": "The caller must be the admin to call this function",
        "params": {
          "_soulboundIdentity": "Address of the SoulboundIdentity contract"
        }
      },
      "setStableCoin(address)": {
        "details": "The caller must have the admin role to call this function",
        "params": {
          "_stableCoin": "New stable coin to pay the fee in"
        }
      },
      "setSwapRouter(address)": {
        "details": "The caller must have the admin role to call this function",
        "params": {
          "_swapRouter": "New swap router address"
        }
      },
      "setWrappedNativeToken(address)": {
        "details": "The caller must have the admin role to call this function",
        "params": {
          "_wrappedNativeToken": "New wrapped native token address"
        }
      },
      "supportsInterface(bytes4)": {
        "details": "Interface identification is specified in ERC-165.",
        "params": {
          "interfaceId": "The interface identifier, as specified in ERC-165"
        },
        "returns": {
          "_0": "`true` if the contract implements `interfaceId` and  `interfaceId` is not 0xffffffff, `false` otherwise"
        }
      },
      "symbol()": {
        "details": "See {ISBTMetadata-symbol}."
      },
      "tokenByIndex(uint256)": {
        "details": "See {ISBTEnumerable-tokenByIndex}."
      },
      "tokenOfOwnerByIndex(address,uint256)": {
        "details": "See {ISBTEnumerable-tokenOfOwnerByIndex}."
      },
      "tokenURI(uint256)": {
        "details": "Throws if `_tokenId` is not a valid SBT. URIs are defined in RFC  3986. The URI may point to a JSON file that conforms to the \"ERC721  Metadata JSON Schema\".",
        "params": {
          "tokenId": "SBT to get the URI of"
        },
        "returns": {
          "_0": "URI of the SBT"
        }
      },
      "totalSupply()": {
        "details": "See {ISBTEnumerable-totalSupply}."
      }
    },
    "title": "Soulbound Two-factor authentication (Green - 2FA)",
    "version": 1
  },
  "userdoc": {
    "kind": "user",
    "methods": {
      "addAuthority(address)": {
        "notice": "Adds a new authority to the list of authorities"
      },
      "constructor": {
        "notice": "Creates a new soulbound Two-factor authentication (Green - 2FA)"
      },
      "disablePaymentMethod(address)": {
        "notice": "Removes a token as a valid payment method"
      },
      "enablePaymentMethod(address)": {
        "notice": "Adds a new token as a valid payment method"
      },
      "exists(uint256)": {
        "notice": "Returns true if the token exists"
      },
      "getEnabledPaymentMethods()": {
        "notice": "Returns all available payment methods"
      },
      "getIdentityId(uint256)": {
        "notice": "Returns the identityId owned by the given token"
      },
      "getMintPrice(address)": {
        "notice": "Returns the price for minting"
      },
      "mint(address,address,address,uint256,bytes)": {
        "notice": "Mints a new SBT"
      },
      "mint(address,uint256,address,uint256,bytes)": {
        "notice": "Mints a new SBT"
      },
      "removeAuthority(address)": {
        "notice": "Removes an authority from the list of authorities"
      },
      "setAddLinkPrice(uint256)": {
        "notice": "Sets the price for adding the link in SoulLinker in stable coin"
      },
      "setAddLinkPriceMASA(uint256)": {
        "notice": "Sets the price for adding the link in SoulLinker in MASA"
      },
      "setMasaToken(address)": {
        "notice": "Sets the utility token to pay the fee in (MASA)"
      },
      "setMintPrice(uint256)": {
        "notice": "Sets the price of minting in stable coin"
      },
      "setMintPriceMASA(uint256)": {
        "notice": "Sets the price of minting in MASA"
      },
      "setQueryLinkPrice(uint256)": {
        "notice": "Sets the price for reading data in SoulLinker in stable coin"
      },
      "setQueryLinkPriceMASA(uint256)": {
        "notice": "Sets the price for reading data in SoulLinker in MASA"
      },
      "setReserveWallet(address)": {
        "notice": "Set the reserve wallet"
      },
      "setSoulboundIdentity(address)": {
        "notice": "Sets the SoulboundIdentity contract address linked to this SBT"
      },
      "setStableCoin(address)": {
        "notice": "Sets the stable coin to pay the fee in (USDC)"
      },
      "setSwapRouter(address)": {
        "notice": "Sets the swap router address"
      },
      "setWrappedNativeToken(address)": {
        "notice": "Sets the wrapped native token address"
      },
      "supportsInterface(bytes4)": {
        "notice": "Query if a contract implements an interface"
      },
      "tokenURI(uint256)": {
        "notice": "A distinct Uniform Resource Identifier (URI) for a given asset."
      }
    },
    "notice": "Soulbound token that represents a Two-factor authentication (2FA)",
    "version": 1
  },
  "storageLayout": {
    "storage": [
      {
        "astId": 9702,
        "contract": "contracts/SoulboundGreen.sol:SoulboundGreen",
        "label": "_name",
        "offset": 0,
        "slot": "0",
        "type": "t_string_storage"
      },
      {
        "astId": 9704,
        "contract": "contracts/SoulboundGreen.sol:SoulboundGreen",
        "label": "_symbol",
        "offset": 0,
        "slot": "1",
        "type": "t_string_storage"
      },
      {
        "astId": 9708,
        "contract": "contracts/SoulboundGreen.sol:SoulboundGreen",
        "label": "_owners",
        "offset": 0,
        "slot": "2",
        "type": "t_mapping(t_uint256,t_address)"
      },
      {
        "astId": 9712,
        "contract": "contracts/SoulboundGreen.sol:SoulboundGreen",
        "label": "_balances",
        "offset": 0,
        "slot": "3",
        "type": "t_mapping(t_address,t_uint256)"
      },
      {
        "astId": 10171,
        "contract": "contracts/SoulboundGreen.sol:SoulboundGreen",
        "label": "_ownedTokens",
        "offset": 0,
        "slot": "4",
        "type": "t_mapping(t_address,t_mapping(t_uint256,t_uint256))"
      },
      {
        "astId": 10175,
        "contract": "contracts/SoulboundGreen.sol:SoulboundGreen",
        "label": "_ownedTokensIndex",
        "offset": 0,
        "slot": "5",
        "type": "t_mapping(t_uint256,t_uint256)"
      },
      {
        "astId": 10178,
        "contract": "contracts/SoulboundGreen.sol:SoulboundGreen",
        "label": "_allTokens",
        "offset": 0,
        "slot": "6",
        "type": "t_array(t_uint256)dyn_storage"
      },
      {
        "astId": 10182,
        "contract": "contracts/SoulboundGreen.sol:SoulboundGreen",
        "label": "_allTokensIndex",
        "offset": 0,
        "slot": "7",
        "type": "t_mapping(t_uint256,t_uint256)"
      },
      {
        "astId": 24,
        "contract": "contracts/SoulboundGreen.sol:SoulboundGreen",
        "label": "_roles",
        "offset": 0,
        "slot": "8",
        "type": "t_mapping(t_bytes32,t_struct(RoleData)19_storage)"
      },
      {
        "astId": 7619,
        "contract": "contracts/SoulboundGreen.sol:SoulboundGreen",
        "label": "swapRouter",
        "offset": 0,
        "slot": "9",
        "type": "t_address"
      },
      {
        "astId": 7621,
        "contract": "contracts/SoulboundGreen.sol:SoulboundGreen",
        "label": "wrappedNativeToken",
        "offset": 0,
        "slot": "10",
        "type": "t_address"
      },
      {
        "astId": 7623,
        "contract": "contracts/SoulboundGreen.sol:SoulboundGreen",
        "label": "stableCoin",
        "offset": 0,
        "slot": "11",
        "type": "t_address"
      },
      {
        "astId": 7625,
        "contract": "contracts/SoulboundGreen.sol:SoulboundGreen",
        "label": "masaToken",
        "offset": 0,
        "slot": "12",
        "type": "t_address"
      },
      {
        "astId": 7629,
        "contract": "contracts/SoulboundGreen.sol:SoulboundGreen",
        "label": "enabledPaymentMethod",
        "offset": 0,
        "slot": "13",
        "type": "t_mapping(t_address,t_bool)"
      },
      {
        "astId": 7632,
        "contract": "contracts/SoulboundGreen.sol:SoulboundGreen",
        "label": "enabledPaymentMethods",
        "offset": 0,
        "slot": "14",
        "type": "t_array(t_address)dyn_storage"
      },
      {
        "astId": 7634,
        "contract": "contracts/SoulboundGreen.sol:SoulboundGreen",
        "label": "reserveWallet",
        "offset": 0,
        "slot": "15",
        "type": "t_address"
      },
      {
        "astId": 8976,
        "contract": "contracts/SoulboundGreen.sol:SoulboundGreen",
        "label": "_baseTokenURI",
        "offset": 0,
        "slot": "16",
        "type": "t_string_storage"
      },
      {
        "astId": 8979,
        "contract": "contracts/SoulboundGreen.sol:SoulboundGreen",
        "label": "addLinkPrice",
        "offset": 0,
        "slot": "17",
        "type": "t_uint256"
      },
      {
        "astId": 8982,
        "contract": "contracts/SoulboundGreen.sol:SoulboundGreen",
        "label": "addLinkPriceMASA",
        "offset": 0,
        "slot": "18",
        "type": "t_uint256"
      },
      {
        "astId": 8985,
        "contract": "contracts/SoulboundGreen.sol:SoulboundGreen",
        "label": "queryLinkPrice",
        "offset": 0,
        "slot": "19",
        "type": "t_uint256"
      },
      {
        "astId": 8988,
        "contract": "contracts/SoulboundGreen.sol:SoulboundGreen",
        "label": "queryLinkPriceMASA",
        "offset": 0,
        "slot": "20",
        "type": "t_uint256"
      },
      {
        "astId": 9297,
        "contract": "contracts/SoulboundGreen.sol:SoulboundGreen",
        "label": "_tokenIdCounter",
        "offset": 0,
        "slot": "21",
        "type": "t_struct(Counter)2798_storage"
      },
      {
        "astId": 9300,
        "contract": "contracts/SoulboundGreen.sol:SoulboundGreen",
        "label": "soulboundIdentity",
        "offset": 0,
        "slot": "22",
        "type": "t_contract(ISoulboundIdentity)8379"
      },
      {
        "astId": 9302,
        "contract": "contracts/SoulboundGreen.sol:SoulboundGreen",
        "label": "mintPrice",
        "offset": 0,
        "slot": "23",
        "type": "t_uint256"
      },
      {
        "astId": 9304,
        "contract": "contracts/SoulboundGreen.sol:SoulboundGreen",
        "label": "mintPriceMASA",
        "offset": 0,
        "slot": "24",
        "type": "t_uint256"
      },
      {
        "astId": 9308,
        "contract": "contracts/SoulboundGreen.sol:SoulboundGreen",
        "label": "authorities",
        "offset": 0,
        "slot": "25",
        "type": "t_mapping(t_address,t_bool)"
      },
      {
        "astId": 624,
        "contract": "contracts/SoulboundGreen.sol:SoulboundGreen",
        "label": "_status",
        "offset": 0,
        "slot": "26",
        "type": "t_uint256"
      }
    ],
    "types": {
      "t_address": {
        "encoding": "inplace",
        "label": "address",
        "numberOfBytes": "20"
      },
      "t_array(t_address)dyn_storage": {
        "base": "t_address",
        "encoding": "dynamic_array",
        "label": "address[]",
        "numberOfBytes": "32"
      },
      "t_array(t_uint256)dyn_storage": {
        "base": "t_uint256",
        "encoding": "dynamic_array",
        "label": "uint256[]",
        "numberOfBytes": "32"
      },
      "t_bool": {
        "encoding": "inplace",
        "label": "bool",
        "numberOfBytes": "1"
      },
      "t_bytes32": {
        "encoding": "inplace",
        "label": "bytes32",
        "numberOfBytes": "32"
      },
      "t_contract(ISoulboundIdentity)8379": {
        "encoding": "inplace",
        "label": "contract ISoulboundIdentity",
        "numberOfBytes": "20"
      },
      "t_mapping(t_address,t_bool)": {
        "encoding": "mapping",
        "key": "t_address",
        "label": "mapping(address => bool)",
        "numberOfBytes": "32",
        "value": "t_bool"
      },
      "t_mapping(t_address,t_mapping(t_uint256,t_uint256))": {
        "encoding": "mapping",
        "key": "t_address",
        "label": "mapping(address => mapping(uint256 => uint256))",
        "numberOfBytes": "32",
        "value": "t_mapping(t_uint256,t_uint256)"
      },
      "t_mapping(t_address,t_uint256)": {
        "encoding": "mapping",
        "key": "t_address",
        "label": "mapping(address => uint256)",
        "numberOfBytes": "32",
        "value": "t_uint256"
      },
      "t_mapping(t_bytes32,t_struct(RoleData)19_storage)": {
        "encoding": "mapping",
        "key": "t_bytes32",
        "label": "mapping(bytes32 => struct AccessControl.RoleData)",
        "numberOfBytes": "32",
        "value": "t_struct(RoleData)19_storage"
      },
      "t_mapping(t_uint256,t_address)": {
        "encoding": "mapping",
        "key": "t_uint256",
        "label": "mapping(uint256 => address)",
        "numberOfBytes": "32",
        "value": "t_address"
      },
      "t_mapping(t_uint256,t_uint256)": {
        "encoding": "mapping",
        "key": "t_uint256",
        "label": "mapping(uint256 => uint256)",
        "numberOfBytes": "32",
        "value": "t_uint256"
      },
      "t_string_storage": {
        "encoding": "bytes",
        "label": "string",
        "numberOfBytes": "32"
      },
      "t_struct(Counter)2798_storage": {
        "encoding": "inplace",
        "label": "struct Counters.Counter",
        "members": [
          {
            "astId": 2797,
            "contract": "contracts/SoulboundGreen.sol:SoulboundGreen",
            "label": "_value",
            "offset": 0,
            "slot": "0",
            "type": "t_uint256"
          }
        ],
        "numberOfBytes": "32"
      },
      "t_struct(RoleData)19_storage": {
        "encoding": "inplace",
        "label": "struct AccessControl.RoleData",
        "members": [
          {
            "astId": 16,
            "contract": "contracts/SoulboundGreen.sol:SoulboundGreen",
            "label": "members",
            "offset": 0,
            "slot": "0",
            "type": "t_mapping(t_address,t_bool)"
          },
          {
            "astId": 18,
            "contract": "contracts/SoulboundGreen.sol:SoulboundGreen",
            "label": "adminRole",
            "offset": 0,
            "slot": "1",
            "type": "t_bytes32"
          }
        ],
        "numberOfBytes": "64"
      },
      "t_uint256": {
        "encoding": "inplace",
        "label": "uint256",
        "numberOfBytes": "32"
      }
    }
  }
}