{
  "address": "0x6fECCe51a6C4881e68F6460e0d73686e736c44D7",
  "abi": [
    {
      "inputs": [
        {
          "internalType": "address",
          "name": "admin",
          "type": "address"
        },
        {
          "internalType": "contract ISoulboundIdentity",
          "name": "_soulboundIdentity",
          "type": "address"
        },
        {
          "components": [
            {
              "internalType": "address",
              "name": "swapRouter",
              "type": "address"
            },
            {
              "internalType": "address",
              "name": "wrappedNativeToken",
              "type": "address"
            },
            {
              "internalType": "address",
              "name": "stableCoin",
              "type": "address"
            },
            {
              "internalType": "address",
              "name": "masaToken",
              "type": "address"
            },
            {
              "internalType": "address",
              "name": "reserveWallet",
              "type": "address"
            }
          ],
          "internalType": "struct PaymentGateway.PaymentParams",
          "name": "paymentParams",
          "type": "tuple"
        }
      ],
      "stateMutability": "nonpayable",
      "type": "constructor"
    },
    {
      "inputs": [],
      "name": "AlreadyAdded",
      "type": "error"
    },
    {
      "inputs": [
        {
          "internalType": "address",
          "name": "caller",
          "type": "address"
        }
      ],
      "name": "CallerNotOwner",
      "type": "error"
    },
    {
      "inputs": [
        {
          "internalType": "address",
          "name": "caller",
          "type": "address"
        }
      ],
      "name": "CallerNotReader",
      "type": "error"
    },
    {
      "inputs": [
        {
          "internalType": "uint256",
          "name": "readerIdentityId",
          "type": "uint256"
        }
      ],
      "name": "IdentityOwnerIsReader",
      "type": "error"
    },
    {
      "inputs": [
        {
          "internalType": "uint256",
          "name": "tokenId",
          "type": "uint256"
        },
        {
          "internalType": "uint256",
          "name": "ownerIdentityId",
          "type": "uint256"
        }
      ],
      "name": "IdentityOwnerNotTokenOwner",
      "type": "error"
    },
    {
      "inputs": [
        {
          "internalType": "uint256",
          "name": "amount",
          "type": "uint256"
        }
      ],
      "name": "InsufficientEthAmount",
      "type": "error"
    },
    {
      "inputs": [
        {
          "internalType": "address",
          "name": "paymentMethod",
          "type": "address"
        }
      ],
      "name": "InvalidPaymentMethod",
      "type": "error"
    },
    {
      "inputs": [],
      "name": "InvalidSignature",
      "type": "error"
    },
    {
      "inputs": [
        {
          "internalType": "uint256",
          "name": "signatureDate",
          "type": "uint256"
        }
      ],
      "name": "InvalidSignatureDate",
      "type": "error"
    },
    {
      "inputs": [
        {
          "internalType": "address",
          "name": "token",
          "type": "address"
        }
      ],
      "name": "InvalidToken",
      "type": "error"
    },
    {
      "inputs": [
        {
          "internalType": "address",
          "name": "token",
          "type": "address"
        },
        {
          "internalType": "uint256",
          "name": "tokenId",
          "type": "uint256"
        },
        {
          "internalType": "uint256",
          "name": "readerIdentityId",
          "type": "uint256"
        },
        {
          "internalType": "uint256",
          "name": "signatureDate",
          "type": "uint256"
        }
      ],
      "name": "LinkAlreadyExists",
      "type": "error"
    },
    {
      "inputs": [],
      "name": "LinkAlreadyRevoked",
      "type": "error"
    },
    {
      "inputs": [],
      "name": "LinkDoesNotExist",
      "type": "error"
    },
    {
      "inputs": [
        {
          "internalType": "address",
          "name": "erc20token",
          "type": "address"
        }
      ],
      "name": "NonExistingErc20Token",
      "type": "error"
    },
    {
      "inputs": [],
      "name": "RefundFailed",
      "type": "error"
    },
    {
      "inputs": [],
      "name": "SameValue",
      "type": "error"
    },
    {
      "inputs": [],
      "name": "TransferFailed",
      "type": "error"
    },
    {
      "inputs": [
        {
          "internalType": "uint256",
          "name": "expirationDate",
          "type": "uint256"
        }
      ],
      "name": "ValidPeriodExpired",
      "type": "error"
    },
    {
      "inputs": [],
      "name": "ZeroAddress",
      "type": "error"
    },
    {
      "anonymous": false,
      "inputs": [
        {
          "indexed": false,
          "internalType": "uint256",
          "name": "readerIdentityId",
          "type": "uint256"
        },
        {
          "indexed": false,
          "internalType": "uint256",
          "name": "ownerIdentityId",
          "type": "uint256"
        },
        {
          "indexed": false,
          "internalType": "address",
          "name": "token",
          "type": "address"
        },
        {
          "indexed": false,
          "internalType": "uint256",
          "name": "tokenId",
          "type": "uint256"
        },
        {
          "indexed": false,
          "internalType": "uint256",
          "name": "signatureDate",
          "type": "uint256"
        },
        {
          "indexed": false,
          "internalType": "uint256",
          "name": "expirationDate",
          "type": "uint256"
        }
      ],
      "name": "LinkAdded",
      "type": "event"
    },
    {
      "anonymous": false,
      "inputs": [
        {
          "indexed": false,
          "internalType": "uint256",
          "name": "readerIdentityId",
          "type": "uint256"
        },
        {
          "indexed": false,
          "internalType": "uint256",
          "name": "ownerIdentityId",
          "type": "uint256"
        },
        {
          "indexed": false,
          "internalType": "address",
          "name": "token",
          "type": "address"
        },
        {
          "indexed": false,
          "internalType": "uint256",
          "name": "tokenId",
          "type": "uint256"
        },
        {
          "indexed": false,
          "internalType": "uint256",
          "name": "signatureDate",
          "type": "uint256"
        }
      ],
      "name": "LinkRevoked",
      "type": "event"
    },
    {
      "anonymous": false,
      "inputs": [
        {
          "indexed": false,
          "internalType": "address",
          "name": "account",
          "type": "address"
        }
      ],
      "name": "Paused",
      "type": "event"
    },
    {
      "anonymous": false,
      "inputs": [
        {
          "indexed": true,
          "internalType": "bytes32",
          "name": "role",
          "type": "bytes32"
        },
        {
          "indexed": true,
          "internalType": "bytes32",
          "name": "previousAdminRole",
          "type": "bytes32"
        },
        {
          "indexed": true,
          "internalType": "bytes32",
          "name": "newAdminRole",
          "type": "bytes32"
        }
      ],
      "name": "RoleAdminChanged",
      "type": "event"
    },
    {
      "anonymous": false,
      "inputs": [
        {
          "indexed": true,
          "internalType": "bytes32",
          "name": "role",
          "type": "bytes32"
        },
        {
          "indexed": true,
          "internalType": "address",
          "name": "account",
          "type": "address"
        },
        {
          "indexed": true,
          "internalType": "address",
          "name": "sender",
          "type": "address"
        }
      ],
      "name": "RoleGranted",
      "type": "event"
    },
    {
      "anonymous": false,
      "inputs": [
        {
          "indexed": true,
          "internalType": "bytes32",
          "name": "role",
          "type": "bytes32"
        },
        {
          "indexed": true,
          "internalType": "address",
          "name": "account",
          "type": "address"
        },
        {
          "indexed": true,
          "internalType": "address",
          "name": "sender",
          "type": "address"
        }
      ],
      "name": "RoleRevoked",
      "type": "event"
    },
    {
      "anonymous": false,
      "inputs": [
        {
          "indexed": false,
          "internalType": "address",
          "name": "account",
          "type": "address"
        }
      ],
      "name": "Unpaused",
      "type": "event"
    },
    {
      "inputs": [],
      "name": "DEFAULT_ADMIN_ROLE",
      "outputs": [
        {
          "internalType": "bytes32",
          "name": "",
          "type": "bytes32"
        }
      ],
      "stateMutability": "view",
      "type": "function"
    },
    {
      "inputs": [
        {
          "internalType": "address",
          "name": "paymentMethod",
          "type": "address"
        },
        {
          "internalType": "uint256",
          "name": "readerIdentityId",
          "type": "uint256"
        },
        {
          "internalType": "uint256",
          "name": "ownerIdentityId",
          "type": "uint256"
        },
        {
          "internalType": "address",
          "name": "token",
          "type": "address"
        },
        {
          "internalType": "uint256",
          "name": "tokenId",
          "type": "uint256"
        },
        {
          "internalType": "uint256",
          "name": "signatureDate",
          "type": "uint256"
        },
        {
          "internalType": "uint256",
          "name": "expirationDate",
          "type": "uint256"
        },
        {
          "internalType": "bytes",
          "name": "signature",
          "type": "bytes"
        }
      ],
      "name": "addLink",
      "outputs": [],
      "stateMutability": "payable",
      "type": "function"
    },
    {
      "inputs": [
        {
          "internalType": "address",
          "name": "_paymentMethod",
          "type": "address"
        }
      ],
      "name": "disablePaymentMethod",
      "outputs": [],
      "stateMutability": "nonpayable",
      "type": "function"
    },
    {
      "inputs": [
        {
          "internalType": "address",
          "name": "_paymentMethod",
          "type": "address"
        }
      ],
      "name": "enablePaymentMethod",
      "outputs": [],
      "stateMutability": "nonpayable",
      "type": "function"
    },
    {
      "inputs": [
        {
          "internalType": "address",
          "name": "",
          "type": "address"
        }
      ],
      "name": "enabledPaymentMethod",
      "outputs": [
        {
          "internalType": "bool",
          "name": "",
          "type": "bool"
        }
      ],
      "stateMutability": "view",
      "type": "function"
    },
    {
      "inputs": [
        {
          "internalType": "uint256",
          "name": "",
          "type": "uint256"
        }
      ],
      "name": "enabledPaymentMethods",
      "outputs": [
        {
          "internalType": "address",
          "name": "",
          "type": "address"
        }
      ],
      "stateMutability": "view",
      "type": "function"
    },
    {
      "inputs": [],
      "name": "getEnabledPaymentMethods",
      "outputs": [
        {
          "internalType": "address[]",
          "name": "",
          "type": "address[]"
        }
      ],
      "stateMutability": "view",
      "type": "function"
    },
    {
      "inputs": [
        {
          "internalType": "address",
          "name": "token",
          "type": "address"
        },
        {
          "internalType": "uint256",
          "name": "tokenId",
          "type": "uint256"
        }
      ],
      "name": "getIdentityId",
      "outputs": [
        {
          "internalType": "uint256",
          "name": "",
          "type": "uint256"
        }
      ],
      "stateMutability": "view",
      "type": "function"
    },
    {
      "inputs": [
        {
          "internalType": "address",
          "name": "token",
          "type": "address"
        },
        {
          "internalType": "uint256",
          "name": "tokenId",
          "type": "uint256"
        },
        {
          "internalType": "uint256",
          "name": "readerIdentityId",
          "type": "uint256"
        },
        {
          "internalType": "uint256",
          "name": "signatureDate",
          "type": "uint256"
        }
      ],
      "name": "getLinkInfo",
      "outputs": [
        {
          "components": [
            {
              "internalType": "bool",
              "name": "exists",
              "type": "bool"
            },
            {
              "internalType": "uint256",
              "name": "ownerIdentityId",
              "type": "uint256"
            },
            {
              "internalType": "uint256",
              "name": "expirationDate",
              "type": "uint256"
            },
            {
              "internalType": "bool",
              "name": "isRevoked",
              "type": "bool"
            }
          ],
          "internalType": "struct SoulLinker.LinkData",
          "name": "",
          "type": "tuple"
        }
      ],
      "stateMutability": "view",
      "type": "function"
    },
    {
      "inputs": [
        {
          "internalType": "address",
          "name": "token",
          "type": "address"
        },
        {
          "internalType": "uint256",
          "name": "tokenId",
          "type": "uint256"
        },
        {
          "internalType": "uint256",
          "name": "readerIdentityId",
          "type": "uint256"
        }
      ],
      "name": "getLinkSignatureDates",
      "outputs": [
        {
          "internalType": "uint256[]",
          "name": "",
          "type": "uint256[]"
        }
      ],
      "stateMutability": "view",
      "type": "function"
    },
    {
      "inputs": [
        {
          "internalType": "address",
          "name": "token",
          "type": "address"
        },
        {
          "internalType": "uint256",
          "name": "tokenId",
          "type": "uint256"
        }
      ],
      "name": "getLinks",
      "outputs": [
        {
          "components": [
            {
              "internalType": "uint256",
              "name": "readerIdentityId",
              "type": "uint256"
            },
            {
              "internalType": "uint256",
              "name": "signatureDate",
              "type": "uint256"
            }
          ],
          "internalType": "struct SoulLinker.LinkKey[]",
          "name": "",
          "type": "tuple[]"
        }
      ],
      "stateMutability": "view",
      "type": "function"
    },
    {
      "inputs": [
        {
          "internalType": "address",
          "name": "paymentMethod",
          "type": "address"
        },
        {
          "internalType": "address",
          "name": "token",
          "type": "address"
        }
      ],
      "name": "getPriceForAddLink",
      "outputs": [
        {
          "internalType": "uint256",
          "name": "",
          "type": "uint256"
        }
      ],
      "stateMutability": "view",
      "type": "function"
    },
    {
      "inputs": [
        {
          "internalType": "uint256",
          "name": "readerIdentityId",
          "type": "uint256"
        }
      ],
      "name": "getReaderLinks",
      "outputs": [
        {
          "components": [
            {
              "internalType": "address",
              "name": "token",
              "type": "address"
            },
            {
              "internalType": "uint256",
              "name": "tokenId",
              "type": "uint256"
            },
            {
              "internalType": "uint256",
              "name": "signatureDate",
              "type": "uint256"
            }
          ],
          "internalType": "struct SoulLinker.ReaderLink[]",
          "name": "",
          "type": "tuple[]"
        }
      ],
      "stateMutability": "view",
      "type": "function"
    },
    {
      "inputs": [
        {
          "internalType": "bytes32",
          "name": "role",
          "type": "bytes32"
        }
      ],
      "name": "getRoleAdmin",
      "outputs": [
        {
          "internalType": "bytes32",
          "name": "",
          "type": "bytes32"
        }
      ],
      "stateMutability": "view",
      "type": "function"
    },
    {
      "inputs": [
        {
          "internalType": "uint256",
          "name": "identityId",
          "type": "uint256"
        },
        {
          "internalType": "address",
          "name": "token",
          "type": "address"
        }
      ],
      "name": "getSBTConnections",
      "outputs": [
        {
          "internalType": "uint256[]",
          "name": "",
          "type": "uint256[]"
        }
      ],
      "stateMutability": "view",
      "type": "function"
    },
    {
      "inputs": [
        {
          "internalType": "address",
          "name": "owner",
          "type": "address"
        },
        {
          "internalType": "address",
          "name": "token",
          "type": "address"
        }
      ],
      "name": "getSBTConnections",
      "outputs": [
        {
          "internalType": "uint256[]",
          "name": "",
          "type": "uint256[]"
        }
      ],
      "stateMutability": "view",
      "type": "function"
    },
    {
      "inputs": [
        {
          "internalType": "bytes32",
          "name": "role",
          "type": "bytes32"
        },
        {
          "internalType": "address",
          "name": "account",
          "type": "address"
        }
      ],
      "name": "grantRole",
      "outputs": [],
      "stateMutability": "nonpayable",
      "type": "function"
    },
    {
      "inputs": [
        {
          "internalType": "bytes32",
          "name": "role",
          "type": "bytes32"
        },
        {
          "internalType": "address",
          "name": "account",
          "type": "address"
        }
      ],
      "name": "hasRole",
      "outputs": [
        {
          "internalType": "bool",
          "name": "",
          "type": "bool"
        }
      ],
      "stateMutability": "view",
      "type": "function"
    },
    {
      "inputs": [],
      "name": "masaToken",
      "outputs": [
        {
          "internalType": "address",
          "name": "",
          "type": "address"
        }
      ],
      "stateMutability": "view",
      "type": "function"
    },
    {
      "inputs": [],
      "name": "pause",
      "outputs": [],
      "stateMutability": "nonpayable",
      "type": "function"
    },
    {
      "inputs": [],
      "name": "paused",
      "outputs": [
        {
          "internalType": "bool",
          "name": "",
          "type": "bool"
        }
      ],
      "stateMutability": "view",
      "type": "function"
    },
    {
      "inputs": [
        {
          "internalType": "bytes32",
          "name": "role",
          "type": "bytes32"
        },
        {
          "internalType": "address",
          "name": "account",
          "type": "address"
        }
      ],
      "name": "renounceRole",
      "outputs": [],
      "stateMutability": "nonpayable",
      "type": "function"
    },
    {
      "inputs": [],
      "name": "reserveWallet",
      "outputs": [
        {
          "internalType": "address",
          "name": "",
          "type": "address"
        }
      ],
      "stateMutability": "view",
      "type": "function"
    },
    {
      "inputs": [
        {
          "internalType": "uint256",
          "name": "readerIdentityId",
          "type": "uint256"
        },
        {
          "internalType": "uint256",
          "name": "ownerIdentityId",
          "type": "uint256"
        },
        {
          "internalType": "address",
          "name": "token",
          "type": "address"
        },
        {
          "internalType": "uint256",
          "name": "tokenId",
          "type": "uint256"
        },
        {
          "internalType": "uint256",
          "name": "signatureDate",
          "type": "uint256"
        }
      ],
      "name": "revokeLink",
      "outputs": [],
      "stateMutability": "nonpayable",
      "type": "function"
    },
    {
      "inputs": [
        {
          "internalType": "bytes32",
          "name": "role",
          "type": "bytes32"
        },
        {
          "internalType": "address",
          "name": "account",
          "type": "address"
        }
      ],
      "name": "revokeRole",
      "outputs": [],
      "stateMutability": "nonpayable",
      "type": "function"
    },
    {
      "inputs": [
        {
          "internalType": "address",
          "name": "_masaToken",
          "type": "address"
        }
      ],
      "name": "setMasaToken",
      "outputs": [],
      "stateMutability": "nonpayable",
      "type": "function"
    },
    {
      "inputs": [
        {
          "internalType": "address",
          "name": "_reserveWallet",
          "type": "address"
        }
      ],
      "name": "setReserveWallet",
      "outputs": [],
      "stateMutability": "nonpayable",
      "type": "function"
    },
    {
      "inputs": [
        {
          "internalType": "contract ISoulboundIdentity",
          "name": "_soulboundIdentity",
          "type": "address"
        }
      ],
      "name": "setSoulboundIdentity",
      "outputs": [],
      "stateMutability": "nonpayable",
      "type": "function"
    },
    {
      "inputs": [
        {
          "internalType": "address",
          "name": "_stableCoin",
          "type": "address"
        }
      ],
      "name": "setStableCoin",
      "outputs": [],
      "stateMutability": "nonpayable",
      "type": "function"
    },
    {
      "inputs": [
        {
          "internalType": "address",
          "name": "_swapRouter",
          "type": "address"
        }
      ],
      "name": "setSwapRouter",
      "outputs": [],
      "stateMutability": "nonpayable",
      "type": "function"
    },
    {
      "inputs": [
        {
          "internalType": "address",
          "name": "_wrappedNativeToken",
          "type": "address"
        }
      ],
      "name": "setWrappedNativeToken",
      "outputs": [],
      "stateMutability": "nonpayable",
      "type": "function"
    },
    {
      "inputs": [],
      "name": "soulboundIdentity",
      "outputs": [
        {
          "internalType": "contract ISoulboundIdentity",
          "name": "",
          "type": "address"
        }
      ],
      "stateMutability": "view",
      "type": "function"
    },
    {
      "inputs": [],
      "name": "stableCoin",
      "outputs": [
        {
          "internalType": "address",
          "name": "",
          "type": "address"
        }
      ],
      "stateMutability": "view",
      "type": "function"
    },
    {
      "inputs": [
        {
          "internalType": "bytes4",
          "name": "interfaceId",
          "type": "bytes4"
        }
      ],
      "name": "supportsInterface",
      "outputs": [
        {
          "internalType": "bool",
          "name": "",
          "type": "bool"
        }
      ],
      "stateMutability": "view",
      "type": "function"
    },
    {
      "inputs": [],
      "name": "swapRouter",
      "outputs": [
        {
          "internalType": "address",
          "name": "",
          "type": "address"
        }
      ],
      "stateMutability": "view",
      "type": "function"
    },
    {
      "inputs": [],
      "name": "unpause",
      "outputs": [],
      "stateMutability": "nonpayable",
      "type": "function"
    },
    {
      "inputs": [
        {
          "internalType": "uint256",
          "name": "readerIdentityId",
          "type": "uint256"
        },
        {
          "internalType": "uint256",
          "name": "ownerIdentityId",
          "type": "uint256"
        },
        {
          "internalType": "address",
          "name": "token",
          "type": "address"
        },
        {
          "internalType": "uint256",
          "name": "tokenId",
          "type": "uint256"
        },
        {
          "internalType": "uint256",
          "name": "signatureDate",
          "type": "uint256"
        }
      ],
      "name": "validateLink",
      "outputs": [
        {
          "internalType": "bool",
          "name": "",
          "type": "bool"
        }
      ],
      "stateMutability": "view",
      "type": "function"
    },
    {
      "inputs": [],
      "name": "wrappedNativeToken",
      "outputs": [
        {
          "internalType": "address",
          "name": "",
          "type": "address"
        }
      ],
      "stateMutability": "view",
      "type": "function"
    }
  ],
  "transactionHash": "0x73404a5fd519ea3e9883a7ba7cb26e0d5effd7007a562c4981d5bae6dab36676",
  "args": [
    "0xA38dd237a3A8D50537B74a4B0D4E7E8A5359386F",
    "0x78A660183257C4699a57a2D85a7Cf49b4DA75A6E",
    [
      "0xE3D8bd6Aed4F159bc8000a9cD47CffDb95F96121",
      "0x524d97A67f50F4A062C28c74F60703Aec9028a94",
      "0x37f39aD164cBBf0Cc03Dd638472F3FbeC7aE426C",
      "0x7d91E51C8F218f7140188A155f5C75388630B6a8",
      "0xA38dd237a3A8D50537B74a4B0D4E7E8A5359386F"
    ]
  ],
  "numDeployments": 1,
  "solcInputHash": "8691f678d5656fa2149432894459082e",
  "bytecode": "0x6101406040523480156200001257600080fd5b506040516200479d3803806200479d833981016040819052620000359162000416565b6040518060400160405280600a81526020016929b7bab62634b735b2b960b11b815250604051806040016040528060058152602001640312e302e360dc1b815250848360006001600160a01b031681600001516001600160a01b03161415620000b15760405163d92e233d60e01b815260040160405180910390fd5b60208101516001600160a01b0316620000dd5760405163d92e233d60e01b815260040160405180910390fd5b60408101516001600160a01b0316620001095760405163d92e233d60e01b815260040160405180910390fd5b60808101516001600160a01b0316620001355760405163d92e233d60e01b815260040160405180910390fd5b6200014260008362000278565b8051600180546001600160a01b03199081166001600160a01b03938416179091556020808401516002805484169185169190911790556040840151600380548416918516919091179055606084015160048054841691851691909117905560809093015160078054909216921691909117905583518482012083519184019190912060e08290526101008190524660a0529091507f8b73c3c69bb8fe3d512ecc4cf759cc79239f7b179b0ffacaa9a75d522b39400f6200020481848462000301565b6080523060601b60c0526101205250506007805460ff60a01b19169055505060016008556001600160a01b038216620002505760405163d92e233d60e01b815260040160405180910390fd5b50600980546001600160a01b0319166001600160a01b03929092169190911790555062000584565b6200028482826200033d565b620002fd576000828152602081815260408083206001600160a01b03851684529091529020805460ff19166001179055620002bc3390565b6001600160a01b0316816001600160a01b0316837f2f8788117e7eff1d82e926ec794901d17c78024a50270940304540a733656f0d60405160405180910390a45b5050565b600083838346306040516020016200031e95949392919062000486565b6040516020818303038152906040528051906020012090509392505050565b6000828152602081815260408083206001600160a01b038516845290915290205460ff165b92915050565b805162000362816200055f565b8051620003628162000579565b600060a08284031215620003995762000399600080fd5b620003a560a0620004dc565b90506000620003b5848462000368565b8252506020620003c88484830162000368565b6020830152506040620003de8482850162000368565b6040830152506060620003f48482850162000368565b60608301525060806200040a8482850162000368565b60808301525092915050565b600080600060e08486031215620004305762000430600080fd5b60006200043e868662000368565b9350506020620004518682870162000375565b9250506040620004648682870162000382565b9150509250925092565b6200047981620004fb565b82525050565b8062000479565b60a081016200049682886200047f565b620004a560208301876200047f565b620004b460408301866200047f565b620004c360608301856200047f565b620004d260808301846200046e565b9695505050505050565b6000620004e860405190565b9050620004f682826200051a565b919050565b60006001600160a01b03821662000362565b60006200036282620004fb565b601f19601f83011681018181106001600160401b038211171562000542576200054262000549565b6040525050565b634e487b7160e01b600052604160045260246000fd5b6200056a81620004fb565b81146200057657600080fd5b50565b6200056a816200050d565b60805160a05160c05160601c60e05161010051610120516141c6620005d76000396000612dc301526000612e0501526000612de401526000612d4801526000612d7201526000612d9c01526141c66000f3fe6080604052600436106101b55760003560e01c806301ffc9a7146101ba5780630513c3e9146101f0578063102005191461021d57806317fcb39b1461023f57806323af4e171461025f578063248a9ca3146102815780632f2ff15d146102ae57806336568abe146102ce57806336d4aa74146102ee5780633ad3033e1461031b5780633ad39d861461033b5780633f4ba83a1461035b57806341273657146103705780634c3665a6146103905780635c6ca533146103b05780635c975abb1461047057806365d33b5e1461048557806370ff2cd7146104a557806376ad1997146104d257806377bed5ed146104f25780637a0d16461461051f57806380776ac41461054f5780638456cb591461056f57806391d148541461058457806394a665e9146105a457806397bc2e0d146105c4578063992642e5146105e4578063a217fddf14610604578063ad99e29314610619578063c31c9c0714610639578063c4f92e4c14610659578063c726649a1461066c578063c86aadb614610699578063d547741f146106b9578063d72b11bd146106d9578063da058ae3146106f9578063dda4fa8f14610719578063ebda439614610739575b600080fd5b3480156101c657600080fd5b506101da6101d536600461360a565b610759565b6040516101e79190613d21565b60405180910390f35b3480156101fc57600080fd5b5061021061020b3660046135c7565b610790565b6040516101e79190613c57565b34801561022957600080fd5b506102326107ba565b6040516101e79190613cdd565b34801561024b57600080fd5b50600254610210906001600160a01b031681565b34801561026b57600080fd5b5061027f61027a366004613335565b61081c565b005b34801561028d57600080fd5b506102a161029c3660046135c7565b6108a0565b6040516101e79190613d2f565b3480156102ba57600080fd5b5061027f6102c93660046135e8565b6108b5565b3480156102da57600080fd5b5061027f6102e93660046135e8565b6108d6565b3480156102fa57600080fd5b5061030e6103093660046133e7565b610915565b6040516101e79190613d10565b34801561032757600080fd5b5061027f61033636600461362b565b610994565b34801561034757600080fd5b5061030e6103563660046135e8565b610a18565b34801561036757600080fd5b5061027f610ab2565b34801561037c57600080fd5b5061027f61038b366004613335565b610ac8565b34801561039c57600080fd5b506102a16103ab366004613377565b610b4c565b3480156103bc57600080fd5b506104636103cb366004613508565b604080516080810182526000808252602082018190529181018290526060810191909152506001600160a01b0384166000908152600a60209081526040808320868452825280832085845282528083208484528252918290208251608081018452815460ff90811615158252600183015493820193909352600282015493810193909352600301541615156060820152949350505050565b6040516101e79190613ed1565b34801561047c57600080fd5b506101da610d33565b34801561049157600080fd5b506101da6104a036600461366d565b610d43565b3480156104b157600080fd5b506104c56104c03660046135c7565b610f5d565b6040516101e79190613cff565b3480156104de57600080fd5b5061027f6104ed366004613335565b610ff2565b3480156104fe57600080fd5b50600954610512906001600160a01b031681565b6040516101e79190613e02565b34801561052b57600080fd5b506101da61053a366004613335565b60056020526000908152604090205460ff1681565b34801561055b57600080fd5b506102a161056a3660046133b4565b61104f565b34801561057b57600080fd5b5061027f61114f565b34801561059057600080fd5b506101da61059f3660046135e8565b611162565b3480156105b057600080fd5b5061027f6105bf366004613335565b61118b565b3480156105d057600080fd5b5061027f6105df36600461366d565b6112f8565b3480156105f057600080fd5b50600354610210906001600160a01b031681565b34801561061057600080fd5b506102a1600081565b34801561062557600080fd5b5061030e610634366004613377565b6117a6565b34801561064557600080fd5b50600154610210906001600160a01b031681565b61027f610667366004613437565b61192f565b34801561067857600080fd5b5061068c6106873660046133b4565b611f4d565b6040516101e79190613cee565b3480156106a557600080fd5b5061027f6106b4366004613335565b612204565b3480156106c557600080fd5b5061027f6106d43660046135e8565b6122b0565b3480156106e557600080fd5b50600754610210906001600160a01b031681565b34801561070557600080fd5b5061027f610714366004613335565b6122cc565b34801561072557600080fd5b5061027f610734366004613335565b612350565b34801561074557600080fd5b50600454610210906001600160a01b031681565b60006001600160e01b03198216637965db0b60e01b148061078a57506301ffc9a760e01b6001600160e01b03198316145b92915050565b600681815481106107a057600080fd5b6000918252602090912001546001600160a01b0316905081565b6060600680548060200260200160405190810160405280929190818152602001828054801561081257602002820191906000526020600020905b81546001600160a01b031681526001909101906020018083116107f4575b5050505050905090565b6000610827816123d4565b6001600160a01b03821661084e5760405163d92e233d60e01b815260040160405180910390fd5b6003546001600160a01b038381169116141561087d5760405163c23f6ccb60e01b815260040160405180910390fd5b50600380546001600160a01b0319166001600160a01b0392909216919091179055565b60009081526020819052604090206001015490565b6108be826108a0565b6108c7816123d4565b6108d183836123de565b505050565b6001600160a01b03811633146109075760405162461bcd60e51b81526004016108fe90613ec1565b60405180910390fd5b6109118282612462565b5050565b6001600160a01b0383166000908152600c60209081526040808320858452825280832084845282529182902080548351818402810184019094528084526060939283018282801561098557602002820191906000526020600020905b815481526020019060010190808311610971575b505050505090505b9392505050565b600061099f816123d4565b6001600160a01b0382166109c65760405163d92e233d60e01b815260040160405180910390fd5b6009546001600160a01b03838116911614156109f55760405163c23f6ccb60e01b815260040160405180910390fd5b50600980546001600160a01b0319166001600160a01b0392909216919091179055565b6009546040516331a9108f60e11b81526060916000916001600160a01b0390911690636352211e90610a4e908790600401613d2f565b60206040518083038186803b158015610a6657600080fd5b505afa158015610a7a573d6000803e3d6000fd5b505050506040513d601f19601f82011682018060405250810190610a9e9190613356565b9050610aaa81846117a6565b949350505050565b6000610abd816123d4565b610ac56124c7565b50565b6000610ad3816123d4565b6001600160a01b038216610afa5760405163d92e233d60e01b815260040160405180910390fd5b6001546001600160a01b0383811691161415610b295760405163c23f6ccb60e01b815260040160405180910390fd5b50600180546001600160a01b0319166001600160a01b0392909216919091179055565b600080826001600160a01b0316631f37c1246040518163ffffffff1660e01b815260040160206040518083038186803b158015610b8857600080fd5b505afa158015610b9c573d6000803e3d6000fd5b505050506040513d601f19601f82011682018060405250810190610bc0919061364c565b90506000836001600160a01b031663776d1a546040518163ffffffff1660e01b815260040160206040518083038186803b158015610bfd57600080fd5b505afa158015610c11573d6000803e3d6000fd5b505050506040513d601f19601f82011682018060405250810190610c35919061364c565b905081158015610c43575080155b15610c535760009250505061078a565b6004546001600160a01b038681169116148015610c8857506001600160a01b03851660009081526005602052604090205460ff165b8015610c945750600081115b15610ca257915061078a9050565b6003546001600160a01b038681169116148015610cd757506001600160a01b03851660009081526005602052604090205460ff165b15610ce45750905061078a565b6001600160a01b03851660009081526005602052604090205460ff1615610d1857610d0f8583612516565b9250505061078a565b84604051630ac29ab760e31b81526004016108fe9190613c57565b600754600160a01b900460ff1690565b6009546040516331a9108f60e11b815260009182916001600160a01b0390911690636352211e90610d78908990600401613d2f565b60206040518083038186803b158015610d9057600080fd5b505afa158015610da4573d6000803e3d6000fd5b505050506040513d601f19601f82011682018060405250810190610dc89190613356565b90506000856001600160a01b0316636352211e866040518263ffffffff1660e01b8152600401610df89190613d2f565b60206040518083038186803b158015610e1057600080fd5b505afa158015610e24573d6000803e3d6000fd5b505050506040513d601f19601f82011682018060405250810190610e489190613356565b6001600160a01b038088166000908152600a602090815260408083208a845282528083208d845282528083208984528252918290208251608081018452815460ff9081161515825260018301549382019390935260028201549381019390935260030154161515606082015291925083811690831614610edf5785886040516308c931fb60e21b81526004016108fe929190613eff565b8051610efe576040516306fc59f560e51b815260040160405180910390fd5b4281604001511015610f295780604001516040516323928a2960e11b81526004016108fe9190613d2f565b806060015115610f4c5760405163a5bfec4360e01b815260040160405180910390fd5b600193505050505b95945050505050565b6060600d6000838152602001908152602001600020805480602002602001604051908101604052809291908181526020016000905b82821015610fe7576000848152602090819020604080516060810182526003860290920180546001600160a01b0316835260018082015484860152600290910154918301919091529083529092019101610f92565b505050509050919050565b6000610ffd816123d4565b6004546001600160a01b038381169116141561102c5760405163c23f6ccb60e01b815260040160405180910390fd5b50600480546001600160a01b0319166001600160a01b0392909216919091179055565b600080836001600160a01b0316636352211e846040518263ffffffff1660e01b815260040161107e9190613d2f565b60206040518083038186803b15801561109657600080fd5b505afa1580156110aa573d6000803e3d6000fd5b505050506040513d601f19601f820116820180604052508101906110ce9190613356565b60095460405163294cdf0d60e01b81529192506001600160a01b03169063294cdf0d906110ff908490600401613c57565b60206040518083038186803b15801561111757600080fd5b505afa15801561112b573d6000803e3d6000fd5b505050506040513d601f19601f82011682018060405250810190610aaa919061364c565b600061115a816123d4565b610ac56125b5565b6000918252602082815260408084206001600160a01b0393909316845291905290205460ff1690565b6000611196816123d4565b6001600160a01b03821660009081526005602052604090205460ff166111d157816040516318317bd560e01b81526004016108fe9190613c57565b6001600160a01b0382166000908152600560205260408120805460ff191690555b6006548110156108d157826001600160a01b0316600682815481106112195761121961411f565b6000918252602090912001546001600160a01b031614156112e6576006805461124490600190614014565b815481106112545761125461411f565b600091825260209091200154600680546001600160a01b0390921691839081106112805761128061411f565b9060005260206000200160006101000a8154816001600160a01b0302191690836001600160a01b0316021790555060068054806112bf576112bf614109565b600082815260209020810160001990810180546001600160a01b0319169055019055505050565b806112f0816140c2565b9150506111f2565b6113006125f8565b6009546040516331a9108f60e11b81526000916001600160a01b031690636352211e90611331908890600401613d2f565b60206040518083038186803b15801561134957600080fd5b505afa15801561135d573d6000803e3d6000fd5b505050506040513d601f19601f820116820180604052508101906113819190613356565b90506000846001600160a01b0316636352211e856040518263ffffffff1660e01b81526004016113b19190613d2f565b60206040518083038186803b1580156113c957600080fd5b505afa1580156113dd573d6000803e3d6000fd5b505050506040513d601f19601f820116820180604052508101906114019190613356565b9050806001600160a01b0316826001600160a01b0316146114395783866040516308c931fb60e21b81526004016108fe929190613eff565b6001600160a01b0382163314611464573360405163060296c760e31b81526004016108fe9190613c57565b868614156114875786604051634c804ffb60e01b81526004016108fe9190613d2f565b6001600160a01b0385166000908152600a6020908152604080832087845282528083208a8452825280832086845290915290206003015460ff16156114df5760405163a5bfec4360e01b815260040160405180910390fd5b6001600160a01b0385166000908152600a6020908152604080832087845282528083208a8452825280832086845290915290205460ff1615611561576001600160a01b0385166000908152600a6020908152604080832087845282528083208a845282528083208684529091529020600301805460ff1916600117905561175e565b60405180608001604052806001151581526020018781526020016000815260200160011515815250600a6000876001600160a01b03166001600160a01b0316815260200190815260200160002060008681526020019081526020016000206000898152602001908152602001600020600085815260200190815260200160002060008201518160000160006101000a81548160ff021916908315150217905550602082015181600101556040820151816002015560608201518160030160006101000a81548160ff021916908315150217905550905050600c6000866001600160a01b03166001600160a01b031681526020019081526020016000206000858152602001908152602001600020600088815260200190815260200160002080549050600014156116bf576001600160a01b0385166000908152600b602090815260408083208784528252822080546001810182559083529120018790555b6001600160a01b038581166000818152600c6020908152604080832089845282528083208c84528252808320805460018082018355918552838520018990558c8452600d835281842082516060810184529586528584018b81529286018a815281548084018355918652939094209451600390940290940180546001600160a01b03191693909516929092178455905191830191909155516002909101555b7f92f7f09e974ff9834968d6e74bc08965827de4279f16b8534542ed570c8d265a8787878787604051611795959493929190613f0d565b60405180910390a150505050505050565b60606000826001600160a01b03166370a08231856040518263ffffffff1660e01b81526004016117d69190613c57565b60206040518083038186803b1580156117ee57600080fd5b505afa158015611802573d6000803e3d6000fd5b505050506040513d601f19601f82011682018060405250810190611826919061364c565b90506000816001600160401b0381111561184257611842614135565b60405190808252806020026020018201604052801561186b578160200160208202803683370190505b50905060005b8281101561192657604051632f745c5960e01b81526001600160a01b03861690632f745c59906118a79089908590600401613c8d565b60206040518083038186803b1580156118bf57600080fd5b505afa1580156118d3573d6000803e3d6000fd5b505050506040513d601f19601f820116820180604052508101906118f7919061364c565b8282815181106119095761190961411f565b60209081029190910101528061191e816140c2565b915050611871565b50949350505050565b6119376125f8565b6002600854141561195a5760405162461bcd60e51b81526004016108fe90613eb1565b60026008556009546040516331a9108f60e11b81526000916001600160a01b031690636352211e90611990908b90600401613d2f565b60206040518083038186803b1580156119a857600080fd5b505afa1580156119bc573d6000803e3d6000fd5b505050506040513d601f19601f820116820180604052508101906119e09190613356565b6009546040516331a9108f60e11b81529192506000916001600160a01b0390911690636352211e90611a16908d90600401613d2f565b60206040518083038186803b158015611a2e57600080fd5b505afa158015611a42573d6000803e3d6000fd5b505050506040513d601f19601f82011682018060405250810190611a669190613356565b90506000886001600160a01b0316636352211e896040518263ffffffff1660e01b8152600401611a969190613d2f565b60206040518083038186803b158015611aae57600080fd5b505afa158015611ac2573d6000803e3d6000fd5b505050506040513d601f19601f82011682018060405250810190611ae69190613356565b9050806001600160a01b0316836001600160a01b031614611b1e57878a6040516308c931fb60e21b81526004016108fe929190613eff565b6001600160a01b0382163314611b495733604051635b1eee2960e01b81526004016108fe9190613c57565b8a8a1415611b6c578a604051634c804ffb60e01b81526004016108fe9190613d2f565b86611b8c5786604051639a0bfc6560e01b81526004016108fe9190613d2f565b42861015611baf57856040516323928a2960e11b81526004016108fe9190613d2f565b6001600160a01b0389166000908152600a602090815260408083208b845282528083208e845282528083208a845290915290205460ff1615611c0c5788888c89604051631d4f346360e11b81526004016108fe9493929190613ca8565b611c5b611c1d8c8c8c8c8c8c61261f565b86868080601f016020809104026020016040519081016040528093929190818152602001838380828437600092019190915250889250612689915050565b611c7857604051638baa579f60e01b815260040160405180910390fd5b611c8b8c611c868e8c610b4c565b6126b1565b60405180608001604052806001151581526020018b815260200187815260200160001515815250600a60008b6001600160a01b03166001600160a01b0316815260200190815260200160002060008a815260200190815260200160002060008d8152602001908152602001600020600089815260200190815260200160002060008201518160000160006101000a81548160ff021916908315150217905550602082015181600101556040820151816002015560608201518160030160006101000a81548160ff021916908315150217905550905050600c60008a6001600160a01b03166001600160a01b03168152602001908152602001600020600089815260200190815260200160002060008c81526020019081526020016000208054905060001415611de8576001600160a01b0389166000908152600b602090815260408083208b84528252822080546001810182559083529120018b90555b600c60008a6001600160a01b03166001600160a01b03168152602001908152602001600020600089815260200190815260200160002060008c8152602001908152602001600020879080600181540180825580915050600190039060005260206000200160009091909190915055600d60008c815260200190815260200160002060405180606001604052808b6001600160a01b031681526020018a815260200189815250908060018154018082558091505060019003906000526020600020906003020160009091909190915060008201518160000160006101000a8154816001600160a01b0302191690836001600160a01b03160217905550602082015181600101556040820151816002015550507fd0b60e92dff77ab3cd9ee6e52ef2c13a955a95365dc6fdce28e719275dc387ac8b8b8b8b8b8b604051611f3296959493929190613f4f565b60405180910390a15050600160085550505050505050505050565b60606000805b6001600160a01b0385166000908152600b6020908152604080832087845290915290205481101561202b576001600160a01b0385166000908152600b602090815260408083208784529091528120805483908110611fb357611fb361411f565b9060005260206000200154905060005b6001600160a01b0387166000908152600c6020908152604080832089845282528083208584529091529020548110156120165783612000816140c2565b945050808061200e906140c2565b915050611fc3565b50508080612023906140c2565b915050611f53565b506000816001600160401b0381111561204657612046614135565b60405190808252806020026020018201604052801561208b57816020015b60408051808201909152600080825260208201528152602001906001900390816120645790505b5090506000805b6001600160a01b0387166000908152600b602090815260408083208984529091529020548110156121f9576001600160a01b0387166000908152600b6020908152604080832089845290915281208054839081106120f2576120f261411f565b9060005260206000200154905060005b6001600160a01b0389166000908152600c602090815260408083208b845282528083208584529091529020548110156121e4576001600160a01b0389166000908152600c602090815260408083208b8452825280832085845290915281208054839081106121725761217261411f565b90600052602060002001549050828686815181106121925761219261411f565b60200260200101516000018181525050808686815181106121b5576121b561411f565b6020908102919091018101510152846121cd816140c2565b9550505080806121dc906140c2565b915050612102565b505080806121f1906140c2565b915050612092565b509095945050505050565b600061220f816123d4565b6001600160a01b03821660009081526005602052604090205460ff16156122495760405163f411c32760e01b815260040160405180910390fd5b506001600160a01b03166000818152600560205260408120805460ff191660019081179091556006805491820181559091527ff652222313e28459528d920b65115c16c04f3efc82aaedc97be59f3f377c0d3f0180546001600160a01b0319169091179055565b6122b9826108a0565b6122c2816123d4565b6108d18383612462565b60006122d7816123d4565b6001600160a01b0382166122fe5760405163d92e233d60e01b815260040160405180910390fd5b6002546001600160a01b038381169116141561232d5760405163c23f6ccb60e01b815260040160405180910390fd5b50600280546001600160a01b0319166001600160a01b0392909216919091179055565b600061235b816123d4565b6001600160a01b0382166123825760405163d92e233d60e01b815260040160405180910390fd5b6007546001600160a01b03838116911614156123b15760405163c23f6ccb60e01b815260040160405180910390fd5b50600780546001600160a01b0319166001600160a01b0392909216919091179055565b610ac5813361285d565b6123e88282611162565b610911576000828152602081815260408083206001600160a01b03851684529091529020805460ff1916600117905561241e3390565b6001600160a01b0316816001600160a01b0316837f2f8788117e7eff1d82e926ec794901d17c78024a50270940304540a733656f0d60405160405180910390a45050565b61246c8282611162565b15610911576000828152602081815260408083206001600160a01b0385168085529252808320805460ff1916905551339285917ff6391f5c32d9c69d2a47ea670b442974b53935d1edc7fd64eb21e047a839171b9190a45050565b6124cf6128c1565b6007805460ff60a01b191690557f5db9ee0a495bf2e6ff9c91a7834c1ba4fdd244a5e8aa4e537bd38aeae4b073aa335b60405161250c9190613c57565b60405180910390a1565b6001600160a01b03821660009081526005602052604081205460ff16158061254b57506003546001600160a01b038481169116145b1561256b578260405163961c9a4f60e01b81526004016108fe9190613c57565b6001600160a01b03831661259d57600254600354612596916001600160a01b039081169116846128e5565b905061078a565b6003546125969084906001600160a01b0316846128e5565b6125bd6125f8565b6007805460ff60a01b1916600160a01b1790557f62e78cea01bee320cd4e420270b5ea74000d11b0c9f74754ebdbfc544b05a2586124ff3390565b612600610d33565b1561261d5760405162461bcd60e51b81526004016108fe90613e71565b565b600061267c7f7ff3a592f7e3c4640523a26490b66609c72eac880180ec2f1e57116c74f07cce8888888888886040516020016126619796959493929190613d7f565b604051602081830303815290604052805190602001206129a3565b90505b9695505050505050565b6000816001600160a01b031661269f85856129b6565b6001600160a01b031614949350505050565b806126ba575050565b6001600160a01b03821660009081526005602052604090205460ff166126f55781604051630ac29ab760e31b81526004016108fe9190613c57565b6001600160a01b0382166128415780341015612726578060405163091a6d0f60e01b81526004016108fe9190613d2f565b6007546040516000916001600160a01b031690839061274490613bfd565b60006040518083038185875af1925050503d8060008114612781576040519150601f19603f3d011682016040523d82523d6000602084013e612786565b606091505b50509050806127a8576040516312171d8360e31b815260040160405180910390fd5b813411156108d15760006127bc34846129da565b9050336001600160a01b0316816040516127d590613bfd565b60006040518083038185875af1925050503d8060008114612812576040519150601f19603f3d011682016040523d82523d6000602084013e612817565b606091505b5050809250508161283b57604051633c31275160e21b815260040160405180910390fd5b50505050565b600754610911906001600160a01b0384811691339116846129e6565b6128678282611162565b6109115761287f816001600160a01b03166014612a3e565b61288a836020612a3e565b60405160200161289b929190613c05565b60408051601f198184030181529082905262461bcd60e51b82526108fe91600401613e10565b6128c9610d33565b61261d5760405162461bcd60e51b81526004016108fe90613e41565b60006060806128f48686612ba9565b6001546040516307c0329d60e21b81529192506001600160a01b031690631f00ca74906129279087908590600401613edf565b60006040518083038186803b15801561293f57600080fd5b505afa158015612953573d6000803e3d6000fd5b505050506040513d6000823e601f3d908101601f1916820160405261297b919081019061356c565b9150816000815181106129905761299061411f565b6020026020010151925050509392505050565b600061078a6129b0612d3b565b83612e2e565b60008060006129c58585612e61565b915091506129d281612ea7565b509392505050565b600061098d8284614014565b61283b846323b872dd60e01b858585604051602401612a0793929190613c65565b60408051601f198184030181529190526020810180516001600160e01b03166001600160e01b031990931692909217909152612f8c565b60606000612a4d836002613ff5565b612a58906002613fdd565b6001600160401b03811115612a6f57612a6f614135565b6040519080825280601f01601f191660200182016040528015612a99576020820181803683370190505b509050600360fc1b81600081518110612ab457612ab461411f565b60200101906001600160f81b031916908160001a905350600f60fb1b81600181518110612ae357612ae361411f565b60200101906001600160f81b031916908160001a9053506000612b07846002613ff5565b612b12906001613fdd565b90505b6001811115612b8a576f181899199a1a9b1b9c1cb0b131b232b360811b85600f1660108110612b4657612b4661411f565b1a60f81b828281518110612b5c57612b5c61411f565b60200101906001600160f81b031916908160001a90535060049490941c93612b838161407e565b9050612b15565b50831561098d5760405162461bcd60e51b81526004016108fe90613e31565b6002546060906001600160a01b0384811691161480612bd557506002546001600160a01b038381169116145b15612c9f57604080516002808252606082018352600092602083019080368337019050506002549091506001600160a01b03858116911614612c175783612c24565b6002546001600160a01b03165b81600081518110612c3757612c3761411f565b6001600160a01b039283166020918202929092010152600254848216911614612c605782612c6d565b6002546001600160a01b03165b81600181518110612c8057612c8061411f565b6001600160a01b0390921660209283029190910190910152905061078a565b60408051600380825260808201909252600091602082016060803683370190505090508381600081518110612cd657612cd661411f565b6001600160a01b039283166020918202929092010152600254825191169082906001908110612d0757612d0761411f565b60200260200101906001600160a01b031690816001600160a01b0316815250508281600281518110612c8057612c8061411f565b6000306001600160a01b037f000000000000000000000000000000000000000000000000000000000000000016148015612d9457507f000000000000000000000000000000000000000000000000000000000000000046145b15612dbe57507f000000000000000000000000000000000000000000000000000000000000000090565b612e297f00000000000000000000000000000000000000000000000000000000000000007f00000000000000000000000000000000000000000000000000000000000000007f000000000000000000000000000000000000000000000000000000000000000061301b565b905090565b60008282604051602001612e43929190613bcc565b60405160208183030381529060405280519060200120905092915050565b600080825160411415612e985760208301516040840151606085015160001a612e8c87828585613055565b94509450505050612ea0565b506000905060025b9250929050565b6000816004811115612ebb57612ebb6140f3565b1415612ec45750565b6001816004811115612ed857612ed86140f3565b1415612ef65760405162461bcd60e51b81526004016108fe90613e21565b6002816004811115612f0a57612f0a6140f3565b1415612f285760405162461bcd60e51b81526004016108fe90613e51565b6003816004811115612f3c57612f3c6140f3565b1415612f5a5760405162461bcd60e51b81526004016108fe90613e61565b6004816004811115612f6e57612f6e6140f3565b1415610ac55760405162461bcd60e51b81526004016108fe90613e81565b6000612fe1826040518060400160405280602081526020017f5361666545524332303a206c6f772d6c6576656c2063616c6c206661696c6564815250856001600160a01b031661312b9092919063ffffffff16565b8051909150156108d15780806020019051810190612fff91906135a6565b6108d15760405162461bcd60e51b81526004016108fe90613ea1565b60008383834630604051602001613036959493929190613d3d565b6040516020818303038152906040528051906020012090509392505050565b6000806fa2a8918ca85bafe22016d0b997e4df60600160ff1b038311156130825750600090506003613122565b8460ff16601b1415801561309a57508460ff16601c14155b156130ab5750600090506004613122565b6000600187878787604051600081526020016040526040516130d09493929190613de7565b6020604051602081039080840390855afa1580156130f2573d6000803e3d6000fd5b5050604051601f1901519150506001600160a01b03811661311b57600060019250925050613122565b9150600090505b94509492505050565b6060610aaa8484600085856001600160a01b0385163b61315d5760405162461bcd60e51b81526004016108fe90613e91565b600080866001600160a01b031685876040516131799190613bc0565b60006040518083038185875af1925050503d80600081146131b6576040519150601f19603f3d011682016040523d82523d6000602084013e6131bb565b606091505b50915091506131cb8282866131d6565b979650505050505050565b606083156131e557508161098d565b8251156131f55782518084602001fd5b8160405162461bcd60e51b81526004016108fe9190613e10565b600061322261321d84613fba565b613f9e565b9050808382526020820190508285602086028201111561324457613244600080fd5b60005b85811015613270578161325a888261332a565b8452506020928301929190910190600101613247565b5050509392505050565b803561078a81614155565b805161078a81614155565b600082601f8301126132a4576132a4600080fd5b8151610aaa84826020860161320f565b805161078a81614169565b803561078a81614171565b803561078a81614177565b60008083601f8401126132ea576132ea600080fd5b5081356001600160401b0381111561330457613304600080fd5b602083019150836001820283011115612ea057612ea0600080fd5b803561078a81614187565b805161078a81614171565b60006020828403121561334a5761334a600080fd5b6000610aaa848461327a565b60006020828403121561336b5761336b600080fd5b6000610aaa8484613285565b6000806040838503121561338d5761338d600080fd5b6000613399858561327a565b92505060206133aa8582860161327a565b9150509250929050565b600080604083850312156133ca576133ca600080fd5b60006133d6858561327a565b92505060206133aa858286016132bf565b6000806000606084860312156133ff576133ff600080fd5b600061340b868661327a565b935050602061341c868287016132bf565b925050604061342d868287016132bf565b9150509250925092565b60008060008060008060008060006101008a8c03121561345957613459600080fd5b60006134658c8c61327a565b99505060206134768c828d016132bf565b98505060406134878c828d016132bf565b97505060606134988c828d0161327a565b96505060806134a98c828d016132bf565b95505060a06134ba8c828d016132bf565b94505060c06134cb8c828d016132bf565b93505060e08a01356001600160401b038111156134ea576134ea600080fd5b6134f68c828d016132d5565b92509250509295985092959850929598565b6000806000806080858703121561352157613521600080fd5b600061352d878761327a565b945050602061353e878288016132bf565b935050604061354f878288016132bf565b9250506060613560878288016132bf565b91505092959194509250565b60006020828403121561358157613581600080fd5b81516001600160401b0381111561359a5761359a600080fd5b610aaa84828501613290565b6000602082840312156135bb576135bb600080fd5b6000610aaa84846132b4565b6000602082840312156135dc576135dc600080fd5b6000610aaa84846132bf565b600080604083850312156135fe576135fe600080fd5b600061339985856132bf565b60006020828403121561361f5761361f600080fd5b6000610aaa84846132ca565b60006020828403121561364057613640600080fd5b6000610aaa848461331f565b60006020828403121561366157613661600080fd5b6000610aaa848461332a565b600080600080600060a0868803121561368857613688600080fd5b600061369488886132bf565b95505060206136a5888289016132bf565b94505060406136b68882890161327a565b93505060606136c7888289016132bf565b92505060806136d8888289016132bf565b9150509295509295909350565b60006136f1838361372d565b505060200190565b60006137058383613b5c565b505060400190565b60006137198383613b80565b505060600190565b60006136f18383613847565b6137368161402b565b82525050565b6000613746825190565b80845260209384019383018060005b8381101561377a57815161376988826136e5565b975060208301925050600101613755565b509495945050505050565b600061378f825190565b80845260209384019383018060005b8381101561377a5781516137b288826136f9565b97506020830192505060010161379e565b60006137cd825190565b80845260209384019383018060005b8381101561377a5781516137f0888261370d565b9750602083019250506001016137dc565b600061380b825190565b80845260209384019383018060005b8381101561377a57815161382e8882613721565b97506020830192505060010161381a565b801515613736565b80613736565b6000613857825190565b613865818560208601614052565b9290920192915050565b61373681614047565b6000613882825190565b808452602084019350613899818560208601614052565b6138a28161414b565b9093019392505050565b601881526000602082017745434453413a20696e76616c6964207369676e617475726560401b815291505b5060200190565b60208082527f537472696e67733a20686578206c656e67746820696e73756666696369656e74910190815260006138d7565b601481526000602082017314185d5cd8589b194e881b9bdd081c185d5cd95960621b815291506138d7565b601f81526000602082017f45434453413a20696e76616c6964207369676e6174757265206c656e67746800815291506138d7565b602281526000602082017f45434453413a20696e76616c6964207369676e6174757265202773272076616c815261756560f01b602082015291505b5060400190565b601081526000602082016f14185d5cd8589b194e881c185d5cd95960821b815291506138d7565b602281526000602082017f45434453413a20696e76616c6964207369676e6174757265202776272076616c815261756560f01b602082015291506139aa565b601d81526000602082017f416464726573733a2063616c6c20746f206e6f6e2d636f6e7472616374000000815291506138d7565b602a81526000602082017f5361666545524332303a204552433230206f7065726174696f6e20646964206e8152691bdd081cdd58d8d9595960b21b602082015291506139aa565b601f81526000602082017f5265656e7472616e637947756172643a207265656e7472616e742063616c6c00815291506138d7565b602f81526000602082017f416363657373436f6e74726f6c3a2063616e206f6e6c792072656e6f756e636581526e103937b632b9903337b91039b2b63360891b602082015291506139aa565b80516080830190613b23848261383f565b506020820151613b366020850182613847565b506040820151613b496040850182613847565b50606082015161283b606085018261383f565b80516040830190613b6d8482613847565b50602082015161283b6020850182613847565b80516060830190613b91848261372d565b506020820151613ba46020850182613847565b50604082015161283b6040850182613847565b60ff8116613736565b600061098d828461384d565b61190160f01b81526002016000613be38285613847565b602082019150613bf38284613847565b5060200192915050565b60008161078a565b76020b1b1b2b9b9a1b7b73a3937b61d1030b1b1b7bab73a1604d1b81526017016000613c31828561384d565b7001034b99036b4b9b9b4b733903937b6329607d1b81526011019150610aaa828461384d565b6020810161078a828461372d565b60608101613c73828661372d565b613c80602083018561372d565b610aaa6040830184613847565b60408101613c9b828561372d565b61098d6020830184613847565b60808101613cb6828761372d565b613cc36020830186613847565b613cd06040830185613847565b610f546060830184613847565b6020808252810161098d818461373c565b6020808252810161098d8184613785565b6020808252810161098d81846137c3565b6020808252810161098d8184613801565b6020810161078a828461383f565b6020810161078a8284613847565b60a08101613d4b8288613847565b613d586020830187613847565b613d656040830186613847565b613d726060830185613847565b61267f608083018461372d565b60e08101613d8d828a613847565b613d9a6020830189613847565b613da76040830188613847565b613db4606083018761372d565b613dc16080830186613847565b613dce60a0830185613847565b613ddb60c0830184613847565b98975050505050505050565b60808101613df58287613847565b613cc36020830186613bb7565b6020810161078a828461386f565b6020808252810161098d8184613878565b6020808252810161078a816138ac565b6020808252810161078a816138de565b6020808252810161078a81613910565b6020808252810161078a8161393b565b6020808252810161078a8161396f565b6020808252810161078a816139b1565b6020808252810161078a816139d8565b6020808252810161078a81613a17565b6020808252810161078a81613a4b565b6020808252810161078a81613a92565b6020808252810161078a81613ac6565b6080810161078a8284613b12565b60408101613eed8285613847565b8181036020830152610aaa818461373c565b60408101613c9b8285613847565b60a08101613f1b8288613847565b613f286020830187613847565b613f35604083018661372d565b613f426060830185613847565b61267f6080830184613847565b60c08101613f5d8289613847565b613f6a6020830188613847565b613f77604083018761372d565b613f846060830186613847565b613f916080830185613847565b6131cb60a0830184613847565b6000613fa960405190565b9050613fb58282614095565b919050565b60006001600160401b03821115613fd357613fd3614135565b5060209081020190565b60008219821115613ff057613ff06140dd565b500190565b600081600019048311821515161561400f5761400f6140dd565b500290565b600082821015614026576140266140dd565b500390565b60006001600160a01b03821661078a565b600061078a8261402b565b600061078a8261403c565b60005b8381101561406d578181015183820152602001614055565b8381111561283b5750506000910152565b60008161408d5761408d6140dd565b506000190190565b61409e8261414b565b81018181106001600160401b03821117156140bb576140bb614135565b6040525050565b60006000198214156140d6576140d66140dd565b5060010190565b634e487b7160e01b600052601160045260246000fd5b634e487b7160e01b600052602160045260246000fd5b634e487b7160e01b600052603160045260246000fd5b634e487b7160e01b600052603260045260246000fd5b634e487b7160e01b600052604160045260246000fd5b601f01601f191690565b61415e8161402b565b8114610ac557600080fd5b80151561415e565b8061415e565b6001600160e01b0319811661415e565b61415e8161403c56fea2646970667358221220b6eb5ff69a93668e3dc5666337aa27b0aca34506720771ba0bfd31a3f1e4212064736f6c63430008070033",
  "devdoc": {
    "author": "Masa Finance",
    "kind": "dev",
    "methods": {
      "addLink(address,uint256,uint256,address,uint256,uint256,uint256,bytes)": {
        "details": "The token must be linked to this soul linker",
        "params": {
          "expirationDate": "Expiration date of the signature",
          "ownerIdentityId": "Id of the identity of the owner of the SBT",
          "readerIdentityId": "Id of the identity of the reader",
          "signature": "Signature of the read link request made by the owner",
          "signatureDate": "Signature date of the signature",
          "token": "Address of the SBT contract",
          "tokenId": "Id of the token"
        }
      },
      "constructor": {
        "params": {
          "_soulboundIdentity": "Soulbound identity smart contract",
          "admin": "Administrator of the smart contract",
          "paymentParams": "Payment gateway params"
        }
      },
      "disablePaymentMethod(address)": {
        "details": "The caller must have the admin role to call this function",
        "params": {
          "_paymentMethod": "Token to remove"
        }
      },
      "enablePaymentMethod(address)": {
        "details": "The caller must have the admin role to call this function",
        "params": {
          "_paymentMethod": "New token to add"
        }
      },
      "getEnabledPaymentMethods()": {
        "details": "Returns the address of all available payment methods",
        "returns": {
          "_0": "Array of all enabled payment methods"
        }
      },
      "getIdentityId(address,uint256)": {
        "details": "The token must be linked to this soul linker",
        "params": {
          "token": "Address of the SBT contract",
          "tokenId": "Id of the token"
        },
        "returns": {
          "_0": "Id of the identity"
        }
      },
      "getLinkInfo(address,uint256,uint256,uint256)": {
        "params": {
          "readerIdentityId": "Id of the identity of the reader of the SBT",
          "signatureDate": "Signature date of the signature",
          "token": "Address of the SBT contract",
          "tokenId": "Id of the token"
        },
        "returns": {
          "_0": "linkData List of linked SBTs"
        }
      },
      "getLinkSignatureDates(address,uint256,uint256)": {
        "params": {
          "readerIdentityId": "Id of the identity of the reader of the SBT",
          "token": "Address of the SBT contract",
          "tokenId": "Id of the token"
        },
        "returns": {
          "_0": "List of linked SBTs"
        }
      },
      "getLinks(address,uint256)": {
        "params": {
          "token": "Address of the SBT contract",
          "tokenId": "Id of the token"
        },
        "returns": {
          "_0": "List of linked SBTs"
        }
      },
      "getPriceForAddLink(address,address)": {
        "details": "Returns the current pricing for storing a link",
        "params": {
          "paymentMethod": "Address of token that user want to pay",
          "token": "Token that user want to store link"
        },
        "returns": {
          "_0": "Current price for storing a link"
        }
      },
      "getReaderLinks(uint256)": {
        "params": {
          "readerIdentityId": "Id of the identity of the reader of the SBT"
        },
        "returns": {
          "_0": "List of links for the reader"
        }
      },
      "getRoleAdmin(bytes32)": {
        "details": "Returns the admin role that controls `role`. See {grantRole} and {revokeRole}. To change a role's admin, use {_setRoleAdmin}."
      },
      "getSBTConnections(address,address)": {
        "params": {
          "owner": "Address of the owner of the identity",
          "token": "Address of the SBT contract"
        },
        "returns": {
          "_0": "List of connectec SBTs"
        }
      },
      "getSBTConnections(uint256,address)": {
        "params": {
          "identityId": "Id of the identity",
          "token": "Address of the SBT contract"
        },
        "returns": {
          "_0": "List of connected SBTs"
        }
      },
      "grantRole(bytes32,address)": {
        "details": "Grants `role` to `account`. If `account` had not been already granted `role`, emits a {RoleGranted} event. Requirements: - the caller must have ``role``'s admin role. May emit a {RoleGranted} event."
      },
      "hasRole(bytes32,address)": {
        "details": "Returns `true` if `account` has been granted `role`."
      },
      "pause()": {
        "details": "The caller must have the admin role to call this function"
      },
      "paused()": {
        "details": "Returns true if the contract is paused, and false otherwise."
      },
      "renounceRole(bytes32,address)": {
        "details": "Revokes `role` from the calling account. Roles are often managed via {grantRole} and {revokeRole}: this function's purpose is to provide a mechanism for accounts to lose their privileges if they are compromised (such as when a trusted device is misplaced). If the calling account had been revoked `role`, emits a {RoleRevoked} event. Requirements: - the caller must be `account`. May emit a {RoleRevoked} event."
      },
      "revokeLink(uint256,uint256,address,uint256,uint256)": {
        "details": "The links can be revoked, wether the token is linked or not. The caller must be the owner of the token. The owner of the token can revoke a link even if the reader has not added it yet.",
        "params": {
          "ownerIdentityId": "Id of the identity of the owner of the SBT",
          "readerIdentityId": "Id of the identity of the reader",
          "signatureDate": "Signature date of the signature",
          "token": "Address of the SBT contract",
          "tokenId": "Id of the token"
        }
      },
      "revokeRole(bytes32,address)": {
        "details": "Revokes `role` from `account`. If `account` had been granted `role`, emits a {RoleRevoked} event. Requirements: - the caller must have ``role``'s admin role. May emit a {RoleRevoked} event."
      },
      "setMasaToken(address)": {
        "details": "The caller must have the admin role to call this function It can be set to address(0) to disable paying in MASA",
        "params": {
          "_masaToken": "New utility token to pay the fee in"
        }
      },
      "setReserveWallet(address)": {
        "details": "The caller must have the admin role to call this function",
        "params": {
          "_reserveWallet": "New reserve wallet"
        }
      },
      "setSoulboundIdentity(address)": {
        "details": "The caller must have the admin role to call this function",
        "params": {
          "_soulboundIdentity": "Address of the SoulboundIdentity contract"
        }
      },
      "setStableCoin(address)": {
        "details": "The caller must have the admin role to call this function",
        "params": {
          "_stableCoin": "New stable coin to pay the fee in"
        }
      },
      "setSwapRouter(address)": {
        "details": "The caller must have the admin role to call this function",
        "params": {
          "_swapRouter": "New swap router address"
        }
      },
      "setWrappedNativeToken(address)": {
        "details": "The caller must have the admin role to call this function",
        "params": {
          "_wrappedNativeToken": "New wrapped native token address"
        }
      },
      "supportsInterface(bytes4)": {
        "details": "See {IERC165-supportsInterface}."
      },
      "unpause()": {
        "details": "The caller must have the admin role to call this function"
      },
      "validateLink(uint256,uint256,address,uint256,uint256)": {
        "details": "The token must be linked to this soul linker",
        "params": {
          "ownerIdentityId": "Id of the identity of the owner of the SBT",
          "readerIdentityId": "Id of the identity of the reader",
          "signatureDate": "Signature date of the signature",
          "token": "Address of the SBT contract",
          "tokenId": "Id of the token"
        },
        "returns": {
          "_0": "True if the link is valid"
        }
      }
    },
    "title": "Soul linker",
    "version": 1
  },
  "userdoc": {
    "kind": "user",
    "methods": {
      "addLink(address,uint256,uint256,address,uint256,uint256,uint256,bytes)": {
        "notice": "Stores the link, validating the signature of the given read link request"
      },
      "constructor": {
        "notice": "Creates a new soul linker"
      },
      "disablePaymentMethod(address)": {
        "notice": "Removes a token as a valid payment method"
      },
      "enablePaymentMethod(address)": {
        "notice": "Adds a new token as a valid payment method"
      },
      "getEnabledPaymentMethods()": {
        "notice": "Returns all available payment methods"
      },
      "getIdentityId(address,uint256)": {
        "notice": "Returns the identityId owned by the given token"
      },
      "getLinkInfo(address,uint256,uint256,uint256)": {
        "notice": "Returns the information of link dates for a given SBT token and reader"
      },
      "getLinkSignatureDates(address,uint256,uint256)": {
        "notice": "Returns the list of link signature dates for a given SBT token and reader"
      },
      "getLinks(address,uint256)": {
        "notice": "Returns the list of link signature dates for a given SBT token and reader"
      },
      "getPriceForAddLink(address,address)": {
        "notice": "Returns the price for storing a link"
      },
      "getReaderLinks(uint256)": {
        "notice": "Returns the list of links for a given reader identity id"
      },
      "getSBTConnections(address,address)": {
        "notice": "Returns the list of connected SBTs by a given SBT token"
      },
      "getSBTConnections(uint256,address)": {
        "notice": "Returns the list of connected SBTs by a given SBT token"
      },
      "pause()": {
        "notice": "Pauses the smart contract"
      },
      "revokeLink(uint256,uint256,address,uint256,uint256)": {
        "notice": "Revokes the link"
      },
      "setMasaToken(address)": {
        "notice": "Sets the utility token to pay the fee in (MASA)"
      },
      "setReserveWallet(address)": {
        "notice": "Set the reserve wallet"
      },
      "setSoulboundIdentity(address)": {
        "notice": "Sets the SoulboundIdentity contract address linked to this soul name"
      },
      "setStableCoin(address)": {
        "notice": "Sets the stable coin to pay the fee in (USDC)"
      },
      "setSwapRouter(address)": {
        "notice": "Sets the swap router address"
      },
      "setWrappedNativeToken(address)": {
        "notice": "Sets the wrapped native token address"
      },
      "unpause()": {
        "notice": "Unpauses the smart contract"
      },
      "validateLink(uint256,uint256,address,uint256,uint256)": {
        "notice": "Validates the link of the given read link request and returns the data that reader can read if the link is valid"
      }
    },
    "notice": "Soul linker smart contract that let add links to a Soulbound token.",
    "version": 1
  },
  "storageLayout": {
    "storage": [
      {
        "astId": 24,
        "contract": "contracts/SoulLinker.sol:SoulLinker",
        "label": "_roles",
        "offset": 0,
        "slot": "0",
        "type": "t_mapping(t_bytes32,t_struct(RoleData)19_storage)"
      },
      {
        "astId": 7471,
        "contract": "contracts/SoulLinker.sol:SoulLinker",
        "label": "swapRouter",
        "offset": 0,
        "slot": "1",
        "type": "t_address"
      },
      {
        "astId": 7473,
        "contract": "contracts/SoulLinker.sol:SoulLinker",
        "label": "wrappedNativeToken",
        "offset": 0,
        "slot": "2",
        "type": "t_address"
      },
      {
        "astId": 7475,
        "contract": "contracts/SoulLinker.sol:SoulLinker",
        "label": "stableCoin",
        "offset": 0,
        "slot": "3",
        "type": "t_address"
      },
      {
        "astId": 7477,
        "contract": "contracts/SoulLinker.sol:SoulLinker",
        "label": "masaToken",
        "offset": 0,
        "slot": "4",
        "type": "t_address"
      },
      {
        "astId": 7481,
        "contract": "contracts/SoulLinker.sol:SoulLinker",
        "label": "enabledPaymentMethod",
        "offset": 0,
        "slot": "5",
        "type": "t_mapping(t_address,t_bool)"
      },
      {
        "astId": 7484,
        "contract": "contracts/SoulLinker.sol:SoulLinker",
        "label": "enabledPaymentMethods",
        "offset": 0,
        "slot": "6",
        "type": "t_array(t_address)dyn_storage"
      },
      {
        "astId": 7486,
        "contract": "contracts/SoulLinker.sol:SoulLinker",
        "label": "reserveWallet",
        "offset": 0,
        "slot": "7",
        "type": "t_address"
      },
      {
        "astId": 523,
        "contract": "contracts/SoulLinker.sol:SoulLinker",
        "label": "_paused",
        "offset": 20,
        "slot": "7",
        "type": "t_bool"
      },
      {
        "astId": 624,
        "contract": "contracts/SoulLinker.sol:SoulLinker",
        "label": "_status",
        "offset": 0,
        "slot": "8",
        "type": "t_uint256"
      },
      {
        "astId": 4005,
        "contract": "contracts/SoulLinker.sol:SoulLinker",
        "label": "soulboundIdentity",
        "offset": 0,
        "slot": "9",
        "type": "t_contract(ISoulboundIdentity)8231"
      },
      {
        "astId": 4016,
        "contract": "contracts/SoulLinker.sol:SoulLinker",
        "label": "_links",
        "offset": 0,
        "slot": "10",
        "type": "t_mapping(t_address,t_mapping(t_uint256,t_mapping(t_uint256,t_mapping(t_uint256,t_struct(LinkData)4047_storage))))"
      },
      {
        "astId": 4023,
        "contract": "contracts/SoulLinker.sol:SoulLinker",
        "label": "_linkReaderIdentityIds",
        "offset": 0,
        "slot": "11",
        "type": "t_mapping(t_address,t_mapping(t_uint256,t_array(t_uint256)dyn_storage))"
      },
      {
        "astId": 4032,
        "contract": "contracts/SoulLinker.sol:SoulLinker",
        "label": "_linkSignatureDates",
        "offset": 0,
        "slot": "12",
        "type": "t_mapping(t_address,t_mapping(t_uint256,t_mapping(t_uint256,t_array(t_uint256)dyn_storage)))"
      },
      {
        "astId": 4038,
        "contract": "contracts/SoulLinker.sol:SoulLinker",
        "label": "_readerLinks",
        "offset": 0,
        "slot": "13",
        "type": "t_mapping(t_uint256,t_array(t_struct(ReaderLink)4054_storage)dyn_storage)"
      }
    ],
    "types": {
      "t_address": {
        "encoding": "inplace",
        "label": "address",
        "numberOfBytes": "20"
      },
      "t_array(t_address)dyn_storage": {
        "base": "t_address",
        "encoding": "dynamic_array",
        "label": "address[]",
        "numberOfBytes": "32"
      },
      "t_array(t_struct(ReaderLink)4054_storage)dyn_storage": {
        "base": "t_struct(ReaderLink)4054_storage",
        "encoding": "dynamic_array",
        "label": "struct SoulLinker.ReaderLink[]",
        "numberOfBytes": "32"
      },
      "t_array(t_uint256)dyn_storage": {
        "base": "t_uint256",
        "encoding": "dynamic_array",
        "label": "uint256[]",
        "numberOfBytes": "32"
      },
      "t_bool": {
        "encoding": "inplace",
        "label": "bool",
        "numberOfBytes": "1"
      },
      "t_bytes32": {
        "encoding": "inplace",
        "label": "bytes32",
        "numberOfBytes": "32"
      },
      "t_contract(ISoulboundIdentity)8231": {
        "encoding": "inplace",
        "label": "contract ISoulboundIdentity",
        "numberOfBytes": "20"
      },
      "t_mapping(t_address,t_bool)": {
        "encoding": "mapping",
        "key": "t_address",
        "label": "mapping(address => bool)",
        "numberOfBytes": "32",
        "value": "t_bool"
      },
      "t_mapping(t_address,t_mapping(t_uint256,t_array(t_uint256)dyn_storage))": {
        "encoding": "mapping",
        "key": "t_address",
        "label": "mapping(address => mapping(uint256 => uint256[]))",
        "numberOfBytes": "32",
        "value": "t_mapping(t_uint256,t_array(t_uint256)dyn_storage)"
      },
      "t_mapping(t_address,t_mapping(t_uint256,t_mapping(t_uint256,t_array(t_uint256)dyn_storage)))": {
        "encoding": "mapping",
        "key": "t_address",
        "label": "mapping(address => mapping(uint256 => mapping(uint256 => uint256[])))",
        "numberOfBytes": "32",
        "value": "t_mapping(t_uint256,t_mapping(t_uint256,t_array(t_uint256)dyn_storage))"
      },
      "t_mapping(t_address,t_mapping(t_uint256,t_mapping(t_uint256,t_mapping(t_uint256,t_struct(LinkData)4047_storage))))": {
        "encoding": "mapping",
        "key": "t_address",
        "label": "mapping(address => mapping(uint256 => mapping(uint256 => mapping(uint256 => struct SoulLinker.LinkData))))",
        "numberOfBytes": "32",
        "value": "t_mapping(t_uint256,t_mapping(t_uint256,t_mapping(t_uint256,t_struct(LinkData)4047_storage)))"
      },
      "t_mapping(t_bytes32,t_struct(RoleData)19_storage)": {
        "encoding": "mapping",
        "key": "t_bytes32",
        "label": "mapping(bytes32 => struct AccessControl.RoleData)",
        "numberOfBytes": "32",
        "value": "t_struct(RoleData)19_storage"
      },
      "t_mapping(t_uint256,t_array(t_struct(ReaderLink)4054_storage)dyn_storage)": {
        "encoding": "mapping",
        "key": "t_uint256",
        "label": "mapping(uint256 => struct SoulLinker.ReaderLink[])",
        "numberOfBytes": "32",
        "value": "t_array(t_struct(ReaderLink)4054_storage)dyn_storage"
      },
      "t_mapping(t_uint256,t_array(t_uint256)dyn_storage)": {
        "encoding": "mapping",
        "key": "t_uint256",
        "label": "mapping(uint256 => uint256[])",
        "numberOfBytes": "32",
        "value": "t_array(t_uint256)dyn_storage"
      },
      "t_mapping(t_uint256,t_mapping(t_uint256,t_array(t_uint256)dyn_storage))": {
        "encoding": "mapping",
        "key": "t_uint256",
        "label": "mapping(uint256 => mapping(uint256 => uint256[]))",
        "numberOfBytes": "32",
        "value": "t_mapping(t_uint256,t_array(t_uint256)dyn_storage)"
      },
      "t_mapping(t_uint256,t_mapping(t_uint256,t_mapping(t_uint256,t_struct(LinkData)4047_storage)))": {
        "encoding": "mapping",
        "key": "t_uint256",
        "label": "mapping(uint256 => mapping(uint256 => mapping(uint256 => struct SoulLinker.LinkData)))",
        "numberOfBytes": "32",
        "value": "t_mapping(t_uint256,t_mapping(t_uint256,t_struct(LinkData)4047_storage))"
      },
      "t_mapping(t_uint256,t_mapping(t_uint256,t_struct(LinkData)4047_storage))": {
        "encoding": "mapping",
        "key": "t_uint256",
        "label": "mapping(uint256 => mapping(uint256 => struct SoulLinker.LinkData))",
        "numberOfBytes": "32",
        "value": "t_mapping(t_uint256,t_struct(LinkData)4047_storage)"
      },
      "t_mapping(t_uint256,t_struct(LinkData)4047_storage)": {
        "encoding": "mapping",
        "key": "t_uint256",
        "label": "mapping(uint256 => struct SoulLinker.LinkData)",
        "numberOfBytes": "32",
        "value": "t_struct(LinkData)4047_storage"
      },
      "t_struct(LinkData)4047_storage": {
        "encoding": "inplace",
        "label": "struct SoulLinker.LinkData",
        "members": [
          {
            "astId": 4040,
            "contract": "contracts/SoulLinker.sol:SoulLinker",
            "label": "exists",
            "offset": 0,
            "slot": "0",
            "type": "t_bool"
          },
          {
            "astId": 4042,
            "contract": "contracts/SoulLinker.sol:SoulLinker",
            "label": "ownerIdentityId",
            "offset": 0,
            "slot": "1",
            "type": "t_uint256"
          },
          {
            "astId": 4044,
            "contract": "contracts/SoulLinker.sol:SoulLinker",
            "label": "expirationDate",
            "offset": 0,
            "slot": "2",
            "type": "t_uint256"
          },
          {
            "astId": 4046,
            "contract": "contracts/SoulLinker.sol:SoulLinker",
            "label": "isRevoked",
            "offset": 0,
            "slot": "3",
            "type": "t_bool"
          }
        ],
        "numberOfBytes": "128"
      },
      "t_struct(ReaderLink)4054_storage": {
        "encoding": "inplace",
        "label": "struct SoulLinker.ReaderLink",
        "members": [
          {
            "astId": 4049,
            "contract": "contracts/SoulLinker.sol:SoulLinker",
            "label": "token",
            "offset": 0,
            "slot": "0",
            "type": "t_address"
          },
          {
            "astId": 4051,
            "contract": "contracts/SoulLinker.sol:SoulLinker",
            "label": "tokenId",
            "offset": 0,
            "slot": "1",
            "type": "t_uint256"
          },
          {
            "astId": 4053,
            "contract": "contracts/SoulLinker.sol:SoulLinker",
            "label": "signatureDate",
            "offset": 0,
            "slot": "2",
            "type": "t_uint256"
          }
        ],
        "numberOfBytes": "96"
      },
      "t_struct(RoleData)19_storage": {
        "encoding": "inplace",
        "label": "struct AccessControl.RoleData",
        "members": [
          {
            "astId": 16,
            "contract": "contracts/SoulLinker.sol:SoulLinker",
            "label": "members",
            "offset": 0,
            "slot": "0",
            "type": "t_mapping(t_address,t_bool)"
          },
          {
            "astId": 18,
            "contract": "contracts/SoulLinker.sol:SoulLinker",
            "label": "adminRole",
            "offset": 0,
            "slot": "1",
            "type": "t_bytes32"
          }
        ],
        "numberOfBytes": "64"
      },
      "t_uint256": {
        "encoding": "inplace",
        "label": "uint256",
        "numberOfBytes": "32"
      }
    }
  }
}