{
  "address": "0x1B830e25CcBf8C0D512653800a294876fA658c67",
  "abi": [
    {
      "inputs": [
        {
          "internalType": "address",
          "name": "admin",
          "type": "address"
        },
        {
          "internalType": "contract ISoulboundIdentity",
          "name": "_soulBoundIdentity",
          "type": "address"
        },
        {
          "internalType": "uint256",
          "name": "_nameRegistrationPricePerYear",
          "type": "uint256"
        },
        {
          "components": [
            {
              "internalType": "address",
              "name": "swapRouter",
              "type": "address"
            },
            {
              "internalType": "address",
              "name": "wrappedNativeToken",
              "type": "address"
            },
            {
              "internalType": "address",
              "name": "stableCoin",
              "type": "address"
            },
            {
              "internalType": "address",
              "name": "masaToken",
              "type": "address"
            },
            {
              "internalType": "address",
              "name": "reserveWallet",
              "type": "address"
            }
          ],
          "internalType": "struct PaymentGateway.PaymentParams",
          "name": "paymentParams",
          "type": "tuple"
        }
      ],
      "stateMutability": "nonpayable",
      "type": "constructor"
    },
    {
      "inputs": [],
      "name": "AlreadyAdded",
      "type": "error"
    },
    {
      "inputs": [
        {
          "internalType": "address",
          "name": "authority",
          "type": "address"
        }
      ],
      "name": "AuthorityNotExists",
      "type": "error"
    },
    {
      "inputs": [
        {
          "internalType": "uint256",
          "name": "amount",
          "type": "uint256"
        }
      ],
      "name": "InsufficientEthAmount",
      "type": "error"
    },
    {
      "inputs": [
        {
          "internalType": "address",
          "name": "paymentMethod",
          "type": "address"
        }
      ],
      "name": "InvalidPaymentMethod",
      "type": "error"
    },
    {
      "inputs": [],
      "name": "InvalidSignature",
      "type": "error"
    },
    {
      "inputs": [
        {
          "internalType": "address",
          "name": "token",
          "type": "address"
        }
      ],
      "name": "InvalidToken",
      "type": "error"
    },
    {
      "inputs": [
        {
          "internalType": "address",
          "name": "erc20token",
          "type": "address"
        }
      ],
      "name": "NonExistingErc20Token",
      "type": "error"
    },
    {
      "inputs": [
        {
          "internalType": "address",
          "name": "signer",
          "type": "address"
        }
      ],
      "name": "NotAuthorized",
      "type": "error"
    },
    {
      "inputs": [],
      "name": "RefundFailed",
      "type": "error"
    },
    {
      "inputs": [],
      "name": "SameValue",
      "type": "error"
    },
    {
      "inputs": [],
      "name": "TransferFailed",
      "type": "error"
    },
    {
      "inputs": [],
      "name": "ZeroAddress",
      "type": "error"
    },
    {
      "anonymous": false,
      "inputs": [
        {
          "indexed": false,
          "internalType": "address",
          "name": "account",
          "type": "address"
        }
      ],
      "name": "Paused",
      "type": "event"
    },
    {
      "anonymous": false,
      "inputs": [
        {
          "indexed": true,
          "internalType": "bytes32",
          "name": "role",
          "type": "bytes32"
        },
        {
          "indexed": true,
          "internalType": "bytes32",
          "name": "previousAdminRole",
          "type": "bytes32"
        },
        {
          "indexed": true,
          "internalType": "bytes32",
          "name": "newAdminRole",
          "type": "bytes32"
        }
      ],
      "name": "RoleAdminChanged",
      "type": "event"
    },
    {
      "anonymous": false,
      "inputs": [
        {
          "indexed": true,
          "internalType": "bytes32",
          "name": "role",
          "type": "bytes32"
        },
        {
          "indexed": true,
          "internalType": "address",
          "name": "account",
          "type": "address"
        },
        {
          "indexed": true,
          "internalType": "address",
          "name": "sender",
          "type": "address"
        }
      ],
      "name": "RoleGranted",
      "type": "event"
    },
    {
      "anonymous": false,
      "inputs": [
        {
          "indexed": true,
          "internalType": "bytes32",
          "name": "role",
          "type": "bytes32"
        },
        {
          "indexed": true,
          "internalType": "address",
          "name": "account",
          "type": "address"
        },
        {
          "indexed": true,
          "internalType": "address",
          "name": "sender",
          "type": "address"
        }
      ],
      "name": "RoleRevoked",
      "type": "event"
    },
    {
      "anonymous": false,
      "inputs": [
        {
          "indexed": true,
          "internalType": "address",
          "name": "account",
          "type": "address"
        },
        {
          "indexed": false,
          "internalType": "uint256",
          "name": "tokenId",
          "type": "uint256"
        },
        {
          "indexed": true,
          "internalType": "string",
          "name": "name",
          "type": "string"
        },
        {
          "indexed": false,
          "internalType": "uint256",
          "name": "yearsPeriod",
          "type": "uint256"
        }
      ],
      "name": "SoulNamePurchased",
      "type": "event"
    },
    {
      "anonymous": false,
      "inputs": [
        {
          "indexed": true,
          "internalType": "address",
          "name": "account",
          "type": "address"
        },
        {
          "indexed": false,
          "internalType": "uint256",
          "name": "tokenId",
          "type": "uint256"
        },
        {
          "indexed": true,
          "internalType": "string",
          "name": "name",
          "type": "string"
        },
        {
          "indexed": false,
          "internalType": "uint256",
          "name": "yearsPeriod",
          "type": "uint256"
        }
      ],
      "name": "SoulboundIdentityAndNamePurchased",
      "type": "event"
    },
    {
      "anonymous": false,
      "inputs": [
        {
          "indexed": true,
          "internalType": "address",
          "name": "account",
          "type": "address"
        },
        {
          "indexed": false,
          "internalType": "uint256",
          "name": "tokenId",
          "type": "uint256"
        }
      ],
      "name": "SoulboundIdentityPurchased",
      "type": "event"
    },
    {
      "anonymous": false,
      "inputs": [
        {
          "indexed": false,
          "internalType": "address",
          "name": "account",
          "type": "address"
        }
      ],
      "name": "Unpaused",
      "type": "event"
    },
    {
      "inputs": [],
      "name": "DEFAULT_ADMIN_ROLE",
      "outputs": [
        {
          "internalType": "bytes32",
          "name": "",
          "type": "bytes32"
        }
      ],
      "stateMutability": "view",
      "type": "function"
    },
    {
      "inputs": [
        {
          "internalType": "address",
          "name": "_authority",
          "type": "address"
        }
      ],
      "name": "addAuthority",
      "outputs": [],
      "stateMutability": "nonpayable",
      "type": "function"
    },
    {
      "inputs": [
        {
          "internalType": "address",
          "name": "",
          "type": "address"
        }
      ],
      "name": "authorities",
      "outputs": [
        {
          "internalType": "bool",
          "name": "",
          "type": "bool"
        }
      ],
      "stateMutability": "view",
      "type": "function"
    },
    {
      "inputs": [
        {
          "internalType": "address",
          "name": "_paymentMethod",
          "type": "address"
        }
      ],
      "name": "disablePaymentMethod",
      "outputs": [],
      "stateMutability": "nonpayable",
      "type": "function"
    },
    {
      "inputs": [
        {
          "internalType": "address",
          "name": "_paymentMethod",
          "type": "address"
        }
      ],
      "name": "enablePaymentMethod",
      "outputs": [],
      "stateMutability": "nonpayable",
      "type": "function"
    },
    {
      "inputs": [
        {
          "internalType": "address",
          "name": "",
          "type": "address"
        }
      ],
      "name": "enabledPaymentMethod",
      "outputs": [
        {
          "internalType": "bool",
          "name": "",
          "type": "bool"
        }
      ],
      "stateMutability": "view",
      "type": "function"
    },
    {
      "inputs": [
        {
          "internalType": "uint256",
          "name": "",
          "type": "uint256"
        }
      ],
      "name": "enabledPaymentMethods",
      "outputs": [
        {
          "internalType": "address",
          "name": "",
          "type": "address"
        }
      ],
      "stateMutability": "view",
      "type": "function"
    },
    {
      "inputs": [],
      "name": "getEnabledPaymentMethods",
      "outputs": [
        {
          "internalType": "address[]",
          "name": "",
          "type": "address[]"
        }
      ],
      "stateMutability": "view",
      "type": "function"
    },
    {
      "inputs": [
        {
          "internalType": "uint256",
          "name": "nameLength",
          "type": "uint256"
        }
      ],
      "name": "getNameRegistrationPricePerYear",
      "outputs": [
        {
          "internalType": "uint256",
          "name": "",
          "type": "uint256"
        }
      ],
      "stateMutability": "view",
      "type": "function"
    },
    {
      "inputs": [
        {
          "internalType": "address",
          "name": "paymentMethod",
          "type": "address"
        },
        {
          "internalType": "uint256",
          "name": "nameLength",
          "type": "uint256"
        },
        {
          "internalType": "uint256",
          "name": "yearsPeriod",
          "type": "uint256"
        }
      ],
      "name": "getPriceForMintingName",
      "outputs": [
        {
          "internalType": "uint256",
          "name": "",
          "type": "uint256"
        }
      ],
      "stateMutability": "view",
      "type": "function"
    },
    {
      "inputs": [
        {
          "internalType": "bytes32",
          "name": "role",
          "type": "bytes32"
        }
      ],
      "name": "getRoleAdmin",
      "outputs": [
        {
          "internalType": "bytes32",
          "name": "",
          "type": "bytes32"
        }
      ],
      "stateMutability": "view",
      "type": "function"
    },
    {
      "inputs": [
        {
          "internalType": "bytes32",
          "name": "role",
          "type": "bytes32"
        },
        {
          "internalType": "address",
          "name": "account",
          "type": "address"
        }
      ],
      "name": "grantRole",
      "outputs": [],
      "stateMutability": "nonpayable",
      "type": "function"
    },
    {
      "inputs": [
        {
          "internalType": "bytes32",
          "name": "role",
          "type": "bytes32"
        },
        {
          "internalType": "address",
          "name": "account",
          "type": "address"
        }
      ],
      "name": "hasRole",
      "outputs": [
        {
          "internalType": "bool",
          "name": "",
          "type": "bool"
        }
      ],
      "stateMutability": "view",
      "type": "function"
    },
    {
      "inputs": [],
      "name": "masaToken",
      "outputs": [
        {
          "internalType": "address",
          "name": "",
          "type": "address"
        }
      ],
      "stateMutability": "view",
      "type": "function"
    },
    {
      "inputs": [
        {
          "internalType": "uint256",
          "name": "",
          "type": "uint256"
        }
      ],
      "name": "nameRegistrationPricePerYear",
      "outputs": [
        {
          "internalType": "uint256",
          "name": "",
          "type": "uint256"
        }
      ],
      "stateMutability": "view",
      "type": "function"
    },
    {
      "inputs": [],
      "name": "pause",
      "outputs": [],
      "stateMutability": "nonpayable",
      "type": "function"
    },
    {
      "inputs": [],
      "name": "paused",
      "outputs": [
        {
          "internalType": "bool",
          "name": "",
          "type": "bool"
        }
      ],
      "stateMutability": "view",
      "type": "function"
    },
    {
      "inputs": [],
      "name": "purchaseIdentity",
      "outputs": [
        {
          "internalType": "uint256",
          "name": "",
          "type": "uint256"
        }
      ],
      "stateMutability": "nonpayable",
      "type": "function"
    },
    {
      "inputs": [
        {
          "internalType": "address",
          "name": "paymentMethod",
          "type": "address"
        },
        {
          "internalType": "string",
          "name": "name",
          "type": "string"
        },
        {
          "internalType": "uint256",
          "name": "nameLength",
          "type": "uint256"
        },
        {
          "internalType": "uint256",
          "name": "yearsPeriod",
          "type": "uint256"
        },
        {
          "internalType": "string",
          "name": "tokenURI",
          "type": "string"
        },
        {
          "internalType": "address",
          "name": "authorityAddress",
          "type": "address"
        },
        {
          "internalType": "bytes",
          "name": "signature",
          "type": "bytes"
        }
      ],
      "name": "purchaseIdentityAndName",
      "outputs": [
        {
          "internalType": "uint256",
          "name": "",
          "type": "uint256"
        }
      ],
      "stateMutability": "payable",
      "type": "function"
    },
    {
      "inputs": [
        {
          "internalType": "address",
          "name": "paymentMethod",
          "type": "address"
        },
        {
          "internalType": "address",
          "name": "to",
          "type": "address"
        },
        {
          "internalType": "string",
          "name": "name",
          "type": "string"
        },
        {
          "internalType": "uint256",
          "name": "nameLength",
          "type": "uint256"
        },
        {
          "internalType": "uint256",
          "name": "yearsPeriod",
          "type": "uint256"
        },
        {
          "internalType": "string",
          "name": "tokenURI",
          "type": "string"
        },
        {
          "internalType": "address",
          "name": "authorityAddress",
          "type": "address"
        },
        {
          "internalType": "bytes",
          "name": "signature",
          "type": "bytes"
        }
      ],
      "name": "purchaseName",
      "outputs": [
        {
          "internalType": "uint256",
          "name": "",
          "type": "uint256"
        }
      ],
      "stateMutability": "payable",
      "type": "function"
    },
    {
      "inputs": [
        {
          "internalType": "address",
          "name": "_authority",
          "type": "address"
        }
      ],
      "name": "removeAuthority",
      "outputs": [],
      "stateMutability": "nonpayable",
      "type": "function"
    },
    {
      "inputs": [
        {
          "internalType": "bytes32",
          "name": "role",
          "type": "bytes32"
        },
        {
          "internalType": "address",
          "name": "account",
          "type": "address"
        }
      ],
      "name": "renounceRole",
      "outputs": [],
      "stateMutability": "nonpayable",
      "type": "function"
    },
    {
      "inputs": [],
      "name": "reserveWallet",
      "outputs": [
        {
          "internalType": "address",
          "name": "",
          "type": "address"
        }
      ],
      "stateMutability": "view",
      "type": "function"
    },
    {
      "inputs": [
        {
          "internalType": "bytes32",
          "name": "role",
          "type": "bytes32"
        },
        {
          "internalType": "address",
          "name": "account",
          "type": "address"
        }
      ],
      "name": "revokeRole",
      "outputs": [],
      "stateMutability": "nonpayable",
      "type": "function"
    },
    {
      "inputs": [
        {
          "internalType": "address",
          "name": "_masaToken",
          "type": "address"
        }
      ],
      "name": "setMasaToken",
      "outputs": [],
      "stateMutability": "nonpayable",
      "type": "function"
    },
    {
      "inputs": [
        {
          "internalType": "uint256",
          "name": "_nameLength",
          "type": "uint256"
        },
        {
          "internalType": "uint256",
          "name": "_nameRegistrationPricePerYear",
          "type": "uint256"
        }
      ],
      "name": "setNameRegistrationPricePerYear",
      "outputs": [],
      "stateMutability": "nonpayable",
      "type": "function"
    },
    {
      "inputs": [
        {
          "internalType": "address",
          "name": "_reserveWallet",
          "type": "address"
        }
      ],
      "name": "setReserveWallet",
      "outputs": [],
      "stateMutability": "nonpayable",
      "type": "function"
    },
    {
      "inputs": [
        {
          "internalType": "contract ISoulboundIdentity",
          "name": "_soulboundIdentity",
          "type": "address"
        }
      ],
      "name": "setSoulboundIdentity",
      "outputs": [],
      "stateMutability": "nonpayable",
      "type": "function"
    },
    {
      "inputs": [
        {
          "internalType": "address",
          "name": "_stableCoin",
          "type": "address"
        }
      ],
      "name": "setStableCoin",
      "outputs": [],
      "stateMutability": "nonpayable",
      "type": "function"
    },
    {
      "inputs": [
        {
          "internalType": "address",
          "name": "_swapRouter",
          "type": "address"
        }
      ],
      "name": "setSwapRouter",
      "outputs": [],
      "stateMutability": "nonpayable",
      "type": "function"
    },
    {
      "inputs": [
        {
          "internalType": "address",
          "name": "_wrappedNativeToken",
          "type": "address"
        }
      ],
      "name": "setWrappedNativeToken",
      "outputs": [],
      "stateMutability": "nonpayable",
      "type": "function"
    },
    {
      "inputs": [],
      "name": "soulboundIdentity",
      "outputs": [
        {
          "internalType": "contract ISoulboundIdentity",
          "name": "",
          "type": "address"
        }
      ],
      "stateMutability": "view",
      "type": "function"
    },
    {
      "inputs": [],
      "name": "stableCoin",
      "outputs": [
        {
          "internalType": "address",
          "name": "",
          "type": "address"
        }
      ],
      "stateMutability": "view",
      "type": "function"
    },
    {
      "inputs": [
        {
          "internalType": "bytes4",
          "name": "interfaceId",
          "type": "bytes4"
        }
      ],
      "name": "supportsInterface",
      "outputs": [
        {
          "internalType": "bool",
          "name": "",
          "type": "bool"
        }
      ],
      "stateMutability": "view",
      "type": "function"
    },
    {
      "inputs": [],
      "name": "swapRouter",
      "outputs": [
        {
          "internalType": "address",
          "name": "",
          "type": "address"
        }
      ],
      "stateMutability": "view",
      "type": "function"
    },
    {
      "inputs": [],
      "name": "unpause",
      "outputs": [],
      "stateMutability": "nonpayable",
      "type": "function"
    },
    {
      "inputs": [],
      "name": "wrappedNativeToken",
      "outputs": [
        {
          "internalType": "address",
          "name": "",
          "type": "address"
        }
      ],
      "stateMutability": "view",
      "type": "function"
    }
  ],
  "transactionHash": "0xd942ffd7b71f926cde3837631a43f6f9ac616c25d751c9eb03895f6d49d7c934",
  "args": [
    "0x46c9cdA3F83C5c13C767A07b6E80aEd302E40B28",
    "0xcb85D14082B67e470fD9C2979F3A75341124a338",
    "0",
    [
      "0xE3D8bd6Aed4F159bc8000a9cD47CffDb95F96121",
      "0xf194afdf50b03e69bd7d057c1aa9e10c9954e4c9",
      "0x874069Fa1Eb16D44d622F2e0Ca25eeA172369bC1",
      "0x7d91E51C8F218f7140188A155f5C75388630B6a8",
      "0x46c9cdA3F83C5c13C767A07b6E80aEd302E40B28"
    ]
  ],
  "numDeployments": 1,
  "solcInputHash": "566e14144035b820d41594e721700474",
  "bytecode": "0x6101406040523480156200001257600080fd5b50604051620036d9380380620036d9833981016040819052620000359162000446565b60405180604001604052806009815260200168536f756c53746f726560b81b815250604051806040016040528060058152602001640312e302e360dc1b815250858360006001600160a01b031681600001516001600160a01b03161415620000b05760405163d92e233d60e01b815260040160405180910390fd5b60208101516001600160a01b0316620000dc5760405163d92e233d60e01b815260040160405180910390fd5b60408101516001600160a01b0316620001085760405163d92e233d60e01b815260040160405180910390fd5b60808101516001600160a01b0316620001345760405163d92e233d60e01b815260040160405180910390fd5b620001416000836200029b565b8051600180546001600160a01b03199081166001600160a01b0393841617825560208085015160028054841691861691909117905560408501516003805484169186169190911790556060850151600480549093169085161790915560809093015160078054919093166001600160a81b03199091161790915560085583518482012083519184019190912060e08290526101008190524660a0529091507f8b73c3c69bb8fe3d512ecc4cf759cc79239f7b179b0ffacaa9a75d522b39400f6200020d81848462000324565b6080523060601b60c05261012052505050506001600160a01b038316620002475760405163d92e233d60e01b815260040160405180910390fd5b50600980546001600160a01b0319166001600160a01b03939093169290921790915560008052600a6020527f13da86008ba1c6922daee3e07db95305ef49ebced9f5467a0b8613fcc6b343e35550620005d2565b620002a7828262000360565b62000320576000828152602081815260408083206001600160a01b03851684529091529020805460ff19166001179055620002df3390565b6001600160a01b0316816001600160a01b0316837f2f8788117e7eff1d82e926ec794901d17c78024a50270940304540a733656f0d60405160405180910390a45b5050565b6000838383463060405160200162000341959493929190620004cd565b6040516020818303038152906040528051906020012090509392505050565b6000828152602081815260408083206001600160a01b038516845290915290205460ff165b92915050565b80516200038581620005a6565b80516200038581620005c0565b600060a08284031215620003bc57620003bc600080fd5b620003c860a062000523565b90506000620003d884846200038b565b8252506020620003eb848483016200038b565b602083015250604062000401848285016200038b565b604083015250606062000417848285016200038b565b60608301525060806200042d848285016200038b565b60808301525092915050565b80516200038581620005cb565b6000806000806101008587031215620004625762000462600080fd5b60006200047087876200038b565b9450506020620004838782880162000398565b9350506040620004968782880162000439565b9250506060620004a987828801620003a5565b91505092959194509250565b620004c08162000542565b82525050565b80620004c0565b60a08101620004dd8288620004c6565b620004ec6020830187620004c6565b620004fb6040830186620004c6565b6200050a6060830185620004c6565b620005196080830184620004b5565b9695505050505050565b60006200052f60405190565b90506200053d828262000561565b919050565b60006001600160a01b03821662000385565b6000620003858262000542565b601f19601f83011681018181106001600160401b038211171562000589576200058962000590565b6040525050565b634e487b7160e01b600052604160045260246000fd5b620005b18162000542565b8114620005bd57600080fd5b50565b620005b18162000554565b80620005b1565b60805160a05160c05160601c60e05161010051610120516130b4620006256000396000611f1801526000611f5a01526000611f3901526000611e9d01526000611ec701526000611ef101526130b46000f3fe6080604052600436106101aa5760003560e01c806301ffc9a7146101af5780630513c3e9146101e5578063102005191461021257806312553e411461023457806317fcb39b1461025657806323af4e1714610276578063248a9ca31461029857806326defa73146102b85780632f2ff15d146102d857806336568abe146102f85780633ad3033e146103185780633f4ba83a14610338578063412736571461034d5780634e273d211461036d5780635a3946751461038d5780635c975abb146103a057806374a99f8b146103b557806376ad1997146103d557806377bed5ed146103f55780637a0d1646146104225780638456cb591461045257806390ce84161461046757806391223d691461048757806391d14854146104b757806394a665e9146104d7578063992642e5146104f7578063a217fddf14610517578063c31c9c071461052c578063c86aadb61461054c578063d544e0101461056c578063d547741f1461058c578063d72b11bd146105ac578063da058ae3146105cc578063dda4fa8f146105ec578063eaf94aec1461060c578063ebda439614610639578063f615283a14610659575b600080fd5b3480156101bb57600080fd5b506101cf6101ca36600461273b565b61066c565b6040516101dc9190612c5f565b60405180910390f35b3480156101f157600080fd5b506102056102003660046126dd565b6106a3565b6040516101dc9190612bd7565b34801561021e57600080fd5b506102276106cd565b6040516101dc9190612c4e565b34801561024057600080fd5b5061024961072f565b6040516101dc9190612c6d565b34801561026257600080fd5b50600254610205906001600160a01b031681565b34801561028257600080fd5b5061029661029136600461241b565b610759565b005b3480156102a457600080fd5b506102496102b33660046126dd565b6107dd565b3480156102c457600080fd5b506102966102d336600461241b565b6107f2565b3480156102e457600080fd5b506102966102f33660046126fe565b610883565b34801561030457600080fd5b506102966103133660046126fe565b6108a4565b34801561032457600080fd5b5061029661033336600461277d565b6108e3565b34801561034457600080fd5b50610296610967565b34801561035957600080fd5b5061029661036836600461241b565b61097d565b34801561037957600080fd5b506102496103883660046126dd565b610a01565b61024961039b36600461243c565b610a46565b3480156103ac57600080fd5b506101cf610a95565b3480156103c157600080fd5b506102966103d03660046127bf565b610aa5565b3480156103e157600080fd5b506102966103f036600461241b565b610af2565b34801561040157600080fd5b50600954610415906001600160a01b031681565b6040516101dc9190612d4b565b34801561042e57600080fd5b506101cf61043d36600461241b565b60056020526000908152604090205460ff1681565b34801561045e57600080fd5b50610296610b4f565b34801561047357600080fd5b50610249610482366004612632565b610b62565b34801561049357600080fd5b506101cf6104a236600461241b565b600b6020526000908152604090205460ff1681565b3480156104c357600080fd5b506101cf6104d23660046126fe565b610c21565b3480156104e357600080fd5b506102966104f236600461241b565b610c4a565b34801561050357600080fd5b50600354610205906001600160a01b031681565b34801561052357600080fd5b50610249600081565b34801561053857600080fd5b50600154610205906001600160a01b031681565b34801561055857600080fd5b5061029661056736600461241b565b610db7565b34801561057857600080fd5b5061029661058736600461241b565b610e63565b34801561059857600080fd5b506102966105a73660046126fe565b610ef2565b3480156105b857600080fd5b50600754610205906001600160a01b031681565b3480156105d857600080fd5b506102966105e736600461241b565b610f0e565b3480156105f857600080fd5b5061029661060736600461241b565b610f92565b34801561061857600080fd5b506102496106273660046126dd565b600a6020526000908152604090205481565b34801561064557600080fd5b50600454610205906001600160a01b031681565b610249610667366004612541565b611016565b60006001600160e01b03198216637965db0b60e01b148061069d57506301ffc9a760e01b6001600160e01b03198316145b92915050565b600681815481106106b357600080fd5b6000918252602090912001546001600160a01b0316905081565b6060600680548060200260200160405190810160405280929190818152602001828054801561072557602002820191906000526020600020905b81546001600160a01b03168152600190910190602001808311610707575b5050505050905090565b600061073961105f565b610741611086565b61074a336110b0565b90506107566001600855565b90565b600061076481611180565b6001600160a01b03821661078b5760405163d92e233d60e01b815260040160405180910390fd5b6003546001600160a01b03838116911614156107ba5760405163c23f6ccb60e01b815260040160405180910390fd5b50600380546001600160a01b0319166001600160a01b0392909216919091179055565b60009081526020819052604090206001015490565b60006107fd81611180565b6001600160a01b0382166108245760405163d92e233d60e01b815260040160405180910390fd5b6001600160a01b0382166000908152600b602052604090205460ff161561085e5760405163f411c32760e01b815260040160405180910390fd5b506001600160a01b03166000908152600b60205260409020805460ff19166001179055565b61088c826107dd565b61089581611180565b61089f838361118a565b505050565b6001600160a01b03811633146108d55760405162461bcd60e51b81526004016108cc90612e0a565b60405180910390fd5b6108df828261120e565b5050565b60006108ee81611180565b6001600160a01b0382166109155760405163d92e233d60e01b815260040160405180910390fd5b6009546001600160a01b03838116911614156109445760405163c23f6ccb60e01b815260040160405180910390fd5b50600980546001600160a01b0319166001600160a01b0392909216919091179055565b600061097281611180565b61097a611273565b50565b600061098881611180565b6001600160a01b0382166109af5760405163d92e233d60e01b815260040160405180910390fd5b6001546001600160a01b03838116911614156109de5760405163c23f6ccb60e01b815260040160405180910390fd5b50600180546001600160a01b0319166001600160a01b0392909216919091179055565b6000818152600a60205260408120548061069d5750506000805250600a6020527f13da86008ba1c6922daee3e07db95305ef49ebced9f5467a0b8613fcc6b343e35490565b6000610a5061105f565b610a58611086565b610a6c8a610a678c8a8a610b62565b6112c2565b610a7c898989898989898961146e565b9050610a886001600855565b9998505050505050505050565b600754600160a01b900460ff1690565b6000610ab081611180565b6000838152600a6020526040902054821415610adf5760405163c23f6ccb60e01b815260040160405180910390fd5b506000918252600a602052604090912055565b6000610afd81611180565b6004546001600160a01b0383811691161415610b2c5760405163c23f6ccb60e01b815260040160405180910390fd5b50600480546001600160a01b0319166001600160a01b0392909216919091179055565b6000610b5a81611180565b61097a61162c565b600080610b7883610b7286610a01565b9061166f565b905080610b89576000915050610c1a565b6003546001600160a01b038681169116148015610bbe57506001600160a01b03851660009081526005602052604090205460ff165b15610bca579050610c1a565b6001600160a01b03851660009081526005602052604090205460ff1615610bfd57610bf5858261167b565b915050610c1a565b84604051630ac29ab760e31b81526004016108cc9190612bd7565b505b9392505050565b6000918252602082815260408084206001600160a01b0393909316845291905290205460ff1690565b6000610c5581611180565b6001600160a01b03821660009081526005602052604090205460ff16610c9057816040516318317bd560e01b81526004016108cc9190612bd7565b6001600160a01b0382166000908152600560205260408120805460ff191690555b60065481101561089f57826001600160a01b031660068281548110610cd857610cd861300d565b6000918252602090912001546001600160a01b03161415610da55760068054610d0390600190612ef6565b81548110610d1357610d1361300d565b600091825260209091200154600680546001600160a01b039092169183908110610d3f57610d3f61300d565b9060005260206000200160006101000a8154816001600160a01b0302191690836001600160a01b031602179055506006805480610d7e57610d7e612ff7565b600082815260209020810160001990810180546001600160a01b0319169055019055505050565b80610daf81612fb0565b915050610cb1565b6000610dc281611180565b6001600160a01b03821660009081526005602052604090205460ff1615610dfc5760405163f411c32760e01b815260040160405180910390fd5b506001600160a01b03166000818152600560205260408120805460ff191660019081179091556006805491820181559091527ff652222313e28459528d920b65115c16c04f3efc82aaedc97be59f3f377c0d3f0180546001600160a01b0319169091179055565b6000610e6e81611180565b6001600160a01b038216610e955760405163d92e233d60e01b815260040160405180910390fd5b6001600160a01b0382166000908152600b602052604090205460ff16610ed057816040516324b1f80560e21b81526004016108cc9190612bd7565b506001600160a01b03166000908152600b60205260409020805460ff19169055565b610efb826107dd565b610f0481611180565b61089f838361120e565b6000610f1981611180565b6001600160a01b038216610f405760405163d92e233d60e01b815260040160405180910390fd5b6002546001600160a01b0383811691161415610f6f5760405163c23f6ccb60e01b815260040160405180910390fd5b50600280546001600160a01b0319166001600160a01b0392909216919091179055565b6000610f9d81611180565b6001600160a01b038216610fc45760405163d92e233d60e01b815260040160405180910390fd5b6007546001600160a01b0383811691161415610ff35760405163c23f6ccb60e01b815260040160405180910390fd5b50600780546001600160a01b0319166001600160a01b0392909216919091179055565b600061102061105f565b611028611086565b61103789610a678b8a8a610b62565b611047338989898989898961171a565b90506110536001600855565b98975050505050505050565b611067610a95565b156110845760405162461bcd60e51b81526004016108cc90612dca565b565b600260085414156110a95760405162461bcd60e51b81526004016108cc90612dfa565b6002600855565b6009546040516335313c2160e11b815260009182916001600160a01b0390911690636a627842906110e5908690600401612bd7565b602060405180830381600087803b1580156110ff57600080fd5b505af1158015611113573d6000803e3d6000fd5b505050506040513d601f19601f82011682018060405250810190611137919061279e565b9050826001600160a01b03167fe6fdadff80ae44015b9aa37d4edb70f70a8db7535a0df98de6dc5ffd11ec0c2f826040516111729190612c6d565b60405180910390a292915050565b61097a813361181d565b6111948282610c21565b6108df576000828152602081815260408083206001600160a01b03851684529091529020805460ff191660011790556111ca3390565b6001600160a01b0316816001600160a01b0316837f2f8788117e7eff1d82e926ec794901d17c78024a50270940304540a733656f0d60405160405180910390a45050565b6112188282610c21565b156108df576000828152602081815260408083206001600160a01b0385168085529252808320805460ff1916905551339285917ff6391f5c32d9c69d2a47ea670b442974b53935d1edc7fd64eb21e047a839171b9190a45050565b61127b611876565b6007805460ff60a01b191690557f5db9ee0a495bf2e6ff9c91a7834c1ba4fdd244a5e8aa4e537bd38aeae4b073aa335b6040516112b89190612bd7565b60405180910390a1565b806112cb575050565b6001600160a01b03821660009081526005602052604090205460ff166113065781604051630ac29ab760e31b81526004016108cc9190612bd7565b6001600160a01b0382166114525780341015611337578060405163091a6d0f60e01b81526004016108cc9190612c6d565b6007546040516000916001600160a01b031690839061135590612b7d565b60006040518083038185875af1925050503d8060008114611392576040519150601f19603f3d011682016040523d82523d6000602084013e611397565b606091505b50509050806113b9576040516312171d8360e31b815260040160405180910390fd5b8134111561089f5760006113cd348461189a565b9050336001600160a01b0316816040516113e690612b7d565b60006040518083038185875af1925050503d8060008114611423576040519150601f19603f3d011682016040523d82523d6000602084013e611428565b606091505b5050809250508161144c57604051633c31275160e21b815260040160405180910390fd5b50505050565b6007546108df906001600160a01b0384811691339116846118a6565b60006114be6114808a8a8a8a8a6118fe565b84848080601f016020809104026020016040519081016040528093929190818152602001838380828437600092019190915250899250611973915050565b6009546040805163b507d48160e01b815290516000926001600160a01b03169163b507d481916004808301926020929190829003018186803b15801561150357600080fd5b505afa158015611517573d6000803e3d6000fd5b505050506040513d601f19601f8201168201806040525081019061153b919061275c565b90506000816001600160a01b0316633dd904308c8c8b8b6040518563ffffffff1660e01b81526004016115719493929190612c0d565b602060405180830381600087803b15801561158b57600080fd5b505af115801561159f573d6000803e3d6000fd5b505050506040513d601f19601f820116820180604052508101906115c3919061279e565b9050896040516115d39190612b3e565b60405180910390208b6001600160a01b03167f32044e50415e96c0068a718b8df9993f4803b2e54518d56c52ef6438a91619aa838b604051611616929190612e3a565b60405180910390a39a9950505050505050505050565b61163461105f565b6007805460ff60a01b1916600160a01b1790557f62e78cea01bee320cd4e420270b5ea74000d11b0c9f74754ebdbfc544b05a2586112ab3390565b6000610c1a8284612ed7565b6001600160a01b03821660009081526005602052604081205460ff1615806116b057506003546001600160a01b038481169116145b156116d0578260405163961c9a4f60e01b81526004016108cc9190612bd7565b6001600160a01b038316611702576002546003546116fb916001600160a01b039081169116846119ee565b905061069d565b6003546116fb9084906001600160a01b0316846119ee565b600061172c6114808a8a8a8a8a6118fe565b6009546040516328a0a29f60e11b81526000916001600160a01b031690635141453e90611763908d908d908c908c90600401612c0d565b602060405180830381600087803b15801561177d57600080fd5b505af1158015611791573d6000803e3d6000fd5b505050506040513d601f19601f820116820180604052508101906117b5919061279e565b9050886040516117c59190612b3e565b60405180910390208a6001600160a01b03167f60579b770d8bde9b5f57c468ffb4acb023252b190304137b45b86b72f66a1940838a604051611808929190612e3a565b60405180910390a39998505050505050505050565b6118278282610c21565b6108df5761183481611aac565b61183f836020611abe565b604051602001611850929190612b85565b60408051601f198184030181529082905262461bcd60e51b82526108cc91600401612d59565b61187e610a95565b6110845760405162461bcd60e51b81526004016108cc90612d8a565b6000610c1a8284612ef6565b61144c846323b872dd60e01b8585856040516024016118c793929190612be5565b60408051601f198184030181529190526020810180516001600160e01b03166001600160e01b031990931692909217909152611c29565b60006119677f7503a77cf463259868f167e5b04bb93b908e722f1d532d8a0635f83ea802a2c18787805190602001208787878051906020012060405160200161194c96959493929190612c7b565b60405160208183030381529060405280519060200120611cb8565b90505b95945050505050565b600061197f8484611ccb565b9050816001600160a01b0316816001600160a01b0316146119b357604051638baa579f60e01b815260040160405180910390fd5b6001600160a01b0381166000908152600b602052604090205460ff1661144c5780604051634a0bfec160e01b81526004016108cc9190612bd7565b60006060806119fd8686611ce7565b6001546040516307c0329d60e21b81529192506001600160a01b031690631f00ca7490611a309087908590600401612e1a565b60006040518083038186803b158015611a4857600080fd5b505afa158015611a5c573d6000803e3d6000fd5b505050506040513d6000823e601f3d908101601f19168201604052611a849190810190612682565b915081600081518110611a9957611a9961300d565b6020026020010151925050509392505050565b606061069d6001600160a01b03831660145b60606000611acd836002612ed7565b611ad8906002612ebf565b6001600160401b03811115611aef57611aef613023565b6040519080825280601f01601f191660200182016040528015611b19576020820181803683370190505b509050600360fc1b81600081518110611b3457611b3461300d565b60200101906001600160f81b031916908160001a905350600f60fb1b81600181518110611b6357611b6361300d565b60200101906001600160f81b031916908160001a9053506000611b87846002612ed7565b611b92906001612ebf565b90505b6001811115611c0a576f181899199a1a9b1b9c1cb0b131b232b360811b85600f1660108110611bc657611bc661300d565b1a60f81b828281518110611bdc57611bdc61300d565b60200101906001600160f81b031916908160001a90535060049490941c93611c0381612f6c565b9050611b95565b508315610c1a5760405162461bcd60e51b81526004016108cc90612d7a565b6000611c7e826040518060400160405280602081526020017f5361666545524332303a206c6f772d6c6576656c2063616c6c206661696c6564815250856001600160a01b0316611e799092919063ffffffff16565b80519091501561089f5780806020019051810190611c9c91906126bc565b61089f5760405162461bcd60e51b81526004016108cc90612dea565b600061069d611cc5611e90565b83611f83565b6000806000611cda8585611fb6565b91509150610c1881611ffc565b6002546060906001600160a01b0384811691161480611d1357506002546001600160a01b038381169116145b15611ddd57604080516002808252606082018352600092602083019080368337019050506002549091506001600160a01b03858116911614611d555783611d62565b6002546001600160a01b03165b81600081518110611d7557611d7561300d565b6001600160a01b039283166020918202929092010152600254848216911614611d9e5782611dab565b6002546001600160a01b03165b81600181518110611dbe57611dbe61300d565b6001600160a01b0390921660209283029190910190910152905061069d565b60408051600380825260808201909252600091602082016060803683370190505090508381600081518110611e1457611e1461300d565b6001600160a01b039283166020918202929092010152600254825191169082906001908110611e4557611e4561300d565b60200260200101906001600160a01b031690816001600160a01b0316815250508281600281518110611dbe57611dbe61300d565b6060611e8884846000856120af565b949350505050565b6000306001600160a01b037f000000000000000000000000000000000000000000000000000000000000000016148015611ee957507f000000000000000000000000000000000000000000000000000000000000000046145b15611f1357507f000000000000000000000000000000000000000000000000000000000000000090565b611f7e7f00000000000000000000000000000000000000000000000000000000000000007f00000000000000000000000000000000000000000000000000000000000000007f000000000000000000000000000000000000000000000000000000000000000061214b565b905090565b60008282604051602001611f98929190612b4a565b60405160208183030381529060405280519060200120905092915050565b600080825160411415611fed5760208301516040840151606085015160001a611fe187828585612185565b94509450505050611ff5565b506000905060025b9250929050565b600081600481111561201057612010612fe1565b14156120195750565b600181600481111561202d5761202d612fe1565b141561204b5760405162461bcd60e51b81526004016108cc90612d6a565b600281600481111561205f5761205f612fe1565b141561207d5760405162461bcd60e51b81526004016108cc90612d9a565b600381600481111561209157612091612fe1565b141561097a5760405162461bcd60e51b81526004016108cc90612daa565b6060824710156120d15760405162461bcd60e51b81526004016108cc90612dba565b600080866001600160a01b031685876040516120ed9190612b3e565b60006040518083038185875af1925050503d806000811461212a576040519150601f19603f3d011682016040523d82523d6000602084013e61212f565b606091505b509150915061214087838387612232565b979650505050505050565b60008383834630604051602001612166959493929190612cca565b6040516020818303038152906040528051906020012090509392505050565b6000806fa2a8918ca85bafe22016d0b997e4df60600160ff1b038311156121b25750600090506003612229565b6000600187878787604051600081526020016040526040516121d79493929190612d16565b6020604051602081039080840390855afa1580156121f9573d6000803e3d6000fd5b5050604051601f1901519150506001600160a01b03811661222257600060019250925050612229565b9150600090505b94509492505050565b6060831561226e578251612267576001600160a01b0385163b6122675760405162461bcd60e51b81526004016108cc90612dda565b5081611e88565b611e8883838151156122835781518083602001fd5b8060405162461bcd60e51b81526004016108cc9190612d59565b60006122b06122ab84612e71565b612e55565b905080838252602082019050828560208602820111156122d2576122d2600080fd5b60005b858110156122fe57816122e88882612410565b84525060209283019291909101906001016122d5565b5050509392505050565b60006123166122ab84612e94565b90508281526020810184848401111561233157612331600080fd5b610c18848285612f34565b803561069d81613043565b600082601f83011261235b5761235b600080fd5b8151611e8884826020860161229d565b805161069d81613057565b803561069d8161305f565b803561069d81613065565b60008083601f8401126123a1576123a1600080fd5b5081356001600160401b038111156123bb576123bb600080fd5b602083019150836001820283011115611ff557611ff5600080fd5b805161069d81613075565b803561069d81613075565b600082601f83011261240057612400600080fd5b8135611e88848260208601612308565b805161069d8161305f565b60006020828403121561243057612430600080fd5b6000611e88848461233c565b60008060008060008060008060006101008a8c03121561245e5761245e600080fd5b600061246a8c8c61233c565b995050602061247b8c828d0161233c565b98505060408a01356001600160401b0381111561249a5761249a600080fd5b6124a68c828d016123ec565b97505060606124b78c828d01612376565b96505060806124c88c828d01612376565b95505060a08a01356001600160401b038111156124e7576124e7600080fd5b6124f38c828d016123ec565b94505060c06125048c828d0161233c565b93505060e08a01356001600160401b0381111561252357612523600080fd5b61252f8c828d0161238c565b92509250509295985092959850929598565b60008060008060008060008060e0898b03121561256057612560600080fd5b600061256c8b8b61233c565b98505060208901356001600160401b0381111561258b5761258b600080fd5b6125978b828c016123ec565b97505060406125a88b828c01612376565b96505060606125b98b828c01612376565b95505060808901356001600160401b038111156125d8576125d8600080fd5b6125e48b828c016123ec565b94505060a06125f58b828c0161233c565b93505060c08901356001600160401b0381111561261457612614600080fd5b6126208b828c0161238c565b92509250509295985092959890939650565b60008060006060848603121561264a5761264a600080fd5b6000612656868661233c565b935050602061266786828701612376565b925050604061267886828701612376565b9150509250925092565b60006020828403121561269757612697600080fd5b81516001600160401b038111156126b0576126b0600080fd5b611e8884828501612347565b6000602082840312156126d1576126d1600080fd5b6000611e88848461236b565b6000602082840312156126f2576126f2600080fd5b6000611e888484612376565b6000806040838503121561271457612714600080fd5b60006127208585612376565b92505060206127318582860161233c565b9150509250929050565b60006020828403121561275057612750600080fd5b6000611e888484612381565b60006020828403121561277157612771600080fd5b6000611e8884846123d6565b60006020828403121561279257612792600080fd5b6000611e8884846123e1565b6000602082840312156127b3576127b3600080fd5b6000611e888484612410565b600080604083850312156127d5576127d5600080fd5b60006127e18585612376565b925050602061273185828601612376565b60006127fe8383612806565b505060200190565b61280f81612f0d565b82525050565b600061281f825190565b80845260209384019383018060005b8381101561285357815161284288826127f2565b97506020830192505060010161282e565b509495945050505050565b80151561280f565b8061280f565b6000612876825190565b612884818560208601612f40565b9290920192915050565b61280f81612f29565b60006128a1825190565b8084526020840193506128b8818560208601612f40565b6128c181613039565b9093019392505050565b601881526000602082017745434453413a20696e76616c6964207369676e617475726560401b815291505b5060200190565b60208082527f537472696e67733a20686578206c656e67746820696e73756666696369656e74910190815260006128f6565b601481526000602082017314185d5cd8589b194e881b9bdd081c185d5cd95960621b815291506128f6565b601f81526000602082017f45434453413a20696e76616c6964207369676e6174757265206c656e67746800815291506128f6565b602281526000602082017f45434453413a20696e76616c6964207369676e6174757265202773272076616c815261756560f01b602082015291505b5060400190565b602681526000602082017f416464726573733a20696e73756666696369656e742062616c616e636520666f8152651c8818d85b1b60d21b602082015291506129c9565b601081526000602082016f14185d5cd8589b194e881c185d5cd95960821b815291506128f6565b601d81526000602082017f416464726573733a2063616c6c20746f206e6f6e2d636f6e7472616374000000815291506128f6565b602a81526000602082017f5361666545524332303a204552433230206f7065726174696f6e20646964206e8152691bdd081cdd58d8d9595960b21b602082015291506129c9565b601f81526000602082017f5265656e7472616e637947756172643a207265656e7472616e742063616c6c00815291506128f6565b602f81526000602082017f416363657373436f6e74726f6c3a2063616e206f6e6c792072656e6f756e636581526e103937b632b9903337b91039b2b63360891b602082015291506129c9565b60ff811661280f565b6000610c1a828461286c565b61190160f01b81526002016000612b6282858061280f565b602082019150612b7382848061280f565b5060200192915050565b60008161069d565b76020b1b1b2b9b9a1b7b73a3937b61d1030b1b1b7bab73a1604d1b81526017016000612bb1828561286c565b7001034b99036b4b9b9b4b733903937b6329607d1b81526011019150611e88828461286c565b6020810161069d8284612806565b60608101612bf38286612806565b612c006020830185612806565b611e886040830184612866565b60808101612c1b8287612806565b8181036020830152612c2d8186612897565b9050612c3c6040830185612866565b81810360608301526119678184612897565b60208082528101610c1a8184612815565b6020810161069d828461285e565b6020810161069d8284612866565b60c08101612c898289612866565b612c966020830188612806565b612ca36040830187612866565b612cb06060830186612866565b612cbd6080830185612866565b61214060a0830184612866565b60a08101612cd88288612866565b612ce56020830187612866565b612cf26040830186612866565b612cff6060830185612866565b612d0c6080830184612806565b9695505050505050565b60808101612d248287612866565b612d316020830186612b35565b612d3e6040830185612866565b61196a6060830184612866565b6020810161069d828461288e565b60208082528101610c1a8184612897565b6020808252810161069d816128cb565b6020808252810161069d816128fd565b6020808252810161069d8161292f565b6020808252810161069d8161295a565b6020808252810161069d8161298e565b6020808252810161069d816129d0565b6020808252810161069d81612a13565b6020808252810161069d81612a3a565b6020808252810161069d81612a6e565b6020808252810161069d81612ab5565b6020808252810161069d81612ae9565b60408101612e288285612866565b8181036020830152611e888184612815565b60408101612e488285612866565b610c1a6020830184612866565b6000612e6060405190565b9050612e6c8282612f83565b919050565b60006001600160401b03821115612e8a57612e8a613023565b5060209081020190565b60006001600160401b03821115612ead57612ead613023565b612eb682613039565b60200192915050565b60008219821115612ed257612ed2612fcb565b500190565b6000816000190483118215151615612ef157612ef1612fcb565b500290565b600082821015612f0857612f08612fcb565b500390565b60006001600160a01b03821661069d565b600061069d82612f0d565b600061069d82612f1e565b82818337506000910152565b60005b83811015612f5b578181015183820152602001612f43565b8381111561144c5750506000910152565b600081612f7b57612f7b612fcb565b506000190190565b612f8c82613039565b81018181106001600160401b0382111715612fa957612fa9613023565b6040525050565b6000600019821415612fc457612fc4612fcb565b5060010190565b634e487b7160e01b600052601160045260246000fd5b634e487b7160e01b600052602160045260246000fd5b634e487b7160e01b600052603160045260246000fd5b634e487b7160e01b600052603260045260246000fd5b634e487b7160e01b600052604160045260246000fd5b601f01601f191690565b61304c81612f0d565b811461097a57600080fd5b80151561304c565b8061304c565b6001600160e01b0319811661304c565b61304c81612f1e56fea2646970667358221220a09604646280cb07e84326b73b53a8c3c199909b99777f993adc422608f19ed364736f6c63430008070033",
  "devdoc": {
    "author": "Masa Finance",
    "details": "From this smart contract we can mint new Soulbound Identities and Soul Name NFTs. This minting can be done paying a fee in ETH, USDC or MASA",
    "kind": "dev",
    "methods": {
      "addAuthority(address)": {
        "details": "The caller must have the admin role to call this function",
        "params": {
          "_authority": "New authority to add"
        }
      },
      "constructor": {
        "details": "Creates a new Soul Store, that has the role to minting new Soulbound Identities and Soul Name NFTs, paying a fee",
        "params": {
          "_nameRegistrationPricePerYear": "Price of the default name registering in stable coin per year",
          "_soulBoundIdentity": "Address of the Soulbound identity contract",
          "admin": "Administrator of the smart contract",
          "paymentParams": "Payment gateway params"
        }
      },
      "disablePaymentMethod(address)": {
        "details": "The caller must have the admin role to call this function",
        "params": {
          "_paymentMethod": "Token to remove"
        }
      },
      "enablePaymentMethod(address)": {
        "details": "The caller must have the admin role to call this function",
        "params": {
          "_paymentMethod": "New token to add"
        }
      },
      "getEnabledPaymentMethods()": {
        "details": "Returns the address of all available payment methods",
        "returns": {
          "_0": "Array of all enabled payment methods"
        }
      },
      "getNameRegistrationPricePerYear(uint256)": {
        "details": "Returns the price for registering per year in USD for an specific name length",
        "params": {
          "nameLength": "Length of the name"
        },
        "returns": {
          "_0": "Price in stable coin for that name length"
        }
      },
      "getPriceForMintingName(address,uint256,uint256)": {
        "details": "Returns current pricing for name minting for a given name length and years period",
        "params": {
          "nameLength": "Length of the name",
          "paymentMethod": "Address of token that user want to pay",
          "yearsPeriod": "Years of validity of the name"
        },
        "returns": {
          "_0": "Current price of the name minting in the given payment method"
        }
      },
      "getRoleAdmin(bytes32)": {
        "details": "Returns the admin role that controls `role`. See {grantRole} and {revokeRole}. To change a role's admin, use {_setRoleAdmin}."
      },
      "grantRole(bytes32,address)": {
        "details": "Grants `role` to `account`. If `account` had not been already granted `role`, emits a {RoleGranted} event. Requirements: - the caller must have ``role``'s admin role. May emit a {RoleGranted} event."
      },
      "hasRole(bytes32,address)": {
        "details": "Returns `true` if `account` has been granted `role`."
      },
      "pause()": {
        "details": "The caller must have the admin role to call this function"
      },
      "paused()": {
        "details": "Returns true if the contract is paused, and false otherwise."
      },
      "purchaseIdentity()": {
        "details": "This function allows the purchase of a soulbound identity for free",
        "returns": {
          "_0": "TokenId of the new soulbound identity"
        }
      },
      "purchaseIdentityAndName(address,string,uint256,uint256,string,address,bytes)": {
        "details": "This function allows the purchase of a soulbound identity and name using stable coin (USDC), native token (ETH) or utility token (MASA)",
        "params": {
          "authorityAddress": "Address of the authority",
          "name": "Name of the new soul name",
          "nameLength": "Length of the name",
          "paymentMethod": "Address of token that user want to pay",
          "signature": "Signature of the authority",
          "tokenURI": "URI of the NFT",
          "yearsPeriod": "Years of validity of the name"
        },
        "returns": {
          "_0": "TokenId of the new soulbound identity"
        }
      },
      "purchaseName(address,address,string,uint256,uint256,string,address,bytes)": {
        "details": "This function allows the purchase of a soul name using stable coin (USDC), native token (ETH) or utility token (MASA)",
        "params": {
          "authorityAddress": "Address of the authority",
          "name": "Name of the new soul name",
          "nameLength": "Length of the name",
          "paymentMethod": "Address of token that user want to pay",
          "signature": "Signature of the authority",
          "to": "Address of the owner of the new soul name",
          "tokenURI": "URI of the NFT",
          "yearsPeriod": "Years of validity of the name"
        },
        "returns": {
          "_0": "TokenId of the new sou name"
        }
      },
      "removeAuthority(address)": {
        "details": "The caller must have the admin role to call this function",
        "params": {
          "_authority": "Authority to remove"
        }
      },
      "renounceRole(bytes32,address)": {
        "details": "Revokes `role` from the calling account. Roles are often managed via {grantRole} and {revokeRole}: this function's purpose is to provide a mechanism for accounts to lose their privileges if they are compromised (such as when a trusted device is misplaced). If the calling account had been revoked `role`, emits a {RoleRevoked} event. Requirements: - the caller must be `account`. May emit a {RoleRevoked} event."
      },
      "revokeRole(bytes32,address)": {
        "details": "Revokes `role` from `account`. If `account` had been granted `role`, emits a {RoleRevoked} event. Requirements: - the caller must have ``role``'s admin role. May emit a {RoleRevoked} event."
      },
      "setMasaToken(address)": {
        "details": "The caller must have the admin role to call this function It can be set to address(0) to disable paying in MASA",
        "params": {
          "_masaToken": "New utility token to pay the fee in"
        }
      },
      "setNameRegistrationPricePerYear(uint256,uint256)": {
        "details": "The caller must have the admin role to call this function",
        "params": {
          "_nameLength": "Length of the name",
          "_nameRegistrationPricePerYear": "New price of the name registering per one year in stable coin for that name length per year"
        }
      },
      "setReserveWallet(address)": {
        "details": "The caller must have the admin role to call this function",
        "params": {
          "_reserveWallet": "New reserve wallet"
        }
      },
      "setSoulboundIdentity(address)": {
        "details": "The caller must have the admin role to call this function",
        "params": {
          "_soulboundIdentity": "New SoulboundIdentity contract address"
        }
      },
      "setStableCoin(address)": {
        "details": "The caller must have the admin role to call this function",
        "params": {
          "_stableCoin": "New stable coin to pay the fee in"
        }
      },
      "setSwapRouter(address)": {
        "details": "The caller must have the admin role to call this function",
        "params": {
          "_swapRouter": "New swap router address"
        }
      },
      "setWrappedNativeToken(address)": {
        "details": "The caller must have the admin role to call this function",
        "params": {
          "_wrappedNativeToken": "New wrapped native token address"
        }
      },
      "supportsInterface(bytes4)": {
        "details": "See {IERC165-supportsInterface}."
      },
      "unpause()": {
        "details": "The caller must have the admin role to call this function"
      }
    },
    "title": "Soul Store",
    "version": 1
  },
  "userdoc": {
    "kind": "user",
    "methods": {
      "addAuthority(address)": {
        "notice": "Adds a new authority to the list of authorities"
      },
      "constructor": {
        "notice": "Creates a new Soul Store"
      },
      "disablePaymentMethod(address)": {
        "notice": "Removes a token as a valid payment method"
      },
      "enablePaymentMethod(address)": {
        "notice": "Adds a new token as a valid payment method"
      },
      "getEnabledPaymentMethods()": {
        "notice": "Returns all available payment methods"
      },
      "getNameRegistrationPricePerYear(uint256)": {
        "notice": "Returns the price of register a name per year in stable coin for an specific length"
      },
      "getPriceForMintingName(address,uint256,uint256)": {
        "notice": "Returns the price of the name minting"
      },
      "pause()": {
        "notice": "Pauses the smart contract"
      },
      "purchaseIdentity()": {
        "notice": "Mints a new Soulbound Identity purchasing it"
      },
      "purchaseIdentityAndName(address,string,uint256,uint256,string,address,bytes)": {
        "notice": "Mints a new Soulbound Identity and Name purchasing it"
      },
      "purchaseName(address,address,string,uint256,uint256,string,address,bytes)": {
        "notice": "Mints a new Soul Name purchasing it"
      },
      "removeAuthority(address)": {
        "notice": "Removes an authority from the list of authorities"
      },
      "setMasaToken(address)": {
        "notice": "Sets the utility token to pay the fee in (MASA)"
      },
      "setNameRegistrationPricePerYear(uint256,uint256)": {
        "notice": "Sets the price of the name registering per one year in stable coin"
      },
      "setReserveWallet(address)": {
        "notice": "Set the reserve wallet"
      },
      "setSoulboundIdentity(address)": {
        "notice": "Sets the SoulboundIdentity contract address linked to this store"
      },
      "setStableCoin(address)": {
        "notice": "Sets the stable coin to pay the fee in (USDC)"
      },
      "setSwapRouter(address)": {
        "notice": "Sets the swap router address"
      },
      "setWrappedNativeToken(address)": {
        "notice": "Sets the wrapped native token address"
      },
      "unpause()": {
        "notice": "Unpauses the smart contract"
      }
    },
    "notice": "Soul Store, that can mint new Soulbound Identities and Soul Name NFTs, paying a fee",
    "version": 1
  },
  "storageLayout": {
    "storage": [
      {
        "astId": 24,
        "contract": "contracts/SoulStore.sol:SoulStore",
        "label": "_roles",
        "offset": 0,
        "slot": "0",
        "type": "t_mapping(t_bytes32,t_struct(RoleData)19_storage)"
      },
      {
        "astId": 8571,
        "contract": "contracts/SoulStore.sol:SoulStore",
        "label": "swapRouter",
        "offset": 0,
        "slot": "1",
        "type": "t_address"
      },
      {
        "astId": 8573,
        "contract": "contracts/SoulStore.sol:SoulStore",
        "label": "wrappedNativeToken",
        "offset": 0,
        "slot": "2",
        "type": "t_address"
      },
      {
        "astId": 8575,
        "contract": "contracts/SoulStore.sol:SoulStore",
        "label": "stableCoin",
        "offset": 0,
        "slot": "3",
        "type": "t_address"
      },
      {
        "astId": 8577,
        "contract": "contracts/SoulStore.sol:SoulStore",
        "label": "masaToken",
        "offset": 0,
        "slot": "4",
        "type": "t_address"
      },
      {
        "astId": 8581,
        "contract": "contracts/SoulStore.sol:SoulStore",
        "label": "enabledPaymentMethod",
        "offset": 0,
        "slot": "5",
        "type": "t_mapping(t_address,t_bool)"
      },
      {
        "astId": 8584,
        "contract": "contracts/SoulStore.sol:SoulStore",
        "label": "enabledPaymentMethods",
        "offset": 0,
        "slot": "6",
        "type": "t_array(t_address)dyn_storage"
      },
      {
        "astId": 8586,
        "contract": "contracts/SoulStore.sol:SoulStore",
        "label": "reserveWallet",
        "offset": 0,
        "slot": "7",
        "type": "t_address"
      },
      {
        "astId": 519,
        "contract": "contracts/SoulStore.sol:SoulStore",
        "label": "_paused",
        "offset": 20,
        "slot": "7",
        "type": "t_bool"
      },
      {
        "astId": 620,
        "contract": "contracts/SoulStore.sol:SoulStore",
        "label": "_status",
        "offset": 0,
        "slot": "8",
        "type": "t_uint256"
      },
      {
        "astId": 7034,
        "contract": "contracts/SoulStore.sol:SoulStore",
        "label": "soulboundIdentity",
        "offset": 0,
        "slot": "9",
        "type": "t_contract(ISoulboundIdentity)9331"
      },
      {
        "astId": 7038,
        "contract": "contracts/SoulStore.sol:SoulStore",
        "label": "nameRegistrationPricePerYear",
        "offset": 0,
        "slot": "10",
        "type": "t_mapping(t_uint256,t_uint256)"
      },
      {
        "astId": 7042,
        "contract": "contracts/SoulStore.sol:SoulStore",
        "label": "authorities",
        "offset": 0,
        "slot": "11",
        "type": "t_mapping(t_address,t_bool)"
      }
    ],
    "types": {
      "t_address": {
        "encoding": "inplace",
        "label": "address",
        "numberOfBytes": "20"
      },
      "t_array(t_address)dyn_storage": {
        "base": "t_address",
        "encoding": "dynamic_array",
        "label": "address[]",
        "numberOfBytes": "32"
      },
      "t_bool": {
        "encoding": "inplace",
        "label": "bool",
        "numberOfBytes": "1"
      },
      "t_bytes32": {
        "encoding": "inplace",
        "label": "bytes32",
        "numberOfBytes": "32"
      },
      "t_contract(ISoulboundIdentity)9331": {
        "encoding": "inplace",
        "label": "contract ISoulboundIdentity",
        "numberOfBytes": "20"
      },
      "t_mapping(t_address,t_bool)": {
        "encoding": "mapping",
        "key": "t_address",
        "label": "mapping(address => bool)",
        "numberOfBytes": "32",
        "value": "t_bool"
      },
      "t_mapping(t_bytes32,t_struct(RoleData)19_storage)": {
        "encoding": "mapping",
        "key": "t_bytes32",
        "label": "mapping(bytes32 => struct AccessControl.RoleData)",
        "numberOfBytes": "32",
        "value": "t_struct(RoleData)19_storage"
      },
      "t_mapping(t_uint256,t_uint256)": {
        "encoding": "mapping",
        "key": "t_uint256",
        "label": "mapping(uint256 => uint256)",
        "numberOfBytes": "32",
        "value": "t_uint256"
      },
      "t_struct(RoleData)19_storage": {
        "encoding": "inplace",
        "label": "struct AccessControl.RoleData",
        "members": [
          {
            "astId": 16,
            "contract": "contracts/SoulStore.sol:SoulStore",
            "label": "members",
            "offset": 0,
            "slot": "0",
            "type": "t_mapping(t_address,t_bool)"
          },
          {
            "astId": 18,
            "contract": "contracts/SoulStore.sol:SoulStore",
            "label": "adminRole",
            "offset": 0,
            "slot": "1",
            "type": "t_bytes32"
          }
        ],
        "numberOfBytes": "64"
      },
      "t_uint256": {
        "encoding": "inplace",
        "label": "uint256",
        "numberOfBytes": "32"
      }
    }
  }
}