{
  "address": "0xBDc0F2e51bedaB31258BE0c0bd8fCf141bccd193",
  "abi": [
    {
      "inputs": [
        {
          "internalType": "address",
          "name": "owner",
          "type": "address"
        },
        {
          "internalType": "contract SoulLinker",
          "name": "_soulLinker",
          "type": "address"
        },
        {
          "internalType": "string",
          "name": "baseTokenURI",
          "type": "string"
        }
      ],
      "stateMutability": "nonpayable",
      "type": "constructor"
    },
    {
      "anonymous": false,
      "inputs": [
        {
          "indexed": true,
          "internalType": "address",
          "name": "owner",
          "type": "address"
        },
        {
          "indexed": true,
          "internalType": "address",
          "name": "approved",
          "type": "address"
        },
        {
          "indexed": true,
          "internalType": "uint256",
          "name": "tokenId",
          "type": "uint256"
        }
      ],
      "name": "Approval",
      "type": "event"
    },
    {
      "anonymous": false,
      "inputs": [
        {
          "indexed": true,
          "internalType": "address",
          "name": "owner",
          "type": "address"
        },
        {
          "indexed": true,
          "internalType": "address",
          "name": "operator",
          "type": "address"
        },
        {
          "indexed": false,
          "internalType": "bool",
          "name": "approved",
          "type": "bool"
        }
      ],
      "name": "ApprovalForAll",
      "type": "event"
    },
    {
      "anonymous": false,
      "inputs": [
        {
          "indexed": false,
          "internalType": "address",
          "name": "account",
          "type": "address"
        }
      ],
      "name": "Paused",
      "type": "event"
    },
    {
      "anonymous": false,
      "inputs": [
        {
          "indexed": true,
          "internalType": "bytes32",
          "name": "role",
          "type": "bytes32"
        },
        {
          "indexed": true,
          "internalType": "bytes32",
          "name": "previousAdminRole",
          "type": "bytes32"
        },
        {
          "indexed": true,
          "internalType": "bytes32",
          "name": "newAdminRole",
          "type": "bytes32"
        }
      ],
      "name": "RoleAdminChanged",
      "type": "event"
    },
    {
      "anonymous": false,
      "inputs": [
        {
          "indexed": true,
          "internalType": "bytes32",
          "name": "role",
          "type": "bytes32"
        },
        {
          "indexed": true,
          "internalType": "address",
          "name": "account",
          "type": "address"
        },
        {
          "indexed": true,
          "internalType": "address",
          "name": "sender",
          "type": "address"
        }
      ],
      "name": "RoleGranted",
      "type": "event"
    },
    {
      "anonymous": false,
      "inputs": [
        {
          "indexed": true,
          "internalType": "bytes32",
          "name": "role",
          "type": "bytes32"
        },
        {
          "indexed": true,
          "internalType": "address",
          "name": "account",
          "type": "address"
        },
        {
          "indexed": true,
          "internalType": "address",
          "name": "sender",
          "type": "address"
        }
      ],
      "name": "RoleRevoked",
      "type": "event"
    },
    {
      "anonymous": false,
      "inputs": [
        {
          "indexed": true,
          "internalType": "address",
          "name": "from",
          "type": "address"
        },
        {
          "indexed": true,
          "internalType": "address",
          "name": "to",
          "type": "address"
        },
        {
          "indexed": true,
          "internalType": "uint256",
          "name": "tokenId",
          "type": "uint256"
        }
      ],
      "name": "Transfer",
      "type": "event"
    },
    {
      "anonymous": false,
      "inputs": [
        {
          "indexed": false,
          "internalType": "address",
          "name": "account",
          "type": "address"
        }
      ],
      "name": "Unpaused",
      "type": "event"
    },
    {
      "inputs": [],
      "name": "DEFAULT_ADMIN_ROLE",
      "outputs": [
        {
          "internalType": "bytes32",
          "name": "",
          "type": "bytes32"
        }
      ],
      "stateMutability": "view",
      "type": "function"
    },
    {
      "inputs": [],
      "name": "MINTER_ROLE",
      "outputs": [
        {
          "internalType": "bytes32",
          "name": "",
          "type": "bytes32"
        }
      ],
      "stateMutability": "view",
      "type": "function"
    },
    {
      "inputs": [],
      "name": "PAUSER_ROLE",
      "outputs": [
        {
          "internalType": "bytes32",
          "name": "",
          "type": "bytes32"
        }
      ],
      "stateMutability": "view",
      "type": "function"
    },
    {
      "inputs": [
        {
          "internalType": "address",
          "name": "to",
          "type": "address"
        },
        {
          "internalType": "uint256",
          "name": "tokenId",
          "type": "uint256"
        }
      ],
      "name": "approve",
      "outputs": [],
      "stateMutability": "nonpayable",
      "type": "function"
    },
    {
      "inputs": [
        {
          "internalType": "address",
          "name": "owner",
          "type": "address"
        }
      ],
      "name": "balanceOf",
      "outputs": [
        {
          "internalType": "uint256",
          "name": "",
          "type": "uint256"
        }
      ],
      "stateMutability": "view",
      "type": "function"
    },
    {
      "inputs": [
        {
          "internalType": "uint256",
          "name": "tokenId",
          "type": "uint256"
        }
      ],
      "name": "burn",
      "outputs": [],
      "stateMutability": "nonpayable",
      "type": "function"
    },
    {
      "inputs": [],
      "name": "extension",
      "outputs": [
        {
          "internalType": "string",
          "name": "",
          "type": "string"
        }
      ],
      "stateMutability": "view",
      "type": "function"
    },
    {
      "inputs": [
        {
          "internalType": "uint256",
          "name": "tokenId",
          "type": "uint256"
        }
      ],
      "name": "getApproved",
      "outputs": [
        {
          "internalType": "address",
          "name": "",
          "type": "address"
        }
      ],
      "stateMutability": "view",
      "type": "function"
    },
    {
      "inputs": [
        {
          "internalType": "string",
          "name": "name",
          "type": "string"
        }
      ],
      "name": "getIdentityData",
      "outputs": [
        {
          "internalType": "string",
          "name": "sbtName",
          "type": "string"
        },
        {
          "internalType": "uint256",
          "name": "identityId",
          "type": "uint256"
        }
      ],
      "stateMutability": "view",
      "type": "function"
    },
    {
      "inputs": [
        {
          "internalType": "uint256",
          "name": "tokenId",
          "type": "uint256"
        }
      ],
      "name": "getIdentityNames",
      "outputs": [
        {
          "internalType": "string[]",
          "name": "sbtNames",
          "type": "string[]"
        }
      ],
      "stateMutability": "view",
      "type": "function"
    },
    {
      "inputs": [
        {
          "internalType": "address",
          "name": "owner",
          "type": "address"
        }
      ],
      "name": "getIdentityNames",
      "outputs": [
        {
          "internalType": "string[]",
          "name": "sbtNames",
          "type": "string[]"
        }
      ],
      "stateMutability": "view",
      "type": "function"
    },
    {
      "inputs": [
        {
          "internalType": "bytes32",
          "name": "role",
          "type": "bytes32"
        }
      ],
      "name": "getRoleAdmin",
      "outputs": [
        {
          "internalType": "bytes32",
          "name": "",
          "type": "bytes32"
        }
      ],
      "stateMutability": "view",
      "type": "function"
    },
    {
      "inputs": [
        {
          "internalType": "bytes32",
          "name": "role",
          "type": "bytes32"
        },
        {
          "internalType": "address",
          "name": "account",
          "type": "address"
        }
      ],
      "name": "grantRole",
      "outputs": [],
      "stateMutability": "nonpayable",
      "type": "function"
    },
    {
      "inputs": [
        {
          "internalType": "bytes32",
          "name": "role",
          "type": "bytes32"
        },
        {
          "internalType": "address",
          "name": "account",
          "type": "address"
        }
      ],
      "name": "hasRole",
      "outputs": [
        {
          "internalType": "bool",
          "name": "",
          "type": "bool"
        }
      ],
      "stateMutability": "view",
      "type": "function"
    },
    {
      "inputs": [
        {
          "internalType": "address",
          "name": "owner",
          "type": "address"
        },
        {
          "internalType": "address",
          "name": "operator",
          "type": "address"
        }
      ],
      "name": "isApprovedForAll",
      "outputs": [
        {
          "internalType": "bool",
          "name": "",
          "type": "bool"
        }
      ],
      "stateMutability": "view",
      "type": "function"
    },
    {
      "inputs": [
        {
          "internalType": "address",
          "name": "to",
          "type": "address"
        }
      ],
      "name": "mint",
      "outputs": [
        {
          "internalType": "uint256",
          "name": "",
          "type": "uint256"
        }
      ],
      "stateMutability": "nonpayable",
      "type": "function"
    },
    {
      "inputs": [
        {
          "internalType": "address",
          "name": "to",
          "type": "address"
        },
        {
          "internalType": "string",
          "name": "name",
          "type": "string"
        }
      ],
      "name": "mintIdentityWithName",
      "outputs": [
        {
          "internalType": "uint256",
          "name": "",
          "type": "uint256"
        }
      ],
      "stateMutability": "payable",
      "type": "function"
    },
    {
      "inputs": [],
      "name": "name",
      "outputs": [
        {
          "internalType": "string",
          "name": "",
          "type": "string"
        }
      ],
      "stateMutability": "view",
      "type": "function"
    },
    {
      "inputs": [
        {
          "internalType": "string",
          "name": "name",
          "type": "string"
        }
      ],
      "name": "nameExists",
      "outputs": [
        {
          "internalType": "bool",
          "name": "exists",
          "type": "bool"
        }
      ],
      "stateMutability": "view",
      "type": "function"
    },
    {
      "inputs": [
        {
          "internalType": "uint256",
          "name": "tokenId",
          "type": "uint256"
        }
      ],
      "name": "ownerOf",
      "outputs": [
        {
          "internalType": "address",
          "name": "",
          "type": "address"
        }
      ],
      "stateMutability": "view",
      "type": "function"
    },
    {
      "inputs": [
        {
          "internalType": "string",
          "name": "name",
          "type": "string"
        }
      ],
      "name": "ownerOf",
      "outputs": [
        {
          "internalType": "address",
          "name": "",
          "type": "address"
        }
      ],
      "stateMutability": "view",
      "type": "function"
    },
    {
      "inputs": [],
      "name": "pause",
      "outputs": [],
      "stateMutability": "nonpayable",
      "type": "function"
    },
    {
      "inputs": [],
      "name": "paused",
      "outputs": [
        {
          "internalType": "bool",
          "name": "",
          "type": "bool"
        }
      ],
      "stateMutability": "view",
      "type": "function"
    },
    {
      "inputs": [
        {
          "internalType": "bytes32",
          "name": "role",
          "type": "bytes32"
        },
        {
          "internalType": "address",
          "name": "account",
          "type": "address"
        }
      ],
      "name": "renounceRole",
      "outputs": [],
      "stateMutability": "nonpayable",
      "type": "function"
    },
    {
      "inputs": [
        {
          "internalType": "bytes32",
          "name": "role",
          "type": "bytes32"
        },
        {
          "internalType": "address",
          "name": "account",
          "type": "address"
        }
      ],
      "name": "revokeRole",
      "outputs": [],
      "stateMutability": "nonpayable",
      "type": "function"
    },
    {
      "inputs": [
        {
          "internalType": "address",
          "name": "from",
          "type": "address"
        },
        {
          "internalType": "address",
          "name": "to",
          "type": "address"
        },
        {
          "internalType": "uint256",
          "name": "tokenId",
          "type": "uint256"
        }
      ],
      "name": "safeTransferFrom",
      "outputs": [],
      "stateMutability": "pure",
      "type": "function"
    },
    {
      "inputs": [
        {
          "internalType": "address",
          "name": "from",
          "type": "address"
        },
        {
          "internalType": "address",
          "name": "to",
          "type": "address"
        },
        {
          "internalType": "uint256",
          "name": "tokenId",
          "type": "uint256"
        },
        {
          "internalType": "bytes",
          "name": "data",
          "type": "bytes"
        }
      ],
      "name": "safeTransferFrom",
      "outputs": [],
      "stateMutability": "pure",
      "type": "function"
    },
    {
      "inputs": [
        {
          "internalType": "address",
          "name": "operator",
          "type": "address"
        },
        {
          "internalType": "bool",
          "name": "approved",
          "type": "bool"
        }
      ],
      "name": "setApprovalForAll",
      "outputs": [],
      "stateMutability": "nonpayable",
      "type": "function"
    },
    {
      "inputs": [
        {
          "internalType": "contract SoulName",
          "name": "_soulName",
          "type": "address"
        }
      ],
      "name": "setSoulName",
      "outputs": [],
      "stateMutability": "nonpayable",
      "type": "function"
    },
    {
      "inputs": [],
      "name": "soulLinker",
      "outputs": [
        {
          "internalType": "contract SoulLinker",
          "name": "",
          "type": "address"
        }
      ],
      "stateMutability": "view",
      "type": "function"
    },
    {
      "inputs": [],
      "name": "soulName",
      "outputs": [
        {
          "internalType": "contract SoulName",
          "name": "",
          "type": "address"
        }
      ],
      "stateMutability": "view",
      "type": "function"
    },
    {
      "inputs": [
        {
          "internalType": "bytes4",
          "name": "interfaceId",
          "type": "bytes4"
        }
      ],
      "name": "supportsInterface",
      "outputs": [
        {
          "internalType": "bool",
          "name": "",
          "type": "bool"
        }
      ],
      "stateMutability": "view",
      "type": "function"
    },
    {
      "inputs": [],
      "name": "symbol",
      "outputs": [
        {
          "internalType": "string",
          "name": "",
          "type": "string"
        }
      ],
      "stateMutability": "view",
      "type": "function"
    },
    {
      "inputs": [
        {
          "internalType": "uint256",
          "name": "index",
          "type": "uint256"
        }
      ],
      "name": "tokenByIndex",
      "outputs": [
        {
          "internalType": "uint256",
          "name": "",
          "type": "uint256"
        }
      ],
      "stateMutability": "view",
      "type": "function"
    },
    {
      "inputs": [
        {
          "internalType": "address",
          "name": "owner",
          "type": "address"
        }
      ],
      "name": "tokenOfOwner",
      "outputs": [
        {
          "internalType": "uint256",
          "name": "",
          "type": "uint256"
        }
      ],
      "stateMutability": "view",
      "type": "function"
    },
    {
      "inputs": [
        {
          "internalType": "address",
          "name": "owner",
          "type": "address"
        },
        {
          "internalType": "uint256",
          "name": "index",
          "type": "uint256"
        }
      ],
      "name": "tokenOfOwnerByIndex",
      "outputs": [
        {
          "internalType": "uint256",
          "name": "",
          "type": "uint256"
        }
      ],
      "stateMutability": "view",
      "type": "function"
    },
    {
      "inputs": [
        {
          "internalType": "string",
          "name": "name",
          "type": "string"
        }
      ],
      "name": "tokenURI",
      "outputs": [
        {
          "internalType": "string",
          "name": "",
          "type": "string"
        }
      ],
      "stateMutability": "view",
      "type": "function"
    },
    {
      "inputs": [
        {
          "internalType": "address",
          "name": "owner",
          "type": "address"
        }
      ],
      "name": "tokenURI",
      "outputs": [
        {
          "internalType": "string",
          "name": "",
          "type": "string"
        }
      ],
      "stateMutability": "view",
      "type": "function"
    },
    {
      "inputs": [
        {
          "internalType": "uint256",
          "name": "tokenId",
          "type": "uint256"
        }
      ],
      "name": "tokenURI",
      "outputs": [
        {
          "internalType": "string",
          "name": "",
          "type": "string"
        }
      ],
      "stateMutability": "view",
      "type": "function"
    },
    {
      "inputs": [],
      "name": "totalSupply",
      "outputs": [
        {
          "internalType": "uint256",
          "name": "",
          "type": "uint256"
        }
      ],
      "stateMutability": "view",
      "type": "function"
    },
    {
      "inputs": [
        {
          "internalType": "address",
          "name": "from",
          "type": "address"
        },
        {
          "internalType": "address",
          "name": "to",
          "type": "address"
        },
        {
          "internalType": "uint256",
          "name": "tokenId",
          "type": "uint256"
        }
      ],
      "name": "transferFrom",
      "outputs": [],
      "stateMutability": "pure",
      "type": "function"
    },
    {
      "inputs": [],
      "name": "unpause",
      "outputs": [],
      "stateMutability": "nonpayable",
      "type": "function"
    }
  ],
  "transactionHash": "0x6964c028a070ca3de9a886ab733c338df55286dfb4099743203758638452e976",
  "args": [
    "0x3c8D9f130970358b7E8cbc1DbD0a1EbA6EBE368F",
    "0x22988b7eaccCFa595B9e750c0D147Da07e5d59ED",
    "https://dev.api.masa.finance/v1.0/identity/"
  ],
  "numDeployments": 1,
  "solcInputHash": "75708de12795f2aaa53306849f53cc3e",
  "bytecode": "0x60806040523480156200001157600080fd5b506040516200317c3803806200317c8339810160408190526200003491620002b3565b82826040518060400160405280600d81526020016c4d617361204964656e7469747960981b8152506040518060400160405280600381526020016213525160ea1b815250848483838382828160009080519060200190620000979291906200020d565b508051620000ad9060019060208401906200020d565b5050600a805460ff1916905550620000c760008562000168565b620000f37f65d7a28e3265b37a6474929f336521b332c1681b933f6cb9f3376673440d862a8562000168565b6200011f7f9f2df0fed2c77648de5860a4cc508cd0818c85b8b8a1ab4ceeef8d981c8956a68562000168565b80516200013490600d9060208401906200020d565b5050600e80546001600160a01b0319166001600160a01b039890981697909717909655506200042998505050505050505050565b6000828152600b602090815260408083206001600160a01b038516845290915290205460ff1662000209576000828152600b602090815260408083206001600160a01b03851684529091529020805460ff19166001179055620001c83390565b6001600160a01b0316816001600160a01b0316837f2f8788117e7eff1d82e926ec794901d17c78024a50270940304540a733656f0d60405160405180910390a45b5050565b8280546200021b90620003bd565b90600052602060002090601f0160209004810192826200023f57600085556200028a565b82601f106200025a57805160ff19168380011785556200028a565b828001600101855582156200028a579182015b828111156200028a5782518255916020019190600101906200026d565b50620002989291506200029c565b5090565b5b808211156200029857600081556001016200029d565b600080600060608486031215620002c957600080fd5b8351620002d68162000410565b80935050602080850151620002eb8162000410565b60408601519093506001600160401b03808211156200030957600080fd5b818701915087601f8301126200031e57600080fd5b815181811115620003335762000333620003fa565b604051601f8201601f19908116603f011681019083821181831017156200035e576200035e620003fa565b816040528281528a868487010111156200037757600080fd5b600093505b828410156200039b57848401860151818501870152928501926200037c565b82841115620003ad5760008684830101525b8096505050505050509250925092565b600181811c90821680620003d257607f821691505b60208210811415620003f457634e487b7160e01b600052602260045260246000fd5b50919050565b634e487b7160e01b600052604160045260246000fd5b6001600160a01b03811681146200042657600080fd5b50565b612d4380620004396000396000f3fe6080604052600436106102515760003560e01c80636a62784211610139578063a217fddf116100b6578063cc637afe1161007a578063cc637afe146106c0578063d5391393146106e0578063d547741f14610714578063e63ab1e914610734578063e985e9c514610768578063ee7a9ec5146107b157600080fd5b8063a217fddf1461063d578063a22cb46514610652578063b88d4fde14610672578063c2658c261461068d578063c87b56dd146106a057600080fd5b806391d14854116100fd57806391d14854146105a8578063920ffa26146105c85780639266e5cb146105e857806393702f331461060857806395d89b411461062857600080fd5b80636a627842146104f857806370a08231146105185780637e259b9e146105385780638456cb591461056557806387cc84921461057a57600080fd5b80632f2ff15d116101d257806342966c681161019657806342966c681461044057806345390070146104605780634cf12d26146104805780634f6ccce7146104a05780635c975abb146104c05780636352211e146104d857600080fd5b80632f2ff15d146103cb5780632f745c59146103eb57806336568abe1461040b5780633f4ba83a1461042b57806342842e0e1461034657600080fd5b806318160ddd1161021957806318160ddd1461032757806323b872dd14610346578063248a9ca314610366578063294cdf0d146103965780632d5537b0146103b657600080fd5b806301ffc9a71461025657806306fdde031461028b578063081812fc146102ad578063095ea7b3146102e55780630f2e68af14610307575b600080fd5b34801561026257600080fd5b5061027661027136600461278b565b6107d1565b60405190151581526020015b60405180910390f35b34801561029757600080fd5b506102a06107e2565b6040516102829190612a42565b3480156102b957600080fd5b506102cd6102c836600461274d565b610874565b6040516001600160a01b039091168152602001610282565b3480156102f157600080fd5b5061030561030036600461263c565b61089b565b005b34801561031357600080fd5b50600f546102cd906001600160a01b031681565b34801561033357600080fd5b506008545b604051908152602001610282565b34801561035257600080fd5b506103056103613660046124fd565b6109b6565b34801561037257600080fd5b5061033861038136600461274d565b6000908152600b602052604090206001015490565b3480156103a257600080fd5b506103386103b13660046124a7565b6109fe565b3480156103c257600080fd5b506102a0610a0b565b3480156103d757600080fd5b506103056103e6366004612766565b610a91565b3480156103f757600080fd5b5061033861040636600461263c565b610ab6565b34801561041757600080fd5b50610305610426366004612766565b610b4c565b34801561043757600080fd5b50610305610bca565b34801561044c57600080fd5b5061030561045b36600461274d565b610bff565b34801561046c57600080fd5b50600e546102cd906001600160a01b031681565b34801561048c57600080fd5b506102a061049b3660046127c5565b610cd7565b3480156104ac57600080fd5b506103386104bb36600461274d565b610d9a565b3480156104cc57600080fd5b50600a5460ff16610276565b3480156104e457600080fd5b506102cd6104f336600461274d565b610e2d565b34801561050457600080fd5b506103386105133660046124a7565b610e38565b34801561052457600080fd5b506103386105333660046124a7565b610e9b565b34801561054457600080fd5b5061055861055336600461274d565b610f21565b60405161028291906129e0565b34801561057157600080fd5b50610305610fcc565b34801561058657600080fd5b5061059a6105953660046127c5565b610ffe565b604051610282929190612a55565b3480156105b457600080fd5b506102766105c3366004612766565b6110b9565b3480156105d457600080fd5b506102cd6105e33660046127c5565b6110e4565b3480156105f457600080fd5b506105586106033660046124a7565b6111a0565b34801561061457600080fd5b506102a06106233660046124a7565b611257565b34801561063457600080fd5b506102a061126f565b34801561064957600080fd5b50610338600081565b34801561065e57600080fd5b5061030561066d3660046125be565b61127e565b34801561067e57600080fd5b5061030561036136600461253e565b61033861069b3660046125ec565b611289565b3480156106ac57600080fd5b506102a06106bb36600461274d565b61134e565b3480156106cc57600080fd5b506102766106db3660046127c5565b6113b4565b3480156106ec57600080fd5b506103387f9f2df0fed2c77648de5860a4cc508cd0818c85b8b8a1ab4ceeef8d981c8956a681565b34801561072057600080fd5b5061030561072f366004612766565b61145f565b34801561074057600080fd5b506103387f65d7a28e3265b37a6474929f336521b332c1681b933f6cb9f3376673440d862a81565b34801561077457600080fd5b506102766107833660046124c4565b6001600160a01b03918216600090815260056020908152604080832093909416825291909152205460ff1690565b3480156107bd57600080fd5b506103056107cc3660046124a7565b611484565b60006107dc82611542565b92915050565b6060600080546107f190612c02565b80601f016020809104026020016040519081016040528092919081815260200182805461081d90612c02565b801561086a5780601f1061083f5761010080835404028352916020019161086a565b820191906000526020600020905b81548152906001019060200180831161084d57829003601f168201915b5050505050905090565b600061087f82611567565b506000908152600460205260409020546001600160a01b031690565b60006108a6826115c6565b9050806001600160a01b0316836001600160a01b031614156109195760405162461bcd60e51b815260206004820152602160248201527f4552433732313a20617070726f76616c20746f2063757272656e74206f776e656044820152603960f91b60648201526084015b60405180910390fd5b336001600160a01b038216148061093557506109358133610783565b6109a75760405162461bcd60e51b815260206004820152603e60248201527f4552433732313a20617070726f76652063616c6c6572206973206e6f7420746f60448201527f6b656e206f776e6572206e6f7220617070726f76656420666f7220616c6c00006064820152608401610910565b6109b18383611626565b505050565b60405162461bcd60e51b815260206004820152601a60248201527f5342545f5452414e534645525f4e4f545f5045524d49545445440000000000006044820152606401610910565b60006107dc826000610ab6565b600f54604080516302d5537b60e41b815290516060926001600160a01b031691632d5537b0916004808301926000929190829003018186803b158015610a5057600080fd5b505afa158015610a64573d6000803e3d6000fd5b505050506040513d6000823e601f3d908101601f19168201604052610a8c91908101906127fa565b905090565b6000828152600b6020526040902060010154610aac81611694565b6109b1838361169e565b6000610ac183610e9b565b8210610b235760405162461bcd60e51b815260206004820152602b60248201527f455243373231456e756d657261626c653a206f776e657220696e646578206f7560448201526a74206f6620626f756e647360a81b6064820152608401610910565b506001600160a01b03919091166000908152600660209081526040808320938352929052205490565b6001600160a01b0381163314610bbc5760405162461bcd60e51b815260206004820152602f60248201527f416363657373436f6e74726f6c3a2063616e206f6e6c792072656e6f756e636560448201526e103937b632b9903337b91039b2b63360891b6064820152608401610910565b610bc68282611724565b5050565b7f65d7a28e3265b37a6474929f336521b332c1681b933f6cb9f3376673440d862a610bf481611694565b610bfc61178b565b50565b600e54604051633f278e0b60e21b8152306004820152602481018390526001600160a01b039091169063fc9e382c9060440160206040518083038186803b158015610c4957600080fd5b505afa158015610c5d573d6000803e3d6000fd5b505050506040513d601f19601f82011682018060405250810190610c819190612730565b15610cce5760405162461bcd60e51b815260206004820152601b60248201527f5342545f574954485f4c494e4b535f4e4f545f4255524e41424c4500000000006044820152606401610910565b610bfc816117dd565b600f546060906001600160a01b0316610d025760405162461bcd60e51b815260040161091090612ac9565b600f546040516343e6424960e11b81526000916001600160a01b0316906387cc849290610d33908690600401612a42565b60006040518083038186803b158015610d4b57600080fd5b505afa158015610d5f573d6000803e3d6000fd5b505050506040513d6000823e601f3d908101601f19168201604052610d87919081019061282f565b915050610d938161134e565b9392505050565b6000610da560085490565b8210610e085760405162461bcd60e51b815260206004820152602c60248201527f455243373231456e756d657261626c653a20676c6f62616c20696e646578206f60448201526b7574206f6620626f756e647360a01b6064820152608401610910565b60088281548110610e1b57610e1b612ca8565b90600052602060002001549050919050565b60006107dc826115c6565b60006001610e4583610e9b565b10610e925760405162461bcd60e51b815260206004820152601b60248201527f53425f4944454e544954595f414c52454144595f4352454154454400000000006044820152606401610910565b6107dc82611853565b60006001600160a01b038216610f055760405162461bcd60e51b815260206004820152602960248201527f4552433732313a2061646472657373207a65726f206973206e6f7420612076616044820152683634b21037bbb732b960b91b6064820152608401610910565b506001600160a01b031660009081526003602052604090205490565b600f546060906001600160a01b0316610f4c5760405162461bcd60e51b815260040161091090612ac9565b600f54604051633f12cdcf60e11b8152600481018490526001600160a01b0390911690637e259b9e9060240160006040518083038186803b158015610f9057600080fd5b505afa158015610fa4573d6000803e3d6000fd5b505050506040513d6000823e601f3d908101601f191682016040526107dc9190810190612668565b7f65d7a28e3265b37a6474929f336521b332c1681b933f6cb9f3376673440d862a610ff681611694565b610bfc61185e565b600f546060906000906001600160a01b031661102c5760405162461bcd60e51b815260040161091090612ac9565b600f546040516343e6424960e11b81526001600160a01b03909116906387cc84929061105c908690600401612a42565b60006040518083038186803b15801561107457600080fd5b505afa158015611088573d6000803e3d6000fd5b505050506040513d6000823e601f3d908101601f191682016040526110b0919081019061282f565b91509150915091565b6000918252600b602090815260408084206001600160a01b0393909316845291905290205460ff1690565b600f546000906001600160a01b031661110f5760405162461bcd60e51b815260040161091090612ac9565b600f546040516343e6424960e11b81526000916001600160a01b0316906387cc849290611140908690600401612a42565b60006040518083038186803b15801561115857600080fd5b505afa15801561116c573d6000803e3d6000fd5b505050506040513d6000823e601f3d908101601f19168201604052611194919081019061282f565b915050610d93816115c6565b600f546060906001600160a01b03166111cb5760405162461bcd60e51b815260040161091090612ac9565b60006111d6836109fe565b600f54604051633f12cdcf60e11b8152600481018390529192506001600160a01b031690637e259b9e9060240160006040518083038186803b15801561121b57600080fd5b505afa15801561122f573d6000803e3d6000fd5b505050506040513d6000823e601f3d908101601f19168201604052610d939190810190612668565b60606000611264836109fe565b9050610d938161134e565b6060600180546107f190612c02565b610bc633838361189b565b600f546000906001600160a01b03166112b45760405162461bcd60e51b815260040161091090612ac9565b60006112bf84610e38565b600f5460405163ba7aef4360e01b81529192506001600160a01b03169063ba7aef43906112f4908790879086906004016129ac565b602060405180830381600087803b15801561130e57600080fd5b505af1158015611322573d6000803e3d6000fd5b505050506040513d601f19601f820116820180604052508101906113469190612876565b509392505050565b606061135982611567565b600061136361196a565b905060008151116113835760405180602001604052806000815250610d93565b8061138d84611979565b60405160200161139e9291906128bb565b6040516020818303038152906040529392505050565b600f546000906001600160a01b03166113df5760405162461bcd60e51b815260040161091090612ac9565b600f54604051636631bd7f60e11b81526001600160a01b039091169063cc637afe9061140f908590600401612a42565b60206040518083038186803b15801561142757600080fd5b505afa15801561143b573d6000803e3d6000fd5b505050506040513d601f19601f820116820180604052508101906107dc9190612730565b6000828152600b602052604090206001015461147a81611694565b6109b18383611724565b600061148f81611694565b6001600160a01b0382166114d45760405162461bcd60e51b815260206004820152600c60248201526b5a45524f5f4144445245535360a01b6044820152606401610910565b600f546001600160a01b038381169116141561151f5760405162461bcd60e51b815260206004820152600a60248201526953414d455f56414c554560b01b6044820152606401610910565b50600f80546001600160a01b0319166001600160a01b0392909216919091179055565b60006001600160e01b03198216637965db0b60e01b14806107dc57506107dc82611a7f565b6000818152600260205260409020546001600160a01b0316610bfc5760405162461bcd60e51b8152602060048201526018602482015277115490cdcc8c4e881a5b9d985b1a59081d1bdad95b88125160421b6044820152606401610910565b6000818152600260205260408120546001600160a01b0316806107dc5760405162461bcd60e51b8152602060048201526018602482015277115490cdcc8c4e881a5b9d985b1a59081d1bdad95b88125160421b6044820152606401610910565b600081815260046020526040902080546001600160a01b0319166001600160a01b038416908117909155819061165b826115c6565b6001600160a01b03167f8c5be1e5ebec7d5bd14f71427d1e84f3dd0314c0f7b2291e5b200ac8c7c3b92560405160405180910390a45050565b610bfc8133611aa4565b6116a882826110b9565b610bc6576000828152600b602090815260408083206001600160a01b03851684529091529020805460ff191660011790556116e03390565b6001600160a01b0316816001600160a01b0316837f2f8788117e7eff1d82e926ec794901d17c78024a50270940304540a733656f0d60405160405180910390a45050565b61172e82826110b9565b15610bc6576000828152600b602090815260408083206001600160a01b0385168085529252808320805460ff1916905551339285917ff6391f5c32d9c69d2a47ea670b442974b53935d1edc7fd64eb21e047a839171b9190a45050565b611793611b08565b600a805460ff191690557f5db9ee0a495bf2e6ff9c91a7834c1ba4fdd244a5e8aa4e537bd38aeae4b073aa335b6040516001600160a01b03909116815260200160405180910390a1565b6117e73382611b53565b61184a5760405162461bcd60e51b815260206004820152602e60248201527f4552433732313a2063616c6c6572206973206e6f7420746f6b656e206f776e6560448201526d1c881b9bdc88185c1c1c9bdd995960921b6064820152608401610910565b610bfc81611bd1565b60006107dc82611c78565b611866611ccf565b600a805460ff191660011790557f62e78cea01bee320cd4e420270b5ea74000d11b0c9f74754ebdbfc544b05a2586117c03390565b816001600160a01b0316836001600160a01b031614156118fd5760405162461bcd60e51b815260206004820152601960248201527f4552433732313a20617070726f766520746f2063616c6c6572000000000000006044820152606401610910565b6001600160a01b03838116600081815260056020908152604080832094871680845294825291829020805460ff191686151590811790915591519182527f17307eab39ab6107e8899845ad3d59bd9653f200f220920489ca2b5937696c31910160405180910390a3505050565b6060600d80546107f190612c02565b60608161199d5750506040805180820190915260018152600360fc1b602082015290565b8160005b81156119c757806119b181612c37565b91506119c09050600a83612b71565b91506119a1565b60008167ffffffffffffffff8111156119e2576119e2612cbe565b6040519080825280601f01601f191660200182016040528015611a0c576020820181803683370190505b5090505b8415611a7757611a21600183612ba4565b9150611a2e600a86612c52565b611a39906030612b59565b60f81b818381518110611a4e57611a4e612ca8565b60200101906001600160f81b031916908160001a905350611a70600a86612b71565b9450611a10565b949350505050565b60006001600160e01b0319821663780e9d6360e01b14806107dc57506107dc82611d15565b611aae82826110b9565b610bc657611ac6816001600160a01b03166014611d65565b611ad1836020611d65565b604051602001611ae29291906128fa565b60408051601f198184030181529082905262461bcd60e51b825261091091600401612a42565b600a5460ff16611b515760405162461bcd60e51b815260206004820152601460248201527314185d5cd8589b194e881b9bdd081c185d5cd95960621b6044820152606401610910565b565b600080611b5f836115c6565b9050806001600160a01b0316846001600160a01b03161480611ba657506001600160a01b0380821660009081526005602090815260408083209388168352929052205460ff165b80611a775750836001600160a01b0316611bbf84610874565b6001600160a01b031614949350505050565b6000611bdc826115c6565b9050611bea81600084611f01565b611bf5600083611626565b6001600160a01b0381166000908152600360205260408120805460019290611c1e908490612ba4565b909155505060008281526002602052604080822080546001600160a01b0319169055518391906001600160a01b038416907fddf252ad1be2c89b69c2b068fc378daa952ba7f163c4a11628f55a4df523b3ef908390a45050565b60007f9f2df0fed2c77648de5860a4cc508cd0818c85b8b8a1ab4ceeef8d981c8956a6611ca481611694565b6000611caf600c5490565b9050611cbf600c80546001019055565b610d938482611f14565b50919050565b600a5460ff1615611b515760405162461bcd60e51b815260206004820152601060248201526f14185d5cd8589b194e881c185d5cd95960821b6044820152606401610910565b60006001600160e01b031982166380ac58cd60e01b1480611d4657506001600160e01b03198216635b5e139f60e01b145b806107dc57506301ffc9a760e01b6001600160e01b03198316146107dc565b60606000611d74836002612b85565b611d7f906002612b59565b67ffffffffffffffff811115611d9757611d97612cbe565b6040519080825280601f01601f191660200182016040528015611dc1576020820181803683370190505b509050600360fc1b81600081518110611ddc57611ddc612ca8565b60200101906001600160f81b031916908160001a905350600f60fb1b81600181518110611e0b57611e0b612ca8565b60200101906001600160f81b031916908160001a9053506000611e2f846002612b85565b611e3a906001612b59565b90505b6001811115611eb2576f181899199a1a9b1b9c1cb0b131b232b360811b85600f1660108110611e6e57611e6e612ca8565b1a60f81b828281518110611e8457611e84612ca8565b60200101906001600160f81b031916908160001a90535060049490941c93611eab81612beb565b9050611e3d565b508315610d935760405162461bcd60e51b815260206004820181905260248201527f537472696e67733a20686578206c656e67746820696e73756666696369656e746044820152606401610910565b611f09611ccf565b6109b1838383611f2e565b610bc6828260405180602001604052806000815250611fe6565b6001600160a01b038316611f8957611f8481600880546000838152600960205260408120829055600182018355919091527ff3f7a9fe364faab93b216da50a3214154f22a0a2b415b23a84c8169e8b636ee30155565b611fac565b816001600160a01b0316836001600160a01b031614611fac57611fac8382612019565b6001600160a01b038216611fc3576109b1816120b6565b826001600160a01b0316826001600160a01b0316146109b1576109b18282612165565b611ff083836121a9565b611ffd60008484846122f7565b6109b15760405162461bcd60e51b815260040161091090612a77565b6000600161202684610e9b565b6120309190612ba4565b600083815260076020526040902054909150808214612083576001600160a01b03841660009081526006602090815260408083208584528252808320548484528184208190558352600790915290208190555b5060009182526007602090815260408084208490556001600160a01b039094168352600681528383209183525290812055565b6008546000906120c890600190612ba4565b600083815260096020526040812054600880549394509092849081106120f0576120f0612ca8565b90600052602060002001549050806008838154811061211157612111612ca8565b600091825260208083209091019290925582815260099091526040808220849055858252812055600880548061214957612149612c92565b6001900381819060005260206000200160009055905550505050565b600061217083610e9b565b6001600160a01b039093166000908152600660209081526040808320868452825280832085905593825260079052919091209190915550565b6001600160a01b0382166121ff5760405162461bcd60e51b815260206004820181905260248201527f4552433732313a206d696e7420746f20746865207a65726f20616464726573736044820152606401610910565b6000818152600260205260409020546001600160a01b0316156122645760405162461bcd60e51b815260206004820152601c60248201527f4552433732313a20746f6b656e20616c7265616479206d696e746564000000006044820152606401610910565b61227060008383611f01565b6001600160a01b0382166000908152600360205260408120805460019290612299908490612b59565b909155505060008181526002602052604080822080546001600160a01b0319166001600160a01b03861690811790915590518392907fddf252ad1be2c89b69c2b068fc378daa952ba7f163c4a11628f55a4df523b3ef908290a45050565b60006001600160a01b0384163b156123f957604051630a85bd0160e11b81526001600160a01b0385169063150b7a029061233b90339089908890889060040161296f565b602060405180830381600087803b15801561235557600080fd5b505af1925050508015612385575060408051601f3d908101601f19168201909252612382918101906127a8565b60015b6123df573d8080156123b3576040519150601f19603f3d011682016040523d82523d6000602084013e6123b8565b606091505b5080516123d75760405162461bcd60e51b815260040161091090612a77565b805181602001fd5b6001600160e01b031916630a85bd0160e11b149050611a77565b506001949350505050565b600061241761241284612b31565b612b00565b905082815283838301111561242b57600080fd5b828260208301376000602084830101529392505050565b600082601f83011261245357600080fd5b610d9383833560208501612404565b600082601f83011261247357600080fd5b815161248161241282612b31565b81815284602083860101111561249657600080fd5b611a77826020830160208701612bbb565b6000602082840312156124b957600080fd5b8135610d9381612cd4565b600080604083850312156124d757600080fd5b82356124e281612cd4565b915060208301356124f281612cd4565b809150509250929050565b60008060006060848603121561251257600080fd5b833561251d81612cd4565b9250602084013561252d81612cd4565b929592945050506040919091013590565b6000806000806080858703121561255457600080fd5b843561255f81612cd4565b9350602085013561256f81612cd4565b925060408501359150606085013567ffffffffffffffff81111561259257600080fd5b8501601f810187136125a357600080fd5b6125b287823560208401612404565b91505092959194509250565b600080604083850312156125d157600080fd5b82356125dc81612cd4565b915060208301356124f281612ce9565b600080604083850312156125ff57600080fd5b823561260a81612cd4565b9150602083013567ffffffffffffffff81111561262657600080fd5b61263285828601612442565b9150509250929050565b6000806040838503121561264f57600080fd5b823561265a81612cd4565b946020939093013593505050565b6000602080838503121561267b57600080fd5b825167ffffffffffffffff8082111561269357600080fd5b818501915085601f8301126126a757600080fd5b8151818111156126b9576126b9612cbe565b8060051b6126c8858201612b00565b8281528581019085870183870188018b10156126e357600080fd5b60009350835b85811015612720578151878111156126ff578586fd5b61270d8d8b838c0101612462565b85525092880192908801906001016126e9565b50909a9950505050505050505050565b60006020828403121561274257600080fd5b8151610d9381612ce9565b60006020828403121561275f57600080fd5b5035919050565b6000806040838503121561277957600080fd5b8235915060208301356124f281612cd4565b60006020828403121561279d57600080fd5b8135610d9381612cf7565b6000602082840312156127ba57600080fd5b8151610d9381612cf7565b6000602082840312156127d757600080fd5b813567ffffffffffffffff8111156127ee57600080fd5b611a7784828501612442565b60006020828403121561280c57600080fd5b815167ffffffffffffffff81111561282357600080fd5b611a7784828501612462565b6000806040838503121561284257600080fd5b825167ffffffffffffffff81111561285957600080fd5b61286585828601612462565b925050602083015190509250929050565b60006020828403121561288857600080fd5b5051919050565b600081518084526128a7816020860160208601612bbb565b601f01601f19169290920160200192915050565b600083516128cd818460208801612bbb565b8351908301906128e1818360208801612bbb565b64173539b7b760d91b9101908152600501949350505050565b7f416363657373436f6e74726f6c3a206163636f756e7420000000000000000000815260008351612932816017850160208801612bbb565b7001034b99036b4b9b9b4b733903937b6329607d1b6017918401918201528351612963816028840160208801612bbb565b01602801949350505050565b6001600160a01b03858116825284166020820152604081018390526080606082018190526000906129a29083018461288f565b9695505050505050565b6001600160a01b03841681526060602082018190526000906129d09083018561288f565b9050826040830152949350505050565b6000602080830181845280855180835260408601915060408160051b870101925083870160005b82811015612a3557603f19888603018452612a2385835161288f565b94509285019290850190600101612a07565b5092979650505050505050565b602081526000610d93602083018461288f565b604081526000612a68604083018561288f565b90508260208301529392505050565b60208082526032908201527f4552433732313a207472616e7366657220746f206e6f6e20455243373231526560408201527131b2b4bb32b91034b6b83632b6b2b73a32b960711b606082015260800190565b60208082526019908201527f534f554c4e414d455f434f4e54524143545f4e4f545f53455400000000000000604082015260600190565b604051601f8201601f1916810167ffffffffffffffff81118282101715612b2957612b29612cbe565b604052919050565b600067ffffffffffffffff821115612b4b57612b4b612cbe565b50601f01601f191660200190565b60008219821115612b6c57612b6c612c66565b500190565b600082612b8057612b80612c7c565b500490565b6000816000190483118215151615612b9f57612b9f612c66565b500290565b600082821015612bb657612bb6612c66565b500390565b60005b83811015612bd6578181015183820152602001612bbe565b83811115612be5576000848401525b50505050565b600081612bfa57612bfa612c66565b506000190190565b600181811c90821680612c1657607f821691505b60208210811415611cc957634e487b7160e01b600052602260045260246000fd5b6000600019821415612c4b57612c4b612c66565b5060010190565b600082612c6157612c61612c7c565b500690565b634e487b7160e01b600052601160045260246000fd5b634e487b7160e01b600052601260045260246000fd5b634e487b7160e01b600052603160045260246000fd5b634e487b7160e01b600052603260045260246000fd5b634e487b7160e01b600052604160045260246000fd5b6001600160a01b0381168114610bfc57600080fd5b8015158114610bfc57600080fd5b6001600160e01b031981168114610bfc57600080fdfea2646970667358221220ba823d4f7c094d9789a04af2c58532bd67397db87d02c8521e6a4f985755d2a664736f6c63430008070033",
  "devdoc": {
    "author": "Masa Finance",
    "details": "Soulbound identity, that inherits from the SBT contract.",
    "kind": "dev",
    "methods": {
      "approve(address,uint256)": {
        "details": "See {IERC721-approve}."
      },
      "balanceOf(address)": {
        "details": "See {IERC721-balanceOf}."
      },
      "burn(uint256)": {
        "details": "The caller must own `tokenId` or be an approved operator",
        "params": {
          "tokenId": "The NFT ID to burn"
        }
      },
      "constructor": {
        "details": "Creates a new soulbound identity, inheriting from the SBT contract.",
        "params": {
          "_soulLinker": "Address of the SoulLinker contract",
          "baseTokenURI": "Base URI of the token",
          "owner": "Owner of the smart contract"
        }
      },
      "extension()": {
        "details": "This function returns the extension of the soul name",
        "returns": {
          "_0": "Extension of the soul name"
        }
      },
      "getApproved(uint256)": {
        "details": "See {IERC721-getApproved}."
      },
      "getIdentityData(string)": {
        "details": "This function queries the information of a soul name",
        "params": {
          "name": "Name of the soul name"
        },
        "returns": {
          "identityId": "Identity id of the soul name",
          "sbtName": "Soul name, in upper/lower case and extension"
        }
      },
      "getIdentityNames(address)": {
        "details": "This function queries all the identity names of the specified account",
        "params": {
          "owner": "Address of the owner of the identities"
        },
        "returns": {
          "sbtNames": "Array of soul names associated to the account"
        }
      },
      "getIdentityNames(uint256)": {
        "details": "This function queries all the identity names of the specified identity Id",
        "params": {
          "tokenId": "TokenId of the identity"
        },
        "returns": {
          "sbtNames": "Array of soul names associated to the identity Id"
        }
      },
      "getRoleAdmin(bytes32)": {
        "details": "Returns the admin role that controls `role`. See {grantRole} and {revokeRole}. To change a role's admin, use {_setRoleAdmin}."
      },
      "grantRole(bytes32,address)": {
        "details": "Grants `role` to `account`. If `account` had not been already granted `role`, emits a {RoleGranted} event. Requirements: - the caller must have ``role``'s admin role. May emit a {RoleGranted} event."
      },
      "hasRole(bytes32,address)": {
        "details": "Returns `true` if `account` has been granted `role`."
      },
      "isApprovedForAll(address,address)": {
        "details": "See {IERC721-isApprovedForAll}."
      },
      "mint(address)": {
        "details": "The caller can only mint one identity per address",
        "params": {
          "to": "Address of the owner of the new identity"
        }
      },
      "mintIdentityWithName(address,string)": {
        "details": "The caller can only mint one identity per address, and the name must be unique",
        "params": {
          "name": "Name of the new identity",
          "to": "Address of the owner of the new identity"
        }
      },
      "name()": {
        "details": "See {IERC721Metadata-name}."
      },
      "nameExists(string)": {
        "details": "This function queries if a soul name already exists",
        "params": {
          "name": "Name of the soul name"
        },
        "returns": {
          "exists": "`true` if the soul name exists, `false` otherwise"
        }
      },
      "ownerOf(string)": {
        "details": "This function returns the owner address of the soul name identity specified by the name",
        "params": {
          "name": "Name of the soul name"
        },
        "returns": {
          "_0": "Address of the owner of the identity"
        }
      },
      "ownerOf(uint256)": {
        "details": "This function returns the owner address of the identity specified by the tokenId",
        "params": {
          "tokenId": "TokenId of the identity"
        },
        "returns": {
          "_0": "Address of the owner of the identity"
        }
      },
      "pause()": {
        "details": "Sets an emergency stop mechanism that can be triggered by an authorized account."
      },
      "paused()": {
        "details": "Returns true if the contract is paused, and false otherwise."
      },
      "renounceRole(bytes32,address)": {
        "details": "Revokes `role` from the calling account. Roles are often managed via {grantRole} and {revokeRole}: this function's purpose is to provide a mechanism for accounts to lose their privileges if they are compromised (such as when a trusted device is misplaced). If the calling account had been revoked `role`, emits a {RoleRevoked} event. Requirements: - the caller must be `account`. May emit a {RoleRevoked} event."
      },
      "revokeRole(bytes32,address)": {
        "details": "Revokes `role` from `account`. If `account` had been granted `role`, emits a {RoleRevoked} event. Requirements: - the caller must have ``role``'s admin role. May emit a {RoleRevoked} event."
      },
      "safeTransferFrom(address,address,uint256)": {
        "details": "This will raise an exception because the token is not transferable.",
        "params": {
          "from": "The current owner of the NFT",
          "to": "The new owner",
          "tokenId": "The NFT ID to transfer"
        }
      },
      "safeTransferFrom(address,address,uint256,bytes)": {
        "details": "This will raise an exception because the token is not transferable.",
        "params": {
          "data": "Additional data with no specified format, sent in call to `_to`",
          "from": "The current owner of the NFT",
          "to": "The new owner",
          "tokenId": "The NFT ID to transfer"
        }
      },
      "setApprovalForAll(address,bool)": {
        "details": "See {IERC721-setApprovalForAll}."
      },
      "setSoulName(address)": {
        "details": "The caller must have the admin role to call this function",
        "params": {
          "_soulName": "Address of the SoulName contract"
        }
      },
      "supportsInterface(bytes4)": {
        "details": "Interface identification is specified in ERC-165.",
        "params": {
          "interfaceId": "The interface identifier, as specified in ERC-165"
        },
        "returns": {
          "_0": "`true` if the contract implements `interfaceId` and  `interfaceId` is not 0xffffffff, `false` otherwise"
        }
      },
      "symbol()": {
        "details": "See {IERC721Metadata-symbol}."
      },
      "tokenByIndex(uint256)": {
        "details": "See {IERC721Enumerable-tokenByIndex}."
      },
      "tokenOfOwner(address)": {
        "details": "This function returns the tokenId of the identity owned by an account",
        "params": {
          "owner": "Address of the owner of the identity"
        },
        "returns": {
          "_0": "TokenId of the identity owned by the account"
        }
      },
      "tokenOfOwnerByIndex(address,uint256)": {
        "details": "See {IERC721Enumerable-tokenOfOwnerByIndex}."
      },
      "tokenURI(address)": {
        "details": "This function returns the token URI of the identity owned by an account",
        "params": {
          "owner": "Address of the owner of the identity"
        },
        "returns": {
          "_0": "URI of the identity owned by the account"
        }
      },
      "tokenURI(string)": {
        "details": "This function returns the token URI of the soul name identity specified by the name",
        "params": {
          "name": "Name of the soul name"
        },
        "returns": {
          "_0": "URI of the identity associated to a soul name"
        }
      },
      "tokenURI(uint256)": {
        "details": "Throws if `_tokenId` is not a valid NFT. URIs are defined in RFC  3986. The URI may point to a JSON file that conforms to the \"ERC721  Metadata JSON Schema\".",
        "params": {
          "tokenId": "NFT to get the URI of"
        },
        "returns": {
          "_0": "URI of the NFT"
        }
      },
      "totalSupply()": {
        "details": "See {IERC721Enumerable-totalSupply}."
      },
      "transferFrom(address,address,uint256)": {
        "details": "This will raise an exception because the token is not transferable.",
        "params": {
          "from": "The current owner of the NFT",
          "to": "The new owner",
          "tokenId": "The NFT ID to transfer"
        }
      },
      "unpause()": {
        "details": "Unsets an emergency stop mechanism. It can be triggered by an authorized account."
      }
    },
    "title": "Soulbound Identity",
    "version": 1
  },
  "userdoc": {
    "kind": "user",
    "methods": {
      "burn(uint256)": {
        "notice": "Burns the token"
      },
      "constructor": {
        "notice": "Creates a new soulbound identity"
      },
      "extension()": {
        "notice": "Returns the extension of the soul name"
      },
      "getIdentityData(string)": {
        "notice": "Returns the information of a soul name"
      },
      "getIdentityNames(address)": {
        "notice": "Returns all the identity names of an account"
      },
      "getIdentityNames(uint256)": {
        "notice": "Returns all the identity names of an identity"
      },
      "mint(address)": {
        "notice": "Mints a new soulbound identity"
      },
      "mintIdentityWithName(address,string)": {
        "notice": "Mints a new soulbound identity with a SoulName associated to it"
      },
      "nameExists(string)": {
        "notice": "Checks if a soul name already exists"
      },
      "ownerOf(string)": {
        "notice": "Returns the owner address of a soul name"
      },
      "ownerOf(uint256)": {
        "notice": "Returns the owner address of an identity"
      },
      "pause()": {
        "notice": "Pauses the operations in the smart contract"
      },
      "safeTransferFrom(address,address,uint256)": {
        "notice": "Transfers the ownership of an NFT from one address to another address"
      },
      "safeTransferFrom(address,address,uint256,bytes)": {
        "notice": "Transfer ownership of the token to another address safely"
      },
      "setSoulName(address)": {
        "notice": "Sets the SoulName contract address linked to this identity"
      },
      "supportsInterface(bytes4)": {
        "notice": "Query if a contract implements an interface"
      },
      "tokenOfOwner(address)": {
        "notice": "Returns the identity id of an account"
      },
      "tokenURI(address)": {
        "notice": "Returns the URI of the owner of an identity"
      },
      "tokenURI(string)": {
        "notice": "Returns the URI of a soul name"
      },
      "tokenURI(uint256)": {
        "notice": "A distinct Uniform Resource Identifier (URI) for a given asset."
      },
      "transferFrom(address,address,uint256)": {
        "notice": "Transfer ownership of an NFT -- THE CALLER IS RESPONSIBLE  TO CONFIRM THAT `_to` IS CAPABLE OF RECEIVING NFTS OR ELSE  THEY MAY BE PERMANENTLY LOST"
      },
      "unpause()": {
        "notice": "Unpauses the operations in the smart contract"
      }
    },
    "notice": "Soulbound token that represents an identity.",
    "version": 1
  },
  "storageLayout": {
    "storage": [
      {
        "astId": 1645,
        "contract": "contracts/SoulboundIdentity.sol:SoulboundIdentity",
        "label": "_name",
        "offset": 0,
        "slot": "0",
        "type": "t_string_storage"
      },
      {
        "astId": 1647,
        "contract": "contracts/SoulboundIdentity.sol:SoulboundIdentity",
        "label": "_symbol",
        "offset": 0,
        "slot": "1",
        "type": "t_string_storage"
      },
      {
        "astId": 1651,
        "contract": "contracts/SoulboundIdentity.sol:SoulboundIdentity",
        "label": "_owners",
        "offset": 0,
        "slot": "2",
        "type": "t_mapping(t_uint256,t_address)"
      },
      {
        "astId": 1655,
        "contract": "contracts/SoulboundIdentity.sol:SoulboundIdentity",
        "label": "_balances",
        "offset": 0,
        "slot": "3",
        "type": "t_mapping(t_address,t_uint256)"
      },
      {
        "astId": 1659,
        "contract": "contracts/SoulboundIdentity.sol:SoulboundIdentity",
        "label": "_tokenApprovals",
        "offset": 0,
        "slot": "4",
        "type": "t_mapping(t_uint256,t_address)"
      },
      {
        "astId": 1665,
        "contract": "contracts/SoulboundIdentity.sol:SoulboundIdentity",
        "label": "_operatorApprovals",
        "offset": 0,
        "slot": "5",
        "type": "t_mapping(t_address,t_mapping(t_address,t_bool))"
      },
      {
        "astId": 2665,
        "contract": "contracts/SoulboundIdentity.sol:SoulboundIdentity",
        "label": "_ownedTokens",
        "offset": 0,
        "slot": "6",
        "type": "t_mapping(t_address,t_mapping(t_uint256,t_uint256))"
      },
      {
        "astId": 2669,
        "contract": "contracts/SoulboundIdentity.sol:SoulboundIdentity",
        "label": "_ownedTokensIndex",
        "offset": 0,
        "slot": "7",
        "type": "t_mapping(t_uint256,t_uint256)"
      },
      {
        "astId": 2672,
        "contract": "contracts/SoulboundIdentity.sol:SoulboundIdentity",
        "label": "_allTokens",
        "offset": 0,
        "slot": "8",
        "type": "t_array(t_uint256)dyn_storage"
      },
      {
        "astId": 2676,
        "contract": "contracts/SoulboundIdentity.sol:SoulboundIdentity",
        "label": "_allTokensIndex",
        "offset": 0,
        "slot": "9",
        "type": "t_mapping(t_uint256,t_uint256)"
      },
      {
        "astId": 523,
        "contract": "contracts/SoulboundIdentity.sol:SoulboundIdentity",
        "label": "_paused",
        "offset": 0,
        "slot": "10",
        "type": "t_bool"
      },
      {
        "astId": 24,
        "contract": "contracts/SoulboundIdentity.sol:SoulboundIdentity",
        "label": "_roles",
        "offset": 0,
        "slot": "11",
        "type": "t_mapping(t_bytes32,t_struct(RoleData)19_storage)"
      },
      {
        "astId": 6295,
        "contract": "contracts/SoulboundIdentity.sol:SoulboundIdentity",
        "label": "_tokenIdCounter",
        "offset": 0,
        "slot": "12",
        "type": "t_struct(Counter)3416_storage"
      },
      {
        "astId": 6297,
        "contract": "contracts/SoulboundIdentity.sol:SoulboundIdentity",
        "label": "_baseTokenURI",
        "offset": 0,
        "slot": "13",
        "type": "t_string_storage"
      },
      {
        "astId": 6486,
        "contract": "contracts/SoulboundIdentity.sol:SoulboundIdentity",
        "label": "soulLinker",
        "offset": 0,
        "slot": "14",
        "type": "t_contract(SoulLinker)4923"
      },
      {
        "astId": 5618,
        "contract": "contracts/SoulboundIdentity.sol:SoulboundIdentity",
        "label": "soulName",
        "offset": 0,
        "slot": "15",
        "type": "t_contract(SoulName)5581"
      }
    ],
    "types": {
      "t_address": {
        "encoding": "inplace",
        "label": "address",
        "numberOfBytes": "20"
      },
      "t_array(t_uint256)dyn_storage": {
        "base": "t_uint256",
        "encoding": "dynamic_array",
        "label": "uint256[]",
        "numberOfBytes": "32"
      },
      "t_bool": {
        "encoding": "inplace",
        "label": "bool",
        "numberOfBytes": "1"
      },
      "t_bytes32": {
        "encoding": "inplace",
        "label": "bytes32",
        "numberOfBytes": "32"
      },
      "t_contract(SoulLinker)4923": {
        "encoding": "inplace",
        "label": "contract SoulLinker",
        "numberOfBytes": "20"
      },
      "t_contract(SoulName)5581": {
        "encoding": "inplace",
        "label": "contract SoulName",
        "numberOfBytes": "20"
      },
      "t_mapping(t_address,t_bool)": {
        "encoding": "mapping",
        "key": "t_address",
        "label": "mapping(address => bool)",
        "numberOfBytes": "32",
        "value": "t_bool"
      },
      "t_mapping(t_address,t_mapping(t_address,t_bool))": {
        "encoding": "mapping",
        "key": "t_address",
        "label": "mapping(address => mapping(address => bool))",
        "numberOfBytes": "32",
        "value": "t_mapping(t_address,t_bool)"
      },
      "t_mapping(t_address,t_mapping(t_uint256,t_uint256))": {
        "encoding": "mapping",
        "key": "t_address",
        "label": "mapping(address => mapping(uint256 => uint256))",
        "numberOfBytes": "32",
        "value": "t_mapping(t_uint256,t_uint256)"
      },
      "t_mapping(t_address,t_uint256)": {
        "encoding": "mapping",
        "key": "t_address",
        "label": "mapping(address => uint256)",
        "numberOfBytes": "32",
        "value": "t_uint256"
      },
      "t_mapping(t_bytes32,t_struct(RoleData)19_storage)": {
        "encoding": "mapping",
        "key": "t_bytes32",
        "label": "mapping(bytes32 => struct AccessControl.RoleData)",
        "numberOfBytes": "32",
        "value": "t_struct(RoleData)19_storage"
      },
      "t_mapping(t_uint256,t_address)": {
        "encoding": "mapping",
        "key": "t_uint256",
        "label": "mapping(uint256 => address)",
        "numberOfBytes": "32",
        "value": "t_address"
      },
      "t_mapping(t_uint256,t_uint256)": {
        "encoding": "mapping",
        "key": "t_uint256",
        "label": "mapping(uint256 => uint256)",
        "numberOfBytes": "32",
        "value": "t_uint256"
      },
      "t_string_storage": {
        "encoding": "bytes",
        "label": "string",
        "numberOfBytes": "32"
      },
      "t_struct(Counter)3416_storage": {
        "encoding": "inplace",
        "label": "struct Counters.Counter",
        "members": [
          {
            "astId": 3415,
            "contract": "contracts/SoulboundIdentity.sol:SoulboundIdentity",
            "label": "_value",
            "offset": 0,
            "slot": "0",
            "type": "t_uint256"
          }
        ],
        "numberOfBytes": "32"
      },
      "t_struct(RoleData)19_storage": {
        "encoding": "inplace",
        "label": "struct AccessControl.RoleData",
        "members": [
          {
            "astId": 16,
            "contract": "contracts/SoulboundIdentity.sol:SoulboundIdentity",
            "label": "members",
            "offset": 0,
            "slot": "0",
            "type": "t_mapping(t_address,t_bool)"
          },
          {
            "astId": 18,
            "contract": "contracts/SoulboundIdentity.sol:SoulboundIdentity",
            "label": "adminRole",
            "offset": 0,
            "slot": "1",
            "type": "t_bytes32"
          }
        ],
        "numberOfBytes": "64"
      },
      "t_uint256": {
        "encoding": "inplace",
        "label": "uint256",
        "numberOfBytes": "32"
      }
    }
  }
}