{
  "address": "0xa9df926C0216a966323bcCF9d52c3db4f9fc98e1",
  "abi": [
    {
      "inputs": [
        {
          "internalType": "address",
          "name": "owner",
          "type": "address"
        },
        {
          "internalType": "address",
          "name": "soulLinker",
          "type": "address"
        },
        {
          "internalType": "string",
          "name": "baseTokenURI",
          "type": "string"
        }
      ],
      "stateMutability": "nonpayable",
      "type": "constructor"
    },
    {
      "anonymous": false,
      "inputs": [
        {
          "indexed": true,
          "internalType": "address",
          "name": "owner",
          "type": "address"
        },
        {
          "indexed": true,
          "internalType": "address",
          "name": "approved",
          "type": "address"
        },
        {
          "indexed": true,
          "internalType": "uint256",
          "name": "tokenId",
          "type": "uint256"
        }
      ],
      "name": "Approval",
      "type": "event"
    },
    {
      "anonymous": false,
      "inputs": [
        {
          "indexed": true,
          "internalType": "address",
          "name": "owner",
          "type": "address"
        },
        {
          "indexed": true,
          "internalType": "address",
          "name": "operator",
          "type": "address"
        },
        {
          "indexed": false,
          "internalType": "bool",
          "name": "approved",
          "type": "bool"
        }
      ],
      "name": "ApprovalForAll",
      "type": "event"
    },
    {
      "anonymous": false,
      "inputs": [
        {
          "indexed": true,
          "internalType": "address",
          "name": "previousOwner",
          "type": "address"
        },
        {
          "indexed": true,
          "internalType": "address",
          "name": "newOwner",
          "type": "address"
        }
      ],
      "name": "OwnershipTransferred",
      "type": "event"
    },
    {
      "anonymous": false,
      "inputs": [
        {
          "indexed": false,
          "internalType": "address",
          "name": "account",
          "type": "address"
        }
      ],
      "name": "Paused",
      "type": "event"
    },
    {
      "anonymous": false,
      "inputs": [
        {
          "indexed": true,
          "internalType": "bytes32",
          "name": "role",
          "type": "bytes32"
        },
        {
          "indexed": true,
          "internalType": "bytes32",
          "name": "previousAdminRole",
          "type": "bytes32"
        },
        {
          "indexed": true,
          "internalType": "bytes32",
          "name": "newAdminRole",
          "type": "bytes32"
        }
      ],
      "name": "RoleAdminChanged",
      "type": "event"
    },
    {
      "anonymous": false,
      "inputs": [
        {
          "indexed": true,
          "internalType": "bytes32",
          "name": "role",
          "type": "bytes32"
        },
        {
          "indexed": true,
          "internalType": "address",
          "name": "account",
          "type": "address"
        },
        {
          "indexed": true,
          "internalType": "address",
          "name": "sender",
          "type": "address"
        }
      ],
      "name": "RoleGranted",
      "type": "event"
    },
    {
      "anonymous": false,
      "inputs": [
        {
          "indexed": true,
          "internalType": "bytes32",
          "name": "role",
          "type": "bytes32"
        },
        {
          "indexed": true,
          "internalType": "address",
          "name": "account",
          "type": "address"
        },
        {
          "indexed": true,
          "internalType": "address",
          "name": "sender",
          "type": "address"
        }
      ],
      "name": "RoleRevoked",
      "type": "event"
    },
    {
      "anonymous": false,
      "inputs": [
        {
          "indexed": true,
          "internalType": "address",
          "name": "from",
          "type": "address"
        },
        {
          "indexed": true,
          "internalType": "address",
          "name": "to",
          "type": "address"
        },
        {
          "indexed": true,
          "internalType": "uint256",
          "name": "tokenId",
          "type": "uint256"
        }
      ],
      "name": "Transfer",
      "type": "event"
    },
    {
      "anonymous": false,
      "inputs": [
        {
          "indexed": false,
          "internalType": "address",
          "name": "account",
          "type": "address"
        }
      ],
      "name": "Unpaused",
      "type": "event"
    },
    {
      "inputs": [],
      "name": "DEFAULT_ADMIN_ROLE",
      "outputs": [
        {
          "internalType": "bytes32",
          "name": "",
          "type": "bytes32"
        }
      ],
      "stateMutability": "view",
      "type": "function"
    },
    {
      "inputs": [],
      "name": "MINTER_ROLE",
      "outputs": [
        {
          "internalType": "bytes32",
          "name": "",
          "type": "bytes32"
        }
      ],
      "stateMutability": "view",
      "type": "function"
    },
    {
      "inputs": [],
      "name": "PAUSER_ROLE",
      "outputs": [
        {
          "internalType": "bytes32",
          "name": "",
          "type": "bytes32"
        }
      ],
      "stateMutability": "view",
      "type": "function"
    },
    {
      "inputs": [
        {
          "internalType": "address",
          "name": "to",
          "type": "address"
        },
        {
          "internalType": "uint256",
          "name": "tokenId",
          "type": "uint256"
        }
      ],
      "name": "approve",
      "outputs": [],
      "stateMutability": "nonpayable",
      "type": "function"
    },
    {
      "inputs": [
        {
          "internalType": "address",
          "name": "owner",
          "type": "address"
        }
      ],
      "name": "balanceOf",
      "outputs": [
        {
          "internalType": "uint256",
          "name": "",
          "type": "uint256"
        }
      ],
      "stateMutability": "view",
      "type": "function"
    },
    {
      "inputs": [
        {
          "internalType": "uint256",
          "name": "tokenId",
          "type": "uint256"
        }
      ],
      "name": "burn",
      "outputs": [],
      "stateMutability": "nonpayable",
      "type": "function"
    },
    {
      "inputs": [
        {
          "internalType": "uint256",
          "name": "tokenId",
          "type": "uint256"
        }
      ],
      "name": "getApproved",
      "outputs": [
        {
          "internalType": "address",
          "name": "",
          "type": "address"
        }
      ],
      "stateMutability": "view",
      "type": "function"
    },
    {
      "inputs": [
        {
          "internalType": "bytes32",
          "name": "role",
          "type": "bytes32"
        }
      ],
      "name": "getRoleAdmin",
      "outputs": [
        {
          "internalType": "bytes32",
          "name": "",
          "type": "bytes32"
        }
      ],
      "stateMutability": "view",
      "type": "function"
    },
    {
      "inputs": [
        {
          "internalType": "bytes32",
          "name": "role",
          "type": "bytes32"
        },
        {
          "internalType": "uint256",
          "name": "index",
          "type": "uint256"
        }
      ],
      "name": "getRoleMember",
      "outputs": [
        {
          "internalType": "address",
          "name": "",
          "type": "address"
        }
      ],
      "stateMutability": "view",
      "type": "function"
    },
    {
      "inputs": [
        {
          "internalType": "bytes32",
          "name": "role",
          "type": "bytes32"
        }
      ],
      "name": "getRoleMemberCount",
      "outputs": [
        {
          "internalType": "uint256",
          "name": "",
          "type": "uint256"
        }
      ],
      "stateMutability": "view",
      "type": "function"
    },
    {
      "inputs": [
        {
          "internalType": "bytes32",
          "name": "role",
          "type": "bytes32"
        },
        {
          "internalType": "address",
          "name": "account",
          "type": "address"
        }
      ],
      "name": "grantRole",
      "outputs": [],
      "stateMutability": "nonpayable",
      "type": "function"
    },
    {
      "inputs": [
        {
          "internalType": "bytes32",
          "name": "role",
          "type": "bytes32"
        },
        {
          "internalType": "address",
          "name": "account",
          "type": "address"
        }
      ],
      "name": "hasRole",
      "outputs": [
        {
          "internalType": "bool",
          "name": "",
          "type": "bool"
        }
      ],
      "stateMutability": "view",
      "type": "function"
    },
    {
      "inputs": [
        {
          "internalType": "address",
          "name": "owner",
          "type": "address"
        },
        {
          "internalType": "address",
          "name": "operator",
          "type": "address"
        }
      ],
      "name": "isApprovedForAll",
      "outputs": [
        {
          "internalType": "bool",
          "name": "",
          "type": "bool"
        }
      ],
      "stateMutability": "view",
      "type": "function"
    },
    {
      "inputs": [
        {
          "internalType": "address",
          "name": "to",
          "type": "address"
        }
      ],
      "name": "mint",
      "outputs": [],
      "stateMutability": "nonpayable",
      "type": "function"
    },
    {
      "inputs": [],
      "name": "name",
      "outputs": [
        {
          "internalType": "string",
          "name": "",
          "type": "string"
        }
      ],
      "stateMutability": "view",
      "type": "function"
    },
    {
      "inputs": [],
      "name": "owner",
      "outputs": [
        {
          "internalType": "address",
          "name": "",
          "type": "address"
        }
      ],
      "stateMutability": "view",
      "type": "function"
    },
    {
      "inputs": [
        {
          "internalType": "uint256",
          "name": "tokenId",
          "type": "uint256"
        }
      ],
      "name": "ownerOf",
      "outputs": [
        {
          "internalType": "address",
          "name": "",
          "type": "address"
        }
      ],
      "stateMutability": "view",
      "type": "function"
    },
    {
      "inputs": [],
      "name": "pause",
      "outputs": [],
      "stateMutability": "nonpayable",
      "type": "function"
    },
    {
      "inputs": [],
      "name": "paused",
      "outputs": [
        {
          "internalType": "bool",
          "name": "",
          "type": "bool"
        }
      ],
      "stateMutability": "view",
      "type": "function"
    },
    {
      "inputs": [],
      "name": "renounceOwnership",
      "outputs": [],
      "stateMutability": "nonpayable",
      "type": "function"
    },
    {
      "inputs": [
        {
          "internalType": "bytes32",
          "name": "role",
          "type": "bytes32"
        },
        {
          "internalType": "address",
          "name": "account",
          "type": "address"
        }
      ],
      "name": "renounceRole",
      "outputs": [],
      "stateMutability": "nonpayable",
      "type": "function"
    },
    {
      "inputs": [
        {
          "internalType": "bytes32",
          "name": "role",
          "type": "bytes32"
        },
        {
          "internalType": "address",
          "name": "account",
          "type": "address"
        }
      ],
      "name": "revokeRole",
      "outputs": [],
      "stateMutability": "nonpayable",
      "type": "function"
    },
    {
      "inputs": [
        {
          "internalType": "address",
          "name": "",
          "type": "address"
        },
        {
          "internalType": "address",
          "name": "",
          "type": "address"
        },
        {
          "internalType": "uint256",
          "name": "",
          "type": "uint256"
        }
      ],
      "name": "safeTransferFrom",
      "outputs": [],
      "stateMutability": "pure",
      "type": "function"
    },
    {
      "inputs": [
        {
          "internalType": "address",
          "name": "",
          "type": "address"
        },
        {
          "internalType": "address",
          "name": "",
          "type": "address"
        },
        {
          "internalType": "uint256",
          "name": "",
          "type": "uint256"
        },
        {
          "internalType": "bytes",
          "name": "",
          "type": "bytes"
        }
      ],
      "name": "safeTransferFrom",
      "outputs": [],
      "stateMutability": "pure",
      "type": "function"
    },
    {
      "inputs": [
        {
          "internalType": "address",
          "name": "operator",
          "type": "address"
        },
        {
          "internalType": "bool",
          "name": "approved",
          "type": "bool"
        }
      ],
      "name": "setApprovalForAll",
      "outputs": [],
      "stateMutability": "nonpayable",
      "type": "function"
    },
    {
      "inputs": [],
      "name": "soulLinker",
      "outputs": [
        {
          "internalType": "contract ISoulLinker",
          "name": "",
          "type": "address"
        }
      ],
      "stateMutability": "view",
      "type": "function"
    },
    {
      "inputs": [
        {
          "internalType": "bytes4",
          "name": "interfaceId",
          "type": "bytes4"
        }
      ],
      "name": "supportsInterface",
      "outputs": [
        {
          "internalType": "bool",
          "name": "",
          "type": "bool"
        }
      ],
      "stateMutability": "view",
      "type": "function"
    },
    {
      "inputs": [],
      "name": "symbol",
      "outputs": [
        {
          "internalType": "string",
          "name": "",
          "type": "string"
        }
      ],
      "stateMutability": "view",
      "type": "function"
    },
    {
      "inputs": [
        {
          "internalType": "uint256",
          "name": "index",
          "type": "uint256"
        }
      ],
      "name": "tokenByIndex",
      "outputs": [
        {
          "internalType": "uint256",
          "name": "",
          "type": "uint256"
        }
      ],
      "stateMutability": "view",
      "type": "function"
    },
    {
      "inputs": [
        {
          "internalType": "address",
          "name": "owner",
          "type": "address"
        },
        {
          "internalType": "uint256",
          "name": "index",
          "type": "uint256"
        }
      ],
      "name": "tokenOfOwnerByIndex",
      "outputs": [
        {
          "internalType": "uint256",
          "name": "",
          "type": "uint256"
        }
      ],
      "stateMutability": "view",
      "type": "function"
    },
    {
      "inputs": [
        {
          "internalType": "uint256",
          "name": "tokenId",
          "type": "uint256"
        }
      ],
      "name": "tokenURI",
      "outputs": [
        {
          "internalType": "string",
          "name": "",
          "type": "string"
        }
      ],
      "stateMutability": "view",
      "type": "function"
    },
    {
      "inputs": [],
      "name": "totalSupply",
      "outputs": [
        {
          "internalType": "uint256",
          "name": "",
          "type": "uint256"
        }
      ],
      "stateMutability": "view",
      "type": "function"
    },
    {
      "inputs": [
        {
          "internalType": "address",
          "name": "",
          "type": "address"
        },
        {
          "internalType": "address",
          "name": "",
          "type": "address"
        },
        {
          "internalType": "uint256",
          "name": "",
          "type": "uint256"
        }
      ],
      "name": "transferFrom",
      "outputs": [],
      "stateMutability": "pure",
      "type": "function"
    },
    {
      "inputs": [
        {
          "internalType": "address",
          "name": "newOwner",
          "type": "address"
        }
      ],
      "name": "transferOwnership",
      "outputs": [],
      "stateMutability": "nonpayable",
      "type": "function"
    },
    {
      "inputs": [],
      "name": "unpause",
      "outputs": [],
      "stateMutability": "nonpayable",
      "type": "function"
    }
  ],
  "transactionHash": "0x9f14fbfe116402b46e6074c3c39fedde03d78c6dda3e87e396630de30882044d",
  "args": [
    "0x3c8D9f130970358b7E8cbc1DbD0a1EbA6EBE368F",
    "0xa703e73025f8169cbf299ED727a80eD845315dF2",
    "https://dev.api.masa.finance/v1.0/credit-report/"
  ],
  "numDeployments": 4,
  "solcInputHash": "2db6b0d533be407f265a5d1a5e7af6ed",
  "bytecode": "0x60806040523480156200001157600080fd5b5060405162002a0938038062002a09833981016040819052620000349162000504565b82826040518060400160405280601281526020017113585cd84810dc99591a5d0814995c1bdc9d60721b8152506040518060400160405280600381526020016226a1a960e91b81525084828282828281600290805190602001906200009b92919062000441565b508051620000b190600390602084019062000441565b5050600c805460ff19169055508051620000d390600e90602084019062000441565b50620000e1600033620001a9565b620000fc600080516020620029e983398151915233620001a9565b620001287f65d7a28e3265b37a6474929f336521b332c1681b933f6cb9f3376673440d862a33620001a9565b505050620001456200013f620001a560201b60201c565b620001b9565b62000160600080516020620029e983398151915286620001a9565b62000176856200020b60201b62000e091760201c565b5050601080546001600160a01b0319166001600160a01b039390931692909217909155506200065b9350505050565b3390565b620001b582826200028e565b5050565b600f80546001600160a01b038381166001600160a01b0319831681179093556040519116919082907f8be0079c531659141344cd1fd0a4f28419497f9722a3daafe3b4186f6b6457e090600090a35050565b62000215620002d1565b6001600160a01b038116620002805760405162461bcd60e51b815260206004820152602660248201527f4f776e61626c653a206e6577206f776e657220697320746865207a65726f206160448201526564647265737360d01b60648201526084015b60405180910390fd5b6200028b81620001b9565b50565b620002a582826200032f60201b62000e7f1760201c565b6000828152600160209081526040909120620002cc91839062000f03620003cf821b17901c565b505050565b600f546001600160a01b031633146200032d5760405162461bcd60e51b815260206004820181905260248201527f4f776e61626c653a2063616c6c6572206973206e6f7420746865206f776e6572604482015260640162000277565b565b6000828152602081815260408083206001600160a01b038516845290915290205460ff16620001b5576000828152602081815260408083206001600160a01b03851684529091529020805460ff191660011790556200038b3390565b6001600160a01b0316816001600160a01b0316837f2f8788117e7eff1d82e926ec794901d17c78024a50270940304540a733656f0d60405160405180910390a45050565b6000620003e6836001600160a01b038416620003ef565b90505b92915050565b60008181526001830160205260408120546200043857508154600181810184556000848152602080822090930184905584548482528286019093526040902091909155620003e9565b506000620003e9565b8280546200044f9062000608565b90600052602060002090601f016020900481019282620004735760008555620004be565b82601f106200048e57805160ff1916838001178555620004be565b82800160010185558215620004be579182015b82811115620004be578251825591602001919060010190620004a1565b50620004cc929150620004d0565b5090565b5b80821115620004cc5760008155600101620004d1565b80516001600160a01b0381168114620004ff57600080fd5b919050565b6000806000606084860312156200051a57600080fd5b6200052584620004e7565b9250602062000536818601620004e7565b60408601519093506001600160401b03808211156200055457600080fd5b818701915087601f8301126200056957600080fd5b8151818111156200057e576200057e62000645565b604051601f8201601f19908116603f01168101908382118183101715620005a957620005a962000645565b816040528281528a86848701011115620005c257600080fd5b600093505b82841015620005e65784840186015181850187015292850192620005c7565b82841115620005f85760008684830101525b8096505050505050509250925092565b600181811c908216806200061d57607f821691505b602082108114156200063f57634e487b7160e01b600052602260045260246000fd5b50919050565b634e487b7160e01b600052604160045260246000fd5b61237e806200066b6000396000f3fe608060405234801561001057600080fd5b50600436106102115760003560e01c80636a62784211610125578063a22cb465116100ad578063d53913931161007c578063d539139314610437578063d547741f1461045e578063e63ab1e914610471578063e985e9c514610498578063f2fde38b146104d457600080fd5b8063a22cb465146103f0578063b88d4fde14610403578063c87b56dd14610411578063ca15c8731461042457600080fd5b80638da5cb5b116100f45780638da5cb5b146103a95780639010d07c146103ba57806391d14854146103cd57806395d89b41146103e0578063a217fddf146103e857600080fd5b80636a6278421461037357806370a0823114610386578063715018a6146103995780638456cb59146103a157600080fd5b80632f745c59116101a857806342966c681161017757806342966c681461031c578063453900701461032f5780634f6ccce7146103425780635c975abb146103555780636352211e1461036057600080fd5b80632f745c59146102ee57806336568abe146103015780633f4ba83a1461031457806342842e0e146102a557600080fd5b806318160ddd116101e457806318160ddd1461029357806323b872dd146102a5578063248a9ca3146102b85780632f2ff15d146102db57600080fd5b806301ffc9a71461021657806306fdde031461023e578063081812fc14610253578063095ea7b31461027e575b600080fd5b6102296102243660046120a8565b6104e7565b60405190151581526020015b60405180910390f35b6102466104f8565b6040516102359190612186565b61026661026136600461204a565b61058a565b6040516001600160a01b039091168152602001610235565b61029161028c366004612003565b6105b1565b005b600a545b604051908152602001610235565b6102916102b3366004611eb4565b6106cc565b6102976102c636600461204a565b60009081526020819052604090206001015490565b6102916102e9366004612063565b61072c565b6102976102fc366004612003565b610751565b61029161030f366004612063565b6107e7565b610291610865565b61029161032a36600461204a565b61090d565b601054610266906001600160a01b031681565b61029761035036600461204a565b610a1a565b600c5460ff16610229565b61026661036e36600461204a565b610aad565b610291610381366004611e66565b610b0d565b610297610394366004611e66565b610bc9565b610291610c4f565b610291610c61565b600f546001600160a01b0316610266565b6102666103c8366004612086565b610d05565b6102296103db366004612063565b610d24565b610246610d4d565b610297600081565b6102916103fe366004611fcc565b610d5c565b6102916102b3366004611ef0565b61024661041f36600461204a565b610d67565b61029761043236600461204a565b610dcd565b6102977f9f2df0fed2c77648de5860a4cc508cd0818c85b8b8a1ab4ceeef8d981c8956a681565b61029161046c366004612063565b610de4565b6102977f65d7a28e3265b37a6474929f336521b332c1681b933f6cb9f3376673440d862a81565b6102296104a6366004611e81565b6001600160a01b03918216600090815260076020908152604080832093909416825291909152205460ff1690565b6102916104e2366004611e66565b610e09565b60006104f282610f18565b92915050565b60606002805461050790612262565b80601f016020809104026020016040519081016040528092919081815260200182805461053390612262565b80156105805780601f1061055557610100808354040283529160200191610580565b820191906000526020600020905b81548152906001019060200180831161056357829003601f168201915b5050505050905090565b600061059582610f3d565b506000908152600660205260409020546001600160a01b031690565b60006105bc82610aad565b9050806001600160a01b0316836001600160a01b0316141561062f5760405162461bcd60e51b815260206004820152602160248201527f4552433732313a20617070726f76616c20746f2063757272656e74206f776e656044820152603960f91b60648201526084015b60405180910390fd5b336001600160a01b038216148061064b575061064b81336104a6565b6106bd5760405162461bcd60e51b815260206004820152603e60248201527f4552433732313a20617070726f76652063616c6c6572206973206e6f7420746f60448201527f6b656e206f776e6572206e6f7220617070726f76656420666f7220616c6c00006064820152608401610626565b6106c78383610f9c565b505050565b60405162461bcd60e51b815260206004820152602f60248201527f5472616e7366657272696e6720736f756c626f756e6420546f6b656e7320697360448201526e206e6f74207065726d69747465642160881b6064820152608401610626565b6000828152602081905260409020600101546107478161100a565b6106c78383611014565b600061075c83610bc9565b82106107be5760405162461bcd60e51b815260206004820152602b60248201527f455243373231456e756d657261626c653a206f776e657220696e646578206f7560448201526a74206f6620626f756e647360a81b6064820152608401610626565b506001600160a01b03919091166000908152600860209081526040808320938352929052205490565b6001600160a01b03811633146108575760405162461bcd60e51b815260206004820152602f60248201527f416363657373436f6e74726f6c3a2063616e206f6e6c792072656e6f756e636560448201526e103937b632b9903337b91039b2b63360891b6064820152608401610626565b6108618282611036565b5050565b61088f7f65d7a28e3265b37a6474929f336521b332c1681b933f6cb9f3376673440d862a33610d24565b610903576040805162461bcd60e51b81526020600482015260248101919091527f4552433732315072657365744d696e7465725061757365724175746f49643a2060448201527f6d75737420686176652070617573657220726f6c6520746f20756e70617573656064820152608401610626565b61090b611058565b565b601054604051633f278e0b60e21b8152306004820152602481018390526001600160a01b039091169063fc9e382c90604401602060405180830381600087803b15801561095957600080fd5b505af115801561096d573d6000803e3d6000fd5b505050506040513d601f19601f82011682018060405250810190610991919061202d565b15610a0e5760405162461bcd60e51b815260206004820152604160248201527f4120536f756c626f756e6420546f6b656e2063616e2774206265206275726e6560448201527f64206173206c6f6e672061732069742068617320616374697665206c696e6b736064820152602160f81b608482015260a401610626565b610a17816110aa565b50565b6000610a25600a5490565b8210610a885760405162461bcd60e51b815260206004820152602c60248201527f455243373231456e756d657261626c653a20676c6f62616c20696e646578206f60448201526b7574206f6620626f756e647360a01b6064820152608401610626565b600a8281548110610a9b57610a9b61230e565b90600052602060002001549050919050565b6000818152600460205260408120546001600160a01b0316806104f25760405162461bcd60e51b8152602060048201526018602482015277115490cdcc8c4e881a5b9d985b1a59081d1bdad95b88125160421b6044820152606401610626565b610b377f9f2df0fed2c77648de5860a4cc508cd0818c85b8b8a1ab4ceeef8d981c8956a633610d24565b610ba95760405162461bcd60e51b815260206004820152603d60248201527f4552433732315072657365744d696e7465725061757365724175746f49643a2060448201527f6d7573742068617665206d696e74657220726f6c6520746f206d696e740000006064820152608401610626565b610bbb81610bb6600d5490565b611120565b610a17600d80546001019055565b60006001600160a01b038216610c335760405162461bcd60e51b815260206004820152602960248201527f4552433732313a2061646472657373207a65726f206973206e6f7420612076616044820152683634b21037bbb732b960b91b6064820152608401610626565b506001600160a01b031660009081526005602052604090205490565b610c5761126e565b61090b60006112c8565b610c8b7f65d7a28e3265b37a6474929f336521b332c1681b933f6cb9f3376673440d862a33610d24565b610cfd5760405162461bcd60e51b815260206004820152603e60248201527f4552433732315072657365744d696e7465725061757365724175746f49643a2060448201527f6d75737420686176652070617573657220726f6c6520746f20706175736500006064820152608401610626565b61090b61131a565b6000828152600160205260408120610d1d9083611357565b9392505050565b6000918252602082815260408084206001600160a01b0393909316845291905290205460ff1690565b60606003805461050790612262565b610861338383611363565b6060610d7282610f3d565b6000610d7c611432565b90506000815111610d9c5760405180602001604052806000815250610d1d565b80610da684611441565b604051602001610db79291906120d2565b6040516020818303038152906040529392505050565b60008181526001602052604081206104f290611547565b600082815260208190526040902060010154610dff8161100a565b6106c78383611036565b610e1161126e565b6001600160a01b038116610e765760405162461bcd60e51b815260206004820152602660248201527f4f776e61626c653a206e6577206f776e657220697320746865207a65726f206160448201526564647265737360d01b6064820152608401610626565b610a17816112c8565b610e898282610d24565b610861576000828152602081815260408083206001600160a01b03851684529091529020805460ff19166001179055610ebf3390565b6001600160a01b0316816001600160a01b0316837f2f8788117e7eff1d82e926ec794901d17c78024a50270940304540a733656f0d60405160405180910390a45050565b6000610d1d836001600160a01b038416611551565b60006001600160e01b0319821663780e9d6360e01b14806104f257506104f2826115a0565b6000818152600460205260409020546001600160a01b0316610a175760405162461bcd60e51b8152602060048201526018602482015277115490cdcc8c4e881a5b9d985b1a59081d1bdad95b88125160421b6044820152606401610626565b600081815260066020526040902080546001600160a01b0319166001600160a01b0384169081179091558190610fd182610aad565b6001600160a01b03167f8c5be1e5ebec7d5bd14f71427d1e84f3dd0314c0f7b2291e5b200ac8c7c3b92560405160405180910390a45050565b610a1781336115e0565b61101e8282610e7f565b60008281526001602052604090206106c79082610f03565b6110408282611644565b60008281526001602052604090206106c790826116a9565b6110606116be565b600c805460ff191690557f5db9ee0a495bf2e6ff9c91a7834c1ba4fdd244a5e8aa4e537bd38aeae4b073aa335b6040516001600160a01b03909116815260200160405180910390a1565b6110b43382611707565b6111175760405162461bcd60e51b815260206004820152602e60248201527f4552433732313a2063616c6c6572206973206e6f7420746f6b656e206f776e6560448201526d1c881b9bdc88185c1c1c9bdd995960921b6064820152608401610626565b610a1781611785565b6001600160a01b0382166111765760405162461bcd60e51b815260206004820181905260248201527f4552433732313a206d696e7420746f20746865207a65726f20616464726573736044820152606401610626565b6000818152600460205260409020546001600160a01b0316156111db5760405162461bcd60e51b815260206004820152601c60248201527f4552433732313a20746f6b656e20616c7265616479206d696e746564000000006044820152606401610626565b6111e76000838361182c565b6001600160a01b03821660009081526005602052604081208054600192906112109084906121b9565b909155505060008181526004602052604080822080546001600160a01b0319166001600160a01b03861690811790915590518392907fddf252ad1be2c89b69c2b068fc378daa952ba7f163c4a11628f55a4df523b3ef908290a45050565b600f546001600160a01b0316331461090b5760405162461bcd60e51b815260206004820181905260248201527f4f776e61626c653a2063616c6c6572206973206e6f7420746865206f776e65726044820152606401610626565b600f80546001600160a01b038381166001600160a01b0319831681179093556040519116919082907f8be0079c531659141344cd1fd0a4f28419497f9722a3daafe3b4186f6b6457e090600090a35050565b611322611837565b600c805460ff191660011790557f62e78cea01bee320cd4e420270b5ea74000d11b0c9f74754ebdbfc544b05a25861108d3390565b6000610d1d838361187d565b816001600160a01b0316836001600160a01b031614156113c55760405162461bcd60e51b815260206004820152601960248201527f4552433732313a20617070726f766520746f2063616c6c6572000000000000006044820152606401610626565b6001600160a01b03838116600081815260076020908152604080832094871680845294825291829020805460ff191686151590811790915591519182527f17307eab39ab6107e8899845ad3d59bd9653f200f220920489ca2b5937696c31910160405180910390a3505050565b6060600e805461050790612262565b6060816114655750506040805180820190915260018152600360fc1b602082015290565b8160005b811561148f57806114798161229d565b91506114889050600a836121d1565b9150611469565b60008167ffffffffffffffff8111156114aa576114aa612324565b6040519080825280601f01601f1916602001820160405280156114d4576020820181803683370190505b5090505b841561153f576114e9600183612204565b91506114f6600a866122b8565b6115019060306121b9565b60f81b8183815181106115165761151661230e565b60200101906001600160f81b031916908160001a905350611538600a866121d1565b94506114d8565b949350505050565b60006104f2825490565b6000818152600183016020526040812054611598575081546001818101845560008481526020808220909301849055845484825282860190935260409020919091556104f2565b5060006104f2565b60006001600160e01b031982166380ac58cd60e01b14806115d157506001600160e01b03198216635b5e139f60e01b145b806104f257506104f2826118a7565b6115ea8282610d24565b61086157611602816001600160a01b031660146118cc565b61160d8360206118cc565b60405160200161161e929190612111565b60408051601f198184030181529082905262461bcd60e51b825261062691600401612186565b61164e8282610d24565b15610861576000828152602081815260408083206001600160a01b0385168085529252808320805460ff1916905551339285917ff6391f5c32d9c69d2a47ea670b442974b53935d1edc7fd64eb21e047a839171b9190a45050565b6000610d1d836001600160a01b038416611a68565b600c5460ff1661090b5760405162461bcd60e51b815260206004820152601460248201527314185d5cd8589b194e881b9bdd081c185d5cd95960621b6044820152606401610626565b60008061171383610aad565b9050806001600160a01b0316846001600160a01b0316148061175a57506001600160a01b0380821660009081526007602090815260408083209388168352929052205460ff165b8061153f5750836001600160a01b03166117738461058a565b6001600160a01b031614949350505050565b600061179082610aad565b905061179e8160008461182c565b6117a9600083610f9c565b6001600160a01b03811660009081526005602052604081208054600192906117d2908490612204565b909155505060008281526004602052604080822080546001600160a01b0319169055518391906001600160a01b038416907fddf252ad1be2c89b69c2b068fc378daa952ba7f163c4a11628f55a4df523b3ef908390a45050565b6106c7838383611b5b565b600c5460ff161561090b5760405162461bcd60e51b815260206004820152601060248201526f14185d5cd8589b194e881c185d5cd95960821b6044820152606401610626565b60008260000182815481106118945761189461230e565b9060005260206000200154905092915050565b60006001600160e01b03198216635a05180f60e01b14806104f257506104f282611bcd565b606060006118db8360026121e5565b6118e69060026121b9565b67ffffffffffffffff8111156118fe576118fe612324565b6040519080825280601f01601f191660200182016040528015611928576020820181803683370190505b509050600360fc1b816000815181106119435761194361230e565b60200101906001600160f81b031916908160001a905350600f60fb1b816001815181106119725761197261230e565b60200101906001600160f81b031916908160001a90535060006119968460026121e5565b6119a19060016121b9565b90505b6001811115611a19576f181899199a1a9b1b9c1cb0b131b232b360811b85600f16601081106119d5576119d561230e565b1a60f81b8282815181106119eb576119eb61230e565b60200101906001600160f81b031916908160001a90535060049490941c93611a128161224b565b90506119a4565b508315610d1d5760405162461bcd60e51b815260206004820181905260248201527f537472696e67733a20686578206c656e67746820696e73756666696369656e746044820152606401610626565b60008181526001830160205260408120548015611b51576000611a8c600183612204565b8554909150600090611aa090600190612204565b9050818114611b05576000866000018281548110611ac057611ac061230e565b9060005260206000200154905080876000018481548110611ae357611ae361230e565b6000918252602080832090910192909255918252600188019052604090208390555b8554869080611b1657611b166122f8565b6001900381819060005260206000200160009055905585600101600086815260200190815260200160002060009055600193505050506104f2565b60009150506104f2565b611b66838383611c02565b600c5460ff16156106c75760405162461bcd60e51b815260206004820152602b60248201527f4552433732315061757361626c653a20746f6b656e207472616e73666572207760448201526a1a1a5b19481c185d5cd95960aa1b6064820152608401610626565b60006001600160e01b03198216637965db0b60e01b14806104f257506301ffc9a760e01b6001600160e01b03198316146104f2565b6001600160a01b038316611c5d57611c5881600a80546000838152600b60205260408120829055600182018355919091527fc65a7bb8d6351c1cf70c95a316cc6a92839c986682d98bc35f958f4883f9d2a80155565b611c80565b816001600160a01b0316836001600160a01b031614611c8057611c808382611cba565b6001600160a01b038216611c97576106c781611d57565b826001600160a01b0316826001600160a01b0316146106c7576106c78282611e06565b60006001611cc784610bc9565b611cd19190612204565b600083815260096020526040902054909150808214611d24576001600160a01b03841660009081526008602090815260408083208584528252808320548484528184208190558352600990915290208190555b5060009182526009602090815260408084208490556001600160a01b039094168352600881528383209183525290812055565b600a54600090611d6990600190612204565b6000838152600b6020526040812054600a8054939450909284908110611d9157611d9161230e565b9060005260206000200154905080600a8381548110611db257611db261230e565b6000918252602080832090910192909255828152600b9091526040808220849055858252812055600a805480611dea57611dea6122f8565b6001900381819060005260206000200160009055905550505050565b6000611e1183610bc9565b6001600160a01b039093166000908152600860209081526040808320868452825280832085905593825260099052919091209190915550565b80356001600160a01b0381168114611e6157600080fd5b919050565b600060208284031215611e7857600080fd5b610d1d82611e4a565b60008060408385031215611e9457600080fd5b611e9d83611e4a565b9150611eab60208401611e4a565b90509250929050565b600080600060608486031215611ec957600080fd5b611ed284611e4a565b9250611ee060208501611e4a565b9150604084013590509250925092565b60008060008060808587031215611f0657600080fd5b611f0f85611e4a565b9350611f1d60208601611e4a565b925060408501359150606085013567ffffffffffffffff80821115611f4157600080fd5b818701915087601f830112611f5557600080fd5b813581811115611f6757611f67612324565b604051601f8201601f19908116603f01168101908382118183101715611f8f57611f8f612324565b816040528281528a6020848701011115611fa857600080fd5b82602086016020830137600060208483010152809550505050505092959194509250565b60008060408385031215611fdf57600080fd5b611fe883611e4a565b91506020830135611ff88161233a565b809150509250929050565b6000806040838503121561201657600080fd5b61201f83611e4a565b946020939093013593505050565b60006020828403121561203f57600080fd5b8151610d1d8161233a565b60006020828403121561205c57600080fd5b5035919050565b6000806040838503121561207657600080fd5b82359150611eab60208401611e4a565b6000806040838503121561209957600080fd5b50508035926020909101359150565b6000602082840312156120ba57600080fd5b81356001600160e01b031981168114610d1d57600080fd5b600083516120e481846020880161221b565b8351908301906120f881836020880161221b565b64173539b7b760d91b9101908152600501949350505050565b7f416363657373436f6e74726f6c3a206163636f756e742000000000000000000081526000835161214981601785016020880161221b565b7001034b99036b4b9b9b4b733903937b6329607d1b601791840191820152835161217a81602884016020880161221b565b01602801949350505050565b60208152600082518060208401526121a581604085016020870161221b565b601f01601f19169190910160400192915050565b600082198211156121cc576121cc6122cc565b500190565b6000826121e0576121e06122e2565b500490565b60008160001904831182151516156121ff576121ff6122cc565b500290565b600082821015612216576122166122cc565b500390565b60005b8381101561223657818101518382015260200161221e565b83811115612245576000848401525b50505050565b60008161225a5761225a6122cc565b506000190190565b600181811c9082168061227657607f821691505b6020821081141561229757634e487b7160e01b600052602260045260246000fd5b50919050565b60006000198214156122b1576122b16122cc565b5060010190565b6000826122c7576122c76122e2565b500690565b634e487b7160e01b600052601160045260246000fd5b634e487b7160e01b600052601260045260246000fd5b634e487b7160e01b600052603160045260246000fd5b634e487b7160e01b600052603260045260246000fd5b634e487b7160e01b600052604160045260246000fd5b8015158114610a1757600080fdfea2646970667358221220759457bf5ef087a610724110a035d18747ff1db9378e208764ef40fe737e4fd764736f6c634300080700339f2df0fed2c77648de5860a4cc508cd0818c85b8b8a1ab4ceeef8d981c8956a6",
  "devdoc": {
    "kind": "dev",
    "methods": {
      "approve(address,uint256)": {
        "details": "See {IERC721-approve}."
      },
      "balanceOf(address)": {
        "details": "See {IERC721-balanceOf}."
      },
      "burn(uint256)": {
        "details": "Burns `tokenId`. See {ERC721-_burn}. Requirements: - The caller must own `tokenId` or be an approved operator."
      },
      "getApproved(uint256)": {
        "details": "See {IERC721-getApproved}."
      },
      "getRoleAdmin(bytes32)": {
        "details": "Returns the admin role that controls `role`. See {grantRole} and {revokeRole}. To change a role's admin, use {_setRoleAdmin}."
      },
      "getRoleMember(bytes32,uint256)": {
        "details": "Returns one of the accounts that have `role`. `index` must be a value between 0 and {getRoleMemberCount}, non-inclusive. Role bearers are not sorted in any particular way, and their ordering may change at any point. WARNING: When using {getRoleMember} and {getRoleMemberCount}, make sure you perform all queries on the same block. See the following https://forum.openzeppelin.com/t/iterating-over-elements-on-enumerableset-in-openzeppelin-contracts/2296[forum post] for more information."
      },
      "getRoleMemberCount(bytes32)": {
        "details": "Returns the number of accounts that have `role`. Can be used together with {getRoleMember} to enumerate all bearers of a role."
      },
      "grantRole(bytes32,address)": {
        "details": "Grants `role` to `account`. If `account` had not been already granted `role`, emits a {RoleGranted} event. Requirements: - the caller must have ``role``'s admin role. May emit a {RoleGranted} event."
      },
      "hasRole(bytes32,address)": {
        "details": "Returns `true` if `account` has been granted `role`."
      },
      "isApprovedForAll(address,address)": {
        "details": "See {IERC721-isApprovedForAll}."
      },
      "mint(address)": {
        "details": "Creates a new token for `to`. Its token ID will be automatically assigned (and available on the emitted {IERC721-Transfer} event), and the token URI autogenerated based on the base URI passed at construction. See {ERC721-_mint}. Requirements: - the caller must have the `MINTER_ROLE`."
      },
      "name()": {
        "details": "See {IERC721Metadata-name}."
      },
      "owner()": {
        "details": "Returns the address of the current owner."
      },
      "ownerOf(uint256)": {
        "details": "See {IERC721-ownerOf}."
      },
      "pause()": {
        "details": "Pauses all token transfers. See {ERC721Pausable} and {Pausable-_pause}. Requirements: - the caller must have the `PAUSER_ROLE`."
      },
      "paused()": {
        "details": "Returns true if the contract is paused, and false otherwise."
      },
      "renounceOwnership()": {
        "details": "Leaves the contract without owner. It will not be possible to call `onlyOwner` functions anymore. Can only be called by the current owner. NOTE: Renouncing ownership will leave the contract without an owner, thereby removing any functionality that is only available to the owner."
      },
      "renounceRole(bytes32,address)": {
        "details": "Revokes `role` from the calling account. Roles are often managed via {grantRole} and {revokeRole}: this function's purpose is to provide a mechanism for accounts to lose their privileges if they are compromised (such as when a trusted device is misplaced). If the calling account had been revoked `role`, emits a {RoleRevoked} event. Requirements: - the caller must be `account`. May emit a {RoleRevoked} event."
      },
      "revokeRole(bytes32,address)": {
        "details": "Revokes `role` from `account`. If `account` had been granted `role`, emits a {RoleRevoked} event. Requirements: - the caller must have ``role``'s admin role. May emit a {RoleRevoked} event."
      },
      "setApprovalForAll(address,bool)": {
        "details": "See {IERC721-setApprovalForAll}."
      },
      "supportsInterface(bytes4)": {
        "details": "See {IERC165-supportsInterface}."
      },
      "symbol()": {
        "details": "See {IERC721Metadata-symbol}."
      },
      "tokenByIndex(uint256)": {
        "details": "See {IERC721Enumerable-tokenByIndex}."
      },
      "tokenOfOwnerByIndex(address,uint256)": {
        "details": "See {IERC721Enumerable-tokenOfOwnerByIndex}."
      },
      "tokenURI(uint256)": {
        "details": "See {IERC721Metadata-tokenURI}."
      },
      "totalSupply()": {
        "details": "See {IERC721Enumerable-totalSupply}."
      },
      "transferOwnership(address)": {
        "details": "Transfers ownership of the contract to a new account (`newOwner`). Can only be called by the current owner."
      },
      "unpause()": {
        "details": "Unpauses all token transfers. See {ERC721Pausable} and {Pausable-_unpause}. Requirements: - the caller must have the `PAUSER_ROLE`."
      }
    },
    "version": 1
  },
  "userdoc": {
    "kind": "user",
    "methods": {},
    "version": 1
  },
  "storageLayout": {
    "storage": [
      {
        "astId": 24,
        "contract": "contracts/SoulBoundCreditReport.sol:SoulBoundCreditReport",
        "label": "_roles",
        "offset": 0,
        "slot": "0",
        "type": "t_mapping(t_bytes32,t_struct(RoleData)19_storage)"
      },
      {
        "astId": 338,
        "contract": "contracts/SoulBoundCreditReport.sol:SoulBoundCreditReport",
        "label": "_roleMembers",
        "offset": 0,
        "slot": "1",
        "type": "t_mapping(t_bytes32,t_struct(AddressSet)3380_storage)"
      },
      {
        "astId": 789,
        "contract": "contracts/SoulBoundCreditReport.sol:SoulBoundCreditReport",
        "label": "_name",
        "offset": 0,
        "slot": "2",
        "type": "t_string_storage"
      },
      {
        "astId": 791,
        "contract": "contracts/SoulBoundCreditReport.sol:SoulBoundCreditReport",
        "label": "_symbol",
        "offset": 0,
        "slot": "3",
        "type": "t_string_storage"
      },
      {
        "astId": 795,
        "contract": "contracts/SoulBoundCreditReport.sol:SoulBoundCreditReport",
        "label": "_owners",
        "offset": 0,
        "slot": "4",
        "type": "t_mapping(t_uint256,t_address)"
      },
      {
        "astId": 799,
        "contract": "contracts/SoulBoundCreditReport.sol:SoulBoundCreditReport",
        "label": "_balances",
        "offset": 0,
        "slot": "5",
        "type": "t_mapping(t_address,t_uint256)"
      },
      {
        "astId": 803,
        "contract": "contracts/SoulBoundCreditReport.sol:SoulBoundCreditReport",
        "label": "_tokenApprovals",
        "offset": 0,
        "slot": "6",
        "type": "t_mapping(t_uint256,t_address)"
      },
      {
        "astId": 809,
        "contract": "contracts/SoulBoundCreditReport.sol:SoulBoundCreditReport",
        "label": "_operatorApprovals",
        "offset": 0,
        "slot": "7",
        "type": "t_mapping(t_address,t_mapping(t_address,t_bool))"
      },
      {
        "astId": 1809,
        "contract": "contracts/SoulBoundCreditReport.sol:SoulBoundCreditReport",
        "label": "_ownedTokens",
        "offset": 0,
        "slot": "8",
        "type": "t_mapping(t_address,t_mapping(t_uint256,t_uint256))"
      },
      {
        "astId": 1813,
        "contract": "contracts/SoulBoundCreditReport.sol:SoulBoundCreditReport",
        "label": "_ownedTokensIndex",
        "offset": 0,
        "slot": "9",
        "type": "t_mapping(t_uint256,t_uint256)"
      },
      {
        "astId": 1816,
        "contract": "contracts/SoulBoundCreditReport.sol:SoulBoundCreditReport",
        "label": "_allTokens",
        "offset": 0,
        "slot": "10",
        "type": "t_array(t_uint256)dyn_storage"
      },
      {
        "astId": 1820,
        "contract": "contracts/SoulBoundCreditReport.sol:SoulBoundCreditReport",
        "label": "_allTokensIndex",
        "offset": 0,
        "slot": "11",
        "type": "t_mapping(t_uint256,t_uint256)"
      },
      {
        "astId": 673,
        "contract": "contracts/SoulBoundCreditReport.sol:SoulBoundCreditReport",
        "label": "_paused",
        "offset": 0,
        "slot": "12",
        "type": "t_bool"
      },
      {
        "astId": 2264,
        "contract": "contracts/SoulBoundCreditReport.sol:SoulBoundCreditReport",
        "label": "_tokenIdTracker",
        "offset": 0,
        "slot": "13",
        "type": "t_struct(Counter)2738_storage"
      },
      {
        "astId": 2266,
        "contract": "contracts/SoulBoundCreditReport.sol:SoulBoundCreditReport",
        "label": "_baseTokenURI",
        "offset": 0,
        "slot": "14",
        "type": "t_string_storage"
      },
      {
        "astId": 550,
        "contract": "contracts/SoulBoundCreditReport.sol:SoulBoundCreditReport",
        "label": "_owner",
        "offset": 0,
        "slot": "15",
        "type": "t_address"
      },
      {
        "astId": 3751,
        "contract": "contracts/SoulBoundCreditReport.sol:SoulBoundCreditReport",
        "label": "soulLinker",
        "offset": 0,
        "slot": "16",
        "type": "t_contract(ISoulLinker)3964"
      }
    ],
    "types": {
      "t_address": {
        "encoding": "inplace",
        "label": "address",
        "numberOfBytes": "20"
      },
      "t_array(t_bytes32)dyn_storage": {
        "base": "t_bytes32",
        "encoding": "dynamic_array",
        "label": "bytes32[]",
        "numberOfBytes": "32"
      },
      "t_array(t_uint256)dyn_storage": {
        "base": "t_uint256",
        "encoding": "dynamic_array",
        "label": "uint256[]",
        "numberOfBytes": "32"
      },
      "t_bool": {
        "encoding": "inplace",
        "label": "bool",
        "numberOfBytes": "1"
      },
      "t_bytes32": {
        "encoding": "inplace",
        "label": "bytes32",
        "numberOfBytes": "32"
      },
      "t_contract(ISoulLinker)3964": {
        "encoding": "inplace",
        "label": "contract ISoulLinker",
        "numberOfBytes": "20"
      },
      "t_mapping(t_address,t_bool)": {
        "encoding": "mapping",
        "key": "t_address",
        "label": "mapping(address => bool)",
        "numberOfBytes": "32",
        "value": "t_bool"
      },
      "t_mapping(t_address,t_mapping(t_address,t_bool))": {
        "encoding": "mapping",
        "key": "t_address",
        "label": "mapping(address => mapping(address => bool))",
        "numberOfBytes": "32",
        "value": "t_mapping(t_address,t_bool)"
      },
      "t_mapping(t_address,t_mapping(t_uint256,t_uint256))": {
        "encoding": "mapping",
        "key": "t_address",
        "label": "mapping(address => mapping(uint256 => uint256))",
        "numberOfBytes": "32",
        "value": "t_mapping(t_uint256,t_uint256)"
      },
      "t_mapping(t_address,t_uint256)": {
        "encoding": "mapping",
        "key": "t_address",
        "label": "mapping(address => uint256)",
        "numberOfBytes": "32",
        "value": "t_uint256"
      },
      "t_mapping(t_bytes32,t_struct(AddressSet)3380_storage)": {
        "encoding": "mapping",
        "key": "t_bytes32",
        "label": "mapping(bytes32 => struct EnumerableSet.AddressSet)",
        "numberOfBytes": "32",
        "value": "t_struct(AddressSet)3380_storage"
      },
      "t_mapping(t_bytes32,t_struct(RoleData)19_storage)": {
        "encoding": "mapping",
        "key": "t_bytes32",
        "label": "mapping(bytes32 => struct AccessControl.RoleData)",
        "numberOfBytes": "32",
        "value": "t_struct(RoleData)19_storage"
      },
      "t_mapping(t_bytes32,t_uint256)": {
        "encoding": "mapping",
        "key": "t_bytes32",
        "label": "mapping(bytes32 => uint256)",
        "numberOfBytes": "32",
        "value": "t_uint256"
      },
      "t_mapping(t_uint256,t_address)": {
        "encoding": "mapping",
        "key": "t_uint256",
        "label": "mapping(uint256 => address)",
        "numberOfBytes": "32",
        "value": "t_address"
      },
      "t_mapping(t_uint256,t_uint256)": {
        "encoding": "mapping",
        "key": "t_uint256",
        "label": "mapping(uint256 => uint256)",
        "numberOfBytes": "32",
        "value": "t_uint256"
      },
      "t_string_storage": {
        "encoding": "bytes",
        "label": "string",
        "numberOfBytes": "32"
      },
      "t_struct(AddressSet)3380_storage": {
        "encoding": "inplace",
        "label": "struct EnumerableSet.AddressSet",
        "members": [
          {
            "astId": 3379,
            "contract": "contracts/SoulBoundCreditReport.sol:SoulBoundCreditReport",
            "label": "_inner",
            "offset": 0,
            "slot": "0",
            "type": "t_struct(Set)3079_storage"
          }
        ],
        "numberOfBytes": "64"
      },
      "t_struct(Counter)2738_storage": {
        "encoding": "inplace",
        "label": "struct Counters.Counter",
        "members": [
          {
            "astId": 2737,
            "contract": "contracts/SoulBoundCreditReport.sol:SoulBoundCreditReport",
            "label": "_value",
            "offset": 0,
            "slot": "0",
            "type": "t_uint256"
          }
        ],
        "numberOfBytes": "32"
      },
      "t_struct(RoleData)19_storage": {
        "encoding": "inplace",
        "label": "struct AccessControl.RoleData",
        "members": [
          {
            "astId": 16,
            "contract": "contracts/SoulBoundCreditReport.sol:SoulBoundCreditReport",
            "label": "members",
            "offset": 0,
            "slot": "0",
            "type": "t_mapping(t_address,t_bool)"
          },
          {
            "astId": 18,
            "contract": "contracts/SoulBoundCreditReport.sol:SoulBoundCreditReport",
            "label": "adminRole",
            "offset": 0,
            "slot": "1",
            "type": "t_bytes32"
          }
        ],
        "numberOfBytes": "64"
      },
      "t_struct(Set)3079_storage": {
        "encoding": "inplace",
        "label": "struct EnumerableSet.Set",
        "members": [
          {
            "astId": 3074,
            "contract": "contracts/SoulBoundCreditReport.sol:SoulBoundCreditReport",
            "label": "_values",
            "offset": 0,
            "slot": "0",
            "type": "t_array(t_bytes32)dyn_storage"
          },
          {
            "astId": 3078,
            "contract": "contracts/SoulBoundCreditReport.sol:SoulBoundCreditReport",
            "label": "_indexes",
            "offset": 0,
            "slot": "1",
            "type": "t_mapping(t_bytes32,t_uint256)"
          }
        ],
        "numberOfBytes": "64"
      },
      "t_uint256": {
        "encoding": "inplace",
        "label": "uint256",
        "numberOfBytes": "32"
      }
    }
  }
}