{
  "address": "0x41a3cE7EA192D4b746CD7F2b7F8701aD4964C3c5",
  "abi": [
    {
      "inputs": [
        {
          "internalType": "address",
          "name": "owner",
          "type": "address"
        },
        {
          "internalType": "contract SoulLinker",
          "name": "_soulLinker",
          "type": "address"
        },
        {
          "internalType": "string",
          "name": "baseTokenURI",
          "type": "string"
        }
      ],
      "stateMutability": "nonpayable",
      "type": "constructor"
    },
    {
      "anonymous": false,
      "inputs": [
        {
          "indexed": true,
          "internalType": "address",
          "name": "owner",
          "type": "address"
        },
        {
          "indexed": true,
          "internalType": "address",
          "name": "approved",
          "type": "address"
        },
        {
          "indexed": true,
          "internalType": "uint256",
          "name": "tokenId",
          "type": "uint256"
        }
      ],
      "name": "Approval",
      "type": "event"
    },
    {
      "anonymous": false,
      "inputs": [
        {
          "indexed": true,
          "internalType": "address",
          "name": "owner",
          "type": "address"
        },
        {
          "indexed": true,
          "internalType": "address",
          "name": "operator",
          "type": "address"
        },
        {
          "indexed": false,
          "internalType": "bool",
          "name": "approved",
          "type": "bool"
        }
      ],
      "name": "ApprovalForAll",
      "type": "event"
    },
    {
      "anonymous": false,
      "inputs": [
        {
          "indexed": false,
          "internalType": "address",
          "name": "account",
          "type": "address"
        }
      ],
      "name": "Paused",
      "type": "event"
    },
    {
      "anonymous": false,
      "inputs": [
        {
          "indexed": true,
          "internalType": "bytes32",
          "name": "role",
          "type": "bytes32"
        },
        {
          "indexed": true,
          "internalType": "bytes32",
          "name": "previousAdminRole",
          "type": "bytes32"
        },
        {
          "indexed": true,
          "internalType": "bytes32",
          "name": "newAdminRole",
          "type": "bytes32"
        }
      ],
      "name": "RoleAdminChanged",
      "type": "event"
    },
    {
      "anonymous": false,
      "inputs": [
        {
          "indexed": true,
          "internalType": "bytes32",
          "name": "role",
          "type": "bytes32"
        },
        {
          "indexed": true,
          "internalType": "address",
          "name": "account",
          "type": "address"
        },
        {
          "indexed": true,
          "internalType": "address",
          "name": "sender",
          "type": "address"
        }
      ],
      "name": "RoleGranted",
      "type": "event"
    },
    {
      "anonymous": false,
      "inputs": [
        {
          "indexed": true,
          "internalType": "bytes32",
          "name": "role",
          "type": "bytes32"
        },
        {
          "indexed": true,
          "internalType": "address",
          "name": "account",
          "type": "address"
        },
        {
          "indexed": true,
          "internalType": "address",
          "name": "sender",
          "type": "address"
        }
      ],
      "name": "RoleRevoked",
      "type": "event"
    },
    {
      "anonymous": false,
      "inputs": [
        {
          "indexed": true,
          "internalType": "address",
          "name": "from",
          "type": "address"
        },
        {
          "indexed": true,
          "internalType": "address",
          "name": "to",
          "type": "address"
        },
        {
          "indexed": true,
          "internalType": "uint256",
          "name": "tokenId",
          "type": "uint256"
        }
      ],
      "name": "Transfer",
      "type": "event"
    },
    {
      "anonymous": false,
      "inputs": [
        {
          "indexed": false,
          "internalType": "address",
          "name": "account",
          "type": "address"
        }
      ],
      "name": "Unpaused",
      "type": "event"
    },
    {
      "inputs": [],
      "name": "DEFAULT_ADMIN_ROLE",
      "outputs": [
        {
          "internalType": "bytes32",
          "name": "",
          "type": "bytes32"
        }
      ],
      "stateMutability": "view",
      "type": "function"
    },
    {
      "inputs": [],
      "name": "MINTER_ROLE",
      "outputs": [
        {
          "internalType": "bytes32",
          "name": "",
          "type": "bytes32"
        }
      ],
      "stateMutability": "view",
      "type": "function"
    },
    {
      "inputs": [],
      "name": "PAUSER_ROLE",
      "outputs": [
        {
          "internalType": "bytes32",
          "name": "",
          "type": "bytes32"
        }
      ],
      "stateMutability": "view",
      "type": "function"
    },
    {
      "inputs": [
        {
          "internalType": "address",
          "name": "to",
          "type": "address"
        },
        {
          "internalType": "uint256",
          "name": "tokenId",
          "type": "uint256"
        }
      ],
      "name": "approve",
      "outputs": [],
      "stateMutability": "nonpayable",
      "type": "function"
    },
    {
      "inputs": [
        {
          "internalType": "address",
          "name": "owner",
          "type": "address"
        }
      ],
      "name": "balanceOf",
      "outputs": [
        {
          "internalType": "uint256",
          "name": "",
          "type": "uint256"
        }
      ],
      "stateMutability": "view",
      "type": "function"
    },
    {
      "inputs": [
        {
          "internalType": "uint256",
          "name": "tokenId",
          "type": "uint256"
        }
      ],
      "name": "burn",
      "outputs": [],
      "stateMutability": "nonpayable",
      "type": "function"
    },
    {
      "inputs": [
        {
          "internalType": "uint256",
          "name": "tokenId",
          "type": "uint256"
        }
      ],
      "name": "getApproved",
      "outputs": [
        {
          "internalType": "address",
          "name": "",
          "type": "address"
        }
      ],
      "stateMutability": "view",
      "type": "function"
    },
    {
      "inputs": [
        {
          "internalType": "string",
          "name": "name",
          "type": "string"
        }
      ],
      "name": "getIdentityData",
      "outputs": [
        {
          "internalType": "string",
          "name": "sbtName",
          "type": "string"
        },
        {
          "internalType": "uint256",
          "name": "identityId",
          "type": "uint256"
        }
      ],
      "stateMutability": "view",
      "type": "function"
    },
    {
      "inputs": [
        {
          "internalType": "uint256",
          "name": "tokenId",
          "type": "uint256"
        }
      ],
      "name": "getIdentityNames",
      "outputs": [
        {
          "internalType": "string[]",
          "name": "sbtNames",
          "type": "string[]"
        }
      ],
      "stateMutability": "view",
      "type": "function"
    },
    {
      "inputs": [
        {
          "internalType": "address",
          "name": "owner",
          "type": "address"
        }
      ],
      "name": "getIdentityNames",
      "outputs": [
        {
          "internalType": "string[]",
          "name": "sbtNames",
          "type": "string[]"
        }
      ],
      "stateMutability": "view",
      "type": "function"
    },
    {
      "inputs": [
        {
          "internalType": "bytes32",
          "name": "role",
          "type": "bytes32"
        }
      ],
      "name": "getRoleAdmin",
      "outputs": [
        {
          "internalType": "bytes32",
          "name": "",
          "type": "bytes32"
        }
      ],
      "stateMutability": "view",
      "type": "function"
    },
    {
      "inputs": [
        {
          "internalType": "bytes32",
          "name": "role",
          "type": "bytes32"
        },
        {
          "internalType": "address",
          "name": "account",
          "type": "address"
        }
      ],
      "name": "grantRole",
      "outputs": [],
      "stateMutability": "nonpayable",
      "type": "function"
    },
    {
      "inputs": [
        {
          "internalType": "bytes32",
          "name": "role",
          "type": "bytes32"
        },
        {
          "internalType": "address",
          "name": "account",
          "type": "address"
        }
      ],
      "name": "hasRole",
      "outputs": [
        {
          "internalType": "bool",
          "name": "",
          "type": "bool"
        }
      ],
      "stateMutability": "view",
      "type": "function"
    },
    {
      "inputs": [
        {
          "internalType": "address",
          "name": "owner",
          "type": "address"
        },
        {
          "internalType": "address",
          "name": "operator",
          "type": "address"
        }
      ],
      "name": "isApprovedForAll",
      "outputs": [
        {
          "internalType": "bool",
          "name": "",
          "type": "bool"
        }
      ],
      "stateMutability": "view",
      "type": "function"
    },
    {
      "inputs": [
        {
          "internalType": "address",
          "name": "to",
          "type": "address"
        }
      ],
      "name": "mint",
      "outputs": [
        {
          "internalType": "uint256",
          "name": "",
          "type": "uint256"
        }
      ],
      "stateMutability": "nonpayable",
      "type": "function"
    },
    {
      "inputs": [
        {
          "internalType": "address",
          "name": "to",
          "type": "address"
        },
        {
          "internalType": "string",
          "name": "name",
          "type": "string"
        }
      ],
      "name": "mintIdentityWithName",
      "outputs": [
        {
          "internalType": "uint256",
          "name": "",
          "type": "uint256"
        }
      ],
      "stateMutability": "payable",
      "type": "function"
    },
    {
      "inputs": [],
      "name": "name",
      "outputs": [
        {
          "internalType": "string",
          "name": "",
          "type": "string"
        }
      ],
      "stateMutability": "view",
      "type": "function"
    },
    {
      "inputs": [
        {
          "internalType": "string",
          "name": "name",
          "type": "string"
        }
      ],
      "name": "nameExists",
      "outputs": [
        {
          "internalType": "bool",
          "name": "exists",
          "type": "bool"
        }
      ],
      "stateMutability": "view",
      "type": "function"
    },
    {
      "inputs": [
        {
          "internalType": "uint256",
          "name": "tokenId",
          "type": "uint256"
        }
      ],
      "name": "ownerOf",
      "outputs": [
        {
          "internalType": "address",
          "name": "",
          "type": "address"
        }
      ],
      "stateMutability": "view",
      "type": "function"
    },
    {
      "inputs": [
        {
          "internalType": "string",
          "name": "name",
          "type": "string"
        }
      ],
      "name": "ownerOf",
      "outputs": [
        {
          "internalType": "address",
          "name": "",
          "type": "address"
        }
      ],
      "stateMutability": "view",
      "type": "function"
    },
    {
      "inputs": [],
      "name": "pause",
      "outputs": [],
      "stateMutability": "nonpayable",
      "type": "function"
    },
    {
      "inputs": [],
      "name": "paused",
      "outputs": [
        {
          "internalType": "bool",
          "name": "",
          "type": "bool"
        }
      ],
      "stateMutability": "view",
      "type": "function"
    },
    {
      "inputs": [
        {
          "internalType": "bytes32",
          "name": "role",
          "type": "bytes32"
        },
        {
          "internalType": "address",
          "name": "account",
          "type": "address"
        }
      ],
      "name": "renounceRole",
      "outputs": [],
      "stateMutability": "nonpayable",
      "type": "function"
    },
    {
      "inputs": [
        {
          "internalType": "bytes32",
          "name": "role",
          "type": "bytes32"
        },
        {
          "internalType": "address",
          "name": "account",
          "type": "address"
        }
      ],
      "name": "revokeRole",
      "outputs": [],
      "stateMutability": "nonpayable",
      "type": "function"
    },
    {
      "inputs": [
        {
          "internalType": "address",
          "name": "",
          "type": "address"
        },
        {
          "internalType": "address",
          "name": "",
          "type": "address"
        },
        {
          "internalType": "uint256",
          "name": "",
          "type": "uint256"
        }
      ],
      "name": "safeTransferFrom",
      "outputs": [],
      "stateMutability": "pure",
      "type": "function"
    },
    {
      "inputs": [
        {
          "internalType": "address",
          "name": "",
          "type": "address"
        },
        {
          "internalType": "address",
          "name": "",
          "type": "address"
        },
        {
          "internalType": "uint256",
          "name": "",
          "type": "uint256"
        },
        {
          "internalType": "bytes",
          "name": "",
          "type": "bytes"
        }
      ],
      "name": "safeTransferFrom",
      "outputs": [],
      "stateMutability": "pure",
      "type": "function"
    },
    {
      "inputs": [
        {
          "internalType": "address",
          "name": "operator",
          "type": "address"
        },
        {
          "internalType": "bool",
          "name": "approved",
          "type": "bool"
        }
      ],
      "name": "setApprovalForAll",
      "outputs": [],
      "stateMutability": "nonpayable",
      "type": "function"
    },
    {
      "inputs": [
        {
          "internalType": "contract SoulName",
          "name": "_soulName",
          "type": "address"
        }
      ],
      "name": "setSoulNameContract",
      "outputs": [],
      "stateMutability": "nonpayable",
      "type": "function"
    },
    {
      "inputs": [],
      "name": "soulLinker",
      "outputs": [
        {
          "internalType": "contract SoulLinker",
          "name": "",
          "type": "address"
        }
      ],
      "stateMutability": "view",
      "type": "function"
    },
    {
      "inputs": [],
      "name": "soulNameContract",
      "outputs": [
        {
          "internalType": "contract SoulName",
          "name": "",
          "type": "address"
        }
      ],
      "stateMutability": "view",
      "type": "function"
    },
    {
      "inputs": [
        {
          "internalType": "bytes4",
          "name": "interfaceId",
          "type": "bytes4"
        }
      ],
      "name": "supportsInterface",
      "outputs": [
        {
          "internalType": "bool",
          "name": "",
          "type": "bool"
        }
      ],
      "stateMutability": "view",
      "type": "function"
    },
    {
      "inputs": [],
      "name": "symbol",
      "outputs": [
        {
          "internalType": "string",
          "name": "",
          "type": "string"
        }
      ],
      "stateMutability": "view",
      "type": "function"
    },
    {
      "inputs": [
        {
          "internalType": "uint256",
          "name": "index",
          "type": "uint256"
        }
      ],
      "name": "tokenByIndex",
      "outputs": [
        {
          "internalType": "uint256",
          "name": "",
          "type": "uint256"
        }
      ],
      "stateMutability": "view",
      "type": "function"
    },
    {
      "inputs": [
        {
          "internalType": "address",
          "name": "owner",
          "type": "address"
        }
      ],
      "name": "tokenOfOwner",
      "outputs": [
        {
          "internalType": "uint256",
          "name": "",
          "type": "uint256"
        }
      ],
      "stateMutability": "view",
      "type": "function"
    },
    {
      "inputs": [
        {
          "internalType": "address",
          "name": "owner",
          "type": "address"
        },
        {
          "internalType": "uint256",
          "name": "index",
          "type": "uint256"
        }
      ],
      "name": "tokenOfOwnerByIndex",
      "outputs": [
        {
          "internalType": "uint256",
          "name": "",
          "type": "uint256"
        }
      ],
      "stateMutability": "view",
      "type": "function"
    },
    {
      "inputs": [
        {
          "internalType": "string",
          "name": "name",
          "type": "string"
        }
      ],
      "name": "tokenURI",
      "outputs": [
        {
          "internalType": "string",
          "name": "",
          "type": "string"
        }
      ],
      "stateMutability": "view",
      "type": "function"
    },
    {
      "inputs": [
        {
          "internalType": "address",
          "name": "owner",
          "type": "address"
        }
      ],
      "name": "tokenURI",
      "outputs": [
        {
          "internalType": "string",
          "name": "",
          "type": "string"
        }
      ],
      "stateMutability": "view",
      "type": "function"
    },
    {
      "inputs": [
        {
          "internalType": "uint256",
          "name": "tokenId",
          "type": "uint256"
        }
      ],
      "name": "tokenURI",
      "outputs": [
        {
          "internalType": "string",
          "name": "",
          "type": "string"
        }
      ],
      "stateMutability": "view",
      "type": "function"
    },
    {
      "inputs": [],
      "name": "totalSupply",
      "outputs": [
        {
          "internalType": "uint256",
          "name": "",
          "type": "uint256"
        }
      ],
      "stateMutability": "view",
      "type": "function"
    },
    {
      "inputs": [
        {
          "internalType": "address",
          "name": "",
          "type": "address"
        },
        {
          "internalType": "address",
          "name": "",
          "type": "address"
        },
        {
          "internalType": "uint256",
          "name": "",
          "type": "uint256"
        }
      ],
      "name": "transferFrom",
      "outputs": [],
      "stateMutability": "pure",
      "type": "function"
    },
    {
      "inputs": [],
      "name": "unpause",
      "outputs": [],
      "stateMutability": "nonpayable",
      "type": "function"
    }
  ],
  "transactionHash": "0x1cb6f887042f6e2fea78dc071ba603461a09315f8fe817aa7aa17e3f3af59021",
  "args": [
    "0x3c8D9f130970358b7E8cbc1DbD0a1EbA6EBE368F",
    "0xc67aB8e6612f794aFc532078dAff2deF35738968",
    "https://dev.api.masa.finance/v1.0/identity/"
  ],
  "numDeployments": 1,
  "solcInputHash": "64c67b5997654c2f3930a7ffd3bb9d77",
  "bytecode": "0x60806040523480156200001157600080fd5b50604051620030fc380380620030fc8339810160408190526200003491620002b3565b82826040518060400160405280600d81526020016c4d617361204964656e7469747960981b8152506040518060400160405280600381526020016213525160ea1b815250848483838382828160009080519060200190620000979291906200020d565b508051620000ad9060019060208401906200020d565b5050600a805460ff1916905550620000c760008562000168565b620000f37f65d7a28e3265b37a6474929f336521b332c1681b933f6cb9f3376673440d862a8562000168565b6200011f7f9f2df0fed2c77648de5860a4cc508cd0818c85b8b8a1ab4ceeef8d981c8956a68562000168565b80516200013490600d9060208401906200020d565b5050600e80546001600160a01b0319166001600160a01b039890981697909717909655506200042998505050505050505050565b6000828152600b602090815260408083206001600160a01b038516845290915290205460ff1662000209576000828152600b602090815260408083206001600160a01b03851684529091529020805460ff19166001179055620001c83390565b6001600160a01b0316816001600160a01b0316837f2f8788117e7eff1d82e926ec794901d17c78024a50270940304540a733656f0d60405160405180910390a45b5050565b8280546200021b90620003bd565b90600052602060002090601f0160209004810192826200023f57600085556200028a565b82601f106200025a57805160ff19168380011785556200028a565b828001600101855582156200028a579182015b828111156200028a5782518255916020019190600101906200026d565b50620002989291506200029c565b5090565b5b808211156200029857600081556001016200029d565b600080600060608486031215620002c957600080fd5b8351620002d68162000410565b80935050602080850151620002eb8162000410565b60408601519093506001600160401b03808211156200030957600080fd5b818701915087601f8301126200031e57600080fd5b815181811115620003335762000333620003fa565b604051601f8201601f19908116603f011681019083821181831017156200035e576200035e620003fa565b816040528281528a868487010111156200037757600080fd5b600093505b828410156200039b57848401860151818501870152928501926200037c565b82841115620003ad5760008684830101525b8096505050505050509250925092565b600181811c90821680620003d257607f821691505b60208210811415620003f457634e487b7160e01b600052602260045260246000fd5b50919050565b634e487b7160e01b600052604160045260246000fd5b6001600160a01b03811681146200042657600080fd5b50565b612cc380620004396000396000f3fe6080604052600436106102465760003560e01c806370a0823111610139578063a217fddf116100b6578063c87b56dd1161007a578063c87b56dd146106a0578063cc637afe146106c0578063d5391393146106e0578063d547741f14610714578063e63ab1e914610734578063e985e9c51461076857600080fd5b8063a217fddf1461061d578063a22cb46514610632578063b88d4fde14610652578063bd91a33d1461066d578063c2658c261461068d57600080fd5b8063920ffa26116100fd578063920ffa26146105885780639266e5cb146105a857806393702f33146105c857806395c4f00d146105e857806395d89b411461060857600080fd5b806370a08231146104d85780637e259b9e146104f85780638456cb591461052557806387cc84921461053a57806391d148541461056857600080fd5b806336568abe116101c75780634cf12d261161018b5780634cf12d26146104405780634f6ccce7146104605780635c975abb146104805780636352211e146104985780636a627842146104b857600080fd5b806336568abe146103cb5780633f4ba83a146103eb57806342842e0e1461031b57806342966c6814610400578063453900701461042057600080fd5b806323b872dd1161020e57806323b872dd1461031b578063248a9ca31461033b578063294cdf0d1461036b5780632f2ff15d1461038b5780632f745c59146103ab57600080fd5b806301ffc9a71461024b57806306fdde0314610280578063081812fc146102a2578063095ea7b3146102da57806318160ddd146102fc575b600080fd5b34801561025757600080fd5b5061026b610266366004612740565b6107b1565b60405190151581526020015b60405180910390f35b34801561028c57600080fd5b506102956107c2565b60405161027791906129c2565b3480156102ae57600080fd5b506102c26102bd366004612702565b610854565b6040516001600160a01b039091168152602001610277565b3480156102e657600080fd5b506102fa6102f53660046125f1565b61087b565b005b34801561030857600080fd5b506008545b604051908152602001610277565b34801561032757600080fd5b506102fa6103363660046124b2565b610996565b34801561034757600080fd5b5061030d610356366004612702565b6000908152600b602052604090206001015490565b34801561037757600080fd5b5061030d61038636600461245c565b6109f6565b34801561039757600080fd5b506102fa6103a636600461271b565b610a03565b3480156103b757600080fd5b5061030d6103c63660046125f1565b610a28565b3480156103d757600080fd5b506102fa6103e636600461271b565b610abe565b3480156103f757600080fd5b506102fa610b3c565b34801561040c57600080fd5b506102fa61041b366004612702565b610b71565b34801561042c57600080fd5b50600e546102c2906001600160a01b031681565b34801561044c57600080fd5b5061029561045b36600461277a565b610c79565b34801561046c57600080fd5b5061030d61047b366004612702565b610d3c565b34801561048c57600080fd5b50600a5460ff1661026b565b3480156104a457600080fd5b506102c26104b3366004612702565b610dcf565b3480156104c457600080fd5b5061030d6104d336600461245c565b610dda565b3480156104e457600080fd5b5061030d6104f336600461245c565b610e49565b34801561050457600080fd5b50610518610513366004612702565b610ecf565b6040516102779190612960565b34801561053157600080fd5b506102fa610f7a565b34801561054657600080fd5b5061055a61055536600461277a565b610fac565b6040516102779291906129d5565b34801561057457600080fd5b5061026b61058336600461271b565b611067565b34801561059457600080fd5b506102c26105a336600461277a565b611092565b3480156105b457600080fd5b506105186105c336600461245c565b61114e565b3480156105d457600080fd5b506102956105e336600461245c565b611205565b3480156105f457600080fd5b50600f546102c2906001600160a01b031681565b34801561061457600080fd5b5061029561121d565b34801561062957600080fd5b5061030d600081565b34801561063e57600080fd5b506102fa61064d366004612573565b61122c565b34801561065e57600080fd5b506102fa6103363660046124f3565b34801561067957600080fd5b506102fa61068836600461245c565b611237565b61030d61069b3660046125a1565b6112f5565b3480156106ac57600080fd5b506102956106bb366004612702565b6113c1565b3480156106cc57600080fd5b5061026b6106db36600461277a565b611427565b3480156106ec57600080fd5b5061030d7f9f2df0fed2c77648de5860a4cc508cd0818c85b8b8a1ab4ceeef8d981c8956a681565b34801561072057600080fd5b506102fa61072f36600461271b565b6114d2565b34801561074057600080fd5b5061030d7f65d7a28e3265b37a6474929f336521b332c1681b933f6cb9f3376673440d862a81565b34801561077457600080fd5b5061026b610783366004612479565b6001600160a01b03918216600090815260056020908152604080832093909416825291909152205460ff1690565b60006107bc826114f7565b92915050565b6060600080546107d190612b82565b80601f01602080910402602001604051908101604052809291908181526020018280546107fd90612b82565b801561084a5780601f1061081f5761010080835404028352916020019161084a565b820191906000526020600020905b81548152906001019060200180831161082d57829003601f168201915b5050505050905090565b600061085f8261151c565b506000908152600460205260409020546001600160a01b031690565b60006108868261157b565b9050806001600160a01b0316836001600160a01b031614156108f95760405162461bcd60e51b815260206004820152602160248201527f4552433732313a20617070726f76616c20746f2063757272656e74206f776e656044820152603960f91b60648201526084015b60405180910390fd5b336001600160a01b038216148061091557506109158133610783565b6109875760405162461bcd60e51b815260206004820152603e60248201527f4552433732313a20617070726f76652063616c6c6572206973206e6f7420746f60448201527f6b656e206f776e6572206e6f7220617070726f76656420666f7220616c6c000060648201526084016108f0565b61099183836115db565b505050565b60405162461bcd60e51b815260206004820152602f60248201527f5472616e7366657272696e6720736f756c626f756e6420546f6b656e7320697360448201526e206e6f74207065726d69747465642160881b60648201526084016108f0565b60006107bc826000610a28565b6000828152600b6020526040902060010154610a1e81611649565b6109918383611653565b6000610a3383610e49565b8210610a955760405162461bcd60e51b815260206004820152602b60248201527f455243373231456e756d657261626c653a206f776e657220696e646578206f7560448201526a74206f6620626f756e647360a81b60648201526084016108f0565b506001600160a01b03919091166000908152600660209081526040808320938352929052205490565b6001600160a01b0381163314610b2e5760405162461bcd60e51b815260206004820152602f60248201527f416363657373436f6e74726f6c3a2063616e206f6e6c792072656e6f756e636560448201526e103937b632b9903337b91039b2b63360891b60648201526084016108f0565b610b3882826116d9565b5050565b7f65d7a28e3265b37a6474929f336521b332c1681b933f6cb9f3376673440d862a610b6681611649565b610b6e611740565b50565b600e54604051633f278e0b60e21b8152306004820152602481018390526001600160a01b039091169063fc9e382c9060440160206040518083038186803b158015610bbb57600080fd5b505afa158015610bcf573d6000803e3d6000fd5b505050506040513d601f19601f82011682018060405250810190610bf391906126e5565b15610c705760405162461bcd60e51b815260206004820152604160248201527f4120536f756c626f756e6420546f6b656e2063616e2774206265206275726e6560448201527f64206173206c6f6e672061732069742068617320616374697665206c696e6b736064820152602160f81b608482015260a4016108f0565b610b6e81611792565b600f546060906001600160a01b0316610ca45760405162461bcd60e51b81526004016108f090612a49565b600f546040516343e6424960e11b81526000916001600160a01b0316906387cc849290610cd59086906004016129c2565b60006040518083038186803b158015610ced57600080fd5b505afa158015610d01573d6000803e3d6000fd5b505050506040513d6000823e601f3d908101601f19168201604052610d2991908101906127af565b915050610d35816113c1565b9392505050565b6000610d4760085490565b8210610daa5760405162461bcd60e51b815260206004820152602c60248201527f455243373231456e756d657261626c653a20676c6f62616c20696e646578206f60448201526b7574206f6620626f756e647360a01b60648201526084016108f0565b60088281548110610dbd57610dbd612c28565b90600052602060002001549050919050565b60006107bc8261157b565b60006001610de783610e49565b10610e405760405162461bcd60e51b815260206004820152602360248201527f536f756c626f756e64206964656e7469747920616c726561647920637265617460448201526265642160e81b60648201526084016108f0565b6107bc82611808565b60006001600160a01b038216610eb35760405162461bcd60e51b815260206004820152602960248201527f4552433732313a2061646472657373207a65726f206973206e6f7420612076616044820152683634b21037bbb732b960b91b60648201526084016108f0565b506001600160a01b031660009081526003602052604090205490565b600f546060906001600160a01b0316610efa5760405162461bcd60e51b81526004016108f090612a49565b600f54604051633f12cdcf60e11b8152600481018490526001600160a01b0390911690637e259b9e9060240160006040518083038186803b158015610f3e57600080fd5b505afa158015610f52573d6000803e3d6000fd5b505050506040513d6000823e601f3d908101601f191682016040526107bc919081019061261d565b7f65d7a28e3265b37a6474929f336521b332c1681b933f6cb9f3376673440d862a610fa481611649565b610b6e611813565b600f546060906000906001600160a01b0316610fda5760405162461bcd60e51b81526004016108f090612a49565b600f546040516343e6424960e11b81526001600160a01b03909116906387cc84929061100a9086906004016129c2565b60006040518083038186803b15801561102257600080fd5b505afa158015611036573d6000803e3d6000fd5b505050506040513d6000823e601f3d908101601f1916820160405261105e91908101906127af565b91509150915091565b6000918252600b602090815260408084206001600160a01b0393909316845291905290205460ff1690565b600f546000906001600160a01b03166110bd5760405162461bcd60e51b81526004016108f090612a49565b600f546040516343e6424960e11b81526000916001600160a01b0316906387cc8492906110ee9086906004016129c2565b60006040518083038186803b15801561110657600080fd5b505afa15801561111a573d6000803e3d6000fd5b505050506040513d6000823e601f3d908101601f1916820160405261114291908101906127af565b915050610d358161157b565b600f546060906001600160a01b03166111795760405162461bcd60e51b81526004016108f090612a49565b6000611184836109f6565b600f54604051633f12cdcf60e11b8152600481018390529192506001600160a01b031690637e259b9e9060240160006040518083038186803b1580156111c957600080fd5b505afa1580156111dd573d6000803e3d6000fd5b505050506040513d6000823e601f3d908101601f19168201604052610d35919081019061261d565b60606000611212836109f6565b9050610d35816113c1565b6060600180546107d190612b82565b610b38338383611850565b600061124281611649565b6001600160a01b0382166112875760405162461bcd60e51b815260206004820152600c60248201526b5a45524f5f4144445245535360a01b60448201526064016108f0565b600f546001600160a01b03838116911614156112d25760405162461bcd60e51b815260206004820152600a60248201526953414d455f56414c554560b01b60448201526064016108f0565b50600f80546001600160a01b0319166001600160a01b0392909216919091179055565b600f546000906001600160a01b03166113205760405162461bcd60e51b81526004016108f090612a49565b600061132b84610dda565b600f5460405163ba7aef4360e01b81529192506000916001600160a01b039091169063ba7aef43906113659088908890879060040161292c565b602060405180830381600087803b15801561137f57600080fd5b505af1158015611393573d6000803e3d6000fd5b505050506040513d601f19601f820116820180604052508101906113b791906127f6565b5090949350505050565b60606113cc8261151c565b60006113d661191f565b905060008151116113f65760405180602001604052806000815250610d35565b806114008461192e565b60405160200161141192919061283b565b6040516020818303038152906040529392505050565b600f546000906001600160a01b03166114525760405162461bcd60e51b81526004016108f090612a49565b600f54604051636631bd7f60e11b81526001600160a01b039091169063cc637afe906114829085906004016129c2565b60206040518083038186803b15801561149a57600080fd5b505afa1580156114ae573d6000803e3d6000fd5b505050506040513d601f19601f820116820180604052508101906107bc91906126e5565b6000828152600b60205260409020600101546114ed81611649565b61099183836116d9565b60006001600160e01b03198216637965db0b60e01b14806107bc57506107bc82611a34565b6000818152600260205260409020546001600160a01b0316610b6e5760405162461bcd60e51b8152602060048201526018602482015277115490cdcc8c4e881a5b9d985b1a59081d1bdad95b88125160421b60448201526064016108f0565b6000818152600260205260408120546001600160a01b0316806107bc5760405162461bcd60e51b8152602060048201526018602482015277115490cdcc8c4e881a5b9d985b1a59081d1bdad95b88125160421b60448201526064016108f0565b600081815260046020526040902080546001600160a01b0319166001600160a01b03841690811790915581906116108261157b565b6001600160a01b03167f8c5be1e5ebec7d5bd14f71427d1e84f3dd0314c0f7b2291e5b200ac8c7c3b92560405160405180910390a45050565b610b6e8133611a59565b61165d8282611067565b610b38576000828152600b602090815260408083206001600160a01b03851684529091529020805460ff191660011790556116953390565b6001600160a01b0316816001600160a01b0316837f2f8788117e7eff1d82e926ec794901d17c78024a50270940304540a733656f0d60405160405180910390a45050565b6116e38282611067565b15610b38576000828152600b602090815260408083206001600160a01b0385168085529252808320805460ff1916905551339285917ff6391f5c32d9c69d2a47ea670b442974b53935d1edc7fd64eb21e047a839171b9190a45050565b611748611abd565b600a805460ff191690557f5db9ee0a495bf2e6ff9c91a7834c1ba4fdd244a5e8aa4e537bd38aeae4b073aa335b6040516001600160a01b03909116815260200160405180910390a1565b61179c3382611b08565b6117ff5760405162461bcd60e51b815260206004820152602e60248201527f4552433732313a2063616c6c6572206973206e6f7420746f6b656e206f776e6560448201526d1c881b9bdc88185c1c1c9bdd995960921b60648201526084016108f0565b610b6e81611b86565b60006107bc82611c2d565b61181b611c84565b600a805460ff191660011790557f62e78cea01bee320cd4e420270b5ea74000d11b0c9f74754ebdbfc544b05a2586117753390565b816001600160a01b0316836001600160a01b031614156118b25760405162461bcd60e51b815260206004820152601960248201527f4552433732313a20617070726f766520746f2063616c6c65720000000000000060448201526064016108f0565b6001600160a01b03838116600081815260056020908152604080832094871680845294825291829020805460ff191686151590811790915591519182527f17307eab39ab6107e8899845ad3d59bd9653f200f220920489ca2b5937696c31910160405180910390a3505050565b6060600d80546107d190612b82565b6060816119525750506040805180820190915260018152600360fc1b602082015290565b8160005b811561197c578061196681612bb7565b91506119759050600a83612af1565b9150611956565b60008167ffffffffffffffff81111561199757611997612c3e565b6040519080825280601f01601f1916602001820160405280156119c1576020820181803683370190505b5090505b8415611a2c576119d6600183612b24565b91506119e3600a86612bd2565b6119ee906030612ad9565b60f81b818381518110611a0357611a03612c28565b60200101906001600160f81b031916908160001a905350611a25600a86612af1565b94506119c5565b949350505050565b60006001600160e01b0319821663780e9d6360e01b14806107bc57506107bc82611cca565b611a638282611067565b610b3857611a7b816001600160a01b03166014611d1a565b611a86836020611d1a565b604051602001611a9792919061287a565b60408051601f198184030181529082905262461bcd60e51b82526108f0916004016129c2565b600a5460ff16611b065760405162461bcd60e51b815260206004820152601460248201527314185d5cd8589b194e881b9bdd081c185d5cd95960621b60448201526064016108f0565b565b600080611b148361157b565b9050806001600160a01b0316846001600160a01b03161480611b5b57506001600160a01b0380821660009081526005602090815260408083209388168352929052205460ff165b80611a2c5750836001600160a01b0316611b7484610854565b6001600160a01b031614949350505050565b6000611b918261157b565b9050611b9f81600084611eb6565b611baa6000836115db565b6001600160a01b0381166000908152600360205260408120805460019290611bd3908490612b24565b909155505060008281526002602052604080822080546001600160a01b0319169055518391906001600160a01b038416907fddf252ad1be2c89b69c2b068fc378daa952ba7f163c4a11628f55a4df523b3ef908390a45050565b60007f9f2df0fed2c77648de5860a4cc508cd0818c85b8b8a1ab4ceeef8d981c8956a6611c5981611649565b6000611c64600c5490565b9050611c74600c80546001019055565b610d358482611ec9565b50919050565b600a5460ff1615611b065760405162461bcd60e51b815260206004820152601060248201526f14185d5cd8589b194e881c185d5cd95960821b60448201526064016108f0565b60006001600160e01b031982166380ac58cd60e01b1480611cfb57506001600160e01b03198216635b5e139f60e01b145b806107bc57506301ffc9a760e01b6001600160e01b03198316146107bc565b60606000611d29836002612b05565b611d34906002612ad9565b67ffffffffffffffff811115611d4c57611d4c612c3e565b6040519080825280601f01601f191660200182016040528015611d76576020820181803683370190505b509050600360fc1b81600081518110611d9157611d91612c28565b60200101906001600160f81b031916908160001a905350600f60fb1b81600181518110611dc057611dc0612c28565b60200101906001600160f81b031916908160001a9053506000611de4846002612b05565b611def906001612ad9565b90505b6001811115611e67576f181899199a1a9b1b9c1cb0b131b232b360811b85600f1660108110611e2357611e23612c28565b1a60f81b828281518110611e3957611e39612c28565b60200101906001600160f81b031916908160001a90535060049490941c93611e6081612b6b565b9050611df2565b508315610d355760405162461bcd60e51b815260206004820181905260248201527f537472696e67733a20686578206c656e67746820696e73756666696369656e7460448201526064016108f0565b611ebe611c84565b610991838383611ee3565b610b38828260405180602001604052806000815250611f9b565b6001600160a01b038316611f3e57611f3981600880546000838152600960205260408120829055600182018355919091527ff3f7a9fe364faab93b216da50a3214154f22a0a2b415b23a84c8169e8b636ee30155565b611f61565b816001600160a01b0316836001600160a01b031614611f6157611f618382611fce565b6001600160a01b038216611f78576109918161206b565b826001600160a01b0316826001600160a01b03161461099157610991828261211a565b611fa5838361215e565b611fb260008484846122ac565b6109915760405162461bcd60e51b81526004016108f0906129f7565b60006001611fdb84610e49565b611fe59190612b24565b600083815260076020526040902054909150808214612038576001600160a01b03841660009081526006602090815260408083208584528252808320548484528184208190558352600790915290208190555b5060009182526007602090815260408084208490556001600160a01b039094168352600681528383209183525290812055565b60085460009061207d90600190612b24565b600083815260096020526040812054600880549394509092849081106120a5576120a5612c28565b9060005260206000200154905080600883815481106120c6576120c6612c28565b60009182526020808320909101929092558281526009909152604080822084905585825281205560088054806120fe576120fe612c12565b6001900381819060005260206000200160009055905550505050565b600061212583610e49565b6001600160a01b039093166000908152600660209081526040808320868452825280832085905593825260079052919091209190915550565b6001600160a01b0382166121b45760405162461bcd60e51b815260206004820181905260248201527f4552433732313a206d696e7420746f20746865207a65726f206164647265737360448201526064016108f0565b6000818152600260205260409020546001600160a01b0316156122195760405162461bcd60e51b815260206004820152601c60248201527f4552433732313a20746f6b656e20616c7265616479206d696e7465640000000060448201526064016108f0565b61222560008383611eb6565b6001600160a01b038216600090815260036020526040812080546001929061224e908490612ad9565b909155505060008181526002602052604080822080546001600160a01b0319166001600160a01b03861690811790915590518392907fddf252ad1be2c89b69c2b068fc378daa952ba7f163c4a11628f55a4df523b3ef908290a45050565b60006001600160a01b0384163b156123ae57604051630a85bd0160e11b81526001600160a01b0385169063150b7a02906122f09033908990889088906004016128ef565b602060405180830381600087803b15801561230a57600080fd5b505af192505050801561233a575060408051601f3d908101601f191682019092526123379181019061275d565b60015b612394573d808015612368576040519150601f19603f3d011682016040523d82523d6000602084013e61236d565b606091505b50805161238c5760405162461bcd60e51b81526004016108f0906129f7565b805181602001fd5b6001600160e01b031916630a85bd0160e11b149050611a2c565b506001949350505050565b60006123cc6123c784612ab1565b612a80565b90508281528383830111156123e057600080fd5b828260208301376000602084830101529392505050565b600082601f83011261240857600080fd5b610d35838335602085016123b9565b600082601f83011261242857600080fd5b81516124366123c782612ab1565b81815284602083860101111561244b57600080fd5b611a2c826020830160208701612b3b565b60006020828403121561246e57600080fd5b8135610d3581612c54565b6000806040838503121561248c57600080fd5b823561249781612c54565b915060208301356124a781612c54565b809150509250929050565b6000806000606084860312156124c757600080fd5b83356124d281612c54565b925060208401356124e281612c54565b929592945050506040919091013590565b6000806000806080858703121561250957600080fd5b843561251481612c54565b9350602085013561252481612c54565b925060408501359150606085013567ffffffffffffffff81111561254757600080fd5b8501601f8101871361255857600080fd5b612567878235602084016123b9565b91505092959194509250565b6000806040838503121561258657600080fd5b823561259181612c54565b915060208301356124a781612c69565b600080604083850312156125b457600080fd5b82356125bf81612c54565b9150602083013567ffffffffffffffff8111156125db57600080fd5b6125e7858286016123f7565b9150509250929050565b6000806040838503121561260457600080fd5b823561260f81612c54565b946020939093013593505050565b6000602080838503121561263057600080fd5b825167ffffffffffffffff8082111561264857600080fd5b818501915085601f83011261265c57600080fd5b81518181111561266e5761266e612c3e565b8060051b61267d858201612a80565b8281528581019085870183870188018b101561269857600080fd5b60009350835b858110156126d5578151878111156126b4578586fd5b6126c28d8b838c0101612417565b855250928801929088019060010161269e565b50909a9950505050505050505050565b6000602082840312156126f757600080fd5b8151610d3581612c69565b60006020828403121561271457600080fd5b5035919050565b6000806040838503121561272e57600080fd5b8235915060208301356124a781612c54565b60006020828403121561275257600080fd5b8135610d3581612c77565b60006020828403121561276f57600080fd5b8151610d3581612c77565b60006020828403121561278c57600080fd5b813567ffffffffffffffff8111156127a357600080fd5b611a2c848285016123f7565b600080604083850312156127c257600080fd5b825167ffffffffffffffff8111156127d957600080fd5b6127e585828601612417565b925050602083015190509250929050565b60006020828403121561280857600080fd5b5051919050565b60008151808452612827816020860160208601612b3b565b601f01601f19169290920160200192915050565b6000835161284d818460208801612b3b565b835190830190612861818360208801612b3b565b64173539b7b760d91b9101908152600501949350505050565b7f416363657373436f6e74726f6c3a206163636f756e74200000000000000000008152600083516128b2816017850160208801612b3b565b7001034b99036b4b9b9b4b733903937b6329607d1b60179184019182015283516128e3816028840160208801612b3b565b01602801949350505050565b6001600160a01b03858116825284166020820152604081018390526080606082018190526000906129229083018461280f565b9695505050505050565b6001600160a01b03841681526060602082018190526000906129509083018561280f565b9050826040830152949350505050565b6000602080830181845280855180835260408601915060408160051b870101925083870160005b828110156129b557603f198886030184526129a385835161280f565b94509285019290850190600101612987565b5092979650505050505050565b602081526000610d35602083018461280f565b6040815260006129e8604083018561280f565b90508260208301529392505050565b60208082526032908201527f4552433732313a207472616e7366657220746f206e6f6e20455243373231526560408201527131b2b4bb32b91034b6b83632b6b2b73a32b960711b606082015260800190565b60208082526019908201527f534f554c4e414d455f434f4e54524143545f4e4f545f53455400000000000000604082015260600190565b604051601f8201601f1916810167ffffffffffffffff81118282101715612aa957612aa9612c3e565b604052919050565b600067ffffffffffffffff821115612acb57612acb612c3e565b50601f01601f191660200190565b60008219821115612aec57612aec612be6565b500190565b600082612b0057612b00612bfc565b500490565b6000816000190483118215151615612b1f57612b1f612be6565b500290565b600082821015612b3657612b36612be6565b500390565b60005b83811015612b56578181015183820152602001612b3e565b83811115612b65576000848401525b50505050565b600081612b7a57612b7a612be6565b506000190190565b600181811c90821680612b9657607f821691505b60208210811415611c7e57634e487b7160e01b600052602260045260246000fd5b6000600019821415612bcb57612bcb612be6565b5060010190565b600082612be157612be1612bfc565b500690565b634e487b7160e01b600052601160045260246000fd5b634e487b7160e01b600052601260045260246000fd5b634e487b7160e01b600052603160045260246000fd5b634e487b7160e01b600052603260045260246000fd5b634e487b7160e01b600052604160045260246000fd5b6001600160a01b0381168114610b6e57600080fd5b8015158114610b6e57600080fd5b6001600160e01b031981168114610b6e57600080fdfea2646970667358221220c04eaee983ed37fdf1e5f5bd685c6f2d3d2680d02288c749cbd89702923f1b5b64736f6c63430008070033",
  "devdoc": {
    "kind": "dev",
    "methods": {
      "approve(address,uint256)": {
        "details": "See {IERC721-approve}."
      },
      "balanceOf(address)": {
        "details": "See {IERC721-balanceOf}."
      },
      "burn(uint256)": {
        "details": "Burns `tokenId`. See {ERC721-_burn}. Requirements: - The caller must own `tokenId` or be an approved operator."
      },
      "getApproved(uint256)": {
        "details": "See {IERC721-getApproved}."
      },
      "getRoleAdmin(bytes32)": {
        "details": "Returns the admin role that controls `role`. See {grantRole} and {revokeRole}. To change a role's admin, use {_setRoleAdmin}."
      },
      "grantRole(bytes32,address)": {
        "details": "Grants `role` to `account`. If `account` had not been already granted `role`, emits a {RoleGranted} event. Requirements: - the caller must have ``role``'s admin role. May emit a {RoleGranted} event."
      },
      "hasRole(bytes32,address)": {
        "details": "Returns `true` if `account` has been granted `role`."
      },
      "isApprovedForAll(address,address)": {
        "details": "See {IERC721-isApprovedForAll}."
      },
      "name()": {
        "details": "See {IERC721Metadata-name}."
      },
      "ownerOf(uint256)": {
        "details": "See {IERC721-ownerOf}."
      },
      "paused()": {
        "details": "Returns true if the contract is paused, and false otherwise."
      },
      "renounceRole(bytes32,address)": {
        "details": "Revokes `role` from the calling account. Roles are often managed via {grantRole} and {revokeRole}: this function's purpose is to provide a mechanism for accounts to lose their privileges if they are compromised (such as when a trusted device is misplaced). If the calling account had been revoked `role`, emits a {RoleRevoked} event. Requirements: - the caller must be `account`. May emit a {RoleRevoked} event."
      },
      "revokeRole(bytes32,address)": {
        "details": "Revokes `role` from `account`. If `account` had been granted `role`, emits a {RoleRevoked} event. Requirements: - the caller must have ``role``'s admin role. May emit a {RoleRevoked} event."
      },
      "setApprovalForAll(address,bool)": {
        "details": "See {IERC721-setApprovalForAll}."
      },
      "symbol()": {
        "details": "See {IERC721Metadata-symbol}."
      },
      "tokenByIndex(uint256)": {
        "details": "See {IERC721Enumerable-tokenByIndex}."
      },
      "tokenOfOwnerByIndex(address,uint256)": {
        "details": "See {IERC721Enumerable-tokenOfOwnerByIndex}."
      },
      "tokenURI(uint256)": {
        "details": "See {IERC721Metadata-tokenURI}."
      },
      "totalSupply()": {
        "details": "See {IERC721Enumerable-totalSupply}."
      }
    },
    "version": 1
  },
  "userdoc": {
    "kind": "user",
    "methods": {},
    "version": 1
  },
  "storageLayout": {
    "storage": [
      {
        "astId": 639,
        "contract": "contracts/SoulboundIdentity.sol:SoulboundIdentity",
        "label": "_name",
        "offset": 0,
        "slot": "0",
        "type": "t_string_storage"
      },
      {
        "astId": 641,
        "contract": "contracts/SoulboundIdentity.sol:SoulboundIdentity",
        "label": "_symbol",
        "offset": 0,
        "slot": "1",
        "type": "t_string_storage"
      },
      {
        "astId": 645,
        "contract": "contracts/SoulboundIdentity.sol:SoulboundIdentity",
        "label": "_owners",
        "offset": 0,
        "slot": "2",
        "type": "t_mapping(t_uint256,t_address)"
      },
      {
        "astId": 649,
        "contract": "contracts/SoulboundIdentity.sol:SoulboundIdentity",
        "label": "_balances",
        "offset": 0,
        "slot": "3",
        "type": "t_mapping(t_address,t_uint256)"
      },
      {
        "astId": 653,
        "contract": "contracts/SoulboundIdentity.sol:SoulboundIdentity",
        "label": "_tokenApprovals",
        "offset": 0,
        "slot": "4",
        "type": "t_mapping(t_uint256,t_address)"
      },
      {
        "astId": 659,
        "contract": "contracts/SoulboundIdentity.sol:SoulboundIdentity",
        "label": "_operatorApprovals",
        "offset": 0,
        "slot": "5",
        "type": "t_mapping(t_address,t_mapping(t_address,t_bool))"
      },
      {
        "astId": 1659,
        "contract": "contracts/SoulboundIdentity.sol:SoulboundIdentity",
        "label": "_ownedTokens",
        "offset": 0,
        "slot": "6",
        "type": "t_mapping(t_address,t_mapping(t_uint256,t_uint256))"
      },
      {
        "astId": 1663,
        "contract": "contracts/SoulboundIdentity.sol:SoulboundIdentity",
        "label": "_ownedTokensIndex",
        "offset": 0,
        "slot": "7",
        "type": "t_mapping(t_uint256,t_uint256)"
      },
      {
        "astId": 1666,
        "contract": "contracts/SoulboundIdentity.sol:SoulboundIdentity",
        "label": "_allTokens",
        "offset": 0,
        "slot": "8",
        "type": "t_array(t_uint256)dyn_storage"
      },
      {
        "astId": 1670,
        "contract": "contracts/SoulboundIdentity.sol:SoulboundIdentity",
        "label": "_allTokensIndex",
        "offset": 0,
        "slot": "9",
        "type": "t_mapping(t_uint256,t_uint256)"
      },
      {
        "astId": 523,
        "contract": "contracts/SoulboundIdentity.sol:SoulboundIdentity",
        "label": "_paused",
        "offset": 0,
        "slot": "10",
        "type": "t_bool"
      },
      {
        "astId": 24,
        "contract": "contracts/SoulboundIdentity.sol:SoulboundIdentity",
        "label": "_roles",
        "offset": 0,
        "slot": "11",
        "type": "t_mapping(t_bytes32,t_struct(RoleData)19_storage)"
      },
      {
        "astId": 3833,
        "contract": "contracts/SoulboundIdentity.sol:SoulboundIdentity",
        "label": "_tokenIdCounter",
        "offset": 0,
        "slot": "12",
        "type": "t_struct(Counter)2410_storage"
      },
      {
        "astId": 3835,
        "contract": "contracts/SoulboundIdentity.sol:SoulboundIdentity",
        "label": "_baseTokenURI",
        "offset": 0,
        "slot": "13",
        "type": "t_string_storage"
      },
      {
        "astId": 4018,
        "contract": "contracts/SoulboundIdentity.sol:SoulboundIdentity",
        "label": "soulLinker",
        "offset": 0,
        "slot": "14",
        "type": "t_contract(SoulLinker)2781"
      },
      {
        "astId": 3463,
        "contract": "contracts/SoulboundIdentity.sol:SoulboundIdentity",
        "label": "soulNameContract",
        "offset": 0,
        "slot": "15",
        "type": "t_contract(SoulName)3429"
      }
    ],
    "types": {
      "t_address": {
        "encoding": "inplace",
        "label": "address",
        "numberOfBytes": "20"
      },
      "t_array(t_uint256)dyn_storage": {
        "base": "t_uint256",
        "encoding": "dynamic_array",
        "label": "uint256[]",
        "numberOfBytes": "32"
      },
      "t_bool": {
        "encoding": "inplace",
        "label": "bool",
        "numberOfBytes": "1"
      },
      "t_bytes32": {
        "encoding": "inplace",
        "label": "bytes32",
        "numberOfBytes": "32"
      },
      "t_contract(SoulLinker)2781": {
        "encoding": "inplace",
        "label": "contract SoulLinker",
        "numberOfBytes": "20"
      },
      "t_contract(SoulName)3429": {
        "encoding": "inplace",
        "label": "contract SoulName",
        "numberOfBytes": "20"
      },
      "t_mapping(t_address,t_bool)": {
        "encoding": "mapping",
        "key": "t_address",
        "label": "mapping(address => bool)",
        "numberOfBytes": "32",
        "value": "t_bool"
      },
      "t_mapping(t_address,t_mapping(t_address,t_bool))": {
        "encoding": "mapping",
        "key": "t_address",
        "label": "mapping(address => mapping(address => bool))",
        "numberOfBytes": "32",
        "value": "t_mapping(t_address,t_bool)"
      },
      "t_mapping(t_address,t_mapping(t_uint256,t_uint256))": {
        "encoding": "mapping",
        "key": "t_address",
        "label": "mapping(address => mapping(uint256 => uint256))",
        "numberOfBytes": "32",
        "value": "t_mapping(t_uint256,t_uint256)"
      },
      "t_mapping(t_address,t_uint256)": {
        "encoding": "mapping",
        "key": "t_address",
        "label": "mapping(address => uint256)",
        "numberOfBytes": "32",
        "value": "t_uint256"
      },
      "t_mapping(t_bytes32,t_struct(RoleData)19_storage)": {
        "encoding": "mapping",
        "key": "t_bytes32",
        "label": "mapping(bytes32 => struct AccessControl.RoleData)",
        "numberOfBytes": "32",
        "value": "t_struct(RoleData)19_storage"
      },
      "t_mapping(t_uint256,t_address)": {
        "encoding": "mapping",
        "key": "t_uint256",
        "label": "mapping(uint256 => address)",
        "numberOfBytes": "32",
        "value": "t_address"
      },
      "t_mapping(t_uint256,t_uint256)": {
        "encoding": "mapping",
        "key": "t_uint256",
        "label": "mapping(uint256 => uint256)",
        "numberOfBytes": "32",
        "value": "t_uint256"
      },
      "t_string_storage": {
        "encoding": "bytes",
        "label": "string",
        "numberOfBytes": "32"
      },
      "t_struct(Counter)2410_storage": {
        "encoding": "inplace",
        "label": "struct Counters.Counter",
        "members": [
          {
            "astId": 2409,
            "contract": "contracts/SoulboundIdentity.sol:SoulboundIdentity",
            "label": "_value",
            "offset": 0,
            "slot": "0",
            "type": "t_uint256"
          }
        ],
        "numberOfBytes": "32"
      },
      "t_struct(RoleData)19_storage": {
        "encoding": "inplace",
        "label": "struct AccessControl.RoleData",
        "members": [
          {
            "astId": 16,
            "contract": "contracts/SoulboundIdentity.sol:SoulboundIdentity",
            "label": "members",
            "offset": 0,
            "slot": "0",
            "type": "t_mapping(t_address,t_bool)"
          },
          {
            "astId": 18,
            "contract": "contracts/SoulboundIdentity.sol:SoulboundIdentity",
            "label": "adminRole",
            "offset": 0,
            "slot": "1",
            "type": "t_bytes32"
          }
        ],
        "numberOfBytes": "64"
      },
      "t_uint256": {
        "encoding": "inplace",
        "label": "uint256",
        "numberOfBytes": "32"
      }
    }
  }
}