{
  "address": "0x4e1c9E9ce5af7CB87E32f979B5288a1C6A6A1E5C",
  "abi": [
    {
      "inputs": [
        {
          "internalType": "address",
          "name": "owner",
          "type": "address"
        },
        {
          "internalType": "contract SoulLinker",
          "name": "_soulLinker",
          "type": "address"
        },
        {
          "internalType": "string",
          "name": "baseTokenURI",
          "type": "string"
        }
      ],
      "stateMutability": "nonpayable",
      "type": "constructor"
    },
    {
      "anonymous": false,
      "inputs": [
        {
          "indexed": true,
          "internalType": "address",
          "name": "owner",
          "type": "address"
        },
        {
          "indexed": true,
          "internalType": "address",
          "name": "approved",
          "type": "address"
        },
        {
          "indexed": true,
          "internalType": "uint256",
          "name": "tokenId",
          "type": "uint256"
        }
      ],
      "name": "Approval",
      "type": "event"
    },
    {
      "anonymous": false,
      "inputs": [
        {
          "indexed": true,
          "internalType": "address",
          "name": "owner",
          "type": "address"
        },
        {
          "indexed": true,
          "internalType": "address",
          "name": "operator",
          "type": "address"
        },
        {
          "indexed": false,
          "internalType": "bool",
          "name": "approved",
          "type": "bool"
        }
      ],
      "name": "ApprovalForAll",
      "type": "event"
    },
    {
      "anonymous": false,
      "inputs": [
        {
          "indexed": false,
          "internalType": "address",
          "name": "account",
          "type": "address"
        }
      ],
      "name": "Paused",
      "type": "event"
    },
    {
      "anonymous": false,
      "inputs": [
        {
          "indexed": true,
          "internalType": "bytes32",
          "name": "role",
          "type": "bytes32"
        },
        {
          "indexed": true,
          "internalType": "bytes32",
          "name": "previousAdminRole",
          "type": "bytes32"
        },
        {
          "indexed": true,
          "internalType": "bytes32",
          "name": "newAdminRole",
          "type": "bytes32"
        }
      ],
      "name": "RoleAdminChanged",
      "type": "event"
    },
    {
      "anonymous": false,
      "inputs": [
        {
          "indexed": true,
          "internalType": "bytes32",
          "name": "role",
          "type": "bytes32"
        },
        {
          "indexed": true,
          "internalType": "address",
          "name": "account",
          "type": "address"
        },
        {
          "indexed": true,
          "internalType": "address",
          "name": "sender",
          "type": "address"
        }
      ],
      "name": "RoleGranted",
      "type": "event"
    },
    {
      "anonymous": false,
      "inputs": [
        {
          "indexed": true,
          "internalType": "bytes32",
          "name": "role",
          "type": "bytes32"
        },
        {
          "indexed": true,
          "internalType": "address",
          "name": "account",
          "type": "address"
        },
        {
          "indexed": true,
          "internalType": "address",
          "name": "sender",
          "type": "address"
        }
      ],
      "name": "RoleRevoked",
      "type": "event"
    },
    {
      "anonymous": false,
      "inputs": [
        {
          "indexed": true,
          "internalType": "address",
          "name": "from",
          "type": "address"
        },
        {
          "indexed": true,
          "internalType": "address",
          "name": "to",
          "type": "address"
        },
        {
          "indexed": true,
          "internalType": "uint256",
          "name": "tokenId",
          "type": "uint256"
        }
      ],
      "name": "Transfer",
      "type": "event"
    },
    {
      "anonymous": false,
      "inputs": [
        {
          "indexed": false,
          "internalType": "address",
          "name": "account",
          "type": "address"
        }
      ],
      "name": "Unpaused",
      "type": "event"
    },
    {
      "inputs": [],
      "name": "DEFAULT_ADMIN_ROLE",
      "outputs": [
        {
          "internalType": "bytes32",
          "name": "",
          "type": "bytes32"
        }
      ],
      "stateMutability": "view",
      "type": "function"
    },
    {
      "inputs": [],
      "name": "MINTER_ROLE",
      "outputs": [
        {
          "internalType": "bytes32",
          "name": "",
          "type": "bytes32"
        }
      ],
      "stateMutability": "view",
      "type": "function"
    },
    {
      "inputs": [],
      "name": "PAUSER_ROLE",
      "outputs": [
        {
          "internalType": "bytes32",
          "name": "",
          "type": "bytes32"
        }
      ],
      "stateMutability": "view",
      "type": "function"
    },
    {
      "inputs": [
        {
          "internalType": "address",
          "name": "to",
          "type": "address"
        },
        {
          "internalType": "uint256",
          "name": "tokenId",
          "type": "uint256"
        }
      ],
      "name": "approve",
      "outputs": [],
      "stateMutability": "nonpayable",
      "type": "function"
    },
    {
      "inputs": [
        {
          "internalType": "address",
          "name": "owner",
          "type": "address"
        }
      ],
      "name": "balanceOf",
      "outputs": [
        {
          "internalType": "uint256",
          "name": "",
          "type": "uint256"
        }
      ],
      "stateMutability": "view",
      "type": "function"
    },
    {
      "inputs": [
        {
          "internalType": "uint256",
          "name": "tokenId",
          "type": "uint256"
        }
      ],
      "name": "burn",
      "outputs": [],
      "stateMutability": "nonpayable",
      "type": "function"
    },
    {
      "inputs": [
        {
          "internalType": "uint256",
          "name": "tokenId",
          "type": "uint256"
        }
      ],
      "name": "getApproved",
      "outputs": [
        {
          "internalType": "address",
          "name": "",
          "type": "address"
        }
      ],
      "stateMutability": "view",
      "type": "function"
    },
    {
      "inputs": [
        {
          "internalType": "string",
          "name": "name",
          "type": "string"
        }
      ],
      "name": "getIdentityData",
      "outputs": [
        {
          "internalType": "string",
          "name": "sbtName",
          "type": "string"
        },
        {
          "internalType": "uint256",
          "name": "identityId",
          "type": "uint256"
        }
      ],
      "stateMutability": "view",
      "type": "function"
    },
    {
      "inputs": [
        {
          "internalType": "uint256",
          "name": "tokenId",
          "type": "uint256"
        }
      ],
      "name": "getIdentityNames",
      "outputs": [
        {
          "internalType": "string[]",
          "name": "sbtNames",
          "type": "string[]"
        }
      ],
      "stateMutability": "view",
      "type": "function"
    },
    {
      "inputs": [
        {
          "internalType": "address",
          "name": "owner",
          "type": "address"
        }
      ],
      "name": "getIdentityNames",
      "outputs": [
        {
          "internalType": "string[]",
          "name": "sbtNames",
          "type": "string[]"
        }
      ],
      "stateMutability": "view",
      "type": "function"
    },
    {
      "inputs": [
        {
          "internalType": "bytes32",
          "name": "role",
          "type": "bytes32"
        }
      ],
      "name": "getRoleAdmin",
      "outputs": [
        {
          "internalType": "bytes32",
          "name": "",
          "type": "bytes32"
        }
      ],
      "stateMutability": "view",
      "type": "function"
    },
    {
      "inputs": [
        {
          "internalType": "bytes32",
          "name": "role",
          "type": "bytes32"
        },
        {
          "internalType": "address",
          "name": "account",
          "type": "address"
        }
      ],
      "name": "grantRole",
      "outputs": [],
      "stateMutability": "nonpayable",
      "type": "function"
    },
    {
      "inputs": [
        {
          "internalType": "bytes32",
          "name": "role",
          "type": "bytes32"
        },
        {
          "internalType": "address",
          "name": "account",
          "type": "address"
        }
      ],
      "name": "hasRole",
      "outputs": [
        {
          "internalType": "bool",
          "name": "",
          "type": "bool"
        }
      ],
      "stateMutability": "view",
      "type": "function"
    },
    {
      "inputs": [
        {
          "internalType": "address",
          "name": "owner",
          "type": "address"
        },
        {
          "internalType": "address",
          "name": "operator",
          "type": "address"
        }
      ],
      "name": "isApprovedForAll",
      "outputs": [
        {
          "internalType": "bool",
          "name": "",
          "type": "bool"
        }
      ],
      "stateMutability": "view",
      "type": "function"
    },
    {
      "inputs": [
        {
          "internalType": "address",
          "name": "to",
          "type": "address"
        }
      ],
      "name": "mint",
      "outputs": [
        {
          "internalType": "uint256",
          "name": "",
          "type": "uint256"
        }
      ],
      "stateMutability": "nonpayable",
      "type": "function"
    },
    {
      "inputs": [
        {
          "internalType": "address",
          "name": "to",
          "type": "address"
        },
        {
          "internalType": "string",
          "name": "name",
          "type": "string"
        }
      ],
      "name": "mintIdentityWithName",
      "outputs": [
        {
          "internalType": "uint256",
          "name": "",
          "type": "uint256"
        }
      ],
      "stateMutability": "payable",
      "type": "function"
    },
    {
      "inputs": [],
      "name": "name",
      "outputs": [
        {
          "internalType": "string",
          "name": "",
          "type": "string"
        }
      ],
      "stateMutability": "view",
      "type": "function"
    },
    {
      "inputs": [
        {
          "internalType": "string",
          "name": "name",
          "type": "string"
        }
      ],
      "name": "nameExists",
      "outputs": [
        {
          "internalType": "bool",
          "name": "exists",
          "type": "bool"
        }
      ],
      "stateMutability": "view",
      "type": "function"
    },
    {
      "inputs": [
        {
          "internalType": "uint256",
          "name": "tokenId",
          "type": "uint256"
        }
      ],
      "name": "ownerOf",
      "outputs": [
        {
          "internalType": "address",
          "name": "",
          "type": "address"
        }
      ],
      "stateMutability": "view",
      "type": "function"
    },
    {
      "inputs": [
        {
          "internalType": "string",
          "name": "name",
          "type": "string"
        }
      ],
      "name": "ownerOf",
      "outputs": [
        {
          "internalType": "address",
          "name": "",
          "type": "address"
        }
      ],
      "stateMutability": "view",
      "type": "function"
    },
    {
      "inputs": [],
      "name": "pause",
      "outputs": [],
      "stateMutability": "nonpayable",
      "type": "function"
    },
    {
      "inputs": [],
      "name": "paused",
      "outputs": [
        {
          "internalType": "bool",
          "name": "",
          "type": "bool"
        }
      ],
      "stateMutability": "view",
      "type": "function"
    },
    {
      "inputs": [
        {
          "internalType": "bytes32",
          "name": "role",
          "type": "bytes32"
        },
        {
          "internalType": "address",
          "name": "account",
          "type": "address"
        }
      ],
      "name": "renounceRole",
      "outputs": [],
      "stateMutability": "nonpayable",
      "type": "function"
    },
    {
      "inputs": [
        {
          "internalType": "bytes32",
          "name": "role",
          "type": "bytes32"
        },
        {
          "internalType": "address",
          "name": "account",
          "type": "address"
        }
      ],
      "name": "revokeRole",
      "outputs": [],
      "stateMutability": "nonpayable",
      "type": "function"
    },
    {
      "inputs": [
        {
          "internalType": "address",
          "name": "from",
          "type": "address"
        },
        {
          "internalType": "address",
          "name": "to",
          "type": "address"
        },
        {
          "internalType": "uint256",
          "name": "tokenId",
          "type": "uint256"
        }
      ],
      "name": "safeTransferFrom",
      "outputs": [],
      "stateMutability": "pure",
      "type": "function"
    },
    {
      "inputs": [
        {
          "internalType": "address",
          "name": "from",
          "type": "address"
        },
        {
          "internalType": "address",
          "name": "to",
          "type": "address"
        },
        {
          "internalType": "uint256",
          "name": "tokenId",
          "type": "uint256"
        },
        {
          "internalType": "bytes",
          "name": "data",
          "type": "bytes"
        }
      ],
      "name": "safeTransferFrom",
      "outputs": [],
      "stateMutability": "pure",
      "type": "function"
    },
    {
      "inputs": [
        {
          "internalType": "address",
          "name": "operator",
          "type": "address"
        },
        {
          "internalType": "bool",
          "name": "approved",
          "type": "bool"
        }
      ],
      "name": "setApprovalForAll",
      "outputs": [],
      "stateMutability": "nonpayable",
      "type": "function"
    },
    {
      "inputs": [
        {
          "internalType": "contract SoulName",
          "name": "_soulName",
          "type": "address"
        }
      ],
      "name": "setSoulName",
      "outputs": [],
      "stateMutability": "nonpayable",
      "type": "function"
    },
    {
      "inputs": [],
      "name": "soulLinker",
      "outputs": [
        {
          "internalType": "contract SoulLinker",
          "name": "",
          "type": "address"
        }
      ],
      "stateMutability": "view",
      "type": "function"
    },
    {
      "inputs": [],
      "name": "soulName",
      "outputs": [
        {
          "internalType": "contract SoulName",
          "name": "",
          "type": "address"
        }
      ],
      "stateMutability": "view",
      "type": "function"
    },
    {
      "inputs": [
        {
          "internalType": "bytes4",
          "name": "interfaceId",
          "type": "bytes4"
        }
      ],
      "name": "supportsInterface",
      "outputs": [
        {
          "internalType": "bool",
          "name": "",
          "type": "bool"
        }
      ],
      "stateMutability": "view",
      "type": "function"
    },
    {
      "inputs": [],
      "name": "symbol",
      "outputs": [
        {
          "internalType": "string",
          "name": "",
          "type": "string"
        }
      ],
      "stateMutability": "view",
      "type": "function"
    },
    {
      "inputs": [
        {
          "internalType": "uint256",
          "name": "index",
          "type": "uint256"
        }
      ],
      "name": "tokenByIndex",
      "outputs": [
        {
          "internalType": "uint256",
          "name": "",
          "type": "uint256"
        }
      ],
      "stateMutability": "view",
      "type": "function"
    },
    {
      "inputs": [
        {
          "internalType": "address",
          "name": "owner",
          "type": "address"
        }
      ],
      "name": "tokenOfOwner",
      "outputs": [
        {
          "internalType": "uint256",
          "name": "",
          "type": "uint256"
        }
      ],
      "stateMutability": "view",
      "type": "function"
    },
    {
      "inputs": [
        {
          "internalType": "address",
          "name": "owner",
          "type": "address"
        },
        {
          "internalType": "uint256",
          "name": "index",
          "type": "uint256"
        }
      ],
      "name": "tokenOfOwnerByIndex",
      "outputs": [
        {
          "internalType": "uint256",
          "name": "",
          "type": "uint256"
        }
      ],
      "stateMutability": "view",
      "type": "function"
    },
    {
      "inputs": [
        {
          "internalType": "string",
          "name": "name",
          "type": "string"
        }
      ],
      "name": "tokenURI",
      "outputs": [
        {
          "internalType": "string",
          "name": "",
          "type": "string"
        }
      ],
      "stateMutability": "view",
      "type": "function"
    },
    {
      "inputs": [
        {
          "internalType": "address",
          "name": "owner",
          "type": "address"
        }
      ],
      "name": "tokenURI",
      "outputs": [
        {
          "internalType": "string",
          "name": "",
          "type": "string"
        }
      ],
      "stateMutability": "view",
      "type": "function"
    },
    {
      "inputs": [
        {
          "internalType": "uint256",
          "name": "tokenId",
          "type": "uint256"
        }
      ],
      "name": "tokenURI",
      "outputs": [
        {
          "internalType": "string",
          "name": "",
          "type": "string"
        }
      ],
      "stateMutability": "view",
      "type": "function"
    },
    {
      "inputs": [],
      "name": "totalSupply",
      "outputs": [
        {
          "internalType": "uint256",
          "name": "",
          "type": "uint256"
        }
      ],
      "stateMutability": "view",
      "type": "function"
    },
    {
      "inputs": [
        {
          "internalType": "address",
          "name": "from",
          "type": "address"
        },
        {
          "internalType": "address",
          "name": "to",
          "type": "address"
        },
        {
          "internalType": "uint256",
          "name": "tokenId",
          "type": "uint256"
        }
      ],
      "name": "transferFrom",
      "outputs": [],
      "stateMutability": "pure",
      "type": "function"
    },
    {
      "inputs": [],
      "name": "unpause",
      "outputs": [],
      "stateMutability": "nonpayable",
      "type": "function"
    }
  ],
  "transactionHash": "0xef7a830cbcea5e85ea2e851a9b93e9f70571d3372c71be36fb2217e1c7517022",
  "args": [
    "0x3c8D9f130970358b7E8cbc1DbD0a1EbA6EBE368F",
    "0xDFD6723B0769D3029A499a48E3B2A8fE2Ce8A25A",
    "https://dev.api.masa.finance/v1.0/identity/"
  ],
  "numDeployments": 1,
  "solcInputHash": "03b065e0adedd934b4c9b922c2066464",
  "bytecode": "0x60806040523480156200001157600080fd5b50604051620030a1380380620030a18339810160408190526200003491620002b3565b82826040518060400160405280600d81526020016c4d617361204964656e7469747960981b8152506040518060400160405280600381526020016213525160ea1b815250848483838382828160009080519060200190620000979291906200020d565b508051620000ad9060019060208401906200020d565b5050600a805460ff1916905550620000c760008562000168565b620000f37f65d7a28e3265b37a6474929f336521b332c1681b933f6cb9f3376673440d862a8562000168565b6200011f7f9f2df0fed2c77648de5860a4cc508cd0818c85b8b8a1ab4ceeef8d981c8956a68562000168565b80516200013490600d9060208401906200020d565b5050600e80546001600160a01b0319166001600160a01b039890981697909717909655506200042998505050505050505050565b6000828152600b602090815260408083206001600160a01b038516845290915290205460ff1662000209576000828152600b602090815260408083206001600160a01b03851684529091529020805460ff19166001179055620001c83390565b6001600160a01b0316816001600160a01b0316837f2f8788117e7eff1d82e926ec794901d17c78024a50270940304540a733656f0d60405160405180910390a45b5050565b8280546200021b90620003bd565b90600052602060002090601f0160209004810192826200023f57600085556200028a565b82601f106200025a57805160ff19168380011785556200028a565b828001600101855582156200028a579182015b828111156200028a5782518255916020019190600101906200026d565b50620002989291506200029c565b5090565b5b808211156200029857600081556001016200029d565b600080600060608486031215620002c957600080fd5b8351620002d68162000410565b80935050602080850151620002eb8162000410565b60408601519093506001600160401b03808211156200030957600080fd5b818701915087601f8301126200031e57600080fd5b815181811115620003335762000333620003fa565b604051601f8201601f19908116603f011681019083821181831017156200035e576200035e620003fa565b816040528281528a868487010111156200037757600080fd5b600093505b828410156200039b57848401860151818501870152928501926200037c565b82841115620003ad5760008684830101525b8096505050505050509250925092565b600181811c90821680620003d257607f821691505b60208210811415620003f457634e487b7160e01b600052602260045260246000fd5b50919050565b634e487b7160e01b600052604160045260246000fd5b6001600160a01b03811681146200042657600080fd5b50565b612c6880620004396000396000f3fe6080604052600436106102465760003560e01c80636a62784211610139578063a217fddf116100b6578063cc637afe1161007a578063cc637afe146106a0578063d5391393146106c0578063d547741f146106f4578063e63ab1e914610714578063e985e9c514610748578063ee7a9ec51461079157600080fd5b8063a217fddf1461061d578063a22cb46514610632578063b88d4fde14610652578063c2658c261461066d578063c87b56dd1461068057600080fd5b806391d14854116100fd57806391d1485414610588578063920ffa26146105a85780639266e5cb146105c857806393702f33146105e857806395d89b411461060857600080fd5b80636a627842146104d857806370a08231146104f85780637e259b9e146105185780638456cb591461054557806387cc84921461055a57600080fd5b80632f745c59116101c7578063453900701161018b57806345390070146104405780634cf12d26146104605780634f6ccce7146104805780635c975abb146104a05780636352211e146104b857600080fd5b80632f745c59146103cb57806336568abe146103eb5780633f4ba83a1461040b57806342842e0e1461033b57806342966c681461042057600080fd5b806318160ddd1161020e57806318160ddd1461031c57806323b872dd1461033b578063248a9ca31461035b578063294cdf0d1461038b5780632f2ff15d146103ab57600080fd5b806301ffc9a71461024b57806306fdde0314610280578063081812fc146102a2578063095ea7b3146102da5780630f2e68af146102fc575b600080fd5b34801561025757600080fd5b5061026b6102663660046126e5565b6107b1565b60405190151581526020015b60405180910390f35b34801561028c57600080fd5b506102956107c2565b6040516102779190612967565b3480156102ae57600080fd5b506102c26102bd3660046126a7565b610854565b6040516001600160a01b039091168152602001610277565b3480156102e657600080fd5b506102fa6102f5366004612596565b61087b565b005b34801561030857600080fd5b50600f546102c2906001600160a01b031681565b34801561032857600080fd5b506008545b604051908152602001610277565b34801561034757600080fd5b506102fa610356366004612457565b610996565b34801561036757600080fd5b5061032d6103763660046126a7565b6000908152600b602052604090206001015490565b34801561039757600080fd5b5061032d6103a6366004612401565b6109de565b3480156103b757600080fd5b506102fa6103c63660046126c0565b6109eb565b3480156103d757600080fd5b5061032d6103e6366004612596565b610a10565b3480156103f757600080fd5b506102fa6104063660046126c0565b610aa6565b34801561041757600080fd5b506102fa610b24565b34801561042c57600080fd5b506102fa61043b3660046126a7565b610b59565b34801561044c57600080fd5b50600e546102c2906001600160a01b031681565b34801561046c57600080fd5b5061029561047b36600461271f565b610c31565b34801561048c57600080fd5b5061032d61049b3660046126a7565b610cf4565b3480156104ac57600080fd5b50600a5460ff1661026b565b3480156104c457600080fd5b506102c26104d33660046126a7565b610d87565b3480156104e457600080fd5b5061032d6104f3366004612401565b610d92565b34801561050457600080fd5b5061032d610513366004612401565b610df5565b34801561052457600080fd5b506105386105333660046126a7565b610e7b565b6040516102779190612905565b34801561055157600080fd5b506102fa610f26565b34801561056657600080fd5b5061057a61057536600461271f565b610f58565b60405161027792919061297a565b34801561059457600080fd5b5061026b6105a33660046126c0565b611013565b3480156105b457600080fd5b506102c26105c336600461271f565b61103e565b3480156105d457600080fd5b506105386105e3366004612401565b6110fa565b3480156105f457600080fd5b50610295610603366004612401565b6111b1565b34801561061457600080fd5b506102956111c9565b34801561062957600080fd5b5061032d600081565b34801561063e57600080fd5b506102fa61064d366004612518565b6111d8565b34801561065e57600080fd5b506102fa610356366004612498565b61032d61067b366004612546565b6111e3565b34801561068c57600080fd5b5061029561069b3660046126a7565b6112a8565b3480156106ac57600080fd5b5061026b6106bb36600461271f565b61130e565b3480156106cc57600080fd5b5061032d7f9f2df0fed2c77648de5860a4cc508cd0818c85b8b8a1ab4ceeef8d981c8956a681565b34801561070057600080fd5b506102fa61070f3660046126c0565b6113b9565b34801561072057600080fd5b5061032d7f65d7a28e3265b37a6474929f336521b332c1681b933f6cb9f3376673440d862a81565b34801561075457600080fd5b5061026b61076336600461241e565b6001600160a01b03918216600090815260056020908152604080832093909416825291909152205460ff1690565b34801561079d57600080fd5b506102fa6107ac366004612401565b6113de565b60006107bc8261149c565b92915050565b6060600080546107d190612b27565b80601f01602080910402602001604051908101604052809291908181526020018280546107fd90612b27565b801561084a5780601f1061081f5761010080835404028352916020019161084a565b820191906000526020600020905b81548152906001019060200180831161082d57829003601f168201915b5050505050905090565b600061085f826114c1565b506000908152600460205260409020546001600160a01b031690565b600061088682611520565b9050806001600160a01b0316836001600160a01b031614156108f95760405162461bcd60e51b815260206004820152602160248201527f4552433732313a20617070726f76616c20746f2063757272656e74206f776e656044820152603960f91b60648201526084015b60405180910390fd5b336001600160a01b038216148061091557506109158133610763565b6109875760405162461bcd60e51b815260206004820152603e60248201527f4552433732313a20617070726f76652063616c6c6572206973206e6f7420746f60448201527f6b656e206f776e6572206e6f7220617070726f76656420666f7220616c6c000060648201526084016108f0565b6109918383611580565b505050565b60405162461bcd60e51b815260206004820152601a60248201527f5342545f5452414e534645525f4e4f545f5045524d495454454400000000000060448201526064016108f0565b60006107bc826000610a10565b6000828152600b6020526040902060010154610a06816115ee565b61099183836115f8565b6000610a1b83610df5565b8210610a7d5760405162461bcd60e51b815260206004820152602b60248201527f455243373231456e756d657261626c653a206f776e657220696e646578206f7560448201526a74206f6620626f756e647360a81b60648201526084016108f0565b506001600160a01b03919091166000908152600660209081526040808320938352929052205490565b6001600160a01b0381163314610b165760405162461bcd60e51b815260206004820152602f60248201527f416363657373436f6e74726f6c3a2063616e206f6e6c792072656e6f756e636560448201526e103937b632b9903337b91039b2b63360891b60648201526084016108f0565b610b20828261167e565b5050565b7f65d7a28e3265b37a6474929f336521b332c1681b933f6cb9f3376673440d862a610b4e816115ee565b610b566116e5565b50565b600e54604051633f278e0b60e21b8152306004820152602481018390526001600160a01b039091169063fc9e382c9060440160206040518083038186803b158015610ba357600080fd5b505afa158015610bb7573d6000803e3d6000fd5b505050506040513d601f19601f82011682018060405250810190610bdb919061268a565b15610c285760405162461bcd60e51b815260206004820152601b60248201527f5342545f574954485f4c494e4b535f4e4f545f4255524e41424c45000000000060448201526064016108f0565b610b5681611737565b600f546060906001600160a01b0316610c5c5760405162461bcd60e51b81526004016108f0906129ee565b600f546040516343e6424960e11b81526000916001600160a01b0316906387cc849290610c8d908690600401612967565b60006040518083038186803b158015610ca557600080fd5b505afa158015610cb9573d6000803e3d6000fd5b505050506040513d6000823e601f3d908101601f19168201604052610ce19190810190612754565b915050610ced816112a8565b9392505050565b6000610cff60085490565b8210610d625760405162461bcd60e51b815260206004820152602c60248201527f455243373231456e756d657261626c653a20676c6f62616c20696e646578206f60448201526b7574206f6620626f756e647360a01b60648201526084016108f0565b60088281548110610d7557610d75612bcd565b90600052602060002001549050919050565b60006107bc82611520565b60006001610d9f83610df5565b10610dec5760405162461bcd60e51b815260206004820152601b60248201527f53425f4944454e544954595f414c52454144595f43524541544544000000000060448201526064016108f0565b6107bc826117ad565b60006001600160a01b038216610e5f5760405162461bcd60e51b815260206004820152602960248201527f4552433732313a2061646472657373207a65726f206973206e6f7420612076616044820152683634b21037bbb732b960b91b60648201526084016108f0565b506001600160a01b031660009081526003602052604090205490565b600f546060906001600160a01b0316610ea65760405162461bcd60e51b81526004016108f0906129ee565b600f54604051633f12cdcf60e11b8152600481018490526001600160a01b0390911690637e259b9e9060240160006040518083038186803b158015610eea57600080fd5b505afa158015610efe573d6000803e3d6000fd5b505050506040513d6000823e601f3d908101601f191682016040526107bc91908101906125c2565b7f65d7a28e3265b37a6474929f336521b332c1681b933f6cb9f3376673440d862a610f50816115ee565b610b566117b8565b600f546060906000906001600160a01b0316610f865760405162461bcd60e51b81526004016108f0906129ee565b600f546040516343e6424960e11b81526001600160a01b03909116906387cc849290610fb6908690600401612967565b60006040518083038186803b158015610fce57600080fd5b505afa158015610fe2573d6000803e3d6000fd5b505050506040513d6000823e601f3d908101601f1916820160405261100a9190810190612754565b91509150915091565b6000918252600b602090815260408084206001600160a01b0393909316845291905290205460ff1690565b600f546000906001600160a01b03166110695760405162461bcd60e51b81526004016108f0906129ee565b600f546040516343e6424960e11b81526000916001600160a01b0316906387cc84929061109a908690600401612967565b60006040518083038186803b1580156110b257600080fd5b505afa1580156110c6573d6000803e3d6000fd5b505050506040513d6000823e601f3d908101601f191682016040526110ee9190810190612754565b915050610ced81611520565b600f546060906001600160a01b03166111255760405162461bcd60e51b81526004016108f0906129ee565b6000611130836109de565b600f54604051633f12cdcf60e11b8152600481018390529192506001600160a01b031690637e259b9e9060240160006040518083038186803b15801561117557600080fd5b505afa158015611189573d6000803e3d6000fd5b505050506040513d6000823e601f3d908101601f19168201604052610ced91908101906125c2565b606060006111be836109de565b9050610ced816112a8565b6060600180546107d190612b27565b610b203383836117f5565b600f546000906001600160a01b031661120e5760405162461bcd60e51b81526004016108f0906129ee565b600061121984610d92565b600f5460405163ba7aef4360e01b81529192506001600160a01b03169063ba7aef439061124e908790879086906004016128d1565b602060405180830381600087803b15801561126857600080fd5b505af115801561127c573d6000803e3d6000fd5b505050506040513d601f19601f820116820180604052508101906112a0919061279b565b509392505050565b60606112b3826114c1565b60006112bd6118c4565b905060008151116112dd5760405180602001604052806000815250610ced565b806112e7846118d3565b6040516020016112f89291906127e0565b6040516020818303038152906040529392505050565b600f546000906001600160a01b03166113395760405162461bcd60e51b81526004016108f0906129ee565b600f54604051636631bd7f60e11b81526001600160a01b039091169063cc637afe90611369908590600401612967565b60206040518083038186803b15801561138157600080fd5b505afa158015611395573d6000803e3d6000fd5b505050506040513d601f19601f820116820180604052508101906107bc919061268a565b6000828152600b60205260409020600101546113d4816115ee565b610991838361167e565b60006113e9816115ee565b6001600160a01b03821661142e5760405162461bcd60e51b815260206004820152600c60248201526b5a45524f5f4144445245535360a01b60448201526064016108f0565b600f546001600160a01b03838116911614156114795760405162461bcd60e51b815260206004820152600a60248201526953414d455f56414c554560b01b60448201526064016108f0565b50600f80546001600160a01b0319166001600160a01b0392909216919091179055565b60006001600160e01b03198216637965db0b60e01b14806107bc57506107bc826119d9565b6000818152600260205260409020546001600160a01b0316610b565760405162461bcd60e51b8152602060048201526018602482015277115490cdcc8c4e881a5b9d985b1a59081d1bdad95b88125160421b60448201526064016108f0565b6000818152600260205260408120546001600160a01b0316806107bc5760405162461bcd60e51b8152602060048201526018602482015277115490cdcc8c4e881a5b9d985b1a59081d1bdad95b88125160421b60448201526064016108f0565b600081815260046020526040902080546001600160a01b0319166001600160a01b03841690811790915581906115b582611520565b6001600160a01b03167f8c5be1e5ebec7d5bd14f71427d1e84f3dd0314c0f7b2291e5b200ac8c7c3b92560405160405180910390a45050565b610b5681336119fe565b6116028282611013565b610b20576000828152600b602090815260408083206001600160a01b03851684529091529020805460ff1916600117905561163a3390565b6001600160a01b0316816001600160a01b0316837f2f8788117e7eff1d82e926ec794901d17c78024a50270940304540a733656f0d60405160405180910390a45050565b6116888282611013565b15610b20576000828152600b602090815260408083206001600160a01b0385168085529252808320805460ff1916905551339285917ff6391f5c32d9c69d2a47ea670b442974b53935d1edc7fd64eb21e047a839171b9190a45050565b6116ed611a62565b600a805460ff191690557f5db9ee0a495bf2e6ff9c91a7834c1ba4fdd244a5e8aa4e537bd38aeae4b073aa335b6040516001600160a01b03909116815260200160405180910390a1565b6117413382611aad565b6117a45760405162461bcd60e51b815260206004820152602e60248201527f4552433732313a2063616c6c6572206973206e6f7420746f6b656e206f776e6560448201526d1c881b9bdc88185c1c1c9bdd995960921b60648201526084016108f0565b610b5681611b2b565b60006107bc82611bd2565b6117c0611c29565b600a805460ff191660011790557f62e78cea01bee320cd4e420270b5ea74000d11b0c9f74754ebdbfc544b05a25861171a3390565b816001600160a01b0316836001600160a01b031614156118575760405162461bcd60e51b815260206004820152601960248201527f4552433732313a20617070726f766520746f2063616c6c65720000000000000060448201526064016108f0565b6001600160a01b03838116600081815260056020908152604080832094871680845294825291829020805460ff191686151590811790915591519182527f17307eab39ab6107e8899845ad3d59bd9653f200f220920489ca2b5937696c31910160405180910390a3505050565b6060600d80546107d190612b27565b6060816118f75750506040805180820190915260018152600360fc1b602082015290565b8160005b8115611921578061190b81612b5c565b915061191a9050600a83612a96565b91506118fb565b60008167ffffffffffffffff81111561193c5761193c612be3565b6040519080825280601f01601f191660200182016040528015611966576020820181803683370190505b5090505b84156119d15761197b600183612ac9565b9150611988600a86612b77565b611993906030612a7e565b60f81b8183815181106119a8576119a8612bcd565b60200101906001600160f81b031916908160001a9053506119ca600a86612a96565b945061196a565b949350505050565b60006001600160e01b0319821663780e9d6360e01b14806107bc57506107bc82611c6f565b611a088282611013565b610b2057611a20816001600160a01b03166014611cbf565b611a2b836020611cbf565b604051602001611a3c92919061281f565b60408051601f198184030181529082905262461bcd60e51b82526108f091600401612967565b600a5460ff16611aab5760405162461bcd60e51b815260206004820152601460248201527314185d5cd8589b194e881b9bdd081c185d5cd95960621b60448201526064016108f0565b565b600080611ab983611520565b9050806001600160a01b0316846001600160a01b03161480611b0057506001600160a01b0380821660009081526005602090815260408083209388168352929052205460ff165b806119d15750836001600160a01b0316611b1984610854565b6001600160a01b031614949350505050565b6000611b3682611520565b9050611b4481600084611e5b565b611b4f600083611580565b6001600160a01b0381166000908152600360205260408120805460019290611b78908490612ac9565b909155505060008281526002602052604080822080546001600160a01b0319169055518391906001600160a01b038416907fddf252ad1be2c89b69c2b068fc378daa952ba7f163c4a11628f55a4df523b3ef908390a45050565b60007f9f2df0fed2c77648de5860a4cc508cd0818c85b8b8a1ab4ceeef8d981c8956a6611bfe816115ee565b6000611c09600c5490565b9050611c19600c80546001019055565b610ced8482611e6e565b50919050565b600a5460ff1615611aab5760405162461bcd60e51b815260206004820152601060248201526f14185d5cd8589b194e881c185d5cd95960821b60448201526064016108f0565b60006001600160e01b031982166380ac58cd60e01b1480611ca057506001600160e01b03198216635b5e139f60e01b145b806107bc57506301ffc9a760e01b6001600160e01b03198316146107bc565b60606000611cce836002612aaa565b611cd9906002612a7e565b67ffffffffffffffff811115611cf157611cf1612be3565b6040519080825280601f01601f191660200182016040528015611d1b576020820181803683370190505b509050600360fc1b81600081518110611d3657611d36612bcd565b60200101906001600160f81b031916908160001a905350600f60fb1b81600181518110611d6557611d65612bcd565b60200101906001600160f81b031916908160001a9053506000611d89846002612aaa565b611d94906001612a7e565b90505b6001811115611e0c576f181899199a1a9b1b9c1cb0b131b232b360811b85600f1660108110611dc857611dc8612bcd565b1a60f81b828281518110611dde57611dde612bcd565b60200101906001600160f81b031916908160001a90535060049490941c93611e0581612b10565b9050611d97565b508315610ced5760405162461bcd60e51b815260206004820181905260248201527f537472696e67733a20686578206c656e67746820696e73756666696369656e7460448201526064016108f0565b611e63611c29565b610991838383611e88565b610b20828260405180602001604052806000815250611f40565b6001600160a01b038316611ee357611ede81600880546000838152600960205260408120829055600182018355919091527ff3f7a9fe364faab93b216da50a3214154f22a0a2b415b23a84c8169e8b636ee30155565b611f06565b816001600160a01b0316836001600160a01b031614611f0657611f068382611f73565b6001600160a01b038216611f1d5761099181612010565b826001600160a01b0316826001600160a01b0316146109915761099182826120bf565b611f4a8383612103565b611f576000848484612251565b6109915760405162461bcd60e51b81526004016108f09061299c565b60006001611f8084610df5565b611f8a9190612ac9565b600083815260076020526040902054909150808214611fdd576001600160a01b03841660009081526006602090815260408083208584528252808320548484528184208190558352600790915290208190555b5060009182526007602090815260408084208490556001600160a01b039094168352600681528383209183525290812055565b60085460009061202290600190612ac9565b6000838152600960205260408120546008805493945090928490811061204a5761204a612bcd565b90600052602060002001549050806008838154811061206b5761206b612bcd565b60009182526020808320909101929092558281526009909152604080822084905585825281205560088054806120a3576120a3612bb7565b6001900381819060005260206000200160009055905550505050565b60006120ca83610df5565b6001600160a01b039093166000908152600660209081526040808320868452825280832085905593825260079052919091209190915550565b6001600160a01b0382166121595760405162461bcd60e51b815260206004820181905260248201527f4552433732313a206d696e7420746f20746865207a65726f206164647265737360448201526064016108f0565b6000818152600260205260409020546001600160a01b0316156121be5760405162461bcd60e51b815260206004820152601c60248201527f4552433732313a20746f6b656e20616c7265616479206d696e7465640000000060448201526064016108f0565b6121ca60008383611e5b565b6001600160a01b03821660009081526003602052604081208054600192906121f3908490612a7e565b909155505060008181526002602052604080822080546001600160a01b0319166001600160a01b03861690811790915590518392907fddf252ad1be2c89b69c2b068fc378daa952ba7f163c4a11628f55a4df523b3ef908290a45050565b60006001600160a01b0384163b1561235357604051630a85bd0160e11b81526001600160a01b0385169063150b7a0290612295903390899088908890600401612894565b602060405180830381600087803b1580156122af57600080fd5b505af19250505080156122df575060408051601f3d908101601f191682019092526122dc91810190612702565b60015b612339573d80801561230d576040519150601f19603f3d011682016040523d82523d6000602084013e612312565b606091505b5080516123315760405162461bcd60e51b81526004016108f09061299c565b805181602001fd5b6001600160e01b031916630a85bd0160e11b1490506119d1565b506001949350505050565b600061237161236c84612a56565b612a25565b905082815283838301111561238557600080fd5b828260208301376000602084830101529392505050565b600082601f8301126123ad57600080fd5b610ced8383356020850161235e565b600082601f8301126123cd57600080fd5b81516123db61236c82612a56565b8181528460208386010111156123f057600080fd5b6119d1826020830160208701612ae0565b60006020828403121561241357600080fd5b8135610ced81612bf9565b6000806040838503121561243157600080fd5b823561243c81612bf9565b9150602083013561244c81612bf9565b809150509250929050565b60008060006060848603121561246c57600080fd5b833561247781612bf9565b9250602084013561248781612bf9565b929592945050506040919091013590565b600080600080608085870312156124ae57600080fd5b84356124b981612bf9565b935060208501356124c981612bf9565b925060408501359150606085013567ffffffffffffffff8111156124ec57600080fd5b8501601f810187136124fd57600080fd5b61250c8782356020840161235e565b91505092959194509250565b6000806040838503121561252b57600080fd5b823561253681612bf9565b9150602083013561244c81612c0e565b6000806040838503121561255957600080fd5b823561256481612bf9565b9150602083013567ffffffffffffffff81111561258057600080fd5b61258c8582860161239c565b9150509250929050565b600080604083850312156125a957600080fd5b82356125b481612bf9565b946020939093013593505050565b600060208083850312156125d557600080fd5b825167ffffffffffffffff808211156125ed57600080fd5b818501915085601f83011261260157600080fd5b81518181111561261357612613612be3565b8060051b612622858201612a25565b8281528581019085870183870188018b101561263d57600080fd5b60009350835b8581101561267a57815187811115612659578586fd5b6126678d8b838c01016123bc565b8552509288019290880190600101612643565b50909a9950505050505050505050565b60006020828403121561269c57600080fd5b8151610ced81612c0e565b6000602082840312156126b957600080fd5b5035919050565b600080604083850312156126d357600080fd5b82359150602083013561244c81612bf9565b6000602082840312156126f757600080fd5b8135610ced81612c1c565b60006020828403121561271457600080fd5b8151610ced81612c1c565b60006020828403121561273157600080fd5b813567ffffffffffffffff81111561274857600080fd5b6119d18482850161239c565b6000806040838503121561276757600080fd5b825167ffffffffffffffff81111561277e57600080fd5b61278a858286016123bc565b925050602083015190509250929050565b6000602082840312156127ad57600080fd5b5051919050565b600081518084526127cc816020860160208601612ae0565b601f01601f19169290920160200192915050565b600083516127f2818460208801612ae0565b835190830190612806818360208801612ae0565b64173539b7b760d91b9101908152600501949350505050565b7f416363657373436f6e74726f6c3a206163636f756e7420000000000000000000815260008351612857816017850160208801612ae0565b7001034b99036b4b9b9b4b733903937b6329607d1b6017918401918201528351612888816028840160208801612ae0565b01602801949350505050565b6001600160a01b03858116825284166020820152604081018390526080606082018190526000906128c7908301846127b4565b9695505050505050565b6001600160a01b03841681526060602082018190526000906128f5908301856127b4565b9050826040830152949350505050565b6000602080830181845280855180835260408601915060408160051b870101925083870160005b8281101561295a57603f198886030184526129488583516127b4565b9450928501929085019060010161292c565b5092979650505050505050565b602081526000610ced60208301846127b4565b60408152600061298d60408301856127b4565b90508260208301529392505050565b60208082526032908201527f4552433732313a207472616e7366657220746f206e6f6e20455243373231526560408201527131b2b4bb32b91034b6b83632b6b2b73a32b960711b606082015260800190565b60208082526019908201527f534f554c4e414d455f434f4e54524143545f4e4f545f53455400000000000000604082015260600190565b604051601f8201601f1916810167ffffffffffffffff81118282101715612a4e57612a4e612be3565b604052919050565b600067ffffffffffffffff821115612a7057612a70612be3565b50601f01601f191660200190565b60008219821115612a9157612a91612b8b565b500190565b600082612aa557612aa5612ba1565b500490565b6000816000190483118215151615612ac457612ac4612b8b565b500290565b600082821015612adb57612adb612b8b565b500390565b60005b83811015612afb578181015183820152602001612ae3565b83811115612b0a576000848401525b50505050565b600081612b1f57612b1f612b8b565b506000190190565b600181811c90821680612b3b57607f821691505b60208210811415611c2357634e487b7160e01b600052602260045260246000fd5b6000600019821415612b7057612b70612b8b565b5060010190565b600082612b8657612b86612ba1565b500690565b634e487b7160e01b600052601160045260246000fd5b634e487b7160e01b600052601260045260246000fd5b634e487b7160e01b600052603160045260246000fd5b634e487b7160e01b600052603260045260246000fd5b634e487b7160e01b600052604160045260246000fd5b6001600160a01b0381168114610b5657600080fd5b8015158114610b5657600080fd5b6001600160e01b031981168114610b5657600080fdfea2646970667358221220a6adcd9358ad482e402c3e6cd2136b884a0541ac266cb5efc5aa09787dd628c564736f6c63430008070033",
  "devdoc": {
    "author": "Masa Finance",
    "details": "Soulbound identity, that inherits from the SBT contract.",
    "kind": "dev",
    "methods": {
      "approve(address,uint256)": {
        "details": "See {IERC721-approve}."
      },
      "balanceOf(address)": {
        "details": "See {IERC721-balanceOf}."
      },
      "burn(uint256)": {
        "details": "The caller must own `tokenId` or be an approved operator",
        "params": {
          "tokenId": "The NFT ID to burn"
        }
      },
      "constructor": {
        "details": "Creates a new soulbound identity, inheriting from the SBT contract.",
        "params": {
          "_soulLinker": "Address of the SoulLinker contract",
          "baseTokenURI": "Base URI of the token",
          "owner": "Owner of the smart contract"
        }
      },
      "getApproved(uint256)": {
        "details": "See {IERC721-getApproved}."
      },
      "getIdentityData(string)": {
        "details": "This function queries the information of a soul name",
        "params": {
          "name": "Name of the soul name"
        },
        "returns": {
          "identityId": "Identity id of the soul name",
          "sbtName": "Soul name, in upper/lower case and extension"
        }
      },
      "getIdentityNames(address)": {
        "details": "This function queries all the identity names of the specified account",
        "params": {
          "owner": "Address of the owner of the identities"
        },
        "returns": {
          "sbtNames": "Array of soul names associated to the account"
        }
      },
      "getIdentityNames(uint256)": {
        "details": "This function queries all the identity names of the specified identity Id",
        "params": {
          "tokenId": "TokenId of the identity"
        },
        "returns": {
          "sbtNames": "Array of soul names associated to the identity Id"
        }
      },
      "getRoleAdmin(bytes32)": {
        "details": "Returns the admin role that controls `role`. See {grantRole} and {revokeRole}. To change a role's admin, use {_setRoleAdmin}."
      },
      "grantRole(bytes32,address)": {
        "details": "Grants `role` to `account`. If `account` had not been already granted `role`, emits a {RoleGranted} event. Requirements: - the caller must have ``role``'s admin role. May emit a {RoleGranted} event."
      },
      "hasRole(bytes32,address)": {
        "details": "Returns `true` if `account` has been granted `role`."
      },
      "isApprovedForAll(address,address)": {
        "details": "See {IERC721-isApprovedForAll}."
      },
      "mint(address)": {
        "details": "The caller can only mint one identity per address",
        "params": {
          "to": "Address of the owner of the new identity"
        }
      },
      "mintIdentityWithName(address,string)": {
        "details": "The caller can only mint one identity per address, and the name must be unique",
        "params": {
          "name": "Name of the new identity",
          "to": "Address of the owner of the new identity"
        }
      },
      "name()": {
        "details": "See {IERC721Metadata-name}."
      },
      "nameExists(string)": {
        "details": "This function queries if a soul name already exists",
        "params": {
          "name": "Name of the soul name"
        },
        "returns": {
          "exists": "`true` if the soul name exists, `false` otherwise"
        }
      },
      "ownerOf(string)": {
        "details": "This function returns the owner address of the soul name identity specified by the name",
        "params": {
          "name": "Name of the soul name"
        },
        "returns": {
          "_0": "Address of the owner of the identity"
        }
      },
      "ownerOf(uint256)": {
        "details": "This function returns the owner address of the identity specified by the tokenId",
        "params": {
          "tokenId": "TokenId of the identity"
        },
        "returns": {
          "_0": "Address of the owner of the identity"
        }
      },
      "pause()": {
        "details": "Sets an emergency stop mechanism that can be triggered by an authorized account."
      },
      "paused()": {
        "details": "Returns true if the contract is paused, and false otherwise."
      },
      "renounceRole(bytes32,address)": {
        "details": "Revokes `role` from the calling account. Roles are often managed via {grantRole} and {revokeRole}: this function's purpose is to provide a mechanism for accounts to lose their privileges if they are compromised (such as when a trusted device is misplaced). If the calling account had been revoked `role`, emits a {RoleRevoked} event. Requirements: - the caller must be `account`. May emit a {RoleRevoked} event."
      },
      "revokeRole(bytes32,address)": {
        "details": "Revokes `role` from `account`. If `account` had been granted `role`, emits a {RoleRevoked} event. Requirements: - the caller must have ``role``'s admin role. May emit a {RoleRevoked} event."
      },
      "safeTransferFrom(address,address,uint256)": {
        "details": "This will raise an exception because the token is not transferable.",
        "params": {
          "from": "The current owner of the NFT",
          "to": "The new owner",
          "tokenId": "The NFT ID to transfer"
        }
      },
      "safeTransferFrom(address,address,uint256,bytes)": {
        "details": "This will raise an exception because the token is not transferable.",
        "params": {
          "data": "Additional data with no specified format, sent in call to `_to`",
          "from": "The current owner of the NFT",
          "to": "The new owner",
          "tokenId": "The NFT ID to transfer"
        }
      },
      "setApprovalForAll(address,bool)": {
        "details": "See {IERC721-setApprovalForAll}."
      },
      "setSoulName(address)": {
        "details": "The caller must have the admin role to call this function",
        "params": {
          "_soulName": "Address of the SoulName contract"
        }
      },
      "supportsInterface(bytes4)": {
        "details": "Interface identification is specified in ERC-165.",
        "params": {
          "interfaceId": "The interface identifier, as specified in ERC-165"
        },
        "returns": {
          "_0": "`true` if the contract implements `interfaceId` and  `interfaceId` is not 0xffffffff, `false` otherwise"
        }
      },
      "symbol()": {
        "details": "See {IERC721Metadata-symbol}."
      },
      "tokenByIndex(uint256)": {
        "details": "See {IERC721Enumerable-tokenByIndex}."
      },
      "tokenOfOwner(address)": {
        "details": "This function returns the tokenId of the identity owned by an account",
        "params": {
          "owner": "Address of the owner of the identity"
        },
        "returns": {
          "_0": "TokenId of the identity owned by the account"
        }
      },
      "tokenOfOwnerByIndex(address,uint256)": {
        "details": "See {IERC721Enumerable-tokenOfOwnerByIndex}."
      },
      "tokenURI(address)": {
        "details": "This function returns the token URI of the identity owned by an account",
        "params": {
          "owner": "Address of the owner of the identity"
        },
        "returns": {
          "_0": "URI of the identity owned by the account"
        }
      },
      "tokenURI(string)": {
        "details": "This function returns the token URI of the soul name identity specified by the name",
        "params": {
          "name": "Name of the soul name"
        },
        "returns": {
          "_0": "URI of the identity associated to a soul name"
        }
      },
      "tokenURI(uint256)": {
        "details": "Throws if `_tokenId` is not a valid NFT. URIs are defined in RFC  3986. The URI may point to a JSON file that conforms to the \"ERC721  Metadata JSON Schema\".",
        "params": {
          "tokenId": "NFT to get the URI of"
        },
        "returns": {
          "_0": "URI of the NFT"
        }
      },
      "totalSupply()": {
        "details": "See {IERC721Enumerable-totalSupply}."
      },
      "transferFrom(address,address,uint256)": {
        "details": "This will raise an exception because the token is not transferable.",
        "params": {
          "from": "The current owner of the NFT",
          "to": "The new owner",
          "tokenId": "The NFT ID to transfer"
        }
      },
      "unpause()": {
        "details": "Unsets an emergency stop mechanism. It can be triggered by an authorized account."
      }
    },
    "title": "Soulbound Identity",
    "version": 1
  },
  "userdoc": {
    "kind": "user",
    "methods": {
      "burn(uint256)": {
        "notice": "Burns the token"
      },
      "constructor": {
        "notice": "Creates a new soulbound identity"
      },
      "getIdentityData(string)": {
        "notice": "Returns the information of a soul name"
      },
      "getIdentityNames(address)": {
        "notice": "Returns all the identity names of an account"
      },
      "getIdentityNames(uint256)": {
        "notice": "Returns all the identity names of an identity"
      },
      "mint(address)": {
        "notice": "Mints a new soulbound identity"
      },
      "mintIdentityWithName(address,string)": {
        "notice": "Mints a new soulbound identity with a SoulName associated to it"
      },
      "nameExists(string)": {
        "notice": "Checks if a soul name already exists"
      },
      "ownerOf(string)": {
        "notice": "Returns the owner address of a soul name"
      },
      "ownerOf(uint256)": {
        "notice": "Returns the owner address of an identity"
      },
      "pause()": {
        "notice": "Pauses the operations in the smart contract"
      },
      "safeTransferFrom(address,address,uint256)": {
        "notice": "Transfers the ownership of an NFT from one address to another address"
      },
      "safeTransferFrom(address,address,uint256,bytes)": {
        "notice": "Transfer ownership of the token to another address safely"
      },
      "setSoulName(address)": {
        "notice": "Sets the SoulName contract address linked to this identity"
      },
      "supportsInterface(bytes4)": {
        "notice": "Query if a contract implements an interface"
      },
      "tokenOfOwner(address)": {
        "notice": "Returns the identity id of an account"
      },
      "tokenURI(address)": {
        "notice": "Returns the URI of the owner of an identity"
      },
      "tokenURI(string)": {
        "notice": "Returns the URI of a soul name"
      },
      "tokenURI(uint256)": {
        "notice": "A distinct Uniform Resource Identifier (URI) for a given asset."
      },
      "transferFrom(address,address,uint256)": {
        "notice": "Transfer ownership of an NFT -- THE CALLER IS RESPONSIBLE  TO CONFIRM THAT `_to` IS CAPABLE OF RECEIVING NFTS OR ELSE  THEY MAY BE PERMANENTLY LOST"
      },
      "unpause()": {
        "notice": "Unpauses the operations in the smart contract"
      }
    },
    "notice": "Soulbound token that represents an identity.",
    "version": 1
  },
  "storageLayout": {
    "storage": [
      {
        "astId": 1645,
        "contract": "contracts/SoulboundIdentity.sol:SoulboundIdentity",
        "label": "_name",
        "offset": 0,
        "slot": "0",
        "type": "t_string_storage"
      },
      {
        "astId": 1647,
        "contract": "contracts/SoulboundIdentity.sol:SoulboundIdentity",
        "label": "_symbol",
        "offset": 0,
        "slot": "1",
        "type": "t_string_storage"
      },
      {
        "astId": 1651,
        "contract": "contracts/SoulboundIdentity.sol:SoulboundIdentity",
        "label": "_owners",
        "offset": 0,
        "slot": "2",
        "type": "t_mapping(t_uint256,t_address)"
      },
      {
        "astId": 1655,
        "contract": "contracts/SoulboundIdentity.sol:SoulboundIdentity",
        "label": "_balances",
        "offset": 0,
        "slot": "3",
        "type": "t_mapping(t_address,t_uint256)"
      },
      {
        "astId": 1659,
        "contract": "contracts/SoulboundIdentity.sol:SoulboundIdentity",
        "label": "_tokenApprovals",
        "offset": 0,
        "slot": "4",
        "type": "t_mapping(t_uint256,t_address)"
      },
      {
        "astId": 1665,
        "contract": "contracts/SoulboundIdentity.sol:SoulboundIdentity",
        "label": "_operatorApprovals",
        "offset": 0,
        "slot": "5",
        "type": "t_mapping(t_address,t_mapping(t_address,t_bool))"
      },
      {
        "astId": 2665,
        "contract": "contracts/SoulboundIdentity.sol:SoulboundIdentity",
        "label": "_ownedTokens",
        "offset": 0,
        "slot": "6",
        "type": "t_mapping(t_address,t_mapping(t_uint256,t_uint256))"
      },
      {
        "astId": 2669,
        "contract": "contracts/SoulboundIdentity.sol:SoulboundIdentity",
        "label": "_ownedTokensIndex",
        "offset": 0,
        "slot": "7",
        "type": "t_mapping(t_uint256,t_uint256)"
      },
      {
        "astId": 2672,
        "contract": "contracts/SoulboundIdentity.sol:SoulboundIdentity",
        "label": "_allTokens",
        "offset": 0,
        "slot": "8",
        "type": "t_array(t_uint256)dyn_storage"
      },
      {
        "astId": 2676,
        "contract": "contracts/SoulboundIdentity.sol:SoulboundIdentity",
        "label": "_allTokensIndex",
        "offset": 0,
        "slot": "9",
        "type": "t_mapping(t_uint256,t_uint256)"
      },
      {
        "astId": 523,
        "contract": "contracts/SoulboundIdentity.sol:SoulboundIdentity",
        "label": "_paused",
        "offset": 0,
        "slot": "10",
        "type": "t_bool"
      },
      {
        "astId": 24,
        "contract": "contracts/SoulboundIdentity.sol:SoulboundIdentity",
        "label": "_roles",
        "offset": 0,
        "slot": "11",
        "type": "t_mapping(t_bytes32,t_struct(RoleData)19_storage)"
      },
      {
        "astId": 6300,
        "contract": "contracts/SoulboundIdentity.sol:SoulboundIdentity",
        "label": "_tokenIdCounter",
        "offset": 0,
        "slot": "12",
        "type": "t_struct(Counter)3416_storage"
      },
      {
        "astId": 6302,
        "contract": "contracts/SoulboundIdentity.sol:SoulboundIdentity",
        "label": "_baseTokenURI",
        "offset": 0,
        "slot": "13",
        "type": "t_string_storage"
      },
      {
        "astId": 6491,
        "contract": "contracts/SoulboundIdentity.sol:SoulboundIdentity",
        "label": "soulLinker",
        "offset": 0,
        "slot": "14",
        "type": "t_contract(SoulLinker)4847"
      },
      {
        "astId": 5542,
        "contract": "contracts/SoulboundIdentity.sol:SoulboundIdentity",
        "label": "soulName",
        "offset": 0,
        "slot": "15",
        "type": "t_contract(SoulName)5505"
      }
    ],
    "types": {
      "t_address": {
        "encoding": "inplace",
        "label": "address",
        "numberOfBytes": "20"
      },
      "t_array(t_uint256)dyn_storage": {
        "base": "t_uint256",
        "encoding": "dynamic_array",
        "label": "uint256[]",
        "numberOfBytes": "32"
      },
      "t_bool": {
        "encoding": "inplace",
        "label": "bool",
        "numberOfBytes": "1"
      },
      "t_bytes32": {
        "encoding": "inplace",
        "label": "bytes32",
        "numberOfBytes": "32"
      },
      "t_contract(SoulLinker)4847": {
        "encoding": "inplace",
        "label": "contract SoulLinker",
        "numberOfBytes": "20"
      },
      "t_contract(SoulName)5505": {
        "encoding": "inplace",
        "label": "contract SoulName",
        "numberOfBytes": "20"
      },
      "t_mapping(t_address,t_bool)": {
        "encoding": "mapping",
        "key": "t_address",
        "label": "mapping(address => bool)",
        "numberOfBytes": "32",
        "value": "t_bool"
      },
      "t_mapping(t_address,t_mapping(t_address,t_bool))": {
        "encoding": "mapping",
        "key": "t_address",
        "label": "mapping(address => mapping(address => bool))",
        "numberOfBytes": "32",
        "value": "t_mapping(t_address,t_bool)"
      },
      "t_mapping(t_address,t_mapping(t_uint256,t_uint256))": {
        "encoding": "mapping",
        "key": "t_address",
        "label": "mapping(address => mapping(uint256 => uint256))",
        "numberOfBytes": "32",
        "value": "t_mapping(t_uint256,t_uint256)"
      },
      "t_mapping(t_address,t_uint256)": {
        "encoding": "mapping",
        "key": "t_address",
        "label": "mapping(address => uint256)",
        "numberOfBytes": "32",
        "value": "t_uint256"
      },
      "t_mapping(t_bytes32,t_struct(RoleData)19_storage)": {
        "encoding": "mapping",
        "key": "t_bytes32",
        "label": "mapping(bytes32 => struct AccessControl.RoleData)",
        "numberOfBytes": "32",
        "value": "t_struct(RoleData)19_storage"
      },
      "t_mapping(t_uint256,t_address)": {
        "encoding": "mapping",
        "key": "t_uint256",
        "label": "mapping(uint256 => address)",
        "numberOfBytes": "32",
        "value": "t_address"
      },
      "t_mapping(t_uint256,t_uint256)": {
        "encoding": "mapping",
        "key": "t_uint256",
        "label": "mapping(uint256 => uint256)",
        "numberOfBytes": "32",
        "value": "t_uint256"
      },
      "t_string_storage": {
        "encoding": "bytes",
        "label": "string",
        "numberOfBytes": "32"
      },
      "t_struct(Counter)3416_storage": {
        "encoding": "inplace",
        "label": "struct Counters.Counter",
        "members": [
          {
            "astId": 3415,
            "contract": "contracts/SoulboundIdentity.sol:SoulboundIdentity",
            "label": "_value",
            "offset": 0,
            "slot": "0",
            "type": "t_uint256"
          }
        ],
        "numberOfBytes": "32"
      },
      "t_struct(RoleData)19_storage": {
        "encoding": "inplace",
        "label": "struct AccessControl.RoleData",
        "members": [
          {
            "astId": 16,
            "contract": "contracts/SoulboundIdentity.sol:SoulboundIdentity",
            "label": "members",
            "offset": 0,
            "slot": "0",
            "type": "t_mapping(t_address,t_bool)"
          },
          {
            "astId": 18,
            "contract": "contracts/SoulboundIdentity.sol:SoulboundIdentity",
            "label": "adminRole",
            "offset": 0,
            "slot": "1",
            "type": "t_bytes32"
          }
        ],
        "numberOfBytes": "64"
      },
      "t_uint256": {
        "encoding": "inplace",
        "label": "uint256",
        "numberOfBytes": "32"
      }
    }
  }
}