{
  "address": "0x850a2821f772434e561D2EFdcE487C05cE2699Ea",
  "abi": [
    {
      "inputs": [
        {
          "internalType": "address",
          "name": "owner",
          "type": "address"
        },
        {
          "internalType": "contract SoulboundIdentity",
          "name": "_soulBoundIdentity",
          "type": "address"
        },
        {
          "internalType": "uint256",
          "name": "_mintingIdentityAndNamePrice",
          "type": "uint256"
        },
        {
          "internalType": "uint256",
          "name": "_mintingIdentityPrice",
          "type": "uint256"
        },
        {
          "internalType": "uint256",
          "name": "_mintingNamePrice",
          "type": "uint256"
        },
        {
          "internalType": "address",
          "name": "_utilityToken",
          "type": "address"
        },
        {
          "internalType": "address",
          "name": "_stableCoin",
          "type": "address"
        },
        {
          "internalType": "address",
          "name": "_wrappedNativeToken",
          "type": "address"
        },
        {
          "internalType": "address",
          "name": "_swapRouter",
          "type": "address"
        },
        {
          "internalType": "address",
          "name": "_reserveWallet",
          "type": "address"
        }
      ],
      "stateMutability": "nonpayable",
      "type": "constructor"
    },
    {
      "anonymous": false,
      "inputs": [
        {
          "indexed": false,
          "internalType": "address",
          "name": "account",
          "type": "address"
        }
      ],
      "name": "Paused",
      "type": "event"
    },
    {
      "anonymous": false,
      "inputs": [
        {
          "indexed": true,
          "internalType": "bytes32",
          "name": "role",
          "type": "bytes32"
        },
        {
          "indexed": true,
          "internalType": "bytes32",
          "name": "previousAdminRole",
          "type": "bytes32"
        },
        {
          "indexed": true,
          "internalType": "bytes32",
          "name": "newAdminRole",
          "type": "bytes32"
        }
      ],
      "name": "RoleAdminChanged",
      "type": "event"
    },
    {
      "anonymous": false,
      "inputs": [
        {
          "indexed": true,
          "internalType": "bytes32",
          "name": "role",
          "type": "bytes32"
        },
        {
          "indexed": true,
          "internalType": "address",
          "name": "account",
          "type": "address"
        },
        {
          "indexed": true,
          "internalType": "address",
          "name": "sender",
          "type": "address"
        }
      ],
      "name": "RoleGranted",
      "type": "event"
    },
    {
      "anonymous": false,
      "inputs": [
        {
          "indexed": true,
          "internalType": "bytes32",
          "name": "role",
          "type": "bytes32"
        },
        {
          "indexed": true,
          "internalType": "address",
          "name": "account",
          "type": "address"
        },
        {
          "indexed": true,
          "internalType": "address",
          "name": "sender",
          "type": "address"
        }
      ],
      "name": "RoleRevoked",
      "type": "event"
    },
    {
      "anonymous": false,
      "inputs": [
        {
          "indexed": true,
          "internalType": "address",
          "name": "account",
          "type": "address"
        },
        {
          "indexed": false,
          "internalType": "uint256",
          "name": "tokenId",
          "type": "uint256"
        },
        {
          "indexed": true,
          "internalType": "string",
          "name": "name",
          "type": "string"
        },
        {
          "indexed": false,
          "internalType": "uint256",
          "name": "price",
          "type": "uint256"
        }
      ],
      "name": "SoulNamePurchased",
      "type": "event"
    },
    {
      "anonymous": false,
      "inputs": [
        {
          "indexed": true,
          "internalType": "address",
          "name": "account",
          "type": "address"
        },
        {
          "indexed": false,
          "internalType": "uint256",
          "name": "tokenId",
          "type": "uint256"
        },
        {
          "indexed": true,
          "internalType": "string",
          "name": "name",
          "type": "string"
        },
        {
          "indexed": false,
          "internalType": "uint256",
          "name": "price",
          "type": "uint256"
        }
      ],
      "name": "SoulboundIdentityAndNamePurchased",
      "type": "event"
    },
    {
      "anonymous": false,
      "inputs": [
        {
          "indexed": true,
          "internalType": "address",
          "name": "account",
          "type": "address"
        },
        {
          "indexed": false,
          "internalType": "uint256",
          "name": "tokenId",
          "type": "uint256"
        },
        {
          "indexed": false,
          "internalType": "uint256",
          "name": "price",
          "type": "uint256"
        }
      ],
      "name": "SoulboundIdentityPurchased",
      "type": "event"
    },
    {
      "anonymous": false,
      "inputs": [
        {
          "indexed": false,
          "internalType": "address",
          "name": "account",
          "type": "address"
        }
      ],
      "name": "Unpaused",
      "type": "event"
    },
    {
      "inputs": [],
      "name": "DEFAULT_ADMIN_ROLE",
      "outputs": [
        {
          "internalType": "bytes32",
          "name": "",
          "type": "bytes32"
        }
      ],
      "stateMutability": "view",
      "type": "function"
    },
    {
      "inputs": [],
      "name": "PAUSER_ROLE",
      "outputs": [
        {
          "internalType": "bytes32",
          "name": "",
          "type": "bytes32"
        }
      ],
      "stateMutability": "view",
      "type": "function"
    },
    {
      "inputs": [
        {
          "internalType": "uint256",
          "name": "mintingPrice",
          "type": "uint256"
        }
      ],
      "name": "_getSwapAmounts",
      "outputs": [
        {
          "internalType": "uint256",
          "name": "priceInStableCoin",
          "type": "uint256"
        },
        {
          "internalType": "uint256",
          "name": "priceInETH",
          "type": "uint256"
        },
        {
          "internalType": "uint256",
          "name": "priceInUtilityToken",
          "type": "uint256"
        }
      ],
      "stateMutability": "view",
      "type": "function"
    },
    {
      "inputs": [
        {
          "internalType": "address",
          "name": "_fromToken",
          "type": "address"
        },
        {
          "internalType": "address",
          "name": "_toToken",
          "type": "address"
        },
        {
          "internalType": "uint256",
          "name": "_amountOut",
          "type": "uint256"
        }
      ],
      "name": "estimateSwapAmount",
      "outputs": [
        {
          "internalType": "uint256",
          "name": "",
          "type": "uint256"
        }
      ],
      "stateMutability": "view",
      "type": "function"
    },
    {
      "inputs": [
        {
          "internalType": "bytes32",
          "name": "role",
          "type": "bytes32"
        }
      ],
      "name": "getRoleAdmin",
      "outputs": [
        {
          "internalType": "bytes32",
          "name": "",
          "type": "bytes32"
        }
      ],
      "stateMutability": "view",
      "type": "function"
    },
    {
      "inputs": [
        {
          "internalType": "bytes32",
          "name": "role",
          "type": "bytes32"
        },
        {
          "internalType": "address",
          "name": "account",
          "type": "address"
        }
      ],
      "name": "grantRole",
      "outputs": [],
      "stateMutability": "nonpayable",
      "type": "function"
    },
    {
      "inputs": [
        {
          "internalType": "bytes32",
          "name": "role",
          "type": "bytes32"
        },
        {
          "internalType": "address",
          "name": "account",
          "type": "address"
        }
      ],
      "name": "hasRole",
      "outputs": [
        {
          "internalType": "bool",
          "name": "",
          "type": "bool"
        }
      ],
      "stateMutability": "view",
      "type": "function"
    },
    {
      "inputs": [],
      "name": "mintingIdentityAndNamePrice",
      "outputs": [
        {
          "internalType": "uint256",
          "name": "",
          "type": "uint256"
        }
      ],
      "stateMutability": "view",
      "type": "function"
    },
    {
      "inputs": [],
      "name": "mintingIdentityPrice",
      "outputs": [
        {
          "internalType": "uint256",
          "name": "",
          "type": "uint256"
        }
      ],
      "stateMutability": "view",
      "type": "function"
    },
    {
      "inputs": [],
      "name": "mintingNamePrice",
      "outputs": [
        {
          "internalType": "uint256",
          "name": "",
          "type": "uint256"
        }
      ],
      "stateMutability": "view",
      "type": "function"
    },
    {
      "inputs": [],
      "name": "pause",
      "outputs": [],
      "stateMutability": "nonpayable",
      "type": "function"
    },
    {
      "inputs": [],
      "name": "paused",
      "outputs": [
        {
          "internalType": "bool",
          "name": "",
          "type": "bool"
        }
      ],
      "stateMutability": "view",
      "type": "function"
    },
    {
      "inputs": [
        {
          "internalType": "address",
          "name": "paymentMethod",
          "type": "address"
        }
      ],
      "name": "purchaseIdentity",
      "outputs": [
        {
          "internalType": "uint256",
          "name": "",
          "type": "uint256"
        }
      ],
      "stateMutability": "payable",
      "type": "function"
    },
    {
      "inputs": [
        {
          "internalType": "address",
          "name": "paymentMethod",
          "type": "address"
        },
        {
          "internalType": "string",
          "name": "name",
          "type": "string"
        }
      ],
      "name": "purchaseIdentityAndName",
      "outputs": [
        {
          "internalType": "uint256",
          "name": "",
          "type": "uint256"
        }
      ],
      "stateMutability": "payable",
      "type": "function"
    },
    {
      "inputs": [],
      "name": "purchaseIdentityAndNameInfo",
      "outputs": [
        {
          "internalType": "uint256",
          "name": "priceInStableCoin",
          "type": "uint256"
        },
        {
          "internalType": "uint256",
          "name": "priceInETH",
          "type": "uint256"
        },
        {
          "internalType": "uint256",
          "name": "priceInUtilityToken",
          "type": "uint256"
        }
      ],
      "stateMutability": "view",
      "type": "function"
    },
    {
      "inputs": [],
      "name": "purchaseIdentityInfo",
      "outputs": [
        {
          "internalType": "uint256",
          "name": "priceInStableCoin",
          "type": "uint256"
        },
        {
          "internalType": "uint256",
          "name": "priceInETH",
          "type": "uint256"
        },
        {
          "internalType": "uint256",
          "name": "priceInUtilityToken",
          "type": "uint256"
        }
      ],
      "stateMutability": "view",
      "type": "function"
    },
    {
      "inputs": [
        {
          "internalType": "address",
          "name": "paymentMethod",
          "type": "address"
        },
        {
          "internalType": "string",
          "name": "name",
          "type": "string"
        }
      ],
      "name": "purchaseName",
      "outputs": [
        {
          "internalType": "uint256",
          "name": "",
          "type": "uint256"
        }
      ],
      "stateMutability": "payable",
      "type": "function"
    },
    {
      "inputs": [],
      "name": "purchaseNameInfo",
      "outputs": [
        {
          "internalType": "uint256",
          "name": "priceInStableCoin",
          "type": "uint256"
        },
        {
          "internalType": "uint256",
          "name": "priceInETH",
          "type": "uint256"
        },
        {
          "internalType": "uint256",
          "name": "priceInUtilityToken",
          "type": "uint256"
        }
      ],
      "stateMutability": "view",
      "type": "function"
    },
    {
      "inputs": [
        {
          "internalType": "bytes32",
          "name": "role",
          "type": "bytes32"
        },
        {
          "internalType": "address",
          "name": "account",
          "type": "address"
        }
      ],
      "name": "renounceRole",
      "outputs": [],
      "stateMutability": "nonpayable",
      "type": "function"
    },
    {
      "inputs": [],
      "name": "reserveWallet",
      "outputs": [
        {
          "internalType": "address",
          "name": "",
          "type": "address"
        }
      ],
      "stateMutability": "view",
      "type": "function"
    },
    {
      "inputs": [
        {
          "internalType": "bytes32",
          "name": "role",
          "type": "bytes32"
        },
        {
          "internalType": "address",
          "name": "account",
          "type": "address"
        }
      ],
      "name": "revokeRole",
      "outputs": [],
      "stateMutability": "nonpayable",
      "type": "function"
    },
    {
      "inputs": [
        {
          "internalType": "uint256",
          "name": "_mintingIdentityAndNamePrice",
          "type": "uint256"
        }
      ],
      "name": "setMintingIdentityAndNamePrice",
      "outputs": [],
      "stateMutability": "nonpayable",
      "type": "function"
    },
    {
      "inputs": [
        {
          "internalType": "uint256",
          "name": "_mintingIdentityPrice",
          "type": "uint256"
        }
      ],
      "name": "setMintingIdentityPrice",
      "outputs": [],
      "stateMutability": "nonpayable",
      "type": "function"
    },
    {
      "inputs": [
        {
          "internalType": "uint256",
          "name": "_mintingNamePrice",
          "type": "uint256"
        }
      ],
      "name": "setMintingNamePrice",
      "outputs": [],
      "stateMutability": "nonpayable",
      "type": "function"
    },
    {
      "inputs": [
        {
          "internalType": "address",
          "name": "_reserveWallet",
          "type": "address"
        }
      ],
      "name": "setReserveWallet",
      "outputs": [],
      "stateMutability": "nonpayable",
      "type": "function"
    },
    {
      "inputs": [
        {
          "internalType": "contract SoulboundIdentity",
          "name": "_soulboundIdentity",
          "type": "address"
        }
      ],
      "name": "setSoulboundIdentity",
      "outputs": [],
      "stateMutability": "nonpayable",
      "type": "function"
    },
    {
      "inputs": [
        {
          "internalType": "address",
          "name": "_stableCoin",
          "type": "address"
        }
      ],
      "name": "setStableCoin",
      "outputs": [],
      "stateMutability": "nonpayable",
      "type": "function"
    },
    {
      "inputs": [
        {
          "internalType": "address",
          "name": "_swapRouter",
          "type": "address"
        }
      ],
      "name": "setSwapRouter",
      "outputs": [],
      "stateMutability": "nonpayable",
      "type": "function"
    },
    {
      "inputs": [
        {
          "internalType": "address",
          "name": "_utilityToken",
          "type": "address"
        }
      ],
      "name": "setUtilityToken",
      "outputs": [],
      "stateMutability": "nonpayable",
      "type": "function"
    },
    {
      "inputs": [
        {
          "internalType": "address",
          "name": "_wrappedNativeToken",
          "type": "address"
        }
      ],
      "name": "setWrappedNativeToken",
      "outputs": [],
      "stateMutability": "nonpayable",
      "type": "function"
    },
    {
      "inputs": [],
      "name": "soulboundIdentity",
      "outputs": [
        {
          "internalType": "contract SoulboundIdentity",
          "name": "",
          "type": "address"
        }
      ],
      "stateMutability": "view",
      "type": "function"
    },
    {
      "inputs": [],
      "name": "stableCoin",
      "outputs": [
        {
          "internalType": "address",
          "name": "",
          "type": "address"
        }
      ],
      "stateMutability": "view",
      "type": "function"
    },
    {
      "inputs": [
        {
          "internalType": "bytes4",
          "name": "interfaceId",
          "type": "bytes4"
        }
      ],
      "name": "supportsInterface",
      "outputs": [
        {
          "internalType": "bool",
          "name": "",
          "type": "bool"
        }
      ],
      "stateMutability": "view",
      "type": "function"
    },
    {
      "inputs": [],
      "name": "swapRouter",
      "outputs": [
        {
          "internalType": "address",
          "name": "",
          "type": "address"
        }
      ],
      "stateMutability": "view",
      "type": "function"
    },
    {
      "inputs": [],
      "name": "unpause",
      "outputs": [],
      "stateMutability": "nonpayable",
      "type": "function"
    },
    {
      "inputs": [],
      "name": "utilityToken",
      "outputs": [
        {
          "internalType": "address",
          "name": "",
          "type": "address"
        }
      ],
      "stateMutability": "view",
      "type": "function"
    },
    {
      "inputs": [],
      "name": "wrappedNativeToken",
      "outputs": [
        {
          "internalType": "address",
          "name": "",
          "type": "address"
        }
      ],
      "stateMutability": "view",
      "type": "function"
    }
  ],
  "transactionHash": "0x9c28d4479897889c30912dedfed05f674432113edf1f62f3ef9d3f19cc9a1fda",
  "args": [
    "0x3c8D9f130970358b7E8cbc1DbD0a1EbA6EBE368F",
    "0xBDc0F2e51bedaB31258BE0c0bd8fCf141bccd193",
    "5000000",
    "3000000",
    "3000000",
    "0x9A138722AFEdBf38B54d33A88eF903a5c16E6455",
    "0x37f39aD164cBBf0Cc03Dd638472F3FbeC7aE426C",
    "0xF194afDf50B03e69Bd7D057c1Aa9e10c9954E4C9",
    "0xE3D8bd6Aed4F159bc8000a9cD47CffDb95F96121",
    "0x3c8D9f130970358b7E8cbc1DbD0a1EbA6EBE368F"
  ],
  "numDeployments": 1,
  "solcInputHash": "75708de12795f2aaa53306849f53cc3e",
  "bytecode": "0x60806040523480156200001157600080fd5b506040516200256f3803806200256f8339810160408190526200003491620002c9565b81836001600160a01b038216620000815760405162461bcd60e51b815260206004820152600c60248201526b5a45524f5f4144445245535360a01b60448201526064015b60405180910390fd5b6001600160a01b038116620000c85760405162461bcd60e51b815260206004820152600c60248201526b5a45524f5f4144445245535360a01b604482015260640162000078565b600080546001600160a01b039384166001600160a01b0319909116179055600180546001600160a81b03191691831691909117905581166200013c5760405162461bcd60e51b815260206004820152600c60248201526b5a45524f5f4144445245535360a01b604482015260640162000078565b6001600160a01b038916620001835760405162461bcd60e51b815260206004820152600c60248201526b5a45524f5f4144445245535360a01b604482015260640162000078565b6200019060008b62000224565b620001bc7f65d7a28e3265b37a6474929f336521b332c1681b933f6cb9f3376673440d862a8b62000224565b600380546001600160a01b039a8b166001600160a01b03199182161790915560049890985560059690965550506006929092556007805492861692851692909217909155600880549185169184169190911790556009805491909316911617905550620003ad565b60008281526002602090815260408083206001600160a01b038516845290915290205460ff16620002c55760008281526002602090815260408083206001600160a01b03851684529091529020805460ff19166001179055620002843390565b6001600160a01b0316816001600160a01b0316837f2f8788117e7eff1d82e926ec794901d17c78024a50270940304540a733656f0d60405160405180910390a45b5050565b6000806000806000806000806000806101408b8d031215620002ea57600080fd5b8a51620002f78162000394565b60208c0151909a506200030a8162000394565b8099505060408b0151975060608b0151965060808b0151955060a08b0151620003338162000394565b60c08c0151909550620003468162000394565b60e08c0151909450620003598162000394565b6101008c01519093506200036d8162000394565b6101208c0151909250620003818162000394565b809150509295989b9194979a5092959850565b6001600160a01b0381168114620003aa57600080fd5b50565b6121b280620003bd6000396000f3fe60806040526004361061021a5760003560e01c806376a77ae111610123578063ae86ed89116100ab578063d72b11bd1161006f578063d72b11bd1461060a578063da058ae31461062a578063dafe84881461064a578063dda4fa8f1461065f578063e63ab1e91461067f57600080fd5b8063ae86ed8914610577578063bcbaae9314610597578063c31c9c07146105b7578063d247f920146105d7578063d547741f146105ea57600080fd5b80639013ae08116100f25780639013ae08146104ed57806391d148541461050d578063992642e51461052d578063a217fddf1461054d578063a87376b51461056257600080fd5b806376a77ae11461048d57806377bed5ed146104a35780638456cb59146104c35780638f448d02146104d857600080fd5b806332e40884116101a65780633f4ba83a116101755780633f4ba83a146103f9578063412736571461040e5780634dccb7191461042e5780635c975abb1461044e5780635f2a25181461046d57600080fd5b806332e408841461039057806336568abe146103a35780633ad3033e146103c35780633f301656146103e357600080fd5b80631cfd11c6116101ed5780631cfd11c6146102c357806323af4e17146102fe578063248a9ca314610320578063299a698d146103505780632f2ff15d1461037057600080fd5b806301ffc9a71461021f57806304c5bee01461025457806317fcb39b146102785780631bbd23f8146102b0575b600080fd5b34801561022b57600080fd5b5061023f61023a366004611e3a565b6106b3565b60405190151581526020015b60405180910390f35b34801561026057600080fd5b5061026a60065481565b60405190815260200161024b565b34801561028457600080fd5b50600154610298906001600160a01b031681565b6040516001600160a01b03909116815260200161024b565b61026a6102be366004611c7a565b6106ea565b3480156102cf57600080fd5b506102e36102de366004611df1565b610711565b6040805193845260208401929092529082015260600161024b565b34801561030a57600080fd5b5061031e610319366004611c1c565b61075d565b005b34801561032c57600080fd5b5061026a61033b366004611df1565b60009081526002602052604090206001015490565b34801561035c57600080fd5b5061031e61036b366004611df1565b6107e8565b34801561037c57600080fd5b5061031e61038b366004611e0a565b61081b565b61026a61039e366004611c1c565b610845565b3480156103af57600080fd5b5061031e6103be366004611e0a565b610864565b3480156103cf57600080fd5b5061031e6103de366004611c1c565b6108e2565b3480156103ef57600080fd5b5061026a60045481565b34801561040557600080fd5b5061031e610964565b34801561041a57600080fd5b5061031e610429366004611c1c565b610999565b34801561043a57600080fd5b5061031e610449366004611df1565b610a1b565b34801561045a57600080fd5b50600154600160a01b900460ff1661023f565b34801561047957600080fd5b5061026a610488366004611c39565b610a4e565b34801561049957600080fd5b5061026a60055481565b3480156104af57600080fd5b50600354610298906001600160a01b031681565b3480156104cf57600080fd5b5061031e610b0c565b3480156104e457600080fd5b506102e3610b3e565b3480156104f957600080fd5b5061031e610508366004611c1c565b610b5a565b34801561051957600080fd5b5061023f610528366004611e0a565b610bdc565b34801561053957600080fd5b50600754610298906001600160a01b031681565b34801561055957600080fd5b5061026a600081565b34801561056e57600080fd5b506102e3610c07565b34801561058357600080fd5b50600854610298906001600160a01b031681565b3480156105a357600080fd5b5061031e6105b2366004611df1565b610c17565b3480156105c357600080fd5b50600054610298906001600160a01b031681565b61026a6105e5366004611c7a565b610c4a565b3480156105f657600080fd5b5061031e610605366004611e0a565b610c6a565b34801561061657600080fd5b50600954610298906001600160a01b031681565b34801561063657600080fd5b5061031e610645366004611c1c565b610c8f565b34801561065657600080fd5b506102e3610d11565b34801561066b57600080fd5b5061031e61067a366004611c1c565b610d21565b34801561068b57600080fd5b5061026a7f65d7a28e3265b37a6474929f336521b332c1681b933f6cb9f3376673440d862a81565b60006001600160e01b03198216637965db0b60e01b14806106e457506301ffc9a760e01b6001600160e01b03198316145b92915050565b60006106f4610da3565b61070083600454610df2565b61070a3383611037565b9392505050565b60015460075482916000918291610735916001600160a01b03918216911685610a4e565b600854600754919350610755916001600160a01b03918216911686610a4e565b929491935050565b600061076881611123565b6001600160a01b0382166107975760405162461bcd60e51b815260040161078e90611fe6565b60405180910390fd5b6007546001600160a01b03838116911614156107c55760405162461bcd60e51b815260040161078e90611fc2565b50600780546001600160a01b0319166001600160a01b0392909216919091179055565b60006107f381611123565b8160055414156108155760405162461bcd60e51b815260040161078e90611fc2565b50600555565b60008281526002602052604090206001015461083681611123565b610840838361112d565b505050565b600061084f610da3565b61085b82600554610df2565b6106e4336111b3565b6001600160a01b03811633146108d45760405162461bcd60e51b815260206004820152602f60248201527f416363657373436f6e74726f6c3a2063616e206f6e6c792072656e6f756e636560448201526e103937b632b9903337b91039b2b63360891b606482015260840161078e565b6108de828261128c565b5050565b60006108ed81611123565b6001600160a01b0382166109135760405162461bcd60e51b815260040161078e90611fe6565b6003546001600160a01b03838116911614156109415760405162461bcd60e51b815260040161078e90611fc2565b50600380546001600160a01b0319166001600160a01b0392909216919091179055565b7f65d7a28e3265b37a6474929f336521b332c1681b933f6cb9f3376673440d862a61098e81611123565b6109966112f3565b50565b60006109a481611123565b6001600160a01b0382166109ca5760405162461bcd60e51b815260040161078e90611fe6565b6000546001600160a01b03838116911614156109f85760405162461bcd60e51b815260040161078e90611fc2565b50600080546001600160a01b0319166001600160a01b0392909216919091179055565b6000610a2681611123565b816006541415610a485760405162461bcd60e51b815260040161078e90611fc2565b50600655565b6000606080610a5d8686611348565b6000546040516307c0329d60e21b81529192506001600160a01b031690631f00ca7490610a90908790859060040161200c565b60006040518083038186803b158015610aa857600080fd5b505afa158015610abc573d6000803e3d6000fd5b505050506040513d6000823e601f3d908101601f19168201604052610ae49190810190611d22565b915081600081518110610af957610af961213b565b6020026020010151925050509392505050565b7f65d7a28e3265b37a6474929f336521b332c1681b933f6cb9f3376673440d862a610b3681611123565b6109966114d9565b6000806000610b4e600454610711565b91959094509092509050565b6000610b6581611123565b6001600160a01b038216610b8b5760405162461bcd60e51b815260040161078e90611fe6565b6008546001600160a01b0383811691161415610bb95760405162461bcd60e51b815260040161078e90611fc2565b50600880546001600160a01b0319166001600160a01b0392909216919091179055565b60009182526002602090815260408084206001600160a01b0393909316845291905290205460ff1690565b6000806000610b4e600554610711565b6000610c2281611123565b816004541415610c445760405162461bcd60e51b815260040161078e90611fc2565b50600455565b6000610c54610da3565b610c6083600654610df2565b61070a338361151c565b600082815260026020526040902060010154610c8581611123565b610840838361128c565b6000610c9a81611123565b6001600160a01b038216610cc05760405162461bcd60e51b815260040161078e90611fe6565b6001546001600160a01b0383811691161415610cee5760405162461bcd60e51b815260040161078e90611fc2565b50600180546001600160a01b0319166001600160a01b0392909216919091179055565b6000806000610b4e600654610711565b6000610d2c81611123565b6001600160a01b038216610d525760405162461bcd60e51b815260040161078e90611fe6565b6009546001600160a01b0383811691161415610d805760405162461bcd60e51b815260040161078e90611fc2565b50600980546001600160a01b0319166001600160a01b0392909216919091179055565b600154600160a01b900460ff1615610df05760405162461bcd60e51b815260206004820152601060248201526f14185d5cd8589b194e881c185d5cd95960821b604482015260640161078e565b565b6007546001600160a01b0383811691161415610e24576009546108de906001600160a01b038481169133911684611713565b6001600160a01b038216610fa657600154600754600091610e52916001600160a01b03918216911684610a4e565b905080341015610e9d5760405162461bcd60e51b81526020600482015260166024820152751253959053125117d410565351539517d05353d5539560521b604482015260640161078e565b6009546040516000916001600160a01b03169083908381818185875af1925050503d8060008114610eea576040519150601f19603f3d011682016040523d82523d6000602084013e610eef565b606091505b5050905080610f325760405162461bcd60e51b815260206004820152600f60248201526e1514905394d1915497d19052531151608a1b604482015260640161078e565b81341115610fa0576000610f46348461176d565b60405190915033908290600081818185875af1925050503d8060008114610f89576040519150601f19603f3d011682016040523d82523d6000602084013e610f8e565b606091505b50508092505081610f9e57600080fd5b505b50505050565b6008546001600160a01b0383811691161415610ff657600754600090610fd79084906001600160a01b031684610a4e565b600954909150610840906001600160a01b038581169133911684611713565b60405162461bcd60e51b81526020600482015260166024820152751253959053125117d410565351539517d351551213d160521b604482015260640161078e565b600354604051636132c61360e11b815260009182916001600160a01b039091169063c2658c269061106e9087908790600401611f57565b602060405180830381600087803b15801561108857600080fd5b505af115801561109c573d6000803e3d6000fd5b505050506040513d601f19601f820116820180604052508101906110c09190611e81565b9050826040516110d09190611ec6565b604080519182900382206005548484526020840152916001600160a01b038716917f60579b770d8bde9b5f57c468ffb4acb023252b190304137b45b86b72f66a1940910160405180910390a39392505050565b6109968133611779565b6111378282610bdc565b6108de5760008281526002602090815260408083206001600160a01b03851684529091529020805460ff1916600117905561116f3390565b6001600160a01b0316816001600160a01b0316837f2f8788117e7eff1d82e926ec794901d17c78024a50270940304540a733656f0d60405160405180910390a45050565b6003546040516335313c2160e11b81526001600160a01b0383811660048301526000928392911690636a62784290602401602060405180830381600087803b1580156111fe57600080fd5b505af1158015611212573d6000803e3d6000fd5b505050506040513d601f19601f820116820180604052508101906112369190611e81565b9050826001600160a01b03167fe95dd4d9dab9ae5340f0d2038bccf2058c8a61640d34ccdd62be6a9e54cd69b88260055460405161127e929190918252602082015260400190565b60405180910390a292915050565b6112968282610bdc565b156108de5760008281526002602090815260408083206001600160a01b0385168085529252808320805460ff1916905551339285917ff6391f5c32d9c69d2a47ea670b442974b53935d1edc7fd64eb21e047a839171b9190a45050565b6112fb6117dd565b6001805460ff60a01b191690557f5db9ee0a495bf2e6ff9c91a7834c1ba4fdd244a5e8aa4e537bd38aeae4b073aa335b6040516001600160a01b03909116815260200160405180910390a1565b6001546060906001600160a01b038481169116148061137457506001546001600160a01b038381169116145b1561143e57604080516002808252606082018352600092602083019080368337019050506001549091506001600160a01b038581169116146113b657836113c3565b6001546001600160a01b03165b816000815181106113d6576113d661213b565b6001600160a01b0392831660209182029290920101526001548482169116146113ff578261140c565b6001546001600160a01b03165b8160018151811061141f5761141f61213b565b6001600160a01b039092166020928302919091019091015290506106e4565b604080516003808252608082019092526000916020820160608036833701905050905083816000815181106114755761147561213b565b6001600160a01b03928316602091820292909201015260018054835192169183919081106114a5576114a561213b565b60200260200101906001600160a01b031690816001600160a01b031681525050828160028151811061141f5761141f61213b565b6114e1610da3565b6001805460ff60a01b1916600160a01b1790557f62e78cea01bee320cd4e420270b5ea74000d11b0c9f74754ebdbfc544b05a25861132b3390565b600080600360009054906101000a90046001600160a01b03166001600160a01b0316630f2e68af6040518163ffffffff1660e01b815260040160206040518083038186803b15801561156d57600080fd5b505afa158015611581573d6000803e3d6000fd5b505050506040513d601f19601f820116820180604052508101906115a59190611e64565b60035460405163294cdf0d60e01b81526001600160a01b0387811660048301529293506000929091169063294cdf0d9060240160206040518083038186803b1580156115f057600080fd5b505afa158015611604573d6000803e3d6000fd5b505050506040513d601f19601f820116820180604052508101906116289190611e81565b90506000826001600160a01b031663ba7aef438787856040518463ffffffff1660e01b815260040161165c93929190611f7b565b602060405180830381600087803b15801561167657600080fd5b505af115801561168a573d6000803e3d6000fd5b505050506040513d601f19601f820116820180604052508101906116ae9190611e81565b9050846040516116be9190611ec6565b604080519182900382206006548484526020840152916001600160a01b038916917f32044e50415e96c0068a718b8df9993f4803b2e54518d56c52ef6438a91619aa910160405180910390a395945050505050565b604080516001600160a01b0385811660248301528416604482015260648082018490528251808303909101815260849091019091526020810180516001600160e01b03166323b872dd60e01b179052610fa090859061182d565b600061070a82846120cb565b6117838282610bdc565b6108de5761179b816001600160a01b031660146118ff565b6117a68360206118ff565b6040516020016117b7929190611ee2565b60408051601f198184030181529082905262461bcd60e51b825261078e91600401611faf565b600154600160a01b900460ff16610df05760405162461bcd60e51b815260206004820152601460248201527314185d5cd8589b194e881b9bdd081c185d5cd95960621b604482015260640161078e565b6000611882826040518060400160405280602081526020017f5361666545524332303a206c6f772d6c6576656c2063616c6c206661696c6564815250856001600160a01b0316611a9b9092919063ffffffff16565b80519091501561084057808060200190518101906118a09190611dcf565b6108405760405162461bcd60e51b815260206004820152602a60248201527f5361666545524332303a204552433230206f7065726174696f6e20646964206e6044820152691bdd081cdd58d8d9595960b21b606482015260840161078e565b6060600061190e8360026120ac565b611919906002612094565b67ffffffffffffffff81111561193157611931612151565b6040519080825280601f01601f19166020018201604052801561195b576020820181803683370190505b509050600360fc1b816000815181106119765761197661213b565b60200101906001600160f81b031916908160001a905350600f60fb1b816001815181106119a5576119a561213b565b60200101906001600160f81b031916908160001a90535060006119c98460026120ac565b6119d4906001612094565b90505b6001811115611a4c576f181899199a1a9b1b9c1cb0b131b232b360811b85600f1660108110611a0857611a0861213b565b1a60f81b828281518110611a1e57611a1e61213b565b60200101906001600160f81b031916908160001a90535060049490941c93611a458161210e565b90506119d7565b50831561070a5760405162461bcd60e51b815260206004820181905260248201527f537472696e67733a20686578206c656e67746820696e73756666696369656e74604482015260640161078e565b6060611aaa8484600085611ab2565b949350505050565b606082471015611b135760405162461bcd60e51b815260206004820152602660248201527f416464726573733a20696e73756666696369656e742062616c616e636520666f6044820152651c8818d85b1b60d21b606482015260840161078e565b6001600160a01b0385163b611b6a5760405162461bcd60e51b815260206004820152601d60248201527f416464726573733a2063616c6c20746f206e6f6e2d636f6e7472616374000000604482015260640161078e565b600080866001600160a01b03168587604051611b869190611ec6565b60006040518083038185875af1925050503d8060008114611bc3576040519150601f19603f3d011682016040523d82523d6000602084013e611bc8565b606091505b5091509150611bd8828286611be3565b979650505050505050565b60608315611bf257508161070a565b825115611c025782518084602001fd5b8160405162461bcd60e51b815260040161078e9190611faf565b600060208284031215611c2e57600080fd5b813561070a81612167565b600080600060608486031215611c4e57600080fd5b8335611c5981612167565b92506020840135611c6981612167565b929592945050506040919091013590565b60008060408385031215611c8d57600080fd5b8235611c9881612167565b915060208381013567ffffffffffffffff80821115611cb657600080fd5b818601915086601f830112611cca57600080fd5b813581811115611cdc57611cdc612151565b611cee601f8201601f19168501612063565b91508082528784828501011115611d0457600080fd5b80848401858401376000848284010152508093505050509250929050565b60006020808385031215611d3557600080fd5b825167ffffffffffffffff80821115611d4d57600080fd5b818501915085601f830112611d6157600080fd5b815181811115611d7357611d73612151565b8060051b9150611d84848301612063565b8181528481019084860184860187018a1015611d9f57600080fd5b600095505b83861015611dc2578051835260019590950194918601918601611da4565b5098975050505050505050565b600060208284031215611de157600080fd5b8151801515811461070a57600080fd5b600060208284031215611e0357600080fd5b5035919050565b60008060408385031215611e1d57600080fd5b823591506020830135611e2f81612167565b809150509250929050565b600060208284031215611e4c57600080fd5b81356001600160e01b03198116811461070a57600080fd5b600060208284031215611e7657600080fd5b815161070a81612167565b600060208284031215611e9357600080fd5b5051919050565b60008151808452611eb28160208601602086016120e2565b601f01601f19169290920160200192915050565b60008251611ed88184602087016120e2565b9190910192915050565b7f416363657373436f6e74726f6c3a206163636f756e7420000000000000000000815260008351611f1a8160178501602088016120e2565b7001034b99036b4b9b9b4b733903937b6329607d1b6017918401918201528351611f4b8160288401602088016120e2565b01602801949350505050565b6001600160a01b0383168152604060208201819052600090611aaa90830184611e9a565b6001600160a01b0384168152606060208201819052600090611f9f90830185611e9a565b9050826040830152949350505050565b60208152600061070a6020830184611e9a565b6020808252600a908201526953414d455f56414c554560b01b604082015260600190565b6020808252600c908201526b5a45524f5f4144445245535360a01b604082015260600190565b6000604082018483526020604081850152818551808452606086019150828701935060005b818110156120565784516001600160a01b031683529383019391830191600101612031565b5090979650505050505050565b604051601f8201601f1916810167ffffffffffffffff8111828210171561208c5761208c612151565b604052919050565b600082198211156120a7576120a7612125565b500190565b60008160001904831182151516156120c6576120c6612125565b500290565b6000828210156120dd576120dd612125565b500390565b60005b838110156120fd5781810151838201526020016120e5565b83811115610fa05750506000910152565b60008161211d5761211d612125565b506000190190565b634e487b7160e01b600052601160045260246000fd5b634e487b7160e01b600052603260045260246000fd5b634e487b7160e01b600052604160045260246000fd5b6001600160a01b038116811461099657600080fdfea2646970667358221220faa98336a82e0f0136c5d729794486818f854f96284002d00b0930240587d08d64736f6c63430008070033",
  "devdoc": {
    "author": "Masa Finance",
    "details": "From this smart contract we can mint new Soulbound Identities and Soul Name NFTs. This minting can be done paying a fee in ETH, USDC or CORN",
    "kind": "dev",
    "methods": {
      "_getSwapAmounts(uint256)": {
        "details": "Returns all current pricing and amount informations for a purchase",
        "returns": {
          "priceInETH": "Current pric in native token (ETH)",
          "priceInStableCoin": "Current price in stable coin",
          "priceInUtilityToken": "Current price in utility token ($CORN)"
        }
      },
      "constructor": {
        "details": "Creates a new Soul Factory, that has the role to minting new Soulbound Identities and Soul Name NFTs, paying a fee",
        "params": {
          "_mintingIdentityAndNamePrice": "Price of the identity and name minting in stable coin",
          "_mintingIdentityPrice": "Price of the identity minting in stable coin",
          "_mintingNamePrice": "Price of the name minting in stable coin",
          "_reserveWallet": "Wallet that will receive the fee",
          "_soulBoundIdentity": "Address of the Soulbound identity contract",
          "_stableCoin": "Stable coin to pay the fee in (USDC)",
          "_swapRouter": "Swap router address",
          "_utilityToken": "Utility token to pay the fee in ($CORN)",
          "_wrappedNativeToken": "Wrapped native token address",
          "owner": "Owner of the smart contract"
        }
      },
      "getRoleAdmin(bytes32)": {
        "details": "Returns the admin role that controls `role`. See {grantRole} and {revokeRole}. To change a role's admin, use {_setRoleAdmin}."
      },
      "grantRole(bytes32,address)": {
        "details": "Grants `role` to `account`. If `account` had not been already granted `role`, emits a {RoleGranted} event. Requirements: - the caller must have ``role``'s admin role. May emit a {RoleGranted} event."
      },
      "hasRole(bytes32,address)": {
        "details": "Returns `true` if `account` has been granted `role`."
      },
      "pause()": {
        "details": "Sets an emergency stop mechanism that can be triggered by an authorized account."
      },
      "paused()": {
        "details": "Returns true if the contract is paused, and false otherwise."
      },
      "purchaseIdentity(address)": {
        "details": "This function allows the purchase of a soulbound identity using stable coin (USDC), native token (ETH) or utility token ($CORN)",
        "params": {
          "paymentMethod": "Address of token that user want to pay"
        },
        "returns": {
          "_0": "TokenId of the new soulbound identity"
        }
      },
      "purchaseIdentityAndName(address,string)": {
        "details": "This function allows the purchase of a soulbound identity and name using stable coin (USDC), native token (ETH) or utility token ($CORN)",
        "params": {
          "name": "Name of the new soul name",
          "paymentMethod": "Address of token that user want to pay"
        },
        "returns": {
          "_0": "TokenId of the new soulbound identity"
        }
      },
      "purchaseIdentityAndNameInfo()": {
        "details": "Returns all current pricing and amount informations for a purchase",
        "returns": {
          "priceInETH": "Current price of the identity and name minting in native token (ETH)",
          "priceInStableCoin": "Current price of the identity and name minting in stable coin",
          "priceInUtilityToken": "Current price of the identity and nameminting in utility token ($CORN)"
        }
      },
      "purchaseIdentityInfo()": {
        "details": "Returns all current pricing and amount informations for a purchase",
        "returns": {
          "priceInETH": "Current price of the identity minting in native token (ETH)",
          "priceInStableCoin": "Current price of the identity minting in stable coin",
          "priceInUtilityToken": "Current price of the identity minting in utility token ($CORN)"
        }
      },
      "purchaseName(address,string)": {
        "details": "This function allows the purchase of a soul name using stable coin (USDC), native token (ETH) or utility token ($CORN)",
        "params": {
          "name": "Name of the new soul name",
          "paymentMethod": "Address of token that user want to pay"
        },
        "returns": {
          "_0": "TokenId of the new sou name"
        }
      },
      "purchaseNameInfo()": {
        "details": "Returns all current pricing and amount informations for a purchase",
        "returns": {
          "priceInETH": "Current price of the name minting in native token (ETH)",
          "priceInStableCoin": "Current price of the name minting in stable coin",
          "priceInUtilityToken": "Current price of the name minting in utility token ($CORN)"
        }
      },
      "renounceRole(bytes32,address)": {
        "details": "Revokes `role` from the calling account. Roles are often managed via {grantRole} and {revokeRole}: this function's purpose is to provide a mechanism for accounts to lose their privileges if they are compromised (such as when a trusted device is misplaced). If the calling account had been revoked `role`, emits a {RoleRevoked} event. Requirements: - the caller must be `account`. May emit a {RoleRevoked} event."
      },
      "revokeRole(bytes32,address)": {
        "details": "Revokes `role` from `account`. If `account` had been granted `role`, emits a {RoleRevoked} event. Requirements: - the caller must have ``role``'s admin role. May emit a {RoleRevoked} event."
      },
      "setMintingIdentityAndNamePrice(uint256)": {
        "details": "The caller must have the admin role to call this function",
        "params": {
          "_mintingIdentityAndNamePrice": "New price of the identity and name minting in stable coin"
        }
      },
      "setMintingIdentityPrice(uint256)": {
        "details": "The caller must have the admin role to call this function",
        "params": {
          "_mintingIdentityPrice": "New price of the identity minting in stable coin"
        }
      },
      "setMintingNamePrice(uint256)": {
        "details": "The caller must have the admin role to call this function",
        "params": {
          "_mintingNamePrice": "New price of the name minting in stable coin"
        }
      },
      "setReserveWallet(address)": {
        "details": "Let change the reserve walled. It can be triggered by an authorized account.",
        "params": {
          "_reserveWallet": "New reserve wallet"
        }
      },
      "setSoulboundIdentity(address)": {
        "details": "The caller must have the admin role to call this function",
        "params": {
          "_soulboundIdentity": "New SoulboundIdentity contract address"
        }
      },
      "setStableCoin(address)": {
        "details": "The caller must have the admin role to call this function",
        "params": {
          "_stableCoin": "New stable coin to pay the fee in"
        }
      },
      "setSwapRouter(address)": {
        "details": "The caller must have the admin role to call this function",
        "params": {
          "_swapRouter": "New swap router address"
        }
      },
      "setUtilityToken(address)": {
        "details": "The caller must have the admin role to call this function",
        "params": {
          "_utilityToken": "New utility token to pay the fee in"
        }
      },
      "setWrappedNativeToken(address)": {
        "details": "The caller must have the admin role to call this function",
        "params": {
          "_wrappedNativeToken": "New wrapped native token address"
        }
      },
      "supportsInterface(bytes4)": {
        "details": "See {IERC165-supportsInterface}."
      },
      "unpause()": {
        "details": "Unsets an emergency stop mechanism. It can be triggered by an authorized account."
      }
    },
    "title": "Soul Factory",
    "version": 1
  },
  "userdoc": {
    "kind": "user",
    "methods": {
      "_getSwapAmounts(uint256)": {
        "notice": "Returns the price of minting"
      },
      "constructor": {
        "notice": "Creates a new Soul Factory"
      },
      "pause()": {
        "notice": "Pauses the operations in the smart contract"
      },
      "purchaseIdentity(address)": {
        "notice": "Mints a new Soulbound Identity purchasing it"
      },
      "purchaseIdentityAndName(address,string)": {
        "notice": "Mints a new Soulbound Identity and Name purchasing it"
      },
      "purchaseIdentityAndNameInfo()": {
        "notice": "Returns the price of the identity and name minting"
      },
      "purchaseIdentityInfo()": {
        "notice": "Returns the price of the identity minting"
      },
      "purchaseName(address,string)": {
        "notice": "Mints a new Soul Name purchasing it"
      },
      "purchaseNameInfo()": {
        "notice": "Returns the price of the name minting"
      },
      "setMintingIdentityAndNamePrice(uint256)": {
        "notice": "Sets the price of the identity and name minting in stable coin"
      },
      "setMintingIdentityPrice(uint256)": {
        "notice": "Sets the price of the identity minting in stable coin"
      },
      "setMintingNamePrice(uint256)": {
        "notice": "Sets the price of the name minting in stable coin"
      },
      "setReserveWallet(address)": {
        "notice": "Set the reserve wallet"
      },
      "setSoulboundIdentity(address)": {
        "notice": "Sets the SoulboundIdentity contract address linked to this factory"
      },
      "setStableCoin(address)": {
        "notice": "Sets the stable coin to pay the fee in (USDC)"
      },
      "setSwapRouter(address)": {
        "notice": "Sets the swap router address"
      },
      "setUtilityToken(address)": {
        "notice": "Sets the utility token to pay the fee in ($CORN)"
      },
      "setWrappedNativeToken(address)": {
        "notice": "Sets the wrapped native token address"
      },
      "unpause()": {
        "notice": "Unpauses the operations in the smart contract"
      }
    },
    "notice": "Soul Factory, that can mint new Soulbound Identities and Soul Name NFTs, paying a fee",
    "version": 1
  },
  "storageLayout": {
    "storage": [
      {
        "astId": 5930,
        "contract": "contracts/SoulFactory.sol:SoulFactory",
        "label": "swapRouter",
        "offset": 0,
        "slot": "0",
        "type": "t_address"
      },
      {
        "astId": 5932,
        "contract": "contracts/SoulFactory.sol:SoulFactory",
        "label": "wrappedNativeToken",
        "offset": 0,
        "slot": "1",
        "type": "t_address"
      },
      {
        "astId": 523,
        "contract": "contracts/SoulFactory.sol:SoulFactory",
        "label": "_paused",
        "offset": 20,
        "slot": "1",
        "type": "t_bool"
      },
      {
        "astId": 24,
        "contract": "contracts/SoulFactory.sol:SoulFactory",
        "label": "_roles",
        "offset": 0,
        "slot": "2",
        "type": "t_mapping(t_bytes32,t_struct(RoleData)19_storage)"
      },
      {
        "astId": 4090,
        "contract": "contracts/SoulFactory.sol:SoulFactory",
        "label": "soulboundIdentity",
        "offset": 0,
        "slot": "3",
        "type": "t_contract(SoulboundIdentity)5924"
      },
      {
        "astId": 4092,
        "contract": "contracts/SoulFactory.sol:SoulFactory",
        "label": "mintingIdentityAndNamePrice",
        "offset": 0,
        "slot": "4",
        "type": "t_uint256"
      },
      {
        "astId": 4094,
        "contract": "contracts/SoulFactory.sol:SoulFactory",
        "label": "mintingIdentityPrice",
        "offset": 0,
        "slot": "5",
        "type": "t_uint256"
      },
      {
        "astId": 4096,
        "contract": "contracts/SoulFactory.sol:SoulFactory",
        "label": "mintingNamePrice",
        "offset": 0,
        "slot": "6",
        "type": "t_uint256"
      },
      {
        "astId": 4098,
        "contract": "contracts/SoulFactory.sol:SoulFactory",
        "label": "stableCoin",
        "offset": 0,
        "slot": "7",
        "type": "t_address"
      },
      {
        "astId": 4100,
        "contract": "contracts/SoulFactory.sol:SoulFactory",
        "label": "utilityToken",
        "offset": 0,
        "slot": "8",
        "type": "t_address"
      },
      {
        "astId": 4102,
        "contract": "contracts/SoulFactory.sol:SoulFactory",
        "label": "reserveWallet",
        "offset": 0,
        "slot": "9",
        "type": "t_address"
      }
    ],
    "types": {
      "t_address": {
        "encoding": "inplace",
        "label": "address",
        "numberOfBytes": "20"
      },
      "t_bool": {
        "encoding": "inplace",
        "label": "bool",
        "numberOfBytes": "1"
      },
      "t_bytes32": {
        "encoding": "inplace",
        "label": "bytes32",
        "numberOfBytes": "32"
      },
      "t_contract(SoulboundIdentity)5924": {
        "encoding": "inplace",
        "label": "contract SoulboundIdentity",
        "numberOfBytes": "20"
      },
      "t_mapping(t_address,t_bool)": {
        "encoding": "mapping",
        "key": "t_address",
        "label": "mapping(address => bool)",
        "numberOfBytes": "32",
        "value": "t_bool"
      },
      "t_mapping(t_bytes32,t_struct(RoleData)19_storage)": {
        "encoding": "mapping",
        "key": "t_bytes32",
        "label": "mapping(bytes32 => struct AccessControl.RoleData)",
        "numberOfBytes": "32",
        "value": "t_struct(RoleData)19_storage"
      },
      "t_struct(RoleData)19_storage": {
        "encoding": "inplace",
        "label": "struct AccessControl.RoleData",
        "members": [
          {
            "astId": 16,
            "contract": "contracts/SoulFactory.sol:SoulFactory",
            "label": "members",
            "offset": 0,
            "slot": "0",
            "type": "t_mapping(t_address,t_bool)"
          },
          {
            "astId": 18,
            "contract": "contracts/SoulFactory.sol:SoulFactory",
            "label": "adminRole",
            "offset": 0,
            "slot": "1",
            "type": "t_bytes32"
          }
        ],
        "numberOfBytes": "64"
      },
      "t_uint256": {
        "encoding": "inplace",
        "label": "uint256",
        "numberOfBytes": "32"
      }
    }
  }
}