{
  "address": "0xD25eAfD3F326D5f00568431d4d0681F1Dd67485C",
  "abi": [
    {
      "inputs": [
        {
          "internalType": "address",
          "name": "admin",
          "type": "address"
        },
        {
          "internalType": "string",
          "name": "name",
          "type": "string"
        },
        {
          "internalType": "string",
          "name": "symbol",
          "type": "string"
        },
        {
          "internalType": "string",
          "name": "baseTokenURI",
          "type": "string"
        }
      ],
      "stateMutability": "nonpayable",
      "type": "constructor"
    },
    {
      "inputs": [
        {
          "internalType": "address",
          "name": "to",
          "type": "address"
        }
      ],
      "name": "IdentityAlreadyCreated",
      "type": "error"
    },
    {
      "inputs": [],
      "name": "SameValue",
      "type": "error"
    },
    {
      "inputs": [],
      "name": "SoulNameContractNotSet",
      "type": "error"
    },
    {
      "inputs": [],
      "name": "ZeroAddress",
      "type": "error"
    },
    {
      "anonymous": false,
      "inputs": [
        {
          "indexed": true,
          "internalType": "address",
          "name": "_owner",
          "type": "address"
        },
        {
          "indexed": true,
          "internalType": "uint256",
          "name": "_tokenId",
          "type": "uint256"
        }
      ],
      "name": "Burn",
      "type": "event"
    },
    {
      "anonymous": false,
      "inputs": [
        {
          "indexed": true,
          "internalType": "address",
          "name": "_owner",
          "type": "address"
        },
        {
          "indexed": true,
          "internalType": "uint256",
          "name": "_tokenId",
          "type": "uint256"
        }
      ],
      "name": "Mint",
      "type": "event"
    },
    {
      "anonymous": false,
      "inputs": [
        {
          "indexed": true,
          "internalType": "bytes32",
          "name": "role",
          "type": "bytes32"
        },
        {
          "indexed": true,
          "internalType": "bytes32",
          "name": "previousAdminRole",
          "type": "bytes32"
        },
        {
          "indexed": true,
          "internalType": "bytes32",
          "name": "newAdminRole",
          "type": "bytes32"
        }
      ],
      "name": "RoleAdminChanged",
      "type": "event"
    },
    {
      "anonymous": false,
      "inputs": [
        {
          "indexed": true,
          "internalType": "bytes32",
          "name": "role",
          "type": "bytes32"
        },
        {
          "indexed": true,
          "internalType": "address",
          "name": "account",
          "type": "address"
        },
        {
          "indexed": true,
          "internalType": "address",
          "name": "sender",
          "type": "address"
        }
      ],
      "name": "RoleGranted",
      "type": "event"
    },
    {
      "anonymous": false,
      "inputs": [
        {
          "indexed": true,
          "internalType": "bytes32",
          "name": "role",
          "type": "bytes32"
        },
        {
          "indexed": true,
          "internalType": "address",
          "name": "account",
          "type": "address"
        },
        {
          "indexed": true,
          "internalType": "address",
          "name": "sender",
          "type": "address"
        }
      ],
      "name": "RoleRevoked",
      "type": "event"
    },
    {
      "inputs": [],
      "name": "DEFAULT_ADMIN_ROLE",
      "outputs": [
        {
          "internalType": "bytes32",
          "name": "",
          "type": "bytes32"
        }
      ],
      "stateMutability": "view",
      "type": "function"
    },
    {
      "inputs": [],
      "name": "MINTER_ROLE",
      "outputs": [
        {
          "internalType": "bytes32",
          "name": "",
          "type": "bytes32"
        }
      ],
      "stateMutability": "view",
      "type": "function"
    },
    {
      "inputs": [],
      "name": "addLinkPrice",
      "outputs": [
        {
          "internalType": "uint256",
          "name": "",
          "type": "uint256"
        }
      ],
      "stateMutability": "view",
      "type": "function"
    },
    {
      "inputs": [],
      "name": "addLinkPriceMASA",
      "outputs": [
        {
          "internalType": "uint256",
          "name": "",
          "type": "uint256"
        }
      ],
      "stateMutability": "view",
      "type": "function"
    },
    {
      "inputs": [
        {
          "internalType": "address",
          "name": "owner",
          "type": "address"
        }
      ],
      "name": "balanceOf",
      "outputs": [
        {
          "internalType": "uint256",
          "name": "",
          "type": "uint256"
        }
      ],
      "stateMutability": "view",
      "type": "function"
    },
    {
      "inputs": [
        {
          "internalType": "uint256",
          "name": "tokenId",
          "type": "uint256"
        }
      ],
      "name": "burn",
      "outputs": [],
      "stateMutability": "nonpayable",
      "type": "function"
    },
    {
      "inputs": [
        {
          "internalType": "uint256",
          "name": "tokenId",
          "type": "uint256"
        }
      ],
      "name": "exists",
      "outputs": [
        {
          "internalType": "bool",
          "name": "",
          "type": "bool"
        }
      ],
      "stateMutability": "view",
      "type": "function"
    },
    {
      "inputs": [],
      "name": "getExtension",
      "outputs": [
        {
          "internalType": "string",
          "name": "",
          "type": "string"
        }
      ],
      "stateMutability": "view",
      "type": "function"
    },
    {
      "inputs": [
        {
          "internalType": "bytes32",
          "name": "role",
          "type": "bytes32"
        }
      ],
      "name": "getRoleAdmin",
      "outputs": [
        {
          "internalType": "bytes32",
          "name": "",
          "type": "bytes32"
        }
      ],
      "stateMutability": "view",
      "type": "function"
    },
    {
      "inputs": [],
      "name": "getSoulName",
      "outputs": [
        {
          "internalType": "contract ISoulName",
          "name": "",
          "type": "address"
        }
      ],
      "stateMutability": "view",
      "type": "function"
    },
    {
      "inputs": [
        {
          "internalType": "uint256",
          "name": "tokenId",
          "type": "uint256"
        }
      ],
      "name": "getSoulNames",
      "outputs": [
        {
          "internalType": "string[]",
          "name": "sbtNames",
          "type": "string[]"
        }
      ],
      "stateMutability": "view",
      "type": "function"
    },
    {
      "inputs": [
        {
          "internalType": "address",
          "name": "owner",
          "type": "address"
        }
      ],
      "name": "getSoulNames",
      "outputs": [
        {
          "internalType": "string[]",
          "name": "sbtNames",
          "type": "string[]"
        }
      ],
      "stateMutability": "view",
      "type": "function"
    },
    {
      "inputs": [
        {
          "internalType": "string",
          "name": "name",
          "type": "string"
        }
      ],
      "name": "getTokenData",
      "outputs": [
        {
          "internalType": "string",
          "name": "sbtName",
          "type": "string"
        },
        {
          "internalType": "bool",
          "name": "linked",
          "type": "bool"
        },
        {
          "internalType": "uint256",
          "name": "identityId",
          "type": "uint256"
        },
        {
          "internalType": "uint256",
          "name": "tokenId",
          "type": "uint256"
        },
        {
          "internalType": "uint256",
          "name": "expirationDate",
          "type": "uint256"
        },
        {
          "internalType": "bool",
          "name": "active",
          "type": "bool"
        }
      ],
      "stateMutability": "view",
      "type": "function"
    },
    {
      "inputs": [
        {
          "internalType": "bytes32",
          "name": "role",
          "type": "bytes32"
        },
        {
          "internalType": "address",
          "name": "account",
          "type": "address"
        }
      ],
      "name": "grantRole",
      "outputs": [],
      "stateMutability": "nonpayable",
      "type": "function"
    },
    {
      "inputs": [
        {
          "internalType": "bytes32",
          "name": "role",
          "type": "bytes32"
        },
        {
          "internalType": "address",
          "name": "account",
          "type": "address"
        }
      ],
      "name": "hasRole",
      "outputs": [
        {
          "internalType": "bool",
          "name": "",
          "type": "bool"
        }
      ],
      "stateMutability": "view",
      "type": "function"
    },
    {
      "inputs": [
        {
          "internalType": "string",
          "name": "name",
          "type": "string"
        }
      ],
      "name": "isAvailable",
      "outputs": [
        {
          "internalType": "bool",
          "name": "available",
          "type": "bool"
        }
      ],
      "stateMutability": "view",
      "type": "function"
    },
    {
      "inputs": [
        {
          "internalType": "address",
          "name": "to",
          "type": "address"
        }
      ],
      "name": "mint",
      "outputs": [
        {
          "internalType": "uint256",
          "name": "",
          "type": "uint256"
        }
      ],
      "stateMutability": "nonpayable",
      "type": "function"
    },
    {
      "inputs": [
        {
          "internalType": "address",
          "name": "to",
          "type": "address"
        },
        {
          "internalType": "string",
          "name": "name",
          "type": "string"
        },
        {
          "internalType": "uint256",
          "name": "yearsPeriod",
          "type": "uint256"
        },
        {
          "internalType": "string",
          "name": "_tokenURI",
          "type": "string"
        }
      ],
      "name": "mintIdentityWithName",
      "outputs": [
        {
          "internalType": "uint256",
          "name": "",
          "type": "uint256"
        }
      ],
      "stateMutability": "nonpayable",
      "type": "function"
    },
    {
      "inputs": [],
      "name": "name",
      "outputs": [
        {
          "internalType": "string",
          "name": "",
          "type": "string"
        }
      ],
      "stateMutability": "view",
      "type": "function"
    },
    {
      "inputs": [
        {
          "internalType": "uint256",
          "name": "tokenId",
          "type": "uint256"
        }
      ],
      "name": "ownerOf",
      "outputs": [
        {
          "internalType": "address",
          "name": "",
          "type": "address"
        }
      ],
      "stateMutability": "view",
      "type": "function"
    },
    {
      "inputs": [
        {
          "internalType": "string",
          "name": "name",
          "type": "string"
        }
      ],
      "name": "ownerOf",
      "outputs": [
        {
          "internalType": "address",
          "name": "",
          "type": "address"
        }
      ],
      "stateMutability": "view",
      "type": "function"
    },
    {
      "inputs": [],
      "name": "queryLinkPrice",
      "outputs": [
        {
          "internalType": "uint256",
          "name": "",
          "type": "uint256"
        }
      ],
      "stateMutability": "view",
      "type": "function"
    },
    {
      "inputs": [],
      "name": "queryLinkPriceMASA",
      "outputs": [
        {
          "internalType": "uint256",
          "name": "",
          "type": "uint256"
        }
      ],
      "stateMutability": "view",
      "type": "function"
    },
    {
      "inputs": [
        {
          "internalType": "bytes32",
          "name": "role",
          "type": "bytes32"
        },
        {
          "internalType": "address",
          "name": "account",
          "type": "address"
        }
      ],
      "name": "renounceRole",
      "outputs": [],
      "stateMutability": "nonpayable",
      "type": "function"
    },
    {
      "inputs": [
        {
          "internalType": "bytes32",
          "name": "role",
          "type": "bytes32"
        },
        {
          "internalType": "address",
          "name": "account",
          "type": "address"
        }
      ],
      "name": "revokeRole",
      "outputs": [],
      "stateMutability": "nonpayable",
      "type": "function"
    },
    {
      "inputs": [
        {
          "internalType": "uint256",
          "name": "_addLinkPrice",
          "type": "uint256"
        }
      ],
      "name": "setAddLinkPrice",
      "outputs": [],
      "stateMutability": "nonpayable",
      "type": "function"
    },
    {
      "inputs": [
        {
          "internalType": "uint256",
          "name": "_addLinkPriceMASA",
          "type": "uint256"
        }
      ],
      "name": "setAddLinkPriceMASA",
      "outputs": [],
      "stateMutability": "nonpayable",
      "type": "function"
    },
    {
      "inputs": [
        {
          "internalType": "uint256",
          "name": "_queryLinkPrice",
          "type": "uint256"
        }
      ],
      "name": "setQueryLinkPrice",
      "outputs": [],
      "stateMutability": "nonpayable",
      "type": "function"
    },
    {
      "inputs": [
        {
          "internalType": "uint256",
          "name": "_queryLinkPriceMASA",
          "type": "uint256"
        }
      ],
      "name": "setQueryLinkPriceMASA",
      "outputs": [],
      "stateMutability": "nonpayable",
      "type": "function"
    },
    {
      "inputs": [
        {
          "internalType": "contract ISoulName",
          "name": "_soulName",
          "type": "address"
        }
      ],
      "name": "setSoulName",
      "outputs": [],
      "stateMutability": "nonpayable",
      "type": "function"
    },
    {
      "inputs": [],
      "name": "soulName",
      "outputs": [
        {
          "internalType": "contract ISoulName",
          "name": "",
          "type": "address"
        }
      ],
      "stateMutability": "view",
      "type": "function"
    },
    {
      "inputs": [
        {
          "internalType": "bytes4",
          "name": "interfaceId",
          "type": "bytes4"
        }
      ],
      "name": "supportsInterface",
      "outputs": [
        {
          "internalType": "bool",
          "name": "",
          "type": "bool"
        }
      ],
      "stateMutability": "view",
      "type": "function"
    },
    {
      "inputs": [],
      "name": "symbol",
      "outputs": [
        {
          "internalType": "string",
          "name": "",
          "type": "string"
        }
      ],
      "stateMutability": "view",
      "type": "function"
    },
    {
      "inputs": [
        {
          "internalType": "uint256",
          "name": "index",
          "type": "uint256"
        }
      ],
      "name": "tokenByIndex",
      "outputs": [
        {
          "internalType": "uint256",
          "name": "",
          "type": "uint256"
        }
      ],
      "stateMutability": "view",
      "type": "function"
    },
    {
      "inputs": [
        {
          "internalType": "address",
          "name": "owner",
          "type": "address"
        }
      ],
      "name": "tokenOfOwner",
      "outputs": [
        {
          "internalType": "uint256",
          "name": "",
          "type": "uint256"
        }
      ],
      "stateMutability": "view",
      "type": "function"
    },
    {
      "inputs": [
        {
          "internalType": "address",
          "name": "owner",
          "type": "address"
        },
        {
          "internalType": "uint256",
          "name": "index",
          "type": "uint256"
        }
      ],
      "name": "tokenOfOwnerByIndex",
      "outputs": [
        {
          "internalType": "uint256",
          "name": "",
          "type": "uint256"
        }
      ],
      "stateMutability": "view",
      "type": "function"
    },
    {
      "inputs": [
        {
          "internalType": "string",
          "name": "name",
          "type": "string"
        }
      ],
      "name": "tokenURI",
      "outputs": [
        {
          "internalType": "string",
          "name": "",
          "type": "string"
        }
      ],
      "stateMutability": "view",
      "type": "function"
    },
    {
      "inputs": [
        {
          "internalType": "address",
          "name": "owner",
          "type": "address"
        }
      ],
      "name": "tokenURI",
      "outputs": [
        {
          "internalType": "string",
          "name": "",
          "type": "string"
        }
      ],
      "stateMutability": "view",
      "type": "function"
    },
    {
      "inputs": [
        {
          "internalType": "uint256",
          "name": "tokenId",
          "type": "uint256"
        }
      ],
      "name": "tokenURI",
      "outputs": [
        {
          "internalType": "string",
          "name": "",
          "type": "string"
        }
      ],
      "stateMutability": "view",
      "type": "function"
    },
    {
      "inputs": [],
      "name": "totalSupply",
      "outputs": [
        {
          "internalType": "uint256",
          "name": "",
          "type": "uint256"
        }
      ],
      "stateMutability": "view",
      "type": "function"
    }
  ],
  "transactionHash": "0x927e9619111a42ba7d676d58f37a662448d485bc24344159ef5c2e8692270034",
  "args": [
    "0x46c9cdA3F83C5c13C767A07b6E80aEd302E40B28",
    "Celo Prosperity Passport",
    "CPP",
    "https://beta.metadata.masa.finance/v1.0/identity/alfajores/"
  ],
  "numDeployments": 3,
  "solcInputHash": "c69593bf5a941791b341d00e47841316",
  "bytecode": "0x60806040523480156200001157600080fd5b5060405162002a4338038062002a438339810160408190526200003491620002c2565b8383838383838383828281600090805190602001906200005692919062000196565b5080516200006c90600190602084019062000196565b506200007e91506000905085620000de565b80516200009390600990602084019062000196565b5050505050620000ca7f9f2df0fed2c77648de5860a4cc508cd0818c85b8b8a1ab4ceeef8d981c8956a685620000de60201b60201c565b50506001600f5550620004cb945050505050565b620000ea828262000169565b620001655760008281526008602090815260408083206001600160a01b03851684529091529020805460ff19166001179055620001243390565b6001600160a01b0316816001600160a01b0316837f2f8788117e7eff1d82e926ec794901d17c78024a50270940304540a733656f0d60405160405180910390a45b5050565b60008281526008602090815260408083206001600160a01b038516845290915290205460ff165b92915050565b828054620001a49062000418565b90600052602060002090601f016020900481019282620001c8576000855562000213565b82601f10620001e357805160ff191683800117855562000213565b8280016001018555821562000213579182015b8281111562000213578251825591602001919060010190620001f6565b506200022192915062000225565b5090565b5b8082111562000221576000815560010162000226565b6000620002536200024d84620003a3565b62000384565b905082815260208101848484011115620002705762000270600080fd5b6200027d848285620003e5565b509392505050565b80516200019081620004b1565b600082601f830112620002a857620002a8600080fd5b8151620002ba8482602086016200023c565b949350505050565b60008060008060808587031215620002dd57620002dd600080fd5b6000620002eb878762000285565b94505060208501516001600160401b038111156200030c576200030c600080fd5b6200031a8782880162000292565b93505060408501516001600160401b038111156200033b576200033b600080fd5b620003498782880162000292565b92505060608501516001600160401b038111156200036a576200036a600080fd5b620003788782880162000292565b91505092959194509250565b60006200039060405190565b90506200039e828262000449565b919050565b60006001600160401b03821115620003bf57620003bf62000491565b620003ca82620004a7565b60200192915050565b60006001600160a01b03821662000190565b60005b8381101562000402578181015183820152602001620003e8565b8381111562000412576000848401525b50505050565b6002810460018216806200042d57607f821691505b602082108114156200044357620004436200047b565b50919050565b6200045482620004a7565b81018181106001600160401b038211171562000474576200047462000491565b6040525050565b634e487b7160e01b600052602260045260246000fd5b634e487b7160e01b600052604160045260246000fd5b601f01601f191690565b620004bc81620003d3565b8114620004c857600080fd5b50565b61256880620004db6000396000f3fe608060405234801561001057600080fd5b50600436106101d85760003560e01c806301ffc9a7146101dd57806306fdde03146102065780630f2e68af1461021b57806313150b481461023b57806318160ddd146102515780631f37c12414610259578063248a9ca314610262578063289c686b14610275578063294cdf0d1461028a5780632f2ff15d1461029d5780632f745c59146102b057806336568abe146102c35780633c72ae70146102d657806342966c68146102e957806346b2b087146102fc5780634cf12d26146103215780634f558e79146103345780634f6ccce7146103475780635141453e1461035a5780636352211e1461036d5780636a6278421461038d57806370a08231146103a0578063776ce6a1146103b3578063776d1a54146103bb5780637db8cb68146103c45780637e669891146103d757806391d14854146103f7578063920ffa261461040a57806393702f331461041d57806395d89b4114610430578063965306aa14610438578063a217fddf1461044b578063b507d48114610453578063b79636b614610464578063b97d6b2314610477578063c87b56dd14610480578063d539139314610493578063d547741f146104a8578063ee7a9ec5146104bb578063fd48ac83146104ce575b600080fd5b6101f06101eb366004611c08565b6104e1565b6040516101fd91906121a4565b60405180910390f35b61020e6104f2565b6040516101fd91906121ce565b60105461022e906001600160a01b031681565b6040516101fd91906121c0565b610244600d5481565b6040516101fd91906121b2565b600654610244565b610244600a5481565b610244610270366004611bb4565b610584565b610288610283366004611bb4565b610599565b005b610244610298366004611a63565b6105cd565b6102886102ab366004611bd5565b6105da565b6102446102be366004611b1c565b6105fb565b6102886102d1366004611bd5565b610656565b6102886102e4366004611bb4565b61068c565b6102886102f7366004611bb4565b6106c0565b61030f61030a366004611c4a565b6106f2565b6040516101fd969594939291906121df565b61020e61032f366004611c4a565b6107c1565b6101f0610342366004611bb4565b61088b565b610244610355366004611bb4565b610896565b610244610368366004611a84565b6108e4565b61038061037b366004611bb4565b6109c1565b6040516101fd919061213a565b61024461039b366004611a63565b6109cc565b6102446103ae366004611a63565b610a02565b61020e610a46565b610244600b5481565b6102886103d2366004611bb4565b610acc565b6103ea6103e5366004611bb4565b610b00565b6040516101fd9190612193565b6101f0610405366004611bd5565b610bb0565b610380610418366004611c4a565b610bdb565b61020e61042b366004611a63565b610c9c565b61020e610cb4565b6101f0610446366004611c4a565b610cc3565b610244600081565b6010546001600160a01b031661022e565b6103ea610472366004611a63565b610d6f565b610244600c5481565b61020e61048e366004611bb4565b610dcb565b61024460008051602061251383398151915281565b6102886104b6366004611bd5565b610e31565b6102886104c9366004611c29565b610e4d565b6102886104dc366004611bb4565b610ed1565b60006104ec82610f05565b92915050565b6060600080546105019061240b565b80601f016020809104026020016040519081016040528092919081815260200182805461052d9061240b565b801561057a5780601f1061054f5761010080835404028352916020019161057a565b820191906000526020600020905b81548152906001019060200180831161055d57829003601f168201915b5050505050905090565b60009081526008602052604090206001015490565b60006105a481610f2a565b81600a5414156105c75760405163c23f6ccb60e01b815260040160405180910390fd5b50600a55565b60006104ec8260006105fb565b6105e382610584565b6105ec81610f2a565b6105f68383610f34565b505050565b600061060683610a02565b821061062d5760405162461bcd60e51b81526004016106249061225e565b60405180910390fd5b506001600160a01b03919091166000908152600460209081526040808320938352929052205490565b6001600160a01b038116331461067e5760405162461bcd60e51b8152600401610624906122ce565b6106888282610fba565b5050565b600061069781610f2a565b81600b5414156106ba5760405163c23f6ccb60e01b815260040160405180910390fd5b50600b55565b6106ca3382611021565b6106e65760405162461bcd60e51b81526004016106249061227e565b6106ef81611044565b50565b60105460609060009081908190819081906001600160a01b031661072957604051636d9e949f60e01b815260040160405180910390fd5b6010546040516346b2b08760e01b81526001600160a01b03909116906346b2b08790610759908a906004016121ce565b60006040518083038186803b15801561077157600080fd5b505afa158015610785573d6000803e3d6000fd5b505050506040513d6000823e601f3d908101601f191682016040526107ad9190810190611cbe565b949c939b5091995097509550909350915050565b6010546060906001600160a01b03166107ed57604051636d9e949f60e01b815260040160405180910390fd5b6010546040516346b2b08760e01b81526000916001600160a01b0316906346b2b0879061081e9086906004016121ce565b60006040518083038186803b15801561083657600080fd5b505afa15801561084a573d6000803e3d6000fd5b505050506040513d6000823e601f3d908101601f191682016040526108729190810190611cbe565b5050509250505061088281610dcb565b9150505b919050565b60006104ec826110de565b60006108a160065490565b82106108bf5760405162461bcd60e51b8152600401610624906122ae565b600682815481106108d2576108d26124a1565b90600052602060002001549050919050565b6010546000906001600160a01b031661091057604051636d9e949f60e01b815260040160405180910390fd5b6109186110fb565b6000610923866109cc565b6010546040516303dd904360e41b81529192506001600160a01b031690633dd904309061095a908990899089908990600401612148565b602060405180830381600087803b15801561097457600080fd5b505af1158015610988573d6000803e3d6000fd5b505050506040513d601f19601f820116820180604052508101906109ac9190611d61565b5090506109b96001600f55565b949350505050565b60006104ec82611125565b6000806109d883610a02565b11156109f957816040516312d5c31d60e01b8152600401610624919061213a565b6104ec8261115a565b60006001600160a01b038216610a2a5760405162461bcd60e51b81526004016106249061226e565b506001600160a01b031660009081526003602052604090205490565b6010546040805163776ce6a160e01b815290516060926001600160a01b03169163776ce6a1916004808301926000929190829003018186803b158015610a8b57600080fd5b505afa158015610a9f573d6000803e3d6000fd5b505050506040513d6000823e601f3d908101601f19168201604052610ac79190810190611c84565b905090565b6000610ad781610f2a565b81600d541415610afa5760405163c23f6ccb60e01b815260040160405180910390fd5b50600d55565b6010546060906001600160a01b0316610b2c57604051636d9e949f60e01b815260040160405180910390fd5b601054604051637e66989160e01b81526001600160a01b0390911690637e66989190610b5c9085906004016121b2565b60006040518083038186803b158015610b7457600080fd5b505afa158015610b88573d6000803e3d6000fd5b505050506040513d6000823e601f3d908101601f191682016040526104ec9190810190611b59565b60009182526008602090815260408084206001600160a01b0393909316845291905290205460ff1690565b6010546000906001600160a01b0316610c0757604051636d9e949f60e01b815260040160405180910390fd5b6010546040516346b2b08760e01b81526000916001600160a01b0316906346b2b08790610c389086906004016121ce565b60006040518083038186803b158015610c5057600080fd5b505afa158015610c64573d6000803e3d6000fd5b505050506040513d6000823e601f3d908101601f19168201604052610c8c9190810190611cbe565b5050509250505061088281611125565b60606000610ca9836105cd565b905061088281610dcb565b6060600180546105019061240b565b6010546000906001600160a01b0316610cef57604051636d9e949f60e01b815260040160405180910390fd5b601054604051634b29835560e11b81526001600160a01b039091169063965306aa90610d1f9085906004016121ce565b60206040518083038186803b158015610d3757600080fd5b505afa158015610d4b573d6000803e3d6000fd5b505050506040513d601f19601f820116820180604052508101906104ec9190611b93565b6010546060906001600160a01b0316610d9b57604051636d9e949f60e01b815260040160405180910390fd5b601054604051635bcb1b5b60e11b81526001600160a01b039091169063b79636b690610b5c90859060040161213a565b6060610dd68261119f565b6000610de06111c4565b90506000815111610e005760405180602001604052806000815250610882565b80610e0a846111d3565b604051602001610e1b9291906120ba565b6040516020818303038152906040529392505050565b610e3a82610584565b610e4381610f2a565b6105f68383610fba565b6000610e5881610f2a565b6001600160a01b038216610e7f5760405163d92e233d60e01b815260040160405180910390fd5b6010546001600160a01b0383811691161415610eae5760405163c23f6ccb60e01b815260040160405180910390fd5b50601080546001600160a01b0319166001600160a01b0392909216919091179055565b6000610edc81610f2a565b81600c541415610eff5760405163c23f6ccb60e01b815260040160405180910390fd5b50600c55565b60006001600160e01b03198216637965db0b60e01b14806104ec57506104ec8261126f565b6106ef8133611294565b610f3e8282610bb0565b6106885760008281526008602090815260408083206001600160a01b03851684529091529020805460ff19166001179055610f763390565b6001600160a01b0316816001600160a01b0316837f2f8788117e7eff1d82e926ec794901d17c78024a50270940304540a733656f0d60405160405180910390a45050565b610fc48282610bb0565b156106885760008281526008602090815260408083206001600160a01b0385168085529252808320805460ff1916905551339285917ff6391f5c32d9c69d2a47ea670b442974b53935d1edc7fd64eb21e047a839171b9190a45050565b60008061102d83611125565b6001600160a01b0385811691161491505092915050565b600061104f82611125565b905061105d816000846112ed565b6001600160a01b038116600090815260036020526040812080546001929061108690849061237a565b909155505060008281526002602052604080822080546001600160a01b03191690555183916001600160a01b038416917fcc16f5dbb4873280815c1ee09dbd06736cffcc184412cf7a71a0fdb75d397ca59190a35050565b6000908152600260205260409020546001600160a01b0316151590565b6002600f54141561111e5760405162461bcd60e51b8152600401610624906122be565b6002600f55565b6000818152600260205260408120546001600160a01b0316806104ec5760405162461bcd60e51b81526004016106249061229e565b600060008051602061251383398151915261117481610f2a565b600061117f600e5490565b905061118f600e80546001019055565b61088284826112f8565b50919050565b6111a8816110de565b6106ef5760405162461bcd60e51b81526004016106249061229e565b6060600980546105019061240b565b606060006111e0836113d4565b60010190506000816001600160401b038111156111ff576111ff6124b7565b6040519080825280601f01601f191660200182016040528015611229576020820181803683370190505b5090508181016020015b600019016f181899199a1a9b1b9c1cb0b131b232b360811b600a86061a8153600a850494508461126257611267565b611233565b509392505050565b60006001600160e01b0319821663780e9d6360e01b14806104ec57506104ec826114aa565b61129e8282610bb0565b610688576112ab816114fa565b6112b683602061150c565b6040516020016112c79291906120e8565b60408051601f198184030181529082905262461bcd60e51b8252610624916004016121ce565b6105f683838361167e565b6001600160a01b03821661131e5760405162461bcd60e51b81526004016106249061224e565b611327816110de565b156113445760405162461bcd60e51b81526004016106249061228e565b611350600083836112ed565b6001600160a01b0382166000908152600360205260408120805460019290611379908490612343565b909155505060008181526002602052604080822080546001600160a01b0319166001600160a01b038616908117909155905183927f0f6798a560793a54c3bcfe86a93cde1e73087d944c0ea20544137d412139688591a35050565b60008072184f03e93ff9f4daa797ed6e38ed64bf6a1f0160401b83106114135772184f03e93ff9f4daa797ed6e38ed64bf6a1f0160401b830492506040015b6904ee2d6d415b85acef8160201b831061143d576904ee2d6d415b85acef8160201b830492506020015b662386f26fc10000831061145b57662386f26fc10000830492506010015b6305f5e1008310611473576305f5e100830492506008015b612710831061148757612710830492506004015b60648310611499576064830492506002015b600a83106104ec5760010192915050565b60006001600160e01b031982166313f2a32f60e01b14806114db57506001600160e01b03198216635b5e139f60e01b145b806104ec57506301ffc9a760e01b6001600160e01b03198316146104ec565b60606104ec6001600160a01b03831660145b6060600061151b83600261235b565b611526906002612343565b6001600160401b0381111561153d5761153d6124b7565b6040519080825280601f01601f191660200182016040528015611567576020820181803683370190505b509050600360fc1b81600081518110611582576115826124a1565b60200101906001600160f81b031916908160001a905350600f60fb1b816001815181106115b1576115b16124a1565b60200101906001600160f81b031916908160001a90535060006115d584600261235b565b6115e0906001612343565b90505b6001811115611658576f181899199a1a9b1b9c1cb0b131b232b360811b85600f1660108110611614576116146124a1565b1a60f81b82828151811061162a5761162a6124a1565b60200101906001600160f81b031916908160001a90535060049490941c93611651816123f4565b90506115e3565b5083156116775760405162461bcd60e51b81526004016106249061223e565b9392505050565b6001600160a01b0383166116d9576116d481600680546000838152600760205260408120829055600182018355919091527ff652222313e28459528d920b65115c16c04f3efc82aaedc97be59f3f377c0d3f0155565b6116fc565b816001600160a01b0316836001600160a01b0316146116fc576116fc8382611736565b6001600160a01b038216611713576105f6816117d3565b826001600160a01b0316826001600160a01b0316146105f6576105f68282611882565b6000600161174384610a02565b61174d919061237a565b6000838152600560205260409020549091508082146117a0576001600160a01b03841660009081526004602090815260408083208584528252808320548484528184208190558352600590915290208190555b5060009182526005602090815260408084208490556001600160a01b039094168352600481528383209183525290812055565b6006546000906117e59060019061237a565b6000838152600760205260408120546006805493945090928490811061180d5761180d6124a1565b90600052602060002001549050806006838154811061182e5761182e6124a1565b60009182526020808320909101929092558281526007909152604080822084905585825281205560068054806118665761186661248b565b6001900381819060005260206000200160009055905550505050565b600061188d83610a02565b6001600160a01b039093166000908152600460209081526040808320868452825280832085905593825260059052919091209190915550565b60006118d96118d4846122f5565b6122de565b905080838252602082019050828560208602820111156118fb576118fb600080fd5b60005b858110156119435781516001600160401b0381111561191f5761191f600080fd5b80860161192c8982611a34565b8552505060209283019291909101906001016118fe565b5050509392505050565b600061195b6118d484612318565b90508281526020810184848401111561197657611976600080fd5b6112678482856123b8565b600061198f6118d484612318565b9050828152602081018484840111156119aa576119aa600080fd5b6112678482856123c4565b80356104ec816124d7565b600082601f8301126119d4576119d4600080fd5b81516109b98482602086016118c6565b80516104ec816124eb565b80356104ec816124f3565b80356104ec816124f9565b80356104ec81612509565b600082601f830112611a2457611a24600080fd5b81356109b984826020860161194d565b600082601f830112611a4857611a48600080fd5b81516109b9848260208601611981565b80516104ec816124f3565b600060208284031215611a7857611a78600080fd5b60006109b984846119b5565b60008060008060808587031215611a9d57611a9d600080fd5b6000611aa987876119b5565b94505060208501356001600160401b03811115611ac857611ac8600080fd5b611ad487828801611a10565b9350506040611ae5878288016119ef565b92505060608501356001600160401b03811115611b0457611b04600080fd5b611b1087828801611a10565b91505092959194509250565b60008060408385031215611b3257611b32600080fd5b6000611b3e85856119b5565b9250506020611b4f858286016119ef565b9150509250929050565b600060208284031215611b6e57611b6e600080fd5b81516001600160401b03811115611b8757611b87600080fd5b6109b9848285016119c0565b600060208284031215611ba857611ba8600080fd5b60006109b984846119e4565b600060208284031215611bc957611bc9600080fd5b60006109b984846119ef565b60008060408385031215611beb57611beb600080fd5b6000611bf785856119ef565b9250506020611b4f858286016119b5565b600060208284031215611c1d57611c1d600080fd5b60006109b984846119fa565b600060208284031215611c3e57611c3e600080fd5b60006109b98484611a05565b600060208284031215611c5f57611c5f600080fd5b81356001600160401b03811115611c7857611c78600080fd5b6109b984828501611a10565b600060208284031215611c9957611c99600080fd5b81516001600160401b03811115611cb257611cb2600080fd5b6109b984828501611a34565b60008060008060008060c08789031215611cda57611cda600080fd5b86516001600160401b03811115611cf357611cf3600080fd5b611cff89828a01611a34565b9650506020611d1089828a016119e4565b9550506040611d2189828a01611a58565b9450506060611d3289828a01611a58565b9350506080611d4389828a01611a58565b92505060a0611d5489828a016119e4565b9150509295509295509295565b600060208284031215611d7657611d76600080fd5b60006109b98484611a58565b60006116778383611e1a565b611d9781612391565b82525050565b6000611da7825190565b80845260208401935083602082028501611dc18560200190565b8060005b85811015611df65784840389528151611dde8582611d82565b94506020830160209a909a0199925050600101611dc5565b5091979650505050505050565b801515611d97565b80611d97565b611d97816123ad565b6000611e24825190565b808452602084019350611e3b8185602086016123c4565b611e44816124cd565b9093019392505050565b6000611e58825190565b611e668185602086016123c4565b9290920192915050565b60208082527f537472696e67733a20686578206c656e67746820696e73756666696369656e74910190815260005b5060200190565b601d81526000602082017f5342543a206d696e7420746f20746865207a65726f206164647265737300000081529150611e9e565b602881526000602082017f534254456e756d657261626c653a206f776e657220696e646578206f7574206f8152676620626f756e647360c01b602082015291505b5060400190565b602681526000602082017f5342543a2061646472657373207a65726f206973206e6f7420612076616c69648152651037bbb732b960d11b60208201529150611f1a565b601e81526000602082017f5342543a2063616c6c6572206973206e6f7420746f6b656e206f776e6572000081529150611e9e565b601981526000602082017814d0950e881d1bdad95b88185b1c9958591e481b5a5b9d1959603a1b81529150611e9e565b601581526000602082017414d0950e881a5b9d985b1a59081d1bdad95b881251605a1b81529150611e9e565b602981526000602082017f534254456e756d657261626c653a20676c6f62616c20696e646578206f7574208152686f6620626f756e647360b81b60208201529150611f1a565b601f81526000602082017f5265656e7472616e637947756172643a207265656e7472616e742063616c6c0081529150611e9e565b602f81526000602082017f416363657373436f6e74726f6c3a2063616e206f6e6c792072656e6f756e636581526e103937b632b9903337b91039b2b63360891b60208201529150611f1a565b60006120c68285611e4e565b91506120d28284611e4e565b64173539b7b760d91b81529150600582016109b9565b76020b1b1b2b9b9a1b7b73a3937b61d1030b1b1b7bab73a1604d1b815260170160006121148285611e4e565b7001034b99036b4b9b9b4b733903937b6329607d1b815260110191506109b98284611e4e565b602081016104ec8284611d8e565b608081016121568287611d8e565b81810360208301526121688186611e1a565b90506121776040830185611e0b565b81810360608301526121898184611e1a565b9695505050505050565b602080825281016116778184611d9d565b602081016104ec8284611e03565b602081016104ec8284611e0b565b602081016104ec8284611e11565b602080825281016116778184611e1a565b60c080825281016121f08189611e1a565b90506121ff6020830188611e03565b61220c6040830187611e0b565b6122196060830186611e0b565b6122266080830185611e0b565b61223360a0830184611e03565b979650505050505050565b602080825281016104ec81611e70565b602080825281016104ec81611ea5565b602080825281016104ec81611ed9565b602080825281016104ec81611f21565b602080825281016104ec81611f64565b602080825281016104ec81611f98565b602080825281016104ec81611fc8565b602080825281016104ec81611ff4565b602080825281016104ec8161203a565b602080825281016104ec8161206e565b60006122e960405190565b90506108868282612432565b60006001600160401b0382111561230e5761230e6124b7565b5060209081020190565b60006001600160401b03821115612331576123316124b7565b61233a826124cd565b60200192915050565b600082198211156123565761235661245f565b500190565b60008160001904831182151516156123755761237561245f565b500290565b60008282101561238c5761238c61245f565b500390565b60006001600160a01b0382166104ec565b60006104ec82612391565b60006104ec826123a2565b82818337506000910152565b60005b838110156123df5781810151838201526020016123c7565b838111156123ee576000848401525b50505050565b6000816124035761240361245f565b506000190190565b60028104600182168061241f57607f821691505b6020821081141561119957611199612475565b61243b826124cd565b81018181106001600160401b0382111715612458576124586124b7565b6040525050565b634e487b7160e01b600052601160045260246000fd5b634e487b7160e01b600052602260045260246000fd5b634e487b7160e01b600052603160045260246000fd5b634e487b7160e01b600052603260045260246000fd5b634e487b7160e01b600052604160045260246000fd5b601f01601f191690565b6124e081612391565b81146106ef57600080fd5b8015156124e0565b806124e0565b6001600160e01b031981166124e0565b6124e0816123a256fe9f2df0fed2c77648de5860a4cc508cd0818c85b8b8a1ab4ceeef8d981c8956a6a2646970667358221220a3b5d8f683cc579fa3d48c3101a6baa6f7602b9d3cd7116ca73d36e4d436ecb864736f6c63430008070033",
  "devdoc": {
    "author": "Masa Finance",
    "details": "Soulbound identity, that inherits from the SBT contract.",
    "kind": "dev",
    "methods": {
      "balanceOf(address)": {
        "details": "See {ISBT-balanceOf}."
      },
      "burn(uint256)": {
        "details": "Burns `tokenId`. See {SBT-_burn}. Requirements: - The caller must own `tokenId` or be an approved operator."
      },
      "constructor": {
        "details": "Creates a new soulbound identity, inheriting from the SBT contract.",
        "params": {
          "admin": "Administrator of the smart contract",
          "baseTokenURI": "Base URI of the token",
          "name": "Name of the token",
          "symbol": "Symbol of the token"
        }
      },
      "exists(uint256)": {
        "details": "Returns true if the token has been minted",
        "params": {
          "tokenId": "Token to check"
        },
        "returns": {
          "_0": "True if the token exists"
        }
      },
      "getExtension()": {
        "details": "This function returns the extension of the soul name",
        "returns": {
          "_0": "Extension of the soul name"
        }
      },
      "getRoleAdmin(bytes32)": {
        "details": "Returns the admin role that controls `role`. See {grantRole} and {revokeRole}. To change a role's admin, use {_setRoleAdmin}."
      },
      "getSoulName()": {
        "details": "This function returns the address of the SoulName contract linked to this identity",
        "returns": {
          "_0": "Address of the SoulName contract"
        }
      },
      "getSoulNames(address)": {
        "details": "This function queries all the identity names of the specified account",
        "params": {
          "owner": "Address of the owner of the identities"
        },
        "returns": {
          "sbtNames": "Array of soul names associated to the account"
        }
      },
      "getSoulNames(uint256)": {
        "details": "This function queries all the identity names of the specified identity Id",
        "params": {
          "tokenId": "TokenId of the identity"
        },
        "returns": {
          "sbtNames": "Array of soul names associated to the identity Id"
        }
      },
      "getTokenData(string)": {
        "details": "This function queries the information of a soul name",
        "params": {
          "name": "Name of the soul name"
        },
        "returns": {
          "active": "`true` if the soul name is active, `false` otherwise",
          "expirationDate": "Expiration date of the soul name",
          "identityId": "Identity id of the soul name",
          "linked": "`true` if the soul name is linked, `false` otherwise",
          "sbtName": "Soul name, in upper/lower case and extension",
          "tokenId": "SoulName id of the soul name"
        }
      },
      "grantRole(bytes32,address)": {
        "details": "Grants `role` to `account`. If `account` had not been already granted `role`, emits a {RoleGranted} event. Requirements: - the caller must have ``role``'s admin role. May emit a {RoleGranted} event."
      },
      "hasRole(bytes32,address)": {
        "details": "Returns `true` if `account` has been granted `role`."
      },
      "isAvailable(string)": {
        "details": "This function queries if a soul name already exists and is in the available state",
        "params": {
          "name": "Name of the soul name"
        },
        "returns": {
          "available": "`true` if the soul name is available, `false` otherwise"
        }
      },
      "mint(address)": {
        "details": "The caller can only mint one identity per address",
        "params": {
          "to": "Address of the admin of the new identity"
        }
      },
      "mintIdentityWithName(address,string,uint256,string)": {
        "details": "The caller can only mint one identity per address, and the name must be unique",
        "params": {
          "_tokenURI": "URI of the NFT",
          "name": "Name of the new identity",
          "to": "Address of the admin of the new identity",
          "yearsPeriod": "Years of validity of the name"
        }
      },
      "name()": {
        "details": "See {ISBTMetadata-name}."
      },
      "ownerOf(string)": {
        "details": "This function returns the owner address of the soul name identity specified by the name",
        "params": {
          "name": "Name of the soul name"
        },
        "returns": {
          "_0": "Address of the owner of the identity"
        }
      },
      "ownerOf(uint256)": {
        "details": "This function returns the owner address of the identity specified by the tokenId",
        "params": {
          "tokenId": "TokenId of the identity"
        },
        "returns": {
          "_0": "Address of the owner of the identity"
        }
      },
      "renounceRole(bytes32,address)": {
        "details": "Revokes `role` from the calling account. Roles are often managed via {grantRole} and {revokeRole}: this function's purpose is to provide a mechanism for accounts to lose their privileges if they are compromised (such as when a trusted device is misplaced). If the calling account had been revoked `role`, emits a {RoleRevoked} event. Requirements: - the caller must be `account`. May emit a {RoleRevoked} event."
      },
      "revokeRole(bytes32,address)": {
        "details": "Revokes `role` from `account`. If `account` had been granted `role`, emits a {RoleRevoked} event. Requirements: - the caller must have ``role``'s admin role. May emit a {RoleRevoked} event."
      },
      "setAddLinkPrice(uint256)": {
        "details": "The caller must have the admin role to call this function",
        "params": {
          "_addLinkPrice": "New price for adding the link in SoulLinker in stable coin"
        }
      },
      "setAddLinkPriceMASA(uint256)": {
        "details": "The caller must have the admin role to call this function",
        "params": {
          "_addLinkPriceMASA": "New price for adding the link in SoulLinker in MASA"
        }
      },
      "setQueryLinkPrice(uint256)": {
        "details": "The caller must have the admin role to call this function",
        "params": {
          "_queryLinkPrice": "New price for reading data in SoulLinker in stable coin"
        }
      },
      "setQueryLinkPriceMASA(uint256)": {
        "details": "The caller must have the admin role to call this function",
        "params": {
          "_queryLinkPriceMASA": "New price for reading data in SoulLinker in MASA"
        }
      },
      "setSoulName(address)": {
        "details": "The caller must have the admin role to call this function",
        "params": {
          "_soulName": "Address of the SoulName contract"
        }
      },
      "supportsInterface(bytes4)": {
        "details": "Interface identification is specified in ERC-165.",
        "params": {
          "interfaceId": "The interface identifier, as specified in ERC-165"
        },
        "returns": {
          "_0": "`true` if the contract implements `interfaceId` and  `interfaceId` is not 0xffffffff, `false` otherwise"
        }
      },
      "symbol()": {
        "details": "See {ISBTMetadata-symbol}."
      },
      "tokenByIndex(uint256)": {
        "details": "See {ISBTEnumerable-tokenByIndex}."
      },
      "tokenOfOwner(address)": {
        "details": "This function returns the tokenId of the identity owned by an account",
        "params": {
          "owner": "Address of the owner of the identity"
        },
        "returns": {
          "_0": "TokenId of the identity owned by the account"
        }
      },
      "tokenOfOwnerByIndex(address,uint256)": {
        "details": "See {ISBTEnumerable-tokenOfOwnerByIndex}."
      },
      "tokenURI(address)": {
        "details": "This function returns the token URI of the identity owned by an account",
        "params": {
          "owner": "Address of the owner of the identity"
        },
        "returns": {
          "_0": "URI of the identity owned by the account"
        }
      },
      "tokenURI(string)": {
        "details": "This function returns the token URI of the soul name identity specified by the name",
        "params": {
          "name": "Name of the soul name"
        },
        "returns": {
          "_0": "URI of the identity associated to a soul name"
        }
      },
      "tokenURI(uint256)": {
        "details": "Throws if `_tokenId` is not a valid SBT. URIs are defined in RFC  3986. The URI may point to a JSON file that conforms to the \"ERC721  Metadata JSON Schema\".",
        "params": {
          "tokenId": "SBT to get the URI of"
        },
        "returns": {
          "_0": "URI of the SBT"
        }
      },
      "totalSupply()": {
        "details": "See {ISBTEnumerable-totalSupply}."
      }
    },
    "title": "Soulbound Identity",
    "version": 1
  },
  "userdoc": {
    "kind": "user",
    "methods": {
      "constructor": {
        "notice": "Creates a new soulbound identity"
      },
      "exists(uint256)": {
        "notice": "Returns true if the token exists"
      },
      "getExtension()": {
        "notice": "Returns the extension of the soul name"
      },
      "getSoulName()": {
        "notice": "Returns the address of the SoulName contract linked to this identity"
      },
      "getSoulNames(address)": {
        "notice": "Returns all the active soul names of an account"
      },
      "getSoulNames(uint256)": {
        "notice": "Returns all the active soul names of an account"
      },
      "getTokenData(string)": {
        "notice": "Returns the information of a soul name"
      },
      "isAvailable(string)": {
        "notice": "Checks if a soul name is available"
      },
      "mint(address)": {
        "notice": "Mints a new soulbound identity"
      },
      "mintIdentityWithName(address,string,uint256,string)": {
        "notice": "Mints a new soulbound identity with a SoulName associated to it"
      },
      "ownerOf(string)": {
        "notice": "Returns the owner address of a soul name"
      },
      "ownerOf(uint256)": {
        "notice": "Returns the owner address of an identity"
      },
      "setAddLinkPrice(uint256)": {
        "notice": "Sets the price for adding the link in SoulLinker in stable coin"
      },
      "setAddLinkPriceMASA(uint256)": {
        "notice": "Sets the price for adding the link in SoulLinker in MASA"
      },
      "setQueryLinkPrice(uint256)": {
        "notice": "Sets the price for reading data in SoulLinker in stable coin"
      },
      "setQueryLinkPriceMASA(uint256)": {
        "notice": "Sets the price for reading data in SoulLinker in MASA"
      },
      "setSoulName(address)": {
        "notice": "Sets the SoulName contract address linked to this identity"
      },
      "supportsInterface(bytes4)": {
        "notice": "Query if a contract implements an interface"
      },
      "tokenOfOwner(address)": {
        "notice": "Returns the identity id of an account"
      },
      "tokenURI(address)": {
        "notice": "Returns the URI of the owner of an identity"
      },
      "tokenURI(string)": {
        "notice": "Returns the URI of a soul name"
      },
      "tokenURI(uint256)": {
        "notice": "A distinct Uniform Resource Identifier (URI) for a given asset."
      }
    },
    "notice": "Soulbound token that represents an identity.",
    "version": 1
  },
  "storageLayout": {
    "storage": [
      {
        "astId": 8769,
        "contract": "contracts/SoulboundIdentity.sol:SoulboundIdentity",
        "label": "_name",
        "offset": 0,
        "slot": "0",
        "type": "t_string_storage"
      },
      {
        "astId": 8771,
        "contract": "contracts/SoulboundIdentity.sol:SoulboundIdentity",
        "label": "_symbol",
        "offset": 0,
        "slot": "1",
        "type": "t_string_storage"
      },
      {
        "astId": 8775,
        "contract": "contracts/SoulboundIdentity.sol:SoulboundIdentity",
        "label": "_owners",
        "offset": 0,
        "slot": "2",
        "type": "t_mapping(t_uint256,t_address)"
      },
      {
        "astId": 8779,
        "contract": "contracts/SoulboundIdentity.sol:SoulboundIdentity",
        "label": "_balances",
        "offset": 0,
        "slot": "3",
        "type": "t_mapping(t_address,t_uint256)"
      },
      {
        "astId": 9238,
        "contract": "contracts/SoulboundIdentity.sol:SoulboundIdentity",
        "label": "_ownedTokens",
        "offset": 0,
        "slot": "4",
        "type": "t_mapping(t_address,t_mapping(t_uint256,t_uint256))"
      },
      {
        "astId": 9242,
        "contract": "contracts/SoulboundIdentity.sol:SoulboundIdentity",
        "label": "_ownedTokensIndex",
        "offset": 0,
        "slot": "5",
        "type": "t_mapping(t_uint256,t_uint256)"
      },
      {
        "astId": 9245,
        "contract": "contracts/SoulboundIdentity.sol:SoulboundIdentity",
        "label": "_allTokens",
        "offset": 0,
        "slot": "6",
        "type": "t_array(t_uint256)dyn_storage"
      },
      {
        "astId": 9249,
        "contract": "contracts/SoulboundIdentity.sol:SoulboundIdentity",
        "label": "_allTokensIndex",
        "offset": 0,
        "slot": "7",
        "type": "t_mapping(t_uint256,t_uint256)"
      },
      {
        "astId": 24,
        "contract": "contracts/SoulboundIdentity.sol:SoulboundIdentity",
        "label": "_roles",
        "offset": 0,
        "slot": "8",
        "type": "t_mapping(t_bytes32,t_struct(RoleData)19_storage)"
      },
      {
        "astId": 8043,
        "contract": "contracts/SoulboundIdentity.sol:SoulboundIdentity",
        "label": "_baseTokenURI",
        "offset": 0,
        "slot": "9",
        "type": "t_string_storage"
      },
      {
        "astId": 8046,
        "contract": "contracts/SoulboundIdentity.sol:SoulboundIdentity",
        "label": "addLinkPrice",
        "offset": 0,
        "slot": "10",
        "type": "t_uint256"
      },
      {
        "astId": 8049,
        "contract": "contracts/SoulboundIdentity.sol:SoulboundIdentity",
        "label": "addLinkPriceMASA",
        "offset": 0,
        "slot": "11",
        "type": "t_uint256"
      },
      {
        "astId": 8052,
        "contract": "contracts/SoulboundIdentity.sol:SoulboundIdentity",
        "label": "queryLinkPrice",
        "offset": 0,
        "slot": "12",
        "type": "t_uint256"
      },
      {
        "astId": 8055,
        "contract": "contracts/SoulboundIdentity.sol:SoulboundIdentity",
        "label": "queryLinkPriceMASA",
        "offset": 0,
        "slot": "13",
        "type": "t_uint256"
      },
      {
        "astId": 8287,
        "contract": "contracts/SoulboundIdentity.sol:SoulboundIdentity",
        "label": "_tokenIdCounter",
        "offset": 0,
        "slot": "14",
        "type": "t_struct(Counter)2829_storage"
      },
      {
        "astId": 512,
        "contract": "contracts/SoulboundIdentity.sol:SoulboundIdentity",
        "label": "_status",
        "offset": 0,
        "slot": "15",
        "type": "t_uint256"
      },
      {
        "astId": 6322,
        "contract": "contracts/SoulboundIdentity.sol:SoulboundIdentity",
        "label": "soulName",
        "offset": 0,
        "slot": "16",
        "type": "t_contract(ISoulName)7403"
      }
    ],
    "types": {
      "t_address": {
        "encoding": "inplace",
        "label": "address",
        "numberOfBytes": "20"
      },
      "t_array(t_uint256)dyn_storage": {
        "base": "t_uint256",
        "encoding": "dynamic_array",
        "label": "uint256[]",
        "numberOfBytes": "32"
      },
      "t_bool": {
        "encoding": "inplace",
        "label": "bool",
        "numberOfBytes": "1"
      },
      "t_bytes32": {
        "encoding": "inplace",
        "label": "bytes32",
        "numberOfBytes": "32"
      },
      "t_contract(ISoulName)7403": {
        "encoding": "inplace",
        "label": "contract ISoulName",
        "numberOfBytes": "20"
      },
      "t_mapping(t_address,t_bool)": {
        "encoding": "mapping",
        "key": "t_address",
        "label": "mapping(address => bool)",
        "numberOfBytes": "32",
        "value": "t_bool"
      },
      "t_mapping(t_address,t_mapping(t_uint256,t_uint256))": {
        "encoding": "mapping",
        "key": "t_address",
        "label": "mapping(address => mapping(uint256 => uint256))",
        "numberOfBytes": "32",
        "value": "t_mapping(t_uint256,t_uint256)"
      },
      "t_mapping(t_address,t_uint256)": {
        "encoding": "mapping",
        "key": "t_address",
        "label": "mapping(address => uint256)",
        "numberOfBytes": "32",
        "value": "t_uint256"
      },
      "t_mapping(t_bytes32,t_struct(RoleData)19_storage)": {
        "encoding": "mapping",
        "key": "t_bytes32",
        "label": "mapping(bytes32 => struct AccessControl.RoleData)",
        "numberOfBytes": "32",
        "value": "t_struct(RoleData)19_storage"
      },
      "t_mapping(t_uint256,t_address)": {
        "encoding": "mapping",
        "key": "t_uint256",
        "label": "mapping(uint256 => address)",
        "numberOfBytes": "32",
        "value": "t_address"
      },
      "t_mapping(t_uint256,t_uint256)": {
        "encoding": "mapping",
        "key": "t_uint256",
        "label": "mapping(uint256 => uint256)",
        "numberOfBytes": "32",
        "value": "t_uint256"
      },
      "t_string_storage": {
        "encoding": "bytes",
        "label": "string",
        "numberOfBytes": "32"
      },
      "t_struct(Counter)2829_storage": {
        "encoding": "inplace",
        "label": "struct Counters.Counter",
        "members": [
          {
            "astId": 2828,
            "contract": "contracts/SoulboundIdentity.sol:SoulboundIdentity",
            "label": "_value",
            "offset": 0,
            "slot": "0",
            "type": "t_uint256"
          }
        ],
        "numberOfBytes": "32"
      },
      "t_struct(RoleData)19_storage": {
        "encoding": "inplace",
        "label": "struct AccessControl.RoleData",
        "members": [
          {
            "astId": 16,
            "contract": "contracts/SoulboundIdentity.sol:SoulboundIdentity",
            "label": "members",
            "offset": 0,
            "slot": "0",
            "type": "t_mapping(t_address,t_bool)"
          },
          {
            "astId": 18,
            "contract": "contracts/SoulboundIdentity.sol:SoulboundIdentity",
            "label": "adminRole",
            "offset": 0,
            "slot": "1",
            "type": "t_bytes32"
          }
        ],
        "numberOfBytes": "64"
      },
      "t_uint256": {
        "encoding": "inplace",
        "label": "uint256",
        "numberOfBytes": "32"
      }
    }
  }
}