{
  "address": "0x3d039EA3d6Bd1e7369f55e0460d1AF507A9235C6",
  "abi": [
    {
      "inputs": [
        {
          "internalType": "address",
          "name": "owner",
          "type": "address"
        }
      ],
      "stateMutability": "nonpayable",
      "type": "constructor"
    },
    {
      "anonymous": false,
      "inputs": [
        {
          "indexed": true,
          "internalType": "address",
          "name": "previousOwner",
          "type": "address"
        },
        {
          "indexed": true,
          "internalType": "address",
          "name": "newOwner",
          "type": "address"
        }
      ],
      "name": "OwnershipTransferred",
      "type": "event"
    },
    {
      "inputs": [
        {
          "internalType": "address",
          "name": "token",
          "type": "address"
        },
        {
          "internalType": "uint256",
          "name": "tokenId",
          "type": "uint256"
        }
      ],
      "name": "hasLinks",
      "outputs": [
        {
          "internalType": "bool",
          "name": "",
          "type": "bool"
        }
      ],
      "stateMutability": "view",
      "type": "function"
    },
    {
      "inputs": [],
      "name": "owner",
      "outputs": [
        {
          "internalType": "address",
          "name": "",
          "type": "address"
        }
      ],
      "stateMutability": "view",
      "type": "function"
    },
    {
      "inputs": [],
      "name": "renounceOwnership",
      "outputs": [],
      "stateMutability": "nonpayable",
      "type": "function"
    },
    {
      "inputs": [
        {
          "internalType": "address",
          "name": "newOwner",
          "type": "address"
        }
      ],
      "name": "transferOwnership",
      "outputs": [],
      "stateMutability": "nonpayable",
      "type": "function"
    }
  ],
  "transactionHash": "0xab6b219bffa84b2afabf1cb87beb0f25bbac1c525197d3a702baf7ef38b2af1a",
  "args": [
    "0x3c8D9f130970358b7E8cbc1DbD0a1EbA6EBE368F"
  ],
  "numDeployments": 1,
  "solcInputHash": "64c67b5997654c2f3930a7ffd3bb9d77",
  "bytecode": "0x608060405234801561001057600080fd5b5060405161044838038061044883398101604081905261002f9161017b565b61003833610051565b61004b816100a160201b6100c81760201c565b506101ab565b600080546001600160a01b038381166001600160a01b0319831681178455604051919092169283917f8be0079c531659141344cd1fd0a4f28419497f9722a3daafe3b4186f6b6457e09190a35050565b6100a961011f565b6001600160a01b0381166101135760405162461bcd60e51b815260206004820152602660248201527f4f776e61626c653a206e6577206f776e657220697320746865207a65726f206160448201526564647265737360d01b60648201526084015b60405180910390fd5b61011c81610051565b50565b6000546001600160a01b031633146101795760405162461bcd60e51b815260206004820181905260248201527f4f776e61626c653a2063616c6c6572206973206e6f7420746865206f776e6572604482015260640161010a565b565b60006020828403121561018d57600080fd5b81516001600160a01b03811681146101a457600080fd5b9392505050565b61028e806101ba6000396000f3fe608060405234801561001057600080fd5b506004361061004c5760003560e01c8063715018a6146100515780638da5cb5b1461005b578063f2fde38b1461007b578063fc9e382c1461008e575b600080fd5b6100596100b4565b005b6000546040516001600160a01b0390911681526020015b60405180910390f35b61005961008936600461020c565b6100c8565b6100a461009c36600461022e565b600092915050565b6040519015158152602001610072565b6100bc610146565b6100c660006101a0565b565b6100d0610146565b6001600160a01b03811661013a5760405162461bcd60e51b815260206004820152602660248201527f4f776e61626c653a206e6577206f776e657220697320746865207a65726f206160448201526564647265737360d01b60648201526084015b60405180910390fd5b610143816101a0565b50565b6000546001600160a01b031633146100c65760405162461bcd60e51b815260206004820181905260248201527f4f776e61626c653a2063616c6c6572206973206e6f7420746865206f776e65726044820152606401610131565b600080546001600160a01b038381166001600160a01b0319831681178455604051919092169283917f8be0079c531659141344cd1fd0a4f28419497f9722a3daafe3b4186f6b6457e09190a35050565b80356001600160a01b038116811461020757600080fd5b919050565b60006020828403121561021e57600080fd5b610227826101f0565b9392505050565b6000806040838503121561024157600080fd5b61024a836101f0565b94602093909301359350505056fea2646970667358221220243501a8be9d6feb62094bdd065d913fdd9814f3f9c5cc5663b978240f1a493564736f6c63430008070033",
  "devdoc": {
    "kind": "dev",
    "methods": {
      "owner()": {
        "details": "Returns the address of the current owner."
      },
      "renounceOwnership()": {
        "details": "Leaves the contract without owner. It will not be possible to call `onlyOwner` functions anymore. Can only be called by the current owner. NOTE: Renouncing ownership will leave the contract without an owner, thereby removing any functionality that is only available to the owner."
      },
      "transferOwnership(address)": {
        "details": "Transfers ownership of the contract to a new account (`newOwner`). Can only be called by the current owner."
      }
    },
    "version": 1
  },
  "userdoc": {
    "kind": "user",
    "methods": {},
    "version": 1
  },
  "storageLayout": {
    "storage": [
      {
        "astId": 400,
        "contract": "contracts/SoulLinker.sol:SoulLinker",
        "label": "_owner",
        "offset": 0,
        "slot": "0",
        "type": "t_address"
      },
      {
        "astId": 2753,
        "contract": "contracts/SoulLinker.sol:SoulLinker",
        "label": "links",
        "offset": 0,
        "slot": "1",
        "type": "t_mapping(t_uint256,t_struct(Link)3757_storage)"
      }
    ],
    "types": {
      "t_address": {
        "encoding": "inplace",
        "label": "address",
        "numberOfBytes": "20"
      },
      "t_mapping(t_uint256,t_struct(Link)3757_storage)": {
        "encoding": "mapping",
        "key": "t_uint256",
        "label": "mapping(uint256 => struct ISoulLinker.Link)",
        "numberOfBytes": "32",
        "value": "t_struct(Link)3757_storage"
      },
      "t_struct(Link)3757_storage": {
        "encoding": "inplace",
        "label": "struct ISoulLinker.Link",
        "members": [
          {
            "astId": 3750,
            "contract": "contracts/SoulLinker.sol:SoulLinker",
            "label": "sourceContract",
            "offset": 0,
            "slot": "0",
            "type": "t_address"
          },
          {
            "astId": 3752,
            "contract": "contracts/SoulLinker.sol:SoulLinker",
            "label": "sourceId",
            "offset": 0,
            "slot": "1",
            "type": "t_uint256"
          },
          {
            "astId": 3754,
            "contract": "contracts/SoulLinker.sol:SoulLinker",
            "label": "targetContract",
            "offset": 0,
            "slot": "2",
            "type": "t_address"
          },
          {
            "astId": 3756,
            "contract": "contracts/SoulLinker.sol:SoulLinker",
            "label": "targetId",
            "offset": 0,
            "slot": "3",
            "type": "t_uint256"
          }
        ],
        "numberOfBytes": "128"
      },
      "t_uint256": {
        "encoding": "inplace",
        "label": "uint256",
        "numberOfBytes": "32"
      }
    }
  }
}