{
  "address": "0xec27f626ad0B00Bf6FBBB7f8412Ed55282BD8059",
  "abi": [
    {
      "inputs": [],
      "stateMutability": "nonpayable",
      "type": "constructor"
    },
    {
      "anonymous": false,
      "inputs": [
        {
          "indexed": true,
          "internalType": "address",
          "name": "owner",
          "type": "address"
        },
        {
          "indexed": true,
          "internalType": "address",
          "name": "spender",
          "type": "address"
        },
        {
          "indexed": false,
          "internalType": "uint256",
          "name": "value",
          "type": "uint256"
        }
      ],
      "name": "Approval",
      "type": "event"
    },
    {
      "anonymous": false,
      "inputs": [
        {
          "indexed": true,
          "internalType": "address",
          "name": "from",
          "type": "address"
        },
        {
          "indexed": true,
          "internalType": "address",
          "name": "to",
          "type": "address"
        },
        {
          "indexed": false,
          "internalType": "uint256",
          "name": "value",
          "type": "uint256"
        }
      ],
      "name": "Transfer",
      "type": "event"
    },
    {
      "inputs": [
        {
          "internalType": "address",
          "name": "owner",
          "type": "address"
        },
        {
          "internalType": "address",
          "name": "spender",
          "type": "address"
        }
      ],
      "name": "allowance",
      "outputs": [
        {
          "internalType": "uint256",
          "name": "",
          "type": "uint256"
        }
      ],
      "stateMutability": "view",
      "type": "function"
    },
    {
      "inputs": [
        {
          "internalType": "address",
          "name": "spender",
          "type": "address"
        },
        {
          "internalType": "uint256",
          "name": "amount",
          "type": "uint256"
        }
      ],
      "name": "approve",
      "outputs": [
        {
          "internalType": "bool",
          "name": "",
          "type": "bool"
        }
      ],
      "stateMutability": "nonpayable",
      "type": "function"
    },
    {
      "inputs": [
        {
          "internalType": "address",
          "name": "account",
          "type": "address"
        }
      ],
      "name": "balanceOf",
      "outputs": [
        {
          "internalType": "uint256",
          "name": "",
          "type": "uint256"
        }
      ],
      "stateMutability": "view",
      "type": "function"
    },
    {
      "inputs": [],
      "name": "decimals",
      "outputs": [
        {
          "internalType": "uint8",
          "name": "",
          "type": "uint8"
        }
      ],
      "stateMutability": "view",
      "type": "function"
    },
    {
      "inputs": [
        {
          "internalType": "address",
          "name": "spender",
          "type": "address"
        },
        {
          "internalType": "uint256",
          "name": "subtractedValue",
          "type": "uint256"
        }
      ],
      "name": "decreaseAllowance",
      "outputs": [
        {
          "internalType": "bool",
          "name": "",
          "type": "bool"
        }
      ],
      "stateMutability": "nonpayable",
      "type": "function"
    },
    {
      "inputs": [
        {
          "internalType": "address",
          "name": "spender",
          "type": "address"
        },
        {
          "internalType": "uint256",
          "name": "addedValue",
          "type": "uint256"
        }
      ],
      "name": "increaseAllowance",
      "outputs": [
        {
          "internalType": "bool",
          "name": "",
          "type": "bool"
        }
      ],
      "stateMutability": "nonpayable",
      "type": "function"
    },
    {
      "inputs": [],
      "name": "mint",
      "outputs": [],
      "stateMutability": "nonpayable",
      "type": "function"
    },
    {
      "inputs": [],
      "name": "name",
      "outputs": [
        {
          "internalType": "string",
          "name": "",
          "type": "string"
        }
      ],
      "stateMutability": "view",
      "type": "function"
    },
    {
      "inputs": [],
      "name": "symbol",
      "outputs": [
        {
          "internalType": "string",
          "name": "",
          "type": "string"
        }
      ],
      "stateMutability": "view",
      "type": "function"
    },
    {
      "inputs": [],
      "name": "totalSupply",
      "outputs": [
        {
          "internalType": "uint256",
          "name": "",
          "type": "uint256"
        }
      ],
      "stateMutability": "view",
      "type": "function"
    },
    {
      "inputs": [
        {
          "internalType": "address",
          "name": "to",
          "type": "address"
        },
        {
          "internalType": "uint256",
          "name": "amount",
          "type": "uint256"
        }
      ],
      "name": "transfer",
      "outputs": [
        {
          "internalType": "bool",
          "name": "",
          "type": "bool"
        }
      ],
      "stateMutability": "nonpayable",
      "type": "function"
    },
    {
      "inputs": [
        {
          "internalType": "address",
          "name": "from",
          "type": "address"
        },
        {
          "internalType": "address",
          "name": "to",
          "type": "address"
        },
        {
          "internalType": "uint256",
          "name": "amount",
          "type": "uint256"
        }
      ],
      "name": "transferFrom",
      "outputs": [
        {
          "internalType": "bool",
          "name": "",
          "type": "bool"
        }
      ],
      "stateMutability": "nonpayable",
      "type": "function"
    }
  ],
  "transactionHash": "0x82266f9c2906c8918f84cb1f03879fbce1efb1b0b8b8d5280ef4fb67564e48db",
  "args": [],
  "numDeployments": 2,
  "solcInputHash": "c2a17169dbf0bb4fa832e842c51c4380",
  "bytecode": "0x60806040523480156200001157600080fd5b506040805180820182526005808252641221a7a92760d91b602080840182815285518087019096529285528401528151919291620000529160039162000153565b5080516200006890600490602084019062000153565b505050620000873369d3c21bcecceda10000006200008d60201b60201c565b620002c0565b6001600160a01b038216620000bf5760405162461bcd60e51b8152600401620000b690620001f9565b60405180910390fd5b8060026000828254620000d3919062000248565b90915550506001600160a01b038216600090815260208190526040812080548392906200010290849062000248565b90915550506040516001600160a01b038316906000907fddf252ad1be2c89b69c2b068fc378daa952ba7f163c4a11628f55a4df523b3ef90620001479085906200023b565b60405180910390a35050565b828054620001619062000263565b90600052602060002090601f016020900481019282620001855760008555620001d0565b82601f10620001a057805160ff1916838001178555620001d0565b82800160010185558215620001d0579182015b82811115620001d0578251825591602001919060010190620001b3565b50620001de929150620001e2565b5090565b5b80821115620001de5760008155600101620001e3565b602080825281016200023581601f81527f45524332303a206d696e7420746f20746865207a65726f206164647265737300602082015260400190565b92915050565b8181526020810162000235565b600082198211156200025e576200025e62000294565b500190565b6002810460018216806200027857607f821691505b602082108114156200028e576200028e620002aa565b50919050565b634e487b7160e01b600052601160045260246000fd5b634e487b7160e01b600052602260045260246000fd5b610afa80620002d06000396000f3fe608060405234801561001057600080fd5b50600436106100a45760003560e01c806306fdde03146100a9578063095ea7b3146100c75780631249c58b146100e757806318160ddd146100f157806323b872dd14610102578063313ce56714610115578063395093511461012457806370a082311461013757806395d89b4114610160578063a457c2d714610168578063a9059cbb1461017b578063dd62ed3e1461018e575b600080fd5b6100b16101a1565b6040516100be9190610925565b60405180910390f35b6100da6100d53660046106a4565b610233565b6040516100be9190610917565b6100ef61024d565b005b6002545b6040516100be91906109bd565b6100da610110366004610654565b610263565b60126040516100be91906109cb565b6100da6101323660046106a4565b610287565b6100f56101453660046105ee565b6001600160a01b031660009081526020819052604090205490565b6100b16102a9565b6100da6101763660046106a4565b6102b8565b6100da6101893660046106a4565b6102fe565b6100f561019c366004610617565b61030c565b6060600380546101b090610a2e565b80601f01602080910402602001604051908101604052809291908181526020018280546101dc90610a2e565b80156102295780601f106101fe57610100808354040283529160200191610229565b820191906000526020600020905b81548152906001019060200180831161020c57829003601f168201915b5050505050905090565b600033610241818585610337565b60019150505b92915050565b6102613369d3c21bcecceda10000006103eb565b565b60003361027185828561048d565b61027c8585856104d7565b506001949350505050565b60003361024181858561029a838361030c565b6102a491906109d9565b610337565b6060600480546101b090610a2e565b600033816102c6828661030c565b9050838110156102f15760405162461bcd60e51b81526004016102e89061099d565b60405180910390fd5b61027c8286868403610337565b6000336102418185856104d7565b6001600160a01b03918216600090815260016020908152604080832093909416825291909152205490565b6001600160a01b03831661035d5760405162461bcd60e51b81526004016102e89061098d565b6001600160a01b0382166103835760405162461bcd60e51b81526004016102e89061094d565b6001600160a01b0380841660008181526001602090815260408083209487168084529490915290819020849055517f8c5be1e5ebec7d5bd14f71427d1e84f3dd0314c0f7b2291e5b200ac8c7c3b925906103de9085906109bd565b60405180910390a3505050565b6001600160a01b0382166104115760405162461bcd60e51b81526004016102e8906109ad565b806002600082825461042391906109d9565b90915550506001600160a01b038216600090815260208190526040812080548392906104509084906109d9565b90915550506040516001600160a01b03831690600090600080516020610aa5833981519152906104819085906109bd565b60405180910390a35050565b6000610499848461030c565b905060001981146104d157818110156104c45760405162461bcd60e51b81526004016102e89061095d565b6104d18484848403610337565b50505050565b6001600160a01b0383166104fd5760405162461bcd60e51b81526004016102e89061097d565b6001600160a01b0382166105235760405162461bcd60e51b81526004016102e89061093d565b6001600160a01b0383166000908152602081905260409020548181101561055c5760405162461bcd60e51b81526004016102e89061096d565b6001600160a01b038085166000908152602081905260408082208585039055918516815290812080548492906105939084906109d9565b92505081905550826001600160a01b0316846001600160a01b0316600080516020610aa5833981519152846040516105cb91906109bd565b60405180910390a36104d1565b803561024781610a87565b803561024781610a9e565b60006020828403121561060357610603600080fd5b600061060f84846105d8565b949350505050565b6000806040838503121561062d5761062d600080fd5b600061063985856105d8565b925050602061064a858286016105d8565b9150509250929050565b60008060006060848603121561066c5761066c600080fd5b600061067886866105d8565b9350506020610689868287016105d8565b925050604061069a868287016105e3565b9150509250925092565b600080604083850312156106ba576106ba600080fd5b60006106c685856105d8565b925050602061064a858286016105e3565b8015155b82525050565b60006106eb825190565b808452602084019350610702818560208601610a02565b601f01601f19169290920192915050565b602381526000602082017f45524332303a207472616e7366657220746f20746865207a65726f206164647281526265737360e81b602082015291505b5060400190565b602281526000602082017f45524332303a20617070726f766520746f20746865207a65726f206164647265815261737360f01b6020820152915061074f565b601d81526000602082017f45524332303a20696e73756666696369656e7420616c6c6f77616e6365000000815291505b5060200190565b602681526000602082017f45524332303a207472616e7366657220616d6f756e7420657863656564732062815265616c616e636560d01b6020820152915061074f565b602581526000602082017f45524332303a207472616e736665722066726f6d20746865207a65726f206164815264647265737360d81b6020820152915061074f565b602481526000602082017f45524332303a20617070726f76652066726f6d20746865207a65726f206164648152637265737360e01b6020820152915061074f565b602581526000602082017f45524332303a2064656372656173656420616c6c6f77616e63652062656c6f77815264207a65726f60d81b6020820152915061074f565b601f81526000602082017f45524332303a206d696e7420746f20746865207a65726f206164647265737300815291506107c5565b806106db565b60ff81166106db565b6020810161024782846106d7565b6020808252810161093681846106e1565b9392505050565b6020808252810161024781610713565b6020808252810161024781610756565b6020808252810161024781610795565b60208082528101610247816107cc565b602080825281016102478161080f565b6020808252810161024781610851565b6020808252810161024781610892565b60208082528101610247816108d4565b602081016102478284610908565b60208101610247828461090e565b600082198211156109ec576109ec610a5b565b500190565b60006001600160a01b038216610247565b60005b83811015610a1d578181015183820152602001610a05565b838111156104d15750506000910152565b600281046001821680610a4257607f821691505b60208210811415610a5557610a55610a71565b50919050565b634e487b7160e01b600052601160045260246000fd5b634e487b7160e01b600052602260045260246000fd5b610a90816109f1565b8114610a9b57600080fd5b50565b80610a9056feddf252ad1be2c89b69c2b068fc378daa952ba7f163c4a11628f55a4df523b3efa26469706673582212204b91947561889bfb97f334250095cc7514903b2d2a855fd3b0ec47a052b3cc1164736f6c63430008070033",
  "devdoc": {
    "kind": "dev",
    "methods": {
      "allowance(address,address)": {
        "details": "See {IERC20-allowance}."
      },
      "approve(address,uint256)": {
        "details": "See {IERC20-approve}. NOTE: If `amount` is the maximum `uint256`, the allowance is not updated on `transferFrom`. This is semantically equivalent to an infinite approval. Requirements: - `spender` cannot be the zero address."
      },
      "balanceOf(address)": {
        "details": "See {IERC20-balanceOf}."
      },
      "decimals()": {
        "details": "Returns the number of decimals used to get its user representation. For example, if `decimals` equals `2`, a balance of `505` tokens should be displayed to a user as `5.05` (`505 / 10 ** 2`). Tokens usually opt for a value of 18, imitating the relationship between Ether and Wei. This is the value {ERC20} uses, unless this function is overridden; NOTE: This information is only used for _display_ purposes: it in no way affects any of the arithmetic of the contract, including {IERC20-balanceOf} and {IERC20-transfer}."
      },
      "decreaseAllowance(address,uint256)": {
        "details": "Atomically decreases the allowance granted to `spender` by the caller. This is an alternative to {approve} that can be used as a mitigation for problems described in {IERC20-approve}. Emits an {Approval} event indicating the updated allowance. Requirements: - `spender` cannot be the zero address. - `spender` must have allowance for the caller of at least `subtractedValue`."
      },
      "increaseAllowance(address,uint256)": {
        "details": "Atomically increases the allowance granted to `spender` by the caller. This is an alternative to {approve} that can be used as a mitigation for problems described in {IERC20-approve}. Emits an {Approval} event indicating the updated allowance. Requirements: - `spender` cannot be the zero address."
      },
      "name()": {
        "details": "Returns the name of the token."
      },
      "symbol()": {
        "details": "Returns the symbol of the token, usually a shorter version of the name."
      },
      "totalSupply()": {
        "details": "See {IERC20-totalSupply}."
      },
      "transfer(address,uint256)": {
        "details": "See {IERC20-transfer}. Requirements: - `to` cannot be the zero address. - the caller must have a balance of at least `amount`."
      },
      "transferFrom(address,address,uint256)": {
        "details": "See {IERC20-transferFrom}. Emits an {Approval} event indicating the updated allowance. This is not required by the EIP. See the note at the beginning of {ERC20}. NOTE: Does not update the allowance if the current allowance is the maximum `uint256`. Requirements: - `from` and `to` cannot be the zero address. - `from` must have a balance of at least `amount`. - the caller must have allowance for ``from``'s tokens of at least `amount`."
      }
    },
    "version": 1
  },
  "userdoc": {
    "kind": "user",
    "methods": {},
    "version": 1
  },
  "storageLayout": {
    "storage": [
      {
        "astId": 629,
        "contract": "contracts/tokens/CORN.sol:CORN",
        "label": "_balances",
        "offset": 0,
        "slot": "0",
        "type": "t_mapping(t_address,t_uint256)"
      },
      {
        "astId": 635,
        "contract": "contracts/tokens/CORN.sol:CORN",
        "label": "_allowances",
        "offset": 0,
        "slot": "1",
        "type": "t_mapping(t_address,t_mapping(t_address,t_uint256))"
      },
      {
        "astId": 637,
        "contract": "contracts/tokens/CORN.sol:CORN",
        "label": "_totalSupply",
        "offset": 0,
        "slot": "2",
        "type": "t_uint256"
      },
      {
        "astId": 639,
        "contract": "contracts/tokens/CORN.sol:CORN",
        "label": "_name",
        "offset": 0,
        "slot": "3",
        "type": "t_string_storage"
      },
      {
        "astId": 641,
        "contract": "contracts/tokens/CORN.sol:CORN",
        "label": "_symbol",
        "offset": 0,
        "slot": "4",
        "type": "t_string_storage"
      }
    ],
    "types": {
      "t_address": {
        "encoding": "inplace",
        "label": "address",
        "numberOfBytes": "20"
      },
      "t_mapping(t_address,t_mapping(t_address,t_uint256))": {
        "encoding": "mapping",
        "key": "t_address",
        "label": "mapping(address => mapping(address => uint256))",
        "numberOfBytes": "32",
        "value": "t_mapping(t_address,t_uint256)"
      },
      "t_mapping(t_address,t_uint256)": {
        "encoding": "mapping",
        "key": "t_address",
        "label": "mapping(address => uint256)",
        "numberOfBytes": "32",
        "value": "t_uint256"
      },
      "t_string_storage": {
        "encoding": "bytes",
        "label": "string",
        "numberOfBytes": "32"
      },
      "t_uint256": {
        "encoding": "inplace",
        "label": "uint256",
        "numberOfBytes": "32"
      }
    }
  }
}