{
  "address": "0x13B9bf9c3914e00e740AAb588Bf4845ED07953f5",
  "abi": [
    {
      "inputs": [
        {
          "internalType": "address",
          "name": "owner",
          "type": "address"
        },
        {
          "internalType": "contract ISoulboundIdentity",
          "name": "_soulBoundIdentity",
          "type": "address"
        },
        {
          "internalType": "uint256",
          "name": "_nameRegistrationPricePerYear",
          "type": "uint256"
        },
        {
          "components": [
            {
              "internalType": "address",
              "name": "swapRouter",
              "type": "address"
            },
            {
              "internalType": "address",
              "name": "wrappedNativeToken",
              "type": "address"
            },
            {
              "internalType": "address",
              "name": "stableCoin",
              "type": "address"
            },
            {
              "internalType": "address",
              "name": "masaToken",
              "type": "address"
            },
            {
              "internalType": "address",
              "name": "reserveWallet",
              "type": "address"
            }
          ],
          "internalType": "struct PaymentGateway.PaymentParams",
          "name": "paymentParams",
          "type": "tuple"
        }
      ],
      "stateMutability": "nonpayable",
      "type": "constructor"
    },
    {
      "inputs": [],
      "name": "AlreadyAdded",
      "type": "error"
    },
    {
      "inputs": [
        {
          "internalType": "uint256",
          "name": "amount",
          "type": "uint256"
        }
      ],
      "name": "InsufficientEthAmount",
      "type": "error"
    },
    {
      "inputs": [
        {
          "internalType": "address",
          "name": "paymentMethod",
          "type": "address"
        }
      ],
      "name": "InvalidPaymentMethod",
      "type": "error"
    },
    {
      "inputs": [],
      "name": "InvalidSignature",
      "type": "error"
    },
    {
      "inputs": [
        {
          "internalType": "address",
          "name": "token",
          "type": "address"
        }
      ],
      "name": "InvalidToken",
      "type": "error"
    },
    {
      "inputs": [
        {
          "internalType": "address",
          "name": "erc20token",
          "type": "address"
        }
      ],
      "name": "NonExistingErc20Token",
      "type": "error"
    },
    {
      "inputs": [
        {
          "internalType": "address",
          "name": "signer",
          "type": "address"
        }
      ],
      "name": "NotAuthorized",
      "type": "error"
    },
    {
      "inputs": [],
      "name": "RefundFailed",
      "type": "error"
    },
    {
      "inputs": [],
      "name": "SameValue",
      "type": "error"
    },
    {
      "inputs": [],
      "name": "TransferFailed",
      "type": "error"
    },
    {
      "inputs": [],
      "name": "ZeroAddress",
      "type": "error"
    },
    {
      "anonymous": false,
      "inputs": [
        {
          "indexed": true,
          "internalType": "address",
          "name": "previousOwner",
          "type": "address"
        },
        {
          "indexed": true,
          "internalType": "address",
          "name": "newOwner",
          "type": "address"
        }
      ],
      "name": "OwnershipTransferred",
      "type": "event"
    },
    {
      "anonymous": false,
      "inputs": [
        {
          "indexed": false,
          "internalType": "address",
          "name": "account",
          "type": "address"
        }
      ],
      "name": "Paused",
      "type": "event"
    },
    {
      "anonymous": false,
      "inputs": [
        {
          "indexed": true,
          "internalType": "address",
          "name": "account",
          "type": "address"
        },
        {
          "indexed": false,
          "internalType": "uint256",
          "name": "tokenId",
          "type": "uint256"
        },
        {
          "indexed": true,
          "internalType": "string",
          "name": "name",
          "type": "string"
        },
        {
          "indexed": false,
          "internalType": "uint256",
          "name": "yearsPeriod",
          "type": "uint256"
        }
      ],
      "name": "SoulNamePurchased",
      "type": "event"
    },
    {
      "anonymous": false,
      "inputs": [
        {
          "indexed": true,
          "internalType": "address",
          "name": "account",
          "type": "address"
        },
        {
          "indexed": false,
          "internalType": "uint256",
          "name": "tokenId",
          "type": "uint256"
        },
        {
          "indexed": true,
          "internalType": "string",
          "name": "name",
          "type": "string"
        },
        {
          "indexed": false,
          "internalType": "uint256",
          "name": "yearsPeriod",
          "type": "uint256"
        }
      ],
      "name": "SoulboundIdentityAndNamePurchased",
      "type": "event"
    },
    {
      "anonymous": false,
      "inputs": [
        {
          "indexed": true,
          "internalType": "address",
          "name": "account",
          "type": "address"
        },
        {
          "indexed": false,
          "internalType": "uint256",
          "name": "tokenId",
          "type": "uint256"
        }
      ],
      "name": "SoulboundIdentityPurchased",
      "type": "event"
    },
    {
      "anonymous": false,
      "inputs": [
        {
          "indexed": false,
          "internalType": "address",
          "name": "account",
          "type": "address"
        }
      ],
      "name": "Unpaused",
      "type": "event"
    },
    {
      "inputs": [
        {
          "internalType": "address",
          "name": "_authority",
          "type": "address"
        }
      ],
      "name": "addAuthority",
      "outputs": [],
      "stateMutability": "nonpayable",
      "type": "function"
    },
    {
      "inputs": [
        {
          "internalType": "address",
          "name": "",
          "type": "address"
        }
      ],
      "name": "authorities",
      "outputs": [
        {
          "internalType": "bool",
          "name": "",
          "type": "bool"
        }
      ],
      "stateMutability": "view",
      "type": "function"
    },
    {
      "inputs": [
        {
          "internalType": "address",
          "name": "_paymentMethod",
          "type": "address"
        }
      ],
      "name": "disablePaymentMethod",
      "outputs": [],
      "stateMutability": "nonpayable",
      "type": "function"
    },
    {
      "inputs": [
        {
          "internalType": "address",
          "name": "_paymentMethod",
          "type": "address"
        }
      ],
      "name": "enablePaymentMethod",
      "outputs": [],
      "stateMutability": "nonpayable",
      "type": "function"
    },
    {
      "inputs": [
        {
          "internalType": "address",
          "name": "",
          "type": "address"
        }
      ],
      "name": "enabledPaymentMethod",
      "outputs": [
        {
          "internalType": "bool",
          "name": "",
          "type": "bool"
        }
      ],
      "stateMutability": "view",
      "type": "function"
    },
    {
      "inputs": [
        {
          "internalType": "uint256",
          "name": "",
          "type": "uint256"
        }
      ],
      "name": "enabledPaymentMethods",
      "outputs": [
        {
          "internalType": "address",
          "name": "",
          "type": "address"
        }
      ],
      "stateMutability": "view",
      "type": "function"
    },
    {
      "inputs": [],
      "name": "getEnabledPaymentMethods",
      "outputs": [
        {
          "internalType": "address[]",
          "name": "",
          "type": "address[]"
        }
      ],
      "stateMutability": "view",
      "type": "function"
    },
    {
      "inputs": [
        {
          "internalType": "uint256",
          "name": "nameLength",
          "type": "uint256"
        }
      ],
      "name": "getNameRegistrationPricePerYear",
      "outputs": [
        {
          "internalType": "uint256",
          "name": "",
          "type": "uint256"
        }
      ],
      "stateMutability": "view",
      "type": "function"
    },
    {
      "inputs": [
        {
          "internalType": "address",
          "name": "paymentMethod",
          "type": "address"
        },
        {
          "internalType": "uint256",
          "name": "nameLength",
          "type": "uint256"
        },
        {
          "internalType": "uint256",
          "name": "yearsPeriod",
          "type": "uint256"
        }
      ],
      "name": "getPriceForMintingName",
      "outputs": [
        {
          "internalType": "uint256",
          "name": "",
          "type": "uint256"
        }
      ],
      "stateMutability": "view",
      "type": "function"
    },
    {
      "inputs": [],
      "name": "masaToken",
      "outputs": [
        {
          "internalType": "address",
          "name": "",
          "type": "address"
        }
      ],
      "stateMutability": "view",
      "type": "function"
    },
    {
      "inputs": [
        {
          "internalType": "uint256",
          "name": "",
          "type": "uint256"
        }
      ],
      "name": "nameRegistrationPricePerYear",
      "outputs": [
        {
          "internalType": "uint256",
          "name": "",
          "type": "uint256"
        }
      ],
      "stateMutability": "view",
      "type": "function"
    },
    {
      "inputs": [],
      "name": "owner",
      "outputs": [
        {
          "internalType": "address",
          "name": "",
          "type": "address"
        }
      ],
      "stateMutability": "view",
      "type": "function"
    },
    {
      "inputs": [],
      "name": "pause",
      "outputs": [],
      "stateMutability": "nonpayable",
      "type": "function"
    },
    {
      "inputs": [],
      "name": "paused",
      "outputs": [
        {
          "internalType": "bool",
          "name": "",
          "type": "bool"
        }
      ],
      "stateMutability": "view",
      "type": "function"
    },
    {
      "inputs": [],
      "name": "purchaseIdentity",
      "outputs": [
        {
          "internalType": "uint256",
          "name": "",
          "type": "uint256"
        }
      ],
      "stateMutability": "nonpayable",
      "type": "function"
    },
    {
      "inputs": [
        {
          "internalType": "address",
          "name": "paymentMethod",
          "type": "address"
        },
        {
          "internalType": "string",
          "name": "name",
          "type": "string"
        },
        {
          "internalType": "uint256",
          "name": "nameLength",
          "type": "uint256"
        },
        {
          "internalType": "uint256",
          "name": "yearsPeriod",
          "type": "uint256"
        },
        {
          "internalType": "string",
          "name": "tokenURI",
          "type": "string"
        },
        {
          "internalType": "address",
          "name": "authorityAddress",
          "type": "address"
        },
        {
          "internalType": "bytes",
          "name": "signature",
          "type": "bytes"
        }
      ],
      "name": "purchaseIdentityAndName",
      "outputs": [
        {
          "internalType": "uint256",
          "name": "",
          "type": "uint256"
        }
      ],
      "stateMutability": "payable",
      "type": "function"
    },
    {
      "inputs": [
        {
          "internalType": "address",
          "name": "paymentMethod",
          "type": "address"
        },
        {
          "internalType": "address",
          "name": "to",
          "type": "address"
        },
        {
          "internalType": "string",
          "name": "name",
          "type": "string"
        },
        {
          "internalType": "uint256",
          "name": "nameLength",
          "type": "uint256"
        },
        {
          "internalType": "uint256",
          "name": "yearsPeriod",
          "type": "uint256"
        },
        {
          "internalType": "string",
          "name": "tokenURI",
          "type": "string"
        },
        {
          "internalType": "address",
          "name": "authorityAddress",
          "type": "address"
        },
        {
          "internalType": "bytes",
          "name": "signature",
          "type": "bytes"
        }
      ],
      "name": "purchaseName",
      "outputs": [
        {
          "internalType": "uint256",
          "name": "",
          "type": "uint256"
        }
      ],
      "stateMutability": "payable",
      "type": "function"
    },
    {
      "inputs": [],
      "name": "renounceOwnership",
      "outputs": [],
      "stateMutability": "nonpayable",
      "type": "function"
    },
    {
      "inputs": [],
      "name": "reserveWallet",
      "outputs": [
        {
          "internalType": "address",
          "name": "",
          "type": "address"
        }
      ],
      "stateMutability": "view",
      "type": "function"
    },
    {
      "inputs": [
        {
          "internalType": "address",
          "name": "_masaToken",
          "type": "address"
        }
      ],
      "name": "setMasaToken",
      "outputs": [],
      "stateMutability": "nonpayable",
      "type": "function"
    },
    {
      "inputs": [
        {
          "internalType": "uint256",
          "name": "_nameLength",
          "type": "uint256"
        },
        {
          "internalType": "uint256",
          "name": "_nameRegistrationPricePerYear",
          "type": "uint256"
        }
      ],
      "name": "setNameRegistrationPricePerYear",
      "outputs": [],
      "stateMutability": "nonpayable",
      "type": "function"
    },
    {
      "inputs": [
        {
          "internalType": "address",
          "name": "_reserveWallet",
          "type": "address"
        }
      ],
      "name": "setReserveWallet",
      "outputs": [],
      "stateMutability": "nonpayable",
      "type": "function"
    },
    {
      "inputs": [
        {
          "internalType": "contract ISoulboundIdentity",
          "name": "_soulboundIdentity",
          "type": "address"
        }
      ],
      "name": "setSoulboundIdentity",
      "outputs": [],
      "stateMutability": "nonpayable",
      "type": "function"
    },
    {
      "inputs": [
        {
          "internalType": "address",
          "name": "_stableCoin",
          "type": "address"
        }
      ],
      "name": "setStableCoin",
      "outputs": [],
      "stateMutability": "nonpayable",
      "type": "function"
    },
    {
      "inputs": [
        {
          "internalType": "address",
          "name": "_swapRouter",
          "type": "address"
        }
      ],
      "name": "setSwapRouter",
      "outputs": [],
      "stateMutability": "nonpayable",
      "type": "function"
    },
    {
      "inputs": [
        {
          "internalType": "address",
          "name": "_wrappedNativeToken",
          "type": "address"
        }
      ],
      "name": "setWrappedNativeToken",
      "outputs": [],
      "stateMutability": "nonpayable",
      "type": "function"
    },
    {
      "inputs": [],
      "name": "soulboundIdentity",
      "outputs": [
        {
          "internalType": "contract ISoulboundIdentity",
          "name": "",
          "type": "address"
        }
      ],
      "stateMutability": "view",
      "type": "function"
    },
    {
      "inputs": [],
      "name": "stableCoin",
      "outputs": [
        {
          "internalType": "address",
          "name": "",
          "type": "address"
        }
      ],
      "stateMutability": "view",
      "type": "function"
    },
    {
      "inputs": [],
      "name": "swapRouter",
      "outputs": [
        {
          "internalType": "address",
          "name": "",
          "type": "address"
        }
      ],
      "stateMutability": "view",
      "type": "function"
    },
    {
      "inputs": [
        {
          "internalType": "address",
          "name": "newOwner",
          "type": "address"
        }
      ],
      "name": "transferOwnership",
      "outputs": [],
      "stateMutability": "nonpayable",
      "type": "function"
    },
    {
      "inputs": [],
      "name": "unpause",
      "outputs": [],
      "stateMutability": "nonpayable",
      "type": "function"
    },
    {
      "inputs": [],
      "name": "wrappedNativeToken",
      "outputs": [
        {
          "internalType": "address",
          "name": "",
          "type": "address"
        }
      ],
      "stateMutability": "view",
      "type": "function"
    }
  ],
  "transactionHash": "0xf2806d76d9c16b15ca1d22b101ba5d5a177dbcdfa6b686c066c4eadd5e0c3d0f",
  "args": [
    "0xA38dd237a3A8D50537B74a4B0D4E7E8A5359386F",
    "0x04FB5fB3aE822B9d9e4060eDCcDA44b76821D090",
    "10000000",
    [
      "0x7a250d5630B4cF539739dF2C5dAcb4c659F2488D",
      "0xB4FBF271143F4FBf7B91A5ded31805e42b2208d6",
      "0xD87Ba7A50B2E7E660f678A895E4B72E7CB4CCd9C",
      "0x1f9840a85d5aF5bf1D1762F925BDADdC4201F984",
      "0xA38dd237a3A8D50537B74a4B0D4E7E8A5359386F"
    ]
  ],
  "numDeployments": 1,
  "solcInputHash": "ecc8060d452d43fe90726577de0787b2",
  "bytecode": "0x6101406040523480156200001257600080fd5b50604051620032e4380380620032e4833981016040819052620000359162000478565b60405180604001604052806009815260200168536f756c53746f726560b81b815250604051806040016040528060058152602001640312e302e360dc1b8152508583620000916200008b620002ae60201b60201c565b620002b2565b80516001600160a01b0316620000ba5760405163d92e233d60e01b815260040160405180910390fd5b60208101516001600160a01b0316620000e65760405163d92e233d60e01b815260040160405180910390fd5b60408101516001600160a01b0316620001125760405163d92e233d60e01b815260040160405180910390fd5b60808101516001600160a01b03166200013e5760405163d92e233d60e01b815260040160405180910390fd5b62000154826200030260201b62000dea1760201c565b8051600180546001600160a01b03199081166001600160a01b0393841617825560208085015160028054841691861691909117905560408501516003805484169186169190911790556060850151600480549093169085161790915560809093015160078054919093166001600160a81b03199091161790915560085583518482012083519184019190912060e08290526101008190524660a0529091507f8b73c3c69bb8fe3d512ecc4cf759cc79239f7b179b0ffacaa9a75d522b39400f620002208184846200034c565b6080523060601b60c05261012052505050506001600160a01b0383166200025a5760405163d92e233d60e01b815260040160405180910390fd5b50600980546001600160a01b0319166001600160a01b03939093169290921790915560008052600a6020527f13da86008ba1c6922daee3e07db95305ef49ebced9f5467a0b8613fcc6b343e3555062000687565b3390565b600080546001600160a01b038381166001600160a01b0319831681178455604051919092169283917f8be0079c531659141344cd1fd0a4f28419497f9722a3daafe3b4186f6b6457e09190a35050565b6200030c62000388565b6001600160a01b0381166200033e5760405162461bcd60e51b8152600401620003359062000555565b60405180910390fd5b6200034981620002b2565b50565b6000838383463060405160200162000369959493929190620004ff565b6040516020818303038152906040528051906020012090509392505050565b6000546001600160a01b03163314620003b55760405162461bcd60e51b81526004016200033590620005a0565b565b8051620003c4816200065e565b92915050565b8051620003c48162000675565b600060a08284031215620003ee57620003ee600080fd5b620003fa60a0620005db565b905060006200040a8484620003b7565b82525060206200041d84848301620003b7565b60208301525060406200043384828501620003b7565b60408301525060606200044984828501620003b7565b60608301525060806200045f84828501620003b7565b60808301525092915050565b8051620003c48162000680565b6000806000806101008587031215620004945762000494600080fd5b6000620004a28787620003b7565b9450506020620004b587828801620003ca565b9350506040620004c8878288016200046b565b9250506060620004db87828801620003d7565b91505092959194509250565b620004f281620005fa565b82525050565b80620004f2565b60a081016200050f8288620004f8565b6200051e6020830187620004f8565b6200052d6040830186620004f8565b6200053c6060830185620004f8565b6200054b6080830184620004e7565b9695505050505050565b60208082528101620003c481602681527f4f776e61626c653a206e6577206f776e657220697320746865207a65726f206160208201526564647265737360d01b604082015260600190565b60208082528181019081527f4f776e61626c653a2063616c6c6572206973206e6f7420746865206f776e6572604083015260608201620003c4565b6000620005e760405190565b9050620005f5828262000619565b919050565b60006001600160a01b038216620003c4565b6000620003c482620005fa565b601f19601f83011681018181106001600160401b038211171562000641576200064162000648565b6040525050565b634e487b7160e01b600052604160045260246000fd5b6200066981620005fa565b81146200034957600080fd5b62000669816200060c565b8062000669565b60805160a05160c05160601c60e0516101005161012051612c0a620006da6000396000611acb01526000611b0d01526000611aec01526000611a5001526000611a7a01526000611aa40152612c0a6000f3fe6080604052600436106101735760003560e01c80630513c3e91461017857806310200519146101ae57806312553e41146101d057806317fcb39b146101f257806323af4e171461021257806326defa73146102345780633ad3033e146102545780633f4ba83a1461027457806341273657146102895780634e273d21146102a95780635a394675146102c95780635c975abb146102dc578063715018a6146102fe57806374a99f8b1461031357806376ad19971461033357806377bed5ed146103535780637a0d1646146103805780638456cb59146103b05780638da5cb5b146103c557806390ce8416146103da57806391223d69146103fa57806394a665e91461042a578063992642e51461044a578063c31c9c071461046a578063c86aadb61461048a578063d72b11bd146104aa578063da058ae3146104ca578063dda4fa8f146104ea578063eaf94aec1461050a578063ebda439614610537578063f2fde38b14610557578063f615283a14610577575b600080fd5b34801561018457600080fd5b50610198610193366004612316565b61058a565b6040516101a5919061275c565b60405180910390f35b3480156101ba57600080fd5b506101c36105b4565b6040516101a591906127d3565b3480156101dc57600080fd5b506101e5610616565b6040516101a591906129a1565b3480156101fe57600080fd5b50600254610198906001600160a01b031681565b34801561021e57600080fd5b5061023261022d366004612012565b610664565b005b34801561024057600080fd5b5061023261024f366004612012565b6106e4565b34801561026057600080fd5b5061023261026f3660046122f5565b610771565b34801561028057600080fd5b506102326107f1565b34801561029557600080fd5b506102326102a4366004612012565b610803565b3480156102b557600080fd5b506101e56102c4366004612316565b610883565b6101e56102d7366004612033565b6108ca565b3480156102e857600080fd5b506102f1610933565b6040516101a591906127e4565b34801561030a57600080fd5b50610232610943565b34801561031f57600080fd5b5061023261032e366004612358565b610955565b34801561033f57600080fd5b5061023261034e366004612012565b61099e565b34801561035f57600080fd5b50600954610373906001600160a01b031681565b6040516101a591906128c2565b34801561038c57600080fd5b506102f161039b366004612012565b60056020526000908152604090205460ff1681565b3480156103bc57600080fd5b506102326109f7565b3480156103d157600080fd5b50610198610a07565b3480156103e657600080fd5b506101e56103f5366004612229565b610a16565b34801561040657600080fd5b506102f1610415366004612012565b600b6020526000908152604090205460ff1681565b34801561043657600080fd5b50610232610445366004612012565b610ad5565b34801561045657600080fd5b50600354610198906001600160a01b031681565b34801561047657600080fd5b50600154610198906001600160a01b031681565b34801561049657600080fd5b506102326104a5366004612012565b610c42565b3480156104b657600080fd5b50600754610198906001600160a01b031681565b3480156104d657600080fd5b506102326104e5366004612012565b610cea565b3480156104f657600080fd5b50610232610505366004612012565b610d6a565b34801561051657600080fd5b506101e5610525366004612316565b600a6020526000908152604090205481565b34801561054357600080fd5b50600454610198906001600160a01b031681565b34801561056357600080fd5b50610232610572366004612012565b610dea565b6101e5610585366004612138565b610e24565b6006818154811061059a57600080fd5b6000918252602090912001546001600160a01b0316905081565b6060600680548060200260200160405190810160405280929190818152602001828054801561060c57602002820191906000526020600020905b81546001600160a01b031681526001909101906020018083116105ee575b5050505050905090565b6000610620610e87565b6002600854141561064c5760405162461bcd60e51b815260040161064390612991565b60405180910390fd5b600260085561065a33610eac565b9050600160085590565b61066c610f7c565b6001600160a01b0381166106935760405163d92e233d60e01b815260040160405180910390fd5b6003546001600160a01b03828116911614156106c25760405163c23f6ccb60e01b815260040160405180910390fd5b600380546001600160a01b0319166001600160a01b0392909216919091179055565b6106ec610f7c565b6001600160a01b0381166107135760405163d92e233d60e01b815260040160405180910390fd5b6001600160a01b0381166000908152600b602052604090205460ff161561074d5760405163f411c32760e01b815260040160405180910390fd5b6001600160a01b03166000908152600b60205260409020805460ff19166001179055565b610779610f7c565b6001600160a01b0381166107a05760405163d92e233d60e01b815260040160405180910390fd5b6009546001600160a01b03828116911614156107cf5760405163c23f6ccb60e01b815260040160405180910390fd5b600980546001600160a01b0319166001600160a01b0392909216919091179055565b6107f9610f7c565b610801610fab565b565b61080b610f7c565b6001600160a01b0381166108325760405163d92e233d60e01b815260040160405180910390fd5b6001546001600160a01b03828116911614156108615760405163c23f6ccb60e01b815260040160405180910390fd5b600180546001600160a01b0319166001600160a01b0392909216919091179055565b6000818152600a6020526040812054806108c4575060008052600a6020527f13da86008ba1c6922daee3e07db95305ef49ebced9f5467a0b8613fcc6b343e3545b92915050565b60006108d4610e87565b600260085414156108f75760405162461bcd60e51b815260040161064390612991565b60026008556109108a61090b818a8a610a16565b610ffa565b61092089898989898989896111a7565b60016008559a9950505050505050505050565b600754600160a01b900460ff1690565b61094b610f7c565b6108016000611365565b61095d610f7c565b6000828152600a602052604090205481141561098c5760405163c23f6ccb60e01b815260040160405180910390fd5b6000918252600a602052604090912055565b6109a6610f7c565b6004546001600160a01b03828116911614156109d55760405163c23f6ccb60e01b815260040160405180910390fd5b600480546001600160a01b0319166001600160a01b0392909216919091179055565b6109ff610f7c565b6108016113b5565b6000546001600160a01b031690565b600080610a2c83610a2686610883565b906113f8565b905080610a3d576000915050610ace565b6003546001600160a01b038681169116148015610a7257506001600160a01b03851660009081526005602052604090205460ff165b15610a7e579050610ace565b6001600160a01b03851660009081526005602052604090205460ff1615610ab157610aa98582611404565b915050610ace565b84604051630ac29ab760e31b8152600401610643919061275c565b505b9392505050565b610add610f7c565b6001600160a01b03811660009081526005602052604090205460ff16610b1857806040516318317bd560e01b8152600401610643919061275c565b6001600160a01b0381166000908152600560205260408120805460ff191690555b600654811015610c3e57816001600160a01b031660068281548110610b6057610b60612b73565b6000918252602090912001546001600160a01b03161415610c2c5760068054610b8b90600190612a73565b81548110610b9b57610b9b612b73565b600091825260209091200154600680546001600160a01b039092169183908110610bc757610bc7612b73565b9060005260206000200160006101000a8154816001600160a01b0302191690836001600160a01b031602179055506006805480610c0657610c06612b5d565b600082815260209020810160001990810180546001600160a01b03191690550190555050565b80610c3681612b16565b915050610b39565b5050565b610c4a610f7c565b6001600160a01b03811660009081526005602052604090205460ff1615610c845760405163f411c32760e01b815260040160405180910390fd5b6001600160a01b03166000818152600560205260408120805460ff191660019081179091556006805491820181559091527ff652222313e28459528d920b65115c16c04f3efc82aaedc97be59f3f377c0d3f0180546001600160a01b0319169091179055565b610cf2610f7c565b6001600160a01b038116610d195760405163d92e233d60e01b815260040160405180910390fd5b6002546001600160a01b0382811691161415610d485760405163c23f6ccb60e01b815260040160405180910390fd5b600280546001600160a01b0319166001600160a01b0392909216919091179055565b610d72610f7c565b6001600160a01b038116610d995760405163d92e233d60e01b815260040160405180910390fd5b6007546001600160a01b0382811691161415610dc85760405163c23f6ccb60e01b815260040160405180910390fd5b600780546001600160a01b0319166001600160a01b0392909216919091179055565b610df2610f7c565b6001600160a01b038116610e185760405162461bcd60e51b815260040161064390612911565b610e2181611365565b50565b6000610e2e610e87565b60026008541415610e515760405162461bcd60e51b815260040161064390612991565b6002600855610e658961090b818a8a610a16565b610e7533898989898989896114a3565b60016008559998505050505050505050565b610e8f610933565b156108015760405162461bcd60e51b815260040161064390612941565b6009546040516335313c2160e11b815260009182916001600160a01b0390911690636a62784290610ee190869060040161275c565b602060405180830381600087803b158015610efb57600080fd5b505af1158015610f0f573d6000803e3d6000fd5b505050506040513d601f19601f82011682018060405250810190610f339190612337565b9050826001600160a01b03167fe6fdadff80ae44015b9aa37d4edb70f70a8db7535a0df98de6dc5ffd11ec0c2f82604051610f6e91906129a1565b60405180910390a292915050565b33610f85610a07565b6001600160a01b0316146108015760405162461bcd60e51b815260040161064390612961565b610fb36115a6565b6007805460ff60a01b191690557f5db9ee0a495bf2e6ff9c91a7834c1ba4fdd244a5e8aa4e537bd38aeae4b073aa335b604051610ff0919061275c565b60405180910390a1565b80611003575050565b6001600160a01b03821660009081526005602052604090205460ff1661103e5781604051630ac29ab760e31b8152600401610643919061275c565b6001600160a01b03821661118b578034101561106f578060405163091a6d0f60e01b815260040161064391906129a1565b6007546040516000916001600160a01b031690839061108d90612754565b60006040518083038185875af1925050503d80600081146110ca576040519150601f19603f3d011682016040523d82523d6000602084013e6110cf565b606091505b50509050806110f1576040516312171d8360e31b815260040160405180910390fd5b8134111561118657600061110534846115ca565b9050336001600160a01b03168160405161111e90612754565b60006040518083038185875af1925050503d806000811461115b576040519150601f19603f3d011682016040523d82523d6000602084013e611160565b606091505b5050809250508161118457604051633c31275160e21b815260040160405180910390fd5b505b505050565b600754610c3e906001600160a01b0384811691339116846115d6565b60006111f76111b98a8a8a8a8a61162e565b84848080601f0160208091040260200160405190810160405280939291908181526020018383808284376000920191909152508992506116a3915050565b6009546040805163b507d48160e01b815290516000926001600160a01b03169163b507d481916004808301926020929190829003018186803b15801561123c57600080fd5b505afa158015611250573d6000803e3d6000fd5b505050506040513d601f19601f8201168201806040525081019061127491906122d4565b90506000816001600160a01b0316633dd904308c8c8b8b6040518563ffffffff1660e01b81526004016112aa9493929190612792565b602060405180830381600087803b1580156112c457600080fd5b505af11580156112d8573d6000803e3d6000fd5b505050506040513d601f19601f820116820180604052508101906112fc9190612337565b90508960405161130c9190612717565b60405180910390208b6001600160a01b03167f32044e50415e96c0068a718b8df9993f4803b2e54518d56c52ef6438a91619aa838b60405161134f9291906129cf565b60405180910390a39a9950505050505050505050565b600080546001600160a01b038381166001600160a01b0319831681178455604051919092169283917f8be0079c531659141344cd1fd0a4f28419497f9722a3daafe3b4186f6b6457e09190a35050565b6113bd610e87565b6007805460ff60a01b1916600160a01b1790557f62e78cea01bee320cd4e420270b5ea74000d11b0c9f74754ebdbfc544b05a258610fe33390565b6000610ace8284612a54565b6001600160a01b03821660009081526005602052604081205460ff16158061143957506003546001600160a01b038481169116145b15611459578260405163961c9a4f60e01b8152600401610643919061275c565b6001600160a01b03831661148b57600254600354611484916001600160a01b0390811691168461171e565b90506108c4565b6003546114849084906001600160a01b03168461171e565b60006114b56111b98a8a8a8a8a61162e565b6009546040516328a0a29f60e11b81526000916001600160a01b031690635141453e906114ec908d908d908c908c90600401612792565b602060405180830381600087803b15801561150657600080fd5b505af115801561151a573d6000803e3d6000fd5b505050506040513d601f19601f8201168201806040525081019061153e9190612337565b90508860405161154e9190612717565b60405180910390208a6001600160a01b03167f60579b770d8bde9b5f57c468ffb4acb023252b190304137b45b86b72f66a1940838a6040516115919291906129cf565b60405180910390a39998505050505050505050565b6115ae610933565b6108015760405162461bcd60e51b8152600401610643906128f1565b6000610ace8284612a73565b611184846323b872dd60e01b8585856040516024016115f79392919061276a565b60408051601f198184030181529190526020810180516001600160e01b03166001600160e01b0319909316929092179091526117dc565b60006116977f7503a77cf463259868f167e5b04bb93b908e722f1d532d8a0635f83ea802a2c18787805190602001208787878051906020012060405160200161167c969594939291906127f2565b6040516020818303038152906040528051906020012061186b565b90505b95945050505050565b60006116af848461187e565b9050816001600160a01b0316816001600160a01b0316146116e357604051638baa579f60e01b815260040160405180910390fd5b6001600160a01b0381166000908152600b602052604090205460ff166111845780604051634a0bfec160e01b8152600401610643919061275c565b600060608061172d868661189a565b6001546040516307c0329d60e21b81529192506001600160a01b031690631f00ca749061176090879085906004016129af565b60006040518083038186803b15801561177857600080fd5b505afa15801561178c573d6000803e3d6000fd5b505050506040513d6000823e601f3d908101601f191682016040526117b49190810190612279565b9150816000815181106117c9576117c9612b73565b6020026020010151925050509392505050565b6000611831826040518060400160405280602081526020017f5361666545524332303a206c6f772d6c6576656c2063616c6c206661696c6564815250856001600160a01b0316611a2c9092919063ffffffff16565b805190915015611186578080602001905181019061184f91906122b3565b6111865760405162461bcd60e51b815260040161064390612981565b60006108c4611878611a43565b83611b36565b600080600061188d8585611b69565b91509150610acc81611baf565b6002546060906001600160a01b03848116911614806118c657506002546001600160a01b038381169116145b1561199057604080516002808252606082018352600092602083019080368337019050506002549091506001600160a01b038581169116146119085783611915565b6002546001600160a01b03165b8160008151811061192857611928612b73565b6001600160a01b039283166020918202929092010152600254848216911614611951578261195e565b6002546001600160a01b03165b8160018151811061197157611971612b73565b6001600160a01b039092166020928302919091019091015290506108c4565b604080516003808252608082019092526000916020820160608036833701905050905083816000815181106119c7576119c7612b73565b6001600160a01b0392831660209182029290920101526002548251911690829060019081106119f8576119f8612b73565b60200260200101906001600160a01b031690816001600160a01b031681525050828160028151811061197157611971612b73565b6060611a3b8484600085611c94565b949350505050565b6000306001600160a01b037f000000000000000000000000000000000000000000000000000000000000000016148015611a9c57507f000000000000000000000000000000000000000000000000000000000000000046145b15611ac657507f000000000000000000000000000000000000000000000000000000000000000090565b611b317f00000000000000000000000000000000000000000000000000000000000000007f00000000000000000000000000000000000000000000000000000000000000007f0000000000000000000000000000000000000000000000000000000000000000611d56565b905090565b60008282604051602001611b4b929190612723565b60405160208183030381529060405280519060200120905092915050565b600080825160411415611ba05760208301516040840151606085015160001a611b9487828585611d90565b94509450505050611ba8565b506000905060025b9250929050565b6000816004811115611bc357611bc3612b47565b1415611bcc5750565b6001816004811115611be057611be0612b47565b1415611bfe5760405162461bcd60e51b8152600401610643906128e1565b6002816004811115611c1257611c12612b47565b1415611c305760405162461bcd60e51b815260040161064390612901565b6003816004811115611c4457611c44612b47565b1415611c625760405162461bcd60e51b815260040161064390612921565b6004816004811115611c7657611c76612b47565b1415610e215760405162461bcd60e51b815260040161064390612951565b606082471015611cb65760405162461bcd60e51b815260040161064390612931565b6001600160a01b0385163b611cdd5760405162461bcd60e51b815260040161064390612971565b600080866001600160a01b03168587604051611cf99190612717565b60006040518083038185875af1925050503d8060008114611d36576040519150601f19603f3d011682016040523d82523d6000602084013e611d3b565b606091505b5091509150611d4b828286611e66565b979650505050505050565b60008383834630604051602001611d71959493929190612841565b6040516020818303038152906040528051906020012090509392505050565b6000806fa2a8918ca85bafe22016d0b997e4df60600160ff1b03831115611dbd5750600090506003611e5d565b8460ff16601b14158015611dd557508460ff16601c14155b15611de65750600090506004611e5d565b600060018787878760405160008152602001604052604051611e0b949392919061288d565b6020604051602081039080840390855afa158015611e2d573d6000803e3d6000fd5b5050604051601f1901519150506001600160a01b038116611e5657600060019250925050611e5d565b9150600090505b94509492505050565b60608315611e75575081610ace565b825115611e855782518084602001fd5b8160405162461bcd60e51b815260040161064391906128d0565b6000611eb2611ead84612a06565b6129ea565b90508083825260208201905082856020860282011115611ed457611ed4600080fd5b60005b85811015611f005781611eea8882612007565b8452506020928301929190910190600101611ed7565b5050509392505050565b6000611f18611ead84612a29565b905082815260208101848484011115611f3357611f33600080fd5b610acc848285612ab1565b80356108c481612ba9565b600082601f830112611f5d57611f5d600080fd5b8151611a3b848260208601611e9f565b80516108c481612bbd565b60008083601f840112611f8d57611f8d600080fd5b5081356001600160401b03811115611fa757611fa7600080fd5b602083019150836001820283011115611ba857611ba8600080fd5b80516108c481612bc5565b80356108c481612bc5565b600082601f830112611fec57611fec600080fd5b8135611a3b848260208601611f0a565b80356108c481612bce565b80516108c481612bce565b60006020828403121561202757612027600080fd5b6000611a3b8484611f3e565b60008060008060008060008060006101008a8c03121561205557612055600080fd5b60006120618c8c611f3e565b99505060206120728c828d01611f3e565b98505060408a01356001600160401b0381111561209157612091600080fd5b61209d8c828d01611fd8565b97505060606120ae8c828d01611ffc565b96505060806120bf8c828d01611ffc565b95505060a08a01356001600160401b038111156120de576120de600080fd5b6120ea8c828d01611fd8565b94505060c06120fb8c828d01611f3e565b93505060e08a01356001600160401b0381111561211a5761211a600080fd5b6121268c828d01611f78565b92509250509295985092959850929598565b60008060008060008060008060e0898b03121561215757612157600080fd5b60006121638b8b611f3e565b98505060208901356001600160401b0381111561218257612182600080fd5b61218e8b828c01611fd8565b975050604061219f8b828c01611ffc565b96505060606121b08b828c01611ffc565b95505060808901356001600160401b038111156121cf576121cf600080fd5b6121db8b828c01611fd8565b94505060a06121ec8b828c01611f3e565b93505060c08901356001600160401b0381111561220b5761220b600080fd5b6122178b828c01611f78565b92509250509295985092959890939650565b60008060006060848603121561224157612241600080fd5b600061224d8686611f3e565b935050602061225e86828701611ffc565b925050604061226f86828701611ffc565b9150509250925092565b60006020828403121561228e5761228e600080fd5b81516001600160401b038111156122a7576122a7600080fd5b611a3b84828501611f49565b6000602082840312156122c8576122c8600080fd5b6000611a3b8484611f6d565b6000602082840312156122e9576122e9600080fd5b6000611a3b8484611fc2565b60006020828403121561230a5761230a600080fd5b6000611a3b8484611fcd565b60006020828403121561232b5761232b600080fd5b6000611a3b8484611ffc565b60006020828403121561234c5761234c600080fd5b6000611a3b8484612007565b6000806040838503121561236e5761236e600080fd5b600061237a8585611ffc565b925050602061238b85828601611ffc565b9150509250929050565b60006123a183836123a9565b505060200190565b6123b281612a8a565b82525050565b60006123c2825190565b80845260209384019383018060005b838110156123f65781516123e58882612395565b9750602083019250506001016123d1565b509495945050505050565b8015156123b2565b806123b2565b6000612419825190565b612427818560208601612abd565b9290920192915050565b6123b281612aa6565b6000612444825190565b80845260208401935061245b818560208601612abd565b61246481612b9f565b9093019392505050565b601881526000602082017745434453413a20696e76616c6964207369676e617475726560401b815291505b5060200190565b601481526000602082017314185d5cd8589b194e881b9bdd081c185d5cd95960621b81529150612499565b601f81526000602082017f45434453413a20696e76616c6964207369676e6174757265206c656e6774680081529150612499565b602681526000602082017f4f776e61626c653a206e6577206f776e657220697320746865207a65726f206181526564647265737360d01b602082015291505b5060400190565b602281526000602082017f45434453413a20696e76616c6964207369676e6174757265202773272076616c815261756560f01b6020820152915061253e565b602681526000602082017f416464726573733a20696e73756666696369656e742062616c616e636520666f8152651c8818d85b1b60d21b6020820152915061253e565b601081526000602082016f14185d5cd8589b194e881c185d5cd95960821b81529150612499565b602281526000602082017f45434453413a20696e76616c6964207369676e6174757265202776272076616c815261756560f01b6020820152915061253e565b60208082527f4f776e61626c653a2063616c6c6572206973206e6f7420746865206f776e657291019081526000612499565b601d81526000602082017f416464726573733a2063616c6c20746f206e6f6e2d636f6e747261637400000081529150612499565b602a81526000602082017f5361666545524332303a204552433230206f7065726174696f6e20646964206e8152691bdd081cdd58d8d9595960b21b6020820152915061253e565b601f81526000602082017f5265656e7472616e637947756172643a207265656e7472616e742063616c6c0081529150612499565b60ff81166123b2565b6000610ace828461240f565b61190160f01b8152600201600061273a8285612409565b60208201915061274a8284612409565b5060200192915050565b6000816108c4565b602081016108c482846123a9565b6060810161277882866123a9565b61278560208301856123a9565b611a3b6040830184612409565b608081016127a082876123a9565b81810360208301526127b2818661243a565b90506127c16040830185612409565b8181036060830152611697818461243a565b60208082528101610ace81846123b8565b602081016108c48284612401565b60c081016128008289612409565b61280d60208301886123a9565b61281a6040830187612409565b6128276060830186612409565b6128346080830185612409565b611d4b60a0830184612409565b60a0810161284f8288612409565b61285c6020830187612409565b6128696040830186612409565b6128766060830185612409565b61288360808301846123a9565b9695505050505050565b6080810161289b8287612409565b6128a8602083018661270e565b6128b56040830185612409565b61169a6060830184612409565b602081016108c48284612431565b60208082528101610ace818461243a565b602080825281016108c48161246e565b602080825281016108c4816124a0565b602080825281016108c4816124cb565b602080825281016108c4816124ff565b602080825281016108c481612545565b602080825281016108c481612584565b602080825281016108c4816125c7565b602080825281016108c4816125ee565b602080825281016108c48161262d565b602080825281016108c48161265f565b602080825281016108c481612693565b602080825281016108c4816126da565b602081016108c48284612409565b604081016129bd8285612409565b8181036020830152611a3b81846123b8565b604081016129dd8285612409565b610ace6020830184612409565b60006129f560405190565b9050612a018282612ae9565b919050565b60006001600160401b03821115612a1f57612a1f612b89565b5060209081020190565b60006001600160401b03821115612a4257612a42612b89565b612a4b82612b9f565b60200192915050565b6000816000190483118215151615612a6e57612a6e612b31565b500290565b600082821015612a8557612a85612b31565b500390565b60006001600160a01b0382166108c4565b60006108c482612a8a565b60006108c482612a9b565b82818337506000910152565b60005b83811015612ad8578181015183820152602001612ac0565b838111156111845750506000910152565b612af282612b9f565b81018181106001600160401b0382111715612b0f57612b0f612b89565b6040525050565b6000600019821415612b2a57612b2a612b31565b5060010190565b634e487b7160e01b600052601160045260246000fd5b634e487b7160e01b600052602160045260246000fd5b634e487b7160e01b600052603160045260246000fd5b634e487b7160e01b600052603260045260246000fd5b634e487b7160e01b600052604160045260246000fd5b601f01601f191690565b612bb281612a8a565b8114610e2157600080fd5b801515612bb2565b612bb281612a9b565b80612bb256fea2646970667358221220e7f27276a318d3635d7d4914dc94988522602cc3784818580be586ec14bebc0e64736f6c63430008070033",
  "devdoc": {
    "author": "Masa Finance",
    "details": "From this smart contract we can mint new Soulbound Identities and Soul Name NFTs. This minting can be done paying a fee in ETH, USDC or MASA",
    "kind": "dev",
    "methods": {
      "addAuthority(address)": {
        "details": "The caller must have the admin to call this function",
        "params": {
          "_authority": "New authority to add"
        }
      },
      "constructor": {
        "details": "Creates a new Soul Store, that has the role to minting new Soulbound Identities and Soul Name NFTs, paying a fee",
        "params": {
          "_nameRegistrationPricePerYear": "Price of the default name registering in stable coin per year",
          "_soulBoundIdentity": "Address of the Soulbound identity contract",
          "owner": "Owner of the smart contract",
          "paymentParams": "Payment gateway params"
        }
      },
      "disablePaymentMethod(address)": {
        "details": "The caller must have the owner to call this function",
        "params": {
          "_paymentMethod": "Token to remove"
        }
      },
      "enablePaymentMethod(address)": {
        "details": "The caller must have the owner to call this function",
        "params": {
          "_paymentMethod": "New token to add"
        }
      },
      "getEnabledPaymentMethods()": {
        "details": "Returns the address of all available payment methods",
        "returns": {
          "_0": "Array of all enabled payment methods"
        }
      },
      "getNameRegistrationPricePerYear(uint256)": {
        "details": "Returns the price for registering per year in USD for an specific name length",
        "params": {
          "nameLength": "Length of the name"
        },
        "returns": {
          "_0": "Price in stable coin for that name length"
        }
      },
      "getPriceForMintingName(address,uint256,uint256)": {
        "details": "Returns current pricing for name minting for a given name length and years period",
        "params": {
          "nameLength": "Length of the name",
          "paymentMethod": "Address of token that user want to pay",
          "yearsPeriod": "Years of validity of the name"
        },
        "returns": {
          "_0": "Current price of the name minting in the given payment method"
        }
      },
      "owner()": {
        "details": "Returns the address of the current owner."
      },
      "pause()": {
        "details": "The caller must have the owner to call this function"
      },
      "paused()": {
        "details": "Returns true if the contract is paused, and false otherwise."
      },
      "purchaseIdentity()": {
        "details": "This function allows the purchase of a soulbound identity for free",
        "returns": {
          "_0": "TokenId of the new soulbound identity"
        }
      },
      "purchaseIdentityAndName(address,string,uint256,uint256,string,address,bytes)": {
        "details": "This function allows the purchase of a soulbound identity and name using stable coin (USDC), native token (ETH) or utility token (MASA)",
        "params": {
          "authorityAddress": "Address of the authority",
          "name": "Name of the new soul name",
          "nameLength": "Length of the name",
          "paymentMethod": "Address of token that user want to pay",
          "signature": "Signature of the authority",
          "tokenURI": "URI of the NFT",
          "yearsPeriod": "Years of validity of the name"
        },
        "returns": {
          "_0": "TokenId of the new soulbound identity"
        }
      },
      "purchaseName(address,address,string,uint256,uint256,string,address,bytes)": {
        "details": "This function allows the purchase of a soul name using stable coin (USDC), native token (ETH) or utility token (MASA)",
        "params": {
          "authorityAddress": "Address of the authority",
          "name": "Name of the new soul name",
          "nameLength": "Length of the name",
          "paymentMethod": "Address of token that user want to pay",
          "signature": "Signature of the authority",
          "to": "Address of the owner of the new soul name",
          "tokenURI": "URI of the NFT",
          "yearsPeriod": "Years of validity of the name"
        },
        "returns": {
          "_0": "TokenId of the new sou name"
        }
      },
      "renounceOwnership()": {
        "details": "Leaves the contract without owner. It will not be possible to call `onlyOwner` functions anymore. Can only be called by the current owner. NOTE: Renouncing ownership will leave the contract without an owner, thereby removing any functionality that is only available to the owner."
      },
      "setMasaToken(address)": {
        "details": "The caller must have the owner to call this function It can be set to address(0) to disable paying in MASA",
        "params": {
          "_masaToken": "New utility token to pay the fee in"
        }
      },
      "setNameRegistrationPricePerYear(uint256,uint256)": {
        "details": "The caller must have the owner to call this function",
        "params": {
          "_nameLength": "Length of the name",
          "_nameRegistrationPricePerYear": "New price of the name registering per one year in stable coin for that name length per year"
        }
      },
      "setReserveWallet(address)": {
        "details": "Let change the reserve walled. It can be triggered by an authorized account.",
        "params": {
          "_reserveWallet": "New reserve wallet"
        }
      },
      "setSoulboundIdentity(address)": {
        "details": "The caller must have the owner to call this function",
        "params": {
          "_soulboundIdentity": "New SoulboundIdentity contract address"
        }
      },
      "setStableCoin(address)": {
        "details": "The caller must have the owner to call this function",
        "params": {
          "_stableCoin": "New stable coin to pay the fee in"
        }
      },
      "setSwapRouter(address)": {
        "details": "The caller must have the owner to call this function",
        "params": {
          "_swapRouter": "New swap router address"
        }
      },
      "setWrappedNativeToken(address)": {
        "details": "The caller must have the owner to call this function",
        "params": {
          "_wrappedNativeToken": "New wrapped native token address"
        }
      },
      "transferOwnership(address)": {
        "details": "Transfers ownership of the contract to a new account (`newOwner`). Can only be called by the current owner."
      },
      "unpause()": {
        "details": "The caller must have the owner to call this function"
      }
    },
    "title": "Soul Store",
    "version": 1
  },
  "userdoc": {
    "kind": "user",
    "methods": {
      "addAuthority(address)": {
        "notice": "Adds a new authority to the list of authorities"
      },
      "constructor": {
        "notice": "Creates a new Soul Store"
      },
      "disablePaymentMethod(address)": {
        "notice": "Removes a token as a valid payment method"
      },
      "enablePaymentMethod(address)": {
        "notice": "Adds a new token as a valid payment method"
      },
      "getEnabledPaymentMethods()": {
        "notice": "Returns all available payment methods"
      },
      "getNameRegistrationPricePerYear(uint256)": {
        "notice": "Returns the price of register a name per year in stable coin for an specific length"
      },
      "getPriceForMintingName(address,uint256,uint256)": {
        "notice": "Returns the price of the name minting"
      },
      "pause()": {
        "notice": "Pauses the smart contract"
      },
      "purchaseIdentity()": {
        "notice": "Mints a new Soulbound Identity purchasing it"
      },
      "purchaseIdentityAndName(address,string,uint256,uint256,string,address,bytes)": {
        "notice": "Mints a new Soulbound Identity and Name purchasing it"
      },
      "purchaseName(address,address,string,uint256,uint256,string,address,bytes)": {
        "notice": "Mints a new Soul Name purchasing it"
      },
      "setMasaToken(address)": {
        "notice": "Sets the utility token to pay the fee in (MASA)"
      },
      "setNameRegistrationPricePerYear(uint256,uint256)": {
        "notice": "Sets the price of the name registering per one year in stable coin"
      },
      "setReserveWallet(address)": {
        "notice": "Set the reserve wallet"
      },
      "setSoulboundIdentity(address)": {
        "notice": "Sets the SoulboundIdentity contract address linked to this store"
      },
      "setStableCoin(address)": {
        "notice": "Sets the stable coin to pay the fee in (USDC)"
      },
      "setSwapRouter(address)": {
        "notice": "Sets the swap router address"
      },
      "setWrappedNativeToken(address)": {
        "notice": "Sets the wrapped native token address"
      },
      "unpause()": {
        "notice": "Unpauses the smart contract"
      }
    },
    "notice": "Soul Store, that can mint new Soulbound Identities and Soul Name NFTs, paying a fee",
    "version": 1
  },
  "storageLayout": {
    "storage": [
      {
        "astId": 400,
        "contract": "contracts/SoulStore.sol:SoulStore",
        "label": "_owner",
        "offset": 0,
        "slot": "0",
        "type": "t_address"
      },
      {
        "astId": 7425,
        "contract": "contracts/SoulStore.sol:SoulStore",
        "label": "swapRouter",
        "offset": 0,
        "slot": "1",
        "type": "t_address"
      },
      {
        "astId": 7427,
        "contract": "contracts/SoulStore.sol:SoulStore",
        "label": "wrappedNativeToken",
        "offset": 0,
        "slot": "2",
        "type": "t_address"
      },
      {
        "astId": 7429,
        "contract": "contracts/SoulStore.sol:SoulStore",
        "label": "stableCoin",
        "offset": 0,
        "slot": "3",
        "type": "t_address"
      },
      {
        "astId": 7431,
        "contract": "contracts/SoulStore.sol:SoulStore",
        "label": "masaToken",
        "offset": 0,
        "slot": "4",
        "type": "t_address"
      },
      {
        "astId": 7435,
        "contract": "contracts/SoulStore.sol:SoulStore",
        "label": "enabledPaymentMethod",
        "offset": 0,
        "slot": "5",
        "type": "t_mapping(t_address,t_bool)"
      },
      {
        "astId": 7438,
        "contract": "contracts/SoulStore.sol:SoulStore",
        "label": "enabledPaymentMethods",
        "offset": 0,
        "slot": "6",
        "type": "t_array(t_address)dyn_storage"
      },
      {
        "astId": 7440,
        "contract": "contracts/SoulStore.sol:SoulStore",
        "label": "reserveWallet",
        "offset": 0,
        "slot": "7",
        "type": "t_address"
      },
      {
        "astId": 523,
        "contract": "contracts/SoulStore.sol:SoulStore",
        "label": "_paused",
        "offset": 20,
        "slot": "7",
        "type": "t_bool"
      },
      {
        "astId": 624,
        "contract": "contracts/SoulStore.sol:SoulStore",
        "label": "_status",
        "offset": 0,
        "slot": "8",
        "type": "t_uint256"
      },
      {
        "astId": 6088,
        "contract": "contracts/SoulStore.sol:SoulStore",
        "label": "soulboundIdentity",
        "offset": 0,
        "slot": "9",
        "type": "t_contract(ISoulboundIdentity)8178"
      },
      {
        "astId": 6092,
        "contract": "contracts/SoulStore.sol:SoulStore",
        "label": "nameRegistrationPricePerYear",
        "offset": 0,
        "slot": "10",
        "type": "t_mapping(t_uint256,t_uint256)"
      },
      {
        "astId": 6096,
        "contract": "contracts/SoulStore.sol:SoulStore",
        "label": "authorities",
        "offset": 0,
        "slot": "11",
        "type": "t_mapping(t_address,t_bool)"
      }
    ],
    "types": {
      "t_address": {
        "encoding": "inplace",
        "label": "address",
        "numberOfBytes": "20"
      },
      "t_array(t_address)dyn_storage": {
        "base": "t_address",
        "encoding": "dynamic_array",
        "label": "address[]",
        "numberOfBytes": "32"
      },
      "t_bool": {
        "encoding": "inplace",
        "label": "bool",
        "numberOfBytes": "1"
      },
      "t_contract(ISoulboundIdentity)8178": {
        "encoding": "inplace",
        "label": "contract ISoulboundIdentity",
        "numberOfBytes": "20"
      },
      "t_mapping(t_address,t_bool)": {
        "encoding": "mapping",
        "key": "t_address",
        "label": "mapping(address => bool)",
        "numberOfBytes": "32",
        "value": "t_bool"
      },
      "t_mapping(t_uint256,t_uint256)": {
        "encoding": "mapping",
        "key": "t_uint256",
        "label": "mapping(uint256 => uint256)",
        "numberOfBytes": "32",
        "value": "t_uint256"
      },
      "t_uint256": {
        "encoding": "inplace",
        "label": "uint256",
        "numberOfBytes": "32"
      }
    }
  }
}