{
  "address": "0x5a50935a8918220b1941a6Ec91a505C380A64cBd",
  "abi": [
    {
      "inputs": [
        {
          "internalType": "address",
          "name": "admin",
          "type": "address"
        },
        {
          "internalType": "contract ISoulboundIdentity",
          "name": "_soulBoundIdentity",
          "type": "address"
        },
        {
          "internalType": "contract ISoulName",
          "name": "_soulName",
          "type": "address"
        },
        {
          "internalType": "uint256",
          "name": "_nameRegistrationPricePerYear",
          "type": "uint256"
        },
        {
          "components": [
            {
              "internalType": "address",
              "name": "swapRouter",
              "type": "address"
            },
            {
              "internalType": "address",
              "name": "wrappedNativeToken",
              "type": "address"
            },
            {
              "internalType": "address",
              "name": "stableCoin",
              "type": "address"
            },
            {
              "internalType": "address",
              "name": "masaToken",
              "type": "address"
            },
            {
              "internalType": "address",
              "name": "projectFeeReceiver",
              "type": "address"
            },
            {
              "internalType": "address",
              "name": "protocolFeeReceiver",
              "type": "address"
            },
            {
              "internalType": "uint256",
              "name": "protocolFeeAmount",
              "type": "uint256"
            },
            {
              "internalType": "uint256",
              "name": "protocolFeePercent",
              "type": "uint256"
            },
            {
              "internalType": "uint256",
              "name": "protocolFeePercentSub",
              "type": "uint256"
            }
          ],
          "internalType": "struct PaymentGateway.PaymentParams",
          "name": "paymentParams",
          "type": "tuple"
        }
      ],
      "stateMutability": "nonpayable",
      "type": "constructor"
    },
    {
      "inputs": [],
      "name": "AlreadyAdded",
      "type": "error"
    },
    {
      "inputs": [
        {
          "internalType": "address",
          "name": "authority",
          "type": "address"
        }
      ],
      "name": "AuthorityNotExists",
      "type": "error"
    },
    {
      "inputs": [
        {
          "internalType": "uint256",
          "name": "amount",
          "type": "uint256"
        }
      ],
      "name": "InsufficientEthAmount",
      "type": "error"
    },
    {
      "inputs": [
        {
          "internalType": "address",
          "name": "paymentMethod",
          "type": "address"
        }
      ],
      "name": "InvalidPaymentMethod",
      "type": "error"
    },
    {
      "inputs": [],
      "name": "InvalidSignature",
      "type": "error"
    },
    {
      "inputs": [
        {
          "internalType": "address",
          "name": "token",
          "type": "address"
        }
      ],
      "name": "InvalidToken",
      "type": "error"
    },
    {
      "inputs": [
        {
          "internalType": "address",
          "name": "erc20token",
          "type": "address"
        }
      ],
      "name": "NonExistingErc20Token",
      "type": "error"
    },
    {
      "inputs": [
        {
          "internalType": "address",
          "name": "signer",
          "type": "address"
        }
      ],
      "name": "NotAuthorized",
      "type": "error"
    },
    {
      "inputs": [],
      "name": "PaymentParamsNotSet",
      "type": "error"
    },
    {
      "inputs": [],
      "name": "ProtocolFeeReceiverNotSet",
      "type": "error"
    },
    {
      "inputs": [],
      "name": "RefundFailed",
      "type": "error"
    },
    {
      "inputs": [],
      "name": "SameValue",
      "type": "error"
    },
    {
      "inputs": [],
      "name": "TransferFailed",
      "type": "error"
    },
    {
      "inputs": [],
      "name": "UserMustHaveProtocolOrProjectAdminRole",
      "type": "error"
    },
    {
      "inputs": [],
      "name": "ZeroAddress",
      "type": "error"
    },
    {
      "anonymous": false,
      "inputs": [
        {
          "indexed": false,
          "internalType": "address",
          "name": "account",
          "type": "address"
        }
      ],
      "name": "Paused",
      "type": "event"
    },
    {
      "anonymous": false,
      "inputs": [
        {
          "indexed": true,
          "internalType": "bytes32",
          "name": "role",
          "type": "bytes32"
        },
        {
          "indexed": true,
          "internalType": "bytes32",
          "name": "previousAdminRole",
          "type": "bytes32"
        },
        {
          "indexed": true,
          "internalType": "bytes32",
          "name": "newAdminRole",
          "type": "bytes32"
        }
      ],
      "name": "RoleAdminChanged",
      "type": "event"
    },
    {
      "anonymous": false,
      "inputs": [
        {
          "indexed": true,
          "internalType": "bytes32",
          "name": "role",
          "type": "bytes32"
        },
        {
          "indexed": true,
          "internalType": "address",
          "name": "account",
          "type": "address"
        },
        {
          "indexed": true,
          "internalType": "address",
          "name": "sender",
          "type": "address"
        }
      ],
      "name": "RoleGranted",
      "type": "event"
    },
    {
      "anonymous": false,
      "inputs": [
        {
          "indexed": true,
          "internalType": "bytes32",
          "name": "role",
          "type": "bytes32"
        },
        {
          "indexed": true,
          "internalType": "address",
          "name": "account",
          "type": "address"
        },
        {
          "indexed": true,
          "internalType": "address",
          "name": "sender",
          "type": "address"
        }
      ],
      "name": "RoleRevoked",
      "type": "event"
    },
    {
      "anonymous": false,
      "inputs": [
        {
          "indexed": true,
          "internalType": "address",
          "name": "account",
          "type": "address"
        },
        {
          "indexed": false,
          "internalType": "uint256",
          "name": "tokenId",
          "type": "uint256"
        },
        {
          "indexed": true,
          "internalType": "string",
          "name": "name",
          "type": "string"
        },
        {
          "indexed": false,
          "internalType": "uint256",
          "name": "yearsPeriod",
          "type": "uint256"
        },
        {
          "indexed": true,
          "internalType": "address",
          "name": "paymentMethod",
          "type": "address"
        },
        {
          "indexed": false,
          "internalType": "uint256",
          "name": "price",
          "type": "uint256"
        },
        {
          "indexed": false,
          "internalType": "uint256",
          "name": "protocolFee",
          "type": "uint256"
        }
      ],
      "name": "SoulNamePurchased",
      "type": "event"
    },
    {
      "anonymous": false,
      "inputs": [
        {
          "indexed": true,
          "internalType": "address",
          "name": "account",
          "type": "address"
        },
        {
          "indexed": false,
          "internalType": "uint256",
          "name": "tokenId",
          "type": "uint256"
        },
        {
          "indexed": true,
          "internalType": "string",
          "name": "name",
          "type": "string"
        },
        {
          "indexed": false,
          "internalType": "uint256",
          "name": "yearsPeriod",
          "type": "uint256"
        },
        {
          "indexed": true,
          "internalType": "address",
          "name": "paymentMethod",
          "type": "address"
        },
        {
          "indexed": false,
          "internalType": "uint256",
          "name": "price",
          "type": "uint256"
        },
        {
          "indexed": false,
          "internalType": "uint256",
          "name": "protocolFee",
          "type": "uint256"
        }
      ],
      "name": "SoulboundIdentityAndNamePurchased",
      "type": "event"
    },
    {
      "anonymous": false,
      "inputs": [
        {
          "indexed": true,
          "internalType": "address",
          "name": "account",
          "type": "address"
        },
        {
          "indexed": false,
          "internalType": "uint256",
          "name": "tokenId",
          "type": "uint256"
        }
      ],
      "name": "SoulboundIdentityPurchased",
      "type": "event"
    },
    {
      "anonymous": false,
      "inputs": [
        {
          "indexed": false,
          "internalType": "address",
          "name": "account",
          "type": "address"
        }
      ],
      "name": "Unpaused",
      "type": "event"
    },
    {
      "inputs": [],
      "name": "DEFAULT_ADMIN_ROLE",
      "outputs": [
        {
          "internalType": "bytes32",
          "name": "",
          "type": "bytes32"
        }
      ],
      "stateMutability": "view",
      "type": "function"
    },
    {
      "inputs": [],
      "name": "PROJECT_ADMIN_ROLE",
      "outputs": [
        {
          "internalType": "bytes32",
          "name": "",
          "type": "bytes32"
        }
      ],
      "stateMutability": "view",
      "type": "function"
    },
    {
      "inputs": [
        {
          "internalType": "address",
          "name": "_authority",
          "type": "address"
        }
      ],
      "name": "addAuthority",
      "outputs": [],
      "stateMutability": "nonpayable",
      "type": "function"
    },
    {
      "inputs": [
        {
          "internalType": "address",
          "name": "",
          "type": "address"
        }
      ],
      "name": "authorities",
      "outputs": [
        {
          "internalType": "bool",
          "name": "",
          "type": "bool"
        }
      ],
      "stateMutability": "view",
      "type": "function"
    },
    {
      "inputs": [
        {
          "internalType": "address",
          "name": "_paymentMethod",
          "type": "address"
        }
      ],
      "name": "disablePaymentMethod",
      "outputs": [],
      "stateMutability": "nonpayable",
      "type": "function"
    },
    {
      "inputs": [
        {
          "internalType": "address",
          "name": "_paymentMethod",
          "type": "address"
        }
      ],
      "name": "enablePaymentMethod",
      "outputs": [],
      "stateMutability": "nonpayable",
      "type": "function"
    },
    {
      "inputs": [
        {
          "internalType": "address",
          "name": "",
          "type": "address"
        }
      ],
      "name": "enabledPaymentMethod",
      "outputs": [
        {
          "internalType": "bool",
          "name": "",
          "type": "bool"
        }
      ],
      "stateMutability": "view",
      "type": "function"
    },
    {
      "inputs": [
        {
          "internalType": "uint256",
          "name": "",
          "type": "uint256"
        }
      ],
      "name": "enabledPaymentMethods",
      "outputs": [
        {
          "internalType": "address",
          "name": "",
          "type": "address"
        }
      ],
      "stateMutability": "view",
      "type": "function"
    },
    {
      "inputs": [],
      "name": "getEnabledPaymentMethods",
      "outputs": [
        {
          "internalType": "address[]",
          "name": "",
          "type": "address[]"
        }
      ],
      "stateMutability": "view",
      "type": "function"
    },
    {
      "inputs": [
        {
          "internalType": "uint256",
          "name": "nameLength",
          "type": "uint256"
        }
      ],
      "name": "getNameRegistrationPricePerYear",
      "outputs": [
        {
          "internalType": "uint256",
          "name": "",
          "type": "uint256"
        }
      ],
      "stateMutability": "view",
      "type": "function"
    },
    {
      "inputs": [
        {
          "internalType": "address",
          "name": "paymentMethod",
          "type": "address"
        },
        {
          "internalType": "uint256",
          "name": "nameLength",
          "type": "uint256"
        },
        {
          "internalType": "uint256",
          "name": "yearsPeriod",
          "type": "uint256"
        }
      ],
      "name": "getPriceForMintingName",
      "outputs": [
        {
          "internalType": "uint256",
          "name": "price",
          "type": "uint256"
        }
      ],
      "stateMutability": "view",
      "type": "function"
    },
    {
      "inputs": [
        {
          "internalType": "address",
          "name": "paymentMethod",
          "type": "address"
        },
        {
          "internalType": "uint256",
          "name": "nameLength",
          "type": "uint256"
        },
        {
          "internalType": "uint256",
          "name": "yearsPeriod",
          "type": "uint256"
        }
      ],
      "name": "getPriceForMintingNameWithProtocolFee",
      "outputs": [
        {
          "internalType": "uint256",
          "name": "price",
          "type": "uint256"
        },
        {
          "internalType": "uint256",
          "name": "protocolFee",
          "type": "uint256"
        }
      ],
      "stateMutability": "view",
      "type": "function"
    },
    {
      "inputs": [
        {
          "internalType": "address",
          "name": "paymentMethod",
          "type": "address"
        },
        {
          "internalType": "uint256",
          "name": "amount",
          "type": "uint256"
        }
      ],
      "name": "getProtocolFee",
      "outputs": [
        {
          "internalType": "uint256",
          "name": "",
          "type": "uint256"
        }
      ],
      "stateMutability": "view",
      "type": "function"
    },
    {
      "inputs": [
        {
          "internalType": "uint256",
          "name": "amount",
          "type": "uint256"
        }
      ],
      "name": "getProtocolFeeSub",
      "outputs": [
        {
          "internalType": "uint256",
          "name": "",
          "type": "uint256"
        }
      ],
      "stateMutability": "view",
      "type": "function"
    },
    {
      "inputs": [
        {
          "internalType": "bytes32",
          "name": "role",
          "type": "bytes32"
        }
      ],
      "name": "getRoleAdmin",
      "outputs": [
        {
          "internalType": "bytes32",
          "name": "",
          "type": "bytes32"
        }
      ],
      "stateMutability": "view",
      "type": "function"
    },
    {
      "inputs": [
        {
          "internalType": "bytes32",
          "name": "role",
          "type": "bytes32"
        },
        {
          "internalType": "address",
          "name": "account",
          "type": "address"
        }
      ],
      "name": "grantRole",
      "outputs": [],
      "stateMutability": "nonpayable",
      "type": "function"
    },
    {
      "inputs": [
        {
          "internalType": "bytes32",
          "name": "role",
          "type": "bytes32"
        },
        {
          "internalType": "address",
          "name": "account",
          "type": "address"
        }
      ],
      "name": "hasRole",
      "outputs": [
        {
          "internalType": "bool",
          "name": "",
          "type": "bool"
        }
      ],
      "stateMutability": "view",
      "type": "function"
    },
    {
      "inputs": [],
      "name": "masaToken",
      "outputs": [
        {
          "internalType": "address",
          "name": "",
          "type": "address"
        }
      ],
      "stateMutability": "view",
      "type": "function"
    },
    {
      "inputs": [
        {
          "internalType": "uint256",
          "name": "",
          "type": "uint256"
        }
      ],
      "name": "nameRegistrationPricePerYear",
      "outputs": [
        {
          "internalType": "uint256",
          "name": "",
          "type": "uint256"
        }
      ],
      "stateMutability": "view",
      "type": "function"
    },
    {
      "inputs": [],
      "name": "pause",
      "outputs": [],
      "stateMutability": "nonpayable",
      "type": "function"
    },
    {
      "inputs": [],
      "name": "paused",
      "outputs": [
        {
          "internalType": "bool",
          "name": "",
          "type": "bool"
        }
      ],
      "stateMutability": "view",
      "type": "function"
    },
    {
      "inputs": [],
      "name": "projectFeeReceiver",
      "outputs": [
        {
          "internalType": "address",
          "name": "",
          "type": "address"
        }
      ],
      "stateMutability": "view",
      "type": "function"
    },
    {
      "inputs": [],
      "name": "protocolFeeAmount",
      "outputs": [
        {
          "internalType": "uint256",
          "name": "",
          "type": "uint256"
        }
      ],
      "stateMutability": "view",
      "type": "function"
    },
    {
      "inputs": [],
      "name": "protocolFeePercent",
      "outputs": [
        {
          "internalType": "uint256",
          "name": "",
          "type": "uint256"
        }
      ],
      "stateMutability": "view",
      "type": "function"
    },
    {
      "inputs": [],
      "name": "protocolFeePercentSub",
      "outputs": [
        {
          "internalType": "uint256",
          "name": "",
          "type": "uint256"
        }
      ],
      "stateMutability": "view",
      "type": "function"
    },
    {
      "inputs": [],
      "name": "protocolFeeReceiver",
      "outputs": [
        {
          "internalType": "address",
          "name": "",
          "type": "address"
        }
      ],
      "stateMutability": "view",
      "type": "function"
    },
    {
      "inputs": [],
      "name": "purchaseIdentity",
      "outputs": [
        {
          "internalType": "uint256",
          "name": "",
          "type": "uint256"
        }
      ],
      "stateMutability": "nonpayable",
      "type": "function"
    },
    {
      "inputs": [
        {
          "internalType": "address",
          "name": "paymentMethod",
          "type": "address"
        },
        {
          "internalType": "string",
          "name": "name",
          "type": "string"
        },
        {
          "internalType": "uint256",
          "name": "nameLength",
          "type": "uint256"
        },
        {
          "internalType": "uint256",
          "name": "yearsPeriod",
          "type": "uint256"
        },
        {
          "internalType": "string",
          "name": "tokenURI",
          "type": "string"
        },
        {
          "internalType": "address",
          "name": "authorityAddress",
          "type": "address"
        },
        {
          "internalType": "bytes",
          "name": "signature",
          "type": "bytes"
        }
      ],
      "name": "purchaseIdentityAndName",
      "outputs": [
        {
          "internalType": "uint256",
          "name": "",
          "type": "uint256"
        }
      ],
      "stateMutability": "payable",
      "type": "function"
    },
    {
      "inputs": [
        {
          "internalType": "address",
          "name": "paymentMethod",
          "type": "address"
        },
        {
          "internalType": "address",
          "name": "to",
          "type": "address"
        },
        {
          "internalType": "string",
          "name": "name",
          "type": "string"
        },
        {
          "internalType": "uint256",
          "name": "nameLength",
          "type": "uint256"
        },
        {
          "internalType": "uint256",
          "name": "yearsPeriod",
          "type": "uint256"
        },
        {
          "internalType": "string",
          "name": "tokenURI",
          "type": "string"
        },
        {
          "internalType": "address",
          "name": "authorityAddress",
          "type": "address"
        },
        {
          "internalType": "bytes",
          "name": "signature",
          "type": "bytes"
        }
      ],
      "name": "purchaseName",
      "outputs": [
        {
          "internalType": "uint256",
          "name": "",
          "type": "uint256"
        }
      ],
      "stateMutability": "payable",
      "type": "function"
    },
    {
      "inputs": [
        {
          "internalType": "address",
          "name": "_authority",
          "type": "address"
        }
      ],
      "name": "removeAuthority",
      "outputs": [],
      "stateMutability": "nonpayable",
      "type": "function"
    },
    {
      "inputs": [
        {
          "internalType": "bytes32",
          "name": "role",
          "type": "bytes32"
        },
        {
          "internalType": "address",
          "name": "account",
          "type": "address"
        }
      ],
      "name": "renounceRole",
      "outputs": [],
      "stateMutability": "nonpayable",
      "type": "function"
    },
    {
      "inputs": [
        {
          "internalType": "bytes32",
          "name": "role",
          "type": "bytes32"
        },
        {
          "internalType": "address",
          "name": "account",
          "type": "address"
        }
      ],
      "name": "revokeRole",
      "outputs": [],
      "stateMutability": "nonpayable",
      "type": "function"
    },
    {
      "inputs": [
        {
          "internalType": "address",
          "name": "_masaToken",
          "type": "address"
        }
      ],
      "name": "setMasaToken",
      "outputs": [],
      "stateMutability": "nonpayable",
      "type": "function"
    },
    {
      "inputs": [
        {
          "internalType": "uint256",
          "name": "_nameLength",
          "type": "uint256"
        },
        {
          "internalType": "uint256",
          "name": "_nameRegistrationPricePerYear",
          "type": "uint256"
        }
      ],
      "name": "setNameRegistrationPricePerYear",
      "outputs": [],
      "stateMutability": "nonpayable",
      "type": "function"
    },
    {
      "inputs": [
        {
          "internalType": "address",
          "name": "_projectFeeReceiver",
          "type": "address"
        }
      ],
      "name": "setProjectFeeReceiver",
      "outputs": [],
      "stateMutability": "nonpayable",
      "type": "function"
    },
    {
      "inputs": [
        {
          "internalType": "uint256",
          "name": "_protocolFeeAmount",
          "type": "uint256"
        }
      ],
      "name": "setProtocolFeeAmount",
      "outputs": [],
      "stateMutability": "nonpayable",
      "type": "function"
    },
    {
      "inputs": [
        {
          "internalType": "uint256",
          "name": "_protocolFeePercent",
          "type": "uint256"
        }
      ],
      "name": "setProtocolFeePercent",
      "outputs": [],
      "stateMutability": "nonpayable",
      "type": "function"
    },
    {
      "inputs": [
        {
          "internalType": "uint256",
          "name": "_protocolFeePercentSub",
          "type": "uint256"
        }
      ],
      "name": "setProtocolFeePercentSub",
      "outputs": [],
      "stateMutability": "nonpayable",
      "type": "function"
    },
    {
      "inputs": [
        {
          "internalType": "address",
          "name": "_protocolFeeReceiver",
          "type": "address"
        }
      ],
      "name": "setProtocolFeeReceiver",
      "outputs": [],
      "stateMutability": "nonpayable",
      "type": "function"
    },
    {
      "inputs": [
        {
          "internalType": "contract ISoulName",
          "name": "_soulName",
          "type": "address"
        }
      ],
      "name": "setSoulName",
      "outputs": [],
      "stateMutability": "nonpayable",
      "type": "function"
    },
    {
      "inputs": [
        {
          "internalType": "contract ISoulboundIdentity",
          "name": "_soulboundIdentity",
          "type": "address"
        }
      ],
      "name": "setSoulboundIdentity",
      "outputs": [],
      "stateMutability": "nonpayable",
      "type": "function"
    },
    {
      "inputs": [
        {
          "internalType": "address",
          "name": "_stableCoin",
          "type": "address"
        }
      ],
      "name": "setStableCoin",
      "outputs": [],
      "stateMutability": "nonpayable",
      "type": "function"
    },
    {
      "inputs": [
        {
          "internalType": "address",
          "name": "_swapRouter",
          "type": "address"
        }
      ],
      "name": "setSwapRouter",
      "outputs": [],
      "stateMutability": "nonpayable",
      "type": "function"
    },
    {
      "inputs": [
        {
          "internalType": "address",
          "name": "_wrappedNativeToken",
          "type": "address"
        }
      ],
      "name": "setWrappedNativeToken",
      "outputs": [],
      "stateMutability": "nonpayable",
      "type": "function"
    },
    {
      "inputs": [],
      "name": "soulName",
      "outputs": [
        {
          "internalType": "contract ISoulName",
          "name": "",
          "type": "address"
        }
      ],
      "stateMutability": "view",
      "type": "function"
    },
    {
      "inputs": [],
      "name": "soulboundIdentity",
      "outputs": [
        {
          "internalType": "contract ISoulboundIdentity",
          "name": "",
          "type": "address"
        }
      ],
      "stateMutability": "view",
      "type": "function"
    },
    {
      "inputs": [],
      "name": "stableCoin",
      "outputs": [
        {
          "internalType": "address",
          "name": "",
          "type": "address"
        }
      ],
      "stateMutability": "view",
      "type": "function"
    },
    {
      "inputs": [
        {
          "internalType": "bytes4",
          "name": "interfaceId",
          "type": "bytes4"
        }
      ],
      "name": "supportsInterface",
      "outputs": [
        {
          "internalType": "bool",
          "name": "",
          "type": "bool"
        }
      ],
      "stateMutability": "view",
      "type": "function"
    },
    {
      "inputs": [],
      "name": "swapRouter",
      "outputs": [
        {
          "internalType": "address",
          "name": "",
          "type": "address"
        }
      ],
      "stateMutability": "view",
      "type": "function"
    },
    {
      "inputs": [],
      "name": "unpause",
      "outputs": [],
      "stateMutability": "nonpayable",
      "type": "function"
    },
    {
      "inputs": [],
      "name": "wrappedNativeToken",
      "outputs": [
        {
          "internalType": "address",
          "name": "",
          "type": "address"
        }
      ],
      "stateMutability": "view",
      "type": "function"
    }
  ],
  "transactionHash": "0x01938ced61d5dd524d7236dd6f69696a2db7fbb685042c9887061f6668d10f20",
  "args": [
    "0xA38dd237a3A8D50537B74a4B0D4E7E8A5359386F",
    "0x2c4C19752af9182949f237e843e104Dd79F4bfF1",
    "0x65627C04433d72283662B58B423bA8A1dfBd3fe3",
    "10000000",
    [
      "0x7a250d5630B4cF539739dF2C5dAcb4c659F2488D",
      "0xB4FBF271143F4FBf7B91A5ded31805e42b2208d6",
      "0xD87Ba7A50B2E7E660f678A895E4B72E7CB4CCd9C",
      "0x1f9840a85d5aF5bf1D1762F925BDADdC4201F984",
      "0xA38dd237a3A8D50537B74a4B0D4E7E8A5359386F",
      "0x0000000000000000000000000000000000000000",
      "0",
      "0",
      "0"
    ]
  ],
  "numDeployments": 1,
  "solcInputHash": "528c62146364ff3b9596d8e39de99d0c",
  "bytecode": "0x6101406040523480156200001257600080fd5b506040516200408b3803806200408b8339810160408190526200003591620004fa565b6040805180820182526009815268536f756c53746f726560b81b602080830191909152825180840190935260058352640312e302e360dc1b908301529086836200008160008362000244565b8051600180546001600160a01b03199081166001600160a01b0393841617825560208085015160028054841691861691909117905560408501516003805484169186169190911790556060850151600480548416918616919091179055608085015160078054841691861691909117905560a0808601516008805490941695169490941790915560c084015160095560e080850151600a5561010094850151600b55600c805460ff19169055600d929092558651878201208651918701919091209181905292819052469091529091507f8b73c3c69bb8fe3d512ecc4cf759cc79239f7b179b0ffacaa9a75d522b39400f6200017f818484620002cd565b6080523060601b60c05261012052505050506001600160a01b038416620001b95760405163d92e233d60e01b815260040160405180910390fd5b6001600160a01b038316620001e15760405163d92e233d60e01b815260040160405180910390fd5b50600e80546001600160a01b039485166001600160a01b031991821617909155600f8054939094169216919091179091556000805260106020527f6e0956cda88cad152e89927e53611735b61a5c762d1428573c6931b0a5efcb015550620005e8565b62000250828262000309565b620002c9576000828152602081815260408083206001600160a01b03851684529091529020805460ff19166001179055620002883390565b6001600160a01b0316816001600160a01b0316837f2f8788117e7eff1d82e926ec794901d17c78024a50270940304540a733656f0d60405160405180910390a45b5050565b60008383834630604051602001620002ea95949392919062000592565b6040516020818303038152906040528051906020012090509392505050565b6000828152602081815260408083206001600160a01b038516845290915290205460ff165b92915050565b60006001600160a01b0382166200032e565b620003518162000334565b81146200035d57600080fd5b50565b80516200032e8162000346565b60006200032e8262000334565b62000351816200036d565b80516200032e816200037a565b8062000351565b80516200032e8162000392565b634e487b7160e01b600052604160045260246000fd5b601f19601f83011681018181106001600160401b0382111715620003e457620003e4620003a6565b6040525050565b6000620003f760405190565b9050620004058282620003bc565b919050565b60006101208284031215620004225762000422600080fd5b6200042f610120620003eb565b905060006200043f848462000360565b8252506020620004528484830162000360565b6020830152506040620004688482850162000360565b60408301525060606200047e8482850162000360565b6060830152506080620004948482850162000360565b60808301525060a0620004aa8482850162000360565b60a08301525060c0620004c08482850162000399565b60c08301525060e0620004d68482850162000399565b60e083015250610100620004ed8482850162000399565b6101008301525092915050565b60008060008060006101a08688031215620005185762000518600080fd5b600062000526888862000360565b9550506020620005398882890162000385565b94505060406200054c8882890162000385565b93505060606200055f8882890162000399565b925050608062000572888289016200040a565b9150509295509295909350565b805b82525050565b620005818162000334565b60a08101620005a282886200057f565b620005b160208301876200057f565b620005c060408301866200057f565b620005cf60608301856200057f565b620005de608083018462000587565b9695505050505050565b60805160a05160c05160601c60e0516101005161012051613a506200063b60003960006128460152600061288801526000612867015260006127cb015260006127f50152600061281f0152613a506000f3fe6080604052600436106102435760003560e01c8062bdfde51461024857806301ffc9a71461026a5780630513c3e9146102a05780630f2e68af146102cd57806310200519146102fa57806312553e411461031c578063126ed01c1461033e578063135f470c1461035e57806317fcb39b14610374578063217a2c7b1461039457806323af4e17146103b4578063248a9ca3146103d457806326defa73146103f45780632f2ff15d146104145780633151ded81461043457806336568abe1461046257806339a51be5146104825780633ad3033e146104a25780633f4ba83a146104c257806341273657146104d757806341c04d5e146104f757806346877b1a146105195780634e273d21146105395780635a394675146105595780635c975abb1461056c5780636bfd499f1461058457806374a99f8b146105a457806376ad1997146105c457806377bed5ed146105e45780637a0d1646146106045780638456cb59146106345780638d018461146106495780638ec9c93b1461066957806390ce84161461067f57806391223d691461069f57806391d14854146106cf57806394a665e9146106ef578063992642e51461070f57806399b589cb1461072f578063a217fddf1461074f578063a498342114610764578063c31c9c0714610784578063c86aadb6146107a4578063d544e010146107c4578063d547741f146107e4578063d6e6eb9f14610804578063da058ae31461081a578063eaf94aec1461083a578063ebda439614610867578063ee7a9ec514610887578063f615283a146108a7575b600080fd5b34801561025457600080fd5b50610268610263366004612be3565b6108ba565b005b34801561027657600080fd5b5061028a610285366004612c1f565b6108ee565b6040516102979190612c4a565b60405180910390f35b3480156102ac57600080fd5b506102c06102bb366004612be3565b610925565b6040516102979190612c78565b3480156102d957600080fd5b50600f546102ed906001600160a01b031681565b6040516102979190612cbe565b34801561030657600080fd5b5061030f61094f565b6040516102979190612d29565b34801561032857600080fd5b506103316109b1565b6040516102979190612d40565b34801561034a57600080fd5b50610331610359366004612be3565b610a05565b34801561036a57600080fd5b50610331600b5481565b34801561038057600080fd5b506002546102c0906001600160a01b031681565b3480156103a057600080fd5b506103316103af366004612d62565b610a10565b3480156103c057600080fd5b506102686103cf366004612d9f565b610a23565b3480156103e057600080fd5b506103316103ef366004612be3565b610a80565b34801561040057600080fd5b5061026861040f366004612d9f565b610a95565b34801561042057600080fd5b5061026861042f366004612dc0565b610b65565b34801561044057600080fd5b5061045461044f366004612df3565b610b86565b604051610297929190612e43565b34801561046e57600080fd5b5061026861047d366004612dc0565b610bad565b34801561048e57600080fd5b506008546102c0906001600160a01b031681565b3480156104ae57600080fd5b506102686104bd366004612e7d565b610bec565b3480156104ce57600080fd5b50610268610c70565b3480156104e357600080fd5b506102686104f2366004612d9f565b610c86565b34801561050357600080fd5b506103316000805160206139fb83398151915281565b34801561052557600080fd5b50610268610534366004612d9f565b610ce3565b34801561054557600080fd5b50610331610554366004612be3565b610d40565b610331610567366004612fe0565b610d85565b34801561057857600080fd5b50600c5460ff1661028a565b34801561059057600080fd5b5061026861059f366004612be3565b610e4a565b3480156105b057600080fd5b506102686105bf3660046130e5565b610e7e565b3480156105d057600080fd5b506102686105df366004612d9f565b610f0a565b3480156105f057600080fd5b50600e546102ed906001600160a01b031681565b34801561061057600080fd5b5061028a61061f366004612d9f565b60056020526000908152604090205460ff1681565b34801561064057600080fd5b50610268610f67565b34801561065557600080fd5b50610268610664366004612d9f565b610f7a565b34801561067557600080fd5b5061033160095481565b34801561068b57600080fd5b5061033161069a366004612df3565b611016565b3480156106ab57600080fd5b5061028a6106ba366004612d9f565b60116020526000908152604090205460ff1681565b3480156106db57600080fd5b5061028a6106ea366004612dc0565b6110d3565b3480156106fb57600080fd5b5061026861070a366004612d9f565b6110fc565b34801561071b57600080fd5b506003546102c0906001600160a01b031681565b34801561073b57600080fd5b506007546102c0906001600160a01b031681565b34801561075b57600080fd5b50610331600081565b34801561077057600080fd5b5061026861077f366004612be3565b611269565b34801561079057600080fd5b506001546102c0906001600160a01b031681565b3480156107b057600080fd5b506102686107bf366004612d9f565b61129d565b3480156107d057600080fd5b506102686107df366004612d9f565b611349565b3480156107f057600080fd5b506102686107ff366004612dc0565b611417565b34801561081057600080fd5b50610331600a5481565b34801561082657600080fd5b50610268610835366004612d9f565b611433565b34801561084657600080fd5b50610331610855366004612be3565b60106020526000908152604090205481565b34801561087357600080fd5b506004546102c0906001600160a01b031681565b34801561089357600080fd5b506102686108a2366004612e7d565b611490565b6103316108b5366004613107565b611514565b60006108c5816115de565b6009548214156108e85760405163c23f6ccb60e01b815260040160405180910390fd5b50600955565b60006001600160e01b03198216637965db0b60e01b148061091f57506301ffc9a760e01b6001600160e01b03198316145b92915050565b6006818154811061093557600080fd5b6000918252602090912001546001600160a01b0316905081565b606060068054806020026020016040519081016040528092919081815260200182805480156109a757602002820191906000526020600020905b81546001600160a01b03168152600190910190602001808311610989575b5050505050905090565b6000806109bd336115e8565b9050336001600160a01b03167fe6fdadff80ae44015b9aa37d4edb70f70a8db7535a0df98de6dc5ffd11ec0c2f826040516109f89190612d40565b60405180910390a2919050565b600061091f8261166f565b6000610a1c83836116a7565b9392505050565b6000610a2e816115de565b6003546001600160a01b0383811691161415610a5d5760405163c23f6ccb60e01b815260040160405180910390fd5b50600380546001600160a01b0319166001600160a01b0392909216919091179055565b60009081526020819052604090206001015490565b610aa06000336110d3565b158015610ac25750610ac06000805160206139fb833981519152336110d3565b155b15610ae0576040516326f0f48160e01b815260040160405180910390fd5b6001600160a01b038116610b075760405163d92e233d60e01b815260040160405180910390fd5b6001600160a01b03811660009081526011602052604090205460ff1615610b415760405163f411c32760e01b815260040160405180910390fd5b6001600160a01b03166000908152601160205260409020805460ff19166001179055565b610b6e82610a80565b610b77816115de565b610b818383611716565b505050565b600080610b94858585611016565b915081610ba186846116a7565b91509150935093915050565b6001600160a01b0381163314610bde5760405162461bcd60e51b8152600401610bd590613247565b60405180910390fd5b610be8828261179a565b5050565b6000610bf7816115de565b6001600160a01b038216610c1e5760405163d92e233d60e01b815260040160405180910390fd5b600e546001600160a01b0383811691161415610c4d5760405163c23f6ccb60e01b815260040160405180910390fd5b50600e80546001600160a01b0319166001600160a01b0392909216919091179055565b6000610c7b816115de565b610c836117ff565b50565b6000610c91816115de565b6001546001600160a01b0383811691161415610cc05760405163c23f6ccb60e01b815260040160405180910390fd5b50600180546001600160a01b0319166001600160a01b0392909216919091179055565b6000610cee816115de565b6008546001600160a01b0383811691161415610d1d5760405163c23f6ccb60e01b815260040160405180910390fd5b50600880546001600160a01b0319166001600160a01b0392909216919091179055565b6000818152601060205260408120548061091f575050600080525060106020527f6e0956cda88cad152e89927e53611735b61a5c762d1428573c6931b0a5efcb015490565b6000610d8f61184b565b610d97611870565b600080610da58c8a8a610b86565b91509150610db48c838361189a565b6000610dc68c8c8c8c8c8c8c8c611d4e565b90508c6001600160a01b03168b604051610de091906132a5565b60405180910390208d6001600160a01b03167fb8252c53ba357283262ad812196391399d4f958ea5ed7206980c539649d3f20b848d8888604051610e2794939291906132b1565b60405180910390a492505050610e3d6001600d55565b9998505050505050505050565b6000610e55816115de565b600b54821415610e785760405163c23f6ccb60e01b815260040160405180910390fd5b50600b55565b610e896000336110d3565b158015610eab5750610ea96000805160206139fb833981519152336110d3565b155b15610ec9576040516326f0f48160e01b815260040160405180910390fd5b600082815260106020526040902054811415610ef85760405163c23f6ccb60e01b815260040160405180910390fd5b60009182526010602052604090912055565b6000610f15816115de565b6004546001600160a01b0383811691161415610f445760405163c23f6ccb60e01b815260040160405180910390fd5b50600480546001600160a01b0319166001600160a01b0392909216919091179055565b6000610f72816115de565b610c83611e35565b610f856000336110d3565b158015610fa75750610fa56000805160206139fb833981519152336110d3565b155b15610fc5576040516326f0f48160e01b815260040160405180910390fd5b6007546001600160a01b0382811691161415610ff45760405163c23f6ccb60e01b815260040160405180910390fd5b600780546001600160a01b0319166001600160a01b0392909216919091179055565b60008061102c8361102686610d40565b90611e72565b90508061103c57600091506110cb565b6003546001600160a01b03868116911614801561107157506001600160a01b03851660009081526005602052604090205460ff165b1561107e578091506110cb565b6001600160a01b03851660009081526005602052604090205460ff16156110b0576110a98582611e7e565b91506110cb565b84604051630ac29ab760e31b8152600401610bd59190612c78565b509392505050565b6000918252602082815260408084206001600160a01b0393909316845291905290205460ff1690565b6000611107816115de565b6001600160a01b03821660009081526005602052604090205460ff1661114257816040516318317bd560e01b8152600401610bd59190612c78565b6001600160a01b0382166000908152600560205260408120805460ff191690555b600654811015610b8157826001600160a01b03166006828154811061118a5761118a6132e6565b6000918252602090912001546001600160a01b0316141561125757600680546111b590600190613312565b815481106111c5576111c56132e6565b600091825260209091200154600680546001600160a01b0390921691839081106111f1576111f16132e6565b9060005260206000200160006101000a8154816001600160a01b0302191690836001600160a01b03160217905550600680548061123057611230613329565b600082815260209020810160001990810180546001600160a01b0319169055019055505050565b806112618161333f565b915050611163565b6000611274816115de565b600a548214156112975760405163c23f6ccb60e01b815260040160405180910390fd5b50600a55565b60006112a8816115de565b6001600160a01b03821660009081526005602052604090205460ff16156112e25760405163f411c32760e01b815260040160405180910390fd5b506001600160a01b03166000818152600560205260408120805460ff191660019081179091556006805491820181559091527ff652222313e28459528d920b65115c16c04f3efc82aaedc97be59f3f377c0d3f0180546001600160a01b0319169091179055565b6113546000336110d3565b15801561137657506113746000805160206139fb833981519152336110d3565b155b15611394576040516326f0f48160e01b815260040160405180910390fd5b6001600160a01b0381166113bb5760405163d92e233d60e01b815260040160405180910390fd5b6001600160a01b03811660009081526011602052604090205460ff166113f657806040516324b1f80560e21b8152600401610bd59190612c78565b6001600160a01b03166000908152601160205260409020805460ff19169055565b61142082610a80565b611429816115de565b610b81838361179a565b600061143e816115de565b6002546001600160a01b038381169116141561146d5760405163c23f6ccb60e01b815260040160405180910390fd5b50600280546001600160a01b0319166001600160a01b0392909216919091179055565b600061149b816115de565b6001600160a01b0382166114c25760405163d92e233d60e01b815260040160405180910390fd5b600f546001600160a01b03838116911614156114f15760405163c23f6ccb60e01b815260040160405180910390fd5b50600f80546001600160a01b0319166001600160a01b0392909216919091179055565b600061151e61184b565b611526611870565b6000806115348b8a8a610b86565b915091506115438b838361189a565b6000611555338c8c8c8c8c8c8c612011565b90508b6001600160a01b03168b60405161156f91906132a5565b604051809103902061157e3390565b6001600160a01b03167fe5e15129b13f93a358c5c5c840b8234ac7497cca1fe6283fa962f6330bb071d2848d88886040516115bc94939291906132b1565b60405180910390a4925050506115d26001600d55565b98975050505050505050565b610c83813361213d565b600e546040516335313c2160e11b815260009182916001600160a01b0390911690636a6278429061161d908690600401612c78565b602060405180830381600087803b15801561163757600080fd5b505af115801561164b573d6000803e3d6000fd5b505050506040513d601f19601f82011682018060405250810190610a1c9190613365565b600b546000901561169a5761091f6064611694600b5485611e7290919063ffffffff16565b90612196565b506000919050565b919050565b6009546000908190156116e2576003546001600160a01b03858116911614156116d357506009546116e2565b6116df84600954611e7e565b90505b600a5415610a1c5761170e6117076064611694600a5487611e7290919063ffffffff16565b82906121a2565b949350505050565b61172082826110d3565b610be8576000828152602081815260408083206001600160a01b03851684529091529020805460ff191660011790556117563390565b6001600160a01b0316816001600160a01b0316837f2f8788117e7eff1d82e926ec794901d17c78024a50270940304540a733656f0d60405160405180910390a45050565b6117a482826110d3565b15610be8576000828152602081815260408083206001600160a01b0385168085529252808320805460ff1916905551339285917ff6391f5c32d9c69d2a47ea670b442974b53935d1edc7fd64eb21e047a839171b9190a45050565b6118076121ae565b600c805460ff191690557f5db9ee0a495bf2e6ff9c91a7834c1ba4fdd244a5e8aa4e537bd38aeae4b073aa335b6040516118419190612c78565b60405180910390a1565b600c5460ff161561186e5760405162461bcd60e51b8152600401610bd5906133b0565b565b6002600d5414156118935760405162461bcd60e51b8152600401610bd5906133f4565b6002600d55565b6118a482826121a2565b6000811180156118bd57506001546001600160a01b0316155b156118db5760405163fca2174f60e01b815260040160405180910390fd5b6000811180156118f457506002546001600160a01b0316155b156119125760405163fca2174f60e01b815260040160405180910390fd5b60008111801561192b57506003546001600160a01b0316155b156119495760405163fca2174f60e01b815260040160405180910390fd5b60008111801561196257506007546001600160a01b0316155b156119805760405163fca2174f60e01b815260040160405180910390fd5b8215801561198c575081155b1561199657611d48565b60006119a18461166f565b905060008311806119b25750600081115b80156119c757506008546001600160a01b0316155b156119e55760405163910af6f560e01b815260040160405180910390fd5b6001600160a01b03851660009081526005602052604090205460ff16611a205784604051630ac29ab760e31b8152600401610bd59190612c78565b6001600160a01b038516611cc257611a3884846121a2565b341015611a6357611a4984846121a2565b60405163091a6d0f60e01b8152600401610bd59190612d40565b6000611a6f85836121d0565b1115611b00576007546000906001600160a01b0316611a8e86846121d0565b604051611a9a90613404565b60006040518083038185875af1925050503d8060008114611ad7576040519150601f19603f3d011682016040523d82523d6000602084013e611adc565b606091505b5050905080611afe576040516312171d8360e31b815260040160405180910390fd5b505b8215611b8a576008546040516000916001600160a01b0316908590611b2490613404565b60006040518083038185875af1925050503d8060008114611b61576040519150601f19603f3d011682016040523d82523d6000602084013e611b66565b606091505b5050905080611b88576040516312171d8360e31b815260040160405180910390fd5b505b8015611c14576008546040516000916001600160a01b0316908390611bae90613404565b60006040518083038185875af1925050503d8060008114611beb576040519150601f19603f3d011682016040523d82523d6000602084013e611bf0565b606091505b5050905080611c12576040516312171d8360e31b815260040160405180910390fd5b505b611c1e84846121a2565b341115611cbd576000611c3b611c3486866121a2565b34906121d0565b90506000336001600160a01b031682604051611c5690613404565b60006040518083038185875af1925050503d8060008114611c93576040519150601f19603f3d011682016040523d82523d6000602084013e611c98565b606091505b5050905080611cba57604051633c31275160e21b815260040160405180910390fd5b50505b611d46565b6000611cce85836121d0565b1115611d0257600754611d029033906001600160a01b0316611cf087856121d0565b6001600160a01b0389169291906121dc565b8215611d2457600854611d24906001600160a01b0387811691339116866121dc565b8015611d4657600854611d46906001600160a01b0387811691339116846121dc565b505b50505050565b6000611d9e611d608a8a8a8a8a612234565b84848080601f0160208091040260200160405190810160405280939291908181526020018383808284376000920191909152508992506122a9915050565b600f546040516303dd904360e41b81526000916001600160a01b031690633dd9043090611dd5908d908d908c908c90600401613443565b602060405180830381600087803b158015611def57600080fd5b505af1158015611e03573d6000803e3d6000fd5b505050506040513d601f19601f82011682018060405250810190611e279190613365565b9a9950505050505050505050565b611e3d61184b565b600c805460ff191660011790557f62e78cea01bee320cd4e420270b5ea74000d11b0c9f74754ebdbfc544b05a2586118343390565b6000610a1c8284613484565b600081600081118015611e9a57506001546001600160a01b0316155b15611eb85760405163fca2174f60e01b815260040160405180910390fd5b600081118015611ed157506002546001600160a01b0316155b15611eef5760405163fca2174f60e01b815260040160405180910390fd5b600081118015611f0857506003546001600160a01b0316155b15611f265760405163fca2174f60e01b815260040160405180910390fd5b600081118015611f3f57506007546001600160a01b0316155b15611f5d5760405163fca2174f60e01b815260040160405180910390fd5b6001600160a01b03841660009081526005602052604090205460ff161580611f9257506003546001600160a01b038581169116145b15611fb2578360405163961c9a4f60e01b8152600401610bd59190612c78565b82611fc0576000915061200a565b6001600160a01b038416611ff257600254600354611feb916001600160a01b03908116911685612324565b915061200a565b600354611feb9085906001600160a01b031685612324565b5092915050565b6000612023611d608a8a8a8a8a612234565b600e546040516335313c2160e11b81526000916001600160a01b031690636a62784290612054908d90600401612c78565b602060405180830381600087803b15801561206e57600080fd5b505af1158015612082573d6000803e3d6000fd5b505050506040513d601f19601f820116820180604052508101906120a69190613365565b600f546040516303dd904360e41b81529192506001600160a01b031690633dd90430906120dd908d908d908c908c90600401613443565b602060405180830381600087803b1580156120f757600080fd5b505af115801561210b573d6000803e3d6000fd5b505050506040513d601f19601f8201168201806040525081019061212f9190613365565b509998505050505050505050565b61214782826110d3565b610be857612154816123e2565b61215f8360206123f4565b6040516020016121709291906134a3565b60408051601f198184030181529082905262461bcd60e51b8252610bd5916004016134f5565b6000610a1c828461351c565b6000610a1c8284613530565b600c5460ff1661186e5760405162461bcd60e51b8152600401610bd590613573565b6000610a1c8284613312565b611d48846323b872dd60e01b8585856040516024016121fd93929190613583565b60408051601f198184030181529190526020810180516001600160e01b03166001600160e01b03199093169290921790915261255f565b600061229d7f7503a77cf463259868f167e5b04bb93b908e722f1d532d8a0635f83ea802a2c187878051906020012087878780519060200120604051602001612282969594939291906135ab565b604051602081830303815290604052805190602001206125ee565b90505b95945050505050565b60006122b58484612601565b9050816001600160a01b0316816001600160a01b0316146122e957604051638baa579f60e01b815260040160405180910390fd5b6001600160a01b03811660009081526011602052604090205460ff16611d485780604051634a0bfec160e01b8152600401610bd59190612c78565b6000606080612333868661261d565b6001546040516307c0329d60e21b81529192506001600160a01b031690631f00ca749061236690879085906004016135fa565b60006040518083038186803b15801561237e57600080fd5b505afa158015612392573d6000803e3d6000fd5b505050506040513d6000823e601f3d908101601f191682016040526123ba91908101906136bc565b9150816000815181106123cf576123cf6132e6565b6020026020010151925050509392505050565b606061091f6001600160a01b03831660145b60606000612403836002613484565b61240e906002613530565b6001600160401b0381111561242557612425612ea8565b6040519080825280601f01601f19166020018201604052801561244f576020820181803683370190505b509050600360fc1b8160008151811061246a5761246a6132e6565b60200101906001600160f81b031916908160001a905350600f60fb1b81600181518110612499576124996132e6565b60200101906001600160f81b031916908160001a90535060006124bd846002613484565b6124c8906001613530565b90505b6001811115612540576f181899199a1a9b1b9c1cb0b131b232b360811b85600f16601081106124fc576124fc6132e6565b1a60f81b828281518110612512576125126132e6565b60200101906001600160f81b031916908160001a90535060049490941c93612539816136f6565b90506124cb565b508315610a1c5760405162461bcd60e51b8152600401610bd59061373f565b60006125b4826040518060400160405280602081526020017f5361666545524332303a206c6f772d6c6576656c2063616c6c206661696c6564815250856001600160a01b03166127af9092919063ffffffff16565b805190915015610b8157808060200190518101906125d29190613762565b610b815760405162461bcd60e51b8152600401610bd5906137ca565b600061091f6125fb6127be565b836128b1565b600080600061261085856128e4565b915091506110cb8161292a565b6002546060906001600160a01b038481169116148061264957506002546001600160a01b038381169116145b1561271357604080516002808252606082018352600092602083019080368337019050506002549091506001600160a01b0385811691161461268b5783612698565b6002546001600160a01b03165b816000815181106126ab576126ab6132e6565b6001600160a01b0392831660209182029290920101526002548482169116146126d457826126e1565b6002546001600160a01b03165b816001815181106126f4576126f46132e6565b6001600160a01b0390921660209283029190910190910152905061091f565b6040805160038082526080820190925260009160208201606080368337019050509050838160008151811061274a5761274a6132e6565b6001600160a01b03928316602091820292909201015260025482519116908290600190811061277b5761277b6132e6565b60200260200101906001600160a01b031690816001600160a01b03168152505082816002815181106126f4576126f46132e6565b606061170e84846000856129dd565b6000306001600160a01b037f00000000000000000000000000000000000000000000000000000000000000001614801561281757507f000000000000000000000000000000000000000000000000000000000000000046145b1561284157507f000000000000000000000000000000000000000000000000000000000000000090565b6128ac7f00000000000000000000000000000000000000000000000000000000000000007f00000000000000000000000000000000000000000000000000000000000000007f0000000000000000000000000000000000000000000000000000000000000000612a79565b905090565b600082826040516020016128c69291906137da565b60405160208183030381529060405280519060200120905092915050565b60008082516041141561291b5760208301516040840151606085015160001a61290f87828585612ab3565b94509450505050612923565b506000905060025b9250929050565b600081600481111561293e5761293e61380b565b14156129475750565b600181600481111561295b5761295b61380b565b14156129795760405162461bcd60e51b8152600401610bd590613850565b600281600481111561298d5761298d61380b565b14156129ab5760405162461bcd60e51b8152600401610bd590613894565b60038160048111156129bf576129bf61380b565b1415610c835760405162461bcd60e51b8152600401610bd5906138e3565b6060824710156129ff5760405162461bcd60e51b8152600401610bd590613936565b600080866001600160a01b03168587604051612a1b91906132a5565b60006040518083038185875af1925050503d8060008114612a58576040519150601f19603f3d011682016040523d82523d6000602084013e612a5d565b606091505b5091509150612a6e87838387612b60565b979650505050505050565b60008383834630604051602001612a94959493929190613946565b6040516020818303038152906040528051906020012090509392505050565b6000806fa2a8918ca85bafe22016d0b997e4df60600160ff1b03831115612ae05750600090506003612b57565b600060018787878760405160008152602001604052604051612b05949392919061399b565b6020604051602081039080840390855afa158015612b27573d6000803e3d6000fd5b5050604051601f1901519150506001600160a01b038116612b5057600060019250925050612b57565b9150600090505b94509492505050565b60608315612b9c578251612b95576001600160a01b0385163b612b955760405162461bcd60e51b8152600401610bd5906139ea565b508161170e565b61170e8383815115612bb15781518083602001fd5b8060405162461bcd60e51b8152600401610bd591906134f5565b805b8114610c8357600080fd5b803561091f81612bcb565b600060208284031215612bf857612bf8600080fd5b600061170e8484612bd8565b6001600160e01b03198116612bcd565b803561091f81612c04565b600060208284031215612c3457612c34600080fd5b600061170e8484612c14565b8015155b82525050565b6020810161091f8284612c40565b6001600160a01b031690565b600061091f82612c58565b612c4481612c64565b6020810161091f8284612c6f565b600061091f612c9a612c9784612c58565b90565b612c58565b600061091f82612c86565b600061091f82612c9f565b612c4481612caa565b6020810161091f8284612cb5565b6000612cd88383612c6f565b505060200190565b6000612cea825190565b80845260209384019383018060005b83811015612d1e578151612d0d8882612ccc565b975060208301925050600101612cf9565b509495945050505050565b60208082528101610a1c8184612ce0565b80612c44565b6020810161091f8284612d3a565b612bcd81612c64565b803561091f81612d4e565b60008060408385031215612d7857612d78600080fd5b6000612d848585612d57565b9250506020612d9585828601612bd8565b9150509250929050565b600060208284031215612db457612db4600080fd5b600061170e8484612d57565b60008060408385031215612dd657612dd6600080fd5b6000612de28585612bd8565b9250506020612d9585828601612d57565b600080600060608486031215612e0b57612e0b600080fd5b6000612e178686612d57565b9350506020612e2886828701612bd8565b9250506040612e3986828701612bd8565b9150509250925092565b60408101612e518285612d3a565b610a1c6020830184612d3a565b600061091f82612c64565b612bcd81612e5e565b803561091f81612e69565b600060208284031215612e9257612e92600080fd5b600061170e8484612e72565b601f01601f191690565b634e487b7160e01b600052604160045260246000fd5b612ec782612e9e565b81018181106001600160401b0382111715612ee457612ee4612ea8565b6040525050565b6000612ef660405190565b90506116a28282612ebe565b60006001600160401b03821115612f1b57612f1b612ea8565b612f2482612e9e565b60200192915050565b82818337506000910152565b6000612f4c612f4784612f02565b612eeb565b905082815260208101848484011115612f6757612f67600080fd5b6110cb848285612f2d565b600082601f830112612f8657612f86600080fd5b813561170e848260208601612f39565b60008083601f840112612fab57612fab600080fd5b5081356001600160401b03811115612fc557612fc5600080fd5b60208301915083600182028301111561292357612923600080fd5b60008060008060008060008060006101008a8c03121561300257613002600080fd5b600061300e8c8c612d57565b995050602061301f8c828d01612d57565b98505060408a01356001600160401b0381111561303e5761303e600080fd5b61304a8c828d01612f72565b975050606061305b8c828d01612bd8565b965050608061306c8c828d01612bd8565b95505060a08a01356001600160401b0381111561308b5761308b600080fd5b6130978c828d01612f72565b94505060c06130a88c828d01612d57565b93505060e08a01356001600160401b038111156130c7576130c7600080fd5b6130d38c828d01612f96565b92509250509295985092959850929598565b600080604083850312156130fb576130fb600080fd5b6000612d848585612bd8565b60008060008060008060008060e0898b03121561312657613126600080fd5b60006131328b8b612d57565b98505060208901356001600160401b0381111561315157613151600080fd5b61315d8b828c01612f72565b975050604061316e8b828c01612bd8565b965050606061317f8b828c01612bd8565b95505060808901356001600160401b0381111561319e5761319e600080fd5b6131aa8b828c01612f72565b94505060a06131bb8b828c01612d57565b93505060c08901356001600160401b038111156131da576131da600080fd5b6131e68b828c01612f96565b92509250509295985092959890939650565b602f81526000602082017f416363657373436f6e74726f6c3a2063616e206f6e6c792072656e6f756e636581526e103937b632b9903337b91039b2b63360891b602082015291505b5060400190565b6020808252810161091f816131f8565b60005b8381101561327257818101518382015260200161325a565b83811115611d485750506000910152565b600061328d825190565b61329b818560208601613257565b9290920192915050565b6000610a1c8284613283565b608081016132bf8287612d3a565b6132cc6020830186612d3a565b6132d96040830185612d3a565b6122a06060830184612d3a565b634e487b7160e01b600052603260045260246000fd5b634e487b7160e01b600052601160045260246000fd5b600082821015613324576133246132fc565b500390565b634e487b7160e01b600052603160045260246000fd5b6000600019821415613353576133536132fc565b5060010190565b805161091f81612bcb565b60006020828403121561337a5761337a600080fd5b600061170e848461335a565b601081526000602082016f14185d5cd8589b194e881c185d5cd95960821b815291505b5060200190565b6020808252810161091f81613386565b601f81526000602082017f5265656e7472616e637947756172643a207265656e7472616e742063616c6c00815291506133a9565b6020808252810161091f816133c0565b600061091f82612c97565b6000613419825190565b808452602084019350613430818560208601613257565b61343981612e9e565b9093019392505050565b608081016134518287612c6f565b8181036020830152613463818661340f565b90506134726040830185612d3a565b818103606083015261229d818461340f565b600081600019048311821515161561349e5761349e6132fc565b500290565b76020b1b1b2b9b9a1b7b73a3937b61d1030b1b1b7bab73a1604d1b815260170160006134cf8285613283565b7001034b99036b4b9b9b4b733903937b6329607d1b8152601101915061170e8284613283565b60208082528101610a1c818461340f565b634e487b7160e01b600052601260045260246000fd5b60008261352b5761352b613506565b500490565b60008219821115613543576135436132fc565b500190565b601481526000602082017314185d5cd8589b194e881b9bdd081c185d5cd95960621b815291506133a9565b6020808252810161091f81613548565b606081016135918286612c6f565b61359e6020830185612c6f565b61170e6040830184612d3a565b60c081016135b98289612d3a565b6135c66020830188612c6f565b6135d36040830187612d3a565b6135e06060830186612d3a565b6135ed6080830185612d3a565b612a6e60a0830184612d3a565b604081016136088285612d3a565b818103602083015261170e8184612ce0565b60006001600160401b0382111561363357613633612ea8565b5060209081020190565b600061364b612f478461361a565b8381529050602080820190840283018581111561366a5761366a600080fd5b835b8181101561368e578061367f888261335a565b8452506020928301920161366c565b5050509392505050565b600082601f8301126136ac576136ac600080fd5b815161170e84826020860161363d565b6000602082840312156136d1576136d1600080fd5b81516001600160401b038111156136ea576136ea600080fd5b61170e84828501613698565b600081613705576137056132fc565b506000190190565b60208082527f537472696e67733a20686578206c656e67746820696e73756666696369656e74910190815260006133a9565b6020808252810161091f8161370d565b801515612bcd565b805161091f8161374f565b60006020828403121561377757613777600080fd5b600061170e8484613757565b602a81526000602082017f5361666545524332303a204552433230206f7065726174696f6e20646964206e8152691bdd081cdd58d8d9595960b21b60208201529150613240565b6020808252810161091f81613783565b61190160f01b815260020160006137f18285612d3a565b6020820191506138018284612d3a565b5060200192915050565b634e487b7160e01b600052602160045260246000fd5b601881526000602082017745434453413a20696e76616c6964207369676e617475726560401b815291506133a9565b6020808252810161091f81613821565b601f81526000602082017f45434453413a20696e76616c6964207369676e6174757265206c656e67746800815291506133a9565b6020808252810161091f81613860565b602281526000602082017f45434453413a20696e76616c6964207369676e6174757265202773272076616c815261756560f01b60208201529150613240565b6020808252810161091f816138a4565b602681526000602082017f416464726573733a20696e73756666696369656e742062616c616e636520666f8152651c8818d85b1b60d21b60208201529150613240565b6020808252810161091f816138f3565b60a081016139548288612d3a565b6139616020830187612d3a565b61396e6040830186612d3a565b61397b6060830185612d3a565b6139886080830184612c6f565b9695505050505050565b60ff8116612c44565b608081016139a98287612d3a565b6132cc6020830186613992565b601d81526000602082017f416464726573733a2063616c6c20746f206e6f6e2d636f6e7472616374000000815291506133a9565b6020808252810161091f816139b656fe52eafc11f6f81f86878bffd31109a0d92f37506527754f00788853ff9f63b130a26469706673582212204cf25ceca81367b4eef2bdea5893cebd0a3c10240fa90e098b8d2dbaa8b2f1e264736f6c63430008080033",
  "devdoc": {
    "author": "Masa Finance",
    "details": "From this smart contract we can mint new Soulbound Identities and Soul Name NFTs. This minting can be done paying a fee in ETH, USDC or MASA",
    "kind": "dev",
    "methods": {
      "addAuthority(address)": {
        "details": "The caller must have the admin or project admin role to call this function",
        "params": {
          "_authority": "New authority to add"
        }
      },
      "constructor": {
        "details": "Creates a new Soul Store, that has the role to minting new Soulbound Identities and Soul Name NFTs, paying a fee",
        "params": {
          "_nameRegistrationPricePerYear": "Price of the default name registering in stable coin per year",
          "_soulBoundIdentity": "Address of the Soulbound identity contract",
          "_soulName": "Address of the SoulName contract",
          "admin": "Administrator of the smart contract",
          "paymentParams": "Payment gateway params"
        }
      },
      "disablePaymentMethod(address)": {
        "details": "The caller must have the admin role to call this function",
        "params": {
          "_paymentMethod": "Token to remove"
        }
      },
      "enablePaymentMethod(address)": {
        "details": "The caller must have the admin role to call this function",
        "params": {
          "_paymentMethod": "New token to add"
        }
      },
      "getEnabledPaymentMethods()": {
        "details": "Returns the address of all available payment methods",
        "returns": {
          "_0": "Array of all enabled payment methods"
        }
      },
      "getNameRegistrationPricePerYear(uint256)": {
        "details": "Returns the price for registering per year in USD for an specific name length",
        "params": {
          "nameLength": "Length of the name"
        },
        "returns": {
          "_0": "Price in stable coin for that name length"
        }
      },
      "getPriceForMintingName(address,uint256,uint256)": {
        "details": "Returns current pricing for name minting for a given name length and years period",
        "params": {
          "nameLength": "Length of the name",
          "paymentMethod": "Address of token that user want to pay",
          "yearsPeriod": "Years of validity of the name"
        },
        "returns": {
          "price": "Current price of the name minting in the given payment method"
        }
      },
      "getPriceForMintingNameWithProtocolFee(address,uint256,uint256)": {
        "details": "Returns current pricing for name minting for a given name length and years period with protocol fee",
        "params": {
          "nameLength": "Length of the name",
          "paymentMethod": "Address of token that user want to pay",
          "yearsPeriod": "Years of validity of the name"
        },
        "returns": {
          "price": "Current price of the name minting in the given payment method",
          "protocolFee": "Current protocol fee of the name minting in the given payment method"
        }
      },
      "getProtocolFee(address,uint256)": {
        "details": "This method will calculate the protocol fee based on the payment method",
        "params": {
          "amount": "Price to be paid in the specified payment method",
          "paymentMethod": "Address of token that user want to pay"
        }
      },
      "getProtocolFeeSub(uint256)": {
        "details": "This method will calculate the protocol fee based on the payment method",
        "params": {
          "amount": "Price to be paid in the specified payment method"
        }
      },
      "getRoleAdmin(bytes32)": {
        "details": "Returns the admin role that controls `role`. See {grantRole} and {revokeRole}. To change a role's admin, use {_setRoleAdmin}."
      },
      "grantRole(bytes32,address)": {
        "details": "Grants `role` to `account`. If `account` had not been already granted `role`, emits a {RoleGranted} event. Requirements: - the caller must have ``role``'s admin role. May emit a {RoleGranted} event."
      },
      "hasRole(bytes32,address)": {
        "details": "Returns `true` if `account` has been granted `role`."
      },
      "pause()": {
        "details": "The caller must have the admin role to call this function"
      },
      "paused()": {
        "details": "Returns true if the contract is paused, and false otherwise."
      },
      "purchaseIdentity()": {
        "details": "This function allows the purchase of a soulbound identity for free",
        "returns": {
          "_0": "TokenId of the new soulbound identity"
        }
      },
      "purchaseIdentityAndName(address,string,uint256,uint256,string,address,bytes)": {
        "details": "This function allows the purchase of a soulbound identity and name using stable coin (USDC), native token (ETH) or utility token (MASA)",
        "params": {
          "authorityAddress": "Address of the authority",
          "name": "Name of the new soul name",
          "nameLength": "Length of the name",
          "paymentMethod": "Address of token that user want to pay",
          "signature": "Signature of the authority",
          "tokenURI": "URI of the NFT",
          "yearsPeriod": "Years of validity of the name"
        },
        "returns": {
          "_0": "TokenId of the new soulbound identity"
        }
      },
      "purchaseName(address,address,string,uint256,uint256,string,address,bytes)": {
        "details": "This function allows the purchase of a soul name using stable coin (USDC), native token (ETH) or utility token (MASA)",
        "params": {
          "authorityAddress": "Address of the authority",
          "name": "Name of the new soul name",
          "nameLength": "Length of the name",
          "paymentMethod": "Address of token that user want to pay",
          "signature": "Signature of the authority",
          "to": "Address of the owner of the new soul name",
          "tokenURI": "URI of the NFT",
          "yearsPeriod": "Years of validity of the name"
        },
        "returns": {
          "_0": "TokenId of the new sou name"
        }
      },
      "removeAuthority(address)": {
        "details": "The caller must have the admin or project admin role to call this function",
        "params": {
          "_authority": "Authority to remove"
        }
      },
      "renounceRole(bytes32,address)": {
        "details": "Revokes `role` from the calling account. Roles are often managed via {grantRole} and {revokeRole}: this function's purpose is to provide a mechanism for accounts to lose their privileges if they are compromised (such as when a trusted device is misplaced). If the calling account had been revoked `role`, emits a {RoleRevoked} event. Requirements: - the caller must be `account`. May emit a {RoleRevoked} event."
      },
      "revokeRole(bytes32,address)": {
        "details": "Revokes `role` from `account`. If `account` had been granted `role`, emits a {RoleRevoked} event. Requirements: - the caller must have ``role``'s admin role. May emit a {RoleRevoked} event."
      },
      "setMasaToken(address)": {
        "details": "The caller must have the admin role to call this function It can be set to address(0) to disable paying in MASA",
        "params": {
          "_masaToken": "New utility token to pay the fee in"
        }
      },
      "setNameRegistrationPricePerYear(uint256,uint256)": {
        "details": "The caller must have the admin or project admin role to call this function",
        "params": {
          "_nameLength": "Length of the name",
          "_nameRegistrationPricePerYear": "New price of the name registering per one year in stable coin for that name length per year"
        }
      },
      "setProjectFeeReceiver(address)": {
        "details": "The caller must have the admin or project admin role to call this function",
        "params": {
          "_projectFeeReceiver": "New project fee receiver wallet"
        }
      },
      "setProtocolFeeAmount(uint256)": {
        "details": "The caller must have the admin role to call this function",
        "params": {
          "_protocolFeeAmount": "New protocol fee amount"
        }
      },
      "setProtocolFeePercent(uint256)": {
        "details": "The caller must have the admin role to call this function",
        "params": {
          "_protocolFeePercent": "New protocol fee percent added to the project fee"
        }
      },
      "setProtocolFeePercentSub(uint256)": {
        "details": "The caller must have the admin role to call this function",
        "params": {
          "_protocolFeePercentSub": "New protocol fee percent substracted from the amount"
        }
      },
      "setProtocolFeeReceiver(address)": {
        "details": "The caller must have the admin role to call this function",
        "params": {
          "_protocolFeeReceiver": "New protocol fee wallet"
        }
      },
      "setSoulName(address)": {
        "details": "The caller must have the admin role to call this function",
        "params": {
          "_soulName": "New SoulName contract address"
        }
      },
      "setSoulboundIdentity(address)": {
        "details": "The caller must have the admin role to call this function",
        "params": {
          "_soulboundIdentity": "New SoulboundIdentity contract address"
        }
      },
      "setStableCoin(address)": {
        "details": "The caller must have the admin role to call this function",
        "params": {
          "_stableCoin": "New stable coin to pay the fee in"
        }
      },
      "setSwapRouter(address)": {
        "details": "The caller must have the admin role to call this function",
        "params": {
          "_swapRouter": "New swap router address"
        }
      },
      "setWrappedNativeToken(address)": {
        "details": "The caller must have the admin role to call this function",
        "params": {
          "_wrappedNativeToken": "New wrapped native token address"
        }
      },
      "supportsInterface(bytes4)": {
        "details": "See {IERC165-supportsInterface}."
      },
      "unpause()": {
        "details": "The caller must have the admin role to call this function"
      }
    },
    "title": "Soul Store",
    "version": 1
  },
  "userdoc": {
    "kind": "user",
    "methods": {
      "addAuthority(address)": {
        "notice": "Adds a new authority to the list of authorities"
      },
      "constructor": {
        "notice": "Creates a new Soul Store"
      },
      "disablePaymentMethod(address)": {
        "notice": "Removes a token as a valid payment method"
      },
      "enablePaymentMethod(address)": {
        "notice": "Adds a new token as a valid payment method"
      },
      "getEnabledPaymentMethods()": {
        "notice": "Returns all available payment methods"
      },
      "getNameRegistrationPricePerYear(uint256)": {
        "notice": "Returns the price of register a name per year in stable coin for an specific length"
      },
      "getPriceForMintingName(address,uint256,uint256)": {
        "notice": "Returns the price of the name minting"
      },
      "getPriceForMintingNameWithProtocolFee(address,uint256,uint256)": {
        "notice": "Returns the price of the name minting with protocol fee"
      },
      "getProtocolFee(address,uint256)": {
        "notice": "Calculates the protocol fee added to the project fee"
      },
      "getProtocolFeeSub(uint256)": {
        "notice": "Calculates the protocol fee substracted from the amount"
      },
      "pause()": {
        "notice": "Pauses the smart contract"
      },
      "purchaseIdentity()": {
        "notice": "Mints a new Soulbound Identity purchasing it"
      },
      "purchaseIdentityAndName(address,string,uint256,uint256,string,address,bytes)": {
        "notice": "Mints a new Soulbound Identity and Name purchasing it"
      },
      "purchaseName(address,address,string,uint256,uint256,string,address,bytes)": {
        "notice": "Mints a new Soul Name purchasing it"
      },
      "removeAuthority(address)": {
        "notice": "Removes an authority from the list of authorities"
      },
      "setMasaToken(address)": {
        "notice": "Sets the utility token to pay the fee in (MASA)"
      },
      "setNameRegistrationPricePerYear(uint256,uint256)": {
        "notice": "Sets the price of the name registering per one year in stable coin"
      },
      "setProjectFeeReceiver(address)": {
        "notice": "Set the project fee receiver wallet"
      },
      "setProtocolFeeAmount(uint256)": {
        "notice": "Set the protocol fee amount"
      },
      "setProtocolFeePercent(uint256)": {
        "notice": "Set the protocol fee percent added to the project fee"
      },
      "setProtocolFeePercentSub(uint256)": {
        "notice": "Set the protocol fee percent substracted from the amount"
      },
      "setProtocolFeeReceiver(address)": {
        "notice": "Set the protocol fee wallet"
      },
      "setSoulName(address)": {
        "notice": "Sets the SoulName contract address linked to this store"
      },
      "setSoulboundIdentity(address)": {
        "notice": "Sets the SoulboundIdentity contract address linked to this store"
      },
      "setStableCoin(address)": {
        "notice": "Sets the stable coin to pay the fee in (USDC)"
      },
      "setSwapRouter(address)": {
        "notice": "Sets the swap router address"
      },
      "setWrappedNativeToken(address)": {
        "notice": "Sets the wrapped native token address"
      },
      "unpause()": {
        "notice": "Unpauses the smart contract"
      }
    },
    "notice": "Soul Store, that can mint new Soulbound Identities and Soul Name NFTs, paying a fee",
    "version": 1
  },
  "storageLayout": {
    "storage": [
      {
        "astId": 24,
        "contract": "contracts/SoulStore.sol:SoulStore",
        "label": "_roles",
        "offset": 0,
        "slot": "0",
        "type": "t_mapping(t_bytes32,t_struct(RoleData)19_storage)"
      },
      {
        "astId": 9280,
        "contract": "contracts/SoulStore.sol:SoulStore",
        "label": "swapRouter",
        "offset": 0,
        "slot": "1",
        "type": "t_address"
      },
      {
        "astId": 9282,
        "contract": "contracts/SoulStore.sol:SoulStore",
        "label": "wrappedNativeToken",
        "offset": 0,
        "slot": "2",
        "type": "t_address"
      },
      {
        "astId": 9284,
        "contract": "contracts/SoulStore.sol:SoulStore",
        "label": "stableCoin",
        "offset": 0,
        "slot": "3",
        "type": "t_address"
      },
      {
        "astId": 9286,
        "contract": "contracts/SoulStore.sol:SoulStore",
        "label": "masaToken",
        "offset": 0,
        "slot": "4",
        "type": "t_address"
      },
      {
        "astId": 9290,
        "contract": "contracts/SoulStore.sol:SoulStore",
        "label": "enabledPaymentMethod",
        "offset": 0,
        "slot": "5",
        "type": "t_mapping(t_address,t_bool)"
      },
      {
        "astId": 9293,
        "contract": "contracts/SoulStore.sol:SoulStore",
        "label": "enabledPaymentMethods",
        "offset": 0,
        "slot": "6",
        "type": "t_array(t_address)dyn_storage"
      },
      {
        "astId": 9295,
        "contract": "contracts/SoulStore.sol:SoulStore",
        "label": "projectFeeReceiver",
        "offset": 0,
        "slot": "7",
        "type": "t_address"
      },
      {
        "astId": 9297,
        "contract": "contracts/SoulStore.sol:SoulStore",
        "label": "protocolFeeReceiver",
        "offset": 0,
        "slot": "8",
        "type": "t_address"
      },
      {
        "astId": 9299,
        "contract": "contracts/SoulStore.sol:SoulStore",
        "label": "protocolFeeAmount",
        "offset": 0,
        "slot": "9",
        "type": "t_uint256"
      },
      {
        "astId": 9301,
        "contract": "contracts/SoulStore.sol:SoulStore",
        "label": "protocolFeePercent",
        "offset": 0,
        "slot": "10",
        "type": "t_uint256"
      },
      {
        "astId": 9303,
        "contract": "contracts/SoulStore.sol:SoulStore",
        "label": "protocolFeePercentSub",
        "offset": 0,
        "slot": "11",
        "type": "t_uint256"
      },
      {
        "astId": 519,
        "contract": "contracts/SoulStore.sol:SoulStore",
        "label": "_paused",
        "offset": 0,
        "slot": "12",
        "type": "t_bool"
      },
      {
        "astId": 620,
        "contract": "contracts/SoulStore.sol:SoulStore",
        "label": "_status",
        "offset": 0,
        "slot": "13",
        "type": "t_uint256"
      },
      {
        "astId": 7524,
        "contract": "contracts/SoulStore.sol:SoulStore",
        "label": "soulboundIdentity",
        "offset": 0,
        "slot": "14",
        "type": "t_contract(ISoulboundIdentity)10443"
      },
      {
        "astId": 7527,
        "contract": "contracts/SoulStore.sol:SoulStore",
        "label": "soulName",
        "offset": 0,
        "slot": "15",
        "type": "t_contract(ISoulName)10379"
      },
      {
        "astId": 7531,
        "contract": "contracts/SoulStore.sol:SoulStore",
        "label": "nameRegistrationPricePerYear",
        "offset": 0,
        "slot": "16",
        "type": "t_mapping(t_uint256,t_uint256)"
      },
      {
        "astId": 7535,
        "contract": "contracts/SoulStore.sol:SoulStore",
        "label": "authorities",
        "offset": 0,
        "slot": "17",
        "type": "t_mapping(t_address,t_bool)"
      }
    ],
    "types": {
      "t_address": {
        "encoding": "inplace",
        "label": "address",
        "numberOfBytes": "20"
      },
      "t_array(t_address)dyn_storage": {
        "base": "t_address",
        "encoding": "dynamic_array",
        "label": "address[]",
        "numberOfBytes": "32"
      },
      "t_bool": {
        "encoding": "inplace",
        "label": "bool",
        "numberOfBytes": "1"
      },
      "t_bytes32": {
        "encoding": "inplace",
        "label": "bytes32",
        "numberOfBytes": "32"
      },
      "t_contract(ISoulName)10379": {
        "encoding": "inplace",
        "label": "contract ISoulName",
        "numberOfBytes": "20"
      },
      "t_contract(ISoulboundIdentity)10443": {
        "encoding": "inplace",
        "label": "contract ISoulboundIdentity",
        "numberOfBytes": "20"
      },
      "t_mapping(t_address,t_bool)": {
        "encoding": "mapping",
        "key": "t_address",
        "label": "mapping(address => bool)",
        "numberOfBytes": "32",
        "value": "t_bool"
      },
      "t_mapping(t_bytes32,t_struct(RoleData)19_storage)": {
        "encoding": "mapping",
        "key": "t_bytes32",
        "label": "mapping(bytes32 => struct AccessControl.RoleData)",
        "numberOfBytes": "32",
        "value": "t_struct(RoleData)19_storage"
      },
      "t_mapping(t_uint256,t_uint256)": {
        "encoding": "mapping",
        "key": "t_uint256",
        "label": "mapping(uint256 => uint256)",
        "numberOfBytes": "32",
        "value": "t_uint256"
      },
      "t_struct(RoleData)19_storage": {
        "encoding": "inplace",
        "label": "struct AccessControl.RoleData",
        "members": [
          {
            "astId": 16,
            "contract": "contracts/SoulStore.sol:SoulStore",
            "label": "members",
            "offset": 0,
            "slot": "0",
            "type": "t_mapping(t_address,t_bool)"
          },
          {
            "astId": 18,
            "contract": "contracts/SoulStore.sol:SoulStore",
            "label": "adminRole",
            "offset": 0,
            "slot": "1",
            "type": "t_bytes32"
          }
        ],
        "numberOfBytes": "64"
      },
      "t_uint256": {
        "encoding": "inplace",
        "label": "uint256",
        "numberOfBytes": "32"
      }
    }
  }
}