{
  "address": "0x784F4d8fB4bf51431e47b014DdA159e31ACC714e",
  "abi": [
    {
      "inputs": [
        {
          "internalType": "address",
          "name": "admin",
          "type": "address"
        },
        {
          "internalType": "string",
          "name": "baseTokenURI",
          "type": "string"
        },
        {
          "internalType": "contract ISoulboundIdentity",
          "name": "soulboundIdentity",
          "type": "address"
        },
        {
          "components": [
            {
              "internalType": "address",
              "name": "swapRouter",
              "type": "address"
            },
            {
              "internalType": "address",
              "name": "wrappedNativeToken",
              "type": "address"
            },
            {
              "internalType": "address",
              "name": "stableCoin",
              "type": "address"
            },
            {
              "internalType": "address",
              "name": "masaToken",
              "type": "address"
            },
            {
              "internalType": "address",
              "name": "reserveWallet",
              "type": "address"
            }
          ],
          "internalType": "struct PaymentGateway.PaymentParams",
          "name": "paymentParams",
          "type": "tuple"
        }
      ],
      "stateMutability": "nonpayable",
      "type": "constructor"
    },
    {
      "inputs": [],
      "name": "AlreadyAdded",
      "type": "error"
    },
    {
      "inputs": [
        {
          "internalType": "address",
          "name": "caller",
          "type": "address"
        }
      ],
      "name": "CallerNotOwner",
      "type": "error"
    },
    {
      "inputs": [
        {
          "internalType": "address",
          "name": "to",
          "type": "address"
        }
      ],
      "name": "CreditScoreAlreadyCreated",
      "type": "error"
    },
    {
      "inputs": [
        {
          "internalType": "uint256",
          "name": "amount",
          "type": "uint256"
        }
      ],
      "name": "InsufficientEthAmount",
      "type": "error"
    },
    {
      "inputs": [
        {
          "internalType": "address",
          "name": "paymentMethod",
          "type": "address"
        }
      ],
      "name": "InvalidPaymentMethod",
      "type": "error"
    },
    {
      "inputs": [],
      "name": "InvalidSignature",
      "type": "error"
    },
    {
      "inputs": [
        {
          "internalType": "address",
          "name": "token",
          "type": "address"
        }
      ],
      "name": "InvalidToken",
      "type": "error"
    },
    {
      "inputs": [
        {
          "internalType": "address",
          "name": "erc20token",
          "type": "address"
        }
      ],
      "name": "NonExistingErc20Token",
      "type": "error"
    },
    {
      "inputs": [
        {
          "internalType": "address",
          "name": "signer",
          "type": "address"
        }
      ],
      "name": "NotAuthorized",
      "type": "error"
    },
    {
      "inputs": [],
      "name": "RefundFailed",
      "type": "error"
    },
    {
      "inputs": [],
      "name": "SameValue",
      "type": "error"
    },
    {
      "inputs": [],
      "name": "TransferFailed",
      "type": "error"
    },
    {
      "inputs": [],
      "name": "ZeroAddress",
      "type": "error"
    },
    {
      "anonymous": false,
      "inputs": [
        {
          "indexed": true,
          "internalType": "address",
          "name": "_owner",
          "type": "address"
        },
        {
          "indexed": true,
          "internalType": "uint256",
          "name": "_tokenId",
          "type": "uint256"
        }
      ],
      "name": "Burn",
      "type": "event"
    },
    {
      "anonymous": false,
      "inputs": [
        {
          "indexed": true,
          "internalType": "address",
          "name": "_owner",
          "type": "address"
        },
        {
          "indexed": true,
          "internalType": "uint256",
          "name": "_tokenId",
          "type": "uint256"
        }
      ],
      "name": "Mint",
      "type": "event"
    },
    {
      "anonymous": false,
      "inputs": [
        {
          "indexed": true,
          "internalType": "address",
          "name": "previousOwner",
          "type": "address"
        },
        {
          "indexed": true,
          "internalType": "address",
          "name": "newOwner",
          "type": "address"
        }
      ],
      "name": "OwnershipTransferred",
      "type": "event"
    },
    {
      "anonymous": false,
      "inputs": [
        {
          "indexed": true,
          "internalType": "bytes32",
          "name": "role",
          "type": "bytes32"
        },
        {
          "indexed": true,
          "internalType": "bytes32",
          "name": "previousAdminRole",
          "type": "bytes32"
        },
        {
          "indexed": true,
          "internalType": "bytes32",
          "name": "newAdminRole",
          "type": "bytes32"
        }
      ],
      "name": "RoleAdminChanged",
      "type": "event"
    },
    {
      "anonymous": false,
      "inputs": [
        {
          "indexed": true,
          "internalType": "bytes32",
          "name": "role",
          "type": "bytes32"
        },
        {
          "indexed": true,
          "internalType": "address",
          "name": "account",
          "type": "address"
        },
        {
          "indexed": true,
          "internalType": "address",
          "name": "sender",
          "type": "address"
        }
      ],
      "name": "RoleGranted",
      "type": "event"
    },
    {
      "anonymous": false,
      "inputs": [
        {
          "indexed": true,
          "internalType": "bytes32",
          "name": "role",
          "type": "bytes32"
        },
        {
          "indexed": true,
          "internalType": "address",
          "name": "account",
          "type": "address"
        },
        {
          "indexed": true,
          "internalType": "address",
          "name": "sender",
          "type": "address"
        }
      ],
      "name": "RoleRevoked",
      "type": "event"
    },
    {
      "anonymous": false,
      "inputs": [
        {
          "indexed": false,
          "internalType": "uint256",
          "name": "tokenId",
          "type": "uint256"
        },
        {
          "indexed": false,
          "internalType": "uint256",
          "name": "identityId",
          "type": "uint256"
        },
        {
          "indexed": false,
          "internalType": "address",
          "name": "authorityAddress",
          "type": "address"
        },
        {
          "indexed": false,
          "internalType": "uint256",
          "name": "signatureDate",
          "type": "uint256"
        },
        {
          "indexed": false,
          "internalType": "address",
          "name": "paymentMethod",
          "type": "address"
        },
        {
          "indexed": false,
          "internalType": "uint256",
          "name": "mintPrice",
          "type": "uint256"
        }
      ],
      "name": "SoulboundCreditScoreMinted",
      "type": "event"
    },
    {
      "inputs": [],
      "name": "DEFAULT_ADMIN_ROLE",
      "outputs": [
        {
          "internalType": "bytes32",
          "name": "",
          "type": "bytes32"
        }
      ],
      "stateMutability": "view",
      "type": "function"
    },
    {
      "inputs": [
        {
          "internalType": "address",
          "name": "_authority",
          "type": "address"
        }
      ],
      "name": "addAuthority",
      "outputs": [],
      "stateMutability": "nonpayable",
      "type": "function"
    },
    {
      "inputs": [],
      "name": "addLinkPrice",
      "outputs": [
        {
          "internalType": "uint256",
          "name": "",
          "type": "uint256"
        }
      ],
      "stateMutability": "view",
      "type": "function"
    },
    {
      "inputs": [],
      "name": "addLinkPriceMASA",
      "outputs": [
        {
          "internalType": "uint256",
          "name": "",
          "type": "uint256"
        }
      ],
      "stateMutability": "view",
      "type": "function"
    },
    {
      "inputs": [
        {
          "internalType": "address",
          "name": "",
          "type": "address"
        }
      ],
      "name": "authorities",
      "outputs": [
        {
          "internalType": "bool",
          "name": "",
          "type": "bool"
        }
      ],
      "stateMutability": "view",
      "type": "function"
    },
    {
      "inputs": [
        {
          "internalType": "address",
          "name": "owner",
          "type": "address"
        }
      ],
      "name": "balanceOf",
      "outputs": [
        {
          "internalType": "uint256",
          "name": "",
          "type": "uint256"
        }
      ],
      "stateMutability": "view",
      "type": "function"
    },
    {
      "inputs": [
        {
          "internalType": "uint256",
          "name": "tokenId",
          "type": "uint256"
        }
      ],
      "name": "burn",
      "outputs": [],
      "stateMutability": "nonpayable",
      "type": "function"
    },
    {
      "inputs": [
        {
          "internalType": "address",
          "name": "_paymentMethod",
          "type": "address"
        }
      ],
      "name": "disablePaymentMethod",
      "outputs": [],
      "stateMutability": "nonpayable",
      "type": "function"
    },
    {
      "inputs": [
        {
          "internalType": "address",
          "name": "_paymentMethod",
          "type": "address"
        }
      ],
      "name": "enablePaymentMethod",
      "outputs": [],
      "stateMutability": "nonpayable",
      "type": "function"
    },
    {
      "inputs": [
        {
          "internalType": "address",
          "name": "",
          "type": "address"
        }
      ],
      "name": "enabledPaymentMethod",
      "outputs": [
        {
          "internalType": "bool",
          "name": "",
          "type": "bool"
        }
      ],
      "stateMutability": "view",
      "type": "function"
    },
    {
      "inputs": [
        {
          "internalType": "uint256",
          "name": "",
          "type": "uint256"
        }
      ],
      "name": "enabledPaymentMethods",
      "outputs": [
        {
          "internalType": "address",
          "name": "",
          "type": "address"
        }
      ],
      "stateMutability": "view",
      "type": "function"
    },
    {
      "inputs": [
        {
          "internalType": "uint256",
          "name": "tokenId",
          "type": "uint256"
        }
      ],
      "name": "exists",
      "outputs": [
        {
          "internalType": "bool",
          "name": "",
          "type": "bool"
        }
      ],
      "stateMutability": "view",
      "type": "function"
    },
    {
      "inputs": [],
      "name": "getEnabledPaymentMethods",
      "outputs": [
        {
          "internalType": "address[]",
          "name": "",
          "type": "address[]"
        }
      ],
      "stateMutability": "view",
      "type": "function"
    },
    {
      "inputs": [
        {
          "internalType": "uint256",
          "name": "tokenId",
          "type": "uint256"
        }
      ],
      "name": "getIdentityId",
      "outputs": [
        {
          "internalType": "uint256",
          "name": "",
          "type": "uint256"
        }
      ],
      "stateMutability": "view",
      "type": "function"
    },
    {
      "inputs": [
        {
          "internalType": "address",
          "name": "paymentMethod",
          "type": "address"
        }
      ],
      "name": "getMintPrice",
      "outputs": [
        {
          "internalType": "uint256",
          "name": "",
          "type": "uint256"
        }
      ],
      "stateMutability": "view",
      "type": "function"
    },
    {
      "inputs": [
        {
          "internalType": "bytes32",
          "name": "role",
          "type": "bytes32"
        }
      ],
      "name": "getRoleAdmin",
      "outputs": [
        {
          "internalType": "bytes32",
          "name": "",
          "type": "bytes32"
        }
      ],
      "stateMutability": "view",
      "type": "function"
    },
    {
      "inputs": [
        {
          "internalType": "bytes32",
          "name": "role",
          "type": "bytes32"
        },
        {
          "internalType": "address",
          "name": "account",
          "type": "address"
        }
      ],
      "name": "grantRole",
      "outputs": [],
      "stateMutability": "nonpayable",
      "type": "function"
    },
    {
      "inputs": [
        {
          "internalType": "bytes32",
          "name": "role",
          "type": "bytes32"
        },
        {
          "internalType": "address",
          "name": "account",
          "type": "address"
        }
      ],
      "name": "hasRole",
      "outputs": [
        {
          "internalType": "bool",
          "name": "",
          "type": "bool"
        }
      ],
      "stateMutability": "view",
      "type": "function"
    },
    {
      "inputs": [],
      "name": "masaToken",
      "outputs": [
        {
          "internalType": "address",
          "name": "",
          "type": "address"
        }
      ],
      "stateMutability": "view",
      "type": "function"
    },
    {
      "inputs": [
        {
          "internalType": "address",
          "name": "paymentMethod",
          "type": "address"
        },
        {
          "internalType": "uint256",
          "name": "identityId",
          "type": "uint256"
        },
        {
          "internalType": "address",
          "name": "authorityAddress",
          "type": "address"
        },
        {
          "internalType": "uint256",
          "name": "signatureDate",
          "type": "uint256"
        },
        {
          "internalType": "bytes",
          "name": "signature",
          "type": "bytes"
        }
      ],
      "name": "mint",
      "outputs": [
        {
          "internalType": "uint256",
          "name": "",
          "type": "uint256"
        }
      ],
      "stateMutability": "payable",
      "type": "function"
    },
    {
      "inputs": [
        {
          "internalType": "address",
          "name": "paymentMethod",
          "type": "address"
        },
        {
          "internalType": "address",
          "name": "to",
          "type": "address"
        },
        {
          "internalType": "address",
          "name": "authorityAddress",
          "type": "address"
        },
        {
          "internalType": "uint256",
          "name": "signatureDate",
          "type": "uint256"
        },
        {
          "internalType": "bytes",
          "name": "signature",
          "type": "bytes"
        }
      ],
      "name": "mint",
      "outputs": [
        {
          "internalType": "uint256",
          "name": "",
          "type": "uint256"
        }
      ],
      "stateMutability": "payable",
      "type": "function"
    },
    {
      "inputs": [],
      "name": "mintPrice",
      "outputs": [
        {
          "internalType": "uint256",
          "name": "",
          "type": "uint256"
        }
      ],
      "stateMutability": "view",
      "type": "function"
    },
    {
      "inputs": [],
      "name": "mintPriceMASA",
      "outputs": [
        {
          "internalType": "uint256",
          "name": "",
          "type": "uint256"
        }
      ],
      "stateMutability": "view",
      "type": "function"
    },
    {
      "inputs": [],
      "name": "name",
      "outputs": [
        {
          "internalType": "string",
          "name": "",
          "type": "string"
        }
      ],
      "stateMutability": "view",
      "type": "function"
    },
    {
      "inputs": [],
      "name": "owner",
      "outputs": [
        {
          "internalType": "address",
          "name": "",
          "type": "address"
        }
      ],
      "stateMutability": "view",
      "type": "function"
    },
    {
      "inputs": [
        {
          "internalType": "uint256",
          "name": "tokenId",
          "type": "uint256"
        }
      ],
      "name": "ownerOf",
      "outputs": [
        {
          "internalType": "address",
          "name": "",
          "type": "address"
        }
      ],
      "stateMutability": "view",
      "type": "function"
    },
    {
      "inputs": [],
      "name": "queryLinkPrice",
      "outputs": [
        {
          "internalType": "uint256",
          "name": "",
          "type": "uint256"
        }
      ],
      "stateMutability": "view",
      "type": "function"
    },
    {
      "inputs": [],
      "name": "queryLinkPriceMASA",
      "outputs": [
        {
          "internalType": "uint256",
          "name": "",
          "type": "uint256"
        }
      ],
      "stateMutability": "view",
      "type": "function"
    },
    {
      "inputs": [],
      "name": "renounceOwnership",
      "outputs": [],
      "stateMutability": "nonpayable",
      "type": "function"
    },
    {
      "inputs": [
        {
          "internalType": "bytes32",
          "name": "role",
          "type": "bytes32"
        },
        {
          "internalType": "address",
          "name": "account",
          "type": "address"
        }
      ],
      "name": "renounceRole",
      "outputs": [],
      "stateMutability": "nonpayable",
      "type": "function"
    },
    {
      "inputs": [],
      "name": "reserveWallet",
      "outputs": [
        {
          "internalType": "address",
          "name": "",
          "type": "address"
        }
      ],
      "stateMutability": "view",
      "type": "function"
    },
    {
      "inputs": [
        {
          "internalType": "bytes32",
          "name": "role",
          "type": "bytes32"
        },
        {
          "internalType": "address",
          "name": "account",
          "type": "address"
        }
      ],
      "name": "revokeRole",
      "outputs": [],
      "stateMutability": "nonpayable",
      "type": "function"
    },
    {
      "inputs": [
        {
          "internalType": "uint256",
          "name": "_addLinkPrice",
          "type": "uint256"
        }
      ],
      "name": "setAddLinkPrice",
      "outputs": [],
      "stateMutability": "nonpayable",
      "type": "function"
    },
    {
      "inputs": [
        {
          "internalType": "uint256",
          "name": "_addLinkPriceMASA",
          "type": "uint256"
        }
      ],
      "name": "setAddLinkPriceMASA",
      "outputs": [],
      "stateMutability": "nonpayable",
      "type": "function"
    },
    {
      "inputs": [
        {
          "internalType": "address",
          "name": "_masaToken",
          "type": "address"
        }
      ],
      "name": "setMasaToken",
      "outputs": [],
      "stateMutability": "nonpayable",
      "type": "function"
    },
    {
      "inputs": [
        {
          "internalType": "uint256",
          "name": "_mintPrice",
          "type": "uint256"
        }
      ],
      "name": "setMintPrice",
      "outputs": [],
      "stateMutability": "nonpayable",
      "type": "function"
    },
    {
      "inputs": [
        {
          "internalType": "uint256",
          "name": "_mintPriceMASA",
          "type": "uint256"
        }
      ],
      "name": "setMintPriceMASA",
      "outputs": [],
      "stateMutability": "nonpayable",
      "type": "function"
    },
    {
      "inputs": [
        {
          "internalType": "uint256",
          "name": "_queryLinkPrice",
          "type": "uint256"
        }
      ],
      "name": "setQueryLinkPrice",
      "outputs": [],
      "stateMutability": "nonpayable",
      "type": "function"
    },
    {
      "inputs": [
        {
          "internalType": "uint256",
          "name": "_queryLinkPriceMASA",
          "type": "uint256"
        }
      ],
      "name": "setQueryLinkPriceMASA",
      "outputs": [],
      "stateMutability": "nonpayable",
      "type": "function"
    },
    {
      "inputs": [
        {
          "internalType": "address",
          "name": "_reserveWallet",
          "type": "address"
        }
      ],
      "name": "setReserveWallet",
      "outputs": [],
      "stateMutability": "nonpayable",
      "type": "function"
    },
    {
      "inputs": [
        {
          "internalType": "contract ISoulboundIdentity",
          "name": "_soulboundIdentity",
          "type": "address"
        }
      ],
      "name": "setSoulboundIdentity",
      "outputs": [],
      "stateMutability": "nonpayable",
      "type": "function"
    },
    {
      "inputs": [
        {
          "internalType": "address",
          "name": "_stableCoin",
          "type": "address"
        }
      ],
      "name": "setStableCoin",
      "outputs": [],
      "stateMutability": "nonpayable",
      "type": "function"
    },
    {
      "inputs": [
        {
          "internalType": "address",
          "name": "_swapRouter",
          "type": "address"
        }
      ],
      "name": "setSwapRouter",
      "outputs": [],
      "stateMutability": "nonpayable",
      "type": "function"
    },
    {
      "inputs": [
        {
          "internalType": "address",
          "name": "_wrappedNativeToken",
          "type": "address"
        }
      ],
      "name": "setWrappedNativeToken",
      "outputs": [],
      "stateMutability": "nonpayable",
      "type": "function"
    },
    {
      "inputs": [],
      "name": "soulboundIdentity",
      "outputs": [
        {
          "internalType": "contract ISoulboundIdentity",
          "name": "",
          "type": "address"
        }
      ],
      "stateMutability": "view",
      "type": "function"
    },
    {
      "inputs": [],
      "name": "stableCoin",
      "outputs": [
        {
          "internalType": "address",
          "name": "",
          "type": "address"
        }
      ],
      "stateMutability": "view",
      "type": "function"
    },
    {
      "inputs": [
        {
          "internalType": "bytes4",
          "name": "interfaceId",
          "type": "bytes4"
        }
      ],
      "name": "supportsInterface",
      "outputs": [
        {
          "internalType": "bool",
          "name": "",
          "type": "bool"
        }
      ],
      "stateMutability": "view",
      "type": "function"
    },
    {
      "inputs": [],
      "name": "swapRouter",
      "outputs": [
        {
          "internalType": "address",
          "name": "",
          "type": "address"
        }
      ],
      "stateMutability": "view",
      "type": "function"
    },
    {
      "inputs": [],
      "name": "symbol",
      "outputs": [
        {
          "internalType": "string",
          "name": "",
          "type": "string"
        }
      ],
      "stateMutability": "view",
      "type": "function"
    },
    {
      "inputs": [
        {
          "internalType": "uint256",
          "name": "index",
          "type": "uint256"
        }
      ],
      "name": "tokenByIndex",
      "outputs": [
        {
          "internalType": "uint256",
          "name": "",
          "type": "uint256"
        }
      ],
      "stateMutability": "view",
      "type": "function"
    },
    {
      "inputs": [
        {
          "internalType": "address",
          "name": "owner",
          "type": "address"
        },
        {
          "internalType": "uint256",
          "name": "index",
          "type": "uint256"
        }
      ],
      "name": "tokenOfOwnerByIndex",
      "outputs": [
        {
          "internalType": "uint256",
          "name": "",
          "type": "uint256"
        }
      ],
      "stateMutability": "view",
      "type": "function"
    },
    {
      "inputs": [
        {
          "internalType": "uint256",
          "name": "tokenId",
          "type": "uint256"
        }
      ],
      "name": "tokenURI",
      "outputs": [
        {
          "internalType": "string",
          "name": "",
          "type": "string"
        }
      ],
      "stateMutability": "view",
      "type": "function"
    },
    {
      "inputs": [],
      "name": "totalSupply",
      "outputs": [
        {
          "internalType": "uint256",
          "name": "",
          "type": "uint256"
        }
      ],
      "stateMutability": "view",
      "type": "function"
    },
    {
      "inputs": [
        {
          "internalType": "address",
          "name": "newOwner",
          "type": "address"
        }
      ],
      "name": "transferOwnership",
      "outputs": [],
      "stateMutability": "nonpayable",
      "type": "function"
    },
    {
      "inputs": [],
      "name": "wrappedNativeToken",
      "outputs": [
        {
          "internalType": "address",
          "name": "",
          "type": "address"
        }
      ],
      "stateMutability": "view",
      "type": "function"
    }
  ],
  "transactionHash": "0x8e8b85d984750fdab244648a25c84582965b83fa7e491e29e8cfcfb5c3812ab7",
  "args": [
    "0xA38dd237a3A8D50537B74a4B0D4E7E8A5359386F",
    "https://beta.metadata.masa.finance/v1.0/credit-score/",
    "0x78A660183257C4699a57a2D85a7Cf49b4DA75A6E",
    [
      "0x7a250d5630B4cF539739dF2C5dAcb4c659F2488D",
      "0xB4FBF271143F4FBf7B91A5ded31805e42b2208d6",
      "0xD87Ba7A50B2E7E660f678A895E4B72E7CB4CCd9C",
      "0x1f9840a85d5aF5bf1D1762F925BDADdC4201F984",
      "0xA38dd237a3A8D50537B74a4B0D4E7E8A5359386F"
    ]
  ],
  "numDeployments": 3,
  "solcInputHash": "46ef8bdf30125f2ff8c59e72c59eeb6c",
  "bytecode": "0x6101406040523480156200001257600080fd5b506040516200452c3803806200452c8339810160408190526200003591620006d3565b83604051806040016040528060118152602001704d617361204372656469742053636f726560781b815250604051806040016040528060038152602001624d435360e81b8152508585856040518060400160405280601481526020017f536f756c626f756e6443726564697453636f7265000000000000000000000000815250604051806040016040528060058152602001640312e302e360dc1b8152508787878782828d89620000f5620000ef6200034560201b60201c565b62000349565b80516001600160a01b03166200011e5760405163d92e233d60e01b815260040160405180910390fd5b60208101516001600160a01b03166200014a5760405163d92e233d60e01b815260040160405180910390fd5b60408101516001600160a01b0316620001765760405163d92e233d60e01b815260040160405180910390fd5b60808101516001600160a01b0316620001a25760405163d92e233d60e01b815260040160405180910390fd5b620001b8826200039960201b6200174c1760201c565b8051600180546001600160a01b03199081166001600160a01b03938416179091556020808401516002805484169185169190911790556040840151600380548416918516919091179055606084015160048054841691851691909117905560809093015160078054909216921691909117905583516200023f925060089185019062000506565b5080516200025590600990602084019062000506565b506200026791506000905085620003e3565b80516200027c90601190602084019062000506565b5050845160208087019190912085519186019190912060e08290526101008190524660a05290935091507f8b73c3c69bb8fe3d512ecc4cf759cc79239f7b179b0ffacaa9a75d522b39400f9050620002d68184846200046e565b6080523060601b60c05261012052505050506001600160a01b038216620003105760405163d92e233d60e01b815260040160405180910390fd5b50601780546001600160a01b0319166001600160a01b039290921691909117905550506001601b5550620009ae945050505050565b3390565b600080546001600160a01b038381166001600160a01b0319831681178455604051919092169283917f8be0079c531659141344cd1fd0a4f28419497f9722a3daafe3b4186f6b6457e09190a35050565b620003a3620004aa565b6001600160a01b038116620003d55760405162461bcd60e51b8152600401620003cc90620007cc565b60405180910390fd5b620003e08162000349565b50565b620003ef8282620004d9565b6200046a5760008281526010602090815260408083206001600160a01b03851684529091529020805460ff19166001179055620004293390565b6001600160a01b0316816001600160a01b0316837f2f8788117e7eff1d82e926ec794901d17c78024a50270940304540a733656f0d60405160405180910390a45b5050565b600083838346306040516020016200048b95949392919062000776565b6040516020818303038152906040528051906020012090509392505050565b6000546001600160a01b03163314620004d75760405162461bcd60e51b8152600401620003cc9062000817565b565b60008281526010602090815260408083206001600160a01b038516845290915290205460ff165b92915050565b8280546200051490620008f3565b90600052602060002090601f01602090048101928262000538576000855562000583565b82601f106200055357805160ff191683800117855562000583565b8280016001018555821562000583579182015b828111156200058357825182559160200191906001019062000566565b506200059192915062000595565b5090565b5b8082111562000591576000815560010162000596565b6000620005c3620005bd8462000871565b62000852565b905082815260208101848484011115620005e057620005e0600080fd5b620005ed848285620008c0565b509392505050565b805162000500816200098c565b80516200050081620009a3565b600082601f830112620006255762000625600080fd5b815162000637848260208601620005ac565b949350505050565b600060a08284031215620006565762000656600080fd5b6200066260a062000852565b90506000620006728484620005f5565b82525060206200068584848301620005f5565b60208301525060406200069b84828501620005f5565b6040830152506060620006b184828501620005f5565b6060830152506080620006c784828501620005f5565b60808301525092915050565b6000806000806101008587031215620006ef57620006ef600080fd5b6000620006fd8787620005f5565b94505060208501516001600160401b038111156200071e576200071e600080fd5b6200072c878288016200060f565b93505060406200073f8782880162000602565b925050606062000752878288016200063f565b91505092959194509250565b6200076981620008a1565b82525050565b8062000769565b60a081016200078682886200076f565b6200079560208301876200076f565b620007a460408301866200076f565b620007b360608301856200076f565b620007c260808301846200075e565b9695505050505050565b602080825281016200050081602681527f4f776e61626c653a206e6577206f776e657220697320746865207a65726f206160208201526564647265737360d01b604082015260600190565b60208082528181019081527f4f776e61626c653a2063616c6c6572206973206e6f7420746865206f776e657260408301526060820162000500565b60006200085e60405190565b90506200086c828262000924565b919050565b60006001600160401b038211156200088d576200088d6200096c565b620008988262000982565b60200192915050565b60006001600160a01b03821662000500565b60006200050082620008a1565b60005b83811015620008dd578181015183820152602001620008c3565b83811115620008ed576000848401525b50505050565b6002810460018216806200090857607f821691505b602082108114156200091e576200091e62000956565b50919050565b6200092f8262000982565b81018181106001600160401b03821117156200094f576200094f6200096c565b6040525050565b634e487b7160e01b600052602260045260246000fd5b634e487b7160e01b600052604160045260246000fd5b601f01601f191690565b6200099781620008a1565b8114620003e057600080fd5b6200099781620008b3565b60805160a05160c05160601c60e0516101005161012051613b2b62000a01600039600061227d015260006122bf0152600061229e015260006122020152600061222c015260006122560152613b2b6000f3fe6080604052600436106102705760003560e01c806301ffc9a7146102755780630513c3e9146102ab57806306fdde03146102d857806310200519146102fa57806313150b481461031c57806317fcb39b1461033f57806318160ddd1461035f5780631830e881146103745780631f37c1241461038a57806320d558aa146103a057806323af4e17146103b3578063248a9ca3146103d557806326defa73146103f5578063289c686b146104155780632f2ff15d146104355780632f745c591461045557806336568abe146104755780633ad3033e146104955780633c72ae70146104b557806341273657146104d557806342966c68146104f55780634962a158146105155780634f558e79146105355780634f6ccce7146105555780636352211e146105755780636817c76c1461059557806370a08231146105ab578063715018a6146105cb578063719d0f2b146105e057806376ad199714610600578063776d1a541461062057806377bed5ed146106365780637a0d1646146106635780637ad09dff146106935780637db8cb68146106a65780638da5cb5b146106c657806391223d69146106db57806391d148541461070b57806394a665e91461072b57806395d89b411461074b578063992642e514610760578063a217fddf14610780578063b97d6b2314610795578063c1177d19146107ab578063c31c9c07146107cb578063c86aadb6146107eb578063c87b56dd1461080b578063d547741f1461082b578063d72b11bd1461084b578063da058ae31461086b578063dda4fa8f1461088b578063ebda4396146108ab578063f2fde38b146108cb578063f4a0a528146108eb578063fd48ac831461090b575b600080fd5b34801561028157600080fd5b50610295610290366004612f56565b61092b565b6040516102a29190613605565b60405180910390f35b3480156102b757600080fd5b506102cb6102c6366004612f02565b61093c565b6040516102a291906135be565b3480156102e457600080fd5b506102ed610966565b6040516102a291906136d7565b34801561030657600080fd5b5061030f6109f8565b6040516102a291906135f4565b34801561032857600080fd5b5061033260155481565b6040516102a29190613613565b34801561034b57600080fd5b506002546102cb906001600160a01b031681565b34801561036b57600080fd5b50600e54610332565b34801561038057600080fd5b5061033260195481565b34801561039657600080fd5b5061033260125481565b6103326103ae366004612e6e565b610a59565b3480156103bf57600080fd5b506103d36103ce366004612d5a565b610c25565b005b3480156103e157600080fd5b506103326103f0366004612f02565b610ca5565b34801561040157600080fd5b506103d3610410366004612d5a565b610cba565b34801561042157600080fd5b506103d3610430366004612f02565b610d4b565b34801561044157600080fd5b506103d3610450366004612f23565b610d7f565b34801561046157600080fd5b50610332610470366004612e31565b610da0565b34801561048157600080fd5b506103d3610490366004612f23565b610df2565b3480156104a157600080fd5b506103d36104b0366004612f77565b610e28565b3480156104c157600080fd5b506103d36104d0366004612f02565b610eac565b3480156104e157600080fd5b506103d36104f0366004612d5a565b610ee0565b34801561050157600080fd5b506103d3610510366004612f02565b610f60565b34801561052157600080fd5b506103d3610530366004612f02565b610f92565b34801561054157600080fd5b50610295610550366004612f02565b610fc6565b34801561056157600080fd5b50610332610570366004612f02565b610fd1565b34801561058157600080fd5b506102cb610590366004612f02565b61101f565b3480156105a157600080fd5b5061033260185481565b3480156105b757600080fd5b506103326105c6366004612d5a565b611054565b3480156105d757600080fd5b506103d3611098565b3480156105ec57600080fd5b506103326105fb366004612d5a565b6110ac565b34801561060c57600080fd5b506103d361061b366004612d5a565b6111ac565b34801561062c57600080fd5b5061033260135481565b34801561064257600080fd5b50601754610656906001600160a01b031681565b6040516102a291906136c9565b34801561066f57600080fd5b5061029561067e366004612d5a565b60056020526000908152604090205460ff1681565b6103326106a1366004612d9c565b611205565b3480156106b257600080fd5b506103d36106c1366004612f02565b6112a8565b3480156106d257600080fd5b506102cb6112dc565b3480156106e757600080fd5b506102956106f6366004612d5a565b601a6020526000908152604090205460ff1681565b34801561071757600080fd5b50610295610726366004612f23565b6112eb565b34801561073757600080fd5b506103d3610746366004612d5a565b611316565b34801561075757600080fd5b506102ed61147f565b34801561076c57600080fd5b506003546102cb906001600160a01b031681565b34801561078c57600080fd5b50610332600081565b3480156107a157600080fd5b5061033260145481565b3480156107b757600080fd5b506103326107c6366004612f02565b61148e565b3480156107d757600080fd5b506001546102cb906001600160a01b031681565b3480156107f757600080fd5b506103d3610806366004612d5a565b611522565b34801561081757600080fd5b506102ed610826366004612f02565b6115ca565b34801561083757600080fd5b506103d3610846366004612f23565b611630565b34801561085757600080fd5b506007546102cb906001600160a01b031681565b34801561087757600080fd5b506103d3610886366004612d5a565b61164c565b34801561089757600080fd5b506103d36108a6366004612d5a565b6116cc565b3480156108b757600080fd5b506004546102cb906001600160a01b031681565b3480156108d757600080fd5b506103d36108e6366004612d5a565b61174c565b3480156108f757600080fd5b506103d3610906366004612f02565b611783565b34801561091757600080fd5b506103d3610926366004612f02565b6117b7565b6000610936826117eb565b92915050565b6006818154811061094c57600080fd5b6000918252602090912001546001600160a01b0316905081565b6060600880546109759061398d565b80601f01602080910402602001604051908101604052809291908181526020018280546109a19061398d565b80156109ee5780601f106109c3576101008083540402835291602001916109ee565b820191906000526020600020905b8154815290600101906020018083116109d157829003601f168201915b5050505050905090565b606060068054806020026020016040519081016040528092919081815260200182805480156109ee57602002820191906000526020600020905b81546001600160a01b03168152600190910190602001808311610a32575050505050905090565b60006002601b541415610a875760405162461bcd60e51b8152600401610a7e906137f8565b60405180910390fd5b6002601b556017546040516331a9108f60e11b81526000916001600160a01b031690636352211e90610abd908a90600401613613565b60206040518083038186803b158015610ad557600080fd5b505afa158015610ae9573d6000803e3d6000fd5b505050506040513d601f19601f82011682018060405250810190610b0d9190612d7b565b90506001600160a01b0381163314610b3a573360405163060296c760e31b8152600401610a7e91906135be565b6000610b4582611054565b1115610b6657806040516397ac715160e01b8152600401610a7e91906135be565b610bb2610b74888888611810565b85858080601f0160208091040260200160405190810160405280939291908181526020018383808284376000920191909152508b925061186f915050565b610bc488610bbf8a6110ac565b6118f0565b6000610bcf82611a96565b90507fba587fc996588eaf73691ecc5a1c4c42228fab71b44f01544686211cb1e68177818989898d601854604051610c0c96959493929190613838565b60405180910390a16001601b5598975050505050505050565b610c2d611abc565b6001600160a01b038116610c545760405163d92e233d60e01b815260040160405180910390fd5b6003546001600160a01b0382811691161415610c835760405163c23f6ccb60e01b815260040160405180910390fd5b600380546001600160a01b0319166001600160a01b0392909216919091179055565b60009081526010602052604090206001015490565b6000610cc581611aeb565b6001600160a01b038216610cec5760405163d92e233d60e01b815260040160405180910390fd5b6001600160a01b0382166000908152601a602052604090205460ff1615610d265760405163f411c32760e01b815260040160405180910390fd5b506001600160a01b03166000908152601a60205260409020805460ff19166001179055565b6000610d5681611aeb565b816012541415610d795760405163c23f6ccb60e01b815260040160405180910390fd5b50601255565b610d8882610ca5565b610d9181611aeb565b610d9b8383611af5565b505050565b6000610dab83611054565b8210610dc95760405162461bcd60e51b8152600401610a7e90613738565b506001600160a01b03919091166000908152600c60209081526040808320938352929052205490565b6001600160a01b0381163314610e1a5760405162461bcd60e51b8152600401610a7e90613808565b610e248282611b7b565b5050565b6000610e3381611aeb565b6001600160a01b038216610e5a5760405163d92e233d60e01b815260040160405180910390fd5b6017546001600160a01b0383811691161415610e895760405163c23f6ccb60e01b815260040160405180910390fd5b50601780546001600160a01b0319166001600160a01b0392909216919091179055565b6000610eb781611aeb565b816013541415610eda5760405163c23f6ccb60e01b815260040160405180910390fd5b50601355565b610ee8611abc565b6001600160a01b038116610f0f5760405163d92e233d60e01b815260040160405180910390fd5b6001546001600160a01b0382811691161415610f3e5760405163c23f6ccb60e01b815260040160405180910390fd5b600180546001600160a01b0319166001600160a01b0392909216919091179055565b610f6a3382611be2565b610f865760405162461bcd60e51b8152600401610a7e90613778565b610f8f81611c05565b50565b6000610f9d81611aeb565b816019541415610fc05760405163c23f6ccb60e01b815260040160405180910390fd5b50601955565b600061093682611c9f565b6000610fdc600e5490565b8210610ffa5760405162461bcd60e51b8152600401610a7e906137e8565b600e828154811061100d5761100d613a84565b90600052602060002001549050919050565b6000818152600a60205260408120546001600160a01b0316806109365760405162461bcd60e51b8152600401610a7e906137b8565b60006001600160a01b03821661107c5760405162461bcd60e51b8152600401610a7e90613768565b506001600160a01b03166000908152600b602052604090205490565b6110a0611abc565b6110aa6000611cbc565b565b600060185460001480156110c05750601954155b156110cd57506000919050565b6004546001600160a01b03838116911614801561110257506001600160a01b03821660009081526005602052604090205460ff165b801561111057506000601954115b1561111d57505060195490565b6003546001600160a01b03838116911614801561115257506001600160a01b03821660009081526005602052604090205460ff165b1561115f57505060185490565b6001600160a01b03821660009081526005602052604090205460ff161561118c5761093682601854611d0c565b81604051630ac29ab760e31b8152600401610a7e91906135be565b919050565b6111b4611abc565b6004546001600160a01b03828116911614156111e35760405163c23f6ccb60e01b815260040160405180910390fd5b600480546001600160a01b0319166001600160a01b0392909216919091179055565b60175460405163294cdf0d60e01b815260009182916001600160a01b039091169063294cdf0d9061123a908a906004016135be565b60206040518083038186803b15801561125257600080fd5b505afa158015611266573d6000803e3d6000fd5b505050506040513d601f19601f8201168201806040525081019061128a9190612f98565b905061129a888288888888610a59565b9150505b9695505050505050565b60006112b381611aeb565b8160155414156112d65760405163c23f6ccb60e01b815260040160405180910390fd5b50601555565b6000546001600160a01b031690565b60009182526010602090815260408084206001600160a01b0393909316845291905290205460ff1690565b61131e611abc565b6001600160a01b03811660009081526005602052604090205460ff1661135957806040516318317bd560e01b8152600401610a7e91906135be565b6001600160a01b0381166000908152600560205260408120805460ff191690555b600654811015610e2457816001600160a01b0316600682815481106113a1576113a1613a84565b6000918252602090912001546001600160a01b0316141561146d57600680546113cc9060019061390c565b815481106113dc576113dc613a84565b600091825260209091200154600680546001600160a01b03909216918390811061140857611408613a84565b9060005260206000200160006101000a8154816001600160a01b0302191690836001600160a01b03160217905550600680548061144757611447613a6e565b600082815260209020810160001990810180546001600160a01b03191690550190555050565b80611477816139e7565b91505061137a565b6060600980546109759061398d565b60008061149a8361101f565b60175460405163294cdf0d60e01b81529192506001600160a01b03169063294cdf0d906114cb9084906004016135be565b60206040518083038186803b1580156114e357600080fd5b505afa1580156114f7573d6000803e3d6000fd5b505050506040513d601f19601f8201168201806040525081019061151b9190612f98565b9392505050565b61152a611abc565b6001600160a01b03811660009081526005602052604090205460ff16156115645760405163f411c32760e01b815260040160405180910390fd5b6001600160a01b03166000818152600560205260408120805460ff191660019081179091556006805491820181559091527ff652222313e28459528d920b65115c16c04f3efc82aaedc97be59f3f377c0d3f0180546001600160a01b0319169091179055565b60606115d582611dab565b60006115df611dd0565b905060008151116115ff576040518060200160405280600081525061151b565b8061160984611ddf565b60405160200161161a929190613505565b6040516020818303038152906040529392505050565b61163982610ca5565b61164281611aeb565b610d9b8383611b7b565b611654611abc565b6001600160a01b03811661167b5760405163d92e233d60e01b815260040160405180910390fd5b6002546001600160a01b03828116911614156116aa5760405163c23f6ccb60e01b815260040160405180910390fd5b600280546001600160a01b0319166001600160a01b0392909216919091179055565b6116d4611abc565b6001600160a01b0381166116fb5760405163d92e233d60e01b815260040160405180910390fd5b6007546001600160a01b038281169116141561172a5760405163c23f6ccb60e01b815260040160405180910390fd5b600780546001600160a01b0319166001600160a01b0392909216919091179055565b611754611abc565b6001600160a01b03811661177a5760405162461bcd60e51b8152600401610a7e90613728565b610f8f81611cbc565b600061178e81611aeb565b8160185414156117b15760405163c23f6ccb60e01b815260040160405180910390fd5b50601855565b60006117c281611aeb565b8160145414156117e55760405163c23f6ccb60e01b815260040160405180910390fd5b50601455565b60006001600160e01b03198216637965db0b60e01b1480610936575061093682611edc565b60006118677fbf4c764a640e301e74685ff05395cceaed1d80e171501b6b6ffb339acfef6f1885858560405160200161184c9493929190613663565b60405160208183030381529060405280519060200120611f01565b949350505050565b600061187b8484611f14565b9050816001600160a01b0316816001600160a01b0316146118af57604051638baa579f60e01b815260040160405180910390fd5b6001600160a01b0381166000908152601a602052604090205460ff166118ea5780604051634a0bfec160e01b8152600401610a7e91906135be565b50505050565b806118f9575050565b6001600160a01b03821660009081526005602052604090205460ff166119345781604051630ac29ab760e31b8152600401610a7e91906135be565b6001600160a01b038216611a7a5780341015611965578060405163091a6d0f60e01b8152600401610a7e9190613613565b6007546040516000916001600160a01b031690839061198390613564565b60006040518083038185875af1925050503d80600081146119c0576040519150601f19603f3d011682016040523d82523d6000602084013e6119c5565b606091505b50509050806119e7576040516312171d8360e31b815260040160405180910390fd5b81341115610d9b5760006119fb3484611f38565b9050336001600160a01b031681604051611a1490613564565b60006040518083038185875af1925050503d8060008114611a51576040519150601f19603f3d011682016040523d82523d6000602084013e611a56565b606091505b505080925050816118ea57604051633c31275160e21b815260040160405180910390fd5b600754610e24906001600160a01b038481169133911684611f44565b600080611aa260165490565b9050611ab2601680546001019055565b6109368382611f9c565b33611ac56112dc565b6001600160a01b0316146110aa5760405162461bcd60e51b8152600401610a7e90613798565b610f8f8133612078565b611aff82826112eb565b610e245760008281526010602090815260408083206001600160a01b03851684529091529020805460ff19166001179055611b373390565b6001600160a01b0316816001600160a01b0316837f2f8788117e7eff1d82e926ec794901d17c78024a50270940304540a733656f0d60405160405180910390a45050565b611b8582826112eb565b15610e245760008281526010602090815260408083206001600160a01b0385168085529252808320805460ff1916905551339285917ff6391f5c32d9c69d2a47ea670b442974b53935d1edc7fd64eb21e047a839171b9190a45050565b600080611bee8361101f565b6001600160a01b0385811691161491505092915050565b6000611c108261101f565b9050611c1e816000846120dc565b6001600160a01b0381166000908152600b60205260408120805460019290611c4790849061390c565b90915550506000828152600a602052604080822080546001600160a01b03191690555183916001600160a01b038416917fcc16f5dbb4873280815c1ee09dbd06736cffcc184412cf7a71a0fdb75d397ca59190a35050565b6000908152600a60205260409020546001600160a01b0316151590565b600080546001600160a01b038381166001600160a01b0319831681178455604051919092169283917f8be0079c531659141344cd1fd0a4f28419497f9722a3daafe3b4186f6b6457e09190a35050565b6001600160a01b03821660009081526005602052604081205460ff161580611d4157506003546001600160a01b038481169116145b15611d61578260405163961c9a4f60e01b8152600401610a7e91906135be565b6001600160a01b038316611d9357600254600354611d8c916001600160a01b039081169116846120e7565b9050610936565b600354611d8c9084906001600160a01b0316846120e7565b611db481611c9f565b610f8f5760405162461bcd60e51b8152600401610a7e906137b8565b6060601180546109759061398d565b606081611e035750506040805180820190915260018152600360fc1b602082015290565b8160005b8115611e2d5780611e17816139e7565b9150611e269050600a836138d9565b9150611e07565b6000816001600160401b03811115611e4757611e47613a9a565b6040519080825280601f01601f191660200182016040528015611e71576020820181803683370190505b5090505b841561186757611e8660018361390c565b9150611e93600a86613a02565b611e9e9060306138c1565b60f81b818381518110611eb357611eb3613a84565b60200101906001600160f81b031916908160001a905350611ed5600a866138d9565b9450611e75565b60006001600160e01b0319821663780e9d6360e01b14806109365750610936826121a5565b6000610936611f0e6121f5565b836122e8565b6000806000611f23858561231b565b91509150611f3081612361565b509392505050565b600061151b828461390c565b6118ea846323b872dd60e01b858585604051602401611f65939291906135cc565b60408051601f198184030181529190526020810180516001600160e01b03166001600160e01b031990931692909217909152612446565b6001600160a01b038216611fc25760405162461bcd60e51b8152600401610a7e90613718565b611fcb81611c9f565b15611fe85760405162461bcd60e51b8152600401610a7e906137a8565b611ff4600083836120dc565b6001600160a01b0382166000908152600b6020526040812080546001929061201d9084906138c1565b90915550506000818152600a602052604080822080546001600160a01b0319166001600160a01b038616908117909155905183927f0f6798a560793a54c3bcfe86a93cde1e73087d944c0ea20544137d412139688591a35050565b61208282826112eb565b610e245761209a816001600160a01b031660146124d5565b6120a58360206124d5565b6040516020016120b692919061356c565b60408051601f198184030181529082905262461bcd60e51b8252610a7e916004016136d7565b610d9b838383612640565b60006060806120f686866126f8565b6001546040516307c0329d60e21b81529192506001600160a01b031690631f00ca74906121299087908590600401613818565b60006040518083038186803b15801561214157600080fd5b505afa158015612155573d6000803e3d6000fd5b505050506040513d6000823e601f3d908101601f1916820160405261217d9190810190612ea7565b91508160008151811061219257612192613a84565b6020026020010151925050509392505050565b60006001600160e01b031982166313f2a32f60e01b14806121d657506001600160e01b03198216635b5e139f60e01b145b8061093657506301ffc9a760e01b6001600160e01b0319831614610936565b6000306001600160a01b037f00000000000000000000000000000000000000000000000000000000000000001614801561224e57507f000000000000000000000000000000000000000000000000000000000000000046145b1561227857507f000000000000000000000000000000000000000000000000000000000000000090565b6122e37f00000000000000000000000000000000000000000000000000000000000000007f00000000000000000000000000000000000000000000000000000000000000007f000000000000000000000000000000000000000000000000000000000000000061288a565b905090565b600082826040516020016122fd929190613533565b60405160208183030381529060405280519060200120905092915050565b6000808251604114156123525760208301516040840151606085015160001a612346878285856128c4565b9450945050505061235a565b506000905060025b9250929050565b600081600481111561237557612375613a42565b141561237e5750565b600181600481111561239257612392613a42565b14156123b05760405162461bcd60e51b8152600401610a7e906136e8565b60028160048111156123c4576123c4613a42565b14156123e25760405162461bcd60e51b8152600401610a7e90613708565b60038160048111156123f6576123f6613a42565b14156124145760405162461bcd60e51b8152600401610a7e90613748565b600481600481111561242857612428613a42565b1415610f8f5760405162461bcd60e51b8152600401610a7e90613788565b600061249b826040518060400160405280602081526020017f5361666545524332303a206c6f772d6c6576656c2063616c6c206661696c6564815250856001600160a01b031661299a9092919063ffffffff16565b805190915015610d9b57808060200190518101906124b99190612ee1565b610d9b5760405162461bcd60e51b8152600401610a7e906137d8565b606060006124e48360026138ed565b6124ef9060026138c1565b6001600160401b0381111561250657612506613a9a565b6040519080825280601f01601f191660200182016040528015612530576020820181803683370190505b509050600360fc1b8160008151811061254b5761254b613a84565b60200101906001600160f81b031916908160001a905350600f60fb1b8160018151811061257a5761257a613a84565b60200101906001600160f81b031916908160001a905350600061259e8460026138ed565b6125a99060016138c1565b90505b6001811115612621576f181899199a1a9b1b9c1cb0b131b232b360811b85600f16601081106125dd576125dd613a84565b1a60f81b8282815181106125f3576125f3613a84565b60200101906001600160f81b031916908160001a90535060049490941c9361261a81613976565b90506125ac565b50831561151b5760405162461bcd60e51b8152600401610a7e906136f8565b6001600160a01b03831661269b5761269681600e80546000838152600f60205260408120829055600182018355919091527fbb7b4a454dc3493923482f07822329ed19e8244eff582cc204f8554c3620c3fd0155565b6126be565b816001600160a01b0316836001600160a01b0316146126be576126be83826129a9565b6001600160a01b0382166126d557610d9b81612a46565b826001600160a01b0316826001600160a01b031614610d9b57610d9b8282612af5565b6002546060906001600160a01b038481169116148061272457506002546001600160a01b038381169116145b156127ee57604080516002808252606082018352600092602083019080368337019050506002549091506001600160a01b038581169116146127665783612773565b6002546001600160a01b03165b8160008151811061278657612786613a84565b6001600160a01b0392831660209182029290920101526002548482169116146127af57826127bc565b6002546001600160a01b03165b816001815181106127cf576127cf613a84565b6001600160a01b03909216602092830291909101909101529050610936565b6040805160038082526080820190925260009160208201606080368337019050509050838160008151811061282557612825613a84565b6001600160a01b03928316602091820292909201015260025482519116908290600190811061285657612856613a84565b60200260200101906001600160a01b031690816001600160a01b03168152505082816002815181106127cf576127cf613a84565b600083838346306040516020016128a5959493929190613621565b6040516020818303038152906040528051906020012090509392505050565b6000806fa2a8918ca85bafe22016d0b997e4df60600160ff1b038311156128f15750600090506003612991565b8460ff16601b1415801561290957508460ff16601c14155b1561291a5750600090506004612991565b60006001878787876040516000815260200160405260405161293f94939291906136a1565b6020604051602081039080840390855afa158015612961573d6000803e3d6000fd5b5050604051601f1901519150506001600160a01b03811661298a57600060019250925050612991565b9150600090505b94509492505050565b60606118678484600085612b39565b600060016129b684611054565b6129c0919061390c565b6000838152600d6020526040902054909150808214612a13576001600160a01b0384166000908152600c602090815260408083208584528252808320548484528184208190558352600d90915290208190555b506000918252600d602090815260408084208490556001600160a01b039094168352600c81528383209183525290812055565b600e54600090612a589060019061390c565b6000838152600f6020526040812054600e8054939450909284908110612a8057612a80613a84565b9060005260206000200154905080600e8381548110612aa157612aa1613a84565b6000918252602080832090910192909255828152600f9091526040808220849055858252812055600e805480612ad957612ad9613a6e565b6001900381819060005260206000200160009055905550505050565b6000612b0083611054565b6001600160a01b039093166000908152600c602090815260408083208684528252808320859055938252600d9052919091209190915550565b606082471015612b5b5760405162461bcd60e51b8152600401610a7e90613758565b6001600160a01b0385163b612b825760405162461bcd60e51b8152600401610a7e906137c8565b600080866001600160a01b03168587604051612b9e91906134f9565b60006040518083038185875af1925050503d8060008114612bdb576040519150601f19603f3d011682016040523d82523d6000602084013e612be0565b606091505b5091509150612bf0828286612bfb565b979650505050505050565b60608315612c0a57508161151b565b825115612c1a5782518084602001fd5b8160405162461bcd60e51b8152600401610a7e91906136d7565b6000612c47612c428461389e565b613887565b90508083825260208201905082856020860282011115612c6957612c69600080fd5b60005b85811015612c955781612c7f8882612d4f565b8452506020928301929190910190600101612c6c565b5050509392505050565b803561093681613aba565b805161093681613aba565b600082601f830112612cc957612cc9600080fd5b8151611867848260208601612c34565b805161093681613ace565b803561093681613ad6565b803561093681613adc565b60008083601f840112612d0f57612d0f600080fd5b5081356001600160401b03811115612d2957612d29600080fd5b60208301915083600182028301111561235a5761235a600080fd5b803561093681613aec565b805161093681613ad6565b600060208284031215612d6f57612d6f600080fd5b60006118678484612c9f565b600060208284031215612d9057612d90600080fd5b60006118678484612caa565b60008060008060008060a08789031215612db857612db8600080fd5b6000612dc48989612c9f565b9650506020612dd589828a01612c9f565b9550506040612de689828a01612c9f565b9450506060612df789828a01612ce4565b93505060808701356001600160401b03811115612e1657612e16600080fd5b612e2289828a01612cfa565b92509250509295509295509295565b60008060408385031215612e4757612e47600080fd5b6000612e538585612c9f565b9250506020612e6485828601612ce4565b9150509250929050565b60008060008060008060a08789031215612e8a57612e8a600080fd5b6000612e968989612c9f565b9650506020612dd589828a01612ce4565b600060208284031215612ebc57612ebc600080fd5b81516001600160401b03811115612ed557612ed5600080fd5b61186784828501612cb5565b600060208284031215612ef657612ef6600080fd5b60006118678484612cd9565b600060208284031215612f1757612f17600080fd5b60006118678484612ce4565b60008060408385031215612f3957612f39600080fd5b6000612f458585612ce4565b9250506020612e6485828601612c9f565b600060208284031215612f6b57612f6b600080fd5b60006118678484612cef565b600060208284031215612f8c57612f8c600080fd5b60006118678484612d44565b600060208284031215612fad57612fad600080fd5b60006118678484612d4f565b6000612fc58383612fcd565b505060200190565b612fd681613923565b82525050565b6000612fe6825190565b80845260209384019383018060005b8381101561301a5781516130098882612fb9565b975060208301925050600101612ff5565b509495945050505050565b801515612fd6565b80612fd6565b600061303d825190565b61304b81856020860161394a565b9290920192915050565b612fd68161393f565b6000613068825190565b80845260208401935061307f81856020860161394a565b61308881613ab0565b9093019392505050565b601881526000602082017745434453413a20696e76616c6964207369676e617475726560401b815291505b5060200190565b60208082527f537472696e67733a20686578206c656e67746820696e73756666696369656e74910190815260006130bd565b601f81526000602082017f45434453413a20696e76616c6964207369676e6174757265206c656e67746800815291506130bd565b601d81526000602082017f5342543a206d696e7420746f20746865207a65726f2061646472657373000000815291506130bd565b602681526000602082017f4f776e61626c653a206e6577206f776e657220697320746865207a65726f206181526564647265737360d01b602082015291505b5060400190565b602881526000602082017f534254456e756d657261626c653a206f776e657220696e646578206f7574206f8152676620626f756e647360c01b6020820152915061319d565b602281526000602082017f45434453413a20696e76616c6964207369676e6174757265202773272076616c815261756560f01b6020820152915061319d565b602681526000602082017f416464726573733a20696e73756666696369656e742062616c616e636520666f8152651c8818d85b1b60d21b6020820152915061319d565b602681526000602082017f5342543a2061646472657373207a65726f206973206e6f7420612076616c69648152651037bbb732b960d11b6020820152915061319d565b601e81526000602082017f5342543a2063616c6c6572206973206e6f7420746f6b656e206f776e65720000815291506130bd565b602281526000602082017f45434453413a20696e76616c6964207369676e6174757265202776272076616c815261756560f01b6020820152915061319d565b60208082527f4f776e61626c653a2063616c6c6572206973206e6f7420746865206f776e6572910190815260006130bd565b601981526000602082017814d0950e881d1bdad95b88185b1c9958591e481b5a5b9d1959603a1b815291506130bd565b601581526000602082017414d0950e881a5b9d985b1a59081d1bdad95b881251605a1b815291506130bd565b601d81526000602082017f416464726573733a2063616c6c20746f206e6f6e2d636f6e7472616374000000815291506130bd565b602a81526000602082017f5361666545524332303a204552433230206f7065726174696f6e20646964206e8152691bdd081cdd58d8d9595960b21b6020820152915061319d565b602981526000602082017f534254456e756d657261626c653a20676c6f62616c20696e646578206f7574208152686f6620626f756e647360b81b6020820152915061319d565b601f81526000602082017f5265656e7472616e637947756172643a207265656e7472616e742063616c6c00815291506130bd565b602f81526000602082017f416363657373436f6e74726f6c3a2063616e206f6e6c792072656e6f756e636581526e103937b632b9903337b91039b2b63360891b6020820152915061319d565b60ff8116612fd6565b600061151b8284613033565b60006135118285613033565b915061351d8284613033565b64173539b7b760d91b8152915060058201611867565b61190160f01b8152600201600061354a828561302d565b60208201915061355a828461302d565b5060200192915050565b600081610936565b76020b1b1b2b9b9a1b7b73a3937b61d1030b1b1b7bab73a1604d1b815260170160006135988285613033565b7001034b99036b4b9b9b4b733903937b6329607d1b815260110191506118678284613033565b602081016109368284612fcd565b606081016135da8286612fcd565b6135e76020830185612fcd565b611867604083018461302d565b6020808252810161151b8184612fdc565b602081016109368284613025565b60208101610936828461302d565b60a0810161362f828861302d565b61363c602083018761302d565b613649604083018661302d565b613656606083018561302d565b61129e6080830184612fcd565b60808101613671828761302d565b61367e602083018661302d565b61368b6040830185612fcd565b613698606083018461302d565b95945050505050565b608081016136af828761302d565b6136bc60208301866134f0565b61368b604083018561302d565b602081016109368284613055565b6020808252810161151b818461305e565b6020808252810161093681613092565b60208082528101610936816130c4565b60208082528101610936816130f6565b602080825281016109368161312a565b602080825281016109368161315e565b60208082528101610936816131a4565b60208082528101610936816131e9565b6020808252810161093681613228565b602080825281016109368161326b565b60208082528101610936816132ae565b60208082528101610936816132e2565b6020808252810161093681613321565b6020808252810161093681613353565b6020808252810161093681613383565b60208082528101610936816133af565b60208082528101610936816133e3565b602080825281016109368161342a565b6020808252810161093681613470565b60208082528101610936816134a4565b60408101613826828561302d565b81810360208301526118678184612fdc565b60c08101613846828961302d565b613853602083018861302d565b6138606040830187612fcd565b61386d606083018661302d565b61387a6080830185612fcd565b612bf060a083018461302d565b600061389260405190565b90506111a782826139ba565b60006001600160401b038211156138b7576138b7613a9a565b5060209081020190565b600082198211156138d4576138d4613a16565b500190565b6000826138e8576138e8613a2c565b500490565b600081600019048311821515161561390757613907613a16565b500290565b60008282101561391e5761391e613a16565b500390565b60006001600160a01b038216610936565b600061093682613923565b600061093682613934565b60005b8381101561396557818101518382015260200161394d565b838111156118ea5750506000910152565b60008161398557613985613a16565b506000190190565b6002810460018216806139a157607f821691505b602082108114156139b4576139b4613a58565b50919050565b6139c382613ab0565b81018181106001600160401b03821117156139e0576139e0613a9a565b6040525050565b60006000198214156139fb576139fb613a16565b5060010190565b600082613a1157613a11613a2c565b500690565b634e487b7160e01b600052601160045260246000fd5b634e487b7160e01b600052601260045260246000fd5b634e487b7160e01b600052602160045260246000fd5b634e487b7160e01b600052602260045260246000fd5b634e487b7160e01b600052603160045260246000fd5b634e487b7160e01b600052603260045260246000fd5b634e487b7160e01b600052604160045260246000fd5b601f01601f191690565b613ac381613923565b8114610f8f57600080fd5b801515613ac3565b80613ac3565b6001600160e01b03198116613ac3565b613ac38161393456fea26469706673582212208f8b7ba2b55b821e2caa448c00fe93cdc0f65501d91ab4475a3749f63c7e56b164736f6c63430008070033",
  "devdoc": {
    "author": "Masa Finance",
    "details": "Soulbound credit score, that inherits from the SBT contract.",
    "kind": "dev",
    "methods": {
      "addAuthority(address)": {
        "details": "The caller must have the admin to call this function",
        "params": {
          "_authority": "New authority to add"
        }
      },
      "balanceOf(address)": {
        "details": "See {ISBT-balanceOf}."
      },
      "burn(uint256)": {
        "details": "Burns `tokenId`. See {SBT-_burn}. Requirements: - The caller must own `tokenId` or be an approved operator."
      },
      "constructor": {
        "details": "Creates a new soulbound credit score, inheriting from the SBT contract.",
        "params": {
          "admin": "Administrator of the smart contract",
          "baseTokenURI": "Base URI of the token",
          "paymentParams": "Payment gateway params",
          "soulboundIdentity": "Address of the SoulboundIdentity contract"
        }
      },
      "disablePaymentMethod(address)": {
        "details": "The caller must have the owner to call this function",
        "params": {
          "_paymentMethod": "Token to remove"
        }
      },
      "enablePaymentMethod(address)": {
        "details": "The caller must have the owner to call this function",
        "params": {
          "_paymentMethod": "New token to add"
        }
      },
      "exists(uint256)": {
        "details": "Returns true if the token has been minted",
        "params": {
          "tokenId": "Token to check"
        },
        "returns": {
          "_0": "True if the token exists"
        }
      },
      "getEnabledPaymentMethods()": {
        "details": "Returns the address of all available payment methods",
        "returns": {
          "_0": "Array of all enabled payment methods"
        }
      },
      "getIdentityId(uint256)": {
        "params": {
          "tokenId": "Id of the token"
        },
        "returns": {
          "_0": "Id of the identity"
        }
      },
      "getMintPrice(address)": {
        "details": "Returns current pricing for minting",
        "params": {
          "paymentMethod": "Address of token that user want to pay"
        },
        "returns": {
          "_0": "Current price for minting in the given payment method"
        }
      },
      "getRoleAdmin(bytes32)": {
        "details": "Returns the admin role that controls `role`. See {grantRole} and {revokeRole}. To change a role's admin, use {_setRoleAdmin}."
      },
      "grantRole(bytes32,address)": {
        "details": "Grants `role` to `account`. If `account` had not been already granted `role`, emits a {RoleGranted} event. Requirements: - the caller must have ``role``'s admin role. May emit a {RoleGranted} event."
      },
      "hasRole(bytes32,address)": {
        "details": "Returns `true` if `account` has been granted `role`."
      },
      "mint(address,address,address,uint256,bytes)": {
        "details": "The caller must have the MINTER role",
        "params": {
          "paymentMethod": "Address of token that user want to pay",
          "to": "The address to mint the SBT to"
        },
        "returns": {
          "_0": "The SBT ID of the newly minted SBT"
        }
      },
      "mint(address,uint256,address,uint256,bytes)": {
        "details": "The caller must have the MINTER role",
        "params": {
          "identityId": "TokenId of the identity to mint the NFT to",
          "paymentMethod": "Address of token that user want to pay"
        },
        "returns": {
          "_0": "The NFT ID of the newly minted SBT"
        }
      },
      "name()": {
        "details": "See {ISBTMetadata-name}."
      },
      "owner()": {
        "details": "Returns the address of the current owner."
      },
      "ownerOf(uint256)": {
        "details": "See {ISBT-ownerOf}."
      },
      "renounceOwnership()": {
        "details": "Leaves the contract without owner. It will not be possible to call `onlyOwner` functions anymore. Can only be called by the current owner. NOTE: Renouncing ownership will leave the contract without an owner, thereby removing any functionality that is only available to the owner."
      },
      "renounceRole(bytes32,address)": {
        "details": "Revokes `role` from the calling account. Roles are often managed via {grantRole} and {revokeRole}: this function's purpose is to provide a mechanism for accounts to lose their privileges if they are compromised (such as when a trusted device is misplaced). If the calling account had been revoked `role`, emits a {RoleRevoked} event. Requirements: - the caller must be `account`. May emit a {RoleRevoked} event."
      },
      "revokeRole(bytes32,address)": {
        "details": "Revokes `role` from `account`. If `account` had been granted `role`, emits a {RoleRevoked} event. Requirements: - the caller must have ``role``'s admin role. May emit a {RoleRevoked} event."
      },
      "setAddLinkPrice(uint256)": {
        "details": "The caller must have the admin to call this function",
        "params": {
          "_addLinkPrice": "New price for adding the link in SoulLinker in stable coin"
        }
      },
      "setAddLinkPriceMASA(uint256)": {
        "details": "The caller must have the admin to call this function",
        "params": {
          "_addLinkPriceMASA": "New price for adding the link in SoulLinker in MASA"
        }
      },
      "setMasaToken(address)": {
        "details": "The caller must have the owner to call this function It can be set to address(0) to disable paying in MASA",
        "params": {
          "_masaToken": "New utility token to pay the fee in"
        }
      },
      "setMintPrice(uint256)": {
        "details": "The caller must have the admin to call this function",
        "params": {
          "_mintPrice": "New price of minting in stable coin"
        }
      },
      "setMintPriceMASA(uint256)": {
        "details": "The caller must have the admin to call this function",
        "params": {
          "_mintPriceMASA": "New price of minting in MASA"
        }
      },
      "setQueryLinkPrice(uint256)": {
        "details": "The caller must have the admin to call this function",
        "params": {
          "_queryLinkPrice": "New price for reading data in SoulLinker in stable coin"
        }
      },
      "setQueryLinkPriceMASA(uint256)": {
        "details": "The caller must have the admin to call this function",
        "params": {
          "_queryLinkPriceMASA": "New price for reading data in SoulLinker in MASA"
        }
      },
      "setReserveWallet(address)": {
        "details": "Let change the reserve walled. It can be triggered by an authorized account.",
        "params": {
          "_reserveWallet": "New reserve wallet"
        }
      },
      "setSoulboundIdentity(address)": {
        "details": "The caller must be the admin to call this function",
        "params": {
          "_soulboundIdentity": "Address of the SoulboundIdentity contract"
        }
      },
      "setStableCoin(address)": {
        "details": "The caller must have the owner to call this function",
        "params": {
          "_stableCoin": "New stable coin to pay the fee in"
        }
      },
      "setSwapRouter(address)": {
        "details": "The caller must have the owner to call this function",
        "params": {
          "_swapRouter": "New swap router address"
        }
      },
      "setWrappedNativeToken(address)": {
        "details": "The caller must have the owner to call this function",
        "params": {
          "_wrappedNativeToken": "New wrapped native token address"
        }
      },
      "supportsInterface(bytes4)": {
        "details": "Interface identification is specified in ERC-165.",
        "params": {
          "interfaceId": "The interface identifier, as specified in ERC-165"
        },
        "returns": {
          "_0": "`true` if the contract implements `interfaceId` and  `interfaceId` is not 0xffffffff, `false` otherwise"
        }
      },
      "symbol()": {
        "details": "See {ISBTMetadata-symbol}."
      },
      "tokenByIndex(uint256)": {
        "details": "See {ISBTEnumerable-tokenByIndex}."
      },
      "tokenOfOwnerByIndex(address,uint256)": {
        "details": "See {ISBTEnumerable-tokenOfOwnerByIndex}."
      },
      "tokenURI(uint256)": {
        "details": "Throws if `_tokenId` is not a valid SBT. URIs are defined in RFC  3986. The URI may point to a JSON file that conforms to the \"ERC721  Metadata JSON Schema\".",
        "params": {
          "tokenId": "SBT to get the URI of"
        },
        "returns": {
          "_0": "URI of the SBT"
        }
      },
      "totalSupply()": {
        "details": "See {ISBTEnumerable-totalSupply}."
      },
      "transferOwnership(address)": {
        "details": "Transfers ownership of the contract to a new account (`newOwner`). Can only be called by the current owner."
      }
    },
    "title": "Soulbound Credit Score",
    "version": 1
  },
  "userdoc": {
    "kind": "user",
    "methods": {
      "addAuthority(address)": {
        "notice": "Adds a new authority to the list of authorities"
      },
      "constructor": {
        "notice": "Creates a new soulbound credit score"
      },
      "disablePaymentMethod(address)": {
        "notice": "Removes a token as a valid payment method"
      },
      "enablePaymentMethod(address)": {
        "notice": "Adds a new token as a valid payment method"
      },
      "exists(uint256)": {
        "notice": "Returns true if the token exists"
      },
      "getEnabledPaymentMethods()": {
        "notice": "Returns all available payment methods"
      },
      "getIdentityId(uint256)": {
        "notice": "Returns the identityId owned by the given token"
      },
      "getMintPrice(address)": {
        "notice": "Returns the price for minting"
      },
      "mint(address,address,address,uint256,bytes)": {
        "notice": "Mints a new SBT"
      },
      "mint(address,uint256,address,uint256,bytes)": {
        "notice": "Mints a new SBT"
      },
      "setAddLinkPrice(uint256)": {
        "notice": "Sets the price for adding the link in SoulLinker in stable coin"
      },
      "setAddLinkPriceMASA(uint256)": {
        "notice": "Sets the price for adding the link in SoulLinker in MASA"
      },
      "setMasaToken(address)": {
        "notice": "Sets the utility token to pay the fee in (MASA)"
      },
      "setMintPrice(uint256)": {
        "notice": "Sets the price of minting in stable coin"
      },
      "setMintPriceMASA(uint256)": {
        "notice": "Sets the price of minting in MASA"
      },
      "setQueryLinkPrice(uint256)": {
        "notice": "Sets the price for reading data in SoulLinker in stable coin"
      },
      "setQueryLinkPriceMASA(uint256)": {
        "notice": "Sets the price for reading data in SoulLinker in MASA"
      },
      "setReserveWallet(address)": {
        "notice": "Set the reserve wallet"
      },
      "setSoulboundIdentity(address)": {
        "notice": "Sets the SoulboundIdentity contract address linked to this SBT"
      },
      "setStableCoin(address)": {
        "notice": "Sets the stable coin to pay the fee in (USDC)"
      },
      "setSwapRouter(address)": {
        "notice": "Sets the swap router address"
      },
      "setWrappedNativeToken(address)": {
        "notice": "Sets the wrapped native token address"
      },
      "supportsInterface(bytes4)": {
        "notice": "Query if a contract implements an interface"
      },
      "tokenURI(uint256)": {
        "notice": "A distinct Uniform Resource Identifier (URI) for a given asset."
      }
    },
    "notice": "Soulbound token that represents a credit score.",
    "version": 1
  },
  "storageLayout": {
    "storage": [
      {
        "astId": 400,
        "contract": "contracts/SoulboundCreditScore.sol:SoulboundCreditScore",
        "label": "_owner",
        "offset": 0,
        "slot": "0",
        "type": "t_address"
      },
      {
        "astId": 7429,
        "contract": "contracts/SoulboundCreditScore.sol:SoulboundCreditScore",
        "label": "swapRouter",
        "offset": 0,
        "slot": "1",
        "type": "t_address"
      },
      {
        "astId": 7431,
        "contract": "contracts/SoulboundCreditScore.sol:SoulboundCreditScore",
        "label": "wrappedNativeToken",
        "offset": 0,
        "slot": "2",
        "type": "t_address"
      },
      {
        "astId": 7433,
        "contract": "contracts/SoulboundCreditScore.sol:SoulboundCreditScore",
        "label": "stableCoin",
        "offset": 0,
        "slot": "3",
        "type": "t_address"
      },
      {
        "astId": 7435,
        "contract": "contracts/SoulboundCreditScore.sol:SoulboundCreditScore",
        "label": "masaToken",
        "offset": 0,
        "slot": "4",
        "type": "t_address"
      },
      {
        "astId": 7439,
        "contract": "contracts/SoulboundCreditScore.sol:SoulboundCreditScore",
        "label": "enabledPaymentMethod",
        "offset": 0,
        "slot": "5",
        "type": "t_mapping(t_address,t_bool)"
      },
      {
        "astId": 7442,
        "contract": "contracts/SoulboundCreditScore.sol:SoulboundCreditScore",
        "label": "enabledPaymentMethods",
        "offset": 0,
        "slot": "6",
        "type": "t_array(t_address)dyn_storage"
      },
      {
        "astId": 7444,
        "contract": "contracts/SoulboundCreditScore.sol:SoulboundCreditScore",
        "label": "reserveWallet",
        "offset": 0,
        "slot": "7",
        "type": "t_address"
      },
      {
        "astId": 9457,
        "contract": "contracts/SoulboundCreditScore.sol:SoulboundCreditScore",
        "label": "_name",
        "offset": 0,
        "slot": "8",
        "type": "t_string_storage"
      },
      {
        "astId": 9459,
        "contract": "contracts/SoulboundCreditScore.sol:SoulboundCreditScore",
        "label": "_symbol",
        "offset": 0,
        "slot": "9",
        "type": "t_string_storage"
      },
      {
        "astId": 9463,
        "contract": "contracts/SoulboundCreditScore.sol:SoulboundCreditScore",
        "label": "_owners",
        "offset": 0,
        "slot": "10",
        "type": "t_mapping(t_uint256,t_address)"
      },
      {
        "astId": 9467,
        "contract": "contracts/SoulboundCreditScore.sol:SoulboundCreditScore",
        "label": "_balances",
        "offset": 0,
        "slot": "11",
        "type": "t_mapping(t_address,t_uint256)"
      },
      {
        "astId": 9926,
        "contract": "contracts/SoulboundCreditScore.sol:SoulboundCreditScore",
        "label": "_ownedTokens",
        "offset": 0,
        "slot": "12",
        "type": "t_mapping(t_address,t_mapping(t_uint256,t_uint256))"
      },
      {
        "astId": 9930,
        "contract": "contracts/SoulboundCreditScore.sol:SoulboundCreditScore",
        "label": "_ownedTokensIndex",
        "offset": 0,
        "slot": "13",
        "type": "t_mapping(t_uint256,t_uint256)"
      },
      {
        "astId": 9933,
        "contract": "contracts/SoulboundCreditScore.sol:SoulboundCreditScore",
        "label": "_allTokens",
        "offset": 0,
        "slot": "14",
        "type": "t_array(t_uint256)dyn_storage"
      },
      {
        "astId": 9937,
        "contract": "contracts/SoulboundCreditScore.sol:SoulboundCreditScore",
        "label": "_allTokensIndex",
        "offset": 0,
        "slot": "15",
        "type": "t_mapping(t_uint256,t_uint256)"
      },
      {
        "astId": 24,
        "contract": "contracts/SoulboundCreditScore.sol:SoulboundCreditScore",
        "label": "_roles",
        "offset": 0,
        "slot": "16",
        "type": "t_mapping(t_bytes32,t_struct(RoleData)19_storage)"
      },
      {
        "astId": 8769,
        "contract": "contracts/SoulboundCreditScore.sol:SoulboundCreditScore",
        "label": "_baseTokenURI",
        "offset": 0,
        "slot": "17",
        "type": "t_string_storage"
      },
      {
        "astId": 8772,
        "contract": "contracts/SoulboundCreditScore.sol:SoulboundCreditScore",
        "label": "addLinkPrice",
        "offset": 0,
        "slot": "18",
        "type": "t_uint256"
      },
      {
        "astId": 8775,
        "contract": "contracts/SoulboundCreditScore.sol:SoulboundCreditScore",
        "label": "addLinkPriceMASA",
        "offset": 0,
        "slot": "19",
        "type": "t_uint256"
      },
      {
        "astId": 8778,
        "contract": "contracts/SoulboundCreditScore.sol:SoulboundCreditScore",
        "label": "queryLinkPrice",
        "offset": 0,
        "slot": "20",
        "type": "t_uint256"
      },
      {
        "astId": 8781,
        "contract": "contracts/SoulboundCreditScore.sol:SoulboundCreditScore",
        "label": "queryLinkPriceMASA",
        "offset": 0,
        "slot": "21",
        "type": "t_uint256"
      },
      {
        "astId": 9090,
        "contract": "contracts/SoulboundCreditScore.sol:SoulboundCreditScore",
        "label": "_tokenIdCounter",
        "offset": 0,
        "slot": "22",
        "type": "t_struct(Counter)2798_storage"
      },
      {
        "astId": 9093,
        "contract": "contracts/SoulboundCreditScore.sol:SoulboundCreditScore",
        "label": "soulboundIdentity",
        "offset": 0,
        "slot": "23",
        "type": "t_contract(ISoulboundIdentity)8182"
      },
      {
        "astId": 9095,
        "contract": "contracts/SoulboundCreditScore.sol:SoulboundCreditScore",
        "label": "mintPrice",
        "offset": 0,
        "slot": "24",
        "type": "t_uint256"
      },
      {
        "astId": 9097,
        "contract": "contracts/SoulboundCreditScore.sol:SoulboundCreditScore",
        "label": "mintPriceMASA",
        "offset": 0,
        "slot": "25",
        "type": "t_uint256"
      },
      {
        "astId": 9101,
        "contract": "contracts/SoulboundCreditScore.sol:SoulboundCreditScore",
        "label": "authorities",
        "offset": 0,
        "slot": "26",
        "type": "t_mapping(t_address,t_bool)"
      },
      {
        "astId": 624,
        "contract": "contracts/SoulboundCreditScore.sol:SoulboundCreditScore",
        "label": "_status",
        "offset": 0,
        "slot": "27",
        "type": "t_uint256"
      }
    ],
    "types": {
      "t_address": {
        "encoding": "inplace",
        "label": "address",
        "numberOfBytes": "20"
      },
      "t_array(t_address)dyn_storage": {
        "base": "t_address",
        "encoding": "dynamic_array",
        "label": "address[]",
        "numberOfBytes": "32"
      },
      "t_array(t_uint256)dyn_storage": {
        "base": "t_uint256",
        "encoding": "dynamic_array",
        "label": "uint256[]",
        "numberOfBytes": "32"
      },
      "t_bool": {
        "encoding": "inplace",
        "label": "bool",
        "numberOfBytes": "1"
      },
      "t_bytes32": {
        "encoding": "inplace",
        "label": "bytes32",
        "numberOfBytes": "32"
      },
      "t_contract(ISoulboundIdentity)8182": {
        "encoding": "inplace",
        "label": "contract ISoulboundIdentity",
        "numberOfBytes": "20"
      },
      "t_mapping(t_address,t_bool)": {
        "encoding": "mapping",
        "key": "t_address",
        "label": "mapping(address => bool)",
        "numberOfBytes": "32",
        "value": "t_bool"
      },
      "t_mapping(t_address,t_mapping(t_uint256,t_uint256))": {
        "encoding": "mapping",
        "key": "t_address",
        "label": "mapping(address => mapping(uint256 => uint256))",
        "numberOfBytes": "32",
        "value": "t_mapping(t_uint256,t_uint256)"
      },
      "t_mapping(t_address,t_uint256)": {
        "encoding": "mapping",
        "key": "t_address",
        "label": "mapping(address => uint256)",
        "numberOfBytes": "32",
        "value": "t_uint256"
      },
      "t_mapping(t_bytes32,t_struct(RoleData)19_storage)": {
        "encoding": "mapping",
        "key": "t_bytes32",
        "label": "mapping(bytes32 => struct AccessControl.RoleData)",
        "numberOfBytes": "32",
        "value": "t_struct(RoleData)19_storage"
      },
      "t_mapping(t_uint256,t_address)": {
        "encoding": "mapping",
        "key": "t_uint256",
        "label": "mapping(uint256 => address)",
        "numberOfBytes": "32",
        "value": "t_address"
      },
      "t_mapping(t_uint256,t_uint256)": {
        "encoding": "mapping",
        "key": "t_uint256",
        "label": "mapping(uint256 => uint256)",
        "numberOfBytes": "32",
        "value": "t_uint256"
      },
      "t_string_storage": {
        "encoding": "bytes",
        "label": "string",
        "numberOfBytes": "32"
      },
      "t_struct(Counter)2798_storage": {
        "encoding": "inplace",
        "label": "struct Counters.Counter",
        "members": [
          {
            "astId": 2797,
            "contract": "contracts/SoulboundCreditScore.sol:SoulboundCreditScore",
            "label": "_value",
            "offset": 0,
            "slot": "0",
            "type": "t_uint256"
          }
        ],
        "numberOfBytes": "32"
      },
      "t_struct(RoleData)19_storage": {
        "encoding": "inplace",
        "label": "struct AccessControl.RoleData",
        "members": [
          {
            "astId": 16,
            "contract": "contracts/SoulboundCreditScore.sol:SoulboundCreditScore",
            "label": "members",
            "offset": 0,
            "slot": "0",
            "type": "t_mapping(t_address,t_bool)"
          },
          {
            "astId": 18,
            "contract": "contracts/SoulboundCreditScore.sol:SoulboundCreditScore",
            "label": "adminRole",
            "offset": 0,
            "slot": "1",
            "type": "t_bytes32"
          }
        ],
        "numberOfBytes": "64"
      },
      "t_uint256": {
        "encoding": "inplace",
        "label": "uint256",
        "numberOfBytes": "32"
      }
    }
  }
}