{
  "address": "0x6B87e5baB74c0b68e392817Ab2c6abf69DB0F5EC",
  "abi": [
    {
      "inputs": [
        {
          "internalType": "address",
          "name": "owner",
          "type": "address"
        },
        {
          "internalType": "string",
          "name": "baseTokenURI",
          "type": "string"
        }
      ],
      "stateMutability": "nonpayable",
      "type": "constructor"
    },
    {
      "anonymous": false,
      "inputs": [
        {
          "indexed": true,
          "internalType": "address",
          "name": "owner",
          "type": "address"
        },
        {
          "indexed": true,
          "internalType": "address",
          "name": "approved",
          "type": "address"
        },
        {
          "indexed": true,
          "internalType": "uint256",
          "name": "tokenId",
          "type": "uint256"
        }
      ],
      "name": "Approval",
      "type": "event"
    },
    {
      "anonymous": false,
      "inputs": [
        {
          "indexed": true,
          "internalType": "address",
          "name": "owner",
          "type": "address"
        },
        {
          "indexed": true,
          "internalType": "address",
          "name": "operator",
          "type": "address"
        },
        {
          "indexed": false,
          "internalType": "bool",
          "name": "approved",
          "type": "bool"
        }
      ],
      "name": "ApprovalForAll",
      "type": "event"
    },
    {
      "anonymous": false,
      "inputs": [
        {
          "indexed": true,
          "internalType": "address",
          "name": "previousOwner",
          "type": "address"
        },
        {
          "indexed": true,
          "internalType": "address",
          "name": "newOwner",
          "type": "address"
        }
      ],
      "name": "OwnershipTransferred",
      "type": "event"
    },
    {
      "anonymous": false,
      "inputs": [
        {
          "indexed": true,
          "internalType": "bytes32",
          "name": "role",
          "type": "bytes32"
        },
        {
          "indexed": true,
          "internalType": "bytes32",
          "name": "previousAdminRole",
          "type": "bytes32"
        },
        {
          "indexed": true,
          "internalType": "bytes32",
          "name": "newAdminRole",
          "type": "bytes32"
        }
      ],
      "name": "RoleAdminChanged",
      "type": "event"
    },
    {
      "anonymous": false,
      "inputs": [
        {
          "indexed": true,
          "internalType": "bytes32",
          "name": "role",
          "type": "bytes32"
        },
        {
          "indexed": true,
          "internalType": "address",
          "name": "account",
          "type": "address"
        },
        {
          "indexed": true,
          "internalType": "address",
          "name": "sender",
          "type": "address"
        }
      ],
      "name": "RoleGranted",
      "type": "event"
    },
    {
      "anonymous": false,
      "inputs": [
        {
          "indexed": true,
          "internalType": "bytes32",
          "name": "role",
          "type": "bytes32"
        },
        {
          "indexed": true,
          "internalType": "address",
          "name": "account",
          "type": "address"
        },
        {
          "indexed": true,
          "internalType": "address",
          "name": "sender",
          "type": "address"
        }
      ],
      "name": "RoleRevoked",
      "type": "event"
    },
    {
      "anonymous": false,
      "inputs": [
        {
          "indexed": true,
          "internalType": "address",
          "name": "from",
          "type": "address"
        },
        {
          "indexed": true,
          "internalType": "address",
          "name": "to",
          "type": "address"
        },
        {
          "indexed": true,
          "internalType": "uint256",
          "name": "tokenId",
          "type": "uint256"
        }
      ],
      "name": "Transfer",
      "type": "event"
    },
    {
      "inputs": [],
      "name": "DEFAULT_ADMIN_ROLE",
      "outputs": [
        {
          "internalType": "bytes32",
          "name": "",
          "type": "bytes32"
        }
      ],
      "stateMutability": "view",
      "type": "function"
    },
    {
      "inputs": [],
      "name": "MINTER_ROLE",
      "outputs": [
        {
          "internalType": "bytes32",
          "name": "",
          "type": "bytes32"
        }
      ],
      "stateMutability": "view",
      "type": "function"
    },
    {
      "inputs": [
        {
          "internalType": "address",
          "name": "to",
          "type": "address"
        },
        {
          "internalType": "uint256",
          "name": "tokenId",
          "type": "uint256"
        }
      ],
      "name": "approve",
      "outputs": [],
      "stateMutability": "nonpayable",
      "type": "function"
    },
    {
      "inputs": [
        {
          "internalType": "address",
          "name": "owner",
          "type": "address"
        }
      ],
      "name": "balanceOf",
      "outputs": [
        {
          "internalType": "uint256",
          "name": "",
          "type": "uint256"
        }
      ],
      "stateMutability": "view",
      "type": "function"
    },
    {
      "inputs": [
        {
          "internalType": "uint256",
          "name": "tokenId",
          "type": "uint256"
        }
      ],
      "name": "burn",
      "outputs": [],
      "stateMutability": "nonpayable",
      "type": "function"
    },
    {
      "inputs": [
        {
          "internalType": "uint256",
          "name": "tokenId",
          "type": "uint256"
        }
      ],
      "name": "getApproved",
      "outputs": [
        {
          "internalType": "address",
          "name": "",
          "type": "address"
        }
      ],
      "stateMutability": "view",
      "type": "function"
    },
    {
      "inputs": [],
      "name": "getExtension",
      "outputs": [
        {
          "internalType": "string",
          "name": "",
          "type": "string"
        }
      ],
      "stateMutability": "view",
      "type": "function"
    },
    {
      "inputs": [
        {
          "internalType": "bytes32",
          "name": "role",
          "type": "bytes32"
        }
      ],
      "name": "getRoleAdmin",
      "outputs": [
        {
          "internalType": "bytes32",
          "name": "",
          "type": "bytes32"
        }
      ],
      "stateMutability": "view",
      "type": "function"
    },
    {
      "inputs": [],
      "name": "getSoulName",
      "outputs": [
        {
          "internalType": "contract ISoulName",
          "name": "",
          "type": "address"
        }
      ],
      "stateMutability": "view",
      "type": "function"
    },
    {
      "inputs": [
        {
          "internalType": "uint256",
          "name": "tokenId",
          "type": "uint256"
        }
      ],
      "name": "getSoulNames",
      "outputs": [
        {
          "internalType": "string[]",
          "name": "sbtNames",
          "type": "string[]"
        }
      ],
      "stateMutability": "view",
      "type": "function"
    },
    {
      "inputs": [
        {
          "internalType": "address",
          "name": "owner",
          "type": "address"
        }
      ],
      "name": "getSoulNames",
      "outputs": [
        {
          "internalType": "string[]",
          "name": "sbtNames",
          "type": "string[]"
        }
      ],
      "stateMutability": "view",
      "type": "function"
    },
    {
      "inputs": [
        {
          "internalType": "string",
          "name": "name",
          "type": "string"
        }
      ],
      "name": "getTokenData",
      "outputs": [
        {
          "internalType": "string",
          "name": "sbtName",
          "type": "string"
        },
        {
          "internalType": "uint256",
          "name": "identityId",
          "type": "uint256"
        },
        {
          "internalType": "uint256",
          "name": "tokenId",
          "type": "uint256"
        },
        {
          "internalType": "uint256",
          "name": "expirationDate",
          "type": "uint256"
        },
        {
          "internalType": "bool",
          "name": "active",
          "type": "bool"
        }
      ],
      "stateMutability": "view",
      "type": "function"
    },
    {
      "inputs": [
        {
          "internalType": "bytes32",
          "name": "role",
          "type": "bytes32"
        },
        {
          "internalType": "address",
          "name": "account",
          "type": "address"
        }
      ],
      "name": "grantRole",
      "outputs": [],
      "stateMutability": "nonpayable",
      "type": "function"
    },
    {
      "inputs": [
        {
          "internalType": "bytes32",
          "name": "role",
          "type": "bytes32"
        },
        {
          "internalType": "address",
          "name": "account",
          "type": "address"
        }
      ],
      "name": "hasRole",
      "outputs": [
        {
          "internalType": "bool",
          "name": "",
          "type": "bool"
        }
      ],
      "stateMutability": "view",
      "type": "function"
    },
    {
      "inputs": [
        {
          "internalType": "address",
          "name": "owner",
          "type": "address"
        },
        {
          "internalType": "address",
          "name": "operator",
          "type": "address"
        }
      ],
      "name": "isApprovedForAll",
      "outputs": [
        {
          "internalType": "bool",
          "name": "",
          "type": "bool"
        }
      ],
      "stateMutability": "view",
      "type": "function"
    },
    {
      "inputs": [
        {
          "internalType": "string",
          "name": "name",
          "type": "string"
        }
      ],
      "name": "isAvailable",
      "outputs": [
        {
          "internalType": "bool",
          "name": "available",
          "type": "bool"
        }
      ],
      "stateMutability": "view",
      "type": "function"
    },
    {
      "inputs": [
        {
          "internalType": "address",
          "name": "to",
          "type": "address"
        }
      ],
      "name": "mint",
      "outputs": [
        {
          "internalType": "uint256",
          "name": "",
          "type": "uint256"
        }
      ],
      "stateMutability": "nonpayable",
      "type": "function"
    },
    {
      "inputs": [
        {
          "internalType": "address",
          "name": "to",
          "type": "address"
        },
        {
          "internalType": "string",
          "name": "name",
          "type": "string"
        },
        {
          "internalType": "uint256",
          "name": "yearsPeriod",
          "type": "uint256"
        },
        {
          "internalType": "string",
          "name": "_tokenURI",
          "type": "string"
        }
      ],
      "name": "mintIdentityWithName",
      "outputs": [
        {
          "internalType": "uint256",
          "name": "",
          "type": "uint256"
        }
      ],
      "stateMutability": "payable",
      "type": "function"
    },
    {
      "inputs": [],
      "name": "name",
      "outputs": [
        {
          "internalType": "string",
          "name": "",
          "type": "string"
        }
      ],
      "stateMutability": "view",
      "type": "function"
    },
    {
      "inputs": [],
      "name": "owner",
      "outputs": [
        {
          "internalType": "address",
          "name": "",
          "type": "address"
        }
      ],
      "stateMutability": "view",
      "type": "function"
    },
    {
      "inputs": [
        {
          "internalType": "uint256",
          "name": "tokenId",
          "type": "uint256"
        }
      ],
      "name": "ownerOf",
      "outputs": [
        {
          "internalType": "address",
          "name": "",
          "type": "address"
        }
      ],
      "stateMutability": "view",
      "type": "function"
    },
    {
      "inputs": [
        {
          "internalType": "string",
          "name": "name",
          "type": "string"
        }
      ],
      "name": "ownerOf",
      "outputs": [
        {
          "internalType": "address",
          "name": "",
          "type": "address"
        }
      ],
      "stateMutability": "view",
      "type": "function"
    },
    {
      "inputs": [],
      "name": "renounceOwnership",
      "outputs": [],
      "stateMutability": "nonpayable",
      "type": "function"
    },
    {
      "inputs": [
        {
          "internalType": "bytes32",
          "name": "role",
          "type": "bytes32"
        },
        {
          "internalType": "address",
          "name": "account",
          "type": "address"
        }
      ],
      "name": "renounceRole",
      "outputs": [],
      "stateMutability": "nonpayable",
      "type": "function"
    },
    {
      "inputs": [
        {
          "internalType": "bytes32",
          "name": "role",
          "type": "bytes32"
        },
        {
          "internalType": "address",
          "name": "account",
          "type": "address"
        }
      ],
      "name": "revokeRole",
      "outputs": [],
      "stateMutability": "nonpayable",
      "type": "function"
    },
    {
      "inputs": [
        {
          "internalType": "address",
          "name": "",
          "type": "address"
        },
        {
          "internalType": "address",
          "name": "",
          "type": "address"
        },
        {
          "internalType": "uint256",
          "name": "",
          "type": "uint256"
        }
      ],
      "name": "safeTransferFrom",
      "outputs": [],
      "stateMutability": "pure",
      "type": "function"
    },
    {
      "inputs": [
        {
          "internalType": "address",
          "name": "",
          "type": "address"
        },
        {
          "internalType": "address",
          "name": "",
          "type": "address"
        },
        {
          "internalType": "uint256",
          "name": "",
          "type": "uint256"
        },
        {
          "internalType": "bytes",
          "name": "",
          "type": "bytes"
        }
      ],
      "name": "safeTransferFrom",
      "outputs": [],
      "stateMutability": "pure",
      "type": "function"
    },
    {
      "inputs": [
        {
          "internalType": "address",
          "name": "operator",
          "type": "address"
        },
        {
          "internalType": "bool",
          "name": "approved",
          "type": "bool"
        }
      ],
      "name": "setApprovalForAll",
      "outputs": [],
      "stateMutability": "nonpayable",
      "type": "function"
    },
    {
      "inputs": [
        {
          "internalType": "contract ISoulName",
          "name": "_soulName",
          "type": "address"
        }
      ],
      "name": "setSoulName",
      "outputs": [],
      "stateMutability": "nonpayable",
      "type": "function"
    },
    {
      "inputs": [],
      "name": "soulName",
      "outputs": [
        {
          "internalType": "contract ISoulName",
          "name": "",
          "type": "address"
        }
      ],
      "stateMutability": "view",
      "type": "function"
    },
    {
      "inputs": [
        {
          "internalType": "bytes4",
          "name": "interfaceId",
          "type": "bytes4"
        }
      ],
      "name": "supportsInterface",
      "outputs": [
        {
          "internalType": "bool",
          "name": "",
          "type": "bool"
        }
      ],
      "stateMutability": "view",
      "type": "function"
    },
    {
      "inputs": [],
      "name": "symbol",
      "outputs": [
        {
          "internalType": "string",
          "name": "",
          "type": "string"
        }
      ],
      "stateMutability": "view",
      "type": "function"
    },
    {
      "inputs": [
        {
          "internalType": "uint256",
          "name": "index",
          "type": "uint256"
        }
      ],
      "name": "tokenByIndex",
      "outputs": [
        {
          "internalType": "uint256",
          "name": "",
          "type": "uint256"
        }
      ],
      "stateMutability": "view",
      "type": "function"
    },
    {
      "inputs": [
        {
          "internalType": "address",
          "name": "owner",
          "type": "address"
        }
      ],
      "name": "tokenOfOwner",
      "outputs": [
        {
          "internalType": "uint256",
          "name": "",
          "type": "uint256"
        }
      ],
      "stateMutability": "view",
      "type": "function"
    },
    {
      "inputs": [
        {
          "internalType": "address",
          "name": "owner",
          "type": "address"
        },
        {
          "internalType": "uint256",
          "name": "index",
          "type": "uint256"
        }
      ],
      "name": "tokenOfOwnerByIndex",
      "outputs": [
        {
          "internalType": "uint256",
          "name": "",
          "type": "uint256"
        }
      ],
      "stateMutability": "view",
      "type": "function"
    },
    {
      "inputs": [
        {
          "internalType": "string",
          "name": "name",
          "type": "string"
        }
      ],
      "name": "tokenURI",
      "outputs": [
        {
          "internalType": "string",
          "name": "",
          "type": "string"
        }
      ],
      "stateMutability": "view",
      "type": "function"
    },
    {
      "inputs": [
        {
          "internalType": "address",
          "name": "owner",
          "type": "address"
        }
      ],
      "name": "tokenURI",
      "outputs": [
        {
          "internalType": "string",
          "name": "",
          "type": "string"
        }
      ],
      "stateMutability": "view",
      "type": "function"
    },
    {
      "inputs": [
        {
          "internalType": "uint256",
          "name": "tokenId",
          "type": "uint256"
        }
      ],
      "name": "tokenURI",
      "outputs": [
        {
          "internalType": "string",
          "name": "",
          "type": "string"
        }
      ],
      "stateMutability": "view",
      "type": "function"
    },
    {
      "inputs": [],
      "name": "totalSupply",
      "outputs": [
        {
          "internalType": "uint256",
          "name": "",
          "type": "uint256"
        }
      ],
      "stateMutability": "view",
      "type": "function"
    },
    {
      "inputs": [
        {
          "internalType": "address",
          "name": "",
          "type": "address"
        },
        {
          "internalType": "address",
          "name": "",
          "type": "address"
        },
        {
          "internalType": "uint256",
          "name": "",
          "type": "uint256"
        }
      ],
      "name": "transferFrom",
      "outputs": [],
      "stateMutability": "pure",
      "type": "function"
    },
    {
      "inputs": [
        {
          "internalType": "address",
          "name": "newOwner",
          "type": "address"
        }
      ],
      "name": "transferOwnership",
      "outputs": [],
      "stateMutability": "nonpayable",
      "type": "function"
    }
  ],
  "transactionHash": "0x8f1740c264aaca6757477fc0a434ef551e8388efa197c6b32d9df267e8baa811",
  "args": [
    "0x3c8D9f130970358b7E8cbc1DbD0a1EbA6EBE368F",
    "https://beta.metadata.masa.finance/v1.0/identity/"
  ],
  "numDeployments": 3,
  "solcInputHash": "9fb8242b4e7ce0c916cce52044aecc94",
  "bytecode": "0x60806040523480156200001157600080fd5b5060405162003509380380620035098339810160408190526200003491620003f1565b816040518060400160405280600d81526020016c4d617361204964656e7469747960981b8152506040518060400160405280600381526020016213525160ea1b81525083838383838282816000908051906020019062000096929190620002c5565b508051620000ac906001906020840190620002c5565b505050620000c9620000c36200013e60201b60201c565b62000142565b620000df846200019460201b620011221760201c565b620000ec600085620001de565b620001187f9f2df0fed2c77648de5860a4cc508cd0818c85b8b8a1ab4ceeef8d981c8956a685620001de565b80516200012d90600d906020840190620002c5565b50505050505050505050506200061a565b3390565b600a80546001600160a01b038381166001600160a01b0319831681179093556040519116919082907f8be0079c531659141344cd1fd0a4f28419497f9722a3daafe3b4186f6b6457e090600090a35050565b6200019e62000269565b6001600160a01b038116620001d05760405162461bcd60e51b8152600401620001c79062000450565b60405180910390fd5b620001db8162000142565b50565b620001ea828262000298565b62000265576000828152600b602090815260408083206001600160a01b03851684529091529020805460ff19166001179055620002243390565b6001600160a01b0316816001600160a01b0316837f2f8788117e7eff1d82e926ec794901d17c78024a50270940304540a733656f0d60405160405180910390a45b5050565b600a546001600160a01b03163314620002965760405162461bcd60e51b8152600401620001c7906200049b565b565b6000828152600b602090815260408083206001600160a01b038516845290915290205460ff165b92915050565b828054620002d3906200056a565b90600052602060002090601f016020900481019282620002f7576000855562000342565b82601f106200031257805160ff191683800117855562000342565b8280016001018555821562000342579182015b828111156200034257825182559160200191906001019062000325565b506200035092915062000354565b5090565b5b8082111562000350576000815560010162000355565b6000620003826200037c84620004f5565b620004d6565b9050828152602081018484840111156200039f576200039f600080fd5b620003ac84828562000537565b509392505050565b8051620002bf8162000603565b600082601f830112620003d757620003d7600080fd5b8151620003e98482602086016200036b565b949350505050565b60008060408385031215620004095762000409600080fd5b6000620004178585620003b4565b92505060208301516001600160401b03811115620004385762000438600080fd5b6200044685828601620003c1565b9150509250929050565b60208082528101620002bf81602681527f4f776e61626c653a206e6577206f776e657220697320746865207a65726f206160208201526564647265737360d01b604082015260600190565b60208082528181019081527f4f776e61626c653a2063616c6c6572206973206e6f7420746865206f776e6572604083015260608201620002bf565b6000620004e260405190565b9050620004f082826200059b565b919050565b60006001600160401b03821115620005115762000511620005e3565b6200051c82620005f9565b60200192915050565b60006001600160a01b038216620002bf565b60005b83811015620005545781810151838201526020016200053a565b8381111562000564576000848401525b50505050565b6002810460018216806200057f57607f821691505b60208210811415620005955762000595620005cd565b50919050565b620005a682620005f9565b81018181106001600160401b0382111715620005c657620005c6620005e3565b6040525050565b634e487b7160e01b600052602260045260246000fd5b634e487b7160e01b600052604160045260246000fd5b601f01601f191690565b6200060e8162000525565b8114620001db57600080fd5b612edf806200062a6000396000f3fe6080604052600436106101d65760003560e01c806301ffc9a7146101db57806306fdde0314610211578063081812fc14610233578063095ea7b3146102605780630f2e68af1461028257806318160ddd146102af57806323b872dd146102cd578063248a9ca3146102ed578063294cdf0d1461030d5780632f2ff15d1461032d5780632f745c591461034d57806336568abe1461036d57806342842e0e146102cd57806342966c681461038d57806346b2b087146103ad5780634cf12d26146103de5780634f6ccce7146103fe5780635141453e1461041e5780636352211e146104315780636a6278421461045157806370a0823114610471578063715018a614610491578063776ce6a1146104a65780637e669891146104bb5780638da5cb5b146104e857806391d14854146104fd578063920ffa261461051d57806393702f331461053d57806395d89b411461055d578063965306aa14610572578063a217fddf14610592578063a22cb465146105a7578063b507d481146105c7578063b79636b6146105e5578063b88d4fde14610605578063c87b56dd14610620578063d539139314610640578063d547741f14610662578063e985e9c514610682578063ee7a9ec5146106a2578063f2fde38b146106c2575b600080fd5b3480156101e757600080fd5b506101fb6101f63660046121ca565b6106e2565b6040516102089190612a1a565b60405180910390f35b34801561021d57600080fd5b506102266106f3565b6040516102089190612a44565b34801561023f57600080fd5b5061025361024e366004612187565b610785565b604051610208919061295e565b34801561026c57600080fd5b5061028061027b3660046120f9565b6107ac565b005b34801561028e57600080fd5b50600e546102a2906001600160a01b031681565b6040516102089190612a36565b3480156102bb57600080fd5b506008545b6040516102089190612a28565b3480156102d957600080fd5b506102806102e8366004611fa8565b61083b565b3480156102f957600080fd5b506102c0610308366004612187565b610853565b34801561031957600080fd5b506102c0610328366004611f4a565b610868565b34801561033957600080fd5b506102806103483660046121a8565b610875565b34801561035957600080fd5b506102c06103683660046120f9565b610891565b34801561037957600080fd5b506102806103883660046121a8565b6108e3565b34801561039957600080fd5b506102806103a8366004612187565b610919565b3480156103b957600080fd5b506103cd6103c836600461222d565b61094b565b604051610208959493929190612a55565b3480156103ea57600080fd5b506102266103f936600461222d565b610a15565b34801561040a57600080fd5b506102c0610419366004612187565b610add565b6102c061042c3660046120a9565b610b2b565b34801561043d57600080fd5b5061025361044c366004612187565b610bf8565b34801561045d57600080fd5b506102c061046c366004611f4a565b610c03565b34801561047d57600080fd5b506102c061048c366004611f4a565b610c36565b34801561049d57600080fd5b50610280610c7a565b3480156104b257600080fd5b50610226610c8e565b3480156104c757600080fd5b506104db6104d6366004612187565b610d14565b6040516102089190612a09565b3480156104f457600080fd5b50610253610dc3565b34801561050957600080fd5b506101fb6105183660046121a8565b610dd2565b34801561052957600080fd5b5061025361053836600461222d565b610dfd565b34801561054957600080fd5b50610226610558366004611f4a565b610ebc565b34801561056957600080fd5b50610226610ed4565b34801561057e57600080fd5b506101fb61058d36600461222d565b610ee3565b34801561059e57600080fd5b506102c0600081565b3480156105b357600080fd5b506102806105c2366004612076565b610f8e565b3480156105d357600080fd5b50600e546001600160a01b03166102a2565b3480156105f157600080fd5b506104db610600366004611f4a565b610f99565b34801561061157600080fd5b506102806102e8366004611ff8565b34801561062c57600080fd5b5061022661063b366004612187565b610ff4565b34801561064c57600080fd5b506102c0600080516020612e6a83398151915281565b34801561066e57600080fd5b5061028061067d3660046121a8565b61105a565b34801561068e57600080fd5b506101fb61069d366004611f6b565b611076565b3480156106ae57600080fd5b506102806106bd36600461220c565b6110a4565b3480156106ce57600080fd5b506102806106dd366004611f4a565b611122565b60006106ed82611159565b92915050565b60606000805461070290612d1d565b80601f016020809104026020016040519081016040528092919081815260200182805461072e90612d1d565b801561077b5780601f106107505761010080835404028352916020019161077b565b820191906000526020600020905b81548152906001019060200180831161075e57829003601f168201915b5050505050905090565b60006107908261117e565b506000908152600460205260409020546001600160a01b031690565b60006107b7826111a3565b9050806001600160a01b0316836001600160a01b031614156107f45760405162461bcd60e51b81526004016107eb90612b9c565b60405180910390fd5b336001600160a01b038216148061081057506108108133611076565b61082c5760405162461bcd60e51b81526004016107eb90612b5c565b61083683836111d8565b505050565b60405162461bcd60e51b81526004016107eb90612b1c565b6000908152600b602052604090206001015490565b60006106ed826000610891565b61087e82610853565b61088781611246565b6108368383611250565b600061089c83610c36565b82106108ba5760405162461bcd60e51b81526004016107eb90612aac565b506001600160a01b03919091166000908152600660209081526040808320938352929052205490565b6001600160a01b038116331461090b5760405162461bcd60e51b81526004016107eb90612bcc565b61091582826112d6565b5050565b610923338261133d565b61093f5760405162461bcd60e51b81526004016107eb90612bbc565b6109488161139b565b50565b600e546060906000908190819081906001600160a01b031661097f5760405162461bcd60e51b81526004016107eb90612afc565b600e546040516346b2b08760e01b81526001600160a01b03909116906346b2b087906109af908990600401612a44565b60006040518083038186803b1580156109c757600080fd5b505afa1580156109db573d6000803e3d6000fd5b505050506040513d6000823e601f3d908101601f19168201604052610a0391908101906122a1565b939a9299509097509550909350915050565b600e546060906001600160a01b0316610a405760405162461bcd60e51b81526004016107eb90612afc565b600e546040516346b2b08760e01b81526000916001600160a01b0316906346b2b08790610a71908690600401612a44565b60006040518083038186803b158015610a8957600080fd5b505afa158015610a9d573d6000803e3d6000fd5b505050506040513d6000823e601f3d908101601f19168201604052610ac591908101906122a1565b505050915050610ad481610ff4565b9150505b919050565b6000610ae860085490565b8210610b065760405162461bcd60e51b81526004016107eb90612bac565b60088281548110610b1957610b19612df8565b90600052602060002001549050919050565b600e546000906001600160a01b0316610b565760405162461bcd60e51b81526004016107eb90612afc565b6000610b6186610c03565b600e5460405163030547fb60e21b81529192506001600160a01b031690630c151fec90610b9a908990899086908a908a906004016129b0565b602060405180830381600087803b158015610bb457600080fd5b505af1158015610bc8573d6000803e3d6000fd5b505050506040513d601f19601f82011682018060405250810190610bec9190612332565b5090505b949350505050565b60006106ed826111a3565b60006001610c1083610c36565b10610c2d5760405162461bcd60e51b81526004016107eb90612aec565b6106ed82611430565b60006001600160a01b038216610c5e5760405162461bcd60e51b81526004016107eb90612b3c565b506001600160a01b031660009081526003602052604090205490565b610c8261143b565b610c8c600061146a565b565b600e546040805163776ce6a160e01b815290516060926001600160a01b03169163776ce6a1916004808301926000929190829003018186803b158015610cd357600080fd5b505afa158015610ce7573d6000803e3d6000fd5b505050506040513d6000823e601f3d908101601f19168201604052610d0f9190810190612267565b905090565b600e546060906001600160a01b0316610d3f5760405162461bcd60e51b81526004016107eb90612afc565b600e54604051637e66989160e01b81526001600160a01b0390911690637e66989190610d6f908590600401612a28565b60006040518083038186803b158015610d8757600080fd5b505afa158015610d9b573d6000803e3d6000fd5b505050506040513d6000823e601f3d908101601f191682016040526106ed919081019061212c565b600a546001600160a01b031690565b6000918252600b602090815260408084206001600160a01b0393909316845291905290205460ff1690565b600e546000906001600160a01b0316610e285760405162461bcd60e51b81526004016107eb90612afc565b600e546040516346b2b08760e01b81526000916001600160a01b0316906346b2b08790610e59908690600401612a44565b60006040518083038186803b158015610e7157600080fd5b505afa158015610e85573d6000803e3d6000fd5b505050506040513d6000823e601f3d908101601f19168201604052610ead91908101906122a1565b505050915050610ad4816111a3565b60606000610ec983610868565b9050610ad481610ff4565b60606001805461070290612d1d565b600e546000906001600160a01b0316610f0e5760405162461bcd60e51b81526004016107eb90612afc565b600e54604051634b29835560e11b81526001600160a01b039091169063965306aa90610f3e908590600401612a44565b60206040518083038186803b158015610f5657600080fd5b505afa158015610f6a573d6000803e3d6000fd5b505050506040513d601f19601f820116820180604052508101906106ed9190612166565b6109153383836114bc565b600e546060906001600160a01b0316610fc45760405162461bcd60e51b81526004016107eb90612afc565b600e54604051635bcb1b5b60e11b81526001600160a01b039091169063b79636b690610d6f90859060040161295e565b6060610fff8261117e565b600061100961155f565b905060008151116110295760405180602001604052806000815250610ad4565b806110338461156e565b6040516020016110449291906128de565b6040516020818303038152906040529392505050565b61106382610853565b61106c81611246565b61083683836112d6565b6001600160a01b03918216600090815260056020908152604080832093909416825291909152205460ff1690565b6110ac61143b565b6001600160a01b0381166110d25760405162461bcd60e51b81526004016107eb90612b4c565b600e546001600160a01b03828116911614156111005760405162461bcd60e51b81526004016107eb90612b2c565b600e80546001600160a01b0319166001600160a01b0392909216919091179055565b61112a61143b565b6001600160a01b0381166111505760405162461bcd60e51b81526004016107eb90612acc565b6109488161146a565b60006001600160e01b03198216637965db0b60e01b14806106ed57506106ed8261166b565b61118781611690565b6109485760405162461bcd60e51b81526004016107eb90612b8c565b6000818152600260205260408120546001600160a01b0316806106ed5760405162461bcd60e51b81526004016107eb90612b8c565b600081815260046020526040902080546001600160a01b0319166001600160a01b038416908117909155819061120d826111a3565b6001600160a01b03167f8c5be1e5ebec7d5bd14f71427d1e84f3dd0314c0f7b2291e5b200ac8c7c3b92560405160405180910390a45050565b61094881336116ad565b61125a8282610dd2565b610915576000828152600b602090815260408083206001600160a01b03851684529091529020805460ff191660011790556112923390565b6001600160a01b0316816001600160a01b0316837f2f8788117e7eff1d82e926ec794901d17c78024a50270940304540a733656f0d60405160405180910390a45050565b6112e08282610dd2565b15610915576000828152600b602090815260408083206001600160a01b0385168085529252808320805460ff1916905551339285917ff6391f5c32d9c69d2a47ea670b442974b53935d1edc7fd64eb21e047a839171b9190a45050565b600080611349836111a3565b9050806001600160a01b0316846001600160a01b0316148061137057506113708185611076565b80610bf05750836001600160a01b031661138984610785565b6001600160a01b031614949350505050565b60006113a6826111a3565b90506113b481600084611711565b6113bf6000836111d8565b6001600160a01b03811660009081526003602052604081208054600192906113e8908490612c8c565b909155505060008281526002602052604080822080546001600160a01b0319169055518391906001600160a01b03841690600080516020612e8a833981519152908390a45050565b60006106ed8261171c565b33611444610dc3565b6001600160a01b031614610c8c5760405162461bcd60e51b81526004016107eb90612b7c565b600a80546001600160a01b038381166001600160a01b0319831681179093556040519116919082907f8be0079c531659141344cd1fd0a4f28419497f9722a3daafe3b4186f6b6457e090600090a35050565b816001600160a01b0316836001600160a01b031614156114ee5760405162461bcd60e51b81526004016107eb90612b0c565b6001600160a01b0383811660008181526005602090815260408083209487168084529490915290819020805460ff1916851515179055517f17307eab39ab6107e8899845ad3d59bd9653f200f220920489ca2b5937696c3190611552908590612a1a565b60405180910390a3505050565b6060600d805461070290612d1d565b6060816115925750506040805180820190915260018152600360fc1b602082015290565b8160005b81156115bc57806115a681612d71565b91506115b59050600a83612c59565b9150611596565b6000816001600160401b038111156115d6576115d6612e0e565b6040519080825280601f01601f191660200182016040528015611600576020820181803683370190505b5090505b8415610bf057611615600183612c8c565b9150611622600a86612d8c565b61162d906030612c41565b60f81b81838151811061164257611642612df8565b60200101906001600160f81b031916908160001a905350611664600a86612c59565b9450611604565b60006001600160e01b0319821663780e9d6360e01b14806106ed57506106ed82611761565b6000908152600260205260409020546001600160a01b0316151590565b6116b78282610dd2565b610915576116cf816001600160a01b031660146117b1565b6116da8360206117b1565b6040516020016116eb92919061290c565b60408051601f198184030181529082905262461bcd60e51b82526107eb91600401612a44565b610836838383611923565b6000600080516020612e6a83398151915261173681611246565b6000611741600c5490565b9050611751600c80546001019055565b610ad484826119db565b50919050565b60006001600160e01b031982166380ac58cd60e01b148061179257506001600160e01b03198216635b5e139f60e01b145b806106ed57506301ffc9a760e01b6001600160e01b03198316146106ed565b606060006117c0836002612c6d565b6117cb906002612c41565b6001600160401b038111156117e2576117e2612e0e565b6040519080825280601f01601f19166020018201604052801561180c576020820181803683370190505b509050600360fc1b8160008151811061182757611827612df8565b60200101906001600160f81b031916908160001a905350600f60fb1b8160018151811061185657611856612df8565b60200101906001600160f81b031916908160001a905350600061187a846002612c6d565b611885906001612c41565b90505b60018111156118fd576f181899199a1a9b1b9c1cb0b131b232b360811b85600f16601081106118b9576118b9612df8565b1a60f81b8282815181106118cf576118cf612df8565b60200101906001600160f81b031916908160001a90535060049490941c936118f681612d06565b9050611888565b50831561191c5760405162461bcd60e51b81526004016107eb90612a9c565b9392505050565b6001600160a01b03831661197e5761197981600880546000838152600960205260408120829055600182018355919091527ff3f7a9fe364faab93b216da50a3214154f22a0a2b415b23a84c8169e8b636ee30155565b6119a1565b816001600160a01b0316836001600160a01b0316146119a1576119a183826119f5565b6001600160a01b0382166119b85761083681611a92565b826001600160a01b0316826001600160a01b031614610836576108368282611b41565b610915828260405180602001604052806000815250611b85565b60006001611a0284610c36565b611a0c9190612c8c565b600083815260076020526040902054909150808214611a5f576001600160a01b03841660009081526006602090815260408083208584528252808320548484528184208190558352600790915290208190555b5060009182526007602090815260408084208490556001600160a01b039094168352600681528383209183525290812055565b600854600090611aa490600190612c8c565b60008381526009602052604081205460088054939450909284908110611acc57611acc612df8565b906000526020600020015490508060088381548110611aed57611aed612df8565b6000918252602080832090910192909255828152600990915260408082208490558582528120556008805480611b2557611b25612de2565b6001900381819060005260206000200160009055905550505050565b6000611b4c83610c36565b6001600160a01b039093166000908152600660209081526040808320868452825280832085905593825260079052919091209190915550565b611b8f8383611bb8565b611b9c6000848484611c85565b6108365760405162461bcd60e51b81526004016107eb90612abc565b6001600160a01b038216611bde5760405162461bcd60e51b81526004016107eb90612b6c565b611be781611690565b15611c045760405162461bcd60e51b81526004016107eb90612adc565b611c1060008383611711565b6001600160a01b0382166000908152600360205260408120805460019290611c39908490612c41565b909155505060008181526002602052604080822080546001600160a01b0319166001600160a01b0386169081179091559051839290600080516020612e8a833981519152908290a45050565b60006001600160a01b0384163b15611d8757604051630a85bd0160e11b81526001600160a01b0385169063150b7a0290611cc990339089908890889060040161296c565b602060405180830381600087803b158015611ce357600080fd5b505af1925050508015611d13575060408051601f3d908101601f19168201909252611d10918101906121eb565b60015b611d6d573d808015611d41576040519150601f19603f3d011682016040523d82523d6000602084013e611d46565b606091505b508051611d655760405162461bcd60e51b81526004016107eb90612abc565b805181602001fd5b6001600160e01b031916630a85bd0160e11b149050610bf0565b506001610bf0565b6000611da2611d9d84612bf3565b612bdc565b90508083825260208201905082856020860282011115611dc457611dc4600080fd5b60005b85811015611e0c5781516001600160401b03811115611de857611de8600080fd5b808601611df58982611f1b565b855250506020928301929190910190600101611dc7565b5050509392505050565b6000611e24611d9d84612c16565b905082815260208101848484011115611e3f57611e3f600080fd5b611e4a848285612cca565b509392505050565b6000611e60611d9d84612c16565b905082815260208101848484011115611e7b57611e7b600080fd5b611e4a848285612cd6565b80356106ed81612e2e565b600082601f830112611ea557611ea5600080fd5b8151610bf0848260208601611d8f565b80356106ed81612e42565b80516106ed81612e42565b80356106ed81612e4a565b80356106ed81612e50565b80516106ed81612e50565b600082601f830112611f0057611f00600080fd5b8135610bf0848260208601611e16565b80356106ed81612e60565b600082601f830112611f2f57611f2f600080fd5b8151610bf0848260208601611e52565b80516106ed81612e4a565b600060208284031215611f5f57611f5f600080fd5b6000610bf08484611e86565b60008060408385031215611f8157611f81600080fd5b6000611f8d8585611e86565b9250506020611f9e85828601611e86565b9150509250929050565b600080600060608486031215611fc057611fc0600080fd5b6000611fcc8686611e86565b9350506020611fdd86828701611e86565b9250506040611fee86828701611ecb565b9150509250925092565b6000806000806080858703121561201157612011600080fd5b600061201d8787611e86565b945050602061202e87828801611e86565b935050604061203f87828801611ecb565b92505060608501356001600160401b0381111561205e5761205e600080fd5b61206a87828801611eec565b91505092959194509250565b6000806040838503121561208c5761208c600080fd5b60006120988585611e86565b9250506020611f9e85828601611eb5565b600080600080608085870312156120c2576120c2600080fd5b60006120ce8787611e86565b94505060208501356001600160401b038111156120ed576120ed600080fd5b61202e87828801611eec565b6000806040838503121561210f5761210f600080fd5b600061211b8585611e86565b9250506020611f9e85828601611ecb565b60006020828403121561214157612141600080fd5b81516001600160401b0381111561215a5761215a600080fd5b610bf084828501611e91565b60006020828403121561217b5761217b600080fd5b6000610bf08484611ec0565b60006020828403121561219c5761219c600080fd5b6000610bf08484611ecb565b600080604083850312156121be576121be600080fd5b6000611f8d8585611ecb565b6000602082840312156121df576121df600080fd5b6000610bf08484611ed6565b60006020828403121561220057612200600080fd5b6000610bf08484611ee1565b60006020828403121561222157612221600080fd5b6000610bf08484611f10565b60006020828403121561224257612242600080fd5b81356001600160401b0381111561225b5761225b600080fd5b610bf084828501611eec565b60006020828403121561227c5761227c600080fd5b81516001600160401b0381111561229557612295600080fd5b610bf084828501611f1b565b600080600080600060a086880312156122bc576122bc600080fd5b85516001600160401b038111156122d5576122d5600080fd5b6122e188828901611f1b565b95505060206122f288828901611f3f565b945050604061230388828901611f3f565b935050606061231488828901611f3f565b925050608061232588828901611ec0565b9150509295509295909350565b60006020828403121561234757612347600080fd5b6000610bf08484611f3f565b600061191c83836123e2565b61236881612ca3565b82525050565b6000612378825190565b808452602084019350836020820285016123928560200190565b8060005b858110156123c757848403895281516123af8582612353565b94506020830160209a909a0199925050600101612396565b5091979650505050505050565b801515612368565b80612368565b60006123ec825190565b808452602084019350612403818560208601612cd6565b61240c81612e24565b9093019392505050565b61236881612cbf565b6000612429825190565b612437818560208601612cd6565b9290920192915050565b60208082527f537472696e67733a20686578206c656e67746820696e73756666696369656e74910190815260005b5060200190565b602b81526000602082017f455243373231456e756d657261626c653a206f776e657220696e646578206f7581526a74206f6620626f756e647360a81b602082015291505b5060400190565b603281526000602082017f4552433732313a207472616e7366657220746f206e6f6e20455243373231526581527131b2b4bb32b91034b6b83632b6b2b73a32b960711b602082015291506124ba565b602681526000602082017f4f776e61626c653a206e6577206f776e657220697320746865207a65726f206181526564647265737360d01b602082015291506124ba565b601c81526000602082017b115490cdcc8c4e881d1bdad95b88185b1c9958591e481b5a5b9d195960221b8152915061246f565b601b81526000602082017a14d097d25111539512551657d053149150511657d0d49150551151602a1b8152915061246f565b601981526000602082017814d3d5531390535157d0d3d395149050d517d393d517d4d155603a1b8152915061246f565b601981526000602082017822a9219b99189d1030b8383937bb32903a379031b0b63632b960391b8152915061246f565b601a81526000602082017914d09517d514905394d1915497d393d517d4115493525515115160321b8152915061246f565b600a81526000602082016953414d455f56414c554560b01b8152915061246f565b602981526000602082017f4552433732313a2061646472657373207a65726f206973206e6f7420612076618152683634b21037bbb732b960b91b602082015291506124ba565b600c81526000602082016b5a45524f5f4144445245535360a01b8152915061246f565b603e81526000602082017f4552433732313a20617070726f76652063616c6c6572206973206e6f7420746f81527f6b656e206f776e6572206e6f7220617070726f76656420666f7220616c6c0000602082015291506124ba565b60208082527f4552433732313a206d696e7420746f20746865207a65726f20616464726573739101908152600061246f565b60208082527f4f776e61626c653a2063616c6c6572206973206e6f7420746865206f776e65729101908152600061246f565b6018815260006020820177115490cdcc8c4e881a5b9d985b1a59081d1bdad95b88125160421b8152915061246f565b602181526000602082017f4552433732313a20617070726f76616c20746f2063757272656e74206f776e658152603960f91b602082015291506124ba565b602c81526000602082017f455243373231456e756d657261626c653a20676c6f62616c20696e646578206f81526b7574206f6620626f756e647360a01b602082015291506124ba565b602e81526000602082017f4552433732313a2063616c6c6572206973206e6f7420746f6b656e206f776e6581526d1c881b9bdc88185c1c1c9bdd995960921b602082015291506124ba565b602f81526000602082017f416363657373436f6e74726f6c3a2063616e206f6e6c792072656e6f756e636581526e103937b632b9903337b91039b2b63360891b602082015291506124ba565b60006128ea828561241f565b91506128f6828461241f565b64173539b7b760d91b8152915060058201610bf0565b76020b1b1b2b9b9a1b7b73a3937b61d1030b1b1b7bab73a1604d1b81526017016000612938828561241f565b7001034b99036b4b9b9b4b733903937b6329607d1b81526011019150610bf0828461241f565b602081016106ed828461235f565b6080810161297a828761235f565b612987602083018661235f565b61299460408301856123dc565b81810360608301526129a681846123e2565b9695505050505050565b60a081016129be828861235f565b81810360208301526129d081876123e2565b90506129df60408301866123dc565b6129ec60608301856123dc565b81810360808301526129fe81846123e2565b979650505050505050565b6020808252810161191c818461236e565b602081016106ed82846123d4565b602081016106ed82846123dc565b602081016106ed8284612416565b6020808252810161191c81846123e2565b60a08082528101612a6681886123e2565b9050612a7560208301876123dc565b612a8260408301866123dc565b612a8f60608301856123dc565b6129a660808301846123d4565b602080825281016106ed81612441565b602080825281016106ed81612476565b602080825281016106ed816124c1565b602080825281016106ed81612510565b602080825281016106ed81612553565b602080825281016106ed81612586565b602080825281016106ed816125b8565b602080825281016106ed816125e8565b602080825281016106ed81612618565b602080825281016106ed81612649565b602080825281016106ed8161266a565b602080825281016106ed816126b0565b602080825281016106ed816126d3565b602080825281016106ed8161272d565b602080825281016106ed8161275f565b602080825281016106ed81612791565b602080825281016106ed816127c0565b602080825281016106ed816127fe565b602080825281016106ed81612847565b602080825281016106ed81612892565b6000612be760405190565b9050610ad88282612d44565b60006001600160401b03821115612c0c57612c0c612e0e565b5060209081020190565b60006001600160401b03821115612c2f57612c2f612e0e565b612c3882612e24565b60200192915050565b60008219821115612c5457612c54612da0565b500190565b600082612c6857612c68612db6565b500490565b6000816000190483118215151615612c8757612c87612da0565b500290565b600082821015612c9e57612c9e612da0565b500390565b60006001600160a01b0382166106ed565b60006106ed82612ca3565b60006106ed82612cb4565b82818337506000910152565b60005b83811015612cf1578181015183820152602001612cd9565b83811115612d00576000848401525b50505050565b600081612d1557612d15612da0565b506000190190565b600281046001821680612d3157607f821691505b6020821081141561175b5761175b612dcc565b612d4d82612e24565b81018181106001600160401b0382111715612d6a57612d6a612e0e565b6040525050565b6000600019821415612d8557612d85612da0565b5060010190565b600082612d9b57612d9b612db6565b500690565b634e487b7160e01b600052601160045260246000fd5b634e487b7160e01b600052601260045260246000fd5b634e487b7160e01b600052602260045260246000fd5b634e487b7160e01b600052603160045260246000fd5b634e487b7160e01b600052603260045260246000fd5b634e487b7160e01b600052604160045260246000fd5b601f01601f191690565b612e3781612ca3565b811461094857600080fd5b801515612e37565b80612e37565b6001600160e01b03198116612e37565b612e3781612cb456fe9f2df0fed2c77648de5860a4cc508cd0818c85b8b8a1ab4ceeef8d981c8956a6ddf252ad1be2c89b69c2b068fc378daa952ba7f163c4a11628f55a4df523b3efa2646970667358221220d88f3d4a7e5dca7878c2def5b1b7f1cead1f45a25f6955279fd9f887cdf59ec364736f6c63430008070033",
  "devdoc": {
    "author": "Masa Finance",
    "details": "Soulbound identity, that inherits from the SBT contract.",
    "kind": "dev",
    "methods": {
      "approve(address,uint256)": {
        "details": "See {IERC721-approve}."
      },
      "balanceOf(address)": {
        "details": "See {IERC721-balanceOf}."
      },
      "burn(uint256)": {
        "details": "Burns `tokenId`. See {ERC721-_burn}. Requirements: - The caller must own `tokenId` or be an approved operator."
      },
      "constructor": {
        "details": "Creates a new soulbound identity, inheriting from the SBT contract.",
        "params": {
          "baseTokenURI": "Base URI of the token",
          "owner": "Owner of the smart contract"
        }
      },
      "getApproved(uint256)": {
        "details": "See {IERC721-getApproved}."
      },
      "getExtension()": {
        "details": "This function returns the extension of the soul name",
        "returns": {
          "_0": "Extension of the soul name"
        }
      },
      "getRoleAdmin(bytes32)": {
        "details": "Returns the admin role that controls `role`. See {grantRole} and {revokeRole}. To change a role's admin, use {_setRoleAdmin}."
      },
      "getSoulName()": {
        "details": "This function returns the address of the SoulName contract linked to this identity",
        "returns": {
          "_0": "Address of the SoulName contract"
        }
      },
      "getSoulNames(address)": {
        "details": "This function queries all the identity names of the specified account",
        "params": {
          "owner": "Address of the owner of the identities"
        },
        "returns": {
          "sbtNames": "Array of soul names associated to the account"
        }
      },
      "getSoulNames(uint256)": {
        "details": "This function queries all the identity names of the specified identity Id",
        "params": {
          "tokenId": "TokenId of the identity"
        },
        "returns": {
          "sbtNames": "Array of soul names associated to the identity Id"
        }
      },
      "getTokenData(string)": {
        "details": "This function queries the information of a soul name",
        "params": {
          "name": "Name of the soul name"
        },
        "returns": {
          "active": "`true` if the soul name is active, `false` otherwise",
          "expirationDate": "Expiration date of the soul name",
          "identityId": "Identity id of the soul name",
          "sbtName": "Soul name, in upper/lower case and extension",
          "tokenId": "SoulName id id of the soul name"
        }
      },
      "grantRole(bytes32,address)": {
        "details": "Grants `role` to `account`. If `account` had not been already granted `role`, emits a {RoleGranted} event. Requirements: - the caller must have ``role``'s admin role. May emit a {RoleGranted} event."
      },
      "hasRole(bytes32,address)": {
        "details": "Returns `true` if `account` has been granted `role`."
      },
      "isApprovedForAll(address,address)": {
        "details": "See {IERC721-isApprovedForAll}."
      },
      "isAvailable(string)": {
        "details": "This function queries if a soul name already exists and is in the available state",
        "params": {
          "name": "Name of the soul name"
        },
        "returns": {
          "available": "`true` if the soul name is available, `false` otherwise"
        }
      },
      "mint(address)": {
        "details": "The caller can only mint one identity per address",
        "params": {
          "to": "Address of the owner of the new identity"
        }
      },
      "mintIdentityWithName(address,string,uint256,string)": {
        "details": "The caller can only mint one identity per address, and the name must be unique",
        "params": {
          "_tokenURI": "URI of the NFT",
          "name": "Name of the new identity",
          "to": "Address of the owner of the new identity",
          "yearsPeriod": "Years of validity of the name"
        }
      },
      "name()": {
        "details": "See {IERC721Metadata-name}."
      },
      "owner()": {
        "details": "Returns the address of the current owner."
      },
      "ownerOf(string)": {
        "details": "This function returns the owner address of the soul name identity specified by the name",
        "params": {
          "name": "Name of the soul name"
        },
        "returns": {
          "_0": "Address of the owner of the identity"
        }
      },
      "ownerOf(uint256)": {
        "details": "This function returns the owner address of the identity specified by the tokenId",
        "params": {
          "tokenId": "TokenId of the identity"
        },
        "returns": {
          "_0": "Address of the owner of the identity"
        }
      },
      "renounceOwnership()": {
        "details": "Leaves the contract without owner. It will not be possible to call `onlyOwner` functions anymore. Can only be called by the current owner. NOTE: Renouncing ownership will leave the contract without an owner, thereby removing any functionality that is only available to the owner."
      },
      "renounceRole(bytes32,address)": {
        "details": "Revokes `role` from the calling account. Roles are often managed via {grantRole} and {revokeRole}: this function's purpose is to provide a mechanism for accounts to lose their privileges if they are compromised (such as when a trusted device is misplaced). If the calling account had been revoked `role`, emits a {RoleRevoked} event. Requirements: - the caller must be `account`. May emit a {RoleRevoked} event."
      },
      "revokeRole(bytes32,address)": {
        "details": "Revokes `role` from `account`. If `account` had been granted `role`, emits a {RoleRevoked} event. Requirements: - the caller must have ``role``'s admin role. May emit a {RoleRevoked} event."
      },
      "safeTransferFrom(address,address,uint256)": {
        "details": "This will raise an exception because the token is not transferable."
      },
      "safeTransferFrom(address,address,uint256,bytes)": {
        "details": "This will raise an exception because the token is not transferable."
      },
      "setApprovalForAll(address,bool)": {
        "details": "See {IERC721-setApprovalForAll}."
      },
      "setSoulName(address)": {
        "details": "The caller must have the owner to call this function",
        "params": {
          "_soulName": "Address of the SoulName contract"
        }
      },
      "supportsInterface(bytes4)": {
        "details": "Interface identification is specified in ERC-165.",
        "params": {
          "interfaceId": "The interface identifier, as specified in ERC-165"
        },
        "returns": {
          "_0": "`true` if the contract implements `interfaceId` and  `interfaceId` is not 0xffffffff, `false` otherwise"
        }
      },
      "symbol()": {
        "details": "See {IERC721Metadata-symbol}."
      },
      "tokenByIndex(uint256)": {
        "details": "See {IERC721Enumerable-tokenByIndex}."
      },
      "tokenOfOwner(address)": {
        "details": "This function returns the tokenId of the identity owned by an account",
        "params": {
          "owner": "Address of the owner of the identity"
        },
        "returns": {
          "_0": "TokenId of the identity owned by the account"
        }
      },
      "tokenOfOwnerByIndex(address,uint256)": {
        "details": "See {IERC721Enumerable-tokenOfOwnerByIndex}."
      },
      "tokenURI(address)": {
        "details": "This function returns the token URI of the identity owned by an account",
        "params": {
          "owner": "Address of the owner of the identity"
        },
        "returns": {
          "_0": "URI of the identity owned by the account"
        }
      },
      "tokenURI(string)": {
        "details": "This function returns the token URI of the soul name identity specified by the name",
        "params": {
          "name": "Name of the soul name"
        },
        "returns": {
          "_0": "URI of the identity associated to a soul name"
        }
      },
      "tokenURI(uint256)": {
        "details": "Throws if `_tokenId` is not a valid NFT. URIs are defined in RFC  3986. The URI may point to a JSON file that conforms to the \"ERC721  Metadata JSON Schema\".",
        "params": {
          "tokenId": "NFT to get the URI of"
        },
        "returns": {
          "_0": "URI of the NFT"
        }
      },
      "totalSupply()": {
        "details": "See {IERC721Enumerable-totalSupply}."
      },
      "transferFrom(address,address,uint256)": {
        "details": "This will raise an exception because the token is not transferable."
      },
      "transferOwnership(address)": {
        "details": "Transfers ownership of the contract to a new account (`newOwner`). Can only be called by the current owner."
      }
    },
    "title": "Soulbound Identity",
    "version": 1
  },
  "userdoc": {
    "kind": "user",
    "methods": {
      "constructor": {
        "notice": "Creates a new soulbound identity"
      },
      "getExtension()": {
        "notice": "Returns the extension of the soul name"
      },
      "getSoulName()": {
        "notice": "Returns the address of the SoulName contract linked to this identity"
      },
      "getSoulNames(address)": {
        "notice": "Returns all the active soul names of an account"
      },
      "getSoulNames(uint256)": {
        "notice": "Returns all the active soul names of an account"
      },
      "getTokenData(string)": {
        "notice": "Returns the information of a soul name"
      },
      "isAvailable(string)": {
        "notice": "Checks if a soul name is available"
      },
      "mint(address)": {
        "notice": "Mints a new soulbound identity"
      },
      "mintIdentityWithName(address,string,uint256,string)": {
        "notice": "Mints a new soulbound identity with a SoulName associated to it"
      },
      "ownerOf(string)": {
        "notice": "Returns the owner address of a soul name"
      },
      "ownerOf(uint256)": {
        "notice": "Returns the owner address of an identity"
      },
      "safeTransferFrom(address,address,uint256)": {
        "notice": "Transfers the ownership of an NFT from one address to another address"
      },
      "safeTransferFrom(address,address,uint256,bytes)": {
        "notice": "Transfer ownership of the token to another address safely"
      },
      "setSoulName(address)": {
        "notice": "Sets the SoulName contract address linked to this identity"
      },
      "supportsInterface(bytes4)": {
        "notice": "Query if a contract implements an interface"
      },
      "tokenOfOwner(address)": {
        "notice": "Returns the identity id of an account"
      },
      "tokenURI(address)": {
        "notice": "Returns the URI of the owner of an identity"
      },
      "tokenURI(string)": {
        "notice": "Returns the URI of a soul name"
      },
      "tokenURI(uint256)": {
        "notice": "A distinct Uniform Resource Identifier (URI) for a given asset."
      },
      "transferFrom(address,address,uint256)": {
        "notice": "Transfer ownership of an NFT -- THE CALLER IS RESPONSIBLE  TO CONFIRM THAT `_to` IS CAPABLE OF RECEIVING NFTS OR ELSE  THEY MAY BE PERMANENTLY LOST"
      }
    },
    "notice": "Soulbound token that represents an identity.",
    "version": 1
  },
  "storageLayout": {
    "storage": [
      {
        "astId": 1537,
        "contract": "contracts/SoulboundIdentity.sol:SoulboundIdentity",
        "label": "_name",
        "offset": 0,
        "slot": "0",
        "type": "t_string_storage"
      },
      {
        "astId": 1539,
        "contract": "contracts/SoulboundIdentity.sol:SoulboundIdentity",
        "label": "_symbol",
        "offset": 0,
        "slot": "1",
        "type": "t_string_storage"
      },
      {
        "astId": 1543,
        "contract": "contracts/SoulboundIdentity.sol:SoulboundIdentity",
        "label": "_owners",
        "offset": 0,
        "slot": "2",
        "type": "t_mapping(t_uint256,t_address)"
      },
      {
        "astId": 1547,
        "contract": "contracts/SoulboundIdentity.sol:SoulboundIdentity",
        "label": "_balances",
        "offset": 0,
        "slot": "3",
        "type": "t_mapping(t_address,t_uint256)"
      },
      {
        "astId": 1551,
        "contract": "contracts/SoulboundIdentity.sol:SoulboundIdentity",
        "label": "_tokenApprovals",
        "offset": 0,
        "slot": "4",
        "type": "t_mapping(t_uint256,t_address)"
      },
      {
        "astId": 1557,
        "contract": "contracts/SoulboundIdentity.sol:SoulboundIdentity",
        "label": "_operatorApprovals",
        "offset": 0,
        "slot": "5",
        "type": "t_mapping(t_address,t_mapping(t_address,t_bool))"
      },
      {
        "astId": 2557,
        "contract": "contracts/SoulboundIdentity.sol:SoulboundIdentity",
        "label": "_ownedTokens",
        "offset": 0,
        "slot": "6",
        "type": "t_mapping(t_address,t_mapping(t_uint256,t_uint256))"
      },
      {
        "astId": 2561,
        "contract": "contracts/SoulboundIdentity.sol:SoulboundIdentity",
        "label": "_ownedTokensIndex",
        "offset": 0,
        "slot": "7",
        "type": "t_mapping(t_uint256,t_uint256)"
      },
      {
        "astId": 2564,
        "contract": "contracts/SoulboundIdentity.sol:SoulboundIdentity",
        "label": "_allTokens",
        "offset": 0,
        "slot": "8",
        "type": "t_array(t_uint256)dyn_storage"
      },
      {
        "astId": 2568,
        "contract": "contracts/SoulboundIdentity.sol:SoulboundIdentity",
        "label": "_allTokensIndex",
        "offset": 0,
        "slot": "9",
        "type": "t_mapping(t_uint256,t_uint256)"
      },
      {
        "astId": 400,
        "contract": "contracts/SoulboundIdentity.sol:SoulboundIdentity",
        "label": "_owner",
        "offset": 0,
        "slot": "10",
        "type": "t_address"
      },
      {
        "astId": 24,
        "contract": "contracts/SoulboundIdentity.sol:SoulboundIdentity",
        "label": "_roles",
        "offset": 0,
        "slot": "11",
        "type": "t_mapping(t_bytes32,t_struct(RoleData)19_storage)"
      },
      {
        "astId": 7738,
        "contract": "contracts/SoulboundIdentity.sol:SoulboundIdentity",
        "label": "_tokenIdCounter",
        "offset": 0,
        "slot": "12",
        "type": "t_struct(Counter)3261_storage"
      },
      {
        "astId": 7740,
        "contract": "contracts/SoulboundIdentity.sol:SoulboundIdentity",
        "label": "_baseTokenURI",
        "offset": 0,
        "slot": "13",
        "type": "t_string_storage"
      },
      {
        "astId": 6770,
        "contract": "contracts/SoulboundIdentity.sol:SoulboundIdentity",
        "label": "soulName",
        "offset": 0,
        "slot": "14",
        "type": "t_contract(ISoulName)7340"
      }
    ],
    "types": {
      "t_address": {
        "encoding": "inplace",
        "label": "address",
        "numberOfBytes": "20"
      },
      "t_array(t_uint256)dyn_storage": {
        "base": "t_uint256",
        "encoding": "dynamic_array",
        "label": "uint256[]",
        "numberOfBytes": "32"
      },
      "t_bool": {
        "encoding": "inplace",
        "label": "bool",
        "numberOfBytes": "1"
      },
      "t_bytes32": {
        "encoding": "inplace",
        "label": "bytes32",
        "numberOfBytes": "32"
      },
      "t_contract(ISoulName)7340": {
        "encoding": "inplace",
        "label": "contract ISoulName",
        "numberOfBytes": "20"
      },
      "t_mapping(t_address,t_bool)": {
        "encoding": "mapping",
        "key": "t_address",
        "label": "mapping(address => bool)",
        "numberOfBytes": "32",
        "value": "t_bool"
      },
      "t_mapping(t_address,t_mapping(t_address,t_bool))": {
        "encoding": "mapping",
        "key": "t_address",
        "label": "mapping(address => mapping(address => bool))",
        "numberOfBytes": "32",
        "value": "t_mapping(t_address,t_bool)"
      },
      "t_mapping(t_address,t_mapping(t_uint256,t_uint256))": {
        "encoding": "mapping",
        "key": "t_address",
        "label": "mapping(address => mapping(uint256 => uint256))",
        "numberOfBytes": "32",
        "value": "t_mapping(t_uint256,t_uint256)"
      },
      "t_mapping(t_address,t_uint256)": {
        "encoding": "mapping",
        "key": "t_address",
        "label": "mapping(address => uint256)",
        "numberOfBytes": "32",
        "value": "t_uint256"
      },
      "t_mapping(t_bytes32,t_struct(RoleData)19_storage)": {
        "encoding": "mapping",
        "key": "t_bytes32",
        "label": "mapping(bytes32 => struct AccessControl.RoleData)",
        "numberOfBytes": "32",
        "value": "t_struct(RoleData)19_storage"
      },
      "t_mapping(t_uint256,t_address)": {
        "encoding": "mapping",
        "key": "t_uint256",
        "label": "mapping(uint256 => address)",
        "numberOfBytes": "32",
        "value": "t_address"
      },
      "t_mapping(t_uint256,t_uint256)": {
        "encoding": "mapping",
        "key": "t_uint256",
        "label": "mapping(uint256 => uint256)",
        "numberOfBytes": "32",
        "value": "t_uint256"
      },
      "t_string_storage": {
        "encoding": "bytes",
        "label": "string",
        "numberOfBytes": "32"
      },
      "t_struct(Counter)3261_storage": {
        "encoding": "inplace",
        "label": "struct Counters.Counter",
        "members": [
          {
            "astId": 3260,
            "contract": "contracts/SoulboundIdentity.sol:SoulboundIdentity",
            "label": "_value",
            "offset": 0,
            "slot": "0",
            "type": "t_uint256"
          }
        ],
        "numberOfBytes": "32"
      },
      "t_struct(RoleData)19_storage": {
        "encoding": "inplace",
        "label": "struct AccessControl.RoleData",
        "members": [
          {
            "astId": 16,
            "contract": "contracts/SoulboundIdentity.sol:SoulboundIdentity",
            "label": "members",
            "offset": 0,
            "slot": "0",
            "type": "t_mapping(t_address,t_bool)"
          },
          {
            "astId": 18,
            "contract": "contracts/SoulboundIdentity.sol:SoulboundIdentity",
            "label": "adminRole",
            "offset": 0,
            "slot": "1",
            "type": "t_bytes32"
          }
        ],
        "numberOfBytes": "64"
      },
      "t_uint256": {
        "encoding": "inplace",
        "label": "uint256",
        "numberOfBytes": "32"
      }
    }
  }
}