{
  "address": "0x607af050D66AA9Bc54a051D7a0C68F254b6745Fc",
  "abi": [
    {
      "inputs": [
        {
          "internalType": "address",
          "name": "owner",
          "type": "address"
        },
        {
          "internalType": "string",
          "name": "baseTokenURI",
          "type": "string"
        }
      ],
      "stateMutability": "nonpayable",
      "type": "constructor"
    },
    {
      "anonymous": false,
      "inputs": [
        {
          "indexed": true,
          "internalType": "address",
          "name": "owner",
          "type": "address"
        },
        {
          "indexed": true,
          "internalType": "address",
          "name": "approved",
          "type": "address"
        },
        {
          "indexed": true,
          "internalType": "uint256",
          "name": "tokenId",
          "type": "uint256"
        }
      ],
      "name": "Approval",
      "type": "event"
    },
    {
      "anonymous": false,
      "inputs": [
        {
          "indexed": true,
          "internalType": "address",
          "name": "owner",
          "type": "address"
        },
        {
          "indexed": true,
          "internalType": "address",
          "name": "operator",
          "type": "address"
        },
        {
          "indexed": false,
          "internalType": "bool",
          "name": "approved",
          "type": "bool"
        }
      ],
      "name": "ApprovalForAll",
      "type": "event"
    },
    {
      "anonymous": false,
      "inputs": [
        {
          "indexed": true,
          "internalType": "address",
          "name": "previousOwner",
          "type": "address"
        },
        {
          "indexed": true,
          "internalType": "address",
          "name": "newOwner",
          "type": "address"
        }
      ],
      "name": "OwnershipTransferred",
      "type": "event"
    },
    {
      "anonymous": false,
      "inputs": [
        {
          "indexed": true,
          "internalType": "bytes32",
          "name": "role",
          "type": "bytes32"
        },
        {
          "indexed": true,
          "internalType": "bytes32",
          "name": "previousAdminRole",
          "type": "bytes32"
        },
        {
          "indexed": true,
          "internalType": "bytes32",
          "name": "newAdminRole",
          "type": "bytes32"
        }
      ],
      "name": "RoleAdminChanged",
      "type": "event"
    },
    {
      "anonymous": false,
      "inputs": [
        {
          "indexed": true,
          "internalType": "bytes32",
          "name": "role",
          "type": "bytes32"
        },
        {
          "indexed": true,
          "internalType": "address",
          "name": "account",
          "type": "address"
        },
        {
          "indexed": true,
          "internalType": "address",
          "name": "sender",
          "type": "address"
        }
      ],
      "name": "RoleGranted",
      "type": "event"
    },
    {
      "anonymous": false,
      "inputs": [
        {
          "indexed": true,
          "internalType": "bytes32",
          "name": "role",
          "type": "bytes32"
        },
        {
          "indexed": true,
          "internalType": "address",
          "name": "account",
          "type": "address"
        },
        {
          "indexed": true,
          "internalType": "address",
          "name": "sender",
          "type": "address"
        }
      ],
      "name": "RoleRevoked",
      "type": "event"
    },
    {
      "anonymous": false,
      "inputs": [
        {
          "indexed": true,
          "internalType": "address",
          "name": "from",
          "type": "address"
        },
        {
          "indexed": true,
          "internalType": "address",
          "name": "to",
          "type": "address"
        },
        {
          "indexed": true,
          "internalType": "uint256",
          "name": "tokenId",
          "type": "uint256"
        }
      ],
      "name": "Transfer",
      "type": "event"
    },
    {
      "inputs": [],
      "name": "DEFAULT_ADMIN_ROLE",
      "outputs": [
        {
          "internalType": "bytes32",
          "name": "",
          "type": "bytes32"
        }
      ],
      "stateMutability": "view",
      "type": "function"
    },
    {
      "inputs": [],
      "name": "MINTER_ROLE",
      "outputs": [
        {
          "internalType": "bytes32",
          "name": "",
          "type": "bytes32"
        }
      ],
      "stateMutability": "view",
      "type": "function"
    },
    {
      "inputs": [
        {
          "internalType": "address",
          "name": "to",
          "type": "address"
        },
        {
          "internalType": "uint256",
          "name": "tokenId",
          "type": "uint256"
        }
      ],
      "name": "approve",
      "outputs": [],
      "stateMutability": "nonpayable",
      "type": "function"
    },
    {
      "inputs": [
        {
          "internalType": "address",
          "name": "owner",
          "type": "address"
        }
      ],
      "name": "balanceOf",
      "outputs": [
        {
          "internalType": "uint256",
          "name": "",
          "type": "uint256"
        }
      ],
      "stateMutability": "view",
      "type": "function"
    },
    {
      "inputs": [
        {
          "internalType": "uint256",
          "name": "tokenId",
          "type": "uint256"
        }
      ],
      "name": "burn",
      "outputs": [],
      "stateMutability": "nonpayable",
      "type": "function"
    },
    {
      "inputs": [
        {
          "internalType": "uint256",
          "name": "tokenId",
          "type": "uint256"
        }
      ],
      "name": "getApproved",
      "outputs": [
        {
          "internalType": "address",
          "name": "",
          "type": "address"
        }
      ],
      "stateMutability": "view",
      "type": "function"
    },
    {
      "inputs": [],
      "name": "getExtension",
      "outputs": [
        {
          "internalType": "string",
          "name": "",
          "type": "string"
        }
      ],
      "stateMutability": "view",
      "type": "function"
    },
    {
      "inputs": [
        {
          "internalType": "bytes32",
          "name": "role",
          "type": "bytes32"
        }
      ],
      "name": "getRoleAdmin",
      "outputs": [
        {
          "internalType": "bytes32",
          "name": "",
          "type": "bytes32"
        }
      ],
      "stateMutability": "view",
      "type": "function"
    },
    {
      "inputs": [],
      "name": "getSoulName",
      "outputs": [
        {
          "internalType": "contract ISoulName",
          "name": "",
          "type": "address"
        }
      ],
      "stateMutability": "view",
      "type": "function"
    },
    {
      "inputs": [
        {
          "internalType": "uint256",
          "name": "tokenId",
          "type": "uint256"
        }
      ],
      "name": "getSoulNames",
      "outputs": [
        {
          "internalType": "string[]",
          "name": "sbtNames",
          "type": "string[]"
        }
      ],
      "stateMutability": "view",
      "type": "function"
    },
    {
      "inputs": [
        {
          "internalType": "address",
          "name": "owner",
          "type": "address"
        }
      ],
      "name": "getSoulNames",
      "outputs": [
        {
          "internalType": "string[]",
          "name": "sbtNames",
          "type": "string[]"
        }
      ],
      "stateMutability": "view",
      "type": "function"
    },
    {
      "inputs": [
        {
          "internalType": "string",
          "name": "name",
          "type": "string"
        }
      ],
      "name": "getTokenData",
      "outputs": [
        {
          "internalType": "string",
          "name": "sbtName",
          "type": "string"
        },
        {
          "internalType": "uint256",
          "name": "identityId",
          "type": "uint256"
        },
        {
          "internalType": "uint256",
          "name": "expirationDate",
          "type": "uint256"
        },
        {
          "internalType": "bool",
          "name": "active",
          "type": "bool"
        }
      ],
      "stateMutability": "view",
      "type": "function"
    },
    {
      "inputs": [
        {
          "internalType": "bytes32",
          "name": "role",
          "type": "bytes32"
        },
        {
          "internalType": "address",
          "name": "account",
          "type": "address"
        }
      ],
      "name": "grantRole",
      "outputs": [],
      "stateMutability": "nonpayable",
      "type": "function"
    },
    {
      "inputs": [
        {
          "internalType": "bytes32",
          "name": "role",
          "type": "bytes32"
        },
        {
          "internalType": "address",
          "name": "account",
          "type": "address"
        }
      ],
      "name": "hasRole",
      "outputs": [
        {
          "internalType": "bool",
          "name": "",
          "type": "bool"
        }
      ],
      "stateMutability": "view",
      "type": "function"
    },
    {
      "inputs": [
        {
          "internalType": "address",
          "name": "owner",
          "type": "address"
        },
        {
          "internalType": "address",
          "name": "operator",
          "type": "address"
        }
      ],
      "name": "isApprovedForAll",
      "outputs": [
        {
          "internalType": "bool",
          "name": "",
          "type": "bool"
        }
      ],
      "stateMutability": "view",
      "type": "function"
    },
    {
      "inputs": [
        {
          "internalType": "string",
          "name": "name",
          "type": "string"
        }
      ],
      "name": "isAvailable",
      "outputs": [
        {
          "internalType": "bool",
          "name": "available",
          "type": "bool"
        }
      ],
      "stateMutability": "view",
      "type": "function"
    },
    {
      "inputs": [
        {
          "internalType": "address",
          "name": "to",
          "type": "address"
        }
      ],
      "name": "mint",
      "outputs": [
        {
          "internalType": "uint256",
          "name": "",
          "type": "uint256"
        }
      ],
      "stateMutability": "nonpayable",
      "type": "function"
    },
    {
      "inputs": [
        {
          "internalType": "address",
          "name": "to",
          "type": "address"
        },
        {
          "internalType": "string",
          "name": "name",
          "type": "string"
        },
        {
          "internalType": "uint256",
          "name": "yearsPeriod",
          "type": "uint256"
        },
        {
          "internalType": "string",
          "name": "_tokenURI",
          "type": "string"
        }
      ],
      "name": "mintIdentityWithName",
      "outputs": [
        {
          "internalType": "uint256",
          "name": "",
          "type": "uint256"
        }
      ],
      "stateMutability": "payable",
      "type": "function"
    },
    {
      "inputs": [],
      "name": "name",
      "outputs": [
        {
          "internalType": "string",
          "name": "",
          "type": "string"
        }
      ],
      "stateMutability": "view",
      "type": "function"
    },
    {
      "inputs": [],
      "name": "owner",
      "outputs": [
        {
          "internalType": "address",
          "name": "",
          "type": "address"
        }
      ],
      "stateMutability": "view",
      "type": "function"
    },
    {
      "inputs": [
        {
          "internalType": "uint256",
          "name": "tokenId",
          "type": "uint256"
        }
      ],
      "name": "ownerOf",
      "outputs": [
        {
          "internalType": "address",
          "name": "",
          "type": "address"
        }
      ],
      "stateMutability": "view",
      "type": "function"
    },
    {
      "inputs": [
        {
          "internalType": "string",
          "name": "name",
          "type": "string"
        }
      ],
      "name": "ownerOf",
      "outputs": [
        {
          "internalType": "address",
          "name": "",
          "type": "address"
        }
      ],
      "stateMutability": "view",
      "type": "function"
    },
    {
      "inputs": [],
      "name": "renounceOwnership",
      "outputs": [],
      "stateMutability": "nonpayable",
      "type": "function"
    },
    {
      "inputs": [
        {
          "internalType": "bytes32",
          "name": "role",
          "type": "bytes32"
        },
        {
          "internalType": "address",
          "name": "account",
          "type": "address"
        }
      ],
      "name": "renounceRole",
      "outputs": [],
      "stateMutability": "nonpayable",
      "type": "function"
    },
    {
      "inputs": [
        {
          "internalType": "bytes32",
          "name": "role",
          "type": "bytes32"
        },
        {
          "internalType": "address",
          "name": "account",
          "type": "address"
        }
      ],
      "name": "revokeRole",
      "outputs": [],
      "stateMutability": "nonpayable",
      "type": "function"
    },
    {
      "inputs": [
        {
          "internalType": "address",
          "name": "",
          "type": "address"
        },
        {
          "internalType": "address",
          "name": "",
          "type": "address"
        },
        {
          "internalType": "uint256",
          "name": "",
          "type": "uint256"
        }
      ],
      "name": "safeTransferFrom",
      "outputs": [],
      "stateMutability": "pure",
      "type": "function"
    },
    {
      "inputs": [
        {
          "internalType": "address",
          "name": "",
          "type": "address"
        },
        {
          "internalType": "address",
          "name": "",
          "type": "address"
        },
        {
          "internalType": "uint256",
          "name": "",
          "type": "uint256"
        },
        {
          "internalType": "bytes",
          "name": "",
          "type": "bytes"
        }
      ],
      "name": "safeTransferFrom",
      "outputs": [],
      "stateMutability": "pure",
      "type": "function"
    },
    {
      "inputs": [
        {
          "internalType": "address",
          "name": "operator",
          "type": "address"
        },
        {
          "internalType": "bool",
          "name": "approved",
          "type": "bool"
        }
      ],
      "name": "setApprovalForAll",
      "outputs": [],
      "stateMutability": "nonpayable",
      "type": "function"
    },
    {
      "inputs": [
        {
          "internalType": "contract ISoulName",
          "name": "_soulName",
          "type": "address"
        }
      ],
      "name": "setSoulName",
      "outputs": [],
      "stateMutability": "nonpayable",
      "type": "function"
    },
    {
      "inputs": [],
      "name": "soulName",
      "outputs": [
        {
          "internalType": "contract ISoulName",
          "name": "",
          "type": "address"
        }
      ],
      "stateMutability": "view",
      "type": "function"
    },
    {
      "inputs": [
        {
          "internalType": "bytes4",
          "name": "interfaceId",
          "type": "bytes4"
        }
      ],
      "name": "supportsInterface",
      "outputs": [
        {
          "internalType": "bool",
          "name": "",
          "type": "bool"
        }
      ],
      "stateMutability": "view",
      "type": "function"
    },
    {
      "inputs": [],
      "name": "symbol",
      "outputs": [
        {
          "internalType": "string",
          "name": "",
          "type": "string"
        }
      ],
      "stateMutability": "view",
      "type": "function"
    },
    {
      "inputs": [
        {
          "internalType": "uint256",
          "name": "index",
          "type": "uint256"
        }
      ],
      "name": "tokenByIndex",
      "outputs": [
        {
          "internalType": "uint256",
          "name": "",
          "type": "uint256"
        }
      ],
      "stateMutability": "view",
      "type": "function"
    },
    {
      "inputs": [
        {
          "internalType": "address",
          "name": "owner",
          "type": "address"
        }
      ],
      "name": "tokenOfOwner",
      "outputs": [
        {
          "internalType": "uint256",
          "name": "",
          "type": "uint256"
        }
      ],
      "stateMutability": "view",
      "type": "function"
    },
    {
      "inputs": [
        {
          "internalType": "address",
          "name": "owner",
          "type": "address"
        },
        {
          "internalType": "uint256",
          "name": "index",
          "type": "uint256"
        }
      ],
      "name": "tokenOfOwnerByIndex",
      "outputs": [
        {
          "internalType": "uint256",
          "name": "",
          "type": "uint256"
        }
      ],
      "stateMutability": "view",
      "type": "function"
    },
    {
      "inputs": [
        {
          "internalType": "string",
          "name": "name",
          "type": "string"
        }
      ],
      "name": "tokenURI",
      "outputs": [
        {
          "internalType": "string",
          "name": "",
          "type": "string"
        }
      ],
      "stateMutability": "view",
      "type": "function"
    },
    {
      "inputs": [
        {
          "internalType": "address",
          "name": "owner",
          "type": "address"
        }
      ],
      "name": "tokenURI",
      "outputs": [
        {
          "internalType": "string",
          "name": "",
          "type": "string"
        }
      ],
      "stateMutability": "view",
      "type": "function"
    },
    {
      "inputs": [
        {
          "internalType": "uint256",
          "name": "tokenId",
          "type": "uint256"
        }
      ],
      "name": "tokenURI",
      "outputs": [
        {
          "internalType": "string",
          "name": "",
          "type": "string"
        }
      ],
      "stateMutability": "view",
      "type": "function"
    },
    {
      "inputs": [],
      "name": "totalSupply",
      "outputs": [
        {
          "internalType": "uint256",
          "name": "",
          "type": "uint256"
        }
      ],
      "stateMutability": "view",
      "type": "function"
    },
    {
      "inputs": [
        {
          "internalType": "address",
          "name": "",
          "type": "address"
        },
        {
          "internalType": "address",
          "name": "",
          "type": "address"
        },
        {
          "internalType": "uint256",
          "name": "",
          "type": "uint256"
        }
      ],
      "name": "transferFrom",
      "outputs": [],
      "stateMutability": "pure",
      "type": "function"
    },
    {
      "inputs": [
        {
          "internalType": "address",
          "name": "newOwner",
          "type": "address"
        }
      ],
      "name": "transferOwnership",
      "outputs": [],
      "stateMutability": "nonpayable",
      "type": "function"
    }
  ],
  "transactionHash": "0x33e0716f03439db06d836c130db353d38648111b485fa0e04dfe3a00b56d8915",
  "args": [
    "0x3c8D9f130970358b7E8cbc1DbD0a1EbA6EBE368F",
    "https://beta.metadata.masa.finance/v1.0/identity/"
  ],
  "numDeployments": 2,
  "solcInputHash": "59ca50f675f8905cc450a13ed8726978",
  "bytecode": "0x60806040523480156200001157600080fd5b50604051620034dd380380620034dd8339810160408190526200003491620003f1565b816040518060400160405280600d81526020016c4d617361204964656e7469747960981b8152506040518060400160405280600381526020016213525160ea1b81525083838383838282816000908051906020019062000096929190620002c5565b508051620000ac906001906020840190620002c5565b505050620000c9620000c36200013e60201b60201c565b62000142565b620000df846200019460201b6200111a1760201c565b620000ec600085620001de565b620001187f9f2df0fed2c77648de5860a4cc508cd0818c85b8b8a1ab4ceeef8d981c8956a685620001de565b80516200012d90600d906020840190620002c5565b50505050505050505050506200061a565b3390565b600a80546001600160a01b038381166001600160a01b0319831681179093556040519116919082907f8be0079c531659141344cd1fd0a4f28419497f9722a3daafe3b4186f6b6457e090600090a35050565b6200019e62000269565b6001600160a01b038116620001d05760405162461bcd60e51b8152600401620001c79062000450565b60405180910390fd5b620001db8162000142565b50565b620001ea828262000298565b62000265576000828152600b602090815260408083206001600160a01b03851684529091529020805460ff19166001179055620002243390565b6001600160a01b0316816001600160a01b0316837f2f8788117e7eff1d82e926ec794901d17c78024a50270940304540a733656f0d60405160405180910390a45b5050565b600a546001600160a01b03163314620002965760405162461bcd60e51b8152600401620001c7906200049b565b565b6000828152600b602090815260408083206001600160a01b038516845290915290205460ff165b92915050565b828054620002d3906200056a565b90600052602060002090601f016020900481019282620002f7576000855562000342565b82601f106200031257805160ff191683800117855562000342565b8280016001018555821562000342579182015b828111156200034257825182559160200191906001019062000325565b506200035092915062000354565b5090565b5b8082111562000350576000815560010162000355565b6000620003826200037c84620004f5565b620004d6565b9050828152602081018484840111156200039f576200039f600080fd5b620003ac84828562000537565b509392505050565b8051620002bf8162000603565b600082601f830112620003d757620003d7600080fd5b8151620003e98482602086016200036b565b949350505050565b60008060408385031215620004095762000409600080fd5b6000620004178585620003b4565b92505060208301516001600160401b03811115620004385762000438600080fd5b6200044685828601620003c1565b9150509250929050565b60208082528101620002bf81602681527f4f776e61626c653a206e6577206f776e657220697320746865207a65726f206160208201526564647265737360d01b604082015260600190565b60208082528181019081527f4f776e61626c653a2063616c6c6572206973206e6f7420746865206f776e6572604083015260608201620002bf565b6000620004e260405190565b9050620004f082826200059b565b919050565b60006001600160401b03821115620005115762000511620005e3565b6200051c82620005f9565b60200192915050565b60006001600160a01b038216620002bf565b60005b83811015620005545781810151838201526020016200053a565b8381111562000564576000848401525b50505050565b6002810460018216806200057f57607f821691505b60208210811415620005955762000595620005cd565b50919050565b620005a682620005f9565b81018181106001600160401b0382111715620005c657620005c6620005e3565b6040525050565b634e487b7160e01b600052602260045260246000fd5b634e487b7160e01b600052604160045260246000fd5b601f01601f191690565b6200060e8162000525565b8114620001db57600080fd5b612eb3806200062a6000396000f3fe6080604052600436106101d65760003560e01c806301ffc9a7146101db57806306fdde0314610211578063081812fc14610233578063095ea7b3146102605780630f2e68af1461028257806318160ddd146102af57806323b872dd146102cd578063248a9ca3146102ed578063294cdf0d1461030d5780632f2ff15d1461032d5780632f745c591461034d57806336568abe1461036d57806342842e0e146102cd57806342966c681461038d57806346b2b087146103ad5780634cf12d26146103dd5780634f6ccce7146103fd5780635141453e1461041d5780636352211e146104305780636a6278421461045057806370a0823114610470578063715018a614610490578063776ce6a1146104a55780637e669891146104ba5780638da5cb5b146104e757806391d14854146104fc578063920ffa261461051c57806393702f331461053c57806395d89b411461055c578063965306aa14610571578063a217fddf14610591578063a22cb465146105a6578063b507d481146105c6578063b79636b6146105e4578063b88d4fde14610604578063c87b56dd1461061f578063d53913931461063f578063d547741f14610661578063e985e9c514610681578063ee7a9ec5146106a1578063f2fde38b146106c1575b600080fd5b3480156101e757600080fd5b506101fb6101f63660046121c2565b6106e1565b60405161020891906129f2565b60405180910390f35b34801561021d57600080fd5b506102266106f2565b6040516102089190612a1c565b34801561023f57600080fd5b5061025361024e36600461217f565b610784565b6040516102089190612936565b34801561026c57600080fd5b5061028061027b3660046120f1565b6107ab565b005b34801561028e57600080fd5b50600e546102a2906001600160a01b031681565b6040516102089190612a0e565b3480156102bb57600080fd5b506008545b6040516102089190612a00565b3480156102d957600080fd5b506102806102e8366004611fa0565b61083a565b3480156102f957600080fd5b506102c061030836600461217f565b610852565b34801561031957600080fd5b506102c0610328366004611f42565b610867565b34801561033957600080fd5b506102806103483660046121a0565b610874565b34801561035957600080fd5b506102c06103683660046120f1565b610890565b34801561037957600080fd5b506102806103883660046121a0565b6108e2565b34801561039957600080fd5b506102806103a836600461217f565b610918565b3480156103b957600080fd5b506103cd6103c8366004612225565b61094a565b6040516102089493929190612a2d565b3480156103e957600080fd5b506102266103f8366004612225565b610a0f565b34801561040957600080fd5b506102c061041836600461217f565b610ad6565b6102c061042b3660046120a1565b610b24565b34801561043c57600080fd5b5061025361044b36600461217f565b610bf1565b34801561045c57600080fd5b506102c061046b366004611f42565b610bfc565b34801561047c57600080fd5b506102c061048b366004611f42565b610c2f565b34801561049c57600080fd5b50610280610c73565b3480156104b157600080fd5b50610226610c87565b3480156104c657600080fd5b506104da6104d536600461217f565b610d0d565b60405161020891906129e1565b3480156104f357600080fd5b50610253610dbc565b34801561050857600080fd5b506101fb6105173660046121a0565b610dcb565b34801561052857600080fd5b50610253610537366004612225565b610df6565b34801561054857600080fd5b50610226610557366004611f42565b610eb4565b34801561056857600080fd5b50610226610ecc565b34801561057d57600080fd5b506101fb61058c366004612225565b610edb565b34801561059d57600080fd5b506102c0600081565b3480156105b257600080fd5b506102806105c136600461206e565b610f86565b3480156105d257600080fd5b50600e546001600160a01b03166102a2565b3480156105f057600080fd5b506104da6105ff366004611f42565b610f91565b34801561061057600080fd5b506102806102e8366004611ff0565b34801561062b57600080fd5b5061022661063a36600461217f565b610fec565b34801561064b57600080fd5b506102c0600080516020612e3e83398151915281565b34801561066d57600080fd5b5061028061067c3660046121a0565b611052565b34801561068d57600080fd5b506101fb61069c366004611f63565b61106e565b3480156106ad57600080fd5b506102806106bc366004612204565b61109c565b3480156106cd57600080fd5b506102806106dc366004611f42565b61111a565b60006106ec82611151565b92915050565b60606000805461070190612cf1565b80601f016020809104026020016040519081016040528092919081815260200182805461072d90612cf1565b801561077a5780601f1061074f5761010080835404028352916020019161077a565b820191906000526020600020905b81548152906001019060200180831161075d57829003601f168201915b5050505050905090565b600061078f82611176565b506000908152600460205260409020546001600160a01b031690565b60006107b68261119b565b9050806001600160a01b0316836001600160a01b031614156107f35760405162461bcd60e51b81526004016107ea90612b70565b60405180910390fd5b336001600160a01b038216148061080f575061080f813361106e565b61082b5760405162461bcd60e51b81526004016107ea90612b30565b61083583836111d0565b505050565b60405162461bcd60e51b81526004016107ea90612af0565b6000908152600b602052604090206001015490565b60006106ec826000610890565b61087d82610852565b6108868161123e565b6108358383611248565b600061089b83610c2f565b82106108b95760405162461bcd60e51b81526004016107ea90612a80565b506001600160a01b03919091166000908152600660209081526040808320938352929052205490565b6001600160a01b038116331461090a5760405162461bcd60e51b81526004016107ea90612ba0565b61091482826112ce565b5050565b6109223382611335565b61093e5760405162461bcd60e51b81526004016107ea90612b90565b61094781611393565b50565b600e54606090600090819081906001600160a01b031661097c5760405162461bcd60e51b81526004016107ea90612ad0565b600e546040516346b2b08760e01b81526001600160a01b03909116906346b2b087906109ac908890600401612a1c565b60006040518083038186803b1580156109c457600080fd5b505afa1580156109d8573d6000803e3d6000fd5b505050506040513d6000823e601f3d908101601f19168201604052610a009190810190612299565b93509350935093509193509193565b600e546060906001600160a01b0316610a3a5760405162461bcd60e51b81526004016107ea90612ad0565b600e546040516346b2b08760e01b81526000916001600160a01b0316906346b2b08790610a6b908690600401612a1c565b60006040518083038186803b158015610a8357600080fd5b505afa158015610a97573d6000803e3d6000fd5b505050506040513d6000823e601f3d908101601f19168201604052610abf9190810190612299565b5050915050610acd81610fec565b9150505b919050565b6000610ae160085490565b8210610aff5760405162461bcd60e51b81526004016107ea90612b80565b60088281548110610b1257610b12612dcc565b90600052602060002001549050919050565b600e546000906001600160a01b0316610b4f5760405162461bcd60e51b81526004016107ea90612ad0565b6000610b5a86610bfc565b600e5460405163030547fb60e21b81529192506001600160a01b031690630c151fec90610b93908990899086908a908a90600401612988565b602060405180830381600087803b158015610bad57600080fd5b505af1158015610bc1573d6000803e3d6000fd5b505050506040513d601f19601f82011682018060405250810190610be5919061230a565b5090505b949350505050565b60006106ec8261119b565b60006001610c0983610c2f565b10610c265760405162461bcd60e51b81526004016107ea90612ac0565b6106ec82611428565b60006001600160a01b038216610c575760405162461bcd60e51b81526004016107ea90612b10565b506001600160a01b031660009081526003602052604090205490565b610c7b611433565b610c856000611462565b565b600e546040805163776ce6a160e01b815290516060926001600160a01b03169163776ce6a1916004808301926000929190829003018186803b158015610ccc57600080fd5b505afa158015610ce0573d6000803e3d6000fd5b505050506040513d6000823e601f3d908101601f19168201604052610d08919081019061225f565b905090565b600e546060906001600160a01b0316610d385760405162461bcd60e51b81526004016107ea90612ad0565b600e54604051637e66989160e01b81526001600160a01b0390911690637e66989190610d68908590600401612a00565b60006040518083038186803b158015610d8057600080fd5b505afa158015610d94573d6000803e3d6000fd5b505050506040513d6000823e601f3d908101601f191682016040526106ec9190810190612124565b600a546001600160a01b031690565b6000918252600b602090815260408084206001600160a01b0393909316845291905290205460ff1690565b600e546000906001600160a01b0316610e215760405162461bcd60e51b81526004016107ea90612ad0565b600e546040516346b2b08760e01b81526000916001600160a01b0316906346b2b08790610e52908690600401612a1c565b60006040518083038186803b158015610e6a57600080fd5b505afa158015610e7e573d6000803e3d6000fd5b505050506040513d6000823e601f3d908101601f19168201604052610ea69190810190612299565b5050915050610acd8161119b565b60606000610ec183610867565b9050610acd81610fec565b60606001805461070190612cf1565b600e546000906001600160a01b0316610f065760405162461bcd60e51b81526004016107ea90612ad0565b600e54604051634b29835560e11b81526001600160a01b039091169063965306aa90610f36908590600401612a1c565b60206040518083038186803b158015610f4e57600080fd5b505afa158015610f62573d6000803e3d6000fd5b505050506040513d601f19601f820116820180604052508101906106ec919061215e565b6109143383836114b4565b600e546060906001600160a01b0316610fbc5760405162461bcd60e51b81526004016107ea90612ad0565b600e54604051635bcb1b5b60e11b81526001600160a01b039091169063b79636b690610d68908590600401612936565b6060610ff782611176565b6000611001611557565b905060008151116110215760405180602001604052806000815250610acd565b8061102b84611566565b60405160200161103c9291906128b6565b6040516020818303038152906040529392505050565b61105b82610852565b6110648161123e565b61083583836112ce565b6001600160a01b03918216600090815260056020908152604080832093909416825291909152205460ff1690565b6110a4611433565b6001600160a01b0381166110ca5760405162461bcd60e51b81526004016107ea90612b20565b600e546001600160a01b03828116911614156110f85760405162461bcd60e51b81526004016107ea90612b00565b600e80546001600160a01b0319166001600160a01b0392909216919091179055565b611122611433565b6001600160a01b0381166111485760405162461bcd60e51b81526004016107ea90612aa0565b61094781611462565b60006001600160e01b03198216637965db0b60e01b14806106ec57506106ec82611663565b61117f81611688565b6109475760405162461bcd60e51b81526004016107ea90612b60565b6000818152600260205260408120546001600160a01b0316806106ec5760405162461bcd60e51b81526004016107ea90612b60565b600081815260046020526040902080546001600160a01b0319166001600160a01b03841690811790915581906112058261119b565b6001600160a01b03167f8c5be1e5ebec7d5bd14f71427d1e84f3dd0314c0f7b2291e5b200ac8c7c3b92560405160405180910390a45050565b61094781336116a5565b6112528282610dcb565b610914576000828152600b602090815260408083206001600160a01b03851684529091529020805460ff1916600117905561128a3390565b6001600160a01b0316816001600160a01b0316837f2f8788117e7eff1d82e926ec794901d17c78024a50270940304540a733656f0d60405160405180910390a45050565b6112d88282610dcb565b15610914576000828152600b602090815260408083206001600160a01b0385168085529252808320805460ff1916905551339285917ff6391f5c32d9c69d2a47ea670b442974b53935d1edc7fd64eb21e047a839171b9190a45050565b6000806113418361119b565b9050806001600160a01b0316846001600160a01b031614806113685750611368818561106e565b80610be95750836001600160a01b031661138184610784565b6001600160a01b031614949350505050565b600061139e8261119b565b90506113ac81600084611709565b6113b76000836111d0565b6001600160a01b03811660009081526003602052604081208054600192906113e0908490612c60565b909155505060008281526002602052604080822080546001600160a01b0319169055518391906001600160a01b03841690600080516020612e5e833981519152908390a45050565b60006106ec82611714565b3361143c610dbc565b6001600160a01b031614610c855760405162461bcd60e51b81526004016107ea90612b50565b600a80546001600160a01b038381166001600160a01b0319831681179093556040519116919082907f8be0079c531659141344cd1fd0a4f28419497f9722a3daafe3b4186f6b6457e090600090a35050565b816001600160a01b0316836001600160a01b031614156114e65760405162461bcd60e51b81526004016107ea90612ae0565b6001600160a01b0383811660008181526005602090815260408083209487168084529490915290819020805460ff1916851515179055517f17307eab39ab6107e8899845ad3d59bd9653f200f220920489ca2b5937696c319061154a9085906129f2565b60405180910390a3505050565b6060600d805461070190612cf1565b60608161158a5750506040805180820190915260018152600360fc1b602082015290565b8160005b81156115b4578061159e81612d45565b91506115ad9050600a83612c2d565b915061158e565b6000816001600160401b038111156115ce576115ce612de2565b6040519080825280601f01601f1916602001820160405280156115f8576020820181803683370190505b5090505b8415610be95761160d600183612c60565b915061161a600a86612d60565b611625906030612c15565b60f81b81838151811061163a5761163a612dcc565b60200101906001600160f81b031916908160001a90535061165c600a86612c2d565b94506115fc565b60006001600160e01b0319821663780e9d6360e01b14806106ec57506106ec82611759565b6000908152600260205260409020546001600160a01b0316151590565b6116af8282610dcb565b610914576116c7816001600160a01b031660146117a9565b6116d28360206117a9565b6040516020016116e39291906128e4565b60408051601f198184030181529082905262461bcd60e51b82526107ea91600401612a1c565b61083583838361191b565b6000600080516020612e3e83398151915261172e8161123e565b6000611739600c5490565b9050611749600c80546001019055565b610acd84826119d3565b50919050565b60006001600160e01b031982166380ac58cd60e01b148061178a57506001600160e01b03198216635b5e139f60e01b145b806106ec57506301ffc9a760e01b6001600160e01b03198316146106ec565b606060006117b8836002612c41565b6117c3906002612c15565b6001600160401b038111156117da576117da612de2565b6040519080825280601f01601f191660200182016040528015611804576020820181803683370190505b509050600360fc1b8160008151811061181f5761181f612dcc565b60200101906001600160f81b031916908160001a905350600f60fb1b8160018151811061184e5761184e612dcc565b60200101906001600160f81b031916908160001a9053506000611872846002612c41565b61187d906001612c15565b90505b60018111156118f5576f181899199a1a9b1b9c1cb0b131b232b360811b85600f16601081106118b1576118b1612dcc565b1a60f81b8282815181106118c7576118c7612dcc565b60200101906001600160f81b031916908160001a90535060049490941c936118ee81612cda565b9050611880565b5083156119145760405162461bcd60e51b81526004016107ea90612a70565b9392505050565b6001600160a01b0383166119765761197181600880546000838152600960205260408120829055600182018355919091527ff3f7a9fe364faab93b216da50a3214154f22a0a2b415b23a84c8169e8b636ee30155565b611999565b816001600160a01b0316836001600160a01b0316146119995761199983826119ed565b6001600160a01b0382166119b05761083581611a8a565b826001600160a01b0316826001600160a01b031614610835576108358282611b39565b610914828260405180602001604052806000815250611b7d565b600060016119fa84610c2f565b611a049190612c60565b600083815260076020526040902054909150808214611a57576001600160a01b03841660009081526006602090815260408083208584528252808320548484528184208190558352600790915290208190555b5060009182526007602090815260408084208490556001600160a01b039094168352600681528383209183525290812055565b600854600090611a9c90600190612c60565b60008381526009602052604081205460088054939450909284908110611ac457611ac4612dcc565b906000526020600020015490508060088381548110611ae557611ae5612dcc565b6000918252602080832090910192909255828152600990915260408082208490558582528120556008805480611b1d57611b1d612db6565b6001900381819060005260206000200160009055905550505050565b6000611b4483610c2f565b6001600160a01b039093166000908152600660209081526040808320868452825280832085905593825260079052919091209190915550565b611b878383611bb0565b611b946000848484611c7d565b6108355760405162461bcd60e51b81526004016107ea90612a90565b6001600160a01b038216611bd65760405162461bcd60e51b81526004016107ea90612b40565b611bdf81611688565b15611bfc5760405162461bcd60e51b81526004016107ea90612ab0565b611c0860008383611709565b6001600160a01b0382166000908152600360205260408120805460019290611c31908490612c15565b909155505060008181526002602052604080822080546001600160a01b0319166001600160a01b0386169081179091559051839290600080516020612e5e833981519152908290a45050565b60006001600160a01b0384163b15611d7f57604051630a85bd0160e11b81526001600160a01b0385169063150b7a0290611cc1903390899088908890600401612944565b602060405180830381600087803b158015611cdb57600080fd5b505af1925050508015611d0b575060408051601f3d908101601f19168201909252611d08918101906121e3565b60015b611d65573d808015611d39576040519150601f19603f3d011682016040523d82523d6000602084013e611d3e565b606091505b508051611d5d5760405162461bcd60e51b81526004016107ea90612a90565b805181602001fd5b6001600160e01b031916630a85bd0160e11b149050610be9565b506001610be9565b6000611d9a611d9584612bc7565b612bb0565b90508083825260208201905082856020860282011115611dbc57611dbc600080fd5b60005b85811015611e045781516001600160401b03811115611de057611de0600080fd5b808601611ded8982611f13565b855250506020928301929190910190600101611dbf565b5050509392505050565b6000611e1c611d9584612bea565b905082815260208101848484011115611e3757611e37600080fd5b611e42848285612c9e565b509392505050565b6000611e58611d9584612bea565b905082815260208101848484011115611e7357611e73600080fd5b611e42848285612caa565b80356106ec81612e02565b600082601f830112611e9d57611e9d600080fd5b8151610be9848260208601611d87565b80356106ec81612e16565b80516106ec81612e16565b80356106ec81612e1e565b80356106ec81612e24565b80516106ec81612e24565b600082601f830112611ef857611ef8600080fd5b8135610be9848260208601611e0e565b80356106ec81612e34565b600082601f830112611f2757611f27600080fd5b8151610be9848260208601611e4a565b80516106ec81612e1e565b600060208284031215611f5757611f57600080fd5b6000610be98484611e7e565b60008060408385031215611f7957611f79600080fd5b6000611f858585611e7e565b9250506020611f9685828601611e7e565b9150509250929050565b600080600060608486031215611fb857611fb8600080fd5b6000611fc48686611e7e565b9350506020611fd586828701611e7e565b9250506040611fe686828701611ec3565b9150509250925092565b6000806000806080858703121561200957612009600080fd5b60006120158787611e7e565b945050602061202687828801611e7e565b935050604061203787828801611ec3565b92505060608501356001600160401b0381111561205657612056600080fd5b61206287828801611ee4565b91505092959194509250565b6000806040838503121561208457612084600080fd5b60006120908585611e7e565b9250506020611f9685828601611ead565b600080600080608085870312156120ba576120ba600080fd5b60006120c68787611e7e565b94505060208501356001600160401b038111156120e5576120e5600080fd5b61202687828801611ee4565b6000806040838503121561210757612107600080fd5b60006121138585611e7e565b9250506020611f9685828601611ec3565b60006020828403121561213957612139600080fd5b81516001600160401b0381111561215257612152600080fd5b610be984828501611e89565b60006020828403121561217357612173600080fd5b6000610be98484611eb8565b60006020828403121561219457612194600080fd5b6000610be98484611ec3565b600080604083850312156121b6576121b6600080fd5b6000611f858585611ec3565b6000602082840312156121d7576121d7600080fd5b6000610be98484611ece565b6000602082840312156121f8576121f8600080fd5b6000610be98484611ed9565b60006020828403121561221957612219600080fd5b6000610be98484611f08565b60006020828403121561223a5761223a600080fd5b81356001600160401b0381111561225357612253600080fd5b610be984828501611ee4565b60006020828403121561227457612274600080fd5b81516001600160401b0381111561228d5761228d600080fd5b610be984828501611f13565b600080600080608085870312156122b2576122b2600080fd5b84516001600160401b038111156122cb576122cb600080fd5b6122d787828801611f13565b94505060206122e887828801611f37565b93505060406122f987828801611f37565b925050606061206287828801611eb8565b60006020828403121561231f5761231f600080fd5b6000610be98484611f37565b600061191483836123ba565b61234081612c77565b82525050565b6000612350825190565b8084526020840193508360208202850161236a8560200190565b8060005b8581101561239f5784840389528151612387858261232b565b94506020830160209a909a019992505060010161236e565b5091979650505050505050565b801515612340565b80612340565b60006123c4825190565b8084526020840193506123db818560208601612caa565b6123e481612df8565b9093019392505050565b61234081612c93565b6000612401825190565b61240f818560208601612caa565b9290920192915050565b60208082527f537472696e67733a20686578206c656e67746820696e73756666696369656e74910190815260005b5060200190565b602b81526000602082017f455243373231456e756d657261626c653a206f776e657220696e646578206f7581526a74206f6620626f756e647360a81b602082015291505b5060400190565b603281526000602082017f4552433732313a207472616e7366657220746f206e6f6e20455243373231526581527131b2b4bb32b91034b6b83632b6b2b73a32b960711b60208201529150612492565b602681526000602082017f4f776e61626c653a206e6577206f776e657220697320746865207a65726f206181526564647265737360d01b60208201529150612492565b601c81526000602082017b115490cdcc8c4e881d1bdad95b88185b1c9958591e481b5a5b9d195960221b81529150612447565b601b81526000602082017a14d097d25111539512551657d053149150511657d0d49150551151602a1b81529150612447565b601981526000602082017814d3d5531390535157d0d3d395149050d517d393d517d4d155603a1b81529150612447565b601981526000602082017822a9219b99189d1030b8383937bb32903a379031b0b63632b960391b81529150612447565b601a81526000602082017914d09517d514905394d1915497d393d517d4115493525515115160321b81529150612447565b600a81526000602082016953414d455f56414c554560b01b81529150612447565b602981526000602082017f4552433732313a2061646472657373207a65726f206973206e6f7420612076618152683634b21037bbb732b960b91b60208201529150612492565b600c81526000602082016b5a45524f5f4144445245535360a01b81529150612447565b603e81526000602082017f4552433732313a20617070726f76652063616c6c6572206973206e6f7420746f81527f6b656e206f776e6572206e6f7220617070726f76656420666f7220616c6c000060208201529150612492565b60208082527f4552433732313a206d696e7420746f20746865207a65726f206164647265737391019081526000612447565b60208082527f4f776e61626c653a2063616c6c6572206973206e6f7420746865206f776e657291019081526000612447565b6018815260006020820177115490cdcc8c4e881a5b9d985b1a59081d1bdad95b88125160421b81529150612447565b602181526000602082017f4552433732313a20617070726f76616c20746f2063757272656e74206f776e658152603960f91b60208201529150612492565b602c81526000602082017f455243373231456e756d657261626c653a20676c6f62616c20696e646578206f81526b7574206f6620626f756e647360a01b60208201529150612492565b602e81526000602082017f4552433732313a2063616c6c6572206973206e6f7420746f6b656e206f776e6581526d1c881b9bdc88185c1c1c9bdd995960921b60208201529150612492565b602f81526000602082017f416363657373436f6e74726f6c3a2063616e206f6e6c792072656e6f756e636581526e103937b632b9903337b91039b2b63360891b60208201529150612492565b60006128c282856123f7565b91506128ce82846123f7565b64173539b7b760d91b8152915060058201610be9565b76020b1b1b2b9b9a1b7b73a3937b61d1030b1b1b7bab73a1604d1b8152601701600061291082856123f7565b7001034b99036b4b9b9b4b733903937b6329607d1b81526011019150610be982846123f7565b602081016106ec8284612337565b608081016129528287612337565b61295f6020830186612337565b61296c60408301856123b4565b818103606083015261297e81846123ba565b9695505050505050565b60a081016129968288612337565b81810360208301526129a881876123ba565b90506129b760408301866123b4565b6129c460608301856123b4565b81810360808301526129d681846123ba565b979650505050505050565b602080825281016119148184612346565b602081016106ec82846123ac565b602081016106ec82846123b4565b602081016106ec82846123ee565b6020808252810161191481846123ba565b60808082528101612a3e81876123ba565b9050612a4d60208301866123b4565b612a5a60408301856123b4565b612a6760608301846123ac565b95945050505050565b602080825281016106ec81612419565b602080825281016106ec8161244e565b602080825281016106ec81612499565b602080825281016106ec816124e8565b602080825281016106ec8161252b565b602080825281016106ec8161255e565b602080825281016106ec81612590565b602080825281016106ec816125c0565b602080825281016106ec816125f0565b602080825281016106ec81612621565b602080825281016106ec81612642565b602080825281016106ec81612688565b602080825281016106ec816126ab565b602080825281016106ec81612705565b602080825281016106ec81612737565b602080825281016106ec81612769565b602080825281016106ec81612798565b602080825281016106ec816127d6565b602080825281016106ec8161281f565b602080825281016106ec8161286a565b6000612bbb60405190565b9050610ad18282612d18565b60006001600160401b03821115612be057612be0612de2565b5060209081020190565b60006001600160401b03821115612c0357612c03612de2565b612c0c82612df8565b60200192915050565b60008219821115612c2857612c28612d74565b500190565b600082612c3c57612c3c612d8a565b500490565b6000816000190483118215151615612c5b57612c5b612d74565b500290565b600082821015612c7257612c72612d74565b500390565b60006001600160a01b0382166106ec565b60006106ec82612c77565b60006106ec82612c88565b82818337506000910152565b60005b83811015612cc5578181015183820152602001612cad565b83811115612cd4576000848401525b50505050565b600081612ce957612ce9612d74565b506000190190565b600281046001821680612d0557607f821691505b6020821081141561175357611753612da0565b612d2182612df8565b81018181106001600160401b0382111715612d3e57612d3e612de2565b6040525050565b6000600019821415612d5957612d59612d74565b5060010190565b600082612d6f57612d6f612d8a565b500690565b634e487b7160e01b600052601160045260246000fd5b634e487b7160e01b600052601260045260246000fd5b634e487b7160e01b600052602260045260246000fd5b634e487b7160e01b600052603160045260246000fd5b634e487b7160e01b600052603260045260246000fd5b634e487b7160e01b600052604160045260246000fd5b601f01601f191690565b612e0b81612c77565b811461094757600080fd5b801515612e0b565b80612e0b565b6001600160e01b03198116612e0b565b612e0b81612c8856fe9f2df0fed2c77648de5860a4cc508cd0818c85b8b8a1ab4ceeef8d981c8956a6ddf252ad1be2c89b69c2b068fc378daa952ba7f163c4a11628f55a4df523b3efa26469706673582212205b026ae4794bb4ccd33c4118478066db7ea56468034325e997d7b6085dfdbe1f64736f6c63430008070033",
  "devdoc": {
    "author": "Masa Finance",
    "details": "Soulbound identity, that inherits from the SBT contract.",
    "kind": "dev",
    "methods": {
      "approve(address,uint256)": {
        "details": "See {IERC721-approve}."
      },
      "balanceOf(address)": {
        "details": "See {IERC721-balanceOf}."
      },
      "burn(uint256)": {
        "details": "Burns `tokenId`. See {ERC721-_burn}. Requirements: - The caller must own `tokenId` or be an approved operator."
      },
      "constructor": {
        "details": "Creates a new soulbound identity, inheriting from the SBT contract.",
        "params": {
          "baseTokenURI": "Base URI of the token",
          "owner": "Owner of the smart contract"
        }
      },
      "getApproved(uint256)": {
        "details": "See {IERC721-getApproved}."
      },
      "getExtension()": {
        "details": "This function returns the extension of the soul name",
        "returns": {
          "_0": "Extension of the soul name"
        }
      },
      "getRoleAdmin(bytes32)": {
        "details": "Returns the admin role that controls `role`. See {grantRole} and {revokeRole}. To change a role's admin, use {_setRoleAdmin}."
      },
      "getSoulName()": {
        "details": "This function returns the address of the SoulName contract linked to this identity",
        "returns": {
          "_0": "Address of the SoulName contract"
        }
      },
      "getSoulNames(address)": {
        "details": "This function queries all the identity names of the specified account",
        "params": {
          "owner": "Address of the owner of the identities"
        },
        "returns": {
          "sbtNames": "Array of soul names associated to the account"
        }
      },
      "getSoulNames(uint256)": {
        "details": "This function queries all the identity names of the specified identity Id",
        "params": {
          "tokenId": "TokenId of the identity"
        },
        "returns": {
          "sbtNames": "Array of soul names associated to the identity Id"
        }
      },
      "getTokenData(string)": {
        "details": "This function queries the information of a soul name",
        "params": {
          "name": "Name of the soul name"
        },
        "returns": {
          "active": "`true` if the soul name is active, `false` otherwise",
          "expirationDate": "Expiration date of the soul name",
          "identityId": "Identity id of the soul name",
          "sbtName": "Soul name, in upper/lower case and extension"
        }
      },
      "grantRole(bytes32,address)": {
        "details": "Grants `role` to `account`. If `account` had not been already granted `role`, emits a {RoleGranted} event. Requirements: - the caller must have ``role``'s admin role. May emit a {RoleGranted} event."
      },
      "hasRole(bytes32,address)": {
        "details": "Returns `true` if `account` has been granted `role`."
      },
      "isApprovedForAll(address,address)": {
        "details": "See {IERC721-isApprovedForAll}."
      },
      "isAvailable(string)": {
        "details": "This function queries if a soul name already exists and is in the available state",
        "params": {
          "name": "Name of the soul name"
        },
        "returns": {
          "available": "`true` if the soul name is available, `false` otherwise"
        }
      },
      "mint(address)": {
        "details": "The caller can only mint one identity per address",
        "params": {
          "to": "Address of the owner of the new identity"
        }
      },
      "mintIdentityWithName(address,string,uint256,string)": {
        "details": "The caller can only mint one identity per address, and the name must be unique",
        "params": {
          "_tokenURI": "URI of the NFT",
          "name": "Name of the new identity",
          "to": "Address of the owner of the new identity",
          "yearsPeriod": "Years of validity of the name"
        }
      },
      "name()": {
        "details": "See {IERC721Metadata-name}."
      },
      "owner()": {
        "details": "Returns the address of the current owner."
      },
      "ownerOf(string)": {
        "details": "This function returns the owner address of the soul name identity specified by the name",
        "params": {
          "name": "Name of the soul name"
        },
        "returns": {
          "_0": "Address of the owner of the identity"
        }
      },
      "ownerOf(uint256)": {
        "details": "This function returns the owner address of the identity specified by the tokenId",
        "params": {
          "tokenId": "TokenId of the identity"
        },
        "returns": {
          "_0": "Address of the owner of the identity"
        }
      },
      "renounceOwnership()": {
        "details": "Leaves the contract without owner. It will not be possible to call `onlyOwner` functions anymore. Can only be called by the current owner. NOTE: Renouncing ownership will leave the contract without an owner, thereby removing any functionality that is only available to the owner."
      },
      "renounceRole(bytes32,address)": {
        "details": "Revokes `role` from the calling account. Roles are often managed via {grantRole} and {revokeRole}: this function's purpose is to provide a mechanism for accounts to lose their privileges if they are compromised (such as when a trusted device is misplaced). If the calling account had been revoked `role`, emits a {RoleRevoked} event. Requirements: - the caller must be `account`. May emit a {RoleRevoked} event."
      },
      "revokeRole(bytes32,address)": {
        "details": "Revokes `role` from `account`. If `account` had been granted `role`, emits a {RoleRevoked} event. Requirements: - the caller must have ``role``'s admin role. May emit a {RoleRevoked} event."
      },
      "safeTransferFrom(address,address,uint256)": {
        "details": "This will raise an exception because the token is not transferable."
      },
      "safeTransferFrom(address,address,uint256,bytes)": {
        "details": "This will raise an exception because the token is not transferable."
      },
      "setApprovalForAll(address,bool)": {
        "details": "See {IERC721-setApprovalForAll}."
      },
      "setSoulName(address)": {
        "details": "The caller must have the owner to call this function",
        "params": {
          "_soulName": "Address of the SoulName contract"
        }
      },
      "supportsInterface(bytes4)": {
        "details": "Interface identification is specified in ERC-165.",
        "params": {
          "interfaceId": "The interface identifier, as specified in ERC-165"
        },
        "returns": {
          "_0": "`true` if the contract implements `interfaceId` and  `interfaceId` is not 0xffffffff, `false` otherwise"
        }
      },
      "symbol()": {
        "details": "See {IERC721Metadata-symbol}."
      },
      "tokenByIndex(uint256)": {
        "details": "See {IERC721Enumerable-tokenByIndex}."
      },
      "tokenOfOwner(address)": {
        "details": "This function returns the tokenId of the identity owned by an account",
        "params": {
          "owner": "Address of the owner of the identity"
        },
        "returns": {
          "_0": "TokenId of the identity owned by the account"
        }
      },
      "tokenOfOwnerByIndex(address,uint256)": {
        "details": "See {IERC721Enumerable-tokenOfOwnerByIndex}."
      },
      "tokenURI(address)": {
        "details": "This function returns the token URI of the identity owned by an account",
        "params": {
          "owner": "Address of the owner of the identity"
        },
        "returns": {
          "_0": "URI of the identity owned by the account"
        }
      },
      "tokenURI(string)": {
        "details": "This function returns the token URI of the soul name identity specified by the name",
        "params": {
          "name": "Name of the soul name"
        },
        "returns": {
          "_0": "URI of the identity associated to a soul name"
        }
      },
      "tokenURI(uint256)": {
        "details": "Throws if `_tokenId` is not a valid NFT. URIs are defined in RFC  3986. The URI may point to a JSON file that conforms to the \"ERC721  Metadata JSON Schema\".",
        "params": {
          "tokenId": "NFT to get the URI of"
        },
        "returns": {
          "_0": "URI of the NFT"
        }
      },
      "totalSupply()": {
        "details": "See {IERC721Enumerable-totalSupply}."
      },
      "transferFrom(address,address,uint256)": {
        "details": "This will raise an exception because the token is not transferable."
      },
      "transferOwnership(address)": {
        "details": "Transfers ownership of the contract to a new account (`newOwner`). Can only be called by the current owner."
      }
    },
    "title": "Soulbound Identity",
    "version": 1
  },
  "userdoc": {
    "kind": "user",
    "methods": {
      "constructor": {
        "notice": "Creates a new soulbound identity"
      },
      "getExtension()": {
        "notice": "Returns the extension of the soul name"
      },
      "getSoulName()": {
        "notice": "Returns the address of the SoulName contract linked to this identity"
      },
      "getSoulNames(address)": {
        "notice": "Returns all the active soul names of an account"
      },
      "getSoulNames(uint256)": {
        "notice": "Returns all the active soul names of an account"
      },
      "getTokenData(string)": {
        "notice": "Returns the information of a soul name"
      },
      "isAvailable(string)": {
        "notice": "Checks if a soul name is available"
      },
      "mint(address)": {
        "notice": "Mints a new soulbound identity"
      },
      "mintIdentityWithName(address,string,uint256,string)": {
        "notice": "Mints a new soulbound identity with a SoulName associated to it"
      },
      "ownerOf(string)": {
        "notice": "Returns the owner address of a soul name"
      },
      "ownerOf(uint256)": {
        "notice": "Returns the owner address of an identity"
      },
      "safeTransferFrom(address,address,uint256)": {
        "notice": "Transfers the ownership of an NFT from one address to another address"
      },
      "safeTransferFrom(address,address,uint256,bytes)": {
        "notice": "Transfer ownership of the token to another address safely"
      },
      "setSoulName(address)": {
        "notice": "Sets the SoulName contract address linked to this identity"
      },
      "supportsInterface(bytes4)": {
        "notice": "Query if a contract implements an interface"
      },
      "tokenOfOwner(address)": {
        "notice": "Returns the identity id of an account"
      },
      "tokenURI(address)": {
        "notice": "Returns the URI of the owner of an identity"
      },
      "tokenURI(string)": {
        "notice": "Returns the URI of a soul name"
      },
      "tokenURI(uint256)": {
        "notice": "A distinct Uniform Resource Identifier (URI) for a given asset."
      },
      "transferFrom(address,address,uint256)": {
        "notice": "Transfer ownership of an NFT -- THE CALLER IS RESPONSIBLE  TO CONFIRM THAT `_to` IS CAPABLE OF RECEIVING NFTS OR ELSE  THEY MAY BE PERMANENTLY LOST"
      }
    },
    "notice": "Soulbound token that represents an identity.",
    "version": 1
  },
  "storageLayout": {
    "storage": [
      {
        "astId": 1537,
        "contract": "contracts/SoulboundIdentity.sol:SoulboundIdentity",
        "label": "_name",
        "offset": 0,
        "slot": "0",
        "type": "t_string_storage"
      },
      {
        "astId": 1539,
        "contract": "contracts/SoulboundIdentity.sol:SoulboundIdentity",
        "label": "_symbol",
        "offset": 0,
        "slot": "1",
        "type": "t_string_storage"
      },
      {
        "astId": 1543,
        "contract": "contracts/SoulboundIdentity.sol:SoulboundIdentity",
        "label": "_owners",
        "offset": 0,
        "slot": "2",
        "type": "t_mapping(t_uint256,t_address)"
      },
      {
        "astId": 1547,
        "contract": "contracts/SoulboundIdentity.sol:SoulboundIdentity",
        "label": "_balances",
        "offset": 0,
        "slot": "3",
        "type": "t_mapping(t_address,t_uint256)"
      },
      {
        "astId": 1551,
        "contract": "contracts/SoulboundIdentity.sol:SoulboundIdentity",
        "label": "_tokenApprovals",
        "offset": 0,
        "slot": "4",
        "type": "t_mapping(t_uint256,t_address)"
      },
      {
        "astId": 1557,
        "contract": "contracts/SoulboundIdentity.sol:SoulboundIdentity",
        "label": "_operatorApprovals",
        "offset": 0,
        "slot": "5",
        "type": "t_mapping(t_address,t_mapping(t_address,t_bool))"
      },
      {
        "astId": 2557,
        "contract": "contracts/SoulboundIdentity.sol:SoulboundIdentity",
        "label": "_ownedTokens",
        "offset": 0,
        "slot": "6",
        "type": "t_mapping(t_address,t_mapping(t_uint256,t_uint256))"
      },
      {
        "astId": 2561,
        "contract": "contracts/SoulboundIdentity.sol:SoulboundIdentity",
        "label": "_ownedTokensIndex",
        "offset": 0,
        "slot": "7",
        "type": "t_mapping(t_uint256,t_uint256)"
      },
      {
        "astId": 2564,
        "contract": "contracts/SoulboundIdentity.sol:SoulboundIdentity",
        "label": "_allTokens",
        "offset": 0,
        "slot": "8",
        "type": "t_array(t_uint256)dyn_storage"
      },
      {
        "astId": 2568,
        "contract": "contracts/SoulboundIdentity.sol:SoulboundIdentity",
        "label": "_allTokensIndex",
        "offset": 0,
        "slot": "9",
        "type": "t_mapping(t_uint256,t_uint256)"
      },
      {
        "astId": 400,
        "contract": "contracts/SoulboundIdentity.sol:SoulboundIdentity",
        "label": "_owner",
        "offset": 0,
        "slot": "10",
        "type": "t_address"
      },
      {
        "astId": 24,
        "contract": "contracts/SoulboundIdentity.sol:SoulboundIdentity",
        "label": "_roles",
        "offset": 0,
        "slot": "11",
        "type": "t_mapping(t_bytes32,t_struct(RoleData)19_storage)"
      },
      {
        "astId": 7680,
        "contract": "contracts/SoulboundIdentity.sol:SoulboundIdentity",
        "label": "_tokenIdCounter",
        "offset": 0,
        "slot": "12",
        "type": "t_struct(Counter)3261_storage"
      },
      {
        "astId": 7682,
        "contract": "contracts/SoulboundIdentity.sol:SoulboundIdentity",
        "label": "_baseTokenURI",
        "offset": 0,
        "slot": "13",
        "type": "t_string_storage"
      },
      {
        "astId": 6723,
        "contract": "contracts/SoulboundIdentity.sol:SoulboundIdentity",
        "label": "soulName",
        "offset": 0,
        "slot": "14",
        "type": "t_contract(ISoulName)7282"
      }
    ],
    "types": {
      "t_address": {
        "encoding": "inplace",
        "label": "address",
        "numberOfBytes": "20"
      },
      "t_array(t_uint256)dyn_storage": {
        "base": "t_uint256",
        "encoding": "dynamic_array",
        "label": "uint256[]",
        "numberOfBytes": "32"
      },
      "t_bool": {
        "encoding": "inplace",
        "label": "bool",
        "numberOfBytes": "1"
      },
      "t_bytes32": {
        "encoding": "inplace",
        "label": "bytes32",
        "numberOfBytes": "32"
      },
      "t_contract(ISoulName)7282": {
        "encoding": "inplace",
        "label": "contract ISoulName",
        "numberOfBytes": "20"
      },
      "t_mapping(t_address,t_bool)": {
        "encoding": "mapping",
        "key": "t_address",
        "label": "mapping(address => bool)",
        "numberOfBytes": "32",
        "value": "t_bool"
      },
      "t_mapping(t_address,t_mapping(t_address,t_bool))": {
        "encoding": "mapping",
        "key": "t_address",
        "label": "mapping(address => mapping(address => bool))",
        "numberOfBytes": "32",
        "value": "t_mapping(t_address,t_bool)"
      },
      "t_mapping(t_address,t_mapping(t_uint256,t_uint256))": {
        "encoding": "mapping",
        "key": "t_address",
        "label": "mapping(address => mapping(uint256 => uint256))",
        "numberOfBytes": "32",
        "value": "t_mapping(t_uint256,t_uint256)"
      },
      "t_mapping(t_address,t_uint256)": {
        "encoding": "mapping",
        "key": "t_address",
        "label": "mapping(address => uint256)",
        "numberOfBytes": "32",
        "value": "t_uint256"
      },
      "t_mapping(t_bytes32,t_struct(RoleData)19_storage)": {
        "encoding": "mapping",
        "key": "t_bytes32",
        "label": "mapping(bytes32 => struct AccessControl.RoleData)",
        "numberOfBytes": "32",
        "value": "t_struct(RoleData)19_storage"
      },
      "t_mapping(t_uint256,t_address)": {
        "encoding": "mapping",
        "key": "t_uint256",
        "label": "mapping(uint256 => address)",
        "numberOfBytes": "32",
        "value": "t_address"
      },
      "t_mapping(t_uint256,t_uint256)": {
        "encoding": "mapping",
        "key": "t_uint256",
        "label": "mapping(uint256 => uint256)",
        "numberOfBytes": "32",
        "value": "t_uint256"
      },
      "t_string_storage": {
        "encoding": "bytes",
        "label": "string",
        "numberOfBytes": "32"
      },
      "t_struct(Counter)3261_storage": {
        "encoding": "inplace",
        "label": "struct Counters.Counter",
        "members": [
          {
            "astId": 3260,
            "contract": "contracts/SoulboundIdentity.sol:SoulboundIdentity",
            "label": "_value",
            "offset": 0,
            "slot": "0",
            "type": "t_uint256"
          }
        ],
        "numberOfBytes": "32"
      },
      "t_struct(RoleData)19_storage": {
        "encoding": "inplace",
        "label": "struct AccessControl.RoleData",
        "members": [
          {
            "astId": 16,
            "contract": "contracts/SoulboundIdentity.sol:SoulboundIdentity",
            "label": "members",
            "offset": 0,
            "slot": "0",
            "type": "t_mapping(t_address,t_bool)"
          },
          {
            "astId": 18,
            "contract": "contracts/SoulboundIdentity.sol:SoulboundIdentity",
            "label": "adminRole",
            "offset": 0,
            "slot": "1",
            "type": "t_bytes32"
          }
        ],
        "numberOfBytes": "64"
      },
      "t_uint256": {
        "encoding": "inplace",
        "label": "uint256",
        "numberOfBytes": "32"
      }
    }
  }
}