{
  "address": "0x5f444715a9370a6EE6E85e2e98DBA012472E8F86",
  "abi": [
    {
      "inputs": [
        {
          "internalType": "address",
          "name": "owner",
          "type": "address"
        },
        {
          "internalType": "contract ISoulboundIdentity",
          "name": "_soulboundIdentity",
          "type": "address"
        }
      ],
      "stateMutability": "nonpayable",
      "type": "constructor"
    },
    {
      "anonymous": false,
      "inputs": [
        {
          "indexed": true,
          "internalType": "address",
          "name": "previousOwner",
          "type": "address"
        },
        {
          "indexed": true,
          "internalType": "address",
          "name": "newOwner",
          "type": "address"
        }
      ],
      "name": "OwnershipTransferred",
      "type": "event"
    },
    {
      "inputs": [
        {
          "internalType": "address",
          "name": "token",
          "type": "address"
        }
      ],
      "name": "addLinkedSBT",
      "outputs": [],
      "stateMutability": "nonpayable",
      "type": "function"
    },
    {
      "inputs": [
        {
          "internalType": "address",
          "name": "token",
          "type": "address"
        },
        {
          "internalType": "uint256",
          "name": "tokenId",
          "type": "uint256"
        }
      ],
      "name": "getIdentityId",
      "outputs": [
        {
          "internalType": "uint256",
          "name": "",
          "type": "uint256"
        }
      ],
      "stateMutability": "view",
      "type": "function"
    },
    {
      "inputs": [
        {
          "internalType": "uint256",
          "name": "identityId",
          "type": "uint256"
        },
        {
          "internalType": "address",
          "name": "token",
          "type": "address"
        }
      ],
      "name": "getSBTLinks",
      "outputs": [
        {
          "internalType": "uint256[]",
          "name": "",
          "type": "uint256[]"
        }
      ],
      "stateMutability": "view",
      "type": "function"
    },
    {
      "inputs": [
        {
          "internalType": "address",
          "name": "owner",
          "type": "address"
        },
        {
          "internalType": "address",
          "name": "token",
          "type": "address"
        }
      ],
      "name": "getSBTLinks",
      "outputs": [
        {
          "internalType": "uint256[]",
          "name": "",
          "type": "uint256[]"
        }
      ],
      "stateMutability": "view",
      "type": "function"
    },
    {
      "inputs": [
        {
          "internalType": "address",
          "name": "",
          "type": "address"
        }
      ],
      "name": "linkedSBT",
      "outputs": [
        {
          "internalType": "bool",
          "name": "",
          "type": "bool"
        }
      ],
      "stateMutability": "view",
      "type": "function"
    },
    {
      "inputs": [
        {
          "internalType": "uint256",
          "name": "",
          "type": "uint256"
        }
      ],
      "name": "linkedSBTs",
      "outputs": [
        {
          "internalType": "address",
          "name": "",
          "type": "address"
        }
      ],
      "stateMutability": "view",
      "type": "function"
    },
    {
      "inputs": [],
      "name": "owner",
      "outputs": [
        {
          "internalType": "address",
          "name": "",
          "type": "address"
        }
      ],
      "stateMutability": "view",
      "type": "function"
    },
    {
      "inputs": [
        {
          "internalType": "address",
          "name": "token",
          "type": "address"
        }
      ],
      "name": "removeLinkedSBT",
      "outputs": [],
      "stateMutability": "nonpayable",
      "type": "function"
    },
    {
      "inputs": [],
      "name": "renounceOwnership",
      "outputs": [],
      "stateMutability": "nonpayable",
      "type": "function"
    },
    {
      "inputs": [
        {
          "internalType": "contract ISoulboundIdentity",
          "name": "_soulboundIdentity",
          "type": "address"
        }
      ],
      "name": "setSoulboundIdentity",
      "outputs": [],
      "stateMutability": "nonpayable",
      "type": "function"
    },
    {
      "inputs": [],
      "name": "soulboundIdentity",
      "outputs": [
        {
          "internalType": "contract ISoulboundIdentity",
          "name": "",
          "type": "address"
        }
      ],
      "stateMutability": "view",
      "type": "function"
    },
    {
      "inputs": [
        {
          "internalType": "address",
          "name": "newOwner",
          "type": "address"
        }
      ],
      "name": "transferOwnership",
      "outputs": [],
      "stateMutability": "nonpayable",
      "type": "function"
    },
    {
      "inputs": [
        {
          "internalType": "uint256",
          "name": "readerIdentityId",
          "type": "uint256"
        },
        {
          "internalType": "uint256",
          "name": "ownerIdentityId",
          "type": "uint256"
        },
        {
          "internalType": "address",
          "name": "token",
          "type": "address"
        },
        {
          "internalType": "uint256",
          "name": "tokenId",
          "type": "uint256"
        },
        {
          "internalType": "uint256",
          "name": "expirationDate",
          "type": "uint256"
        },
        {
          "internalType": "bytes",
          "name": "signature",
          "type": "bytes"
        }
      ],
      "name": "validateLinkData",
      "outputs": [
        {
          "internalType": "bool",
          "name": "",
          "type": "bool"
        }
      ],
      "stateMutability": "view",
      "type": "function"
    }
  ],
  "transactionHash": "0x1b3fa7364d772c679c891cf1c5d121025c0d28f7fee2fc4f00ceefd9a45f24b6",
  "args": [
    "0x3c8D9f130970358b7E8cbc1DbD0a1EbA6EBE368F",
    "0x83A5492f28CD7D2d5aA7A8b9c0Cf926f639Dd612"
  ],
  "numDeployments": 4,
  "solcInputHash": "9b4f276cb6a1fef5586ffa870889ee93",
  "bytecode": "0x6101406040523480156200001257600080fd5b5060405162001db438038062001db4833981016040819052620000359162000282565b6040518060400160405280600a81526020016929b7bab62634b735b2b960b11b815250604051806040016040528060058152602001640312e302e360dc1b815250620000906200008a6200016260201b60201c565b62000166565b815160208084019190912082519183019190912060e08290526101008190524660a0527f8b73c3c69bb8fe3d512ecc4cf759cc79239f7b179b0ffacaa9a75d522b39400f620000e1818484620001b6565b6080523060601b60c05261012052505050506001600160a01b038116620001255760405162461bcd60e51b81526004016200011c90620003d7565b60405180910390fd5b6200013b82620001f260201b62000a4a1760201c565b600180546001600160a01b0319166001600160a01b0392909216919091179055506200043c565b3390565b600080546001600160a01b038381166001600160a01b0319831681178455604051919092169283917f8be0079c531659141344cd1fd0a4f28419497f9722a3daafe3b4186f6b6457e09190a35050565b60008383834630604051602001620001d395949392919062000336565b6040516020818303038152906040528051906020012090509392505050565b620001fc62000233565b6001600160a01b038116620002255760405162461bcd60e51b81526004016200011c906200038c565b620002308162000166565b50565b6000546001600160a01b03163314620002605760405162461bcd60e51b81526004016200011c90620003e9565b565b80516200026f816200041a565b92915050565b80516200026f8162000431565b600080604083850312156200029a576200029a600080fd5b6000620002a8858562000262565b9250506020620002bb8582860162000275565b9150509250929050565b620002d081620003fb565b82525050565b80620002d0565b600c81526000602082016b5a45524f5f4144445245535360a01b815291505b5060200190565b60208082527f4f776e61626c653a2063616c6c6572206973206e6f7420746865206f776e657291019081526000620002fc565b60a08101620003468288620002d6565b620003556020830187620002d6565b620003646040830186620002d6565b620003736060830185620002d6565b620003826080830184620002c5565b9695505050505050565b602080825281016200026f81602681527f4f776e61626c653a206e6577206f776e657220697320746865207a65726f206160208201526564647265737360d01b604082015260600190565b602080825281016200026f81620002dd565b602080825281016200026f8162000303565b60006001600160a01b0382166200026f565b60006200026f82620003fb565b6200042581620003fb565b81146200023057600080fd5b62000425816200040d565b60805160a05160c05160601c60e05161010051610120516119256200048f6000396000610d5c01526000610d9e01526000610d7d01526000610ce101526000610d0b01526000610d3501526119256000f3fe608060405234801561001057600080fd5b50600436106100af5760003560e01c806304b6b5dd146100b4578063237700c3146100dd578063342c27ad146100fd5780633450793f1461011d5780633ad3033e1461013257806342231b24146101455780636ccaaa7b14610168578063715018a61461017b57806377bed5ed1461018357806380776ac4146101a35780638da5cb5b146101c3578063d1d105de146101cb578063f2fde38b146101de575b600080fd5b6100c76100c23660046111cb565b6101f1565b6040516100d4919061161a565b60405180910390f35b6100f06100eb3660046111ed565b6102cc565b6040516100d4919061162b565b61011061010b366004611189565b610583565b6040516100d491906115f1565b61013061012b3660046110b6565b6105ad565b005b610130610140366004611168565b610619565b6100f06101533660046110b6565b60026020526000908152604090205460ff1681565b6101306101763660046110b6565b610697565b610130610764565b600154610196906001600160a01b031681565b6040516100d49190611709565b6101b66101b1366004611135565b610778565b6040516100d491906117f7565b610110610878565b6100c76101d93660046110f8565b610887565b6101306101ec3660046110b6565b610a4a565b6001600160a01b03811660009081526002602052604090205460609060ff166102355760405162461bcd60e51b815260040161022c906117d7565b60405180910390fd5b6001546040516331a9108f60e11b81526000916001600160a01b031690636352211e906102669087906004016117f7565b60206040518083038186803b15801561027e57600080fd5b505afa158015610292573d6000803e3d6000fd5b505050506040513d601f19601f820116820180604052508101906102b691906110d7565b90506102c28184610887565b9150505b92915050565b6001600160a01b03851660009081526002602052604081205460ff166103045760405162461bcd60e51b815260040161022c906117d7565b6001546040516331a9108f60e11b81526000916001600160a01b031690636352211e90610335908c906004016117f7565b60206040518083038186803b15801561034d57600080fd5b505afa158015610361573d6000803e3d6000fd5b505050506040513d601f19601f8201168201806040525081019061038591906110d7565b6001546040516331a9108f60e11b81529192506000916001600160a01b0390911690636352211e906103bb908c906004016117f7565b60206040518083038186803b1580156103d357600080fd5b505afa1580156103e7573d6000803e3d6000fd5b505050506040513d601f19601f8201168201806040525081019061040b91906110d7565b90506000886001600160a01b0316636352211e896040518263ffffffff1660e01b815260040161043b91906117f7565b60206040518083038186803b15801561045357600080fd5b505afa158015610467573d6000803e3d6000fd5b505050506040513d601f19601f8201168201806040525081019061048b91906110d7565b9050806001600160a01b0316826001600160a01b0316146104be5760405162461bcd60e51b815260040161022c90611747565b6001600160a01b03831633146104e65760405162461bcd60e51b815260040161022c906117c7565b428710156105065760405162461bcd60e51b815260040161022c906117b7565b6105546105168c8c8c8c8c610a81565b87878080601f016020809104026020016040519081016040528093929190818152602001838380828437600092019190915250879250610ae8915050565b6105705760405162461bcd60e51b815260040161022c90611777565b600193505050505b979650505050505050565b6003818154811061059357600080fd5b6000918252602090912001546001600160a01b0316905081565b6105b5610b12565b6001600160a01b03811660009081526002602052604090205460ff166105ed5760405162461bcd60e51b815260040161022c906117d7565b6001600160a01b0381166000908152600260205260409020805460ff1916905561061681610b41565b50565b610621610b12565b6001600160a01b0381166106475760405162461bcd60e51b815260040161022c90611787565b6001546001600160a01b03828116911614156106755760405162461bcd60e51b815260040161022c90611767565b600180546001600160a01b0319166001600160a01b0392909216919091179055565b61069f610b12565b6001600160a01b0381166106c55760405162461bcd60e51b815260040161022c90611787565b6001600160a01b03811660009081526002602052604090205460ff16156106fe5760405162461bcd60e51b815260040161022c906117e7565b6001600160a01b03166000818152600260205260408120805460ff191660019081179091556003805491820181559091527fc2575a0e9e593c00f959f8c92f12db2869c3395a3b0502d05e2516446f71f85b0180546001600160a01b0319169091179055565b61076c610b12565b6107766000610c4d565b565b600080836001600160a01b0316636352211e846040518263ffffffff1660e01b81526004016107a791906117f7565b60206040518083038186803b1580156107bf57600080fd5b505afa1580156107d3573d6000803e3d6000fd5b505050506040513d601f19601f820116820180604052508101906107f791906110d7565b60015460405163294cdf0d60e01b81529192506001600160a01b03169063294cdf0d906108289084906004016115f1565b60206040518083038186803b15801561084057600080fd5b505afa158015610854573d6000803e3d6000fd5b505050506040513d601f19601f820116820180604052508101906102c291906111aa565b6000546001600160a01b031690565b6001600160a01b03811660009081526002602052604090205460609060ff166108c25760405162461bcd60e51b815260040161022c906117d7565b6040516370a0823160e01b81526000906001600160a01b038416906370a08231906108f19087906004016115f1565b60206040518083038186803b15801561090957600080fd5b505afa15801561091d573d6000803e3d6000fd5b505050506040513d601f19601f8201168201806040525081019061094191906111aa565b90506000816001600160401b0381111561095d5761095d6118b6565b604051908082528060200260200182016040528015610986578160200160208202803683370190505b50905060005b82811015610a4157604051632f745c5960e01b81526001600160a01b03861690632f745c59906109c290899085906004016115ff565b60206040518083038186803b1580156109da57600080fd5b505afa1580156109ee573d6000803e3d6000fd5b505050506040513d601f19601f82011682018060405250810190610a1291906111aa565b828281518110610a2457610a246118a0565b602090810291909101015280610a3981611843565b91505061098c565b50949350505050565b610a52610b12565b6001600160a01b038116610a785760405162461bcd60e51b815260040161022c90611737565b61061681610c4d565b6000610adc7f7b89f80b5059cd12839d64ba016c9064695538ba62ec30cfe2a04de9da80405b8787878787604051602001610ac196959493929190611685565b60405160208183030381529060405280519060200120610c9d565b90505b95945050505050565b6000816001600160a01b0316610afe8585610cb0565b6001600160a01b03161490505b9392505050565b33610b1b610878565b6001600160a01b0316146107765760405162461bcd60e51b815260040161022c906117a7565b60005b600354811015610c4957816001600160a01b031660038281548110610b6b57610b6b6118a0565b6000918252602090912001546001600160a01b03161415610c375760038054610b9690600190611805565b81548110610ba657610ba66118a0565b600091825260209091200154600380546001600160a01b039092169183908110610bd257610bd26118a0565b9060005260206000200160006101000a8154816001600160a01b0302191690836001600160a01b031602179055506003805480610c1157610c1161188a565b600082815260209020810160001990810180546001600160a01b03191690550190555050565b80610c4181611843565b915050610b44565b5050565b600080546001600160a01b038381166001600160a01b0319831681178455604051919092169283917f8be0079c531659141344cd1fd0a4f28419497f9722a3daafe3b4186f6b6457e09190a35050565b60006102c6610caa610cd4565b83610dc7565b6000806000610cbf8585610dfa565b91509150610ccc81610e40565b509392505050565b6000306001600160a01b037f000000000000000000000000000000000000000000000000000000000000000016148015610d2d57507f000000000000000000000000000000000000000000000000000000000000000046145b15610d5757507f000000000000000000000000000000000000000000000000000000000000000090565b610dc27f00000000000000000000000000000000000000000000000000000000000000007f00000000000000000000000000000000000000000000000000000000000000007f0000000000000000000000000000000000000000000000000000000000000000610f25565b905090565b60008282604051602001610ddc9291906115c0565b60405160208183030381529060405280519060200120905092915050565b600080825160411415610e315760208301516040840151606085015160001a610e2587828585610f5f565b94509450505050610e39565b506000905060025b9250929050565b6000816004811115610e5457610e54611874565b1415610e5d5750565b6001816004811115610e7157610e71611874565b1415610e8f5760405162461bcd60e51b815260040161022c90611717565b6002816004811115610ea357610ea3611874565b1415610ec15760405162461bcd60e51b815260040161022c90611727565b6003816004811115610ed557610ed5611874565b1415610ef35760405162461bcd60e51b815260040161022c90611757565b6004816004811115610f0757610f07611874565b14156106165760405162461bcd60e51b815260040161022c90611797565b60008383834630604051602001610f40959493929190611639565b6040516020818303038152906040528051906020012090509392505050565b6000806fa2a8918ca85bafe22016d0b997e4df60600160ff1b03831115610f8c575060009050600361102c565b8460ff16601b14158015610fa457508460ff16601c14155b15610fb5575060009050600461102c565b600060018787878760405160008152602001604052604051610fda94939291906116d4565b6020604051602081039080840390855afa158015610ffc573d6000803e3d6000fd5b5050604051601f1901519150506001600160a01b0381166110255760006001925092505061102c565b9150600090505b94509492505050565b80356102c6816118cc565b80516102c6816118cc565b60008083601f84011261106057611060600080fd5b5081356001600160401b0381111561107a5761107a600080fd5b602083019150836001820283011115610e3957610e39600080fd5b80356102c6816118e0565b80356102c6816118e9565b80516102c6816118e9565b6000602082840312156110cb576110cb600080fd5b60006102c28484611035565b6000602082840312156110ec576110ec600080fd5b60006102c28484611040565b6000806040838503121561110e5761110e600080fd5b600061111a8585611035565b925050602061112b85828601611035565b9150509250929050565b6000806040838503121561114b5761114b600080fd5b60006111578585611035565b925050602061112b858286016110a0565b60006020828403121561117d5761117d600080fd5b60006102c28484611095565b60006020828403121561119e5761119e600080fd5b60006102c284846110a0565b6000602082840312156111bf576111bf600080fd5b60006102c284846110ab565b600080604083850312156111e1576111e1600080fd5b600061111a85856110a0565b600080600080600080600060c0888a03121561120b5761120b600080fd5b60006112178a8a6110a0565b97505060206112288a828b016110a0565b96505060406112398a828b01611035565b955050606061124a8a828b016110a0565b945050608061125b8a828b016110a0565b93505060a08801356001600160401b0381111561127a5761127a600080fd5b6112868a828b0161104b565b925092505092959891949750929550565b60006112a3838361130b565b505060200190565b6112b48161181c565b82525050565b60006112c4825190565b80845260209384019383018060005b838110156112f85781516112e78882611297565b9750602083019250506001016112d3565b509495945050505050565b8015156112b4565b806112b4565b6112b481611838565b601881526000602082017745434453413a20696e76616c6964207369676e617475726560401b815291505b5060200190565b601f81526000602082017f45434453413a20696e76616c6964207369676e6174757265206c656e6774680081529150611345565b602681526000602082017f4f776e61626c653a206e6577206f776e657220697320746865207a65726f206181526564647265737360d01b602082015291505b5060400190565b601e81526000602082017f4944454e544954595f4f574e45525f4e4f545f544f4b454e5f4f574e4552000081529150611345565b602281526000602082017f45434453413a20696e76616c6964207369676e6174757265202773272076616c815261756560f01b602082015291506113bf565b600a81526000602082016953414d455f56414c554560b01b81529150611345565b6011815260006020820170494e56414c49445f5349474e415455524560781b81529150611345565b600c81526000602082016b5a45524f5f4144445245535360a01b81529150611345565b602281526000602082017f45434453413a20696e76616c6964207369676e6174757265202776272076616c815261756560f01b602082015291506113bf565b60208082527f4f776e61626c653a2063616c6c6572206973206e6f7420746865206f776e657291019081526000611345565b6014815260006020820173159053125117d411549253d117d156141254915160621b81529150611345565b601181526000602082017021a0a62622a92fa727aa2fa922a0a222a960791b81529150611345565b600e81526000602082016d14d09517d393d517d3125392d15160921b81529150611345565b601281526000602082017114d09517d053149150511657d3125392d15160721b81529150611345565b60ff81166112b4565b61190160f01b815260020160006115d7828561130b565b6020820191506115e7828461130b565b5060200192915050565b602081016102c682846112ab565b6040810161160d82856112ab565b610b0b602083018461130b565b60208082528101610b0b81846112ba565b602081016102c68284611303565b60a08101611647828861130b565b611654602083018761130b565b611661604083018661130b565b61166e606083018561130b565b61167b60808301846112ab565b9695505050505050565b60c08101611693828961130b565b6116a0602083018861130b565b6116ad604083018761130b565b6116ba60608301866112ab565b6116c7608083018561130b565b61057860a083018461130b565b608081016116e2828761130b565b6116ef60208301866115b7565b6116fc604083018561130b565b610adf606083018461130b565b602081016102c68284611311565b602080825281016102c68161131a565b602080825281016102c68161134c565b602080825281016102c681611380565b602080825281016102c6816113c6565b602080825281016102c6816113fa565b602080825281016102c681611439565b602080825281016102c68161145a565b602080825281016102c681611482565b602080825281016102c6816114a5565b602080825281016102c6816114e4565b602080825281016102c681611516565b602080825281016102c681611541565b602080825281016102c681611569565b602080825281016102c68161158e565b602081016102c6828461130b565b6000828210156118175761181761185e565b500390565b60006001600160a01b0382166102c6565b60006102c68261181c565b60006102c68261182d565b60006000198214156118575761185761185e565b5060010190565b634e487b7160e01b600052601160045260246000fd5b634e487b7160e01b600052602160045260246000fd5b634e487b7160e01b600052603160045260246000fd5b634e487b7160e01b600052603260045260246000fd5b634e487b7160e01b600052604160045260246000fd5b6118d58161181c565b811461061657600080fd5b6118d58161182d565b806118d556fea26469706673582212200226abf90f17bbbcc72d12b3a7f4f82368535a0a9aef38350b690c66f33a159e64736f6c63430008070033",
  "devdoc": {
    "author": "Masa Finance",
    "kind": "dev",
    "methods": {
      "addLinkedSBT(address)": {
        "details": "The caller must be the owner to call this function",
        "params": {
          "token": "Address of the SBT contract"
        }
      },
      "constructor": {
        "params": {
          "owner": "Owner of the smart contract"
        }
      },
      "getIdentityId(address,uint256)": {
        "details": "The token must be linked to this soul linker",
        "params": {
          "token": "Address of the SBT contract",
          "tokenId": "Id of the token"
        },
        "returns": {
          "_0": "Id of the identity"
        }
      },
      "getSBTLinks(address,address)": {
        "details": "The token must be linked to this soul linker",
        "params": {
          "owner": "Address of the owner of the identity",
          "token": "Address of the SBT contract"
        },
        "returns": {
          "_0": "List of linked SBTs"
        }
      },
      "getSBTLinks(uint256,address)": {
        "details": "The token must be linked to this soul linker",
        "params": {
          "identityId": "Id of the identity",
          "token": "Address of the SBT contract"
        },
        "returns": {
          "_0": "List of linked SBTs"
        }
      },
      "owner()": {
        "details": "Returns the address of the current owner."
      },
      "removeLinkedSBT(address)": {
        "details": "The caller must be the owner to call this function",
        "params": {
          "token": "Address of the SBT contract"
        }
      },
      "renounceOwnership()": {
        "details": "Leaves the contract without owner. It will not be possible to call `onlyOwner` functions anymore. Can only be called by the current owner. NOTE: Renouncing ownership will leave the contract without an owner, thereby removing any functionality that is only available to the owner."
      },
      "setSoulboundIdentity(address)": {
        "details": "The caller must be the owner to call this function",
        "params": {
          "_soulboundIdentity": "Address of the SoulboundIdentity contract"
        }
      },
      "transferOwnership(address)": {
        "details": "Transfers ownership of the contract to a new account (`newOwner`). Can only be called by the current owner."
      },
      "validateLinkData(uint256,uint256,address,uint256,uint256,bytes)": {
        "details": "The token must be linked to this soul linker",
        "params": {
          "expirationDate": "Expiration date of the signature",
          "ownerIdentityId": "Id of the identity of the owner of the SBT",
          "readerIdentityId": "Id of the identity of the reader",
          "signature": "Signature of the read link request made by the owner",
          "token": "Address of the SBT contract",
          "tokenId": "Id of the token"
        },
        "returns": {
          "_0": "`true` if the signature is valid, `false` otherwise"
        }
      }
    },
    "title": "Soul linker",
    "version": 1
  },
  "userdoc": {
    "kind": "user",
    "methods": {
      "addLinkedSBT(address)": {
        "notice": "Adds an SBT to the list of linked SBTs"
      },
      "constructor": {
        "notice": "Creates a new soul linker"
      },
      "getIdentityId(address,uint256)": {
        "notice": "Returns the identityId owned by the given token"
      },
      "getSBTLinks(address,address)": {
        "notice": "Returns the list of linked SBTs by a given SBT token"
      },
      "getSBTLinks(uint256,address)": {
        "notice": "Returns the list of linked SBTs by a given SBT token"
      },
      "removeLinkedSBT(address)": {
        "notice": "Removes an SBT from the list of linked SBTs"
      },
      "setSoulboundIdentity(address)": {
        "notice": "Sets the SoulboundIdentity contract address linked to this soul name"
      },
      "validateLinkData(uint256,uint256,address,uint256,uint256,bytes)": {
        "notice": "Validates the signature of the given read link request"
      }
    },
    "notice": "Soul linker smart contract that let add links to a Soulbound token.",
    "version": 1
  },
  "storageLayout": {
    "storage": [
      {
        "astId": 400,
        "contract": "contracts/SoulLinker.sol:SoulLinker",
        "label": "_owner",
        "offset": 0,
        "slot": "0",
        "type": "t_address"
      },
      {
        "astId": 4460,
        "contract": "contracts/SoulLinker.sol:SoulLinker",
        "label": "soulboundIdentity",
        "offset": 0,
        "slot": "1",
        "type": "t_contract(ISoulboundIdentity)7409"
      },
      {
        "astId": 4464,
        "contract": "contracts/SoulLinker.sol:SoulLinker",
        "label": "linkedSBT",
        "offset": 0,
        "slot": "2",
        "type": "t_mapping(t_address,t_bool)"
      },
      {
        "astId": 4467,
        "contract": "contracts/SoulLinker.sol:SoulLinker",
        "label": "linkedSBTs",
        "offset": 0,
        "slot": "3",
        "type": "t_array(t_address)dyn_storage"
      }
    ],
    "types": {
      "t_address": {
        "encoding": "inplace",
        "label": "address",
        "numberOfBytes": "20"
      },
      "t_array(t_address)dyn_storage": {
        "base": "t_address",
        "encoding": "dynamic_array",
        "label": "address[]",
        "numberOfBytes": "32"
      },
      "t_bool": {
        "encoding": "inplace",
        "label": "bool",
        "numberOfBytes": "1"
      },
      "t_contract(ISoulboundIdentity)7409": {
        "encoding": "inplace",
        "label": "contract ISoulboundIdentity",
        "numberOfBytes": "20"
      },
      "t_mapping(t_address,t_bool)": {
        "encoding": "mapping",
        "key": "t_address",
        "label": "mapping(address => bool)",
        "numberOfBytes": "32",
        "value": "t_bool"
      }
    }
  }
}