{
  "address": "0x23d51359178282eF95f17A8f33E72648220bCBa8",
  "abi": [
    {
      "inputs": [
        {
          "internalType": "address",
          "name": "admin",
          "type": "address"
        }
      ],
      "stateMutability": "nonpayable",
      "type": "constructor"
    },
    {
      "anonymous": false,
      "inputs": [
        {
          "indexed": true,
          "internalType": "bytes32",
          "name": "role",
          "type": "bytes32"
        },
        {
          "indexed": true,
          "internalType": "bytes32",
          "name": "previousAdminRole",
          "type": "bytes32"
        },
        {
          "indexed": true,
          "internalType": "bytes32",
          "name": "newAdminRole",
          "type": "bytes32"
        }
      ],
      "name": "RoleAdminChanged",
      "type": "event"
    },
    {
      "anonymous": false,
      "inputs": [
        {
          "indexed": true,
          "internalType": "bytes32",
          "name": "role",
          "type": "bytes32"
        },
        {
          "indexed": true,
          "internalType": "address",
          "name": "account",
          "type": "address"
        },
        {
          "indexed": true,
          "internalType": "address",
          "name": "sender",
          "type": "address"
        }
      ],
      "name": "RoleGranted",
      "type": "event"
    },
    {
      "anonymous": false,
      "inputs": [
        {
          "indexed": true,
          "internalType": "bytes32",
          "name": "role",
          "type": "bytes32"
        },
        {
          "indexed": true,
          "internalType": "address",
          "name": "account",
          "type": "address"
        },
        {
          "indexed": true,
          "internalType": "address",
          "name": "sender",
          "type": "address"
        }
      ],
      "name": "RoleRevoked",
      "type": "event"
    },
    {
      "inputs": [],
      "name": "DEFAULT_ADMIN_ROLE",
      "outputs": [
        {
          "internalType": "bytes32",
          "name": "",
          "type": "bytes32"
        }
      ],
      "stateMutability": "view",
      "type": "function"
    },
    {
      "inputs": [
        {
          "internalType": "bytes32",
          "name": "role",
          "type": "bytes32"
        }
      ],
      "name": "getRoleAdmin",
      "outputs": [
        {
          "internalType": "bytes32",
          "name": "",
          "type": "bytes32"
        }
      ],
      "stateMutability": "view",
      "type": "function"
    },
    {
      "inputs": [
        {
          "internalType": "bytes32",
          "name": "role",
          "type": "bytes32"
        },
        {
          "internalType": "address",
          "name": "account",
          "type": "address"
        }
      ],
      "name": "grantRole",
      "outputs": [],
      "stateMutability": "nonpayable",
      "type": "function"
    },
    {
      "inputs": [
        {
          "internalType": "address",
          "name": "",
          "type": "address"
        },
        {
          "internalType": "uint256",
          "name": "",
          "type": "uint256"
        }
      ],
      "name": "hasLinks",
      "outputs": [
        {
          "internalType": "bool",
          "name": "",
          "type": "bool"
        }
      ],
      "stateMutability": "pure",
      "type": "function"
    },
    {
      "inputs": [
        {
          "internalType": "bytes32",
          "name": "role",
          "type": "bytes32"
        },
        {
          "internalType": "address",
          "name": "account",
          "type": "address"
        }
      ],
      "name": "hasRole",
      "outputs": [
        {
          "internalType": "bool",
          "name": "",
          "type": "bool"
        }
      ],
      "stateMutability": "view",
      "type": "function"
    },
    {
      "inputs": [
        {
          "internalType": "bytes32",
          "name": "role",
          "type": "bytes32"
        },
        {
          "internalType": "address",
          "name": "account",
          "type": "address"
        }
      ],
      "name": "renounceRole",
      "outputs": [],
      "stateMutability": "nonpayable",
      "type": "function"
    },
    {
      "inputs": [
        {
          "internalType": "bytes32",
          "name": "role",
          "type": "bytes32"
        },
        {
          "internalType": "address",
          "name": "account",
          "type": "address"
        }
      ],
      "name": "revokeRole",
      "outputs": [],
      "stateMutability": "nonpayable",
      "type": "function"
    },
    {
      "inputs": [
        {
          "internalType": "bytes4",
          "name": "interfaceId",
          "type": "bytes4"
        }
      ],
      "name": "supportsInterface",
      "outputs": [
        {
          "internalType": "bool",
          "name": "",
          "type": "bool"
        }
      ],
      "stateMutability": "view",
      "type": "function"
    }
  ],
  "transactionHash": "0xb81886738994db72c88d7c5dd39506382c652b6089c3e7207dd6f4581c5ec908",
  "args": [
    "0x3c8D9f130970358b7E8cbc1DbD0a1EbA6EBE368F"
  ],
  "numDeployments": 1,
  "solcInputHash": "820f86c65d0294b251813f2382387c11",
  "bytecode": "0x608060405234801561001057600080fd5b506040516109c63803806109c683398101604081905261002f916100fb565b61003a600082610040565b5061014c565b61004a82826100c5565b6100c1576000828152602081815260408083206001600160a01b03851684529091529020805460ff191660011790556100803390565b6001600160a01b0316816001600160a01b0316837f2f8788117e7eff1d82e926ec794901d17c78024a50270940304540a733656f0d60405160405180910390a45b5050565b6000828152602081815260408083206001600160a01b038516845290915290205460ff165b92915050565b80516100ea81610135565b60006020828403121561011057610110600080fd5b600061011c84846100f0565b949350505050565b60006001600160a01b0382166100ea565b61013e81610124565b811461014957600080fd5b50565b61086b8061015b6000396000f3fe608060405234801561001057600080fd5b50600436106100785760003560e01c806301ffc9a71461007d578063248a9ca3146100a65780632f2ff15d146100c657806336568abe146100db57806391d14854146100ee578063a217fddf14610101578063d547741f14610109578063fc9e382c1461011c575b600080fd5b61009061008b3660046105a9565b610132565b60405161009d9190610680565b60405180910390f35b6100b96100b436600461054d565b610169565b60405161009d919061068e565b6100d96100d4366004610576565b61017e565b005b6100d96100e9366004610576565b61019f565b6100906100fc366004610576565b6101de565b6100b9600081565b6100d9610117366004610576565b610207565b61009061012a366004610510565b600092915050565b60006001600160e01b03198216637965db0b60e01b148061016357506301ffc9a760e01b6001600160e01b03198316145b92915050565b60009081526020819052604090206001015490565b61018782610169565b61019081610223565b61019a8383610230565b505050565b6001600160a01b03811633146101d05760405162461bcd60e51b81526004016101c7906106e7565b60405180910390fd5b6101da82826102b4565b5050565b6000918252602082815260408084206001600160a01b0393909316845291905290205460ff1690565b61021082610169565b61021981610223565b61019a83836102b4565b61022d8133610319565b50565b61023a82826101de565b6101da576000828152602081815260408083206001600160a01b03851684529091529020805460ff191660011790556102703390565b6001600160a01b0316816001600160a01b0316837f2f8788117e7eff1d82e926ec794901d17c78024a50270940304540a733656f0d60405160405180910390a45050565b6102be82826101de565b156101da576000828152602081815260408083206001600160a01b0385168085529252808320805460ff1916905551339285917ff6391f5c32d9c69d2a47ea670b442974b53935d1edc7fd64eb21e047a839171b9190a45050565b61032382826101de565b6101da5761033b816001600160a01b0316601461037d565b61034683602061037d565b60405160200161035792919061062e565b60408051601f198184030181529082905262461bcd60e51b82526101c79160040161069c565b6060600061038c836002610752565b61039790600261073a565b6001600160401b038111156103ae576103ae6107f5565b6040519080825280601f01601f1916602001820160405280156103d8576020820181803683370190505b509050600360fc1b816000815181106103f3576103f36107df565b60200101906001600160f81b031916908160001a905350600f60fb1b81600181518110610422576104226107df565b60200101906001600160f81b031916908160001a9053506000610446846002610752565b61045190600161073a565b90505b60018111156104c9576f181899199a1a9b1b9c1cb0b131b232b360811b85600f1660108110610485576104856107df565b1a60f81b82828151811061049b5761049b6107df565b60200101906001600160f81b031916908160001a90535060049490941c936104c2816107b2565b9050610454565b5083156104e85760405162461bcd60e51b81526004016101c7906106ad565b9392505050565b80356101638161080b565b80356101638161081f565b803561016381610825565b6000806040838503121561052657610526600080fd5b600061053285856104ef565b9250506020610543858286016104fa565b9150509250929050565b60006020828403121561056257610562600080fd5b600061056e84846104fa565b949350505050565b6000806040838503121561058c5761058c600080fd5b600061059885856104fa565b9250506020610543858286016104ef565b6000602082840312156105be576105be600080fd5b600061056e8484610505565b8015155b82525050565b806105ce565b60006105e4825190565b8084526020840193506105fb818560208601610782565b601f01601f19169290920192915050565b6000610616825190565b610624818560208601610782565b9290920192915050565b76020b1b1b2b9b9a1b7b73a3937b61d1030b1b1b7bab73a1604d1b8152601701600061065a828561060c565b7001034b99036b4b9b9b4b733903937b6329607d1b8152601101915061056e828461060c565b6020810161016382846105ca565b6020810161016382846105d4565b602080825281016104e881846105da565b60208082528181019081527f537472696e67733a20686578206c656e67746820696e73756666696369656e74604083015260608201610163565b6020808252810161016381602f81527f416363657373436f6e74726f6c3a2063616e206f6e6c792072656e6f756e636560208201526e103937b632b9903337b91039b2b63360891b604082015260600190565b6000821982111561074d5761074d6107c9565b500190565b600081600019048311821515161561076c5761076c6107c9565b500290565b60006001600160a01b038216610163565b60005b8381101561079d578181015183820152602001610785565b838111156107ac576000848401525b50505050565b6000816107c1576107c16107c9565b506000190190565b634e487b7160e01b600052601160045260246000fd5b634e487b7160e01b600052603260045260246000fd5b634e487b7160e01b600052604160045260246000fd5b61081481610771565b811461022d57600080fd5b80610814565b6001600160e01b0319811661081456fea264697066735822122012764524e1bd8c7bb12bf667afab3904bb835854e998a0b92768b8e8f19c25b064736f6c63430008070033",
  "devdoc": {
    "author": "Masa Finance",
    "kind": "dev",
    "methods": {
      "constructor": {
        "params": {
          "admin": "Administrator of the smart contract"
        }
      },
      "getRoleAdmin(bytes32)": {
        "details": "Returns the admin role that controls `role`. See {grantRole} and {revokeRole}. To change a role's admin, use {_setRoleAdmin}."
      },
      "grantRole(bytes32,address)": {
        "details": "Grants `role` to `account`. If `account` had not been already granted `role`, emits a {RoleGranted} event. Requirements: - the caller must have ``role``'s admin role. May emit a {RoleGranted} event."
      },
      "hasLinks(address,uint256)": {
        "returns": {
          "_0": "`true` if the contract has links, `false` otherwise"
        }
      },
      "hasRole(bytes32,address)": {
        "details": "Returns `true` if `account` has been granted `role`."
      },
      "renounceRole(bytes32,address)": {
        "details": "Revokes `role` from the calling account. Roles are often managed via {grantRole} and {revokeRole}: this function's purpose is to provide a mechanism for accounts to lose their privileges if they are compromised (such as when a trusted device is misplaced). If the calling account had been revoked `role`, emits a {RoleRevoked} event. Requirements: - the caller must be `account`. May emit a {RoleRevoked} event."
      },
      "revokeRole(bytes32,address)": {
        "details": "Revokes `role` from `account`. If `account` had been granted `role`, emits a {RoleRevoked} event. Requirements: - the caller must have ``role``'s admin role. May emit a {RoleRevoked} event."
      },
      "supportsInterface(bytes4)": {
        "details": "See {IERC165-supportsInterface}."
      }
    },
    "title": "Soul linker",
    "version": 1
  },
  "userdoc": {
    "kind": "user",
    "methods": {
      "constructor": {
        "notice": "Creates a new soul linker"
      },
      "hasLinks(address,uint256)": {
        "notice": "Query if the contract has links for the given token id"
      }
    },
    "notice": "Soul linker smart contract that let add links to a Soulbound token.",
    "version": 1
  },
  "storageLayout": {
    "storage": [
      {
        "astId": 24,
        "contract": "contracts/SoulLinker.sol:SoulLinker",
        "label": "_roles",
        "offset": 0,
        "slot": "0",
        "type": "t_mapping(t_bytes32,t_struct(RoleData)19_storage)"
      },
      {
        "astId": 3912,
        "contract": "contracts/SoulLinker.sol:SoulLinker",
        "label": "links",
        "offset": 0,
        "slot": "1",
        "type": "t_mapping(t_uint256,t_struct(Link)6287_storage)"
      }
    ],
    "types": {
      "t_address": {
        "encoding": "inplace",
        "label": "address",
        "numberOfBytes": "20"
      },
      "t_bool": {
        "encoding": "inplace",
        "label": "bool",
        "numberOfBytes": "1"
      },
      "t_bytes32": {
        "encoding": "inplace",
        "label": "bytes32",
        "numberOfBytes": "32"
      },
      "t_mapping(t_address,t_bool)": {
        "encoding": "mapping",
        "key": "t_address",
        "label": "mapping(address => bool)",
        "numberOfBytes": "32",
        "value": "t_bool"
      },
      "t_mapping(t_bytes32,t_struct(RoleData)19_storage)": {
        "encoding": "mapping",
        "key": "t_bytes32",
        "label": "mapping(bytes32 => struct AccessControl.RoleData)",
        "numberOfBytes": "32",
        "value": "t_struct(RoleData)19_storage"
      },
      "t_mapping(t_uint256,t_struct(Link)6287_storage)": {
        "encoding": "mapping",
        "key": "t_uint256",
        "label": "mapping(uint256 => struct ISoulLinker.Link)",
        "numberOfBytes": "32",
        "value": "t_struct(Link)6287_storage"
      },
      "t_struct(Link)6287_storage": {
        "encoding": "inplace",
        "label": "struct ISoulLinker.Link",
        "members": [
          {
            "astId": 6280,
            "contract": "contracts/SoulLinker.sol:SoulLinker",
            "label": "sourceContract",
            "offset": 0,
            "slot": "0",
            "type": "t_address"
          },
          {
            "astId": 6282,
            "contract": "contracts/SoulLinker.sol:SoulLinker",
            "label": "sourceId",
            "offset": 0,
            "slot": "1",
            "type": "t_uint256"
          },
          {
            "astId": 6284,
            "contract": "contracts/SoulLinker.sol:SoulLinker",
            "label": "targetContract",
            "offset": 0,
            "slot": "2",
            "type": "t_address"
          },
          {
            "astId": 6286,
            "contract": "contracts/SoulLinker.sol:SoulLinker",
            "label": "targetId",
            "offset": 0,
            "slot": "3",
            "type": "t_uint256"
          }
        ],
        "numberOfBytes": "128"
      },
      "t_struct(RoleData)19_storage": {
        "encoding": "inplace",
        "label": "struct AccessControl.RoleData",
        "members": [
          {
            "astId": 16,
            "contract": "contracts/SoulLinker.sol:SoulLinker",
            "label": "members",
            "offset": 0,
            "slot": "0",
            "type": "t_mapping(t_address,t_bool)"
          },
          {
            "astId": 18,
            "contract": "contracts/SoulLinker.sol:SoulLinker",
            "label": "adminRole",
            "offset": 0,
            "slot": "1",
            "type": "t_bytes32"
          }
        ],
        "numberOfBytes": "64"
      },
      "t_uint256": {
        "encoding": "inplace",
        "label": "uint256",
        "numberOfBytes": "32"
      }
    }
  }
}