{
  "address": "0xB10ddc662BD561f0B26A8B555e15C71430a74fAa",
  "abi": [
    {
      "inputs": [
        {
          "internalType": "address",
          "name": "owner",
          "type": "address"
        },
        {
          "internalType": "string",
          "name": "baseTokenURI",
          "type": "string"
        }
      ],
      "stateMutability": "nonpayable",
      "type": "constructor"
    },
    {
      "anonymous": false,
      "inputs": [
        {
          "indexed": true,
          "internalType": "address",
          "name": "_owner",
          "type": "address"
        },
        {
          "indexed": true,
          "internalType": "uint256",
          "name": "_tokenId",
          "type": "uint256"
        }
      ],
      "name": "Burn",
      "type": "event"
    },
    {
      "anonymous": false,
      "inputs": [
        {
          "indexed": true,
          "internalType": "address",
          "name": "_owner",
          "type": "address"
        },
        {
          "indexed": true,
          "internalType": "uint256",
          "name": "_tokenId",
          "type": "uint256"
        }
      ],
      "name": "Mint",
      "type": "event"
    },
    {
      "anonymous": false,
      "inputs": [
        {
          "indexed": true,
          "internalType": "address",
          "name": "previousOwner",
          "type": "address"
        },
        {
          "indexed": true,
          "internalType": "address",
          "name": "newOwner",
          "type": "address"
        }
      ],
      "name": "OwnershipTransferred",
      "type": "event"
    },
    {
      "anonymous": false,
      "inputs": [
        {
          "indexed": true,
          "internalType": "bytes32",
          "name": "role",
          "type": "bytes32"
        },
        {
          "indexed": true,
          "internalType": "bytes32",
          "name": "previousAdminRole",
          "type": "bytes32"
        },
        {
          "indexed": true,
          "internalType": "bytes32",
          "name": "newAdminRole",
          "type": "bytes32"
        }
      ],
      "name": "RoleAdminChanged",
      "type": "event"
    },
    {
      "anonymous": false,
      "inputs": [
        {
          "indexed": true,
          "internalType": "bytes32",
          "name": "role",
          "type": "bytes32"
        },
        {
          "indexed": true,
          "internalType": "address",
          "name": "account",
          "type": "address"
        },
        {
          "indexed": true,
          "internalType": "address",
          "name": "sender",
          "type": "address"
        }
      ],
      "name": "RoleGranted",
      "type": "event"
    },
    {
      "anonymous": false,
      "inputs": [
        {
          "indexed": true,
          "internalType": "bytes32",
          "name": "role",
          "type": "bytes32"
        },
        {
          "indexed": true,
          "internalType": "address",
          "name": "account",
          "type": "address"
        },
        {
          "indexed": true,
          "internalType": "address",
          "name": "sender",
          "type": "address"
        }
      ],
      "name": "RoleRevoked",
      "type": "event"
    },
    {
      "inputs": [],
      "name": "DEFAULT_ADMIN_ROLE",
      "outputs": [
        {
          "internalType": "bytes32",
          "name": "",
          "type": "bytes32"
        }
      ],
      "stateMutability": "view",
      "type": "function"
    },
    {
      "inputs": [],
      "name": "MINTER_ROLE",
      "outputs": [
        {
          "internalType": "bytes32",
          "name": "",
          "type": "bytes32"
        }
      ],
      "stateMutability": "view",
      "type": "function"
    },
    {
      "inputs": [
        {
          "internalType": "address",
          "name": "owner",
          "type": "address"
        }
      ],
      "name": "balanceOf",
      "outputs": [
        {
          "internalType": "uint256",
          "name": "",
          "type": "uint256"
        }
      ],
      "stateMutability": "view",
      "type": "function"
    },
    {
      "inputs": [
        {
          "internalType": "uint256",
          "name": "tokenId",
          "type": "uint256"
        }
      ],
      "name": "burn",
      "outputs": [],
      "stateMutability": "nonpayable",
      "type": "function"
    },
    {
      "inputs": [],
      "name": "getExtension",
      "outputs": [
        {
          "internalType": "string",
          "name": "",
          "type": "string"
        }
      ],
      "stateMutability": "view",
      "type": "function"
    },
    {
      "inputs": [
        {
          "internalType": "bytes32",
          "name": "role",
          "type": "bytes32"
        }
      ],
      "name": "getRoleAdmin",
      "outputs": [
        {
          "internalType": "bytes32",
          "name": "",
          "type": "bytes32"
        }
      ],
      "stateMutability": "view",
      "type": "function"
    },
    {
      "inputs": [],
      "name": "getSoulName",
      "outputs": [
        {
          "internalType": "contract ISoulName",
          "name": "",
          "type": "address"
        }
      ],
      "stateMutability": "view",
      "type": "function"
    },
    {
      "inputs": [
        {
          "internalType": "uint256",
          "name": "tokenId",
          "type": "uint256"
        }
      ],
      "name": "getSoulNames",
      "outputs": [
        {
          "internalType": "string[]",
          "name": "sbtNames",
          "type": "string[]"
        }
      ],
      "stateMutability": "view",
      "type": "function"
    },
    {
      "inputs": [
        {
          "internalType": "address",
          "name": "owner",
          "type": "address"
        }
      ],
      "name": "getSoulNames",
      "outputs": [
        {
          "internalType": "string[]",
          "name": "sbtNames",
          "type": "string[]"
        }
      ],
      "stateMutability": "view",
      "type": "function"
    },
    {
      "inputs": [
        {
          "internalType": "string",
          "name": "name",
          "type": "string"
        }
      ],
      "name": "getTokenData",
      "outputs": [
        {
          "internalType": "string",
          "name": "sbtName",
          "type": "string"
        },
        {
          "internalType": "uint256",
          "name": "identityId",
          "type": "uint256"
        },
        {
          "internalType": "uint256",
          "name": "tokenId",
          "type": "uint256"
        },
        {
          "internalType": "uint256",
          "name": "expirationDate",
          "type": "uint256"
        },
        {
          "internalType": "bool",
          "name": "active",
          "type": "bool"
        }
      ],
      "stateMutability": "view",
      "type": "function"
    },
    {
      "inputs": [
        {
          "internalType": "bytes32",
          "name": "role",
          "type": "bytes32"
        },
        {
          "internalType": "address",
          "name": "account",
          "type": "address"
        }
      ],
      "name": "grantRole",
      "outputs": [],
      "stateMutability": "nonpayable",
      "type": "function"
    },
    {
      "inputs": [
        {
          "internalType": "bytes32",
          "name": "role",
          "type": "bytes32"
        },
        {
          "internalType": "address",
          "name": "account",
          "type": "address"
        }
      ],
      "name": "hasRole",
      "outputs": [
        {
          "internalType": "bool",
          "name": "",
          "type": "bool"
        }
      ],
      "stateMutability": "view",
      "type": "function"
    },
    {
      "inputs": [
        {
          "internalType": "string",
          "name": "name",
          "type": "string"
        }
      ],
      "name": "isAvailable",
      "outputs": [
        {
          "internalType": "bool",
          "name": "available",
          "type": "bool"
        }
      ],
      "stateMutability": "view",
      "type": "function"
    },
    {
      "inputs": [
        {
          "internalType": "address",
          "name": "to",
          "type": "address"
        }
      ],
      "name": "mint",
      "outputs": [
        {
          "internalType": "uint256",
          "name": "",
          "type": "uint256"
        }
      ],
      "stateMutability": "nonpayable",
      "type": "function"
    },
    {
      "inputs": [
        {
          "internalType": "address",
          "name": "to",
          "type": "address"
        },
        {
          "internalType": "string",
          "name": "name",
          "type": "string"
        },
        {
          "internalType": "uint256",
          "name": "yearsPeriod",
          "type": "uint256"
        },
        {
          "internalType": "string",
          "name": "_tokenURI",
          "type": "string"
        }
      ],
      "name": "mintIdentityWithName",
      "outputs": [
        {
          "internalType": "uint256",
          "name": "",
          "type": "uint256"
        }
      ],
      "stateMutability": "payable",
      "type": "function"
    },
    {
      "inputs": [],
      "name": "name",
      "outputs": [
        {
          "internalType": "string",
          "name": "",
          "type": "string"
        }
      ],
      "stateMutability": "view",
      "type": "function"
    },
    {
      "inputs": [],
      "name": "owner",
      "outputs": [
        {
          "internalType": "address",
          "name": "",
          "type": "address"
        }
      ],
      "stateMutability": "view",
      "type": "function"
    },
    {
      "inputs": [
        {
          "internalType": "uint256",
          "name": "tokenId",
          "type": "uint256"
        }
      ],
      "name": "ownerOf",
      "outputs": [
        {
          "internalType": "address",
          "name": "",
          "type": "address"
        }
      ],
      "stateMutability": "view",
      "type": "function"
    },
    {
      "inputs": [
        {
          "internalType": "string",
          "name": "name",
          "type": "string"
        }
      ],
      "name": "ownerOf",
      "outputs": [
        {
          "internalType": "address",
          "name": "",
          "type": "address"
        }
      ],
      "stateMutability": "view",
      "type": "function"
    },
    {
      "inputs": [],
      "name": "renounceOwnership",
      "outputs": [],
      "stateMutability": "nonpayable",
      "type": "function"
    },
    {
      "inputs": [
        {
          "internalType": "bytes32",
          "name": "role",
          "type": "bytes32"
        },
        {
          "internalType": "address",
          "name": "account",
          "type": "address"
        }
      ],
      "name": "renounceRole",
      "outputs": [],
      "stateMutability": "nonpayable",
      "type": "function"
    },
    {
      "inputs": [
        {
          "internalType": "bytes32",
          "name": "role",
          "type": "bytes32"
        },
        {
          "internalType": "address",
          "name": "account",
          "type": "address"
        }
      ],
      "name": "revokeRole",
      "outputs": [],
      "stateMutability": "nonpayable",
      "type": "function"
    },
    {
      "inputs": [
        {
          "internalType": "contract ISoulName",
          "name": "_soulName",
          "type": "address"
        }
      ],
      "name": "setSoulName",
      "outputs": [],
      "stateMutability": "nonpayable",
      "type": "function"
    },
    {
      "inputs": [],
      "name": "soulName",
      "outputs": [
        {
          "internalType": "contract ISoulName",
          "name": "",
          "type": "address"
        }
      ],
      "stateMutability": "view",
      "type": "function"
    },
    {
      "inputs": [
        {
          "internalType": "bytes4",
          "name": "interfaceId",
          "type": "bytes4"
        }
      ],
      "name": "supportsInterface",
      "outputs": [
        {
          "internalType": "bool",
          "name": "",
          "type": "bool"
        }
      ],
      "stateMutability": "view",
      "type": "function"
    },
    {
      "inputs": [],
      "name": "symbol",
      "outputs": [
        {
          "internalType": "string",
          "name": "",
          "type": "string"
        }
      ],
      "stateMutability": "view",
      "type": "function"
    },
    {
      "inputs": [
        {
          "internalType": "uint256",
          "name": "index",
          "type": "uint256"
        }
      ],
      "name": "tokenByIndex",
      "outputs": [
        {
          "internalType": "uint256",
          "name": "",
          "type": "uint256"
        }
      ],
      "stateMutability": "view",
      "type": "function"
    },
    {
      "inputs": [
        {
          "internalType": "address",
          "name": "owner",
          "type": "address"
        }
      ],
      "name": "tokenOfOwner",
      "outputs": [
        {
          "internalType": "uint256",
          "name": "",
          "type": "uint256"
        }
      ],
      "stateMutability": "view",
      "type": "function"
    },
    {
      "inputs": [
        {
          "internalType": "address",
          "name": "owner",
          "type": "address"
        },
        {
          "internalType": "uint256",
          "name": "index",
          "type": "uint256"
        }
      ],
      "name": "tokenOfOwnerByIndex",
      "outputs": [
        {
          "internalType": "uint256",
          "name": "",
          "type": "uint256"
        }
      ],
      "stateMutability": "view",
      "type": "function"
    },
    {
      "inputs": [
        {
          "internalType": "string",
          "name": "name",
          "type": "string"
        }
      ],
      "name": "tokenURI",
      "outputs": [
        {
          "internalType": "string",
          "name": "",
          "type": "string"
        }
      ],
      "stateMutability": "view",
      "type": "function"
    },
    {
      "inputs": [
        {
          "internalType": "address",
          "name": "owner",
          "type": "address"
        }
      ],
      "name": "tokenURI",
      "outputs": [
        {
          "internalType": "string",
          "name": "",
          "type": "string"
        }
      ],
      "stateMutability": "view",
      "type": "function"
    },
    {
      "inputs": [
        {
          "internalType": "uint256",
          "name": "tokenId",
          "type": "uint256"
        }
      ],
      "name": "tokenURI",
      "outputs": [
        {
          "internalType": "string",
          "name": "",
          "type": "string"
        }
      ],
      "stateMutability": "view",
      "type": "function"
    },
    {
      "inputs": [],
      "name": "totalSupply",
      "outputs": [
        {
          "internalType": "uint256",
          "name": "",
          "type": "uint256"
        }
      ],
      "stateMutability": "view",
      "type": "function"
    },
    {
      "inputs": [
        {
          "internalType": "address",
          "name": "newOwner",
          "type": "address"
        }
      ],
      "name": "transferOwnership",
      "outputs": [],
      "stateMutability": "nonpayable",
      "type": "function"
    }
  ],
  "transactionHash": "0xe94c0e504c8328e3e1ef570ac896b82383823600dff9c14e2ac3e7373125bfc2",
  "args": [
    "0x3c8D9f130970358b7E8cbc1DbD0a1EbA6EBE368F",
    "https://beta.metadata.masa.finance/v1.0/identity/"
  ],
  "numDeployments": 5,
  "solcInputHash": "ab0b04a4a36fdf056cf639f9a4842274",
  "bytecode": "0x60806040523480156200001157600080fd5b5060405162002d4738038062002d478339810160408190526200003491620003e1565b604080518082018252600d81526c4d617361204964656e7469747960981b60208083019182528351808501909452600384526213525160ea1b9084015281518593918591849184916200008a91600091620002b5565b508051620000a0906001906020840190620002b5565b505050620000bd620000b76200012e60201b60201c565b62000132565b620000d3846200018460201b62000f1f1760201c565b620000e0600085620001ce565b6200010c7f9f2df0fed2c77648de5860a4cc508cd0818c85b8b8a1ab4ceeef8d981c8956a685620001ce565b80516200012190600b906020840190620002b5565b505050505050506200060a565b3390565b600880546001600160a01b038381166001600160a01b0319831681179093556040519116919082907f8be0079c531659141344cd1fd0a4f28419497f9722a3daafe3b4186f6b6457e090600090a35050565b6200018e62000259565b6001600160a01b038116620001c05760405162461bcd60e51b8152600401620001b79062000440565b60405180910390fd5b620001cb8162000132565b50565b620001da828262000288565b620002555760008281526009602090815260408083206001600160a01b03851684529091529020805460ff19166001179055620002143390565b6001600160a01b0316816001600160a01b0316837f2f8788117e7eff1d82e926ec794901d17c78024a50270940304540a733656f0d60405160405180910390a45b5050565b6008546001600160a01b03163314620002865760405162461bcd60e51b8152600401620001b7906200048b565b565b60008281526009602090815260408083206001600160a01b038516845290915290205460ff165b92915050565b828054620002c3906200055a565b90600052602060002090601f016020900481019282620002e7576000855562000332565b82601f106200030257805160ff191683800117855562000332565b8280016001018555821562000332579182015b828111156200033257825182559160200191906001019062000315565b506200034092915062000344565b5090565b5b8082111562000340576000815560010162000345565b6000620003726200036c84620004e5565b620004c6565b9050828152602081018484840111156200038f576200038f600080fd5b6200039c84828562000527565b509392505050565b8051620002af81620005f3565b600082601f830112620003c757620003c7600080fd5b8151620003d98482602086016200035b565b949350505050565b60008060408385031215620003f957620003f9600080fd5b6000620004078585620003a4565b92505060208301516001600160401b03811115620004285762000428600080fd5b6200043685828601620003b1565b9150509250929050565b60208082528101620002af81602681527f4f776e61626c653a206e6577206f776e657220697320746865207a65726f206160208201526564647265737360d01b604082015260600190565b60208082528181019081527f4f776e61626c653a2063616c6c6572206973206e6f7420746865206f776e6572604083015260608201620002af565b6000620004d260405190565b9050620004e082826200058b565b919050565b60006001600160401b03821115620005015762000501620005d3565b6200050c82620005e9565b60200192915050565b60006001600160a01b038216620002af565b60005b83811015620005445781810151838201526020016200052a565b8381111562000554576000848401525b50505050565b6002810460018216806200056f57607f821691505b60208210811415620005855762000585620005bd565b50919050565b6200059682620005e9565b81018181106001600160401b0382111715620005b657620005b6620005d3565b6040525050565b634e487b7160e01b600052602260045260246000fd5b634e487b7160e01b600052604160045260246000fd5b601f01601f191690565b620005fe8162000515565b8114620001cb57600080fd5b61272d806200061a6000396000f3fe6080604052600436106101895760003560e01c806301ffc9a71461018e57806306fdde03146101c45780630f2e68af146101e657806318160ddd14610213578063248a9ca314610231578063294cdf0d146102515780632f2ff15d146102715780632f745c591461029357806336568abe146102b357806342966c68146102d357806346b2b087146102f35780634cf12d26146103245780634f6ccce7146103445780635141453e146103645780636352211e146103775780636a627842146103a457806370a08231146103c4578063715018a6146103e4578063776ce6a1146103f95780637e6698911461040e5780638da5cb5b1461043b57806391d1485414610450578063920ffa261461047057806393702f331461049057806395d89b41146104b0578063965306aa146104c5578063a217fddf146104e5578063b507d481146104fa578063b79636b614610518578063c87b56dd14610538578063d539139314610558578063d547741f1461057a578063ee7a9ec51461059a578063f2fde38b146105ba575b600080fd5b34801561019a57600080fd5b506101ae6101a9366004611c4f565b6105da565b6040516101bb91906122ce565b60405180910390f35b3480156101d057600080fd5b506101d96105eb565b6040516101bb91906122f8565b3480156101f257600080fd5b50600c54610206906001600160a01b031681565b6040516101bb91906122ea565b34801561021f57600080fd5b506006545b6040516101bb91906122dc565b34801561023d57600080fd5b5061022461024c366004611bfb565b61067d565b34801561025d57600080fd5b5061022461026c366004611aaa565b610692565b34801561027d57600080fd5b5061029161028c366004611c1c565b61069f565b005b34801561029f57600080fd5b506102246102ae366004611b63565b6106c0565b3480156102bf57600080fd5b506102916102ce366004611c1c565b61071b565b3480156102df57600080fd5b506102916102ee366004611bfb565b610751565b3480156102ff57600080fd5b5061031361030e366004611c91565b610783565b6040516101bb959493929190612309565b34801561033057600080fd5b506101d961033f366004611c91565b61084d565b34801561035057600080fd5b5061022461035f366004611bfb565b610915565b610224610372366004611acb565b610963565b34801561038357600080fd5b50610397610392366004611bfb565b610a2e565b6040516101bb9190612256565b3480156103b057600080fd5b506102246103bf366004611aaa565b610a39565b3480156103d057600080fd5b506102246103df366004611aaa565b610a6c565b3480156103f057600080fd5b50610291610ab0565b34801561040557600080fd5b506101d9610ac4565b34801561041a57600080fd5b5061042e610429366004611bfb565b610b4a565b6040516101bb91906122bd565b34801561044757600080fd5b50610397610bf9565b34801561045c57600080fd5b506101ae61046b366004611c1c565b610c08565b34801561047c57600080fd5b5061039761048b366004611c91565b610c33565b34801561049c57600080fd5b506101d96104ab366004611aaa565b610cf2565b3480156104bc57600080fd5b506101d9610d0a565b3480156104d157600080fd5b506101ae6104e0366004611c91565b610d19565b3480156104f157600080fd5b50610224600081565b34801561050657600080fd5b50600c546001600160a01b0316610206565b34801561052457600080fd5b5061042e610533366004611aaa565b610dc4565b34801561054457600080fd5b506101d9610553366004611bfb565b610e1f565b34801561056457600080fd5b506102246000805160206126d883398151915281565b34801561058657600080fd5b50610291610595366004611c1c565b610e85565b3480156105a657600080fd5b506102916105b5366004611c70565b610ea1565b3480156105c657600080fd5b506102916105d5366004611aaa565b610f1f565b60006105e582610f56565b92915050565b6060600080546105fa9061258b565b80601f01602080910402602001604051908101604052809291908181526020018280546106269061258b565b80156106735780601f1061064857610100808354040283529160200191610673565b820191906000526020600020905b81548152906001019060200180831161065657829003601f168201915b5050505050905090565b60009081526009602052604090206001015490565b60006105e58260006106c0565b6106a88261067d565b6106b181610f7b565b6106bb8383610f85565b505050565b60006106cb83610a6c565b82106106f25760405162461bcd60e51b81526004016106e9906123aa565b60405180910390fd5b506001600160a01b03919091166000908152600460209081526040808320938352929052205490565b6001600160a01b03811633146107435760405162461bcd60e51b81526004016106e99061243a565b61074d828261100b565b5050565b61075b3382611072565b6107775760405162461bcd60e51b81526004016106e9906123da565b61078081611095565b50565b600c546060906000908190819081906001600160a01b03166107b75760405162461bcd60e51b81526004016106e99061239a565b600c546040516346b2b08760e01b81526001600160a01b03909116906346b2b087906107e79089906004016122f8565b60006040518083038186803b1580156107ff57600080fd5b505afa158015610813573d6000803e3d6000fd5b505050506040513d6000823e601f3d908101601f1916820160405261083b9190810190611d05565b939a9299509097509550909350915050565b600c546060906001600160a01b03166108785760405162461bcd60e51b81526004016106e99061239a565b600c546040516346b2b08760e01b81526000916001600160a01b0316906346b2b087906108a99086906004016122f8565b60006040518083038186803b1580156108c157600080fd5b505afa1580156108d5573d6000803e3d6000fd5b505050506040513d6000823e601f3d908101601f191682016040526108fd9190810190611d05565b50505091505061090c81610e1f565b9150505b919050565b600061092060065490565b821061093e5760405162461bcd60e51b81526004016106e99061242a565b6006828154811061095157610951612666565b90600052602060002001549050919050565b600c546000906001600160a01b031661098e5760405162461bcd60e51b81526004016106e99061239a565b600061099986610a39565b600c5460405163030547fb60e21b81529192506001600160a01b031690630c151fec906109d2908990899086908a908a90600401612264565b602060405180830381600087803b1580156109ec57600080fd5b505af1158015610a00573d6000803e3d6000fd5b505050506040513d601f19601f82011682018060405250810190610a249190611d96565b5095945050505050565b60006105e58261112f565b60006001610a4683610a6c565b10610a635760405162461bcd60e51b81526004016106e99061238a565b6105e582611164565b60006001600160a01b038216610a945760405162461bcd60e51b81526004016106e9906123ca565b506001600160a01b031660009081526003602052604090205490565b610ab861116f565b610ac2600061119e565b565b600c546040805163776ce6a160e01b815290516060926001600160a01b03169163776ce6a1916004808301926000929190829003018186803b158015610b0957600080fd5b505afa158015610b1d573d6000803e3d6000fd5b505050506040513d6000823e601f3d908101601f19168201604052610b459190810190611ccb565b905090565b600c546060906001600160a01b0316610b755760405162461bcd60e51b81526004016106e99061239a565b600c54604051637e66989160e01b81526001600160a01b0390911690637e66989190610ba59085906004016122dc565b60006040518083038186803b158015610bbd57600080fd5b505afa158015610bd1573d6000803e3d6000fd5b505050506040513d6000823e601f3d908101601f191682016040526105e59190810190611ba0565b6008546001600160a01b031690565b60009182526009602090815260408084206001600160a01b0393909316845291905290205460ff1690565b600c546000906001600160a01b0316610c5e5760405162461bcd60e51b81526004016106e99061239a565b600c546040516346b2b08760e01b81526000916001600160a01b0316906346b2b08790610c8f9086906004016122f8565b60006040518083038186803b158015610ca757600080fd5b505afa158015610cbb573d6000803e3d6000fd5b505050506040513d6000823e601f3d908101601f19168201604052610ce39190810190611d05565b50505091505061090c8161112f565b60606000610cff83610692565b905061090c81610e1f565b6060600180546105fa9061258b565b600c546000906001600160a01b0316610d445760405162461bcd60e51b81526004016106e99061239a565b600c54604051634b29835560e11b81526001600160a01b039091169063965306aa90610d749085906004016122f8565b60206040518083038186803b158015610d8c57600080fd5b505afa158015610da0573d6000803e3d6000fd5b505050506040513d601f19601f820116820180604052508101906105e59190611bda565b600c546060906001600160a01b0316610def5760405162461bcd60e51b81526004016106e99061239a565b600c54604051635bcb1b5b60e11b81526001600160a01b039091169063b79636b690610ba5908590600401612256565b6060610e2a826111f0565b6000610e34611215565b90506000815111610e54576040518060200160405280600081525061090c565b80610e5e84611224565b604051602001610e6f9291906121d6565b6040516020818303038152906040529392505050565b610e8e8261067d565b610e9781610f7b565b6106bb838361100b565b610ea961116f565b6001600160a01b038116610ecf5760405162461bcd60e51b81526004016106e9906123ea565b600c546001600160a01b0382811691161415610efd5760405162461bcd60e51b81526004016106e9906123ba565b600c80546001600160a01b0319166001600160a01b0392909216919091179055565b610f2761116f565b6001600160a01b038116610f4d5760405162461bcd60e51b81526004016106e99061237a565b6107808161119e565b60006001600160e01b03198216637965db0b60e01b14806105e557506105e582611329565b610780813361134e565b610f8f8282610c08565b61074d5760008281526009602090815260408083206001600160a01b03851684529091529020805460ff19166001179055610fc73390565b6001600160a01b0316816001600160a01b0316837f2f8788117e7eff1d82e926ec794901d17c78024a50270940304540a733656f0d60405160405180910390a45050565b6110158282610c08565b1561074d5760008281526009602090815260408083206001600160a01b0385168085529252808320805460ff1916905551339285917ff6391f5c32d9c69d2a47ea670b442974b53935d1edc7fd64eb21e047a839171b9190a45050565b60008061107e8361112f565b6001600160a01b0385811691161491505092915050565b60006110a08261112f565b90506110ae816000846113b2565b6001600160a01b03811660009081526003602052604081208054600192906110d79084906124fa565b909155505060008281526002602052604080822080546001600160a01b03191690555183916001600160a01b038416917fcc16f5dbb4873280815c1ee09dbd06736cffcc184412cf7a71a0fdb75d397ca59190a35050565b6000818152600260205260408120546001600160a01b0316806105e55760405162461bcd60e51b81526004016106e99061241a565b60006105e5826113bd565b33611178610bf9565b6001600160a01b031614610ac25760405162461bcd60e51b81526004016106e9906123fa565b600880546001600160a01b038381166001600160a01b0319831681179093556040519116919082907f8be0079c531659141344cd1fd0a4f28419497f9722a3daafe3b4186f6b6457e090600090a35050565b6111f981611402565b6107805760405162461bcd60e51b81526004016106e99061241a565b6060600b80546105fa9061258b565b6060816112485750506040805180820190915260018152600360fc1b602082015290565b8160005b8115611272578061125c816125df565b915061126b9050600a836124c7565b915061124c565b6000816001600160401b0381111561128c5761128c61267c565b6040519080825280601f01601f1916602001820160405280156112b6576020820181803683370190505b5090505b8415611321576112cb6001836124fa565b91506112d8600a866125fa565b6112e39060306124af565b60f81b8183815181106112f8576112f8612666565b60200101906001600160f81b031916908160001a90535061131a600a866124c7565b94506112ba565b949350505050565b60006001600160e01b0319821663780e9d6360e01b14806105e557506105e58261141f565b6113588282610c08565b61074d57611370816001600160a01b0316601461146f565b61137b83602061146f565b60405160200161138c929190612204565b60408051601f198184030181529082905262461bcd60e51b82526106e9916004016122f8565b6106bb8383836115e1565b60006000805160206126d88339815191526113d781610f7b565b60006113e2600a5490565b90506113f2600a80546001019055565b61090c8482611699565b50919050565b6000908152600260205260409020546001600160a01b0316151590565b60006001600160e01b031982166313f2a32f60e01b148061145057506001600160e01b03198216635b5e139f60e01b145b806105e557506301ffc9a760e01b6001600160e01b03198316146105e5565b6060600061147e8360026124db565b6114899060026124af565b6001600160401b038111156114a0576114a061267c565b6040519080825280601f01601f1916602001820160405280156114ca576020820181803683370190505b509050600360fc1b816000815181106114e5576114e5612666565b60200101906001600160f81b031916908160001a905350600f60fb1b8160018151811061151457611514612666565b60200101906001600160f81b031916908160001a90535060006115388460026124db565b6115439060016124af565b90505b60018111156115bb576f181899199a1a9b1b9c1cb0b131b232b360811b85600f166010811061157757611577612666565b1a60f81b82828151811061158d5761158d612666565b60200101906001600160f81b031916908160001a90535060049490941c936115b481612574565b9050611546565b5083156115da5760405162461bcd60e51b81526004016106e99061235a565b9392505050565b6001600160a01b03831661163c5761163781600680546000838152600760205260408120829055600182018355919091527ff652222313e28459528d920b65115c16c04f3efc82aaedc97be59f3f377c0d3f0155565b61165f565b816001600160a01b0316836001600160a01b03161461165f5761165f8382611775565b6001600160a01b038216611676576106bb81611812565b826001600160a01b0316826001600160a01b0316146106bb576106bb82826118c1565b6001600160a01b0382166116bf5760405162461bcd60e51b81526004016106e99061236a565b6116c881611402565b156116e55760405162461bcd60e51b81526004016106e99061240a565b6116f1600083836113b2565b6001600160a01b038216600090815260036020526040812080546001929061171a9084906124af565b909155505060008181526002602052604080822080546001600160a01b0319166001600160a01b038616908117909155905183927f0f6798a560793a54c3bcfe86a93cde1e73087d944c0ea20544137d412139688591a35050565b6000600161178284610a6c565b61178c91906124fa565b6000838152600560205260409020549091508082146117df576001600160a01b03841660009081526004602090815260408083208584528252808320548484528184208190558352600590915290208190555b5060009182526005602090815260408084208490556001600160a01b039094168352600481528383209183525290812055565b600654600090611824906001906124fa565b6000838152600760205260408120546006805493945090928490811061184c5761184c612666565b90600052602060002001549050806006838154811061186d5761186d612666565b60009182526020808320909101929092558281526007909152604080822084905585825281205560068054806118a5576118a5612650565b6001900381819060005260206000200160009055905550505050565b60006118cc83610a6c565b6001600160a01b039093166000908152600460209081526040808320868452825280832085905593825260059052919091209190915550565b600061191861191384612461565b61244a565b9050808382526020820190508285602086028201111561193a5761193a600080fd5b60005b858110156119825781516001600160401b0381111561195e5761195e600080fd5b80860161196b8982611a7b565b85525050602092830192919091019060010161193d565b5050509392505050565b600061199a61191384612484565b9050828152602081018484840111156119b5576119b5600080fd5b6119c0848285612538565b509392505050565b60006119d661191384612484565b9050828152602081018484840111156119f1576119f1600080fd5b6119c0848285612544565b80356105e58161269c565b600082601f830112611a1b57611a1b600080fd5b8151611321848260208601611905565b80516105e5816126b0565b80356105e5816126b8565b80356105e5816126be565b80356105e5816126ce565b600082601f830112611a6b57611a6b600080fd5b813561132184826020860161198c565b600082601f830112611a8f57611a8f600080fd5b81516113218482602086016119c8565b80516105e5816126b8565b600060208284031215611abf57611abf600080fd5b600061132184846119fc565b60008060008060808587031215611ae457611ae4600080fd5b6000611af087876119fc565b94505060208501356001600160401b03811115611b0f57611b0f600080fd5b611b1b87828801611a57565b9350506040611b2c87828801611a36565b92505060608501356001600160401b03811115611b4b57611b4b600080fd5b611b5787828801611a57565b91505092959194509250565b60008060408385031215611b7957611b79600080fd5b6000611b8585856119fc565b9250506020611b9685828601611a36565b9150509250929050565b600060208284031215611bb557611bb5600080fd5b81516001600160401b03811115611bce57611bce600080fd5b61132184828501611a07565b600060208284031215611bef57611bef600080fd5b60006113218484611a2b565b600060208284031215611c1057611c10600080fd5b60006113218484611a36565b60008060408385031215611c3257611c32600080fd5b6000611c3e8585611a36565b9250506020611b96858286016119fc565b600060208284031215611c6457611c64600080fd5b60006113218484611a41565b600060208284031215611c8557611c85600080fd5b60006113218484611a4c565b600060208284031215611ca657611ca6600080fd5b81356001600160401b03811115611cbf57611cbf600080fd5b61132184828501611a57565b600060208284031215611ce057611ce0600080fd5b81516001600160401b03811115611cf957611cf9600080fd5b61132184828501611a7b565b600080600080600060a08688031215611d2057611d20600080fd5b85516001600160401b03811115611d3957611d39600080fd5b611d4588828901611a7b565b9550506020611d5688828901611a9f565b9450506040611d6788828901611a9f565b9350506060611d7888828901611a9f565b9250506080611d8988828901611a2b565b9150509295509295909350565b600060208284031215611dab57611dab600080fd5b60006113218484611a9f565b60006115da8383611e4f565b611dcc81612511565b82525050565b6000611ddc825190565b80845260208401935083602082028501611df68560200190565b8060005b85811015611e2b5784840389528151611e138582611db7565b94506020830160209a909a0199925050600101611dfa565b5091979650505050505050565b801515611dcc565b80611dcc565b611dcc8161252d565b6000611e59825190565b808452602084019350611e70818560208601612544565b611e7981612692565b9093019392505050565b6000611e8d825190565b611e9b818560208601612544565b9290920192915050565b60208082527f537472696e67733a20686578206c656e67746820696e73756666696369656e74910190815260005b5060200190565b601d81526000602082017f5342543a206d696e7420746f20746865207a65726f206164647265737300000081529150611ed3565b602681526000602082017f4f776e61626c653a206e6577206f776e657220697320746865207a65726f206181526564647265737360d01b602082015291505b5060400190565b601b81526000602082017a14d097d25111539512551657d053149150511657d0d49150551151602a1b81529150611ed3565b601981526000602082017814d3d5531390535157d0d3d395149050d517d393d517d4d155603a1b81529150611ed3565b602881526000602082017f534254456e756d657261626c653a206f776e657220696e646578206f7574206f8152676620626f756e647360c01b60208201529150611f4d565b600a81526000602082016953414d455f56414c554560b01b81529150611ed3565b602681526000602082017f5342543a2061646472657373207a65726f206973206e6f7420612076616c69648152651037bbb732b960d11b60208201529150611f4d565b601e81526000602082017f5342543a2063616c6c6572206973206e6f7420746f6b656e206f776e6572000081529150611ed3565b600c81526000602082016b5a45524f5f4144445245535360a01b81529150611ed3565b60208082527f4f776e61626c653a2063616c6c6572206973206e6f7420746865206f776e657291019081526000611ed3565b601981526000602082017814d0950e881d1bdad95b88185b1c9958591e481b5a5b9d1959603a1b81529150611ed3565b601581526000602082017414d0950e881a5b9d985b1a59081d1bdad95b881251605a1b81529150611ed3565b602981526000602082017f534254456e756d657261626c653a20676c6f62616c20696e646578206f7574208152686f6620626f756e647360b81b60208201529150611f4d565b602f81526000602082017f416363657373436f6e74726f6c3a2063616e206f6e6c792072656e6f756e636581526e103937b632b9903337b91039b2b63360891b60208201529150611f4d565b60006121e28285611e83565b91506121ee8284611e83565b64173539b7b760d91b8152915060058201611321565b76020b1b1b2b9b9a1b7b73a3937b61d1030b1b1b7bab73a1604d1b815260170160006122308285611e83565b7001034b99036b4b9b9b4b733903937b6329607d1b815260110191506113218284611e83565b602081016105e58284611dc3565b60a081016122728288611dc3565b81810360208301526122848187611e4f565b90506122936040830186611e40565b6122a06060830185611e40565b81810360808301526122b28184611e4f565b979650505050505050565b602080825281016115da8184611dd2565b602081016105e58284611e38565b602081016105e58284611e40565b602081016105e58284611e46565b602080825281016115da8184611e4f565b60a0808252810161231a8188611e4f565b90506123296020830187611e40565b6123366040830186611e40565b6123436060830185611e40565b6123506080830184611e38565b9695505050505050565b602080825281016105e581611ea5565b602080825281016105e581611eda565b602080825281016105e581611f0e565b602080825281016105e581611f54565b602080825281016105e581611f86565b602080825281016105e581611fb6565b602080825281016105e581611ffb565b602080825281016105e58161201c565b602080825281016105e58161205f565b602080825281016105e581612093565b602080825281016105e5816120b6565b602080825281016105e5816120e8565b602080825281016105e581612118565b602080825281016105e581612144565b602080825281016105e58161218a565b600061245560405190565b905061091082826125b2565b60006001600160401b0382111561247a5761247a61267c565b5060209081020190565b60006001600160401b0382111561249d5761249d61267c565b6124a682612692565b60200192915050565b600082198211156124c2576124c261260e565b500190565b6000826124d6576124d6612624565b500490565b60008160001904831182151516156124f5576124f561260e565b500290565b60008282101561250c5761250c61260e565b500390565b60006001600160a01b0382166105e5565b60006105e582612511565b60006105e582612522565b82818337506000910152565b60005b8381101561255f578181015183820152602001612547565b8381111561256e576000848401525b50505050565b6000816125835761258361260e565b506000190190565b60028104600182168061259f57607f821691505b602082108114156113fc576113fc61263a565b6125bb82612692565b81018181106001600160401b03821117156125d8576125d861267c565b6040525050565b60006000198214156125f3576125f361260e565b5060010190565b60008261260957612609612624565b500690565b634e487b7160e01b600052601160045260246000fd5b634e487b7160e01b600052601260045260246000fd5b634e487b7160e01b600052602260045260246000fd5b634e487b7160e01b600052603160045260246000fd5b634e487b7160e01b600052603260045260246000fd5b634e487b7160e01b600052604160045260246000fd5b601f01601f191690565b6126a581612511565b811461078057600080fd5b8015156126a5565b806126a5565b6001600160e01b031981166126a5565b6126a58161252256fe9f2df0fed2c77648de5860a4cc508cd0818c85b8b8a1ab4ceeef8d981c8956a6a26469706673582212209525e01e22cb1e6b2349e402b1c632662d85627b626c917fc8b8f5edac83921864736f6c63430008070033",
  "devdoc": {
    "author": "Masa Finance",
    "details": "Soulbound identity, that inherits from the SBT contract.",
    "kind": "dev",
    "methods": {
      "balanceOf(address)": {
        "details": "See {ISBT-balanceOf}."
      },
      "burn(uint256)": {
        "details": "Burns `tokenId`. See {SBT-_burn}. Requirements: - The caller must own `tokenId` or be an approved operator."
      },
      "constructor": {
        "details": "Creates a new soulbound identity, inheriting from the SBT contract.",
        "params": {
          "baseTokenURI": "Base URI of the token",
          "owner": "Owner of the smart contract"
        }
      },
      "getExtension()": {
        "details": "This function returns the extension of the soul name",
        "returns": {
          "_0": "Extension of the soul name"
        }
      },
      "getRoleAdmin(bytes32)": {
        "details": "Returns the admin role that controls `role`. See {grantRole} and {revokeRole}. To change a role's admin, use {_setRoleAdmin}."
      },
      "getSoulName()": {
        "details": "This function returns the address of the SoulName contract linked to this identity",
        "returns": {
          "_0": "Address of the SoulName contract"
        }
      },
      "getSoulNames(address)": {
        "details": "This function queries all the identity names of the specified account",
        "params": {
          "owner": "Address of the owner of the identities"
        },
        "returns": {
          "sbtNames": "Array of soul names associated to the account"
        }
      },
      "getSoulNames(uint256)": {
        "details": "This function queries all the identity names of the specified identity Id",
        "params": {
          "tokenId": "TokenId of the identity"
        },
        "returns": {
          "sbtNames": "Array of soul names associated to the identity Id"
        }
      },
      "getTokenData(string)": {
        "details": "This function queries the information of a soul name",
        "params": {
          "name": "Name of the soul name"
        },
        "returns": {
          "active": "`true` if the soul name is active, `false` otherwise",
          "expirationDate": "Expiration date of the soul name",
          "identityId": "Identity id of the soul name",
          "sbtName": "Soul name, in upper/lower case and extension",
          "tokenId": "SoulName id id of the soul name"
        }
      },
      "grantRole(bytes32,address)": {
        "details": "Grants `role` to `account`. If `account` had not been already granted `role`, emits a {RoleGranted} event. Requirements: - the caller must have ``role``'s admin role. May emit a {RoleGranted} event."
      },
      "hasRole(bytes32,address)": {
        "details": "Returns `true` if `account` has been granted `role`."
      },
      "isAvailable(string)": {
        "details": "This function queries if a soul name already exists and is in the available state",
        "params": {
          "name": "Name of the soul name"
        },
        "returns": {
          "available": "`true` if the soul name is available, `false` otherwise"
        }
      },
      "mint(address)": {
        "details": "The caller can only mint one identity per address",
        "params": {
          "to": "Address of the owner of the new identity"
        }
      },
      "mintIdentityWithName(address,string,uint256,string)": {
        "details": "The caller can only mint one identity per address, and the name must be unique",
        "params": {
          "_tokenURI": "URI of the NFT",
          "name": "Name of the new identity",
          "to": "Address of the owner of the new identity",
          "yearsPeriod": "Years of validity of the name"
        }
      },
      "name()": {
        "details": "See {ISBTMetadata-name}."
      },
      "owner()": {
        "details": "Returns the address of the current owner."
      },
      "ownerOf(string)": {
        "details": "This function returns the owner address of the soul name identity specified by the name",
        "params": {
          "name": "Name of the soul name"
        },
        "returns": {
          "_0": "Address of the owner of the identity"
        }
      },
      "ownerOf(uint256)": {
        "details": "This function returns the owner address of the identity specified by the tokenId",
        "params": {
          "tokenId": "TokenId of the identity"
        },
        "returns": {
          "_0": "Address of the owner of the identity"
        }
      },
      "renounceOwnership()": {
        "details": "Leaves the contract without owner. It will not be possible to call `onlyOwner` functions anymore. Can only be called by the current owner. NOTE: Renouncing ownership will leave the contract without an owner, thereby removing any functionality that is only available to the owner."
      },
      "renounceRole(bytes32,address)": {
        "details": "Revokes `role` from the calling account. Roles are often managed via {grantRole} and {revokeRole}: this function's purpose is to provide a mechanism for accounts to lose their privileges if they are compromised (such as when a trusted device is misplaced). If the calling account had been revoked `role`, emits a {RoleRevoked} event. Requirements: - the caller must be `account`. May emit a {RoleRevoked} event."
      },
      "revokeRole(bytes32,address)": {
        "details": "Revokes `role` from `account`. If `account` had been granted `role`, emits a {RoleRevoked} event. Requirements: - the caller must have ``role``'s admin role. May emit a {RoleRevoked} event."
      },
      "setSoulName(address)": {
        "details": "The caller must have the owner to call this function",
        "params": {
          "_soulName": "Address of the SoulName contract"
        }
      },
      "supportsInterface(bytes4)": {
        "details": "Interface identification is specified in ERC-165.",
        "params": {
          "interfaceId": "The interface identifier, as specified in ERC-165"
        },
        "returns": {
          "_0": "`true` if the contract implements `interfaceId` and  `interfaceId` is not 0xffffffff, `false` otherwise"
        }
      },
      "symbol()": {
        "details": "See {ISBTMetadata-symbol}."
      },
      "tokenByIndex(uint256)": {
        "details": "See {ISBTEnumerable-tokenByIndex}."
      },
      "tokenOfOwner(address)": {
        "details": "This function returns the tokenId of the identity owned by an account",
        "params": {
          "owner": "Address of the owner of the identity"
        },
        "returns": {
          "_0": "TokenId of the identity owned by the account"
        }
      },
      "tokenOfOwnerByIndex(address,uint256)": {
        "details": "See {ISBTEnumerable-tokenOfOwnerByIndex}."
      },
      "tokenURI(address)": {
        "details": "This function returns the token URI of the identity owned by an account",
        "params": {
          "owner": "Address of the owner of the identity"
        },
        "returns": {
          "_0": "URI of the identity owned by the account"
        }
      },
      "tokenURI(string)": {
        "details": "This function returns the token URI of the soul name identity specified by the name",
        "params": {
          "name": "Name of the soul name"
        },
        "returns": {
          "_0": "URI of the identity associated to a soul name"
        }
      },
      "tokenURI(uint256)": {
        "details": "Throws if `_tokenId` is not a valid NFT. URIs are defined in RFC  3986. The URI may point to a JSON file that conforms to the \"ERC721  Metadata JSON Schema\".",
        "params": {
          "tokenId": "NFT to get the URI of"
        },
        "returns": {
          "_0": "URI of the NFT"
        }
      },
      "totalSupply()": {
        "details": "See {ISBTEnumerable-totalSupply}."
      },
      "transferOwnership(address)": {
        "details": "Transfers ownership of the contract to a new account (`newOwner`). Can only be called by the current owner."
      }
    },
    "title": "Soulbound Identity",
    "version": 1
  },
  "userdoc": {
    "kind": "user",
    "methods": {
      "constructor": {
        "notice": "Creates a new soulbound identity"
      },
      "getExtension()": {
        "notice": "Returns the extension of the soul name"
      },
      "getSoulName()": {
        "notice": "Returns the address of the SoulName contract linked to this identity"
      },
      "getSoulNames(address)": {
        "notice": "Returns all the active soul names of an account"
      },
      "getSoulNames(uint256)": {
        "notice": "Returns all the active soul names of an account"
      },
      "getTokenData(string)": {
        "notice": "Returns the information of a soul name"
      },
      "isAvailable(string)": {
        "notice": "Checks if a soul name is available"
      },
      "mint(address)": {
        "notice": "Mints a new soulbound identity"
      },
      "mintIdentityWithName(address,string,uint256,string)": {
        "notice": "Mints a new soulbound identity with a SoulName associated to it"
      },
      "ownerOf(string)": {
        "notice": "Returns the owner address of a soul name"
      },
      "ownerOf(uint256)": {
        "notice": "Returns the owner address of an identity"
      },
      "setSoulName(address)": {
        "notice": "Sets the SoulName contract address linked to this identity"
      },
      "supportsInterface(bytes4)": {
        "notice": "Query if a contract implements an interface"
      },
      "tokenOfOwner(address)": {
        "notice": "Returns the identity id of an account"
      },
      "tokenURI(address)": {
        "notice": "Returns the URI of the owner of an identity"
      },
      "tokenURI(string)": {
        "notice": "Returns the URI of a soul name"
      },
      "tokenURI(uint256)": {
        "notice": "A distinct Uniform Resource Identifier (URI) for a given asset."
      }
    },
    "notice": "Soulbound token that represents an identity.",
    "version": 1
  },
  "storageLayout": {
    "storage": [
      {
        "astId": 8187,
        "contract": "contracts/SoulboundIdentity.sol:SoulboundIdentity",
        "label": "_name",
        "offset": 0,
        "slot": "0",
        "type": "t_string_storage"
      },
      {
        "astId": 8189,
        "contract": "contracts/SoulboundIdentity.sol:SoulboundIdentity",
        "label": "_symbol",
        "offset": 0,
        "slot": "1",
        "type": "t_string_storage"
      },
      {
        "astId": 8193,
        "contract": "contracts/SoulboundIdentity.sol:SoulboundIdentity",
        "label": "_owners",
        "offset": 0,
        "slot": "2",
        "type": "t_mapping(t_uint256,t_address)"
      },
      {
        "astId": 8197,
        "contract": "contracts/SoulboundIdentity.sol:SoulboundIdentity",
        "label": "_balances",
        "offset": 0,
        "slot": "3",
        "type": "t_mapping(t_address,t_uint256)"
      },
      {
        "astId": 8656,
        "contract": "contracts/SoulboundIdentity.sol:SoulboundIdentity",
        "label": "_ownedTokens",
        "offset": 0,
        "slot": "4",
        "type": "t_mapping(t_address,t_mapping(t_uint256,t_uint256))"
      },
      {
        "astId": 8660,
        "contract": "contracts/SoulboundIdentity.sol:SoulboundIdentity",
        "label": "_ownedTokensIndex",
        "offset": 0,
        "slot": "5",
        "type": "t_mapping(t_uint256,t_uint256)"
      },
      {
        "astId": 8663,
        "contract": "contracts/SoulboundIdentity.sol:SoulboundIdentity",
        "label": "_allTokens",
        "offset": 0,
        "slot": "6",
        "type": "t_array(t_uint256)dyn_storage"
      },
      {
        "astId": 8667,
        "contract": "contracts/SoulboundIdentity.sol:SoulboundIdentity",
        "label": "_allTokensIndex",
        "offset": 0,
        "slot": "7",
        "type": "t_mapping(t_uint256,t_uint256)"
      },
      {
        "astId": 400,
        "contract": "contracts/SoulboundIdentity.sol:SoulboundIdentity",
        "label": "_owner",
        "offset": 0,
        "slot": "8",
        "type": "t_address"
      },
      {
        "astId": 24,
        "contract": "contracts/SoulboundIdentity.sol:SoulboundIdentity",
        "label": "_roles",
        "offset": 0,
        "slot": "9",
        "type": "t_mapping(t_bytes32,t_struct(RoleData)19_storage)"
      },
      {
        "astId": 7960,
        "contract": "contracts/SoulboundIdentity.sol:SoulboundIdentity",
        "label": "_tokenIdCounter",
        "offset": 0,
        "slot": "10",
        "type": "t_struct(Counter)3261_storage"
      },
      {
        "astId": 7962,
        "contract": "contracts/SoulboundIdentity.sol:SoulboundIdentity",
        "label": "_baseTokenURI",
        "offset": 0,
        "slot": "11",
        "type": "t_string_storage"
      },
      {
        "astId": 6799,
        "contract": "contracts/SoulboundIdentity.sol:SoulboundIdentity",
        "label": "soulName",
        "offset": 0,
        "slot": "12",
        "type": "t_contract(ISoulName)7369"
      }
    ],
    "types": {
      "t_address": {
        "encoding": "inplace",
        "label": "address",
        "numberOfBytes": "20"
      },
      "t_array(t_uint256)dyn_storage": {
        "base": "t_uint256",
        "encoding": "dynamic_array",
        "label": "uint256[]",
        "numberOfBytes": "32"
      },
      "t_bool": {
        "encoding": "inplace",
        "label": "bool",
        "numberOfBytes": "1"
      },
      "t_bytes32": {
        "encoding": "inplace",
        "label": "bytes32",
        "numberOfBytes": "32"
      },
      "t_contract(ISoulName)7369": {
        "encoding": "inplace",
        "label": "contract ISoulName",
        "numberOfBytes": "20"
      },
      "t_mapping(t_address,t_bool)": {
        "encoding": "mapping",
        "key": "t_address",
        "label": "mapping(address => bool)",
        "numberOfBytes": "32",
        "value": "t_bool"
      },
      "t_mapping(t_address,t_mapping(t_uint256,t_uint256))": {
        "encoding": "mapping",
        "key": "t_address",
        "label": "mapping(address => mapping(uint256 => uint256))",
        "numberOfBytes": "32",
        "value": "t_mapping(t_uint256,t_uint256)"
      },
      "t_mapping(t_address,t_uint256)": {
        "encoding": "mapping",
        "key": "t_address",
        "label": "mapping(address => uint256)",
        "numberOfBytes": "32",
        "value": "t_uint256"
      },
      "t_mapping(t_bytes32,t_struct(RoleData)19_storage)": {
        "encoding": "mapping",
        "key": "t_bytes32",
        "label": "mapping(bytes32 => struct AccessControl.RoleData)",
        "numberOfBytes": "32",
        "value": "t_struct(RoleData)19_storage"
      },
      "t_mapping(t_uint256,t_address)": {
        "encoding": "mapping",
        "key": "t_uint256",
        "label": "mapping(uint256 => address)",
        "numberOfBytes": "32",
        "value": "t_address"
      },
      "t_mapping(t_uint256,t_uint256)": {
        "encoding": "mapping",
        "key": "t_uint256",
        "label": "mapping(uint256 => uint256)",
        "numberOfBytes": "32",
        "value": "t_uint256"
      },
      "t_string_storage": {
        "encoding": "bytes",
        "label": "string",
        "numberOfBytes": "32"
      },
      "t_struct(Counter)3261_storage": {
        "encoding": "inplace",
        "label": "struct Counters.Counter",
        "members": [
          {
            "astId": 3260,
            "contract": "contracts/SoulboundIdentity.sol:SoulboundIdentity",
            "label": "_value",
            "offset": 0,
            "slot": "0",
            "type": "t_uint256"
          }
        ],
        "numberOfBytes": "32"
      },
      "t_struct(RoleData)19_storage": {
        "encoding": "inplace",
        "label": "struct AccessControl.RoleData",
        "members": [
          {
            "astId": 16,
            "contract": "contracts/SoulboundIdentity.sol:SoulboundIdentity",
            "label": "members",
            "offset": 0,
            "slot": "0",
            "type": "t_mapping(t_address,t_bool)"
          },
          {
            "astId": 18,
            "contract": "contracts/SoulboundIdentity.sol:SoulboundIdentity",
            "label": "adminRole",
            "offset": 0,
            "slot": "1",
            "type": "t_bytes32"
          }
        ],
        "numberOfBytes": "64"
      },
      "t_uint256": {
        "encoding": "inplace",
        "label": "uint256",
        "numberOfBytes": "32"
      }
    }
  }
}