{
  "address": "0xBf2bE312b35044aAc158920885351CD252ab251b",
  "abi": [
    {
      "inputs": [
        {
          "internalType": "address",
          "name": "owner",
          "type": "address"
        },
        {
          "internalType": "contract ISoulboundIdentity",
          "name": "_soulBoundIdentity",
          "type": "address"
        },
        {
          "internalType": "uint256",
          "name": "_nameRegistrationPricePerYear",
          "type": "uint256"
        },
        {
          "components": [
            {
              "internalType": "address",
              "name": "swapRouter",
              "type": "address"
            },
            {
              "internalType": "address",
              "name": "wrappedNativeToken",
              "type": "address"
            },
            {
              "internalType": "address",
              "name": "stableCoin",
              "type": "address"
            },
            {
              "internalType": "address",
              "name": "masaToken",
              "type": "address"
            },
            {
              "internalType": "address",
              "name": "reserveWallet",
              "type": "address"
            }
          ],
          "internalType": "struct PaymentGateway.PaymentParams",
          "name": "paymentParams",
          "type": "tuple"
        }
      ],
      "stateMutability": "nonpayable",
      "type": "constructor"
    },
    {
      "anonymous": false,
      "inputs": [
        {
          "indexed": true,
          "internalType": "address",
          "name": "previousOwner",
          "type": "address"
        },
        {
          "indexed": true,
          "internalType": "address",
          "name": "newOwner",
          "type": "address"
        }
      ],
      "name": "OwnershipTransferred",
      "type": "event"
    },
    {
      "anonymous": false,
      "inputs": [
        {
          "indexed": false,
          "internalType": "address",
          "name": "account",
          "type": "address"
        }
      ],
      "name": "Paused",
      "type": "event"
    },
    {
      "anonymous": false,
      "inputs": [
        {
          "indexed": true,
          "internalType": "address",
          "name": "account",
          "type": "address"
        },
        {
          "indexed": false,
          "internalType": "uint256",
          "name": "tokenId",
          "type": "uint256"
        },
        {
          "indexed": true,
          "internalType": "string",
          "name": "name",
          "type": "string"
        },
        {
          "indexed": false,
          "internalType": "uint256",
          "name": "yearsPeriod",
          "type": "uint256"
        }
      ],
      "name": "SoulNamePurchased",
      "type": "event"
    },
    {
      "anonymous": false,
      "inputs": [
        {
          "indexed": true,
          "internalType": "address",
          "name": "account",
          "type": "address"
        },
        {
          "indexed": false,
          "internalType": "uint256",
          "name": "tokenId",
          "type": "uint256"
        },
        {
          "indexed": true,
          "internalType": "string",
          "name": "name",
          "type": "string"
        },
        {
          "indexed": false,
          "internalType": "uint256",
          "name": "yearsPeriod",
          "type": "uint256"
        }
      ],
      "name": "SoulboundIdentityAndNamePurchased",
      "type": "event"
    },
    {
      "anonymous": false,
      "inputs": [
        {
          "indexed": true,
          "internalType": "address",
          "name": "account",
          "type": "address"
        },
        {
          "indexed": false,
          "internalType": "uint256",
          "name": "tokenId",
          "type": "uint256"
        }
      ],
      "name": "SoulboundIdentityPurchased",
      "type": "event"
    },
    {
      "anonymous": false,
      "inputs": [
        {
          "indexed": false,
          "internalType": "address",
          "name": "account",
          "type": "address"
        }
      ],
      "name": "Unpaused",
      "type": "event"
    },
    {
      "inputs": [
        {
          "internalType": "address",
          "name": "_erc20token",
          "type": "address"
        }
      ],
      "name": "addErc20Token",
      "outputs": [],
      "stateMutability": "nonpayable",
      "type": "function"
    },
    {
      "inputs": [
        {
          "internalType": "address",
          "name": "",
          "type": "address"
        }
      ],
      "name": "erc20token",
      "outputs": [
        {
          "internalType": "bool",
          "name": "",
          "type": "bool"
        }
      ],
      "stateMutability": "view",
      "type": "function"
    },
    {
      "inputs": [
        {
          "internalType": "uint256",
          "name": "",
          "type": "uint256"
        }
      ],
      "name": "erc20tokens",
      "outputs": [
        {
          "internalType": "address",
          "name": "",
          "type": "address"
        }
      ],
      "stateMutability": "view",
      "type": "function"
    },
    {
      "inputs": [],
      "name": "getErc20Tokens",
      "outputs": [
        {
          "internalType": "address[]",
          "name": "",
          "type": "address[]"
        }
      ],
      "stateMutability": "view",
      "type": "function"
    },
    {
      "inputs": [
        {
          "internalType": "string",
          "name": "nameLength",
          "type": "string"
        }
      ],
      "name": "getNameRegistrationPricePerYear",
      "outputs": [
        {
          "internalType": "uint256",
          "name": "",
          "type": "uint256"
        }
      ],
      "stateMutability": "view",
      "type": "function"
    },
    {
      "inputs": [
        {
          "internalType": "address",
          "name": "paymentMethod",
          "type": "address"
        },
        {
          "internalType": "string",
          "name": "name",
          "type": "string"
        },
        {
          "internalType": "uint256",
          "name": "yearsPeriod",
          "type": "uint256"
        }
      ],
      "name": "getPriceForMintingName",
      "outputs": [
        {
          "internalType": "uint256",
          "name": "",
          "type": "uint256"
        }
      ],
      "stateMutability": "view",
      "type": "function"
    },
    {
      "inputs": [],
      "name": "masaToken",
      "outputs": [
        {
          "internalType": "address",
          "name": "",
          "type": "address"
        }
      ],
      "stateMutability": "view",
      "type": "function"
    },
    {
      "inputs": [
        {
          "internalType": "uint256",
          "name": "",
          "type": "uint256"
        }
      ],
      "name": "nameRegistrationPricePerYear",
      "outputs": [
        {
          "internalType": "uint256",
          "name": "",
          "type": "uint256"
        }
      ],
      "stateMutability": "view",
      "type": "function"
    },
    {
      "inputs": [],
      "name": "owner",
      "outputs": [
        {
          "internalType": "address",
          "name": "",
          "type": "address"
        }
      ],
      "stateMutability": "view",
      "type": "function"
    },
    {
      "inputs": [],
      "name": "pause",
      "outputs": [],
      "stateMutability": "nonpayable",
      "type": "function"
    },
    {
      "inputs": [],
      "name": "paused",
      "outputs": [
        {
          "internalType": "bool",
          "name": "",
          "type": "bool"
        }
      ],
      "stateMutability": "view",
      "type": "function"
    },
    {
      "inputs": [],
      "name": "purchaseIdentity",
      "outputs": [
        {
          "internalType": "uint256",
          "name": "",
          "type": "uint256"
        }
      ],
      "stateMutability": "payable",
      "type": "function"
    },
    {
      "inputs": [
        {
          "internalType": "address",
          "name": "paymentMethod",
          "type": "address"
        },
        {
          "internalType": "string",
          "name": "name",
          "type": "string"
        },
        {
          "internalType": "uint256",
          "name": "yearsPeriod",
          "type": "uint256"
        },
        {
          "internalType": "string",
          "name": "_tokenURI",
          "type": "string"
        }
      ],
      "name": "purchaseIdentityAndName",
      "outputs": [
        {
          "internalType": "uint256",
          "name": "",
          "type": "uint256"
        }
      ],
      "stateMutability": "payable",
      "type": "function"
    },
    {
      "inputs": [
        {
          "internalType": "address",
          "name": "paymentMethod",
          "type": "address"
        },
        {
          "internalType": "string",
          "name": "name",
          "type": "string"
        },
        {
          "internalType": "uint256",
          "name": "yearsPeriod",
          "type": "uint256"
        },
        {
          "internalType": "string",
          "name": "_tokenURI",
          "type": "string"
        },
        {
          "internalType": "address",
          "name": "to",
          "type": "address"
        }
      ],
      "name": "purchaseName",
      "outputs": [
        {
          "internalType": "uint256",
          "name": "",
          "type": "uint256"
        }
      ],
      "stateMutability": "payable",
      "type": "function"
    },
    {
      "inputs": [
        {
          "internalType": "address",
          "name": "_erc20token",
          "type": "address"
        }
      ],
      "name": "removeErc20Token",
      "outputs": [],
      "stateMutability": "nonpayable",
      "type": "function"
    },
    {
      "inputs": [],
      "name": "renounceOwnership",
      "outputs": [],
      "stateMutability": "nonpayable",
      "type": "function"
    },
    {
      "inputs": [],
      "name": "reserveWallet",
      "outputs": [
        {
          "internalType": "address",
          "name": "",
          "type": "address"
        }
      ],
      "stateMutability": "view",
      "type": "function"
    },
    {
      "inputs": [
        {
          "internalType": "address",
          "name": "_masaToken",
          "type": "address"
        }
      ],
      "name": "setMasaToken",
      "outputs": [],
      "stateMutability": "nonpayable",
      "type": "function"
    },
    {
      "inputs": [
        {
          "internalType": "uint256",
          "name": "_nameLength",
          "type": "uint256"
        },
        {
          "internalType": "uint256",
          "name": "_nameRegistrationPricePerYear",
          "type": "uint256"
        }
      ],
      "name": "setNameRegistrationPricePerYear",
      "outputs": [],
      "stateMutability": "nonpayable",
      "type": "function"
    },
    {
      "inputs": [
        {
          "internalType": "address",
          "name": "_reserveWallet",
          "type": "address"
        }
      ],
      "name": "setReserveWallet",
      "outputs": [],
      "stateMutability": "nonpayable",
      "type": "function"
    },
    {
      "inputs": [
        {
          "internalType": "contract ISoulboundIdentity",
          "name": "_soulboundIdentity",
          "type": "address"
        }
      ],
      "name": "setSoulboundIdentity",
      "outputs": [],
      "stateMutability": "nonpayable",
      "type": "function"
    },
    {
      "inputs": [
        {
          "internalType": "address",
          "name": "_stableCoin",
          "type": "address"
        }
      ],
      "name": "setStableCoin",
      "outputs": [],
      "stateMutability": "nonpayable",
      "type": "function"
    },
    {
      "inputs": [
        {
          "internalType": "address",
          "name": "_swapRouter",
          "type": "address"
        }
      ],
      "name": "setSwapRouter",
      "outputs": [],
      "stateMutability": "nonpayable",
      "type": "function"
    },
    {
      "inputs": [
        {
          "internalType": "address",
          "name": "_wrappedNativeToken",
          "type": "address"
        }
      ],
      "name": "setWrappedNativeToken",
      "outputs": [],
      "stateMutability": "nonpayable",
      "type": "function"
    },
    {
      "inputs": [],
      "name": "soulboundIdentity",
      "outputs": [
        {
          "internalType": "contract ISoulboundIdentity",
          "name": "",
          "type": "address"
        }
      ],
      "stateMutability": "view",
      "type": "function"
    },
    {
      "inputs": [],
      "name": "stableCoin",
      "outputs": [
        {
          "internalType": "address",
          "name": "",
          "type": "address"
        }
      ],
      "stateMutability": "view",
      "type": "function"
    },
    {
      "inputs": [],
      "name": "swapRouter",
      "outputs": [
        {
          "internalType": "address",
          "name": "",
          "type": "address"
        }
      ],
      "stateMutability": "view",
      "type": "function"
    },
    {
      "inputs": [
        {
          "internalType": "address",
          "name": "newOwner",
          "type": "address"
        }
      ],
      "name": "transferOwnership",
      "outputs": [],
      "stateMutability": "nonpayable",
      "type": "function"
    },
    {
      "inputs": [],
      "name": "unpause",
      "outputs": [],
      "stateMutability": "nonpayable",
      "type": "function"
    },
    {
      "inputs": [],
      "name": "wrappedNativeToken",
      "outputs": [
        {
          "internalType": "address",
          "name": "",
          "type": "address"
        }
      ],
      "stateMutability": "view",
      "type": "function"
    }
  ],
  "transactionHash": "0x85cb2a63c9ea93a930d5f782719d09f8029e9b6572259f44410c77bd1b9a1bbc",
  "args": [
    "0x3c8D9f130970358b7E8cbc1DbD0a1EbA6EBE368F",
    "0x270265B1c6b31ae53f75BC2f6a5D5F7f422BB9e8",
    "10000000",
    [
      "0x7a250d5630B4cF539739dF2C5dAcb4c659F2488D",
      "0xB4FBF271143F4FBf7B91A5ded31805e42b2208d6",
      "0xD87Ba7A50B2E7E660f678A895E4B72E7CB4CCd9C",
      "0x1f9840a85d5aF5bf1D1762F925BDADdC4201F984",
      "0x3c8D9f130970358b7E8cbc1DbD0a1EbA6EBE368F"
    ]
  ],
  "numDeployments": 6,
  "solcInputHash": "adb7df6c4da0f29fe9daa4da8d1fe01f",
  "bytecode": "0x60806040523480156200001157600080fd5b50604051620029bb380380620029bb833981016040819052620000349162000385565b8381620000413362000204565b80516001600160a01b0316620000745760405162461bcd60e51b81526004016200006b9062000498565b60405180910390fd5b60208101516001600160a01b0316620000a15760405162461bcd60e51b81526004016200006b9062000498565b60408101516001600160a01b0316620000ce5760405162461bcd60e51b81526004016200006b9062000498565b60808101516001600160a01b0316620000fb5760405162461bcd60e51b81526004016200006b9062000498565b62000111826200025460201b62000d0f1760201c565b8051600180546001600160a01b03199081166001600160a01b039384161790915560208301516002805483169184169190911790556040830151600380548316918416919091179055606083015160048054909216908316179055608090910151600780549183166001600160a81b0319909216919091179055841615159050620001b05760405162461bcd60e51b81526004016200006b9062000498565b50600880546001600160a01b0319166001600160a01b0393909316929092179091556000805260096020527fec8156718a8372b1db44bb411437d0870f3e3790d4a08526d024ce1b0b668f6b555062000568565b600080546001600160a01b038381166001600160a01b0319831681178455604051919092169283917f8be0079c531659141344cd1fd0a4f28419497f9722a3daafe3b4186f6b6457e09190a35050565b6200025e62000295565b6001600160a01b038116620002875760405162461bcd60e51b81526004016200006b906200044d565b620002928162000204565b50565b6000546001600160a01b03163314620002c25760405162461bcd60e51b81526004016200006b90620004aa565b565b8051620002d1816200053f565b92915050565b8051620002d18162000556565b600060a08284031215620002fb57620002fb600080fd5b6200030760a0620004bc565b90506000620003178484620002c4565b82525060206200032a84848301620002c4565b60208301525060406200034084828501620002c4565b60408301525060606200035684828501620002c4565b60608301525060806200036c84828501620002c4565b60808301525092915050565b8051620002d18162000561565b6000806000806101008587031215620003a157620003a1600080fd5b6000620003af8787620002c4565b9450506020620003c287828801620002d7565b9350506040620003d58782880162000378565b9250506060620003e887828801620002e4565b91505092959194509250565b600c81526000602082016b5a45524f5f4144445245535360a01b815291505b5060200190565b60208082527f4f776e61626c653a2063616c6c6572206973206e6f7420746865206f776e65729101908152600062000413565b60208082528101620002d181602681527f4f776e61626c653a206e6577206f776e657220697320746865207a65726f206160208201526564647265737360d01b604082015260600190565b60208082528101620002d181620003f4565b60208082528101620002d1816200041a565b6000620004c860405190565b9050620004d68282620004fa565b919050565b60006001600160a01b038216620002d1565b6000620002d182620004db565b601f19601f83011681018181106001600160401b038211171562000522576200052262000529565b6040525050565b634e487b7160e01b600052604160045260246000fd5b6200054a81620004db565b81146200029257600080fd5b6200054a81620004ed565b806200054a565b61244380620005786000396000f3fe60806040526004361061015d5760003560e01c806312553e411461016257806317fcb39b1461018057806323af4e17146101ad5780632d9c7a3f146101cf5780633ad3033e146101ef5780633f4ba83a1461020f57806340e868761461022457806341273657146102375780635c975abb146102575780636a4acb3a146102795780636d03653514610299578063715018a6146102bb57806374a99f8b146102d057806376ad1997146102f057806377bed5ed146103105780638456cb591461033d5780638da5cb5b146103525780639800c10514610367578063992642e514610387578063a31b99b0146103a7578063bd5c2976146103c7578063c31c9c07146103e7578063d72b11bd14610407578063da058ae314610427578063dcbed00814610447578063dda4fa8f14610477578063e275c88714610497578063eaf94aec146104aa578063ebda4396146104d7578063f2fde38b146104f7575b600080fd5b61016a610517565b60405161017791906121f0565b60405180910390f35b34801561018c57600080fd5b506002546101a0906001600160a01b031681565b604051610177919061205b565b3480156101b957600080fd5b506101cd6101c83660046119c5565b61052f565b005b3480156101db57600080fd5b5061016a6101ea366004611c31565b6105b6565b3480156101fb57600080fd5b506101cd61020a366004611c10565b610603565b34801561021b57600080fd5b506101cd610681565b61016a610232366004611ae8565b610693565b34801561024357600080fd5b506101cd6102523660046119c5565b6106cf565b34801561026357600080fd5b5061026c61074d565b60405161017791906120e3565b34801561028557600080fd5b506101cd6102943660046119c5565b61075d565b3480156102a557600080fd5b506102ae61082a565b60405161017791906120d2565b3480156102c757600080fd5b506101cd61088c565b3480156102dc57600080fd5b506101cd6102eb366004611cad565b61089e565b3480156102fc57600080fd5b506101cd61030b3660046119c5565b6108e6565b34801561031c57600080fd5b50600854610330906001600160a01b031681565b60405161017791906120f1565b34801561034957600080fd5b506101cd61093e565b34801561035e57600080fd5b506101a061094e565b34801561037357600080fd5b506101cd6103823660046119c5565b61095d565b34801561039357600080fd5b506003546101a0906001600160a01b031681565b3480156103b357600080fd5b5061016a6103c23660046119e6565b610aed565b3480156103d357600080fd5b506101a06103e2366004611c6b565b610bb7565b3480156103f357600080fd5b506001546101a0906001600160a01b031681565b34801561041357600080fd5b506007546101a0906001600160a01b031681565b34801561043357600080fd5b506101cd6104423660046119c5565b610be1565b34801561045357600080fd5b5061026c6104623660046119c5565b60056020526000908152604090205460ff1681565b34801561048357600080fd5b506101cd6104923660046119c5565b610c5f565b61016a6104a5366004611a50565b610cdd565b3480156104b657600080fd5b5061016a6104c5366004611c6b565b60096020526000908152604090205481565b3480156104e357600080fd5b506004546101a0906001600160a01b031681565b34801561050357600080fd5b506101cd6105123660046119c5565b610d0f565b6000610521610d49565b61052a33610d6e565b905090565b610537610e3e565b6001600160a01b0381166105665760405162461bcd60e51b815260040161055d90612170565b60405180910390fd5b6003546001600160a01b03828116911614156105945760405162461bcd60e51b815260040161055d90612150565b600380546001600160a01b0319166001600160a01b0392909216919091179055565b8051600081815260096020526040812054909190806105fc57506000805260096020527fec8156718a8372b1db44bb411437d0870f3e3790d4a08526d024ce1b0b668f6b545b9392505050565b61060b610e3e565b6001600160a01b0381166106315760405162461bcd60e51b815260040161055d90612170565b6008546001600160a01b038281169116141561065f5760405162461bcd60e51b815260040161055d90612150565b600880546001600160a01b0319166001600160a01b0392909216919091179055565b610689610e3e565b610691610e6d565b565b600061069d610d49565b6106b9866106b4866106ae896105b6565b90610ebc565b610ed1565b6106c5828686866110d2565b9695505050505050565b6106d7610e3e565b6001600160a01b0381166106fd5760405162461bcd60e51b815260040161055d90612170565b6001546001600160a01b038281169116141561072b5760405162461bcd60e51b815260040161055d90612150565b600180546001600160a01b0319166001600160a01b0392909216919091179055565b600754600160a01b900460ff1690565b610765610e3e565b6001600160a01b03811661078b5760405162461bcd60e51b815260040161055d90612170565b6001600160a01b03811660009081526005602052604090205460ff16156107c45760405162461bcd60e51b815260040161055d906121c0565b6001600160a01b03166000818152600560205260408120805460ff191660019081179091556006805491820181559091527ff652222313e28459528d920b65115c16c04f3efc82aaedc97be59f3f377c0d3f0180546001600160a01b0319169091179055565b6060600680548060200260200160405190810160405280929190818152602001828054801561088257602002820191906000526020600020905b81546001600160a01b03168152600190910190602001808311610864575b5050505050905090565b610894610e3e565b6106916000611248565b6108a6610e3e565b6000828152600960205260409020548114156108d45760405162461bcd60e51b815260040161055d90612150565b60009182526009602052604090912055565b6108ee610e3e565b6004546001600160a01b038281169116141561091c5760405162461bcd60e51b815260040161055d90612150565b600480546001600160a01b0319166001600160a01b0392909216919091179055565b610946610e3e565b610691611298565b6000546001600160a01b031690565b610965610e3e565b6001600160a01b03811661098b5760405162461bcd60e51b815260040161055d90612170565b6001600160a01b03811660009081526005602052604090205460ff166109c35760405162461bcd60e51b815260040161055d90612120565b6001600160a01b0381166000908152600560205260408120805460ff191690555b600654811015610ae957816001600160a01b031660068281548110610a0b57610a0b6123ac565b6000918252602090912001546001600160a01b03161415610ad75760068054610a36906001906122c2565b81548110610a4657610a466123ac565b600091825260209091200154600680546001600160a01b039092169183908110610a7257610a726123ac565b9060005260206000200160006101000a8154816001600160a01b0302191690836001600160a01b031602179055506006805480610ab157610ab1612396565b600082815260209020810160001990810180546001600160a01b03191690550190555050565b80610ae181612365565b9150506109e4565b5050565b600080610afd836106ae866105b6565b90506001600160a01b038516610b2b57600254610b23906001600160a01b0316826112db565b9150506105fc565b6003546001600160a01b038681169116148015610b6057506001600160a01b03851660009081526005602052604090205460ff165b15610b6c5790506105fc565b6001600160a01b03851660009081526005602052604090205460ff1615610b9757610b2385826112db565b60405162461bcd60e51b815260040161055d90612190565b509392505050565b60068181548110610bc757600080fd5b6000918252602090912001546001600160a01b0316905081565b610be9610e3e565b6001600160a01b038116610c0f5760405162461bcd60e51b815260040161055d90612170565b6002546001600160a01b0382811691161415610c3d5760405162461bcd60e51b815260040161055d90612150565b600280546001600160a01b0319166001600160a01b0392909216919091179055565b610c67610e3e565b6001600160a01b038116610c8d5760405162461bcd60e51b815260040161055d90612170565b6007546001600160a01b0382811691161415610cbb5760405162461bcd60e51b815260040161055d90612150565b600780546001600160a01b0319166001600160a01b0392909216919091179055565b6000610ce7610d49565b610cf8856106b4856106ae886105b6565b610d0433858585611360565b90505b949350505050565b610d17610e3e565b6001600160a01b038116610d3d5760405162461bcd60e51b815260040161055d90612130565b610d4681611248565b50565b610d5161074d565b156106915760405162461bcd60e51b815260040161055d90612160565b6008546040516335313c2160e11b815260009182916001600160a01b0390911690636a62784290610da390869060040161205b565b602060405180830381600087803b158015610dbd57600080fd5b505af1158015610dd1573d6000803e3d6000fd5b505050506040513d601f19601f82011682018060405250810190610df59190611c8c565b9050826001600160a01b03167fe6fdadff80ae44015b9aa37d4edb70f70a8db7535a0df98de6dc5ffd11ec0c2f82604051610e3091906121f0565b60405180910390a292915050565b33610e4761094e565b6001600160a01b0316146106915760405162461bcd60e51b815260040161055d906121a0565b610e75611451565b6007805460ff60a01b191690557f5db9ee0a495bf2e6ff9c91a7834c1ba4fdd244a5e8aa4e537bd38aeae4b073aa335b604051610eb2919061205b565b60405180910390a1565b6000610ec882846122a3565b90505b92915050565b80610eda575050565b6001600160a01b03821661102b57600254600090610f01906001600160a01b0316836112db565b905080341015610f235760405162461bcd60e51b815260040161055d906121b0565b6007546040516000916001600160a01b0316908390610f4190612053565b60006040518083038185875af1925050503d8060008114610f7e576040519150601f19603f3d011682016040523d82523d6000602084013e610f83565b606091505b5050905080610fa45760405162461bcd60e51b815260040161055d90612180565b81341115611025576000610fb83484611475565b9050336001600160a01b031681604051610fd190612053565b60006040518083038185875af1925050503d806000811461100e576040519150601f19603f3d011682016040523d82523d6000602084013e611013565b606091505b5050809250508161102357600080fd5b505b50505050565b6003546001600160a01b03838116911614801561106057506001600160a01b03821660009081526005602052604090205460ff165b1561108157600754610ae9906001600160a01b038481169133911684611481565b6001600160a01b03821660009081526005602052604090205460ff1615610b975760006110ae83836112db565b6007549091506110cd906001600160a01b038581169133911684611481565b505050565b600080600860009054906101000a90046001600160a01b03166001600160a01b031663b507d4816040518163ffffffff1660e01b815260040160206040518083038186803b15801561112357600080fd5b505afa158015611137573d6000803e3d6000fd5b505050506040513d601f19601f8201168201806040525081019061115b9190611bef565b90506000816001600160a01b0316633dd90430888888886040518563ffffffff1660e01b81526004016111919493929190612091565b602060405180830381600087803b1580156111ab57600080fd5b505af11580156111bf573d6000803e3d6000fd5b505050506040513d601f19601f820116820180604052508101906111e39190611c8c565b9050856040516111f39190612047565b6040518091039020876001600160a01b03167f32044e50415e96c0068a718b8df9993f4803b2e54518d56c52ef6438a91619aa838860405161123692919061221e565b60405180910390a39695505050505050565b600080546001600160a01b038381166001600160a01b0319831681178455604051919092169283917f8be0079c531659141344cd1fd0a4f28419497f9722a3daafe3b4186f6b6457e09190a35050565b6112a0610d49565b6007805460ff60a01b1916600160a01b1790557f62e78cea01bee320cd4e420270b5ea74000d11b0c9f74754ebdbfc544b05a258610ea53390565b6002546000906001600160a01b038481169116148061131257506001600160a01b03831660009081526005602052604090205460ff165b801561132c57506003546001600160a01b03848116911614155b6113485760405162461bcd60e51b815260040161055d90612140565b600354610ec89084906001600160a01b0316846114d9565b6008546040516328a0a29f60e11b815260009182916001600160a01b0390911690635141453e9061139b908990899089908990600401612091565b602060405180830381600087803b1580156113b557600080fd5b505af11580156113c9573d6000803e3d6000fd5b505050506040513d601f19601f820116820180604052508101906113ed9190611c8c565b9050846040516113fd9190612047565b6040518091039020866001600160a01b03167f60579b770d8bde9b5f57c468ffb4acb023252b190304137b45b86b72f66a1940838760405161144092919061221e565b60405180910390a395945050505050565b61145961074d565b6106915760405162461bcd60e51b815260040161055d90612110565b6000610ec882846122c2565b611025846323b872dd60e01b8585856040516024016114a293929190612069565b60408051601f198184030181529190526020810180516001600160e01b03166001600160e01b031990931692909217909152611597565b60006060806114e88686611626565b6001546040516307c0329d60e21b81529192506001600160a01b031690631f00ca749061151b90879085906004016121fe565b60006040518083038186803b15801561153357600080fd5b505afa158015611547573d6000803e3d6000fd5b505050506040513d6000823e601f3d908101601f1916820160405261156f9190810190611b94565b915081600081518110611584576115846123ac565b6020026020010151925050509392505050565b60006115ec826040518060400160405280602081526020017f5361666545524332303a206c6f772d6c6576656c2063616c6c206661696c6564815250856001600160a01b03166117b89092919063ffffffff16565b8051909150156110cd578080602001905181019061160a9190611bce565b6110cd5760405162461bcd60e51b815260040161055d906121e0565b6002546060906001600160a01b038481169116148061165257506002546001600160a01b038381169116145b1561171c57604080516002808252606082018352600092602083019080368337019050506002549091506001600160a01b0385811691161461169457836116a1565b6002546001600160a01b03165b816000815181106116b4576116b46123ac565b6001600160a01b0392831660209182029290920101526002548482169116146116dd57826116ea565b6002546001600160a01b03165b816001815181106116fd576116fd6123ac565b6001600160a01b03909216602092830291909101909101529050610ecb565b60408051600380825260808201909252600091602082016060803683370190505090508381600081518110611753576117536123ac565b6001600160a01b039283166020918202929092010152600254825191169082906001908110611784576117846123ac565b60200260200101906001600160a01b031690816001600160a01b03168152505082816002815181106116fd576116fd6123ac565b6060610d078484600085856001600160a01b0385163b6117ea5760405162461bcd60e51b815260040161055d906121d0565b600080866001600160a01b031685876040516118069190612047565b60006040518083038185875af1925050503d8060008114611843576040519150601f19603f3d011682016040523d82523d6000602084013e611848565b606091505b5091509150611858828286611863565b979650505050505050565b606083156118725750816105fc565b8251156118825782518084602001fd5b8160405162461bcd60e51b815260040161055d91906120ff565b60006118af6118aa84612255565b612239565b905080838252602082019050828560208602820111156118d1576118d1600080fd5b60005b858110156118fd57816118e788826119ba565b84525060209283019291909101906001016118d4565b5050509392505050565b60006119156118aa84612278565b90508281526020810184848401111561193057611930600080fd5b610baf848285612300565b8035610ecb816123e2565b600082601f83011261195a5761195a600080fd5b8151610d0784826020860161189c565b8051610ecb816123f6565b8051610ecb816123fe565b8035610ecb816123fe565b600082601f83011261199f5761199f600080fd5b8135610d07848260208601611907565b8035610ecb81612407565b8051610ecb81612407565b6000602082840312156119da576119da600080fd5b6000610d07848461193b565b6000806000606084860312156119fe576119fe600080fd5b6000611a0a868661193b565b93505060208401356001600160401b03811115611a2957611a29600080fd5b611a358682870161198b565b9250506040611a46868287016119af565b9150509250925092565b60008060008060808587031215611a6957611a69600080fd5b6000611a75878761193b565b94505060208501356001600160401b03811115611a9457611a94600080fd5b611aa08782880161198b565b9350506040611ab1878288016119af565b92505060608501356001600160401b03811115611ad057611ad0600080fd5b611adc8782880161198b565b91505092959194509250565b600080600080600060a08688031215611b0357611b03600080fd5b6000611b0f888861193b565b95505060208601356001600160401b03811115611b2e57611b2e600080fd5b611b3a8882890161198b565b9450506040611b4b888289016119af565b93505060608601356001600160401b03811115611b6a57611b6a600080fd5b611b768882890161198b565b9250506080611b878882890161193b565b9150509295509295909350565b600060208284031215611ba957611ba9600080fd5b81516001600160401b03811115611bc257611bc2600080fd5b610d0784828501611946565b600060208284031215611be357611be3600080fd5b6000610d07848461196a565b600060208284031215611c0457611c04600080fd5b6000610d078484611975565b600060208284031215611c2557611c25600080fd5b6000610d078484611980565b600060208284031215611c4657611c46600080fd5b81356001600160401b03811115611c5f57611c5f600080fd5b610d078482850161198b565b600060208284031215611c8057611c80600080fd5b6000610d0784846119af565b600060208284031215611ca157611ca1600080fd5b6000610d0784846119ba565b60008060408385031215611cc357611cc3600080fd5b6000611ccf85856119af565b9250506020611ce0858286016119af565b9150509250929050565b6000611cf68383611cfe565b505060200190565b611d07816122d9565b82525050565b6000611d17825190565b80845260209384019383018060005b83811015611d4b578151611d3a8882611cea565b975060208301925050600101611d26565b509495945050505050565b801515611d07565b6000611d68825190565b611d7681856020860161230c565b9290920192915050565b611d07816122f5565b6000611d93825190565b808452602084019350611daa81856020860161230c565b611db3816123d8565b9093019392505050565b601481526000602082017314185d5cd8589b194e881b9bdd081c185d5cd95960621b815291505b5060200190565b60188152600060208201772727aa2fa2ac24a9a4aa24a723afa2a92199182a27a5a2a760411b81529150611de4565b602681526000602082017f4f776e61626c653a206e6577206f776e657220697320746865207a65726f206181526564647265737360d01b602082015291505b5060400190565b600d81526000602082016c24a72b20a624a22faa27a5a2a760991b81529150611de4565b600a81526000602082016953414d455f56414c554560b01b81529150611de4565b601081526000602082016f14185d5cd8589b194e881c185d5cd95960821b81529150611de4565b600c81526000602082016b5a45524f5f4144445245535360a01b81529150611de4565b600f81526000602082016e1514905394d1915497d19052531151608a1b81529150611de4565b60168152600060208201751253959053125117d410565351539517d351551213d160521b81529150611de4565b60208082527f4f776e61626c653a2063616c6c6572206973206e6f7420746865206f776e657291019081526000611de4565b6017815260006020820176125394d551919250d251539517d1551217d05353d55395604a1b81529150611de4565b600d81526000602082016c1053149150511657d051111151609a1b81529150611de4565b601d81526000602082017f416464726573733a2063616c6c20746f206e6f6e2d636f6e747261637400000081529150611de4565b602a81526000602082017f5361666545524332303a204552433230206f7065726174696f6e20646964206e8152691bdd081cdd58d8d9595960b21b60208201529150611e59565b80611d07565b60006105fc8284611d5e565b600081610ecb565b60208101610ecb8284611cfe565b606081016120778286611cfe565b6120846020830185611cfe565b610d076040830184612041565b6080810161209f8287611cfe565b81810360208301526120b18186611d89565b90506120c06040830185612041565b81810360608301526106c58184611d89565b60208082528101610ec88184611d0d565b60208101610ecb8284611d56565b60208101610ecb8284611d80565b60208082528101610ec88184611d89565b60208082528101610ecb81611dbd565b60208082528101610ecb81611deb565b60208082528101610ecb81611e1a565b60208082528101610ecb81611e60565b60208082528101610ecb81611e84565b60208082528101610ecb81611ea5565b60208082528101610ecb81611ecc565b60208082528101610ecb81611eef565b60208082528101610ecb81611f15565b60208082528101610ecb81611f42565b60208082528101610ecb81611f74565b60208082528101610ecb81611fa2565b60208082528101610ecb81611fc6565b60208082528101610ecb81611ffa565b60208101610ecb8284612041565b6040810161220c8285612041565b8181036020830152610d078184611d0d565b6040810161222c8285612041565b6105fc6020830184612041565b600061224460405190565b90506122508282612338565b919050565b60006001600160401b0382111561226e5761226e6123c2565b5060209081020190565b60006001600160401b03821115612291576122916123c2565b61229a826123d8565b60200192915050565b60008160001904831182151516156122bd576122bd612380565b500290565b6000828210156122d4576122d4612380565b500390565b60006001600160a01b038216610ecb565b6000610ecb826122d9565b6000610ecb826122ea565b82818337506000910152565b60005b8381101561232757818101518382015260200161230f565b838111156110255750506000910152565b612341826123d8565b81018181106001600160401b038211171561235e5761235e6123c2565b6040525050565b600060001982141561237957612379612380565b5060010190565b634e487b7160e01b600052601160045260246000fd5b634e487b7160e01b600052603160045260246000fd5b634e487b7160e01b600052603260045260246000fd5b634e487b7160e01b600052604160045260246000fd5b601f01601f191690565b6123eb816122d9565b8114610d4657600080fd5b8015156123eb565b6123eb816122ea565b806123eb56fea2646970667358221220445e01896cacd53e6a3b3fe3abb964a1be6321c73489b3f806362e9d4997cdf464736f6c63430008070033",
  "devdoc": {
    "author": "Masa Finance",
    "details": "From this smart contract we can mint new Soulbound Identities and Soul Name NFTs. This minting can be done paying a fee in ETH, USDC or $MASA",
    "kind": "dev",
    "methods": {
      "addErc20Token(address)": {
        "details": "The caller must have the owner to call this function",
        "params": {
          "_erc20token": "New ERC20 token to add"
        }
      },
      "constructor": {
        "details": "Creates a new Soul Store, that has the role to minting new Soulbound Identities and Soul Name NFTs, paying a fee",
        "params": {
          "_nameRegistrationPricePerYear": "Price of the default name registering in stable coin per year",
          "_soulBoundIdentity": "Address of the Soulbound identity contract",
          "owner": "Owner of the smart contract",
          "paymentParams": "Payment gateway params"
        }
      },
      "getErc20Tokens()": {
        "details": "Returns the address of all available ERC 20 tokens",
        "returns": {
          "_0": "Array of all enabled ERC20 tokens"
        }
      },
      "getNameRegistrationPricePerYear(string)": {
        "details": "Returns the price for registering per year in USD for an specific name length",
        "params": {
          "nameLength": "Length of the name"
        },
        "returns": {
          "_0": "Price in stable coin for that name length"
        }
      },
      "getPriceForMintingName(address,string,uint256)": {
        "details": "Returns current pricing for name minting for a given name length and years period",
        "params": {
          "name": "Name of the new soul name",
          "paymentMethod": "Address of token that user want to pay",
          "yearsPeriod": "Years of validity of the name"
        },
        "returns": {
          "_0": "Current price of the name minting in the given payment method"
        }
      },
      "owner()": {
        "details": "Returns the address of the current owner."
      },
      "pause()": {
        "details": "The caller must have the owner to call this function"
      },
      "paused()": {
        "details": "Returns true if the contract is paused, and false otherwise."
      },
      "purchaseIdentity()": {
        "details": "This function allows the purchase of a soulbound identity for free",
        "returns": {
          "_0": "TokenId of the new soulbound identity"
        }
      },
      "purchaseIdentityAndName(address,string,uint256,string)": {
        "details": "This function allows the purchase of a soulbound identity and name using stable coin (USDC), native token (ETH) or utility token ($MASA)",
        "params": {
          "_tokenURI": "URI of the NFT",
          "name": "Name of the new soul name",
          "paymentMethod": "Address of token that user want to pay",
          "yearsPeriod": "Years of validity of the name"
        },
        "returns": {
          "_0": "TokenId of the new soulbound identity"
        }
      },
      "purchaseName(address,string,uint256,string,address)": {
        "details": "This function allows the purchase of a soul name using stable coin (USDC), native token (ETH) or utility token ($MASA)",
        "params": {
          "_tokenURI": "URI of the NFT",
          "name": "Name of the new soul name",
          "paymentMethod": "Address of token that user want to pay",
          "to": "Address of the new owner of the soul name",
          "yearsPeriod": "Years of validity of the name"
        },
        "returns": {
          "_0": "TokenId of the new sou name"
        }
      },
      "removeErc20Token(address)": {
        "details": "The caller must have the owner to call this function",
        "params": {
          "_erc20token": "ERC20 token to remove"
        }
      },
      "renounceOwnership()": {
        "details": "Leaves the contract without owner. It will not be possible to call `onlyOwner` functions anymore. Can only be called by the current owner. NOTE: Renouncing ownership will leave the contract without an owner, thereby removing any functionality that is only available to the owner."
      },
      "setMasaToken(address)": {
        "details": "The caller must have the owner to call this function It can be set to address(0) to disable paying in $MASA",
        "params": {
          "_masaToken": "New utility token to pay the fee in"
        }
      },
      "setNameRegistrationPricePerYear(uint256,uint256)": {
        "details": "The caller must have the owner to call this function",
        "params": {
          "_nameLength": "Length of the name",
          "_nameRegistrationPricePerYear": "New price of the name registering per one year in stable coin for that name length per year"
        }
      },
      "setReserveWallet(address)": {
        "details": "Let change the reserve walled. It can be triggered by an authorized account.",
        "params": {
          "_reserveWallet": "New reserve wallet"
        }
      },
      "setSoulboundIdentity(address)": {
        "details": "The caller must have the owner to call this function",
        "params": {
          "_soulboundIdentity": "New SoulboundIdentity contract address"
        }
      },
      "setStableCoin(address)": {
        "details": "The caller must have the owner to call this function",
        "params": {
          "_stableCoin": "New stable coin to pay the fee in"
        }
      },
      "setSwapRouter(address)": {
        "details": "The caller must have the owner to call this function",
        "params": {
          "_swapRouter": "New swap router address"
        }
      },
      "setWrappedNativeToken(address)": {
        "details": "The caller must have the owner to call this function",
        "params": {
          "_wrappedNativeToken": "New wrapped native token address"
        }
      },
      "transferOwnership(address)": {
        "details": "Transfers ownership of the contract to a new account (`newOwner`). Can only be called by the current owner."
      },
      "unpause()": {
        "details": "The caller must have the owner to call this function"
      }
    },
    "title": "Soul Store",
    "version": 1
  },
  "userdoc": {
    "kind": "user",
    "methods": {
      "addErc20Token(address)": {
        "notice": "Adds a new ERC20 token as a valid payment method"
      },
      "constructor": {
        "notice": "Creates a new Soul Store"
      },
      "getErc20Tokens()": {
        "notice": "Returns all available ERC 20 tokens"
      },
      "getNameRegistrationPricePerYear(string)": {
        "notice": "Returns the price of register a name per year in stable coin for an specific length"
      },
      "getPriceForMintingName(address,string,uint256)": {
        "notice": "Returns the price of the name minting"
      },
      "pause()": {
        "notice": "Pauses the smart contract"
      },
      "purchaseIdentity()": {
        "notice": "Mints a new Soulbound Identity purchasing it"
      },
      "purchaseIdentityAndName(address,string,uint256,string)": {
        "notice": "Mints a new Soulbound Identity and Name purchasing it"
      },
      "purchaseName(address,string,uint256,string,address)": {
        "notice": "Mints a new Soul Name purchasing it"
      },
      "removeErc20Token(address)": {
        "notice": "Removes an ERC20 token as a valid payment method"
      },
      "setMasaToken(address)": {
        "notice": "Sets the utility token to pay the fee in ($MASA)"
      },
      "setNameRegistrationPricePerYear(uint256,uint256)": {
        "notice": "Sets the price of the name registering per one year in stable coin"
      },
      "setReserveWallet(address)": {
        "notice": "Set the reserve wallet"
      },
      "setSoulboundIdentity(address)": {
        "notice": "Sets the SoulboundIdentity contract address linked to this store"
      },
      "setStableCoin(address)": {
        "notice": "Sets the stable coin to pay the fee in (USDC)"
      },
      "setSwapRouter(address)": {
        "notice": "Sets the swap router address"
      },
      "setWrappedNativeToken(address)": {
        "notice": "Sets the wrapped native token address"
      },
      "unpause()": {
        "notice": "Unpauses the smart contract"
      }
    },
    "notice": "Soul Store, that can mint new Soulbound Identities and Soul Name NFTs, paying a fee",
    "version": 1
  },
  "storageLayout": {
    "storage": [
      {
        "astId": 400,
        "contract": "contracts/SoulStore.sol:SoulStore",
        "label": "_owner",
        "offset": 0,
        "slot": "0",
        "type": "t_address"
      },
      {
        "astId": 7608,
        "contract": "contracts/SoulStore.sol:SoulStore",
        "label": "swapRouter",
        "offset": 0,
        "slot": "1",
        "type": "t_address"
      },
      {
        "astId": 7610,
        "contract": "contracts/SoulStore.sol:SoulStore",
        "label": "wrappedNativeToken",
        "offset": 0,
        "slot": "2",
        "type": "t_address"
      },
      {
        "astId": 7612,
        "contract": "contracts/SoulStore.sol:SoulStore",
        "label": "stableCoin",
        "offset": 0,
        "slot": "3",
        "type": "t_address"
      },
      {
        "astId": 7614,
        "contract": "contracts/SoulStore.sol:SoulStore",
        "label": "masaToken",
        "offset": 0,
        "slot": "4",
        "type": "t_address"
      },
      {
        "astId": 7618,
        "contract": "contracts/SoulStore.sol:SoulStore",
        "label": "erc20token",
        "offset": 0,
        "slot": "5",
        "type": "t_mapping(t_address,t_bool)"
      },
      {
        "astId": 7621,
        "contract": "contracts/SoulStore.sol:SoulStore",
        "label": "erc20tokens",
        "offset": 0,
        "slot": "6",
        "type": "t_array(t_address)dyn_storage"
      },
      {
        "astId": 7623,
        "contract": "contracts/SoulStore.sol:SoulStore",
        "label": "reserveWallet",
        "offset": 0,
        "slot": "7",
        "type": "t_address"
      },
      {
        "astId": 523,
        "contract": "contracts/SoulStore.sol:SoulStore",
        "label": "_paused",
        "offset": 20,
        "slot": "7",
        "type": "t_bool"
      },
      {
        "astId": 6454,
        "contract": "contracts/SoulStore.sol:SoulStore",
        "label": "soulboundIdentity",
        "offset": 0,
        "slot": "8",
        "type": "t_contract(ISoulboundIdentity)8395"
      },
      {
        "astId": 6458,
        "contract": "contracts/SoulStore.sol:SoulStore",
        "label": "nameRegistrationPricePerYear",
        "offset": 0,
        "slot": "9",
        "type": "t_mapping(t_uint256,t_uint256)"
      }
    ],
    "types": {
      "t_address": {
        "encoding": "inplace",
        "label": "address",
        "numberOfBytes": "20"
      },
      "t_array(t_address)dyn_storage": {
        "base": "t_address",
        "encoding": "dynamic_array",
        "label": "address[]",
        "numberOfBytes": "32"
      },
      "t_bool": {
        "encoding": "inplace",
        "label": "bool",
        "numberOfBytes": "1"
      },
      "t_contract(ISoulboundIdentity)8395": {
        "encoding": "inplace",
        "label": "contract ISoulboundIdentity",
        "numberOfBytes": "20"
      },
      "t_mapping(t_address,t_bool)": {
        "encoding": "mapping",
        "key": "t_address",
        "label": "mapping(address => bool)",
        "numberOfBytes": "32",
        "value": "t_bool"
      },
      "t_mapping(t_uint256,t_uint256)": {
        "encoding": "mapping",
        "key": "t_uint256",
        "label": "mapping(uint256 => uint256)",
        "numberOfBytes": "32",
        "value": "t_uint256"
      },
      "t_uint256": {
        "encoding": "inplace",
        "label": "uint256",
        "numberOfBytes": "32"
      }
    }
  }
}