{
  "address": "0x0b005aa070af2661af9cd16c15d2144dbef76002",
  "abi": [
    {
      "inputs": [
        {
          "internalType": "address",
          "name": "admin",
          "type": "address"
        },
        {
          "internalType": "string",
          "name": "baseTokenURI",
          "type": "string"
        },
        {
          "internalType": "contract ISoulboundIdentity",
          "name": "soulboundIdentity",
          "type": "address"
        },
        {
          "components": [
            {
              "internalType": "address",
              "name": "swapRouter",
              "type": "address"
            },
            {
              "internalType": "address",
              "name": "wrappedNativeToken",
              "type": "address"
            },
            {
              "internalType": "address",
              "name": "stableCoin",
              "type": "address"
            },
            {
              "internalType": "address",
              "name": "masaToken",
              "type": "address"
            },
            {
              "internalType": "address",
              "name": "reserveWallet",
              "type": "address"
            }
          ],
          "internalType": "struct PaymentGateway.PaymentParams",
          "name": "paymentParams",
          "type": "tuple"
        }
      ],
      "stateMutability": "nonpayable",
      "type": "constructor"
    },
    {
      "inputs": [],
      "name": "AlreadyAdded",
      "type": "error"
    },
    {
      "inputs": [
        {
          "internalType": "address",
          "name": "authority",
          "type": "address"
        }
      ],
      "name": "AuthorityNotExists",
      "type": "error"
    },
    {
      "inputs": [
        {
          "internalType": "address",
          "name": "caller",
          "type": "address"
        }
      ],
      "name": "CallerNotOwner",
      "type": "error"
    },
    {
      "inputs": [
        {
          "internalType": "uint256",
          "name": "amount",
          "type": "uint256"
        }
      ],
      "name": "InsufficientEthAmount",
      "type": "error"
    },
    {
      "inputs": [
        {
          "internalType": "address",
          "name": "paymentMethod",
          "type": "address"
        }
      ],
      "name": "InvalidPaymentMethod",
      "type": "error"
    },
    {
      "inputs": [],
      "name": "InvalidSignature",
      "type": "error"
    },
    {
      "inputs": [
        {
          "internalType": "address",
          "name": "token",
          "type": "address"
        }
      ],
      "name": "InvalidToken",
      "type": "error"
    },
    {
      "inputs": [
        {
          "internalType": "address",
          "name": "erc20token",
          "type": "address"
        }
      ],
      "name": "NonExistingErc20Token",
      "type": "error"
    },
    {
      "inputs": [
        {
          "internalType": "address",
          "name": "signer",
          "type": "address"
        }
      ],
      "name": "NotAuthorized",
      "type": "error"
    },
    {
      "inputs": [],
      "name": "RefundFailed",
      "type": "error"
    },
    {
      "inputs": [],
      "name": "SameValue",
      "type": "error"
    },
    {
      "inputs": [],
      "name": "TransferFailed",
      "type": "error"
    },
    {
      "inputs": [],
      "name": "ZeroAddress",
      "type": "error"
    },
    {
      "anonymous": false,
      "inputs": [
        {
          "indexed": true,
          "internalType": "address",
          "name": "_owner",
          "type": "address"
        },
        {
          "indexed": true,
          "internalType": "uint256",
          "name": "_tokenId",
          "type": "uint256"
        }
      ],
      "name": "Burn",
      "type": "event"
    },
    {
      "anonymous": false,
      "inputs": [
        {
          "indexed": true,
          "internalType": "address",
          "name": "_owner",
          "type": "address"
        },
        {
          "indexed": true,
          "internalType": "uint256",
          "name": "_tokenId",
          "type": "uint256"
        }
      ],
      "name": "Mint",
      "type": "event"
    },
    {
      "anonymous": false,
      "inputs": [
        {
          "indexed": true,
          "internalType": "bytes32",
          "name": "role",
          "type": "bytes32"
        },
        {
          "indexed": true,
          "internalType": "bytes32",
          "name": "previousAdminRole",
          "type": "bytes32"
        },
        {
          "indexed": true,
          "internalType": "bytes32",
          "name": "newAdminRole",
          "type": "bytes32"
        }
      ],
      "name": "RoleAdminChanged",
      "type": "event"
    },
    {
      "anonymous": false,
      "inputs": [
        {
          "indexed": true,
          "internalType": "bytes32",
          "name": "role",
          "type": "bytes32"
        },
        {
          "indexed": true,
          "internalType": "address",
          "name": "account",
          "type": "address"
        },
        {
          "indexed": true,
          "internalType": "address",
          "name": "sender",
          "type": "address"
        }
      ],
      "name": "RoleGranted",
      "type": "event"
    },
    {
      "anonymous": false,
      "inputs": [
        {
          "indexed": true,
          "internalType": "bytes32",
          "name": "role",
          "type": "bytes32"
        },
        {
          "indexed": true,
          "internalType": "address",
          "name": "account",
          "type": "address"
        },
        {
          "indexed": true,
          "internalType": "address",
          "name": "sender",
          "type": "address"
        }
      ],
      "name": "RoleRevoked",
      "type": "event"
    },
    {
      "anonymous": false,
      "inputs": [
        {
          "indexed": false,
          "internalType": "uint256",
          "name": "tokenId",
          "type": "uint256"
        },
        {
          "indexed": false,
          "internalType": "uint256",
          "name": "identityId",
          "type": "uint256"
        },
        {
          "indexed": false,
          "internalType": "address",
          "name": "authorityAddress",
          "type": "address"
        },
        {
          "indexed": false,
          "internalType": "uint256",
          "name": "signatureDate",
          "type": "uint256"
        },
        {
          "indexed": false,
          "internalType": "address",
          "name": "paymentMethod",
          "type": "address"
        },
        {
          "indexed": false,
          "internalType": "uint256",
          "name": "mintPrice",
          "type": "uint256"
        }
      ],
      "name": "Soulbound2FAMinted",
      "type": "event"
    },
    {
      "inputs": [],
      "name": "DEFAULT_ADMIN_ROLE",
      "outputs": [
        {
          "internalType": "bytes32",
          "name": "",
          "type": "bytes32"
        }
      ],
      "stateMutability": "view",
      "type": "function"
    },
    {
      "inputs": [
        {
          "internalType": "address",
          "name": "_authority",
          "type": "address"
        }
      ],
      "name": "addAuthority",
      "outputs": [],
      "stateMutability": "nonpayable",
      "type": "function"
    },
    {
      "inputs": [],
      "name": "addLinkPrice",
      "outputs": [
        {
          "internalType": "uint256",
          "name": "",
          "type": "uint256"
        }
      ],
      "stateMutability": "view",
      "type": "function"
    },
    {
      "inputs": [],
      "name": "addLinkPriceMASA",
      "outputs": [
        {
          "internalType": "uint256",
          "name": "",
          "type": "uint256"
        }
      ],
      "stateMutability": "view",
      "type": "function"
    },
    {
      "inputs": [
        {
          "internalType": "address",
          "name": "",
          "type": "address"
        }
      ],
      "name": "authorities",
      "outputs": [
        {
          "internalType": "bool",
          "name": "",
          "type": "bool"
        }
      ],
      "stateMutability": "view",
      "type": "function"
    },
    {
      "inputs": [
        {
          "internalType": "address",
          "name": "owner",
          "type": "address"
        }
      ],
      "name": "balanceOf",
      "outputs": [
        {
          "internalType": "uint256",
          "name": "",
          "type": "uint256"
        }
      ],
      "stateMutability": "view",
      "type": "function"
    },
    {
      "inputs": [
        {
          "internalType": "uint256",
          "name": "tokenId",
          "type": "uint256"
        }
      ],
      "name": "burn",
      "outputs": [],
      "stateMutability": "nonpayable",
      "type": "function"
    },
    {
      "inputs": [
        {
          "internalType": "address",
          "name": "_paymentMethod",
          "type": "address"
        }
      ],
      "name": "disablePaymentMethod",
      "outputs": [],
      "stateMutability": "nonpayable",
      "type": "function"
    },
    {
      "inputs": [
        {
          "internalType": "address",
          "name": "_paymentMethod",
          "type": "address"
        }
      ],
      "name": "enablePaymentMethod",
      "outputs": [],
      "stateMutability": "nonpayable",
      "type": "function"
    },
    {
      "inputs": [
        {
          "internalType": "address",
          "name": "",
          "type": "address"
        }
      ],
      "name": "enabledPaymentMethod",
      "outputs": [
        {
          "internalType": "bool",
          "name": "",
          "type": "bool"
        }
      ],
      "stateMutability": "view",
      "type": "function"
    },
    {
      "inputs": [
        {
          "internalType": "uint256",
          "name": "",
          "type": "uint256"
        }
      ],
      "name": "enabledPaymentMethods",
      "outputs": [
        {
          "internalType": "address",
          "name": "",
          "type": "address"
        }
      ],
      "stateMutability": "view",
      "type": "function"
    },
    {
      "inputs": [
        {
          "internalType": "uint256",
          "name": "tokenId",
          "type": "uint256"
        }
      ],
      "name": "exists",
      "outputs": [
        {
          "internalType": "bool",
          "name": "",
          "type": "bool"
        }
      ],
      "stateMutability": "view",
      "type": "function"
    },
    {
      "inputs": [],
      "name": "getEnabledPaymentMethods",
      "outputs": [
        {
          "internalType": "address[]",
          "name": "",
          "type": "address[]"
        }
      ],
      "stateMutability": "view",
      "type": "function"
    },
    {
      "inputs": [
        {
          "internalType": "uint256",
          "name": "tokenId",
          "type": "uint256"
        }
      ],
      "name": "getIdentityId",
      "outputs": [
        {
          "internalType": "uint256",
          "name": "",
          "type": "uint256"
        }
      ],
      "stateMutability": "view",
      "type": "function"
    },
    {
      "inputs": [
        {
          "internalType": "address",
          "name": "paymentMethod",
          "type": "address"
        }
      ],
      "name": "getMintPrice",
      "outputs": [
        {
          "internalType": "uint256",
          "name": "",
          "type": "uint256"
        }
      ],
      "stateMutability": "view",
      "type": "function"
    },
    {
      "inputs": [
        {
          "internalType": "bytes32",
          "name": "role",
          "type": "bytes32"
        }
      ],
      "name": "getRoleAdmin",
      "outputs": [
        {
          "internalType": "bytes32",
          "name": "",
          "type": "bytes32"
        }
      ],
      "stateMutability": "view",
      "type": "function"
    },
    {
      "inputs": [
        {
          "internalType": "bytes32",
          "name": "role",
          "type": "bytes32"
        },
        {
          "internalType": "address",
          "name": "account",
          "type": "address"
        }
      ],
      "name": "grantRole",
      "outputs": [],
      "stateMutability": "nonpayable",
      "type": "function"
    },
    {
      "inputs": [
        {
          "internalType": "bytes32",
          "name": "role",
          "type": "bytes32"
        },
        {
          "internalType": "address",
          "name": "account",
          "type": "address"
        }
      ],
      "name": "hasRole",
      "outputs": [
        {
          "internalType": "bool",
          "name": "",
          "type": "bool"
        }
      ],
      "stateMutability": "view",
      "type": "function"
    },
    {
      "inputs": [],
      "name": "masaToken",
      "outputs": [
        {
          "internalType": "address",
          "name": "",
          "type": "address"
        }
      ],
      "stateMutability": "view",
      "type": "function"
    },
    {
      "inputs": [
        {
          "internalType": "address",
          "name": "paymentMethod",
          "type": "address"
        },
        {
          "internalType": "uint256",
          "name": "identityId",
          "type": "uint256"
        },
        {
          "internalType": "address",
          "name": "authorityAddress",
          "type": "address"
        },
        {
          "internalType": "uint256",
          "name": "signatureDate",
          "type": "uint256"
        },
        {
          "internalType": "bytes",
          "name": "signature",
          "type": "bytes"
        }
      ],
      "name": "mint",
      "outputs": [
        {
          "internalType": "uint256",
          "name": "",
          "type": "uint256"
        }
      ],
      "stateMutability": "payable",
      "type": "function"
    },
    {
      "inputs": [
        {
          "internalType": "address",
          "name": "paymentMethod",
          "type": "address"
        },
        {
          "internalType": "address",
          "name": "to",
          "type": "address"
        },
        {
          "internalType": "address",
          "name": "authorityAddress",
          "type": "address"
        },
        {
          "internalType": "uint256",
          "name": "signatureDate",
          "type": "uint256"
        },
        {
          "internalType": "bytes",
          "name": "signature",
          "type": "bytes"
        }
      ],
      "name": "mint",
      "outputs": [
        {
          "internalType": "uint256",
          "name": "",
          "type": "uint256"
        }
      ],
      "stateMutability": "payable",
      "type": "function"
    },
    {
      "inputs": [],
      "name": "mintPrice",
      "outputs": [
        {
          "internalType": "uint256",
          "name": "",
          "type": "uint256"
        }
      ],
      "stateMutability": "view",
      "type": "function"
    },
    {
      "inputs": [],
      "name": "mintPriceMASA",
      "outputs": [
        {
          "internalType": "uint256",
          "name": "",
          "type": "uint256"
        }
      ],
      "stateMutability": "view",
      "type": "function"
    },
    {
      "inputs": [],
      "name": "name",
      "outputs": [
        {
          "internalType": "string",
          "name": "",
          "type": "string"
        }
      ],
      "stateMutability": "view",
      "type": "function"
    },
    {
      "inputs": [
        {
          "internalType": "uint256",
          "name": "tokenId",
          "type": "uint256"
        }
      ],
      "name": "ownerOf",
      "outputs": [
        {
          "internalType": "address",
          "name": "",
          "type": "address"
        }
      ],
      "stateMutability": "view",
      "type": "function"
    },
    {
      "inputs": [],
      "name": "queryLinkPrice",
      "outputs": [
        {
          "internalType": "uint256",
          "name": "",
          "type": "uint256"
        }
      ],
      "stateMutability": "view",
      "type": "function"
    },
    {
      "inputs": [],
      "name": "queryLinkPriceMASA",
      "outputs": [
        {
          "internalType": "uint256",
          "name": "",
          "type": "uint256"
        }
      ],
      "stateMutability": "view",
      "type": "function"
    },
    {
      "inputs": [
        {
          "internalType": "address",
          "name": "_authority",
          "type": "address"
        }
      ],
      "name": "removeAuthority",
      "outputs": [],
      "stateMutability": "nonpayable",
      "type": "function"
    },
    {
      "inputs": [
        {
          "internalType": "bytes32",
          "name": "role",
          "type": "bytes32"
        },
        {
          "internalType": "address",
          "name": "account",
          "type": "address"
        }
      ],
      "name": "renounceRole",
      "outputs": [],
      "stateMutability": "nonpayable",
      "type": "function"
    },
    {
      "inputs": [],
      "name": "reserveWallet",
      "outputs": [
        {
          "internalType": "address",
          "name": "",
          "type": "address"
        }
      ],
      "stateMutability": "view",
      "type": "function"
    },
    {
      "inputs": [
        {
          "internalType": "bytes32",
          "name": "role",
          "type": "bytes32"
        },
        {
          "internalType": "address",
          "name": "account",
          "type": "address"
        }
      ],
      "name": "revokeRole",
      "outputs": [],
      "stateMutability": "nonpayable",
      "type": "function"
    },
    {
      "inputs": [
        {
          "internalType": "uint256",
          "name": "_addLinkPrice",
          "type": "uint256"
        }
      ],
      "name": "setAddLinkPrice",
      "outputs": [],
      "stateMutability": "nonpayable",
      "type": "function"
    },
    {
      "inputs": [
        {
          "internalType": "uint256",
          "name": "_addLinkPriceMASA",
          "type": "uint256"
        }
      ],
      "name": "setAddLinkPriceMASA",
      "outputs": [],
      "stateMutability": "nonpayable",
      "type": "function"
    },
    {
      "inputs": [
        {
          "internalType": "address",
          "name": "_masaToken",
          "type": "address"
        }
      ],
      "name": "setMasaToken",
      "outputs": [],
      "stateMutability": "nonpayable",
      "type": "function"
    },
    {
      "inputs": [
        {
          "internalType": "uint256",
          "name": "_mintPrice",
          "type": "uint256"
        }
      ],
      "name": "setMintPrice",
      "outputs": [],
      "stateMutability": "nonpayable",
      "type": "function"
    },
    {
      "inputs": [
        {
          "internalType": "uint256",
          "name": "_mintPriceMASA",
          "type": "uint256"
        }
      ],
      "name": "setMintPriceMASA",
      "outputs": [],
      "stateMutability": "nonpayable",
      "type": "function"
    },
    {
      "inputs": [
        {
          "internalType": "uint256",
          "name": "_queryLinkPrice",
          "type": "uint256"
        }
      ],
      "name": "setQueryLinkPrice",
      "outputs": [],
      "stateMutability": "nonpayable",
      "type": "function"
    },
    {
      "inputs": [
        {
          "internalType": "uint256",
          "name": "_queryLinkPriceMASA",
          "type": "uint256"
        }
      ],
      "name": "setQueryLinkPriceMASA",
      "outputs": [],
      "stateMutability": "nonpayable",
      "type": "function"
    },
    {
      "inputs": [
        {
          "internalType": "address",
          "name": "_reserveWallet",
          "type": "address"
        }
      ],
      "name": "setReserveWallet",
      "outputs": [],
      "stateMutability": "nonpayable",
      "type": "function"
    },
    {
      "inputs": [
        {
          "internalType": "contract ISoulboundIdentity",
          "name": "_soulboundIdentity",
          "type": "address"
        }
      ],
      "name": "setSoulboundIdentity",
      "outputs": [],
      "stateMutability": "nonpayable",
      "type": "function"
    },
    {
      "inputs": [
        {
          "internalType": "address",
          "name": "_stableCoin",
          "type": "address"
        }
      ],
      "name": "setStableCoin",
      "outputs": [],
      "stateMutability": "nonpayable",
      "type": "function"
    },
    {
      "inputs": [
        {
          "internalType": "address",
          "name": "_swapRouter",
          "type": "address"
        }
      ],
      "name": "setSwapRouter",
      "outputs": [],
      "stateMutability": "nonpayable",
      "type": "function"
    },
    {
      "inputs": [
        {
          "internalType": "address",
          "name": "_wrappedNativeToken",
          "type": "address"
        }
      ],
      "name": "setWrappedNativeToken",
      "outputs": [],
      "stateMutability": "nonpayable",
      "type": "function"
    },
    {
      "inputs": [],
      "name": "soulboundIdentity",
      "outputs": [
        {
          "internalType": "contract ISoulboundIdentity",
          "name": "",
          "type": "address"
        }
      ],
      "stateMutability": "view",
      "type": "function"
    },
    {
      "inputs": [],
      "name": "stableCoin",
      "outputs": [
        {
          "internalType": "address",
          "name": "",
          "type": "address"
        }
      ],
      "stateMutability": "view",
      "type": "function"
    },
    {
      "inputs": [
        {
          "internalType": "bytes4",
          "name": "interfaceId",
          "type": "bytes4"
        }
      ],
      "name": "supportsInterface",
      "outputs": [
        {
          "internalType": "bool",
          "name": "",
          "type": "bool"
        }
      ],
      "stateMutability": "view",
      "type": "function"
    },
    {
      "inputs": [],
      "name": "swapRouter",
      "outputs": [
        {
          "internalType": "address",
          "name": "",
          "type": "address"
        }
      ],
      "stateMutability": "view",
      "type": "function"
    },
    {
      "inputs": [],
      "name": "symbol",
      "outputs": [
        {
          "internalType": "string",
          "name": "",
          "type": "string"
        }
      ],
      "stateMutability": "view",
      "type": "function"
    },
    {
      "inputs": [
        {
          "internalType": "uint256",
          "name": "index",
          "type": "uint256"
        }
      ],
      "name": "tokenByIndex",
      "outputs": [
        {
          "internalType": "uint256",
          "name": "",
          "type": "uint256"
        }
      ],
      "stateMutability": "view",
      "type": "function"
    },
    {
      "inputs": [
        {
          "internalType": "address",
          "name": "owner",
          "type": "address"
        },
        {
          "internalType": "uint256",
          "name": "index",
          "type": "uint256"
        }
      ],
      "name": "tokenOfOwnerByIndex",
      "outputs": [
        {
          "internalType": "uint256",
          "name": "",
          "type": "uint256"
        }
      ],
      "stateMutability": "view",
      "type": "function"
    },
    {
      "inputs": [
        {
          "internalType": "uint256",
          "name": "tokenId",
          "type": "uint256"
        }
      ],
      "name": "tokenURI",
      "outputs": [
        {
          "internalType": "string",
          "name": "",
          "type": "string"
        }
      ],
      "stateMutability": "view",
      "type": "function"
    },
    {
      "inputs": [],
      "name": "totalSupply",
      "outputs": [
        {
          "internalType": "uint256",
          "name": "",
          "type": "uint256"
        }
      ],
      "stateMutability": "view",
      "type": "function"
    },
    {
      "inputs": [],
      "name": "wrappedNativeToken",
      "outputs": [
        {
          "internalType": "address",
          "name": "",
          "type": "address"
        }
      ],
      "stateMutability": "view",
      "type": "function"
    }
  ],
  "transactionHash": "0x4286fdc61df8d3d62f89482c6983fe0e3e07da18df7ab9a306268a82ace7e1f1",
  "args": [
    "0xA38dd237a3A8D50537B74a4B0D4E7E8A5359386F",
    "https://beta.metadata.masa.finance/v1.0/2fa/",
    "0x56266C75773e82B886B02dC0D137eC005fc2C8e4",
    [
      "0x7a250d5630B4cF539739dF2C5dAcb4c659F2488D",
      "0xB4FBF271143F4FBf7B91A5ded31805e42b2208d6",
      "0xD87Ba7A50B2E7E660f678A895E4B72E7CB4CCd9C",
      "0x1f9840a85d5aF5bf1D1762F925BDADdC4201F984",
      "0xA38dd237a3A8D50537B74a4B0D4E7E8A5359386F"
    ]
  ],
  "numDeployments": 2,
  "solcInputHash": "8691f678d5656fa2149432894459082e",
  "bytecode": "0x6101406040523480156200001257600080fd5b506040516200427d3803806200427d8339810160408190526200003591620005cb565b83604051806040016040528060088152602001674d6173612032464160c01b8152506040518060400160405280600381526020016226992360e91b8152508585856040518060400160405280600c81526020016b536f756c626f756e6432464160a01b815250604051806040016040528060058152602001640312e302e360dc1b815250878787878b8784848160009080519060200190620000d9929190620003fe565b508051620000ef906001906020840190620003fe565b505081516001600160a01b0316151590506200011e5760405163d92e233d60e01b815260040160405180910390fd5b60208101516001600160a01b03166200014a5760405163d92e233d60e01b815260040160405180910390fd5b60408101516001600160a01b0316620001765760405163d92e233d60e01b815260040160405180910390fd5b60808101516001600160a01b0316620001a25760405163d92e233d60e01b815260040160405180910390fd5b620001af6000836200030a565b8051600980546001600160a01b03199081166001600160a01b03938416179091556020830151600a805483169184169190911790556040830151600b805483169184169190911790556060830151600c80548316918416919091179055608090920151600f80549093169116179055506200022c6000856200030a565b805162000241906010906020840190620003fe565b5050845160208087019190912085519186019190912060e08290526101008190524660a05290935091507f8b73c3c69bb8fe3d512ecc4cf759cc79239f7b179b0ffacaa9a75d522b39400f90506200029b81848462000395565b6080523060601b60c05261012052505050506001600160a01b038216620002d55760405163d92e233d60e01b815260040160405180910390fd5b50601680546001600160a01b0319166001600160a01b039290921691909117905550506001601a555062000823945050505050565b620003168282620003d1565b620003915760008281526008602090815260408083206001600160a01b03851684529091529020805460ff19166001179055620003503390565b6001600160a01b0316816001600160a01b0316837f2f8788117e7eff1d82e926ec794901d17c78024a50270940304540a733656f0d60405160405180910390a45b5050565b60008383834630604051602001620003b29594939291906200066e565b6040516020818303038152906040528051906020012090509392505050565b60008281526008602090815260408083206001600160a01b038516845290915290205460ff165b92915050565b8280546200040c9062000765565b90600052602060002090601f0160209004810192826200043057600085556200047b565b82601f106200044b57805160ff19168380011785556200047b565b828001600101855582156200047b579182015b828111156200047b5782518255916020019190600101906200045e565b50620004899291506200048d565b5090565b5b808211156200048957600081556001016200048e565b6000620004bb620004b584620006e3565b620006c4565b905082815260208101848484011115620004d857620004d8600080fd5b620004e584828562000732565b509392505050565b8051620003f881620007fe565b8051620003f88162000818565b600082601f8301126200051d576200051d600080fd5b81516200052f848260208601620004a4565b949350505050565b600060a082840312156200054e576200054e600080fd5b6200055a60a0620006c4565b905060006200056a8484620004ed565b82525060206200057d84848301620004ed565b60208301525060406200059384828501620004ed565b6040830152506060620005a984828501620004ed565b6060830152506080620005bf84828501620004ed565b60808301525092915050565b6000806000806101008587031215620005e757620005e7600080fd5b6000620005f58787620004ed565b94505060208501516001600160401b03811115620006165762000616600080fd5b620006248782880162000507565b93505060406200063787828801620004fa565b92505060606200064a8782880162000537565b91505092959194509250565b620006618162000713565b82525050565b8062000661565b60a081016200067e828862000667565b6200068d602083018762000667565b6200069c604083018662000667565b620006ab606083018562000667565b620006ba608083018462000656565b9695505050505050565b6000620006d060405190565b9050620006de828262000796565b919050565b60006001600160401b03821115620006ff57620006ff620007de565b6200070a82620007f4565b60200192915050565b60006001600160a01b038216620003f8565b6000620003f88262000713565b60005b838110156200074f57818101518382015260200162000735565b838111156200075f576000848401525b50505050565b6002810460018216806200077a57607f821691505b60208210811415620007905762000790620007c8565b50919050565b620007a182620007f4565b81018181106001600160401b0382111715620007c157620007c1620007de565b6040525050565b634e487b7160e01b600052602260045260246000fd5b634e487b7160e01b600052604160045260246000fd5b601f01601f191690565b620008098162000713565b81146200081557600080fd5b50565b620008098162000725565b60805160a05160c05160601c60e0516101005161012051613a0762000876600039600061219e015260006121e0015260006121bf015260006121230152600061214d015260006121770152613a076000f3fe60806040526004361061025a5760003560e01c806301ffc9a71461025f5780630513c3e91461029557806306fdde03146102c257806310200519146102e457806313150b481461030657806317fcb39b1461032957806318160ddd146103495780631830e8811461035e5780631f37c1241461037457806320d558aa1461038a57806323af4e171461039d578063248a9ca3146103bf57806326defa73146103df578063289c686b146103ff5780632f2ff15d1461041f5780632f745c591461043f57806336568abe1461045f5780633ad3033e1461047f5780633c72ae701461049f57806341273657146104bf57806342966c68146104df5780634962a158146104ff5780634f558e791461051f5780634f6ccce71461053f5780636352211e1461055f5780636817c76c1461057f57806370a0823114610595578063719d0f2b146105b557806376ad1997146105d5578063776d1a54146105f557806377bed5ed1461060b5780637a0d1646146106385780637ad09dff146106685780637db8cb681461067b57806391223d691461069b57806391d14854146106cb57806394a665e9146106eb57806395d89b411461070b578063992642e514610720578063a217fddf14610740578063b97d6b2314610755578063c1177d191461076b578063c31c9c071461078b578063c86aadb6146107ab578063c87b56dd146107cb578063d544e010146107eb578063d547741f1461080b578063d72b11bd1461082b578063da058ae31461084b578063dda4fa8f1461086b578063ebda43961461088b578063f4a0a528146108ab578063fd48ac83146108cb575b600080fd5b34801561026b57600080fd5b5061027f61027a366004612ec7565b6108eb565b60405161028c9190613501565b60405180910390f35b3480156102a157600080fd5b506102b56102b0366004612e73565b6108fc565b60405161028c91906134ba565b3480156102ce57600080fd5b506102d7610926565b60405161028c91906135d3565b3480156102f057600080fd5b506102f96109b8565b60405161028c91906134f0565b34801561031257600080fd5b5061031c60145481565b60405161028c919061350f565b34801561033557600080fd5b50600a546102b5906001600160a01b031681565b34801561035557600080fd5b5060065461031c565b34801561036a57600080fd5b5061031c60185481565b34801561038057600080fd5b5061031c60115481565b61031c610398366004612ddf565b610a19565b3480156103a957600080fd5b506103bd6103b8366004612ccb565b610bb9565b005b3480156103cb57600080fd5b5061031c6103da366004612e73565b610c3d565b3480156103eb57600080fd5b506103bd6103fa366004612ccb565b610c52565b34801561040b57600080fd5b506103bd61041a366004612e73565b610ce3565b34801561042b57600080fd5b506103bd61043a366004612e94565b610d17565b34801561044b57600080fd5b5061031c61045a366004612da2565b610d38565b34801561046b57600080fd5b506103bd61047a366004612e94565b610d8a565b34801561048b57600080fd5b506103bd61049a366004612ee8565b610dc0565b3480156104ab57600080fd5b506103bd6104ba366004612e73565b610e44565b3480156104cb57600080fd5b506103bd6104da366004612ccb565b610e78565b3480156104eb57600080fd5b506103bd6104fa366004612e73565b610efc565b34801561050b57600080fd5b506103bd61051a366004612e73565b610f2e565b34801561052b57600080fd5b5061027f61053a366004612e73565b610f62565b34801561054b57600080fd5b5061031c61055a366004612e73565b610f6d565b34801561056b57600080fd5b506102b561057a366004612e73565b610fbb565b34801561058b57600080fd5b5061031c60175481565b3480156105a157600080fd5b5061031c6105b0366004612ccb565b610ff0565b3480156105c157600080fd5b5061031c6105d0366004612ccb565b611034565b3480156105e157600080fd5b506103bd6105f0366004612ccb565b611134565b34801561060157600080fd5b5061031c60125481565b34801561061757600080fd5b5060165461062b906001600160a01b031681565b60405161028c91906135c5565b34801561064457600080fd5b5061027f610653366004612ccb565b600d6020526000908152604090205460ff1681565b61031c610676366004612d0d565b611191565b34801561068757600080fd5b506103bd610696366004612e73565b611234565b3480156106a757600080fd5b5061027f6106b6366004612ccb565b60196020526000908152604090205460ff1681565b3480156106d757600080fd5b5061027f6106e6366004612e94565b611268565b3480156106f757600080fd5b506103bd610706366004612ccb565b611293565b34801561071757600080fd5b506102d7611400565b34801561072c57600080fd5b50600b546102b5906001600160a01b031681565b34801561074c57600080fd5b5061031c600081565b34801561076157600080fd5b5061031c60135481565b34801561077757600080fd5b5061031c610786366004612e73565b61140f565b34801561079757600080fd5b506009546102b5906001600160a01b031681565b3480156107b757600080fd5b506103bd6107c6366004612ccb565b6114a3565b3480156107d757600080fd5b506102d76107e6366004612e73565b61154f565b3480156107f757600080fd5b506103bd610806366004612ccb565b6115b5565b34801561081757600080fd5b506103bd610826366004612e94565b611644565b34801561083757600080fd5b50600f546102b5906001600160a01b031681565b34801561085757600080fd5b506103bd610866366004612ccb565b611660565b34801561087757600080fd5b506103bd610886366004612ccb565b6116e4565b34801561089757600080fd5b50600c546102b5906001600160a01b031681565b3480156108b757600080fd5b506103bd6108c6366004612e73565b611768565b3480156108d757600080fd5b506103bd6108e6366004612e73565b61179c565b60006108f6826117d0565b92915050565b600e818154811061090c57600080fd5b6000918252602090912001546001600160a01b0316905081565b60606000805461093590613869565b80601f016020809104026020016040519081016040528092919081815260200182805461096190613869565b80156109ae5780601f10610983576101008083540402835291602001916109ae565b820191906000526020600020905b81548152906001019060200180831161099157829003601f168201915b5050505050905090565b6060600e8054806020026020016040519081016040528092919081815260200182805480156109ae57602002820191906000526020600020905b81546001600160a01b031681526001909101906020018083116109f2575050505050905090565b60006002601a541415610a475760405162461bcd60e51b8152600401610a3e906136d4565b60405180910390fd5b6002601a556016546040516331a9108f60e11b81526000916001600160a01b031690636352211e90610a7d908a9060040161350f565b60206040518083038186803b158015610a9557600080fd5b505afa158015610aa9573d6000803e3d6000fd5b505050506040513d601f19601f82011682018060405250810190610acd9190612cec565b90506001600160a01b0381163314610afa573360405163060296c760e31b8152600401610a3e91906134ba565b610b46610b088888886117db565b85858080601f0160208091040260200160405190810160405280939291908181526020018383808284376000920191909152508b925061183a915050565b610b5888610b538a611034565b6118bb565b6000610b6382611a61565b90507f7cb2a8af38fc0c5e237e90b7da012d3efe0c31a258dce47a5b65f8dd1dad828e818989898d601754604051610ba096959493929190613714565b60405180910390a16001601a5598975050505050505050565b6000610bc481611a87565b6001600160a01b038216610beb5760405163d92e233d60e01b815260040160405180910390fd5b600b546001600160a01b0383811691161415610c1a5760405163c23f6ccb60e01b815260040160405180910390fd5b50600b80546001600160a01b0319166001600160a01b0392909216919091179055565b60009081526008602052604090206001015490565b6000610c5d81611a87565b6001600160a01b038216610c845760405163d92e233d60e01b815260040160405180910390fd5b6001600160a01b03821660009081526019602052604090205460ff1615610cbe5760405163f411c32760e01b815260040160405180910390fd5b506001600160a01b03166000908152601960205260409020805460ff19166001179055565b6000610cee81611a87565b816011541415610d115760405163c23f6ccb60e01b815260040160405180910390fd5b50601155565b610d2082610c3d565b610d2981611a87565b610d338383611a91565b505050565b6000610d4383610ff0565b8210610d615760405162461bcd60e51b8152600401610a3e90613624565b506001600160a01b03919091166000908152600460209081526040808320938352929052205490565b6001600160a01b0381163314610db25760405162461bcd60e51b8152600401610a3e906136e4565b610dbc8282611b17565b5050565b6000610dcb81611a87565b6001600160a01b038216610df25760405163d92e233d60e01b815260040160405180910390fd5b6016546001600160a01b0383811691161415610e215760405163c23f6ccb60e01b815260040160405180910390fd5b50601680546001600160a01b0319166001600160a01b0392909216919091179055565b6000610e4f81611a87565b816012541415610e725760405163c23f6ccb60e01b815260040160405180910390fd5b50601255565b6000610e8381611a87565b6001600160a01b038216610eaa5760405163d92e233d60e01b815260040160405180910390fd5b6009546001600160a01b0383811691161415610ed95760405163c23f6ccb60e01b815260040160405180910390fd5b50600980546001600160a01b0319166001600160a01b0392909216919091179055565b610f063382611b7e565b610f225760405162461bcd60e51b8152600401610a3e90613664565b610f2b81611ba1565b50565b6000610f3981611a87565b816018541415610f5c5760405163c23f6ccb60e01b815260040160405180910390fd5b50601855565b60006108f682611c3b565b6000610f7860065490565b8210610f965760405162461bcd60e51b8152600401610a3e906136c4565b60068281548110610fa957610fa9613960565b90600052602060002001549050919050565b6000818152600260205260408120546001600160a01b0316806108f65760405162461bcd60e51b8152600401610a3e90613694565b60006001600160a01b0382166110185760405162461bcd60e51b8152600401610a3e90613654565b506001600160a01b031660009081526003602052604090205490565b600060175460001480156110485750601854155b1561105557506000919050565b600c546001600160a01b03838116911614801561108a57506001600160a01b0382166000908152600d602052604090205460ff165b801561109857506000601854115b156110a557505060185490565b600b546001600160a01b0383811691161480156110da57506001600160a01b0382166000908152600d602052604090205460ff165b156110e757505060175490565b6001600160a01b0382166000908152600d602052604090205460ff1615611114576108f682601754611c58565b81604051630ac29ab760e31b8152600401610a3e91906134ba565b919050565b600061113f81611a87565b600c546001600160a01b038381169116141561116e5760405163c23f6ccb60e01b815260040160405180910390fd5b50600c80546001600160a01b0319166001600160a01b0392909216919091179055565b60165460405163294cdf0d60e01b815260009182916001600160a01b039091169063294cdf0d906111c6908a906004016134ba565b60206040518083038186803b1580156111de57600080fd5b505afa1580156111f2573d6000803e3d6000fd5b505050506040513d601f19601f820116820180604052508101906112169190612f09565b9050611226888288888888610a19565b9150505b9695505050505050565b600061123f81611a87565b8160145414156112625760405163c23f6ccb60e01b815260040160405180910390fd5b50601455565b60009182526008602090815260408084206001600160a01b0393909316845291905290205460ff1690565b600061129e81611a87565b6001600160a01b0382166000908152600d602052604090205460ff166112d957816040516318317bd560e01b8152600401610a3e91906134ba565b6001600160a01b0382166000908152600d60205260408120805460ff191690555b600e54811015610d3357826001600160a01b0316600e828154811061132157611321613960565b6000918252602090912001546001600160a01b031614156113ee57600e805461134c906001906137e8565b8154811061135c5761135c613960565b600091825260209091200154600e80546001600160a01b03909216918390811061138857611388613960565b9060005260206000200160006101000a8154816001600160a01b0302191690836001600160a01b03160217905550600e8054806113c7576113c761394a565b600082815260209020810160001990810180546001600160a01b0319169055019055505050565b806113f8816138c3565b9150506112fa565b60606001805461093590613869565b60008061141b83610fbb565b60165460405163294cdf0d60e01b81529192506001600160a01b03169063294cdf0d9061144c9084906004016134ba565b60206040518083038186803b15801561146457600080fd5b505afa158015611478573d6000803e3d6000fd5b505050506040513d601f19601f8201168201806040525081019061149c9190612f09565b9392505050565b60006114ae81611a87565b6001600160a01b0382166000908152600d602052604090205460ff16156114e85760405163f411c32760e01b815260040160405180910390fd5b506001600160a01b03166000818152600d60205260408120805460ff19166001908117909155600e805491820181559091527fbb7b4a454dc3493923482f07822329ed19e8244eff582cc204f8554c3620c3fd0180546001600160a01b0319169091179055565b606061155a82611cf7565b6000611564611d1c565b90506000815111611584576040518060200160405280600081525061149c565b8061158e84611d2b565b60405160200161159f929190613401565b6040516020818303038152906040529392505050565b60006115c081611a87565b6001600160a01b0382166115e75760405163d92e233d60e01b815260040160405180910390fd5b6001600160a01b03821660009081526019602052604090205460ff1661162257816040516324b1f80560e21b8152600401610a3e91906134ba565b506001600160a01b03166000908152601960205260409020805460ff19169055565b61164d82610c3d565b61165681611a87565b610d338383611b17565b600061166b81611a87565b6001600160a01b0382166116925760405163d92e233d60e01b815260040160405180910390fd5b600a546001600160a01b03838116911614156116c15760405163c23f6ccb60e01b815260040160405180910390fd5b50600a80546001600160a01b0319166001600160a01b0392909216919091179055565b60006116ef81611a87565b6001600160a01b0382166117165760405163d92e233d60e01b815260040160405180910390fd5b600f546001600160a01b03838116911614156117455760405163c23f6ccb60e01b815260040160405180910390fd5b50600f80546001600160a01b0319166001600160a01b0392909216919091179055565b600061177381611a87565b8160175414156117965760405163c23f6ccb60e01b815260040160405180910390fd5b50601755565b60006117a781611a87565b8160135414156117ca5760405163c23f6ccb60e01b815260040160405180910390fd5b50601355565b60006108f682611e28565b60006118327f34ec28456d08f4e49693917808b7282a69eadae2824d33b92474bc8bdfdb7be6858585604051602001611817949392919061355f565b60405160208183030381529060405280519060200120611e4d565b949350505050565b60006118468484611e60565b9050816001600160a01b0316816001600160a01b03161461187a57604051638baa579f60e01b815260040160405180910390fd5b6001600160a01b03811660009081526019602052604090205460ff166118b55780604051634a0bfec160e01b8152600401610a3e91906134ba565b50505050565b806118c4575050565b6001600160a01b0382166000908152600d602052604090205460ff166118ff5781604051630ac29ab760e31b8152600401610a3e91906134ba565b6001600160a01b038216611a455780341015611930578060405163091a6d0f60e01b8152600401610a3e919061350f565b600f546040516000916001600160a01b031690839061194e90613460565b60006040518083038185875af1925050503d806000811461198b576040519150601f19603f3d011682016040523d82523d6000602084013e611990565b606091505b50509050806119b2576040516312171d8360e31b815260040160405180910390fd5b81341115610d335760006119c63484611e84565b9050336001600160a01b0316816040516119df90613460565b60006040518083038185875af1925050503d8060008114611a1c576040519150601f19603f3d011682016040523d82523d6000602084013e611a21565b606091505b505080925050816118b557604051633c31275160e21b815260040160405180910390fd5b600f54610dbc906001600160a01b038481169133911684611e90565b600080611a6d60155490565b9050611a7d601580546001019055565b6108f68382611ee8565b610f2b8133611fc4565b611a9b8282611268565b610dbc5760008281526008602090815260408083206001600160a01b03851684529091529020805460ff19166001179055611ad33390565b6001600160a01b0316816001600160a01b0316837f2f8788117e7eff1d82e926ec794901d17c78024a50270940304540a733656f0d60405160405180910390a45050565b611b218282611268565b15610dbc5760008281526008602090815260408083206001600160a01b0385168085529252808320805460ff1916905551339285917ff6391f5c32d9c69d2a47ea670b442974b53935d1edc7fd64eb21e047a839171b9190a45050565b600080611b8a83610fbb565b6001600160a01b0385811691161491505092915050565b6000611bac82610fbb565b9050611bba81600084612028565b6001600160a01b0381166000908152600360205260408120805460019290611be39084906137e8565b909155505060008281526002602052604080822080546001600160a01b03191690555183916001600160a01b038416917fcc16f5dbb4873280815c1ee09dbd06736cffcc184412cf7a71a0fdb75d397ca59190a35050565b6000908152600260205260409020546001600160a01b0316151590565b6001600160a01b0382166000908152600d602052604081205460ff161580611c8d5750600b546001600160a01b038481169116145b15611cad578260405163961c9a4f60e01b8152600401610a3e91906134ba565b6001600160a01b038316611cdf57600a54600b54611cd8916001600160a01b03908116911684612033565b90506108f6565b600b54611cd89084906001600160a01b031684612033565b611d0081611c3b565b610f2b5760405162461bcd60e51b8152600401610a3e90613694565b60606010805461093590613869565b606081611d4f5750506040805180820190915260018152600360fc1b602082015290565b8160005b8115611d795780611d63816138c3565b9150611d729050600a836137b5565b9150611d53565b6000816001600160401b03811115611d9357611d93613976565b6040519080825280601f01601f191660200182016040528015611dbd576020820181803683370190505b5090505b841561183257611dd26001836137e8565b9150611ddf600a866138de565b611dea90603061379d565b60f81b818381518110611dff57611dff613960565b60200101906001600160f81b031916908160001a905350611e21600a866137b5565b9450611dc1565b60006001600160e01b03198216637965db0b60e01b14806108f657506108f6826120f1565b60006108f6611e5a612116565b83612209565b6000806000611e6f858561223c565b91509150611e7c81612282565b509392505050565b600061149c82846137e8565b6118b5846323b872dd60e01b858585604051602401611eb1939291906134c8565b60408051601f198184030181529190526020810180516001600160e01b03166001600160e01b031990931692909217909152612367565b6001600160a01b038216611f0e5760405162461bcd60e51b8152600401610a3e90613614565b611f1781611c3b565b15611f345760405162461bcd60e51b8152600401610a3e90613684565b611f4060008383612028565b6001600160a01b0382166000908152600360205260408120805460019290611f6990849061379d565b909155505060008181526002602052604080822080546001600160a01b0319166001600160a01b038616908117909155905183927f0f6798a560793a54c3bcfe86a93cde1e73087d944c0ea20544137d412139688591a35050565b611fce8282611268565b610dbc57611fe6816001600160a01b031660146123f6565b611ff18360206123f6565b604051602001612002929190613468565b60408051601f198184030181529082905262461bcd60e51b8252610a3e916004016135d3565b610d33838383612561565b60006060806120428686612619565b6009546040516307c0329d60e21b81529192506001600160a01b031690631f00ca749061207590879085906004016136f4565b60006040518083038186803b15801561208d57600080fd5b505afa1580156120a1573d6000803e3d6000fd5b505050506040513d6000823e601f3d908101601f191682016040526120c99190810190612e18565b9150816000815181106120de576120de613960565b6020026020010151925050509392505050565b60006001600160e01b0319821663780e9d6360e01b14806108f657506108f6826127ab565b6000306001600160a01b037f00000000000000000000000000000000000000000000000000000000000000001614801561216f57507f000000000000000000000000000000000000000000000000000000000000000046145b1561219957507f000000000000000000000000000000000000000000000000000000000000000090565b6122047f00000000000000000000000000000000000000000000000000000000000000007f00000000000000000000000000000000000000000000000000000000000000007f00000000000000000000000000000000000000000000000000000000000000006127fb565b905090565b6000828260405160200161221e92919061342f565b60405160208183030381529060405280519060200120905092915050565b6000808251604114156122735760208301516040840151606085015160001a61226787828585612835565b9450945050505061227b565b506000905060025b9250929050565b60008160048111156122965761229661391e565b141561229f5750565b60018160048111156122b3576122b361391e565b14156122d15760405162461bcd60e51b8152600401610a3e906135e4565b60028160048111156122e5576122e561391e565b14156123035760405162461bcd60e51b8152600401610a3e90613604565b60038160048111156123175761231761391e565b14156123355760405162461bcd60e51b8152600401610a3e90613634565b60048160048111156123495761234961391e565b1415610f2b5760405162461bcd60e51b8152600401610a3e90613674565b60006123bc826040518060400160405280602081526020017f5361666545524332303a206c6f772d6c6576656c2063616c6c206661696c6564815250856001600160a01b031661290b9092919063ffffffff16565b805190915015610d3357808060200190518101906123da9190612e52565b610d335760405162461bcd60e51b8152600401610a3e906136b4565b606060006124058360026137c9565b61241090600261379d565b6001600160401b0381111561242757612427613976565b6040519080825280601f01601f191660200182016040528015612451576020820181803683370190505b509050600360fc1b8160008151811061246c5761246c613960565b60200101906001600160f81b031916908160001a905350600f60fb1b8160018151811061249b5761249b613960565b60200101906001600160f81b031916908160001a90535060006124bf8460026137c9565b6124ca90600161379d565b90505b6001811115612542576f181899199a1a9b1b9c1cb0b131b232b360811b85600f16601081106124fe576124fe613960565b1a60f81b82828151811061251457612514613960565b60200101906001600160f81b031916908160001a90535060049490941c9361253b81613852565b90506124cd565b50831561149c5760405162461bcd60e51b8152600401610a3e906135f4565b6001600160a01b0383166125bc576125b781600680546000838152600760205260408120829055600182018355919091527ff652222313e28459528d920b65115c16c04f3efc82aaedc97be59f3f377c0d3f0155565b6125df565b816001600160a01b0316836001600160a01b0316146125df576125df838261291a565b6001600160a01b0382166125f657610d33816129b7565b826001600160a01b0316826001600160a01b031614610d3357610d338282612a66565b600a546060906001600160a01b03848116911614806126455750600a546001600160a01b038381169116145b1561270f5760408051600280825260608201835260009260208301908036833701905050600a549091506001600160a01b038581169116146126875783612694565b600a546001600160a01b03165b816000815181106126a7576126a7613960565b6001600160a01b039283166020918202929092010152600a548482169116146126d057826126dd565b600a546001600160a01b03165b816001815181106126f0576126f0613960565b6001600160a01b039092166020928302919091019091015290506108f6565b6040805160038082526080820190925260009160208201606080368337019050509050838160008151811061274657612746613960565b6001600160a01b039283166020918202929092010152600a5482519116908290600190811061277757612777613960565b60200260200101906001600160a01b031690816001600160a01b03168152505082816002815181106126f0576126f0613960565b60006001600160e01b031982166313f2a32f60e01b14806127dc57506001600160e01b03198216635b5e139f60e01b145b806108f657506301ffc9a760e01b6001600160e01b03198316146108f6565b6000838383463060405160200161281695949392919061351d565b6040516020818303038152906040528051906020012090509392505050565b6000806fa2a8918ca85bafe22016d0b997e4df60600160ff1b038311156128625750600090506003612902565b8460ff16601b1415801561287a57508460ff16601c14155b1561288b5750600090506004612902565b6000600187878787604051600081526020016040526040516128b0949392919061359d565b6020604051602081039080840390855afa1580156128d2573d6000803e3d6000fd5b5050604051601f1901519150506001600160a01b0381166128fb57600060019250925050612902565b9150600090505b94509492505050565b60606118328484600085612aaa565b6000600161292784610ff0565b61293191906137e8565b600083815260056020526040902054909150808214612984576001600160a01b03841660009081526004602090815260408083208584528252808320548484528184208190558352600590915290208190555b5060009182526005602090815260408084208490556001600160a01b039094168352600481528383209183525290812055565b6006546000906129c9906001906137e8565b600083815260076020526040812054600680549394509092849081106129f1576129f1613960565b906000526020600020015490508060068381548110612a1257612a12613960565b6000918252602080832090910192909255828152600790915260408082208490558582528120556006805480612a4a57612a4a61394a565b6001900381819060005260206000200160009055905550505050565b6000612a7183610ff0565b6001600160a01b039093166000908152600460209081526040808320868452825280832085905593825260059052919091209190915550565b606082471015612acc5760405162461bcd60e51b8152600401610a3e90613644565b6001600160a01b0385163b612af35760405162461bcd60e51b8152600401610a3e906136a4565b600080866001600160a01b03168587604051612b0f91906133f5565b60006040518083038185875af1925050503d8060008114612b4c576040519150601f19603f3d011682016040523d82523d6000602084013e612b51565b606091505b5091509150612b61828286612b6c565b979650505050505050565b60608315612b7b57508161149c565b825115612b8b5782518084602001fd5b8160405162461bcd60e51b8152600401610a3e91906135d3565b6000612bb8612bb38461377a565b613763565b90508083825260208201905082856020860282011115612bda57612bda600080fd5b60005b85811015612c065781612bf08882612cc0565b8452506020928301929190910190600101612bdd565b5050509392505050565b80356108f681613996565b80516108f681613996565b600082601f830112612c3a57612c3a600080fd5b8151611832848260208601612ba5565b80516108f6816139aa565b80356108f6816139b2565b80356108f6816139b8565b60008083601f840112612c8057612c80600080fd5b5081356001600160401b03811115612c9a57612c9a600080fd5b60208301915083600182028301111561227b5761227b600080fd5b80356108f6816139c8565b80516108f6816139b2565b600060208284031215612ce057612ce0600080fd5b60006118328484612c10565b600060208284031215612d0157612d01600080fd5b60006118328484612c1b565b60008060008060008060a08789031215612d2957612d29600080fd5b6000612d358989612c10565b9650506020612d4689828a01612c10565b9550506040612d5789828a01612c10565b9450506060612d6889828a01612c55565b93505060808701356001600160401b03811115612d8757612d87600080fd5b612d9389828a01612c6b565b92509250509295509295509295565b60008060408385031215612db857612db8600080fd5b6000612dc48585612c10565b9250506020612dd585828601612c55565b9150509250929050565b60008060008060008060a08789031215612dfb57612dfb600080fd5b6000612e078989612c10565b9650506020612d4689828a01612c55565b600060208284031215612e2d57612e2d600080fd5b81516001600160401b03811115612e4657612e46600080fd5b61183284828501612c26565b600060208284031215612e6757612e67600080fd5b60006118328484612c4a565b600060208284031215612e8857612e88600080fd5b60006118328484612c55565b60008060408385031215612eaa57612eaa600080fd5b6000612eb68585612c55565b9250506020612dd585828601612c10565b600060208284031215612edc57612edc600080fd5b60006118328484612c60565b600060208284031215612efd57612efd600080fd5b60006118328484612cb5565b600060208284031215612f1e57612f1e600080fd5b60006118328484612cc0565b6000612f368383612f3e565b505060200190565b612f47816137ff565b82525050565b6000612f57825190565b80845260209384019383018060005b83811015612f8b578151612f7a8882612f2a565b975060208301925050600101612f66565b509495945050505050565b801515612f47565b80612f47565b6000612fae825190565b612fbc818560208601613826565b9290920192915050565b612f478161381b565b6000612fd9825190565b808452602084019350612ff0818560208601613826565b612ff98161398c565b9093019392505050565b601881526000602082017745434453413a20696e76616c6964207369676e617475726560401b815291505b5060200190565b60208082527f537472696e67733a20686578206c656e67746820696e73756666696369656e749101908152600061302e565b601f81526000602082017f45434453413a20696e76616c6964207369676e6174757265206c656e677468008152915061302e565b601d81526000602082017f5342543a206d696e7420746f20746865207a65726f20616464726573730000008152915061302e565b602881526000602082017f534254456e756d657261626c653a206f776e657220696e646578206f7574206f8152676620626f756e647360c01b602082015291505b5060400190565b602281526000602082017f45434453413a20696e76616c6964207369676e6174757265202773272076616c815261756560f01b60208201529150613110565b602681526000602082017f416464726573733a20696e73756666696369656e742062616c616e636520666f8152651c8818d85b1b60d21b60208201529150613110565b602681526000602082017f5342543a2061646472657373207a65726f206973206e6f7420612076616c69648152651037bbb732b960d11b60208201529150613110565b601e81526000602082017f5342543a2063616c6c6572206973206e6f7420746f6b656e206f776e657200008152915061302e565b602281526000602082017f45434453413a20696e76616c6964207369676e6174757265202776272076616c815261756560f01b60208201529150613110565b601981526000602082017814d0950e881d1bdad95b88185b1c9958591e481b5a5b9d1959603a1b8152915061302e565b601581526000602082017414d0950e881a5b9d985b1a59081d1bdad95b881251605a1b8152915061302e565b601d81526000602082017f416464726573733a2063616c6c20746f206e6f6e2d636f6e74726163740000008152915061302e565b602a81526000602082017f5361666545524332303a204552433230206f7065726174696f6e20646964206e8152691bdd081cdd58d8d9595960b21b60208201529150613110565b602981526000602082017f534254456e756d657261626c653a20676c6f62616c20696e646578206f7574208152686f6620626f756e647360b81b60208201529150613110565b601f81526000602082017f5265656e7472616e637947756172643a207265656e7472616e742063616c6c008152915061302e565b602f81526000602082017f416363657373436f6e74726f6c3a2063616e206f6e6c792072656e6f756e636581526e103937b632b9903337b91039b2b63360891b60208201529150613110565b60ff8116612f47565b600061149c8284612fa4565b600061340d8285612fa4565b91506134198284612fa4565b64173539b7b760d91b8152915060058201611832565b61190160f01b815260020160006134468285612f9e565b6020820191506134568284612f9e565b5060200192915050565b6000816108f6565b76020b1b1b2b9b9a1b7b73a3937b61d1030b1b1b7bab73a1604d1b815260170160006134948285612fa4565b7001034b99036b4b9b9b4b733903937b6329607d1b815260110191506118328284612fa4565b602081016108f68284612f3e565b606081016134d68286612f3e565b6134e36020830185612f3e565b6118326040830184612f9e565b6020808252810161149c8184612f4d565b602081016108f68284612f96565b602081016108f68284612f9e565b60a0810161352b8288612f9e565b6135386020830187612f9e565b6135456040830186612f9e565b6135526060830185612f9e565b61122a6080830184612f3e565b6080810161356d8287612f9e565b61357a6020830186612f9e565b6135876040830185612f3e565b6135946060830184612f9e565b95945050505050565b608081016135ab8287612f9e565b6135b860208301866133ec565b6135876040830185612f9e565b602081016108f68284612fc6565b6020808252810161149c8184612fcf565b602080825281016108f681613003565b602080825281016108f681613035565b602080825281016108f681613067565b602080825281016108f68161309b565b602080825281016108f6816130cf565b602080825281016108f681613117565b602080825281016108f681613156565b602080825281016108f681613199565b602080825281016108f6816131dc565b602080825281016108f681613210565b602080825281016108f68161324f565b602080825281016108f68161327f565b602080825281016108f6816132ab565b602080825281016108f6816132df565b602080825281016108f681613326565b602080825281016108f68161336c565b602080825281016108f6816133a0565b604081016137028285612f9e565b81810360208301526118328184612f4d565b60c081016137228289612f9e565b61372f6020830188612f9e565b61373c6040830187612f3e565b6137496060830186612f9e565b6137566080830185612f3e565b612b6160a0830184612f9e565b600061376e60405190565b905061112f8282613896565b60006001600160401b0382111561379357613793613976565b5060209081020190565b600082198211156137b0576137b06138f2565b500190565b6000826137c4576137c4613908565b500490565b60008160001904831182151516156137e3576137e36138f2565b500290565b6000828210156137fa576137fa6138f2565b500390565b60006001600160a01b0382166108f6565b60006108f6826137ff565b60006108f682613810565b60005b83811015613841578181015183820152602001613829565b838111156118b55750506000910152565b600081613861576138616138f2565b506000190190565b60028104600182168061387d57607f821691505b6020821081141561389057613890613934565b50919050565b61389f8261398c565b81018181106001600160401b03821117156138bc576138bc613976565b6040525050565b60006000198214156138d7576138d76138f2565b5060010190565b6000826138ed576138ed613908565b500690565b634e487b7160e01b600052601160045260246000fd5b634e487b7160e01b600052601260045260246000fd5b634e487b7160e01b600052602160045260246000fd5b634e487b7160e01b600052602260045260246000fd5b634e487b7160e01b600052603160045260246000fd5b634e487b7160e01b600052603260045260246000fd5b634e487b7160e01b600052604160045260246000fd5b601f01601f191690565b61399f816137ff565b8114610f2b57600080fd5b80151561399f565b8061399f565b6001600160e01b0319811661399f565b61399f8161381056fea26469706673582212202d9cef130b7673376414d32d99ecd56538e86a55eb399ee6ba90e4659ef396e664736f6c63430008070033",
  "devdoc": {
    "author": "Masa Finance",
    "details": "Soulbound 2FA, that inherits from the SBT contract.",
    "kind": "dev",
    "methods": {
      "addAuthority(address)": {
        "details": "The caller must have the admin role to call this function",
        "params": {
          "_authority": "New authority to add"
        }
      },
      "balanceOf(address)": {
        "details": "See {ISBT-balanceOf}."
      },
      "burn(uint256)": {
        "details": "Burns `tokenId`. See {SBT-_burn}. Requirements: - The caller must own `tokenId` or be an approved operator."
      },
      "constructor": {
        "details": "Creates a new soulbound 2FA, inheriting from the SBT contract.",
        "params": {
          "admin": "Administrator of the smart contract",
          "baseTokenURI": "Base URI of the token",
          "paymentParams": "Payment gateway params",
          "soulboundIdentity": "Address of the SoulboundIdentity contract"
        }
      },
      "disablePaymentMethod(address)": {
        "details": "The caller must have the admin role to call this function",
        "params": {
          "_paymentMethod": "Token to remove"
        }
      },
      "enablePaymentMethod(address)": {
        "details": "The caller must have the admin role to call this function",
        "params": {
          "_paymentMethod": "New token to add"
        }
      },
      "exists(uint256)": {
        "details": "Returns true if the token has been minted",
        "params": {
          "tokenId": "Token to check"
        },
        "returns": {
          "_0": "True if the token exists"
        }
      },
      "getEnabledPaymentMethods()": {
        "details": "Returns the address of all available payment methods",
        "returns": {
          "_0": "Array of all enabled payment methods"
        }
      },
      "getIdentityId(uint256)": {
        "params": {
          "tokenId": "Id of the token"
        },
        "returns": {
          "_0": "Id of the identity"
        }
      },
      "getMintPrice(address)": {
        "details": "Returns current pricing for minting",
        "params": {
          "paymentMethod": "Address of token that user want to pay"
        },
        "returns": {
          "_0": "Current price for minting in the given payment method"
        }
      },
      "getRoleAdmin(bytes32)": {
        "details": "Returns the admin role that controls `role`. See {grantRole} and {revokeRole}. To change a role's admin, use {_setRoleAdmin}."
      },
      "grantRole(bytes32,address)": {
        "details": "Grants `role` to `account`. If `account` had not been already granted `role`, emits a {RoleGranted} event. Requirements: - the caller must have ``role``'s admin role. May emit a {RoleGranted} event."
      },
      "hasRole(bytes32,address)": {
        "details": "Returns `true` if `account` has been granted `role`."
      },
      "mint(address,address,address,uint256,bytes)": {
        "details": "The caller must have the MINTER role",
        "params": {
          "paymentMethod": "Address of token that user want to pay",
          "to": "The address to mint the SBT to"
        },
        "returns": {
          "_0": "The SBT ID of the newly minted SBT"
        }
      },
      "mint(address,uint256,address,uint256,bytes)": {
        "details": "The caller must have the MINTER role",
        "params": {
          "identityId": "TokenId of the identity to mint the NFT to",
          "paymentMethod": "Address of token that user want to pay"
        },
        "returns": {
          "_0": "The NFT ID of the newly minted SBT"
        }
      },
      "name()": {
        "details": "See {ISBTMetadata-name}."
      },
      "ownerOf(uint256)": {
        "details": "See {ISBT-ownerOf}."
      },
      "removeAuthority(address)": {
        "details": "The caller must have the admin role to call this function",
        "params": {
          "_authority": "Authority to remove"
        }
      },
      "renounceRole(bytes32,address)": {
        "details": "Revokes `role` from the calling account. Roles are often managed via {grantRole} and {revokeRole}: this function's purpose is to provide a mechanism for accounts to lose their privileges if they are compromised (such as when a trusted device is misplaced). If the calling account had been revoked `role`, emits a {RoleRevoked} event. Requirements: - the caller must be `account`. May emit a {RoleRevoked} event."
      },
      "revokeRole(bytes32,address)": {
        "details": "Revokes `role` from `account`. If `account` had been granted `role`, emits a {RoleRevoked} event. Requirements: - the caller must have ``role``'s admin role. May emit a {RoleRevoked} event."
      },
      "setAddLinkPrice(uint256)": {
        "details": "The caller must have the admin role to call this function",
        "params": {
          "_addLinkPrice": "New price for adding the link in SoulLinker in stable coin"
        }
      },
      "setAddLinkPriceMASA(uint256)": {
        "details": "The caller must have the admin role to call this function",
        "params": {
          "_addLinkPriceMASA": "New price for adding the link in SoulLinker in MASA"
        }
      },
      "setMasaToken(address)": {
        "details": "The caller must have the admin role to call this function It can be set to address(0) to disable paying in MASA",
        "params": {
          "_masaToken": "New utility token to pay the fee in"
        }
      },
      "setMintPrice(uint256)": {
        "details": "The caller must have the admin role to call this function",
        "params": {
          "_mintPrice": "New price of minting in stable coin"
        }
      },
      "setMintPriceMASA(uint256)": {
        "details": "The caller must have the admin role to call this function",
        "params": {
          "_mintPriceMASA": "New price of minting in MASA"
        }
      },
      "setQueryLinkPrice(uint256)": {
        "details": "The caller must have the admin role to call this function",
        "params": {
          "_queryLinkPrice": "New price for reading data in SoulLinker in stable coin"
        }
      },
      "setQueryLinkPriceMASA(uint256)": {
        "details": "The caller must have the admin role to call this function",
        "params": {
          "_queryLinkPriceMASA": "New price for reading data in SoulLinker in MASA"
        }
      },
      "setReserveWallet(address)": {
        "details": "The caller must have the admin role to call this function",
        "params": {
          "_reserveWallet": "New reserve wallet"
        }
      },
      "setSoulboundIdentity(address)": {
        "details": "The caller must be the admin to call this function",
        "params": {
          "_soulboundIdentity": "Address of the SoulboundIdentity contract"
        }
      },
      "setStableCoin(address)": {
        "details": "The caller must have the admin role to call this function",
        "params": {
          "_stableCoin": "New stable coin to pay the fee in"
        }
      },
      "setSwapRouter(address)": {
        "details": "The caller must have the admin role to call this function",
        "params": {
          "_swapRouter": "New swap router address"
        }
      },
      "setWrappedNativeToken(address)": {
        "details": "The caller must have the admin role to call this function",
        "params": {
          "_wrappedNativeToken": "New wrapped native token address"
        }
      },
      "supportsInterface(bytes4)": {
        "details": "Interface identification is specified in ERC-165.",
        "params": {
          "interfaceId": "The interface identifier, as specified in ERC-165"
        },
        "returns": {
          "_0": "`true` if the contract implements `interfaceId` and  `interfaceId` is not 0xffffffff, `false` otherwise"
        }
      },
      "symbol()": {
        "details": "See {ISBTMetadata-symbol}."
      },
      "tokenByIndex(uint256)": {
        "details": "See {ISBTEnumerable-tokenByIndex}."
      },
      "tokenOfOwnerByIndex(address,uint256)": {
        "details": "See {ISBTEnumerable-tokenOfOwnerByIndex}."
      },
      "tokenURI(uint256)": {
        "details": "Throws if `_tokenId` is not a valid SBT. URIs are defined in RFC  3986. The URI may point to a JSON file that conforms to the \"ERC721  Metadata JSON Schema\".",
        "params": {
          "tokenId": "SBT to get the URI of"
        },
        "returns": {
          "_0": "URI of the SBT"
        }
      },
      "totalSupply()": {
        "details": "See {ISBTEnumerable-totalSupply}."
      }
    },
    "title": "Soulbound Two-factor authentication (2FA)",
    "version": 1
  },
  "userdoc": {
    "kind": "user",
    "methods": {
      "addAuthority(address)": {
        "notice": "Adds a new authority to the list of authorities"
      },
      "constructor": {
        "notice": "Creates a new soulbound Two-factor authentication (2FA)"
      },
      "disablePaymentMethod(address)": {
        "notice": "Removes a token as a valid payment method"
      },
      "enablePaymentMethod(address)": {
        "notice": "Adds a new token as a valid payment method"
      },
      "exists(uint256)": {
        "notice": "Returns true if the token exists"
      },
      "getEnabledPaymentMethods()": {
        "notice": "Returns all available payment methods"
      },
      "getIdentityId(uint256)": {
        "notice": "Returns the identityId owned by the given token"
      },
      "getMintPrice(address)": {
        "notice": "Returns the price for minting"
      },
      "mint(address,address,address,uint256,bytes)": {
        "notice": "Mints a new SBT"
      },
      "mint(address,uint256,address,uint256,bytes)": {
        "notice": "Mints a new SBT"
      },
      "removeAuthority(address)": {
        "notice": "Removes an authority from the list of authorities"
      },
      "setAddLinkPrice(uint256)": {
        "notice": "Sets the price for adding the link in SoulLinker in stable coin"
      },
      "setAddLinkPriceMASA(uint256)": {
        "notice": "Sets the price for adding the link in SoulLinker in MASA"
      },
      "setMasaToken(address)": {
        "notice": "Sets the utility token to pay the fee in (MASA)"
      },
      "setMintPrice(uint256)": {
        "notice": "Sets the price of minting in stable coin"
      },
      "setMintPriceMASA(uint256)": {
        "notice": "Sets the price of minting in MASA"
      },
      "setQueryLinkPrice(uint256)": {
        "notice": "Sets the price for reading data in SoulLinker in stable coin"
      },
      "setQueryLinkPriceMASA(uint256)": {
        "notice": "Sets the price for reading data in SoulLinker in MASA"
      },
      "setReserveWallet(address)": {
        "notice": "Set the reserve wallet"
      },
      "setSoulboundIdentity(address)": {
        "notice": "Sets the SoulboundIdentity contract address linked to this SBT"
      },
      "setStableCoin(address)": {
        "notice": "Sets the stable coin to pay the fee in (USDC)"
      },
      "setSwapRouter(address)": {
        "notice": "Sets the swap router address"
      },
      "setWrappedNativeToken(address)": {
        "notice": "Sets the wrapped native token address"
      },
      "supportsInterface(bytes4)": {
        "notice": "Query if a contract implements an interface"
      },
      "tokenURI(uint256)": {
        "notice": "A distinct Uniform Resource Identifier (URI) for a given asset."
      }
    },
    "notice": "Soulbound token that represents a Two-factor authentication (2FA)",
    "version": 1
  },
  "storageLayout": {
    "storage": [
      {
        "astId": 9566,
        "contract": "contracts/Soulbound2FA.sol:Soulbound2FA",
        "label": "_name",
        "offset": 0,
        "slot": "0",
        "type": "t_string_storage"
      },
      {
        "astId": 9568,
        "contract": "contracts/Soulbound2FA.sol:Soulbound2FA",
        "label": "_symbol",
        "offset": 0,
        "slot": "1",
        "type": "t_string_storage"
      },
      {
        "astId": 9572,
        "contract": "contracts/Soulbound2FA.sol:Soulbound2FA",
        "label": "_owners",
        "offset": 0,
        "slot": "2",
        "type": "t_mapping(t_uint256,t_address)"
      },
      {
        "astId": 9576,
        "contract": "contracts/Soulbound2FA.sol:Soulbound2FA",
        "label": "_balances",
        "offset": 0,
        "slot": "3",
        "type": "t_mapping(t_address,t_uint256)"
      },
      {
        "astId": 10035,
        "contract": "contracts/Soulbound2FA.sol:Soulbound2FA",
        "label": "_ownedTokens",
        "offset": 0,
        "slot": "4",
        "type": "t_mapping(t_address,t_mapping(t_uint256,t_uint256))"
      },
      {
        "astId": 10039,
        "contract": "contracts/Soulbound2FA.sol:Soulbound2FA",
        "label": "_ownedTokensIndex",
        "offset": 0,
        "slot": "5",
        "type": "t_mapping(t_uint256,t_uint256)"
      },
      {
        "astId": 10042,
        "contract": "contracts/Soulbound2FA.sol:Soulbound2FA",
        "label": "_allTokens",
        "offset": 0,
        "slot": "6",
        "type": "t_array(t_uint256)dyn_storage"
      },
      {
        "astId": 10046,
        "contract": "contracts/Soulbound2FA.sol:Soulbound2FA",
        "label": "_allTokensIndex",
        "offset": 0,
        "slot": "7",
        "type": "t_mapping(t_uint256,t_uint256)"
      },
      {
        "astId": 24,
        "contract": "contracts/Soulbound2FA.sol:Soulbound2FA",
        "label": "_roles",
        "offset": 0,
        "slot": "8",
        "type": "t_mapping(t_bytes32,t_struct(RoleData)19_storage)"
      },
      {
        "astId": 7471,
        "contract": "contracts/Soulbound2FA.sol:Soulbound2FA",
        "label": "swapRouter",
        "offset": 0,
        "slot": "9",
        "type": "t_address"
      },
      {
        "astId": 7473,
        "contract": "contracts/Soulbound2FA.sol:Soulbound2FA",
        "label": "wrappedNativeToken",
        "offset": 0,
        "slot": "10",
        "type": "t_address"
      },
      {
        "astId": 7475,
        "contract": "contracts/Soulbound2FA.sol:Soulbound2FA",
        "label": "stableCoin",
        "offset": 0,
        "slot": "11",
        "type": "t_address"
      },
      {
        "astId": 7477,
        "contract": "contracts/Soulbound2FA.sol:Soulbound2FA",
        "label": "masaToken",
        "offset": 0,
        "slot": "12",
        "type": "t_address"
      },
      {
        "astId": 7481,
        "contract": "contracts/Soulbound2FA.sol:Soulbound2FA",
        "label": "enabledPaymentMethod",
        "offset": 0,
        "slot": "13",
        "type": "t_mapping(t_address,t_bool)"
      },
      {
        "astId": 7484,
        "contract": "contracts/Soulbound2FA.sol:Soulbound2FA",
        "label": "enabledPaymentMethods",
        "offset": 0,
        "slot": "14",
        "type": "t_array(t_address)dyn_storage"
      },
      {
        "astId": 7486,
        "contract": "contracts/Soulbound2FA.sol:Soulbound2FA",
        "label": "reserveWallet",
        "offset": 0,
        "slot": "15",
        "type": "t_address"
      },
      {
        "astId": 8826,
        "contract": "contracts/Soulbound2FA.sol:Soulbound2FA",
        "label": "_baseTokenURI",
        "offset": 0,
        "slot": "16",
        "type": "t_string_storage"
      },
      {
        "astId": 8829,
        "contract": "contracts/Soulbound2FA.sol:Soulbound2FA",
        "label": "addLinkPrice",
        "offset": 0,
        "slot": "17",
        "type": "t_uint256"
      },
      {
        "astId": 8832,
        "contract": "contracts/Soulbound2FA.sol:Soulbound2FA",
        "label": "addLinkPriceMASA",
        "offset": 0,
        "slot": "18",
        "type": "t_uint256"
      },
      {
        "astId": 8835,
        "contract": "contracts/Soulbound2FA.sol:Soulbound2FA",
        "label": "queryLinkPrice",
        "offset": 0,
        "slot": "19",
        "type": "t_uint256"
      },
      {
        "astId": 8838,
        "contract": "contracts/Soulbound2FA.sol:Soulbound2FA",
        "label": "queryLinkPriceMASA",
        "offset": 0,
        "slot": "20",
        "type": "t_uint256"
      },
      {
        "astId": 9147,
        "contract": "contracts/Soulbound2FA.sol:Soulbound2FA",
        "label": "_tokenIdCounter",
        "offset": 0,
        "slot": "21",
        "type": "t_struct(Counter)2798_storage"
      },
      {
        "astId": 9150,
        "contract": "contracts/Soulbound2FA.sol:Soulbound2FA",
        "label": "soulboundIdentity",
        "offset": 0,
        "slot": "22",
        "type": "t_contract(ISoulboundIdentity)8231"
      },
      {
        "astId": 9152,
        "contract": "contracts/Soulbound2FA.sol:Soulbound2FA",
        "label": "mintPrice",
        "offset": 0,
        "slot": "23",
        "type": "t_uint256"
      },
      {
        "astId": 9154,
        "contract": "contracts/Soulbound2FA.sol:Soulbound2FA",
        "label": "mintPriceMASA",
        "offset": 0,
        "slot": "24",
        "type": "t_uint256"
      },
      {
        "astId": 9158,
        "contract": "contracts/Soulbound2FA.sol:Soulbound2FA",
        "label": "authorities",
        "offset": 0,
        "slot": "25",
        "type": "t_mapping(t_address,t_bool)"
      },
      {
        "astId": 624,
        "contract": "contracts/Soulbound2FA.sol:Soulbound2FA",
        "label": "_status",
        "offset": 0,
        "slot": "26",
        "type": "t_uint256"
      }
    ],
    "types": {
      "t_address": {
        "encoding": "inplace",
        "label": "address",
        "numberOfBytes": "20"
      },
      "t_array(t_address)dyn_storage": {
        "base": "t_address",
        "encoding": "dynamic_array",
        "label": "address[]",
        "numberOfBytes": "32"
      },
      "t_array(t_uint256)dyn_storage": {
        "base": "t_uint256",
        "encoding": "dynamic_array",
        "label": "uint256[]",
        "numberOfBytes": "32"
      },
      "t_bool": {
        "encoding": "inplace",
        "label": "bool",
        "numberOfBytes": "1"
      },
      "t_bytes32": {
        "encoding": "inplace",
        "label": "bytes32",
        "numberOfBytes": "32"
      },
      "t_contract(ISoulboundIdentity)8231": {
        "encoding": "inplace",
        "label": "contract ISoulboundIdentity",
        "numberOfBytes": "20"
      },
      "t_mapping(t_address,t_bool)": {
        "encoding": "mapping",
        "key": "t_address",
        "label": "mapping(address => bool)",
        "numberOfBytes": "32",
        "value": "t_bool"
      },
      "t_mapping(t_address,t_mapping(t_uint256,t_uint256))": {
        "encoding": "mapping",
        "key": "t_address",
        "label": "mapping(address => mapping(uint256 => uint256))",
        "numberOfBytes": "32",
        "value": "t_mapping(t_uint256,t_uint256)"
      },
      "t_mapping(t_address,t_uint256)": {
        "encoding": "mapping",
        "key": "t_address",
        "label": "mapping(address => uint256)",
        "numberOfBytes": "32",
        "value": "t_uint256"
      },
      "t_mapping(t_bytes32,t_struct(RoleData)19_storage)": {
        "encoding": "mapping",
        "key": "t_bytes32",
        "label": "mapping(bytes32 => struct AccessControl.RoleData)",
        "numberOfBytes": "32",
        "value": "t_struct(RoleData)19_storage"
      },
      "t_mapping(t_uint256,t_address)": {
        "encoding": "mapping",
        "key": "t_uint256",
        "label": "mapping(uint256 => address)",
        "numberOfBytes": "32",
        "value": "t_address"
      },
      "t_mapping(t_uint256,t_uint256)": {
        "encoding": "mapping",
        "key": "t_uint256",
        "label": "mapping(uint256 => uint256)",
        "numberOfBytes": "32",
        "value": "t_uint256"
      },
      "t_string_storage": {
        "encoding": "bytes",
        "label": "string",
        "numberOfBytes": "32"
      },
      "t_struct(Counter)2798_storage": {
        "encoding": "inplace",
        "label": "struct Counters.Counter",
        "members": [
          {
            "astId": 2797,
            "contract": "contracts/Soulbound2FA.sol:Soulbound2FA",
            "label": "_value",
            "offset": 0,
            "slot": "0",
            "type": "t_uint256"
          }
        ],
        "numberOfBytes": "32"
      },
      "t_struct(RoleData)19_storage": {
        "encoding": "inplace",
        "label": "struct AccessControl.RoleData",
        "members": [
          {
            "astId": 16,
            "contract": "contracts/Soulbound2FA.sol:Soulbound2FA",
            "label": "members",
            "offset": 0,
            "slot": "0",
            "type": "t_mapping(t_address,t_bool)"
          },
          {
            "astId": 18,
            "contract": "contracts/Soulbound2FA.sol:Soulbound2FA",
            "label": "adminRole",
            "offset": 0,
            "slot": "1",
            "type": "t_bytes32"
          }
        ],
        "numberOfBytes": "64"
      },
      "t_uint256": {
        "encoding": "inplace",
        "label": "uint256",
        "numberOfBytes": "32"
      }
    }
  }
}