{
  "address": "0xB99CA5896D3cb306B6066e22B3CB82eA10361279",
  "abi": [
    {
      "inputs": [
        {
          "internalType": "address",
          "name": "admin",
          "type": "address"
        },
        {
          "internalType": "contract ISoulboundIdentity",
          "name": "_soulboundIdentity",
          "type": "address"
        },
        {
          "internalType": "contract ISoulName[]",
          "name": "_soulNames",
          "type": "address[]"
        },
        {
          "components": [
            {
              "internalType": "address",
              "name": "swapRouter",
              "type": "address"
            },
            {
              "internalType": "address",
              "name": "wrappedNativeToken",
              "type": "address"
            },
            {
              "internalType": "address",
              "name": "stableCoin",
              "type": "address"
            },
            {
              "internalType": "address",
              "name": "masaToken",
              "type": "address"
            },
            {
              "internalType": "address",
              "name": "projectFeeReceiver",
              "type": "address"
            },
            {
              "internalType": "address",
              "name": "protocolFeeReceiver",
              "type": "address"
            },
            {
              "internalType": "uint256",
              "name": "protocolFeeAmount",
              "type": "uint256"
            },
            {
              "internalType": "uint256",
              "name": "protocolFeePercent",
              "type": "uint256"
            },
            {
              "internalType": "uint256",
              "name": "protocolFeePercentSub",
              "type": "uint256"
            }
          ],
          "internalType": "struct PaymentGateway.PaymentParams",
          "name": "paymentParams",
          "type": "tuple"
        }
      ],
      "stateMutability": "nonpayable",
      "type": "constructor"
    },
    {
      "inputs": [],
      "name": "AlreadyAdded",
      "type": "error"
    },
    {
      "inputs": [
        {
          "internalType": "address",
          "name": "caller",
          "type": "address"
        }
      ],
      "name": "CallerNotOwner",
      "type": "error"
    },
    {
      "inputs": [
        {
          "internalType": "address",
          "name": "caller",
          "type": "address"
        }
      ],
      "name": "CallerNotReader",
      "type": "error"
    },
    {
      "inputs": [
        {
          "internalType": "uint256",
          "name": "readerIdentityId",
          "type": "uint256"
        }
      ],
      "name": "IdentityOwnerIsReader",
      "type": "error"
    },
    {
      "inputs": [
        {
          "internalType": "uint256",
          "name": "tokenId",
          "type": "uint256"
        },
        {
          "internalType": "uint256",
          "name": "ownerIdentityId",
          "type": "uint256"
        }
      ],
      "name": "IdentityOwnerNotTokenOwner",
      "type": "error"
    },
    {
      "inputs": [
        {
          "internalType": "uint256",
          "name": "amount",
          "type": "uint256"
        }
      ],
      "name": "InsufficientEthAmount",
      "type": "error"
    },
    {
      "inputs": [
        {
          "internalType": "address",
          "name": "paymentMethod",
          "type": "address"
        }
      ],
      "name": "InvalidPaymentMethod",
      "type": "error"
    },
    {
      "inputs": [],
      "name": "InvalidSignature",
      "type": "error"
    },
    {
      "inputs": [
        {
          "internalType": "uint256",
          "name": "signatureDate",
          "type": "uint256"
        }
      ],
      "name": "InvalidSignatureDate",
      "type": "error"
    },
    {
      "inputs": [
        {
          "internalType": "address",
          "name": "token",
          "type": "address"
        }
      ],
      "name": "InvalidToken",
      "type": "error"
    },
    {
      "inputs": [
        {
          "internalType": "address",
          "name": "token",
          "type": "address"
        },
        {
          "internalType": "uint256",
          "name": "tokenId",
          "type": "uint256"
        },
        {
          "internalType": "uint256",
          "name": "readerIdentityId",
          "type": "uint256"
        },
        {
          "internalType": "uint256",
          "name": "signatureDate",
          "type": "uint256"
        }
      ],
      "name": "LinkAlreadyExists",
      "type": "error"
    },
    {
      "inputs": [],
      "name": "LinkAlreadyRevoked",
      "type": "error"
    },
    {
      "inputs": [],
      "name": "LinkDoesNotExist",
      "type": "error"
    },
    {
      "inputs": [
        {
          "internalType": "address",
          "name": "erc20token",
          "type": "address"
        }
      ],
      "name": "NonExistingErc20Token",
      "type": "error"
    },
    {
      "inputs": [],
      "name": "PaymentParamsNotSet",
      "type": "error"
    },
    {
      "inputs": [],
      "name": "ProtocolFeeReceiverNotSet",
      "type": "error"
    },
    {
      "inputs": [],
      "name": "RefundFailed",
      "type": "error"
    },
    {
      "inputs": [],
      "name": "SameValue",
      "type": "error"
    },
    {
      "inputs": [],
      "name": "SoulNameNotExist",
      "type": "error"
    },
    {
      "inputs": [
        {
          "internalType": "address",
          "name": "token",
          "type": "address"
        }
      ],
      "name": "SoulNameNotRegistered",
      "type": "error"
    },
    {
      "inputs": [],
      "name": "TransferFailed",
      "type": "error"
    },
    {
      "inputs": [],
      "name": "UserMustHaveProtocolOrProjectAdminRole",
      "type": "error"
    },
    {
      "inputs": [
        {
          "internalType": "uint256",
          "name": "expirationDate",
          "type": "uint256"
        }
      ],
      "name": "ValidPeriodExpired",
      "type": "error"
    },
    {
      "inputs": [],
      "name": "ZeroAddress",
      "type": "error"
    },
    {
      "anonymous": false,
      "inputs": [
        {
          "indexed": false,
          "internalType": "uint256",
          "name": "readerIdentityId",
          "type": "uint256"
        },
        {
          "indexed": false,
          "internalType": "uint256",
          "name": "ownerIdentityId",
          "type": "uint256"
        },
        {
          "indexed": false,
          "internalType": "address",
          "name": "token",
          "type": "address"
        },
        {
          "indexed": false,
          "internalType": "uint256",
          "name": "tokenId",
          "type": "uint256"
        },
        {
          "indexed": false,
          "internalType": "uint256",
          "name": "signatureDate",
          "type": "uint256"
        },
        {
          "indexed": false,
          "internalType": "uint256",
          "name": "expirationDate",
          "type": "uint256"
        }
      ],
      "name": "LinkAdded",
      "type": "event"
    },
    {
      "anonymous": false,
      "inputs": [
        {
          "indexed": false,
          "internalType": "uint256",
          "name": "readerIdentityId",
          "type": "uint256"
        },
        {
          "indexed": false,
          "internalType": "uint256",
          "name": "ownerIdentityId",
          "type": "uint256"
        },
        {
          "indexed": false,
          "internalType": "address",
          "name": "token",
          "type": "address"
        },
        {
          "indexed": false,
          "internalType": "uint256",
          "name": "tokenId",
          "type": "uint256"
        },
        {
          "indexed": false,
          "internalType": "uint256",
          "name": "signatureDate",
          "type": "uint256"
        }
      ],
      "name": "LinkRevoked",
      "type": "event"
    },
    {
      "anonymous": false,
      "inputs": [
        {
          "indexed": false,
          "internalType": "address",
          "name": "account",
          "type": "address"
        }
      ],
      "name": "Paused",
      "type": "event"
    },
    {
      "anonymous": false,
      "inputs": [
        {
          "indexed": true,
          "internalType": "bytes32",
          "name": "role",
          "type": "bytes32"
        },
        {
          "indexed": true,
          "internalType": "bytes32",
          "name": "previousAdminRole",
          "type": "bytes32"
        },
        {
          "indexed": true,
          "internalType": "bytes32",
          "name": "newAdminRole",
          "type": "bytes32"
        }
      ],
      "name": "RoleAdminChanged",
      "type": "event"
    },
    {
      "anonymous": false,
      "inputs": [
        {
          "indexed": true,
          "internalType": "bytes32",
          "name": "role",
          "type": "bytes32"
        },
        {
          "indexed": true,
          "internalType": "address",
          "name": "account",
          "type": "address"
        },
        {
          "indexed": true,
          "internalType": "address",
          "name": "sender",
          "type": "address"
        }
      ],
      "name": "RoleGranted",
      "type": "event"
    },
    {
      "anonymous": false,
      "inputs": [
        {
          "indexed": true,
          "internalType": "bytes32",
          "name": "role",
          "type": "bytes32"
        },
        {
          "indexed": true,
          "internalType": "address",
          "name": "account",
          "type": "address"
        },
        {
          "indexed": true,
          "internalType": "address",
          "name": "sender",
          "type": "address"
        }
      ],
      "name": "RoleRevoked",
      "type": "event"
    },
    {
      "anonymous": false,
      "inputs": [
        {
          "indexed": false,
          "internalType": "address",
          "name": "account",
          "type": "address"
        }
      ],
      "name": "Unpaused",
      "type": "event"
    },
    {
      "inputs": [],
      "name": "DEFAULT_ADMIN_ROLE",
      "outputs": [
        {
          "internalType": "bytes32",
          "name": "",
          "type": "bytes32"
        }
      ],
      "stateMutability": "view",
      "type": "function"
    },
    {
      "inputs": [],
      "name": "PROJECT_ADMIN_ROLE",
      "outputs": [
        {
          "internalType": "bytes32",
          "name": "",
          "type": "bytes32"
        }
      ],
      "stateMutability": "view",
      "type": "function"
    },
    {
      "inputs": [
        {
          "internalType": "address",
          "name": "paymentMethod",
          "type": "address"
        },
        {
          "internalType": "uint256",
          "name": "readerIdentityId",
          "type": "uint256"
        },
        {
          "internalType": "uint256",
          "name": "ownerIdentityId",
          "type": "uint256"
        },
        {
          "internalType": "address",
          "name": "token",
          "type": "address"
        },
        {
          "internalType": "uint256",
          "name": "tokenId",
          "type": "uint256"
        },
        {
          "internalType": "uint256",
          "name": "signatureDate",
          "type": "uint256"
        },
        {
          "internalType": "uint256",
          "name": "expirationDate",
          "type": "uint256"
        },
        {
          "internalType": "bytes",
          "name": "signature",
          "type": "bytes"
        }
      ],
      "name": "addLink",
      "outputs": [],
      "stateMutability": "payable",
      "type": "function"
    },
    {
      "inputs": [
        {
          "internalType": "contract ISoulName",
          "name": "soulName",
          "type": "address"
        }
      ],
      "name": "addSoulName",
      "outputs": [],
      "stateMutability": "nonpayable",
      "type": "function"
    },
    {
      "inputs": [
        {
          "internalType": "address",
          "name": "",
          "type": "address"
        }
      ],
      "name": "defaultSoulName",
      "outputs": [
        {
          "internalType": "bool",
          "name": "exists",
          "type": "bool"
        },
        {
          "internalType": "address",
          "name": "token",
          "type": "address"
        },
        {
          "internalType": "uint256",
          "name": "tokenId",
          "type": "uint256"
        }
      ],
      "stateMutability": "view",
      "type": "function"
    },
    {
      "inputs": [
        {
          "internalType": "address",
          "name": "_paymentMethod",
          "type": "address"
        }
      ],
      "name": "disablePaymentMethod",
      "outputs": [],
      "stateMutability": "nonpayable",
      "type": "function"
    },
    {
      "inputs": [
        {
          "internalType": "address",
          "name": "_paymentMethod",
          "type": "address"
        }
      ],
      "name": "enablePaymentMethod",
      "outputs": [],
      "stateMutability": "nonpayable",
      "type": "function"
    },
    {
      "inputs": [
        {
          "internalType": "address",
          "name": "",
          "type": "address"
        }
      ],
      "name": "enabledPaymentMethod",
      "outputs": [
        {
          "internalType": "bool",
          "name": "",
          "type": "bool"
        }
      ],
      "stateMutability": "view",
      "type": "function"
    },
    {
      "inputs": [
        {
          "internalType": "uint256",
          "name": "",
          "type": "uint256"
        }
      ],
      "name": "enabledPaymentMethods",
      "outputs": [
        {
          "internalType": "address",
          "name": "",
          "type": "address"
        }
      ],
      "stateMutability": "view",
      "type": "function"
    },
    {
      "inputs": [
        {
          "internalType": "address",
          "name": "owner",
          "type": "address"
        }
      ],
      "name": "getDefaultSoulName",
      "outputs": [
        {
          "internalType": "string",
          "name": "",
          "type": "string"
        }
      ],
      "stateMutability": "view",
      "type": "function"
    },
    {
      "inputs": [],
      "name": "getEnabledPaymentMethods",
      "outputs": [
        {
          "internalType": "address[]",
          "name": "",
          "type": "address[]"
        }
      ],
      "stateMutability": "view",
      "type": "function"
    },
    {
      "inputs": [
        {
          "internalType": "address",
          "name": "token",
          "type": "address"
        },
        {
          "internalType": "uint256",
          "name": "tokenId",
          "type": "uint256"
        }
      ],
      "name": "getIdentityId",
      "outputs": [
        {
          "internalType": "uint256",
          "name": "",
          "type": "uint256"
        }
      ],
      "stateMutability": "view",
      "type": "function"
    },
    {
      "inputs": [
        {
          "internalType": "address",
          "name": "token",
          "type": "address"
        },
        {
          "internalType": "uint256",
          "name": "tokenId",
          "type": "uint256"
        },
        {
          "internalType": "uint256",
          "name": "readerIdentityId",
          "type": "uint256"
        },
        {
          "internalType": "uint256",
          "name": "signatureDate",
          "type": "uint256"
        }
      ],
      "name": "getLinkInfo",
      "outputs": [
        {
          "components": [
            {
              "internalType": "bool",
              "name": "exists",
              "type": "bool"
            },
            {
              "internalType": "uint256",
              "name": "ownerIdentityId",
              "type": "uint256"
            },
            {
              "internalType": "uint256",
              "name": "expirationDate",
              "type": "uint256"
            },
            {
              "internalType": "bool",
              "name": "isRevoked",
              "type": "bool"
            }
          ],
          "internalType": "struct SoulLinker.LinkData",
          "name": "",
          "type": "tuple"
        }
      ],
      "stateMutability": "view",
      "type": "function"
    },
    {
      "inputs": [
        {
          "internalType": "address",
          "name": "token",
          "type": "address"
        },
        {
          "internalType": "uint256",
          "name": "tokenId",
          "type": "uint256"
        },
        {
          "internalType": "uint256",
          "name": "readerIdentityId",
          "type": "uint256"
        }
      ],
      "name": "getLinkSignatureDates",
      "outputs": [
        {
          "internalType": "uint256[]",
          "name": "",
          "type": "uint256[]"
        }
      ],
      "stateMutability": "view",
      "type": "function"
    },
    {
      "inputs": [
        {
          "internalType": "address",
          "name": "token",
          "type": "address"
        },
        {
          "internalType": "uint256",
          "name": "tokenId",
          "type": "uint256"
        }
      ],
      "name": "getLinks",
      "outputs": [
        {
          "components": [
            {
              "internalType": "uint256",
              "name": "readerIdentityId",
              "type": "uint256"
            },
            {
              "internalType": "uint256",
              "name": "signatureDate",
              "type": "uint256"
            }
          ],
          "internalType": "struct SoulLinker.LinkKey[]",
          "name": "",
          "type": "tuple[]"
        }
      ],
      "stateMutability": "view",
      "type": "function"
    },
    {
      "inputs": [
        {
          "internalType": "address",
          "name": "paymentMethod",
          "type": "address"
        },
        {
          "internalType": "address",
          "name": "token",
          "type": "address"
        }
      ],
      "name": "getPriceForAddLink",
      "outputs": [
        {
          "internalType": "uint256",
          "name": "price",
          "type": "uint256"
        }
      ],
      "stateMutability": "view",
      "type": "function"
    },
    {
      "inputs": [
        {
          "internalType": "address",
          "name": "paymentMethod",
          "type": "address"
        },
        {
          "internalType": "address",
          "name": "token",
          "type": "address"
        }
      ],
      "name": "getPriceForAddLinkWithProtocolFee",
      "outputs": [
        {
          "internalType": "uint256",
          "name": "price",
          "type": "uint256"
        },
        {
          "internalType": "uint256",
          "name": "protocolFee",
          "type": "uint256"
        }
      ],
      "stateMutability": "view",
      "type": "function"
    },
    {
      "inputs": [
        {
          "internalType": "address",
          "name": "paymentMethod",
          "type": "address"
        },
        {
          "internalType": "uint256",
          "name": "amount",
          "type": "uint256"
        }
      ],
      "name": "getProtocolFee",
      "outputs": [
        {
          "internalType": "uint256",
          "name": "",
          "type": "uint256"
        }
      ],
      "stateMutability": "view",
      "type": "function"
    },
    {
      "inputs": [
        {
          "internalType": "uint256",
          "name": "amount",
          "type": "uint256"
        }
      ],
      "name": "getProtocolFeeSub",
      "outputs": [
        {
          "internalType": "uint256",
          "name": "",
          "type": "uint256"
        }
      ],
      "stateMutability": "view",
      "type": "function"
    },
    {
      "inputs": [
        {
          "internalType": "uint256",
          "name": "readerIdentityId",
          "type": "uint256"
        }
      ],
      "name": "getReaderLinks",
      "outputs": [
        {
          "components": [
            {
              "internalType": "address",
              "name": "token",
              "type": "address"
            },
            {
              "internalType": "uint256",
              "name": "tokenId",
              "type": "uint256"
            },
            {
              "internalType": "uint256",
              "name": "signatureDate",
              "type": "uint256"
            }
          ],
          "internalType": "struct SoulLinker.ReaderLink[]",
          "name": "",
          "type": "tuple[]"
        }
      ],
      "stateMutability": "view",
      "type": "function"
    },
    {
      "inputs": [
        {
          "internalType": "bytes32",
          "name": "role",
          "type": "bytes32"
        }
      ],
      "name": "getRoleAdmin",
      "outputs": [
        {
          "internalType": "bytes32",
          "name": "",
          "type": "bytes32"
        }
      ],
      "stateMutability": "view",
      "type": "function"
    },
    {
      "inputs": [
        {
          "internalType": "uint256",
          "name": "identityId",
          "type": "uint256"
        },
        {
          "internalType": "address",
          "name": "token",
          "type": "address"
        }
      ],
      "name": "getSBTConnections",
      "outputs": [
        {
          "internalType": "uint256[]",
          "name": "",
          "type": "uint256[]"
        }
      ],
      "stateMutability": "view",
      "type": "function"
    },
    {
      "inputs": [
        {
          "internalType": "address",
          "name": "owner",
          "type": "address"
        },
        {
          "internalType": "address",
          "name": "token",
          "type": "address"
        }
      ],
      "name": "getSBTConnections",
      "outputs": [
        {
          "internalType": "uint256[]",
          "name": "",
          "type": "uint256[]"
        }
      ],
      "stateMutability": "view",
      "type": "function"
    },
    {
      "inputs": [
        {
          "internalType": "uint256",
          "name": "tokenId",
          "type": "uint256"
        }
      ],
      "name": "getSoulNames",
      "outputs": [
        {
          "internalType": "string",
          "name": "defaultName",
          "type": "string"
        },
        {
          "internalType": "string[]",
          "name": "names",
          "type": "string[]"
        }
      ],
      "stateMutability": "view",
      "type": "function"
    },
    {
      "inputs": [
        {
          "internalType": "address",
          "name": "owner",
          "type": "address"
        }
      ],
      "name": "getSoulNames",
      "outputs": [
        {
          "internalType": "string",
          "name": "defaultName",
          "type": "string"
        },
        {
          "internalType": "string[]",
          "name": "names",
          "type": "string[]"
        }
      ],
      "stateMutability": "view",
      "type": "function"
    },
    {
      "inputs": [
        {
          "internalType": "bytes32",
          "name": "role",
          "type": "bytes32"
        },
        {
          "internalType": "address",
          "name": "account",
          "type": "address"
        }
      ],
      "name": "grantRole",
      "outputs": [],
      "stateMutability": "nonpayable",
      "type": "function"
    },
    {
      "inputs": [
        {
          "internalType": "bytes32",
          "name": "role",
          "type": "bytes32"
        },
        {
          "internalType": "address",
          "name": "account",
          "type": "address"
        }
      ],
      "name": "hasRole",
      "outputs": [
        {
          "internalType": "bool",
          "name": "",
          "type": "bool"
        }
      ],
      "stateMutability": "view",
      "type": "function"
    },
    {
      "inputs": [
        {
          "internalType": "address",
          "name": "",
          "type": "address"
        }
      ],
      "name": "isSoulName",
      "outputs": [
        {
          "internalType": "bool",
          "name": "",
          "type": "bool"
        }
      ],
      "stateMutability": "view",
      "type": "function"
    },
    {
      "inputs": [],
      "name": "masaToken",
      "outputs": [
        {
          "internalType": "address",
          "name": "",
          "type": "address"
        }
      ],
      "stateMutability": "view",
      "type": "function"
    },
    {
      "inputs": [],
      "name": "pause",
      "outputs": [],
      "stateMutability": "nonpayable",
      "type": "function"
    },
    {
      "inputs": [],
      "name": "paused",
      "outputs": [
        {
          "internalType": "bool",
          "name": "",
          "type": "bool"
        }
      ],
      "stateMutability": "view",
      "type": "function"
    },
    {
      "inputs": [],
      "name": "projectFeeReceiver",
      "outputs": [
        {
          "internalType": "address",
          "name": "",
          "type": "address"
        }
      ],
      "stateMutability": "view",
      "type": "function"
    },
    {
      "inputs": [],
      "name": "protocolFeeAmount",
      "outputs": [
        {
          "internalType": "uint256",
          "name": "",
          "type": "uint256"
        }
      ],
      "stateMutability": "view",
      "type": "function"
    },
    {
      "inputs": [],
      "name": "protocolFeePercent",
      "outputs": [
        {
          "internalType": "uint256",
          "name": "",
          "type": "uint256"
        }
      ],
      "stateMutability": "view",
      "type": "function"
    },
    {
      "inputs": [],
      "name": "protocolFeePercentSub",
      "outputs": [
        {
          "internalType": "uint256",
          "name": "",
          "type": "uint256"
        }
      ],
      "stateMutability": "view",
      "type": "function"
    },
    {
      "inputs": [],
      "name": "protocolFeeReceiver",
      "outputs": [
        {
          "internalType": "address",
          "name": "",
          "type": "address"
        }
      ],
      "stateMutability": "view",
      "type": "function"
    },
    {
      "inputs": [
        {
          "internalType": "contract ISoulName",
          "name": "soulName",
          "type": "address"
        }
      ],
      "name": "removeSoulName",
      "outputs": [],
      "stateMutability": "nonpayable",
      "type": "function"
    },
    {
      "inputs": [
        {
          "internalType": "bytes32",
          "name": "role",
          "type": "bytes32"
        },
        {
          "internalType": "address",
          "name": "account",
          "type": "address"
        }
      ],
      "name": "renounceRole",
      "outputs": [],
      "stateMutability": "nonpayable",
      "type": "function"
    },
    {
      "inputs": [
        {
          "internalType": "uint256",
          "name": "readerIdentityId",
          "type": "uint256"
        },
        {
          "internalType": "uint256",
          "name": "ownerIdentityId",
          "type": "uint256"
        },
        {
          "internalType": "address",
          "name": "token",
          "type": "address"
        },
        {
          "internalType": "uint256",
          "name": "tokenId",
          "type": "uint256"
        },
        {
          "internalType": "uint256",
          "name": "signatureDate",
          "type": "uint256"
        }
      ],
      "name": "revokeLink",
      "outputs": [],
      "stateMutability": "nonpayable",
      "type": "function"
    },
    {
      "inputs": [
        {
          "internalType": "bytes32",
          "name": "role",
          "type": "bytes32"
        },
        {
          "internalType": "address",
          "name": "account",
          "type": "address"
        }
      ],
      "name": "revokeRole",
      "outputs": [],
      "stateMutability": "nonpayable",
      "type": "function"
    },
    {
      "inputs": [
        {
          "internalType": "address",
          "name": "token",
          "type": "address"
        },
        {
          "internalType": "uint256",
          "name": "tokenId",
          "type": "uint256"
        }
      ],
      "name": "setDefaultSoulName",
      "outputs": [],
      "stateMutability": "nonpayable",
      "type": "function"
    },
    {
      "inputs": [
        {
          "internalType": "address",
          "name": "_masaToken",
          "type": "address"
        }
      ],
      "name": "setMasaToken",
      "outputs": [],
      "stateMutability": "nonpayable",
      "type": "function"
    },
    {
      "inputs": [
        {
          "internalType": "address",
          "name": "_projectFeeReceiver",
          "type": "address"
        }
      ],
      "name": "setProjectFeeReceiver",
      "outputs": [],
      "stateMutability": "nonpayable",
      "type": "function"
    },
    {
      "inputs": [
        {
          "internalType": "uint256",
          "name": "_protocolFeeAmount",
          "type": "uint256"
        }
      ],
      "name": "setProtocolFeeAmount",
      "outputs": [],
      "stateMutability": "nonpayable",
      "type": "function"
    },
    {
      "inputs": [
        {
          "internalType": "uint256",
          "name": "_protocolFeePercent",
          "type": "uint256"
        }
      ],
      "name": "setProtocolFeePercent",
      "outputs": [],
      "stateMutability": "nonpayable",
      "type": "function"
    },
    {
      "inputs": [
        {
          "internalType": "uint256",
          "name": "_protocolFeePercentSub",
          "type": "uint256"
        }
      ],
      "name": "setProtocolFeePercentSub",
      "outputs": [],
      "stateMutability": "nonpayable",
      "type": "function"
    },
    {
      "inputs": [
        {
          "internalType": "address",
          "name": "_protocolFeeReceiver",
          "type": "address"
        }
      ],
      "name": "setProtocolFeeReceiver",
      "outputs": [],
      "stateMutability": "nonpayable",
      "type": "function"
    },
    {
      "inputs": [
        {
          "internalType": "contract ISoulboundIdentity",
          "name": "_soulboundIdentity",
          "type": "address"
        }
      ],
      "name": "setSoulboundIdentity",
      "outputs": [],
      "stateMutability": "nonpayable",
      "type": "function"
    },
    {
      "inputs": [
        {
          "internalType": "address",
          "name": "_stableCoin",
          "type": "address"
        }
      ],
      "name": "setStableCoin",
      "outputs": [],
      "stateMutability": "nonpayable",
      "type": "function"
    },
    {
      "inputs": [
        {
          "internalType": "address",
          "name": "_swapRouter",
          "type": "address"
        }
      ],
      "name": "setSwapRouter",
      "outputs": [],
      "stateMutability": "nonpayable",
      "type": "function"
    },
    {
      "inputs": [
        {
          "internalType": "address",
          "name": "_wrappedNativeToken",
          "type": "address"
        }
      ],
      "name": "setWrappedNativeToken",
      "outputs": [],
      "stateMutability": "nonpayable",
      "type": "function"
    },
    {
      "inputs": [
        {
          "internalType": "uint256",
          "name": "",
          "type": "uint256"
        }
      ],
      "name": "soulNames",
      "outputs": [
        {
          "internalType": "contract ISoulName",
          "name": "",
          "type": "address"
        }
      ],
      "stateMutability": "view",
      "type": "function"
    },
    {
      "inputs": [],
      "name": "soulboundIdentity",
      "outputs": [
        {
          "internalType": "contract ISoulboundIdentity",
          "name": "",
          "type": "address"
        }
      ],
      "stateMutability": "view",
      "type": "function"
    },
    {
      "inputs": [],
      "name": "stableCoin",
      "outputs": [
        {
          "internalType": "address",
          "name": "",
          "type": "address"
        }
      ],
      "stateMutability": "view",
      "type": "function"
    },
    {
      "inputs": [
        {
          "internalType": "bytes4",
          "name": "interfaceId",
          "type": "bytes4"
        }
      ],
      "name": "supportsInterface",
      "outputs": [
        {
          "internalType": "bool",
          "name": "",
          "type": "bool"
        }
      ],
      "stateMutability": "view",
      "type": "function"
    },
    {
      "inputs": [],
      "name": "swapRouter",
      "outputs": [
        {
          "internalType": "address",
          "name": "",
          "type": "address"
        }
      ],
      "stateMutability": "view",
      "type": "function"
    },
    {
      "inputs": [],
      "name": "unpause",
      "outputs": [],
      "stateMutability": "nonpayable",
      "type": "function"
    },
    {
      "inputs": [
        {
          "internalType": "uint256",
          "name": "readerIdentityId",
          "type": "uint256"
        },
        {
          "internalType": "uint256",
          "name": "ownerIdentityId",
          "type": "uint256"
        },
        {
          "internalType": "address",
          "name": "token",
          "type": "address"
        },
        {
          "internalType": "uint256",
          "name": "tokenId",
          "type": "uint256"
        },
        {
          "internalType": "uint256",
          "name": "signatureDate",
          "type": "uint256"
        }
      ],
      "name": "validateLink",
      "outputs": [
        {
          "internalType": "bool",
          "name": "",
          "type": "bool"
        }
      ],
      "stateMutability": "view",
      "type": "function"
    },
    {
      "inputs": [],
      "name": "wrappedNativeToken",
      "outputs": [
        {
          "internalType": "address",
          "name": "",
          "type": "address"
        }
      ],
      "stateMutability": "view",
      "type": "function"
    }
  ],
  "transactionHash": "0x7df31faac841ad97b78764a097d95c2af7828c475eac8325cdefb393ce4aa06d",
  "args": [
    "0xA38dd237a3A8D50537B74a4B0D4E7E8A5359386F",
    "0x2c4C19752af9182949f237e843e104Dd79F4bfF1",
    [
      "0x65627C04433d72283662B58B423bA8A1dfBd3fe3"
    ],
    [
      "0x7a250d5630B4cF539739dF2C5dAcb4c659F2488D",
      "0xB4FBF271143F4FBf7B91A5ded31805e42b2208d6",
      "0xD87Ba7A50B2E7E660f678A895E4B72E7CB4CCd9C",
      "0x1f9840a85d5aF5bf1D1762F925BDADdC4201F984",
      "0xA38dd237a3A8D50537B74a4B0D4E7E8A5359386F",
      "0x0000000000000000000000000000000000000000",
      "0",
      "0",
      "0"
    ]
  ],
  "numDeployments": 1,
  "solcInputHash": "5558b024e18afa2bd1bbc886a7d47d60",
  "bytecode": "0x6101406040523480156200001257600080fd5b5060405162005d9038038062005d9083398101604081905262000035916200065b565b604080518082018252600a81526929b7bab62634b735b2b960b11b602080830191909152825180840190935260058352640312e302e360dc1b908301529085836200008260008362000264565b8051600180546001600160a01b03199081166001600160a01b039384161790915560208084015160028054841691851691909117905560408401516003805484169185169190911790556060840151600480548416918516919091179055608084015160078054841691851691909117905560a0808501516008805490941694169390931790915560c083015160095560e080840151600a5561010093840151600b5586518783012086519287019290922090829052928390524690915291507f8b73c3c69bb8fe3d512ecc4cf759cc79239f7b179b0ffacaa9a75d522b39400f62000170818484620002ed565b6080523060601b60c052610120525050600c805460ff1916905550506001600d556001600160a01b038316620001b95760405163d92e233d60e01b815260040160405180910390fd5b600e80546001600160a01b0319166001600160a01b0385161790558151620001e990600f90602085019062000354565b5060005b82518110156200025957600160106000858481518110620002125762000212620006e6565b6020908102919091018101516001600160a01b03168252810191909152604001600020805460ff191691151591909117905580620002508162000712565b915050620001ed565b505050505062000799565b62000270828262000329565b620002e9576000828152602081815260408083206001600160a01b03851684529091529020805460ff19166001179055620002a83390565b6001600160a01b0316816001600160a01b0316837f2f8788117e7eff1d82e926ec794901d17c78024a50270940304540a733656f0d60405160405180910390a45b5050565b600083838346306040516020016200030a95949392919062000743565b6040516020818303038152906040528051906020012090509392505050565b6000828152602081815260408083206001600160a01b038516845290915290205460ff165b92915050565b828054828255906000526020600020908101928215620003ac579160200282015b82811115620003ac57825182546001600160a01b0319166001600160a01b0390911617825560209092019160019091019062000375565b50620003ba929150620003be565b5090565b5b80821115620003ba5760008155600101620003bf565b60006001600160a01b0382166200034e565b620003f281620003d5565b8114620003fe57600080fd5b50565b80516200034e81620003e7565b60006200034e82620003d5565b620003f2816200040e565b80516200034e816200041b565b634e487b7160e01b600052604160045260246000fd5b601f19601f83011681018181106001600160401b038211171562000471576200047162000433565b6040525050565b60006200048460405190565b905062000492828262000449565b919050565b60006001600160401b03821115620004b357620004b362000433565b5060209081020190565b6000620004d4620004ce8462000497565b62000478565b83815290506020808201908402830185811115620004f557620004f5600080fd5b835b818110156200051d57806200050d888262000426565b84525060209283019201620004f7565b5050509392505050565b600082601f8301126200053d576200053d600080fd5b81516200054f848260208601620004bd565b949350505050565b80620003f2565b80516200034e8162000557565b60006101208284031215620005835762000583600080fd5b6200059061012062000478565b90506000620005a0848462000401565b8252506020620005b38484830162000401565b6020830152506040620005c98482850162000401565b6040830152506060620005df8482850162000401565b6060830152506080620005f58482850162000401565b60808301525060a06200060b8482850162000401565b60a08301525060c062000621848285016200055e565b60c08301525060e062000637848285016200055e565b60e0830152506101006200064e848285016200055e565b6101008301525092915050565b6000806000806101808587031215620006775762000677600080fd5b600062000685878762000401565b9450506020620006988782880162000426565b93505060408501516001600160401b03811115620006b957620006b9600080fd5b620006c78782880162000527565b9250506060620006da878288016200056b565b91505092959194509250565b634e487b7160e01b600052603260045260246000fd5b634e487b7160e01b600052601160045260246000fd5b6000600019821415620007295762000729620006fc565b5060010190565b805b82525050565b6200073281620003d5565b60a0810162000753828862000730565b62000762602083018762000730565b62000771604083018662000730565b62000780606083018562000730565b6200078f608083018462000738565b9695505050505050565b60805160a05160c05160601c60e05161010051610120516155a4620007ec6000396000613fa401526000613fe601526000613fc501526000613f2901526000613f5301526000613f7d01526155a46000f3fe60806040526004361061029b5760003560e01c8062bdfde5146102a057806301ffc9a7146102c25780630513c3e9146102f85780631020051914610325578063126ed01c14610347578063135f470c1461037457806317fcb39b1461038a578063217a2c7b146103aa57806323af4e17146103ca578063241f648b146103ea578063248a9ca31461040a5780632f2ff15d1461042a57806336568abe1461044a57806336d4aa741461046a57806339a51be5146104975780633ad3033e146104b75780633ad39d86146104d75780633f4ba83a146104f7578063412736571461050c57806341c04d5e1461052c57806346877b1a1461054e5780634c3665a61461056e57806357db71991461058e5780635c6ca533146105bc5780635c975abb1461067c57806365d33b5e146106945780636bfd499f146106b457806370bf50eb146106d457806370ff2cd7146106f457806371419d3c1461072157806376ad19971461074e57806377bed5ed1461076e5780637a0d16461461078e5780637e669891146107be57806380776ac4146107ec5780638456cb591461080c5780638d018461146108215780638ec9c93b1461084157806391d148541461085757806394a665e91461087757806397bc2e0d14610897578063992642e5146108b757806399b589cb146108d7578063a217fddf146108f7578063a49834211461090c578063ad99e2931461092c578063b79636b61461094c578063bee85c231461096c578063c31c9c07146109c3578063c4f92e4c146109e3578063c726649a146109f6578063c86aadb614610a23578063d178c9cf14610a43578063d547741f14610a70578063d6e6eb9f14610a90578063da058ae314610aa6578063dc55416714610ac6578063e1c9479714610ae6578063ebda439614610b16575b600080fd5b3480156102ac57600080fd5b506102c06102bb3660046143b6565b610b36565b005b3480156102ce57600080fd5b506102e26102dd3660046143f2565b610b6a565b6040516102ef919061441d565b60405180910390f35b34801561030457600080fd5b506103186103133660046143b6565b610ba1565b6040516102ef919061444b565b34801561033157600080fd5b5061033a610bcb565b6040516102ef91906144b6565b34801561035357600080fd5b506103676103623660046143b6565b610c2d565b6040516102ef91906144cd565b34801561038057600080fd5b50610367600b5481565b34801561039657600080fd5b50600254610318906001600160a01b031681565b3480156103b657600080fd5b506103676103c53660046144ef565b610c38565b3480156103d657600080fd5b506102c06103e536600461452c565b610c4b565b3480156103f657600080fd5b506102c061040536600461456c565b610ca8565b34801561041657600080fd5b506103676104253660046143b6565b610db3565b34801561043657600080fd5b506102c061044536600461458d565b610dc8565b34801561045657600080fd5b506102c061046536600461458d565b610de9565b34801561047657600080fd5b5061048a6104853660046145c0565b610e28565b6040516102ef919061465a565b3480156104a357600080fd5b50600854610318906001600160a01b031681565b3480156104c357600080fd5b506102c06104d236600461456c565b610ea6565b3480156104e357600080fd5b5061048a6104f236600461458d565b610f2a565b34801561050357600080fd5b506102c0610fc4565b34801561051857600080fd5b506102c061052736600461452c565b610fda565b34801561053857600080fd5b5061036760008051602061554f83398151915281565b34801561055a57600080fd5b506102c061056936600461452c565b611037565b34801561057a57600080fd5b5061036761058936600461466b565b611094565b34801561059a57600080fd5b506105ae6105a936600461466b565b61127e565b6040516102ef92919061468d565b3480156105c857600080fd5b5061066f6105d73660046146a8565b604080516080810182526000808252602082018190529181018290526060810191909152506001600160a01b0384166000908152601160209081526040808320868452825280832085845282528083208484528252918290208251608081018452815460ff90811615158252600183015493820193909352600282015493810193909352600301541615156060820152949350505050565b6040516102ef9190614756565b34801561068857600080fd5b50600c5460ff166102e2565b3480156106a057600080fd5b506102e26106af366004614764565b6112a4565b3480156106c057600080fd5b506102c06106cf3660046143b6565b6114be565b3480156106e057600080fd5b506102c06106ef3660046144ef565b6114f2565b34801561070057600080fd5b5061071461070f3660046143b6565b61161f565b6040516102ef9190614865565b34801561072d57600080fd5b5061074161073c3660046143b6565b6116b4565b6040516102ef91906148ae565b34801561075a57600080fd5b506102c061076936600461452c565b6116c4565b34801561077a57600080fd5b50600e54610741906001600160a01b031681565b34801561079a57600080fd5b506102e26107a936600461452c565b60056020526000908152604090205460ff1681565b3480156107ca57600080fd5b506107de6107d93660046143b6565b611721565b6040516102ef929190614998565b3480156107f857600080fd5b506103676108073660046144ef565b6117bc565b34801561081857600080fd5b506102c06118bc565b34801561082d57600080fd5b506102c061083c36600461452c565b6118cf565b34801561084d57600080fd5b5061036760095481565b34801561086357600080fd5b506102e261087236600461458d565b61196b565b34801561088357600080fd5b506102c061089236600461452c565b611994565b3480156108a357600080fd5b506102c06108b2366004614764565b611b01565b3480156108c357600080fd5b50600354610318906001600160a01b031681565b3480156108e357600080fd5b50600754610318906001600160a01b031681565b34801561090357600080fd5b50610367600081565b34801561091857600080fd5b506102c06109273660046143b6565b611f9a565b34801561093857600080fd5b5061048a61094736600461466b565b611fce565b34801561095857600080fd5b506107de61096736600461452c565b612157565b34801561097857600080fd5b506109b461098736600461452c565b6015602052600090815260409020805460019091015460ff82169161010090046001600160a01b03169083565b6040516102ef939291906149bd565b3480156109cf57600080fd5b50600154610318906001600160a01b031681565b6102c06109f1366004614a2f565b6123df565b348015610a0257600080fd5b50610a16610a113660046144ef565b6129ed565b6040516102ef9190614b76565b348015610a2f57600080fd5b506102c0610a3e36600461452c565b612ca4565b348015610a4f57600080fd5b50610a63610a5e36600461452c565b612d50565b6040516102ef9190614b87565b348015610a7c57600080fd5b506102c0610a8b36600461458d565b612ee4565b348015610a9c57600080fd5b50610367600a5481565b348015610ab257600080fd5b506102c0610ac136600461452c565b612f00565b348015610ad257600080fd5b506102c0610ae136600461456c565b612f5d565b348015610af257600080fd5b506102e2610b0136600461452c565b60106020526000908152604090205460ff1681565b348015610b2257600080fd5b50600454610318906001600160a01b031681565b6000610b41816130d2565b600954821415610b645760405163c23f6ccb60e01b815260040160405180910390fd5b50600955565b60006001600160e01b03198216637965db0b60e01b1480610b9b57506301ffc9a760e01b6001600160e01b03198316145b92915050565b60068181548110610bb157600080fd5b6000918252602090912001546001600160a01b0316905081565b60606006805480602002602001604051908101604052809291908181526020018280548015610c2357602002820191906000526020600020905b81546001600160a01b03168152600190910190602001808311610c05575b5050505050905090565b6000610b9b826130dc565b6000610c448383613114565b9392505050565b6000610c56816130d2565b6003546001600160a01b0383811691161415610c855760405163c23f6ccb60e01b815260040160405180910390fd5b50600380546001600160a01b0319166001600160a01b0392909216919091179055565b6000610cb3816130d2565b6001600160a01b038216610cda5760405163d92e233d60e01b815260040160405180910390fd5b60005b600f54811015610d4a57826001600160a01b0316600f8281548110610d0457610d04614b98565b6000918252602090912001546001600160a01b03161415610d385760405163c23f6ccb60e01b815260040160405180910390fd5b80610d4281614bc4565b915050610cdd565b5050600f805460018181019092557f8d1108e10bcb7c27dddfc02ed9d693a074039d026cf4ea4240b40f7d581ac8020180546001600160a01b039093166001600160a01b031990931683179055600091825260106020526040909120805460ff19169091179055565b60009081526020819052604090206001015490565b610dd182610db3565b610dda816130d2565b610de4838361317b565b505050565b6001600160a01b0381163314610e1a5760405162461bcd60e51b8152600401610e1190614c2e565b60405180910390fd5b610e2482826131ff565b5050565b6001600160a01b03831660009081526013602090815260408083208584528252808320848452825291829020805483518184028101840190945280845260609392830182828015610e9857602002820191906000526020600020905b815481526020019060010190808311610e84575b505050505090509392505050565b6000610eb1816130d2565b6001600160a01b038216610ed85760405163d92e233d60e01b815260040160405180910390fd5b600e546001600160a01b0383811691161415610f075760405163c23f6ccb60e01b815260040160405180910390fd5b50600e80546001600160a01b0319166001600160a01b0392909216919091179055565b600e546040516331a9108f60e11b81526060916000916001600160a01b0390911690636352211e90610f609087906004016144cd565b60206040518083038186803b158015610f7857600080fd5b505afa158015610f8c573d6000803e3d6000fd5b505050506040513d601f19601f82011682018060405250810190610fb09190614c49565b9050610fbc8184611fce565b949350505050565b6000610fcf816130d2565b610fd7613264565b50565b6000610fe5816130d2565b6001546001600160a01b03838116911614156110145760405163c23f6ccb60e01b815260040160405180910390fd5b50600180546001600160a01b0319166001600160a01b0392909216919091179055565b6000611042816130d2565b6008546001600160a01b03838116911614156110715760405163c23f6ccb60e01b815260040160405180910390fd5b50600880546001600160a01b0319166001600160a01b0392909216919091179055565b600080826001600160a01b0316631f37c1246040518163ffffffff1660e01b815260040160206040518083038186803b1580156110d057600080fd5b505afa1580156110e4573d6000803e3d6000fd5b505050506040513d601f19601f820116820180604052508101906111089190614c75565b90506000836001600160a01b031663776d1a546040518163ffffffff1660e01b815260040160206040518083038186803b15801561114557600080fd5b505afa158015611159573d6000803e3d6000fd5b505050506040513d601f19601f8201168201806040525081019061117d9190614c75565b90508115801561118b575080155b156111995760009250611276565b6004546001600160a01b0386811691161480156111ce57506001600160a01b03851660009081526005602052604090205460ff165b80156111da5750600081115b156111e757809250611276565b6003546001600160a01b03868116911614801561121c57506001600160a01b03851660009081526005602052604090205460ff165b1561122957819250611276565b6001600160a01b03851660009081526005602052604090205460ff161561125b5761125485836132b0565b9250611276565b84604051630ac29ab760e31b8152600401610e11919061444b565b505092915050565b60008061128b8484611094565b9150816112988584613114565b915091505b9250929050565b600e546040516331a9108f60e11b815260009182916001600160a01b0390911690636352211e906112d99089906004016144cd565b60206040518083038186803b1580156112f157600080fd5b505afa158015611305573d6000803e3d6000fd5b505050506040513d601f19601f820116820180604052508101906113299190614c49565b90506000856001600160a01b0316636352211e866040518263ffffffff1660e01b815260040161135991906144cd565b60206040518083038186803b15801561137157600080fd5b505afa158015611385573d6000803e3d6000fd5b505050506040513d601f19601f820116820180604052508101906113a99190614c49565b6001600160a01b0380881660009081526011602090815260408083208a845282528083208d845282528083208984528252918290208251608081018452815460ff90811615158252600183015493820193909352600282015493810193909352600301541615156060820152919250838116908316146114405785886040516308c931fb60e21b8152600401610e1192919061468d565b805161145f576040516306fc59f560e51b815260040160405180910390fd5b428160400151101561148a5780604001516040516323928a2960e11b8152600401610e1191906144cd565b8060600151156114ad5760405163a5bfec4360e01b815260040160405180910390fd5b600193505050505b95945050505050565b60006114c9816130d2565b600b548214156114ec5760405163c23f6ccb60e01b815260040160405180910390fd5b50600b55565b6001600160a01b03821660009081526010602052604090205460ff1661152d578160405163c77c3b4360e01b8152600401610e11919061444b565b6040516331a9108f60e11b81526000906001600160a01b03841690636352211e9061155c9085906004016144cd565b60206040518083038186803b15801561157457600080fd5b505afa158015611588573d6000803e3d6000fd5b505050506040513d601f19601f820116820180604052508101906115ac9190614c49565b9050336001600160a01b038216146115da57335b60405163060296c760e31b8152600401610e11919061444b565b5033600090815260156020526040902080546001808301939093556001600160a81b0319166101006001600160a01b03949094169390930260ff191692909217179055565b606060146000838152602001908152602001600020805480602002602001604051908101604052809291908181526020016000905b828210156116a9576000848152602090819020604080516060810182526003860290920180546001600160a01b0316835260018082015484860152600290910154918301919091529083529092019101611654565b505050509050919050565b600f8181548110610bb157600080fd5b60006116cf816130d2565b6004546001600160a01b03838116911614156116fe5760405163c23f6ccb60e01b815260040160405180910390fd5b50600480546001600160a01b0319166001600160a01b0392909216919091179055565b600e546040516331a9108f60e11b815260609182916000916001600160a01b031690636352211e906117579087906004016144cd565b60206040518083038186803b15801561176f57600080fd5b505afa158015611783573d6000803e3d6000fd5b505050506040513d601f19601f820116820180604052508101906117a79190614c49565b90506117b281612157565b9250925050915091565b600080836001600160a01b0316636352211e846040518263ffffffff1660e01b81526004016117eb91906144cd565b60206040518083038186803b15801561180357600080fd5b505afa158015611817573d6000803e3d6000fd5b505050506040513d601f19601f8201168201806040525081019061183b9190614c49565b600e5460405163294cdf0d60e01b81529192506001600160a01b03169063294cdf0d9061186c90849060040161444b565b60206040518083038186803b15801561188457600080fd5b505afa158015611898573d6000803e3d6000fd5b505050506040513d601f19601f82011682018060405250810190610fbc9190614c75565b60006118c7816130d2565b610fd7613443565b6118da60003361196b565b1580156118fc57506118fa60008051602061554f8339815191523361196b565b155b1561191a576040516326f0f48160e01b815260040160405180910390fd5b6007546001600160a01b03828116911614156119495760405163c23f6ccb60e01b815260040160405180910390fd5b600780546001600160a01b0319166001600160a01b0392909216919091179055565b6000918252602082815260408084206001600160a01b0393909316845291905290205460ff1690565b600061199f816130d2565b6001600160a01b03821660009081526005602052604090205460ff166119da57816040516318317bd560e01b8152600401610e11919061444b565b6001600160a01b0382166000908152600560205260408120805460ff191690555b600654811015610de457826001600160a01b031660068281548110611a2257611a22614b98565b6000918252602090912001546001600160a01b03161415611aef5760068054611a4d90600190614c96565b81548110611a5d57611a5d614b98565b600091825260209091200154600680546001600160a01b039092169183908110611a8957611a89614b98565b9060005260206000200160006101000a8154816001600160a01b0302191690836001600160a01b031602179055506006805480611ac857611ac8614cad565b600082815260209020810160001990810180546001600160a01b0319169055019055505050565b80611af981614bc4565b9150506119fb565b611b09613480565b600e546040516331a9108f60e11b81526000916001600160a01b031690636352211e90611b3a9088906004016144cd565b60206040518083038186803b158015611b5257600080fd5b505afa158015611b66573d6000803e3d6000fd5b505050506040513d601f19601f82011682018060405250810190611b8a9190614c49565b90506000846001600160a01b0316636352211e856040518263ffffffff1660e01b8152600401611bba91906144cd565b60206040518083038186803b158015611bd257600080fd5b505afa158015611be6573d6000803e3d6000fd5b505050506040513d601f19601f82011682018060405250810190611c0a9190614c49565b9050806001600160a01b0316826001600160a01b031614611c425783866040516308c931fb60e21b8152600401610e1192919061468d565b6001600160a01b0382163314611c5857336115c0565b86861415611c7b5786604051634c804ffb60e01b8152600401610e1191906144cd565b6001600160a01b038516600090815260116020908152604080832087845282528083208a8452825280832086845290915290206003015460ff1615611cd35760405163a5bfec4360e01b815260040160405180910390fd5b6001600160a01b038516600090815260116020908152604080832087845282528083208a8452825280832086845290915290205460ff1615611d55576001600160a01b038516600090815260116020908152604080832087845282528083208a845282528083208684529091529020600301805460ff19166001179055611f52565b6040518060800160405280600115158152602001878152602001600081526020016001151581525060116000876001600160a01b03166001600160a01b0316815260200190815260200160002060008681526020019081526020016000206000898152602001908152602001600020600085815260200190815260200160002060008201518160000160006101000a81548160ff021916908315150217905550602082015181600101556040820151816002015560608201518160030160006101000a81548160ff02191690831515021790555090505060136000866001600160a01b03166001600160a01b03168152602001908152602001600020600085815260200190815260200160002060008881526020019081526020016000208054905060001415611eb3576001600160a01b03851660009081526012602090815260408083208784528252822080546001810182559083529120018790555b6001600160a01b03858116600081815260136020908152604080832089845282528083208c84528252808320805460018082018355918552838520018990558c84526014835281842082516060810184529586528584018b81529286018a815281548084018355918652939094209451600390940290940180546001600160a01b03191693909516929092178455905191830191909155516002909101555b7f92f7f09e974ff9834968d6e74bc08965827de4279f16b8534542ed570c8d265a8787878787604051611f89959493929190614cc3565b60405180910390a150505050505050565b6000611fa5816130d2565b600a54821415611fc85760405163c23f6ccb60e01b815260040160405180910390fd5b50600a55565b60606000826001600160a01b03166370a08231856040518263ffffffff1660e01b8152600401611ffe919061444b565b60206040518083038186803b15801561201657600080fd5b505afa15801561202a573d6000803e3d6000fd5b505050506040513d601f19601f8201168201806040525081019061204e9190614c75565b90506000816001600160401b0381111561206a5761206a614d05565b604051908082528060200260200182016040528015612093578160200160208202803683370190505b50905060005b8281101561214e57604051632f745c5960e01b81526001600160a01b03861690632f745c59906120cf9089908590600401614d1b565b60206040518083038186803b1580156120e757600080fd5b505afa1580156120fb573d6000803e3d6000fd5b505050506040513d601f19601f8201168201806040525081019061211f9190614c75565b82828151811061213157612131614b98565b60209081029190910101528061214681614bc4565b915050612099565b50949350505050565b6060806000805b600f5481101561224d576000600f828154811061217d5761217d614b98565b600091825260209091200154604051635bcb1b5b60e11b81526001600160a01b039091169063b79636b6906121b690899060040161444b565b60006040518083038186803b1580156121ce57600080fd5b505afa1580156121e2573d6000803e3d6000fd5b505050506040513d6000823e601f3d908101601f1916820160405261220a9190810190614eb3565b905060005b8151811015612238578361222281614bc4565b945050808061223090614bc4565b91505061220f565b5050808061224590614bc4565b91505061215e565b506000816001600160401b0381111561226857612268614d05565b60405190808252806020026020018201604052801561229b57816020015b60608152602001906001900390816122865790505b5090506000805b600f548110156123c9576000600f82815481106122c1576122c1614b98565b600091825260209091200154604051635bcb1b5b60e11b81526001600160a01b039091169063b79636b6906122fa908b9060040161444b565b60006040518083038186803b15801561231257600080fd5b505afa158015612326573d6000803e3d6000fd5b505050506040513d6000823e601f3d908101601f1916820160405261234e9190810190614eb3565b905060005b81518110156123b45781818151811061236e5761236e614b98565b602002602001015185858151811061238857612388614b98565b6020026020010181905250838061239e90614bc4565b94505080806123ac90614bc4565b915050612353565b505080806123c190614bc4565b9150506122a2565b506123d386612d50565b96919550909350505050565b6123e7613480565b6123ef6134a5565b600e546040516331a9108f60e11b81526000916001600160a01b031690636352211e90612420908b906004016144cd565b60206040518083038186803b15801561243857600080fd5b505afa15801561244c573d6000803e3d6000fd5b505050506040513d601f19601f820116820180604052508101906124709190614c49565b600e546040516331a9108f60e11b81529192506000916001600160a01b0390911690636352211e906124a6908d906004016144cd565b60206040518083038186803b1580156124be57600080fd5b505afa1580156124d2573d6000803e3d6000fd5b505050506040513d601f19601f820116820180604052508101906124f69190614c49565b90506000886001600160a01b0316636352211e896040518263ffffffff1660e01b815260040161252691906144cd565b60206040518083038186803b15801561253e57600080fd5b505afa158015612552573d6000803e3d6000fd5b505050506040513d601f19601f820116820180604052508101906125769190614c49565b9050806001600160a01b0316836001600160a01b0316146125ae57878a6040516308c931fb60e21b8152600401610e1192919061468d565b6001600160a01b03821633146125d95733604051635b1eee2960e01b8152600401610e11919061444b565b8a8a14156125fc578a604051634c804ffb60e01b8152600401610e1191906144cd565b8661261c5786604051639a0bfc6560e01b8152600401610e1191906144cd565b4286101561263f57856040516323928a2960e11b8152600401610e1191906144cd565b6001600160a01b03891660009081526011602090815260408083208b845282528083208e845282528083208a845290915290205460ff161561269c5788888c89604051631d4f346360e11b8152600401610e119493929190614eed565b6126eb6126ad8c8c8c8c8c8c6134cf565b86868080601f016020809104026020016040519081016040528093929190818152602001838380828437600092019190915250889250613539915050565b61270857604051638baa579f60e01b815260040160405180910390fd5b6000806127158e8c61127e565b915091506127248e8383613561565b60405180608001604052806001151581526020018d815260200189815260200160001515815250601160008d6001600160a01b03166001600160a01b0316815260200190815260200160002060008c815260200190815260200160002060008f815260200190815260200160002060008b815260200190815260200160002060008201518160000160006101000a81548160ff021916908315150217905550602082015181600101556040820151816002015560608201518160030160006101000a81548160ff021916908315150217905550905050601360008c6001600160a01b03166001600160a01b0316815260200190815260200160002060008b815260200190815260200160002060008e81526020019081526020016000208054905060001415612881576001600160a01b038b1660009081526012602090815260408083208d84528252822080546001810182559083529120018d90555b601360008c6001600160a01b03166001600160a01b0316815260200190815260200160002060008b815260200190815260200160002060008e8152602001908152602001600020899080600181540180825580915050600190039060005260206000200160009091909190915055601460008e815260200190815260200160002060405180606001604052808d6001600160a01b031681526020018c81526020018b815250908060018154018082558091505060019003906000526020600020906003020160009091909190915060008201518160000160006101000a8154816001600160a01b0302191690836001600160a01b03160217905550602082015181600101556040820151816002015550507fd0b60e92dff77ab3cd9ee6e52ef2c13a955a95365dc6fdce28e719275dc387ac8d8d8d8d8d8d6040516129cb96959493929190614f22565b60405180910390a150505050506129e26001600d55565b505050505050505050565b60606000805b6001600160a01b0385166000908152601260209081526040808320878452909152902054811015612acb576001600160a01b03851660009081526012602090815260408083208784529091528120805483908110612a5357612a53614b98565b9060005260206000200154905060005b6001600160a01b03871660009081526013602090815260408083208984528252808320858452909152902054811015612ab65783612aa081614bc4565b9450508080612aae90614bc4565b915050612a63565b50508080612ac390614bc4565b9150506129f3565b506000816001600160401b03811115612ae657612ae6614d05565b604051908082528060200260200182016040528015612b2b57816020015b6040805180820190915260008082526020820152815260200190600190039081612b045790505b5090506000805b6001600160a01b0387166000908152601260209081526040808320898452909152902054811015612c99576001600160a01b03871660009081526012602090815260408083208984529091528120805483908110612b9257612b92614b98565b9060005260206000200154905060005b6001600160a01b03891660009081526013602090815260408083208b84528252808320858452909152902054811015612c84576001600160a01b03891660009081526013602090815260408083208b845282528083208584529091528120805483908110612c1257612c12614b98565b9060005260206000200154905082868681518110612c3257612c32614b98565b6020026020010151600001818152505080868681518110612c5557612c55614b98565b602090810291909101810151015284612c6d81614bc4565b955050508080612c7c90614bc4565b915050612ba2565b50508080612c9190614bc4565b915050612b32565b509095945050505050565b6000612caf816130d2565b6001600160a01b03821660009081526005602052604090205460ff1615612ce95760405163f411c32760e01b815260040160405180910390fd5b506001600160a01b03166000818152600560205260408120805460ff191660019081179091556006805491820181559091527ff652222313e28459528d920b65115c16c04f3efc82aaedc97be59f3f377c0d3f0180546001600160a01b0319169091179055565b6001600160a01b03811660009081526015602052604090205460609060ff1615612ed0576001600160a01b03808316600090815260156020526040808220805460019091015491516331a9108f60e11b8152610100909104909316929091908390636352211e90612dc59085906004016144cd565b60206040518083038186803b158015612ddd57600080fd5b505afa158015612df1573d6000803e3d6000fd5b505050506040513d601f19601f82011682018060405250810190612e159190614c49565b9050846001600160a01b0316816001600160a01b03161415612ecc57600080846001600160a01b031663b4b5b48f856040518263ffffffff1660e01b8152600401612e6091906144cd565b60006040518083038186803b158015612e7857600080fd5b505afa158015612e8c573d6000803e3d6000fd5b505050506040513d6000823e601f3d908101601f19168201604052612eb49190810190614f71565b91509150428110612ec9575095945050505050565b50505b5050505b505060408051602081019091526000815290565b612eed82610db3565b612ef6816130d2565b610de483836131ff565b6000612f0b816130d2565b6002546001600160a01b0383811691161415612f3a5760405163c23f6ccb60e01b815260040160405180910390fd5b50600280546001600160a01b0319166001600160a01b0392909216919091179055565b6000612f68816130d2565b6001600160a01b038216612f8f5760405163d92e233d60e01b815260040160405180910390fd5b60005b600f548110156130b857826001600160a01b0316600f8281548110612fb957612fb9614b98565b6000918252602090912001546001600160a01b031614156130a657600f8054612fe490600190614c96565b81548110612ff457612ff4614b98565b600091825260209091200154600f80546001600160a01b03909216918390811061302057613020614b98565b9060005260206000200160006101000a8154816001600160a01b0302191690836001600160a01b03160217905550600f80548061305f5761305f614cad565b60008281526020808220830160001990810180546001600160a01b03191690559092019092556001600160a01b03851682526010905260409020805460ff19169055505050565b806130b081614bc4565b915050612f92565b50604051636c0dfed360e01b815260040160405180910390fd5b610fd78133613a15565b600b546000901561310757610b9b6064613101600b5485613a6e90919063ffffffff16565b90613a7a565b506000919050565b919050565b60095460009081901561314f576003546001600160a01b0385811691161415613140575060095461314f565b61314c846009546132b0565b90505b600a5415610c4457610fbc6131746064613101600a5487613a6e90919063ffffffff16565b8290613a86565b613185828261196b565b610e24576000828152602081815260408083206001600160a01b03851684529091529020805460ff191660011790556131bb3390565b6001600160a01b0316816001600160a01b0316837f2f8788117e7eff1d82e926ec794901d17c78024a50270940304540a733656f0d60405160405180910390a45050565b613209828261196b565b15610e24576000828152602081815260408083206001600160a01b0385168085529252808320805460ff1916905551339285917ff6391f5c32d9c69d2a47ea670b442974b53935d1edc7fd64eb21e047a839171b9190a45050565b61326c613a92565b600c805460ff191690557f5db9ee0a495bf2e6ff9c91a7834c1ba4fdd244a5e8aa4e537bd38aeae4b073aa335b6040516132a6919061444b565b60405180910390a1565b6000816000811180156132cc57506001546001600160a01b0316155b156132ea5760405163fca2174f60e01b815260040160405180910390fd5b60008111801561330357506002546001600160a01b0316155b156133215760405163fca2174f60e01b815260040160405180910390fd5b60008111801561333a57506003546001600160a01b0316155b156133585760405163fca2174f60e01b815260040160405180910390fd5b60008111801561337157506007546001600160a01b0316155b1561338f5760405163fca2174f60e01b815260040160405180910390fd5b6001600160a01b03841660009081526005602052604090205460ff1615806133c457506003546001600160a01b038581169116145b156133e4578360405163961c9a4f60e01b8152600401610e11919061444b565b826133f2576000915061343c565b6001600160a01b0384166134245760025460035461341d916001600160a01b03908116911685613ab4565b915061343c565b60035461341d9085906001600160a01b031685613ab4565b5092915050565b61344b613480565b600c805460ff191660011790557f62e78cea01bee320cd4e420270b5ea74000d11b0c9f74754ebdbfc544b05a2586132993390565b600c5460ff16156134a35760405162461bcd60e51b8152600401610e1190614fe7565b565b6002600d5414156134c85760405162461bcd60e51b8152600401610e119061502b565b6002600d55565b600061352c7f7ff3a592f7e3c4640523a26490b66609c72eac880180ec2f1e57116c74f07cce888888888888604051602001613511979695949392919061503b565b60405160208183030381529060405280519060200120613b72565b90505b9695505050505050565b6000816001600160a01b031661354f8585613b85565b6001600160a01b031614949350505050565b61356b8282613a86565b60008111801561358457506001546001600160a01b0316155b156135a25760405163fca2174f60e01b815260040160405180910390fd5b6000811180156135bb57506002546001600160a01b0316155b156135d95760405163fca2174f60e01b815260040160405180910390fd5b6000811180156135f257506003546001600160a01b0316155b156136105760405163fca2174f60e01b815260040160405180910390fd5b60008111801561362957506007546001600160a01b0316155b156136475760405163fca2174f60e01b815260040160405180910390fd5b82158015613653575081155b1561365d57613a0f565b6000613668846130dc565b905060008311806136795750600081115b801561368e57506008546001600160a01b0316155b156136ac5760405163910af6f560e01b815260040160405180910390fd5b6001600160a01b03851660009081526005602052604090205460ff166136e75784604051630ac29ab760e31b8152600401610e11919061444b565b6001600160a01b038516613989576136ff8484613a86565b34101561372a576137108484613a86565b60405163091a6d0f60e01b8152600401610e1191906144cd565b60006137368583613ba9565b11156137c7576007546000906001600160a01b03166137558684613ba9565b604051613761906150a3565b60006040518083038185875af1925050503d806000811461379e576040519150601f19603f3d011682016040523d82523d6000602084013e6137a3565b606091505b50509050806137c5576040516312171d8360e31b815260040160405180910390fd5b505b8215613851576008546040516000916001600160a01b03169085906137eb906150a3565b60006040518083038185875af1925050503d8060008114613828576040519150601f19603f3d011682016040523d82523d6000602084013e61382d565b606091505b505090508061384f576040516312171d8360e31b815260040160405180910390fd5b505b80156138db576008546040516000916001600160a01b0316908390613875906150a3565b60006040518083038185875af1925050503d80600081146138b2576040519150601f19603f3d011682016040523d82523d6000602084013e6138b7565b606091505b50509050806138d9576040516312171d8360e31b815260040160405180910390fd5b505b6138e58484613a86565b3411156139845760006139026138fb8686613a86565b3490613ba9565b90506000336001600160a01b03168260405161391d906150a3565b60006040518083038185875af1925050503d806000811461395a576040519150601f19603f3d011682016040523d82523d6000602084013e61395f565b606091505b505090508061398157604051633c31275160e21b815260040160405180910390fd5b50505b613a0d565b60006139958583613ba9565b11156139c9576007546139c99033906001600160a01b03166139b78785613ba9565b6001600160a01b038916929190613bb5565b82156139eb576008546139eb906001600160a01b038781169133911686613bb5565b8015613a0d57600854613a0d906001600160a01b038781169133911684613bb5565b505b50505050565b613a1f828261196b565b610e2457613a2c81613c0d565b613a37836020613c1f565b604051602001613a489291906150d0565b60408051601f198184030181529082905262461bcd60e51b8252610e1191600401614b87565b6000610c448284615122565b6000610c448284615157565b6000610c44828461516b565b600c5460ff166134a35760405162461bcd60e51b8152600401610e11906151ae565b6000606080613ac38686613d8a565b6001546040516307c0329d60e21b81529192506001600160a01b031690631f00ca7490613af690879085906004016151be565b60006040518083038186803b158015613b0e57600080fd5b505afa158015613b22573d6000803e3d6000fd5b505050506040513d6000823e601f3d908101601f19168201604052613b4a9190810190615253565b915081600081518110613b5f57613b5f614b98565b6020026020010151925050509392505050565b6000610b9b613b7f613f1c565b8361400f565b6000806000613b948585614042565b91509150613ba181614085565b509392505050565b6000610c448284614c96565b613a0f846323b872dd60e01b858585604051602401613bd69392919061528d565b60408051601f198184030181529190526020810180516001600160e01b03166001600160e01b031990931692909217909152614138565b6060610b9b6001600160a01b03831660145b60606000613c2e836002615122565b613c3990600261516b565b6001600160401b03811115613c5057613c50614d05565b6040519080825280601f01601f191660200182016040528015613c7a576020820181803683370190505b509050600360fc1b81600081518110613c9557613c95614b98565b60200101906001600160f81b031916908160001a905350600f60fb1b81600181518110613cc457613cc4614b98565b60200101906001600160f81b031916908160001a9053506000613ce8846002615122565b613cf390600161516b565b90505b6001811115613d6b576f181899199a1a9b1b9c1cb0b131b232b360811b85600f1660108110613d2757613d27614b98565b1a60f81b828281518110613d3d57613d3d614b98565b60200101906001600160f81b031916908160001a90535060049490941c93613d648161529b565b9050613cf6565b508315610c445760405162461bcd60e51b8152600401610e11906152e4565b6002546060906001600160a01b0384811691161480613db657506002546001600160a01b038381169116145b15613e8057604080516002808252606082018352600092602083019080368337019050506002549091506001600160a01b03858116911614613df85783613e05565b6002546001600160a01b03165b81600081518110613e1857613e18614b98565b6001600160a01b039283166020918202929092010152600254848216911614613e415782613e4e565b6002546001600160a01b03165b81600181518110613e6157613e61614b98565b6001600160a01b03909216602092830291909101909101529050610b9b565b60408051600380825260808201909252600091602082016060803683370190505090508381600081518110613eb757613eb7614b98565b6001600160a01b039283166020918202929092010152600254825191169082906001908110613ee857613ee8614b98565b60200260200101906001600160a01b031690816001600160a01b0316815250508281600281518110613e6157613e61614b98565b6000306001600160a01b037f000000000000000000000000000000000000000000000000000000000000000016148015613f7557507f000000000000000000000000000000000000000000000000000000000000000046145b15613f9f57507f000000000000000000000000000000000000000000000000000000000000000090565b61400a7f00000000000000000000000000000000000000000000000000000000000000007f00000000000000000000000000000000000000000000000000000000000000007f00000000000000000000000000000000000000000000000000000000000000006141c7565b905090565b600082826040516020016140249291906152f4565b60405160208183030381529060405280519060200120905092915050565b6000808251604114156140795760208301516040840151606085015160001a61406d87828585614201565b9450945050505061129d565b5060009050600261129d565b600081600481111561409957614099615325565b14156140a25750565b60018160048111156140b6576140b6615325565b14156140d45760405162461bcd60e51b8152600401610e119061536a565b60028160048111156140e8576140e8615325565b14156141065760405162461bcd60e51b8152600401610e11906153ae565b600381600481111561411a5761411a615325565b1415610fd75760405162461bcd60e51b8152600401610e11906153fd565b600061418d826040518060400160405280602081526020017f5361666545524332303a206c6f772d6c6576656c2063616c6c206661696c6564815250856001600160a01b03166142ae9092919063ffffffff16565b805190915015610de457808060200190518101906141ab9190615420565b610de45760405162461bcd60e51b8152600401610e1190615488565b600083838346306040516020016141e2959493929190615498565b6040516020818303038152906040528051906020012090509392505050565b6000806fa2a8918ca85bafe22016d0b997e4df60600160ff1b0383111561422e57506000905060036142a5565b60006001878787876040516000815260200160405260405161425394939291906154e3565b6020604051602081039080840390855afa158015614275573d6000803e3d6000fd5b5050604051601f1901519150506001600160a01b03811661429e576000600192509250506142a5565b9150600090505b94509492505050565b6060610fbc848460008585600080866001600160a01b031685876040516142d591906154fe565b60006040518083038185875af1925050503d8060008114614312576040519150601f19603f3d011682016040523d82523d6000602084013e614317565b606091505b509150915061432887838387614333565b979650505050505050565b6060831561436f578251614368576001600160a01b0385163b6143685760405162461bcd60e51b8152600401610e119061553e565b5081610fbc565b610fbc83838151156143845781518083602001fd5b8060405162461bcd60e51b8152600401610e119190614b87565b805b8114610fd757600080fd5b8035610b9b8161439e565b6000602082840312156143cb576143cb600080fd5b6000610fbc84846143ab565b6001600160e01b031981166143a0565b8035610b9b816143d7565b60006020828403121561440757614407600080fd5b6000610fbc84846143e7565b8015155b82525050565b60208101610b9b8284614413565b6001600160a01b031690565b6000610b9b8261442b565b61441781614437565b60208101610b9b8284614442565b60006144658383614442565b505060200190565b6000614477825190565b80845260209384019383018060005b838110156144ab57815161449a8882614459565b975060208301925050600101614486565b509495945050505050565b60208082528101610c44818461446d565b80614417565b60208101610b9b82846144c7565b6143a081614437565b8035610b9b816144db565b6000806040838503121561450557614505600080fd5b600061451185856144e4565b9250506020614522858286016143ab565b9150509250929050565b60006020828403121561454157614541600080fd5b6000610fbc84846144e4565b6000610b9b82614437565b6143a08161454d565b8035610b9b81614558565b60006020828403121561458157614581600080fd5b6000610fbc8484614561565b600080604083850312156145a3576145a3600080fd5b60006145af85856143ab565b9250506020614522858286016144e4565b6000806000606084860312156145d8576145d8600080fd5b60006145e486866144e4565b93505060206145f5868287016143ab565b9250506040614606868287016143ab565b9150509250925092565b600061446583836144c7565b6000614626825190565b80845260209384019383018060005b838110156144ab5781516146498882614610565b975060208301925050600101614635565b60208082528101610c44818461461c565b6000806040838503121561468157614681600080fd5b60006145af85856144e4565b6040810161469b82856144c7565b610c4460208301846144c7565b600080600080608085870312156146c1576146c1600080fd5b60006146cd87876144e4565b94505060206146de878288016143ab565b93505060406146ef878288016143ab565b9250506060614700878288016143ab565b91505092959194509250565b8051608083019061471d8482614413565b50602082015161473060208501826144c7565b50604082015161474360408501826144c7565b506060820151613a0f6060850182614413565b60808101610b9b828461470c565b600080600080600060a0868803121561477f5761477f600080fd5b600061478b88886143ab565b955050602061479c888289016143ab565b94505060406147ad888289016144e4565b93505060606147be888289016143ab565b92505060806147cf888289016143ab565b9150509295509295909350565b805160608301906147ed8482614442565b50602082015161480060208501826144c7565b506040820151613a0f60408501826144c7565b600061481f83836147dc565b505060600190565b6000614831825190565b80845260209384019383018060005b838110156144ab5781516148548882614813565b975060208301925050600101614840565b60208082528101610c448184614827565b6000610b9b61488a6148878461442b565b90565b61442b565b6000610b9b82614876565b6000610b9b8261488f565b6144178161489a565b60208101610b9b82846148a5565b60005b838110156148d75781810151838201526020016148bf565b83811115613a0f5750506000910152565b601f01601f191690565b60006148fc825190565b8084526020840193506149138185602086016148bc565b61491c816148e8565b9093019392505050565b6000610c4483836148f2565b600061493c825190565b808452602084019350836020820285016149568560200190565b8060005b8581101561498b57848403895281516149738582614926565b94506020830160209a909a019992505060010161495a565b5091979650505050505050565b604080825281016149a981856148f2565b90508181036020830152610fbc8184614932565b606081016149cb8286614413565b6149d86020830185614442565b610fbc60408301846144c7565b60008083601f8401126149fa576149fa600080fd5b5081356001600160401b03811115614a1457614a14600080fd5b60208301915083600182028301111561129d5761129d600080fd5b60008060008060008060008060006101008a8c031215614a5157614a51600080fd5b6000614a5d8c8c6144e4565b9950506020614a6e8c828d016143ab565b9850506040614a7f8c828d016143ab565b9750506060614a908c828d016144e4565b9650506080614aa18c828d016143ab565b95505060a0614ab28c828d016143ab565b94505060c0614ac38c828d016143ab565b93505060e08a01356001600160401b03811115614ae257614ae2600080fd5b614aee8c828d016149e5565b92509250509295985092959850929598565b80516040830190614b1184826144c7565b506020820151613a0f60208501826144c7565b6000614b308383614b00565b505060400190565b6000614b42825190565b80845260209384019383018060005b838110156144ab578151614b658882614b24565b975060208301925050600101614b51565b60208082528101610c448184614b38565b60208082528101610c4481846148f2565b634e487b7160e01b600052603260045260246000fd5b634e487b7160e01b600052601160045260246000fd5b6000600019821415614bd857614bd8614bae565b5060010190565b602f81526000602082017f416363657373436f6e74726f6c3a2063616e206f6e6c792072656e6f756e636581526e103937b632b9903337b91039b2b63360891b602082015291505b5060400190565b60208082528101610b9b81614bdf565b8051610b9b816144db565b600060208284031215614c5e57614c5e600080fd5b6000610fbc8484614c3e565b8051610b9b8161439e565b600060208284031215614c8a57614c8a600080fd5b6000610fbc8484614c6a565b600082821015614ca857614ca8614bae565b500390565b634e487b7160e01b600052603160045260246000fd5b60a08101614cd182886144c7565b614cde60208301876144c7565b614ceb6040830186614442565b614cf860608301856144c7565b61352f60808301846144c7565b634e487b7160e01b600052604160045260246000fd5b6040810161469b8285614442565b614d32826148e8565b81018181106001600160401b0382111715614d4f57614d4f614d05565b6040525050565b6000614d6160405190565b905061310f8282614d29565b60006001600160401b03821115614d8657614d86614d05565b5060209081020190565b60006001600160401b03821115614da957614da9614d05565b614db2826148e8565b60200192915050565b6000614dce614dc984614d90565b614d56565b905082815260208101848484011115614de957614de9600080fd5b613ba18482856148bc565b600082601f830112614e0857614e08600080fd5b8151610fbc848260208601614dbb565b6000614e26614dc984614d6d565b83815290506020808201908402830185811115614e4557614e45600080fd5b835b81811015614e855780516001600160401b03811115614e6857614e68600080fd5b808601614e758982614df4565b8552505060209283019201614e47565b5050509392505050565b600082601f830112614ea357614ea3600080fd5b8151610fbc848260208601614e18565b600060208284031215614ec857614ec8600080fd5b81516001600160401b03811115614ee157614ee1600080fd5b610fbc84828501614e8f565b60808101614efb8287614442565b614f0860208301866144c7565b614f1560408301856144c7565b6114b560608301846144c7565b60c08101614f3082896144c7565b614f3d60208301886144c7565b614f4a6040830187614442565b614f5760608301866144c7565b614f6460808301856144c7565b61432860a08301846144c7565b60008060408385031215614f8757614f87600080fd5b82516001600160401b03811115614fa057614fa0600080fd5b614fac85828601614df4565b925050602061452285828601614c6a565b601081526000602082016f14185d5cd8589b194e881c185d5cd95960821b815291505b5060200190565b60208082528101610b9b81614fbd565b601f81526000602082017f5265656e7472616e637947756172643a207265656e7472616e742063616c6c0081529150614fe0565b60208082528101610b9b81614ff7565b60e08101615049828a6144c7565b61505660208301896144c7565b61506360408301886144c7565b6150706060830187614442565b61507d60808301866144c7565b61508a60a08301856144c7565b61509760c08301846144c7565b98975050505050505050565b6000610b9b82614887565b60006150b8825190565b6150c68185602086016148bc565b9290920192915050565b76020b1b1b2b9b9a1b7b73a3937b61d1030b1b1b7bab73a1604d1b815260170160006150fc82856150ae565b7001034b99036b4b9b9b4b733903937b6329607d1b81526011019150610fbc82846150ae565b600081600019048311821515161561513c5761513c614bae565b500290565b634e487b7160e01b600052601260045260246000fd5b60008261516657615166615141565b500490565b6000821982111561517e5761517e614bae565b500190565b601481526000602082017314185d5cd8589b194e881b9bdd081c185d5cd95960621b81529150614fe0565b60208082528101610b9b81615183565b604081016151cc82856144c7565b8181036020830152610fbc818461446d565b60006151ec614dc984614d6d565b8381529050602080820190840283018581111561520b5761520b600080fd5b835b81811015614e8557806152208882614c6a565b8452506020928301920161520d565b600082601f83011261524357615243600080fd5b8151610fbc8482602086016151de565b60006020828403121561526857615268600080fd5b81516001600160401b0381111561528157615281600080fd5b610fbc8482850161522f565b606081016149cb8286614442565b6000816152aa576152aa614bae565b506000190190565b60208082527f537472696e67733a20686578206c656e67746820696e73756666696369656e7491019081526000614fe0565b60208082528101610b9b816152b2565b61190160f01b8152600201600061530b82856144c7565b60208201915061531b82846144c7565b5060200192915050565b634e487b7160e01b600052602160045260246000fd5b601881526000602082017745434453413a20696e76616c6964207369676e617475726560401b81529150614fe0565b60208082528101610b9b8161533b565b601f81526000602082017f45434453413a20696e76616c6964207369676e6174757265206c656e6774680081529150614fe0565b60208082528101610b9b8161537a565b602281526000602082017f45434453413a20696e76616c6964207369676e6174757265202773272076616c815261756560f01b60208201529150614c27565b60208082528101610b9b816153be565b8015156143a0565b8051610b9b8161540d565b60006020828403121561543557615435600080fd5b6000610fbc8484615415565b602a81526000602082017f5361666545524332303a204552433230206f7065726174696f6e20646964206e8152691bdd081cdd58d8d9595960b21b60208201529150614c27565b60208082528101610b9b81615441565b60a081016154a682886144c7565b6154b360208301876144c7565b6154c060408301866144c7565b6154cd60608301856144c7565b61352f6080830184614442565b60ff8116614417565b608081016154f182876144c7565b614f0860208301866154da565b6000610c4482846150ae565b601d81526000602082017f416464726573733a2063616c6c20746f206e6f6e2d636f6e747261637400000081529150614fe0565b60208082528101610b9b8161550a56fe52eafc11f6f81f86878bffd31109a0d92f37506527754f00788853ff9f63b130a264697066735822122014c2114df3aef9181f0d70b3be2747408ab905c34dab34755f583b14d1abea6464736f6c63430008080033",
  "devdoc": {
    "author": "Masa Finance",
    "kind": "dev",
    "methods": {
      "addLink(address,uint256,uint256,address,uint256,uint256,uint256,bytes)": {
        "details": "The token must be linked to this soul linker",
        "params": {
          "expirationDate": "Expiration date of the signature",
          "ownerIdentityId": "Id of the identity of the owner of the SBT",
          "readerIdentityId": "Id of the identity of the reader",
          "signature": "Signature of the read link request made by the owner",
          "signatureDate": "Signature date of the signature",
          "token": "Address of the SBT contract",
          "tokenId": "Id of the token"
        }
      },
      "addSoulName(address)": {
        "details": "The caller must have the admin role to call this function",
        "params": {
          "soulName": "Address of the SoulName contract"
        }
      },
      "constructor": {
        "params": {
          "_soulNames": "Soul name smart contracts",
          "_soulboundIdentity": "Soulbound identity smart contract",
          "admin": "Administrator of the smart contract",
          "paymentParams": "Payment gateway params"
        }
      },
      "disablePaymentMethod(address)": {
        "details": "The caller must have the admin role to call this function",
        "params": {
          "_paymentMethod": "Token to remove"
        }
      },
      "enablePaymentMethod(address)": {
        "details": "The caller must have the admin role to call this function",
        "params": {
          "_paymentMethod": "New token to add"
        }
      },
      "getDefaultSoulName(address)": {
        "details": "This function queries the default soul name of the specified account",
        "params": {
          "owner": "Address of the owner of the identities"
        },
        "returns": {
          "_0": "Default soul name associated to the account"
        }
      },
      "getEnabledPaymentMethods()": {
        "details": "Returns the address of all available payment methods",
        "returns": {
          "_0": "Array of all enabled payment methods"
        }
      },
      "getIdentityId(address,uint256)": {
        "details": "The token must be linked to this soul linker",
        "params": {
          "token": "Address of the SBT contract",
          "tokenId": "Id of the token"
        },
        "returns": {
          "_0": "Id of the identity"
        }
      },
      "getLinkInfo(address,uint256,uint256,uint256)": {
        "params": {
          "readerIdentityId": "Id of the identity of the reader of the SBT",
          "signatureDate": "Signature date of the signature",
          "token": "Address of the SBT contract",
          "tokenId": "Id of the token"
        },
        "returns": {
          "_0": "linkData List of linked SBTs"
        }
      },
      "getLinkSignatureDates(address,uint256,uint256)": {
        "params": {
          "readerIdentityId": "Id of the identity of the reader of the SBT",
          "token": "Address of the SBT contract",
          "tokenId": "Id of the token"
        },
        "returns": {
          "_0": "List of linked SBTs"
        }
      },
      "getLinks(address,uint256)": {
        "params": {
          "token": "Address of the SBT contract",
          "tokenId": "Id of the token"
        },
        "returns": {
          "_0": "List of linked SBTs"
        }
      },
      "getPriceForAddLink(address,address)": {
        "details": "Returns the current pricing for storing a link",
        "params": {
          "paymentMethod": "Address of token that user want to pay",
          "token": "Token that user want to store link"
        },
        "returns": {
          "price": "Current price for storing a link"
        }
      },
      "getPriceForAddLinkWithProtocolFee(address,address)": {
        "details": "Returns the current pricing for storing a link with protocol fee",
        "params": {
          "paymentMethod": "Address of token that user want to pay",
          "token": "Token that user want to store link"
        },
        "returns": {
          "price": "Current price for storing a link",
          "protocolFee": "Current protocol fee for storing a link"
        }
      },
      "getProtocolFee(address,uint256)": {
        "details": "This method will calculate the protocol fee based on the payment method",
        "params": {
          "amount": "Price to be paid in the specified payment method",
          "paymentMethod": "Address of token that user want to pay"
        }
      },
      "getProtocolFeeSub(uint256)": {
        "details": "This method will calculate the protocol fee based on the payment method",
        "params": {
          "amount": "Price to be paid in the specified payment method"
        }
      },
      "getReaderLinks(uint256)": {
        "params": {
          "readerIdentityId": "Id of the identity of the reader of the SBT"
        },
        "returns": {
          "_0": "List of links for the reader"
        }
      },
      "getRoleAdmin(bytes32)": {
        "details": "Returns the admin role that controls `role`. See {grantRole} and {revokeRole}. To change a role's admin, use {_setRoleAdmin}."
      },
      "getSBTConnections(address,address)": {
        "params": {
          "owner": "Address of the owner of the identity",
          "token": "Address of the SBT contract"
        },
        "returns": {
          "_0": "List of connectec SBTs"
        }
      },
      "getSBTConnections(uint256,address)": {
        "params": {
          "identityId": "Id of the identity",
          "token": "Address of the SBT contract"
        },
        "returns": {
          "_0": "List of connected SBTs"
        }
      },
      "getSoulNames(address)": {
        "details": "This function queries all the identity names of the specified account",
        "params": {
          "owner": "Address of the owner of the identities"
        },
        "returns": {
          "defaultName": "Default soul name of the account",
          "names": "Array of soul names associated to the account"
        }
      },
      "getSoulNames(uint256)": {
        "details": "This function queries all the identity names of the specified identity Id",
        "params": {
          "tokenId": "TokenId of the identity"
        },
        "returns": {
          "defaultName": "Default soul name of the account",
          "names": "Array of soul names associated to the account"
        }
      },
      "grantRole(bytes32,address)": {
        "details": "Grants `role` to `account`. If `account` had not been already granted `role`, emits a {RoleGranted} event. Requirements: - the caller must have ``role``'s admin role. May emit a {RoleGranted} event."
      },
      "hasRole(bytes32,address)": {
        "details": "Returns `true` if `account` has been granted `role`."
      },
      "pause()": {
        "details": "The caller must have the admin role to call this function"
      },
      "paused()": {
        "details": "Returns true if the contract is paused, and false otherwise."
      },
      "removeSoulName(address)": {
        "details": "The caller must have the admin role to call this function",
        "params": {
          "soulName": "Address of the SoulName contract"
        }
      },
      "renounceRole(bytes32,address)": {
        "details": "Revokes `role` from the calling account. Roles are often managed via {grantRole} and {revokeRole}: this function's purpose is to provide a mechanism for accounts to lose their privileges if they are compromised (such as when a trusted device is misplaced). If the calling account had been revoked `role`, emits a {RoleRevoked} event. Requirements: - the caller must be `account`. May emit a {RoleRevoked} event."
      },
      "revokeLink(uint256,uint256,address,uint256,uint256)": {
        "details": "The links can be revoked, wether the token is linked or not. The caller must be the owner of the token. The owner of the token can revoke a link even if the reader has not added it yet.",
        "params": {
          "ownerIdentityId": "Id of the identity of the owner of the SBT",
          "readerIdentityId": "Id of the identity of the reader",
          "signatureDate": "Signature date of the signature",
          "token": "Address of the SBT contract",
          "tokenId": "Id of the token"
        }
      },
      "revokeRole(bytes32,address)": {
        "details": "Revokes `role` from `account`. If `account` had been granted `role`, emits a {RoleRevoked} event. Requirements: - the caller must have ``role``'s admin role. May emit a {RoleRevoked} event."
      },
      "setDefaultSoulName(address,uint256)": {
        "details": "The caller must be the owner of the soul name.",
        "params": {
          "token": "Address of the SoulName contract",
          "tokenId": "TokenId of the soul name"
        }
      },
      "setMasaToken(address)": {
        "details": "The caller must have the admin role to call this function It can be set to address(0) to disable paying in MASA",
        "params": {
          "_masaToken": "New utility token to pay the fee in"
        }
      },
      "setProjectFeeReceiver(address)": {
        "details": "The caller must have the admin or project admin role to call this function",
        "params": {
          "_projectFeeReceiver": "New project fee receiver wallet"
        }
      },
      "setProtocolFeeAmount(uint256)": {
        "details": "The caller must have the admin role to call this function",
        "params": {
          "_protocolFeeAmount": "New protocol fee amount"
        }
      },
      "setProtocolFeePercent(uint256)": {
        "details": "The caller must have the admin role to call this function",
        "params": {
          "_protocolFeePercent": "New protocol fee percent added to the project fee"
        }
      },
      "setProtocolFeePercentSub(uint256)": {
        "details": "The caller must have the admin role to call this function",
        "params": {
          "_protocolFeePercentSub": "New protocol fee percent substracted from the amount"
        }
      },
      "setProtocolFeeReceiver(address)": {
        "details": "The caller must have the admin role to call this function",
        "params": {
          "_protocolFeeReceiver": "New protocol fee wallet"
        }
      },
      "setSoulboundIdentity(address)": {
        "details": "The caller must have the admin role to call this function",
        "params": {
          "_soulboundIdentity": "Address of the SoulboundIdentity contract"
        }
      },
      "setStableCoin(address)": {
        "details": "The caller must have the admin role to call this function",
        "params": {
          "_stableCoin": "New stable coin to pay the fee in"
        }
      },
      "setSwapRouter(address)": {
        "details": "The caller must have the admin role to call this function",
        "params": {
          "_swapRouter": "New swap router address"
        }
      },
      "setWrappedNativeToken(address)": {
        "details": "The caller must have the admin role to call this function",
        "params": {
          "_wrappedNativeToken": "New wrapped native token address"
        }
      },
      "supportsInterface(bytes4)": {
        "details": "See {IERC165-supportsInterface}."
      },
      "unpause()": {
        "details": "The caller must have the admin role to call this function"
      },
      "validateLink(uint256,uint256,address,uint256,uint256)": {
        "details": "The token must be linked to this soul linker",
        "params": {
          "ownerIdentityId": "Id of the identity of the owner of the SBT",
          "readerIdentityId": "Id of the identity of the reader",
          "signatureDate": "Signature date of the signature",
          "token": "Address of the SBT contract",
          "tokenId": "Id of the token"
        },
        "returns": {
          "_0": "True if the link is valid"
        }
      }
    },
    "title": "Soul linker",
    "version": 1
  },
  "userdoc": {
    "kind": "user",
    "methods": {
      "addLink(address,uint256,uint256,address,uint256,uint256,uint256,bytes)": {
        "notice": "Stores the link, validating the signature of the given read link request"
      },
      "addSoulName(address)": {
        "notice": "Add a SoulName contract address linked to this soul store"
      },
      "constructor": {
        "notice": "Creates a new soul linker"
      },
      "disablePaymentMethod(address)": {
        "notice": "Removes a token as a valid payment method"
      },
      "enablePaymentMethod(address)": {
        "notice": "Adds a new token as a valid payment method"
      },
      "getDefaultSoulName(address)": {
        "notice": "Returns the default soul name of an account"
      },
      "getEnabledPaymentMethods()": {
        "notice": "Returns all available payment methods"
      },
      "getIdentityId(address,uint256)": {
        "notice": "Returns the identityId owned by the given token"
      },
      "getLinkInfo(address,uint256,uint256,uint256)": {
        "notice": "Returns the information of link dates for a given SBT token and reader"
      },
      "getLinkSignatureDates(address,uint256,uint256)": {
        "notice": "Returns the list of link signature dates for a given SBT token and reader"
      },
      "getLinks(address,uint256)": {
        "notice": "Returns the list of link signature dates for a given SBT token and reader"
      },
      "getPriceForAddLink(address,address)": {
        "notice": "Returns the price for storing a link"
      },
      "getPriceForAddLinkWithProtocolFee(address,address)": {
        "notice": "Returns the price for storing a link with protocol fee"
      },
      "getProtocolFee(address,uint256)": {
        "notice": "Calculates the protocol fee added to the project fee"
      },
      "getProtocolFeeSub(uint256)": {
        "notice": "Calculates the protocol fee substracted from the amount"
      },
      "getReaderLinks(uint256)": {
        "notice": "Returns the list of links for a given reader identity id"
      },
      "getSBTConnections(address,address)": {
        "notice": "Returns the list of connected SBTs by a given SBT token"
      },
      "getSBTConnections(uint256,address)": {
        "notice": "Returns the list of connected SBTs by a given SBT token"
      },
      "getSoulNames(address)": {
        "notice": "Returns all the active soul names of an account"
      },
      "getSoulNames(uint256)": {
        "notice": "Returns all the active soul names of an account"
      },
      "pause()": {
        "notice": "Pauses the smart contract"
      },
      "removeSoulName(address)": {
        "notice": "Remove a SoulName contract address linked to this soul store"
      },
      "revokeLink(uint256,uint256,address,uint256,uint256)": {
        "notice": "Revokes the link"
      },
      "setDefaultSoulName(address,uint256)": {
        "notice": "Sets the default soul name for the owner"
      },
      "setMasaToken(address)": {
        "notice": "Sets the utility token to pay the fee in (MASA)"
      },
      "setProjectFeeReceiver(address)": {
        "notice": "Set the project fee receiver wallet"
      },
      "setProtocolFeeAmount(uint256)": {
        "notice": "Set the protocol fee amount"
      },
      "setProtocolFeePercent(uint256)": {
        "notice": "Set the protocol fee percent added to the project fee"
      },
      "setProtocolFeePercentSub(uint256)": {
        "notice": "Set the protocol fee percent substracted from the amount"
      },
      "setProtocolFeeReceiver(address)": {
        "notice": "Set the protocol fee wallet"
      },
      "setSoulboundIdentity(address)": {
        "notice": "Sets the SoulboundIdentity contract address linked to this soul store"
      },
      "setStableCoin(address)": {
        "notice": "Sets the stable coin to pay the fee in (USDC)"
      },
      "setSwapRouter(address)": {
        "notice": "Sets the swap router address"
      },
      "setWrappedNativeToken(address)": {
        "notice": "Sets the wrapped native token address"
      },
      "unpause()": {
        "notice": "Unpauses the smart contract"
      },
      "validateLink(uint256,uint256,address,uint256,uint256)": {
        "notice": "Validates the link of the given read link request and returns the data that reader can read if the link is valid"
      }
    },
    "notice": "Soul linker smart contract that let add links to a Soulbound token.",
    "version": 1
  },
  "storageLayout": {
    "storage": [
      {
        "astId": 24,
        "contract": "contracts/SoulLinker.sol:SoulLinker",
        "label": "_roles",
        "offset": 0,
        "slot": "0",
        "type": "t_mapping(t_bytes32,t_struct(RoleData)19_storage)"
      },
      {
        "astId": 9280,
        "contract": "contracts/SoulLinker.sol:SoulLinker",
        "label": "swapRouter",
        "offset": 0,
        "slot": "1",
        "type": "t_address"
      },
      {
        "astId": 9282,
        "contract": "contracts/SoulLinker.sol:SoulLinker",
        "label": "wrappedNativeToken",
        "offset": 0,
        "slot": "2",
        "type": "t_address"
      },
      {
        "astId": 9284,
        "contract": "contracts/SoulLinker.sol:SoulLinker",
        "label": "stableCoin",
        "offset": 0,
        "slot": "3",
        "type": "t_address"
      },
      {
        "astId": 9286,
        "contract": "contracts/SoulLinker.sol:SoulLinker",
        "label": "masaToken",
        "offset": 0,
        "slot": "4",
        "type": "t_address"
      },
      {
        "astId": 9290,
        "contract": "contracts/SoulLinker.sol:SoulLinker",
        "label": "enabledPaymentMethod",
        "offset": 0,
        "slot": "5",
        "type": "t_mapping(t_address,t_bool)"
      },
      {
        "astId": 9293,
        "contract": "contracts/SoulLinker.sol:SoulLinker",
        "label": "enabledPaymentMethods",
        "offset": 0,
        "slot": "6",
        "type": "t_array(t_address)dyn_storage"
      },
      {
        "astId": 9295,
        "contract": "contracts/SoulLinker.sol:SoulLinker",
        "label": "projectFeeReceiver",
        "offset": 0,
        "slot": "7",
        "type": "t_address"
      },
      {
        "astId": 9297,
        "contract": "contracts/SoulLinker.sol:SoulLinker",
        "label": "protocolFeeReceiver",
        "offset": 0,
        "slot": "8",
        "type": "t_address"
      },
      {
        "astId": 9299,
        "contract": "contracts/SoulLinker.sol:SoulLinker",
        "label": "protocolFeeAmount",
        "offset": 0,
        "slot": "9",
        "type": "t_uint256"
      },
      {
        "astId": 9301,
        "contract": "contracts/SoulLinker.sol:SoulLinker",
        "label": "protocolFeePercent",
        "offset": 0,
        "slot": "10",
        "type": "t_uint256"
      },
      {
        "astId": 9303,
        "contract": "contracts/SoulLinker.sol:SoulLinker",
        "label": "protocolFeePercentSub",
        "offset": 0,
        "slot": "11",
        "type": "t_uint256"
      },
      {
        "astId": 519,
        "contract": "contracts/SoulLinker.sol:SoulLinker",
        "label": "_paused",
        "offset": 0,
        "slot": "12",
        "type": "t_bool"
      },
      {
        "astId": 620,
        "contract": "contracts/SoulLinker.sol:SoulLinker",
        "label": "_status",
        "offset": 0,
        "slot": "13",
        "type": "t_uint256"
      },
      {
        "astId": 4917,
        "contract": "contracts/SoulLinker.sol:SoulLinker",
        "label": "soulboundIdentity",
        "offset": 0,
        "slot": "14",
        "type": "t_contract(ISoulboundIdentity)10443"
      },
      {
        "astId": 4921,
        "contract": "contracts/SoulLinker.sol:SoulLinker",
        "label": "soulNames",
        "offset": 0,
        "slot": "15",
        "type": "t_array(t_contract(ISoulName)10379)dyn_storage"
      },
      {
        "astId": 4925,
        "contract": "contracts/SoulLinker.sol:SoulLinker",
        "label": "isSoulName",
        "offset": 0,
        "slot": "16",
        "type": "t_mapping(t_address,t_bool)"
      },
      {
        "astId": 4936,
        "contract": "contracts/SoulLinker.sol:SoulLinker",
        "label": "_links",
        "offset": 0,
        "slot": "17",
        "type": "t_mapping(t_address,t_mapping(t_uint256,t_mapping(t_uint256,t_mapping(t_uint256,t_struct(LinkData)4967_storage))))"
      },
      {
        "astId": 4943,
        "contract": "contracts/SoulLinker.sol:SoulLinker",
        "label": "_linkReaderIdentityIds",
        "offset": 0,
        "slot": "18",
        "type": "t_mapping(t_address,t_mapping(t_uint256,t_array(t_uint256)dyn_storage))"
      },
      {
        "astId": 4952,
        "contract": "contracts/SoulLinker.sol:SoulLinker",
        "label": "_linkSignatureDates",
        "offset": 0,
        "slot": "19",
        "type": "t_mapping(t_address,t_mapping(t_uint256,t_mapping(t_uint256,t_array(t_uint256)dyn_storage)))"
      },
      {
        "astId": 4958,
        "contract": "contracts/SoulLinker.sol:SoulLinker",
        "label": "_readerLinks",
        "offset": 0,
        "slot": "20",
        "type": "t_mapping(t_uint256,t_array(t_struct(ReaderLink)4974_storage)dyn_storage)"
      },
      {
        "astId": 4991,
        "contract": "contracts/SoulLinker.sol:SoulLinker",
        "label": "defaultSoulName",
        "offset": 0,
        "slot": "21",
        "type": "t_mapping(t_address,t_struct(DefaultSoulName)4986_storage)"
      }
    ],
    "types": {
      "t_address": {
        "encoding": "inplace",
        "label": "address",
        "numberOfBytes": "20"
      },
      "t_array(t_address)dyn_storage": {
        "base": "t_address",
        "encoding": "dynamic_array",
        "label": "address[]",
        "numberOfBytes": "32"
      },
      "t_array(t_contract(ISoulName)10379)dyn_storage": {
        "base": "t_contract(ISoulName)10379",
        "encoding": "dynamic_array",
        "label": "contract ISoulName[]",
        "numberOfBytes": "32"
      },
      "t_array(t_struct(ReaderLink)4974_storage)dyn_storage": {
        "base": "t_struct(ReaderLink)4974_storage",
        "encoding": "dynamic_array",
        "label": "struct SoulLinker.ReaderLink[]",
        "numberOfBytes": "32"
      },
      "t_array(t_uint256)dyn_storage": {
        "base": "t_uint256",
        "encoding": "dynamic_array",
        "label": "uint256[]",
        "numberOfBytes": "32"
      },
      "t_bool": {
        "encoding": "inplace",
        "label": "bool",
        "numberOfBytes": "1"
      },
      "t_bytes32": {
        "encoding": "inplace",
        "label": "bytes32",
        "numberOfBytes": "32"
      },
      "t_contract(ISoulName)10379": {
        "encoding": "inplace",
        "label": "contract ISoulName",
        "numberOfBytes": "20"
      },
      "t_contract(ISoulboundIdentity)10443": {
        "encoding": "inplace",
        "label": "contract ISoulboundIdentity",
        "numberOfBytes": "20"
      },
      "t_mapping(t_address,t_bool)": {
        "encoding": "mapping",
        "key": "t_address",
        "label": "mapping(address => bool)",
        "numberOfBytes": "32",
        "value": "t_bool"
      },
      "t_mapping(t_address,t_mapping(t_uint256,t_array(t_uint256)dyn_storage))": {
        "encoding": "mapping",
        "key": "t_address",
        "label": "mapping(address => mapping(uint256 => uint256[]))",
        "numberOfBytes": "32",
        "value": "t_mapping(t_uint256,t_array(t_uint256)dyn_storage)"
      },
      "t_mapping(t_address,t_mapping(t_uint256,t_mapping(t_uint256,t_array(t_uint256)dyn_storage)))": {
        "encoding": "mapping",
        "key": "t_address",
        "label": "mapping(address => mapping(uint256 => mapping(uint256 => uint256[])))",
        "numberOfBytes": "32",
        "value": "t_mapping(t_uint256,t_mapping(t_uint256,t_array(t_uint256)dyn_storage))"
      },
      "t_mapping(t_address,t_mapping(t_uint256,t_mapping(t_uint256,t_mapping(t_uint256,t_struct(LinkData)4967_storage))))": {
        "encoding": "mapping",
        "key": "t_address",
        "label": "mapping(address => mapping(uint256 => mapping(uint256 => mapping(uint256 => struct SoulLinker.LinkData))))",
        "numberOfBytes": "32",
        "value": "t_mapping(t_uint256,t_mapping(t_uint256,t_mapping(t_uint256,t_struct(LinkData)4967_storage)))"
      },
      "t_mapping(t_address,t_struct(DefaultSoulName)4986_storage)": {
        "encoding": "mapping",
        "key": "t_address",
        "label": "mapping(address => struct SoulLinker.DefaultSoulName)",
        "numberOfBytes": "32",
        "value": "t_struct(DefaultSoulName)4986_storage"
      },
      "t_mapping(t_bytes32,t_struct(RoleData)19_storage)": {
        "encoding": "mapping",
        "key": "t_bytes32",
        "label": "mapping(bytes32 => struct AccessControl.RoleData)",
        "numberOfBytes": "32",
        "value": "t_struct(RoleData)19_storage"
      },
      "t_mapping(t_uint256,t_array(t_struct(ReaderLink)4974_storage)dyn_storage)": {
        "encoding": "mapping",
        "key": "t_uint256",
        "label": "mapping(uint256 => struct SoulLinker.ReaderLink[])",
        "numberOfBytes": "32",
        "value": "t_array(t_struct(ReaderLink)4974_storage)dyn_storage"
      },
      "t_mapping(t_uint256,t_array(t_uint256)dyn_storage)": {
        "encoding": "mapping",
        "key": "t_uint256",
        "label": "mapping(uint256 => uint256[])",
        "numberOfBytes": "32",
        "value": "t_array(t_uint256)dyn_storage"
      },
      "t_mapping(t_uint256,t_mapping(t_uint256,t_array(t_uint256)dyn_storage))": {
        "encoding": "mapping",
        "key": "t_uint256",
        "label": "mapping(uint256 => mapping(uint256 => uint256[]))",
        "numberOfBytes": "32",
        "value": "t_mapping(t_uint256,t_array(t_uint256)dyn_storage)"
      },
      "t_mapping(t_uint256,t_mapping(t_uint256,t_mapping(t_uint256,t_struct(LinkData)4967_storage)))": {
        "encoding": "mapping",
        "key": "t_uint256",
        "label": "mapping(uint256 => mapping(uint256 => mapping(uint256 => struct SoulLinker.LinkData)))",
        "numberOfBytes": "32",
        "value": "t_mapping(t_uint256,t_mapping(t_uint256,t_struct(LinkData)4967_storage))"
      },
      "t_mapping(t_uint256,t_mapping(t_uint256,t_struct(LinkData)4967_storage))": {
        "encoding": "mapping",
        "key": "t_uint256",
        "label": "mapping(uint256 => mapping(uint256 => struct SoulLinker.LinkData))",
        "numberOfBytes": "32",
        "value": "t_mapping(t_uint256,t_struct(LinkData)4967_storage)"
      },
      "t_mapping(t_uint256,t_struct(LinkData)4967_storage)": {
        "encoding": "mapping",
        "key": "t_uint256",
        "label": "mapping(uint256 => struct SoulLinker.LinkData)",
        "numberOfBytes": "32",
        "value": "t_struct(LinkData)4967_storage"
      },
      "t_struct(DefaultSoulName)4986_storage": {
        "encoding": "inplace",
        "label": "struct SoulLinker.DefaultSoulName",
        "members": [
          {
            "astId": 4981,
            "contract": "contracts/SoulLinker.sol:SoulLinker",
            "label": "exists",
            "offset": 0,
            "slot": "0",
            "type": "t_bool"
          },
          {
            "astId": 4983,
            "contract": "contracts/SoulLinker.sol:SoulLinker",
            "label": "token",
            "offset": 1,
            "slot": "0",
            "type": "t_address"
          },
          {
            "astId": 4985,
            "contract": "contracts/SoulLinker.sol:SoulLinker",
            "label": "tokenId",
            "offset": 0,
            "slot": "1",
            "type": "t_uint256"
          }
        ],
        "numberOfBytes": "64"
      },
      "t_struct(LinkData)4967_storage": {
        "encoding": "inplace",
        "label": "struct SoulLinker.LinkData",
        "members": [
          {
            "astId": 4960,
            "contract": "contracts/SoulLinker.sol:SoulLinker",
            "label": "exists",
            "offset": 0,
            "slot": "0",
            "type": "t_bool"
          },
          {
            "astId": 4962,
            "contract": "contracts/SoulLinker.sol:SoulLinker",
            "label": "ownerIdentityId",
            "offset": 0,
            "slot": "1",
            "type": "t_uint256"
          },
          {
            "astId": 4964,
            "contract": "contracts/SoulLinker.sol:SoulLinker",
            "label": "expirationDate",
            "offset": 0,
            "slot": "2",
            "type": "t_uint256"
          },
          {
            "astId": 4966,
            "contract": "contracts/SoulLinker.sol:SoulLinker",
            "label": "isRevoked",
            "offset": 0,
            "slot": "3",
            "type": "t_bool"
          }
        ],
        "numberOfBytes": "128"
      },
      "t_struct(ReaderLink)4974_storage": {
        "encoding": "inplace",
        "label": "struct SoulLinker.ReaderLink",
        "members": [
          {
            "astId": 4969,
            "contract": "contracts/SoulLinker.sol:SoulLinker",
            "label": "token",
            "offset": 0,
            "slot": "0",
            "type": "t_address"
          },
          {
            "astId": 4971,
            "contract": "contracts/SoulLinker.sol:SoulLinker",
            "label": "tokenId",
            "offset": 0,
            "slot": "1",
            "type": "t_uint256"
          },
          {
            "astId": 4973,
            "contract": "contracts/SoulLinker.sol:SoulLinker",
            "label": "signatureDate",
            "offset": 0,
            "slot": "2",
            "type": "t_uint256"
          }
        ],
        "numberOfBytes": "96"
      },
      "t_struct(RoleData)19_storage": {
        "encoding": "inplace",
        "label": "struct AccessControl.RoleData",
        "members": [
          {
            "astId": 16,
            "contract": "contracts/SoulLinker.sol:SoulLinker",
            "label": "members",
            "offset": 0,
            "slot": "0",
            "type": "t_mapping(t_address,t_bool)"
          },
          {
            "astId": 18,
            "contract": "contracts/SoulLinker.sol:SoulLinker",
            "label": "adminRole",
            "offset": 0,
            "slot": "1",
            "type": "t_bytes32"
          }
        ],
        "numberOfBytes": "64"
      },
      "t_uint256": {
        "encoding": "inplace",
        "label": "uint256",
        "numberOfBytes": "32"
      }
    }
  }
}