{
  "address": "0xF339e2D564CE47C2FA29b073D6BD7B439e333589",
  "abi": [
    {
      "inputs": [
        {
          "internalType": "address",
          "name": "admin",
          "type": "address"
        },
        {
          "internalType": "contract ISoulboundIdentity",
          "name": "_soulboundIdentity",
          "type": "address"
        },
        {
          "internalType": "string",
          "name": "_extension",
          "type": "string"
        },
        {
          "internalType": "string",
          "name": "_contractURI",
          "type": "string"
        }
      ],
      "stateMutability": "nonpayable",
      "type": "constructor"
    },
    {
      "inputs": [
        {
          "internalType": "address",
          "name": "to",
          "type": "address"
        }
      ],
      "name": "AddressDoesNotHaveIdentity",
      "type": "error"
    },
    {
      "inputs": [
        {
          "internalType": "address",
          "name": "caller",
          "type": "address"
        }
      ],
      "name": "CallerNotOwner",
      "type": "error"
    },
    {
      "inputs": [
        {
          "internalType": "string",
          "name": "tokenURI",
          "type": "string"
        }
      ],
      "name": "InvalidTokenURI",
      "type": "error"
    },
    {
      "inputs": [
        {
          "internalType": "string",
          "name": "name",
          "type": "string"
        }
      ],
      "name": "NameAlreadyExists",
      "type": "error"
    },
    {
      "inputs": [
        {
          "internalType": "string",
          "name": "name",
          "type": "string"
        }
      ],
      "name": "NameNotFound",
      "type": "error"
    },
    {
      "inputs": [
        {
          "internalType": "string",
          "name": "name",
          "type": "string"
        },
        {
          "internalType": "uint256",
          "name": "tokenId",
          "type": "uint256"
        }
      ],
      "name": "NameRegisteredByOtherAccount",
      "type": "error"
    },
    {
      "inputs": [],
      "name": "SameValue",
      "type": "error"
    },
    {
      "inputs": [
        {
          "internalType": "uint256",
          "name": "tokenId",
          "type": "uint256"
        }
      ],
      "name": "TokenNotFound",
      "type": "error"
    },
    {
      "inputs": [
        {
          "internalType": "string",
          "name": "tokenURI",
          "type": "string"
        }
      ],
      "name": "URIAlreadyExists",
      "type": "error"
    },
    {
      "inputs": [],
      "name": "ZeroAddress",
      "type": "error"
    },
    {
      "inputs": [
        {
          "internalType": "string",
          "name": "name",
          "type": "string"
        }
      ],
      "name": "ZeroLengthName",
      "type": "error"
    },
    {
      "inputs": [
        {
          "internalType": "uint256",
          "name": "yearsPeriod",
          "type": "uint256"
        }
      ],
      "name": "ZeroYearsPeriod",
      "type": "error"
    },
    {
      "anonymous": false,
      "inputs": [
        {
          "indexed": true,
          "internalType": "address",
          "name": "owner",
          "type": "address"
        },
        {
          "indexed": true,
          "internalType": "address",
          "name": "approved",
          "type": "address"
        },
        {
          "indexed": true,
          "internalType": "uint256",
          "name": "tokenId",
          "type": "uint256"
        }
      ],
      "name": "Approval",
      "type": "event"
    },
    {
      "anonymous": false,
      "inputs": [
        {
          "indexed": true,
          "internalType": "address",
          "name": "owner",
          "type": "address"
        },
        {
          "indexed": true,
          "internalType": "address",
          "name": "operator",
          "type": "address"
        },
        {
          "indexed": false,
          "internalType": "bool",
          "name": "approved",
          "type": "bool"
        }
      ],
      "name": "ApprovalForAll",
      "type": "event"
    },
    {
      "anonymous": false,
      "inputs": [
        {
          "indexed": true,
          "internalType": "address",
          "name": "previousOwner",
          "type": "address"
        },
        {
          "indexed": true,
          "internalType": "address",
          "name": "newOwner",
          "type": "address"
        }
      ],
      "name": "OwnershipTransferred",
      "type": "event"
    },
    {
      "anonymous": false,
      "inputs": [
        {
          "indexed": true,
          "internalType": "bytes32",
          "name": "role",
          "type": "bytes32"
        },
        {
          "indexed": true,
          "internalType": "bytes32",
          "name": "previousAdminRole",
          "type": "bytes32"
        },
        {
          "indexed": true,
          "internalType": "bytes32",
          "name": "newAdminRole",
          "type": "bytes32"
        }
      ],
      "name": "RoleAdminChanged",
      "type": "event"
    },
    {
      "anonymous": false,
      "inputs": [
        {
          "indexed": true,
          "internalType": "bytes32",
          "name": "role",
          "type": "bytes32"
        },
        {
          "indexed": true,
          "internalType": "address",
          "name": "account",
          "type": "address"
        },
        {
          "indexed": true,
          "internalType": "address",
          "name": "sender",
          "type": "address"
        }
      ],
      "name": "RoleGranted",
      "type": "event"
    },
    {
      "anonymous": false,
      "inputs": [
        {
          "indexed": true,
          "internalType": "bytes32",
          "name": "role",
          "type": "bytes32"
        },
        {
          "indexed": true,
          "internalType": "address",
          "name": "account",
          "type": "address"
        },
        {
          "indexed": true,
          "internalType": "address",
          "name": "sender",
          "type": "address"
        }
      ],
      "name": "RoleRevoked",
      "type": "event"
    },
    {
      "anonymous": false,
      "inputs": [
        {
          "indexed": true,
          "internalType": "address",
          "name": "from",
          "type": "address"
        },
        {
          "indexed": true,
          "internalType": "address",
          "name": "to",
          "type": "address"
        },
        {
          "indexed": true,
          "internalType": "uint256",
          "name": "tokenId",
          "type": "uint256"
        }
      ],
      "name": "Transfer",
      "type": "event"
    },
    {
      "anonymous": false,
      "inputs": [
        {
          "indexed": false,
          "internalType": "uint256",
          "name": "tokenId",
          "type": "uint256"
        },
        {
          "indexed": false,
          "internalType": "uint256",
          "name": "yearsPeriod",
          "type": "uint256"
        },
        {
          "indexed": false,
          "internalType": "uint256",
          "name": "newExpirationDate",
          "type": "uint256"
        }
      ],
      "name": "YearsPeriodRenewed",
      "type": "event"
    },
    {
      "inputs": [],
      "name": "DEFAULT_ADMIN_ROLE",
      "outputs": [
        {
          "internalType": "bytes32",
          "name": "",
          "type": "bytes32"
        }
      ],
      "stateMutability": "view",
      "type": "function"
    },
    {
      "inputs": [],
      "name": "MINTER_ROLE",
      "outputs": [
        {
          "internalType": "bytes32",
          "name": "",
          "type": "bytes32"
        }
      ],
      "stateMutability": "view",
      "type": "function"
    },
    {
      "inputs": [
        {
          "internalType": "address",
          "name": "to",
          "type": "address"
        },
        {
          "internalType": "uint256",
          "name": "tokenId",
          "type": "uint256"
        }
      ],
      "name": "approve",
      "outputs": [],
      "stateMutability": "nonpayable",
      "type": "function"
    },
    {
      "inputs": [
        {
          "internalType": "address",
          "name": "owner",
          "type": "address"
        }
      ],
      "name": "balanceOf",
      "outputs": [
        {
          "internalType": "uint256",
          "name": "",
          "type": "uint256"
        }
      ],
      "stateMutability": "view",
      "type": "function"
    },
    {
      "inputs": [
        {
          "internalType": "uint256",
          "name": "tokenId",
          "type": "uint256"
        }
      ],
      "name": "burn",
      "outputs": [],
      "stateMutability": "nonpayable",
      "type": "function"
    },
    {
      "inputs": [],
      "name": "contractURI",
      "outputs": [
        {
          "internalType": "string",
          "name": "",
          "type": "string"
        }
      ],
      "stateMutability": "view",
      "type": "function"
    },
    {
      "inputs": [
        {
          "internalType": "uint256",
          "name": "tokenId",
          "type": "uint256"
        }
      ],
      "name": "exists",
      "outputs": [
        {
          "internalType": "bool",
          "name": "",
          "type": "bool"
        }
      ],
      "stateMutability": "view",
      "type": "function"
    },
    {
      "inputs": [],
      "name": "extension",
      "outputs": [
        {
          "internalType": "string",
          "name": "",
          "type": "string"
        }
      ],
      "stateMutability": "view",
      "type": "function"
    },
    {
      "inputs": [
        {
          "internalType": "uint256",
          "name": "tokenId",
          "type": "uint256"
        }
      ],
      "name": "getApproved",
      "outputs": [
        {
          "internalType": "address",
          "name": "",
          "type": "address"
        }
      ],
      "stateMutability": "view",
      "type": "function"
    },
    {
      "inputs": [],
      "name": "getExtension",
      "outputs": [
        {
          "internalType": "string",
          "name": "",
          "type": "string"
        }
      ],
      "stateMutability": "view",
      "type": "function"
    },
    {
      "inputs": [
        {
          "internalType": "bytes32",
          "name": "role",
          "type": "bytes32"
        }
      ],
      "name": "getRoleAdmin",
      "outputs": [
        {
          "internalType": "bytes32",
          "name": "",
          "type": "bytes32"
        }
      ],
      "stateMutability": "view",
      "type": "function"
    },
    {
      "inputs": [
        {
          "internalType": "uint256",
          "name": "identityId",
          "type": "uint256"
        }
      ],
      "name": "getSoulNames",
      "outputs": [
        {
          "internalType": "string[]",
          "name": "sbtNames",
          "type": "string[]"
        }
      ],
      "stateMutability": "view",
      "type": "function"
    },
    {
      "inputs": [
        {
          "internalType": "address",
          "name": "owner",
          "type": "address"
        }
      ],
      "name": "getSoulNames",
      "outputs": [
        {
          "internalType": "string[]",
          "name": "sbtNames",
          "type": "string[]"
        }
      ],
      "stateMutability": "view",
      "type": "function"
    },
    {
      "inputs": [
        {
          "internalType": "string",
          "name": "name",
          "type": "string"
        }
      ],
      "name": "getTokenData",
      "outputs": [
        {
          "internalType": "string",
          "name": "sbtName",
          "type": "string"
        },
        {
          "internalType": "bool",
          "name": "linked",
          "type": "bool"
        },
        {
          "internalType": "uint256",
          "name": "identityId",
          "type": "uint256"
        },
        {
          "internalType": "uint256",
          "name": "tokenId",
          "type": "uint256"
        },
        {
          "internalType": "uint256",
          "name": "expirationDate",
          "type": "uint256"
        },
        {
          "internalType": "bool",
          "name": "active",
          "type": "bool"
        }
      ],
      "stateMutability": "view",
      "type": "function"
    },
    {
      "inputs": [
        {
          "internalType": "string",
          "name": "name",
          "type": "string"
        }
      ],
      "name": "getTokenId",
      "outputs": [
        {
          "internalType": "uint256",
          "name": "",
          "type": "uint256"
        }
      ],
      "stateMutability": "view",
      "type": "function"
    },
    {
      "inputs": [
        {
          "internalType": "bytes32",
          "name": "role",
          "type": "bytes32"
        },
        {
          "internalType": "address",
          "name": "account",
          "type": "address"
        }
      ],
      "name": "grantRole",
      "outputs": [],
      "stateMutability": "nonpayable",
      "type": "function"
    },
    {
      "inputs": [
        {
          "internalType": "bytes32",
          "name": "role",
          "type": "bytes32"
        },
        {
          "internalType": "address",
          "name": "account",
          "type": "address"
        }
      ],
      "name": "hasRole",
      "outputs": [
        {
          "internalType": "bool",
          "name": "",
          "type": "bool"
        }
      ],
      "stateMutability": "view",
      "type": "function"
    },
    {
      "inputs": [
        {
          "internalType": "address",
          "name": "owner",
          "type": "address"
        },
        {
          "internalType": "address",
          "name": "operator",
          "type": "address"
        }
      ],
      "name": "isApprovedForAll",
      "outputs": [
        {
          "internalType": "bool",
          "name": "",
          "type": "bool"
        }
      ],
      "stateMutability": "view",
      "type": "function"
    },
    {
      "inputs": [
        {
          "internalType": "string",
          "name": "name",
          "type": "string"
        }
      ],
      "name": "isAvailable",
      "outputs": [
        {
          "internalType": "bool",
          "name": "available",
          "type": "bool"
        }
      ],
      "stateMutability": "view",
      "type": "function"
    },
    {
      "inputs": [
        {
          "internalType": "address",
          "name": "to",
          "type": "address"
        },
        {
          "internalType": "string",
          "name": "name",
          "type": "string"
        },
        {
          "internalType": "uint256",
          "name": "yearsPeriod",
          "type": "uint256"
        },
        {
          "internalType": "string",
          "name": "_tokenURI",
          "type": "string"
        }
      ],
      "name": "mint",
      "outputs": [
        {
          "internalType": "uint256",
          "name": "",
          "type": "uint256"
        }
      ],
      "stateMutability": "nonpayable",
      "type": "function"
    },
    {
      "inputs": [],
      "name": "name",
      "outputs": [
        {
          "internalType": "string",
          "name": "",
          "type": "string"
        }
      ],
      "stateMutability": "view",
      "type": "function"
    },
    {
      "inputs": [
        {
          "internalType": "string",
          "name": "",
          "type": "string"
        }
      ],
      "name": "nameData",
      "outputs": [
        {
          "internalType": "bool",
          "name": "exists",
          "type": "bool"
        },
        {
          "internalType": "uint256",
          "name": "tokenId",
          "type": "uint256"
        }
      ],
      "stateMutability": "view",
      "type": "function"
    },
    {
      "inputs": [],
      "name": "owner",
      "outputs": [
        {
          "internalType": "address",
          "name": "",
          "type": "address"
        }
      ],
      "stateMutability": "view",
      "type": "function"
    },
    {
      "inputs": [
        {
          "internalType": "uint256",
          "name": "tokenId",
          "type": "uint256"
        }
      ],
      "name": "ownerOf",
      "outputs": [
        {
          "internalType": "address",
          "name": "",
          "type": "address"
        }
      ],
      "stateMutability": "view",
      "type": "function"
    },
    {
      "inputs": [
        {
          "internalType": "uint256",
          "name": "tokenId",
          "type": "uint256"
        },
        {
          "internalType": "uint256",
          "name": "yearsPeriod",
          "type": "uint256"
        }
      ],
      "name": "renewYearsPeriod",
      "outputs": [],
      "stateMutability": "nonpayable",
      "type": "function"
    },
    {
      "inputs": [],
      "name": "renounceOwnership",
      "outputs": [],
      "stateMutability": "nonpayable",
      "type": "function"
    },
    {
      "inputs": [
        {
          "internalType": "bytes32",
          "name": "role",
          "type": "bytes32"
        },
        {
          "internalType": "address",
          "name": "account",
          "type": "address"
        }
      ],
      "name": "renounceRole",
      "outputs": [],
      "stateMutability": "nonpayable",
      "type": "function"
    },
    {
      "inputs": [
        {
          "internalType": "bytes32",
          "name": "role",
          "type": "bytes32"
        },
        {
          "internalType": "address",
          "name": "account",
          "type": "address"
        }
      ],
      "name": "revokeRole",
      "outputs": [],
      "stateMutability": "nonpayable",
      "type": "function"
    },
    {
      "inputs": [
        {
          "internalType": "address",
          "name": "from",
          "type": "address"
        },
        {
          "internalType": "address",
          "name": "to",
          "type": "address"
        },
        {
          "internalType": "uint256",
          "name": "tokenId",
          "type": "uint256"
        }
      ],
      "name": "safeTransferFrom",
      "outputs": [],
      "stateMutability": "nonpayable",
      "type": "function"
    },
    {
      "inputs": [
        {
          "internalType": "address",
          "name": "from",
          "type": "address"
        },
        {
          "internalType": "address",
          "name": "to",
          "type": "address"
        },
        {
          "internalType": "uint256",
          "name": "tokenId",
          "type": "uint256"
        },
        {
          "internalType": "bytes",
          "name": "data",
          "type": "bytes"
        }
      ],
      "name": "safeTransferFrom",
      "outputs": [],
      "stateMutability": "nonpayable",
      "type": "function"
    },
    {
      "inputs": [
        {
          "internalType": "address",
          "name": "operator",
          "type": "address"
        },
        {
          "internalType": "bool",
          "name": "approved",
          "type": "bool"
        }
      ],
      "name": "setApprovalForAll",
      "outputs": [],
      "stateMutability": "nonpayable",
      "type": "function"
    },
    {
      "inputs": [
        {
          "internalType": "string",
          "name": "_contractURI",
          "type": "string"
        }
      ],
      "name": "setContractURI",
      "outputs": [],
      "stateMutability": "nonpayable",
      "type": "function"
    },
    {
      "inputs": [
        {
          "internalType": "string",
          "name": "_extension",
          "type": "string"
        }
      ],
      "name": "setExtension",
      "outputs": [],
      "stateMutability": "nonpayable",
      "type": "function"
    },
    {
      "inputs": [
        {
          "internalType": "contract ISoulboundIdentity",
          "name": "_soulboundIdentity",
          "type": "address"
        }
      ],
      "name": "setSoulboundIdentity",
      "outputs": [],
      "stateMutability": "nonpayable",
      "type": "function"
    },
    {
      "inputs": [],
      "name": "soulboundIdentity",
      "outputs": [
        {
          "internalType": "contract ISoulboundIdentity",
          "name": "",
          "type": "address"
        }
      ],
      "stateMutability": "view",
      "type": "function"
    },
    {
      "inputs": [
        {
          "internalType": "bytes4",
          "name": "interfaceId",
          "type": "bytes4"
        }
      ],
      "name": "supportsInterface",
      "outputs": [
        {
          "internalType": "bool",
          "name": "",
          "type": "bool"
        }
      ],
      "stateMutability": "view",
      "type": "function"
    },
    {
      "inputs": [],
      "name": "symbol",
      "outputs": [
        {
          "internalType": "string",
          "name": "",
          "type": "string"
        }
      ],
      "stateMutability": "view",
      "type": "function"
    },
    {
      "inputs": [
        {
          "internalType": "uint256",
          "name": "index",
          "type": "uint256"
        }
      ],
      "name": "tokenByIndex",
      "outputs": [
        {
          "internalType": "uint256",
          "name": "",
          "type": "uint256"
        }
      ],
      "stateMutability": "view",
      "type": "function"
    },
    {
      "inputs": [
        {
          "internalType": "uint256",
          "name": "",
          "type": "uint256"
        }
      ],
      "name": "tokenData",
      "outputs": [
        {
          "internalType": "string",
          "name": "name",
          "type": "string"
        },
        {
          "internalType": "uint256",
          "name": "expirationDate",
          "type": "uint256"
        }
      ],
      "stateMutability": "view",
      "type": "function"
    },
    {
      "inputs": [
        {
          "internalType": "address",
          "name": "owner",
          "type": "address"
        },
        {
          "internalType": "uint256",
          "name": "index",
          "type": "uint256"
        }
      ],
      "name": "tokenOfOwnerByIndex",
      "outputs": [
        {
          "internalType": "uint256",
          "name": "",
          "type": "uint256"
        }
      ],
      "stateMutability": "view",
      "type": "function"
    },
    {
      "inputs": [
        {
          "internalType": "string",
          "name": "name",
          "type": "string"
        }
      ],
      "name": "tokenURI",
      "outputs": [
        {
          "internalType": "string",
          "name": "",
          "type": "string"
        }
      ],
      "stateMutability": "view",
      "type": "function"
    },
    {
      "inputs": [
        {
          "internalType": "uint256",
          "name": "tokenId",
          "type": "uint256"
        }
      ],
      "name": "tokenURI",
      "outputs": [
        {
          "internalType": "string",
          "name": "",
          "type": "string"
        }
      ],
      "stateMutability": "view",
      "type": "function"
    },
    {
      "inputs": [],
      "name": "totalSupply",
      "outputs": [
        {
          "internalType": "uint256",
          "name": "",
          "type": "uint256"
        }
      ],
      "stateMutability": "view",
      "type": "function"
    },
    {
      "inputs": [
        {
          "internalType": "address",
          "name": "from",
          "type": "address"
        },
        {
          "internalType": "address",
          "name": "to",
          "type": "address"
        },
        {
          "internalType": "uint256",
          "name": "tokenId",
          "type": "uint256"
        }
      ],
      "name": "transferFrom",
      "outputs": [],
      "stateMutability": "nonpayable",
      "type": "function"
    },
    {
      "inputs": [
        {
          "internalType": "address",
          "name": "newOwner",
          "type": "address"
        }
      ],
      "name": "transferOwnership",
      "outputs": [],
      "stateMutability": "nonpayable",
      "type": "function"
    }
  ],
  "transactionHash": "0x17919e172e53974c8aae8ffce61224606ce85e8721a5c767fdb2c06b262671d5",
  "args": [
    "0xA38dd237a3A8D50537B74a4B0D4E7E8A5359386F",
    "0x04FB5fB3aE822B9d9e4060eDCcDA44b76821D090",
    ".soul",
    "ar://bfG2m3VJU19fj6uGgyaxNY0QhK0G7RINYtw-GRVVqTM"
  ],
  "numDeployments": 1,
  "solcInputHash": "33d3e80dee0d65e1000f00966537883e",
  "bytecode": "0x60806040523480156200001157600080fd5b506040516200417d3803806200417d83398101604081905262000034916200046d565b604080518082018252600e81526d4d61736120536f756c204e616d6560901b602080830191825283518085018552600381526226a9a760e91b818301528451918201909452600080825283518995938592859262000093929062000334565b508051620000a990600190602084019062000334565b505050620000c6620000c0620001ad60201b60201c565b620001b1565b620000dc846200020360201b6200181f1760201c565b620000e96000856200024d565b620001157f9f2df0fed2c77648de5860a4cc508cd0818c85b8b8a1ab4ceeef8d981c8956a6856200024d565b80516200012a90600d90602084019062000334565b50506001600e555050506001600160a01b0383166200015c5760405163d92e233d60e01b815260040160405180910390fd5b600f80546001600160a01b0319166001600160a01b03851617905581516200018c90601090602085019062000334565b508051620001a290601190602084019062000334565b5050505050620006f5565b3390565b600a80546001600160a01b038381166001600160a01b0319831681179093556040519116919082907f8be0079c531659141344cd1fd0a4f28419497f9722a3daafe3b4186f6b6457e090600090a35050565b6200020d620002d8565b6001600160a01b0381166200023f5760405162461bcd60e51b8152600401620002369062000513565b60405180910390fd5b6200024a81620001b1565b50565b62000259828262000307565b620002d4576000828152600b602090815260408083206001600160a01b03851684529091529020805460ff19166001179055620002933390565b6001600160a01b0316816001600160a01b0316837f2f8788117e7eff1d82e926ec794901d17c78024a50270940304540a733656f0d60405160405180910390a45b5050565b600a546001600160a01b03163314620003055760405162461bcd60e51b815260040162000236906200055e565b565b6000828152600b602090815260408083206001600160a01b038516845290915290205460ff165b92915050565b82805462000342906200063a565b90600052602060002090601f016020900481019282620003665760008555620003b1565b82601f106200038157805160ff1916838001178555620003b1565b82800160010185558215620003b1579182015b82811115620003b157825182559160200191906001019062000394565b50620003bf929150620003c3565b5090565b5b80821115620003bf5760008155600101620003c4565b6000620003f1620003eb84620005b8565b62000599565b9050828152602081018484840111156200040e576200040e600080fd5b6200041b84828562000607565b509392505050565b80516200032e81620006d3565b80516200032e81620006ea565b600082601f830112620004535762000453600080fd5b815162000465848260208601620003da565b949350505050565b60008060008060808587031215620004885762000488600080fd5b600062000496878762000423565b9450506020620004a98782880162000430565b93505060408501516001600160401b03811115620004ca57620004ca600080fd5b620004d8878288016200043d565b92505060608501516001600160401b03811115620004f957620004f9600080fd5b62000507878288016200043d565b91505092959194509250565b602080825281016200032e81602681527f4f776e61626c653a206e6577206f776e657220697320746865207a65726f206160208201526564647265737360d01b604082015260600190565b60208082528181019081527f4f776e61626c653a2063616c6c6572206973206e6f7420746865206f776e65726040830152606082016200032e565b6000620005a560405190565b9050620005b382826200066b565b919050565b60006001600160401b03821115620005d457620005d4620006b3565b620005df82620006c9565b60200192915050565b60006001600160a01b0382166200032e565b60006200032e82620005e8565b60005b83811015620006245781810151838201526020016200060a565b8381111562000634576000848401525b50505050565b6002810460018216806200064f57607f821691505b602082108114156200066557620006656200069d565b50919050565b6200067682620006c9565b81018181106001600160401b0382111715620006965762000696620006b3565b6040525050565b634e487b7160e01b600052602260045260246000fd5b634e487b7160e01b600052604160045260246000fd5b601f01601f191690565b620006de81620005e8565b81146200024a57600080fd5b620006de81620005fa565b613a7880620007056000396000f3fe608060405234801561001057600080fd5b506004361061020f5760003560e01c806301ffc9a71461021457806306fdde031461023d578063081812fc14610252578063095ea7b31461027257806318160ddd146102875780631e7663bc1461029857806323b872dd146102ab578063248a9ca3146102be5780632d5537b0146102d15780632f2ff15d146102d95780632f745c59146102ec57806336568abe146102ff5780633ad3033e146103125780633dd904301461032557806342842e0e1461033857806342966c681461034b57806346b2b0871461035e5780634cf12d26146103835780634f558e79146103965780634f6ccce7146103a95780636352211e146103bc57806370a08231146103cf578063715018a6146103e2578063776ce6a1146103ea57806377bed5ed146103f25780637e2285aa146104125780637e669891146104255780638da5cb5b1461044557806391d148541461044d578063938e3d7b1461046057806395d89b4114610473578063965306aa1461047b578063a217fddf1461048e578063a22cb46514610496578063b4b5b48f146104a9578063b79636b6146104ca578063b88d4fde146104dd578063bdf29a85146104f0578063c87b56dd14610536578063d539139314610549578063d547741f1461055e578063e8a3d48514610571578063e985e9c514610579578063ebfcbee11461058c578063f2fde38b1461059f575b600080fd5b610227610222366004612d79565b6105b2565b6040516102349190613559565b60405180910390f35b6102456105c3565b604051610234919061359e565b610265610260366004612d36565b610655565b60405161023491906134f6565b610285610280366004612d03565b61067c565b005b6008545b6040516102349190613582565b61028b6102a6366004612ddc565b61070b565b6102856102b9366004612bb2565b610716565b61028b6102cc366004612d36565b610748565b61024561075d565b6102856102e7366004612d57565b6107eb565b61028b6102fa366004612d03565b610807565b61028561030d366004612d57565b610859565b610285610320366004612dbb565b61088f565b61028b610333366004612cb3565b61090f565b610285610346366004612bb2565b610b92565b610285610359366004612d36565b610bad565b61037161036c366004612ddc565b610d71565b604051610234969594939291906135af565b610245610391366004612ddc565b610f85565b6102276103a4366004612d36565b610fa4565b61028b6103b7366004612d36565b610faf565b6102656103ca366004612d36565b610ffd565b61028b6103dd366004612b33565b611032565b610285611076565b61024561108a565b600f54610405906001600160a01b031681565b6040516102349190613590565b610285610420366004612ddc565b611099565b610438610433366004612d36565b611122565b6040516102349190613548565b6102656111b3565b61022761045b366004612d57565b6111c2565b61028561046e366004612ddc565b6111ed565b610245611276565b610227610489366004612ddc565b611285565b61028b600081565b6102856104a4366004612c80565b611312565b6104bc6104b7366004612d36565b61131d565b60405161023492919061360e565b6104386104d8366004612b33565b6113c1565b6102856104eb366004612c02565b61150f565b6105286104fe366004612ddc565b80516020818301810180516015825292820191909301209152805460019091015460ff9091169082565b604051610234929190613567565b610245610544366004612d36565b611548565b61028b600080516020613a0383398151915281565b61028561056c366004612d57565b61164c565b610245611668565b610227610587366004612b75565b611675565b61028561059a366004612e37565b6116a3565b6102856105ad366004612b33565b61181f565b60006105bd82611859565b92915050565b6060600080546105d2906138b6565b80601f01602080910402602001604051908101604052809291908181526020018280546105fe906138b6565b801561064b5780601f106106205761010080835404028352916020019161064b565b820191906000526020600020905b81548152906001019060200180831161062e57829003601f168201915b5050505050905090565b60006106608261187e565b506000908152600460205260409020546001600160a01b031690565b600061068782610ffd565b9050806001600160a01b0316836001600160a01b031614156106c45760405162461bcd60e51b81526004016106bb906136fe565b60405180910390fd5b336001600160a01b03821614806106e057506106e08133611675565b6106fc5760405162461bcd60e51b81526004016106bb906136be565b61070683836118a3565b505050565b60006105bd82611911565b610721335b8261198b565b61073d5760405162461bcd60e51b81526004016106bb9061371e565b6107068383836119e9565b6000908152600b602052604090206001015490565b6010805461076a906138b6565b80601f0160208091040260200160405190810160405280929190818152602001828054610796906138b6565b80156107e35780601f106107b8576101008083540402835291602001916107e3565b820191906000526020600020905b8154815290600101906020018083116107c657829003601f168201915b505050505081565b6107f482610748565b6107fd81611b04565b6107068383611b0e565b600061081283611032565b82106108305760405162461bcd60e51b81526004016106bb9061363e565b506001600160a01b03919091166000908152600660209081526040808320938352929052205490565b6001600160a01b03811633146108815760405162461bcd60e51b81526004016106bb9061373e565b61088b8282611b94565b5050565b610897611bfb565b6001600160a01b0381166108be5760405163d92e233d60e01b815260040160405180910390fd5b600f546001600160a01b03828116911614156108ed5760405163c23f6ccb60e01b815260040160405180910390fd5b600f80546001600160a01b0319166001600160a01b0392909216919091179055565b60006002600e5414156109345760405162461bcd60e51b81526004016106bb9061372e565b6002600e5561094284611285565b61096157836040516309463f9760e31b81526004016106bb919061359e565b8351610982578360405163234371eb60e21b81526004016106bb919061359e565b826109a257826040516372eab4d960e01b81526004016106bb9190613582565b600f546040516370a0823160e01b81526001600160a01b03909116906370a08231906109d29088906004016134f6565b60206040518083038186803b1580156109ea57600080fd5b505afa1580156109fe573d6000803e3d6000fd5b505050506040513d601f19601f82011682018060405250810190610a229190612e16565b610a41578460405163678391f160e01b81526004016106bb91906134f6565b610a68826040518060400160405280600581526020016461723a2f2f60d81b815250611c2a565b158015610a9b5750610a998260405180604001604052806007815260200166697066733a2f2f60c81b815250611c2a565b155b15610abb5781604051639bc1a52f60e01b81526004016106bb919061359e565b6000610ac686611c90565b9050610ad28184611ccf565b60008181526014602090815260409091208651610af1928801906129af565b50610b0a610b036301e1338086611d90565b4290611d9c565b600082815260146020526040812060010191909155610b2886611da8565b905081601582604051610b3b919061344a565b9081526020016040518091039020600101819055506001601582604051610b62919061344a565b908152604051908190036020019020805491151560ff199092169190911790555090506001600e55949350505050565b6107068383836040518060200160405280600081525061150f565b610bb681611f1e565b610bd557806040516306caeb1360e41b81526004016106bb9190613582565b60008181526014602052604081208054610c769190610bf3906138b6565b80601f0160208091040260200160405190810160405280929190818152602001828054610c1f906138b6565b8015610c6c5780601f10610c4157610100808354040283529160200191610c6c565b820191906000526020600020905b815481529060010190602001808311610c4f57829003601f168201915b5050505050611da8565b6000838152601460205260408120919250610c918282612a33565b6001820160009055505081601582604051610cac919061344a565b9081526020016040518091039020600101541415610cf457601581604051610cd4919061344a565b908152604051908190036020019020805460ff1916815560006001909101555b60008281526012602052604090208054610d0d906138b6565b159050610d68576000828152601260205260408082209051601391610d319161349c565b9081526040805160209281900383019020805460ff19169315159390931790925560008481526012909152908120610d6891612a33565b61088b82611f3b565b60606000806000806000610d8487611911565b92506000610d9184610ffd565b600f546040516370a0823160e01b815291925060009182916001600160a01b0316906370a0823190610dc79086906004016134f6565b60206040518083038186803b158015610ddf57600080fd5b505afa158015610df3573d6000803e3d6000fd5b505050506040513d601f19601f82011682018060405250810190610e179190612e16565b11905060008115610ea557600f5460405163294cdf0d60e01b81526001600160a01b039091169063294cdf0d90610e529086906004016134f6565b60206040518083038186803b158015610e6a57600080fd5b505afa158015610e7e573d6000803e3d6000fd5b505050506040513d601f19601f82011682018060405250810190610ea29190612e16565b90505b6000868152601460205260408082208151808301909252805482908290610ecb906138b6565b80601f0160208091040260200160405190810160405280929190818152602001828054610ef7906138b6565b8015610f445780601f10610f1957610100808354040283529160200191610f44565b820191906000526020600020905b815481529060010190602001808311610f2757829003601f168201915b505050505081526020016001820154815250509050610f668160000151611f69565b6020909101519099509197509550925050504281101591939550919395565b60606000610f9283611911565b9050610f9d81611548565b9392505050565b60006105bd82611f1e565b6000610fba60085490565b8210610fd85760405162461bcd60e51b81526004016106bb9061370e565b60088281548110610feb57610feb613991565b90600052602060002001549050919050565b6000818152600260205260408120546001600160a01b0316806105bd5760405162461bcd60e51b81526004016106bb906136ee565b60006001600160a01b03821661105a5760405162461bcd60e51b81526004016106bb906136ae565b506001600160a01b031660009081526003602052604090205490565b61107e611bfb565b6110886000611f95565b565b6060601080546105d2906138b6565b6110a1611bfb565b806040516020016110b2919061344a565b6040516020818303038152906040528051906020012060106040516020016110da919061349c565b60405160208183030381529060405280519060200120141561110f5760405163c23f6ccb60e01b815260040160405180910390fd5b805161088b9060109060208401906129af565b600f546040516331a9108f60e11b81526060916000916001600160a01b0390911690636352211e90611158908690600401613582565b60206040518083038186803b15801561117057600080fd5b505afa158015611184573d6000803e3d6000fd5b505050506040513d601f19601f820116820180604052508101906111a89190612b54565b9050610f9d816113c1565b600a546001600160a01b031690565b6000918252600b602090815260408084206001600160a01b0393909316845291905290205460ff1690565b6111f5611bfb565b80604051602001611206919061344a565b60405160208183030381529060405280519060200120601160405160200161122e919061349c565b6040516020818303038152906040528051906020012014156112635760405163c23f6ccb60e01b815260040160405180910390fd5b805161088b9060119060208401906129af565b6060600180546105d2906138b6565b60008061129183611da8565b90506015816040516112a3919061344a565b9081526040519081900360200190205460ff16156113035760006015826040516112cd919061344a565b90815260200160405180910390206001015490504260146000838152602001908152602001600020600101541092505050919050565b50600192915050565b50919050565b61088b338383611fe7565b601460205260009081526040902080548190611338906138b6565b80601f0160208091040260200160405190810160405280929190818152602001828054611364906138b6565b80156113b15780601f10611386576101008083540402835291602001916113b1565b820191906000526020600020905b81548152906001019060200180831161139457829003601f168201915b5050505050908060010154905082565b60606000806113cf84611032565b905060005b818110156114245760006113e88683610807565b60008181526014602052604090206001015490915042116114115761140e846001611d9c565b93505b508061141c8161390a565b9150506113d4565b506000826001600160401b0381111561143f5761143f6139a7565b60405190808252806020026020018201604052801561147257816020015b606081526020019060019003908161145d5790505b5090506000805b8381101561150457600061148d8883610807565b60008181526014602052604090206001015490915042116114f157600081815260146020526040902080546114c69190610bf3906138b6565b8484815181106114d8576114d8613991565b60209081029190910101526114ee836001611d9c565b92505b50806114fc8161390a565b915050611479565b509095945050505050565b61151a335b8361198b565b6115365760405162461bcd60e51b81526004016106bb9061371e565b6115428484848461208a565b50505050565b60606115538261187e565b6000828152601260205260408120805461156c906138b6565b80601f0160208091040260200160405190810160405280929190818152602001828054611598906138b6565b80156115e55780601f106115ba576101008083540402835291602001916115e5565b820191906000526020600020905b8154815290600101906020018083116115c857829003601f168201915b5050505050905060006115f66120bd565b9050805160001415611609575092915050565b81511561163b578082604051602001611623929190613456565b60405160208183030381529060405292505050919050565b611644846120cc565b949350505050565b61165582610748565b61165e81611b04565b6107068383611b94565b6011805461076a906138b6565b6001600160a01b03918216600090815260056020908152604080832093909416825291909152205460ff1690565b6116ac33611514565b6116cb573360405163060296c760e31b81526004016106bb91906134f6565b806116eb57806040516372eab4d960e01b81526004016106bb9190613582565b600082815260146020526040812080546117099190610bf3906138b6565b90508260158260405161171c919061344a565b908152602001604051809103902060010154146117505780836040516309a3b96f60e21b81526004016106bb92919061360e565b6000838152601460205260409020600101544211156117915761177a610b036301e1338084611d90565b6000848152601460205260409020600101556117cd565b6117ba6117a26301e1338084611d90565b60008581526014602052604090206001015490611d9c565b6000848152601460205260409020600101555b600083815260146020526040908190206001015490517f88ef5d91ad01b04046836022a7aade9038eb1188da66972705cc01ae3d49f08391611812918691869161374e565b60405180910390a1505050565b611827611bfb565b6001600160a01b03811661184d5760405162461bcd60e51b81526004016106bb9061365e565b61185681611f95565b50565b60006001600160e01b03198216637965db0b60e01b14806105bd57506105bd82612132565b61188781611f1e565b6118565760405162461bcd60e51b81526004016106bb906136ee565b600081815260046020526040902080546001600160a01b0319166001600160a01b03841690811790915581906118d882610ffd565b6001600160a01b03167f8c5be1e5ebec7d5bd14f71427d1e84f3dd0314c0f7b2291e5b200ac8c7c3b92560405160405180910390a45050565b60008061191d83611da8565b905060158160405161192f919061344a565b9081526040519081900360200190205460ff166119615782604051636de04b9f60e01b81526004016106bb919061359e565b601581604051611971919061344a565b908152602001604051809103902060010154915050919050565b60008061199783610ffd565b9050806001600160a01b0316846001600160a01b031614806119be57506119be8185611675565b806116445750836001600160a01b03166119d784610655565b6001600160a01b031614949350505050565b826001600160a01b03166119fc82610ffd565b6001600160a01b031614611a225760405162461bcd60e51b81526004016106bb9061366e565b6001600160a01b038216611a485760405162461bcd60e51b81526004016106bb9061368e565b611a53838383612157565b611a5e6000826118a3565b6001600160a01b0383166000908152600360205260408120805460019290611a87908490613829565b90915550506001600160a01b0382166000908152600360205260408120805460019290611ab59084906137bd565b909155505060008181526002602052604080822080546001600160a01b0319166001600160a01b038681169182179092559151849391871691600080516020613a2383398151915291a4505050565b6118568133612162565b611b1882826111c2565b61088b576000828152600b602090815260408083206001600160a01b03851684529091529020805460ff19166001179055611b503390565b6001600160a01b0316816001600160a01b0316837f2f8788117e7eff1d82e926ec794901d17c78024a50270940304540a733656f0d60405160405180910390a45050565b611b9e82826111c2565b1561088b576000828152600b602090815260408083206001600160a01b0385168085529252808320805460ff1916905551339285917ff6391f5c32d9c69d2a47ea670b442974b53935d1edc7fd64eb21e047a839171b9190a45050565b33611c046111b3565b6001600160a01b0316146110885760405162461bcd60e51b81526004016106bb906136de565b600080611c36846121c6565b90506000611c43846121c6565b805183519192501115611c5b576000925050506105bd565b806020015182602001511415611c76576001925050506105bd565b805160209283015192909101518190209120149392505050565b6000600080516020613a03833981519152611caa81611b04565b6000611cb5600c5490565b9050611cc5600c80546001019055565b610f9d84826121f3565b611cd882611f1e565b611cf757816040516306caeb1360e41b81526004016106bb9190613582565b601381604051611d07919061344a565b9081526040519081900360200190205460ff1615611d3a578060405163f62081bb60e01b81526004016106bb919061359e565b60008281526012602090815260409091208251611d59928401906129af565b506001601382604051611d6c919061344a565b908152604051908190036020019020805491151560ff199092169190911790555050565b6000610f9d828461380a565b6000610f9d82846137bd565b60606000829050600081516001600160401b03811115611dca57611dca6139a7565b6040519080825280601f01601f191660200182016040528015611df4576020820181803683370190505b50905060005b8251811015611f1657604160f81b838281518110611e1a57611e1a613991565b01602001516001600160f81b03191610801590611e5b5750605a60f81b838281518110611e4957611e49613991565b01602001516001600160f81b03191611155b15611ebd57828181518110611e7257611e72613991565b602001015160f81c60f81b60f81c6020611e8c91906137d5565b60f81b828281518110611ea157611ea1613991565b60200101906001600160f81b031916908160001a905350611f04565b828181518110611ecf57611ecf613991565b602001015160f81c60f81b828281518110611eec57611eec613991565b60200101906001600160f81b031916908160001a9053505b80611f0e8161390a565b915050611dfa565b509392505050565b6000908152600260205260409020546001600160a01b0316151590565b611f443361071b565b611f605760405162461bcd60e51b81526004016106bb9061371e565b6118568161220d565b6060816010604051602001611f7f929190613432565b6040516020818303038152906040529050919050565b600a80546001600160a01b038381166001600160a01b0319831681179093556040519116919082907f8be0079c531659141344cd1fd0a4f28419497f9722a3daafe3b4186f6b6457e090600090a35050565b816001600160a01b0316836001600160a01b031614156120195760405162461bcd60e51b81526004016106bb9061369e565b6001600160a01b0383811660008181526005602090815260408083209487168084529490915290819020805460ff1916851515179055517f17307eab39ab6107e8899845ad3d59bd9653f200f220920489ca2b5937696c319061207d908590613559565b60405180910390a3505050565b6120958484846119e9565b6120a1848484846122a2565b6115425760405162461bcd60e51b81526004016106bb9061364e565b6060600d80546105d2906138b6565b60606120d78261187e565b60006120e16120bd565b905060008151116121015760405180602001604052806000815250610f9d565b8061210b846123af565b60405160200161211c92919061346e565b6040516020818303038152906040529392505050565b60006001600160e01b0319821663780e9d6360e01b14806105bd57506105bd826124ac565b6107068383836124fc565b61216c82826111c2565b61088b57612184816001600160a01b031660146125b4565b61218f8360206125b4565b6040516020016121a09291906134a8565b60408051601f198184030181529082905262461bcd60e51b82526106bb9160040161359e565b60408051808201825260008082526020918201528151808301909252825182529182019181019190915290565b61088b82826040518060200160405280600081525061271f565b600061221882610ffd565b905061222681600084612157565b6122316000836118a3565b6001600160a01b038116600090815260036020526040812080546001929061225a908490613829565b909155505060008281526002602052604080822080546001600160a01b0319169055518391906001600160a01b03841690600080516020613a23833981519152908390a45050565b60006001600160a01b0384163b156123a457604051630a85bd0160e11b81526001600160a01b0385169063150b7a02906122e6903390899088908890600401613504565b602060405180830381600087803b15801561230057600080fd5b505af1925050508015612330575060408051601f3d908101601f1916820190925261232d91810190612d9a565b60015b61238a573d80801561235e576040519150601f19603f3d011682016040523d82523d6000602084013e612363565b606091505b5080516123825760405162461bcd60e51b81526004016106bb9061364e565b805181602001fd5b6001600160e01b031916630a85bd0160e11b149050611644565b506001949350505050565b6060816123d35750506040805180820190915260018152600360fc1b602082015290565b8160005b81156123fd57806123e78161390a565b91506123f69050600a836137f6565b91506123d7565b6000816001600160401b03811115612417576124176139a7565b6040519080825280601f01601f191660200182016040528015612441576020820181803683370190505b5090505b841561164457612456600183613829565b9150612463600a86613925565b61246e9060306137bd565b60f81b81838151811061248357612483613991565b60200101906001600160f81b031916908160001a9053506124a5600a866137f6565b9450612445565b60006001600160e01b031982166380ac58cd60e01b14806124dd57506001600160e01b03198216635b5e139f60e01b145b806105bd57506301ffc9a760e01b6001600160e01b03198316146105bd565b6001600160a01b0383166125575761255281600880546000838152600960205260408120829055600182018355919091527ff3f7a9fe364faab93b216da50a3214154f22a0a2b415b23a84c8169e8b636ee30155565b61257a565b816001600160a01b0316836001600160a01b03161461257a5761257a8382612752565b6001600160a01b03821661259157610706816127ef565b826001600160a01b0316826001600160a01b03161461070657610706828261289e565b606060006125c383600261380a565b6125ce9060026137bd565b6001600160401b038111156125e5576125e56139a7565b6040519080825280601f01601f19166020018201604052801561260f576020820181803683370190505b509050600360fc1b8160008151811061262a5761262a613991565b60200101906001600160f81b031916908160001a905350600f60fb1b8160018151811061265957612659613991565b60200101906001600160f81b031916908160001a905350600061267d84600261380a565b6126889060016137bd565b90505b6001811115612700576f181899199a1a9b1b9c1cb0b131b232b360811b85600f16601081106126bc576126bc613991565b1a60f81b8282815181106126d2576126d2613991565b60200101906001600160f81b031916908160001a90535060049490941c936126f98161389f565b905061268b565b508315610f9d5760405162461bcd60e51b81526004016106bb9061362e565b61272983836128e2565b61273660008484846122a2565b6107065760405162461bcd60e51b81526004016106bb9061364e565b6000600161275f84611032565b6127699190613829565b6000838152600760205260409020549091508082146127bc576001600160a01b03841660009081526006602090815260408083208584528252808320548484528184208190558352600790915290208190555b5060009182526007602090815260408084208490556001600160a01b039094168352600681528383209183525290812055565b60085460009061280190600190613829565b6000838152600960205260408120546008805493945090928490811061282957612829613991565b90600052602060002001549050806008838154811061284a5761284a613991565b60009182526020808320909101929092558281526009909152604080822084905585825281205560088054806128825761288261397b565b6001900381819060005260206000200160009055905550505050565b60006128a983611032565b6001600160a01b039093166000908152600660209081526040808320868452825280832085905593825260079052919091209190915550565b6001600160a01b0382166129085760405162461bcd60e51b81526004016106bb906136ce565b61291181611f1e565b1561292e5760405162461bcd60e51b81526004016106bb9061367e565b61293a60008383612157565b6001600160a01b03821660009081526003602052604081208054600192906129639084906137bd565b909155505060008181526002602052604080822080546001600160a01b0319166001600160a01b0386169081179091559051839290600080516020613a23833981519152908290a45050565b8280546129bb906138b6565b90600052602060002090601f0160209004810192826129dd5760008555612a23565b82601f106129f657805160ff1916838001178555612a23565b82800160010185558215612a23579182015b82811115612a23578251825591602001919060010190612a08565b50612a2f929150612a69565b5090565b508054612a3f906138b6565b6000825580601f10612a4f575050565b601f01602090049060005260206000209081019061185691905b5b80821115612a2f5760008155600101612a6a565b6000612a91612a8c84613792565b613776565b905082815260208101848484011115612aac57612aac600080fd5b611f16848285613867565b80356105bd816139c7565b80516105bd816139c7565b80356105bd816139db565b80356105bd816139e3565b80356105bd816139e9565b80516105bd816139e9565b600082601f830112612b0d57612b0d600080fd5b8135611644848260208601612a7e565b80356105bd816139f9565b80516105bd816139e3565b600060208284031215612b4857612b48600080fd5b60006116448484612ab7565b600060208284031215612b6957612b69600080fd5b60006116448484612ac2565b60008060408385031215612b8b57612b8b600080fd5b6000612b978585612ab7565b9250506020612ba885828601612ab7565b9150509250929050565b600080600060608486031215612bca57612bca600080fd5b6000612bd68686612ab7565b9350506020612be786828701612ab7565b9250506040612bf886828701612ad8565b9150509250925092565b60008060008060808587031215612c1b57612c1b600080fd5b6000612c278787612ab7565b9450506020612c3887828801612ab7565b9350506040612c4987828801612ad8565b92505060608501356001600160401b03811115612c6857612c68600080fd5b612c7487828801612af9565b91505092959194509250565b60008060408385031215612c9657612c96600080fd5b6000612ca28585612ab7565b9250506020612ba885828601612acd565b60008060008060808587031215612ccc57612ccc600080fd5b6000612cd88787612ab7565b94505060208501356001600160401b03811115612cf757612cf7600080fd5b612c3887828801612af9565b60008060408385031215612d1957612d19600080fd5b6000612d258585612ab7565b9250506020612ba885828601612ad8565b600060208284031215612d4b57612d4b600080fd5b60006116448484612ad8565b60008060408385031215612d6d57612d6d600080fd5b6000612b978585612ad8565b600060208284031215612d8e57612d8e600080fd5b60006116448484612ae3565b600060208284031215612daf57612daf600080fd5b60006116448484612aee565b600060208284031215612dd057612dd0600080fd5b60006116448484612b1d565b600060208284031215612df157612df1600080fd5b81356001600160401b03811115612e0a57612e0a600080fd5b61164484828501612af9565b600060208284031215612e2b57612e2b600080fd5b60006116448484612b28565b60008060408385031215612e4d57612e4d600080fd5b6000612d258585612ad8565b6000610f9d8383612ee8565b612e6e81613840565b82525050565b6000612e7e825190565b80845260208401935083602082028501612e988560200190565b8060005b85811015612ecd5784840389528151612eb58582612e59565b94506020830160209a909a0199925050600101612e9c565b5091979650505050505050565b801515612e6e565b80612e6e565b6000612ef2825190565b808452602084019350612f09818560208601613873565b612f12816139bd565b9093019392505050565b6000612f26825190565b612f34818560208601613873565b9290920192915050565b60008154612f4b816138b6565b600182168015612f625760018114612f7357612fa3565b60ff19831686528186019350612fa3565b60008581526020902060005b83811015612f9b57815488820152600190910190602001612f7f565b838801955050505b50505092915050565b612e6e8161385c565b60208082527f537472696e67733a20686578206c656e67746820696e73756666696369656e74910190815260005b5060200190565b602b81526000602082017f455243373231456e756d657261626c653a206f776e657220696e646578206f7581526a74206f6620626f756e647360a81b602082015291505b5060400190565b603281526000602082017f4552433732313a207472616e7366657220746f206e6f6e20455243373231526581527131b2b4bb32b91034b6b83632b6b2b73a32b960711b6020820152915061302e565b602681526000602082017f4f776e61626c653a206e6577206f776e657220697320746865207a65726f206181526564647265737360d01b6020820152915061302e565b602581526000602082017f4552433732313a207472616e736665722066726f6d20696e636f72726563742081526437bbb732b960d91b6020820152915061302e565b601c81526000602082017b115490cdcc8c4e881d1bdad95b88185b1c9958591e481b5a5b9d195960221b81529150612fe3565b602481526000602082017f4552433732313a207472616e7366657220746f20746865207a65726f206164648152637265737360e01b6020820152915061302e565b601981526000602082017822a9219b99189d1030b8383937bb32903a379031b0b63632b960391b81529150612fe3565b602981526000602082017f4552433732313a2061646472657373207a65726f206973206e6f7420612076618152683634b21037bbb732b960b91b6020820152915061302e565b603e81526000602082017f4552433732313a20617070726f76652063616c6c6572206973206e6f7420746f81527f6b656e206f776e6572206e6f7220617070726f76656420666f7220616c6c00006020820152915061302e565b60208082527f4552433732313a206d696e7420746f20746865207a65726f206164647265737391019081526000612fe3565b60208082527f4f776e61626c653a2063616c6c6572206973206e6f7420746865206f776e657291019081526000612fe3565b6018815260006020820177115490cdcc8c4e881a5b9d985b1a59081d1bdad95b88125160421b81529150612fe3565b602181526000602082017f4552433732313a20617070726f76616c20746f2063757272656e74206f776e658152603960f91b6020820152915061302e565b602c81526000602082017f455243373231456e756d657261626c653a20676c6f62616c20696e646578206f81526b7574206f6620626f756e647360a01b6020820152915061302e565b602e81526000602082017f4552433732313a2063616c6c6572206973206e6f7420746f6b656e206f776e6581526d1c881b9bdc88185c1c1c9bdd995960921b6020820152915061302e565b601f81526000602082017f5265656e7472616e637947756172643a207265656e7472616e742063616c6c0081529150612fe3565b602f81526000602082017f416363657373436f6e74726f6c3a2063616e206f6e6c792072656e6f756e636581526e103937b632b9903337b91039b2b63360891b6020820152915061302e565b600061343e8285612f1c565b91506116448284612f3e565b6000610f9d8284612f1c565b60006134628285612f1c565b91506116448284612f1c565b600061347a8285612f1c565b91506134868284612f1c565b64173539b7b760d91b8152915060058201611644565b6000610f9d8284612f3e565b76020b1b1b2b9b9a1b7b73a3937b61d1030b1b1b7bab73a1604d1b815260170160006134d48285612f1c565b7001034b99036b4b9b9b4b733903937b6329607d1b8152915060118201613462565b602081016105bd8284612e65565b608081016135128287612e65565b61351f6020830186612e65565b61352c6040830185612ee2565b818103606083015261353e8184612ee8565b9695505050505050565b60208082528101610f9d8184612e74565b602081016105bd8284612eda565b604081016135758285612eda565b610f9d6020830184612ee2565b602081016105bd8284612ee2565b602081016105bd8284612fac565b60208082528101610f9d8184612ee8565b60c080825281016135c08189612ee8565b90506135cf6020830188612eda565b6135dc6040830187612ee2565b6135e96060830186612ee2565b6135f66080830185612ee2565b61360360a0830184612eda565b979650505050505050565b6040808252810161361f8185612ee8565b9050610f9d6020830184612ee2565b602080825281016105bd81612fb5565b602080825281016105bd81612fea565b602080825281016105bd81613035565b602080825281016105bd81613084565b602080825281016105bd816130c7565b602080825281016105bd81613109565b602080825281016105bd8161313c565b602080825281016105bd8161317d565b602080825281016105bd816131ad565b602080825281016105bd816131f3565b602080825281016105bd8161324d565b602080825281016105bd8161327f565b602080825281016105bd816132b1565b602080825281016105bd816132e0565b602080825281016105bd8161331e565b602080825281016105bd81613367565b602080825281016105bd816133b2565b602080825281016105bd816133e6565b6060810161375c8286612ee2565b6137696020830185612ee2565b6116446040830184612ee2565b600061378160405190565b905061378d82826138dd565b919050565b60006001600160401b038211156137ab576137ab6139a7565b6137b4826139bd565b60200192915050565b600082198211156137d0576137d0613939565b500190565b600060ff8216915060ff831692508260ff038211156137d0576137d0613939565b6000826138055761380561394f565b500490565b600081600019048311821515161561382457613824613939565b500290565b60008282101561383b5761383b613939565b500390565b60006001600160a01b0382166105bd565b60006105bd82613840565b60006105bd82613851565b82818337506000910152565b60005b8381101561388e578181015183820152602001613876565b838111156115425750506000910152565b6000816138ae576138ae613939565b506000190190565b6002810460018216806138ca57607f821691505b6020821081141561130c5761130c613965565b6138e6826139bd565b81018181106001600160401b0382111715613903576139036139a7565b6040525050565b600060001982141561391e5761391e613939565b5060010190565b6000826139345761393461394f565b500690565b634e487b7160e01b600052601160045260246000fd5b634e487b7160e01b600052601260045260246000fd5b634e487b7160e01b600052602260045260246000fd5b634e487b7160e01b600052603160045260246000fd5b634e487b7160e01b600052603260045260246000fd5b634e487b7160e01b600052604160045260246000fd5b601f01601f191690565b6139d081613840565b811461185657600080fd5b8015156139d0565b806139d0565b6001600160e01b031981166139d0565b6139d08161385156fe9f2df0fed2c77648de5860a4cc508cd0818c85b8b8a1ab4ceeef8d981c8956a6ddf252ad1be2c89b69c2b068fc378daa952ba7f163c4a11628f55a4df523b3efa2646970667358221220bcdec890f7906799b1ef40f88a27874f6235fdbf7a7412ee8bdc413e1d2f13bd64736f6c63430008070033",
  "devdoc": {
    "author": "Masa Finance",
    "details": "SoulName NFT, that inherits from the NFT contract, and points to a Soulbound identity token. It has an extension, and stores all the information about the identity names.",
    "kind": "dev",
    "methods": {
      "approve(address,uint256)": {
        "details": "See {IERC721-approve}."
      },
      "balanceOf(address)": {
        "details": "See {IERC721-balanceOf}."
      },
      "burn(uint256)": {
        "details": "The caller must be the owner or an approved address of the soul name.",
        "params": {
          "tokenId": "TokenId of the soul name to burn"
        }
      },
      "constructor": {
        "details": "Creates a new SoulName NFT, that points to a Soulbound identity, inheriting from the NFT contract.",
        "params": {
          "_contractURI": "URI of the smart contract metadata",
          "_extension": "Extension of the soul name",
          "_soulboundIdentity": "Address of the Soulbound identity contract",
          "admin": "Administrator of the smart contract"
        }
      },
      "exists(uint256)": {
        "details": "Returns true if the token has been minted",
        "params": {
          "tokenId": "Token to check"
        },
        "returns": {
          "_0": "True if the token exists"
        }
      },
      "getApproved(uint256)": {
        "details": "See {IERC721-getApproved}."
      },
      "getExtension()": {
        "details": "This function is used to get the extension of the soul name",
        "returns": {
          "_0": "Extension of the soul name"
        }
      },
      "getRoleAdmin(bytes32)": {
        "details": "Returns the admin role that controls `role`. See {grantRole} and {revokeRole}. To change a role's admin, use {_setRoleAdmin}."
      },
      "getSoulNames(address)": {
        "details": "This function queries all the identity names of the specified account",
        "params": {
          "owner": "Address of the owner of the identities"
        },
        "returns": {
          "sbtNames": "Array of soul names associated to the account"
        }
      },
      "getSoulNames(uint256)": {
        "details": "This function queries all the identity names of the specified identity Id",
        "params": {
          "identityId": "TokenId of the identity"
        },
        "returns": {
          "sbtNames": "Array of soul names associated to the identity Id"
        }
      },
      "getTokenData(string)": {
        "details": "This function queries the information of a soul name",
        "params": {
          "name": "Name of the soul name"
        },
        "returns": {
          "active": "`true` if the soul name is active, `false` otherwise",
          "expirationDate": "Expiration date of the soul name",
          "identityId": "Identity id of the soul name",
          "linked": "`true` if the soul name is linked, `false` otherwise",
          "sbtName": "Soul name, in upper/lower case and extension",
          "tokenId": "SoulName id of the soul name"
        }
      },
      "getTokenId(string)": {
        "details": "This function queries the token id of a soul name",
        "params": {
          "name": "Name of the soul name"
        },
        "returns": {
          "_0": "SoulName id of the soul name"
        }
      },
      "grantRole(bytes32,address)": {
        "details": "Grants `role` to `account`. If `account` had not been already granted `role`, emits a {RoleGranted} event. Requirements: - the caller must have ``role``'s admin role. May emit a {RoleGranted} event."
      },
      "hasRole(bytes32,address)": {
        "details": "Returns `true` if `account` has been granted `role`."
      },
      "isApprovedForAll(address,address)": {
        "details": "See {IERC721-isApprovedForAll}."
      },
      "isAvailable(string)": {
        "details": "This function queries if a soul name already exists and is in the available state",
        "params": {
          "name": "Name of the soul name"
        },
        "returns": {
          "available": "`true` if the soul name is available, `false` otherwise"
        }
      },
      "mint(address,string,uint256,string)": {
        "details": "The caller can mint more than one name. The soul name must be unique.",
        "params": {
          "_tokenURI": "URI of the NFT",
          "name": "Name of the new soul name",
          "to": "Address of the owner of the new soul name",
          "yearsPeriod": "Years of validity of the name"
        }
      },
      "name()": {
        "details": "See {IERC721Metadata-name}."
      },
      "owner()": {
        "details": "Returns the address of the current owner."
      },
      "ownerOf(uint256)": {
        "details": "See {IERC721-ownerOf}."
      },
      "renewYearsPeriod(uint256,uint256)": {
        "details": "The caller must be the owner or an approved address of the soul name.",
        "params": {
          "tokenId": "TokenId of the soul name",
          "yearsPeriod": "Years of validity of the name"
        }
      },
      "renounceOwnership()": {
        "details": "Leaves the contract without owner. It will not be possible to call `onlyOwner` functions anymore. Can only be called by the current owner. NOTE: Renouncing ownership will leave the contract without an owner, thereby removing any functionality that is only available to the owner."
      },
      "renounceRole(bytes32,address)": {
        "details": "Revokes `role` from the calling account. Roles are often managed via {grantRole} and {revokeRole}: this function's purpose is to provide a mechanism for accounts to lose their privileges if they are compromised (such as when a trusted device is misplaced). If the calling account had been revoked `role`, emits a {RoleRevoked} event. Requirements: - the caller must be `account`. May emit a {RoleRevoked} event."
      },
      "revokeRole(bytes32,address)": {
        "details": "Revokes `role` from `account`. If `account` had been granted `role`, emits a {RoleRevoked} event. Requirements: - the caller must have ``role``'s admin role. May emit a {RoleRevoked} event."
      },
      "safeTransferFrom(address,address,uint256)": {
        "details": "See {IERC721-safeTransferFrom}."
      },
      "safeTransferFrom(address,address,uint256,bytes)": {
        "details": "See {IERC721-safeTransferFrom}."
      },
      "setApprovalForAll(address,bool)": {
        "details": "See {IERC721-setApprovalForAll}."
      },
      "setContractURI(string)": {
        "details": "The caller must have the admin to call this function",
        "params": {
          "_contractURI": "URI of the smart contract metadata"
        }
      },
      "setExtension(string)": {
        "details": "The caller must have the admin to call this function",
        "params": {
          "_extension": "Extension of the soul name"
        }
      },
      "setSoulboundIdentity(address)": {
        "details": "The caller must have the admin to call this function",
        "params": {
          "_soulboundIdentity": "Address of the SoulboundIdentity contract"
        }
      },
      "supportsInterface(bytes4)": {
        "details": "Interface identification is specified in ERC-165.",
        "params": {
          "interfaceId": "The interface identifier, as specified in ERC-165"
        },
        "returns": {
          "_0": "`true` if the contract implements `interfaceId` and  `interfaceId` is not 0xffffffff, `false` otherwise"
        }
      },
      "symbol()": {
        "details": "See {IERC721Metadata-symbol}."
      },
      "tokenByIndex(uint256)": {
        "details": "See {IERC721Enumerable-tokenByIndex}."
      },
      "tokenOfOwnerByIndex(address,uint256)": {
        "details": "See {IERC721Enumerable-tokenOfOwnerByIndex}."
      },
      "tokenURI(string)": {
        "details": "This function returns the token URI of the soul name specified by the name",
        "params": {
          "name": "Name of the soul name"
        },
        "returns": {
          "_0": "URI of the soulname associated to a name"
        }
      },
      "tokenURI(uint256)": {
        "details": "Throws if `_tokenId` is not a valid NFT. URIs are defined in RFC  3986. The URI may point to a JSON file that conforms to the \"ERC721  Metadata JSON Schema\".",
        "params": {
          "tokenId": "NFT to get the URI of"
        },
        "returns": {
          "_0": "URI of the NFT"
        }
      },
      "totalSupply()": {
        "details": "See {IERC721Enumerable-totalSupply}."
      },
      "transferFrom(address,address,uint256)": {
        "details": "See {IERC721-transferFrom}."
      },
      "transferOwnership(address)": {
        "details": "Transfers ownership of the contract to a new account (`newOwner`). Can only be called by the current owner."
      }
    },
    "title": "SoulName NFT",
    "version": 1
  },
  "userdoc": {
    "kind": "user",
    "methods": {
      "burn(uint256)": {
        "notice": "Burn a soul name"
      },
      "constructor": {
        "notice": "Creates a new SoulName NFT"
      },
      "exists(uint256)": {
        "notice": "Returns true if the token exists"
      },
      "getExtension()": {
        "notice": "Returns the extension of the soul name"
      },
      "getSoulNames(address)": {
        "notice": "Returns all the active soul names of an account"
      },
      "getSoulNames(uint256)": {
        "notice": "Returns all the active soul names of an account"
      },
      "getTokenData(string)": {
        "notice": "Returns the information of a soul name"
      },
      "getTokenId(string)": {
        "notice": "Returns the token id of a soul name"
      },
      "isAvailable(string)": {
        "notice": "Checks if a soul name is available"
      },
      "mint(address,string,uint256,string)": {
        "notice": "Mints a new soul name"
      },
      "renewYearsPeriod(uint256,uint256)": {
        "notice": "Update the expiration date of a soul name"
      },
      "setContractURI(string)": {
        "notice": "Sets the URI of the smart contract metadata"
      },
      "setExtension(string)": {
        "notice": "Sets the extension of the soul name"
      },
      "setSoulboundIdentity(address)": {
        "notice": "Sets the SoulboundIdentity contract address linked to this soul name"
      },
      "supportsInterface(bytes4)": {
        "notice": "Query if a contract implements an interface"
      },
      "tokenURI(string)": {
        "notice": "A distinct Uniform Resource Identifier (URI) for a given asset."
      },
      "tokenURI(uint256)": {
        "notice": "A distinct Uniform Resource Identifier (URI) for a given asset."
      }
    },
    "notice": "SoulName NFT that points to a Soulbound identity token",
    "version": 1
  },
  "storageLayout": {
    "storage": [
      {
        "astId": 1074,
        "contract": "contracts/SoulName.sol:SoulName",
        "label": "_name",
        "offset": 0,
        "slot": "0",
        "type": "t_string_storage"
      },
      {
        "astId": 1076,
        "contract": "contracts/SoulName.sol:SoulName",
        "label": "_symbol",
        "offset": 0,
        "slot": "1",
        "type": "t_string_storage"
      },
      {
        "astId": 1080,
        "contract": "contracts/SoulName.sol:SoulName",
        "label": "_owners",
        "offset": 0,
        "slot": "2",
        "type": "t_mapping(t_uint256,t_address)"
      },
      {
        "astId": 1084,
        "contract": "contracts/SoulName.sol:SoulName",
        "label": "_balances",
        "offset": 0,
        "slot": "3",
        "type": "t_mapping(t_address,t_uint256)"
      },
      {
        "astId": 1088,
        "contract": "contracts/SoulName.sol:SoulName",
        "label": "_tokenApprovals",
        "offset": 0,
        "slot": "4",
        "type": "t_mapping(t_uint256,t_address)"
      },
      {
        "astId": 1094,
        "contract": "contracts/SoulName.sol:SoulName",
        "label": "_operatorApprovals",
        "offset": 0,
        "slot": "5",
        "type": "t_mapping(t_address,t_mapping(t_address,t_bool))"
      },
      {
        "astId": 2094,
        "contract": "contracts/SoulName.sol:SoulName",
        "label": "_ownedTokens",
        "offset": 0,
        "slot": "6",
        "type": "t_mapping(t_address,t_mapping(t_uint256,t_uint256))"
      },
      {
        "astId": 2098,
        "contract": "contracts/SoulName.sol:SoulName",
        "label": "_ownedTokensIndex",
        "offset": 0,
        "slot": "7",
        "type": "t_mapping(t_uint256,t_uint256)"
      },
      {
        "astId": 2101,
        "contract": "contracts/SoulName.sol:SoulName",
        "label": "_allTokens",
        "offset": 0,
        "slot": "8",
        "type": "t_array(t_uint256)dyn_storage"
      },
      {
        "astId": 2105,
        "contract": "contracts/SoulName.sol:SoulName",
        "label": "_allTokensIndex",
        "offset": 0,
        "slot": "9",
        "type": "t_mapping(t_uint256,t_uint256)"
      },
      {
        "astId": 400,
        "contract": "contracts/SoulName.sol:SoulName",
        "label": "_owner",
        "offset": 0,
        "slot": "10",
        "type": "t_address"
      },
      {
        "astId": 24,
        "contract": "contracts/SoulName.sol:SoulName",
        "label": "_roles",
        "offset": 0,
        "slot": "11",
        "type": "t_mapping(t_bytes32,t_struct(RoleData)19_storage)"
      },
      {
        "astId": 8574,
        "contract": "contracts/SoulName.sol:SoulName",
        "label": "_tokenIdCounter",
        "offset": 0,
        "slot": "12",
        "type": "t_struct(Counter)2798_storage"
      },
      {
        "astId": 8576,
        "contract": "contracts/SoulName.sol:SoulName",
        "label": "_baseTokenURI",
        "offset": 0,
        "slot": "13",
        "type": "t_string_storage"
      },
      {
        "astId": 624,
        "contract": "contracts/SoulName.sol:SoulName",
        "label": "_status",
        "offset": 0,
        "slot": "14",
        "type": "t_uint256"
      },
      {
        "astId": 5119,
        "contract": "contracts/SoulName.sol:SoulName",
        "label": "soulboundIdentity",
        "offset": 0,
        "slot": "15",
        "type": "t_contract(ISoulboundIdentity)8178"
      },
      {
        "astId": 5121,
        "contract": "contracts/SoulName.sol:SoulName",
        "label": "extension",
        "offset": 0,
        "slot": "16",
        "type": "t_string_storage"
      },
      {
        "astId": 5123,
        "contract": "contracts/SoulName.sol:SoulName",
        "label": "contractURI",
        "offset": 0,
        "slot": "17",
        "type": "t_string_storage"
      },
      {
        "astId": 5127,
        "contract": "contracts/SoulName.sol:SoulName",
        "label": "_tokenURIs",
        "offset": 0,
        "slot": "18",
        "type": "t_mapping(t_uint256,t_string_storage)"
      },
      {
        "astId": 5131,
        "contract": "contracts/SoulName.sol:SoulName",
        "label": "_URIs",
        "offset": 0,
        "slot": "19",
        "type": "t_mapping(t_string_memory_ptr,t_bool)"
      },
      {
        "astId": 5136,
        "contract": "contracts/SoulName.sol:SoulName",
        "label": "tokenData",
        "offset": 0,
        "slot": "20",
        "type": "t_mapping(t_uint256,t_struct(TokenData)5146_storage)"
      },
      {
        "astId": 5141,
        "contract": "contracts/SoulName.sol:SoulName",
        "label": "nameData",
        "offset": 0,
        "slot": "21",
        "type": "t_mapping(t_string_memory_ptr,t_struct(NameData)5151_storage)"
      }
    ],
    "types": {
      "t_address": {
        "encoding": "inplace",
        "label": "address",
        "numberOfBytes": "20"
      },
      "t_array(t_uint256)dyn_storage": {
        "base": "t_uint256",
        "encoding": "dynamic_array",
        "label": "uint256[]",
        "numberOfBytes": "32"
      },
      "t_bool": {
        "encoding": "inplace",
        "label": "bool",
        "numberOfBytes": "1"
      },
      "t_bytes32": {
        "encoding": "inplace",
        "label": "bytes32",
        "numberOfBytes": "32"
      },
      "t_contract(ISoulboundIdentity)8178": {
        "encoding": "inplace",
        "label": "contract ISoulboundIdentity",
        "numberOfBytes": "20"
      },
      "t_mapping(t_address,t_bool)": {
        "encoding": "mapping",
        "key": "t_address",
        "label": "mapping(address => bool)",
        "numberOfBytes": "32",
        "value": "t_bool"
      },
      "t_mapping(t_address,t_mapping(t_address,t_bool))": {
        "encoding": "mapping",
        "key": "t_address",
        "label": "mapping(address => mapping(address => bool))",
        "numberOfBytes": "32",
        "value": "t_mapping(t_address,t_bool)"
      },
      "t_mapping(t_address,t_mapping(t_uint256,t_uint256))": {
        "encoding": "mapping",
        "key": "t_address",
        "label": "mapping(address => mapping(uint256 => uint256))",
        "numberOfBytes": "32",
        "value": "t_mapping(t_uint256,t_uint256)"
      },
      "t_mapping(t_address,t_uint256)": {
        "encoding": "mapping",
        "key": "t_address",
        "label": "mapping(address => uint256)",
        "numberOfBytes": "32",
        "value": "t_uint256"
      },
      "t_mapping(t_bytes32,t_struct(RoleData)19_storage)": {
        "encoding": "mapping",
        "key": "t_bytes32",
        "label": "mapping(bytes32 => struct AccessControl.RoleData)",
        "numberOfBytes": "32",
        "value": "t_struct(RoleData)19_storage"
      },
      "t_mapping(t_string_memory_ptr,t_bool)": {
        "encoding": "mapping",
        "key": "t_string_memory_ptr",
        "label": "mapping(string => bool)",
        "numberOfBytes": "32",
        "value": "t_bool"
      },
      "t_mapping(t_string_memory_ptr,t_struct(NameData)5151_storage)": {
        "encoding": "mapping",
        "key": "t_string_memory_ptr",
        "label": "mapping(string => struct SoulName.NameData)",
        "numberOfBytes": "32",
        "value": "t_struct(NameData)5151_storage"
      },
      "t_mapping(t_uint256,t_address)": {
        "encoding": "mapping",
        "key": "t_uint256",
        "label": "mapping(uint256 => address)",
        "numberOfBytes": "32",
        "value": "t_address"
      },
      "t_mapping(t_uint256,t_string_storage)": {
        "encoding": "mapping",
        "key": "t_uint256",
        "label": "mapping(uint256 => string)",
        "numberOfBytes": "32",
        "value": "t_string_storage"
      },
      "t_mapping(t_uint256,t_struct(TokenData)5146_storage)": {
        "encoding": "mapping",
        "key": "t_uint256",
        "label": "mapping(uint256 => struct SoulName.TokenData)",
        "numberOfBytes": "32",
        "value": "t_struct(TokenData)5146_storage"
      },
      "t_mapping(t_uint256,t_uint256)": {
        "encoding": "mapping",
        "key": "t_uint256",
        "label": "mapping(uint256 => uint256)",
        "numberOfBytes": "32",
        "value": "t_uint256"
      },
      "t_string_memory_ptr": {
        "encoding": "bytes",
        "label": "string",
        "numberOfBytes": "32"
      },
      "t_string_storage": {
        "encoding": "bytes",
        "label": "string",
        "numberOfBytes": "32"
      },
      "t_struct(Counter)2798_storage": {
        "encoding": "inplace",
        "label": "struct Counters.Counter",
        "members": [
          {
            "astId": 2797,
            "contract": "contracts/SoulName.sol:SoulName",
            "label": "_value",
            "offset": 0,
            "slot": "0",
            "type": "t_uint256"
          }
        ],
        "numberOfBytes": "32"
      },
      "t_struct(NameData)5151_storage": {
        "encoding": "inplace",
        "label": "struct SoulName.NameData",
        "members": [
          {
            "astId": 5148,
            "contract": "contracts/SoulName.sol:SoulName",
            "label": "exists",
            "offset": 0,
            "slot": "0",
            "type": "t_bool"
          },
          {
            "astId": 5150,
            "contract": "contracts/SoulName.sol:SoulName",
            "label": "tokenId",
            "offset": 0,
            "slot": "1",
            "type": "t_uint256"
          }
        ],
        "numberOfBytes": "64"
      },
      "t_struct(RoleData)19_storage": {
        "encoding": "inplace",
        "label": "struct AccessControl.RoleData",
        "members": [
          {
            "astId": 16,
            "contract": "contracts/SoulName.sol:SoulName",
            "label": "members",
            "offset": 0,
            "slot": "0",
            "type": "t_mapping(t_address,t_bool)"
          },
          {
            "astId": 18,
            "contract": "contracts/SoulName.sol:SoulName",
            "label": "adminRole",
            "offset": 0,
            "slot": "1",
            "type": "t_bytes32"
          }
        ],
        "numberOfBytes": "64"
      },
      "t_struct(TokenData)5146_storage": {
        "encoding": "inplace",
        "label": "struct SoulName.TokenData",
        "members": [
          {
            "astId": 5143,
            "contract": "contracts/SoulName.sol:SoulName",
            "label": "name",
            "offset": 0,
            "slot": "0",
            "type": "t_string_storage"
          },
          {
            "astId": 5145,
            "contract": "contracts/SoulName.sol:SoulName",
            "label": "expirationDate",
            "offset": 0,
            "slot": "1",
            "type": "t_uint256"
          }
        ],
        "numberOfBytes": "64"
      },
      "t_uint256": {
        "encoding": "inplace",
        "label": "uint256",
        "numberOfBytes": "32"
      }
    }
  }
}