{
  "address": "0x0C4C97f0589055A5724A6d529b4463Cc66Ebc865",
  "abi": [
    {
      "inputs": [
        {
          "internalType": "address",
          "name": "owner",
          "type": "address"
        },
        {
          "internalType": "string",
          "name": "baseTokenURI",
          "type": "string"
        }
      ],
      "stateMutability": "nonpayable",
      "type": "constructor"
    },
    {
      "anonymous": false,
      "inputs": [
        {
          "indexed": true,
          "internalType": "address",
          "name": "_owner",
          "type": "address"
        },
        {
          "indexed": true,
          "internalType": "uint256",
          "name": "_tokenId",
          "type": "uint256"
        }
      ],
      "name": "Burn",
      "type": "event"
    },
    {
      "anonymous": false,
      "inputs": [
        {
          "indexed": true,
          "internalType": "address",
          "name": "_owner",
          "type": "address"
        },
        {
          "indexed": true,
          "internalType": "uint256",
          "name": "_tokenId",
          "type": "uint256"
        }
      ],
      "name": "Mint",
      "type": "event"
    },
    {
      "anonymous": false,
      "inputs": [
        {
          "indexed": true,
          "internalType": "address",
          "name": "previousOwner",
          "type": "address"
        },
        {
          "indexed": true,
          "internalType": "address",
          "name": "newOwner",
          "type": "address"
        }
      ],
      "name": "OwnershipTransferred",
      "type": "event"
    },
    {
      "anonymous": false,
      "inputs": [
        {
          "indexed": true,
          "internalType": "bytes32",
          "name": "role",
          "type": "bytes32"
        },
        {
          "indexed": true,
          "internalType": "bytes32",
          "name": "previousAdminRole",
          "type": "bytes32"
        },
        {
          "indexed": true,
          "internalType": "bytes32",
          "name": "newAdminRole",
          "type": "bytes32"
        }
      ],
      "name": "RoleAdminChanged",
      "type": "event"
    },
    {
      "anonymous": false,
      "inputs": [
        {
          "indexed": true,
          "internalType": "bytes32",
          "name": "role",
          "type": "bytes32"
        },
        {
          "indexed": true,
          "internalType": "address",
          "name": "account",
          "type": "address"
        },
        {
          "indexed": true,
          "internalType": "address",
          "name": "sender",
          "type": "address"
        }
      ],
      "name": "RoleGranted",
      "type": "event"
    },
    {
      "anonymous": false,
      "inputs": [
        {
          "indexed": true,
          "internalType": "bytes32",
          "name": "role",
          "type": "bytes32"
        },
        {
          "indexed": true,
          "internalType": "address",
          "name": "account",
          "type": "address"
        },
        {
          "indexed": true,
          "internalType": "address",
          "name": "sender",
          "type": "address"
        }
      ],
      "name": "RoleRevoked",
      "type": "event"
    },
    {
      "inputs": [],
      "name": "DEFAULT_ADMIN_ROLE",
      "outputs": [
        {
          "internalType": "bytes32",
          "name": "",
          "type": "bytes32"
        }
      ],
      "stateMutability": "view",
      "type": "function"
    },
    {
      "inputs": [],
      "name": "MINTER_ROLE",
      "outputs": [
        {
          "internalType": "bytes32",
          "name": "",
          "type": "bytes32"
        }
      ],
      "stateMutability": "view",
      "type": "function"
    },
    {
      "inputs": [
        {
          "internalType": "address",
          "name": "owner",
          "type": "address"
        }
      ],
      "name": "balanceOf",
      "outputs": [
        {
          "internalType": "uint256",
          "name": "",
          "type": "uint256"
        }
      ],
      "stateMutability": "view",
      "type": "function"
    },
    {
      "inputs": [
        {
          "internalType": "uint256",
          "name": "tokenId",
          "type": "uint256"
        }
      ],
      "name": "burn",
      "outputs": [],
      "stateMutability": "nonpayable",
      "type": "function"
    },
    {
      "inputs": [
        {
          "internalType": "bytes32",
          "name": "role",
          "type": "bytes32"
        }
      ],
      "name": "getRoleAdmin",
      "outputs": [
        {
          "internalType": "bytes32",
          "name": "",
          "type": "bytes32"
        }
      ],
      "stateMutability": "view",
      "type": "function"
    },
    {
      "inputs": [
        {
          "internalType": "bytes32",
          "name": "role",
          "type": "bytes32"
        },
        {
          "internalType": "address",
          "name": "account",
          "type": "address"
        }
      ],
      "name": "grantRole",
      "outputs": [],
      "stateMutability": "nonpayable",
      "type": "function"
    },
    {
      "inputs": [
        {
          "internalType": "bytes32",
          "name": "role",
          "type": "bytes32"
        },
        {
          "internalType": "address",
          "name": "account",
          "type": "address"
        }
      ],
      "name": "hasRole",
      "outputs": [
        {
          "internalType": "bool",
          "name": "",
          "type": "bool"
        }
      ],
      "stateMutability": "view",
      "type": "function"
    },
    {
      "inputs": [
        {
          "internalType": "address",
          "name": "to",
          "type": "address"
        }
      ],
      "name": "mint",
      "outputs": [
        {
          "internalType": "uint256",
          "name": "",
          "type": "uint256"
        }
      ],
      "stateMutability": "nonpayable",
      "type": "function"
    },
    {
      "inputs": [],
      "name": "name",
      "outputs": [
        {
          "internalType": "string",
          "name": "",
          "type": "string"
        }
      ],
      "stateMutability": "view",
      "type": "function"
    },
    {
      "inputs": [],
      "name": "owner",
      "outputs": [
        {
          "internalType": "address",
          "name": "",
          "type": "address"
        }
      ],
      "stateMutability": "view",
      "type": "function"
    },
    {
      "inputs": [
        {
          "internalType": "uint256",
          "name": "tokenId",
          "type": "uint256"
        }
      ],
      "name": "ownerOf",
      "outputs": [
        {
          "internalType": "address",
          "name": "",
          "type": "address"
        }
      ],
      "stateMutability": "view",
      "type": "function"
    },
    {
      "inputs": [],
      "name": "renounceOwnership",
      "outputs": [],
      "stateMutability": "nonpayable",
      "type": "function"
    },
    {
      "inputs": [
        {
          "internalType": "bytes32",
          "name": "role",
          "type": "bytes32"
        },
        {
          "internalType": "address",
          "name": "account",
          "type": "address"
        }
      ],
      "name": "renounceRole",
      "outputs": [],
      "stateMutability": "nonpayable",
      "type": "function"
    },
    {
      "inputs": [
        {
          "internalType": "bytes32",
          "name": "role",
          "type": "bytes32"
        },
        {
          "internalType": "address",
          "name": "account",
          "type": "address"
        }
      ],
      "name": "revokeRole",
      "outputs": [],
      "stateMutability": "nonpayable",
      "type": "function"
    },
    {
      "inputs": [
        {
          "internalType": "bytes4",
          "name": "interfaceId",
          "type": "bytes4"
        }
      ],
      "name": "supportsInterface",
      "outputs": [
        {
          "internalType": "bool",
          "name": "",
          "type": "bool"
        }
      ],
      "stateMutability": "view",
      "type": "function"
    },
    {
      "inputs": [],
      "name": "symbol",
      "outputs": [
        {
          "internalType": "string",
          "name": "",
          "type": "string"
        }
      ],
      "stateMutability": "view",
      "type": "function"
    },
    {
      "inputs": [
        {
          "internalType": "uint256",
          "name": "index",
          "type": "uint256"
        }
      ],
      "name": "tokenByIndex",
      "outputs": [
        {
          "internalType": "uint256",
          "name": "",
          "type": "uint256"
        }
      ],
      "stateMutability": "view",
      "type": "function"
    },
    {
      "inputs": [
        {
          "internalType": "address",
          "name": "owner",
          "type": "address"
        },
        {
          "internalType": "uint256",
          "name": "index",
          "type": "uint256"
        }
      ],
      "name": "tokenOfOwnerByIndex",
      "outputs": [
        {
          "internalType": "uint256",
          "name": "",
          "type": "uint256"
        }
      ],
      "stateMutability": "view",
      "type": "function"
    },
    {
      "inputs": [
        {
          "internalType": "uint256",
          "name": "tokenId",
          "type": "uint256"
        }
      ],
      "name": "tokenURI",
      "outputs": [
        {
          "internalType": "string",
          "name": "",
          "type": "string"
        }
      ],
      "stateMutability": "view",
      "type": "function"
    },
    {
      "inputs": [],
      "name": "totalSupply",
      "outputs": [
        {
          "internalType": "uint256",
          "name": "",
          "type": "uint256"
        }
      ],
      "stateMutability": "view",
      "type": "function"
    },
    {
      "inputs": [
        {
          "internalType": "address",
          "name": "newOwner",
          "type": "address"
        }
      ],
      "name": "transferOwnership",
      "outputs": [],
      "stateMutability": "nonpayable",
      "type": "function"
    }
  ],
  "transactionHash": "0x096604d957865bad11177a24e5b723b155a06c783be0e43903d000dd092a4b10",
  "args": [
    "0x3c8D9f130970358b7E8cbc1DbD0a1EbA6EBE368F",
    "https://beta.metadata.masa.finance/v1.0/credit-report/"
  ],
  "numDeployments": 4,
  "solcInputHash": "3a9c2cc826266eb70d21724d2b4a2aa8",
  "bytecode": "0x60806040523480156200001157600080fd5b5060405162001d1438038062001d148339810160408190526200003491620003e6565b604080518082018252601281527113585cd84810dc99591a5d0814995c1bdc9d60721b60208083019182528351808501909452600384526226a1a960e91b9084015281518593918591849184916200008f91600091620002ba565b508051620000a5906001906020840190620002ba565b505050620000c2620000bc6200013360201b60201c565b62000137565b620000d8846200018960201b620005e41760201c565b620000e5600085620001d3565b620001117f9f2df0fed2c77648de5860a4cc508cd0818c85b8b8a1ab4ceeef8d981c8956a685620001d3565b80516200012690600b906020840190620002ba565b505050505050506200060f565b3390565b600880546001600160a01b038381166001600160a01b0319831681179093556040519116919082907f8be0079c531659141344cd1fd0a4f28419497f9722a3daafe3b4186f6b6457e090600090a35050565b620001936200025e565b6001600160a01b038116620001c55760405162461bcd60e51b8152600401620001bc9062000445565b60405180910390fd5b620001d08162000137565b50565b620001df82826200028d565b6200025a5760008281526009602090815260408083206001600160a01b03851684529091529020805460ff19166001179055620002193390565b6001600160a01b0316816001600160a01b0316837f2f8788117e7eff1d82e926ec794901d17c78024a50270940304540a733656f0d60405160405180910390a45b5050565b6008546001600160a01b031633146200028b5760405162461bcd60e51b8152600401620001bc9062000490565b565b60008281526009602090815260408083206001600160a01b038516845290915290205460ff165b92915050565b828054620002c8906200055f565b90600052602060002090601f016020900481019282620002ec576000855562000337565b82601f106200030757805160ff191683800117855562000337565b8280016001018555821562000337579182015b82811115620003375782518255916020019190600101906200031a565b506200034592915062000349565b5090565b5b808211156200034557600081556001016200034a565b6000620003776200037184620004ea565b620004cb565b905082815260208101848484011115620003945762000394600080fd5b620003a18482856200052c565b509392505050565b8051620002b481620005f8565b600082601f830112620003cc57620003cc600080fd5b8151620003de84826020860162000360565b949350505050565b60008060408385031215620003fe57620003fe600080fd5b60006200040c8585620003a9565b92505060208301516001600160401b038111156200042d576200042d600080fd5b6200043b85828601620003b6565b9150509250929050565b60208082528101620002b481602681527f4f776e61626c653a206e6577206f776e657220697320746865207a65726f206160208201526564647265737360d01b604082015260600190565b60208082528181019081527f4f776e61626c653a2063616c6c6572206973206e6f7420746865206f776e6572604083015260608201620002b4565b6000620004d760405190565b9050620004e5828262000590565b919050565b60006001600160401b03821115620005065762000506620005d8565b6200051182620005ee565b60200192915050565b60006001600160a01b038216620002b4565b60005b83811015620005495781810151838201526020016200052f565b8381111562000559576000848401525b50505050565b6002810460018216806200057457607f821691505b602082108114156200058a576200058a620005c2565b50919050565b6200059b82620005ee565b81018181106001600160401b0382111715620005bb57620005bb620005d8565b6040525050565b634e487b7160e01b600052602260045260246000fd5b634e487b7160e01b600052604160045260246000fd5b601f01601f191690565b62000603816200051a565b8114620001d057600080fd5b6116f5806200061f6000396000f3fe608060405234801561001057600080fd5b50600436106101075760003560e01c806301ffc9a71461010c57806306fdde031461013557806318160ddd1461014a578063248a9ca31461015b5780632f2ff15d1461016e5780632f745c591461018357806336568abe1461019657806342966c68146101a95780634f6ccce7146101bc5780636352211e146101cf5780636a627842146101ef57806370a0823114610202578063715018a6146102155780638da5cb5b1461021d57806391d148541461022557806395d89b4114610238578063a217fddf14610240578063c87b56dd14610248578063d53913931461025b578063d547741f14610270578063f2fde38b14610283575b600080fd5b61011f61011a366004611059565b610296565b60405161012c9190611404565b60405180910390f35b61013d6102a7565b60405161012c9190611420565b6006545b60405161012c9190611412565b61014e610169366004611005565b610339565b61018161017c366004611026565b61034e565b005b61014e610191366004610fc8565b61036f565b6101816101a4366004611026565b6103ca565b6101816101b7366004611005565b610400565b61014e6101ca366004611005565b610432565b6101e26101dd366004611005565b610480565b60405161012c91906113f6565b61014e6101fd366004610fa7565b6104b5565b61014e610210366004610fa7565b6104c0565b610181610504565b6101e2610518565b61011f610233366004611026565b610527565b61013d610552565b61014e600081565b61013d610256366004611005565b610561565b61014e6000805160206116a083398151915281565b61018161027e366004611026565b6105c8565b610181610291366004610fa7565b6105e4565b60006102a18261061b565b92915050565b6060600080546102b69061159b565b80601f01602080910402602001604051908101604052809291908181526020018280546102e29061159b565b801561032f5780601f106103045761010080835404028352916020019161032f565b820191906000526020600020905b81548152906001019060200180831161031257829003601f168201915b5050505050905090565b60009081526009602052604090206001015490565b61035782610339565b61036081610640565b61036a838361064a565b505050565b600061037a836104c0565b82106103a15760405162461bcd60e51b815260040161039890611461565b60405180910390fd5b506001600160a01b03919091166000908152600460209081526040808320938352929052205490565b6001600160a01b03811633146103f25760405162461bcd60e51b8152600401610398906114d1565b6103fc82826106d0565b5050565b61040a3382610737565b6104265760405162461bcd60e51b815260040161039890611481565b61042f8161075a565b50565b600061043d60065490565b821061045b5760405162461bcd60e51b8152600401610398906114c1565b6006828154811061046e5761046e611649565b90600052602060002001549050919050565b6000818152600260205260408120546001600160a01b0316806102a15760405162461bcd60e51b8152600401610398906114b1565b60006102a1826107f4565b60006001600160a01b0382166104e85760405162461bcd60e51b815260040161039890611471565b506001600160a01b031660009081526003602052604090205490565b61050c61083c565b610516600061086b565b565b6008546001600160a01b031690565b60009182526009602090815260408084206001600160a01b0393909316845291905290205460ff1690565b6060600180546102b69061159b565b606061056c826108bd565b60006105766108e2565b9050600081511161059657604051806020016040528060008152506105c1565b806105a0846108f1565b6040516020016105b1929190611376565b6040516020818303038152906040525b9392505050565b6105d182610339565b6105da81610640565b61036a83836106d0565b6105ec61083c565b6001600160a01b0381166106125760405162461bcd60e51b815260040161039890611451565b61042f8161086b565b60006001600160e01b03198216637965db0b60e01b14806102a157506102a1826109f6565b61042f8133610a1b565b6106548282610527565b6103fc5760008281526009602090815260408083206001600160a01b03851684529091529020805460ff1916600117905561068c3390565b6001600160a01b0316816001600160a01b0316837f2f8788117e7eff1d82e926ec794901d17c78024a50270940304540a733656f0d60405160405180910390a45050565b6106da8282610527565b156103fc5760008281526009602090815260408083206001600160a01b0385168085529252808320805460ff1916905551339285917ff6391f5c32d9c69d2a47ea670b442974b53935d1edc7fd64eb21e047a839171b9190a45050565b60008061074383610480565b6001600160a01b0385811691161491505092915050565b600061076582610480565b905061077381600084610a7f565b6001600160a01b038116600090815260036020526040812080546001929061079c90849061152c565b909155505060008281526002602052604080822080546001600160a01b03191690555183916001600160a01b038416917fcc16f5dbb4873280815c1ee09dbd06736cffcc184412cf7a71a0fdb75d397ca59190a35050565b60006000805160206116a083398151915261080e81610640565b6000610819600a5490565b9050610829600a80546001019055565b6108338482610a8a565b91505b50919050565b33610845610518565b6001600160a01b0316146105165760405162461bcd60e51b815260040161039890611491565b600880546001600160a01b038381166001600160a01b0319831681179093556040519116919082907f8be0079c531659141344cd1fd0a4f28419497f9722a3daafe3b4186f6b6457e090600090a35050565b6108c681610b66565b61042f5760405162461bcd60e51b8152600401610398906114b1565b6060600b80546102b69061159b565b6060816109155750506040805180820190915260018152600360fc1b602082015290565b8160005b811561093f5780610929816115c2565b91506109389050600a836114f9565b9150610919565b6000816001600160401b038111156109595761095961165f565b6040519080825280601f01601f191660200182016040528015610983576020820181803683370190505b5090505b84156109ee5761099860018361152c565b91506109a5600a866115dd565b6109b09060306114e1565b60f81b8183815181106109c5576109c5611649565b60200101906001600160f81b031916908160001a9053506109e7600a866114f9565b9450610987565b949350505050565b60006001600160e01b0319821663780e9d6360e01b14806102a157506102a182610b83565b610a258282610527565b6103fc57610a3d816001600160a01b03166014610bd3565b610a48836020610bd3565b604051602001610a599291906113a4565b60408051601f198184030181529082905262461bcd60e51b825261039891600401611420565b61036a838383610d3e565b6001600160a01b038216610ab05760405162461bcd60e51b815260040161039890611441565b610ab981610b66565b15610ad65760405162461bcd60e51b8152600401610398906114a1565b610ae260008383610a7f565b6001600160a01b0382166000908152600360205260408120805460019290610b0b9084906114e1565b909155505060008181526002602052604080822080546001600160a01b0319166001600160a01b038616908117909155905183927f0f6798a560793a54c3bcfe86a93cde1e73087d944c0ea20544137d412139688591a35050565b6000908152600260205260409020546001600160a01b0316151590565b60006001600160e01b031982166313f2a32f60e01b1480610bb457506001600160e01b03198216635b5e139f60e01b145b806102a157506301ffc9a760e01b6001600160e01b03198316146102a1565b60606000610be283600261150d565b610bed9060026114e1565b6001600160401b03811115610c0457610c0461165f565b6040519080825280601f01601f191660200182016040528015610c2e576020820181803683370190505b509050600360fc1b81600081518110610c4957610c49611649565b60200101906001600160f81b031916908160001a905350600f60fb1b81600181518110610c7857610c78611649565b60200101906001600160f81b031916908160001a9053506000610c9c84600261150d565b610ca79060016114e1565b90505b6001811115610d1f576f181899199a1a9b1b9c1cb0b131b232b360811b85600f1660108110610cdb57610cdb611649565b1a60f81b828281518110610cf157610cf1611649565b60200101906001600160f81b031916908160001a90535060049490941c93610d1881611584565b9050610caa565b5083156105c15760405162461bcd60e51b815260040161039890611431565b6001600160a01b038316610d9957610d9481600680546000838152600760205260408120829055600182018355919091527ff652222313e28459528d920b65115c16c04f3efc82aaedc97be59f3f377c0d3f0155565b610dbc565b816001600160a01b0316836001600160a01b031614610dbc57610dbc8382610df6565b6001600160a01b038216610dd35761036a81610e93565b826001600160a01b0316826001600160a01b03161461036a5761036a8282610f42565b60006001610e03846104c0565b610e0d919061152c565b600083815260056020526040902054909150808214610e60576001600160a01b03841660009081526004602090815260408083208584528252808320548484528184208190558352600590915290208190555b5060009182526005602090815260408084208490556001600160a01b039094168352600481528383209183525290812055565b600654600090610ea59060019061152c565b60008381526007602052604081205460068054939450909284908110610ecd57610ecd611649565b906000526020600020015490508060068381548110610eee57610eee611649565b6000918252602080832090910192909255828152600790915260408082208490558582528120556006805480610f2657610f26611633565b6001900381819060005260206000200160009055905550505050565b6000610f4d836104c0565b6001600160a01b039093166000908152600460209081526040808320868452825280832085905593825260059052919091209190915550565b80356102a181611675565b80356102a181611689565b80356102a18161168f565b600060208284031215610fbc57610fbc600080fd5b60006109ee8484610f86565b60008060408385031215610fde57610fde600080fd5b6000610fea8585610f86565b9250506020610ffb85828601610f91565b9150509250929050565b60006020828403121561101a5761101a600080fd5b60006109ee8484610f91565b6000806040838503121561103c5761103c600080fd5b60006110488585610f91565b9250506020610ffb85828601610f86565b60006020828403121561106e5761106e600080fd5b60006109ee8484610f9c565b61108381611543565b82525050565b801515611083565b80611083565b60006110a1825190565b8084526020840193506110b8818560208601611554565b601f01601f19169290920192915050565b60006110d3825190565b6110e1818560208601611554565b9290920192915050565b60208082527f537472696e67733a20686578206c656e67746820696e73756666696369656e74910190815260005b5060200190565b601d81526000602082017f5342543a206d696e7420746f20746865207a65726f206164647265737300000081529150611119565b602681526000602082017f4f776e61626c653a206e6577206f776e657220697320746865207a65726f206181526564647265737360d01b602082015291505b5060400190565b602881526000602082017f534254456e756d657261626c653a206f776e657220696e646578206f7574206f8152676620626f756e647360c01b60208201529150611193565b602681526000602082017f5342543a2061646472657373207a65726f206973206e6f7420612076616c69648152651037bbb732b960d11b60208201529150611193565b601e81526000602082017f5342543a2063616c6c6572206973206e6f7420746f6b656e206f776e6572000081529150611119565b60208082527f4f776e61626c653a2063616c6c6572206973206e6f7420746865206f776e657291019081526000611119565b601981526000602082017814d0950e881d1bdad95b88185b1c9958591e481b5a5b9d1959603a1b81529150611119565b601581526000602082017414d0950e881a5b9d985b1a59081d1bdad95b881251605a1b81529150611119565b602981526000602082017f534254456e756d657261626c653a20676c6f62616c20696e646578206f7574208152686f6620626f756e647360b81b60208201529150611193565b602f81526000602082017f416363657373436f6e74726f6c3a2063616e206f6e6c792072656e6f756e636581526e103937b632b9903337b91039b2b63360891b60208201529150611193565b600061138282856110c9565b915061138e82846110c9565b64173539b7b760d91b81529150600582016109ee565b76020b1b1b2b9b9a1b7b73a3937b61d1030b1b1b7bab73a1604d1b815260170160006113d082856110c9565b7001034b99036b4b9b9b4b733903937b6329607d1b815260110191506109ee82846110c9565b602081016102a1828461107a565b602081016102a18284611089565b602081016102a18284611091565b602080825281016105c18184611097565b602080825281016102a1816110eb565b602080825281016102a181611120565b602080825281016102a181611154565b602080825281016102a18161119a565b602080825281016102a1816111df565b602080825281016102a181611222565b602080825281016102a181611256565b602080825281016102a181611288565b602080825281016102a1816112b8565b602080825281016102a1816112e4565b602080825281016102a18161132a565b600082198211156114f4576114f46115f1565b500190565b60008261150857611508611607565b500490565b6000816000190483118215151615611527576115276115f1565b500290565b60008282101561153e5761153e6115f1565b500390565b60006001600160a01b0382166102a1565b60005b8381101561156f578181015183820152602001611557565b8381111561157e576000848401525b50505050565b600081611593576115936115f1565b506000190190565b6002810460018216806115af57607f821691505b602082108114156108365761083661161d565b60006000198214156115d6576115d66115f1565b5060010190565b6000826115ec576115ec611607565b500690565b634e487b7160e01b600052601160045260246000fd5b634e487b7160e01b600052601260045260246000fd5b634e487b7160e01b600052602260045260246000fd5b634e487b7160e01b600052603160045260246000fd5b634e487b7160e01b600052603260045260246000fd5b634e487b7160e01b600052604160045260246000fd5b61167e81611543565b811461042f57600080fd5b8061167e565b6001600160e01b0319811661167e56fe9f2df0fed2c77648de5860a4cc508cd0818c85b8b8a1ab4ceeef8d981c8956a6a2646970667358221220a43e81c291071a3eaf3fe07e566d886e4d3195a7a4fb0780b21e805f8a0b7db964736f6c63430008070033",
  "devdoc": {
    "author": "Masa Finance",
    "details": "Soulbound credit report, that inherits from the SBT contract.",
    "kind": "dev",
    "methods": {
      "balanceOf(address)": {
        "details": "See {ISBT-balanceOf}."
      },
      "burn(uint256)": {
        "details": "Burns `tokenId`. See {SBT-_burn}. Requirements: - The caller must own `tokenId` or be an approved operator."
      },
      "constructor": {
        "details": "Creates a new soulbound credit report, inheriting from the SBT contract.",
        "params": {
          "baseTokenURI": "Base URI of the token",
          "owner": "Owner of the smart contract"
        }
      },
      "getRoleAdmin(bytes32)": {
        "details": "Returns the admin role that controls `role`. See {grantRole} and {revokeRole}. To change a role's admin, use {_setRoleAdmin}."
      },
      "grantRole(bytes32,address)": {
        "details": "Grants `role` to `account`. If `account` had not been already granted `role`, emits a {RoleGranted} event. Requirements: - the caller must have ``role``'s admin role. May emit a {RoleGranted} event."
      },
      "hasRole(bytes32,address)": {
        "details": "Returns `true` if `account` has been granted `role`."
      },
      "mint(address)": {
        "details": "The caller must have the MINTER role",
        "params": {
          "to": "The address to mint the NFT to"
        },
        "returns": {
          "_0": "The NFT ID of the newly minted NFT"
        }
      },
      "name()": {
        "details": "See {ISBTMetadata-name}."
      },
      "owner()": {
        "details": "Returns the address of the current owner."
      },
      "ownerOf(uint256)": {
        "details": "See {ISBT-ownerOf}."
      },
      "renounceOwnership()": {
        "details": "Leaves the contract without owner. It will not be possible to call `onlyOwner` functions anymore. Can only be called by the current owner. NOTE: Renouncing ownership will leave the contract without an owner, thereby removing any functionality that is only available to the owner."
      },
      "renounceRole(bytes32,address)": {
        "details": "Revokes `role` from the calling account. Roles are often managed via {grantRole} and {revokeRole}: this function's purpose is to provide a mechanism for accounts to lose their privileges if they are compromised (such as when a trusted device is misplaced). If the calling account had been revoked `role`, emits a {RoleRevoked} event. Requirements: - the caller must be `account`. May emit a {RoleRevoked} event."
      },
      "revokeRole(bytes32,address)": {
        "details": "Revokes `role` from `account`. If `account` had been granted `role`, emits a {RoleRevoked} event. Requirements: - the caller must have ``role``'s admin role. May emit a {RoleRevoked} event."
      },
      "supportsInterface(bytes4)": {
        "details": "Interface identification is specified in ERC-165.",
        "params": {
          "interfaceId": "The interface identifier, as specified in ERC-165"
        },
        "returns": {
          "_0": "`true` if the contract implements `interfaceId` and  `interfaceId` is not 0xffffffff, `false` otherwise"
        }
      },
      "symbol()": {
        "details": "See {ISBTMetadata-symbol}."
      },
      "tokenByIndex(uint256)": {
        "details": "See {ISBTEnumerable-tokenByIndex}."
      },
      "tokenOfOwnerByIndex(address,uint256)": {
        "details": "See {ISBTEnumerable-tokenOfOwnerByIndex}."
      },
      "tokenURI(uint256)": {
        "details": "Throws if `_tokenId` is not a valid NFT. URIs are defined in RFC  3986. The URI may point to a JSON file that conforms to the \"ERC721  Metadata JSON Schema\".",
        "params": {
          "tokenId": "NFT to get the URI of"
        },
        "returns": {
          "_0": "URI of the NFT"
        }
      },
      "totalSupply()": {
        "details": "See {ISBTEnumerable-totalSupply}."
      },
      "transferOwnership(address)": {
        "details": "Transfers ownership of the contract to a new account (`newOwner`). Can only be called by the current owner."
      }
    },
    "title": "Soulbound Credit Report",
    "version": 1
  },
  "userdoc": {
    "kind": "user",
    "methods": {
      "constructor": {
        "notice": "Creates a new soulbound credit report"
      },
      "mint(address)": {
        "notice": "Mints a new SBT"
      },
      "supportsInterface(bytes4)": {
        "notice": "Query if a contract implements an interface"
      },
      "tokenURI(uint256)": {
        "notice": "A distinct Uniform Resource Identifier (URI) for a given asset."
      }
    },
    "notice": "Soulbound token that represents a credit report.",
    "version": 1
  },
  "storageLayout": {
    "storage": [
      {
        "astId": 8187,
        "contract": "contracts/SoulboundCreditReport.sol:SoulboundCreditReport",
        "label": "_name",
        "offset": 0,
        "slot": "0",
        "type": "t_string_storage"
      },
      {
        "astId": 8189,
        "contract": "contracts/SoulboundCreditReport.sol:SoulboundCreditReport",
        "label": "_symbol",
        "offset": 0,
        "slot": "1",
        "type": "t_string_storage"
      },
      {
        "astId": 8193,
        "contract": "contracts/SoulboundCreditReport.sol:SoulboundCreditReport",
        "label": "_owners",
        "offset": 0,
        "slot": "2",
        "type": "t_mapping(t_uint256,t_address)"
      },
      {
        "astId": 8197,
        "contract": "contracts/SoulboundCreditReport.sol:SoulboundCreditReport",
        "label": "_balances",
        "offset": 0,
        "slot": "3",
        "type": "t_mapping(t_address,t_uint256)"
      },
      {
        "astId": 8656,
        "contract": "contracts/SoulboundCreditReport.sol:SoulboundCreditReport",
        "label": "_ownedTokens",
        "offset": 0,
        "slot": "4",
        "type": "t_mapping(t_address,t_mapping(t_uint256,t_uint256))"
      },
      {
        "astId": 8660,
        "contract": "contracts/SoulboundCreditReport.sol:SoulboundCreditReport",
        "label": "_ownedTokensIndex",
        "offset": 0,
        "slot": "5",
        "type": "t_mapping(t_uint256,t_uint256)"
      },
      {
        "astId": 8663,
        "contract": "contracts/SoulboundCreditReport.sol:SoulboundCreditReport",
        "label": "_allTokens",
        "offset": 0,
        "slot": "6",
        "type": "t_array(t_uint256)dyn_storage"
      },
      {
        "astId": 8667,
        "contract": "contracts/SoulboundCreditReport.sol:SoulboundCreditReport",
        "label": "_allTokensIndex",
        "offset": 0,
        "slot": "7",
        "type": "t_mapping(t_uint256,t_uint256)"
      },
      {
        "astId": 400,
        "contract": "contracts/SoulboundCreditReport.sol:SoulboundCreditReport",
        "label": "_owner",
        "offset": 0,
        "slot": "8",
        "type": "t_address"
      },
      {
        "astId": 24,
        "contract": "contracts/SoulboundCreditReport.sol:SoulboundCreditReport",
        "label": "_roles",
        "offset": 0,
        "slot": "9",
        "type": "t_mapping(t_bytes32,t_struct(RoleData)19_storage)"
      },
      {
        "astId": 7960,
        "contract": "contracts/SoulboundCreditReport.sol:SoulboundCreditReport",
        "label": "_tokenIdCounter",
        "offset": 0,
        "slot": "10",
        "type": "t_struct(Counter)3261_storage"
      },
      {
        "astId": 7962,
        "contract": "contracts/SoulboundCreditReport.sol:SoulboundCreditReport",
        "label": "_baseTokenURI",
        "offset": 0,
        "slot": "11",
        "type": "t_string_storage"
      }
    ],
    "types": {
      "t_address": {
        "encoding": "inplace",
        "label": "address",
        "numberOfBytes": "20"
      },
      "t_array(t_uint256)dyn_storage": {
        "base": "t_uint256",
        "encoding": "dynamic_array",
        "label": "uint256[]",
        "numberOfBytes": "32"
      },
      "t_bool": {
        "encoding": "inplace",
        "label": "bool",
        "numberOfBytes": "1"
      },
      "t_bytes32": {
        "encoding": "inplace",
        "label": "bytes32",
        "numberOfBytes": "32"
      },
      "t_mapping(t_address,t_bool)": {
        "encoding": "mapping",
        "key": "t_address",
        "label": "mapping(address => bool)",
        "numberOfBytes": "32",
        "value": "t_bool"
      },
      "t_mapping(t_address,t_mapping(t_uint256,t_uint256))": {
        "encoding": "mapping",
        "key": "t_address",
        "label": "mapping(address => mapping(uint256 => uint256))",
        "numberOfBytes": "32",
        "value": "t_mapping(t_uint256,t_uint256)"
      },
      "t_mapping(t_address,t_uint256)": {
        "encoding": "mapping",
        "key": "t_address",
        "label": "mapping(address => uint256)",
        "numberOfBytes": "32",
        "value": "t_uint256"
      },
      "t_mapping(t_bytes32,t_struct(RoleData)19_storage)": {
        "encoding": "mapping",
        "key": "t_bytes32",
        "label": "mapping(bytes32 => struct AccessControl.RoleData)",
        "numberOfBytes": "32",
        "value": "t_struct(RoleData)19_storage"
      },
      "t_mapping(t_uint256,t_address)": {
        "encoding": "mapping",
        "key": "t_uint256",
        "label": "mapping(uint256 => address)",
        "numberOfBytes": "32",
        "value": "t_address"
      },
      "t_mapping(t_uint256,t_uint256)": {
        "encoding": "mapping",
        "key": "t_uint256",
        "label": "mapping(uint256 => uint256)",
        "numberOfBytes": "32",
        "value": "t_uint256"
      },
      "t_string_storage": {
        "encoding": "bytes",
        "label": "string",
        "numberOfBytes": "32"
      },
      "t_struct(Counter)3261_storage": {
        "encoding": "inplace",
        "label": "struct Counters.Counter",
        "members": [
          {
            "astId": 3260,
            "contract": "contracts/SoulboundCreditReport.sol:SoulboundCreditReport",
            "label": "_value",
            "offset": 0,
            "slot": "0",
            "type": "t_uint256"
          }
        ],
        "numberOfBytes": "32"
      },
      "t_struct(RoleData)19_storage": {
        "encoding": "inplace",
        "label": "struct AccessControl.RoleData",
        "members": [
          {
            "astId": 16,
            "contract": "contracts/SoulboundCreditReport.sol:SoulboundCreditReport",
            "label": "members",
            "offset": 0,
            "slot": "0",
            "type": "t_mapping(t_address,t_bool)"
          },
          {
            "astId": 18,
            "contract": "contracts/SoulboundCreditReport.sol:SoulboundCreditReport",
            "label": "adminRole",
            "offset": 0,
            "slot": "1",
            "type": "t_bytes32"
          }
        ],
        "numberOfBytes": "64"
      },
      "t_uint256": {
        "encoding": "inplace",
        "label": "uint256",
        "numberOfBytes": "32"
      }
    }
  }
}