{
  "address": "0x6Bd631DbaAe9d8A2D6AC11D948f6A44013D57938",
  "abi": [
    {
      "inputs": [
        {
          "internalType": "address",
          "name": "admin",
          "type": "address"
        },
        {
          "internalType": "contract ISoulboundIdentity",
          "name": "_soulBoundIdentity",
          "type": "address"
        },
        {
          "internalType": "uint256",
          "name": "_nameRegistrationPricePerYear",
          "type": "uint256"
        },
        {
          "internalType": "address",
          "name": "_utilityToken",
          "type": "address"
        },
        {
          "internalType": "address",
          "name": "_stableCoin",
          "type": "address"
        },
        {
          "internalType": "address",
          "name": "_wrappedNativeToken",
          "type": "address"
        },
        {
          "internalType": "address",
          "name": "_swapRouter",
          "type": "address"
        },
        {
          "internalType": "address",
          "name": "_reserveWallet",
          "type": "address"
        }
      ],
      "stateMutability": "nonpayable",
      "type": "constructor"
    },
    {
      "anonymous": false,
      "inputs": [
        {
          "indexed": false,
          "internalType": "address",
          "name": "account",
          "type": "address"
        }
      ],
      "name": "Paused",
      "type": "event"
    },
    {
      "anonymous": false,
      "inputs": [
        {
          "indexed": true,
          "internalType": "bytes32",
          "name": "role",
          "type": "bytes32"
        },
        {
          "indexed": true,
          "internalType": "bytes32",
          "name": "previousAdminRole",
          "type": "bytes32"
        },
        {
          "indexed": true,
          "internalType": "bytes32",
          "name": "newAdminRole",
          "type": "bytes32"
        }
      ],
      "name": "RoleAdminChanged",
      "type": "event"
    },
    {
      "anonymous": false,
      "inputs": [
        {
          "indexed": true,
          "internalType": "bytes32",
          "name": "role",
          "type": "bytes32"
        },
        {
          "indexed": true,
          "internalType": "address",
          "name": "account",
          "type": "address"
        },
        {
          "indexed": true,
          "internalType": "address",
          "name": "sender",
          "type": "address"
        }
      ],
      "name": "RoleGranted",
      "type": "event"
    },
    {
      "anonymous": false,
      "inputs": [
        {
          "indexed": true,
          "internalType": "bytes32",
          "name": "role",
          "type": "bytes32"
        },
        {
          "indexed": true,
          "internalType": "address",
          "name": "account",
          "type": "address"
        },
        {
          "indexed": true,
          "internalType": "address",
          "name": "sender",
          "type": "address"
        }
      ],
      "name": "RoleRevoked",
      "type": "event"
    },
    {
      "anonymous": false,
      "inputs": [
        {
          "indexed": true,
          "internalType": "address",
          "name": "account",
          "type": "address"
        },
        {
          "indexed": false,
          "internalType": "uint256",
          "name": "tokenId",
          "type": "uint256"
        },
        {
          "indexed": true,
          "internalType": "string",
          "name": "name",
          "type": "string"
        },
        {
          "indexed": false,
          "internalType": "uint256",
          "name": "yearsPeriod",
          "type": "uint256"
        }
      ],
      "name": "SoulNamePurchased",
      "type": "event"
    },
    {
      "anonymous": false,
      "inputs": [
        {
          "indexed": true,
          "internalType": "address",
          "name": "account",
          "type": "address"
        },
        {
          "indexed": false,
          "internalType": "uint256",
          "name": "tokenId",
          "type": "uint256"
        },
        {
          "indexed": true,
          "internalType": "string",
          "name": "name",
          "type": "string"
        },
        {
          "indexed": false,
          "internalType": "uint256",
          "name": "yearsPeriod",
          "type": "uint256"
        }
      ],
      "name": "SoulboundIdentityAndNamePurchased",
      "type": "event"
    },
    {
      "anonymous": false,
      "inputs": [
        {
          "indexed": true,
          "internalType": "address",
          "name": "account",
          "type": "address"
        },
        {
          "indexed": false,
          "internalType": "uint256",
          "name": "tokenId",
          "type": "uint256"
        }
      ],
      "name": "SoulboundIdentityPurchased",
      "type": "event"
    },
    {
      "anonymous": false,
      "inputs": [
        {
          "indexed": false,
          "internalType": "address",
          "name": "account",
          "type": "address"
        }
      ],
      "name": "Unpaused",
      "type": "event"
    },
    {
      "inputs": [],
      "name": "DEFAULT_ADMIN_ROLE",
      "outputs": [
        {
          "internalType": "bytes32",
          "name": "",
          "type": "bytes32"
        }
      ],
      "stateMutability": "view",
      "type": "function"
    },
    {
      "inputs": [],
      "name": "PAUSER_ROLE",
      "outputs": [
        {
          "internalType": "bytes32",
          "name": "",
          "type": "bytes32"
        }
      ],
      "stateMutability": "view",
      "type": "function"
    },
    {
      "inputs": [
        {
          "internalType": "uint256",
          "name": "mintingPrice",
          "type": "uint256"
        }
      ],
      "name": "_getSwapAmounts",
      "outputs": [
        {
          "internalType": "uint256",
          "name": "priceInStableCoin",
          "type": "uint256"
        },
        {
          "internalType": "uint256",
          "name": "priceInETH",
          "type": "uint256"
        },
        {
          "internalType": "uint256",
          "name": "priceInUtilityToken",
          "type": "uint256"
        }
      ],
      "stateMutability": "view",
      "type": "function"
    },
    {
      "inputs": [
        {
          "internalType": "address",
          "name": "_fromToken",
          "type": "address"
        },
        {
          "internalType": "address",
          "name": "_toToken",
          "type": "address"
        },
        {
          "internalType": "uint256",
          "name": "_amountOut",
          "type": "uint256"
        }
      ],
      "name": "estimateSwapAmount",
      "outputs": [
        {
          "internalType": "uint256",
          "name": "",
          "type": "uint256"
        }
      ],
      "stateMutability": "view",
      "type": "function"
    },
    {
      "inputs": [
        {
          "internalType": "string",
          "name": "nameLength",
          "type": "string"
        }
      ],
      "name": "getNameRegistrationPricePerYear",
      "outputs": [
        {
          "internalType": "uint256",
          "name": "",
          "type": "uint256"
        }
      ],
      "stateMutability": "view",
      "type": "function"
    },
    {
      "inputs": [
        {
          "internalType": "bytes32",
          "name": "role",
          "type": "bytes32"
        }
      ],
      "name": "getRoleAdmin",
      "outputs": [
        {
          "internalType": "bytes32",
          "name": "",
          "type": "bytes32"
        }
      ],
      "stateMutability": "view",
      "type": "function"
    },
    {
      "inputs": [
        {
          "internalType": "bytes32",
          "name": "role",
          "type": "bytes32"
        },
        {
          "internalType": "address",
          "name": "account",
          "type": "address"
        }
      ],
      "name": "grantRole",
      "outputs": [],
      "stateMutability": "nonpayable",
      "type": "function"
    },
    {
      "inputs": [
        {
          "internalType": "bytes32",
          "name": "role",
          "type": "bytes32"
        },
        {
          "internalType": "address",
          "name": "account",
          "type": "address"
        }
      ],
      "name": "hasRole",
      "outputs": [
        {
          "internalType": "bool",
          "name": "",
          "type": "bool"
        }
      ],
      "stateMutability": "view",
      "type": "function"
    },
    {
      "inputs": [
        {
          "internalType": "uint256",
          "name": "",
          "type": "uint256"
        }
      ],
      "name": "nameRegistrationPricePerYear",
      "outputs": [
        {
          "internalType": "uint256",
          "name": "",
          "type": "uint256"
        }
      ],
      "stateMutability": "view",
      "type": "function"
    },
    {
      "inputs": [],
      "name": "pause",
      "outputs": [],
      "stateMutability": "nonpayable",
      "type": "function"
    },
    {
      "inputs": [],
      "name": "paused",
      "outputs": [
        {
          "internalType": "bool",
          "name": "",
          "type": "bool"
        }
      ],
      "stateMutability": "view",
      "type": "function"
    },
    {
      "inputs": [],
      "name": "purchaseIdentity",
      "outputs": [
        {
          "internalType": "uint256",
          "name": "",
          "type": "uint256"
        }
      ],
      "stateMutability": "payable",
      "type": "function"
    },
    {
      "inputs": [
        {
          "internalType": "address",
          "name": "paymentMethod",
          "type": "address"
        },
        {
          "internalType": "string",
          "name": "name",
          "type": "string"
        },
        {
          "internalType": "uint256",
          "name": "yearsPeriod",
          "type": "uint256"
        },
        {
          "internalType": "string",
          "name": "_tokenURI",
          "type": "string"
        }
      ],
      "name": "purchaseIdentityAndName",
      "outputs": [
        {
          "internalType": "uint256",
          "name": "",
          "type": "uint256"
        }
      ],
      "stateMutability": "payable",
      "type": "function"
    },
    {
      "inputs": [
        {
          "internalType": "address",
          "name": "paymentMethod",
          "type": "address"
        },
        {
          "internalType": "string",
          "name": "name",
          "type": "string"
        },
        {
          "internalType": "uint256",
          "name": "yearsPeriod",
          "type": "uint256"
        },
        {
          "internalType": "string",
          "name": "_tokenURI",
          "type": "string"
        }
      ],
      "name": "purchaseName",
      "outputs": [
        {
          "internalType": "uint256",
          "name": "",
          "type": "uint256"
        }
      ],
      "stateMutability": "payable",
      "type": "function"
    },
    {
      "inputs": [
        {
          "internalType": "string",
          "name": "name",
          "type": "string"
        },
        {
          "internalType": "uint256",
          "name": "yearsPeriod",
          "type": "uint256"
        }
      ],
      "name": "purchaseNameInfo",
      "outputs": [
        {
          "internalType": "uint256",
          "name": "priceInStableCoin",
          "type": "uint256"
        },
        {
          "internalType": "uint256",
          "name": "priceInETH",
          "type": "uint256"
        },
        {
          "internalType": "uint256",
          "name": "priceInUtilityToken",
          "type": "uint256"
        }
      ],
      "stateMutability": "view",
      "type": "function"
    },
    {
      "inputs": [
        {
          "internalType": "bytes32",
          "name": "role",
          "type": "bytes32"
        },
        {
          "internalType": "address",
          "name": "account",
          "type": "address"
        }
      ],
      "name": "renounceRole",
      "outputs": [],
      "stateMutability": "nonpayable",
      "type": "function"
    },
    {
      "inputs": [],
      "name": "reserveWallet",
      "outputs": [
        {
          "internalType": "address",
          "name": "",
          "type": "address"
        }
      ],
      "stateMutability": "view",
      "type": "function"
    },
    {
      "inputs": [
        {
          "internalType": "bytes32",
          "name": "role",
          "type": "bytes32"
        },
        {
          "internalType": "address",
          "name": "account",
          "type": "address"
        }
      ],
      "name": "revokeRole",
      "outputs": [],
      "stateMutability": "nonpayable",
      "type": "function"
    },
    {
      "inputs": [
        {
          "internalType": "uint256",
          "name": "_nameLength",
          "type": "uint256"
        },
        {
          "internalType": "uint256",
          "name": "_nameRegistrationPricePerYear",
          "type": "uint256"
        }
      ],
      "name": "setNameRegistrationPricePerYear",
      "outputs": [],
      "stateMutability": "nonpayable",
      "type": "function"
    },
    {
      "inputs": [
        {
          "internalType": "address",
          "name": "_reserveWallet",
          "type": "address"
        }
      ],
      "name": "setReserveWallet",
      "outputs": [],
      "stateMutability": "nonpayable",
      "type": "function"
    },
    {
      "inputs": [
        {
          "internalType": "contract ISoulboundIdentity",
          "name": "_soulboundIdentity",
          "type": "address"
        }
      ],
      "name": "setSoulboundIdentity",
      "outputs": [],
      "stateMutability": "nonpayable",
      "type": "function"
    },
    {
      "inputs": [
        {
          "internalType": "address",
          "name": "_stableCoin",
          "type": "address"
        }
      ],
      "name": "setStableCoin",
      "outputs": [],
      "stateMutability": "nonpayable",
      "type": "function"
    },
    {
      "inputs": [
        {
          "internalType": "address",
          "name": "_swapRouter",
          "type": "address"
        }
      ],
      "name": "setSwapRouter",
      "outputs": [],
      "stateMutability": "nonpayable",
      "type": "function"
    },
    {
      "inputs": [
        {
          "internalType": "address",
          "name": "_utilityToken",
          "type": "address"
        }
      ],
      "name": "setUtilityToken",
      "outputs": [],
      "stateMutability": "nonpayable",
      "type": "function"
    },
    {
      "inputs": [
        {
          "internalType": "address",
          "name": "_wrappedNativeToken",
          "type": "address"
        }
      ],
      "name": "setWrappedNativeToken",
      "outputs": [],
      "stateMutability": "nonpayable",
      "type": "function"
    },
    {
      "inputs": [],
      "name": "soulboundIdentity",
      "outputs": [
        {
          "internalType": "contract ISoulboundIdentity",
          "name": "",
          "type": "address"
        }
      ],
      "stateMutability": "view",
      "type": "function"
    },
    {
      "inputs": [],
      "name": "stableCoin",
      "outputs": [
        {
          "internalType": "address",
          "name": "",
          "type": "address"
        }
      ],
      "stateMutability": "view",
      "type": "function"
    },
    {
      "inputs": [
        {
          "internalType": "bytes4",
          "name": "interfaceId",
          "type": "bytes4"
        }
      ],
      "name": "supportsInterface",
      "outputs": [
        {
          "internalType": "bool",
          "name": "",
          "type": "bool"
        }
      ],
      "stateMutability": "view",
      "type": "function"
    },
    {
      "inputs": [],
      "name": "swapRouter",
      "outputs": [
        {
          "internalType": "address",
          "name": "",
          "type": "address"
        }
      ],
      "stateMutability": "view",
      "type": "function"
    },
    {
      "inputs": [],
      "name": "unpause",
      "outputs": [],
      "stateMutability": "nonpayable",
      "type": "function"
    },
    {
      "inputs": [],
      "name": "utilityToken",
      "outputs": [
        {
          "internalType": "address",
          "name": "",
          "type": "address"
        }
      ],
      "stateMutability": "view",
      "type": "function"
    },
    {
      "inputs": [],
      "name": "wrappedNativeToken",
      "outputs": [
        {
          "internalType": "address",
          "name": "",
          "type": "address"
        }
      ],
      "stateMutability": "view",
      "type": "function"
    }
  ],
  "transactionHash": "0x4c9c6adf3ae23aafc51ac9a8bfc6a6faf451e9f7e1ba0f046d59193a40f715c3",
  "args": [
    "0x3c8D9f130970358b7E8cbc1DbD0a1EbA6EBE368F",
    "0xe7a4CaFA517cF82e90b42fB1cEE1437f4bb205F2",
    "10000000",
    "0xdc31Ee1784292379Fbb2964b3B9C4124D8F89C60",
    "0xD87Ba7A50B2E7E660f678A895E4B72E7CB4CCd9C",
    "0xB4FBF271143F4FBf7B91A5ded31805e42b2208d6",
    "0x7a250d5630B4cF539739dF2C5dAcb4c659F2488D",
    "0x3c8D9f130970358b7E8cbc1DbD0a1EbA6EBE368F"
  ],
  "numDeployments": 1,
  "solcInputHash": "820f86c65d0294b251813f2382387c11",
  "bytecode": "0x60806040523480156200001157600080fd5b5060405162002896380380620028968339810160408190526200003491620002ad565b81836001600160a01b038216620000685760405162461bcd60e51b81526004016200005f9062000372565b60405180910390fd5b6001600160a01b038116620000915760405162461bcd60e51b81526004016200005f9062000372565b600080546001600160a01b039384166001600160a01b0319909116179055600180546001600160a81b0319169183169190911790558116620000e75760405162461bcd60e51b81526004016200005f9062000372565b6001600160a01b038716620001105760405162461bcd60e51b81526004016200005f9062000372565b6200011d600089620001ce565b620001497f65d7a28e3265b37a6474929f336521b332c1681b933f6cb9f3376673440d862a89620001ce565b600380546001600160a01b039889166001600160a01b0319918216179091556000805260046020527f17ef568e3e12ab5b9c7254a8d58478811de00f9e6eb34345acd53bf8fd09d3ec969096556005805494881694871694909417909355505060068054928516928416929092179091556007805491909316911617905550620003e8565b620001da828262000259565b620002555760008281526002602090815260408083206001600160a01b03851684529091529020805460ff19166001179055620002143390565b6001600160a01b0316816001600160a01b0316837f2f8788117e7eff1d82e926ec794901d17c78024a50270940304540a733656f0d60405160405180910390a45b5050565b60008281526002602090815260408083206001600160a01b038516845290915290205460ff165b92915050565b80516200028081620003bc565b80516200028081620003d6565b80516200028081620003e1565b600080600080600080600080610100898b031215620002cf57620002cf600080fd5b6000620002dd8b8b62000286565b9850506020620002f08b828c0162000293565b9750506040620003038b828c01620002a0565b9650506060620003168b828c0162000286565b9550506080620003298b828c0162000286565b94505060a06200033c8b828c0162000286565b93505060c06200034f8b828c0162000286565b92505060e0620003628b828c0162000286565b9150509295985092959890939650565b602080825281016200028081600c81526b5a45524f5f4144445245535360a01b602082015260400190565b60006001600160a01b03821662000280565b600062000280826200039d565b620003c7816200039d565b8114620003d357600080fd5b50565b620003c781620003af565b80620003c7565b61249e80620003f86000396000f3fe6080604052600436106101735760003560e01c806301ffc9a7146101785780631003d9c9146101ae57806312553e41146101dd57806317fcb39b146101f25780631cfd11c61461021f57806323af4e171461023f578063248a9ca3146102615780632d9c7a3f146102815780632f2ff15d146102a157806336568abe146102c15780633ad3033e146102e15780633f4ba83a1461030157806341273657146103165780635c975abb146103365780635f2a25181461034b57806374a99f8b1461036b57806377bed5ed1461038b5780638456cb59146103b85780639013ae08146103cd57806391d14854146103ed578063992642e51461040d578063a217fddf1461042d578063ae86ed8914610442578063c31c9c0714610462578063d547741f14610482578063d72b11bd146104a2578063da058ae3146104c2578063dda4fa8f146104e2578063df7919b914610502578063e275c88714610515578063e63ab1e914610528578063eaf94aec1461054a575b600080fd5b34801561018457600080fd5b50610198610193366004611bd2565b610577565b6040516101a59190612125565b60405180910390f35b3480156101ba57600080fd5b506101ce6101c9366004611c6f565b6105ae565b6040516101a59392919061224b565b6101e56105d7565b6040516101a59190612133565b3480156101fe57600080fd5b50600154610212906001600160a01b031681565b6040516101a59190612056565b34801561022b57600080fd5b506101ce61023a366004611b74565b6105ef565b34801561024b57600080fd5b5061025f61025a366004611a10565b61063b565b005b34801561026d57600080fd5b506101e561027c366004611b74565b6106c6565b34801561028d57600080fd5b506101e561029c366004611c35565b6106db565b3480156102ad57600080fd5b5061025f6102bc366004611b95565b610728565b3480156102cd57600080fd5b5061025f6102dc366004611b95565b610749565b3480156102ed57600080fd5b5061025f6102fc366004611c14565b61077f565b34801561030d57600080fd5b5061025f610801565b34801561032257600080fd5b5061025f610331366004611a10565b610824565b34801561034257600080fd5b506101986108a6565b34801561035757600080fd5b506101e5610366366004611a31565b6108b6565b34801561037757600080fd5b5061025f610386366004611cdc565b610974565b34801561039757600080fd5b506003546103ab906001600160a01b031681565b6040516101a59190612141565b3480156103c457600080fd5b5061025f6109c0565b3480156103d957600080fd5b5061025f6103e8366004611a10565b6109e0565b3480156103f957600080fd5b50610198610408366004611b95565b610a62565b34801561041957600080fd5b50600554610212906001600160a01b031681565b34801561043957600080fd5b506101e5600081565b34801561044e57600080fd5b50600654610212906001600160a01b031681565b34801561046e57600080fd5b50600054610212906001600160a01b031681565b34801561048e57600080fd5b5061025f61049d366004611b95565b610a8d565b3480156104ae57600080fd5b50600754610212906001600160a01b031681565b3480156104ce57600080fd5b5061025f6104dd366004611a10565b610aa9565b3480156104ee57600080fd5b5061025f6104fd366004611a10565b610b2b565b6101e5610510366004611a81565b610bad565b6101e5610523366004611a81565b610be4565b34801561053457600080fd5b506101e560008051602061244983398151915281565b34801561055657600080fd5b506101e5610565366004611b74565b60046020526000908152604090205481565b60006001600160e01b03198216637965db0b60e01b14806105a857506301ffc9a760e01b6001600160e01b03198316145b92915050565b60008060006105c961023a856105c3886106db565b90610c0b565b919790965090945092505050565b60006105e1610c17565b6105ea33610c3e565b905090565b60015460055482916000918291610613916001600160a01b039182169116856108b6565b600654600554919350610633916001600160a01b039182169116866108b6565b929491935050565b600061064681610d0e565b6001600160a01b0382166106755760405162461bcd60e51b815260040161066c906121a0565b60405180910390fd5b6005546001600160a01b03838116911614156106a35760405162461bcd60e51b815260040161066c90612180565b50600580546001600160a01b0319166001600160a01b0392909216919091179055565b60009081526002602052604090206001015490565b80516000818152600460205260408120549091908061072157506000805260046020527f17ef568e3e12ab5b9c7254a8d58478811de00f9e6eb34345acd53bf8fd09d3ec545b9392505050565b610731826106c6565b61073a81610d0e565b6107448383610d18565b505050565b6001600160a01b03811633146107715760405162461bcd60e51b815260040161066c90612200565b61077b8282610d9e565b5050565b600061078a81610d0e565b6001600160a01b0382166107b05760405162461bcd60e51b815260040161066c906121a0565b6003546001600160a01b03838116911614156107de5760405162461bcd60e51b815260040161066c90612180565b50600380546001600160a01b0319166001600160a01b0392909216919091179055565b60008051602061244983398151915261081981610d0e565b610821610e05565b50565b600061082f81610d0e565b6001600160a01b0382166108555760405162461bcd60e51b815260040161066c906121a0565b6000546001600160a01b03838116911614156108835760405162461bcd60e51b815260040161066c90612180565b50600080546001600160a01b0319166001600160a01b0392909216919091179055565b600154600160a01b900460ff1690565b60006060806108c58686610e54565b6000546040516307c0329d60e21b81529192506001600160a01b031690631f00ca74906108f89087908590600401612210565b60006040518083038186803b15801561091057600080fd5b505afa158015610924573d6000803e3d6000fd5b505050506040513d6000823e601f3d908101601f1916820160405261094c9190810190611b19565b915081600081518110610961576109616123d7565b6020026020010151925050509392505050565b600061097f81610d0e565b6000838152600460205260409020548214156109ad5760405162461bcd60e51b815260040161066c90612180565b5060009182526004602052604090912055565b6000805160206124498339815191526109d881610d0e565b610821610fe5565b60006109eb81610d0e565b6001600160a01b038216610a115760405162461bcd60e51b815260040161066c906121a0565b6006546001600160a01b0383811691161415610a3f5760405162461bcd60e51b815260040161066c90612180565b50600680546001600160a01b0319166001600160a01b0392909216919091179055565b60009182526002602090815260408084206001600160a01b0393909316845291905290205460ff1690565b610a96826106c6565b610a9f81610d0e565b6107448383610d9e565b6000610ab481610d0e565b6001600160a01b038216610ada5760405162461bcd60e51b815260040161066c906121a0565b6001546001600160a01b0383811691161415610b085760405162461bcd60e51b815260040161066c90612180565b50600180546001600160a01b0319166001600160a01b0392909216919091179055565b6000610b3681610d0e565b6001600160a01b038216610b5c5760405162461bcd60e51b815260040161066c906121a0565b6007546001600160a01b0383811691161415610b8a5760405162461bcd60e51b815260040161066c90612180565b50600780546001600160a01b0319166001600160a01b0392909216919091179055565b6000610bb7610c17565b610bcd85610bc8856105c3886106db565b611028565b610bd93385858561121a565b90505b949350505050565b6000610bee610c17565b610bff85610bc8856105c3886106db565b610bd933858585611419565b600061072182846122e8565b610c1f6108a6565b15610c3c5760405162461bcd60e51b815260040161066c90612190565b565b6003546040516335313c2160e11b815260009182916001600160a01b0390911690636a62784290610c73908690600401612056565b602060405180830381600087803b158015610c8d57600080fd5b505af1158015610ca1573d6000803e3d6000fd5b505050506040513d601f19601f82011682018060405250810190610cc59190611cbb565b9050826001600160a01b03167fe6fdadff80ae44015b9aa37d4edb70f70a8db7535a0df98de6dc5ffd11ec0c2f82604051610d009190612133565b60405180910390a292915050565b610821813361150a565b610d228282610a62565b61077b5760008281526002602090815260408083206001600160a01b03851684529091529020805460ff19166001179055610d5a3390565b6001600160a01b0316816001600160a01b0316837f2f8788117e7eff1d82e926ec794901d17c78024a50270940304540a733656f0d60405160405180910390a45050565b610da88282610a62565b1561077b5760008281526002602090815260408083206001600160a01b0385168085529252808320805460ff1916905551339285917ff6391f5c32d9c69d2a47ea670b442974b53935d1edc7fd64eb21e047a839171b9190a45050565b610e0d61156e565b6001805460ff60a01b191690557f5db9ee0a495bf2e6ff9c91a7834c1ba4fdd244a5e8aa4e537bd38aeae4b073aa335b604051610e4a9190612056565b60405180910390a1565b6001546060906001600160a01b0384811691161480610e8057506001546001600160a01b038381169116145b15610f4a57604080516002808252606082018352600092602083019080368337019050506001549091506001600160a01b03858116911614610ec25783610ecf565b6001546001600160a01b03165b81600081518110610ee257610ee26123d7565b6001600160a01b039283166020918202929092010152600154848216911614610f0b5782610f18565b6001546001600160a01b03165b81600181518110610f2b57610f2b6123d7565b6001600160a01b039092166020928302919091019091015290506105a8565b60408051600380825260808201909252600091602082016060803683370190505090508381600081518110610f8157610f816123d7565b6001600160a01b0392831660209182029290920101526001805483519216918391908110610fb157610fb16123d7565b60200260200101906001600160a01b031690816001600160a01b0316815250508281600281518110610f2b57610f2b6123d7565b610fed610c17565b6001805460ff60a01b1916600160a01b1790557f62e78cea01bee320cd4e420270b5ea74000d11b0c9f74754ebdbfc544b05a258610e3d3390565b6005546001600160a01b038381169116141561105a5760075461077b906001600160a01b038481169133911684611592565b6001600160a01b0382166111b257600154600554600091611088916001600160a01b039182169116846108b6565b9050803410156110aa5760405162461bcd60e51b815260040161066c906121b0565b6007546040516000916001600160a01b03169083906110c890611ffc565b60006040518083038185875af1925050503d8060008114611105576040519150601f19603f3d011682016040523d82523d6000602084013e61110a565b606091505b505090508061112b5760405162461bcd60e51b815260040161066c906121c0565b813411156111ac57600061113f34846115ea565b9050336001600160a01b03168160405161115890611ffc565b60006040518083038185875af1925050503d8060008114611195576040519150601f19603f3d011682016040523d82523d6000602084013e61119a565b606091505b505080925050816111aa57600080fd5b505b50505050565b6006546001600160a01b0383811691161415611202576005546000906111e39084906001600160a01b0316846108b6565b600754909150610744906001600160a01b038581169133911684611592565b60405162461bcd60e51b815260040161066c906121d0565b600080600360009054906101000a90046001600160a01b03166001600160a01b031663b507d4816040518163ffffffff1660e01b815260040160206040518083038186803b15801561126b57600080fd5b505afa15801561127f573d6000803e3d6000fd5b505050506040513d601f19601f820116820180604052508101906112a39190611bf3565b60035460405163294cdf0d60e01b81529192506000916001600160a01b039091169063294cdf0d906112d9908a90600401612056565b60206040518083038186803b1580156112f157600080fd5b505afa158015611305573d6000803e3d6000fd5b505050506040513d601f19601f820116820180604052508101906113299190611cbb565b90506000826001600160a01b0316630c151fec8989858a8a6040518663ffffffff1660e01b81526004016113619594939291906120d7565b602060405180830381600087803b15801561137b57600080fd5b505af115801561138f573d6000803e3d6000fd5b505050506040513d601f19601f820116820180604052508101906113b39190611cbb565b9050866040516113c39190611ff0565b6040518091039020886001600160a01b03167f32044e50415e96c0068a718b8df9993f4803b2e54518d56c52ef6438a91619aa8389604051611406929190612230565b60405180910390a3979650505050505050565b6003546040516328a0a29f60e11b815260009182916001600160a01b0390911690635141453e9061145490899089908990899060040161208c565b602060405180830381600087803b15801561146e57600080fd5b505af1158015611482573d6000803e3d6000fd5b505050506040513d601f19601f820116820180604052508101906114a69190611cbb565b9050846040516114b69190611ff0565b6040518091039020866001600160a01b03167f60579b770d8bde9b5f57c468ffb4acb023252b190304137b45b86b72f66a194083876040516114f9929190612230565b60405180910390a395945050505050565b6115148282610a62565b61077b5761152c816001600160a01b031660146115f6565b6115378360206115f6565b604051602001611548929190612004565b60408051601f198184030181529082905262461bcd60e51b825261066c9160040161214f565b6115766108a6565b610c3c5760405162461bcd60e51b815260040161066c90612170565b6111ac846323b872dd60e01b8585856040516024016115b393929190612064565b60408051601f198184030181529190526020810180516001600160e01b03166001600160e01b031990931692909217909152611761565b60006107218284612307565b606060006116058360026122e8565b6116109060026122d0565b6001600160401b03811115611627576116276123ed565b6040519080825280601f01601f191660200182016040528015611651576020820181803683370190505b509050600360fc1b8160008151811061166c5761166c6123d7565b60200101906001600160f81b031916908160001a905350600f60fb1b8160018151811061169b5761169b6123d7565b60200101906001600160f81b031916908160001a90535060006116bf8460026122e8565b6116ca9060016122d0565b90505b6001811115611742576f181899199a1a9b1b9c1cb0b131b232b360811b85600f16601081106116fe576116fe6123d7565b1a60f81b828281518110611714576117146123d7565b60200101906001600160f81b031916908160001a90535060049490941c9361173b8161237d565b90506116cd565b5083156107215760405162461bcd60e51b815260040161066c90612160565b60006117b6826040518060400160405280602081526020017f5361666545524332303a206c6f772d6c6576656c2063616c6c206661696c6564815250856001600160a01b03166117f09092919063ffffffff16565b80519091501561074457808060200190518101906117d49190611b53565b6107445760405162461bcd60e51b815260040161066c906121f0565b6060610bdc8484600085856001600160a01b0385163b6118225760405162461bcd60e51b815260040161066c906121e0565b600080866001600160a01b0316858760405161183e9190611ff0565b60006040518083038185875af1925050503d806000811461187b576040519150601f19603f3d011682016040523d82523d6000602084013e611880565b606091505b509150915061189082828661189b565b979650505050505050565b606083156118aa575081610721565b8251156118ba5782518084602001fd5b8160405162461bcd60e51b815260040161066c919061214f565b60006118e76118e284612282565b612266565b9050808382526020820190508285602086028201111561190957611909600080fd5b60005b85811015611935578161191f8882611a05565b845250602092830192919091019060010161190c565b5050509392505050565b600061194d6118e2846122a5565b90508281526020810184848401111561196857611968600080fd5b611973848285612345565b509392505050565b80356105a88161240d565b600082601f83011261199a5761199a600080fd5b8151610bdc8482602086016118d4565b80516105a881612421565b80356105a881612429565b80356105a88161242f565b80516105a88161243f565b80356105a88161243f565b600082601f8301126119f5576119f5600080fd5b8135610bdc84826020860161193f565b80516105a881612429565b600060208284031215611a2557611a25600080fd5b6000610bdc848461197b565b600080600060608486031215611a4957611a49600080fd5b6000611a55868661197b565b9350506020611a668682870161197b565b9250506040611a77868287016119b5565b9150509250925092565b60008060008060808587031215611a9a57611a9a600080fd5b6000611aa6878761197b565b94505060208501356001600160401b03811115611ac557611ac5600080fd5b611ad1878288016119e1565b9350506040611ae2878288016119b5565b92505060608501356001600160401b03811115611b0157611b01600080fd5b611b0d878288016119e1565b91505092959194509250565b600060208284031215611b2e57611b2e600080fd5b81516001600160401b03811115611b4757611b47600080fd5b610bdc84828501611986565b600060208284031215611b6857611b68600080fd5b6000610bdc84846119aa565b600060208284031215611b8957611b89600080fd5b6000610bdc84846119b5565b60008060408385031215611bab57611bab600080fd5b6000611bb785856119b5565b9250506020611bc88582860161197b565b9150509250929050565b600060208284031215611be757611be7600080fd5b6000610bdc84846119c0565b600060208284031215611c0857611c08600080fd5b6000610bdc84846119cb565b600060208284031215611c2957611c29600080fd5b6000610bdc84846119d6565b600060208284031215611c4a57611c4a600080fd5b81356001600160401b03811115611c6357611c63600080fd5b610bdc848285016119e1565b60008060408385031215611c8557611c85600080fd5b82356001600160401b03811115611c9e57611c9e600080fd5b611caa858286016119e1565b9250506020611bc8858286016119b5565b600060208284031215611cd057611cd0600080fd5b6000610bdc8484611a05565b60008060408385031215611cf257611cf2600080fd5b6000611caa85856119b5565b6000611d0a8383611d12565b505060200190565b611d1b8161231e565b82525050565b6000611d2b825190565b80845260209384019383018060005b83811015611d5f578151611d4e8882611cfe565b975060208301925050600101611d3a565b509495945050505050565b801515611d1b565b80611d1b565b6000611d82825190565b611d90818560208601612351565b9290920192915050565b611d1b8161233a565b6000611dad825190565b808452602084019350611dc4818560208601612351565b611dcd81612403565b9093019392505050565b60208082527f537472696e67733a20686578206c656e67746820696e73756666696369656e74910190815260005b5060200190565b601481526000602082017314185d5cd8589b194e881b9bdd081c185d5cd95960621b81529150611e05565b600a81526000602082016953414d455f56414c554560b01b81529150611e05565b5060400190565b601081526000602082016f14185d5cd8589b194e881c185d5cd95960821b81529150611e05565b600c81526000602082016b5a45524f5f4144445245535360a01b81529150611e05565b60168152600060208201751253959053125117d410565351539517d05353d5539560521b81529150611e05565b600f81526000602082016e1514905394d1915497d19052531151608a1b81529150611e05565b60168152600060208201751253959053125117d410565351539517d351551213d160521b81529150611e05565b601d81526000602082017f416464726573733a2063616c6c20746f206e6f6e2d636f6e747261637400000081529150611e05565b602a81526000602082017f5361666545524332303a204552433230206f7065726174696f6e20646964206e8152691bdd081cdd58d8d9595960b21b60208201529150611e58565b602f81526000602082017f416363657373436f6e74726f6c3a2063616e206f6e6c792072656e6f756e636581526e103937b632b9903337b91039b2b63360891b60208201529150611e58565b60006107218284611d78565b6000816105a8565b76020b1b1b2b9b9a1b7b73a3937b61d1030b1b1b7bab73a1604d1b815260170160006120308285611d78565b7001034b99036b4b9b9b4b733903937b6329607d1b81526011019150610bdc8284611d78565b602081016105a88284611d12565b606081016120728286611d12565b61207f6020830185611d12565b610bdc6040830184611d72565b6080810161209a8287611d12565b81810360208301526120ac8186611da3565b90506120bb6040830185611d72565b81810360608301526120cd8184611da3565b9695505050505050565b60a081016120e58288611d12565b81810360208301526120f78187611da3565b90506121066040830186611d72565b6121136060830185611d72565b81810360808301526118908184611da3565b602081016105a88284611d6a565b602081016105a88284611d72565b602081016105a88284611d9a565b602080825281016107218184611da3565b602080825281016105a881611dd7565b602080825281016105a881611e0c565b602080825281016105a881611e37565b602080825281016105a881611e5f565b602080825281016105a881611e86565b602080825281016105a881611ea9565b602080825281016105a881611ed6565b602080825281016105a881611efc565b602080825281016105a881611f29565b602080825281016105a881611f5d565b602080825281016105a881611fa4565b6040810161221e8285611d72565b8181036020830152610bdc8184611d21565b6040810161223e8285611d72565b6107216020830184611d72565b606081016122598286611d72565b61207f6020830185611d72565b600061227160405190565b905061227d8282612394565b919050565b60006001600160401b0382111561229b5761229b6123ed565b5060209081020190565b60006001600160401b038211156122be576122be6123ed565b6122c782612403565b60200192915050565b600082198211156122e3576122e36123c1565b500190565b6000816000190483118215151615612302576123026123c1565b500290565b600082821015612319576123196123c1565b500390565b60006001600160a01b0382166105a8565b60006105a88261231e565b60006105a88261232f565b82818337506000910152565b60005b8381101561236c578181015183820152602001612354565b838111156111ac5750506000910152565b60008161238c5761238c6123c1565b506000190190565b61239d82612403565b81018181106001600160401b03821117156123ba576123ba6123ed565b6040525050565b634e487b7160e01b600052601160045260246000fd5b634e487b7160e01b600052603260045260246000fd5b634e487b7160e01b600052604160045260246000fd5b601f01601f191690565b6124168161231e565b811461082157600080fd5b801515612416565b80612416565b6001600160e01b03198116612416565b6124168161232f56fe65d7a28e3265b37a6474929f336521b332c1681b933f6cb9f3376673440d862aa2646970667358221220e260108dc9c9783e550fc41643739c1ff63d339163ad4aac722c7ae46c79c4a264736f6c63430008070033",
  "devdoc": {
    "author": "Masa Finance",
    "details": "From this smart contract we can mint new Soulbound Identities and Soul Name NFTs. This minting can be done paying a fee in ETH, USDC or $MASA",
    "kind": "dev",
    "methods": {
      "_getSwapAmounts(uint256)": {
        "details": "Returns all current pricing and amount informations for a purchase",
        "returns": {
          "priceInETH": "Current pric in native token (ETH)",
          "priceInStableCoin": "Current price in stable coin",
          "priceInUtilityToken": "Current price in utility token ($MASA)"
        }
      },
      "constructor": {
        "details": "Creates a new Soul Store, that has the role to minting new Soulbound Identities and Soul Name NFTs, paying a fee",
        "params": {
          "_nameRegistrationPricePerYear": "Price of the default name registering in stable coin per year",
          "_reserveWallet": "Wallet that will receive the fee",
          "_soulBoundIdentity": "Address of the Soulbound identity contract",
          "_stableCoin": "Stable coin to pay the fee in (USDC)",
          "_swapRouter": "Swap router address",
          "_utilityToken": "Utility token to pay the fee in ($MASA)",
          "_wrappedNativeToken": "Wrapped native token address",
          "admin": "Administrator of the smart contract"
        }
      },
      "getNameRegistrationPricePerYear(string)": {
        "details": "Returns the price for registering per year in USD for an specific name length",
        "params": {
          "nameLength": "Length of the name"
        },
        "returns": {
          "_0": "Price in stable coin for that name length"
        }
      },
      "getRoleAdmin(bytes32)": {
        "details": "Returns the admin role that controls `role`. See {grantRole} and {revokeRole}. To change a role's admin, use {_setRoleAdmin}."
      },
      "grantRole(bytes32,address)": {
        "details": "Grants `role` to `account`. If `account` had not been already granted `role`, emits a {RoleGranted} event. Requirements: - the caller must have ``role``'s admin role. May emit a {RoleGranted} event."
      },
      "hasRole(bytes32,address)": {
        "details": "Returns `true` if `account` has been granted `role`."
      },
      "pause()": {
        "details": "Sets an emergency stop mechanism that can be triggered by an authorized account."
      },
      "paused()": {
        "details": "Returns true if the contract is paused, and false otherwise."
      },
      "purchaseIdentity()": {
        "details": "This function allows the purchase of a soulbound identity for free",
        "returns": {
          "_0": "TokenId of the new soulbound identity"
        }
      },
      "purchaseIdentityAndName(address,string,uint256,string)": {
        "details": "This function allows the purchase of a soulbound identity and name using stable coin (USDC), native token (ETH) or utility token ($MASA)",
        "params": {
          "_tokenURI": "URI of the NFT",
          "name": "Name of the new soul name",
          "paymentMethod": "Address of token that user want to pay",
          "yearsPeriod": "Years of validity of the name"
        },
        "returns": {
          "_0": "TokenId of the new soulbound identity"
        }
      },
      "purchaseName(address,string,uint256,string)": {
        "details": "This function allows the purchase of a soul name using stable coin (USDC), native token (ETH) or utility token ($MASA)",
        "params": {
          "_tokenURI": "URI of the NFT",
          "name": "Name of the new soul name",
          "paymentMethod": "Address of token that user want to pay",
          "yearsPeriod": "Years of validity of the name"
        },
        "returns": {
          "_0": "TokenId of the new sou name"
        }
      },
      "purchaseNameInfo(string,uint256)": {
        "details": "Returns all current pricing and amount informations for a purchase",
        "params": {
          "name": "Name of the new soul name",
          "yearsPeriod": "Years of validity of the name"
        },
        "returns": {
          "priceInETH": "Current price of the name minting in native token (ETH)",
          "priceInStableCoin": "Current price of the name minting in stable coin",
          "priceInUtilityToken": "Current price of the name minting in utility token ($MASA)"
        }
      },
      "renounceRole(bytes32,address)": {
        "details": "Revokes `role` from the calling account. Roles are often managed via {grantRole} and {revokeRole}: this function's purpose is to provide a mechanism for accounts to lose their privileges if they are compromised (such as when a trusted device is misplaced). If the calling account had been revoked `role`, emits a {RoleRevoked} event. Requirements: - the caller must be `account`. May emit a {RoleRevoked} event."
      },
      "revokeRole(bytes32,address)": {
        "details": "Revokes `role` from `account`. If `account` had been granted `role`, emits a {RoleRevoked} event. Requirements: - the caller must have ``role``'s admin role. May emit a {RoleRevoked} event."
      },
      "setNameRegistrationPricePerYear(uint256,uint256)": {
        "details": "The caller must have the admin role to call this function",
        "params": {
          "_nameLength": "Length of the name",
          "_nameRegistrationPricePerYear": "New price of the name registering per one year in stable coin for that name length per year"
        }
      },
      "setReserveWallet(address)": {
        "details": "Let change the reserve walled. It can be triggered by an authorized account.",
        "params": {
          "_reserveWallet": "New reserve wallet"
        }
      },
      "setSoulboundIdentity(address)": {
        "details": "The caller must have the admin role to call this function",
        "params": {
          "_soulboundIdentity": "New SoulboundIdentity contract address"
        }
      },
      "setStableCoin(address)": {
        "details": "The caller must have the admin role to call this function",
        "params": {
          "_stableCoin": "New stable coin to pay the fee in"
        }
      },
      "setSwapRouter(address)": {
        "details": "The caller must have the admin role to call this function",
        "params": {
          "_swapRouter": "New swap router address"
        }
      },
      "setUtilityToken(address)": {
        "details": "The caller must have the admin role to call this function",
        "params": {
          "_utilityToken": "New utility token to pay the fee in"
        }
      },
      "setWrappedNativeToken(address)": {
        "details": "The caller must have the admin role to call this function",
        "params": {
          "_wrappedNativeToken": "New wrapped native token address"
        }
      },
      "supportsInterface(bytes4)": {
        "details": "See {IERC165-supportsInterface}."
      },
      "unpause()": {
        "details": "Unsets an emergency stop mechanism. It can be triggered by an authorized account."
      }
    },
    "title": "Soul Store",
    "version": 1
  },
  "userdoc": {
    "kind": "user",
    "methods": {
      "_getSwapAmounts(uint256)": {
        "notice": "Returns the price of minting"
      },
      "constructor": {
        "notice": "Creates a new Soul Store"
      },
      "getNameRegistrationPricePerYear(string)": {
        "notice": "Returns the price of register a name per year in stable coin for an specific length"
      },
      "pause()": {
        "notice": "Pauses the operations in the smart contract"
      },
      "purchaseIdentity()": {
        "notice": "Mints a new Soulbound Identity purchasing it"
      },
      "purchaseIdentityAndName(address,string,uint256,string)": {
        "notice": "Mints a new Soulbound Identity and Name purchasing it"
      },
      "purchaseName(address,string,uint256,string)": {
        "notice": "Mints a new Soul Name purchasing it"
      },
      "purchaseNameInfo(string,uint256)": {
        "notice": "Returns the price of the name minting"
      },
      "setNameRegistrationPricePerYear(uint256,uint256)": {
        "notice": "Sets the price of the name registering per one year in stable coin"
      },
      "setReserveWallet(address)": {
        "notice": "Set the reserve wallet"
      },
      "setSoulboundIdentity(address)": {
        "notice": "Sets the SoulboundIdentity contract address linked to this store"
      },
      "setStableCoin(address)": {
        "notice": "Sets the stable coin to pay the fee in (USDC)"
      },
      "setSwapRouter(address)": {
        "notice": "Sets the swap router address"
      },
      "setUtilityToken(address)": {
        "notice": "Sets the utility token to pay the fee in ($MASA)"
      },
      "setWrappedNativeToken(address)": {
        "notice": "Sets the wrapped native token address"
      },
      "unpause()": {
        "notice": "Unpauses the operations in the smart contract"
      }
    },
    "notice": "Soul Store, that can mint new Soulbound Identities and Soul Name NFTs, paying a fee",
    "version": 1
  },
  "storageLayout": {
    "storage": [
      {
        "astId": 6104,
        "contract": "contracts/SoulStore.sol:SoulStore",
        "label": "swapRouter",
        "offset": 0,
        "slot": "0",
        "type": "t_address"
      },
      {
        "astId": 6106,
        "contract": "contracts/SoulStore.sol:SoulStore",
        "label": "wrappedNativeToken",
        "offset": 0,
        "slot": "1",
        "type": "t_address"
      },
      {
        "astId": 410,
        "contract": "contracts/SoulStore.sol:SoulStore",
        "label": "_paused",
        "offset": 20,
        "slot": "1",
        "type": "t_bool"
      },
      {
        "astId": 24,
        "contract": "contracts/SoulStore.sol:SoulStore",
        "label": "_roles",
        "offset": 0,
        "slot": "2",
        "type": "t_mapping(t_bytes32,t_struct(RoleData)19_storage)"
      },
      {
        "astId": 4960,
        "contract": "contracts/SoulStore.sol:SoulStore",
        "label": "soulboundIdentity",
        "offset": 0,
        "slot": "3",
        "type": "t_contract(ISoulboundIdentity)6396"
      },
      {
        "astId": 4964,
        "contract": "contracts/SoulStore.sol:SoulStore",
        "label": "nameRegistrationPricePerYear",
        "offset": 0,
        "slot": "4",
        "type": "t_mapping(t_uint256,t_uint256)"
      },
      {
        "astId": 4966,
        "contract": "contracts/SoulStore.sol:SoulStore",
        "label": "stableCoin",
        "offset": 0,
        "slot": "5",
        "type": "t_address"
      },
      {
        "astId": 4968,
        "contract": "contracts/SoulStore.sol:SoulStore",
        "label": "utilityToken",
        "offset": 0,
        "slot": "6",
        "type": "t_address"
      },
      {
        "astId": 4970,
        "contract": "contracts/SoulStore.sol:SoulStore",
        "label": "reserveWallet",
        "offset": 0,
        "slot": "7",
        "type": "t_address"
      }
    ],
    "types": {
      "t_address": {
        "encoding": "inplace",
        "label": "address",
        "numberOfBytes": "20"
      },
      "t_bool": {
        "encoding": "inplace",
        "label": "bool",
        "numberOfBytes": "1"
      },
      "t_bytes32": {
        "encoding": "inplace",
        "label": "bytes32",
        "numberOfBytes": "32"
      },
      "t_contract(ISoulboundIdentity)6396": {
        "encoding": "inplace",
        "label": "contract ISoulboundIdentity",
        "numberOfBytes": "20"
      },
      "t_mapping(t_address,t_bool)": {
        "encoding": "mapping",
        "key": "t_address",
        "label": "mapping(address => bool)",
        "numberOfBytes": "32",
        "value": "t_bool"
      },
      "t_mapping(t_bytes32,t_struct(RoleData)19_storage)": {
        "encoding": "mapping",
        "key": "t_bytes32",
        "label": "mapping(bytes32 => struct AccessControl.RoleData)",
        "numberOfBytes": "32",
        "value": "t_struct(RoleData)19_storage"
      },
      "t_mapping(t_uint256,t_uint256)": {
        "encoding": "mapping",
        "key": "t_uint256",
        "label": "mapping(uint256 => uint256)",
        "numberOfBytes": "32",
        "value": "t_uint256"
      },
      "t_struct(RoleData)19_storage": {
        "encoding": "inplace",
        "label": "struct AccessControl.RoleData",
        "members": [
          {
            "astId": 16,
            "contract": "contracts/SoulStore.sol:SoulStore",
            "label": "members",
            "offset": 0,
            "slot": "0",
            "type": "t_mapping(t_address,t_bool)"
          },
          {
            "astId": 18,
            "contract": "contracts/SoulStore.sol:SoulStore",
            "label": "adminRole",
            "offset": 0,
            "slot": "1",
            "type": "t_bytes32"
          }
        ],
        "numberOfBytes": "64"
      },
      "t_uint256": {
        "encoding": "inplace",
        "label": "uint256",
        "numberOfBytes": "32"
      }
    }
  }
}