{
  "address": "0xa8505973dce5e700E3d1c32Bb74a2C73dfD67273",
  "abi": [
    {
      "inputs": [
        {
          "internalType": "address",
          "name": "owner",
          "type": "address"
        },
        {
          "internalType": "string",
          "name": "baseTokenURI",
          "type": "string"
        }
      ],
      "stateMutability": "nonpayable",
      "type": "constructor"
    },
    {
      "anonymous": false,
      "inputs": [
        {
          "indexed": true,
          "internalType": "address",
          "name": "owner",
          "type": "address"
        },
        {
          "indexed": true,
          "internalType": "address",
          "name": "approved",
          "type": "address"
        },
        {
          "indexed": true,
          "internalType": "uint256",
          "name": "tokenId",
          "type": "uint256"
        }
      ],
      "name": "Approval",
      "type": "event"
    },
    {
      "anonymous": false,
      "inputs": [
        {
          "indexed": true,
          "internalType": "address",
          "name": "owner",
          "type": "address"
        },
        {
          "indexed": true,
          "internalType": "address",
          "name": "operator",
          "type": "address"
        },
        {
          "indexed": false,
          "internalType": "bool",
          "name": "approved",
          "type": "bool"
        }
      ],
      "name": "ApprovalForAll",
      "type": "event"
    },
    {
      "anonymous": false,
      "inputs": [
        {
          "indexed": true,
          "internalType": "address",
          "name": "previousOwner",
          "type": "address"
        },
        {
          "indexed": true,
          "internalType": "address",
          "name": "newOwner",
          "type": "address"
        }
      ],
      "name": "OwnershipTransferred",
      "type": "event"
    },
    {
      "anonymous": false,
      "inputs": [
        {
          "indexed": true,
          "internalType": "bytes32",
          "name": "role",
          "type": "bytes32"
        },
        {
          "indexed": true,
          "internalType": "bytes32",
          "name": "previousAdminRole",
          "type": "bytes32"
        },
        {
          "indexed": true,
          "internalType": "bytes32",
          "name": "newAdminRole",
          "type": "bytes32"
        }
      ],
      "name": "RoleAdminChanged",
      "type": "event"
    },
    {
      "anonymous": false,
      "inputs": [
        {
          "indexed": true,
          "internalType": "bytes32",
          "name": "role",
          "type": "bytes32"
        },
        {
          "indexed": true,
          "internalType": "address",
          "name": "account",
          "type": "address"
        },
        {
          "indexed": true,
          "internalType": "address",
          "name": "sender",
          "type": "address"
        }
      ],
      "name": "RoleGranted",
      "type": "event"
    },
    {
      "anonymous": false,
      "inputs": [
        {
          "indexed": true,
          "internalType": "bytes32",
          "name": "role",
          "type": "bytes32"
        },
        {
          "indexed": true,
          "internalType": "address",
          "name": "account",
          "type": "address"
        },
        {
          "indexed": true,
          "internalType": "address",
          "name": "sender",
          "type": "address"
        }
      ],
      "name": "RoleRevoked",
      "type": "event"
    },
    {
      "anonymous": false,
      "inputs": [
        {
          "indexed": true,
          "internalType": "address",
          "name": "from",
          "type": "address"
        },
        {
          "indexed": true,
          "internalType": "address",
          "name": "to",
          "type": "address"
        },
        {
          "indexed": true,
          "internalType": "uint256",
          "name": "tokenId",
          "type": "uint256"
        }
      ],
      "name": "Transfer",
      "type": "event"
    },
    {
      "inputs": [],
      "name": "DEFAULT_ADMIN_ROLE",
      "outputs": [
        {
          "internalType": "bytes32",
          "name": "",
          "type": "bytes32"
        }
      ],
      "stateMutability": "view",
      "type": "function"
    },
    {
      "inputs": [],
      "name": "MINTER_ROLE",
      "outputs": [
        {
          "internalType": "bytes32",
          "name": "",
          "type": "bytes32"
        }
      ],
      "stateMutability": "view",
      "type": "function"
    },
    {
      "inputs": [
        {
          "internalType": "address",
          "name": "to",
          "type": "address"
        },
        {
          "internalType": "uint256",
          "name": "tokenId",
          "type": "uint256"
        }
      ],
      "name": "approve",
      "outputs": [],
      "stateMutability": "nonpayable",
      "type": "function"
    },
    {
      "inputs": [
        {
          "internalType": "address",
          "name": "owner",
          "type": "address"
        }
      ],
      "name": "balanceOf",
      "outputs": [
        {
          "internalType": "uint256",
          "name": "",
          "type": "uint256"
        }
      ],
      "stateMutability": "view",
      "type": "function"
    },
    {
      "inputs": [
        {
          "internalType": "uint256",
          "name": "tokenId",
          "type": "uint256"
        }
      ],
      "name": "burn",
      "outputs": [],
      "stateMutability": "nonpayable",
      "type": "function"
    },
    {
      "inputs": [
        {
          "internalType": "uint256",
          "name": "tokenId",
          "type": "uint256"
        }
      ],
      "name": "getApproved",
      "outputs": [
        {
          "internalType": "address",
          "name": "",
          "type": "address"
        }
      ],
      "stateMutability": "view",
      "type": "function"
    },
    {
      "inputs": [
        {
          "internalType": "bytes32",
          "name": "role",
          "type": "bytes32"
        }
      ],
      "name": "getRoleAdmin",
      "outputs": [
        {
          "internalType": "bytes32",
          "name": "",
          "type": "bytes32"
        }
      ],
      "stateMutability": "view",
      "type": "function"
    },
    {
      "inputs": [
        {
          "internalType": "bytes32",
          "name": "role",
          "type": "bytes32"
        },
        {
          "internalType": "address",
          "name": "account",
          "type": "address"
        }
      ],
      "name": "grantRole",
      "outputs": [],
      "stateMutability": "nonpayable",
      "type": "function"
    },
    {
      "inputs": [
        {
          "internalType": "bytes32",
          "name": "role",
          "type": "bytes32"
        },
        {
          "internalType": "address",
          "name": "account",
          "type": "address"
        }
      ],
      "name": "hasRole",
      "outputs": [
        {
          "internalType": "bool",
          "name": "",
          "type": "bool"
        }
      ],
      "stateMutability": "view",
      "type": "function"
    },
    {
      "inputs": [
        {
          "internalType": "address",
          "name": "owner",
          "type": "address"
        },
        {
          "internalType": "address",
          "name": "operator",
          "type": "address"
        }
      ],
      "name": "isApprovedForAll",
      "outputs": [
        {
          "internalType": "bool",
          "name": "",
          "type": "bool"
        }
      ],
      "stateMutability": "view",
      "type": "function"
    },
    {
      "inputs": [
        {
          "internalType": "address",
          "name": "to",
          "type": "address"
        }
      ],
      "name": "mint",
      "outputs": [
        {
          "internalType": "uint256",
          "name": "",
          "type": "uint256"
        }
      ],
      "stateMutability": "nonpayable",
      "type": "function"
    },
    {
      "inputs": [],
      "name": "name",
      "outputs": [
        {
          "internalType": "string",
          "name": "",
          "type": "string"
        }
      ],
      "stateMutability": "view",
      "type": "function"
    },
    {
      "inputs": [],
      "name": "owner",
      "outputs": [
        {
          "internalType": "address",
          "name": "",
          "type": "address"
        }
      ],
      "stateMutability": "view",
      "type": "function"
    },
    {
      "inputs": [
        {
          "internalType": "uint256",
          "name": "tokenId",
          "type": "uint256"
        }
      ],
      "name": "ownerOf",
      "outputs": [
        {
          "internalType": "address",
          "name": "",
          "type": "address"
        }
      ],
      "stateMutability": "view",
      "type": "function"
    },
    {
      "inputs": [],
      "name": "renounceOwnership",
      "outputs": [],
      "stateMutability": "nonpayable",
      "type": "function"
    },
    {
      "inputs": [
        {
          "internalType": "bytes32",
          "name": "role",
          "type": "bytes32"
        },
        {
          "internalType": "address",
          "name": "account",
          "type": "address"
        }
      ],
      "name": "renounceRole",
      "outputs": [],
      "stateMutability": "nonpayable",
      "type": "function"
    },
    {
      "inputs": [
        {
          "internalType": "bytes32",
          "name": "role",
          "type": "bytes32"
        },
        {
          "internalType": "address",
          "name": "account",
          "type": "address"
        }
      ],
      "name": "revokeRole",
      "outputs": [],
      "stateMutability": "nonpayable",
      "type": "function"
    },
    {
      "inputs": [
        {
          "internalType": "address",
          "name": "",
          "type": "address"
        },
        {
          "internalType": "address",
          "name": "",
          "type": "address"
        },
        {
          "internalType": "uint256",
          "name": "",
          "type": "uint256"
        }
      ],
      "name": "safeTransferFrom",
      "outputs": [],
      "stateMutability": "pure",
      "type": "function"
    },
    {
      "inputs": [
        {
          "internalType": "address",
          "name": "",
          "type": "address"
        },
        {
          "internalType": "address",
          "name": "",
          "type": "address"
        },
        {
          "internalType": "uint256",
          "name": "",
          "type": "uint256"
        },
        {
          "internalType": "bytes",
          "name": "",
          "type": "bytes"
        }
      ],
      "name": "safeTransferFrom",
      "outputs": [],
      "stateMutability": "pure",
      "type": "function"
    },
    {
      "inputs": [
        {
          "internalType": "address",
          "name": "operator",
          "type": "address"
        },
        {
          "internalType": "bool",
          "name": "approved",
          "type": "bool"
        }
      ],
      "name": "setApprovalForAll",
      "outputs": [],
      "stateMutability": "nonpayable",
      "type": "function"
    },
    {
      "inputs": [
        {
          "internalType": "bytes4",
          "name": "interfaceId",
          "type": "bytes4"
        }
      ],
      "name": "supportsInterface",
      "outputs": [
        {
          "internalType": "bool",
          "name": "",
          "type": "bool"
        }
      ],
      "stateMutability": "view",
      "type": "function"
    },
    {
      "inputs": [],
      "name": "symbol",
      "outputs": [
        {
          "internalType": "string",
          "name": "",
          "type": "string"
        }
      ],
      "stateMutability": "view",
      "type": "function"
    },
    {
      "inputs": [
        {
          "internalType": "uint256",
          "name": "index",
          "type": "uint256"
        }
      ],
      "name": "tokenByIndex",
      "outputs": [
        {
          "internalType": "uint256",
          "name": "",
          "type": "uint256"
        }
      ],
      "stateMutability": "view",
      "type": "function"
    },
    {
      "inputs": [
        {
          "internalType": "address",
          "name": "owner",
          "type": "address"
        },
        {
          "internalType": "uint256",
          "name": "index",
          "type": "uint256"
        }
      ],
      "name": "tokenOfOwnerByIndex",
      "outputs": [
        {
          "internalType": "uint256",
          "name": "",
          "type": "uint256"
        }
      ],
      "stateMutability": "view",
      "type": "function"
    },
    {
      "inputs": [
        {
          "internalType": "uint256",
          "name": "tokenId",
          "type": "uint256"
        }
      ],
      "name": "tokenURI",
      "outputs": [
        {
          "internalType": "string",
          "name": "",
          "type": "string"
        }
      ],
      "stateMutability": "view",
      "type": "function"
    },
    {
      "inputs": [],
      "name": "totalSupply",
      "outputs": [
        {
          "internalType": "uint256",
          "name": "",
          "type": "uint256"
        }
      ],
      "stateMutability": "view",
      "type": "function"
    },
    {
      "inputs": [
        {
          "internalType": "address",
          "name": "",
          "type": "address"
        },
        {
          "internalType": "address",
          "name": "",
          "type": "address"
        },
        {
          "internalType": "uint256",
          "name": "",
          "type": "uint256"
        }
      ],
      "name": "transferFrom",
      "outputs": [],
      "stateMutability": "pure",
      "type": "function"
    },
    {
      "inputs": [
        {
          "internalType": "address",
          "name": "newOwner",
          "type": "address"
        }
      ],
      "name": "transferOwnership",
      "outputs": [],
      "stateMutability": "nonpayable",
      "type": "function"
    }
  ],
  "transactionHash": "0x8ed59b7f58a5d19fa31d80e653f0e64d42f2b6e15892f2449e38e3af87a7b721",
  "args": [
    "0x3c8D9f130970358b7E8cbc1DbD0a1EbA6EBE368F",
    "https://beta.metadata.masa.finance/v1.0/credit-report/"
  ],
  "numDeployments": 2,
  "solcInputHash": "59ca50f675f8905cc450a13ed8726978",
  "bytecode": "0x60806040523480156200001157600080fd5b50604051620025d5380380620025d58339810160408190526200003491620003f6565b816040518060400160405280601281526020017113585cd84810dc99591a5d0814995c1bdc9d60721b8152506040518060400160405280600381526020016226a1a960e91b8152508383838383828281600090805190602001906200009b929190620002ca565b508051620000b1906001906020840190620002ca565b505050620000ce620000c86200014360201b60201c565b62000147565b620000e4846200019960201b620007971760201c565b620000f1600085620001e3565b6200011d7f9f2df0fed2c77648de5860a4cc508cd0818c85b8b8a1ab4ceeef8d981c8956a685620001e3565b80516200013290600d906020840190620002ca565b50505050505050505050506200061f565b3390565b600a80546001600160a01b038381166001600160a01b0319831681179093556040519116919082907f8be0079c531659141344cd1fd0a4f28419497f9722a3daafe3b4186f6b6457e090600090a35050565b620001a36200026e565b6001600160a01b038116620001d55760405162461bcd60e51b8152600401620001cc9062000455565b60405180910390fd5b620001e08162000147565b50565b620001ef82826200029d565b6200026a576000828152600b602090815260408083206001600160a01b03851684529091529020805460ff19166001179055620002293390565b6001600160a01b0316816001600160a01b0316837f2f8788117e7eff1d82e926ec794901d17c78024a50270940304540a733656f0d60405160405180910390a45b5050565b600a546001600160a01b031633146200029b5760405162461bcd60e51b8152600401620001cc90620004a0565b565b6000828152600b602090815260408083206001600160a01b038516845290915290205460ff165b92915050565b828054620002d8906200056f565b90600052602060002090601f016020900481019282620002fc576000855562000347565b82601f106200031757805160ff191683800117855562000347565b8280016001018555821562000347579182015b82811115620003475782518255916020019190600101906200032a565b506200035592915062000359565b5090565b5b808211156200035557600081556001016200035a565b6000620003876200038184620004fa565b620004db565b905082815260208101848484011115620003a457620003a4600080fd5b620003b18482856200053c565b509392505050565b8051620002c48162000608565b600082601f830112620003dc57620003dc600080fd5b8151620003ee84826020860162000370565b949350505050565b600080604083850312156200040e576200040e600080fd5b60006200041c8585620003b9565b92505060208301516001600160401b038111156200043d576200043d600080fd5b6200044b85828601620003c6565b9150509250929050565b60208082528101620002c481602681527f4f776e61626c653a206e6577206f776e657220697320746865207a65726f206160208201526564647265737360d01b604082015260600190565b60208082528181019081527f4f776e61626c653a2063616c6c6572206973206e6f7420746865206f776e6572604083015260608201620002c4565b6000620004e760405190565b9050620004f58282620005a0565b919050565b60006001600160401b03821115620005165762000516620005e8565b6200052182620005fe565b60200192915050565b60006001600160a01b038216620002c4565b60005b83811015620005595781810151838201526020016200053f565b8381111562000569576000848401525b50505050565b6002810460018216806200058457607f821691505b602082108114156200059a576200059a620005d2565b50919050565b620005ab82620005fe565b81018181106001600160401b0382111715620005cb57620005cb620005e8565b6040525050565b634e487b7160e01b600052602260045260246000fd5b634e487b7160e01b600052604160045260246000fd5b601f01601f191690565b62000613816200052a565b8114620001e057600080fd5b611fa6806200062f6000396000f3fe608060405234801561001057600080fd5b50600436106101545760003560e01c806301ffc9a71461015957806306fdde0314610182578063081812fc14610197578063095ea7b3146101b757806318160ddd146101cc57806323b872dd146101dd578063248a9ca3146101f05780632f2ff15d146102035780632f745c591461021657806336568abe1461022957806342842e0e146101dd57806342966c681461023c5780634f6ccce71461024f5780636352211e146102625780636a6278421461027557806370a0823114610288578063715018a61461029b5780638da5cb5b146102a357806391d14854146102ab57806395d89b41146102be578063a217fddf146102c6578063a22cb465146102ce578063b88d4fde146102e1578063c87b56dd146102ef578063d539139314610302578063d547741f14610317578063e985e9c51461032a578063f2fde38b1461033d575b600080fd5b61016c610167366004611635565b610350565b6040516101799190611bb3565b60405180910390f35b61018a610361565b6040516101799190611bcf565b6101aa6101a53660046115f2565b6103f3565b6040516101799190611b61565b6101ca6101c53660046115bf565b61041a565b005b6008545b6040516101799190611bc1565b6101ca6101eb3660046114be565b6104a9565b6101d06101fe3660046115f2565b6104c1565b6101ca610211366004611613565b6104d6565b6101d06102243660046115bf565b6104f2565b6101ca610237366004611613565b610544565b6101ca61024a3660046115f2565b61057a565b6101d061025d3660046115f2565b6105ac565b6101aa6102703660046115f2565b6105fa565b6101d0610283366004611460565b61062f565b6101d0610296366004611460565b61063a565b6101ca61067e565b6101aa610692565b61016c6102b9366004611613565b6106a1565b61018a6106cc565b6101d0600081565b6101ca6102dc36600461158c565b6106db565b6101ca6101eb36600461150e565b61018a6102fd3660046115f2565b6106e6565b6101d0600080516020611f3183398151915281565b6101ca610325366004611613565b61074d565b61016c610338366004611481565b610769565b6101ca61034b366004611460565b610797565b600061035b826107ce565b92915050565b60606000805461037090611ded565b80601f016020809104026020016040519081016040528092919081815260200182805461039c90611ded565b80156103e95780601f106103be576101008083540402835291602001916103e9565b820191906000526020600020905b8154815290600101906020018083116103cc57829003601f168201915b5050505050905090565b60006103fe826107f3565b506000908152600460205260409020546001600160a01b031690565b6000610425826105fa565b9050806001600160a01b0316836001600160a01b031614156104625760405162461bcd60e51b815260040161045990611ca0565b60405180910390fd5b336001600160a01b038216148061047e575061047e8133610769565b61049a5760405162461bcd60e51b815260040161045990611c60565b6104a48383610818565b505050565b60405162461bcd60e51b815260040161045990611c40565b6000908152600b602052604090206001015490565b6104df826104c1565b6104e881610886565b6104a48383610890565b60006104fd8361063a565b821061051b5760405162461bcd60e51b815260040161045990611bf0565b506001600160a01b03919091166000908152600660209081526040808320938352929052205490565b6001600160a01b038116331461056c5760405162461bcd60e51b815260040161045990611cd0565b6105768282610916565b5050565b610584338261097d565b6105a05760405162461bcd60e51b815260040161045990611cc0565b6105a9816109dc565b50565b60006105b760085490565b82106105d55760405162461bcd60e51b815260040161045990611cb0565b600882815481106105e8576105e8611ec8565b90600052602060002001549050919050565b6000818152600260205260408120546001600160a01b03168061035b5760405162461bcd60e51b815260040161045990611c90565b600061035b82610a71565b60006001600160a01b0382166106625760405162461bcd60e51b815260040161045990611c50565b506001600160a01b031660009081526003602052604090205490565b610686610ab9565b6106906000610ae8565b565b600a546001600160a01b031690565b6000918252600b602090815260408084206001600160a01b0393909316845291905290205460ff1690565b60606001805461037090611ded565b610576338383610b3a565b60606106f1826107f3565b60006106fb610bdd565b9050600081511161071b5760405180602001604052806000815250610746565b8061072584610bec565b604051602001610736929190611ae1565b6040516020818303038152906040525b9392505050565b610756826104c1565b61075f81610886565b6104a48383610916565b6001600160a01b03918216600090815260056020908152604080832093909416825291909152205460ff1690565b61079f610ab9565b6001600160a01b0381166107c55760405162461bcd60e51b815260040161045990611c10565b6105a981610ae8565b60006001600160e01b03198216637965db0b60e01b148061035b575061035b82610ce9565b6107fc81610d0e565b6105a95760405162461bcd60e51b815260040161045990611c90565b600081815260046020526040902080546001600160a01b0319166001600160a01b038416908117909155819061084d826105fa565b6001600160a01b03167f8c5be1e5ebec7d5bd14f71427d1e84f3dd0314c0f7b2291e5b200ac8c7c3b92560405160405180910390a45050565b6105a98133610d2b565b61089a82826106a1565b610576576000828152600b602090815260408083206001600160a01b03851684529091529020805460ff191660011790556108d23390565b6001600160a01b0316816001600160a01b0316837f2f8788117e7eff1d82e926ec794901d17c78024a50270940304540a733656f0d60405160405180910390a45050565b61092082826106a1565b15610576576000828152600b602090815260408083206001600160a01b0385168085529252808320805460ff1916905551339285917ff6391f5c32d9c69d2a47ea670b442974b53935d1edc7fd64eb21e047a839171b9190a45050565b600080610989836105fa565b9050806001600160a01b0316846001600160a01b031614806109b057506109b08185610769565b806109d45750836001600160a01b03166109c9846103f3565b6001600160a01b0316145b949350505050565b60006109e7826105fa565b90506109f581600084610d8f565b610a00600083610818565b6001600160a01b0381166000908152600360205260408120805460019290610a29908490611d72565b909155505060008281526002602052604080822080546001600160a01b0319169055518391906001600160a01b03841690600080516020611f51833981519152908390a45050565b6000600080516020611f31833981519152610a8b81610886565b6000610a96600c5490565b9050610aa6600c80546001019055565b610ab08482610d9a565b91505b50919050565b33610ac2610692565b6001600160a01b0316146106905760405162461bcd60e51b815260040161045990611c80565b600a80546001600160a01b038381166001600160a01b0319831681179093556040519116919082907f8be0079c531659141344cd1fd0a4f28419497f9722a3daafe3b4186f6b6457e090600090a35050565b816001600160a01b0316836001600160a01b03161415610b6c5760405162461bcd60e51b815260040161045990611c30565b6001600160a01b0383811660008181526005602090815260408083209487168084529490915290819020805460ff1916851515179055517f17307eab39ab6107e8899845ad3d59bd9653f200f220920489ca2b5937696c3190610bd0908590611bb3565b60405180910390a3505050565b6060600d805461037090611ded565b606081610c105750506040805180820190915260018152600360fc1b602082015290565b8160005b8115610c3a5780610c2481611e41565b9150610c339050600a83611d3f565b9150610c14565b6000816001600160401b03811115610c5457610c54611ede565b6040519080825280601f01601f191660200182016040528015610c7e576020820181803683370190505b5090505b84156109d457610c93600183611d72565b9150610ca0600a86611e5c565b610cab906030611d27565b60f81b818381518110610cc057610cc0611ec8565b60200101906001600160f81b031916908160001a905350610ce2600a86611d3f565b9450610c82565b60006001600160e01b0319821663780e9d6360e01b148061035b575061035b82610db4565b6000908152600260205260409020546001600160a01b0316151590565b610d3582826106a1565b61057657610d4d816001600160a01b03166014610e04565b610d58836020610e04565b604051602001610d69929190611b0f565b60408051601f198184030181529082905262461bcd60e51b825261045991600401611bcf565b6104a4838383610f6f565b610576828260405180602001604052806000815250611027565b60006001600160e01b031982166380ac58cd60e01b1480610de557506001600160e01b03198216635b5e139f60e01b145b8061035b57506301ffc9a760e01b6001600160e01b031983161461035b565b60606000610e13836002611d53565b610e1e906002611d27565b6001600160401b03811115610e3557610e35611ede565b6040519080825280601f01601f191660200182016040528015610e5f576020820181803683370190505b509050600360fc1b81600081518110610e7a57610e7a611ec8565b60200101906001600160f81b031916908160001a905350600f60fb1b81600181518110610ea957610ea9611ec8565b60200101906001600160f81b031916908160001a9053506000610ecd846002611d53565b610ed8906001611d27565b90505b6001811115610f50576f181899199a1a9b1b9c1cb0b131b232b360811b85600f1660108110610f0c57610f0c611ec8565b1a60f81b828281518110610f2257610f22611ec8565b60200101906001600160f81b031916908160001a90535060049490941c93610f4981611dd6565b9050610edb565b5083156107465760405162461bcd60e51b815260040161045990611be0565b6001600160a01b038316610fca57610fc581600880546000838152600960205260408120829055600182018355919091527ff3f7a9fe364faab93b216da50a3214154f22a0a2b415b23a84c8169e8b636ee30155565b610fed565b816001600160a01b0316836001600160a01b031614610fed57610fed838261105a565b6001600160a01b038216611004576104a4816110f7565b826001600160a01b0316826001600160a01b0316146104a4576104a482826111a6565b61103183836111ea565b61103e60008484846112b7565b6104a45760405162461bcd60e51b815260040161045990611c00565b600060016110678461063a565b6110719190611d72565b6000838152600760205260409020549091508082146110c4576001600160a01b03841660009081526006602090815260408083208584528252808320548484528184208190558352600790915290208190555b5060009182526007602090815260408084208490556001600160a01b039094168352600681528383209183525290812055565b60085460009061110990600190611d72565b6000838152600960205260408120546008805493945090928490811061113157611131611ec8565b90600052602060002001549050806008838154811061115257611152611ec8565b600091825260208083209091019290925582815260099091526040808220849055858252812055600880548061118a5761118a611eb2565b6001900381819060005260206000200160009055905550505050565b60006111b18361063a565b6001600160a01b039093166000908152600660209081526040808320868452825280832085905593825260079052919091209190915550565b6001600160a01b0382166112105760405162461bcd60e51b815260040161045990611c70565b61121981610d0e565b156112365760405162461bcd60e51b815260040161045990611c20565b61124260008383610d8f565b6001600160a01b038216600090815260036020526040812080546001929061126b908490611d27565b909155505060008181526002602052604080822080546001600160a01b0319166001600160a01b0386169081179091559051839290600080516020611f51833981519152908290a45050565b60006001600160a01b0384163b156113b957604051630a85bd0160e11b81526001600160a01b0385169063150b7a02906112fb903390899088908890600401611b6f565b602060405180830381600087803b15801561131557600080fd5b505af1925050508015611345575060408051601f3d908101601f1916820190925261134291810190611656565b60015b61139f573d808015611373576040519150601f19603f3d011682016040523d82523d6000602084013e611378565b606091505b5080516113975760405162461bcd60e51b815260040161045990611c00565b805181602001fd5b6001600160e01b031916630a85bd0160e11b1490506109d4565b506001949350505050565b60006113d76113d284611cfc565b611ce0565b9050828152602081018484840111156113f2576113f2600080fd5b6113fd848285611d9a565b509392505050565b803561035b81611efe565b803561035b81611f12565b803561035b81611f1a565b803561035b81611f20565b805161035b81611f20565b600082601f83011261145057611450600080fd5b81356109d48482602086016113c4565b60006020828403121561147557611475600080fd5b60006109d48484611405565b6000806040838503121561149757611497600080fd5b60006114a38585611405565b92505060206114b485828601611405565b9150509250929050565b6000806000606084860312156114d6576114d6600080fd5b60006114e28686611405565b93505060206114f386828701611405565b92505060406115048682870161141b565b9150509250925092565b6000806000806080858703121561152757611527600080fd5b60006115338787611405565b945050602061154487828801611405565b93505060406115558782880161141b565b92505060608501356001600160401b0381111561157457611574600080fd5b6115808782880161143c565b91505092959194509250565b600080604083850312156115a2576115a2600080fd5b60006115ae8585611405565b92505060206114b485828601611410565b600080604083850312156115d5576115d5600080fd5b60006115e18585611405565b92505060206114b48582860161141b565b60006020828403121561160757611607600080fd5b60006109d4848461141b565b6000806040838503121561162957611629600080fd5b60006114a3858561141b565b60006020828403121561164a5761164a600080fd5b60006109d48484611426565b60006020828403121561166b5761166b600080fd5b60006109d48484611431565b61168081611d89565b82525050565b801515611680565b80611680565b600061169e825190565b8084526020840193506116b5818560208601611da6565b6116be81611ef4565b9093019392505050565b60006116d2825190565b6116e0818560208601611da6565b9290920192915050565b60208082527f537472696e67733a20686578206c656e67746820696e73756666696369656e74910190815260005b5060200190565b602b81526000602082017f455243373231456e756d657261626c653a206f776e657220696e646578206f7581526a74206f6620626f756e647360a81b602082015291505b5060400190565b603281526000602082017f4552433732313a207472616e7366657220746f206e6f6e20455243373231526581527131b2b4bb32b91034b6b83632b6b2b73a32b960711b60208201529150611763565b602681526000602082017f4f776e61626c653a206e6577206f776e657220697320746865207a65726f206181526564647265737360d01b60208201529150611763565b601c81526000602082017b115490cdcc8c4e881d1bdad95b88185b1c9958591e481b5a5b9d195960221b81529150611718565b601981526000602082017822a9219b99189d1030b8383937bb32903a379031b0b63632b960391b81529150611718565b601a81526000602082017914d09517d514905394d1915497d393d517d4115493525515115160321b81529150611718565b602981526000602082017f4552433732313a2061646472657373207a65726f206973206e6f7420612076618152683634b21037bbb732b960b91b60208201529150611763565b603e81526000602082017f4552433732313a20617070726f76652063616c6c6572206973206e6f7420746f81527f6b656e206f776e6572206e6f7220617070726f76656420666f7220616c6c000060208201529150611763565b60208082527f4552433732313a206d696e7420746f20746865207a65726f206164647265737391019081526000611718565b60208082527f4f776e61626c653a2063616c6c6572206973206e6f7420746865206f776e657291019081526000611718565b6018815260006020820177115490cdcc8c4e881a5b9d985b1a59081d1bdad95b88125160421b81529150611718565b602181526000602082017f4552433732313a20617070726f76616c20746f2063757272656e74206f776e658152603960f91b60208201529150611763565b602c81526000602082017f455243373231456e756d657261626c653a20676c6f62616c20696e646578206f81526b7574206f6620626f756e647360a01b60208201529150611763565b602e81526000602082017f4552433732313a2063616c6c6572206973206e6f7420746f6b656e206f776e6581526d1c881b9bdc88185c1c1c9bdd995960921b60208201529150611763565b602f81526000602082017f416363657373436f6e74726f6c3a2063616e206f6e6c792072656e6f756e636581526e103937b632b9903337b91039b2b63360891b60208201529150611763565b6000611aed82856116c8565b9150611af982846116c8565b64173539b7b760d91b81529150600582016109d4565b76020b1b1b2b9b9a1b7b73a3937b61d1030b1b1b7bab73a1604d1b81526017016000611b3b82856116c8565b7001034b99036b4b9b9b4b733903937b6329607d1b815260110191506109d482846116c8565b6020810161035b8284611677565b60808101611b7d8287611677565b611b8a6020830186611677565b611b97604083018561168e565b8181036060830152611ba98184611694565b9695505050505050565b6020810161035b8284611686565b6020810161035b828461168e565b602080825281016107468184611694565b6020808252810161035b816116ea565b6020808252810161035b8161171f565b6020808252810161035b8161176a565b6020808252810161035b816117b9565b6020808252810161035b816117fc565b6020808252810161035b8161182f565b6020808252810161035b8161185f565b6020808252810161035b81611890565b6020808252810161035b816118d6565b6020808252810161035b81611930565b6020808252810161035b81611962565b6020808252810161035b81611994565b6020808252810161035b816119c3565b6020808252810161035b81611a01565b6020808252810161035b81611a4a565b6020808252810161035b81611a95565b6000611ceb60405190565b9050611cf78282611e14565b919050565b60006001600160401b03821115611d1557611d15611ede565b611d1e82611ef4565b60200192915050565b60008219821115611d3a57611d3a611e70565b500190565b600082611d4e57611d4e611e86565b500490565b6000816000190483118215151615611d6d57611d6d611e70565b500290565b600082821015611d8457611d84611e70565b500390565b60006001600160a01b03821661035b565b82818337506000910152565b60005b83811015611dc1578181015183820152602001611da9565b83811115611dd0576000848401525b50505050565b600081611de557611de5611e70565b506000190190565b600281046001821680611e0157607f821691505b60208210811415610ab357610ab3611e9c565b611e1d82611ef4565b81018181106001600160401b0382111715611e3a57611e3a611ede565b6040525050565b6000600019821415611e5557611e55611e70565b5060010190565b600082611e6b57611e6b611e86565b500690565b634e487b7160e01b600052601160045260246000fd5b634e487b7160e01b600052601260045260246000fd5b634e487b7160e01b600052602260045260246000fd5b634e487b7160e01b600052603160045260246000fd5b634e487b7160e01b600052603260045260246000fd5b634e487b7160e01b600052604160045260246000fd5b601f01601f191690565b611f0781611d89565b81146105a957600080fd5b801515611f07565b80611f07565b6001600160e01b03198116611f0756fe9f2df0fed2c77648de5860a4cc508cd0818c85b8b8a1ab4ceeef8d981c8956a6ddf252ad1be2c89b69c2b068fc378daa952ba7f163c4a11628f55a4df523b3efa264697066735822122065de8d45659fa9828b5d48effb73e529b2e323ec077daf25b0c99fa54cbd6d9764736f6c63430008070033",
  "devdoc": {
    "author": "Masa Finance",
    "details": "Soulbound credit report, that inherits from the SBT contract.",
    "kind": "dev",
    "methods": {
      "approve(address,uint256)": {
        "details": "See {IERC721-approve}."
      },
      "balanceOf(address)": {
        "details": "See {IERC721-balanceOf}."
      },
      "burn(uint256)": {
        "details": "Burns `tokenId`. See {ERC721-_burn}. Requirements: - The caller must own `tokenId` or be an approved operator."
      },
      "constructor": {
        "details": "Creates a new soulbound credit report, inheriting from the SBT contract.",
        "params": {
          "baseTokenURI": "Base URI of the token",
          "owner": "Owner of the smart contract"
        }
      },
      "getApproved(uint256)": {
        "details": "See {IERC721-getApproved}."
      },
      "getRoleAdmin(bytes32)": {
        "details": "Returns the admin role that controls `role`. See {grantRole} and {revokeRole}. To change a role's admin, use {_setRoleAdmin}."
      },
      "grantRole(bytes32,address)": {
        "details": "Grants `role` to `account`. If `account` had not been already granted `role`, emits a {RoleGranted} event. Requirements: - the caller must have ``role``'s admin role. May emit a {RoleGranted} event."
      },
      "hasRole(bytes32,address)": {
        "details": "Returns `true` if `account` has been granted `role`."
      },
      "isApprovedForAll(address,address)": {
        "details": "See {IERC721-isApprovedForAll}."
      },
      "mint(address)": {
        "details": "The caller must have the MINTER role",
        "params": {
          "to": "The address to mint the NFT to"
        },
        "returns": {
          "_0": "The NFT ID of the newly minted NFT"
        }
      },
      "name()": {
        "details": "See {IERC721Metadata-name}."
      },
      "owner()": {
        "details": "Returns the address of the current owner."
      },
      "ownerOf(uint256)": {
        "details": "See {IERC721-ownerOf}."
      },
      "renounceOwnership()": {
        "details": "Leaves the contract without owner. It will not be possible to call `onlyOwner` functions anymore. Can only be called by the current owner. NOTE: Renouncing ownership will leave the contract without an owner, thereby removing any functionality that is only available to the owner."
      },
      "renounceRole(bytes32,address)": {
        "details": "Revokes `role` from the calling account. Roles are often managed via {grantRole} and {revokeRole}: this function's purpose is to provide a mechanism for accounts to lose their privileges if they are compromised (such as when a trusted device is misplaced). If the calling account had been revoked `role`, emits a {RoleRevoked} event. Requirements: - the caller must be `account`. May emit a {RoleRevoked} event."
      },
      "revokeRole(bytes32,address)": {
        "details": "Revokes `role` from `account`. If `account` had been granted `role`, emits a {RoleRevoked} event. Requirements: - the caller must have ``role``'s admin role. May emit a {RoleRevoked} event."
      },
      "safeTransferFrom(address,address,uint256)": {
        "details": "This will raise an exception because the token is not transferable."
      },
      "safeTransferFrom(address,address,uint256,bytes)": {
        "details": "This will raise an exception because the token is not transferable."
      },
      "setApprovalForAll(address,bool)": {
        "details": "See {IERC721-setApprovalForAll}."
      },
      "supportsInterface(bytes4)": {
        "details": "Interface identification is specified in ERC-165.",
        "params": {
          "interfaceId": "The interface identifier, as specified in ERC-165"
        },
        "returns": {
          "_0": "`true` if the contract implements `interfaceId` and  `interfaceId` is not 0xffffffff, `false` otherwise"
        }
      },
      "symbol()": {
        "details": "See {IERC721Metadata-symbol}."
      },
      "tokenByIndex(uint256)": {
        "details": "See {IERC721Enumerable-tokenByIndex}."
      },
      "tokenOfOwnerByIndex(address,uint256)": {
        "details": "See {IERC721Enumerable-tokenOfOwnerByIndex}."
      },
      "tokenURI(uint256)": {
        "details": "Throws if `_tokenId` is not a valid NFT. URIs are defined in RFC  3986. The URI may point to a JSON file that conforms to the \"ERC721  Metadata JSON Schema\".",
        "params": {
          "tokenId": "NFT to get the URI of"
        },
        "returns": {
          "_0": "URI of the NFT"
        }
      },
      "totalSupply()": {
        "details": "See {IERC721Enumerable-totalSupply}."
      },
      "transferFrom(address,address,uint256)": {
        "details": "This will raise an exception because the token is not transferable."
      },
      "transferOwnership(address)": {
        "details": "Transfers ownership of the contract to a new account (`newOwner`). Can only be called by the current owner."
      }
    },
    "title": "Soulbound Credit Report",
    "version": 1
  },
  "userdoc": {
    "kind": "user",
    "methods": {
      "constructor": {
        "notice": "Creates a new soulbound credit report"
      },
      "mint(address)": {
        "notice": "Mints a new NFT"
      },
      "safeTransferFrom(address,address,uint256)": {
        "notice": "Transfers the ownership of an NFT from one address to another address"
      },
      "safeTransferFrom(address,address,uint256,bytes)": {
        "notice": "Transfer ownership of the token to another address safely"
      },
      "supportsInterface(bytes4)": {
        "notice": "Query if a contract implements an interface"
      },
      "tokenURI(uint256)": {
        "notice": "A distinct Uniform Resource Identifier (URI) for a given asset."
      },
      "transferFrom(address,address,uint256)": {
        "notice": "Transfer ownership of an NFT -- THE CALLER IS RESPONSIBLE  TO CONFIRM THAT `_to` IS CAPABLE OF RECEIVING NFTS OR ELSE  THEY MAY BE PERMANENTLY LOST"
      }
    },
    "notice": "Soulbound token that represents a credit report.",
    "version": 1
  },
  "storageLayout": {
    "storage": [
      {
        "astId": 1537,
        "contract": "contracts/SoulboundCreditReport.sol:SoulboundCreditReport",
        "label": "_name",
        "offset": 0,
        "slot": "0",
        "type": "t_string_storage"
      },
      {
        "astId": 1539,
        "contract": "contracts/SoulboundCreditReport.sol:SoulboundCreditReport",
        "label": "_symbol",
        "offset": 0,
        "slot": "1",
        "type": "t_string_storage"
      },
      {
        "astId": 1543,
        "contract": "contracts/SoulboundCreditReport.sol:SoulboundCreditReport",
        "label": "_owners",
        "offset": 0,
        "slot": "2",
        "type": "t_mapping(t_uint256,t_address)"
      },
      {
        "astId": 1547,
        "contract": "contracts/SoulboundCreditReport.sol:SoulboundCreditReport",
        "label": "_balances",
        "offset": 0,
        "slot": "3",
        "type": "t_mapping(t_address,t_uint256)"
      },
      {
        "astId": 1551,
        "contract": "contracts/SoulboundCreditReport.sol:SoulboundCreditReport",
        "label": "_tokenApprovals",
        "offset": 0,
        "slot": "4",
        "type": "t_mapping(t_uint256,t_address)"
      },
      {
        "astId": 1557,
        "contract": "contracts/SoulboundCreditReport.sol:SoulboundCreditReport",
        "label": "_operatorApprovals",
        "offset": 0,
        "slot": "5",
        "type": "t_mapping(t_address,t_mapping(t_address,t_bool))"
      },
      {
        "astId": 2557,
        "contract": "contracts/SoulboundCreditReport.sol:SoulboundCreditReport",
        "label": "_ownedTokens",
        "offset": 0,
        "slot": "6",
        "type": "t_mapping(t_address,t_mapping(t_uint256,t_uint256))"
      },
      {
        "astId": 2561,
        "contract": "contracts/SoulboundCreditReport.sol:SoulboundCreditReport",
        "label": "_ownedTokensIndex",
        "offset": 0,
        "slot": "7",
        "type": "t_mapping(t_uint256,t_uint256)"
      },
      {
        "astId": 2564,
        "contract": "contracts/SoulboundCreditReport.sol:SoulboundCreditReport",
        "label": "_allTokens",
        "offset": 0,
        "slot": "8",
        "type": "t_array(t_uint256)dyn_storage"
      },
      {
        "astId": 2568,
        "contract": "contracts/SoulboundCreditReport.sol:SoulboundCreditReport",
        "label": "_allTokensIndex",
        "offset": 0,
        "slot": "9",
        "type": "t_mapping(t_uint256,t_uint256)"
      },
      {
        "astId": 400,
        "contract": "contracts/SoulboundCreditReport.sol:SoulboundCreditReport",
        "label": "_owner",
        "offset": 0,
        "slot": "10",
        "type": "t_address"
      },
      {
        "astId": 24,
        "contract": "contracts/SoulboundCreditReport.sol:SoulboundCreditReport",
        "label": "_roles",
        "offset": 0,
        "slot": "11",
        "type": "t_mapping(t_bytes32,t_struct(RoleData)19_storage)"
      },
      {
        "astId": 7680,
        "contract": "contracts/SoulboundCreditReport.sol:SoulboundCreditReport",
        "label": "_tokenIdCounter",
        "offset": 0,
        "slot": "12",
        "type": "t_struct(Counter)3261_storage"
      },
      {
        "astId": 7682,
        "contract": "contracts/SoulboundCreditReport.sol:SoulboundCreditReport",
        "label": "_baseTokenURI",
        "offset": 0,
        "slot": "13",
        "type": "t_string_storage"
      }
    ],
    "types": {
      "t_address": {
        "encoding": "inplace",
        "label": "address",
        "numberOfBytes": "20"
      },
      "t_array(t_uint256)dyn_storage": {
        "base": "t_uint256",
        "encoding": "dynamic_array",
        "label": "uint256[]",
        "numberOfBytes": "32"
      },
      "t_bool": {
        "encoding": "inplace",
        "label": "bool",
        "numberOfBytes": "1"
      },
      "t_bytes32": {
        "encoding": "inplace",
        "label": "bytes32",
        "numberOfBytes": "32"
      },
      "t_mapping(t_address,t_bool)": {
        "encoding": "mapping",
        "key": "t_address",
        "label": "mapping(address => bool)",
        "numberOfBytes": "32",
        "value": "t_bool"
      },
      "t_mapping(t_address,t_mapping(t_address,t_bool))": {
        "encoding": "mapping",
        "key": "t_address",
        "label": "mapping(address => mapping(address => bool))",
        "numberOfBytes": "32",
        "value": "t_mapping(t_address,t_bool)"
      },
      "t_mapping(t_address,t_mapping(t_uint256,t_uint256))": {
        "encoding": "mapping",
        "key": "t_address",
        "label": "mapping(address => mapping(uint256 => uint256))",
        "numberOfBytes": "32",
        "value": "t_mapping(t_uint256,t_uint256)"
      },
      "t_mapping(t_address,t_uint256)": {
        "encoding": "mapping",
        "key": "t_address",
        "label": "mapping(address => uint256)",
        "numberOfBytes": "32",
        "value": "t_uint256"
      },
      "t_mapping(t_bytes32,t_struct(RoleData)19_storage)": {
        "encoding": "mapping",
        "key": "t_bytes32",
        "label": "mapping(bytes32 => struct AccessControl.RoleData)",
        "numberOfBytes": "32",
        "value": "t_struct(RoleData)19_storage"
      },
      "t_mapping(t_uint256,t_address)": {
        "encoding": "mapping",
        "key": "t_uint256",
        "label": "mapping(uint256 => address)",
        "numberOfBytes": "32",
        "value": "t_address"
      },
      "t_mapping(t_uint256,t_uint256)": {
        "encoding": "mapping",
        "key": "t_uint256",
        "label": "mapping(uint256 => uint256)",
        "numberOfBytes": "32",
        "value": "t_uint256"
      },
      "t_string_storage": {
        "encoding": "bytes",
        "label": "string",
        "numberOfBytes": "32"
      },
      "t_struct(Counter)3261_storage": {
        "encoding": "inplace",
        "label": "struct Counters.Counter",
        "members": [
          {
            "astId": 3260,
            "contract": "contracts/SoulboundCreditReport.sol:SoulboundCreditReport",
            "label": "_value",
            "offset": 0,
            "slot": "0",
            "type": "t_uint256"
          }
        ],
        "numberOfBytes": "32"
      },
      "t_struct(RoleData)19_storage": {
        "encoding": "inplace",
        "label": "struct AccessControl.RoleData",
        "members": [
          {
            "astId": 16,
            "contract": "contracts/SoulboundCreditReport.sol:SoulboundCreditReport",
            "label": "members",
            "offset": 0,
            "slot": "0",
            "type": "t_mapping(t_address,t_bool)"
          },
          {
            "astId": 18,
            "contract": "contracts/SoulboundCreditReport.sol:SoulboundCreditReport",
            "label": "adminRole",
            "offset": 0,
            "slot": "1",
            "type": "t_bytes32"
          }
        ],
        "numberOfBytes": "64"
      },
      "t_uint256": {
        "encoding": "inplace",
        "label": "uint256",
        "numberOfBytes": "32"
      }
    }
  }
}