{
  "address": "0x57B2570C31da530091cC72770f5DbBCb7C4B3d98",
  "abi": [
    {
      "inputs": [
        {
          "internalType": "address",
          "name": "owner",
          "type": "address"
        },
        {
          "internalType": "contract ISoulboundIdentity",
          "name": "_soulboundIdentity",
          "type": "address"
        },
        {
          "components": [
            {
              "internalType": "address",
              "name": "swapRouter",
              "type": "address"
            },
            {
              "internalType": "address",
              "name": "wrappedNativeToken",
              "type": "address"
            },
            {
              "internalType": "address",
              "name": "stableCoin",
              "type": "address"
            },
            {
              "internalType": "address",
              "name": "masaToken",
              "type": "address"
            },
            {
              "internalType": "address",
              "name": "reserveWallet",
              "type": "address"
            }
          ],
          "internalType": "struct PaymentGateway.PaymentParams",
          "name": "paymentParams",
          "type": "tuple"
        }
      ],
      "stateMutability": "nonpayable",
      "type": "constructor"
    },
    {
      "inputs": [],
      "name": "AlreadyAdded",
      "type": "error"
    },
    {
      "inputs": [
        {
          "internalType": "address",
          "name": "caller",
          "type": "address"
        }
      ],
      "name": "CallerNotOwner",
      "type": "error"
    },
    {
      "inputs": [
        {
          "internalType": "address",
          "name": "caller",
          "type": "address"
        }
      ],
      "name": "CallerNotReader",
      "type": "error"
    },
    {
      "inputs": [
        {
          "internalType": "uint256",
          "name": "tokenId",
          "type": "uint256"
        },
        {
          "internalType": "uint256",
          "name": "ownerIdentityId",
          "type": "uint256"
        }
      ],
      "name": "IdentityOwnerNotTokenOwner",
      "type": "error"
    },
    {
      "inputs": [
        {
          "internalType": "uint256",
          "name": "amount",
          "type": "uint256"
        }
      ],
      "name": "InsufficientEthAmount",
      "type": "error"
    },
    {
      "inputs": [
        {
          "internalType": "address",
          "name": "paymentMethod",
          "type": "address"
        }
      ],
      "name": "InvalidPaymentMethod",
      "type": "error"
    },
    {
      "inputs": [],
      "name": "InvalidSignature",
      "type": "error"
    },
    {
      "inputs": [
        {
          "internalType": "address",
          "name": "token",
          "type": "address"
        }
      ],
      "name": "InvalidToken",
      "type": "error"
    },
    {
      "inputs": [],
      "name": "LinkAlreadyRevoked",
      "type": "error"
    },
    {
      "inputs": [],
      "name": "LinkDoesNotExist",
      "type": "error"
    },
    {
      "inputs": [
        {
          "internalType": "address",
          "name": "erc20token",
          "type": "address"
        }
      ],
      "name": "NonExistingErc20Token",
      "type": "error"
    },
    {
      "inputs": [],
      "name": "RefundFailed",
      "type": "error"
    },
    {
      "inputs": [],
      "name": "SameValue",
      "type": "error"
    },
    {
      "inputs": [],
      "name": "TransferFailed",
      "type": "error"
    },
    {
      "inputs": [
        {
          "internalType": "uint256",
          "name": "expirationDate",
          "type": "uint256"
        }
      ],
      "name": "ValidPeriodExpired",
      "type": "error"
    },
    {
      "inputs": [],
      "name": "ZeroAddress",
      "type": "error"
    },
    {
      "anonymous": false,
      "inputs": [
        {
          "indexed": false,
          "internalType": "uint256",
          "name": "readerIdentityId",
          "type": "uint256"
        },
        {
          "indexed": false,
          "internalType": "uint256",
          "name": "ownerIdentityId",
          "type": "uint256"
        },
        {
          "indexed": false,
          "internalType": "address",
          "name": "token",
          "type": "address"
        },
        {
          "indexed": false,
          "internalType": "uint256",
          "name": "tokenId",
          "type": "uint256"
        },
        {
          "indexed": false,
          "internalType": "uint256",
          "name": "signatureDate",
          "type": "uint256"
        },
        {
          "indexed": false,
          "internalType": "uint256",
          "name": "expirationDate",
          "type": "uint256"
        }
      ],
      "name": "LinkAdded",
      "type": "event"
    },
    {
      "anonymous": false,
      "inputs": [
        {
          "indexed": false,
          "internalType": "uint256",
          "name": "readerIdentityId",
          "type": "uint256"
        },
        {
          "indexed": false,
          "internalType": "uint256",
          "name": "ownerIdentityId",
          "type": "uint256"
        },
        {
          "indexed": false,
          "internalType": "address",
          "name": "token",
          "type": "address"
        },
        {
          "indexed": false,
          "internalType": "uint256",
          "name": "tokenId",
          "type": "uint256"
        },
        {
          "indexed": false,
          "internalType": "uint256",
          "name": "signatureDate",
          "type": "uint256"
        }
      ],
      "name": "LinkRevoked",
      "type": "event"
    },
    {
      "anonymous": false,
      "inputs": [
        {
          "indexed": true,
          "internalType": "address",
          "name": "previousOwner",
          "type": "address"
        },
        {
          "indexed": true,
          "internalType": "address",
          "name": "newOwner",
          "type": "address"
        }
      ],
      "name": "OwnershipTransferred",
      "type": "event"
    },
    {
      "anonymous": false,
      "inputs": [
        {
          "indexed": false,
          "internalType": "address",
          "name": "account",
          "type": "address"
        }
      ],
      "name": "Paused",
      "type": "event"
    },
    {
      "anonymous": false,
      "inputs": [
        {
          "indexed": false,
          "internalType": "address",
          "name": "account",
          "type": "address"
        }
      ],
      "name": "Unpaused",
      "type": "event"
    },
    {
      "inputs": [
        {
          "internalType": "address",
          "name": "paymentMethod",
          "type": "address"
        },
        {
          "internalType": "uint256",
          "name": "readerIdentityId",
          "type": "uint256"
        },
        {
          "internalType": "uint256",
          "name": "ownerIdentityId",
          "type": "uint256"
        },
        {
          "internalType": "address",
          "name": "token",
          "type": "address"
        },
        {
          "internalType": "uint256",
          "name": "tokenId",
          "type": "uint256"
        },
        {
          "internalType": "uint256",
          "name": "signatureDate",
          "type": "uint256"
        },
        {
          "internalType": "uint256",
          "name": "expirationDate",
          "type": "uint256"
        },
        {
          "internalType": "bytes",
          "name": "signature",
          "type": "bytes"
        }
      ],
      "name": "addLink",
      "outputs": [],
      "stateMutability": "payable",
      "type": "function"
    },
    {
      "inputs": [
        {
          "internalType": "address",
          "name": "_paymentMethod",
          "type": "address"
        }
      ],
      "name": "disablePaymentMethod",
      "outputs": [],
      "stateMutability": "nonpayable",
      "type": "function"
    },
    {
      "inputs": [
        {
          "internalType": "address",
          "name": "_paymentMethod",
          "type": "address"
        }
      ],
      "name": "enablePaymentMethod",
      "outputs": [],
      "stateMutability": "nonpayable",
      "type": "function"
    },
    {
      "inputs": [
        {
          "internalType": "address",
          "name": "",
          "type": "address"
        }
      ],
      "name": "enabledPaymentMethod",
      "outputs": [
        {
          "internalType": "bool",
          "name": "",
          "type": "bool"
        }
      ],
      "stateMutability": "view",
      "type": "function"
    },
    {
      "inputs": [
        {
          "internalType": "uint256",
          "name": "",
          "type": "uint256"
        }
      ],
      "name": "enabledPaymentMethods",
      "outputs": [
        {
          "internalType": "address",
          "name": "",
          "type": "address"
        }
      ],
      "stateMutability": "view",
      "type": "function"
    },
    {
      "inputs": [],
      "name": "getEnabledPaymentMethods",
      "outputs": [
        {
          "internalType": "address[]",
          "name": "",
          "type": "address[]"
        }
      ],
      "stateMutability": "view",
      "type": "function"
    },
    {
      "inputs": [
        {
          "internalType": "address",
          "name": "token",
          "type": "address"
        },
        {
          "internalType": "uint256",
          "name": "tokenId",
          "type": "uint256"
        }
      ],
      "name": "getIdentityId",
      "outputs": [
        {
          "internalType": "uint256",
          "name": "",
          "type": "uint256"
        }
      ],
      "stateMutability": "view",
      "type": "function"
    },
    {
      "inputs": [
        {
          "internalType": "address",
          "name": "token",
          "type": "address"
        },
        {
          "internalType": "uint256",
          "name": "tokenId",
          "type": "uint256"
        },
        {
          "internalType": "uint256",
          "name": "readerIdentityId",
          "type": "uint256"
        },
        {
          "internalType": "uint256",
          "name": "signatureDate",
          "type": "uint256"
        }
      ],
      "name": "getLinkInfo",
      "outputs": [
        {
          "components": [
            {
              "internalType": "uint256",
              "name": "ownerIdentityId",
              "type": "uint256"
            },
            {
              "internalType": "uint256",
              "name": "expirationDate",
              "type": "uint256"
            },
            {
              "internalType": "bool",
              "name": "isRevoked",
              "type": "bool"
            }
          ],
          "internalType": "struct SoulLinker.LinkData",
          "name": "",
          "type": "tuple"
        }
      ],
      "stateMutability": "view",
      "type": "function"
    },
    {
      "inputs": [
        {
          "internalType": "address",
          "name": "token",
          "type": "address"
        },
        {
          "internalType": "uint256",
          "name": "tokenId",
          "type": "uint256"
        },
        {
          "internalType": "uint256",
          "name": "readerIdentityId",
          "type": "uint256"
        }
      ],
      "name": "getLinkSignatureDates",
      "outputs": [
        {
          "internalType": "uint256[]",
          "name": "",
          "type": "uint256[]"
        }
      ],
      "stateMutability": "view",
      "type": "function"
    },
    {
      "inputs": [
        {
          "internalType": "address",
          "name": "token",
          "type": "address"
        },
        {
          "internalType": "uint256",
          "name": "tokenId",
          "type": "uint256"
        }
      ],
      "name": "getLinks",
      "outputs": [
        {
          "components": [
            {
              "internalType": "uint256",
              "name": "readerIdentityId",
              "type": "uint256"
            },
            {
              "internalType": "uint256",
              "name": "signatureDate",
              "type": "uint256"
            }
          ],
          "internalType": "struct SoulLinker.LinkKey[]",
          "name": "",
          "type": "tuple[]"
        }
      ],
      "stateMutability": "view",
      "type": "function"
    },
    {
      "inputs": [
        {
          "internalType": "address",
          "name": "paymentMethod",
          "type": "address"
        },
        {
          "internalType": "address",
          "name": "token",
          "type": "address"
        }
      ],
      "name": "getPriceForAddLink",
      "outputs": [
        {
          "internalType": "uint256",
          "name": "",
          "type": "uint256"
        }
      ],
      "stateMutability": "view",
      "type": "function"
    },
    {
      "inputs": [
        {
          "internalType": "uint256",
          "name": "identityId",
          "type": "uint256"
        },
        {
          "internalType": "address",
          "name": "token",
          "type": "address"
        }
      ],
      "name": "getSBTConnections",
      "outputs": [
        {
          "internalType": "uint256[]",
          "name": "",
          "type": "uint256[]"
        }
      ],
      "stateMutability": "view",
      "type": "function"
    },
    {
      "inputs": [
        {
          "internalType": "address",
          "name": "owner",
          "type": "address"
        },
        {
          "internalType": "address",
          "name": "token",
          "type": "address"
        }
      ],
      "name": "getSBTConnections",
      "outputs": [
        {
          "internalType": "uint256[]",
          "name": "",
          "type": "uint256[]"
        }
      ],
      "stateMutability": "view",
      "type": "function"
    },
    {
      "inputs": [],
      "name": "masaToken",
      "outputs": [
        {
          "internalType": "address",
          "name": "",
          "type": "address"
        }
      ],
      "stateMutability": "view",
      "type": "function"
    },
    {
      "inputs": [],
      "name": "owner",
      "outputs": [
        {
          "internalType": "address",
          "name": "",
          "type": "address"
        }
      ],
      "stateMutability": "view",
      "type": "function"
    },
    {
      "inputs": [],
      "name": "pause",
      "outputs": [],
      "stateMutability": "nonpayable",
      "type": "function"
    },
    {
      "inputs": [],
      "name": "paused",
      "outputs": [
        {
          "internalType": "bool",
          "name": "",
          "type": "bool"
        }
      ],
      "stateMutability": "view",
      "type": "function"
    },
    {
      "inputs": [],
      "name": "renounceOwnership",
      "outputs": [],
      "stateMutability": "nonpayable",
      "type": "function"
    },
    {
      "inputs": [],
      "name": "reserveWallet",
      "outputs": [
        {
          "internalType": "address",
          "name": "",
          "type": "address"
        }
      ],
      "stateMutability": "view",
      "type": "function"
    },
    {
      "inputs": [
        {
          "internalType": "uint256",
          "name": "readerIdentityId",
          "type": "uint256"
        },
        {
          "internalType": "uint256",
          "name": "ownerIdentityId",
          "type": "uint256"
        },
        {
          "internalType": "address",
          "name": "token",
          "type": "address"
        },
        {
          "internalType": "uint256",
          "name": "tokenId",
          "type": "uint256"
        },
        {
          "internalType": "uint256",
          "name": "signatureDate",
          "type": "uint256"
        }
      ],
      "name": "revokeLink",
      "outputs": [],
      "stateMutability": "nonpayable",
      "type": "function"
    },
    {
      "inputs": [
        {
          "internalType": "address",
          "name": "_masaToken",
          "type": "address"
        }
      ],
      "name": "setMasaToken",
      "outputs": [],
      "stateMutability": "nonpayable",
      "type": "function"
    },
    {
      "inputs": [
        {
          "internalType": "address",
          "name": "_reserveWallet",
          "type": "address"
        }
      ],
      "name": "setReserveWallet",
      "outputs": [],
      "stateMutability": "nonpayable",
      "type": "function"
    },
    {
      "inputs": [
        {
          "internalType": "contract ISoulboundIdentity",
          "name": "_soulboundIdentity",
          "type": "address"
        }
      ],
      "name": "setSoulboundIdentity",
      "outputs": [],
      "stateMutability": "nonpayable",
      "type": "function"
    },
    {
      "inputs": [
        {
          "internalType": "address",
          "name": "_stableCoin",
          "type": "address"
        }
      ],
      "name": "setStableCoin",
      "outputs": [],
      "stateMutability": "nonpayable",
      "type": "function"
    },
    {
      "inputs": [
        {
          "internalType": "address",
          "name": "_swapRouter",
          "type": "address"
        }
      ],
      "name": "setSwapRouter",
      "outputs": [],
      "stateMutability": "nonpayable",
      "type": "function"
    },
    {
      "inputs": [
        {
          "internalType": "address",
          "name": "_wrappedNativeToken",
          "type": "address"
        }
      ],
      "name": "setWrappedNativeToken",
      "outputs": [],
      "stateMutability": "nonpayable",
      "type": "function"
    },
    {
      "inputs": [],
      "name": "soulboundIdentity",
      "outputs": [
        {
          "internalType": "contract ISoulboundIdentity",
          "name": "",
          "type": "address"
        }
      ],
      "stateMutability": "view",
      "type": "function"
    },
    {
      "inputs": [],
      "name": "stableCoin",
      "outputs": [
        {
          "internalType": "address",
          "name": "",
          "type": "address"
        }
      ],
      "stateMutability": "view",
      "type": "function"
    },
    {
      "inputs": [],
      "name": "swapRouter",
      "outputs": [
        {
          "internalType": "address",
          "name": "",
          "type": "address"
        }
      ],
      "stateMutability": "view",
      "type": "function"
    },
    {
      "inputs": [
        {
          "internalType": "address",
          "name": "newOwner",
          "type": "address"
        }
      ],
      "name": "transferOwnership",
      "outputs": [],
      "stateMutability": "nonpayable",
      "type": "function"
    },
    {
      "inputs": [],
      "name": "unpause",
      "outputs": [],
      "stateMutability": "nonpayable",
      "type": "function"
    },
    {
      "inputs": [
        {
          "internalType": "uint256",
          "name": "readerIdentityId",
          "type": "uint256"
        },
        {
          "internalType": "uint256",
          "name": "ownerIdentityId",
          "type": "uint256"
        },
        {
          "internalType": "address",
          "name": "token",
          "type": "address"
        },
        {
          "internalType": "uint256",
          "name": "tokenId",
          "type": "uint256"
        },
        {
          "internalType": "uint256",
          "name": "signatureDate",
          "type": "uint256"
        }
      ],
      "name": "validateLink",
      "outputs": [
        {
          "internalType": "bool",
          "name": "",
          "type": "bool"
        }
      ],
      "stateMutability": "view",
      "type": "function"
    },
    {
      "inputs": [],
      "name": "wrappedNativeToken",
      "outputs": [
        {
          "internalType": "address",
          "name": "",
          "type": "address"
        }
      ],
      "stateMutability": "view",
      "type": "function"
    }
  ],
  "transactionHash": "0x381213a1b01ac288bcf0f8678ac2e5ba911f0e05e2e8227df34c49af18265214",
  "args": [
    "0xA38dd237a3A8D50537B74a4B0D4E7E8A5359386F",
    "0x43B0b4a74dc61a282028E7021563F16eE52ad77e",
    [
      "0x7a250d5630B4cF539739dF2C5dAcb4c659F2488D",
      "0xB4FBF271143F4FBf7B91A5ded31805e42b2208d6",
      "0xD87Ba7A50B2E7E660f678A895E4B72E7CB4CCd9C",
      "0x1f9840a85d5aF5bf1D1762F925BDADdC4201F984",
      "0xA38dd237a3A8D50537B74a4B0D4E7E8A5359386F"
    ]
  ],
  "numDeployments": 7,
  "solcInputHash": "a95a8822f0a1f06fa6cc71e46ace0e56",
  "bytecode": "0x6101406040523480156200001257600080fd5b5060405162003e4738038062003e47833981016040819052620000359162000443565b6040518060400160405280600a81526020016929b7bab62634b735b2b960b11b815250604051806040016040528060058152602001640312e302e360dc1b8152508483620000926200008c6200028660201b60201c565b6200028a565b80516001600160a01b0316620000bb5760405163d92e233d60e01b815260040160405180910390fd5b60208101516001600160a01b0316620000e75760405163d92e233d60e01b815260040160405180910390fd5b60408101516001600160a01b0316620001135760405163d92e233d60e01b815260040160405180910390fd5b60808101516001600160a01b03166200013f5760405163d92e233d60e01b815260040160405180910390fd5b6200015582620002da60201b62001dc91760201c565b8051600180546001600160a01b03199081166001600160a01b03938416179091556020808401516002805484169185169190911790556040840151600380548416918516919091179055606084015160048054841691851691909117905560809093015160078054909216921691909117905583518482012083519184019190912060e08290526101008190524660a0529091507f8b73c3c69bb8fe3d512ecc4cf759cc79239f7b179b0ffacaa9a75d522b39400f6200021781848462000324565b6080523060601b60c0526101205250506007805460ff60a01b1916905550506001600160a01b0382166200025e5760405163d92e233d60e01b815260040160405180910390fd5b50600880546001600160a01b0319166001600160a01b03929092169190911790555062000634565b3390565b600080546001600160a01b038381166001600160a01b0319831681178455604051919092169283917f8be0079c531659141344cd1fd0a4f28419497f9722a3daafe3b4186f6b6457e09190a35050565b620002e462000360565b6001600160a01b038116620003165760405162461bcd60e51b81526004016200030d9062000509565b60405180910390fd5b62000321816200028a565b50565b6000838383463060405160200162000341959493929190620004b3565b6040516020818303038152906040528051906020012090509392505050565b6000546001600160a01b031633146200038d5760405162461bcd60e51b81526004016200030d9062000554565b565b80516200039c8162000612565b92915050565b80516200039c8162000629565b600060a08284031215620003c657620003c6600080fd5b620003d260a06200058f565b90506000620003e284846200038f565b8252506020620003f5848483016200038f565b60208301525060406200040b848285016200038f565b604083015250606062000421848285016200038f565b606083015250608062000437848285016200038f565b60808301525092915050565b600080600060e084860312156200045d576200045d600080fd5b60006200046b86866200038f565b93505060206200047e86828701620003a2565b92505060406200049186828701620003af565b9150509250925092565b620004a681620005ae565b82525050565b80620004a6565b60a08101620004c38288620004ac565b620004d26020830187620004ac565b620004e16040830186620004ac565b620004f06060830185620004ac565b620004ff60808301846200049b565b9695505050505050565b602080825281016200039c81602681527f4f776e61626c653a206e6577206f776e657220697320746865207a65726f206160208201526564647265737360d01b604082015260600190565b60208082528181019081527f4f776e61626c653a2063616c6c6572206973206e6f7420746865206f776e65726040830152606082016200039c565b60006200059b60405190565b9050620005a98282620005cd565b919050565b60006001600160a01b0382166200039c565b60006200039c82620005ae565b601f19601f83011681018181106001600160401b0382111715620005f557620005f5620005fc565b6040525050565b634e487b7160e01b600052604160045260246000fd5b6200061d81620005ae565b81146200032157600080fd5b6200061d81620005c0565b60805160a05160c05160601c60e05161010051610120516137c06200068760003960006125ae015260006125f0015260006125cf015260006125330152600061255d0152600061258701526137c06000f3fe60806040526004361061017e5760003560e01c80630513c3e91461018357806310200519146101b957806317fcb39b146101db57806323af4e17146101fb57806336d4aa741461021d5780633ad3033e1461024a5780633ad39d861461026a5780633f4ba83a1461028a578063412736571461029f5780634c3665a6146102bf5780635c6ca533146102ec5780635c975abb1461031957806365d33b5e1461033b578063715018a61461035b57806376ad19971461037057806377bed5ed146103905780637a0d1646146103bd57806380776ac4146103ed5780638456cb591461040d5780638da5cb5b1461042257806394a665e91461043757806397bc2e0d14610457578063992642e514610477578063ad99e29314610497578063c31c9c07146104b7578063c4f92e4c146104d7578063c726649a146104ea578063c86aadb614610517578063d72b11bd14610537578063da058ae314610557578063dda4fa8f14610577578063ebda439614610597578063f2fde38b146105b7575b600080fd5b34801561018f57600080fd5b506101a361019e366004612dc8565b6105d7565b6040516101b091906132eb565b60405180910390f35b3480156101c557600080fd5b506101ce610601565b6040516101b0919061333c565b3480156101e757600080fd5b506002546101a3906001600160a01b031681565b34801561020757600080fd5b5061021b610216366004612b15565b610663565b005b34801561022957600080fd5b5061023d610238366004612bc7565b6106e3565b6040516101b0919061335e565b34801561025657600080fd5b5061021b610265366004612da7565b610762565b34801561027657600080fd5b5061023d610285366004612e0a565b6107e2565b34801561029657600080fd5b5061021b61087e565b3480156102ab57600080fd5b5061021b6102ba366004612b15565b610890565b3480156102cb57600080fd5b506102df6102da366004612b57565b610910565b6040516101b09190613529565b3480156102f857600080fd5b5061030c610307366004612ce8565b610b00565b6040516101b0919061351b565b34801561032557600080fd5b5061032e610b8c565b6040516101b0919061336f565b34801561034757600080fd5b5061032e610356366004612e2c565b610b9c565b34801561036757600080fd5b5061021b610e5c565b34801561037c57600080fd5b5061021b61038b366004612b15565b610e6e565b34801561039c57600080fd5b506008546103b0906001600160a01b031681565b6040516101b0919061345c565b3480156103c957600080fd5b5061032e6103d8366004612b15565b60056020526000908152604090205460ff1681565b3480156103f957600080fd5b506102df610408366004612b94565b610ec7565b34801561041957600080fd5b5061021b610fc7565b34801561042e57600080fd5b506101a3610fd7565b34801561044357600080fd5b5061021b610452366004612b15565b610fe6565b34801561046357600080fd5b5061021b610472366004612e2c565b611153565b34801561048357600080fd5b506003546101a3906001600160a01b031681565b3480156104a357600080fd5b5061023d6104b2366004612b57565b6113a2565b3480156104c357600080fd5b506001546101a3906001600160a01b031681565b61021b6104e5366004612c17565b61152b565b3480156104f657600080fd5b5061050a610505366004612b94565b61196a565b6040516101b0919061334d565b34801561052357600080fd5b5061021b610532366004612b15565b611c21565b34801561054357600080fd5b506007546101a3906001600160a01b031681565b34801561056357600080fd5b5061021b610572366004612b15565b611cc9565b34801561058357600080fd5b5061021b610592366004612b15565b611d49565b3480156105a357600080fd5b506004546101a3906001600160a01b031681565b3480156105c357600080fd5b5061021b6105d2366004612b15565b611dc9565b600681815481106105e757600080fd5b6000918252602090912001546001600160a01b0316905081565b6060600680548060200260200160405190810160405280929190818152602001828054801561065957602002820191906000526020600020905b81546001600160a01b0316815260019091019060200180831161063b575b5050505050905090565b61066b611e03565b6001600160a01b0381166106925760405163d92e233d60e01b815260040160405180910390fd5b6003546001600160a01b03828116911614156106c15760405163c23f6ccb60e01b815260040160405180910390fd5b600380546001600160a01b0319166001600160a01b0392909216919091179055565b6001600160a01b0383166000908152600b60209081526040808320858452825280832084845282529182902080548351818402810184019094528084526060939283018282801561075357602002820191906000526020600020905b81548152602001906001019080831161073f575b505050505090505b9392505050565b61076a611e03565b6001600160a01b0381166107915760405163d92e233d60e01b815260040160405180910390fd5b6008546001600160a01b03828116911614156107c05760405163c23f6ccb60e01b815260040160405180910390fd5b600880546001600160a01b0319166001600160a01b0392909216919091179055565b6008546040516331a9108f60e11b81526060916000916001600160a01b0390911690636352211e90610818908790600401613529565b60206040518083038186803b15801561083057600080fd5b505afa158015610844573d6000803e3d6000fd5b505050506040513d601f19601f820116820180604052508101906108689190612b36565b905061087481846113a2565b9150505b92915050565b610886611e03565b61088e611e32565b565b610898611e03565b6001600160a01b0381166108bf5760405163d92e233d60e01b815260040160405180910390fd5b6001546001600160a01b03828116911614156108ee5760405163c23f6ccb60e01b815260040160405180910390fd5b600180546001600160a01b0319166001600160a01b0392909216919091179055565b600080826001600160a01b0316631f37c1246040518163ffffffff1660e01b815260040160206040518083038186803b15801561094c57600080fd5b505afa158015610960573d6000803e3d6000fd5b505050506040513d601f19601f820116820180604052508101906109849190612de9565b90506000836001600160a01b031663776d1a546040518163ffffffff1660e01b815260040160206040518083038186803b1580156109c157600080fd5b505afa1580156109d5573d6000803e3d6000fd5b505050506040513d601f19601f820116820180604052508101906109f99190612de9565b905081158015610a07575080155b15610a1757600092505050610878565b6004546001600160a01b038681169116148015610a4c57506001600160a01b03851660009081526005602052604090205460ff165b8015610a585750600081115b15610a665791506108789050565b6003546001600160a01b038681169116148015610a9b57506001600160a01b03851660009081526005602052604090205460ff165b15610aa857509050610878565b6001600160a01b03851660009081526005602052604090205460ff1615610adc57610ad38583611e81565b92505050610878565b84604051630ac29ab760e31b8152600401610af791906132eb565b60405180910390fd5b610b26604051806060016040528060008152602001600081526020016000151581525090565b506001600160a01b0384166000908152600960209081526040808320868452825280832085845282528083208484528252918290208251606081018452815481526001820154928101929092526002015460ff161515918101919091525b949350505050565b600754600160a01b900460ff1690565b6008546040516331a9108f60e11b815260009182916001600160a01b0390911690636352211e90610bd1908a90600401613529565b60206040518083038186803b158015610be957600080fd5b505afa158015610bfd573d6000803e3d6000fd5b505050506040513d601f19601f82011682018060405250810190610c219190612b36565b6008546040516331a9108f60e11b81529192506000916001600160a01b0390911690636352211e90610c57908a90600401613529565b60206040518083038186803b158015610c6f57600080fd5b505afa158015610c83573d6000803e3d6000fd5b505050506040513d601f19601f82011682018060405250810190610ca79190612b36565b90506000866001600160a01b0316636352211e876040518263ffffffff1660e01b8152600401610cd79190613529565b60206040518083038186803b158015610cef57600080fd5b505afa158015610d03573d6000803e3d6000fd5b505050506040513d601f19601f82011682018060405250810190610d279190612b36565b6001600160a01b0380891660009081526009602090815260408083208b845282528083208e845282528083208a84528252918290208251606081018452815481526001820154928101929092526002015460ff1615159181019190915291925083811690831614610daf5786896040516308c931fb60e21b8152600401610af7929190613557565b6001600160a01b0384163314610dda5733604051635b1eee2960e01b8152600401610af791906132eb565b6020810151610dfc576040516306fc59f560e51b815260040160405180910390fd5b4281602001511015610e275780602001516040516323928a2960e11b8152600401610af79190613529565b806040015115610e4a5760405163a5bfec4360e01b815260040160405180910390fd5b60019450505050505b95945050505050565b610e64611e03565b61088e6000611f20565b610e76611e03565b6004546001600160a01b0382811691161415610ea55760405163c23f6ccb60e01b815260040160405180910390fd5b600480546001600160a01b0319166001600160a01b0392909216919091179055565b600080836001600160a01b0316636352211e846040518263ffffffff1660e01b8152600401610ef69190613529565b60206040518083038186803b158015610f0e57600080fd5b505afa158015610f22573d6000803e3d6000fd5b505050506040513d601f19601f82011682018060405250810190610f469190612b36565b60085460405163294cdf0d60e01b81529192506001600160a01b03169063294cdf0d90610f779084906004016132eb565b60206040518083038186803b158015610f8f57600080fd5b505afa158015610fa3573d6000803e3d6000fd5b505050506040513d601f19601f820116820180604052508101906108749190612de9565b610fcf611e03565b61088e611f70565b6000546001600160a01b031690565b610fee611e03565b6001600160a01b03811660009081526005602052604090205460ff1661102957806040516318317bd560e01b8152600401610af791906132eb565b6001600160a01b0381166000908152600560205260408120805460ff191690555b60065481101561114f57816001600160a01b03166006828154811061107157611071613729565b6000918252602090912001546001600160a01b0316141561113d576006805461109c90600190613635565b815481106110ac576110ac613729565b600091825260209091200154600680546001600160a01b0390921691839081106110d8576110d8613729565b9060005260206000200160006101000a8154816001600160a01b0302191690836001600160a01b03160217905550600680548061111757611117613713565b600082815260209020810160001990810180546001600160a01b03191690550190555050565b80611147816136cc565b91505061104a565b5050565b61115b611fb3565b6008546040516331a9108f60e11b81526000916001600160a01b031690636352211e9061118c908890600401613529565b60206040518083038186803b1580156111a457600080fd5b505afa1580156111b8573d6000803e3d6000fd5b505050506040513d601f19601f820116820180604052508101906111dc9190612b36565b90506000846001600160a01b0316636352211e856040518263ffffffff1660e01b815260040161120c9190613529565b60206040518083038186803b15801561122457600080fd5b505afa158015611238573d6000803e3d6000fd5b505050506040513d601f19601f8201168201806040525081019061125c9190612b36565b9050806001600160a01b0316826001600160a01b0316146112945783866040516308c931fb60e21b8152600401610af7929190613557565b6001600160a01b03821633146112c057335b60405163060296c760e31b8152600401610af791906132eb565b6001600160a01b038516600090815260096020908152604080832087845282528083208a8452825280832086845290915290206002015460ff16156113185760405163a5bfec4360e01b815260040160405180910390fd5b6001600160a01b038516600090815260096020908152604080832087845282528083208a8452825280832086845290915290819020600201805460ff19166001179055517f92f7f09e974ff9834968d6e74bc08965827de4279f16b8534542ed570c8d265a906113919089908990899089908990613565565b60405180910390a150505050505050565b60606000826001600160a01b03166370a08231856040518263ffffffff1660e01b81526004016113d291906132eb565b60206040518083038186803b1580156113ea57600080fd5b505afa1580156113fe573d6000803e3d6000fd5b505050506040513d601f19601f820116820180604052508101906114229190612de9565b90506000816001600160401b0381111561143e5761143e61373f565b604051908082528060200260200182016040528015611467578160200160208202803683370190505b50905060005b8281101561152257604051632f745c5960e01b81526001600160a01b03861690632f745c59906114a39089908590600401613321565b60206040518083038186803b1580156114bb57600080fd5b505afa1580156114cf573d6000803e3d6000fd5b505050506040513d601f19601f820116820180604052508101906114f39190612de9565b82828151811061150557611505613729565b60209081029190910101528061151a816136cc565b91505061146d565b50949350505050565b611533611fb3565b6008546040516331a9108f60e11b81526000916001600160a01b031690636352211e90611564908b90600401613529565b60206040518083038186803b15801561157c57600080fd5b505afa158015611590573d6000803e3d6000fd5b505050506040513d601f19601f820116820180604052508101906115b49190612b36565b6008546040516331a9108f60e11b81529192506000916001600160a01b0390911690636352211e906115ea908d90600401613529565b60206040518083038186803b15801561160257600080fd5b505afa158015611616573d6000803e3d6000fd5b505050506040513d601f19601f8201168201806040525081019061163a9190612b36565b90506000886001600160a01b0316636352211e896040518263ffffffff1660e01b815260040161166a9190613529565b60206040518083038186803b15801561168257600080fd5b505afa158015611696573d6000803e3d6000fd5b505050506040513d601f19601f820116820180604052508101906116ba9190612b36565b9050806001600160a01b0316836001600160a01b0316146116f257878a6040516308c931fb60e21b8152600401610af7929190613557565b6001600160a01b038216331461170857336112a6565b4286101561172b57856040516323928a2960e11b8152600401610af79190613529565b61177a61173c8c8c8c8c8c8c611fd8565b86868080601f016020809104026020016040519081016040528093929190818152602001838380828437600092019190915250889250612042915050565b61179757604051638baa579f60e01b815260040160405180910390fd5b6117aa8c6117a58e8c610910565b61206a565b60405180606001604052808b815260200187815260200160001515815250600960008b6001600160a01b03166001600160a01b0316815260200190815260200160002060008a815260200190815260200160002060008d81526020019081526020016000206000898152602001908152602001600020600082015181600001556020820151816001015560408201518160020160006101000a81548160ff021916908315150217905550905050600b60008a6001600160a01b03166001600160a01b03168152602001908152602001600020600089815260200190815260200160002060008c815260200190815260200160002080549050600014156118de576001600160a01b0389166000908152600a602090815260408083208b84528252822080546001810182559083529120018b90555b6001600160a01b0389166000908152600b602090815260408083208b845282528083208e8452825280832080546001810182559084529190922001889055517fd0b60e92dff77ab3cd9ee6e52ef2c13a955a95365dc6fdce28e719275dc387ac90611954908d908d908d908d908d908d906135a7565b60405180910390a1505050505050505050505050565b60606000805b6001600160a01b0385166000908152600a60209081526040808320878452909152902054811015611a48576001600160a01b0385166000908152600a6020908152604080832087845290915281208054839081106119d0576119d0613729565b9060005260206000200154905060005b6001600160a01b0387166000908152600b602090815260408083208984528252808320858452909152902054811015611a335783611a1d816136cc565b9450508080611a2b906136cc565b9150506119e0565b50508080611a40906136cc565b915050611970565b506000816001600160401b03811115611a6357611a6361373f565b604051908082528060200260200182016040528015611aa857816020015b6040805180820190915260008082526020820152815260200190600190039081611a815790505b5090506000805b6001600160a01b0387166000908152600a60209081526040808320898452909152902054811015611c16576001600160a01b0387166000908152600a602090815260408083208984529091528120805483908110611b0f57611b0f613729565b9060005260206000200154905060005b6001600160a01b0389166000908152600b602090815260408083208b84528252808320858452909152902054811015611c01576001600160a01b0389166000908152600b602090815260408083208b845282528083208584529091528120805483908110611b8f57611b8f613729565b9060005260206000200154905082868681518110611baf57611baf613729565b6020026020010151600001818152505080868681518110611bd257611bd2613729565b602090810291909101810151015284611bea816136cc565b955050508080611bf9906136cc565b915050611b1f565b50508080611c0e906136cc565b915050611aaf565b509095945050505050565b611c29611e03565b6001600160a01b03811660009081526005602052604090205460ff1615611c635760405163f411c32760e01b815260040160405180910390fd5b6001600160a01b03166000818152600560205260408120805460ff191660019081179091556006805491820181559091527ff652222313e28459528d920b65115c16c04f3efc82aaedc97be59f3f377c0d3f0180546001600160a01b0319169091179055565b611cd1611e03565b6001600160a01b038116611cf85760405163d92e233d60e01b815260040160405180910390fd5b6002546001600160a01b0382811691161415611d275760405163c23f6ccb60e01b815260040160405180910390fd5b600280546001600160a01b0319166001600160a01b0392909216919091179055565b611d51611e03565b6001600160a01b038116611d785760405163d92e233d60e01b815260040160405180910390fd5b6007546001600160a01b0382811691161415611da75760405163c23f6ccb60e01b815260040160405180910390fd5b600780546001600160a01b0319166001600160a01b0392909216919091179055565b611dd1611e03565b6001600160a01b038116611df75760405162461bcd60e51b8152600401610af7906134ab565b611e0081611f20565b50565b33611e0c610fd7565b6001600160a01b03161461088e5760405162461bcd60e51b8152600401610af7906134eb565b611e3a612217565b6007805460ff60a01b191690557f5db9ee0a495bf2e6ff9c91a7834c1ba4fdd244a5e8aa4e537bd38aeae4b073aa335b604051611e7791906132eb565b60405180910390a1565b6001600160a01b03821660009081526005602052604081205460ff161580611eb657506003546001600160a01b038481169116145b15611ed6578260405163961c9a4f60e01b8152600401610af791906132eb565b6001600160a01b038316611f0857600254600354611f01916001600160a01b0390811691168461223b565b9050610878565b600354611f019084906001600160a01b03168461223b565b600080546001600160a01b038381166001600160a01b0319831681178455604051919092169283917f8be0079c531659141344cd1fd0a4f28419497f9722a3daafe3b4186f6b6457e09190a35050565b611f78611fb3565b6007805460ff60a01b1916600160a01b1790557f62e78cea01bee320cd4e420270b5ea74000d11b0c9f74754ebdbfc544b05a258611e6a3390565b611fbb610b8c565b1561088e5760405162461bcd60e51b8152600401610af7906134cb565b60006120357f7ff3a592f7e3c4640523a26490b66609c72eac880180ec2f1e57116c74f07cce88888888888860405160200161201a97969594939291906133bf565b604051602081830303815290604052805190602001206122f9565b90505b9695505050505050565b6000816001600160a01b0316612058858561230c565b6001600160a01b031614949350505050565b80612073575050565b6001600160a01b03821660009081526005602052604090205460ff166120ae5781604051630ac29ab760e31b8152600401610af791906132eb565b6001600160a01b0382166121fb57803410156120df578060405163091a6d0f60e01b8152600401610af79190613529565b6007546040516000916001600160a01b03169083906120fd906132e3565b60006040518083038185875af1925050503d806000811461213a576040519150601f19603f3d011682016040523d82523d6000602084013e61213f565b606091505b5050905080612161576040516312171d8360e31b815260040160405180910390fd5b813411156121f65760006121753484612330565b9050336001600160a01b03168160405161218e906132e3565b60006040518083038185875af1925050503d80600081146121cb576040519150601f19603f3d011682016040523d82523d6000602084013e6121d0565b606091505b505080925050816121f457604051633c31275160e21b815260040160405180910390fd5b505b505050565b60075461114f906001600160a01b03848116913391168461233c565b61221f610b8c565b61088e5760405162461bcd60e51b8152600401610af79061348b565b600060608061224a8686612394565b6001546040516307c0329d60e21b81529192506001600160a01b031690631f00ca749061227d9087908590600401613537565b60006040518083038186803b15801561229557600080fd5b505afa1580156122a9573d6000803e3d6000fd5b505050506040513d6000823e601f3d908101601f191682016040526122d19190810190612d4c565b9150816000815181106122e6576122e6613729565b6020026020010151925050509392505050565b6000610878612306612526565b83612619565b600080600061231b858561264c565b9150915061232881612692565b509392505050565b600061075b8284613635565b6121f4846323b872dd60e01b85858560405160240161235d939291906132f9565b60408051601f198184030181529190526020810180516001600160e01b03166001600160e01b031990931692909217909152612777565b6002546060906001600160a01b03848116911614806123c057506002546001600160a01b038381169116145b1561248a57604080516002808252606082018352600092602083019080368337019050506002549091506001600160a01b03858116911614612402578361240f565b6002546001600160a01b03165b8160008151811061242257612422613729565b6001600160a01b03928316602091820292909201015260025484821691161461244b5782612458565b6002546001600160a01b03165b8160018151811061246b5761246b613729565b6001600160a01b03909216602092830291909101909101529050610878565b604080516003808252608082019092526000916020820160608036833701905050905083816000815181106124c1576124c1613729565b6001600160a01b0392831660209182029290920101526002548251911690829060019081106124f2576124f2613729565b60200260200101906001600160a01b031690816001600160a01b031681525050828160028151811061246b5761246b613729565b6000306001600160a01b037f00000000000000000000000000000000000000000000000000000000000000001614801561257f57507f000000000000000000000000000000000000000000000000000000000000000046145b156125a957507f000000000000000000000000000000000000000000000000000000000000000090565b6126147f00000000000000000000000000000000000000000000000000000000000000007f00000000000000000000000000000000000000000000000000000000000000007f0000000000000000000000000000000000000000000000000000000000000000612806565b905090565b6000828260405160200161262e9291906132b2565b60405160208183030381529060405280519060200120905092915050565b6000808251604114156126835760208301516040840151606085015160001a61267787828585612840565b9450945050505061268b565b506000905060025b9250929050565b60008160048111156126a6576126a66136fd565b14156126af5750565b60018160048111156126c3576126c36136fd565b14156126e15760405162461bcd60e51b8152600401610af79061347b565b60028160048111156126f5576126f56136fd565b14156127135760405162461bcd60e51b8152600401610af79061349b565b6003816004811115612727576127276136fd565b14156127455760405162461bcd60e51b8152600401610af7906134bb565b6004816004811115612759576127596136fd565b1415611e005760405162461bcd60e51b8152600401610af7906134db565b60006127cc826040518060400160405280602081526020017f5361666545524332303a206c6f772d6c6576656c2063616c6c206661696c6564815250856001600160a01b03166129169092919063ffffffff16565b8051909150156121f657808060200190518101906127ea9190612d86565b6121f65760405162461bcd60e51b8152600401610af79061350b565b6000838383463060405160200161282195949392919061337d565b6040516020818303038152906040528051906020012090509392505050565b6000806fa2a8918ca85bafe22016d0b997e4df60600160ff1b0383111561286d575060009050600361290d565b8460ff16601b1415801561288557508460ff16601c14155b15612896575060009050600461290d565b6000600187878787604051600081526020016040526040516128bb9493929190613427565b6020604051602081039080840390855afa1580156128dd573d6000803e3d6000fd5b5050604051601f1901519150506001600160a01b0381166129065760006001925092505061290d565b9150600090505b94509492505050565b6060610b848484600085856001600160a01b0385163b6129485760405162461bcd60e51b8152600401610af7906134fb565b600080866001600160a01b0316858760405161296491906132a6565b60006040518083038185875af1925050503d80600081146129a1576040519150601f19603f3d011682016040523d82523d6000602084013e6129a6565b606091505b50915091506129b68282866129c1565b979650505050505050565b606083156129d057508161075b565b8251156129e05782518084602001fd5b8160405162461bcd60e51b8152600401610af7919061346a565b6000612a0d612a0884613612565b6135f6565b90508083825260208201905082856020860282011115612a2f57612a2f600080fd5b60005b85811015612a5b5781612a458882612b0a565b8452506020928301929190910190600101612a32565b5050509392505050565b80356108788161375f565b80516108788161375f565b600082601f830112612a8f57612a8f600080fd5b81516108748482602086016129fa565b805161087881613773565b60008083601f840112612abf57612abf600080fd5b5081356001600160401b03811115612ad957612ad9600080fd5b60208301915083600182028301111561268b5761268b600080fd5b80356108788161377b565b803561087881613784565b805161087881613784565b600060208284031215612b2a57612b2a600080fd5b60006108748484612a65565b600060208284031215612b4b57612b4b600080fd5b60006108748484612a70565b60008060408385031215612b6d57612b6d600080fd5b6000612b798585612a65565b9250506020612b8a85828601612a65565b9150509250929050565b60008060408385031215612baa57612baa600080fd5b6000612bb68585612a65565b9250506020612b8a85828601612aff565b600080600060608486031215612bdf57612bdf600080fd5b6000612beb8686612a65565b9350506020612bfc86828701612aff565b9250506040612c0d86828701612aff565b9150509250925092565b60008060008060008060008060006101008a8c031215612c3957612c39600080fd5b6000612c458c8c612a65565b9950506020612c568c828d01612aff565b9850506040612c678c828d01612aff565b9750506060612c788c828d01612a65565b9650506080612c898c828d01612aff565b95505060a0612c9a8c828d01612aff565b94505060c0612cab8c828d01612aff565b93505060e08a01356001600160401b03811115612cca57612cca600080fd5b612cd68c828d01612aaa565b92509250509295985092959850929598565b60008060008060808587031215612d0157612d01600080fd5b6000612d0d8787612a65565b9450506020612d1e87828801612aff565b9350506040612d2f87828801612aff565b9250506060612d4087828801612aff565b91505092959194509250565b600060208284031215612d6157612d61600080fd5b81516001600160401b03811115612d7a57612d7a600080fd5b61087484828501612a7b565b600060208284031215612d9b57612d9b600080fd5b60006108748484612a9f565b600060208284031215612dbc57612dbc600080fd5b60006108748484612af4565b600060208284031215612ddd57612ddd600080fd5b60006108748484612aff565b600060208284031215612dfe57612dfe600080fd5b60006108748484612b0a565b60008060408385031215612e2057612e20600080fd5b6000612b798585612aff565b600080600080600060a08688031215612e4757612e47600080fd5b6000612e538888612aff565b9550506020612e6488828901612aff565b9450506040612e7588828901612a65565b9350506060612e8688828901612aff565b9250506080612e9788828901612aff565b9150509295509295909350565b6000612eb08383612ed8565b505060200190565b6000612ec48383613279565b505060400190565b6000612eb08383612fb4565b612ee18161364c565b82525050565b6000612ef1825190565b80845260209384019383018060005b83811015612f25578151612f148882612ea4565b975060208301925050600101612f00565b509495945050505050565b6000612f3a825190565b80845260209384019383018060005b83811015612f25578151612f5d8882612eb8565b975060208301925050600101612f49565b6000612f78825190565b80845260209384019383018060005b83811015612f25578151612f9b8882612ecc565b975060208301925050600101612f87565b801515612ee1565b80612ee1565b6000612fc4825190565b612fd2818560208601613673565b9290920192915050565b612ee181613668565b6000612fef825190565b808452602084019350613006818560208601613673565b61300f81613755565b9093019392505050565b601881526000602082017745434453413a20696e76616c6964207369676e617475726560401b815291505b5060200190565b601481526000602082017314185d5cd8589b194e881b9bdd081c185d5cd95960621b81529150613044565b601f81526000602082017f45434453413a20696e76616c6964207369676e6174757265206c656e6774680081529150613044565b602681526000602082017f4f776e61626c653a206e6577206f776e657220697320746865207a65726f206181526564647265737360d01b602082015291505b5060400190565b602281526000602082017f45434453413a20696e76616c6964207369676e6174757265202773272076616c815261756560f01b602082015291506130e9565b601081526000602082016f14185d5cd8589b194e881c185d5cd95960821b81529150613044565b602281526000602082017f45434453413a20696e76616c6964207369676e6174757265202776272076616c815261756560f01b602082015291506130e9565b60208082527f4f776e61626c653a2063616c6c6572206973206e6f7420746865206f776e657291019081526000613044565b601d81526000602082017f416464726573733a2063616c6c20746f206e6f6e2d636f6e747261637400000081529150613044565b602a81526000602082017f5361666545524332303a204552433230206f7065726174696f6e20646964206e8152691bdd081cdd58d8d9595960b21b602082015291506130e9565b805160608301906132538482612fb4565b5060208201516132666020850182612fb4565b5060408201516121f46040850182612fac565b8051604083019061328a8482612fb4565b5060208201516121f46020850182612fb4565b60ff8116612ee1565b600061075b8284612fba565b61190160f01b815260020160006132c98285612fb4565b6020820191506132d98284612fb4565b5060200192915050565b600081610878565b602081016108788284612ed8565b606081016133078286612ed8565b6133146020830185612ed8565b610b846040830184612fb4565b6040810161332f8285612ed8565b61075b6020830184612fb4565b6020808252810161075b8184612ee7565b6020808252810161075b8184612f30565b6020808252810161075b8184612f6e565b602081016108788284612fac565b60a0810161338b8288612fb4565b6133986020830187612fb4565b6133a56040830186612fb4565b6133b26060830185612fb4565b6120386080830184612ed8565b60e081016133cd828a612fb4565b6133da6020830189612fb4565b6133e76040830188612fb4565b6133f46060830187612ed8565b6134016080830186612fb4565b61340e60a0830185612fb4565b61341b60c0830184612fb4565b98975050505050505050565b608081016134358287612fb4565b613442602083018661329d565b61344f6040830185612fb4565b610e536060830184612fb4565b602081016108788284612fdc565b6020808252810161075b8184612fe5565b6020808252810161087881613019565b602080825281016108788161304b565b6020808252810161087881613076565b60208082528101610878816130aa565b60208082528101610878816130f0565b602080825281016108788161312f565b6020808252810161087881613156565b6020808252810161087881613195565b60208082528101610878816131c7565b60208082528101610878816131fb565b606081016108788284613242565b602081016108788284612fb4565b604081016135458285612fb4565b8181036020830152610b848184612ee7565b6040810161332f8285612fb4565b60a081016135738288612fb4565b6135806020830187612fb4565b61358d6040830186612ed8565b61359a6060830185612fb4565b6120386080830184612fb4565b60c081016135b58289612fb4565b6135c26020830188612fb4565b6135cf6040830187612ed8565b6135dc6060830186612fb4565b6135e96080830185612fb4565b6129b660a0830184612fb4565b600061360160405190565b905061360d828261369f565b919050565b60006001600160401b0382111561362b5761362b61373f565b5060209081020190565b600082821015613647576136476136e7565b500390565b60006001600160a01b038216610878565b60006108788261364c565b60006108788261365d565b60005b8381101561368e578181015183820152602001613676565b838111156121f45750506000910152565b6136a882613755565b81018181106001600160401b03821117156136c5576136c561373f565b6040525050565b60006000198214156136e0576136e06136e7565b5060010190565b634e487b7160e01b600052601160045260246000fd5b634e487b7160e01b600052602160045260246000fd5b634e487b7160e01b600052603160045260246000fd5b634e487b7160e01b600052603260045260246000fd5b634e487b7160e01b600052604160045260246000fd5b601f01601f191690565b6137688161364c565b8114611e0057600080fd5b801515613768565b6137688161365d565b8061376856fea264697066735822122069201c38c5bce591e3b69d5c853c0234e3dd2c2ab7838c7aab397473abf8a54064736f6c63430008070033",
  "devdoc": {
    "author": "Masa Finance",
    "kind": "dev",
    "methods": {
      "addLink(address,uint256,uint256,address,uint256,uint256,uint256,bytes)": {
        "details": "The token must be linked to this soul linker",
        "params": {
          "expirationDate": "Expiration date of the signature",
          "ownerIdentityId": "Id of the identity of the owner of the SBT",
          "readerIdentityId": "Id of the identity of the reader",
          "signature": "Signature of the read link request made by the owner",
          "signatureDate": "Signature date of the signature",
          "token": "Address of the SBT contract",
          "tokenId": "Id of the token"
        }
      },
      "constructor": {
        "params": {
          "_soulboundIdentity": "Soulbound identity smart contract",
          "owner": "Owner of the smart contract",
          "paymentParams": "Payment gateway params"
        }
      },
      "disablePaymentMethod(address)": {
        "details": "The caller must have the owner to call this function",
        "params": {
          "_paymentMethod": "Token to remove"
        }
      },
      "enablePaymentMethod(address)": {
        "details": "The caller must have the owner to call this function",
        "params": {
          "_paymentMethod": "New token to add"
        }
      },
      "getEnabledPaymentMethods()": {
        "details": "Returns the address of all available payment methods",
        "returns": {
          "_0": "Array of all enabled payment methods"
        }
      },
      "getIdentityId(address,uint256)": {
        "details": "The token must be linked to this soul linker",
        "params": {
          "token": "Address of the SBT contract",
          "tokenId": "Id of the token"
        },
        "returns": {
          "_0": "Id of the identity"
        }
      },
      "getLinkInfo(address,uint256,uint256,uint256)": {
        "params": {
          "readerIdentityId": "Id of the identity of the reader of the SBT",
          "signatureDate": "Signature date of the signature",
          "token": "Address of the SBT contract",
          "tokenId": "Id of the token"
        },
        "returns": {
          "_0": "linkData List of linked SBTs"
        }
      },
      "getLinkSignatureDates(address,uint256,uint256)": {
        "params": {
          "readerIdentityId": "Id of the identity of the reader of the SBT",
          "token": "Address of the SBT contract",
          "tokenId": "Id of the token"
        },
        "returns": {
          "_0": "List of linked SBTs"
        }
      },
      "getLinks(address,uint256)": {
        "params": {
          "token": "Address of the SBT contract",
          "tokenId": "Id of the token"
        },
        "returns": {
          "_0": "List of linked SBTs"
        }
      },
      "getPriceForAddLink(address,address)": {
        "details": "Returns the current pricing for storing a link",
        "params": {
          "paymentMethod": "Address of token that user want to pay",
          "token": "Token that user want to store link"
        },
        "returns": {
          "_0": "Current price for storing a link"
        }
      },
      "getSBTConnections(address,address)": {
        "params": {
          "owner": "Address of the owner of the identity",
          "token": "Address of the SBT contract"
        },
        "returns": {
          "_0": "List of connectec SBTs"
        }
      },
      "getSBTConnections(uint256,address)": {
        "params": {
          "identityId": "Id of the identity",
          "token": "Address of the SBT contract"
        },
        "returns": {
          "_0": "List of connected SBTs"
        }
      },
      "owner()": {
        "details": "Returns the address of the current owner."
      },
      "pause()": {
        "details": "The caller must have the owner to call this function"
      },
      "paused()": {
        "details": "Returns true if the contract is paused, and false otherwise."
      },
      "renounceOwnership()": {
        "details": "Leaves the contract without owner. It will not be possible to call `onlyOwner` functions anymore. Can only be called by the current owner. NOTE: Renouncing ownership will leave the contract without an owner, thereby removing any functionality that is only available to the owner."
      },
      "revokeLink(uint256,uint256,address,uint256,uint256)": {
        "details": "The token must be linked to this soul linker",
        "params": {
          "ownerIdentityId": "Id of the identity of the owner of the SBT",
          "readerIdentityId": "Id of the identity of the reader",
          "signatureDate": "Signature date of the signature",
          "token": "Address of the SBT contract",
          "tokenId": "Id of the token"
        }
      },
      "setMasaToken(address)": {
        "details": "The caller must have the owner to call this function It can be set to address(0) to disable paying in MASA",
        "params": {
          "_masaToken": "New utility token to pay the fee in"
        }
      },
      "setReserveWallet(address)": {
        "details": "Let change the reserve walled. It can be triggered by an authorized account.",
        "params": {
          "_reserveWallet": "New reserve wallet"
        }
      },
      "setSoulboundIdentity(address)": {
        "details": "The caller must be the owner to call this function",
        "params": {
          "_soulboundIdentity": "Address of the SoulboundIdentity contract"
        }
      },
      "setStableCoin(address)": {
        "details": "The caller must have the owner to call this function",
        "params": {
          "_stableCoin": "New stable coin to pay the fee in"
        }
      },
      "setSwapRouter(address)": {
        "details": "The caller must have the owner to call this function",
        "params": {
          "_swapRouter": "New swap router address"
        }
      },
      "setWrappedNativeToken(address)": {
        "details": "The caller must have the owner to call this function",
        "params": {
          "_wrappedNativeToken": "New wrapped native token address"
        }
      },
      "transferOwnership(address)": {
        "details": "Transfers ownership of the contract to a new account (`newOwner`). Can only be called by the current owner."
      },
      "unpause()": {
        "details": "The caller must have the owner to call this function"
      },
      "validateLink(uint256,uint256,address,uint256,uint256)": {
        "details": "The token must be linked to this soul linker",
        "params": {
          "ownerIdentityId": "Id of the identity of the owner of the SBT",
          "readerIdentityId": "Id of the identity of the reader",
          "signatureDate": "Signature date of the signature",
          "token": "Address of the SBT contract",
          "tokenId": "Id of the token"
        },
        "returns": {
          "_0": "True if the link is valid"
        }
      }
    },
    "title": "Soul linker",
    "version": 1
  },
  "userdoc": {
    "kind": "user",
    "methods": {
      "addLink(address,uint256,uint256,address,uint256,uint256,uint256,bytes)": {
        "notice": "Stores the link, validating the signature of the given read link request"
      },
      "constructor": {
        "notice": "Creates a new soul linker"
      },
      "disablePaymentMethod(address)": {
        "notice": "Removes a token as a valid payment method"
      },
      "enablePaymentMethod(address)": {
        "notice": "Adds a new token as a valid payment method"
      },
      "getEnabledPaymentMethods()": {
        "notice": "Returns all available payment methods"
      },
      "getIdentityId(address,uint256)": {
        "notice": "Returns the identityId owned by the given token"
      },
      "getLinkInfo(address,uint256,uint256,uint256)": {
        "notice": "Returns the information of link dates for a given SBT token and reader"
      },
      "getLinkSignatureDates(address,uint256,uint256)": {
        "notice": "Returns the list of link signature dates for a given SBT token and reader"
      },
      "getLinks(address,uint256)": {
        "notice": "Returns the list of link signature dates for a given SBT token and reader"
      },
      "getPriceForAddLink(address,address)": {
        "notice": "Returns the price for storing a link"
      },
      "getSBTConnections(address,address)": {
        "notice": "Returns the list of connected SBTs by a given SBT token"
      },
      "getSBTConnections(uint256,address)": {
        "notice": "Returns the list of connected SBTs by a given SBT token"
      },
      "pause()": {
        "notice": "Pauses the smart contract"
      },
      "revokeLink(uint256,uint256,address,uint256,uint256)": {
        "notice": "Revokes the link"
      },
      "setMasaToken(address)": {
        "notice": "Sets the utility token to pay the fee in (MASA)"
      },
      "setReserveWallet(address)": {
        "notice": "Set the reserve wallet"
      },
      "setSoulboundIdentity(address)": {
        "notice": "Sets the SoulboundIdentity contract address linked to this soul name"
      },
      "setStableCoin(address)": {
        "notice": "Sets the stable coin to pay the fee in (USDC)"
      },
      "setSwapRouter(address)": {
        "notice": "Sets the swap router address"
      },
      "setWrappedNativeToken(address)": {
        "notice": "Sets the wrapped native token address"
      },
      "unpause()": {
        "notice": "Unpauses the smart contract"
      },
      "validateLink(uint256,uint256,address,uint256,uint256)": {
        "notice": "Validates the link of the given read link request and returns the data that reader can read if the link is valid"
      }
    },
    "notice": "Soul linker smart contract that let add links to a Soulbound token.",
    "version": 1
  },
  "storageLayout": {
    "storage": [
      {
        "astId": 400,
        "contract": "contracts/SoulLinker.sol:SoulLinker",
        "label": "_owner",
        "offset": 0,
        "slot": "0",
        "type": "t_address"
      },
      {
        "astId": 7655,
        "contract": "contracts/SoulLinker.sol:SoulLinker",
        "label": "swapRouter",
        "offset": 0,
        "slot": "1",
        "type": "t_address"
      },
      {
        "astId": 7657,
        "contract": "contracts/SoulLinker.sol:SoulLinker",
        "label": "wrappedNativeToken",
        "offset": 0,
        "slot": "2",
        "type": "t_address"
      },
      {
        "astId": 7659,
        "contract": "contracts/SoulLinker.sol:SoulLinker",
        "label": "stableCoin",
        "offset": 0,
        "slot": "3",
        "type": "t_address"
      },
      {
        "astId": 7661,
        "contract": "contracts/SoulLinker.sol:SoulLinker",
        "label": "masaToken",
        "offset": 0,
        "slot": "4",
        "type": "t_address"
      },
      {
        "astId": 7665,
        "contract": "contracts/SoulLinker.sol:SoulLinker",
        "label": "enabledPaymentMethod",
        "offset": 0,
        "slot": "5",
        "type": "t_mapping(t_address,t_bool)"
      },
      {
        "astId": 7668,
        "contract": "contracts/SoulLinker.sol:SoulLinker",
        "label": "enabledPaymentMethods",
        "offset": 0,
        "slot": "6",
        "type": "t_array(t_address)dyn_storage"
      },
      {
        "astId": 7670,
        "contract": "contracts/SoulLinker.sol:SoulLinker",
        "label": "reserveWallet",
        "offset": 0,
        "slot": "7",
        "type": "t_address"
      },
      {
        "astId": 523,
        "contract": "contracts/SoulLinker.sol:SoulLinker",
        "label": "_paused",
        "offset": 20,
        "slot": "7",
        "type": "t_bool"
      },
      {
        "astId": 4573,
        "contract": "contracts/SoulLinker.sol:SoulLinker",
        "label": "soulboundIdentity",
        "offset": 0,
        "slot": "8",
        "type": "t_contract(ISoulboundIdentity)8408"
      },
      {
        "astId": 4584,
        "contract": "contracts/SoulLinker.sol:SoulLinker",
        "label": "_links",
        "offset": 0,
        "slot": "9",
        "type": "t_mapping(t_address,t_mapping(t_uint256,t_mapping(t_uint256,t_mapping(t_uint256,t_struct(LinkData)4607_storage))))"
      },
      {
        "astId": 4591,
        "contract": "contracts/SoulLinker.sol:SoulLinker",
        "label": "_linkReaderIdentityIds",
        "offset": 0,
        "slot": "10",
        "type": "t_mapping(t_address,t_mapping(t_uint256,t_array(t_uint256)dyn_storage))"
      },
      {
        "astId": 4600,
        "contract": "contracts/SoulLinker.sol:SoulLinker",
        "label": "_linkSignatureDates",
        "offset": 0,
        "slot": "11",
        "type": "t_mapping(t_address,t_mapping(t_uint256,t_mapping(t_uint256,t_array(t_uint256)dyn_storage)))"
      }
    ],
    "types": {
      "t_address": {
        "encoding": "inplace",
        "label": "address",
        "numberOfBytes": "20"
      },
      "t_array(t_address)dyn_storage": {
        "base": "t_address",
        "encoding": "dynamic_array",
        "label": "address[]",
        "numberOfBytes": "32"
      },
      "t_array(t_uint256)dyn_storage": {
        "base": "t_uint256",
        "encoding": "dynamic_array",
        "label": "uint256[]",
        "numberOfBytes": "32"
      },
      "t_bool": {
        "encoding": "inplace",
        "label": "bool",
        "numberOfBytes": "1"
      },
      "t_contract(ISoulboundIdentity)8408": {
        "encoding": "inplace",
        "label": "contract ISoulboundIdentity",
        "numberOfBytes": "20"
      },
      "t_mapping(t_address,t_bool)": {
        "encoding": "mapping",
        "key": "t_address",
        "label": "mapping(address => bool)",
        "numberOfBytes": "32",
        "value": "t_bool"
      },
      "t_mapping(t_address,t_mapping(t_uint256,t_array(t_uint256)dyn_storage))": {
        "encoding": "mapping",
        "key": "t_address",
        "label": "mapping(address => mapping(uint256 => uint256[]))",
        "numberOfBytes": "32",
        "value": "t_mapping(t_uint256,t_array(t_uint256)dyn_storage)"
      },
      "t_mapping(t_address,t_mapping(t_uint256,t_mapping(t_uint256,t_array(t_uint256)dyn_storage)))": {
        "encoding": "mapping",
        "key": "t_address",
        "label": "mapping(address => mapping(uint256 => mapping(uint256 => uint256[])))",
        "numberOfBytes": "32",
        "value": "t_mapping(t_uint256,t_mapping(t_uint256,t_array(t_uint256)dyn_storage))"
      },
      "t_mapping(t_address,t_mapping(t_uint256,t_mapping(t_uint256,t_mapping(t_uint256,t_struct(LinkData)4607_storage))))": {
        "encoding": "mapping",
        "key": "t_address",
        "label": "mapping(address => mapping(uint256 => mapping(uint256 => mapping(uint256 => struct SoulLinker.LinkData))))",
        "numberOfBytes": "32",
        "value": "t_mapping(t_uint256,t_mapping(t_uint256,t_mapping(t_uint256,t_struct(LinkData)4607_storage)))"
      },
      "t_mapping(t_uint256,t_array(t_uint256)dyn_storage)": {
        "encoding": "mapping",
        "key": "t_uint256",
        "label": "mapping(uint256 => uint256[])",
        "numberOfBytes": "32",
        "value": "t_array(t_uint256)dyn_storage"
      },
      "t_mapping(t_uint256,t_mapping(t_uint256,t_array(t_uint256)dyn_storage))": {
        "encoding": "mapping",
        "key": "t_uint256",
        "label": "mapping(uint256 => mapping(uint256 => uint256[]))",
        "numberOfBytes": "32",
        "value": "t_mapping(t_uint256,t_array(t_uint256)dyn_storage)"
      },
      "t_mapping(t_uint256,t_mapping(t_uint256,t_mapping(t_uint256,t_struct(LinkData)4607_storage)))": {
        "encoding": "mapping",
        "key": "t_uint256",
        "label": "mapping(uint256 => mapping(uint256 => mapping(uint256 => struct SoulLinker.LinkData)))",
        "numberOfBytes": "32",
        "value": "t_mapping(t_uint256,t_mapping(t_uint256,t_struct(LinkData)4607_storage))"
      },
      "t_mapping(t_uint256,t_mapping(t_uint256,t_struct(LinkData)4607_storage))": {
        "encoding": "mapping",
        "key": "t_uint256",
        "label": "mapping(uint256 => mapping(uint256 => struct SoulLinker.LinkData))",
        "numberOfBytes": "32",
        "value": "t_mapping(t_uint256,t_struct(LinkData)4607_storage)"
      },
      "t_mapping(t_uint256,t_struct(LinkData)4607_storage)": {
        "encoding": "mapping",
        "key": "t_uint256",
        "label": "mapping(uint256 => struct SoulLinker.LinkData)",
        "numberOfBytes": "32",
        "value": "t_struct(LinkData)4607_storage"
      },
      "t_struct(LinkData)4607_storage": {
        "encoding": "inplace",
        "label": "struct SoulLinker.LinkData",
        "members": [
          {
            "astId": 4602,
            "contract": "contracts/SoulLinker.sol:SoulLinker",
            "label": "ownerIdentityId",
            "offset": 0,
            "slot": "0",
            "type": "t_uint256"
          },
          {
            "astId": 4604,
            "contract": "contracts/SoulLinker.sol:SoulLinker",
            "label": "expirationDate",
            "offset": 0,
            "slot": "1",
            "type": "t_uint256"
          },
          {
            "astId": 4606,
            "contract": "contracts/SoulLinker.sol:SoulLinker",
            "label": "isRevoked",
            "offset": 0,
            "slot": "2",
            "type": "t_bool"
          }
        ],
        "numberOfBytes": "96"
      },
      "t_uint256": {
        "encoding": "inplace",
        "label": "uint256",
        "numberOfBytes": "32"
      }
    }
  }
}