{
  "address": "0x318141a64e022C43Dc3e98404505d4ee4a7888f7",
  "abi": [
    {
      "inputs": [
        {
          "internalType": "address",
          "name": "admin",
          "type": "address"
        },
        {
          "internalType": "string",
          "name": "baseTokenURI",
          "type": "string"
        },
        {
          "internalType": "contract ISoulboundIdentity",
          "name": "soulboundIdentity",
          "type": "address"
        },
        {
          "internalType": "uint256",
          "name": "_mintingPrice",
          "type": "uint256"
        },
        {
          "components": [
            {
              "internalType": "address",
              "name": "swapRouter",
              "type": "address"
            },
            {
              "internalType": "address",
              "name": "wrappedNativeToken",
              "type": "address"
            },
            {
              "internalType": "address",
              "name": "stableCoin",
              "type": "address"
            },
            {
              "internalType": "address",
              "name": "masaToken",
              "type": "address"
            },
            {
              "internalType": "address",
              "name": "reserveWallet",
              "type": "address"
            }
          ],
          "internalType": "struct PaymentGateway.PaymentParams",
          "name": "paymentParams",
          "type": "tuple"
        }
      ],
      "stateMutability": "nonpayable",
      "type": "constructor"
    },
    {
      "anonymous": false,
      "inputs": [
        {
          "indexed": true,
          "internalType": "address",
          "name": "_owner",
          "type": "address"
        },
        {
          "indexed": true,
          "internalType": "uint256",
          "name": "_tokenId",
          "type": "uint256"
        }
      ],
      "name": "Burn",
      "type": "event"
    },
    {
      "anonymous": false,
      "inputs": [
        {
          "indexed": true,
          "internalType": "address",
          "name": "_owner",
          "type": "address"
        },
        {
          "indexed": true,
          "internalType": "uint256",
          "name": "_tokenId",
          "type": "uint256"
        }
      ],
      "name": "Mint",
      "type": "event"
    },
    {
      "anonymous": false,
      "inputs": [
        {
          "indexed": true,
          "internalType": "address",
          "name": "previousOwner",
          "type": "address"
        },
        {
          "indexed": true,
          "internalType": "address",
          "name": "newOwner",
          "type": "address"
        }
      ],
      "name": "OwnershipTransferred",
      "type": "event"
    },
    {
      "anonymous": false,
      "inputs": [
        {
          "indexed": true,
          "internalType": "bytes32",
          "name": "role",
          "type": "bytes32"
        },
        {
          "indexed": true,
          "internalType": "bytes32",
          "name": "previousAdminRole",
          "type": "bytes32"
        },
        {
          "indexed": true,
          "internalType": "bytes32",
          "name": "newAdminRole",
          "type": "bytes32"
        }
      ],
      "name": "RoleAdminChanged",
      "type": "event"
    },
    {
      "anonymous": false,
      "inputs": [
        {
          "indexed": true,
          "internalType": "bytes32",
          "name": "role",
          "type": "bytes32"
        },
        {
          "indexed": true,
          "internalType": "address",
          "name": "account",
          "type": "address"
        },
        {
          "indexed": true,
          "internalType": "address",
          "name": "sender",
          "type": "address"
        }
      ],
      "name": "RoleGranted",
      "type": "event"
    },
    {
      "anonymous": false,
      "inputs": [
        {
          "indexed": true,
          "internalType": "bytes32",
          "name": "role",
          "type": "bytes32"
        },
        {
          "indexed": true,
          "internalType": "address",
          "name": "account",
          "type": "address"
        },
        {
          "indexed": true,
          "internalType": "address",
          "name": "sender",
          "type": "address"
        }
      ],
      "name": "RoleRevoked",
      "type": "event"
    },
    {
      "anonymous": false,
      "inputs": [
        {
          "indexed": false,
          "internalType": "uint256",
          "name": "tokenId",
          "type": "uint256"
        },
        {
          "indexed": false,
          "internalType": "uint256",
          "name": "identityId",
          "type": "uint256"
        },
        {
          "indexed": false,
          "internalType": "address",
          "name": "authorityAddress",
          "type": "address"
        },
        {
          "indexed": false,
          "internalType": "uint256",
          "name": "signatureDate",
          "type": "uint256"
        },
        {
          "indexed": false,
          "internalType": "address",
          "name": "paymentMethod",
          "type": "address"
        },
        {
          "indexed": false,
          "internalType": "uint256",
          "name": "mintingPrice",
          "type": "uint256"
        }
      ],
      "name": "Soulbound2FAMinted",
      "type": "event"
    },
    {
      "inputs": [],
      "name": "DEFAULT_ADMIN_ROLE",
      "outputs": [
        {
          "internalType": "bytes32",
          "name": "",
          "type": "bytes32"
        }
      ],
      "stateMutability": "view",
      "type": "function"
    },
    {
      "inputs": [
        {
          "internalType": "address",
          "name": "_authority",
          "type": "address"
        }
      ],
      "name": "addAuthority",
      "outputs": [],
      "stateMutability": "nonpayable",
      "type": "function"
    },
    {
      "inputs": [
        {
          "internalType": "address",
          "name": "_erc20token",
          "type": "address"
        }
      ],
      "name": "addErc20Token",
      "outputs": [],
      "stateMutability": "nonpayable",
      "type": "function"
    },
    {
      "inputs": [
        {
          "internalType": "address",
          "name": "",
          "type": "address"
        }
      ],
      "name": "authorities",
      "outputs": [
        {
          "internalType": "bool",
          "name": "",
          "type": "bool"
        }
      ],
      "stateMutability": "view",
      "type": "function"
    },
    {
      "inputs": [
        {
          "internalType": "address",
          "name": "owner",
          "type": "address"
        }
      ],
      "name": "balanceOf",
      "outputs": [
        {
          "internalType": "uint256",
          "name": "",
          "type": "uint256"
        }
      ],
      "stateMutability": "view",
      "type": "function"
    },
    {
      "inputs": [
        {
          "internalType": "uint256",
          "name": "tokenId",
          "type": "uint256"
        }
      ],
      "name": "burn",
      "outputs": [],
      "stateMutability": "nonpayable",
      "type": "function"
    },
    {
      "inputs": [
        {
          "internalType": "address",
          "name": "",
          "type": "address"
        }
      ],
      "name": "erc20token",
      "outputs": [
        {
          "internalType": "bool",
          "name": "",
          "type": "bool"
        }
      ],
      "stateMutability": "view",
      "type": "function"
    },
    {
      "inputs": [
        {
          "internalType": "uint256",
          "name": "",
          "type": "uint256"
        }
      ],
      "name": "erc20tokens",
      "outputs": [
        {
          "internalType": "address",
          "name": "",
          "type": "address"
        }
      ],
      "stateMutability": "view",
      "type": "function"
    },
    {
      "inputs": [],
      "name": "getErc20Tokens",
      "outputs": [
        {
          "internalType": "address[]",
          "name": "",
          "type": "address[]"
        }
      ],
      "stateMutability": "view",
      "type": "function"
    },
    {
      "inputs": [
        {
          "internalType": "uint256",
          "name": "tokenId",
          "type": "uint256"
        }
      ],
      "name": "getIdentityId",
      "outputs": [
        {
          "internalType": "uint256",
          "name": "",
          "type": "uint256"
        }
      ],
      "stateMutability": "view",
      "type": "function"
    },
    {
      "inputs": [
        {
          "internalType": "address",
          "name": "paymentMethod",
          "type": "address"
        }
      ],
      "name": "getMintingPrice",
      "outputs": [
        {
          "internalType": "uint256",
          "name": "",
          "type": "uint256"
        }
      ],
      "stateMutability": "view",
      "type": "function"
    },
    {
      "inputs": [
        {
          "internalType": "bytes32",
          "name": "role",
          "type": "bytes32"
        }
      ],
      "name": "getRoleAdmin",
      "outputs": [
        {
          "internalType": "bytes32",
          "name": "",
          "type": "bytes32"
        }
      ],
      "stateMutability": "view",
      "type": "function"
    },
    {
      "inputs": [
        {
          "internalType": "bytes32",
          "name": "role",
          "type": "bytes32"
        },
        {
          "internalType": "address",
          "name": "account",
          "type": "address"
        }
      ],
      "name": "grantRole",
      "outputs": [],
      "stateMutability": "nonpayable",
      "type": "function"
    },
    {
      "inputs": [
        {
          "internalType": "bytes32",
          "name": "role",
          "type": "bytes32"
        },
        {
          "internalType": "address",
          "name": "account",
          "type": "address"
        }
      ],
      "name": "hasRole",
      "outputs": [
        {
          "internalType": "bool",
          "name": "",
          "type": "bool"
        }
      ],
      "stateMutability": "view",
      "type": "function"
    },
    {
      "inputs": [],
      "name": "masaToken",
      "outputs": [
        {
          "internalType": "address",
          "name": "",
          "type": "address"
        }
      ],
      "stateMutability": "view",
      "type": "function"
    },
    {
      "inputs": [
        {
          "internalType": "address",
          "name": "paymentMethod",
          "type": "address"
        },
        {
          "internalType": "uint256",
          "name": "identityId",
          "type": "uint256"
        },
        {
          "internalType": "address",
          "name": "authorityAddress",
          "type": "address"
        },
        {
          "internalType": "uint256",
          "name": "signatureDate",
          "type": "uint256"
        },
        {
          "internalType": "bytes",
          "name": "signature",
          "type": "bytes"
        }
      ],
      "name": "mint",
      "outputs": [
        {
          "internalType": "uint256",
          "name": "",
          "type": "uint256"
        }
      ],
      "stateMutability": "payable",
      "type": "function"
    },
    {
      "inputs": [
        {
          "internalType": "address",
          "name": "paymentMethod",
          "type": "address"
        },
        {
          "internalType": "address",
          "name": "to",
          "type": "address"
        },
        {
          "internalType": "address",
          "name": "authorityAddress",
          "type": "address"
        },
        {
          "internalType": "uint256",
          "name": "signatureDate",
          "type": "uint256"
        },
        {
          "internalType": "bytes",
          "name": "signature",
          "type": "bytes"
        }
      ],
      "name": "mint",
      "outputs": [
        {
          "internalType": "uint256",
          "name": "",
          "type": "uint256"
        }
      ],
      "stateMutability": "payable",
      "type": "function"
    },
    {
      "inputs": [],
      "name": "mintingPrice",
      "outputs": [
        {
          "internalType": "uint256",
          "name": "",
          "type": "uint256"
        }
      ],
      "stateMutability": "view",
      "type": "function"
    },
    {
      "inputs": [],
      "name": "name",
      "outputs": [
        {
          "internalType": "string",
          "name": "",
          "type": "string"
        }
      ],
      "stateMutability": "view",
      "type": "function"
    },
    {
      "inputs": [],
      "name": "owner",
      "outputs": [
        {
          "internalType": "address",
          "name": "",
          "type": "address"
        }
      ],
      "stateMutability": "view",
      "type": "function"
    },
    {
      "inputs": [
        {
          "internalType": "uint256",
          "name": "tokenId",
          "type": "uint256"
        }
      ],
      "name": "ownerOf",
      "outputs": [
        {
          "internalType": "address",
          "name": "",
          "type": "address"
        }
      ],
      "stateMutability": "view",
      "type": "function"
    },
    {
      "inputs": [
        {
          "internalType": "address",
          "name": "_erc20token",
          "type": "address"
        }
      ],
      "name": "removeErc20Token",
      "outputs": [],
      "stateMutability": "nonpayable",
      "type": "function"
    },
    {
      "inputs": [],
      "name": "renounceOwnership",
      "outputs": [],
      "stateMutability": "nonpayable",
      "type": "function"
    },
    {
      "inputs": [
        {
          "internalType": "bytes32",
          "name": "role",
          "type": "bytes32"
        },
        {
          "internalType": "address",
          "name": "account",
          "type": "address"
        }
      ],
      "name": "renounceRole",
      "outputs": [],
      "stateMutability": "nonpayable",
      "type": "function"
    },
    {
      "inputs": [],
      "name": "reserveWallet",
      "outputs": [
        {
          "internalType": "address",
          "name": "",
          "type": "address"
        }
      ],
      "stateMutability": "view",
      "type": "function"
    },
    {
      "inputs": [
        {
          "internalType": "bytes32",
          "name": "role",
          "type": "bytes32"
        },
        {
          "internalType": "address",
          "name": "account",
          "type": "address"
        }
      ],
      "name": "revokeRole",
      "outputs": [],
      "stateMutability": "nonpayable",
      "type": "function"
    },
    {
      "inputs": [
        {
          "internalType": "address",
          "name": "_masaToken",
          "type": "address"
        }
      ],
      "name": "setMasaToken",
      "outputs": [],
      "stateMutability": "nonpayable",
      "type": "function"
    },
    {
      "inputs": [
        {
          "internalType": "uint256",
          "name": "_mintingPrice",
          "type": "uint256"
        }
      ],
      "name": "setMintingPrice",
      "outputs": [],
      "stateMutability": "nonpayable",
      "type": "function"
    },
    {
      "inputs": [
        {
          "internalType": "address",
          "name": "_reserveWallet",
          "type": "address"
        }
      ],
      "name": "setReserveWallet",
      "outputs": [],
      "stateMutability": "nonpayable",
      "type": "function"
    },
    {
      "inputs": [
        {
          "internalType": "contract ISoulboundIdentity",
          "name": "_soulboundIdentity",
          "type": "address"
        }
      ],
      "name": "setSoulboundIdentity",
      "outputs": [],
      "stateMutability": "nonpayable",
      "type": "function"
    },
    {
      "inputs": [
        {
          "internalType": "address",
          "name": "_stableCoin",
          "type": "address"
        }
      ],
      "name": "setStableCoin",
      "outputs": [],
      "stateMutability": "nonpayable",
      "type": "function"
    },
    {
      "inputs": [
        {
          "internalType": "address",
          "name": "_swapRouter",
          "type": "address"
        }
      ],
      "name": "setSwapRouter",
      "outputs": [],
      "stateMutability": "nonpayable",
      "type": "function"
    },
    {
      "inputs": [
        {
          "internalType": "address",
          "name": "_wrappedNativeToken",
          "type": "address"
        }
      ],
      "name": "setWrappedNativeToken",
      "outputs": [],
      "stateMutability": "nonpayable",
      "type": "function"
    },
    {
      "inputs": [],
      "name": "soulboundIdentity",
      "outputs": [
        {
          "internalType": "contract ISoulboundIdentity",
          "name": "",
          "type": "address"
        }
      ],
      "stateMutability": "view",
      "type": "function"
    },
    {
      "inputs": [],
      "name": "stableCoin",
      "outputs": [
        {
          "internalType": "address",
          "name": "",
          "type": "address"
        }
      ],
      "stateMutability": "view",
      "type": "function"
    },
    {
      "inputs": [
        {
          "internalType": "bytes4",
          "name": "interfaceId",
          "type": "bytes4"
        }
      ],
      "name": "supportsInterface",
      "outputs": [
        {
          "internalType": "bool",
          "name": "",
          "type": "bool"
        }
      ],
      "stateMutability": "view",
      "type": "function"
    },
    {
      "inputs": [],
      "name": "swapRouter",
      "outputs": [
        {
          "internalType": "address",
          "name": "",
          "type": "address"
        }
      ],
      "stateMutability": "view",
      "type": "function"
    },
    {
      "inputs": [],
      "name": "symbol",
      "outputs": [
        {
          "internalType": "string",
          "name": "",
          "type": "string"
        }
      ],
      "stateMutability": "view",
      "type": "function"
    },
    {
      "inputs": [
        {
          "internalType": "uint256",
          "name": "index",
          "type": "uint256"
        }
      ],
      "name": "tokenByIndex",
      "outputs": [
        {
          "internalType": "uint256",
          "name": "",
          "type": "uint256"
        }
      ],
      "stateMutability": "view",
      "type": "function"
    },
    {
      "inputs": [
        {
          "internalType": "address",
          "name": "owner",
          "type": "address"
        },
        {
          "internalType": "uint256",
          "name": "index",
          "type": "uint256"
        }
      ],
      "name": "tokenOfOwnerByIndex",
      "outputs": [
        {
          "internalType": "uint256",
          "name": "",
          "type": "uint256"
        }
      ],
      "stateMutability": "view",
      "type": "function"
    },
    {
      "inputs": [
        {
          "internalType": "uint256",
          "name": "tokenId",
          "type": "uint256"
        }
      ],
      "name": "tokenURI",
      "outputs": [
        {
          "internalType": "string",
          "name": "",
          "type": "string"
        }
      ],
      "stateMutability": "view",
      "type": "function"
    },
    {
      "inputs": [],
      "name": "totalSupply",
      "outputs": [
        {
          "internalType": "uint256",
          "name": "",
          "type": "uint256"
        }
      ],
      "stateMutability": "view",
      "type": "function"
    },
    {
      "inputs": [
        {
          "internalType": "address",
          "name": "newOwner",
          "type": "address"
        }
      ],
      "name": "transferOwnership",
      "outputs": [],
      "stateMutability": "nonpayable",
      "type": "function"
    },
    {
      "inputs": [],
      "name": "wrappedNativeToken",
      "outputs": [
        {
          "internalType": "address",
          "name": "",
          "type": "address"
        }
      ],
      "stateMutability": "view",
      "type": "function"
    }
  ],
  "transactionHash": "0xc33d6ed907a47d3661faf0464aafaf1543a98b0c18a8ffd1a18484b1f4c148d1",
  "args": [
    "0x3c8D9f130970358b7E8cbc1DbD0a1EbA6EBE368F",
    "https://beta.metadata.masa.finance/v1.0/2fa/",
    "0x270265B1c6b31ae53f75BC2f6a5D5F7f422BB9e8",
    "0",
    [
      "0x7a250d5630B4cF539739dF2C5dAcb4c659F2488D",
      "0xB4FBF271143F4FBf7B91A5ded31805e42b2208d6",
      "0xD87Ba7A50B2E7E660f678A895E4B72E7CB4CCd9C",
      "0x1f9840a85d5aF5bf1D1762F925BDADdC4201F984",
      "0x3c8D9f130970358b7E8cbc1DbD0a1EbA6EBE368F"
    ]
  ],
  "numDeployments": 3,
  "solcInputHash": "95224ea3000149177f1a2008f51ec90c",
  "bytecode": "0x6101406040523480156200001257600080fd5b50604051620044ac380380620044ac8339810160408190526200003591620006cc565b84604051806040016040528060088152602001674d6173612032464160c01b8152506040518060400160405280600381526020016226992360e91b815250868686866040518060400160405280600c81526020016b536f756c626f756e6432464160a01b815250604051806040016040528060058152602001640312e302e360dc1b8152508888888882828e89620000dc620000d66200033a60201b60201c565b6200033e565b80516001600160a01b03166200010f5760405162461bcd60e51b815260040162000106906200087f565b60405180910390fd5b60208101516001600160a01b03166200013c5760405162461bcd60e51b815260040162000106906200087f565b60408101516001600160a01b0316620001695760405162461bcd60e51b815260040162000106906200087f565b60808101516001600160a01b0316620001965760405162461bcd60e51b815260040162000106906200087f565b620001ac826200038e60201b620014891760201c565b8051600180546001600160a01b03199081166001600160a01b0393841617909155602080840151600280548416918516919091179055604084015160038054841691851691909117905560608401516004805484169185169190911790556080909301516007805490921692169190911790558351620002339250600891850190620004f2565b50805162000249906009906020840190620004f2565b506200025b91506000905085620003cf565b805162000270906011906020840190620004f2565b5050845160208087019190912085519186019190912060e08290526101008190524660a05290935091507f8b73c3c69bb8fe3d512ecc4cf759cc79239f7b179b0ffacaa9a75d522b39400f9050620002ca8184846200045a565b6080523060601b60c05261012052505050506001600160a01b038316620003055760405162461bcd60e51b815260040162000106906200087f565b50601380546001600160a01b0319166001600160a01b0393909316929092179091556014555062000a06975050505050505050565b3390565b600080546001600160a01b038381166001600160a01b0319831681178455604051919092169283917f8be0079c531659141344cd1fd0a4f28419497f9722a3daafe3b4186f6b6457e09190a35050565b6200039862000496565b6001600160a01b038116620003c15760405162461bcd60e51b8152600401620001069062000834565b620003cc816200033e565b50565b620003db8282620004c5565b620004565760008281526010602090815260408083206001600160a01b03851684529091529020805460ff19166001179055620004153390565b6001600160a01b0316816001600160a01b0316837f2f8788117e7eff1d82e926ec794901d17c78024a50270940304540a733656f0d60405160405180910390a45b5050565b6000838383463060405160200162000477959493929190620007de565b6040516020818303038152906040528051906020012090509392505050565b6000546001600160a01b03163314620004c35760405162461bcd60e51b8152600401620001069062000891565b565b60008281526010602090815260408083206001600160a01b038516845290915290205460ff165b92915050565b828054620005009062000944565b90600052602060002090601f0160209004810192826200052457600085556200056f565b82601f106200053f57805160ff19168380011785556200056f565b828001600101855582156200056f579182015b828111156200056f57825182559160200191906001019062000552565b506200057d92915062000581565b5090565b5b808211156200057d576000815560010162000582565b6000620005af620005a984620008c2565b620008a3565b905082815260208101848484011115620005cc57620005cc600080fd5b620005d984828562000911565b509392505050565b8051620004ec81620009dd565b8051620004ec81620009f4565b600082601f830112620006115762000611600080fd5b81516200062384826020860162000598565b949350505050565b600060a08284031215620006425762000642600080fd5b6200064e60a0620008a3565b905060006200065e8484620005e1565b82525060206200067184848301620005e1565b60208301525060406200068784828501620005e1565b60408301525060606200069d84828501620005e1565b6060830152506080620006b384828501620005e1565b60808301525092915050565b8051620004ec81620009ff565b60008060008060006101208688031215620006ea57620006ea600080fd5b6000620006f88888620005e1565b95505060208601516001600160401b03811115620007195762000719600080fd5b6200072788828901620005fb565b94505060406200073a88828901620005ee565b93505060606200074d88828901620006bf565b925050608062000760888289016200062b565b9150509295509295909350565b6200077881620008f2565b82525050565b8062000778565b600c81526000602082016b5a45524f5f4144445245535360a01b815291505b5060200190565b60208082527f4f776e61626c653a2063616c6c6572206973206e6f7420746865206f776e657291019081526000620007a4565b60a08101620007ee82886200077e565b620007fd60208301876200077e565b6200080c60408301866200077e565b6200081b60608301856200077e565b6200082a60808301846200076d565b9695505050505050565b60208082528101620004ec81602681527f4f776e61626c653a206e6577206f776e657220697320746865207a65726f206160208201526564647265737360d01b604082015260600190565b60208082528101620004ec8162000785565b60208082528101620004ec81620007ab565b6000620008af60405190565b9050620008bd828262000975565b919050565b60006001600160401b03821115620008de57620008de620009bd565b620008e982620009d3565b60200192915050565b60006001600160a01b038216620004ec565b6000620004ec82620008f2565b60005b838110156200092e57818101518382015260200162000914565b838111156200093e576000848401525b50505050565b6002810460018216806200095957607f821691505b602082108114156200096f576200096f620009a7565b50919050565b6200098082620009d3565b81018181106001600160401b0382111715620009a057620009a0620009bd565b6040525050565b634e487b7160e01b600052602260045260246000fd5b634e487b7160e01b600052604160045260246000fd5b601f01601f191690565b620009e881620008f2565b8114620003cc57600080fd5b620009e88162000904565b80620009e8565b60805160a05160c05160601c60e0516101005161012051613a5362000a596000396000611f8901526000611fcb01526000611faa01526000611f0e01526000611f3801526000611f620152613a536000f3fe6080604052600436106101f75760003560e01c806301ffc9a7146101fc57806306fdde031461023257806317fcb39b1461025457806318160ddd1461028157806320d558aa1461029f57806323af4e17146102b2578063248a9ca3146102d457806326defa73146102f45780632f2ff15d146103145780632f745c591461033457806335db70b51461035457806336568abe1461036a5780633ad3033e1461038a57806341273657146103aa57806342966c68146103ca5780634f6ccce7146103ea5780636352211e1461040a5780636a4acb3a1461042a5780636d0365351461044a57806370a082311461046c578063715018a61461048c57806376ad1997146104a157806377bed5ed146104c15780637ad09dff146104ee5780638417b47f146105015780638da5cb5b1461052157806391223d691461053657806391d148541461056657806395d89b41146105865780639800c1051461059b578063992642e5146105bb5780639f3fbecf146105db578063a217fddf146105fb578063bd5c297614610610578063c1177d1914610630578063c31c9c0714610650578063c87b56dd14610670578063d547741f14610690578063d72b11bd146106b0578063da058ae3146106d0578063dcbed008146106f0578063dda4fa8f14610720578063ebda439614610740578063f2fde38b14610760575b600080fd5b34801561020857600080fd5b5061021c610217366004612c62565b610780565b604051610229919061348d565b60405180910390f35b34801561023e57600080fd5b50610247610791565b604051610229919061355f565b34801561026057600080fd5b50600254610274906001600160a01b031681565b6040516102299190613446565b34801561028d57600080fd5b50600e545b604051610229919061349b565b6102926102ad366004612b7a565b610823565b3480156102be57600080fd5b506102d26102cd366004612a66565b610991565b005b3480156102e057600080fd5b506102926102ef366004612c0e565b610a0f565b34801561030057600080fd5b506102d261030f366004612a66565b610a24565b34801561032057600080fd5b506102d261032f366004612c2f565b610ab3565b34801561034057600080fd5b5061029261034f366004612b3d565b610ad4565b34801561036057600080fd5b5061029260145481565b34801561037657600080fd5b506102d2610385366004612c2f565b610b26565b34801561039657600080fd5b506102d26103a5366004612c83565b610b5c565b3480156103b657600080fd5b506102d26103c5366004612a66565b610bde565b3480156103d657600080fd5b506102d26103e5366004612c0e565b610c5c565b3480156103f657600080fd5b50610292610405366004612c0e565b610c8e565b34801561041657600080fd5b50610274610425366004612c0e565b610cdc565b34801561043657600080fd5b506102d2610445366004612a66565b610d11565b34801561045657600080fd5b5061045f610dde565b604051610229919061347c565b34801561047857600080fd5b50610292610487366004612a66565b610e3f565b34801561049857600080fd5b506102d2610e83565b3480156104ad57600080fd5b506102d26104bc366004612a66565b610e97565b3480156104cd57600080fd5b506013546104e1906001600160a01b031681565b6040516102299190613551565b6102926104fc366004612aa8565b610eef565b34801561050d57600080fd5b506102d261051c366004612c0e565b610f90565b34801561052d57600080fd5b50610274610fc3565b34801561054257600080fd5b5061021c610551366004612a66565b60156020526000908152604090205460ff1681565b34801561057257600080fd5b5061021c610581366004612c2f565b610fd2565b34801561059257600080fd5b50610247610ffd565b3480156105a757600080fd5b506102d26105b6366004612a66565b61100c565b3480156105c757600080fd5b50600354610274906001600160a01b031681565b3480156105e757600080fd5b506102926105f6366004612a66565b611198565b34801561060757600080fd5b50610292600081565b34801561061c57600080fd5b5061027461062b366004612c0e565b61124d565b34801561063c57600080fd5b5061029261064b366004612c0e565b611277565b34801561065c57600080fd5b50600154610274906001600160a01b031681565b34801561067c57600080fd5b5061024761068b366004612c0e565b61130b565b34801561069c57600080fd5b506102d26106ab366004612c2f565b611371565b3480156106bc57600080fd5b50600754610274906001600160a01b031681565b3480156106dc57600080fd5b506102d26106eb366004612a66565b61138d565b3480156106fc57600080fd5b5061021c61070b366004612a66565b60056020526000908152604090205460ff1681565b34801561072c57600080fd5b506102d261073b366004612a66565b61140b565b34801561074c57600080fd5b50600454610274906001600160a01b031681565b34801561076c57600080fd5b506102d261077b366004612a66565b611489565b600061078b826114c0565b92915050565b6060600880546107a0906138b5565b80601f01602080910402602001604051908101604052809291908181526020018280546107cc906138b5565b80156108195780601f106107ee57610100808354040283529160200191610819565b820191906000526020600020905b8154815290600101906020018083116107fc57829003601f168201915b5050505050905090565b6013546040516331a9108f60e11b815260009182916001600160a01b0390911690636352211e90610858908a9060040161349b565b60206040518083038186803b15801561087057600080fd5b505afa158015610884573d6000803e3d6000fd5b505050506040513d601f19601f820116820180604052508101906108a89190612a87565b90506001600160a01b03811633146108db5760405162461bcd60e51b81526004016108d2906136c0565b60405180910390fd5b6109276108e98888886114e5565b85858080601f0160208091040260200160405190810160405280939291908181526020018383808284376000920191909152508b9250611544915050565b610933886014546115c1565b600061093e826117bc565b90507f7cb2a8af38fc0c5e237e90b7da012d3efe0c31a258dce47a5b65f8dd1dad828e818989898d60145460405161097b96959493929190613760565b60405180910390a19150505b9695505050505050565b6109996117e2565b6001600160a01b0381166109bf5760405162461bcd60e51b81526004016108d290613650565b6003546001600160a01b03828116911614156109ed5760405162461bcd60e51b81526004016108d290613600565b600380546001600160a01b0319166001600160a01b0392909216919091179055565b60009081526010602052604090206001015490565b6000610a2f81611811565b6001600160a01b038216610a555760405162461bcd60e51b81526004016108d290613650565b6001600160a01b03821660009081526015602052604090205460ff1615610a8e5760405162461bcd60e51b81526004016108d2906136e0565b506001600160a01b03166000908152601560205260409020805460ff19166001179055565b610abc82610a0f565b610ac581611811565b610acf838361181b565b505050565b6000610adf83610e3f565b8210610afd5760405162461bcd60e51b81526004016108d2906135e0565b506001600160a01b03919091166000908152600c60209081526040808320938352929052205490565b6001600160a01b0381163314610b4e5760405162461bcd60e51b81526004016108d290613730565b610b5882826118a1565b5050565b6000610b6781611811565b6001600160a01b038216610b8d5760405162461bcd60e51b81526004016108d290613650565b6013546001600160a01b0383811691161415610bbb5760405162461bcd60e51b81526004016108d290613600565b50601380546001600160a01b0319166001600160a01b0392909216919091179055565b610be66117e2565b6001600160a01b038116610c0c5760405162461bcd60e51b81526004016108d290613650565b6001546001600160a01b0382811691161415610c3a5760405162461bcd60e51b81526004016108d290613600565b600180546001600160a01b0319166001600160a01b0392909216919091179055565b610c663382611908565b610c825760405162461bcd60e51b81526004016108d290613640565b610c8b8161192b565b50565b6000610c99600e5490565b8210610cb75760405162461bcd60e51b81526004016108d290613710565b600e8281548110610cca57610cca6139ac565b90600052602060002001549050919050565b6000818152600a60205260408120546001600160a01b03168061078b5760405162461bcd60e51b81526004016108d2906136b0565b610d196117e2565b6001600160a01b038116610d3f5760405162461bcd60e51b81526004016108d290613650565b6001600160a01b03811660009081526005602052604090205460ff1615610d785760405162461bcd60e51b81526004016108d2906136e0565b6001600160a01b03166000818152600560205260408120805460ff191660019081179091556006805491820181559091527ff652222313e28459528d920b65115c16c04f3efc82aaedc97be59f3f377c0d3f0180546001600160a01b0319169091179055565b6060600680548060200260200160405190810160405280929190818152602001828054801561081957602002820191906000526020600020905b81546001600160a01b03168152600190910190602001808311610e18575050505050905090565b60006001600160a01b038216610e675760405162461bcd60e51b81526004016108d290613630565b506001600160a01b03166000908152600b602052604090205490565b610e8b6117e2565b610e9560006119c5565b565b610e9f6117e2565b6004546001600160a01b0382811691161415610ecd5760405162461bcd60e51b81526004016108d290613600565b600480546001600160a01b0319166001600160a01b0392909216919091179055565b60135460405163294cdf0d60e01b815260009182916001600160a01b039091169063294cdf0d90610f24908a90600401613446565b60206040518083038186803b158015610f3c57600080fd5b505afa158015610f50573d6000803e3d6000fd5b505050506040513d601f19601f82011682018060405250810190610f749190612ca4565b9050610f84888288888888610823565b98975050505050505050565b6000610f9b81611811565b816014541415610fbd5760405162461bcd60e51b81526004016108d290613600565b50601455565b6000546001600160a01b031690565b60009182526010602090815260408084206001600160a01b0393909316845291905290205460ff1690565b6060600980546107a0906138b5565b6110146117e2565b6001600160a01b03811661103a5760405162461bcd60e51b81526004016108d290613650565b6001600160a01b03811660009081526005602052604090205460ff166110725760405162461bcd60e51b81526004016108d2906135b0565b6001600160a01b0381166000908152600560205260408120805460ff191690555b600654811015610b5857816001600160a01b0316600682815481106110ba576110ba6139ac565b6000918252602090912001546001600160a01b0316141561118657600680546110e590600190613834565b815481106110f5576110f56139ac565b600091825260209091200154600680546001600160a01b039092169183908110611121576111216139ac565b9060005260206000200160006101000a8154816001600160a01b0302191690836001600160a01b03160217905550600680548061116057611160613996565b600082815260209020810160001990810180546001600160a01b03191690550190555050565b806111908161390f565b915050611093565b60006001600160a01b0382166111c15760025460145461078b916001600160a01b031690611a15565b6003546001600160a01b0383811691161480156111f657506001600160a01b03821660009081526005602052604090205460ff165b1561120357505060145490565b6001600160a01b03821660009081526005602052604090205460ff16156112305761078b82601454611a15565b60405162461bcd60e51b81526004016108d290613680565b919050565b6006818154811061125d57600080fd5b6000918252602090912001546001600160a01b0316905081565b60008061128383610cdc565b60135460405163294cdf0d60e01b81529192506001600160a01b03169063294cdf0d906112b4908490600401613446565b60206040518083038186803b1580156112cc57600080fd5b505afa1580156112e0573d6000803e3d6000fd5b505050506040513d601f19601f820116820180604052508101906113049190612ca4565b9392505050565b606061131682611a9a565b6000611320611abf565b905060008151116113405760405180602001604052806000815250611304565b8061134a84611ace565b60405160200161135b92919061338d565b6040516020818303038152906040529392505050565b61137a82610a0f565b61138381611811565b610acf83836118a1565b6113956117e2565b6001600160a01b0381166113bb5760405162461bcd60e51b81526004016108d290613650565b6002546001600160a01b03828116911614156113e95760405162461bcd60e51b81526004016108d290613600565b600280546001600160a01b0319166001600160a01b0392909216919091179055565b6114136117e2565b6001600160a01b0381166114395760405162461bcd60e51b81526004016108d290613650565b6007546001600160a01b03828116911614156114675760405162461bcd60e51b81526004016108d290613600565b600780546001600160a01b0319166001600160a01b0392909216919091179055565b6114916117e2565b6001600160a01b0381166114b75760405162461bcd60e51b81526004016108d2906135c0565b610c8b816119c5565b60006001600160e01b03198216637965db0b60e01b148061078b575061078b82611bcb565b600061153c7f34ec28456d08f4e49693917808b7282a69eadae2824d33b92474bc8bdfdb7be685858560405160200161152194939291906134eb565b60405160208183030381529060405280519060200120611bf0565b949350505050565b60006115508484611c03565b9050816001600160a01b0316816001600160a01b0316146115835760405162461bcd60e51b81526004016108d290613620565b6001600160a01b03811660009081526015602052604090205460ff166115bb5760405162461bcd60e51b81526004016108d290613720565b50505050565b806115ca575050565b6001600160a01b03821661171a576002546000906115f1906001600160a01b031683611a15565b9050803410156116135760405162461bcd60e51b81526004016108d2906136d0565b6007546040516000916001600160a01b0316908390611631906133ec565b60006040518083038185875af1925050503d806000811461166e576040519150601f19603f3d011682016040523d82523d6000602084013e611673565b606091505b50509050806116945760405162461bcd60e51b81526004016108d290613670565b813411156115bb5760006116a83484611c27565b9050336001600160a01b0316816040516116c1906133ec565b60006040518083038185875af1925050503d80600081146116fe576040519150601f19603f3d011682016040523d82523d6000602084013e611703565b606091505b5050809250508161171357600080fd5b5050505050565b6003546001600160a01b03838116911614801561174f57506001600160a01b03821660009081526005602052604090205460ff165b1561177057600754610b58906001600160a01b038481169133911684611c33565b6001600160a01b03821660009081526005602052604090205460ff161561123057600061179d8383611a15565b600754909150610acf906001600160a01b038581169133911684611c33565b6000806117c860125490565b90506117d8601280546001019055565b61078b8382611c8b565b336117eb610fc3565b6001600160a01b031614610e955760405162461bcd60e51b81526004016108d290613690565b610c8b8133611d67565b6118258282610fd2565b610b585760008281526010602090815260408083206001600160a01b03851684529091529020805460ff1916600117905561185d3390565b6001600160a01b0316816001600160a01b0316837f2f8788117e7eff1d82e926ec794901d17c78024a50270940304540a733656f0d60405160405180910390a45050565b6118ab8282610fd2565b15610b585760008281526010602090815260408083206001600160a01b0385168085529252808320805460ff1916905551339285917ff6391f5c32d9c69d2a47ea670b442974b53935d1edc7fd64eb21e047a839171b9190a45050565b60008061191483610cdc565b6001600160a01b0385811691161491505092915050565b600061193682610cdc565b905061194481600084611dcb565b6001600160a01b0381166000908152600b6020526040812080546001929061196d908490613834565b90915550506000828152600a602052604080822080546001600160a01b03191690555183916001600160a01b038416917fcc16f5dbb4873280815c1ee09dbd06736cffcc184412cf7a71a0fdb75d397ca59190a35050565b600080546001600160a01b038381166001600160a01b0319831681178455604051919092169283917f8be0079c531659141344cd1fd0a4f28419497f9722a3daafe3b4186f6b6457e09190a35050565b6002546000906001600160a01b0384811691161480611a4c57506001600160a01b03831660009081526005602052604090205460ff165b8015611a6657506003546001600160a01b03848116911614155b611a825760405162461bcd60e51b81526004016108d2906135d0565b6003546113049084906001600160a01b031684611dd6565b611aa381611e94565b610c8b5760405162461bcd60e51b81526004016108d2906136b0565b6060601180546107a0906138b5565b606081611af25750506040805180820190915260018152600360fc1b602082015290565b8160005b8115611b1c5780611b068161390f565b9150611b159050600a83613801565b9150611af6565b6000816001600160401b03811115611b3657611b366139c2565b6040519080825280601f01601f191660200182016040528015611b60576020820181803683370190505b5090505b841561153c57611b75600183613834565b9150611b82600a8661392a565b611b8d9060306137e9565b60f81b818381518110611ba257611ba26139ac565b60200101906001600160f81b031916908160001a905350611bc4600a86613801565b9450611b64565b60006001600160e01b0319821663780e9d6360e01b148061078b575061078b82611eb1565b600061078b611bfd611f01565b83611ff4565b6000806000611c128585612027565b91509150611c1f8161206d565b509392505050565b60006113048284613834565b6115bb846323b872dd60e01b858585604051602401611c5493929190613454565b60408051601f198184030181529190526020810180516001600160e01b03166001600160e01b031990931692909217909152612152565b6001600160a01b038216611cb15760405162461bcd60e51b81526004016108d2906135a0565b611cba81611e94565b15611cd75760405162461bcd60e51b81526004016108d2906136a0565b611ce360008383611dcb565b6001600160a01b0382166000908152600b60205260408120805460019290611d0c9084906137e9565b90915550506000818152600a602052604080822080546001600160a01b0319166001600160a01b038616908117909155905183927f0f6798a560793a54c3bcfe86a93cde1e73087d944c0ea20544137d412139688591a35050565b611d718282610fd2565b610b5857611d89816001600160a01b031660146121e1565b611d948360206121e1565b604051602001611da59291906133f4565b60408051601f198184030181529082905262461bcd60e51b82526108d29160040161355f565b610acf83838361234c565b6000606080611de58686612404565b6001546040516307c0329d60e21b81529192506001600160a01b031690631f00ca7490611e189087908590600401613740565b60006040518083038186803b158015611e3057600080fd5b505afa158015611e44573d6000803e3d6000fd5b505050506040513d6000823e601f3d908101601f19168201604052611e6c9190810190612bb3565b915081600081518110611e8157611e816139ac565b6020026020010151925050509392505050565b6000908152600a60205260409020546001600160a01b0316151590565b60006001600160e01b031982166313f2a32f60e01b1480611ee257506001600160e01b03198216635b5e139f60e01b145b8061078b57506301ffc9a760e01b6001600160e01b031983161461078b565b6000306001600160a01b037f000000000000000000000000000000000000000000000000000000000000000016148015611f5a57507f000000000000000000000000000000000000000000000000000000000000000046145b15611f8457507f000000000000000000000000000000000000000000000000000000000000000090565b611fef7f00000000000000000000000000000000000000000000000000000000000000007f00000000000000000000000000000000000000000000000000000000000000007f0000000000000000000000000000000000000000000000000000000000000000612596565b905090565b600082826040516020016120099291906133bb565b60405160208183030381529060405280519060200120905092915050565b60008082516041141561205e5760208301516040840151606085015160001a612052878285856125d0565b94509450505050612066565b506000905060025b9250929050565b60008160048111156120815761208161396a565b141561208a5750565b600181600481111561209e5761209e61396a565b14156120bc5760405162461bcd60e51b81526004016108d290613570565b60028160048111156120d0576120d061396a565b14156120ee5760405162461bcd60e51b81526004016108d290613590565b60038160048111156121025761210261396a565b14156121205760405162461bcd60e51b81526004016108d2906135f0565b60048160048111156121345761213461396a565b1415610c8b5760405162461bcd60e51b81526004016108d290613660565b60006121a7826040518060400160405280602081526020017f5361666545524332303a206c6f772d6c6576656c2063616c6c206661696c6564815250856001600160a01b03166126a69092919063ffffffff16565b805190915015610acf57808060200190518101906121c59190612bed565b610acf5760405162461bcd60e51b81526004016108d290613700565b606060006121f0836002613815565b6121fb9060026137e9565b6001600160401b03811115612212576122126139c2565b6040519080825280601f01601f19166020018201604052801561223c576020820181803683370190505b509050600360fc1b81600081518110612257576122576139ac565b60200101906001600160f81b031916908160001a905350600f60fb1b81600181518110612286576122866139ac565b60200101906001600160f81b031916908160001a90535060006122aa846002613815565b6122b59060016137e9565b90505b600181111561232d576f181899199a1a9b1b9c1cb0b131b232b360811b85600f16601081106122e9576122e96139ac565b1a60f81b8282815181106122ff576122ff6139ac565b60200101906001600160f81b031916908160001a90535060049490941c936123268161389e565b90506122b8565b5083156113045760405162461bcd60e51b81526004016108d290613580565b6001600160a01b0383166123a7576123a281600e80546000838152600f60205260408120829055600182018355919091527fbb7b4a454dc3493923482f07822329ed19e8244eff582cc204f8554c3620c3fd0155565b6123ca565b816001600160a01b0316836001600160a01b0316146123ca576123ca83826126b5565b6001600160a01b0382166123e157610acf81612752565b826001600160a01b0316826001600160a01b031614610acf57610acf8282612801565b6002546060906001600160a01b038481169116148061243057506002546001600160a01b038381169116145b156124fa57604080516002808252606082018352600092602083019080368337019050506002549091506001600160a01b03858116911614612472578361247f565b6002546001600160a01b03165b81600081518110612492576124926139ac565b6001600160a01b0392831660209182029290920101526002548482169116146124bb57826124c8565b6002546001600160a01b03165b816001815181106124db576124db6139ac565b6001600160a01b0390921660209283029190910190910152905061078b565b60408051600380825260808201909252600091602082016060803683370190505090508381600081518110612531576125316139ac565b6001600160a01b039283166020918202929092010152600254825191169082906001908110612562576125626139ac565b60200260200101906001600160a01b031690816001600160a01b03168152505082816002815181106124db576124db6139ac565b600083838346306040516020016125b19594939291906134a9565b6040516020818303038152906040528051906020012090509392505050565b6000806fa2a8918ca85bafe22016d0b997e4df60600160ff1b038311156125fd575060009050600361269d565b8460ff16601b1415801561261557508460ff16601c14155b15612626575060009050600461269d565b60006001878787876040516000815260200160405260405161264b9493929190613529565b6020604051602081039080840390855afa15801561266d573d6000803e3d6000fd5b5050604051601f1901519150506001600160a01b0381166126965760006001925092505061269d565b9150600090505b94509492505050565b606061153c8484600085612845565b600060016126c284610e3f565b6126cc9190613834565b6000838152600d602052604090205490915080821461271f576001600160a01b0384166000908152600c602090815260408083208584528252808320548484528184208190558352600d90915290208190555b506000918252600d602090815260408084208490556001600160a01b039094168352600c81528383209183525290812055565b600e5460009061276490600190613834565b6000838152600f6020526040812054600e805493945090928490811061278c5761278c6139ac565b9060005260206000200154905080600e83815481106127ad576127ad6139ac565b6000918252602080832090910192909255828152600f9091526040808220849055858252812055600e8054806127e5576127e5613996565b6001900381819060005260206000200160009055905550505050565b600061280c83610e3f565b6001600160a01b039093166000908152600c602090815260408083208684528252808320859055938252600d9052919091209190915550565b6060824710156128675760405162461bcd60e51b81526004016108d290613610565b6001600160a01b0385163b61288e5760405162461bcd60e51b81526004016108d2906136f0565b600080866001600160a01b031685876040516128aa9190613381565b60006040518083038185875af1925050503d80600081146128e7576040519150601f19603f3d011682016040523d82523d6000602084013e6128ec565b606091505b50915091506128fc828286612907565b979650505050505050565b60608315612916575081611304565b8251156129265782518084602001fd5b8160405162461bcd60e51b81526004016108d2919061355f565b600061295361294e846137c6565b6137af565b9050808382526020820190508285602086028201111561297557612975600080fd5b60005b858110156129a1578161298b8882612a5b565b8452506020928301929190910190600101612978565b5050509392505050565b803561078b816139e2565b805161078b816139e2565b600082601f8301126129d5576129d5600080fd5b815161153c848260208601612940565b805161078b816139f6565b803561078b816139fe565b803561078b81613a04565b60008083601f840112612a1b57612a1b600080fd5b5081356001600160401b03811115612a3557612a35600080fd5b60208301915083600182028301111561206657612066600080fd5b803561078b81613a14565b805161078b816139fe565b600060208284031215612a7b57612a7b600080fd5b600061153c84846129ab565b600060208284031215612a9c57612a9c600080fd5b600061153c84846129b6565b60008060008060008060a08789031215612ac457612ac4600080fd5b6000612ad089896129ab565b9650506020612ae189828a016129ab565b9550506040612af289828a016129ab565b9450506060612b0389828a016129f0565b93505060808701356001600160401b03811115612b2257612b22600080fd5b612b2e89828a01612a06565b92509250509295509295509295565b60008060408385031215612b5357612b53600080fd5b6000612b5f85856129ab565b9250506020612b70858286016129f0565b9150509250929050565b60008060008060008060a08789031215612b9657612b96600080fd5b6000612ba289896129ab565b9650506020612ae189828a016129f0565b600060208284031215612bc857612bc8600080fd5b81516001600160401b03811115612be157612be1600080fd5b61153c848285016129c1565b600060208284031215612c0257612c02600080fd5b600061153c84846129e5565b600060208284031215612c2357612c23600080fd5b600061153c84846129f0565b60008060408385031215612c4557612c45600080fd5b6000612c5185856129f0565b9250506020612b70858286016129ab565b600060208284031215612c7757612c77600080fd5b600061153c84846129fb565b600060208284031215612c9857612c98600080fd5b600061153c8484612a50565b600060208284031215612cb957612cb9600080fd5b600061153c8484612a5b565b6000612cd18383612cd9565b505060200190565b612ce28161384b565b82525050565b6000612cf2825190565b80845260209384019383018060005b83811015612d26578151612d158882612cc5565b975060208301925050600101612d01565b509495945050505050565b801515612ce2565b80612ce2565b6000612d49825190565b612d57818560208601613872565b9290920192915050565b612ce281613867565b6000612d74825190565b808452602084019350612d8b818560208601613872565b612d94816139d8565b9093019392505050565b601881526000602082017745434453413a20696e76616c6964207369676e617475726560401b815291505b5060200190565b60208082527f537472696e67733a20686578206c656e67746820696e73756666696369656e7491019081526000612dc9565b601f81526000602082017f45434453413a20696e76616c6964207369676e6174757265206c656e6774680081529150612dc9565b601d81526000602082017f5342543a206d696e7420746f20746865207a65726f206164647265737300000081529150612dc9565b60188152600060208201772727aa2fa2ac24a9a4aa24a723afa2a92199182a27a5a2a760411b81529150612dc9565b602681526000602082017f4f776e61626c653a206e6577206f776e657220697320746865207a65726f206181526564647265737360d01b602082015291505b5060400190565b600d81526000602082016c24a72b20a624a22faa27a5a2a760991b81529150612dc9565b602881526000602082017f534254456e756d657261626c653a206f776e657220696e646578206f7574206f8152676620626f756e647360c01b60208201529150612ed8565b602281526000602082017f45434453413a20696e76616c6964207369676e6174757265202773272076616c815261756560f01b60208201529150612ed8565b600a81526000602082016953414d455f56414c554560b01b81529150612dc9565b602681526000602082017f416464726573733a20696e73756666696369656e742062616c616e636520666f8152651c8818d85b1b60d21b60208201529150612ed8565b6011815260006020820170494e56414c49445f5349474e415455524560781b81529150612dc9565b602681526000602082017f5342543a2061646472657373207a65726f206973206e6f7420612076616c69648152651037bbb732b960d11b60208201529150612ed8565b601e81526000602082017f5342543a2063616c6c6572206973206e6f7420746f6b656e206f776e6572000081529150612dc9565b600c81526000602082016b5a45524f5f4144445245535360a01b81529150612dc9565b602281526000602082017f45434453413a20696e76616c6964207369676e6174757265202776272076616c815261756560f01b60208201529150612ed8565b600f81526000602082016e1514905394d1915497d19052531151608a1b81529150612dc9565b60168152600060208201751253959053125117d410565351539517d351551213d160521b81529150612dc9565b60208082527f4f776e61626c653a2063616c6c6572206973206e6f7420746865206f776e657291019081526000612dc9565b601981526000602082017814d0950e881d1bdad95b88185b1c9958591e481b5a5b9d1959603a1b81529150612dc9565b601581526000602082017414d0950e881a5b9d985b1a59081d1bdad95b881251605a1b81529150612dc9565b601081526000602082016f21a0a62622a92fa727aa2fa7aba722a960811b81529150612dc9565b6017815260006020820176125394d551919250d251539517d1551217d05353d55395604a1b81529150612dc9565b600d81526000602082016c1053149150511657d051111151609a1b81529150612dc9565b601d81526000602082017f416464726573733a2063616c6c20746f206e6f6e2d636f6e747261637400000081529150612dc9565b602a81526000602082017f5361666545524332303a204552433230206f7065726174696f6e20646964206e8152691bdd081cdd58d8d9595960b21b60208201529150612ed8565b602981526000602082017f534254456e756d657261626c653a20676c6f62616c20696e646578206f7574208152686f6620626f756e647360b81b60208201529150612ed8565b600e81526000602082016d1393d517d055551213d49256915160921b81529150612dc9565b602f81526000602082017f416363657373436f6e74726f6c3a2063616e206f6e6c792072656e6f756e636581526e103937b632b9903337b91039b2b63360891b60208201529150612ed8565b60ff8116612ce2565b60006113048284612d3f565b60006133998285612d3f565b91506133a58284612d3f565b64173539b7b760d91b815291506005820161153c565b61190160f01b815260020160006133d28285612d39565b6020820191506133e28284612d39565b5060200192915050565b60008161078b565b76020b1b1b2b9b9a1b7b73a3937b61d1030b1b1b7bab73a1604d1b815260170160006134208285612d3f565b7001034b99036b4b9b9b4b733903937b6329607d1b8152601101915061153c8284612d3f565b6020810161078b8284612cd9565b606081016134628286612cd9565b61346f6020830185612cd9565b61153c6040830184612d39565b602080825281016113048184612ce8565b6020810161078b8284612d31565b6020810161078b8284612d39565b60a081016134b78288612d39565b6134c46020830187612d39565b6134d16040830186612d39565b6134de6060830185612d39565b6109876080830184612cd9565b608081016134f98287612d39565b6135066020830186612d39565b6135136040830185612cd9565b6135206060830184612d39565b95945050505050565b608081016135378287612d39565b6135446020830186613378565b6135136040830185612d39565b6020810161078b8284612d61565b602080825281016113048184612d6a565b6020808252810161078b81612d9e565b6020808252810161078b81612dd0565b6020808252810161078b81612e02565b6020808252810161078b81612e36565b6020808252810161078b81612e6a565b6020808252810161078b81612e99565b6020808252810161078b81612edf565b6020808252810161078b81612f03565b6020808252810161078b81612f48565b6020808252810161078b81612f87565b6020808252810161078b81612fa8565b6020808252810161078b81612feb565b6020808252810161078b81613013565b6020808252810161078b81613056565b6020808252810161078b8161308a565b6020808252810161078b816130ad565b6020808252810161078b816130ec565b6020808252810161078b81613112565b6020808252810161078b8161313f565b6020808252810161078b81613171565b6020808252810161078b816131a1565b6020808252810161078b816131cd565b6020808252810161078b816131f4565b6020808252810161078b81613222565b6020808252810161078b81613246565b6020808252810161078b8161327a565b6020808252810161078b816132c1565b6020808252810161078b81613307565b6020808252810161078b8161332c565b6040810161374e8285612d39565b818103602083015261153c8184612ce8565b60c0810161376e8289612d39565b61377b6020830188612d39565b6137886040830187612cd9565b6137956060830186612d39565b6137a26080830185612cd9565b6128fc60a0830184612d39565b60006137ba60405190565b905061124882826138e2565b60006001600160401b038211156137df576137df6139c2565b5060209081020190565b600082198211156137fc576137fc61393e565b500190565b60008261381057613810613954565b500490565b600081600019048311821515161561382f5761382f61393e565b500290565b6000828210156138465761384661393e565b500390565b60006001600160a01b03821661078b565b600061078b8261384b565b600061078b8261385c565b60005b8381101561388d578181015183820152602001613875565b838111156115bb5750506000910152565b6000816138ad576138ad61393e565b506000190190565b6002810460018216806138c957607f821691505b602082108114156138dc576138dc613980565b50919050565b6138eb826139d8565b81018181106001600160401b0382111715613908576139086139c2565b6040525050565b60006000198214156139235761392361393e565b5060010190565b60008261393957613939613954565b500690565b634e487b7160e01b600052601160045260246000fd5b634e487b7160e01b600052601260045260246000fd5b634e487b7160e01b600052602160045260246000fd5b634e487b7160e01b600052602260045260246000fd5b634e487b7160e01b600052603160045260246000fd5b634e487b7160e01b600052603260045260246000fd5b634e487b7160e01b600052604160045260246000fd5b601f01601f191690565b6139eb8161384b565b8114610c8b57600080fd5b8015156139eb565b806139eb565b6001600160e01b031981166139eb565b6139eb8161385c56fea264697066735822122007fdf5fb1188fa7501b818d7e9542f96132c7a51ad192c6d76886e85e11e411b64736f6c63430008070033",
  "devdoc": {
    "author": "Masa Finance",
    "details": "Soulbound 2FA, that inherits from the SBT contract.",
    "kind": "dev",
    "methods": {
      "addAuthority(address)": {
        "details": "The caller must have the admin to call this function",
        "params": {
          "_authority": "New authority to add"
        }
      },
      "addErc20Token(address)": {
        "details": "The caller must have the owner to call this function",
        "params": {
          "_erc20token": "New ERC20 token to add"
        }
      },
      "balanceOf(address)": {
        "details": "See {ISBT-balanceOf}."
      },
      "burn(uint256)": {
        "details": "Burns `tokenId`. See {SBT-_burn}. Requirements: - The caller must own `tokenId` or be an approved operator."
      },
      "constructor": {
        "details": "Creates a new soulbound 2FA, inheriting from the SBT contract.",
        "params": {
          "_mintingPrice": "Price of minting in stable coin",
          "admin": "Administrator of the smart contract",
          "baseTokenURI": "Base URI of the token",
          "paymentParams": "Payment gateway params",
          "soulboundIdentity": "Address of the SoulboundIdentity contract"
        }
      },
      "getErc20Tokens()": {
        "details": "Returns the address of all available ERC 20 tokens",
        "returns": {
          "_0": "Array of all enabled ERC20 tokens"
        }
      },
      "getIdentityId(uint256)": {
        "params": {
          "tokenId": "Id of the token"
        },
        "returns": {
          "_0": "Id of the identity"
        }
      },
      "getMintingPrice(address)": {
        "details": "Returns current pricing for minting",
        "params": {
          "paymentMethod": "Address of token that user want to pay"
        },
        "returns": {
          "_0": "Current price for minting in the given payment method"
        }
      },
      "getRoleAdmin(bytes32)": {
        "details": "Returns the admin role that controls `role`. See {grantRole} and {revokeRole}. To change a role's admin, use {_setRoleAdmin}."
      },
      "grantRole(bytes32,address)": {
        "details": "Grants `role` to `account`. If `account` had not been already granted `role`, emits a {RoleGranted} event. Requirements: - the caller must have ``role``'s admin role. May emit a {RoleGranted} event."
      },
      "hasRole(bytes32,address)": {
        "details": "Returns `true` if `account` has been granted `role`."
      },
      "mint(address,address,address,uint256,bytes)": {
        "details": "The caller must have the MINTER role",
        "params": {
          "paymentMethod": "Address of token that user want to pay",
          "to": "The address to mint the SBT to"
        },
        "returns": {
          "_0": "The SBT ID of the newly minted SBT"
        }
      },
      "mint(address,uint256,address,uint256,bytes)": {
        "details": "The caller must have the MINTER role",
        "params": {
          "identityId": "TokenId of the identity to mint the NFT to",
          "paymentMethod": "Address of token that user want to pay"
        },
        "returns": {
          "_0": "The NFT ID of the newly minted SBT"
        }
      },
      "name()": {
        "details": "See {ISBTMetadata-name}."
      },
      "owner()": {
        "details": "Returns the address of the current owner."
      },
      "ownerOf(uint256)": {
        "details": "See {ISBT-ownerOf}."
      },
      "removeErc20Token(address)": {
        "details": "The caller must have the owner to call this function",
        "params": {
          "_erc20token": "ERC20 token to remove"
        }
      },
      "renounceOwnership()": {
        "details": "Leaves the contract without owner. It will not be possible to call `onlyOwner` functions anymore. Can only be called by the current owner. NOTE: Renouncing ownership will leave the contract without an owner, thereby removing any functionality that is only available to the owner."
      },
      "renounceRole(bytes32,address)": {
        "details": "Revokes `role` from the calling account. Roles are often managed via {grantRole} and {revokeRole}: this function's purpose is to provide a mechanism for accounts to lose their privileges if they are compromised (such as when a trusted device is misplaced). If the calling account had been revoked `role`, emits a {RoleRevoked} event. Requirements: - the caller must be `account`. May emit a {RoleRevoked} event."
      },
      "revokeRole(bytes32,address)": {
        "details": "Revokes `role` from `account`. If `account` had been granted `role`, emits a {RoleRevoked} event. Requirements: - the caller must have ``role``'s admin role. May emit a {RoleRevoked} event."
      },
      "setMasaToken(address)": {
        "details": "The caller must have the owner to call this function It can be set to address(0) to disable paying in $MASA",
        "params": {
          "_masaToken": "New utility token to pay the fee in"
        }
      },
      "setMintingPrice(uint256)": {
        "details": "The caller must have the admin to call this function",
        "params": {
          "_mintingPrice": "New price of minting in stable coin"
        }
      },
      "setReserveWallet(address)": {
        "details": "Let change the reserve walled. It can be triggered by an authorized account.",
        "params": {
          "_reserveWallet": "New reserve wallet"
        }
      },
      "setSoulboundIdentity(address)": {
        "details": "The caller must be the admin to call this function",
        "params": {
          "_soulboundIdentity": "Address of the SoulboundIdentity contract"
        }
      },
      "setStableCoin(address)": {
        "details": "The caller must have the owner to call this function",
        "params": {
          "_stableCoin": "New stable coin to pay the fee in"
        }
      },
      "setSwapRouter(address)": {
        "details": "The caller must have the owner to call this function",
        "params": {
          "_swapRouter": "New swap router address"
        }
      },
      "setWrappedNativeToken(address)": {
        "details": "The caller must have the owner to call this function",
        "params": {
          "_wrappedNativeToken": "New wrapped native token address"
        }
      },
      "supportsInterface(bytes4)": {
        "details": "Interface identification is specified in ERC-165.",
        "params": {
          "interfaceId": "The interface identifier, as specified in ERC-165"
        },
        "returns": {
          "_0": "`true` if the contract implements `interfaceId` and  `interfaceId` is not 0xffffffff, `false` otherwise"
        }
      },
      "symbol()": {
        "details": "See {ISBTMetadata-symbol}."
      },
      "tokenByIndex(uint256)": {
        "details": "See {ISBTEnumerable-tokenByIndex}."
      },
      "tokenOfOwnerByIndex(address,uint256)": {
        "details": "See {ISBTEnumerable-tokenOfOwnerByIndex}."
      },
      "tokenURI(uint256)": {
        "details": "Throws if `_tokenId` is not a valid SBT. URIs are defined in RFC  3986. The URI may point to a JSON file that conforms to the \"ERC721  Metadata JSON Schema\".",
        "params": {
          "tokenId": "SBT to get the URI of"
        },
        "returns": {
          "_0": "URI of the SBT"
        }
      },
      "totalSupply()": {
        "details": "See {ISBTEnumerable-totalSupply}."
      },
      "transferOwnership(address)": {
        "details": "Transfers ownership of the contract to a new account (`newOwner`). Can only be called by the current owner."
      }
    },
    "title": "Soulbound Two-factor authentication (2FA)",
    "version": 1
  },
  "userdoc": {
    "kind": "user",
    "methods": {
      "addAuthority(address)": {
        "notice": "Adds a new authority to the list of authorities"
      },
      "addErc20Token(address)": {
        "notice": "Adds a new ERC20 token as a valid payment method"
      },
      "constructor": {
        "notice": "Creates a new soulbound Two-factor authentication (2FA)"
      },
      "getErc20Tokens()": {
        "notice": "Returns all available ERC 20 tokens"
      },
      "getIdentityId(uint256)": {
        "notice": "Returns the identityId owned by the given token"
      },
      "getMintingPrice(address)": {
        "notice": "Returns the price for minting"
      },
      "mint(address,address,address,uint256,bytes)": {
        "notice": "Mints a new SBT"
      },
      "mint(address,uint256,address,uint256,bytes)": {
        "notice": "Mints a new SBT"
      },
      "removeErc20Token(address)": {
        "notice": "Removes an ERC20 token as a valid payment method"
      },
      "setMasaToken(address)": {
        "notice": "Sets the utility token to pay the fee in ($MASA)"
      },
      "setMintingPrice(uint256)": {
        "notice": "Sets the price of minting in stable coin"
      },
      "setReserveWallet(address)": {
        "notice": "Set the reserve wallet"
      },
      "setSoulboundIdentity(address)": {
        "notice": "Sets the SoulboundIdentity contract address linked to this SBT"
      },
      "setStableCoin(address)": {
        "notice": "Sets the stable coin to pay the fee in (USDC)"
      },
      "setSwapRouter(address)": {
        "notice": "Sets the swap router address"
      },
      "setWrappedNativeToken(address)": {
        "notice": "Sets the wrapped native token address"
      },
      "supportsInterface(bytes4)": {
        "notice": "Query if a contract implements an interface"
      },
      "tokenURI(uint256)": {
        "notice": "A distinct Uniform Resource Identifier (URI) for a given asset."
      }
    },
    "notice": "Soulbound token that represents a Two-factor authentication (2FA)",
    "version": 1
  },
  "storageLayout": {
    "storage": [
      {
        "astId": 400,
        "contract": "contracts/Soulbound2FA.sol:Soulbound2FA",
        "label": "_owner",
        "offset": 0,
        "slot": "0",
        "type": "t_address"
      },
      {
        "astId": 7608,
        "contract": "contracts/Soulbound2FA.sol:Soulbound2FA",
        "label": "swapRouter",
        "offset": 0,
        "slot": "1",
        "type": "t_address"
      },
      {
        "astId": 7610,
        "contract": "contracts/Soulbound2FA.sol:Soulbound2FA",
        "label": "wrappedNativeToken",
        "offset": 0,
        "slot": "2",
        "type": "t_address"
      },
      {
        "astId": 7612,
        "contract": "contracts/Soulbound2FA.sol:Soulbound2FA",
        "label": "stableCoin",
        "offset": 0,
        "slot": "3",
        "type": "t_address"
      },
      {
        "astId": 7614,
        "contract": "contracts/Soulbound2FA.sol:Soulbound2FA",
        "label": "masaToken",
        "offset": 0,
        "slot": "4",
        "type": "t_address"
      },
      {
        "astId": 7618,
        "contract": "contracts/Soulbound2FA.sol:Soulbound2FA",
        "label": "erc20token",
        "offset": 0,
        "slot": "5",
        "type": "t_mapping(t_address,t_bool)"
      },
      {
        "astId": 7621,
        "contract": "contracts/Soulbound2FA.sol:Soulbound2FA",
        "label": "erc20tokens",
        "offset": 0,
        "slot": "6",
        "type": "t_array(t_address)dyn_storage"
      },
      {
        "astId": 7623,
        "contract": "contracts/Soulbound2FA.sol:Soulbound2FA",
        "label": "reserveWallet",
        "offset": 0,
        "slot": "7",
        "type": "t_address"
      },
      {
        "astId": 9409,
        "contract": "contracts/Soulbound2FA.sol:Soulbound2FA",
        "label": "_name",
        "offset": 0,
        "slot": "8",
        "type": "t_string_storage"
      },
      {
        "astId": 9411,
        "contract": "contracts/Soulbound2FA.sol:Soulbound2FA",
        "label": "_symbol",
        "offset": 0,
        "slot": "9",
        "type": "t_string_storage"
      },
      {
        "astId": 9415,
        "contract": "contracts/Soulbound2FA.sol:Soulbound2FA",
        "label": "_owners",
        "offset": 0,
        "slot": "10",
        "type": "t_mapping(t_uint256,t_address)"
      },
      {
        "astId": 9419,
        "contract": "contracts/Soulbound2FA.sol:Soulbound2FA",
        "label": "_balances",
        "offset": 0,
        "slot": "11",
        "type": "t_mapping(t_address,t_uint256)"
      },
      {
        "astId": 9878,
        "contract": "contracts/Soulbound2FA.sol:Soulbound2FA",
        "label": "_ownedTokens",
        "offset": 0,
        "slot": "12",
        "type": "t_mapping(t_address,t_mapping(t_uint256,t_uint256))"
      },
      {
        "astId": 9882,
        "contract": "contracts/Soulbound2FA.sol:Soulbound2FA",
        "label": "_ownedTokensIndex",
        "offset": 0,
        "slot": "13",
        "type": "t_mapping(t_uint256,t_uint256)"
      },
      {
        "astId": 9885,
        "contract": "contracts/Soulbound2FA.sol:Soulbound2FA",
        "label": "_allTokens",
        "offset": 0,
        "slot": "14",
        "type": "t_array(t_uint256)dyn_storage"
      },
      {
        "astId": 9889,
        "contract": "contracts/Soulbound2FA.sol:Soulbound2FA",
        "label": "_allTokensIndex",
        "offset": 0,
        "slot": "15",
        "type": "t_mapping(t_uint256,t_uint256)"
      },
      {
        "astId": 24,
        "contract": "contracts/Soulbound2FA.sol:Soulbound2FA",
        "label": "_roles",
        "offset": 0,
        "slot": "16",
        "type": "t_mapping(t_bytes32,t_struct(RoleData)19_storage)"
      },
      {
        "astId": 8863,
        "contract": "contracts/Soulbound2FA.sol:Soulbound2FA",
        "label": "_baseTokenURI",
        "offset": 0,
        "slot": "17",
        "type": "t_string_storage"
      },
      {
        "astId": 9073,
        "contract": "contracts/Soulbound2FA.sol:Soulbound2FA",
        "label": "_tokenIdCounter",
        "offset": 0,
        "slot": "18",
        "type": "t_struct(Counter)3369_storage"
      },
      {
        "astId": 9076,
        "contract": "contracts/Soulbound2FA.sol:Soulbound2FA",
        "label": "soulboundIdentity",
        "offset": 0,
        "slot": "19",
        "type": "t_contract(ISoulboundIdentity)8395"
      },
      {
        "astId": 9078,
        "contract": "contracts/Soulbound2FA.sol:Soulbound2FA",
        "label": "mintingPrice",
        "offset": 0,
        "slot": "20",
        "type": "t_uint256"
      },
      {
        "astId": 9082,
        "contract": "contracts/Soulbound2FA.sol:Soulbound2FA",
        "label": "authorities",
        "offset": 0,
        "slot": "21",
        "type": "t_mapping(t_address,t_bool)"
      }
    ],
    "types": {
      "t_address": {
        "encoding": "inplace",
        "label": "address",
        "numberOfBytes": "20"
      },
      "t_array(t_address)dyn_storage": {
        "base": "t_address",
        "encoding": "dynamic_array",
        "label": "address[]",
        "numberOfBytes": "32"
      },
      "t_array(t_uint256)dyn_storage": {
        "base": "t_uint256",
        "encoding": "dynamic_array",
        "label": "uint256[]",
        "numberOfBytes": "32"
      },
      "t_bool": {
        "encoding": "inplace",
        "label": "bool",
        "numberOfBytes": "1"
      },
      "t_bytes32": {
        "encoding": "inplace",
        "label": "bytes32",
        "numberOfBytes": "32"
      },
      "t_contract(ISoulboundIdentity)8395": {
        "encoding": "inplace",
        "label": "contract ISoulboundIdentity",
        "numberOfBytes": "20"
      },
      "t_mapping(t_address,t_bool)": {
        "encoding": "mapping",
        "key": "t_address",
        "label": "mapping(address => bool)",
        "numberOfBytes": "32",
        "value": "t_bool"
      },
      "t_mapping(t_address,t_mapping(t_uint256,t_uint256))": {
        "encoding": "mapping",
        "key": "t_address",
        "label": "mapping(address => mapping(uint256 => uint256))",
        "numberOfBytes": "32",
        "value": "t_mapping(t_uint256,t_uint256)"
      },
      "t_mapping(t_address,t_uint256)": {
        "encoding": "mapping",
        "key": "t_address",
        "label": "mapping(address => uint256)",
        "numberOfBytes": "32",
        "value": "t_uint256"
      },
      "t_mapping(t_bytes32,t_struct(RoleData)19_storage)": {
        "encoding": "mapping",
        "key": "t_bytes32",
        "label": "mapping(bytes32 => struct AccessControl.RoleData)",
        "numberOfBytes": "32",
        "value": "t_struct(RoleData)19_storage"
      },
      "t_mapping(t_uint256,t_address)": {
        "encoding": "mapping",
        "key": "t_uint256",
        "label": "mapping(uint256 => address)",
        "numberOfBytes": "32",
        "value": "t_address"
      },
      "t_mapping(t_uint256,t_uint256)": {
        "encoding": "mapping",
        "key": "t_uint256",
        "label": "mapping(uint256 => uint256)",
        "numberOfBytes": "32",
        "value": "t_uint256"
      },
      "t_string_storage": {
        "encoding": "bytes",
        "label": "string",
        "numberOfBytes": "32"
      },
      "t_struct(Counter)3369_storage": {
        "encoding": "inplace",
        "label": "struct Counters.Counter",
        "members": [
          {
            "astId": 3368,
            "contract": "contracts/Soulbound2FA.sol:Soulbound2FA",
            "label": "_value",
            "offset": 0,
            "slot": "0",
            "type": "t_uint256"
          }
        ],
        "numberOfBytes": "32"
      },
      "t_struct(RoleData)19_storage": {
        "encoding": "inplace",
        "label": "struct AccessControl.RoleData",
        "members": [
          {
            "astId": 16,
            "contract": "contracts/Soulbound2FA.sol:Soulbound2FA",
            "label": "members",
            "offset": 0,
            "slot": "0",
            "type": "t_mapping(t_address,t_bool)"
          },
          {
            "astId": 18,
            "contract": "contracts/Soulbound2FA.sol:Soulbound2FA",
            "label": "adminRole",
            "offset": 0,
            "slot": "1",
            "type": "t_bytes32"
          }
        ],
        "numberOfBytes": "64"
      },
      "t_uint256": {
        "encoding": "inplace",
        "label": "uint256",
        "numberOfBytes": "32"
      }
    }
  }
}