{
  "address": "0xE465bE522317753B432a31173430fA366F108CC1",
  "abi": [
    {
      "inputs": [
        {
          "internalType": "address",
          "name": "owner",
          "type": "address"
        },
        {
          "internalType": "contract ISoulboundIdentity",
          "name": "_soulboundIdentity",
          "type": "address"
        },
        {
          "internalType": "string",
          "name": "_extension",
          "type": "string"
        },
        {
          "internalType": "string",
          "name": "_contractURI",
          "type": "string"
        }
      ],
      "stateMutability": "nonpayable",
      "type": "constructor"
    },
    {
      "anonymous": false,
      "inputs": [
        {
          "indexed": true,
          "internalType": "address",
          "name": "owner",
          "type": "address"
        },
        {
          "indexed": true,
          "internalType": "address",
          "name": "approved",
          "type": "address"
        },
        {
          "indexed": true,
          "internalType": "uint256",
          "name": "tokenId",
          "type": "uint256"
        }
      ],
      "name": "Approval",
      "type": "event"
    },
    {
      "anonymous": false,
      "inputs": [
        {
          "indexed": true,
          "internalType": "address",
          "name": "owner",
          "type": "address"
        },
        {
          "indexed": true,
          "internalType": "address",
          "name": "operator",
          "type": "address"
        },
        {
          "indexed": false,
          "internalType": "bool",
          "name": "approved",
          "type": "bool"
        }
      ],
      "name": "ApprovalForAll",
      "type": "event"
    },
    {
      "anonymous": false,
      "inputs": [
        {
          "indexed": false,
          "internalType": "uint256",
          "name": "tokenId",
          "type": "uint256"
        },
        {
          "indexed": false,
          "internalType": "uint256",
          "name": "oldIdentityId",
          "type": "uint256"
        },
        {
          "indexed": false,
          "internalType": "uint256",
          "name": "identityId",
          "type": "uint256"
        }
      ],
      "name": "IdentityIdUpdated",
      "type": "event"
    },
    {
      "anonymous": false,
      "inputs": [
        {
          "indexed": true,
          "internalType": "address",
          "name": "previousOwner",
          "type": "address"
        },
        {
          "indexed": true,
          "internalType": "address",
          "name": "newOwner",
          "type": "address"
        }
      ],
      "name": "OwnershipTransferred",
      "type": "event"
    },
    {
      "anonymous": false,
      "inputs": [
        {
          "indexed": true,
          "internalType": "bytes32",
          "name": "role",
          "type": "bytes32"
        },
        {
          "indexed": true,
          "internalType": "bytes32",
          "name": "previousAdminRole",
          "type": "bytes32"
        },
        {
          "indexed": true,
          "internalType": "bytes32",
          "name": "newAdminRole",
          "type": "bytes32"
        }
      ],
      "name": "RoleAdminChanged",
      "type": "event"
    },
    {
      "anonymous": false,
      "inputs": [
        {
          "indexed": true,
          "internalType": "bytes32",
          "name": "role",
          "type": "bytes32"
        },
        {
          "indexed": true,
          "internalType": "address",
          "name": "account",
          "type": "address"
        },
        {
          "indexed": true,
          "internalType": "address",
          "name": "sender",
          "type": "address"
        }
      ],
      "name": "RoleGranted",
      "type": "event"
    },
    {
      "anonymous": false,
      "inputs": [
        {
          "indexed": true,
          "internalType": "bytes32",
          "name": "role",
          "type": "bytes32"
        },
        {
          "indexed": true,
          "internalType": "address",
          "name": "account",
          "type": "address"
        },
        {
          "indexed": true,
          "internalType": "address",
          "name": "sender",
          "type": "address"
        }
      ],
      "name": "RoleRevoked",
      "type": "event"
    },
    {
      "anonymous": false,
      "inputs": [
        {
          "indexed": true,
          "internalType": "address",
          "name": "from",
          "type": "address"
        },
        {
          "indexed": true,
          "internalType": "address",
          "name": "to",
          "type": "address"
        },
        {
          "indexed": true,
          "internalType": "uint256",
          "name": "tokenId",
          "type": "uint256"
        }
      ],
      "name": "Transfer",
      "type": "event"
    },
    {
      "anonymous": false,
      "inputs": [
        {
          "indexed": false,
          "internalType": "uint256",
          "name": "tokenId",
          "type": "uint256"
        },
        {
          "indexed": false,
          "internalType": "uint256",
          "name": "yearsPeriod",
          "type": "uint256"
        },
        {
          "indexed": false,
          "internalType": "uint256",
          "name": "newExpirationDate",
          "type": "uint256"
        }
      ],
      "name": "YearsPeriodRenewed",
      "type": "event"
    },
    {
      "inputs": [],
      "name": "DEFAULT_ADMIN_ROLE",
      "outputs": [
        {
          "internalType": "bytes32",
          "name": "",
          "type": "bytes32"
        }
      ],
      "stateMutability": "view",
      "type": "function"
    },
    {
      "inputs": [],
      "name": "MINTER_ROLE",
      "outputs": [
        {
          "internalType": "bytes32",
          "name": "",
          "type": "bytes32"
        }
      ],
      "stateMutability": "view",
      "type": "function"
    },
    {
      "inputs": [
        {
          "internalType": "address",
          "name": "to",
          "type": "address"
        },
        {
          "internalType": "uint256",
          "name": "tokenId",
          "type": "uint256"
        }
      ],
      "name": "approve",
      "outputs": [],
      "stateMutability": "nonpayable",
      "type": "function"
    },
    {
      "inputs": [
        {
          "internalType": "address",
          "name": "owner",
          "type": "address"
        }
      ],
      "name": "balanceOf",
      "outputs": [
        {
          "internalType": "uint256",
          "name": "",
          "type": "uint256"
        }
      ],
      "stateMutability": "view",
      "type": "function"
    },
    {
      "inputs": [
        {
          "internalType": "uint256",
          "name": "tokenId",
          "type": "uint256"
        }
      ],
      "name": "burn",
      "outputs": [],
      "stateMutability": "nonpayable",
      "type": "function"
    },
    {
      "inputs": [],
      "name": "contractURI",
      "outputs": [
        {
          "internalType": "string",
          "name": "",
          "type": "string"
        }
      ],
      "stateMutability": "view",
      "type": "function"
    },
    {
      "inputs": [],
      "name": "extension",
      "outputs": [
        {
          "internalType": "string",
          "name": "",
          "type": "string"
        }
      ],
      "stateMutability": "view",
      "type": "function"
    },
    {
      "inputs": [
        {
          "internalType": "uint256",
          "name": "tokenId",
          "type": "uint256"
        }
      ],
      "name": "getApproved",
      "outputs": [
        {
          "internalType": "address",
          "name": "",
          "type": "address"
        }
      ],
      "stateMutability": "view",
      "type": "function"
    },
    {
      "inputs": [],
      "name": "getExtension",
      "outputs": [
        {
          "internalType": "string",
          "name": "",
          "type": "string"
        }
      ],
      "stateMutability": "view",
      "type": "function"
    },
    {
      "inputs": [
        {
          "internalType": "bytes32",
          "name": "role",
          "type": "bytes32"
        }
      ],
      "name": "getRoleAdmin",
      "outputs": [
        {
          "internalType": "bytes32",
          "name": "",
          "type": "bytes32"
        }
      ],
      "stateMutability": "view",
      "type": "function"
    },
    {
      "inputs": [
        {
          "internalType": "uint256",
          "name": "identityId",
          "type": "uint256"
        }
      ],
      "name": "getSoulNames",
      "outputs": [
        {
          "internalType": "string[]",
          "name": "sbtNames",
          "type": "string[]"
        }
      ],
      "stateMutability": "view",
      "type": "function"
    },
    {
      "inputs": [
        {
          "internalType": "address",
          "name": "owner",
          "type": "address"
        }
      ],
      "name": "getSoulNames",
      "outputs": [
        {
          "internalType": "string[]",
          "name": "sbtNames",
          "type": "string[]"
        }
      ],
      "stateMutability": "view",
      "type": "function"
    },
    {
      "inputs": [
        {
          "internalType": "string",
          "name": "name",
          "type": "string"
        }
      ],
      "name": "getTokenData",
      "outputs": [
        {
          "internalType": "string",
          "name": "sbtName",
          "type": "string"
        },
        {
          "internalType": "uint256",
          "name": "identityId",
          "type": "uint256"
        },
        {
          "internalType": "uint256",
          "name": "expirationDate",
          "type": "uint256"
        },
        {
          "internalType": "bool",
          "name": "active",
          "type": "bool"
        }
      ],
      "stateMutability": "view",
      "type": "function"
    },
    {
      "inputs": [
        {
          "internalType": "bytes32",
          "name": "role",
          "type": "bytes32"
        },
        {
          "internalType": "address",
          "name": "account",
          "type": "address"
        }
      ],
      "name": "grantRole",
      "outputs": [],
      "stateMutability": "nonpayable",
      "type": "function"
    },
    {
      "inputs": [
        {
          "internalType": "bytes32",
          "name": "role",
          "type": "bytes32"
        },
        {
          "internalType": "address",
          "name": "account",
          "type": "address"
        }
      ],
      "name": "hasRole",
      "outputs": [
        {
          "internalType": "bool",
          "name": "",
          "type": "bool"
        }
      ],
      "stateMutability": "view",
      "type": "function"
    },
    {
      "inputs": [
        {
          "internalType": "address",
          "name": "owner",
          "type": "address"
        },
        {
          "internalType": "address",
          "name": "operator",
          "type": "address"
        }
      ],
      "name": "isApprovedForAll",
      "outputs": [
        {
          "internalType": "bool",
          "name": "",
          "type": "bool"
        }
      ],
      "stateMutability": "view",
      "type": "function"
    },
    {
      "inputs": [
        {
          "internalType": "string",
          "name": "name",
          "type": "string"
        }
      ],
      "name": "isAvailable",
      "outputs": [
        {
          "internalType": "bool",
          "name": "available",
          "type": "bool"
        }
      ],
      "stateMutability": "view",
      "type": "function"
    },
    {
      "inputs": [
        {
          "internalType": "address",
          "name": "to",
          "type": "address"
        },
        {
          "internalType": "string",
          "name": "name",
          "type": "string"
        },
        {
          "internalType": "uint256",
          "name": "identityId",
          "type": "uint256"
        },
        {
          "internalType": "uint256",
          "name": "yearsPeriod",
          "type": "uint256"
        },
        {
          "internalType": "string",
          "name": "_tokenURI",
          "type": "string"
        }
      ],
      "name": "mint",
      "outputs": [
        {
          "internalType": "uint256",
          "name": "",
          "type": "uint256"
        }
      ],
      "stateMutability": "nonpayable",
      "type": "function"
    },
    {
      "inputs": [],
      "name": "name",
      "outputs": [
        {
          "internalType": "string",
          "name": "",
          "type": "string"
        }
      ],
      "stateMutability": "view",
      "type": "function"
    },
    {
      "inputs": [
        {
          "internalType": "string",
          "name": "",
          "type": "string"
        }
      ],
      "name": "nameData",
      "outputs": [
        {
          "internalType": "bool",
          "name": "exists",
          "type": "bool"
        },
        {
          "internalType": "uint256",
          "name": "tokenId",
          "type": "uint256"
        }
      ],
      "stateMutability": "view",
      "type": "function"
    },
    {
      "inputs": [],
      "name": "owner",
      "outputs": [
        {
          "internalType": "address",
          "name": "",
          "type": "address"
        }
      ],
      "stateMutability": "view",
      "type": "function"
    },
    {
      "inputs": [
        {
          "internalType": "uint256",
          "name": "tokenId",
          "type": "uint256"
        }
      ],
      "name": "ownerOf",
      "outputs": [
        {
          "internalType": "address",
          "name": "",
          "type": "address"
        }
      ],
      "stateMutability": "view",
      "type": "function"
    },
    {
      "inputs": [
        {
          "internalType": "uint256",
          "name": "tokenId",
          "type": "uint256"
        },
        {
          "internalType": "uint256",
          "name": "yearsPeriod",
          "type": "uint256"
        }
      ],
      "name": "renewYearsPeriod",
      "outputs": [],
      "stateMutability": "nonpayable",
      "type": "function"
    },
    {
      "inputs": [],
      "name": "renounceOwnership",
      "outputs": [],
      "stateMutability": "nonpayable",
      "type": "function"
    },
    {
      "inputs": [
        {
          "internalType": "bytes32",
          "name": "role",
          "type": "bytes32"
        },
        {
          "internalType": "address",
          "name": "account",
          "type": "address"
        }
      ],
      "name": "renounceRole",
      "outputs": [],
      "stateMutability": "nonpayable",
      "type": "function"
    },
    {
      "inputs": [
        {
          "internalType": "bytes32",
          "name": "role",
          "type": "bytes32"
        },
        {
          "internalType": "address",
          "name": "account",
          "type": "address"
        }
      ],
      "name": "revokeRole",
      "outputs": [],
      "stateMutability": "nonpayable",
      "type": "function"
    },
    {
      "inputs": [
        {
          "internalType": "address",
          "name": "from",
          "type": "address"
        },
        {
          "internalType": "address",
          "name": "to",
          "type": "address"
        },
        {
          "internalType": "uint256",
          "name": "tokenId",
          "type": "uint256"
        }
      ],
      "name": "safeTransferFrom",
      "outputs": [],
      "stateMutability": "nonpayable",
      "type": "function"
    },
    {
      "inputs": [
        {
          "internalType": "address",
          "name": "from",
          "type": "address"
        },
        {
          "internalType": "address",
          "name": "to",
          "type": "address"
        },
        {
          "internalType": "uint256",
          "name": "tokenId",
          "type": "uint256"
        },
        {
          "internalType": "bytes",
          "name": "data",
          "type": "bytes"
        }
      ],
      "name": "safeTransferFrom",
      "outputs": [],
      "stateMutability": "nonpayable",
      "type": "function"
    },
    {
      "inputs": [
        {
          "internalType": "address",
          "name": "operator",
          "type": "address"
        },
        {
          "internalType": "bool",
          "name": "approved",
          "type": "bool"
        }
      ],
      "name": "setApprovalForAll",
      "outputs": [],
      "stateMutability": "nonpayable",
      "type": "function"
    },
    {
      "inputs": [
        {
          "internalType": "string",
          "name": "_contractURI",
          "type": "string"
        }
      ],
      "name": "setContractURI",
      "outputs": [],
      "stateMutability": "nonpayable",
      "type": "function"
    },
    {
      "inputs": [
        {
          "internalType": "string",
          "name": "_extension",
          "type": "string"
        }
      ],
      "name": "setExtension",
      "outputs": [],
      "stateMutability": "nonpayable",
      "type": "function"
    },
    {
      "inputs": [
        {
          "internalType": "contract ISoulboundIdentity",
          "name": "_soulboundIdentity",
          "type": "address"
        }
      ],
      "name": "setSoulboundIdentity",
      "outputs": [],
      "stateMutability": "nonpayable",
      "type": "function"
    },
    {
      "inputs": [],
      "name": "soulboundIdentity",
      "outputs": [
        {
          "internalType": "contract ISoulboundIdentity",
          "name": "",
          "type": "address"
        }
      ],
      "stateMutability": "view",
      "type": "function"
    },
    {
      "inputs": [
        {
          "internalType": "bytes4",
          "name": "interfaceId",
          "type": "bytes4"
        }
      ],
      "name": "supportsInterface",
      "outputs": [
        {
          "internalType": "bool",
          "name": "",
          "type": "bool"
        }
      ],
      "stateMutability": "view",
      "type": "function"
    },
    {
      "inputs": [],
      "name": "symbol",
      "outputs": [
        {
          "internalType": "string",
          "name": "",
          "type": "string"
        }
      ],
      "stateMutability": "view",
      "type": "function"
    },
    {
      "inputs": [
        {
          "internalType": "uint256",
          "name": "index",
          "type": "uint256"
        }
      ],
      "name": "tokenByIndex",
      "outputs": [
        {
          "internalType": "uint256",
          "name": "",
          "type": "uint256"
        }
      ],
      "stateMutability": "view",
      "type": "function"
    },
    {
      "inputs": [
        {
          "internalType": "uint256",
          "name": "",
          "type": "uint256"
        }
      ],
      "name": "tokenData",
      "outputs": [
        {
          "internalType": "string",
          "name": "name",
          "type": "string"
        },
        {
          "internalType": "uint256",
          "name": "identityId",
          "type": "uint256"
        },
        {
          "internalType": "uint256",
          "name": "expirationDate",
          "type": "uint256"
        }
      ],
      "stateMutability": "view",
      "type": "function"
    },
    {
      "inputs": [
        {
          "internalType": "address",
          "name": "owner",
          "type": "address"
        },
        {
          "internalType": "uint256",
          "name": "index",
          "type": "uint256"
        }
      ],
      "name": "tokenOfOwnerByIndex",
      "outputs": [
        {
          "internalType": "uint256",
          "name": "",
          "type": "uint256"
        }
      ],
      "stateMutability": "view",
      "type": "function"
    },
    {
      "inputs": [
        {
          "internalType": "uint256",
          "name": "tokenId",
          "type": "uint256"
        }
      ],
      "name": "tokenURI",
      "outputs": [
        {
          "internalType": "string",
          "name": "",
          "type": "string"
        }
      ],
      "stateMutability": "view",
      "type": "function"
    },
    {
      "inputs": [],
      "name": "totalSupply",
      "outputs": [
        {
          "internalType": "uint256",
          "name": "",
          "type": "uint256"
        }
      ],
      "stateMutability": "view",
      "type": "function"
    },
    {
      "inputs": [
        {
          "internalType": "address",
          "name": "from",
          "type": "address"
        },
        {
          "internalType": "address",
          "name": "to",
          "type": "address"
        },
        {
          "internalType": "uint256",
          "name": "tokenId",
          "type": "uint256"
        }
      ],
      "name": "transferFrom",
      "outputs": [],
      "stateMutability": "nonpayable",
      "type": "function"
    },
    {
      "inputs": [
        {
          "internalType": "address",
          "name": "newOwner",
          "type": "address"
        }
      ],
      "name": "transferOwnership",
      "outputs": [],
      "stateMutability": "nonpayable",
      "type": "function"
    },
    {
      "inputs": [
        {
          "internalType": "uint256",
          "name": "tokenId",
          "type": "uint256"
        },
        {
          "internalType": "uint256",
          "name": "identityId",
          "type": "uint256"
        }
      ],
      "name": "updateIdentityId",
      "outputs": [],
      "stateMutability": "nonpayable",
      "type": "function"
    }
  ],
  "transactionHash": "0x8aa7a22b5fe601764c090e6f60bebdc3ef8faec11fca2117e05017bab09baca6",
  "args": [
    "0x3c8D9f130970358b7E8cbc1DbD0a1EbA6EBE368F",
    "0x607af050D66AA9Bc54a051D7a0C68F254b6745Fc",
    ".soul",
    "ipfs://QmZfLPRvTZax8s1BWN7ZDQRdHfZ7QXKRmeRvg88JW9DMzt"
  ],
  "numDeployments": 2,
  "solcInputHash": "59ca50f675f8905cc450a13ed8726978",
  "bytecode": "0x60806040523480156200001157600080fd5b50604051620048b5380380620048b5833981016040819052620000349162000469565b604080518082018252600e81526d4d61736120536f756c204e616d6560901b602080830191825283518085018552600381526226a9a760e91b818301528451918201909452600080825283518995938592859262000093929062000330565b508051620000a990600190602084019062000330565b505050620000c6620000c0620001b260201b60201c565b620001b6565b620000dc846200020860201b62001b1a1760201c565b620000e960008562000249565b620001157f9f2df0fed2c77648de5860a4cc508cd0818c85b8b8a1ab4ceeef8d981c8956a68562000249565b80516200012a90600d90602084019062000330565b50505050506001600160a01b038316620001615760405162461bcd60e51b81526004016200015890620005b3565b60405180910390fd5b600e80546001600160a01b0319166001600160a01b03851617905581516200019190600f90602085019062000330565b508051620001a790601090602084019062000330565b505050505062000733565b3390565b600a80546001600160a01b038381166001600160a01b0319831681179093556040519116919082907f8be0079c531659141344cd1fd0a4f28419497f9722a3daafe3b4186f6b6457e090600090a35050565b62000212620002d4565b6001600160a01b0381166200023b5760405162461bcd60e51b8152600401620001589062000568565b6200024681620001b6565b50565b62000255828262000303565b620002d0576000828152600b602090815260408083206001600160a01b03851684529091529020805460ff191660011790556200028f3390565b6001600160a01b0316816001600160a01b0316837f2f8788117e7eff1d82e926ec794901d17c78024a50270940304540a733656f0d60405160405180910390a45b5050565b600a546001600160a01b03163314620003015760405162461bcd60e51b81526004016200015890620005c5565b565b6000828152600b602090815260408083206001600160a01b038516845290915290205460ff165b92915050565b8280546200033e9062000678565b90600052602060002090601f016020900481019282620003625760008555620003ad565b82601f106200037d57805160ff1916838001178555620003ad565b82800160010185558215620003ad579182015b82811115620003ad57825182559160200191906001019062000390565b50620003bb929150620003bf565b5090565b5b80821115620003bb5760008155600101620003c0565b6000620003ed620003e784620005f6565b620005d7565b9050828152602081018484840111156200040a576200040a600080fd5b6200041784828562000645565b509392505050565b80516200032a8162000711565b80516200032a8162000728565b600082601f8301126200044f576200044f600080fd5b815162000461848260208601620003d6565b949350505050565b60008060008060808587031215620004845762000484600080fd5b60006200049287876200041f565b9450506020620004a5878288016200042c565b93505060408501516001600160401b03811115620004c657620004c6600080fd5b620004d48782880162000439565b92505060608501516001600160401b03811115620004f557620004f5600080fd5b620005038782880162000439565b91505092959194509250565b600c81526000602082016b5a45524f5f4144445245535360a01b815291505b5060200190565b60208082527f4f776e61626c653a2063616c6c6572206973206e6f7420746865206f776e6572910190815260006200052e565b602080825281016200032a81602681527f4f776e61626c653a206e6577206f776e657220697320746865207a65726f206160208201526564647265737360d01b604082015260600190565b602080825281016200032a816200050f565b602080825281016200032a8162000535565b6000620005e360405190565b9050620005f18282620006a9565b919050565b60006001600160401b03821115620006125762000612620006f1565b6200061d8262000707565b60200192915050565b60006001600160a01b0382166200032a565b60006200032a8262000626565b60005b838110156200066257818101518382015260200162000648565b8381111562000672576000848401525b50505050565b6002810460018216806200068d57607f821691505b60208210811415620006a357620006a3620006db565b50919050565b620006b48262000707565b81018181106001600160401b0382111715620006d457620006d4620006f1565b6040525050565b634e487b7160e01b600052602260045260246000fd5b634e487b7160e01b600052604160045260246000fd5b601f01601f191690565b6200071c8162000626565b81146200024657600080fd5b6200071c8162000638565b61417280620007436000396000f3fe608060405234801561001057600080fd5b50600436106101f95760003560e01c806301ffc9a7146101fe57806306fdde0314610227578063081812fc1461023c578063095ea7b31461025c5780630c151fec1461027157806318160ddd1461029157806323b872dd14610299578063248a9ca3146102ac5780632d5537b0146102bf5780632f2ff15d146102c75780632f745c59146102da57806336568abe146102ed5780633ad3033e146103005780633d44f8e01461031357806342842e0e1461032657806342966c681461033957806346b2b0871461034c5780634f6ccce71461036f5780636352211e1461038257806370a0823114610395578063715018a6146103a8578063776ce6a1146103b057806377bed5ed146103b85780637e2285aa146103d85780637e669891146103eb5780638da5cb5b1461040b57806391d1485414610413578063938e3d7b1461042657806395d89b4114610439578063965306aa14610441578063a217fddf14610454578063a22cb4651461045c578063b4b5b48f1461046f578063b79636b614610491578063b88d4fde146104a4578063bdf29a85146104b7578063c87b56dd146104fd578063d539139314610510578063d547741f14610525578063e8a3d48514610538578063e985e9c514610540578063ebfcbee114610553578063f2fde38b14610566575b600080fd5b61021161020c3660046131ed565b610579565b60405161021e9190613bb8565b60405180910390f35b61022f61058a565b60405161021e9190613bfd565b61024f61024a3660046131aa565b61061c565b60405161021e9190613b55565b61026f61026a366004613177565b610643565b005b61028461027f3660046130cb565b6106d2565b60405161021e9190613be1565b600854610284565b61026f6102a7366004612fca565b61096e565b6102846102ba3660046131aa565b6109a0565b61022f6109b5565b61026f6102d53660046131cb565b610a43565b6102846102e8366004613177565b610a5f565b61026f6102fb3660046131cb565b610ab1565b61026f61030e36600461322f565b610ae7565b61026f6103213660046132ab565b610b65565b61026f610334366004612fca565b610d9d565b61026f6103473660046131aa565b610db8565b61035f61035a366004613250565b610f1d565b60405161021e9493929190613c3b565b61028461037d3660046131aa565b611089565b61024f6103903660046131aa565b6110d7565b6102846103a3366004612f4b565b61110c565b61026f611150565b61022f611164565b600e546103cb906001600160a01b031681565b60405161021e9190613bef565b61026f6103e6366004613250565b611173565b6103fe6103f93660046131aa565b6111fb565b60405161021e9190613ba7565b61024f611530565b6102116104213660046131cb565b61153f565b61026f610434366004613250565b61156a565b61022f6115f2565b61021161044f366004613250565b611601565b610284600081565b61026f61046a366004613098565b611688565b61048261047d3660046131aa565b611693565b60405161021e93929190613c0e565b6103fe61049f366004612f4b565b61173d565b61026f6104b236600461301a565b6117d5565b6104ef6104c5366004613250565b80516020818301810180516014825292820191909301209152805460019091015460ff9091169082565b60405161021e929190613bc6565b61022f61050b3660046131aa565b61180c565b6102846000805160206140fd83398151915281565b61026f6105333660046131cb565b611910565b61022f61192c565b61021161054e366004612f8d565b611939565b61026f6105613660046132ab565b611967565b61026f610574366004612f4b565b611b1a565b600061058482611b54565b92915050565b60606000805461059990613fb0565b80601f01602080910402602001604051908101604052809291908181526020018280546105c590613fb0565b80156106125780601f106105e757610100808354040283529160200191610612565b820191906000526020600020905b8154815290600101906020018083116105f557829003601f168201915b5050505050905090565b600061062782611b79565b506000908152600460205260409020546001600160a01b031690565b600061064e826110d7565b9050806001600160a01b0316836001600160a01b0316141561068b5760405162461bcd60e51b815260040161068290613e05565b60405180910390fd5b336001600160a01b03821614806106a757506106a78133611939565b6106c35760405162461bcd60e51b815260040161068290613da5565b6106cd8383611b9e565b505050565b60006106dd85611601565b156106fa5760405162461bcd60e51b815260040161068290613ce5565b600085511161071b5760405162461bcd60e51b815260040161068290613cf5565b6000831161073b5760405162461bcd60e51b815260040161068290613d65565b600e546040516331a9108f60e11b81526000916001600160a01b031690636352211e9061076c908890600401613be1565b60206040518083038186803b15801561078457600080fd5b505afa158015610798573d6000803e3d6000fd5b505050506040513d601f19601f820116820180604052508101906107bc9190612f6c565b6001600160a01b031614156107e35760405162461bcd60e51b815260040161068290613de5565b61080a826040518060400160405280600581526020016461723a2f2f60d81b815250611c0c565b8061083957506108398260405180604001604052806007815260200166697066733a2f2f60c81b815250611c0c565b6108555760405162461bcd60e51b815260040161068290613c85565b600061086087611c72565b905061086c8184611cb1565b6000818152601360209081526040909120875161088b92890190612d48565b5060008181526013602052604090206001018590556108b86108b16301e1338086611d6c565b4290611d78565b6000828152601360205260408120600201919091556108d687611d84565b9050816014826040516108e99190613aa9565b90815260200160405180910390206001018190555060016014826040516109109190613aa9565b9081526040805160209281900383019020805460ff191693151593909317909255600088815260158252918220805460018101825590835291819020835161095f939190910191840190612d48565b50909150505b95945050505050565b610979335b82611efa565b6109955760405162461bcd60e51b815260040161068290613e35565b6106cd838383611f58565b6000908152600b602052604090206001015490565b600f80546109c290613fb0565b80601f01602080910402602001604051908101604052809291908181526020018280546109ee90613fb0565b8015610a3b5780601f10610a1057610100808354040283529160200191610a3b565b820191906000526020600020905b815481529060010190602001808311610a1e57829003601f168201915b505050505081565b610a4c826109a0565b610a5581612073565b6106cd838361207d565b6000610a6a8361110c565b8210610a885760405162461bcd60e51b815260040161068290613c95565b506001600160a01b03919091166000908152600660209081526040808320938352929052205490565b6001600160a01b0381163314610ad95760405162461bcd60e51b815260040161068290613e45565b610ae38282612103565b5050565b610aef61216a565b6001600160a01b038116610b155760405162461bcd60e51b815260040161068290613d75565b600e546001600160a01b0382811691161415610b435760405162461bcd60e51b815260040161068290613d35565b600e80546001600160a01b0319166001600160a01b0392909216919091179055565b610b70335b83611efa565b610b8c5760405162461bcd60e51b815260040161068290613d95565b600e546040516331a9108f60e11b81526000916001600160a01b031690636352211e90610bbd908590600401613be1565b60206040518083038186803b158015610bd557600080fd5b505afa158015610be9573d6000803e3d6000fd5b505050506040513d601f19601f82011682018060405250810190610c0d9190612f6c565b6001600160a01b03161415610c345760405162461bcd60e51b815260040161068290613de5565b60008281526013602052604090206001015481811415610c665760405162461bcd60e51b815260040161068290613d35565b6000838152601360205260408120600181018490558054610d0e9190610c8b90613fb0565b80601f0160208091040260200160405190810160405280929190818152602001828054610cb790613fb0565b8015610d045780601f10610cd957610100808354040283529160200191610d04565b820191906000526020600020905b815481529060010190602001808311610ce757829003601f168201915b5050505050611d84565b6000838152601560205260409020909150610d299082612199565b600083815260156020908152604082208054600181018255908352918190208351610d5b939190910191840190612d48565b507f49554a718bc4f67010242de90ef62df1a09330859f5fa73030c9eb4f3aada248848385604051610d8f93929190613e55565b60405180910390a150505050565b6106cd838383604051806020016040528060008152506117d5565b610dc1816122b7565b610ddd5760405162461bcd60e51b815260040161068290613dc5565b60008181526013602052604081208054610dfb9190610c8b90613fb0565b6000838152601360205260408120600181015492935090610e1c8282612dcc565b60018201600090556002820160009055505082601483604051610e3f9190613aa9565b9081526020016040518091039020600101541415610e8757601482604051610e679190613aa9565b908152604051908190036020019020805460ff1916815560006001909101555b6000818152601560205260409020610e9f9083612199565b60008381526011602052604090208054610eb890613fb0565b159050610f14576000838152601160205260408120610ed691612dcc565b6000838152601160205260408082209051601291610ef391613afb565b908152604051908190036020019020805491151560ff199092169190911790555b6106cd836122d4565b6060600080600080610f2e86611d84565b9050601481604051610f409190613aa9565b9081526040519081900360200190205460ff16610f6f5760405162461bcd60e51b815260040161068290613e15565b6000601482604051610f819190613aa9565b9081526020016040518091039020600101549050600060136000838152602001908152602001600020604051806060016040529081600082018054610fc590613fb0565b80601f0160208091040260200160405190810160405280929190818152602001828054610ff190613fb0565b801561103e5780601f106110135761010080835404028352916020019161103e565b820191906000526020600020905b81548152906001019060200180831161102157829003601f168201915b5050505050815260200160018201548152602001600282015481525050905061106a8160000151612302565b6020820151604090920151909991985096504287101595509350505050565b600061109460085490565b82106110b25760405162461bcd60e51b815260040161068290613e25565b600882815481106110c5576110c561408b565b90600052602060002001549050919050565b6000818152600260205260408120546001600160a01b0316806105845760405162461bcd60e51b815260040161068290613df5565b60006001600160a01b0382166111345760405162461bcd60e51b815260040161068290613d55565b506001600160a01b031660009081526003602052604090205490565b61115861216a565b611162600061232e565b565b6060600f805461059990613fb0565b61117b61216a565b8060405160200161118c9190613aa9565b60405160208183030381529060405280519060200120600f6040516020016111b49190613afb565b6040516020818303038152906040528051906020012014156111e85760405162461bcd60e51b815260040161068290613d35565b8051610ae390600f906020840190612d48565b60606000805b60008481526015602052604090205481101561135a5760008481526015602052604081208054839081106112375761123761408b565b90600052602060002001805461124c90613fb0565b80601f016020809104026020016040519081016040528092919081815260200182805461127890613fb0565b80156112c55780601f1061129a576101008083540402835291602001916112c5565b820191906000526020600020905b8154815290600101906020018083116112a857829003601f168201915b505050505090506014816040516112dc9190613aa9565b9081526040519081900360200190205460ff16156113475760006014826040516113069190613aa9565b90815260200160405180910390206001015490504260136000838152602001908152602001600020600201541061134557611342846001611d78565b93505b505b508061135281614004565b915050611201565b506000816001600160401b03811115611375576113756140a1565b6040519080825280602002602001820160405280156113a857816020015b60608152602001906001900390816113935790505b5090506000805b6000868152601560205260409020548110156115265760008681526015602052604081208054839081106113e5576113e561408b565b9060005260206000200180546113fa90613fb0565b80601f016020809104026020016040519081016040528092919081815260200182805461142690613fb0565b80156114735780601f1061144857610100808354040283529160200191611473565b820191906000526020600020905b81548152906001019060200180831161145657829003601f168201915b5050505050905060148160405161148a9190613aa9565b9081526040519081900360200190205460ff16156115135760006014826040516114b49190613aa9565b90815260200160405180910390206001015490504260136000838152602001908152602001600020600201541061151157818585815181106114f8576114f861408b565b602090810291909101015261150e846001611d78565b93505b505b508061151e81614004565b9150506113af565b5090949350505050565b600a546001600160a01b031690565b6000918252600b602090815260408084206001600160a01b0393909316845291905290205460ff1690565b61157261216a565b806040516020016115839190613aa9565b6040516020818303038152906040528051906020012060106040516020016115ab9190613afb565b6040516020818303038152906040528051906020012014156115df5760405162461bcd60e51b815260040161068290613d35565b8051610ae3906010906020840190612d48565b60606001805461059990613fb0565b60008061160d83611d84565b905060148160405161161f9190613aa9565b9081526040519081900360200190205460ff16156116795760006014826040516116499190613aa9565b90815260408051602092819003830190206001015460009081526013909252902060020154421115949350505050565b50600092915050565b50919050565b610ae3338383612380565b6013602052600090815260409020805481906116ae90613fb0565b80601f01602080910402602001604051908101604052809291908181526020018280546116da90613fb0565b80156117275780601f106116fc57610100808354040283529160200191611727565b820191906000526020600020905b81548152906001019060200180831161170a57829003601f168201915b5050505050908060010154908060020154905083565b600e5460405163294cdf0d60e01b81526060916000916001600160a01b039091169063294cdf0d90611773908690600401613b55565b60206040518083038186803b15801561178b57600080fd5b505afa15801561179f573d6000803e3d6000fd5b505050506040513d601f19601f820116820180604052508101906117c3919061328a565b90506117ce816111fb565b9392505050565b6117de33610b6a565b6117fa5760405162461bcd60e51b815260040161068290613e35565b61180684848484612423565b50505050565b606061181782611b79565b6000828152601160205260408120805461183090613fb0565b80601f016020809104026020016040519081016040528092919081815260200182805461185c90613fb0565b80156118a95780601f1061187e576101008083540402835291602001916118a9565b820191906000526020600020905b81548152906001019060200180831161188c57829003601f168201915b5050505050905060006118ba612456565b90508051600014156118cd575092915050565b8151156118ff5780826040516020016118e7929190613ab5565b60405160208183030381529060405292505050919050565b61190884612465565b949350505050565b611919826109a0565b61192281612073565b6106cd8383612103565b601080546109c290613fb0565b6001600160a01b03918216600090815260056020908152604080832093909416825291909152205460ff1690565b61197033610b6a565b61198c5760405162461bcd60e51b815260040161068290613d95565b600081116119ac5760405162461bcd60e51b815260040161068290613d65565b600082815260136020526040812080546119ca9190610c8b90613fb0565b90506014816040516119dc9190613aa9565b9081526040519081900360200190205460ff16611a0b5760405162461bcd60e51b815260040161068290613e15565b82601482604051611a1c9190613aa9565b90815260200160405180910390206001015414611a4b5760405162461bcd60e51b815260040161068290613d45565b600083815260136020526040902060020154421115611a8c57611a756108b16301e1338084611d6c565b600084815260136020526040902060020155611ac8565b611ab5611a9d6301e1338084611d6c565b60008581526013602052604090206002015490611d78565b6000848152601360205260409020600201555b600083815260136020526040908190206002015490517f88ef5d91ad01b04046836022a7aade9038eb1188da66972705cc01ae3d49f08391611b0d9186918691613e55565b60405180910390a1505050565b611b2261216a565b6001600160a01b038116611b485760405162461bcd60e51b815260040161068290613cb5565b611b518161232e565b50565b60006001600160e01b03198216637965db0b60e01b14806105845750610584826124cb565b611b82816122b7565b611b515760405162461bcd60e51b815260040161068290613df5565b600081815260046020526040902080546001600160a01b0319166001600160a01b0384169081179091558190611bd3826110d7565b6001600160a01b03167f8c5be1e5ebec7d5bd14f71427d1e84f3dd0314c0f7b2291e5b200ac8c7c3b92560405160405180910390a45050565b600080611c18846124f0565b90506000611c25846124f0565b805183519192501115611c3d57600092505050610584565b806020015182602001511415611c5857600192505050610584565b805160209283015192909101518190209120149392505050565b60006000805160206140fd833981519152611c8c81612073565b6000611c97600c5490565b9050611ca7600c80546001019055565b6117ce848261251d565b611cba826122b7565b611cd65760405162461bcd60e51b815260040161068290613d85565b601281604051611ce69190613aa9565b9081526040519081900360200190205460ff1615611d165760405162461bcd60e51b815260040161068290613d05565b60008281526011602090815260409091208251611d3592840190612d48565b506001601282604051611d489190613aa9565b908152604051908190036020019020805491151560ff199092169190911790555050565b60006117ce8284613f04565b60006117ce8284613eb7565b60606000829050600081516001600160401b03811115611da657611da66140a1565b6040519080825280601f01601f191660200182016040528015611dd0576020820181803683370190505b50905060005b8251811015611ef257604160f81b838281518110611df657611df661408b565b01602001516001600160f81b03191610801590611e375750605a60f81b838281518110611e2557611e2561408b565b01602001516001600160f81b03191611155b15611e9957828181518110611e4e57611e4e61408b565b602001015160f81c60f81b60f81c6020611e689190613ecf565b60f81b828281518110611e7d57611e7d61408b565b60200101906001600160f81b031916908160001a905350611ee0565b828181518110611eab57611eab61408b565b602001015160f81c60f81b828281518110611ec857611ec861408b565b60200101906001600160f81b031916908160001a9053505b80611eea81614004565b915050611dd6565b509392505050565b600080611f06836110d7565b9050806001600160a01b0316846001600160a01b03161480611f2d5750611f2d8185611939565b806119085750836001600160a01b0316611f468461061c565b6001600160a01b031614949350505050565b826001600160a01b0316611f6b826110d7565b6001600160a01b031614611f915760405162461bcd60e51b815260040161068290613cc5565b6001600160a01b038216611fb75760405162461bcd60e51b815260040161068290613d15565b611fc2838383612537565b611fcd600082611b9e565b6001600160a01b0383166000908152600360205260408120805460019290611ff6908490613f23565b90915550506001600160a01b0382166000908152600360205260408120805460019290612024908490613eb7565b909155505060008181526002602052604080822080546001600160a01b0319166001600160a01b03868116918217909255915184939187169160008051602061411d83398151915291a4505050565b611b518133612542565b612087828261153f565b610ae3576000828152600b602090815260408083206001600160a01b03851684529091529020805460ff191660011790556120bf3390565b6001600160a01b0316816001600160a01b0316837f2f8788117e7eff1d82e926ec794901d17c78024a50270940304540a733656f0d60405160405180910390a45050565b61210d828261153f565b15610ae3576000828152600b602090815260408083206001600160a01b0385168085529252808320805460ff1916905551339285917ff6391f5c32d9c69d2a47ea670b442974b53935d1edc7fd64eb21e047a839171b9190a45050565b33612173611530565b6001600160a01b0316146111625760405162461bcd60e51b815260040161068290613dd5565b60005b82548110156106cd57816040516020016121b69190613aa9565b604051602081830303815290604052805190602001208382815481106121de576121de61408b565b906000526020600020016040516020016121f89190613afb565b6040516020818303038152906040528051906020012014156122a5578254839061222490600190613f23565b815481106122345761223461408b565b906000526020600020018382815481106122505761225061408b565b9060005260206000200190805461226690613fb0565b612271929190612e06565b508280548061228257612282614075565b60019003818190600052602060002001600061229e9190612dcc565b9055505050565b806122af81614004565b91505061219c565b6000908152600260205260409020546001600160a01b0316151590565b6122dd33610973565b6122f95760405162461bcd60e51b815260040161068290613e35565b611b51816125a6565b606081600f604051602001612318929190613a91565b6040516020818303038152906040529050919050565b600a80546001600160a01b038381166001600160a01b0319831681179093556040519116919082907f8be0079c531659141344cd1fd0a4f28419497f9722a3daafe3b4186f6b6457e090600090a35050565b816001600160a01b0316836001600160a01b031614156123b25760405162461bcd60e51b815260040161068290613d25565b6001600160a01b0383811660008181526005602090815260408083209487168084529490915290819020805460ff1916851515179055517f17307eab39ab6107e8899845ad3d59bd9653f200f220920489ca2b5937696c3190612416908590613bb8565b60405180910390a3505050565b61242e848484611f58565b61243a8484848461263b565b6118065760405162461bcd60e51b815260040161068290613ca5565b6060600d805461059990613fb0565b606061247082611b79565b600061247a612456565b9050600081511161249a57604051806020016040528060008152506117ce565b806124a484612748565b6040516020016124b5929190613acd565b6040516020818303038152906040529392505050565b60006001600160e01b0319821663780e9d6360e01b1480610584575061058482612845565b60408051808201825260008082526020918201528151808301909252825182529182019181019190915290565b610ae3828260405180602001604052806000815250612895565b6106cd8383836128c8565b61254c828261153f565b610ae357612564816001600160a01b03166014612980565b61256f836020612980565b604051602001612580929190613b07565b60408051601f198184030181529082905262461bcd60e51b825261068291600401613bfd565b60006125b1826110d7565b90506125bf81600084612537565b6125ca600083611b9e565b6001600160a01b03811660009081526003602052604081208054600192906125f3908490613f23565b909155505060008281526002602052604080822080546001600160a01b0319169055518391906001600160a01b0384169060008051602061411d833981519152908390a45050565b60006001600160a01b0384163b1561273d57604051630a85bd0160e11b81526001600160a01b0385169063150b7a029061267f903390899088908890600401613b63565b602060405180830381600087803b15801561269957600080fd5b505af19250505080156126c9575060408051601f3d908101601f191682019092526126c69181019061320e565b60015b612723573d8080156126f7576040519150601f19603f3d011682016040523d82523d6000602084013e6126fc565b606091505b50805161271b5760405162461bcd60e51b815260040161068290613ca5565b805181602001fd5b6001600160e01b031916630a85bd0160e11b149050611908565b506001949350505050565b60608161276c5750506040805180820190915260018152600360fc1b602082015290565b8160005b8115612796578061278081614004565b915061278f9050600a83613ef0565b9150612770565b6000816001600160401b038111156127b0576127b06140a1565b6040519080825280601f01601f1916602001820160405280156127da576020820181803683370190505b5090505b8415611908576127ef600183613f23565b91506127fc600a8661401f565b612807906030613eb7565b60f81b81838151811061281c5761281c61408b565b60200101906001600160f81b031916908160001a90535061283e600a86613ef0565b94506127de565b60006001600160e01b031982166380ac58cd60e01b148061287657506001600160e01b03198216635b5e139f60e01b145b8061058457506301ffc9a760e01b6001600160e01b0319831614610584565b61289f8383612aeb565b6128ac600084848461263b565b6106cd5760405162461bcd60e51b815260040161068290613ca5565b6001600160a01b0383166129235761291e81600880546000838152600960205260408120829055600182018355919091527ff3f7a9fe364faab93b216da50a3214154f22a0a2b415b23a84c8169e8b636ee30155565b612946565b816001600160a01b0316836001600160a01b031614612946576129468382612bb8565b6001600160a01b03821661295d576106cd81612c55565b826001600160a01b0316826001600160a01b0316146106cd576106cd8282612d04565b6060600061298f836002613f04565b61299a906002613eb7565b6001600160401b038111156129b1576129b16140a1565b6040519080825280601f01601f1916602001820160405280156129db576020820181803683370190505b509050600360fc1b816000815181106129f6576129f661408b565b60200101906001600160f81b031916908160001a905350600f60fb1b81600181518110612a2557612a2561408b565b60200101906001600160f81b031916908160001a9053506000612a49846002613f04565b612a54906001613eb7565b90505b6001811115612acc576f181899199a1a9b1b9c1cb0b131b232b360811b85600f1660108110612a8857612a8861408b565b1a60f81b828281518110612a9e57612a9e61408b565b60200101906001600160f81b031916908160001a90535060049490941c93612ac581613f99565b9050612a57565b5083156117ce5760405162461bcd60e51b815260040161068290613c75565b6001600160a01b038216612b115760405162461bcd60e51b815260040161068290613db5565b612b1a816122b7565b15612b375760405162461bcd60e51b815260040161068290613cd5565b612b4360008383612537565b6001600160a01b0382166000908152600360205260408120805460019290612b6c908490613eb7565b909155505060008181526002602052604080822080546001600160a01b0319166001600160a01b038616908117909155905183929060008051602061411d833981519152908290a45050565b60006001612bc58461110c565b612bcf9190613f23565b600083815260076020526040902054909150808214612c22576001600160a01b03841660009081526006602090815260408083208584528252808320548484528184208190558352600790915290208190555b5060009182526007602090815260408084208490556001600160a01b039094168352600681528383209183525290812055565b600854600090612c6790600190613f23565b60008381526009602052604081205460088054939450909284908110612c8f57612c8f61408b565b906000526020600020015490508060088381548110612cb057612cb061408b565b6000918252602080832090910192909255828152600990915260408082208490558582528120556008805480612ce857612ce8614075565b6001900381819060005260206000200160009055905550505050565b6000612d0f8361110c565b6001600160a01b039093166000908152600660209081526040808320868452825280832085905593825260079052919091209190915550565b828054612d5490613fb0565b90600052602060002090601f016020900481019282612d765760008555612dbc565b82601f10612d8f57805160ff1916838001178555612dbc565b82800160010185558215612dbc579182015b82811115612dbc578251825591602001919060010190612da1565b50612dc8929150612e81565b5090565b508054612dd890613fb0565b6000825580601f10612de8575050565b601f016020900490600052602060002090810190611b519190612e81565b828054612e1290613fb0565b90600052602060002090601f016020900481019282612e345760008555612dbc565b82601f10612e455780548555612dbc565b82800160010185558215612dbc57600052602060002091601f016020900482015b82811115612dbc578254825591600101919060010190612e66565b5b80821115612dc85760008155600101612e82565b6000612ea9612ea484613e8c565b613e70565b905082815260208101848484011115612ec457612ec4600080fd5b611ef2848285613f61565b8035610584816140c1565b8051610584816140c1565b8035610584816140d5565b8035610584816140dd565b8035610584816140e3565b8051610584816140e3565b600082601f830112612f2557612f25600080fd5b8135611908848260208601612e96565b8035610584816140f3565b8051610584816140dd565b600060208284031215612f6057612f60600080fd5b60006119088484612ecf565b600060208284031215612f8157612f81600080fd5b60006119088484612eda565b60008060408385031215612fa357612fa3600080fd5b6000612faf8585612ecf565b9250506020612fc085828601612ecf565b9150509250929050565b600080600060608486031215612fe257612fe2600080fd5b6000612fee8686612ecf565b9350506020612fff86828701612ecf565b925050604061301086828701612ef0565b9150509250925092565b6000806000806080858703121561303357613033600080fd5b600061303f8787612ecf565b945050602061305087828801612ecf565b935050604061306187828801612ef0565b92505060608501356001600160401b0381111561308057613080600080fd5b61308c87828801612f11565b91505092959194509250565b600080604083850312156130ae576130ae600080fd5b60006130ba8585612ecf565b9250506020612fc085828601612ee5565b600080600080600060a086880312156130e6576130e6600080fd5b60006130f28888612ecf565b95505060208601356001600160401b0381111561311157613111600080fd5b61311d88828901612f11565b945050604061312e88828901612ef0565b935050606061313f88828901612ef0565b92505060808601356001600160401b0381111561315e5761315e600080fd5b61316a88828901612f11565b9150509295509295909350565b6000806040838503121561318d5761318d600080fd5b60006131998585612ecf565b9250506020612fc085828601612ef0565b6000602082840312156131bf576131bf600080fd5b60006119088484612ef0565b600080604083850312156131e1576131e1600080fd5b6000612faf8585612ef0565b60006020828403121561320257613202600080fd5b60006119088484612efb565b60006020828403121561322357613223600080fd5b60006119088484612f06565b60006020828403121561324457613244600080fd5b60006119088484612f35565b60006020828403121561326557613265600080fd5b81356001600160401b0381111561327e5761327e600080fd5b61190884828501612f11565b60006020828403121561329f5761329f600080fd5b60006119088484612f40565b600080604083850312156132c1576132c1600080fd5b60006131998585612ef0565b60006117ce838361335c565b6132e281613f3a565b82525050565b60006132f2825190565b8084526020840193508360208202850161330c8560200190565b8060005b85811015613341578484038952815161332985826132cd565b94506020830160209a909a0199925050600101613310565b5091979650505050505050565b8015156132e2565b806132e2565b6000613366825190565b80845260208401935061337d818560208601613f6d565b613386816140b7565b9093019392505050565b600061339a825190565b6133a8818560208601613f6d565b9290920192915050565b600081546133bf81613fb0565b6001821680156133d657600181146133e757613417565b60ff19831686528186019350613417565b60008581526020902060005b8381101561340f578154888201526001909101906020016133f3565b838801955050505b50505092915050565b6132e281613f56565b60208082527f537472696e67733a20686578206c656e67746820696e73756666696369656e74910190815260005b5060200190565b6011815260006020820170494e56414c49445f544f4b454e5f55524960781b81529150613457565b602b81526000602082017f455243373231456e756d657261626c653a206f776e657220696e646578206f7581526a74206f6620626f756e647360a81b602082015291505b5060400190565b603281526000602082017f4552433732313a207472616e7366657220746f206e6f6e20455243373231526581527131b2b4bb32b91034b6b83632b6b2b73a32b960711b602082015291506134ca565b602681526000602082017f4f776e61626c653a206e6577206f776e657220697320746865207a65726f206181526564647265737360d01b602082015291506134ca565b602581526000602082017f4552433732313a207472616e736665722066726f6d20696e636f72726563742081526437bbb732b960d91b602082015291506134ca565b601c81526000602082017b115490cdcc8c4e881d1bdad95b88185b1c9958591e481b5a5b9d195960221b81529150613457565b60138152600060208201724e414d455f414c52454144595f45584953545360681b81529150613457565b601081526000602082016f5a45524f5f4c454e4754485f4e414d4560801b81529150613457565b60128152600060208201715552495f414c52454144595f45584953545360701b81529150613457565b602481526000602082017f4552433732313a207472616e7366657220746f20746865207a65726f206164648152637265737360e01b602082015291506134ca565b601981526000602082017822a9219b99189d1030b8383937bb32903a379031b0b63632b960391b81529150613457565b600a81526000602082016953414d455f56414c554560b01b81529150613457565b600d81526000602082016c43414e5f4e4f545f52454e455760981b81529150613457565b602981526000602082017f4552433732313a2061646472657373207a65726f206973206e6f7420612076618152683634b21037bbb732b960b91b602082015291506134ca565b601181526000602082017016915493d7d651505494d7d411549253d1607a1b81529150613457565b600c81526000602082016b5a45524f5f4144445245535360a01b81529150613457565b602e81526000602082017f45524337323155524953746f726167653a2055524920736574206f66206e6f6e81526d32bc34b9ba32b73a103a37b5b2b760911b602082015291506134ca565b601781526000602082017622a9219b9918afa1a0a62622a92fa727aa2fa7aba722a960491b81529150613457565b603e81526000602082017f4552433732313a20617070726f76652063616c6c6572206973206e6f7420746f81527f6b656e206f776e6572206e6f7220617070726f76656420666f7220616c6c0000602082015291506134ca565b60208082527f4552433732313a206d696e7420746f20746865207a65726f206164647265737391019081526000613457565b600f81526000602082016e1513d2d15397d393d517d193d55391608a1b81529150613457565b60208082527f4f776e61626c653a2063616c6c6572206973206e6f7420746865206f776e657291019081526000613457565b6012815260006020820171125111539512551657d393d517d193d5539160721b81529150613457565b6018815260006020820177115490cdcc8c4e881a5b9d985b1a59081d1bdad95b88125160421b81529150613457565b602181526000602082017f4552433732313a20617070726f76616c20746f2063757272656e74206f776e658152603960f91b602082015291506134ca565b600e81526000602082016d1390535157d393d517d193d5539160921b81529150613457565b602c81526000602082017f455243373231456e756d657261626c653a20676c6f62616c20696e646578206f81526b7574206f6620626f756e647360a01b602082015291506134ca565b602e81526000602082017f4552433732313a2063616c6c6572206973206e6f7420746f6b656e206f776e6581526d1c881b9bdc88185c1c1c9bdd995960921b602082015291506134ca565b602f81526000602082017f416363657373436f6e74726f6c3a2063616e206f6e6c792072656e6f756e636581526e103937b632b9903337b91039b2b63360891b602082015291506134ca565b6000613a9d8285613390565b915061190882846133b2565b60006117ce8284613390565b6000613ac18285613390565b91506119088284613390565b6000613ad98285613390565b9150613ae58284613390565b64173539b7b760d91b8152915060058201611908565b60006117ce82846133b2565b76020b1b1b2b9b9a1b7b73a3937b61d1030b1b1b7bab73a1604d1b81526017016000613b338285613390565b7001034b99036b4b9b9b4b733903937b6329607d1b8152915060118201613ac1565b6020810161058482846132d9565b60808101613b7182876132d9565b613b7e60208301866132d9565b613b8b6040830185613356565b8181036060830152613b9d818461335c565b9695505050505050565b602080825281016117ce81846132e8565b60208101610584828461334e565b60408101613bd4828561334e565b6117ce6020830184613356565b602081016105848284613356565b602081016105848284613420565b602080825281016117ce818461335c565b60608082528101613c1f818661335c565b9050613c2e6020830185613356565b6119086040830184613356565b60808082528101613c4c818761335c565b9050613c5b6020830186613356565b613c686040830185613356565b610965606083018461334e565b6020808252810161058481613429565b602080825281016105848161345e565b6020808252810161058481613486565b60208082528101610584816134d1565b6020808252810161058481613520565b6020808252810161058481613563565b60208082528101610584816135a5565b60208082528101610584816135d8565b6020808252810161058481613602565b6020808252810161058481613629565b6020808252810161058481613652565b6020808252810161058481613693565b60208082528101610584816136c3565b60208082528101610584816136e4565b6020808252810161058481613708565b602080825281016105848161374e565b6020808252810161058481613776565b6020808252810161058481613799565b60208082528101610584816137e4565b6020808252810161058481613812565b602080825281016105848161386c565b602080825281016105848161389e565b60208082528101610584816138c4565b60208082528101610584816138f6565b602080825281016105848161391f565b602080825281016105848161394e565b602080825281016105848161398c565b60208082528101610584816139b1565b60208082528101610584816139fa565b6020808252810161058481613a45565b60608101613e638286613356565b613c2e6020830185613356565b6000613e7b60405190565b9050613e878282613fd7565b919050565b60006001600160401b03821115613ea557613ea56140a1565b613eae826140b7565b60200192915050565b60008219821115613eca57613eca614033565b500190565b600060ff8216915060ff831692508260ff03821115613eca57613eca614033565b600082613eff57613eff614049565b500490565b6000816000190483118215151615613f1e57613f1e614033565b500290565b600082821015613f3557613f35614033565b500390565b60006001600160a01b038216610584565b600061058482613f3a565b600061058482613f4b565b82818337506000910152565b60005b83811015613f88578181015183820152602001613f70565b838111156118065750506000910152565b600081613fa857613fa8614033565b506000190190565b600281046001821680613fc457607f821691505b602082108114156116825761168261405f565b613fe0826140b7565b81018181106001600160401b0382111715613ffd57613ffd6140a1565b6040525050565b600060001982141561401857614018614033565b5060010190565b60008261402e5761402e614049565b500690565b634e487b7160e01b600052601160045260246000fd5b634e487b7160e01b600052601260045260246000fd5b634e487b7160e01b600052602260045260246000fd5b634e487b7160e01b600052603160045260246000fd5b634e487b7160e01b600052603260045260246000fd5b634e487b7160e01b600052604160045260246000fd5b601f01601f191690565b6140ca81613f3a565b8114611b5157600080fd5b8015156140ca565b806140ca565b6001600160e01b031981166140ca565b6140ca81613f4b56fe9f2df0fed2c77648de5860a4cc508cd0818c85b8b8a1ab4ceeef8d981c8956a6ddf252ad1be2c89b69c2b068fc378daa952ba7f163c4a11628f55a4df523b3efa264697066735822122031d15d71358b53f8e52f96fe75e66222e0ab6a9ac20472a7a5cac096a0f024fd64736f6c63430008070033",
  "devdoc": {
    "author": "Masa Finance",
    "details": "SoulName NFT, that inherits from the NFT contract, and points to a Soulbound identity token. It has an extension, and stores all the information about the identity names.",
    "kind": "dev",
    "methods": {
      "approve(address,uint256)": {
        "details": "See {IERC721-approve}."
      },
      "balanceOf(address)": {
        "details": "See {IERC721-balanceOf}."
      },
      "burn(uint256)": {
        "details": "The caller must be the owner or an approved address of the soul name.",
        "params": {
          "tokenId": "TokenId of the soul name to burn"
        }
      },
      "constructor": {
        "details": "Creates a new SoulName NFT, that points to a Soulbound identity, inheriting from the NFT contract.",
        "params": {
          "_contractURI": "URI of the smart contract metadata",
          "_extension": "Extension of the soul name",
          "_soulboundIdentity": "Address of the Soulbound identity contract",
          "owner": "Owner of the smart contract"
        }
      },
      "getApproved(uint256)": {
        "details": "See {IERC721-getApproved}."
      },
      "getExtension()": {
        "details": "This function is used to get the extension of the soul name",
        "returns": {
          "_0": "Extension of the soul name"
        }
      },
      "getRoleAdmin(bytes32)": {
        "details": "Returns the admin role that controls `role`. See {grantRole} and {revokeRole}. To change a role's admin, use {_setRoleAdmin}."
      },
      "getSoulNames(address)": {
        "details": "This function queries all the identity names of the specified account",
        "params": {
          "owner": "Address of the owner of the identities"
        },
        "returns": {
          "sbtNames": "Array of soul names associated to the account"
        }
      },
      "getSoulNames(uint256)": {
        "details": "This function queries all the identity names of the specified identity Id",
        "params": {
          "identityId": "TokenId of the identity"
        },
        "returns": {
          "sbtNames": "Array of soul names associated to the identity Id"
        }
      },
      "getTokenData(string)": {
        "details": "This function queries the information of a soul name",
        "params": {
          "name": "Name of the soul name"
        },
        "returns": {
          "active": "`true` if the soul name is active, `false` otherwise",
          "expirationDate": "Expiration date of the soul name",
          "identityId": "Identity id of the soul name",
          "sbtName": "Soul name, in upper/lower case and extension"
        }
      },
      "grantRole(bytes32,address)": {
        "details": "Grants `role` to `account`. If `account` had not been already granted `role`, emits a {RoleGranted} event. Requirements: - the caller must have ``role``'s admin role. May emit a {RoleGranted} event."
      },
      "hasRole(bytes32,address)": {
        "details": "Returns `true` if `account` has been granted `role`."
      },
      "isApprovedForAll(address,address)": {
        "details": "See {IERC721-isApprovedForAll}."
      },
      "isAvailable(string)": {
        "details": "This function queries if a soul name already exists and is in the available state",
        "params": {
          "name": "Name of the soul name"
        },
        "returns": {
          "available": "`true` if the soul name is available, `false` otherwise"
        }
      },
      "mint(address,string,uint256,uint256,string)": {
        "details": "The caller can mint more than one name. The soul name must be unique.",
        "params": {
          "_tokenURI": "URI of the NFT",
          "identityId": "TokenId of the soulbound identity that will be pointed from this soul name",
          "name": "Name of the new soul name",
          "to": "Address of the owner of the new soul name",
          "yearsPeriod": "Years of validity of the name"
        }
      },
      "name()": {
        "details": "See {IERC721Metadata-name}."
      },
      "owner()": {
        "details": "Returns the address of the current owner."
      },
      "ownerOf(uint256)": {
        "details": "See {IERC721-ownerOf}."
      },
      "renewYearsPeriod(uint256,uint256)": {
        "details": "The caller must be the owner or an approved address of the soul name.",
        "params": {
          "tokenId": "TokenId of the soul name",
          "yearsPeriod": "Years of validity of the name"
        }
      },
      "renounceOwnership()": {
        "details": "Leaves the contract without owner. It will not be possible to call `onlyOwner` functions anymore. Can only be called by the current owner. NOTE: Renouncing ownership will leave the contract without an owner, thereby removing any functionality that is only available to the owner."
      },
      "renounceRole(bytes32,address)": {
        "details": "Revokes `role` from the calling account. Roles are often managed via {grantRole} and {revokeRole}: this function's purpose is to provide a mechanism for accounts to lose their privileges if they are compromised (such as when a trusted device is misplaced). If the calling account had been revoked `role`, emits a {RoleRevoked} event. Requirements: - the caller must be `account`. May emit a {RoleRevoked} event."
      },
      "revokeRole(bytes32,address)": {
        "details": "Revokes `role` from `account`. If `account` had been granted `role`, emits a {RoleRevoked} event. Requirements: - the caller must have ``role``'s admin role. May emit a {RoleRevoked} event."
      },
      "safeTransferFrom(address,address,uint256)": {
        "details": "See {IERC721-safeTransferFrom}."
      },
      "safeTransferFrom(address,address,uint256,bytes)": {
        "details": "See {IERC721-safeTransferFrom}."
      },
      "setApprovalForAll(address,bool)": {
        "details": "See {IERC721-setApprovalForAll}."
      },
      "setContractURI(string)": {
        "details": "The caller must have the owner to call this function",
        "params": {
          "_contractURI": "URI of the smart contract metadata"
        }
      },
      "setExtension(string)": {
        "details": "The caller must have the owner to call this function",
        "params": {
          "_extension": "Extension of the soul name"
        }
      },
      "setSoulboundIdentity(address)": {
        "details": "The caller must have the owner to call this function",
        "params": {
          "_soulboundIdentity": "Address of the SoulboundIdentity contract"
        }
      },
      "supportsInterface(bytes4)": {
        "details": "Interface identification is specified in ERC-165.",
        "params": {
          "interfaceId": "The interface identifier, as specified in ERC-165"
        },
        "returns": {
          "_0": "`true` if the contract implements `interfaceId` and  `interfaceId` is not 0xffffffff, `false` otherwise"
        }
      },
      "symbol()": {
        "details": "See {IERC721Metadata-symbol}."
      },
      "tokenByIndex(uint256)": {
        "details": "See {IERC721Enumerable-tokenByIndex}."
      },
      "tokenOfOwnerByIndex(address,uint256)": {
        "details": "See {IERC721Enumerable-tokenOfOwnerByIndex}."
      },
      "tokenURI(uint256)": {
        "details": "Throws if `_tokenId` is not a valid NFT. URIs are defined in RFC  3986. The URI may point to a JSON file that conforms to the \"ERC721  Metadata JSON Schema\".",
        "params": {
          "tokenId": "NFT to get the URI of"
        },
        "returns": {
          "_0": "URI of the NFT"
        }
      },
      "totalSupply()": {
        "details": "See {IERC721Enumerable-totalSupply}."
      },
      "transferFrom(address,address,uint256)": {
        "details": "See {IERC721-transferFrom}."
      },
      "transferOwnership(address)": {
        "details": "Transfers ownership of the contract to a new account (`newOwner`). Can only be called by the current owner."
      },
      "updateIdentityId(uint256,uint256)": {
        "details": "The caller must be the owner or an approved address of the soul name.",
        "params": {
          "identityId": "New TokenId of the soulbound identity that will be pointed from this soul name",
          "tokenId": "TokenId of the soul name"
        }
      }
    },
    "title": "SoulName NFT",
    "version": 1
  },
  "userdoc": {
    "kind": "user",
    "methods": {
      "burn(uint256)": {
        "notice": "Burn a soul name"
      },
      "constructor": {
        "notice": "Creates a new SoulName NFT"
      },
      "getExtension()": {
        "notice": "Returns the extension of the soul name"
      },
      "getSoulNames(address)": {
        "notice": "Returns all the active soul names of an account"
      },
      "getSoulNames(uint256)": {
        "notice": "Returns all the active soul names of an account"
      },
      "getTokenData(string)": {
        "notice": "Returns the information of a soul name"
      },
      "isAvailable(string)": {
        "notice": "Checks if a soul name is available"
      },
      "mint(address,string,uint256,uint256,string)": {
        "notice": "Mints a new soul name"
      },
      "renewYearsPeriod(uint256,uint256)": {
        "notice": "Update the expiration date of a soul name"
      },
      "setContractURI(string)": {
        "notice": "Sets the URI of the smart contract metadata"
      },
      "setExtension(string)": {
        "notice": "Sets the extension of the soul name"
      },
      "setSoulboundIdentity(address)": {
        "notice": "Sets the SoulboundIdentity contract address linked to this soul name"
      },
      "supportsInterface(bytes4)": {
        "notice": "Query if a contract implements an interface"
      },
      "tokenURI(uint256)": {
        "notice": "A distinct Uniform Resource Identifier (URI) for a given asset."
      },
      "updateIdentityId(uint256,uint256)": {
        "notice": "Update the identity id pointed from a soul name"
      }
    },
    "notice": "SoulName NFT that points to a Soulbound identity token",
    "version": 1
  },
  "storageLayout": {
    "storage": [
      {
        "astId": 1537,
        "contract": "contracts/SoulName.sol:SoulName",
        "label": "_name",
        "offset": 0,
        "slot": "0",
        "type": "t_string_storage"
      },
      {
        "astId": 1539,
        "contract": "contracts/SoulName.sol:SoulName",
        "label": "_symbol",
        "offset": 0,
        "slot": "1",
        "type": "t_string_storage"
      },
      {
        "astId": 1543,
        "contract": "contracts/SoulName.sol:SoulName",
        "label": "_owners",
        "offset": 0,
        "slot": "2",
        "type": "t_mapping(t_uint256,t_address)"
      },
      {
        "astId": 1547,
        "contract": "contracts/SoulName.sol:SoulName",
        "label": "_balances",
        "offset": 0,
        "slot": "3",
        "type": "t_mapping(t_address,t_uint256)"
      },
      {
        "astId": 1551,
        "contract": "contracts/SoulName.sol:SoulName",
        "label": "_tokenApprovals",
        "offset": 0,
        "slot": "4",
        "type": "t_mapping(t_uint256,t_address)"
      },
      {
        "astId": 1557,
        "contract": "contracts/SoulName.sol:SoulName",
        "label": "_operatorApprovals",
        "offset": 0,
        "slot": "5",
        "type": "t_mapping(t_address,t_mapping(t_address,t_bool))"
      },
      {
        "astId": 2557,
        "contract": "contracts/SoulName.sol:SoulName",
        "label": "_ownedTokens",
        "offset": 0,
        "slot": "6",
        "type": "t_mapping(t_address,t_mapping(t_uint256,t_uint256))"
      },
      {
        "astId": 2561,
        "contract": "contracts/SoulName.sol:SoulName",
        "label": "_ownedTokensIndex",
        "offset": 0,
        "slot": "7",
        "type": "t_mapping(t_uint256,t_uint256)"
      },
      {
        "astId": 2564,
        "contract": "contracts/SoulName.sol:SoulName",
        "label": "_allTokens",
        "offset": 0,
        "slot": "8",
        "type": "t_array(t_uint256)dyn_storage"
      },
      {
        "astId": 2568,
        "contract": "contracts/SoulName.sol:SoulName",
        "label": "_allTokensIndex",
        "offset": 0,
        "slot": "9",
        "type": "t_mapping(t_uint256,t_uint256)"
      },
      {
        "astId": 400,
        "contract": "contracts/SoulName.sol:SoulName",
        "label": "_owner",
        "offset": 0,
        "slot": "10",
        "type": "t_address"
      },
      {
        "astId": 24,
        "contract": "contracts/SoulName.sol:SoulName",
        "label": "_roles",
        "offset": 0,
        "slot": "11",
        "type": "t_mapping(t_bytes32,t_struct(RoleData)19_storage)"
      },
      {
        "astId": 7680,
        "contract": "contracts/SoulName.sol:SoulName",
        "label": "_tokenIdCounter",
        "offset": 0,
        "slot": "12",
        "type": "t_struct(Counter)3261_storage"
      },
      {
        "astId": 7682,
        "contract": "contracts/SoulName.sol:SoulName",
        "label": "_baseTokenURI",
        "offset": 0,
        "slot": "13",
        "type": "t_string_storage"
      },
      {
        "astId": 4926,
        "contract": "contracts/SoulName.sol:SoulName",
        "label": "soulboundIdentity",
        "offset": 0,
        "slot": "14",
        "type": "t_contract(ISoulboundIdentity)7322"
      },
      {
        "astId": 4928,
        "contract": "contracts/SoulName.sol:SoulName",
        "label": "extension",
        "offset": 0,
        "slot": "15",
        "type": "t_string_storage"
      },
      {
        "astId": 4930,
        "contract": "contracts/SoulName.sol:SoulName",
        "label": "contractURI",
        "offset": 0,
        "slot": "16",
        "type": "t_string_storage"
      },
      {
        "astId": 4934,
        "contract": "contracts/SoulName.sol:SoulName",
        "label": "_tokenURIs",
        "offset": 0,
        "slot": "17",
        "type": "t_mapping(t_uint256,t_string_storage)"
      },
      {
        "astId": 4938,
        "contract": "contracts/SoulName.sol:SoulName",
        "label": "_URIs",
        "offset": 0,
        "slot": "18",
        "type": "t_mapping(t_string_memory_ptr,t_bool)"
      },
      {
        "astId": 4943,
        "contract": "contracts/SoulName.sol:SoulName",
        "label": "tokenData",
        "offset": 0,
        "slot": "19",
        "type": "t_mapping(t_uint256,t_struct(TokenData)4960_storage)"
      },
      {
        "astId": 4948,
        "contract": "contracts/SoulName.sol:SoulName",
        "label": "nameData",
        "offset": 0,
        "slot": "20",
        "type": "t_mapping(t_string_memory_ptr,t_struct(NameData)4965_storage)"
      },
      {
        "astId": 4953,
        "contract": "contracts/SoulName.sol:SoulName",
        "label": "identityNames",
        "offset": 0,
        "slot": "21",
        "type": "t_mapping(t_uint256,t_array(t_string_storage)dyn_storage)"
      }
    ],
    "types": {
      "t_address": {
        "encoding": "inplace",
        "label": "address",
        "numberOfBytes": "20"
      },
      "t_array(t_string_storage)dyn_storage": {
        "base": "t_string_storage",
        "encoding": "dynamic_array",
        "label": "string[]",
        "numberOfBytes": "32"
      },
      "t_array(t_uint256)dyn_storage": {
        "base": "t_uint256",
        "encoding": "dynamic_array",
        "label": "uint256[]",
        "numberOfBytes": "32"
      },
      "t_bool": {
        "encoding": "inplace",
        "label": "bool",
        "numberOfBytes": "1"
      },
      "t_bytes32": {
        "encoding": "inplace",
        "label": "bytes32",
        "numberOfBytes": "32"
      },
      "t_contract(ISoulboundIdentity)7322": {
        "encoding": "inplace",
        "label": "contract ISoulboundIdentity",
        "numberOfBytes": "20"
      },
      "t_mapping(t_address,t_bool)": {
        "encoding": "mapping",
        "key": "t_address",
        "label": "mapping(address => bool)",
        "numberOfBytes": "32",
        "value": "t_bool"
      },
      "t_mapping(t_address,t_mapping(t_address,t_bool))": {
        "encoding": "mapping",
        "key": "t_address",
        "label": "mapping(address => mapping(address => bool))",
        "numberOfBytes": "32",
        "value": "t_mapping(t_address,t_bool)"
      },
      "t_mapping(t_address,t_mapping(t_uint256,t_uint256))": {
        "encoding": "mapping",
        "key": "t_address",
        "label": "mapping(address => mapping(uint256 => uint256))",
        "numberOfBytes": "32",
        "value": "t_mapping(t_uint256,t_uint256)"
      },
      "t_mapping(t_address,t_uint256)": {
        "encoding": "mapping",
        "key": "t_address",
        "label": "mapping(address => uint256)",
        "numberOfBytes": "32",
        "value": "t_uint256"
      },
      "t_mapping(t_bytes32,t_struct(RoleData)19_storage)": {
        "encoding": "mapping",
        "key": "t_bytes32",
        "label": "mapping(bytes32 => struct AccessControl.RoleData)",
        "numberOfBytes": "32",
        "value": "t_struct(RoleData)19_storage"
      },
      "t_mapping(t_string_memory_ptr,t_bool)": {
        "encoding": "mapping",
        "key": "t_string_memory_ptr",
        "label": "mapping(string => bool)",
        "numberOfBytes": "32",
        "value": "t_bool"
      },
      "t_mapping(t_string_memory_ptr,t_struct(NameData)4965_storage)": {
        "encoding": "mapping",
        "key": "t_string_memory_ptr",
        "label": "mapping(string => struct SoulName.NameData)",
        "numberOfBytes": "32",
        "value": "t_struct(NameData)4965_storage"
      },
      "t_mapping(t_uint256,t_address)": {
        "encoding": "mapping",
        "key": "t_uint256",
        "label": "mapping(uint256 => address)",
        "numberOfBytes": "32",
        "value": "t_address"
      },
      "t_mapping(t_uint256,t_array(t_string_storage)dyn_storage)": {
        "encoding": "mapping",
        "key": "t_uint256",
        "label": "mapping(uint256 => string[])",
        "numberOfBytes": "32",
        "value": "t_array(t_string_storage)dyn_storage"
      },
      "t_mapping(t_uint256,t_string_storage)": {
        "encoding": "mapping",
        "key": "t_uint256",
        "label": "mapping(uint256 => string)",
        "numberOfBytes": "32",
        "value": "t_string_storage"
      },
      "t_mapping(t_uint256,t_struct(TokenData)4960_storage)": {
        "encoding": "mapping",
        "key": "t_uint256",
        "label": "mapping(uint256 => struct SoulName.TokenData)",
        "numberOfBytes": "32",
        "value": "t_struct(TokenData)4960_storage"
      },
      "t_mapping(t_uint256,t_uint256)": {
        "encoding": "mapping",
        "key": "t_uint256",
        "label": "mapping(uint256 => uint256)",
        "numberOfBytes": "32",
        "value": "t_uint256"
      },
      "t_string_memory_ptr": {
        "encoding": "bytes",
        "label": "string",
        "numberOfBytes": "32"
      },
      "t_string_storage": {
        "encoding": "bytes",
        "label": "string",
        "numberOfBytes": "32"
      },
      "t_struct(Counter)3261_storage": {
        "encoding": "inplace",
        "label": "struct Counters.Counter",
        "members": [
          {
            "astId": 3260,
            "contract": "contracts/SoulName.sol:SoulName",
            "label": "_value",
            "offset": 0,
            "slot": "0",
            "type": "t_uint256"
          }
        ],
        "numberOfBytes": "32"
      },
      "t_struct(NameData)4965_storage": {
        "encoding": "inplace",
        "label": "struct SoulName.NameData",
        "members": [
          {
            "astId": 4962,
            "contract": "contracts/SoulName.sol:SoulName",
            "label": "exists",
            "offset": 0,
            "slot": "0",
            "type": "t_bool"
          },
          {
            "astId": 4964,
            "contract": "contracts/SoulName.sol:SoulName",
            "label": "tokenId",
            "offset": 0,
            "slot": "1",
            "type": "t_uint256"
          }
        ],
        "numberOfBytes": "64"
      },
      "t_struct(RoleData)19_storage": {
        "encoding": "inplace",
        "label": "struct AccessControl.RoleData",
        "members": [
          {
            "astId": 16,
            "contract": "contracts/SoulName.sol:SoulName",
            "label": "members",
            "offset": 0,
            "slot": "0",
            "type": "t_mapping(t_address,t_bool)"
          },
          {
            "astId": 18,
            "contract": "contracts/SoulName.sol:SoulName",
            "label": "adminRole",
            "offset": 0,
            "slot": "1",
            "type": "t_bytes32"
          }
        ],
        "numberOfBytes": "64"
      },
      "t_struct(TokenData)4960_storage": {
        "encoding": "inplace",
        "label": "struct SoulName.TokenData",
        "members": [
          {
            "astId": 4955,
            "contract": "contracts/SoulName.sol:SoulName",
            "label": "name",
            "offset": 0,
            "slot": "0",
            "type": "t_string_storage"
          },
          {
            "astId": 4957,
            "contract": "contracts/SoulName.sol:SoulName",
            "label": "identityId",
            "offset": 0,
            "slot": "1",
            "type": "t_uint256"
          },
          {
            "astId": 4959,
            "contract": "contracts/SoulName.sol:SoulName",
            "label": "expirationDate",
            "offset": 0,
            "slot": "2",
            "type": "t_uint256"
          }
        ],
        "numberOfBytes": "96"
      },
      "t_uint256": {
        "encoding": "inplace",
        "label": "uint256",
        "numberOfBytes": "32"
      }
    }
  }
}