{
  "address": "0x4454d3892124Ad4d859770660495461D1C5a37F3",
  "abi": [
    {
      "inputs": [
        {
          "internalType": "address",
          "name": "owner",
          "type": "address"
        },
        {
          "internalType": "contract ISoulboundIdentity",
          "name": "_soulBoundIdentity",
          "type": "address"
        },
        {
          "internalType": "uint256",
          "name": "_nameRegistrationPricePerYear",
          "type": "uint256"
        },
        {
          "internalType": "address",
          "name": "_utilityToken",
          "type": "address"
        },
        {
          "internalType": "address",
          "name": "_stableCoin",
          "type": "address"
        },
        {
          "internalType": "address",
          "name": "_wrappedNativeToken",
          "type": "address"
        },
        {
          "internalType": "address",
          "name": "_swapRouter",
          "type": "address"
        },
        {
          "internalType": "address",
          "name": "_reserveWallet",
          "type": "address"
        }
      ],
      "stateMutability": "nonpayable",
      "type": "constructor"
    },
    {
      "anonymous": false,
      "inputs": [
        {
          "indexed": true,
          "internalType": "address",
          "name": "previousOwner",
          "type": "address"
        },
        {
          "indexed": true,
          "internalType": "address",
          "name": "newOwner",
          "type": "address"
        }
      ],
      "name": "OwnershipTransferred",
      "type": "event"
    },
    {
      "anonymous": false,
      "inputs": [
        {
          "indexed": true,
          "internalType": "address",
          "name": "account",
          "type": "address"
        },
        {
          "indexed": false,
          "internalType": "uint256",
          "name": "tokenId",
          "type": "uint256"
        },
        {
          "indexed": true,
          "internalType": "string",
          "name": "name",
          "type": "string"
        },
        {
          "indexed": false,
          "internalType": "uint256",
          "name": "yearsPeriod",
          "type": "uint256"
        }
      ],
      "name": "SoulNamePurchased",
      "type": "event"
    },
    {
      "anonymous": false,
      "inputs": [
        {
          "indexed": true,
          "internalType": "address",
          "name": "account",
          "type": "address"
        },
        {
          "indexed": false,
          "internalType": "uint256",
          "name": "tokenId",
          "type": "uint256"
        },
        {
          "indexed": true,
          "internalType": "string",
          "name": "name",
          "type": "string"
        },
        {
          "indexed": false,
          "internalType": "uint256",
          "name": "yearsPeriod",
          "type": "uint256"
        }
      ],
      "name": "SoulboundIdentityAndNamePurchased",
      "type": "event"
    },
    {
      "anonymous": false,
      "inputs": [
        {
          "indexed": true,
          "internalType": "address",
          "name": "account",
          "type": "address"
        },
        {
          "indexed": false,
          "internalType": "uint256",
          "name": "tokenId",
          "type": "uint256"
        }
      ],
      "name": "SoulboundIdentityPurchased",
      "type": "event"
    },
    {
      "inputs": [
        {
          "internalType": "uint256",
          "name": "mintingPrice",
          "type": "uint256"
        }
      ],
      "name": "_getSwapAmounts",
      "outputs": [
        {
          "internalType": "uint256",
          "name": "priceInStableCoin",
          "type": "uint256"
        },
        {
          "internalType": "uint256",
          "name": "priceInETH",
          "type": "uint256"
        },
        {
          "internalType": "uint256",
          "name": "priceInUtilityToken",
          "type": "uint256"
        }
      ],
      "stateMutability": "view",
      "type": "function"
    },
    {
      "inputs": [
        {
          "internalType": "address",
          "name": "_fromToken",
          "type": "address"
        },
        {
          "internalType": "address",
          "name": "_toToken",
          "type": "address"
        },
        {
          "internalType": "uint256",
          "name": "_amountOut",
          "type": "uint256"
        }
      ],
      "name": "estimateSwapAmount",
      "outputs": [
        {
          "internalType": "uint256",
          "name": "",
          "type": "uint256"
        }
      ],
      "stateMutability": "view",
      "type": "function"
    },
    {
      "inputs": [
        {
          "internalType": "string",
          "name": "nameLength",
          "type": "string"
        }
      ],
      "name": "getNameRegistrationPricePerYear",
      "outputs": [
        {
          "internalType": "uint256",
          "name": "",
          "type": "uint256"
        }
      ],
      "stateMutability": "view",
      "type": "function"
    },
    {
      "inputs": [
        {
          "internalType": "uint256",
          "name": "",
          "type": "uint256"
        }
      ],
      "name": "nameRegistrationPricePerYear",
      "outputs": [
        {
          "internalType": "uint256",
          "name": "",
          "type": "uint256"
        }
      ],
      "stateMutability": "view",
      "type": "function"
    },
    {
      "inputs": [],
      "name": "owner",
      "outputs": [
        {
          "internalType": "address",
          "name": "",
          "type": "address"
        }
      ],
      "stateMutability": "view",
      "type": "function"
    },
    {
      "inputs": [],
      "name": "purchaseIdentity",
      "outputs": [
        {
          "internalType": "uint256",
          "name": "",
          "type": "uint256"
        }
      ],
      "stateMutability": "payable",
      "type": "function"
    },
    {
      "inputs": [
        {
          "internalType": "address",
          "name": "paymentMethod",
          "type": "address"
        },
        {
          "internalType": "string",
          "name": "name",
          "type": "string"
        },
        {
          "internalType": "uint256",
          "name": "yearsPeriod",
          "type": "uint256"
        },
        {
          "internalType": "string",
          "name": "_tokenURI",
          "type": "string"
        }
      ],
      "name": "purchaseIdentityAndName",
      "outputs": [
        {
          "internalType": "uint256",
          "name": "",
          "type": "uint256"
        }
      ],
      "stateMutability": "payable",
      "type": "function"
    },
    {
      "inputs": [
        {
          "internalType": "address",
          "name": "paymentMethod",
          "type": "address"
        },
        {
          "internalType": "string",
          "name": "name",
          "type": "string"
        },
        {
          "internalType": "uint256",
          "name": "yearsPeriod",
          "type": "uint256"
        },
        {
          "internalType": "string",
          "name": "_tokenURI",
          "type": "string"
        }
      ],
      "name": "purchaseName",
      "outputs": [
        {
          "internalType": "uint256",
          "name": "",
          "type": "uint256"
        }
      ],
      "stateMutability": "payable",
      "type": "function"
    },
    {
      "inputs": [
        {
          "internalType": "string",
          "name": "name",
          "type": "string"
        },
        {
          "internalType": "uint256",
          "name": "yearsPeriod",
          "type": "uint256"
        }
      ],
      "name": "purchaseNameInfo",
      "outputs": [
        {
          "internalType": "uint256",
          "name": "priceInStableCoin",
          "type": "uint256"
        },
        {
          "internalType": "uint256",
          "name": "priceInETH",
          "type": "uint256"
        },
        {
          "internalType": "uint256",
          "name": "priceInUtilityToken",
          "type": "uint256"
        }
      ],
      "stateMutability": "view",
      "type": "function"
    },
    {
      "inputs": [],
      "name": "renounceOwnership",
      "outputs": [],
      "stateMutability": "nonpayable",
      "type": "function"
    },
    {
      "inputs": [],
      "name": "reserveWallet",
      "outputs": [
        {
          "internalType": "address",
          "name": "",
          "type": "address"
        }
      ],
      "stateMutability": "view",
      "type": "function"
    },
    {
      "inputs": [
        {
          "internalType": "uint256",
          "name": "_nameLength",
          "type": "uint256"
        },
        {
          "internalType": "uint256",
          "name": "_nameRegistrationPricePerYear",
          "type": "uint256"
        }
      ],
      "name": "setNameRegistrationPricePerYear",
      "outputs": [],
      "stateMutability": "nonpayable",
      "type": "function"
    },
    {
      "inputs": [
        {
          "internalType": "address",
          "name": "_reserveWallet",
          "type": "address"
        }
      ],
      "name": "setReserveWallet",
      "outputs": [],
      "stateMutability": "nonpayable",
      "type": "function"
    },
    {
      "inputs": [
        {
          "internalType": "contract ISoulboundIdentity",
          "name": "_soulboundIdentity",
          "type": "address"
        }
      ],
      "name": "setSoulboundIdentity",
      "outputs": [],
      "stateMutability": "nonpayable",
      "type": "function"
    },
    {
      "inputs": [
        {
          "internalType": "address",
          "name": "_stableCoin",
          "type": "address"
        }
      ],
      "name": "setStableCoin",
      "outputs": [],
      "stateMutability": "nonpayable",
      "type": "function"
    },
    {
      "inputs": [
        {
          "internalType": "address",
          "name": "_swapRouter",
          "type": "address"
        }
      ],
      "name": "setSwapRouter",
      "outputs": [],
      "stateMutability": "nonpayable",
      "type": "function"
    },
    {
      "inputs": [
        {
          "internalType": "address",
          "name": "_utilityToken",
          "type": "address"
        }
      ],
      "name": "setUtilityToken",
      "outputs": [],
      "stateMutability": "nonpayable",
      "type": "function"
    },
    {
      "inputs": [
        {
          "internalType": "address",
          "name": "_wrappedNativeToken",
          "type": "address"
        }
      ],
      "name": "setWrappedNativeToken",
      "outputs": [],
      "stateMutability": "nonpayable",
      "type": "function"
    },
    {
      "inputs": [],
      "name": "soulboundIdentity",
      "outputs": [
        {
          "internalType": "contract ISoulboundIdentity",
          "name": "",
          "type": "address"
        }
      ],
      "stateMutability": "view",
      "type": "function"
    },
    {
      "inputs": [],
      "name": "stableCoin",
      "outputs": [
        {
          "internalType": "address",
          "name": "",
          "type": "address"
        }
      ],
      "stateMutability": "view",
      "type": "function"
    },
    {
      "inputs": [],
      "name": "swapRouter",
      "outputs": [
        {
          "internalType": "address",
          "name": "",
          "type": "address"
        }
      ],
      "stateMutability": "view",
      "type": "function"
    },
    {
      "inputs": [
        {
          "internalType": "address",
          "name": "newOwner",
          "type": "address"
        }
      ],
      "name": "transferOwnership",
      "outputs": [],
      "stateMutability": "nonpayable",
      "type": "function"
    },
    {
      "inputs": [],
      "name": "utilityToken",
      "outputs": [
        {
          "internalType": "address",
          "name": "",
          "type": "address"
        }
      ],
      "stateMutability": "view",
      "type": "function"
    },
    {
      "inputs": [],
      "name": "wrappedNativeToken",
      "outputs": [
        {
          "internalType": "address",
          "name": "",
          "type": "address"
        }
      ],
      "stateMutability": "view",
      "type": "function"
    }
  ],
  "transactionHash": "0x7b3a43f2d28303ab9e4b0df61c426ba83080dd0de642c4bcf356d8f919cdbbcb",
  "args": [
    "0x3c8D9f130970358b7E8cbc1DbD0a1EbA6EBE368F",
    "0xB10ddc662BD561f0B26A8B555e15C71430a74fAa",
    "10000000",
    "0xdc31Ee1784292379Fbb2964b3B9C4124D8F89C60",
    "0xD87Ba7A50B2E7E660f678A895E4B72E7CB4CCd9C",
    "0xB4FBF271143F4FBf7B91A5ded31805e42b2208d6",
    "0x7a250d5630B4cF539739dF2C5dAcb4c659F2488D",
    "0x3c8D9f130970358b7E8cbc1DbD0a1EbA6EBE368F"
  ],
  "numDeployments": 5,
  "solcInputHash": "3e835f3087177704bfe9b5fdb501221e",
  "bytecode": "0x60806040523480156200001157600080fd5b5060405162002214380380620022148339810160408190526200003491620002ab565b81836001600160a01b038216620000685760405162461bcd60e51b81526004016200005f9062000414565b60405180910390fd5b6001600160a01b038116620000915760405162461bcd60e51b81526004016200005f9062000414565b600080546001600160a01b039384166001600160a01b03199182161790915560018054929093169116179055620000cf620000c93390565b620001bc565b6001600160a01b038116620000f85760405162461bcd60e51b81526004016200005f9062000414565b6001600160a01b038716620001215760405162461bcd60e51b81526004016200005f9062000414565b62000137886200020e60201b6200096c1760201c565b600380546001600160a01b039889166001600160a01b0319918216179091556000805260046020527f17ef568e3e12ab5b9c7254a8d58478811de00f9e6eb34345acd53bf8fd09d3ec96909655600580549488169487169490941790935550506006805492851692841692909217909155600780549190931691161790555062000480565b600280546001600160a01b038381166001600160a01b0319831681179093556040519116919082907f8be0079c531659141344cd1fd0a4f28419497f9722a3daafe3b4186f6b6457e090600090a35050565b620002186200024f565b6001600160a01b038116620002415760405162461bcd60e51b81526004016200005f90620003c9565b6200024c81620001bc565b50565b6002546001600160a01b031633146200027c5760405162461bcd60e51b81526004016200005f9062000426565b565b80516200028b8162000457565b92915050565b80516200028b816200046e565b80516200028b8162000479565b600080600080600080600080610100898b031215620002cd57620002cd600080fd5b6000620002db8b8b6200027e565b9850506020620002ee8b828c0162000291565b9750506040620003018b828c016200029e565b9650506060620003148b828c016200027e565b9550506080620003278b828c016200027e565b94505060a06200033a8b828c016200027e565b93505060c06200034d8b828c016200027e565b92505060e0620003608b828c016200027e565b9150509295985092959890939650565b600c81526000602082016b5a45524f5f4144445245535360a01b815291505b5060200190565b60208082527f4f776e61626c653a2063616c6c6572206973206e6f7420746865206f776e6572910190815260006200038f565b602080825281016200028b81602681527f4f776e61626c653a206e6577206f776e657220697320746865207a65726f206160208201526564647265737360d01b604082015260600190565b602080825281016200028b8162000370565b602080825281016200028b8162000396565b60006001600160a01b0382166200028b565b60006200028b8262000438565b620004628162000438565b81146200024c57600080fd5b62000462816200044a565b8062000462565b611d8480620004906000396000f3fe60806040526004361061011b5760003560e01c80631003d9c91461012057806312553e411461015857806317fcb39b1461016d5780631cfd11c61461019a57806323af4e17146101ba5780632d9c7a3f146101dc5780633ad3033e146101fc578063412736571461021c5780635f2a25181461023c578063715018a61461025c57806374a99f8b1461027157806377bed5ed146102915780638da5cb5b146102be5780639013ae08146102d3578063992642e5146102f3578063ae86ed8914610313578063c31c9c0714610333578063d72b11bd14610353578063da058ae314610373578063dda4fa8f14610393578063df7919b9146103b3578063e275c887146103c6578063eaf94aec146103d9578063f2fde38b14610406575b600080fd5b34801561012c57600080fd5b5061014061013b366004611670565b610426565b60405161014f93929190611b90565b60405180910390f35b61016061044f565b60405161014f9190611b47565b34801561017957600080fd5b5060015461018d906001600160a01b031681565b60405161014f91906119c9565b3480156101a657600080fd5b506101406101b53660046116c6565b61045f565b3480156101c657600080fd5b506101da6101d5366004611490565b6104ab565b005b3480156101e857600080fd5b506101606101f7366004611636565b610532565b34801561020857600080fd5b506101da610217366004611615565b61057f565b34801561022857600080fd5b506101da610237366004611490565b6105fd565b34801561024857600080fd5b506101606102573660046114b1565b61067b565b34801561026857600080fd5b506101da610739565b34801561027d57600080fd5b506101da61028c366004611708565b61074d565b34801561029d57600080fd5b506003546102b1906001600160a01b031681565b60405161014f9190611a98565b3480156102ca57600080fd5b5061018d610795565b3480156102df57600080fd5b506101da6102ee366004611490565b6107a4565b3480156102ff57600080fd5b5060055461018d906001600160a01b031681565b34801561031f57600080fd5b5060065461018d906001600160a01b031681565b34801561033f57600080fd5b5060005461018d906001600160a01b031681565b34801561035f57600080fd5b5060075461018d906001600160a01b031681565b34801561037f57600080fd5b506101da61038e366004611490565b610822565b34801561039f57600080fd5b506101da6103ae366004611490565b6108a0565b6101606103c1366004611501565b61091e565b6101606103d4366004611501565b61094d565b3480156103e557600080fd5b506101606103f43660046116c6565b60046020526000908152604090205481565b34801561041257600080fd5b506101da610421366004611490565b61096c565b60008060006104416101b58561043b88610532565b906109a6565b919790965090945092505050565b600061045a336109bb565b905090565b60015460055482916000918291610483916001600160a01b0391821691168561067b565b6006546005549193506104a3916001600160a01b0391821691168661067b565b929491935050565b6104b3610a8b565b6001600160a01b0381166104e25760405162461bcd60e51b81526004016104d990611ad7565b60405180910390fd5b6005546001600160a01b03828116911614156105105760405162461bcd60e51b81526004016104d990611ac7565b600580546001600160a01b0319166001600160a01b0392909216919091179055565b80516000818152600460205260408120549091908061057857506000805260046020527f17ef568e3e12ab5b9c7254a8d58478811de00f9e6eb34345acd53bf8fd09d3ec545b9392505050565b610587610a8b565b6001600160a01b0381166105ad5760405162461bcd60e51b81526004016104d990611ad7565b6003546001600160a01b03828116911614156105db5760405162461bcd60e51b81526004016104d990611ac7565b600380546001600160a01b0319166001600160a01b0392909216919091179055565b610605610a8b565b6001600160a01b03811661062b5760405162461bcd60e51b81526004016104d990611ad7565b6000546001600160a01b03828116911614156106595760405162461bcd60e51b81526004016104d990611ac7565b600080546001600160a01b0319166001600160a01b0392909216919091179055565b600060608061068a8686610aba565b6000546040516307c0329d60e21b81529192506001600160a01b031690631f00ca74906106bd9087908590600401611b55565b60006040518083038186803b1580156106d557600080fd5b505afa1580156106e9573d6000803e3d6000fd5b505050506040513d6000823e601f3d908101601f191682016040526107119190810190611599565b91508160008151811061072657610726611ced565b6020026020010151925050509392505050565b610741610a8b565b61074b6000610c4b565b565b610755610a8b565b6000828152600460205260409020548114156107835760405162461bcd60e51b81526004016104d990611ac7565b60009182526004602052604090912055565b6002546001600160a01b031690565b6107ac610a8b565b6001600160a01b0381166107d25760405162461bcd60e51b81526004016104d990611ad7565b6006546001600160a01b03828116911614156108005760405162461bcd60e51b81526004016104d990611ac7565b600680546001600160a01b0319166001600160a01b0392909216919091179055565b61082a610a8b565b6001600160a01b0381166108505760405162461bcd60e51b81526004016104d990611ad7565b6001546001600160a01b038281169116141561087e5760405162461bcd60e51b81526004016104d990611ac7565b600180546001600160a01b0319166001600160a01b0392909216919091179055565b6108a8610a8b565b6001600160a01b0381166108ce5760405162461bcd60e51b81526004016104d990611ad7565b6007546001600160a01b03828116911614156108fc5760405162461bcd60e51b81526004016104d990611ac7565b600780546001600160a01b0319166001600160a01b0392909216919091179055565b6000610936856109318561043b88610532565b610c9d565b61094233858585610e98565b90505b949350505050565b6000610960856109318561043b88610532565b61094233858585611097565b610974610a8b565b6001600160a01b03811661099a5760405162461bcd60e51b81526004016104d990611ab7565b6109a381610c4b565b50565b60006109b28284611c15565b90505b92915050565b6003546040516335313c2160e11b815260009182916001600160a01b0390911690636a627842906109f09086906004016119c9565b602060405180830381600087803b158015610a0a57600080fd5b505af1158015610a1e573d6000803e3d6000fd5b505050506040513d601f19601f82011682018060405250810190610a4291906116e7565b9050826001600160a01b03167fe6fdadff80ae44015b9aa37d4edb70f70a8db7535a0df98de6dc5ffd11ec0c2f82604051610a7d9190611b47565b60405180910390a292915050565b33610a94610795565b6001600160a01b03161461074b5760405162461bcd60e51b81526004016104d990611b17565b6001546060906001600160a01b0384811691161480610ae657506001546001600160a01b038381169116145b15610bb057604080516002808252606082018352600092602083019080368337019050506001549091506001600160a01b03858116911614610b285783610b35565b6001546001600160a01b03165b81600081518110610b4857610b48611ced565b6001600160a01b039283166020918202929092010152600154848216911614610b715782610b7e565b6001546001600160a01b03165b81600181518110610b9157610b91611ced565b6001600160a01b039092166020928302919091019091015290506109b5565b60408051600380825260808201909252600091602082016060803683370190505090508381600081518110610be757610be7611ced565b6001600160a01b0392831660209182029290920101526001805483519216918391908110610c1757610c17611ced565b60200260200101906001600160a01b031690816001600160a01b0316815250508281600281518110610b9157610b91611ced565b600280546001600160a01b038381166001600160a01b0319831681179093556040519116919082907f8be0079c531659141344cd1fd0a4f28419497f9722a3daafe3b4186f6b6457e090600090a35050565b6005546001600160a01b0383811691161415610cd357600754610ccf906001600160a01b038481169133911684611188565b5050565b6001600160a01b038216610e2b57600154600554600091610d01916001600160a01b0391821691168461067b565b905080341015610d235760405162461bcd60e51b81526004016104d990611ae7565b6007546040516000916001600160a01b0316908390610d41906119c1565b60006040518083038185875af1925050503d8060008114610d7e576040519150601f19603f3d011682016040523d82523d6000602084013e610d83565b606091505b5050905080610da45760405162461bcd60e51b81526004016104d990611af7565b81341115610e25576000610db834846111e0565b9050336001600160a01b031681604051610dd1906119c1565b60006040518083038185875af1925050503d8060008114610e0e576040519150601f19603f3d011682016040523d82523d6000602084013e610e13565b606091505b50508092505081610e2357600080fd5b505b50505050565b6006546001600160a01b0383811691161415610e8057600554600090610e5c9084906001600160a01b03168461067b565b600754909150610e7b906001600160a01b038581169133911684611188565b505050565b60405162461bcd60e51b81526004016104d990611b07565b600080600360009054906101000a90046001600160a01b03166001600160a01b031663b507d4816040518163ffffffff1660e01b815260040160206040518083038186803b158015610ee957600080fd5b505afa158015610efd573d6000803e3d6000fd5b505050506040513d601f19601f82011682018060405250810190610f2191906115f4565b60035460405163294cdf0d60e01b81529192506000916001600160a01b039091169063294cdf0d90610f57908a906004016119c9565b60206040518083038186803b158015610f6f57600080fd5b505afa158015610f83573d6000803e3d6000fd5b505050506040513d601f19601f82011682018060405250810190610fa791906116e7565b90506000826001600160a01b0316630c151fec8989858a8a6040518663ffffffff1660e01b8152600401610fdf959493929190611a4a565b602060405180830381600087803b158015610ff957600080fd5b505af115801561100d573d6000803e3d6000fd5b505050506040513d601f19601f8201168201806040525081019061103191906116e7565b90508660405161104191906119b5565b6040518091039020886001600160a01b03167f32044e50415e96c0068a718b8df9993f4803b2e54518d56c52ef6438a91619aa8389604051611084929190611b75565b60405180910390a3979650505050505050565b6003546040516328a0a29f60e11b815260009182916001600160a01b0390911690635141453e906110d29089908990899089906004016119ff565b602060405180830381600087803b1580156110ec57600080fd5b505af1158015611100573d6000803e3d6000fd5b505050506040513d601f19601f8201168201806040525081019061112491906116e7565b90508460405161113491906119b5565b6040518091039020866001600160a01b03167f60579b770d8bde9b5f57c468ffb4acb023252b190304137b45b86b72f66a19408387604051611177929190611b75565b60405180910390a395945050505050565b610e25846323b872dd60e01b8585856040516024016111a9939291906119d7565b60408051601f198184030181529190526020810180516001600160e01b03166001600160e01b0319909316929092179091526111ec565b60006109b28284611c34565b6000611241826040518060400160405280602081526020017f5361666545524332303a206c6f772d6c6576656c2063616c6c206661696c6564815250856001600160a01b031661127b9092919063ffffffff16565b805190915015610e7b578080602001905181019061125f91906115d3565b610e7b5760405162461bcd60e51b81526004016104d990611b37565b60606109458484600085856001600160a01b0385163b6112ad5760405162461bcd60e51b81526004016104d990611b27565b600080866001600160a01b031685876040516112c991906119b5565b60006040518083038185875af1925050503d8060008114611306576040519150601f19603f3d011682016040523d82523d6000602084013e61130b565b606091505b509150915061131b828286611326565b979650505050505050565b60608315611335575081610578565b8251156113455782518084602001fd5b8160405162461bcd60e51b81526004016104d99190611aa6565b600061137261136d84611bc7565b611bab565b9050808382526020820190508285602086028201111561139457611394600080fd5b60005b858110156113c057816113aa8882611485565b8452506020928301929190910190600101611397565b5050509392505050565b60006113d861136d84611bea565b9050828152602081018484840111156113f3576113f3600080fd5b6113fe848285611c72565b509392505050565b80356109b581611d23565b600082601f83011261142557611425600080fd5b815161094584826020860161135f565b80516109b581611d37565b80516109b581611d3f565b80356109b581611d3f565b600082601f83011261146a5761146a600080fd5b81356109458482602086016113ca565b80356109b581611d48565b80516109b581611d48565b6000602082840312156114a5576114a5600080fd5b60006109458484611406565b6000806000606084860312156114c9576114c9600080fd5b60006114d58686611406565b93505060206114e686828701611406565b92505060406114f78682870161147a565b9150509250925092565b6000806000806080858703121561151a5761151a600080fd5b60006115268787611406565b94505060208501356001600160401b0381111561154557611545600080fd5b61155187828801611456565b93505060406115628782880161147a565b92505060608501356001600160401b0381111561158157611581600080fd5b61158d87828801611456565b91505092959194509250565b6000602082840312156115ae576115ae600080fd5b81516001600160401b038111156115c7576115c7600080fd5b61094584828501611411565b6000602082840312156115e8576115e8600080fd5b60006109458484611435565b60006020828403121561160957611609600080fd5b60006109458484611440565b60006020828403121561162a5761162a600080fd5b6000610945848461144b565b60006020828403121561164b5761164b600080fd5b81356001600160401b0381111561166457611664600080fd5b61094584828501611456565b6000806040838503121561168657611686600080fd5b82356001600160401b0381111561169f5761169f600080fd5b6116ab85828601611456565b92505060206116bc8582860161147a565b9150509250929050565b6000602082840312156116db576116db600080fd5b6000610945848461147a565b6000602082840312156116fc576116fc600080fd5b60006109458484611485565b6000806040838503121561171e5761171e600080fd5b60006116ab858561147a565b6000611736838361173e565b505060200190565b61174781611c4b565b82525050565b6000611757825190565b80845260209384019383018060005b8381101561178b57815161177a888261172a565b975060208301925050600101611766565b509495945050505050565b60006117a0825190565b6117ae818560208601611c7e565b9290920192915050565b61174781611c67565b60006117cb825190565b8084526020840193506117e2818560208601611c7e565b6117eb81611d19565b9093019392505050565b602681526000602082017f4f776e61626c653a206e6577206f776e657220697320746865207a65726f206181526564647265737360d01b602082015291505b5060400190565b600a81526000602082016953414d455f56414c554560b01b815291505b5060200190565b600c81526000602082016b5a45524f5f4144445245535360a01b81529150611858565b60168152600060208201751253959053125117d410565351539517d05353d5539560521b81529150611858565b600f81526000602082016e1514905394d1915497d19052531151608a1b81529150611858565b60168152600060208201751253959053125117d410565351539517d351551213d160521b81529150611858565b60208082527f4f776e61626c653a2063616c6c6572206973206e6f7420746865206f776e657291019081526000611858565b601d81526000602082017f416464726573733a2063616c6c20746f206e6f6e2d636f6e747261637400000081529150611858565b602a81526000602082017f5361666545524332303a204552433230206f7065726174696f6e20646964206e8152691bdd081cdd58d8d9595960b21b60208201529150611834565b80611747565b60006105788284611796565b6000816109b5565b602081016109b5828461173e565b606081016119e5828661173e565b6119f2602083018561173e565b61094560408301846119af565b60808101611a0d828761173e565b8181036020830152611a1f81866117c1565b9050611a2e60408301856119af565b8181036060830152611a4081846117c1565b9695505050505050565b60a08101611a58828861173e565b8181036020830152611a6a81876117c1565b9050611a7960408301866119af565b611a8660608301856119af565b818103608083015261131b81846117c1565b602081016109b582846117b8565b602080825281016109b281846117c1565b602080825281016109b5816117f5565b602080825281016109b58161183b565b602080825281016109b58161185f565b602080825281016109b581611882565b602080825281016109b5816118af565b602080825281016109b5816118d5565b602080825281016109b581611902565b602080825281016109b581611934565b602080825281016109b581611968565b602081016109b582846119af565b60408101611b6382856119af565b8181036020830152610945818461174d565b60408101611b8382856119af565b61057860208301846119af565b60608101611b9e82866119af565b6119f260208301856119af565b6000611bb660405190565b9050611bc28282611caa565b919050565b60006001600160401b03821115611be057611be0611d03565b5060209081020190565b60006001600160401b03821115611c0357611c03611d03565b611c0c82611d19565b60200192915050565b6000816000190483118215151615611c2f57611c2f611cd7565b500290565b600082821015611c4657611c46611cd7565b500390565b60006001600160a01b0382166109b5565b60006109b582611c4b565b60006109b582611c5c565b82818337506000910152565b60005b83811015611c99578181015183820152602001611c81565b83811115610e255750506000910152565b611cb382611d19565b81018181106001600160401b0382111715611cd057611cd0611d03565b6040525050565b634e487b7160e01b600052601160045260246000fd5b634e487b7160e01b600052603260045260246000fd5b634e487b7160e01b600052604160045260246000fd5b601f01601f191690565b611d2c81611c4b565b81146109a357600080fd5b801515611d2c565b611d2c81611c5c565b80611d2c56fea2646970667358221220507dff0252ab697ab40231bf485e48916b355ece80027d8f217f01b8eaf2eba464736f6c63430008070033",
  "devdoc": {
    "author": "Masa Finance",
    "details": "From this smart contract we can mint new Soulbound Identities and Soul Name NFTs. This minting can be done paying a fee in ETH, USDC or $MASA",
    "kind": "dev",
    "methods": {
      "_getSwapAmounts(uint256)": {
        "details": "Returns all current pricing and amount informations for a purchase",
        "returns": {
          "priceInETH": "Current pric in native token (ETH)",
          "priceInStableCoin": "Current price in stable coin",
          "priceInUtilityToken": "Current price in utility token ($MASA)"
        }
      },
      "constructor": {
        "details": "Creates a new Soul Store, that has the role to minting new Soulbound Identities and Soul Name NFTs, paying a fee",
        "params": {
          "_nameRegistrationPricePerYear": "Price of the default name registering in stable coin per year",
          "_reserveWallet": "Wallet that will receive the fee",
          "_soulBoundIdentity": "Address of the Soulbound identity contract",
          "_stableCoin": "Stable coin to pay the fee in (USDC)",
          "_swapRouter": "Swap router address",
          "_utilityToken": "Utility token to pay the fee in ($MASA)",
          "_wrappedNativeToken": "Wrapped native token address",
          "owner": "Owner of the smart contract"
        }
      },
      "getNameRegistrationPricePerYear(string)": {
        "details": "Returns the price for registering per year in USD for an specific name length",
        "params": {
          "nameLength": "Length of the name"
        },
        "returns": {
          "_0": "Price in stable coin for that name length"
        }
      },
      "owner()": {
        "details": "Returns the address of the current owner."
      },
      "purchaseIdentity()": {
        "details": "This function allows the purchase of a soulbound identity for free",
        "returns": {
          "_0": "TokenId of the new soulbound identity"
        }
      },
      "purchaseIdentityAndName(address,string,uint256,string)": {
        "details": "This function allows the purchase of a soulbound identity and name using stable coin (USDC), native token (ETH) or utility token ($MASA)",
        "params": {
          "_tokenURI": "URI of the NFT",
          "name": "Name of the new soul name",
          "paymentMethod": "Address of token that user want to pay",
          "yearsPeriod": "Years of validity of the name"
        },
        "returns": {
          "_0": "TokenId of the new soulbound identity"
        }
      },
      "purchaseName(address,string,uint256,string)": {
        "details": "This function allows the purchase of a soul name using stable coin (USDC), native token (ETH) or utility token ($MASA)",
        "params": {
          "_tokenURI": "URI of the NFT",
          "name": "Name of the new soul name",
          "paymentMethod": "Address of token that user want to pay",
          "yearsPeriod": "Years of validity of the name"
        },
        "returns": {
          "_0": "TokenId of the new sou name"
        }
      },
      "purchaseNameInfo(string,uint256)": {
        "details": "Returns all current pricing and amount informations for a purchase",
        "params": {
          "name": "Name of the new soul name",
          "yearsPeriod": "Years of validity of the name"
        },
        "returns": {
          "priceInETH": "Current price of the name minting in native token (ETH)",
          "priceInStableCoin": "Current price of the name minting in stable coin",
          "priceInUtilityToken": "Current price of the name minting in utility token ($MASA)"
        }
      },
      "renounceOwnership()": {
        "details": "Leaves the contract without owner. It will not be possible to call `onlyOwner` functions anymore. Can only be called by the current owner. NOTE: Renouncing ownership will leave the contract without an owner, thereby removing any functionality that is only available to the owner."
      },
      "setNameRegistrationPricePerYear(uint256,uint256)": {
        "details": "The caller must have the owner to call this function",
        "params": {
          "_nameLength": "Length of the name",
          "_nameRegistrationPricePerYear": "New price of the name registering per one year in stable coin for that name length per year"
        }
      },
      "setReserveWallet(address)": {
        "details": "Let change the reserve walled. It can be triggered by an authorized account.",
        "params": {
          "_reserveWallet": "New reserve wallet"
        }
      },
      "setSoulboundIdentity(address)": {
        "details": "The caller must have the owner to call this function",
        "params": {
          "_soulboundIdentity": "New SoulboundIdentity contract address"
        }
      },
      "setStableCoin(address)": {
        "details": "The caller must have the owner to call this function",
        "params": {
          "_stableCoin": "New stable coin to pay the fee in"
        }
      },
      "setSwapRouter(address)": {
        "details": "The caller must have the owner to call this function",
        "params": {
          "_swapRouter": "New swap router address"
        }
      },
      "setUtilityToken(address)": {
        "details": "The caller must have the owner to call this function",
        "params": {
          "_utilityToken": "New utility token to pay the fee in"
        }
      },
      "setWrappedNativeToken(address)": {
        "details": "The caller must have the owner to call this function",
        "params": {
          "_wrappedNativeToken": "New wrapped native token address"
        }
      },
      "transferOwnership(address)": {
        "details": "Transfers ownership of the contract to a new account (`newOwner`). Can only be called by the current owner."
      }
    },
    "title": "Soul Store",
    "version": 1
  },
  "userdoc": {
    "kind": "user",
    "methods": {
      "_getSwapAmounts(uint256)": {
        "notice": "Returns the price of minting"
      },
      "constructor": {
        "notice": "Creates a new Soul Store"
      },
      "getNameRegistrationPricePerYear(string)": {
        "notice": "Returns the price of register a name per year in stable coin for an specific length"
      },
      "purchaseIdentity()": {
        "notice": "Mints a new Soulbound Identity purchasing it"
      },
      "purchaseIdentityAndName(address,string,uint256,string)": {
        "notice": "Mints a new Soulbound Identity and Name purchasing it"
      },
      "purchaseName(address,string,uint256,string)": {
        "notice": "Mints a new Soul Name purchasing it"
      },
      "purchaseNameInfo(string,uint256)": {
        "notice": "Returns the price of the name minting"
      },
      "setNameRegistrationPricePerYear(uint256,uint256)": {
        "notice": "Sets the price of the name registering per one year in stable coin"
      },
      "setReserveWallet(address)": {
        "notice": "Set the reserve wallet"
      },
      "setSoulboundIdentity(address)": {
        "notice": "Sets the SoulboundIdentity contract address linked to this store"
      },
      "setStableCoin(address)": {
        "notice": "Sets the stable coin to pay the fee in (USDC)"
      },
      "setSwapRouter(address)": {
        "notice": "Sets the swap router address"
      },
      "setUtilityToken(address)": {
        "notice": "Sets the utility token to pay the fee in ($MASA)"
      },
      "setWrappedNativeToken(address)": {
        "notice": "Sets the wrapped native token address"
      }
    },
    "notice": "Soul Store, that can mint new Soulbound Identities and Soul Name NFTs, paying a fee",
    "version": 1
  },
  "storageLayout": {
    "storage": [
      {
        "astId": 7129,
        "contract": "contracts/SoulStore.sol:SoulStore",
        "label": "swapRouter",
        "offset": 0,
        "slot": "0",
        "type": "t_address"
      },
      {
        "astId": 7131,
        "contract": "contracts/SoulStore.sol:SoulStore",
        "label": "wrappedNativeToken",
        "offset": 0,
        "slot": "1",
        "type": "t_address"
      },
      {
        "astId": 400,
        "contract": "contracts/SoulStore.sol:SoulStore",
        "label": "_owner",
        "offset": 0,
        "slot": "2",
        "type": "t_address"
      },
      {
        "astId": 6011,
        "contract": "contracts/SoulStore.sol:SoulStore",
        "label": "soulboundIdentity",
        "offset": 0,
        "slot": "3",
        "type": "t_contract(ISoulboundIdentity)7409"
      },
      {
        "astId": 6015,
        "contract": "contracts/SoulStore.sol:SoulStore",
        "label": "nameRegistrationPricePerYear",
        "offset": 0,
        "slot": "4",
        "type": "t_mapping(t_uint256,t_uint256)"
      },
      {
        "astId": 6017,
        "contract": "contracts/SoulStore.sol:SoulStore",
        "label": "stableCoin",
        "offset": 0,
        "slot": "5",
        "type": "t_address"
      },
      {
        "astId": 6019,
        "contract": "contracts/SoulStore.sol:SoulStore",
        "label": "utilityToken",
        "offset": 0,
        "slot": "6",
        "type": "t_address"
      },
      {
        "astId": 6021,
        "contract": "contracts/SoulStore.sol:SoulStore",
        "label": "reserveWallet",
        "offset": 0,
        "slot": "7",
        "type": "t_address"
      }
    ],
    "types": {
      "t_address": {
        "encoding": "inplace",
        "label": "address",
        "numberOfBytes": "20"
      },
      "t_contract(ISoulboundIdentity)7409": {
        "encoding": "inplace",
        "label": "contract ISoulboundIdentity",
        "numberOfBytes": "20"
      },
      "t_mapping(t_uint256,t_uint256)": {
        "encoding": "mapping",
        "key": "t_uint256",
        "label": "mapping(uint256 => uint256)",
        "numberOfBytes": "32",
        "value": "t_uint256"
      },
      "t_uint256": {
        "encoding": "inplace",
        "label": "uint256",
        "numberOfBytes": "32"
      }
    }
  }
}