{
  "address": "0xEd3f3cB6a47bC9Ddcb3F87DA1261E9A4B6F523D7",
  "abi": [
    {
      "inputs": [
        {
          "internalType": "address",
          "name": "admin",
          "type": "address"
        },
        {
          "internalType": "string",
          "name": "name",
          "type": "string"
        },
        {
          "internalType": "string",
          "name": "symbol",
          "type": "string"
        },
        {
          "internalType": "string",
          "name": "baseTokenURI",
          "type": "string"
        },
        {
          "internalType": "address",
          "name": "soulboundIdentity",
          "type": "address"
        },
        {
          "components": [
            {
              "internalType": "address",
              "name": "swapRouter",
              "type": "address"
            },
            {
              "internalType": "address",
              "name": "wrappedNativeToken",
              "type": "address"
            },
            {
              "internalType": "address",
              "name": "stableCoin",
              "type": "address"
            },
            {
              "internalType": "address",
              "name": "masaToken",
              "type": "address"
            },
            {
              "internalType": "address",
              "name": "projectFeeReceiver",
              "type": "address"
            },
            {
              "internalType": "address",
              "name": "protocolFeeReceiver",
              "type": "address"
            },
            {
              "internalType": "uint256",
              "name": "protocolFeeAmount",
              "type": "uint256"
            },
            {
              "internalType": "uint256",
              "name": "protocolFeePercent",
              "type": "uint256"
            },
            {
              "internalType": "uint256",
              "name": "protocolFeePercentSub",
              "type": "uint256"
            }
          ],
          "internalType": "struct PaymentGateway.PaymentParams",
          "name": "paymentParams",
          "type": "tuple"
        }
      ],
      "stateMutability": "nonpayable",
      "type": "constructor"
    },
    {
      "inputs": [],
      "name": "AlreadyAdded",
      "type": "error"
    },
    {
      "inputs": [
        {
          "internalType": "address",
          "name": "authority",
          "type": "address"
        }
      ],
      "name": "AuthorityNotExists",
      "type": "error"
    },
    {
      "inputs": [
        {
          "internalType": "address",
          "name": "caller",
          "type": "address"
        }
      ],
      "name": "CallerNotOwner",
      "type": "error"
    },
    {
      "inputs": [
        {
          "internalType": "address",
          "name": "to",
          "type": "address"
        }
      ],
      "name": "CreditScoreAlreadyCreated",
      "type": "error"
    },
    {
      "inputs": [
        {
          "internalType": "uint256",
          "name": "amount",
          "type": "uint256"
        }
      ],
      "name": "InsufficientEthAmount",
      "type": "error"
    },
    {
      "inputs": [
        {
          "internalType": "address",
          "name": "paymentMethod",
          "type": "address"
        }
      ],
      "name": "InvalidPaymentMethod",
      "type": "error"
    },
    {
      "inputs": [],
      "name": "InvalidSignature",
      "type": "error"
    },
    {
      "inputs": [
        {
          "internalType": "address",
          "name": "token",
          "type": "address"
        }
      ],
      "name": "InvalidToken",
      "type": "error"
    },
    {
      "inputs": [
        {
          "internalType": "address",
          "name": "erc20token",
          "type": "address"
        }
      ],
      "name": "NonExistingErc20Token",
      "type": "error"
    },
    {
      "inputs": [
        {
          "internalType": "address",
          "name": "signer",
          "type": "address"
        }
      ],
      "name": "NotAuthorized",
      "type": "error"
    },
    {
      "inputs": [],
      "name": "NotLinkedToAnIdentitySBT",
      "type": "error"
    },
    {
      "inputs": [],
      "name": "PaymentParamsNotSet",
      "type": "error"
    },
    {
      "inputs": [],
      "name": "ProtocolFeeReceiverNotSet",
      "type": "error"
    },
    {
      "inputs": [],
      "name": "RefundFailed",
      "type": "error"
    },
    {
      "inputs": [],
      "name": "SameValue",
      "type": "error"
    },
    {
      "inputs": [],
      "name": "TransferFailed",
      "type": "error"
    },
    {
      "inputs": [],
      "name": "UserMustHaveProtocolOrProjectAdminRole",
      "type": "error"
    },
    {
      "inputs": [],
      "name": "ZeroAddress",
      "type": "error"
    },
    {
      "anonymous": false,
      "inputs": [
        {
          "indexed": true,
          "internalType": "address",
          "name": "_owner",
          "type": "address"
        },
        {
          "indexed": true,
          "internalType": "uint256",
          "name": "_tokenId",
          "type": "uint256"
        }
      ],
      "name": "Burn",
      "type": "event"
    },
    {
      "anonymous": false,
      "inputs": [
        {
          "indexed": true,
          "internalType": "address",
          "name": "_owner",
          "type": "address"
        },
        {
          "indexed": true,
          "internalType": "uint256",
          "name": "_tokenId",
          "type": "uint256"
        }
      ],
      "name": "Mint",
      "type": "event"
    },
    {
      "anonymous": false,
      "inputs": [
        {
          "indexed": true,
          "internalType": "bytes32",
          "name": "role",
          "type": "bytes32"
        },
        {
          "indexed": true,
          "internalType": "bytes32",
          "name": "previousAdminRole",
          "type": "bytes32"
        },
        {
          "indexed": true,
          "internalType": "bytes32",
          "name": "newAdminRole",
          "type": "bytes32"
        }
      ],
      "name": "RoleAdminChanged",
      "type": "event"
    },
    {
      "anonymous": false,
      "inputs": [
        {
          "indexed": true,
          "internalType": "bytes32",
          "name": "role",
          "type": "bytes32"
        },
        {
          "indexed": true,
          "internalType": "address",
          "name": "account",
          "type": "address"
        },
        {
          "indexed": true,
          "internalType": "address",
          "name": "sender",
          "type": "address"
        }
      ],
      "name": "RoleGranted",
      "type": "event"
    },
    {
      "anonymous": false,
      "inputs": [
        {
          "indexed": true,
          "internalType": "bytes32",
          "name": "role",
          "type": "bytes32"
        },
        {
          "indexed": true,
          "internalType": "address",
          "name": "account",
          "type": "address"
        },
        {
          "indexed": true,
          "internalType": "address",
          "name": "sender",
          "type": "address"
        }
      ],
      "name": "RoleRevoked",
      "type": "event"
    },
    {
      "anonymous": false,
      "inputs": [
        {
          "indexed": false,
          "internalType": "uint256",
          "name": "tokenId",
          "type": "uint256"
        },
        {
          "indexed": false,
          "internalType": "address",
          "name": "to",
          "type": "address"
        },
        {
          "indexed": false,
          "internalType": "address",
          "name": "authorityAddress",
          "type": "address"
        },
        {
          "indexed": false,
          "internalType": "uint256",
          "name": "signatureDate",
          "type": "uint256"
        },
        {
          "indexed": false,
          "internalType": "address",
          "name": "paymentMethod",
          "type": "address"
        },
        {
          "indexed": false,
          "internalType": "uint256",
          "name": "mintPrice",
          "type": "uint256"
        }
      ],
      "name": "SoulboundCreditScoreMintedToAddress",
      "type": "event"
    },
    {
      "anonymous": false,
      "inputs": [
        {
          "indexed": false,
          "internalType": "uint256",
          "name": "tokenId",
          "type": "uint256"
        },
        {
          "indexed": false,
          "internalType": "uint256",
          "name": "identityId",
          "type": "uint256"
        },
        {
          "indexed": false,
          "internalType": "address",
          "name": "authorityAddress",
          "type": "address"
        },
        {
          "indexed": false,
          "internalType": "uint256",
          "name": "signatureDate",
          "type": "uint256"
        },
        {
          "indexed": false,
          "internalType": "address",
          "name": "paymentMethod",
          "type": "address"
        },
        {
          "indexed": false,
          "internalType": "uint256",
          "name": "mintPrice",
          "type": "uint256"
        }
      ],
      "name": "SoulboundCreditScoreMintedToIdentity",
      "type": "event"
    },
    {
      "inputs": [],
      "name": "DEFAULT_ADMIN_ROLE",
      "outputs": [
        {
          "internalType": "bytes32",
          "name": "",
          "type": "bytes32"
        }
      ],
      "stateMutability": "view",
      "type": "function"
    },
    {
      "inputs": [],
      "name": "PROJECT_ADMIN_ROLE",
      "outputs": [
        {
          "internalType": "bytes32",
          "name": "",
          "type": "bytes32"
        }
      ],
      "stateMutability": "view",
      "type": "function"
    },
    {
      "inputs": [
        {
          "internalType": "address",
          "name": "_authority",
          "type": "address"
        }
      ],
      "name": "addAuthority",
      "outputs": [],
      "stateMutability": "nonpayable",
      "type": "function"
    },
    {
      "inputs": [],
      "name": "addLinkPrice",
      "outputs": [
        {
          "internalType": "uint256",
          "name": "",
          "type": "uint256"
        }
      ],
      "stateMutability": "view",
      "type": "function"
    },
    {
      "inputs": [],
      "name": "addLinkPriceMASA",
      "outputs": [
        {
          "internalType": "uint256",
          "name": "",
          "type": "uint256"
        }
      ],
      "stateMutability": "view",
      "type": "function"
    },
    {
      "inputs": [
        {
          "internalType": "address",
          "name": "",
          "type": "address"
        }
      ],
      "name": "authorities",
      "outputs": [
        {
          "internalType": "bool",
          "name": "",
          "type": "bool"
        }
      ],
      "stateMutability": "view",
      "type": "function"
    },
    {
      "inputs": [
        {
          "internalType": "address",
          "name": "owner",
          "type": "address"
        }
      ],
      "name": "balanceOf",
      "outputs": [
        {
          "internalType": "uint256",
          "name": "",
          "type": "uint256"
        }
      ],
      "stateMutability": "view",
      "type": "function"
    },
    {
      "inputs": [
        {
          "internalType": "uint256",
          "name": "tokenId",
          "type": "uint256"
        }
      ],
      "name": "burn",
      "outputs": [],
      "stateMutability": "nonpayable",
      "type": "function"
    },
    {
      "inputs": [
        {
          "internalType": "address",
          "name": "_paymentMethod",
          "type": "address"
        }
      ],
      "name": "disablePaymentMethod",
      "outputs": [],
      "stateMutability": "nonpayable",
      "type": "function"
    },
    {
      "inputs": [
        {
          "internalType": "address",
          "name": "_paymentMethod",
          "type": "address"
        }
      ],
      "name": "enablePaymentMethod",
      "outputs": [],
      "stateMutability": "nonpayable",
      "type": "function"
    },
    {
      "inputs": [
        {
          "internalType": "address",
          "name": "",
          "type": "address"
        }
      ],
      "name": "enabledPaymentMethod",
      "outputs": [
        {
          "internalType": "bool",
          "name": "",
          "type": "bool"
        }
      ],
      "stateMutability": "view",
      "type": "function"
    },
    {
      "inputs": [
        {
          "internalType": "uint256",
          "name": "",
          "type": "uint256"
        }
      ],
      "name": "enabledPaymentMethods",
      "outputs": [
        {
          "internalType": "address",
          "name": "",
          "type": "address"
        }
      ],
      "stateMutability": "view",
      "type": "function"
    },
    {
      "inputs": [
        {
          "internalType": "uint256",
          "name": "tokenId",
          "type": "uint256"
        }
      ],
      "name": "exists",
      "outputs": [
        {
          "internalType": "bool",
          "name": "",
          "type": "bool"
        }
      ],
      "stateMutability": "view",
      "type": "function"
    },
    {
      "inputs": [],
      "name": "getEnabledPaymentMethods",
      "outputs": [
        {
          "internalType": "address[]",
          "name": "",
          "type": "address[]"
        }
      ],
      "stateMutability": "view",
      "type": "function"
    },
    {
      "inputs": [
        {
          "internalType": "uint256",
          "name": "tokenId",
          "type": "uint256"
        }
      ],
      "name": "getIdentityId",
      "outputs": [
        {
          "internalType": "uint256",
          "name": "",
          "type": "uint256"
        }
      ],
      "stateMutability": "view",
      "type": "function"
    },
    {
      "inputs": [
        {
          "internalType": "address",
          "name": "paymentMethod",
          "type": "address"
        }
      ],
      "name": "getMintPrice",
      "outputs": [
        {
          "internalType": "uint256",
          "name": "price",
          "type": "uint256"
        }
      ],
      "stateMutability": "view",
      "type": "function"
    },
    {
      "inputs": [
        {
          "internalType": "address",
          "name": "paymentMethod",
          "type": "address"
        }
      ],
      "name": "getMintPriceWithProtocolFee",
      "outputs": [
        {
          "internalType": "uint256",
          "name": "price",
          "type": "uint256"
        },
        {
          "internalType": "uint256",
          "name": "protocolFee",
          "type": "uint256"
        }
      ],
      "stateMutability": "view",
      "type": "function"
    },
    {
      "inputs": [
        {
          "internalType": "address",
          "name": "paymentMethod",
          "type": "address"
        },
        {
          "internalType": "uint256",
          "name": "amount",
          "type": "uint256"
        }
      ],
      "name": "getProtocolFee",
      "outputs": [
        {
          "internalType": "uint256",
          "name": "",
          "type": "uint256"
        }
      ],
      "stateMutability": "view",
      "type": "function"
    },
    {
      "inputs": [
        {
          "internalType": "uint256",
          "name": "amount",
          "type": "uint256"
        }
      ],
      "name": "getProtocolFeeSub",
      "outputs": [
        {
          "internalType": "uint256",
          "name": "",
          "type": "uint256"
        }
      ],
      "stateMutability": "view",
      "type": "function"
    },
    {
      "inputs": [
        {
          "internalType": "bytes32",
          "name": "role",
          "type": "bytes32"
        }
      ],
      "name": "getRoleAdmin",
      "outputs": [
        {
          "internalType": "bytes32",
          "name": "",
          "type": "bytes32"
        }
      ],
      "stateMutability": "view",
      "type": "function"
    },
    {
      "inputs": [
        {
          "internalType": "bytes32",
          "name": "role",
          "type": "bytes32"
        },
        {
          "internalType": "address",
          "name": "account",
          "type": "address"
        }
      ],
      "name": "grantRole",
      "outputs": [],
      "stateMutability": "nonpayable",
      "type": "function"
    },
    {
      "inputs": [
        {
          "internalType": "bytes32",
          "name": "role",
          "type": "bytes32"
        },
        {
          "internalType": "address",
          "name": "account",
          "type": "address"
        }
      ],
      "name": "hasRole",
      "outputs": [
        {
          "internalType": "bool",
          "name": "",
          "type": "bool"
        }
      ],
      "stateMutability": "view",
      "type": "function"
    },
    {
      "inputs": [],
      "name": "masaToken",
      "outputs": [
        {
          "internalType": "address",
          "name": "",
          "type": "address"
        }
      ],
      "stateMutability": "view",
      "type": "function"
    },
    {
      "inputs": [
        {
          "internalType": "address",
          "name": "paymentMethod",
          "type": "address"
        },
        {
          "internalType": "uint256",
          "name": "identityId",
          "type": "uint256"
        },
        {
          "internalType": "address",
          "name": "authorityAddress",
          "type": "address"
        },
        {
          "internalType": "uint256",
          "name": "signatureDate",
          "type": "uint256"
        },
        {
          "internalType": "bytes",
          "name": "signature",
          "type": "bytes"
        }
      ],
      "name": "mint",
      "outputs": [
        {
          "internalType": "uint256",
          "name": "",
          "type": "uint256"
        }
      ],
      "stateMutability": "payable",
      "type": "function"
    },
    {
      "inputs": [
        {
          "internalType": "address",
          "name": "paymentMethod",
          "type": "address"
        },
        {
          "internalType": "address",
          "name": "to",
          "type": "address"
        },
        {
          "internalType": "address",
          "name": "authorityAddress",
          "type": "address"
        },
        {
          "internalType": "uint256",
          "name": "signatureDate",
          "type": "uint256"
        },
        {
          "internalType": "bytes",
          "name": "signature",
          "type": "bytes"
        }
      ],
      "name": "mint",
      "outputs": [
        {
          "internalType": "uint256",
          "name": "",
          "type": "uint256"
        }
      ],
      "stateMutability": "payable",
      "type": "function"
    },
    {
      "inputs": [],
      "name": "mintPrice",
      "outputs": [
        {
          "internalType": "uint256",
          "name": "",
          "type": "uint256"
        }
      ],
      "stateMutability": "view",
      "type": "function"
    },
    {
      "inputs": [],
      "name": "mintPriceMASA",
      "outputs": [
        {
          "internalType": "uint256",
          "name": "",
          "type": "uint256"
        }
      ],
      "stateMutability": "view",
      "type": "function"
    },
    {
      "inputs": [],
      "name": "name",
      "outputs": [
        {
          "internalType": "string",
          "name": "",
          "type": "string"
        }
      ],
      "stateMutability": "view",
      "type": "function"
    },
    {
      "inputs": [
        {
          "internalType": "uint256",
          "name": "tokenId",
          "type": "uint256"
        }
      ],
      "name": "ownerOf",
      "outputs": [
        {
          "internalType": "address",
          "name": "",
          "type": "address"
        }
      ],
      "stateMutability": "view",
      "type": "function"
    },
    {
      "inputs": [],
      "name": "projectFeeReceiver",
      "outputs": [
        {
          "internalType": "address",
          "name": "",
          "type": "address"
        }
      ],
      "stateMutability": "view",
      "type": "function"
    },
    {
      "inputs": [],
      "name": "protocolFeeAmount",
      "outputs": [
        {
          "internalType": "uint256",
          "name": "",
          "type": "uint256"
        }
      ],
      "stateMutability": "view",
      "type": "function"
    },
    {
      "inputs": [],
      "name": "protocolFeePercent",
      "outputs": [
        {
          "internalType": "uint256",
          "name": "",
          "type": "uint256"
        }
      ],
      "stateMutability": "view",
      "type": "function"
    },
    {
      "inputs": [],
      "name": "protocolFeePercentSub",
      "outputs": [
        {
          "internalType": "uint256",
          "name": "",
          "type": "uint256"
        }
      ],
      "stateMutability": "view",
      "type": "function"
    },
    {
      "inputs": [],
      "name": "protocolFeeReceiver",
      "outputs": [
        {
          "internalType": "address",
          "name": "",
          "type": "address"
        }
      ],
      "stateMutability": "view",
      "type": "function"
    },
    {
      "inputs": [],
      "name": "queryLinkPrice",
      "outputs": [
        {
          "internalType": "uint256",
          "name": "",
          "type": "uint256"
        }
      ],
      "stateMutability": "view",
      "type": "function"
    },
    {
      "inputs": [],
      "name": "queryLinkPriceMASA",
      "outputs": [
        {
          "internalType": "uint256",
          "name": "",
          "type": "uint256"
        }
      ],
      "stateMutability": "view",
      "type": "function"
    },
    {
      "inputs": [
        {
          "internalType": "address",
          "name": "_authority",
          "type": "address"
        }
      ],
      "name": "removeAuthority",
      "outputs": [],
      "stateMutability": "nonpayable",
      "type": "function"
    },
    {
      "inputs": [
        {
          "internalType": "bytes32",
          "name": "role",
          "type": "bytes32"
        },
        {
          "internalType": "address",
          "name": "account",
          "type": "address"
        }
      ],
      "name": "renounceRole",
      "outputs": [],
      "stateMutability": "nonpayable",
      "type": "function"
    },
    {
      "inputs": [
        {
          "internalType": "bytes32",
          "name": "role",
          "type": "bytes32"
        },
        {
          "internalType": "address",
          "name": "account",
          "type": "address"
        }
      ],
      "name": "revokeRole",
      "outputs": [],
      "stateMutability": "nonpayable",
      "type": "function"
    },
    {
      "inputs": [
        {
          "internalType": "uint256",
          "name": "_addLinkPrice",
          "type": "uint256"
        }
      ],
      "name": "setAddLinkPrice",
      "outputs": [],
      "stateMutability": "nonpayable",
      "type": "function"
    },
    {
      "inputs": [
        {
          "internalType": "uint256",
          "name": "_addLinkPriceMASA",
          "type": "uint256"
        }
      ],
      "name": "setAddLinkPriceMASA",
      "outputs": [],
      "stateMutability": "nonpayable",
      "type": "function"
    },
    {
      "inputs": [
        {
          "internalType": "address",
          "name": "_masaToken",
          "type": "address"
        }
      ],
      "name": "setMasaToken",
      "outputs": [],
      "stateMutability": "nonpayable",
      "type": "function"
    },
    {
      "inputs": [
        {
          "internalType": "uint256",
          "name": "_mintPrice",
          "type": "uint256"
        }
      ],
      "name": "setMintPrice",
      "outputs": [],
      "stateMutability": "nonpayable",
      "type": "function"
    },
    {
      "inputs": [
        {
          "internalType": "uint256",
          "name": "_mintPriceMASA",
          "type": "uint256"
        }
      ],
      "name": "setMintPriceMASA",
      "outputs": [],
      "stateMutability": "nonpayable",
      "type": "function"
    },
    {
      "inputs": [
        {
          "internalType": "address",
          "name": "_projectFeeReceiver",
          "type": "address"
        }
      ],
      "name": "setProjectFeeReceiver",
      "outputs": [],
      "stateMutability": "nonpayable",
      "type": "function"
    },
    {
      "inputs": [
        {
          "internalType": "uint256",
          "name": "_protocolFeeAmount",
          "type": "uint256"
        }
      ],
      "name": "setProtocolFeeAmount",
      "outputs": [],
      "stateMutability": "nonpayable",
      "type": "function"
    },
    {
      "inputs": [
        {
          "internalType": "uint256",
          "name": "_protocolFeePercent",
          "type": "uint256"
        }
      ],
      "name": "setProtocolFeePercent",
      "outputs": [],
      "stateMutability": "nonpayable",
      "type": "function"
    },
    {
      "inputs": [
        {
          "internalType": "uint256",
          "name": "_protocolFeePercentSub",
          "type": "uint256"
        }
      ],
      "name": "setProtocolFeePercentSub",
      "outputs": [],
      "stateMutability": "nonpayable",
      "type": "function"
    },
    {
      "inputs": [
        {
          "internalType": "address",
          "name": "_protocolFeeReceiver",
          "type": "address"
        }
      ],
      "name": "setProtocolFeeReceiver",
      "outputs": [],
      "stateMutability": "nonpayable",
      "type": "function"
    },
    {
      "inputs": [
        {
          "internalType": "uint256",
          "name": "_queryLinkPrice",
          "type": "uint256"
        }
      ],
      "name": "setQueryLinkPrice",
      "outputs": [],
      "stateMutability": "nonpayable",
      "type": "function"
    },
    {
      "inputs": [
        {
          "internalType": "uint256",
          "name": "_queryLinkPriceMASA",
          "type": "uint256"
        }
      ],
      "name": "setQueryLinkPriceMASA",
      "outputs": [],
      "stateMutability": "nonpayable",
      "type": "function"
    },
    {
      "inputs": [
        {
          "internalType": "address",
          "name": "_soulboundIdentity",
          "type": "address"
        }
      ],
      "name": "setSoulboundIdentity",
      "outputs": [],
      "stateMutability": "nonpayable",
      "type": "function"
    },
    {
      "inputs": [
        {
          "internalType": "address",
          "name": "_stableCoin",
          "type": "address"
        }
      ],
      "name": "setStableCoin",
      "outputs": [],
      "stateMutability": "nonpayable",
      "type": "function"
    },
    {
      "inputs": [
        {
          "internalType": "address",
          "name": "_swapRouter",
          "type": "address"
        }
      ],
      "name": "setSwapRouter",
      "outputs": [],
      "stateMutability": "nonpayable",
      "type": "function"
    },
    {
      "inputs": [
        {
          "internalType": "address",
          "name": "_wrappedNativeToken",
          "type": "address"
        }
      ],
      "name": "setWrappedNativeToken",
      "outputs": [],
      "stateMutability": "nonpayable",
      "type": "function"
    },
    {
      "inputs": [],
      "name": "soulboundIdentity",
      "outputs": [
        {
          "internalType": "contract ISoulboundIdentity",
          "name": "",
          "type": "address"
        }
      ],
      "stateMutability": "view",
      "type": "function"
    },
    {
      "inputs": [],
      "name": "stableCoin",
      "outputs": [
        {
          "internalType": "address",
          "name": "",
          "type": "address"
        }
      ],
      "stateMutability": "view",
      "type": "function"
    },
    {
      "inputs": [
        {
          "internalType": "bytes4",
          "name": "interfaceId",
          "type": "bytes4"
        }
      ],
      "name": "supportsInterface",
      "outputs": [
        {
          "internalType": "bool",
          "name": "",
          "type": "bool"
        }
      ],
      "stateMutability": "view",
      "type": "function"
    },
    {
      "inputs": [],
      "name": "swapRouter",
      "outputs": [
        {
          "internalType": "address",
          "name": "",
          "type": "address"
        }
      ],
      "stateMutability": "view",
      "type": "function"
    },
    {
      "inputs": [],
      "name": "symbol",
      "outputs": [
        {
          "internalType": "string",
          "name": "",
          "type": "string"
        }
      ],
      "stateMutability": "view",
      "type": "function"
    },
    {
      "inputs": [
        {
          "internalType": "uint256",
          "name": "index",
          "type": "uint256"
        }
      ],
      "name": "tokenByIndex",
      "outputs": [
        {
          "internalType": "uint256",
          "name": "",
          "type": "uint256"
        }
      ],
      "stateMutability": "view",
      "type": "function"
    },
    {
      "inputs": [
        {
          "internalType": "address",
          "name": "owner",
          "type": "address"
        },
        {
          "internalType": "uint256",
          "name": "index",
          "type": "uint256"
        }
      ],
      "name": "tokenOfOwnerByIndex",
      "outputs": [
        {
          "internalType": "uint256",
          "name": "",
          "type": "uint256"
        }
      ],
      "stateMutability": "view",
      "type": "function"
    },
    {
      "inputs": [
        {
          "internalType": "uint256",
          "name": "tokenId",
          "type": "uint256"
        }
      ],
      "name": "tokenURI",
      "outputs": [
        {
          "internalType": "string",
          "name": "",
          "type": "string"
        }
      ],
      "stateMutability": "view",
      "type": "function"
    },
    {
      "inputs": [],
      "name": "totalSupply",
      "outputs": [
        {
          "internalType": "uint256",
          "name": "",
          "type": "uint256"
        }
      ],
      "stateMutability": "view",
      "type": "function"
    },
    {
      "inputs": [],
      "name": "wrappedNativeToken",
      "outputs": [
        {
          "internalType": "address",
          "name": "",
          "type": "address"
        }
      ],
      "stateMutability": "view",
      "type": "function"
    }
  ],
  "transactionHash": "0x42b4a2390554d9a574f77e2a1cf90a248fd12209fb9f01363db00359daf8972a",
  "args": [
    "0xA38dd237a3A8D50537B74a4B0D4E7E8A5359386F",
    "Masa Credit Score",
    "MCS",
    "https://beta.metadata.masa.finance/v1.0/credit-score/goerli/",
    "0x2c4C19752af9182949f237e843e104Dd79F4bfF1",
    [
      "0x7a250d5630B4cF539739dF2C5dAcb4c659F2488D",
      "0xB4FBF271143F4FBf7B91A5ded31805e42b2208d6",
      "0xD87Ba7A50B2E7E660f678A895E4B72E7CB4CCd9C",
      "0x1f9840a85d5aF5bf1D1762F925BDADdC4201F984",
      "0xA38dd237a3A8D50537B74a4B0D4E7E8A5359386F",
      "0x0000000000000000000000000000000000000000",
      "0",
      "0",
      "0"
    ]
  ],
  "numDeployments": 1,
  "solcInputHash": "fee6586672fcbb20f57ca97ce605a920",
  "bytecode": "0x6101406040523480156200001257600080fd5b5060405162004c0b38038062004c0b833981016040819052620000359162000663565b8585858585856040518060400160405280601481526020017f536f756c626f756e6443726564697453636f7265000000000000000000000000815250604051806040016040528060058152602001640312e302e360dc1b81525087878787878784848783620000ae6000801b836200024360201b60201c565b8051600180546001600160a01b03199081166001600160a01b039384161790915560208084015160028054841691851691909117905560408401516003805484169185169190911790556060840151600480548416918516919091179055608084015160078054841691851691909117905560a084015160088054909316931692909217905560c082015160095560e0820151600a5561010090910151600b558351620001629250600c9185019062000333565b5080516200017890600d90602084019062000333565b506200018a9150600090508762000243565b82516200019f90601490602086019062000333565b5050601580546001600160a01b0319166001600160a01b03929092169190911790555050835160208086019190912084519185019190912060e08290526101008190524660a05290925090507f8b73c3c69bb8fe3d512ecc4cf759cc79239f7b179b0ffacaa9a75d522b39400f62000219818484620002cc565b6080523060601b60c0526101205250506001601e5550620008009c50505050505050505050505050565b6200024f828262000308565b620002c8576000828152602081815260408083206001600160a01b03851684529091529020805460ff19166001179055620002873390565b6001600160a01b0316816001600160a01b0316837f2f8788117e7eff1d82e926ec794901d17c78024a50270940304540a733656f0d60405160405180910390a45b5050565b60008383834630604051602001620002e995949392919062000763565b6040516020818303038152906040528051906020012090509392505050565b6000828152602081815260408083206001600160a01b038516845290915290205460ff165b92915050565b8280546200034190620007cf565b90600052602060002090601f016020900481019282620003655760008555620003b0565b82601f106200038057805160ff1916838001178555620003b0565b82800160010185558215620003b0579182015b82811115620003b057825182559160200191906001019062000393565b50620003be929150620003c2565b5090565b5b80821115620003be5760008155600101620003c3565b60006001600160a01b0382166200032d565b620003f681620003d9565b81146200040257600080fd5b50565b80516200032d81620003eb565b601f01601f191690565b634e487b7160e01b600052604160045260246000fd5b6200043d8262000412565b81018181106001600160401b03821117156200045d576200045d6200041c565b6040525050565b60006200047060405190565b90506200047e828262000432565b919050565b60006001600160401b038211156200049f576200049f6200041c565b620004aa8262000412565b60200192915050565b60005b83811015620004d0578181015183820152602001620004b6565b83811115620004e0576000848401525b50505050565b6000620004fd620004f78462000483565b62000464565b9050828152602081018484840111156200051a576200051a600080fd5b62000527848285620004b3565b509392505050565b600082601f830112620005455762000545600080fd5b815162000557848260208601620004e6565b949350505050565b80620003f6565b80516200032d816200055f565b600061012082840312156200058b576200058b600080fd5b6200059861012062000464565b90506000620005a8848462000405565b8252506020620005bb8484830162000405565b6020830152506040620005d18482850162000405565b6040830152506060620005e78482850162000405565b6060830152506080620005fd8482850162000405565b60808301525060a0620006138482850162000405565b60a08301525060c0620006298482850162000566565b60c08301525060e06200063f8482850162000566565b60e083015250610100620006568482850162000566565b6101008301525092915050565b6000806000806000806101c08789031215620006825762000682600080fd5b600062000690898962000405565b96505060208701516001600160401b03811115620006b157620006b1600080fd5b620006bf89828a016200052f565b95505060408701516001600160401b03811115620006e057620006e0600080fd5b620006ee89828a016200052f565b94505060608701516001600160401b038111156200070f576200070f600080fd5b6200071d89828a016200052f565b93505060806200073089828a0162000405565b92505060a06200074389828a0162000573565b9150509295509295509295565b805b82525050565b6200075281620003d9565b60a0810162000773828862000750565b62000782602083018762000750565b62000791604083018662000750565b620007a0606083018562000750565b620007af608083018462000758565b9695505050505050565b634e487b7160e01b600052602260045260246000fd5b600281046001821680620007e457607f821691505b60208210811415620007fa57620007fa620007b9565b50919050565b60805160a05160c05160601c60e05161010051610120516143b8620008536000396000612d6a01526000612dac01526000612d8b01526000612cef01526000612d1901526000612d4301526143b86000f3fe6080604052600436106102dd5760003560e01c8062bdfde5146102e257806301ffc9a7146103045780630513c3e91461033a57806306fdde03146103675780631020051914610389578063126ed01c146103ab57806313150b48146103d8578063135f470c146103ee57806317fcb39b1461040457806318160ddd146104245780631830e881146104395780631f37c1241461044f57806320d558aa14610465578063217a2c7b1461047857806323af4e1714610498578063248a9ca3146104b857806326defa73146104d8578063289c686b146104f85780632f2ff15d146105185780632f745c591461053857806336568abe1461055857806339a51be5146105785780633ad3033e146105985780633c72ae70146105b857806341273657146105d857806341c04d5e146105f857806342966c681461061a57806346877b1a1461063a5780634962a1581461065a5780634f558e791461067a5780634f6ccce71461069a5780636352211e146106ba5780636817c76c146106da5780636bfd499f146106f057806370a0823114610710578063719d0f2b1461073057806376ad199714610750578063776d1a541461077057806377bed5ed146107865780637a0d1646146107b35780637ad09dff146107e35780637db8cb68146107f65780638d018461146108165780638ec9c93b1461083657806391223d691461084c57806391d148541461087c57806394a665e91461089c57806395d89b41146108bc578063992642e5146108d157806399b589cb146108f1578063a217fddf14610911578063a498342114610926578063b97d6b2314610946578063c1177d191461095c578063c31c9c071461097c578063c86aadb61461099c578063c87b56dd146109bc578063d544e010146109dc578063d547741f146109fc578063d6e6eb9f14610a1c578063da058ae314610a32578063eb93e85514610a52578063ebda439614610a80578063f4a0a52814610aa0578063fd48ac8314610ac0575b600080fd5b3480156102ee57600080fd5b506103026102fd3660046135d9565b610ae0565b005b34801561031057600080fd5b5061032461031f366004613615565b610b14565b6040516103319190613640565b60405180910390f35b34801561034657600080fd5b5061035a6103553660046135d9565b610b25565b604051610331919061366e565b34801561037357600080fd5b5061037c610b4f565b60405161033191906136e6565b34801561039557600080fd5b5061039e610be1565b6040516103319190613754565b3480156103b757600080fd5b506103cb6103c63660046135d9565b610c42565b604051610331919061376b565b3480156103e457600080fd5b506103cb601b5481565b3480156103fa57600080fd5b506103cb600b5481565b34801561041057600080fd5b5060025461035a906001600160a01b031681565b34801561043057600080fd5b506012546103cb565b34801561044557600080fd5b506103cb60175481565b34801561045b57600080fd5b506103cb60185481565b6103cb6104733660046137d7565b610c4d565b34801561048457600080fd5b506103cb61049336600461386c565b610db1565b3480156104a457600080fd5b506103026104b33660046138a9565b610dc4565b3480156104c457600080fd5b506103cb6104d33660046135d9565b610e21565b3480156104e457600080fd5b506103026104f33660046138a9565b610e36565b34801561050457600080fd5b506103026105133660046135d9565b610f06565b34801561052457600080fd5b506103026105333660046138ca565b610f79565b34801561054457600080fd5b506103cb61055336600461386c565b610f9a565b34801561056457600080fd5b506103026105733660046138ca565b610fec565b34801561058457600080fd5b5060085461035a906001600160a01b031681565b3480156105a457600080fd5b506103026105b33660046138a9565b611022565b3480156105c457600080fd5b506103026105d33660046135d9565b61107f565b3480156105e457600080fd5b506103026105f33660046138a9565b6110f2565b34801561060457600080fd5b506103cb60008051602061436383398151915281565b34801561062657600080fd5b506103026106353660046135d9565b61114f565b34801561064657600080fd5b506103026106553660046138a9565b611181565b34801561066657600080fd5b506103026106753660046135d9565b6111de565b34801561068657600080fd5b506103246106953660046135d9565b611251565b3480156106a657600080fd5b506103cb6106b53660046135d9565b61125c565b3480156106c657600080fd5b5061035a6106d53660046135d9565b6112aa565b3480156106e657600080fd5b506103cb60165481565b3480156106fc57600080fd5b5061030261070b3660046135d9565b6112df565b34801561071c57600080fd5b506103cb61072b3660046138a9565b611313565b34801561073c57600080fd5b506103cb61074b3660046138a9565b611357565b34801561075c57600080fd5b5061030261076b3660046138a9565b611457565b34801561077c57600080fd5b506103cb60195481565b34801561079257600080fd5b506015546107a6906001600160a01b031681565b6040516103319190613935565b3480156107bf57600080fd5b506103246107ce3660046138a9565b60056020526000908152604090205460ff1681565b6103cb6107f1366004613943565b6114b4565b34801561080257600080fd5b506103026108113660046135d9565b61156b565b34801561082257600080fd5b506103026108313660046138a9565b6115de565b34801561084257600080fd5b506103cb60095481565b34801561085857600080fd5b506103246108673660046138a9565b601d6020526000908152604090205460ff1681565b34801561088857600080fd5b506103246108973660046138ca565b61167a565b3480156108a857600080fd5b506103026108b73660046138a9565b6116a3565b3480156108c857600080fd5b5061037c611810565b3480156108dd57600080fd5b5060035461035a906001600160a01b031681565b3480156108fd57600080fd5b5060075461035a906001600160a01b031681565b34801561091d57600080fd5b506103cb600081565b34801561093257600080fd5b506103026109413660046135d9565b61181f565b34801561095257600080fd5b506103cb601a5481565b34801561096857600080fd5b506103cb6109773660046135d9565b611853565b34801561098857600080fd5b5060015461035a906001600160a01b031681565b3480156109a857600080fd5b506103026109b73660046138a9565b61190b565b3480156109c857600080fd5b5061037c6109d73660046135d9565b6119b7565b3480156109e857600080fd5b506103026109f73660046138a9565b611a1d565b348015610a0857600080fd5b50610302610a173660046138ca565b611aeb565b348015610a2857600080fd5b506103cb600a5481565b348015610a3e57600080fd5b50610302610a4d3660046138a9565b611b07565b348015610a5e57600080fd5b50610a72610a6d3660046138a9565b611b64565b60405161033192919061397c565b348015610a8c57600080fd5b5060045461035a906001600160a01b031681565b348015610aac57600080fd5b50610302610abb3660046135d9565b611b86565b348015610acc57600080fd5b50610302610adb3660046135d9565b611bf9565b6000610aeb81611c6c565b600954821415610b0e5760405163c23f6ccb60e01b815260040160405180910390fd5b50600955565b6000610b1f82611c76565b92915050565b60068181548110610b3557600080fd5b6000918252602090912001546001600160a01b0316905081565b6060600c8054610b5e906139ad565b80601f0160208091040260200160405190810160405280929190818152602001828054610b8a906139ad565b8015610bd75780601f10610bac57610100808354040283529160200191610bd7565b820191906000526020600020905b815481529060010190602001808311610bba57829003601f168201915b5050505050905090565b60606006805480602002602001604051908101604052809291908181526020018280548015610bd757602002820191906000526020600020905b81546001600160a01b03168152600190910190602001808311610c1b575050505050905090565b6000610b1f82611c9b565b6000610c57611cce565b6015546040516331a9108f60e11b81526000916001600160a01b031690636352211e90610c88908a9060040161376b565b60206040518083038186803b158015610ca057600080fd5b505afa158015610cb4573d6000803e3d6000fd5b505050506040513d601f19601f82011682018060405250810190610cd891906139e5565b90506001600160a01b0381163314610d0f57335b60405163060296c760e31b8152600401610d06919061366e565b60405180910390fd5b6000610d1a82611313565b1115610d3b57806040516397ac715160e01b8152600401610d06919061366e565b6000610d558983610d4d8b8b8b611cf8565b8a8989611d57565b90507fee821e75b7f5d45476c6835497cb073e0f39b6057f1503971e3017d1220e33fc818989898d601654604051610d9296959493929190613a06565b60405180910390a1915050610da76001601e55565b9695505050505050565b6000610dbd8383611de8565b9392505050565b6000610dcf81611c6c565b6003546001600160a01b0383811691161415610dfe5760405163c23f6ccb60e01b815260040160405180910390fd5b50600380546001600160a01b0319166001600160a01b0392909216919091179055565b60009081526020819052604090206001015490565b610e4160003361167a565b158015610e635750610e616000805160206143638339815191523361167a565b155b15610e81576040516326f0f48160e01b815260040160405180910390fd5b6001600160a01b038116610ea85760405163d92e233d60e01b815260040160405180910390fd5b6001600160a01b0381166000908152601d602052604090205460ff1615610ee25760405163f411c32760e01b815260040160405180910390fd5b6001600160a01b03166000908152601d60205260409020805460ff19166001179055565b610f1160003361167a565b158015610f335750610f316000805160206143638339815191523361167a565b155b15610f51576040516326f0f48160e01b815260040160405180910390fd5b806018541415610f745760405163c23f6ccb60e01b815260040160405180910390fd5b601855565b610f8282610e21565b610f8b81611c6c565b610f958383611e4f565b505050565b6000610fa583611313565b8210610fc35760405162461bcd60e51b8152600401610d0690613a9d565b506001600160a01b03919091166000908152601060209081526040808320938352929052205490565b6001600160a01b03811633146110145760405162461bcd60e51b8152600401610d0690613af9565b61101e8282611ed3565b5050565b600061102d81611c6c565b6015546001600160a01b038381169116141561105c5760405163c23f6ccb60e01b815260040160405180910390fd5b50601580546001600160a01b0319166001600160a01b0392909216919091179055565b61108a60003361167a565b1580156110ac57506110aa6000805160206143638339815191523361167a565b155b156110ca576040516326f0f48160e01b815260040160405180910390fd5b8060195414156110ed5760405163c23f6ccb60e01b815260040160405180910390fd5b601955565b60006110fd81611c6c565b6001546001600160a01b038381169116141561112c5760405163c23f6ccb60e01b815260040160405180910390fd5b50600180546001600160a01b0319166001600160a01b0392909216919091179055565b6111593382611f38565b6111755760405162461bcd60e51b8152600401610d0690613b40565b61117e81611f5b565b50565b600061118c81611c6c565b6008546001600160a01b03838116911614156111bb5760405163c23f6ccb60e01b815260040160405180910390fd5b50600880546001600160a01b0319166001600160a01b0392909216919091179055565b6111e960003361167a565b15801561120b57506112096000805160206143638339815191523361167a565b155b15611229576040516326f0f48160e01b815260040160405180910390fd5b80601754141561124c5760405163c23f6ccb60e01b815260040160405180910390fd5b601755565b6000610b1f82611ff5565b600061126760125490565b82106112855760405162461bcd60e51b8152600401610d0690613b96565b6012828154811061129857611298613ba6565b90600052602060002001549050919050565b6000818152600e60205260408120546001600160a01b031680610b1f5760405162461bcd60e51b8152600401610d0690613be8565b60006112ea81611c6c565b600b5482141561130d5760405163c23f6ccb60e01b815260040160405180910390fd5b50600b55565b60006001600160a01b03821661133b5760405162461bcd60e51b8152600401610d0690613c3b565b506001600160a01b03166000908152600f602052604090205490565b6000601654600014801561136b5750601754155b1561137857506000919050565b6004546001600160a01b0383811691161480156113ad57506001600160a01b03821660009081526005602052604090205460ff165b80156113bb57506000601754115b156113c857505060175490565b6003546001600160a01b0383811691161480156113fd57506001600160a01b03821660009081526005602052604090205460ff165b1561140a57505060165490565b6001600160a01b03821660009081526005602052604090205460ff161561143757610b1f82601654612012565b81604051630ac29ab760e31b8152600401610d06919061366e565b919050565b600061146281611c6c565b6004546001600160a01b03838116911614156114915760405163c23f6ccb60e01b815260040160405180910390fd5b50600480546001600160a01b0319166001600160a01b0392909216919091179055565b60006114be611cce565b6001600160a01b03861633146114d45733610cec565b60006114df87611313565b111561150057856040516397ac715160e01b8152600401610d06919061366e565b600061151a88886115128a8a8a6121a5565b898888611d57565b90507fff18574b4b1dc3a4b4b37eb63ccbbe2e564e789c9d1ca83445f40f378ec69d35818888888c60165460405161155796959493929190613c4b565b60405180910390a19050610da76001601e55565b61157660003361167a565b15801561159857506115966000805160206143638339815191523361167a565b155b156115b6576040516326f0f48160e01b815260040160405180910390fd5b80601b5414156115d95760405163c23f6ccb60e01b815260040160405180910390fd5b601b55565b6115e960003361167a565b15801561160b57506116096000805160206143638339815191523361167a565b155b15611629576040516326f0f48160e01b815260040160405180910390fd5b6007546001600160a01b03828116911614156116585760405163c23f6ccb60e01b815260040160405180910390fd5b600780546001600160a01b0319166001600160a01b0392909216919091179055565b6000918252602082815260408084206001600160a01b0393909316845291905290205460ff1690565b60006116ae81611c6c565b6001600160a01b03821660009081526005602052604090205460ff166116e957816040516318317bd560e01b8152600401610d06919061366e565b6001600160a01b0382166000908152600560205260408120805460ff191690555b600654811015610f9557826001600160a01b03166006828154811061173157611731613ba6565b6000918252602090912001546001600160a01b031614156117fe576006805461175c90600190613c7c565b8154811061176c5761176c613ba6565b600091825260209091200154600680546001600160a01b03909216918390811061179857611798613ba6565b9060005260206000200160006101000a8154816001600160a01b0302191690836001600160a01b0316021790555060068054806117d7576117d7613c93565b600082815260209020810160001990810180546001600160a01b0319169055019055505050565b8061180881613ca9565b91505061170a565b6060600d8054610b5e906139ad565b600061182a81611c6c565b600a5482141561184d5760405163c23f6ccb60e01b815260040160405180910390fd5b50600a55565b6015546000906001600160a01b031661187f57604051630d7fe67b60e41b815260040160405180910390fd5b600061188a836112aa565b60155460405163294cdf0d60e01b81529192506001600160a01b03169063294cdf0d906118bb90849060040161366e565b60206040518083038186803b1580156118d357600080fd5b505afa1580156118e7573d6000803e3d6000fd5b505050506040513d601f19601f82011682018060405250810190610dbd9190613ccf565b600061191681611c6c565b6001600160a01b03821660009081526005602052604090205460ff16156119505760405163f411c32760e01b815260040160405180910390fd5b506001600160a01b03166000818152600560205260408120805460ff191660019081179091556006805491820181559091527ff652222313e28459528d920b65115c16c04f3efc82aaedc97be59f3f377c0d3f0180546001600160a01b0319169091179055565b60606119c2826121e1565b60006119cc612206565b905060008151116119ec5760405180602001604052806000815250610dbd565b806119f684612215565b604051602001611a07929190613d12565b6040516020818303038152906040529392505050565b611a2860003361167a565b158015611a4a5750611a486000805160206143638339815191523361167a565b155b15611a68576040516326f0f48160e01b815260040160405180910390fd5b6001600160a01b038116611a8f5760405163d92e233d60e01b815260040160405180910390fd5b6001600160a01b0381166000908152601d602052604090205460ff16611aca57806040516324b1f80560e21b8152600401610d06919061366e565b6001600160a01b03166000908152601d60205260409020805460ff19169055565b611af482610e21565b611afd81611c6c565b610f958383611ed3565b6000611b1281611c6c565b6002546001600160a01b0383811691161415611b415760405163c23f6ccb60e01b815260040160405180910390fd5b50600280546001600160a01b0319166001600160a01b0392909216919091179055565b600080611b7083611357565b915081611b7d8484611de8565b91509150915091565b611b9160003361167a565b158015611bb35750611bb16000805160206143638339815191523361167a565b155b15611bd1576040516326f0f48160e01b815260040160405180910390fd5b806016541415611bf45760405163c23f6ccb60e01b815260040160405180910390fd5b601655565b611c0460003361167a565b158015611c265750611c246000805160206143638339815191523361167a565b155b15611c44576040516326f0f48160e01b815260040160405180910390fd5b80601a541415611c675760405163c23f6ccb60e01b815260040160405180910390fd5b601a55565b61117e81336122b1565b60006001600160e01b0319821663780e9d6360e01b1480610b1f5750610b1f8261230a565b600b5460009015611cc657610b1f6064611cc0600b548561234a90919063ffffffff16565b90612356565b506000919050565b6002601e541415611cf15760405162461bcd60e51b8152600401610d0690613d74565b6002601e55565b6000611d4f7fbf4c764a640e301e74685ff05395cceaed1d80e171501b6b6ffb339acfef6f18858585604051602001611d349493929190613d84565b60405160208183030381529060405280519060200120612362565b949350505050565b6000611d9b8584848080601f016020809104026020016040519081016040528093929190818152602001838380828437600092019190915250899250612375915050565b600080611da789611b64565b91509150611db68983836123f6565b6000611dc1601c5490565b9050611dd1601c80546001019055565b611ddb89826128a9565b9998505050505050505050565b600954600090819015611e23576003546001600160a01b0385811691161415611e145750600954611e23565b611e2084600954612012565b90505b600a5415610dbd57611d4f611e486064611cc0600a548761234a90919063ffffffff16565b8290612985565b611e59828261167a565b61101e576000828152602081815260408083206001600160a01b03851684529091529020805460ff19166001179055611e8f3390565b6001600160a01b0316816001600160a01b0316837f2f8788117e7eff1d82e926ec794901d17c78024a50270940304540a733656f0d60405160405180910390a45050565b611edd828261167a565b1561101e576000828152602081815260408083206001600160a01b0385168085529252808320805460ff1916905551339285917ff6391f5c32d9c69d2a47ea670b442974b53935d1edc7fd64eb21e047a839171b9190a45050565b600080611f44836112aa565b6001600160a01b0385811691161491505092915050565b6000611f66826112aa565b9050611f7481600084612991565b6001600160a01b0381166000908152600f60205260408120805460019290611f9d908490613c7c565b90915550506000828152600e602052604080822080546001600160a01b03191690555183916001600160a01b038416917fcc16f5dbb4873280815c1ee09dbd06736cffcc184412cf7a71a0fdb75d397ca59190a35050565b6000908152600e60205260409020546001600160a01b0316151590565b60008160008111801561202e57506001546001600160a01b0316155b1561204c5760405163fca2174f60e01b815260040160405180910390fd5b60008111801561206557506002546001600160a01b0316155b156120835760405163fca2174f60e01b815260040160405180910390fd5b60008111801561209c57506003546001600160a01b0316155b156120ba5760405163fca2174f60e01b815260040160405180910390fd5b6000811180156120d357506007546001600160a01b0316155b156120f15760405163fca2174f60e01b815260040160405180910390fd5b6001600160a01b03841660009081526005602052604090205460ff16158061212657506003546001600160a01b038581169116145b15612146578360405163961c9a4f60e01b8152600401610d06919061366e565b82612154576000915061219e565b6001600160a01b0384166121865760025460035461217f916001600160a01b0390811691168561299c565b915061219e565b60035461217f9085906001600160a01b03168561299c565b5092915050565b6000611d4f7fa6ef46909da92d1b513692b7fbb09319aee9a372c2af20e8060ed048f65595c3858585604051602001611d349493929190613dc2565b6121ea81611ff5565b61117e5760405162461bcd60e51b8152600401610d0690613be8565b606060148054610b5e906139ad565b6060600061222283612a5a565b60010190506000816001600160401b0381111561224157612241613ddd565b6040519080825280601f01601f19166020018201604052801561226b576020820181803683370190505b5090508181016020015b600019016f181899199a1a9b1b9c1cb0b131b232b360811b600a86061a8153600a85049450846122a4576122a9565b612275565b509392505050565b6122bb828261167a565b61101e576122c881612b30565b6122d3836020612b42565b6040516020016122e4929190613e09565b60408051601f198184030181529082905262461bcd60e51b8252610d06916004016136e6565b60006001600160e01b031982166313f2a32f60e01b148061233b57506001600160e01b03198216635b5e139f60e01b145b80610b1f5750610b1f82612cad565b6000610dbd8284613e5b565b6000610dbd8284613e7a565b6000610b1f61236f612ce2565b83612dd5565b60006123818484612e08565b9050816001600160a01b0316816001600160a01b0316146123b557604051638baa579f60e01b815260040160405180910390fd5b6001600160a01b0381166000908152601d602052604090205460ff166123f05780604051634a0bfec160e01b8152600401610d06919061366e565b50505050565b6124008282612985565b60008111801561241957506001546001600160a01b0316155b156124375760405163fca2174f60e01b815260040160405180910390fd5b60008111801561245057506002546001600160a01b0316155b1561246e5760405163fca2174f60e01b815260040160405180910390fd5b60008111801561248757506003546001600160a01b0316155b156124a55760405163fca2174f60e01b815260040160405180910390fd5b6000811180156124be57506007546001600160a01b0316155b156124dc5760405163fca2174f60e01b815260040160405180910390fd5b821580156124e8575081155b156124f2576123f0565b60006124fd84611c9b565b9050600083118061250e5750600081115b801561252357506008546001600160a01b0316155b156125415760405163910af6f560e01b815260040160405180910390fd5b6001600160a01b03851660009081526005602052604090205460ff1661257c5784604051630ac29ab760e31b8152600401610d06919061366e565b6001600160a01b03851661281e576125948484612985565b3410156125bf576125a58484612985565b60405163091a6d0f60e01b8152600401610d06919061376b565b60006125cb8583612e24565b111561265c576007546000906001600160a01b03166125ea8684612e24565b6040516125f690613e8e565b60006040518083038185875af1925050503d8060008114612633576040519150601f19603f3d011682016040523d82523d6000602084013e612638565b606091505b505090508061265a576040516312171d8360e31b815260040160405180910390fd5b505b82156126e6576008546040516000916001600160a01b031690859061268090613e8e565b60006040518083038185875af1925050503d80600081146126bd576040519150601f19603f3d011682016040523d82523d6000602084013e6126c2565b606091505b50509050806126e4576040516312171d8360e31b815260040160405180910390fd5b505b8015612770576008546040516000916001600160a01b031690839061270a90613e8e565b60006040518083038185875af1925050503d8060008114612747576040519150601f19603f3d011682016040523d82523d6000602084013e61274c565b606091505b505090508061276e576040516312171d8360e31b815260040160405180910390fd5b505b61277a8484612985565b3411156128195760006127976127908686612985565b3490612e24565b90506000336001600160a01b0316826040516127b290613e8e565b60006040518083038185875af1925050503d80600081146127ef576040519150601f19603f3d011682016040523d82523d6000602084013e6127f4565b606091505b505090508061281657604051633c31275160e21b815260040160405180910390fd5b50505b6128a2565b600061282a8583612e24565b111561285e5760075461285e9033906001600160a01b031661284c8785612e24565b6001600160a01b038916929190612e30565b821561288057600854612880906001600160a01b038781169133911686612e30565b80156128a2576008546128a2906001600160a01b038781169133911684612e30565b5050505050565b6001600160a01b0382166128cf5760405162461bcd60e51b8152600401610d0690613ecd565b6128d881611ff5565b156128f55760405162461bcd60e51b8152600401610d0690613f0d565b61290160008383612991565b6001600160a01b0382166000908152600f6020526040812080546001929061292a908490613f1d565b90915550506000818152600e602052604080822080546001600160a01b0319166001600160a01b038616908117909155905183927f0f6798a560793a54c3bcfe86a93cde1e73087d944c0ea20544137d412139688591a35050565b6000610dbd8284613f1d565b610f95838383612e88565b60006060806129ab8686612f40565b6001546040516307c0329d60e21b81529192506001600160a01b031690631f00ca74906129de9087908590600401613f35565b60006040518083038186803b1580156129f657600080fd5b505afa158015612a0a573d6000803e3d6000fd5b505050506040513d6000823e601f3d908101601f19168201604052612a329190810190614040565b915081600081518110612a4757612a47613ba6565b6020026020010151925050509392505050565b60008072184f03e93ff9f4daa797ed6e38ed64bf6a1f0160401b8310612a995772184f03e93ff9f4daa797ed6e38ed64bf6a1f0160401b830492506040015b6904ee2d6d415b85acef8160201b8310612ac3576904ee2d6d415b85acef8160201b830492506020015b662386f26fc100008310612ae157662386f26fc10000830492506010015b6305f5e1008310612af9576305f5e100830492506008015b6127108310612b0d57612710830492506004015b60648310612b1f576064830492506002015b600a8310610b1f5760010192915050565b6060610b1f6001600160a01b03831660145b60606000612b51836002613e5b565b612b5c906002613f1d565b6001600160401b03811115612b7357612b73613ddd565b6040519080825280601f01601f191660200182016040528015612b9d576020820181803683370190505b509050600360fc1b81600081518110612bb857612bb8613ba6565b60200101906001600160f81b031916908160001a905350600f60fb1b81600181518110612be757612be7613ba6565b60200101906001600160f81b031916908160001a9053506000612c0b846002613e5b565b612c16906001613f1d565b90505b6001811115612c8e576f181899199a1a9b1b9c1cb0b131b232b360811b85600f1660108110612c4a57612c4a613ba6565b1a60f81b828281518110612c6057612c60613ba6565b60200101906001600160f81b031916908160001a90535060049490941c93612c878161407a565b9050612c19565b508315610dbd5760405162461bcd60e51b8152600401610d06906140c3565b60006001600160e01b03198216637965db0b60e01b1480610b1f57506301ffc9a760e01b6001600160e01b0319831614610b1f565b6000306001600160a01b037f000000000000000000000000000000000000000000000000000000000000000016148015612d3b57507f000000000000000000000000000000000000000000000000000000000000000046145b15612d6557507f000000000000000000000000000000000000000000000000000000000000000090565b612dd07f00000000000000000000000000000000000000000000000000000000000000007f00000000000000000000000000000000000000000000000000000000000000007f00000000000000000000000000000000000000000000000000000000000000006130d2565b905090565b60008282604051602001612dea9291906140d3565b60405160208183030381529060405280519060200120905092915050565b6000806000612e17858561310c565b915091506122a981613152565b6000610dbd8284613c7c565b6123f0846323b872dd60e01b858585604051602401612e5193929190614104565b60408051601f198184030181529190526020810180516001600160e01b03166001600160e01b031990931692909217909152613205565b6001600160a01b038316612ee357612ede81601280546000838152601360205260408120829055600182018355919091527fbb8a6a4669ba250d26cd7a459eca9d215f8307e33aebe50379bc5a3617ec34440155565b612f06565b816001600160a01b0316836001600160a01b031614612f0657612f068382613294565b6001600160a01b038216612f1d57610f9581613331565b826001600160a01b0316826001600160a01b031614610f9557610f9582826133e0565b6002546060906001600160a01b0384811691161480612f6c57506002546001600160a01b038381169116145b1561303657604080516002808252606082018352600092602083019080368337019050506002549091506001600160a01b03858116911614612fae5783612fbb565b6002546001600160a01b03165b81600081518110612fce57612fce613ba6565b6001600160a01b039283166020918202929092010152600254848216911614612ff75782613004565b6002546001600160a01b03165b8160018151811061301757613017613ba6565b6001600160a01b03909216602092830291909101909101529050610b1f565b6040805160038082526080820190925260009160208201606080368337019050509050838160008151811061306d5761306d613ba6565b6001600160a01b03928316602091820292909201015260025482519116908290600190811061309e5761309e613ba6565b60200260200101906001600160a01b031690816001600160a01b031681525050828160028151811061301757613017613ba6565b600083838346306040516020016130ed95949392919061412c565b6040516020818303038152906040528051906020012090509392505050565b6000808251604114156131435760208301516040840151606085015160001a61313787828585613424565b9450945050505061314b565b506000905060025b9250929050565b60008160048111156131665761316661416e565b141561316f5750565b60018160048111156131835761318361416e565b14156131a15760405162461bcd60e51b8152600401610d06906141b3565b60028160048111156131b5576131b561416e565b14156131d35760405162461bcd60e51b8152600401610d06906141f7565b60038160048111156131e7576131e761416e565b141561117e5760405162461bcd60e51b8152600401610d0690614246565b600061325a826040518060400160405280602081526020017f5361666545524332303a206c6f772d6c6576656c2063616c6c206661696c6564815250856001600160a01b03166134d19092919063ffffffff16565b805190915015610f9557808060200190518101906132789190614269565b610f955760405162461bcd60e51b8152600401610d06906142d1565b600060016132a184611313565b6132ab9190613c7c565b6000838152601160205260409020549091508082146132fe576001600160a01b03841660009081526010602090815260408083208584528252808320548484528184208190558352601190915290208190555b5060009182526011602090815260408084208490556001600160a01b039094168352601081528383209183525290812055565b60125460009061334390600190613c7c565b6000838152601360205260408120546012805493945090928490811061336b5761336b613ba6565b90600052602060002001549050806012838154811061338c5761338c613ba6565b60009182526020808320909101929092558281526013909152604080822084905585825281205560128054806133c4576133c4613c93565b6001900381819060005260206000200160009055905550505050565b60006133eb83611313565b6001600160a01b039093166000908152601060209081526040808320868452825280832085905593825260119052919091209190915550565b6000806fa2a8918ca85bafe22016d0b997e4df60600160ff1b0383111561345157506000905060036134c8565b60006001878787876040516000815260200160405260405161347694939291906142ea565b6020604051602081039080840390855afa158015613498573d6000803e3d6000fd5b5050604051601f1901519150506001600160a01b0381166134c1576000600192509250506134c8565b9150600090505b94509492505050565b6060611d4f848460008585600080866001600160a01b031685876040516134f89190614312565b60006040518083038185875af1925050503d8060008114613535576040519150601f19603f3d011682016040523d82523d6000602084013e61353a565b606091505b509150915061354b87838387613556565b979650505050505050565b6060831561359257825161358b576001600160a01b0385163b61358b5760405162461bcd60e51b8152600401610d0690614352565b5081611d4f565b611d4f83838151156135a75781518083602001fd5b8060405162461bcd60e51b8152600401610d0691906136e6565b805b811461117e57600080fd5b8035610b1f816135c1565b6000602082840312156135ee576135ee600080fd5b6000611d4f84846135ce565b6001600160e01b031981166135c3565b8035610b1f816135fa565b60006020828403121561362a5761362a600080fd5b6000611d4f848461360a565b8015155b82525050565b60208101610b1f8284613636565b6001600160a01b031690565b6000610b1f8261364e565b61363a8161365a565b60208101610b1f8284613665565b60005b8381101561369757818101518382015260200161367f565b838111156123f05750506000910152565b601f01601f191690565b60006136bc825190565b8084526020840193506136d381856020860161367c565b6136dc816136a8565b9093019392505050565b60208082528101610dbd81846136b2565b60006137038383613665565b505060200190565b6000613715825190565b80845260209384019383018060005b8381101561374957815161373888826136f7565b975060208301925050600101613724565b509495945050505050565b60208082528101610dbd818461370b565b8061363a565b60208101610b1f8284613765565b6135c38161365a565b8035610b1f81613779565b60008083601f8401126137a2576137a2600080fd5b5081356001600160401b038111156137bc576137bc600080fd5b60208301915083600182028301111561314b5761314b600080fd5b60008060008060008060a087890312156137f3576137f3600080fd5b60006137ff8989613782565b965050602061381089828a016135ce565b955050604061382189828a01613782565b945050606061383289828a016135ce565b93505060808701356001600160401b0381111561385157613851600080fd5b61385d89828a0161378d565b92509250509295509295509295565b6000806040838503121561388257613882600080fd5b600061388e8585613782565b925050602061389f858286016135ce565b9150509250929050565b6000602082840312156138be576138be600080fd5b6000611d4f8484613782565b600080604083850312156138e0576138e0600080fd5b60006138ec85856135ce565b925050602061389f85828601613782565b6000610b1f61391161390e8461364e565b90565b61364e565b6000610b1f826138fd565b6000610b1f82613916565b61363a81613921565b60208101610b1f828461392c565b60008060008060008060a0878903121561395f5761395f600080fd5b600061396b8989613782565b965050602061381089828a01613782565b6040810161398a8285613765565b610dbd6020830184613765565b634e487b7160e01b600052602260045260246000fd5b6002810460018216806139c157607f821691505b602082108114156139d4576139d4613997565b50919050565b8051610b1f81613779565b6000602082840312156139fa576139fa600080fd5b6000611d4f84846139da565b60c08101613a148289613765565b613a216020830188613765565b613a2e6040830187613665565b613a3b6060830186613765565b613a486080830185613665565b61354b60a0830184613765565b602881526000602082017f534254456e756d657261626c653a206f776e657220696e646578206f7574206f8152676620626f756e647360c01b602082015291505b5060400190565b60208082528101610b1f81613a55565b602f81526000602082017f416363657373436f6e74726f6c3a2063616e206f6e6c792072656e6f756e636581526e103937b632b9903337b91039b2b63360891b60208201529150613a96565b60208082528101610b1f81613aad565b601e81526000602082017f5342543a2063616c6c6572206973206e6f7420746f6b656e206f776e65720000815291505b5060200190565b60208082528101610b1f81613b09565b602981526000602082017f534254456e756d657261626c653a20676c6f62616c20696e646578206f7574208152686f6620626f756e647360b81b60208201529150613a96565b60208082528101610b1f81613b50565b634e487b7160e01b600052603260045260246000fd5b601581526000602082017414d0950e881a5b9d985b1a59081d1bdad95b881251605a1b81529150613b39565b60208082528101610b1f81613bbc565b602681526000602082017f5342543a2061646472657373207a65726f206973206e6f7420612076616c69648152651037bbb732b960d11b60208201529150613a96565b60208082528101610b1f81613bf8565b60c08101613c598289613765565b613a216020830188613665565b634e487b7160e01b600052601160045260246000fd5b600082821015613c8e57613c8e613c66565b500390565b634e487b7160e01b600052603160045260246000fd5b6000600019821415613cbd57613cbd613c66565b5060010190565b8051610b1f816135c1565b600060208284031215613ce457613ce4600080fd5b6000611d4f8484613cc4565b6000613cfa825190565b613d0881856020860161367c565b9290920192915050565b6000613d1e8285613cf0565b9150613d2a8284613cf0565b64173539b7b760d91b8152915060058201611d4f565b601f81526000602082017f5265656e7472616e637947756172643a207265656e7472616e742063616c6c0081529150613b39565b60208082528101610b1f81613d40565b60808101613d928287613765565b613d9f6020830186613765565b613dac6040830185613665565b613db96060830184613765565b95945050505050565b60808101613dd08287613765565b613d9f6020830186613665565b634e487b7160e01b600052604160045260246000fd5b634e487b7160e01b600052601260045260246000fd5b76020b1b1b2b9b9a1b7b73a3937b61d1030b1b1b7bab73a1604d1b81526017016000613e358285613cf0565b7001034b99036b4b9b9b4b733903937b6329607d1b81526011019150611d4f8284613cf0565b6000816000190483118215151615613e7557613e75613c66565b500290565b600082613e8957613e89613df3565b500490565b6000610b1f8261390e565b601d81526000602082017f5342543a206d696e7420746f20746865207a65726f206164647265737300000081529150613b39565b60208082528101610b1f81613e99565b601981526000602082017814d0950e881d1bdad95b88185b1c9958591e481b5a5b9d1959603a1b81529150613b39565b60208082528101610b1f81613edd565b60008219821115613f3057613f30613c66565b500190565b60408101613f438285613765565b8181036020830152611d4f818461370b565b613f5e826136a8565b81018181106001600160401b0382111715613f7b57613f7b613ddd565b6040525050565b6000613f8d60405190565b90506114528282613f55565b60006001600160401b03821115613fb257613fb2613ddd565b5060209081020190565b6000613fcf613fca84613f99565b613f82565b83815290506020808201908402830185811115613fee57613fee600080fd5b835b8181101561401257806140038882613cc4565b84525060209283019201613ff0565b5050509392505050565b600082601f83011261403057614030600080fd5b8151611d4f848260208601613fbc565b60006020828403121561405557614055600080fd5b81516001600160401b0381111561406e5761406e600080fd5b611d4f8482850161401c565b60008161408957614089613c66565b506000190190565b60208082527f537472696e67733a20686578206c656e67746820696e73756666696369656e7491019081526000613b39565b60208082528101610b1f81614091565b61190160f01b815260020160006140ea8285613765565b6020820191506140fa8284613765565b5060200192915050565b606081016141128286613665565b61411f6020830185613665565b611d4f6040830184613765565b60a0810161413a8288613765565b6141476020830187613765565b6141546040830186613765565b6141616060830185613765565b610da76080830184613665565b634e487b7160e01b600052602160045260246000fd5b601881526000602082017745434453413a20696e76616c6964207369676e617475726560401b81529150613b39565b60208082528101610b1f81614184565b601f81526000602082017f45434453413a20696e76616c6964207369676e6174757265206c656e6774680081529150613b39565b60208082528101610b1f816141c3565b602281526000602082017f45434453413a20696e76616c6964207369676e6174757265202773272076616c815261756560f01b60208201529150613a96565b60208082528101610b1f81614207565b8015156135c3565b8051610b1f81614256565b60006020828403121561427e5761427e600080fd5b6000611d4f848461425e565b602a81526000602082017f5361666545524332303a204552433230206f7065726174696f6e20646964206e8152691bdd081cdd58d8d9595960b21b60208201529150613a96565b60208082528101610b1f8161428a565b60ff811661363a565b608081016142f88287613765565b61430560208301866142e1565b613dac6040830185613765565b6000610dbd8284613cf0565b601d81526000602082017f416464726573733a2063616c6c20746f206e6f6e2d636f6e747261637400000081529150613b39565b60208082528101610b1f8161431e56fe52eafc11f6f81f86878bffd31109a0d92f37506527754f00788853ff9f63b130a2646970667358221220ed5b9d374ee997c08f0693bfc27c292393a87e7843b85fd1f467a82a1f4df7ec64736f6c63430008080033",
  "devdoc": {
    "author": "Masa Finance",
    "details": "Soulbound credit score, that inherits from the SBT contract.",
    "kind": "dev",
    "methods": {
      "addAuthority(address)": {
        "details": "The caller must have the admin or project admin role to call this function",
        "params": {
          "_authority": "New authority to add"
        }
      },
      "balanceOf(address)": {
        "details": "See {ISBT-balanceOf}."
      },
      "burn(uint256)": {
        "details": "Burns `tokenId`. See {SBT-_burn}. Requirements: - The caller must own `tokenId` or be an approved operator."
      },
      "constructor": {
        "details": "Creates a new soulbound credit score, inheriting from the SBT contract.",
        "params": {
          "admin": "Administrator of the smart contract",
          "baseTokenURI": "Base URI of the token",
          "name": "Name of the token",
          "paymentParams": "Payment gateway params",
          "soulboundIdentity": "Address of the SoulboundIdentity contract",
          "symbol": "Symbol of the token"
        }
      },
      "disablePaymentMethod(address)": {
        "details": "The caller must have the admin role to call this function",
        "params": {
          "_paymentMethod": "Token to remove"
        }
      },
      "enablePaymentMethod(address)": {
        "details": "The caller must have the admin role to call this function",
        "params": {
          "_paymentMethod": "New token to add"
        }
      },
      "exists(uint256)": {
        "details": "Returns true if the token has been minted",
        "params": {
          "tokenId": "Token to check"
        },
        "returns": {
          "_0": "True if the token exists"
        }
      },
      "getEnabledPaymentMethods()": {
        "details": "Returns the address of all available payment methods",
        "returns": {
          "_0": "Array of all enabled payment methods"
        }
      },
      "getIdentityId(uint256)": {
        "params": {
          "tokenId": "Id of the token"
        },
        "returns": {
          "_0": "Id of the identity"
        }
      },
      "getMintPrice(address)": {
        "details": "Returns current pricing for minting",
        "params": {
          "paymentMethod": "Address of token that user want to pay"
        },
        "returns": {
          "price": "Current price for minting in the given payment method"
        }
      },
      "getMintPriceWithProtocolFee(address)": {
        "details": "Returns current pricing for minting with protocol fee",
        "params": {
          "paymentMethod": "Address of token that user want to pay"
        },
        "returns": {
          "price": "Current price for minting in the given payment method",
          "protocolFee": "Current protocol fee for minting in the given payment method"
        }
      },
      "getProtocolFee(address,uint256)": {
        "details": "This method will calculate the protocol fee based on the payment method",
        "params": {
          "amount": "Price to be paid in the specified payment method",
          "paymentMethod": "Address of token that user want to pay"
        }
      },
      "getProtocolFeeSub(uint256)": {
        "details": "This method will calculate the protocol fee based on the payment method",
        "params": {
          "amount": "Price to be paid in the specified payment method"
        }
      },
      "getRoleAdmin(bytes32)": {
        "details": "Returns the admin role that controls `role`. See {grantRole} and {revokeRole}. To change a role's admin, use {_setRoleAdmin}."
      },
      "grantRole(bytes32,address)": {
        "details": "Grants `role` to `account`. If `account` had not been already granted `role`, emits a {RoleGranted} event. Requirements: - the caller must have ``role``'s admin role. May emit a {RoleGranted} event."
      },
      "hasRole(bytes32,address)": {
        "details": "Returns `true` if `account` has been granted `role`."
      },
      "mint(address,address,address,uint256,bytes)": {
        "details": "The caller must have the MINTER role",
        "params": {
          "authorityAddress": "Address of the authority that signed the message",
          "paymentMethod": "Address of token that user want to pay",
          "signature": "Signature of the message",
          "signatureDate": "Date of the signature",
          "to": "The address to mint the SBT to"
        },
        "returns": {
          "_0": "The SBT ID of the newly minted SBT"
        }
      },
      "mint(address,uint256,address,uint256,bytes)": {
        "details": "The caller must have the MINTER role",
        "params": {
          "authorityAddress": "Address of the authority that signed the message",
          "identityId": "TokenId of the identity to mint the NFT to",
          "paymentMethod": "Address of token that user want to pay",
          "signature": "Signature of the message",
          "signatureDate": "Date of the signature"
        },
        "returns": {
          "_0": "The NFT ID of the newly minted SBT"
        }
      },
      "name()": {
        "details": "See {ISBTMetadata-name}."
      },
      "ownerOf(uint256)": {
        "details": "See {ISBT-ownerOf}."
      },
      "removeAuthority(address)": {
        "details": "The caller must have the admin or project admin role to call this function",
        "params": {
          "_authority": "Authority to remove"
        }
      },
      "renounceRole(bytes32,address)": {
        "details": "Revokes `role` from the calling account. Roles are often managed via {grantRole} and {revokeRole}: this function's purpose is to provide a mechanism for accounts to lose their privileges if they are compromised (such as when a trusted device is misplaced). If the calling account had been revoked `role`, emits a {RoleRevoked} event. Requirements: - the caller must be `account`. May emit a {RoleRevoked} event."
      },
      "revokeRole(bytes32,address)": {
        "details": "Revokes `role` from `account`. If `account` had been granted `role`, emits a {RoleRevoked} event. Requirements: - the caller must have ``role``'s admin role. May emit a {RoleRevoked} event."
      },
      "setAddLinkPrice(uint256)": {
        "details": "The caller must have the admin or project admin role to call this function",
        "params": {
          "_addLinkPrice": "New price for adding the link in SoulLinker in stable coin"
        }
      },
      "setAddLinkPriceMASA(uint256)": {
        "details": "The caller must have the admin or project admin role to call this function",
        "params": {
          "_addLinkPriceMASA": "New price for adding the link in SoulLinker in MASA"
        }
      },
      "setMasaToken(address)": {
        "details": "The caller must have the admin role to call this function It can be set to address(0) to disable paying in MASA",
        "params": {
          "_masaToken": "New utility token to pay the fee in"
        }
      },
      "setMintPrice(uint256)": {
        "details": "The caller must have the admin or project admin role to call this function",
        "params": {
          "_mintPrice": "New price of minting in stable coin"
        }
      },
      "setMintPriceMASA(uint256)": {
        "details": "The caller must have the admin or project admin role to call this function",
        "params": {
          "_mintPriceMASA": "New price of minting in MASA"
        }
      },
      "setProjectFeeReceiver(address)": {
        "details": "The caller must have the admin or project admin role to call this function",
        "params": {
          "_projectFeeReceiver": "New project fee receiver wallet"
        }
      },
      "setProtocolFeeAmount(uint256)": {
        "details": "The caller must have the admin role to call this function",
        "params": {
          "_protocolFeeAmount": "New protocol fee amount"
        }
      },
      "setProtocolFeePercent(uint256)": {
        "details": "The caller must have the admin role to call this function",
        "params": {
          "_protocolFeePercent": "New protocol fee percent added to the project fee"
        }
      },
      "setProtocolFeePercentSub(uint256)": {
        "details": "The caller must have the admin role to call this function",
        "params": {
          "_protocolFeePercentSub": "New protocol fee percent substracted from the amount"
        }
      },
      "setProtocolFeeReceiver(address)": {
        "details": "The caller must have the admin role to call this function",
        "params": {
          "_protocolFeeReceiver": "New protocol fee wallet"
        }
      },
      "setQueryLinkPrice(uint256)": {
        "details": "The caller must have the admin or project admin role to call this function",
        "params": {
          "_queryLinkPrice": "New price for reading data in SoulLinker in stable coin"
        }
      },
      "setQueryLinkPriceMASA(uint256)": {
        "details": "The caller must have the admin or project admin role to call this function",
        "params": {
          "_queryLinkPriceMASA": "New price for reading data in SoulLinker in MASA"
        }
      },
      "setSoulboundIdentity(address)": {
        "details": "The caller must be the admin to call this function",
        "params": {
          "_soulboundIdentity": "Address of the SoulboundIdentity contract"
        }
      },
      "setStableCoin(address)": {
        "details": "The caller must have the admin role to call this function",
        "params": {
          "_stableCoin": "New stable coin to pay the fee in"
        }
      },
      "setSwapRouter(address)": {
        "details": "The caller must have the admin role to call this function",
        "params": {
          "_swapRouter": "New swap router address"
        }
      },
      "setWrappedNativeToken(address)": {
        "details": "The caller must have the admin role to call this function",
        "params": {
          "_wrappedNativeToken": "New wrapped native token address"
        }
      },
      "supportsInterface(bytes4)": {
        "details": "Interface identification is specified in ERC-165.",
        "params": {
          "interfaceId": "The interface identifier, as specified in ERC-165"
        },
        "returns": {
          "_0": "`true` if the contract implements `interfaceId` and  `interfaceId` is not 0xffffffff, `false` otherwise"
        }
      },
      "symbol()": {
        "details": "See {ISBTMetadata-symbol}."
      },
      "tokenByIndex(uint256)": {
        "details": "See {ISBTEnumerable-tokenByIndex}."
      },
      "tokenOfOwnerByIndex(address,uint256)": {
        "details": "See {ISBTEnumerable-tokenOfOwnerByIndex}."
      },
      "tokenURI(uint256)": {
        "details": "Throws if `_tokenId` is not a valid SBT. URIs are defined in RFC  3986. The URI may point to a JSON file that conforms to the \"ERC721  Metadata JSON Schema\".",
        "params": {
          "tokenId": "SBT to get the URI of"
        },
        "returns": {
          "_0": "URI of the SBT"
        }
      },
      "totalSupply()": {
        "details": "See {ISBTEnumerable-totalSupply}."
      }
    },
    "title": "Soulbound Credit Score",
    "version": 1
  },
  "userdoc": {
    "kind": "user",
    "methods": {
      "addAuthority(address)": {
        "notice": "Adds a new authority to the list of authorities"
      },
      "constructor": {
        "notice": "Creates a new soulbound credit score"
      },
      "disablePaymentMethod(address)": {
        "notice": "Removes a token as a valid payment method"
      },
      "enablePaymentMethod(address)": {
        "notice": "Adds a new token as a valid payment method"
      },
      "exists(uint256)": {
        "notice": "Returns true if the token exists"
      },
      "getEnabledPaymentMethods()": {
        "notice": "Returns all available payment methods"
      },
      "getIdentityId(uint256)": {
        "notice": "Returns the identityId owned by the given token"
      },
      "getMintPrice(address)": {
        "notice": "Returns the price for minting"
      },
      "getMintPriceWithProtocolFee(address)": {
        "notice": "Returns the price for minting with protocol fee"
      },
      "getProtocolFee(address,uint256)": {
        "notice": "Calculates the protocol fee added to the project fee"
      },
      "getProtocolFeeSub(uint256)": {
        "notice": "Calculates the protocol fee substracted from the amount"
      },
      "mint(address,address,address,uint256,bytes)": {
        "notice": "Mints a new SBT"
      },
      "mint(address,uint256,address,uint256,bytes)": {
        "notice": "Mints a new SBT"
      },
      "removeAuthority(address)": {
        "notice": "Removes an authority from the list of authorities"
      },
      "setAddLinkPrice(uint256)": {
        "notice": "Sets the price for adding the link in SoulLinker in stable coin"
      },
      "setAddLinkPriceMASA(uint256)": {
        "notice": "Sets the price for adding the link in SoulLinker in MASA"
      },
      "setMasaToken(address)": {
        "notice": "Sets the utility token to pay the fee in (MASA)"
      },
      "setMintPrice(uint256)": {
        "notice": "Sets the price of minting in stable coin"
      },
      "setMintPriceMASA(uint256)": {
        "notice": "Sets the price of minting in MASA"
      },
      "setProjectFeeReceiver(address)": {
        "notice": "Set the project fee receiver wallet"
      },
      "setProtocolFeeAmount(uint256)": {
        "notice": "Set the protocol fee amount"
      },
      "setProtocolFeePercent(uint256)": {
        "notice": "Set the protocol fee percent added to the project fee"
      },
      "setProtocolFeePercentSub(uint256)": {
        "notice": "Set the protocol fee percent substracted from the amount"
      },
      "setProtocolFeeReceiver(address)": {
        "notice": "Set the protocol fee wallet"
      },
      "setQueryLinkPrice(uint256)": {
        "notice": "Sets the price for reading data in SoulLinker in stable coin"
      },
      "setQueryLinkPriceMASA(uint256)": {
        "notice": "Sets the price for reading data in SoulLinker in MASA"
      },
      "setSoulboundIdentity(address)": {
        "notice": "Sets the SoulboundIdentity contract address linked to this SBT"
      },
      "setStableCoin(address)": {
        "notice": "Sets the stable coin to pay the fee in (USDC)"
      },
      "setSwapRouter(address)": {
        "notice": "Sets the swap router address"
      },
      "setWrappedNativeToken(address)": {
        "notice": "Sets the wrapped native token address"
      },
      "supportsInterface(bytes4)": {
        "notice": "Query if a contract implements an interface"
      },
      "tokenURI(uint256)": {
        "notice": "A distinct Uniform Resource Identifier (URI) for a given asset."
      }
    },
    "notice": "Soulbound token that represents a credit score.",
    "version": 1
  },
  "storageLayout": {
    "storage": [
      {
        "astId": 24,
        "contract": "contracts/SoulboundCreditScore.sol:SoulboundCreditScore",
        "label": "_roles",
        "offset": 0,
        "slot": "0",
        "type": "t_mapping(t_bytes32,t_struct(RoleData)19_storage)"
      },
      {
        "astId": 9280,
        "contract": "contracts/SoulboundCreditScore.sol:SoulboundCreditScore",
        "label": "swapRouter",
        "offset": 0,
        "slot": "1",
        "type": "t_address"
      },
      {
        "astId": 9282,
        "contract": "contracts/SoulboundCreditScore.sol:SoulboundCreditScore",
        "label": "wrappedNativeToken",
        "offset": 0,
        "slot": "2",
        "type": "t_address"
      },
      {
        "astId": 9284,
        "contract": "contracts/SoulboundCreditScore.sol:SoulboundCreditScore",
        "label": "stableCoin",
        "offset": 0,
        "slot": "3",
        "type": "t_address"
      },
      {
        "astId": 9286,
        "contract": "contracts/SoulboundCreditScore.sol:SoulboundCreditScore",
        "label": "masaToken",
        "offset": 0,
        "slot": "4",
        "type": "t_address"
      },
      {
        "astId": 9290,
        "contract": "contracts/SoulboundCreditScore.sol:SoulboundCreditScore",
        "label": "enabledPaymentMethod",
        "offset": 0,
        "slot": "5",
        "type": "t_mapping(t_address,t_bool)"
      },
      {
        "astId": 9293,
        "contract": "contracts/SoulboundCreditScore.sol:SoulboundCreditScore",
        "label": "enabledPaymentMethods",
        "offset": 0,
        "slot": "6",
        "type": "t_array(t_address)dyn_storage"
      },
      {
        "astId": 9295,
        "contract": "contracts/SoulboundCreditScore.sol:SoulboundCreditScore",
        "label": "projectFeeReceiver",
        "offset": 0,
        "slot": "7",
        "type": "t_address"
      },
      {
        "astId": 9297,
        "contract": "contracts/SoulboundCreditScore.sol:SoulboundCreditScore",
        "label": "protocolFeeReceiver",
        "offset": 0,
        "slot": "8",
        "type": "t_address"
      },
      {
        "astId": 9299,
        "contract": "contracts/SoulboundCreditScore.sol:SoulboundCreditScore",
        "label": "protocolFeeAmount",
        "offset": 0,
        "slot": "9",
        "type": "t_uint256"
      },
      {
        "astId": 9301,
        "contract": "contracts/SoulboundCreditScore.sol:SoulboundCreditScore",
        "label": "protocolFeePercent",
        "offset": 0,
        "slot": "10",
        "type": "t_uint256"
      },
      {
        "astId": 9303,
        "contract": "contracts/SoulboundCreditScore.sol:SoulboundCreditScore",
        "label": "protocolFeePercentSub",
        "offset": 0,
        "slot": "11",
        "type": "t_uint256"
      },
      {
        "astId": 25581,
        "contract": "contracts/SoulboundCreditScore.sol:SoulboundCreditScore",
        "label": "_name",
        "offset": 0,
        "slot": "12",
        "type": "t_string_storage"
      },
      {
        "astId": 25583,
        "contract": "contracts/SoulboundCreditScore.sol:SoulboundCreditScore",
        "label": "_symbol",
        "offset": 0,
        "slot": "13",
        "type": "t_string_storage"
      },
      {
        "astId": 25587,
        "contract": "contracts/SoulboundCreditScore.sol:SoulboundCreditScore",
        "label": "_owners",
        "offset": 0,
        "slot": "14",
        "type": "t_mapping(t_uint256,t_address)"
      },
      {
        "astId": 25591,
        "contract": "contracts/SoulboundCreditScore.sol:SoulboundCreditScore",
        "label": "_balances",
        "offset": 0,
        "slot": "15",
        "type": "t_mapping(t_address,t_uint256)"
      },
      {
        "astId": 26050,
        "contract": "contracts/SoulboundCreditScore.sol:SoulboundCreditScore",
        "label": "_ownedTokens",
        "offset": 0,
        "slot": "16",
        "type": "t_mapping(t_address,t_mapping(t_uint256,t_uint256))"
      },
      {
        "astId": 26054,
        "contract": "contracts/SoulboundCreditScore.sol:SoulboundCreditScore",
        "label": "_ownedTokensIndex",
        "offset": 0,
        "slot": "17",
        "type": "t_mapping(t_uint256,t_uint256)"
      },
      {
        "astId": 26057,
        "contract": "contracts/SoulboundCreditScore.sol:SoulboundCreditScore",
        "label": "_allTokens",
        "offset": 0,
        "slot": "18",
        "type": "t_array(t_uint256)dyn_storage"
      },
      {
        "astId": 26061,
        "contract": "contracts/SoulboundCreditScore.sol:SoulboundCreditScore",
        "label": "_allTokensIndex",
        "offset": 0,
        "slot": "19",
        "type": "t_mapping(t_uint256,t_uint256)"
      },
      {
        "astId": 24667,
        "contract": "contracts/SoulboundCreditScore.sol:SoulboundCreditScore",
        "label": "_baseTokenURI",
        "offset": 0,
        "slot": "20",
        "type": "t_string_storage"
      },
      {
        "astId": 24670,
        "contract": "contracts/SoulboundCreditScore.sol:SoulboundCreditScore",
        "label": "soulboundIdentity",
        "offset": 0,
        "slot": "21",
        "type": "t_contract(ISoulboundIdentity)10443"
      },
      {
        "astId": 24672,
        "contract": "contracts/SoulboundCreditScore.sol:SoulboundCreditScore",
        "label": "mintPrice",
        "offset": 0,
        "slot": "22",
        "type": "t_uint256"
      },
      {
        "astId": 24674,
        "contract": "contracts/SoulboundCreditScore.sol:SoulboundCreditScore",
        "label": "mintPriceMASA",
        "offset": 0,
        "slot": "23",
        "type": "t_uint256"
      },
      {
        "astId": 24677,
        "contract": "contracts/SoulboundCreditScore.sol:SoulboundCreditScore",
        "label": "addLinkPrice",
        "offset": 0,
        "slot": "24",
        "type": "t_uint256"
      },
      {
        "astId": 24680,
        "contract": "contracts/SoulboundCreditScore.sol:SoulboundCreditScore",
        "label": "addLinkPriceMASA",
        "offset": 0,
        "slot": "25",
        "type": "t_uint256"
      },
      {
        "astId": 24683,
        "contract": "contracts/SoulboundCreditScore.sol:SoulboundCreditScore",
        "label": "queryLinkPrice",
        "offset": 0,
        "slot": "26",
        "type": "t_uint256"
      },
      {
        "astId": 24686,
        "contract": "contracts/SoulboundCreditScore.sol:SoulboundCreditScore",
        "label": "queryLinkPriceMASA",
        "offset": 0,
        "slot": "27",
        "type": "t_uint256"
      },
      {
        "astId": 25309,
        "contract": "contracts/SoulboundCreditScore.sol:SoulboundCreditScore",
        "label": "_tokenIdCounter",
        "offset": 0,
        "slot": "28",
        "type": "t_struct(Counter)2919_storage"
      },
      {
        "astId": 25313,
        "contract": "contracts/SoulboundCreditScore.sol:SoulboundCreditScore",
        "label": "authorities",
        "offset": 0,
        "slot": "29",
        "type": "t_mapping(t_address,t_bool)"
      },
      {
        "astId": 620,
        "contract": "contracts/SoulboundCreditScore.sol:SoulboundCreditScore",
        "label": "_status",
        "offset": 0,
        "slot": "30",
        "type": "t_uint256"
      }
    ],
    "types": {
      "t_address": {
        "encoding": "inplace",
        "label": "address",
        "numberOfBytes": "20"
      },
      "t_array(t_address)dyn_storage": {
        "base": "t_address",
        "encoding": "dynamic_array",
        "label": "address[]",
        "numberOfBytes": "32"
      },
      "t_array(t_uint256)dyn_storage": {
        "base": "t_uint256",
        "encoding": "dynamic_array",
        "label": "uint256[]",
        "numberOfBytes": "32"
      },
      "t_bool": {
        "encoding": "inplace",
        "label": "bool",
        "numberOfBytes": "1"
      },
      "t_bytes32": {
        "encoding": "inplace",
        "label": "bytes32",
        "numberOfBytes": "32"
      },
      "t_contract(ISoulboundIdentity)10443": {
        "encoding": "inplace",
        "label": "contract ISoulboundIdentity",
        "numberOfBytes": "20"
      },
      "t_mapping(t_address,t_bool)": {
        "encoding": "mapping",
        "key": "t_address",
        "label": "mapping(address => bool)",
        "numberOfBytes": "32",
        "value": "t_bool"
      },
      "t_mapping(t_address,t_mapping(t_uint256,t_uint256))": {
        "encoding": "mapping",
        "key": "t_address",
        "label": "mapping(address => mapping(uint256 => uint256))",
        "numberOfBytes": "32",
        "value": "t_mapping(t_uint256,t_uint256)"
      },
      "t_mapping(t_address,t_uint256)": {
        "encoding": "mapping",
        "key": "t_address",
        "label": "mapping(address => uint256)",
        "numberOfBytes": "32",
        "value": "t_uint256"
      },
      "t_mapping(t_bytes32,t_struct(RoleData)19_storage)": {
        "encoding": "mapping",
        "key": "t_bytes32",
        "label": "mapping(bytes32 => struct AccessControl.RoleData)",
        "numberOfBytes": "32",
        "value": "t_struct(RoleData)19_storage"
      },
      "t_mapping(t_uint256,t_address)": {
        "encoding": "mapping",
        "key": "t_uint256",
        "label": "mapping(uint256 => address)",
        "numberOfBytes": "32",
        "value": "t_address"
      },
      "t_mapping(t_uint256,t_uint256)": {
        "encoding": "mapping",
        "key": "t_uint256",
        "label": "mapping(uint256 => uint256)",
        "numberOfBytes": "32",
        "value": "t_uint256"
      },
      "t_string_storage": {
        "encoding": "bytes",
        "label": "string",
        "numberOfBytes": "32"
      },
      "t_struct(Counter)2919_storage": {
        "encoding": "inplace",
        "label": "struct Counters.Counter",
        "members": [
          {
            "astId": 2918,
            "contract": "contracts/SoulboundCreditScore.sol:SoulboundCreditScore",
            "label": "_value",
            "offset": 0,
            "slot": "0",
            "type": "t_uint256"
          }
        ],
        "numberOfBytes": "32"
      },
      "t_struct(RoleData)19_storage": {
        "encoding": "inplace",
        "label": "struct AccessControl.RoleData",
        "members": [
          {
            "astId": 16,
            "contract": "contracts/SoulboundCreditScore.sol:SoulboundCreditScore",
            "label": "members",
            "offset": 0,
            "slot": "0",
            "type": "t_mapping(t_address,t_bool)"
          },
          {
            "astId": 18,
            "contract": "contracts/SoulboundCreditScore.sol:SoulboundCreditScore",
            "label": "adminRole",
            "offset": 0,
            "slot": "1",
            "type": "t_bytes32"
          }
        ],
        "numberOfBytes": "64"
      },
      "t_uint256": {
        "encoding": "inplace",
        "label": "uint256",
        "numberOfBytes": "32"
      }
    }
  }
}