{
  "address": "0x6fECCe51a6C4881e68F6460e0d73686e736c44D7",
  "abi": [
    {
      "inputs": [
        {
          "internalType": "address",
          "name": "owner",
          "type": "address"
        },
        {
          "internalType": "contract ISoulboundIdentity",
          "name": "_soulboundIdentity",
          "type": "address"
        },
        {
          "components": [
            {
              "internalType": "address",
              "name": "swapRouter",
              "type": "address"
            },
            {
              "internalType": "address",
              "name": "wrappedNativeToken",
              "type": "address"
            },
            {
              "internalType": "address",
              "name": "stableCoin",
              "type": "address"
            },
            {
              "internalType": "address",
              "name": "masaToken",
              "type": "address"
            },
            {
              "internalType": "address",
              "name": "reserveWallet",
              "type": "address"
            }
          ],
          "internalType": "struct PaymentGateway.PaymentParams",
          "name": "paymentParams",
          "type": "tuple"
        }
      ],
      "stateMutability": "nonpayable",
      "type": "constructor"
    },
    {
      "inputs": [],
      "name": "AlreadyAdded",
      "type": "error"
    },
    {
      "inputs": [
        {
          "internalType": "address",
          "name": "caller",
          "type": "address"
        }
      ],
      "name": "CallerNotOwner",
      "type": "error"
    },
    {
      "inputs": [
        {
          "internalType": "address",
          "name": "caller",
          "type": "address"
        }
      ],
      "name": "CallerNotReader",
      "type": "error"
    },
    {
      "inputs": [
        {
          "internalType": "uint256",
          "name": "readerIdentityId",
          "type": "uint256"
        }
      ],
      "name": "IdentityOwnerIsReader",
      "type": "error"
    },
    {
      "inputs": [
        {
          "internalType": "uint256",
          "name": "tokenId",
          "type": "uint256"
        },
        {
          "internalType": "uint256",
          "name": "ownerIdentityId",
          "type": "uint256"
        }
      ],
      "name": "IdentityOwnerNotTokenOwner",
      "type": "error"
    },
    {
      "inputs": [
        {
          "internalType": "uint256",
          "name": "amount",
          "type": "uint256"
        }
      ],
      "name": "InsufficientEthAmount",
      "type": "error"
    },
    {
      "inputs": [
        {
          "internalType": "address",
          "name": "paymentMethod",
          "type": "address"
        }
      ],
      "name": "InvalidPaymentMethod",
      "type": "error"
    },
    {
      "inputs": [],
      "name": "InvalidSignature",
      "type": "error"
    },
    {
      "inputs": [
        {
          "internalType": "address",
          "name": "token",
          "type": "address"
        }
      ],
      "name": "InvalidToken",
      "type": "error"
    },
    {
      "inputs": [
        {
          "internalType": "address",
          "name": "token",
          "type": "address"
        },
        {
          "internalType": "uint256",
          "name": "tokenId",
          "type": "uint256"
        },
        {
          "internalType": "uint256",
          "name": "readerIdentityId",
          "type": "uint256"
        },
        {
          "internalType": "uint256",
          "name": "signatureDate",
          "type": "uint256"
        }
      ],
      "name": "LinkAlreadyExists",
      "type": "error"
    },
    {
      "inputs": [],
      "name": "LinkAlreadyRevoked",
      "type": "error"
    },
    {
      "inputs": [],
      "name": "LinkDoesNotExist",
      "type": "error"
    },
    {
      "inputs": [
        {
          "internalType": "address",
          "name": "erc20token",
          "type": "address"
        }
      ],
      "name": "NonExistingErc20Token",
      "type": "error"
    },
    {
      "inputs": [],
      "name": "RefundFailed",
      "type": "error"
    },
    {
      "inputs": [],
      "name": "SameValue",
      "type": "error"
    },
    {
      "inputs": [],
      "name": "TransferFailed",
      "type": "error"
    },
    {
      "inputs": [
        {
          "internalType": "uint256",
          "name": "expirationDate",
          "type": "uint256"
        }
      ],
      "name": "ValidPeriodExpired",
      "type": "error"
    },
    {
      "inputs": [],
      "name": "ZeroAddress",
      "type": "error"
    },
    {
      "anonymous": false,
      "inputs": [
        {
          "indexed": false,
          "internalType": "uint256",
          "name": "readerIdentityId",
          "type": "uint256"
        },
        {
          "indexed": false,
          "internalType": "uint256",
          "name": "ownerIdentityId",
          "type": "uint256"
        },
        {
          "indexed": false,
          "internalType": "address",
          "name": "token",
          "type": "address"
        },
        {
          "indexed": false,
          "internalType": "uint256",
          "name": "tokenId",
          "type": "uint256"
        },
        {
          "indexed": false,
          "internalType": "uint256",
          "name": "signatureDate",
          "type": "uint256"
        },
        {
          "indexed": false,
          "internalType": "uint256",
          "name": "expirationDate",
          "type": "uint256"
        }
      ],
      "name": "LinkAdded",
      "type": "event"
    },
    {
      "anonymous": false,
      "inputs": [
        {
          "indexed": false,
          "internalType": "uint256",
          "name": "readerIdentityId",
          "type": "uint256"
        },
        {
          "indexed": false,
          "internalType": "uint256",
          "name": "ownerIdentityId",
          "type": "uint256"
        },
        {
          "indexed": false,
          "internalType": "address",
          "name": "token",
          "type": "address"
        },
        {
          "indexed": false,
          "internalType": "uint256",
          "name": "tokenId",
          "type": "uint256"
        },
        {
          "indexed": false,
          "internalType": "uint256",
          "name": "signatureDate",
          "type": "uint256"
        },
        {
          "indexed": false,
          "internalType": "uint256",
          "name": "expirationDate",
          "type": "uint256"
        }
      ],
      "name": "LinkQuery",
      "type": "event"
    },
    {
      "anonymous": false,
      "inputs": [
        {
          "indexed": false,
          "internalType": "uint256",
          "name": "readerIdentityId",
          "type": "uint256"
        },
        {
          "indexed": false,
          "internalType": "uint256",
          "name": "ownerIdentityId",
          "type": "uint256"
        },
        {
          "indexed": false,
          "internalType": "address",
          "name": "token",
          "type": "address"
        },
        {
          "indexed": false,
          "internalType": "uint256",
          "name": "tokenId",
          "type": "uint256"
        },
        {
          "indexed": false,
          "internalType": "uint256",
          "name": "signatureDate",
          "type": "uint256"
        }
      ],
      "name": "LinkRevoked",
      "type": "event"
    },
    {
      "anonymous": false,
      "inputs": [
        {
          "indexed": true,
          "internalType": "address",
          "name": "previousOwner",
          "type": "address"
        },
        {
          "indexed": true,
          "internalType": "address",
          "name": "newOwner",
          "type": "address"
        }
      ],
      "name": "OwnershipTransferred",
      "type": "event"
    },
    {
      "anonymous": false,
      "inputs": [
        {
          "indexed": false,
          "internalType": "address",
          "name": "account",
          "type": "address"
        }
      ],
      "name": "Paused",
      "type": "event"
    },
    {
      "anonymous": false,
      "inputs": [
        {
          "indexed": false,
          "internalType": "address",
          "name": "account",
          "type": "address"
        }
      ],
      "name": "Unpaused",
      "type": "event"
    },
    {
      "inputs": [
        {
          "internalType": "address",
          "name": "paymentMethod",
          "type": "address"
        },
        {
          "internalType": "uint256",
          "name": "readerIdentityId",
          "type": "uint256"
        },
        {
          "internalType": "uint256",
          "name": "ownerIdentityId",
          "type": "uint256"
        },
        {
          "internalType": "address",
          "name": "token",
          "type": "address"
        },
        {
          "internalType": "uint256",
          "name": "tokenId",
          "type": "uint256"
        },
        {
          "internalType": "uint256",
          "name": "signatureDate",
          "type": "uint256"
        },
        {
          "internalType": "uint256",
          "name": "expirationDate",
          "type": "uint256"
        },
        {
          "internalType": "bytes",
          "name": "signature",
          "type": "bytes"
        }
      ],
      "name": "addLink",
      "outputs": [],
      "stateMutability": "payable",
      "type": "function"
    },
    {
      "inputs": [
        {
          "internalType": "address",
          "name": "_paymentMethod",
          "type": "address"
        }
      ],
      "name": "disablePaymentMethod",
      "outputs": [],
      "stateMutability": "nonpayable",
      "type": "function"
    },
    {
      "inputs": [
        {
          "internalType": "address",
          "name": "_paymentMethod",
          "type": "address"
        }
      ],
      "name": "enablePaymentMethod",
      "outputs": [],
      "stateMutability": "nonpayable",
      "type": "function"
    },
    {
      "inputs": [
        {
          "internalType": "address",
          "name": "",
          "type": "address"
        }
      ],
      "name": "enabledPaymentMethod",
      "outputs": [
        {
          "internalType": "bool",
          "name": "",
          "type": "bool"
        }
      ],
      "stateMutability": "view",
      "type": "function"
    },
    {
      "inputs": [
        {
          "internalType": "uint256",
          "name": "",
          "type": "uint256"
        }
      ],
      "name": "enabledPaymentMethods",
      "outputs": [
        {
          "internalType": "address",
          "name": "",
          "type": "address"
        }
      ],
      "stateMutability": "view",
      "type": "function"
    },
    {
      "inputs": [],
      "name": "getEnabledPaymentMethods",
      "outputs": [
        {
          "internalType": "address[]",
          "name": "",
          "type": "address[]"
        }
      ],
      "stateMutability": "view",
      "type": "function"
    },
    {
      "inputs": [
        {
          "internalType": "address",
          "name": "token",
          "type": "address"
        },
        {
          "internalType": "uint256",
          "name": "tokenId",
          "type": "uint256"
        }
      ],
      "name": "getIdentityId",
      "outputs": [
        {
          "internalType": "uint256",
          "name": "",
          "type": "uint256"
        }
      ],
      "stateMutability": "view",
      "type": "function"
    },
    {
      "inputs": [
        {
          "internalType": "address",
          "name": "token",
          "type": "address"
        },
        {
          "internalType": "uint256",
          "name": "tokenId",
          "type": "uint256"
        },
        {
          "internalType": "uint256",
          "name": "readerIdentityId",
          "type": "uint256"
        },
        {
          "internalType": "uint256",
          "name": "signatureDate",
          "type": "uint256"
        }
      ],
      "name": "getLinkInfo",
      "outputs": [
        {
          "components": [
            {
              "internalType": "bool",
              "name": "exists",
              "type": "bool"
            },
            {
              "internalType": "uint256",
              "name": "ownerIdentityId",
              "type": "uint256"
            },
            {
              "internalType": "uint256",
              "name": "expirationDate",
              "type": "uint256"
            },
            {
              "internalType": "bool",
              "name": "isRevoked",
              "type": "bool"
            }
          ],
          "internalType": "struct SoulLinker.LinkData",
          "name": "",
          "type": "tuple"
        }
      ],
      "stateMutability": "view",
      "type": "function"
    },
    {
      "inputs": [
        {
          "internalType": "address",
          "name": "token",
          "type": "address"
        },
        {
          "internalType": "uint256",
          "name": "tokenId",
          "type": "uint256"
        },
        {
          "internalType": "uint256",
          "name": "readerIdentityId",
          "type": "uint256"
        }
      ],
      "name": "getLinkSignatureDates",
      "outputs": [
        {
          "internalType": "uint256[]",
          "name": "",
          "type": "uint256[]"
        }
      ],
      "stateMutability": "view",
      "type": "function"
    },
    {
      "inputs": [
        {
          "internalType": "address",
          "name": "token",
          "type": "address"
        },
        {
          "internalType": "uint256",
          "name": "tokenId",
          "type": "uint256"
        }
      ],
      "name": "getLinks",
      "outputs": [
        {
          "components": [
            {
              "internalType": "uint256",
              "name": "readerIdentityId",
              "type": "uint256"
            },
            {
              "internalType": "uint256",
              "name": "signatureDate",
              "type": "uint256"
            }
          ],
          "internalType": "struct SoulLinker.LinkKey[]",
          "name": "",
          "type": "tuple[]"
        }
      ],
      "stateMutability": "view",
      "type": "function"
    },
    {
      "inputs": [
        {
          "internalType": "address",
          "name": "paymentMethod",
          "type": "address"
        },
        {
          "internalType": "address",
          "name": "token",
          "type": "address"
        }
      ],
      "name": "getPriceForAddLink",
      "outputs": [
        {
          "internalType": "uint256",
          "name": "",
          "type": "uint256"
        }
      ],
      "stateMutability": "view",
      "type": "function"
    },
    {
      "inputs": [
        {
          "internalType": "address",
          "name": "paymentMethod",
          "type": "address"
        },
        {
          "internalType": "address",
          "name": "token",
          "type": "address"
        }
      ],
      "name": "getPriceForQueryLink",
      "outputs": [
        {
          "internalType": "uint256",
          "name": "",
          "type": "uint256"
        }
      ],
      "stateMutability": "view",
      "type": "function"
    },
    {
      "inputs": [
        {
          "internalType": "uint256",
          "name": "identityId",
          "type": "uint256"
        },
        {
          "internalType": "address",
          "name": "token",
          "type": "address"
        }
      ],
      "name": "getSBTConnections",
      "outputs": [
        {
          "internalType": "uint256[]",
          "name": "",
          "type": "uint256[]"
        }
      ],
      "stateMutability": "view",
      "type": "function"
    },
    {
      "inputs": [
        {
          "internalType": "address",
          "name": "owner",
          "type": "address"
        },
        {
          "internalType": "address",
          "name": "token",
          "type": "address"
        }
      ],
      "name": "getSBTConnections",
      "outputs": [
        {
          "internalType": "uint256[]",
          "name": "",
          "type": "uint256[]"
        }
      ],
      "stateMutability": "view",
      "type": "function"
    },
    {
      "inputs": [],
      "name": "masaToken",
      "outputs": [
        {
          "internalType": "address",
          "name": "",
          "type": "address"
        }
      ],
      "stateMutability": "view",
      "type": "function"
    },
    {
      "inputs": [],
      "name": "owner",
      "outputs": [
        {
          "internalType": "address",
          "name": "",
          "type": "address"
        }
      ],
      "stateMutability": "view",
      "type": "function"
    },
    {
      "inputs": [],
      "name": "pause",
      "outputs": [],
      "stateMutability": "nonpayable",
      "type": "function"
    },
    {
      "inputs": [],
      "name": "paused",
      "outputs": [
        {
          "internalType": "bool",
          "name": "",
          "type": "bool"
        }
      ],
      "stateMutability": "view",
      "type": "function"
    },
    {
      "inputs": [
        {
          "internalType": "address",
          "name": "paymentMethod",
          "type": "address"
        },
        {
          "internalType": "uint256",
          "name": "readerIdentityId",
          "type": "uint256"
        },
        {
          "internalType": "uint256",
          "name": "ownerIdentityId",
          "type": "uint256"
        },
        {
          "internalType": "address",
          "name": "token",
          "type": "address"
        },
        {
          "internalType": "uint256",
          "name": "tokenId",
          "type": "uint256"
        },
        {
          "internalType": "uint256",
          "name": "signatureDate",
          "type": "uint256"
        },
        {
          "internalType": "uint256",
          "name": "expirationDate",
          "type": "uint256"
        },
        {
          "internalType": "bytes",
          "name": "signature",
          "type": "bytes"
        }
      ],
      "name": "queryLink",
      "outputs": [
        {
          "internalType": "bool",
          "name": "",
          "type": "bool"
        }
      ],
      "stateMutability": "payable",
      "type": "function"
    },
    {
      "inputs": [],
      "name": "renounceOwnership",
      "outputs": [],
      "stateMutability": "nonpayable",
      "type": "function"
    },
    {
      "inputs": [],
      "name": "reserveWallet",
      "outputs": [
        {
          "internalType": "address",
          "name": "",
          "type": "address"
        }
      ],
      "stateMutability": "view",
      "type": "function"
    },
    {
      "inputs": [
        {
          "internalType": "uint256",
          "name": "readerIdentityId",
          "type": "uint256"
        },
        {
          "internalType": "uint256",
          "name": "ownerIdentityId",
          "type": "uint256"
        },
        {
          "internalType": "address",
          "name": "token",
          "type": "address"
        },
        {
          "internalType": "uint256",
          "name": "tokenId",
          "type": "uint256"
        },
        {
          "internalType": "uint256",
          "name": "signatureDate",
          "type": "uint256"
        }
      ],
      "name": "revokeLink",
      "outputs": [],
      "stateMutability": "nonpayable",
      "type": "function"
    },
    {
      "inputs": [
        {
          "internalType": "address",
          "name": "_masaToken",
          "type": "address"
        }
      ],
      "name": "setMasaToken",
      "outputs": [],
      "stateMutability": "nonpayable",
      "type": "function"
    },
    {
      "inputs": [
        {
          "internalType": "address",
          "name": "_reserveWallet",
          "type": "address"
        }
      ],
      "name": "setReserveWallet",
      "outputs": [],
      "stateMutability": "nonpayable",
      "type": "function"
    },
    {
      "inputs": [
        {
          "internalType": "contract ISoulboundIdentity",
          "name": "_soulboundIdentity",
          "type": "address"
        }
      ],
      "name": "setSoulboundIdentity",
      "outputs": [],
      "stateMutability": "nonpayable",
      "type": "function"
    },
    {
      "inputs": [
        {
          "internalType": "address",
          "name": "_stableCoin",
          "type": "address"
        }
      ],
      "name": "setStableCoin",
      "outputs": [],
      "stateMutability": "nonpayable",
      "type": "function"
    },
    {
      "inputs": [
        {
          "internalType": "address",
          "name": "_swapRouter",
          "type": "address"
        }
      ],
      "name": "setSwapRouter",
      "outputs": [],
      "stateMutability": "nonpayable",
      "type": "function"
    },
    {
      "inputs": [
        {
          "internalType": "address",
          "name": "_wrappedNativeToken",
          "type": "address"
        }
      ],
      "name": "setWrappedNativeToken",
      "outputs": [],
      "stateMutability": "nonpayable",
      "type": "function"
    },
    {
      "inputs": [],
      "name": "soulboundIdentity",
      "outputs": [
        {
          "internalType": "contract ISoulboundIdentity",
          "name": "",
          "type": "address"
        }
      ],
      "stateMutability": "view",
      "type": "function"
    },
    {
      "inputs": [],
      "name": "stableCoin",
      "outputs": [
        {
          "internalType": "address",
          "name": "",
          "type": "address"
        }
      ],
      "stateMutability": "view",
      "type": "function"
    },
    {
      "inputs": [],
      "name": "swapRouter",
      "outputs": [
        {
          "internalType": "address",
          "name": "",
          "type": "address"
        }
      ],
      "stateMutability": "view",
      "type": "function"
    },
    {
      "inputs": [
        {
          "internalType": "address",
          "name": "newOwner",
          "type": "address"
        }
      ],
      "name": "transferOwnership",
      "outputs": [],
      "stateMutability": "nonpayable",
      "type": "function"
    },
    {
      "inputs": [],
      "name": "unpause",
      "outputs": [],
      "stateMutability": "nonpayable",
      "type": "function"
    },
    {
      "inputs": [
        {
          "internalType": "uint256",
          "name": "readerIdentityId",
          "type": "uint256"
        },
        {
          "internalType": "uint256",
          "name": "ownerIdentityId",
          "type": "uint256"
        },
        {
          "internalType": "address",
          "name": "token",
          "type": "address"
        },
        {
          "internalType": "uint256",
          "name": "tokenId",
          "type": "uint256"
        },
        {
          "internalType": "uint256",
          "name": "signatureDate",
          "type": "uint256"
        }
      ],
      "name": "validateLink",
      "outputs": [
        {
          "internalType": "bool",
          "name": "",
          "type": "bool"
        }
      ],
      "stateMutability": "view",
      "type": "function"
    },
    {
      "inputs": [],
      "name": "wrappedNativeToken",
      "outputs": [
        {
          "internalType": "address",
          "name": "",
          "type": "address"
        }
      ],
      "stateMutability": "view",
      "type": "function"
    }
  ],
  "transactionHash": "0x1071370aff5c622e322dafc8dac5e128677292c5a40ad60502fc5a82bea294d0",
  "args": [
    "0xA38dd237a3A8D50537B74a4B0D4E7E8A5359386F",
    "0x78A660183257C4699a57a2D85a7Cf49b4DA75A6E",
    [
      "0x7a250d5630B4cF539739dF2C5dAcb4c659F2488D",
      "0xB4FBF271143F4FBf7B91A5ded31805e42b2208d6",
      "0xD87Ba7A50B2E7E660f678A895E4B72E7CB4CCd9C",
      "0x1f9840a85d5aF5bf1D1762F925BDADdC4201F984",
      "0xA38dd237a3A8D50537B74a4B0D4E7E8A5359386F"
    ]
  ],
  "numDeployments": 8,
  "solcInputHash": "430d5bd70aae8632a0c5740ffca098cf",
  "bytecode": "0x6101406040523480156200001257600080fd5b506040516200455238038062004552833981016040819052620000359162000448565b6040518060400160405280600a81526020016929b7bab62634b735b2b960b11b815250604051806040016040528060058152602001640312e302e360dc1b8152508483620000926200008c6200028b60201b60201c565b6200028f565b80516001600160a01b0316620000bb5760405163d92e233d60e01b815260040160405180910390fd5b60208101516001600160a01b0316620000e75760405163d92e233d60e01b815260040160405180910390fd5b60408101516001600160a01b0316620001135760405163d92e233d60e01b815260040160405180910390fd5b60808101516001600160a01b03166200013f5760405163d92e233d60e01b815260040160405180910390fd5b6200015582620002df60201b6200245d1760201c565b8051600180546001600160a01b03199081166001600160a01b03938416179091556020808401516002805484169185169190911790556040840151600380548416918516919091179055606084015160048054841691851691909117905560809093015160078054909216921691909117905583518482012083519184019190912060e08290526101008190524660a0529091507f8b73c3c69bb8fe3d512ecc4cf759cc79239f7b179b0ffacaa9a75d522b39400f6200021781848462000329565b6080523060601b60c0526101205250506007805460ff60a01b19169055505060016008556001600160a01b038216620002635760405163d92e233d60e01b815260040160405180910390fd5b50600980546001600160a01b0319166001600160a01b03929092169190911790555062000639565b3390565b600080546001600160a01b038381166001600160a01b0319831681178455604051919092169283917f8be0079c531659141344cd1fd0a4f28419497f9722a3daafe3b4186f6b6457e09190a35050565b620002e962000365565b6001600160a01b0381166200031b5760405162461bcd60e51b815260040162000312906200050e565b60405180910390fd5b62000326816200028f565b50565b6000838383463060405160200162000346959493929190620004b8565b6040516020818303038152906040528051906020012090509392505050565b6000546001600160a01b03163314620003925760405162461bcd60e51b8152600401620003129062000559565b565b8051620003a18162000617565b92915050565b8051620003a1816200062e565b600060a08284031215620003cb57620003cb600080fd5b620003d760a062000594565b90506000620003e7848462000394565b8252506020620003fa8484830162000394565b6020830152506040620004108482850162000394565b6040830152506060620004268482850162000394565b60608301525060806200043c8482850162000394565b60808301525092915050565b600080600060e08486031215620004625762000462600080fd5b600062000470868662000394565b93505060206200048386828701620003a7565b92505060406200049686828701620003b4565b9150509250925092565b620004ab81620005b3565b82525050565b80620004ab565b60a08101620004c88288620004b1565b620004d76020830187620004b1565b620004e66040830186620004b1565b620004f56060830185620004b1565b620005046080830184620004a0565b9695505050505050565b60208082528101620003a181602681527f4f776e61626c653a206e6577206f776e657220697320746865207a65726f206160208201526564647265737360d01b604082015260600190565b60208082528181019081527f4f776e61626c653a2063616c6c6572206973206e6f7420746865206f776e6572604083015260608201620003a1565b6000620005a060405190565b9050620005ae8282620005d2565b919050565b60006001600160a01b038216620003a1565b6000620003a182620005b3565b601f19601f83011681018181106001600160401b0382111715620005fa57620005fa62000601565b6040525050565b634e487b7160e01b600052604160045260246000fd5b6200062281620005b3565b81146200032657600080fd5b6200062281620005c5565b60805160a05160c05160601c60e0516101005161012051613ec66200068c6000396000612ab001526000612af201526000612ad101526000612a3501526000612a5f01526000612a890152613ec66000f3fe6080604052600436106101945760003560e01c80630513c3e91461019957806310200519146101cf57806317fcb39b146101f157806323af4e171461021157806323bdcdcd1461023357806336d4aa74146102535780633ad3033e146102805780633ad39d86146102a05780633f4ba83a146102c057806341273657146102d55780634c3665a6146102f55780635c6ca533146103225780635c975abb1461034f57806365d33b5e14610364578063715018a61461038457806376ad19971461039957806377bed5ed146103b95780637a0d1646146103e657806380776ac4146104165780638456cb59146104365780638da5cb5b1461044b57806394a665e91461046057806397bc2e0d14610480578063992642e5146104a0578063ad99e293146104c0578063c31c9c07146104e0578063c4f92e4c14610500578063c726649a14610513578063c86aadb614610540578063d72b11bd14610560578063da058ae314610580578063dda4fa8f146105a0578063e8d1cb6a146105c0578063ebda4396146105e0578063f2fde38b14610600575b600080fd5b3480156101a557600080fd5b506101b96101b436600461345c565b610620565b6040516101c691906139c6565b60405180910390f35b3480156101db57600080fd5b506101e461064a565b6040516101c69190613a4c565b3480156101fd57600080fd5b506002546101b9906001600160a01b031681565b34801561021d57600080fd5b5061023161022c3660046131a9565b6106ac565b005b6102466102413660046132ab565b61072c565b6040516101c69190613a7f565b34801561025f57600080fd5b5061027361026e36600461325b565b610a9b565b6040516101c69190613a6e565b34801561028c57600080fd5b5061023161029b36600461343b565b610b1a565b3480156102ac57600080fd5b506102736102bb36600461349e565b610b9a565b3480156102cc57600080fd5b50610231610c36565b3480156102e157600080fd5b506102316102f03660046131a9565b610c48565b34801561030157600080fd5b506103156103103660046131eb565b610cc8565b6040516101c69190613c2f565b34801561032e57600080fd5b5061034261033d36600461337c565b610eaf565b6040516101c69190613c21565b34801561035b57600080fd5b50610246610f48565b34801561037057600080fd5b5061024661037f3660046134c0565b610f58565b34801561039057600080fd5b50610231611172565b3480156103a557600080fd5b506102316103b43660046131a9565b611184565b3480156103c557600080fd5b506009546103d9906001600160a01b031681565b6040516101c69190613b52565b3480156103f257600080fd5b506102466104013660046131a9565b60056020526000908152604090205460ff1681565b34801561042257600080fd5b50610315610431366004613228565b6111dd565b34801561044257600080fd5b506102316112dd565b34801561045757600080fd5b506101b96112ed565b34801561046c57600080fd5b5061023161047b3660046131a9565b6112fc565b34801561048c57600080fd5b5061023161049b3660046134c0565b611469565b3480156104ac57600080fd5b506003546101b9906001600160a01b031681565b3480156104cc57600080fd5b506102736104db3660046131eb565b6118b4565b3480156104ec57600080fd5b506001546101b9906001600160a01b031681565b61023161050e3660046132ab565b611a3d565b34801561051f57600080fd5b5061053361052e366004613228565b611f4d565b6040516101c69190613a5d565b34801561054c57600080fd5b5061023161055b3660046131a9565b612204565b34801561056c57600080fd5b506007546101b9906001600160a01b031681565b34801561058c57600080fd5b5061023161059b3660046131a9565b6122ac565b3480156105ac57600080fd5b506102316105bb3660046131a9565b61232c565b3480156105cc57600080fd5b506103156105db3660046131eb565b6123ac565b3480156105ec57600080fd5b506004546101b9906001600160a01b031681565b34801561060c57600080fd5b5061023161061b3660046131a9565b61245d565b6006818154811061063057600080fd5b6000918252602090912001546001600160a01b0316905081565b606060068054806020026020016040519081016040528092919081815260200182805480156106a257602002820191906000526020600020905b81546001600160a01b03168152600190910190602001808311610684575b5050505050905090565b6106b4612497565b6001600160a01b0381166106db5760405163d92e233d60e01b815260040160405180910390fd5b6003546001600160a01b038281169116141561070a5760405163c23f6ccb60e01b815260040160405180910390fd5b600380546001600160a01b0319166001600160a01b0392909216919091179055565b60006107366124c6565b6009546040516331a9108f60e11b81526000916001600160a01b031690636352211e90610767908c90600401613c2f565b60206040518083038186803b15801561077f57600080fd5b505afa158015610793573d6000803e3d6000fd5b505050506040513d601f19601f820116820180604052508101906107b791906131ca565b6009546040516331a9108f60e11b81529192506000916001600160a01b0390911690636352211e906107ed908e90600401613c2f565b60206040518083038186803b15801561080557600080fd5b505afa158015610819573d6000803e3d6000fd5b505050506040513d601f19601f8201168201806040525081019061083d91906131ca565b90506000896001600160a01b0316636352211e8a6040518263ffffffff1660e01b815260040161086d9190613c2f565b60206040518083038186803b15801561088557600080fd5b505afa158015610899573d6000803e3d6000fd5b505050506040513d601f19601f820116820180604052508101906108bd91906131ca565b9050806001600160a01b0316836001600160a01b0316146108fe57888b6040516308c931fb60e21b81526004016108f5929190613c5d565b60405180910390fd5b6001600160a01b038216331461092a57335b604051635b1eee2960e01b81526004016108f591906139c6565b8b8b141561094d578b604051634c804ffb60e01b81526004016108f59190613c2f565b4287101561097057866040516323928a2960e11b81526004016108f59190613c2f565b6001600160a01b038a166000908152600a602090815260408083208c845282528083208f845282528083208b845290915290206003015460ff16156109c85760405163a5bfec4360e01b815260040160405180910390fd5b610a176109d98d8d8d8d8d8d6124eb565b87878080601f016020809104026020016040519081016040528093929190818152602001838380828437600092019190915250889250612555915050565b610a3457604051638baa579f60e01b815260040160405180910390fd5b610a478d610a428f8d6123ac565b61257d565b7f46d86186a18e889584ffd90b659a04626eca3fea8324c9be42cb4d860b6691058c8c8c8c8c8c604051610a8096959493929190613cad565b60405180910390a15060019c9b505050505050505050505050565b6001600160a01b0383166000908152600c602090815260408083208584528252808320848452825291829020805483518184028101840190945280845260609392830182828015610b0b57602002820191906000526020600020905b815481526020019060010190808311610af7575b505050505090505b9392505050565b610b22612497565b6001600160a01b038116610b495760405163d92e233d60e01b815260040160405180910390fd5b6009546001600160a01b0382811691161415610b785760405163c23f6ccb60e01b815260040160405180910390fd5b600980546001600160a01b0319166001600160a01b0392909216919091179055565b6009546040516331a9108f60e11b81526060916000916001600160a01b0390911690636352211e90610bd0908790600401613c2f565b60206040518083038186803b158015610be857600080fd5b505afa158015610bfc573d6000803e3d6000fd5b505050506040513d601f19601f82011682018060405250810190610c2091906131ca565b9050610c2c81846118b4565b9150505b92915050565b610c3e612497565b610c4661272a565b565b610c50612497565b6001600160a01b038116610c775760405163d92e233d60e01b815260040160405180910390fd5b6001546001600160a01b0382811691161415610ca65760405163c23f6ccb60e01b815260040160405180910390fd5b600180546001600160a01b0319166001600160a01b0392909216919091179055565b600080826001600160a01b0316631f37c1246040518163ffffffff1660e01b815260040160206040518083038186803b158015610d0457600080fd5b505afa158015610d18573d6000803e3d6000fd5b505050506040513d601f19601f82011682018060405250810190610d3c919061347d565b90506000836001600160a01b031663776d1a546040518163ffffffff1660e01b815260040160206040518083038186803b158015610d7957600080fd5b505afa158015610d8d573d6000803e3d6000fd5b505050506040513d601f19601f82011682018060405250810190610db1919061347d565b905081158015610dbf575080155b15610dcf57600092505050610c30565b6004546001600160a01b038681169116148015610e0457506001600160a01b03851660009081526005602052604090205460ff165b8015610e105750600081115b15610e1e579150610c309050565b6003546001600160a01b038681169116148015610e5357506001600160a01b03851660009081526005602052604090205460ff165b15610e6057509050610c30565b6001600160a01b03851660009081526005602052604090205460ff1615610e9457610e8b8583612779565b92505050610c30565b84604051630ac29ab760e31b81526004016108f591906139c6565b604080516080810182526000808252602082018190529181018290526060810191909152506001600160a01b0384166000908152600a60209081526040808320868452825280832085845282528083208484528252918290208251608081018452815460ff908116151582526001830154938201939093526002820154938101939093526003015416151560608201525b949350505050565b600754600160a01b900460ff1690565b6009546040516331a9108f60e11b815260009182916001600160a01b0390911690636352211e90610f8d908990600401613c2f565b60206040518083038186803b158015610fa557600080fd5b505afa158015610fb9573d6000803e3d6000fd5b505050506040513d601f19601f82011682018060405250810190610fdd91906131ca565b90506000856001600160a01b0316636352211e866040518263ffffffff1660e01b815260040161100d9190613c2f565b60206040518083038186803b15801561102557600080fd5b505afa158015611039573d6000803e3d6000fd5b505050506040513d601f19601f8201168201806040525081019061105d91906131ca565b6001600160a01b038088166000908152600a602090815260408083208a845282528083208d845282528083208984528252918290208251608081018452815460ff90811615158252600183015493820193909352600282015493810193909352600301541615156060820152919250838116908316146110f45785886040516308c931fb60e21b81526004016108f5929190613c5d565b8051611113576040516306fc59f560e51b815260040160405180910390fd5b428160400151101561113e5780604001516040516323928a2960e11b81526004016108f59190613c2f565b8060600151156111615760405163a5bfec4360e01b815260040160405180910390fd5b600193505050505b95945050505050565b61117a612497565b610c466000612818565b61118c612497565b6004546001600160a01b03828116911614156111bb5760405163c23f6ccb60e01b815260040160405180910390fd5b600480546001600160a01b0319166001600160a01b0392909216919091179055565b600080836001600160a01b0316636352211e846040518263ffffffff1660e01b815260040161120c9190613c2f565b60206040518083038186803b15801561122457600080fd5b505afa158015611238573d6000803e3d6000fd5b505050506040513d601f19601f8201168201806040525081019061125c91906131ca565b60095460405163294cdf0d60e01b81529192506001600160a01b03169063294cdf0d9061128d9084906004016139c6565b60206040518083038186803b1580156112a557600080fd5b505afa1580156112b9573d6000803e3d6000fd5b505050506040513d601f19601f82011682018060405250810190610c2c919061347d565b6112e5612497565b610c46612868565b6000546001600160a01b031690565b611304612497565b6001600160a01b03811660009081526005602052604090205460ff1661133f57806040516318317bd560e01b81526004016108f591906139c6565b6001600160a01b0381166000908152600560205260408120805460ff191690555b60065481101561146557816001600160a01b03166006828154811061138757611387613e2f565b6000918252602090912001546001600160a01b0316141561145357600680546113b290600190613d3b565b815481106113c2576113c2613e2f565b600091825260209091200154600680546001600160a01b0390921691839081106113ee576113ee613e2f565b9060005260206000200160006101000a8154816001600160a01b0302191690836001600160a01b03160217905550600680548061142d5761142d613e19565b600082815260209020810160001990810180546001600160a01b03191690550190555050565b8061145d81613dd2565b915050611360565b5050565b6114716124c6565b6009546040516331a9108f60e11b81526000916001600160a01b031690636352211e906114a2908890600401613c2f565b60206040518083038186803b1580156114ba57600080fd5b505afa1580156114ce573d6000803e3d6000fd5b505050506040513d601f19601f820116820180604052508101906114f291906131ca565b90506000846001600160a01b0316636352211e856040518263ffffffff1660e01b81526004016115229190613c2f565b60206040518083038186803b15801561153a57600080fd5b505afa15801561154e573d6000803e3d6000fd5b505050506040513d601f19601f8201168201806040525081019061157291906131ca565b9050806001600160a01b0316826001600160a01b0316146115aa5783866040516308c931fb60e21b81526004016108f5929190613c5d565b6001600160a01b03821633146115d5573360405163060296c760e31b81526004016108f591906139c6565b868614156115f85786604051634c804ffb60e01b81526004016108f59190613c2f565b6001600160a01b0385166000908152600a6020908152604080832087845282528083208a8452825280832086845290915290206003015460ff16156116505760405163a5bfec4360e01b815260040160405180910390fd5b6001600160a01b0385166000908152600a6020908152604080832087845282528083208a8452825280832086845290915290205460ff16156116d2576001600160a01b0385166000908152600a6020908152604080832087845282528083208a845282528083208684529091529020600301805460ff1916600117905561186c565b60405180608001604052806001151581526020018781526020016000815260200160011515815250600a6000876001600160a01b03166001600160a01b0316815260200190815260200160002060008681526020019081526020016000206000898152602001908152602001600020600085815260200190815260200160002060008201518160000160006101000a81548160ff021916908315150217905550602082015181600101556040820151816002015560608201518160030160006101000a81548160ff021916908315150217905550905050600c6000866001600160a01b03166001600160a01b03168152602001908152602001600020600085815260200190815260200160002060008881526020019081526020016000208054905060001415611830576001600160a01b0385166000908152600b602090815260408083208784528252822080546001810182559083529120018790555b6001600160a01b0385166000908152600c6020908152604080832087845282528083208a84528252822080546001810182559083529120018390555b7f92f7f09e974ff9834968d6e74bc08965827de4279f16b8534542ed570c8d265a87878787876040516118a3959493929190613c6b565b60405180910390a150505050505050565b60606000826001600160a01b03166370a08231856040518263ffffffff1660e01b81526004016118e491906139c6565b60206040518083038186803b1580156118fc57600080fd5b505afa158015611910573d6000803e3d6000fd5b505050506040513d601f19601f82011682018060405250810190611934919061347d565b90506000816001600160401b0381111561195057611950613e45565b604051908082528060200260200182016040528015611979578160200160208202803683370190505b50905060005b82811015611a3457604051632f745c5960e01b81526001600160a01b03861690632f745c59906119b590899085906004016139fc565b60206040518083038186803b1580156119cd57600080fd5b505afa1580156119e1573d6000803e3d6000fd5b505050506040513d601f19601f82011682018060405250810190611a05919061347d565b828281518110611a1757611a17613e2f565b602090810291909101015280611a2c81613dd2565b91505061197f565b50949350505050565b611a456124c6565b60026008541415611a685760405162461bcd60e51b81526004016108f590613c11565b60026008556009546040516331a9108f60e11b81526000916001600160a01b031690636352211e90611a9e908b90600401613c2f565b60206040518083038186803b158015611ab657600080fd5b505afa158015611aca573d6000803e3d6000fd5b505050506040513d601f19601f82011682018060405250810190611aee91906131ca565b6009546040516331a9108f60e11b81529192506000916001600160a01b0390911690636352211e90611b24908d90600401613c2f565b60206040518083038186803b158015611b3c57600080fd5b505afa158015611b50573d6000803e3d6000fd5b505050506040513d601f19601f82011682018060405250810190611b7491906131ca565b90506000886001600160a01b0316636352211e896040518263ffffffff1660e01b8152600401611ba49190613c2f565b60206040518083038186803b158015611bbc57600080fd5b505afa158015611bd0573d6000803e3d6000fd5b505050506040513d601f19601f82011682018060405250810190611bf491906131ca565b9050806001600160a01b0316836001600160a01b031614611c2c57878a6040516308c931fb60e21b81526004016108f5929190613c5d565b6001600160a01b0382163314611c425733610910565b8a8a1415611c65578a604051634c804ffb60e01b81526004016108f59190613c2f565b42861015611c8857856040516323928a2960e11b81526004016108f59190613c2f565b6001600160a01b0389166000908152600a602090815260408083208b845282528083208e845282528083208a845290915290205460ff1615611ce55788888c89604051631d4f346360e11b81526004016108f59493929190613a17565b611d34611cf68c8c8c8c8c8c6124eb565b86868080601f016020809104026020016040519081016040528093929190818152602001838380828437600092019190915250889250612555915050565b611d5157604051638baa579f60e01b815260040160405180910390fd5b611d5f8c610a428e8c610cc8565b60405180608001604052806001151581526020018b815260200187815260200160001515815250600a60008b6001600160a01b03166001600160a01b0316815260200190815260200160002060008a815260200190815260200160002060008d8152602001908152602001600020600089815260200190815260200160002060008201518160000160006101000a81548160ff021916908315150217905550602082015181600101556040820151816002015560608201518160030160006101000a81548160ff021916908315150217905550905050600c60008a6001600160a01b03166001600160a01b03168152602001908152602001600020600089815260200190815260200160002060008c81526020019081526020016000208054905060001415611ebc576001600160a01b0389166000908152600b602090815260408083208b84528252822080546001810182559083529120018b90555b6001600160a01b0389166000908152600c602090815260408083208b845282528083208e8452825280832080546001810182559084529190922001889055517fd0b60e92dff77ab3cd9ee6e52ef2c13a955a95365dc6fdce28e719275dc387ac90611f32908d908d908d908d908d908d90613cad565b60405180910390a15050600160085550505050505050505050565b60606000805b6001600160a01b0385166000908152600b6020908152604080832087845290915290205481101561202b576001600160a01b0385166000908152600b602090815260408083208784529091528120805483908110611fb357611fb3613e2f565b9060005260206000200154905060005b6001600160a01b0387166000908152600c602090815260408083208984528252808320858452909152902054811015612016578361200081613dd2565b945050808061200e90613dd2565b915050611fc3565b5050808061202390613dd2565b915050611f53565b506000816001600160401b0381111561204657612046613e45565b60405190808252806020026020018201604052801561208b57816020015b60408051808201909152600080825260208201528152602001906001900390816120645790505b5090506000805b6001600160a01b0387166000908152600b602090815260408083208984529091529020548110156121f9576001600160a01b0387166000908152600b6020908152604080832089845290915281208054839081106120f2576120f2613e2f565b9060005260206000200154905060005b6001600160a01b0389166000908152600c602090815260408083208b845282528083208584529091529020548110156121e4576001600160a01b0389166000908152600c602090815260408083208b84528252808320858452909152812080548390811061217257612172613e2f565b906000526020600020015490508286868151811061219257612192613e2f565b60200260200101516000018181525050808686815181106121b5576121b5613e2f565b6020908102919091018101510152846121cd81613dd2565b9550505080806121dc90613dd2565b915050612102565b505080806121f190613dd2565b915050612092565b509095945050505050565b61220c612497565b6001600160a01b03811660009081526005602052604090205460ff16156122465760405163f411c32760e01b815260040160405180910390fd5b6001600160a01b03166000818152600560205260408120805460ff191660019081179091556006805491820181559091527ff652222313e28459528d920b65115c16c04f3efc82aaedc97be59f3f377c0d3f0180546001600160a01b0319169091179055565b6122b4612497565b6001600160a01b0381166122db5760405163d92e233d60e01b815260040160405180910390fd5b6002546001600160a01b038281169116141561230a5760405163c23f6ccb60e01b815260040160405180910390fd5b600280546001600160a01b0319166001600160a01b0392909216919091179055565b612334612497565b6001600160a01b03811661235b5760405163d92e233d60e01b815260040160405180910390fd5b6007546001600160a01b038281169116141561238a5760405163c23f6ccb60e01b815260040160405180910390fd5b600780546001600160a01b0319166001600160a01b0392909216919091179055565b600080826001600160a01b031663b97d6b236040518163ffffffff1660e01b815260040160206040518083038186803b1580156123e857600080fd5b505afa1580156123fc573d6000803e3d6000fd5b505050506040513d601f19601f82011682018060405250810190612420919061347d565b90506000836001600160a01b03166313150b486040518163ffffffff1660e01b815260040160206040518083038186803b158015610d7957600080fd5b612465612497565b6001600160a01b03811661248b5760405162461bcd60e51b81526004016108f590613ba1565b61249481612818565b50565b336124a06112ed565b6001600160a01b031614610c465760405162461bcd60e51b81526004016108f590613be1565b6124ce610f48565b15610c465760405162461bcd60e51b81526004016108f590613bc1565b60006125487f7ff3a592f7e3c4640523a26490b66609c72eac880180ec2f1e57116c74f07cce88888888888860405160200161252d9796959493929190613acf565b604051602081830303815290604052805190602001206128ab565b90505b9695505050505050565b6000816001600160a01b031661256b85856128be565b6001600160a01b031614949350505050565b80612586575050565b6001600160a01b03821660009081526005602052604090205460ff166125c15781604051630ac29ab760e31b81526004016108f591906139c6565b6001600160a01b03821661270e57803410156125f2578060405163091a6d0f60e01b81526004016108f59190613c2f565b6007546040516000916001600160a01b0316908390612610906139be565b60006040518083038185875af1925050503d806000811461264d576040519150601f19603f3d011682016040523d82523d6000602084013e612652565b606091505b5050905080612674576040516312171d8360e31b815260040160405180910390fd5b8134111561270957600061268834846128e2565b9050336001600160a01b0316816040516126a1906139be565b60006040518083038185875af1925050503d80600081146126de576040519150601f19603f3d011682016040523d82523d6000602084013e6126e3565b606091505b5050809250508161270757604051633c31275160e21b815260040160405180910390fd5b505b505050565b600754611465906001600160a01b0384811691339116846128ee565b612732612946565b6007805460ff60a01b191690557f5db9ee0a495bf2e6ff9c91a7834c1ba4fdd244a5e8aa4e537bd38aeae4b073aa335b60405161276f91906139c6565b60405180910390a1565b6001600160a01b03821660009081526005602052604081205460ff1615806127ae57506003546001600160a01b038481169116145b156127ce578260405163961c9a4f60e01b81526004016108f591906139c6565b6001600160a01b038316612800576002546003546127f9916001600160a01b0390811691168461296a565b9050610c30565b6003546127f99084906001600160a01b03168461296a565b600080546001600160a01b038381166001600160a01b0319831681178455604051919092169283917f8be0079c531659141344cd1fd0a4f28419497f9722a3daafe3b4186f6b6457e09190a35050565b6128706124c6565b6007805460ff60a01b1916600160a01b1790557f62e78cea01bee320cd4e420270b5ea74000d11b0c9f74754ebdbfc544b05a2586127623390565b6000610c306128b8612a28565b83612b1b565b60008060006128cd8585612b4e565b915091506128da81612b94565b509392505050565b6000610b138284613d3b565b612707846323b872dd60e01b85858560405160240161290f939291906139d4565b60408051601f198184030181529190526020810180516001600160e01b03166001600160e01b031990931692909217909152612c79565b61294e610f48565b610c465760405162461bcd60e51b81526004016108f590613b81565b60006060806129798686612d08565b6001546040516307c0329d60e21b81529192506001600160a01b031690631f00ca74906129ac9087908590600401613c3d565b60006040518083038186803b1580156129c457600080fd5b505afa1580156129d8573d6000803e3d6000fd5b505050506040513d6000823e601f3d908101601f19168201604052612a0091908101906133e0565b915081600081518110612a1557612a15613e2f565b6020026020010151925050509392505050565b6000306001600160a01b037f000000000000000000000000000000000000000000000000000000000000000016148015612a8157507f000000000000000000000000000000000000000000000000000000000000000046145b15612aab57507f000000000000000000000000000000000000000000000000000000000000000090565b612b167f00000000000000000000000000000000000000000000000000000000000000007f00000000000000000000000000000000000000000000000000000000000000007f0000000000000000000000000000000000000000000000000000000000000000612e9a565b905090565b60008282604051602001612b3092919061398d565b60405160208183030381529060405280519060200120905092915050565b600080825160411415612b855760208301516040840151606085015160001a612b7987828585612ed4565b94509450505050612b8d565b506000905060025b9250929050565b6000816004811115612ba857612ba8613e03565b1415612bb15750565b6001816004811115612bc557612bc5613e03565b1415612be35760405162461bcd60e51b81526004016108f590613b71565b6002816004811115612bf757612bf7613e03565b1415612c155760405162461bcd60e51b81526004016108f590613b91565b6003816004811115612c2957612c29613e03565b1415612c475760405162461bcd60e51b81526004016108f590613bb1565b6004816004811115612c5b57612c5b613e03565b14156124945760405162461bcd60e51b81526004016108f590613bd1565b6000612cce826040518060400160405280602081526020017f5361666545524332303a206c6f772d6c6576656c2063616c6c206661696c6564815250856001600160a01b0316612faa9092919063ffffffff16565b8051909150156127095780806020019051810190612cec919061341a565b6127095760405162461bcd60e51b81526004016108f590613c01565b6002546060906001600160a01b0384811691161480612d3457506002546001600160a01b038381169116145b15612dfe57604080516002808252606082018352600092602083019080368337019050506002549091506001600160a01b03858116911614612d765783612d83565b6002546001600160a01b03165b81600081518110612d9657612d96613e2f565b6001600160a01b039283166020918202929092010152600254848216911614612dbf5782612dcc565b6002546001600160a01b03165b81600181518110612ddf57612ddf613e2f565b6001600160a01b03909216602092830291909101909101529050610c30565b60408051600380825260808201909252600091602082016060803683370190505090508381600081518110612e3557612e35613e2f565b6001600160a01b039283166020918202929092010152600254825191169082906001908110612e6657612e66613e2f565b60200260200101906001600160a01b031690816001600160a01b0316815250508281600281518110612ddf57612ddf613e2f565b60008383834630604051602001612eb5959493929190613a8d565b6040516020818303038152906040528051906020012090509392505050565b6000806fa2a8918ca85bafe22016d0b997e4df60600160ff1b03831115612f015750600090506003612fa1565b8460ff16601b14158015612f1957508460ff16601c14155b15612f2a5750600090506004612fa1565b600060018787878760405160008152602001604052604051612f4f9493929190613b37565b6020604051602081039080840390855afa158015612f71573d6000803e3d6000fd5b5050604051601f1901519150506001600160a01b038116612f9a57600060019250925050612fa1565b9150600090505b94509492505050565b6060610f408484600085856001600160a01b0385163b612fdc5760405162461bcd60e51b81526004016108f590613bf1565b600080866001600160a01b03168587604051612ff89190613981565b60006040518083038185875af1925050503d8060008114613035576040519150601f19603f3d011682016040523d82523d6000602084013e61303a565b606091505b509150915061304a828286613055565b979650505050505050565b60608315613064575081610b13565b8251156130745782518084602001fd5b8160405162461bcd60e51b81526004016108f59190613b60565b60006130a161309c84613d18565b613cfc565b905080838252602082019050828560208602820111156130c3576130c3600080fd5b60005b858110156130ef57816130d9888261319e565b84525060209283019291909101906001016130c6565b5050509392505050565b8035610c3081613e65565b8051610c3081613e65565b600082601f83011261312357613123600080fd5b8151610c2c84826020860161308e565b8051610c3081613e79565b60008083601f84011261315357613153600080fd5b5081356001600160401b0381111561316d5761316d600080fd5b602083019150836001820283011115612b8d57612b8d600080fd5b8035610c3081613e81565b8035610c3081613e8a565b8051610c3081613e8a565b6000602082840312156131be576131be600080fd5b6000610c2c84846130f9565b6000602082840312156131df576131df600080fd5b6000610c2c8484613104565b6000806040838503121561320157613201600080fd5b600061320d85856130f9565b925050602061321e858286016130f9565b9150509250929050565b6000806040838503121561323e5761323e600080fd5b600061324a85856130f9565b925050602061321e85828601613193565b60008060006060848603121561327357613273600080fd5b600061327f86866130f9565b935050602061329086828701613193565b92505060406132a186828701613193565b9150509250925092565b60008060008060008060008060006101008a8c0312156132cd576132cd600080fd5b60006132d98c8c6130f9565b99505060206132ea8c828d01613193565b98505060406132fb8c828d01613193565b975050606061330c8c828d016130f9565b965050608061331d8c828d01613193565b95505060a061332e8c828d01613193565b94505060c061333f8c828d01613193565b93505060e08a01356001600160401b0381111561335e5761335e600080fd5b61336a8c828d0161313e565b92509250509295985092959850929598565b6000806000806080858703121561339557613395600080fd5b60006133a187876130f9565b94505060206133b287828801613193565b93505060406133c387828801613193565b92505060606133d487828801613193565b91505092959194509250565b6000602082840312156133f5576133f5600080fd5b81516001600160401b0381111561340e5761340e600080fd5b610c2c8482850161310f565b60006020828403121561342f5761342f600080fd5b6000610c2c8484613133565b60006020828403121561345057613450600080fd5b6000610c2c8484613188565b60006020828403121561347157613471600080fd5b6000610c2c8484613193565b60006020828403121561349257613492600080fd5b6000610c2c848461319e565b600080604083850312156134b4576134b4600080fd5b600061320d8585613193565b600080600080600060a086880312156134db576134db600080fd5b60006134e78888613193565b95505060206134f888828901613193565b9450506040613509888289016130f9565b935050606061351a88828901613193565b925050608061352b88828901613193565b9150509295509295909350565b6000613544838361356c565b505060200190565b60006135588383613954565b505060400190565b60006135448383613648565b61357581613d52565b82525050565b6000613585825190565b80845260209384019383018060005b838110156135b95781516135a88882613538565b975060208301925050600101613594565b509495945050505050565b60006135ce825190565b80845260209384019383018060005b838110156135b95781516135f1888261354c565b9750602083019250506001016135dd565b600061360c825190565b80845260209384019383018060005b838110156135b957815161362f8882613560565b97506020830192505060010161361b565b801515613575565b80613575565b6000613658825190565b613666818560208601613d79565b9290920192915050565b61357581613d6e565b6000613683825190565b80845260208401935061369a818560208601613d79565b6136a381613e5b565b9093019392505050565b601881526000602082017745434453413a20696e76616c6964207369676e617475726560401b815291505b5060200190565b601481526000602082017314185d5cd8589b194e881b9bdd081c185d5cd95960621b815291506136d8565b601f81526000602082017f45434453413a20696e76616c6964207369676e6174757265206c656e67746800815291506136d8565b602681526000602082017f4f776e61626c653a206e6577206f776e657220697320746865207a65726f206181526564647265737360d01b602082015291505b5060400190565b602281526000602082017f45434453413a20696e76616c6964207369676e6174757265202773272076616c815261756560f01b6020820152915061377d565b601081526000602082016f14185d5cd8589b194e881c185d5cd95960821b815291506136d8565b602281526000602082017f45434453413a20696e76616c6964207369676e6174757265202776272076616c815261756560f01b6020820152915061377d565b60208082527f4f776e61626c653a2063616c6c6572206973206e6f7420746865206f776e6572910190815260006136d8565b601d81526000602082017f416464726573733a2063616c6c20746f206e6f6e2d636f6e7472616374000000815291506136d8565b602a81526000602082017f5361666545524332303a204552433230206f7065726174696f6e20646964206e8152691bdd081cdd58d8d9595960b21b6020820152915061377d565b601f81526000602082017f5265656e7472616e637947756172643a207265656e7472616e742063616c6c00815291506136d8565b8051608083019061391b8482613640565b50602082015161392e6020850182613648565b5060408201516139416040850182613648565b5060608201516127076060850182613640565b805160408301906139658482613648565b5060208201516127076020850182613648565b60ff8116613575565b6000610b13828461364e565b61190160f01b815260020160006139a48285613648565b6020820191506139b48284613648565b5060200192915050565b600081610c30565b60208101610c30828461356c565b606081016139e2828661356c565b6139ef602083018561356c565b610f406040830184613648565b60408101613a0a828561356c565b610b136020830184613648565b60808101613a25828761356c565b613a326020830186613648565b613a3f6040830185613648565b6111696060830184613648565b60208082528101610b13818461357b565b60208082528101610b1381846135c4565b60208082528101610b138184613602565b60208101610c308284613640565b60a08101613a9b8288613648565b613aa86020830187613648565b613ab56040830186613648565b613ac26060830185613648565b61254b608083018461356c565b60e08101613add828a613648565b613aea6020830189613648565b613af76040830188613648565b613b04606083018761356c565b613b116080830186613648565b613b1e60a0830185613648565b613b2b60c0830184613648565b98975050505050505050565b60808101613b458287613648565b613a326020830186613978565b60208101610c308284613670565b60208082528101610b138184613679565b60208082528101610c30816136ad565b60208082528101610c30816136df565b60208082528101610c308161370a565b60208082528101610c308161373e565b60208082528101610c3081613784565b60208082528101610c30816137c3565b60208082528101610c30816137ea565b60208082528101610c3081613829565b60208082528101610c308161385b565b60208082528101610c308161388f565b60208082528101610c30816138d6565b60808101610c30828461390a565b60208101610c308284613648565b60408101613c4b8285613648565b8181036020830152610f40818461357b565b60408101613a0a8285613648565b60a08101613c798288613648565b613c866020830187613648565b613c93604083018661356c565b613ca06060830185613648565b61254b6080830184613648565b60c08101613cbb8289613648565b613cc86020830188613648565b613cd5604083018761356c565b613ce26060830186613648565b613cef6080830185613648565b61304a60a0830184613648565b6000613d0760405190565b9050613d138282613da5565b919050565b60006001600160401b03821115613d3157613d31613e45565b5060209081020190565b600082821015613d4d57613d4d613ded565b500390565b60006001600160a01b038216610c30565b6000610c3082613d52565b6000610c3082613d63565b60005b83811015613d94578181015183820152602001613d7c565b838111156127075750506000910152565b613dae82613e5b565b81018181106001600160401b0382111715613dcb57613dcb613e45565b6040525050565b6000600019821415613de657613de6613ded565b5060010190565b634e487b7160e01b600052601160045260246000fd5b634e487b7160e01b600052602160045260246000fd5b634e487b7160e01b600052603160045260246000fd5b634e487b7160e01b600052603260045260246000fd5b634e487b7160e01b600052604160045260246000fd5b601f01601f191690565b613e6e81613d52565b811461249457600080fd5b801515613e6e565b613e6e81613d63565b80613e6e56fea26469706673582212201a883f30a2d6b980a9389f33ad5acd0c3200c356df07b1c3121e664df3b6c5db64736f6c63430008070033",
  "devdoc": {
    "author": "Masa Finance",
    "kind": "dev",
    "methods": {
      "addLink(address,uint256,uint256,address,uint256,uint256,uint256,bytes)": {
        "details": "The token must be linked to this soul linker",
        "params": {
          "expirationDate": "Expiration date of the signature",
          "ownerIdentityId": "Id of the identity of the owner of the SBT",
          "readerIdentityId": "Id of the identity of the reader",
          "signature": "Signature of the read link request made by the owner",
          "signatureDate": "Signature date of the signature",
          "token": "Address of the SBT contract",
          "tokenId": "Id of the token"
        }
      },
      "constructor": {
        "params": {
          "_soulboundIdentity": "Soulbound identity smart contract",
          "owner": "Owner of the smart contract",
          "paymentParams": "Payment gateway params"
        }
      },
      "disablePaymentMethod(address)": {
        "details": "The caller must have the owner to call this function",
        "params": {
          "_paymentMethod": "Token to remove"
        }
      },
      "enablePaymentMethod(address)": {
        "details": "The caller must have the owner to call this function",
        "params": {
          "_paymentMethod": "New token to add"
        }
      },
      "getEnabledPaymentMethods()": {
        "details": "Returns the address of all available payment methods",
        "returns": {
          "_0": "Array of all enabled payment methods"
        }
      },
      "getIdentityId(address,uint256)": {
        "details": "The token must be linked to this soul linker",
        "params": {
          "token": "Address of the SBT contract",
          "tokenId": "Id of the token"
        },
        "returns": {
          "_0": "Id of the identity"
        }
      },
      "getLinkInfo(address,uint256,uint256,uint256)": {
        "params": {
          "readerIdentityId": "Id of the identity of the reader of the SBT",
          "signatureDate": "Signature date of the signature",
          "token": "Address of the SBT contract",
          "tokenId": "Id of the token"
        },
        "returns": {
          "_0": "linkData List of linked SBTs"
        }
      },
      "getLinkSignatureDates(address,uint256,uint256)": {
        "params": {
          "readerIdentityId": "Id of the identity of the reader of the SBT",
          "token": "Address of the SBT contract",
          "tokenId": "Id of the token"
        },
        "returns": {
          "_0": "List of linked SBTs"
        }
      },
      "getLinks(address,uint256)": {
        "params": {
          "token": "Address of the SBT contract",
          "tokenId": "Id of the token"
        },
        "returns": {
          "_0": "List of linked SBTs"
        }
      },
      "getPriceForAddLink(address,address)": {
        "details": "Returns the current pricing for storing a link",
        "params": {
          "paymentMethod": "Address of token that user want to pay",
          "token": "Token that user want to store link"
        },
        "returns": {
          "_0": "Current price for storing a link"
        }
      },
      "getPriceForQueryLink(address,address)": {
        "details": "Returns the current pricing for querying a link",
        "params": {
          "paymentMethod": "Address of token that user want to pay",
          "token": "Token that user want to query link"
        },
        "returns": {
          "_0": "Current price for querying a link"
        }
      },
      "getSBTConnections(address,address)": {
        "params": {
          "owner": "Address of the owner of the identity",
          "token": "Address of the SBT contract"
        },
        "returns": {
          "_0": "List of connectec SBTs"
        }
      },
      "getSBTConnections(uint256,address)": {
        "params": {
          "identityId": "Id of the identity",
          "token": "Address of the SBT contract"
        },
        "returns": {
          "_0": "List of connected SBTs"
        }
      },
      "owner()": {
        "details": "Returns the address of the current owner."
      },
      "pause()": {
        "details": "The caller must have the owner to call this function"
      },
      "paused()": {
        "details": "Returns true if the contract is paused, and false otherwise."
      },
      "queryLink(address,uint256,uint256,address,uint256,uint256,uint256,bytes)": {
        "details": "The token must be linked to this soul linker",
        "params": {
          "expirationDate": "Expiration date of the signature",
          "ownerIdentityId": "Id of the identity of the owner of the SBT",
          "readerIdentityId": "Id of the identity of the reader",
          "signature": "Signature of the read link request made by the owner",
          "signatureDate": "Signature date of the signature",
          "token": "Address of the SBT contract",
          "tokenId": "Id of the token"
        },
        "returns": {
          "_0": "True if the link is valid"
        }
      },
      "renounceOwnership()": {
        "details": "Leaves the contract without owner. It will not be possible to call `onlyOwner` functions anymore. Can only be called by the current owner. NOTE: Renouncing ownership will leave the contract without an owner, thereby removing any functionality that is only available to the owner."
      },
      "revokeLink(uint256,uint256,address,uint256,uint256)": {
        "details": "The token must be linked to this soul linker",
        "params": {
          "ownerIdentityId": "Id of the identity of the owner of the SBT",
          "readerIdentityId": "Id of the identity of the reader",
          "signatureDate": "Signature date of the signature",
          "token": "Address of the SBT contract",
          "tokenId": "Id of the token"
        }
      },
      "setMasaToken(address)": {
        "details": "The caller must have the owner to call this function It can be set to address(0) to disable paying in MASA",
        "params": {
          "_masaToken": "New utility token to pay the fee in"
        }
      },
      "setReserveWallet(address)": {
        "details": "Let change the reserve walled. It can be triggered by an authorized account.",
        "params": {
          "_reserveWallet": "New reserve wallet"
        }
      },
      "setSoulboundIdentity(address)": {
        "details": "The caller must be the owner to call this function",
        "params": {
          "_soulboundIdentity": "Address of the SoulboundIdentity contract"
        }
      },
      "setStableCoin(address)": {
        "details": "The caller must have the owner to call this function",
        "params": {
          "_stableCoin": "New stable coin to pay the fee in"
        }
      },
      "setSwapRouter(address)": {
        "details": "The caller must have the owner to call this function",
        "params": {
          "_swapRouter": "New swap router address"
        }
      },
      "setWrappedNativeToken(address)": {
        "details": "The caller must have the owner to call this function",
        "params": {
          "_wrappedNativeToken": "New wrapped native token address"
        }
      },
      "transferOwnership(address)": {
        "details": "Transfers ownership of the contract to a new account (`newOwner`). Can only be called by the current owner."
      },
      "unpause()": {
        "details": "The caller must have the owner to call this function"
      },
      "validateLink(uint256,uint256,address,uint256,uint256)": {
        "details": "The token must be linked to this soul linker",
        "params": {
          "ownerIdentityId": "Id of the identity of the owner of the SBT",
          "readerIdentityId": "Id of the identity of the reader",
          "signatureDate": "Signature date of the signature",
          "token": "Address of the SBT contract",
          "tokenId": "Id of the token"
        },
        "returns": {
          "_0": "True if the link is valid"
        }
      }
    },
    "title": "Soul linker",
    "version": 1
  },
  "userdoc": {
    "kind": "user",
    "methods": {
      "addLink(address,uint256,uint256,address,uint256,uint256,uint256,bytes)": {
        "notice": "Stores the link, validating the signature of the given read link request"
      },
      "constructor": {
        "notice": "Creates a new soul linker"
      },
      "disablePaymentMethod(address)": {
        "notice": "Removes a token as a valid payment method"
      },
      "enablePaymentMethod(address)": {
        "notice": "Adds a new token as a valid payment method"
      },
      "getEnabledPaymentMethods()": {
        "notice": "Returns all available payment methods"
      },
      "getIdentityId(address,uint256)": {
        "notice": "Returns the identityId owned by the given token"
      },
      "getLinkInfo(address,uint256,uint256,uint256)": {
        "notice": "Returns the information of link dates for a given SBT token and reader"
      },
      "getLinkSignatureDates(address,uint256,uint256)": {
        "notice": "Returns the list of link signature dates for a given SBT token and reader"
      },
      "getLinks(address,uint256)": {
        "notice": "Returns the list of link signature dates for a given SBT token and reader"
      },
      "getPriceForAddLink(address,address)": {
        "notice": "Returns the price for storing a link"
      },
      "getPriceForQueryLink(address,address)": {
        "notice": "Returns the price for querying a link"
      },
      "getSBTConnections(address,address)": {
        "notice": "Returns the list of connected SBTs by a given SBT token"
      },
      "getSBTConnections(uint256,address)": {
        "notice": "Returns the list of connected SBTs by a given SBT token"
      },
      "pause()": {
        "notice": "Pauses the smart contract"
      },
      "queryLink(address,uint256,uint256,address,uint256,uint256,uint256,bytes)": {
        "notice": "Validates a link signature, of a given read link request, without storing it"
      },
      "revokeLink(uint256,uint256,address,uint256,uint256)": {
        "notice": "Revokes the link"
      },
      "setMasaToken(address)": {
        "notice": "Sets the utility token to pay the fee in (MASA)"
      },
      "setReserveWallet(address)": {
        "notice": "Set the reserve wallet"
      },
      "setSoulboundIdentity(address)": {
        "notice": "Sets the SoulboundIdentity contract address linked to this soul name"
      },
      "setStableCoin(address)": {
        "notice": "Sets the stable coin to pay the fee in (USDC)"
      },
      "setSwapRouter(address)": {
        "notice": "Sets the swap router address"
      },
      "setWrappedNativeToken(address)": {
        "notice": "Sets the wrapped native token address"
      },
      "unpause()": {
        "notice": "Unpauses the smart contract"
      },
      "validateLink(uint256,uint256,address,uint256,uint256)": {
        "notice": "Validates the link of the given read link request and returns the data that reader can read if the link is valid"
      }
    },
    "notice": "Soul linker smart contract that let add links to a Soulbound token.",
    "version": 1
  },
  "storageLayout": {
    "storage": [
      {
        "astId": 400,
        "contract": "contracts/SoulLinker.sol:SoulLinker",
        "label": "_owner",
        "offset": 0,
        "slot": "0",
        "type": "t_address"
      },
      {
        "astId": 7429,
        "contract": "contracts/SoulLinker.sol:SoulLinker",
        "label": "swapRouter",
        "offset": 0,
        "slot": "1",
        "type": "t_address"
      },
      {
        "astId": 7431,
        "contract": "contracts/SoulLinker.sol:SoulLinker",
        "label": "wrappedNativeToken",
        "offset": 0,
        "slot": "2",
        "type": "t_address"
      },
      {
        "astId": 7433,
        "contract": "contracts/SoulLinker.sol:SoulLinker",
        "label": "stableCoin",
        "offset": 0,
        "slot": "3",
        "type": "t_address"
      },
      {
        "astId": 7435,
        "contract": "contracts/SoulLinker.sol:SoulLinker",
        "label": "masaToken",
        "offset": 0,
        "slot": "4",
        "type": "t_address"
      },
      {
        "astId": 7439,
        "contract": "contracts/SoulLinker.sol:SoulLinker",
        "label": "enabledPaymentMethod",
        "offset": 0,
        "slot": "5",
        "type": "t_mapping(t_address,t_bool)"
      },
      {
        "astId": 7442,
        "contract": "contracts/SoulLinker.sol:SoulLinker",
        "label": "enabledPaymentMethods",
        "offset": 0,
        "slot": "6",
        "type": "t_array(t_address)dyn_storage"
      },
      {
        "astId": 7444,
        "contract": "contracts/SoulLinker.sol:SoulLinker",
        "label": "reserveWallet",
        "offset": 0,
        "slot": "7",
        "type": "t_address"
      },
      {
        "astId": 523,
        "contract": "contracts/SoulLinker.sol:SoulLinker",
        "label": "_paused",
        "offset": 20,
        "slot": "7",
        "type": "t_bool"
      },
      {
        "astId": 624,
        "contract": "contracts/SoulLinker.sol:SoulLinker",
        "label": "_status",
        "offset": 0,
        "slot": "8",
        "type": "t_uint256"
      },
      {
        "astId": 4005,
        "contract": "contracts/SoulLinker.sol:SoulLinker",
        "label": "soulboundIdentity",
        "offset": 0,
        "slot": "9",
        "type": "t_contract(ISoulboundIdentity)8182"
      },
      {
        "astId": 4016,
        "contract": "contracts/SoulLinker.sol:SoulLinker",
        "label": "_links",
        "offset": 0,
        "slot": "10",
        "type": "t_mapping(t_address,t_mapping(t_uint256,t_mapping(t_uint256,t_mapping(t_uint256,t_struct(LinkData)4041_storage))))"
      },
      {
        "astId": 4023,
        "contract": "contracts/SoulLinker.sol:SoulLinker",
        "label": "_linkReaderIdentityIds",
        "offset": 0,
        "slot": "11",
        "type": "t_mapping(t_address,t_mapping(t_uint256,t_array(t_uint256)dyn_storage))"
      },
      {
        "astId": 4032,
        "contract": "contracts/SoulLinker.sol:SoulLinker",
        "label": "_linkSignatureDates",
        "offset": 0,
        "slot": "12",
        "type": "t_mapping(t_address,t_mapping(t_uint256,t_mapping(t_uint256,t_array(t_uint256)dyn_storage)))"
      }
    ],
    "types": {
      "t_address": {
        "encoding": "inplace",
        "label": "address",
        "numberOfBytes": "20"
      },
      "t_array(t_address)dyn_storage": {
        "base": "t_address",
        "encoding": "dynamic_array",
        "label": "address[]",
        "numberOfBytes": "32"
      },
      "t_array(t_uint256)dyn_storage": {
        "base": "t_uint256",
        "encoding": "dynamic_array",
        "label": "uint256[]",
        "numberOfBytes": "32"
      },
      "t_bool": {
        "encoding": "inplace",
        "label": "bool",
        "numberOfBytes": "1"
      },
      "t_contract(ISoulboundIdentity)8182": {
        "encoding": "inplace",
        "label": "contract ISoulboundIdentity",
        "numberOfBytes": "20"
      },
      "t_mapping(t_address,t_bool)": {
        "encoding": "mapping",
        "key": "t_address",
        "label": "mapping(address => bool)",
        "numberOfBytes": "32",
        "value": "t_bool"
      },
      "t_mapping(t_address,t_mapping(t_uint256,t_array(t_uint256)dyn_storage))": {
        "encoding": "mapping",
        "key": "t_address",
        "label": "mapping(address => mapping(uint256 => uint256[]))",
        "numberOfBytes": "32",
        "value": "t_mapping(t_uint256,t_array(t_uint256)dyn_storage)"
      },
      "t_mapping(t_address,t_mapping(t_uint256,t_mapping(t_uint256,t_array(t_uint256)dyn_storage)))": {
        "encoding": "mapping",
        "key": "t_address",
        "label": "mapping(address => mapping(uint256 => mapping(uint256 => uint256[])))",
        "numberOfBytes": "32",
        "value": "t_mapping(t_uint256,t_mapping(t_uint256,t_array(t_uint256)dyn_storage))"
      },
      "t_mapping(t_address,t_mapping(t_uint256,t_mapping(t_uint256,t_mapping(t_uint256,t_struct(LinkData)4041_storage))))": {
        "encoding": "mapping",
        "key": "t_address",
        "label": "mapping(address => mapping(uint256 => mapping(uint256 => mapping(uint256 => struct SoulLinker.LinkData))))",
        "numberOfBytes": "32",
        "value": "t_mapping(t_uint256,t_mapping(t_uint256,t_mapping(t_uint256,t_struct(LinkData)4041_storage)))"
      },
      "t_mapping(t_uint256,t_array(t_uint256)dyn_storage)": {
        "encoding": "mapping",
        "key": "t_uint256",
        "label": "mapping(uint256 => uint256[])",
        "numberOfBytes": "32",
        "value": "t_array(t_uint256)dyn_storage"
      },
      "t_mapping(t_uint256,t_mapping(t_uint256,t_array(t_uint256)dyn_storage))": {
        "encoding": "mapping",
        "key": "t_uint256",
        "label": "mapping(uint256 => mapping(uint256 => uint256[]))",
        "numberOfBytes": "32",
        "value": "t_mapping(t_uint256,t_array(t_uint256)dyn_storage)"
      },
      "t_mapping(t_uint256,t_mapping(t_uint256,t_mapping(t_uint256,t_struct(LinkData)4041_storage)))": {
        "encoding": "mapping",
        "key": "t_uint256",
        "label": "mapping(uint256 => mapping(uint256 => mapping(uint256 => struct SoulLinker.LinkData)))",
        "numberOfBytes": "32",
        "value": "t_mapping(t_uint256,t_mapping(t_uint256,t_struct(LinkData)4041_storage))"
      },
      "t_mapping(t_uint256,t_mapping(t_uint256,t_struct(LinkData)4041_storage))": {
        "encoding": "mapping",
        "key": "t_uint256",
        "label": "mapping(uint256 => mapping(uint256 => struct SoulLinker.LinkData))",
        "numberOfBytes": "32",
        "value": "t_mapping(t_uint256,t_struct(LinkData)4041_storage)"
      },
      "t_mapping(t_uint256,t_struct(LinkData)4041_storage)": {
        "encoding": "mapping",
        "key": "t_uint256",
        "label": "mapping(uint256 => struct SoulLinker.LinkData)",
        "numberOfBytes": "32",
        "value": "t_struct(LinkData)4041_storage"
      },
      "t_struct(LinkData)4041_storage": {
        "encoding": "inplace",
        "label": "struct SoulLinker.LinkData",
        "members": [
          {
            "astId": 4034,
            "contract": "contracts/SoulLinker.sol:SoulLinker",
            "label": "exists",
            "offset": 0,
            "slot": "0",
            "type": "t_bool"
          },
          {
            "astId": 4036,
            "contract": "contracts/SoulLinker.sol:SoulLinker",
            "label": "ownerIdentityId",
            "offset": 0,
            "slot": "1",
            "type": "t_uint256"
          },
          {
            "astId": 4038,
            "contract": "contracts/SoulLinker.sol:SoulLinker",
            "label": "expirationDate",
            "offset": 0,
            "slot": "2",
            "type": "t_uint256"
          },
          {
            "astId": 4040,
            "contract": "contracts/SoulLinker.sol:SoulLinker",
            "label": "isRevoked",
            "offset": 0,
            "slot": "3",
            "type": "t_bool"
          }
        ],
        "numberOfBytes": "128"
      },
      "t_uint256": {
        "encoding": "inplace",
        "label": "uint256",
        "numberOfBytes": "32"
      }
    }
  }
}