{
  "address": "0x270265B1c6b31ae53f75BC2f6a5D5F7f422BB9e8",
  "abi": [
    {
      "inputs": [
        {
          "internalType": "address",
          "name": "admin",
          "type": "address"
        },
        {
          "internalType": "string",
          "name": "baseTokenURI",
          "type": "string"
        }
      ],
      "stateMutability": "nonpayable",
      "type": "constructor"
    },
    {
      "anonymous": false,
      "inputs": [
        {
          "indexed": true,
          "internalType": "address",
          "name": "_owner",
          "type": "address"
        },
        {
          "indexed": true,
          "internalType": "uint256",
          "name": "_tokenId",
          "type": "uint256"
        }
      ],
      "name": "Burn",
      "type": "event"
    },
    {
      "anonymous": false,
      "inputs": [
        {
          "indexed": true,
          "internalType": "address",
          "name": "_owner",
          "type": "address"
        },
        {
          "indexed": true,
          "internalType": "uint256",
          "name": "_tokenId",
          "type": "uint256"
        }
      ],
      "name": "Mint",
      "type": "event"
    },
    {
      "anonymous": false,
      "inputs": [
        {
          "indexed": true,
          "internalType": "bytes32",
          "name": "role",
          "type": "bytes32"
        },
        {
          "indexed": true,
          "internalType": "bytes32",
          "name": "previousAdminRole",
          "type": "bytes32"
        },
        {
          "indexed": true,
          "internalType": "bytes32",
          "name": "newAdminRole",
          "type": "bytes32"
        }
      ],
      "name": "RoleAdminChanged",
      "type": "event"
    },
    {
      "anonymous": false,
      "inputs": [
        {
          "indexed": true,
          "internalType": "bytes32",
          "name": "role",
          "type": "bytes32"
        },
        {
          "indexed": true,
          "internalType": "address",
          "name": "account",
          "type": "address"
        },
        {
          "indexed": true,
          "internalType": "address",
          "name": "sender",
          "type": "address"
        }
      ],
      "name": "RoleGranted",
      "type": "event"
    },
    {
      "anonymous": false,
      "inputs": [
        {
          "indexed": true,
          "internalType": "bytes32",
          "name": "role",
          "type": "bytes32"
        },
        {
          "indexed": true,
          "internalType": "address",
          "name": "account",
          "type": "address"
        },
        {
          "indexed": true,
          "internalType": "address",
          "name": "sender",
          "type": "address"
        }
      ],
      "name": "RoleRevoked",
      "type": "event"
    },
    {
      "inputs": [],
      "name": "DEFAULT_ADMIN_ROLE",
      "outputs": [
        {
          "internalType": "bytes32",
          "name": "",
          "type": "bytes32"
        }
      ],
      "stateMutability": "view",
      "type": "function"
    },
    {
      "inputs": [],
      "name": "MINTER_ROLE",
      "outputs": [
        {
          "internalType": "bytes32",
          "name": "",
          "type": "bytes32"
        }
      ],
      "stateMutability": "view",
      "type": "function"
    },
    {
      "inputs": [
        {
          "internalType": "address",
          "name": "owner",
          "type": "address"
        }
      ],
      "name": "balanceOf",
      "outputs": [
        {
          "internalType": "uint256",
          "name": "",
          "type": "uint256"
        }
      ],
      "stateMutability": "view",
      "type": "function"
    },
    {
      "inputs": [
        {
          "internalType": "uint256",
          "name": "tokenId",
          "type": "uint256"
        }
      ],
      "name": "burn",
      "outputs": [],
      "stateMutability": "nonpayable",
      "type": "function"
    },
    {
      "inputs": [],
      "name": "getExtension",
      "outputs": [
        {
          "internalType": "string",
          "name": "",
          "type": "string"
        }
      ],
      "stateMutability": "view",
      "type": "function"
    },
    {
      "inputs": [
        {
          "internalType": "bytes32",
          "name": "role",
          "type": "bytes32"
        }
      ],
      "name": "getRoleAdmin",
      "outputs": [
        {
          "internalType": "bytes32",
          "name": "",
          "type": "bytes32"
        }
      ],
      "stateMutability": "view",
      "type": "function"
    },
    {
      "inputs": [],
      "name": "getSoulName",
      "outputs": [
        {
          "internalType": "contract ISoulName",
          "name": "",
          "type": "address"
        }
      ],
      "stateMutability": "view",
      "type": "function"
    },
    {
      "inputs": [
        {
          "internalType": "uint256",
          "name": "tokenId",
          "type": "uint256"
        }
      ],
      "name": "getSoulNames",
      "outputs": [
        {
          "internalType": "string[]",
          "name": "sbtNames",
          "type": "string[]"
        }
      ],
      "stateMutability": "view",
      "type": "function"
    },
    {
      "inputs": [
        {
          "internalType": "address",
          "name": "owner",
          "type": "address"
        }
      ],
      "name": "getSoulNames",
      "outputs": [
        {
          "internalType": "string[]",
          "name": "sbtNames",
          "type": "string[]"
        }
      ],
      "stateMutability": "view",
      "type": "function"
    },
    {
      "inputs": [
        {
          "internalType": "string",
          "name": "name",
          "type": "string"
        }
      ],
      "name": "getTokenData",
      "outputs": [
        {
          "internalType": "string",
          "name": "sbtName",
          "type": "string"
        },
        {
          "internalType": "bool",
          "name": "linked",
          "type": "bool"
        },
        {
          "internalType": "uint256",
          "name": "identityId",
          "type": "uint256"
        },
        {
          "internalType": "uint256",
          "name": "tokenId",
          "type": "uint256"
        },
        {
          "internalType": "uint256",
          "name": "expirationDate",
          "type": "uint256"
        },
        {
          "internalType": "bool",
          "name": "active",
          "type": "bool"
        }
      ],
      "stateMutability": "view",
      "type": "function"
    },
    {
      "inputs": [
        {
          "internalType": "bytes32",
          "name": "role",
          "type": "bytes32"
        },
        {
          "internalType": "address",
          "name": "account",
          "type": "address"
        }
      ],
      "name": "grantRole",
      "outputs": [],
      "stateMutability": "nonpayable",
      "type": "function"
    },
    {
      "inputs": [
        {
          "internalType": "bytes32",
          "name": "role",
          "type": "bytes32"
        },
        {
          "internalType": "address",
          "name": "account",
          "type": "address"
        }
      ],
      "name": "hasRole",
      "outputs": [
        {
          "internalType": "bool",
          "name": "",
          "type": "bool"
        }
      ],
      "stateMutability": "view",
      "type": "function"
    },
    {
      "inputs": [
        {
          "internalType": "string",
          "name": "name",
          "type": "string"
        }
      ],
      "name": "isAvailable",
      "outputs": [
        {
          "internalType": "bool",
          "name": "available",
          "type": "bool"
        }
      ],
      "stateMutability": "view",
      "type": "function"
    },
    {
      "inputs": [
        {
          "internalType": "address",
          "name": "to",
          "type": "address"
        }
      ],
      "name": "mint",
      "outputs": [
        {
          "internalType": "uint256",
          "name": "",
          "type": "uint256"
        }
      ],
      "stateMutability": "nonpayable",
      "type": "function"
    },
    {
      "inputs": [
        {
          "internalType": "address",
          "name": "to",
          "type": "address"
        },
        {
          "internalType": "string",
          "name": "name",
          "type": "string"
        },
        {
          "internalType": "uint256",
          "name": "yearsPeriod",
          "type": "uint256"
        },
        {
          "internalType": "string",
          "name": "_tokenURI",
          "type": "string"
        }
      ],
      "name": "mintIdentityWithName",
      "outputs": [
        {
          "internalType": "uint256",
          "name": "",
          "type": "uint256"
        }
      ],
      "stateMutability": "payable",
      "type": "function"
    },
    {
      "inputs": [],
      "name": "name",
      "outputs": [
        {
          "internalType": "string",
          "name": "",
          "type": "string"
        }
      ],
      "stateMutability": "view",
      "type": "function"
    },
    {
      "inputs": [
        {
          "internalType": "uint256",
          "name": "tokenId",
          "type": "uint256"
        }
      ],
      "name": "ownerOf",
      "outputs": [
        {
          "internalType": "address",
          "name": "",
          "type": "address"
        }
      ],
      "stateMutability": "view",
      "type": "function"
    },
    {
      "inputs": [
        {
          "internalType": "string",
          "name": "name",
          "type": "string"
        }
      ],
      "name": "ownerOf",
      "outputs": [
        {
          "internalType": "address",
          "name": "",
          "type": "address"
        }
      ],
      "stateMutability": "view",
      "type": "function"
    },
    {
      "inputs": [
        {
          "internalType": "bytes32",
          "name": "role",
          "type": "bytes32"
        },
        {
          "internalType": "address",
          "name": "account",
          "type": "address"
        }
      ],
      "name": "renounceRole",
      "outputs": [],
      "stateMutability": "nonpayable",
      "type": "function"
    },
    {
      "inputs": [
        {
          "internalType": "bytes32",
          "name": "role",
          "type": "bytes32"
        },
        {
          "internalType": "address",
          "name": "account",
          "type": "address"
        }
      ],
      "name": "revokeRole",
      "outputs": [],
      "stateMutability": "nonpayable",
      "type": "function"
    },
    {
      "inputs": [
        {
          "internalType": "contract ISoulName",
          "name": "_soulName",
          "type": "address"
        }
      ],
      "name": "setSoulName",
      "outputs": [],
      "stateMutability": "nonpayable",
      "type": "function"
    },
    {
      "inputs": [],
      "name": "soulName",
      "outputs": [
        {
          "internalType": "contract ISoulName",
          "name": "",
          "type": "address"
        }
      ],
      "stateMutability": "view",
      "type": "function"
    },
    {
      "inputs": [
        {
          "internalType": "bytes4",
          "name": "interfaceId",
          "type": "bytes4"
        }
      ],
      "name": "supportsInterface",
      "outputs": [
        {
          "internalType": "bool",
          "name": "",
          "type": "bool"
        }
      ],
      "stateMutability": "view",
      "type": "function"
    },
    {
      "inputs": [],
      "name": "symbol",
      "outputs": [
        {
          "internalType": "string",
          "name": "",
          "type": "string"
        }
      ],
      "stateMutability": "view",
      "type": "function"
    },
    {
      "inputs": [
        {
          "internalType": "uint256",
          "name": "index",
          "type": "uint256"
        }
      ],
      "name": "tokenByIndex",
      "outputs": [
        {
          "internalType": "uint256",
          "name": "",
          "type": "uint256"
        }
      ],
      "stateMutability": "view",
      "type": "function"
    },
    {
      "inputs": [
        {
          "internalType": "address",
          "name": "owner",
          "type": "address"
        }
      ],
      "name": "tokenOfOwner",
      "outputs": [
        {
          "internalType": "uint256",
          "name": "",
          "type": "uint256"
        }
      ],
      "stateMutability": "view",
      "type": "function"
    },
    {
      "inputs": [
        {
          "internalType": "address",
          "name": "owner",
          "type": "address"
        },
        {
          "internalType": "uint256",
          "name": "index",
          "type": "uint256"
        }
      ],
      "name": "tokenOfOwnerByIndex",
      "outputs": [
        {
          "internalType": "uint256",
          "name": "",
          "type": "uint256"
        }
      ],
      "stateMutability": "view",
      "type": "function"
    },
    {
      "inputs": [
        {
          "internalType": "string",
          "name": "name",
          "type": "string"
        }
      ],
      "name": "tokenURI",
      "outputs": [
        {
          "internalType": "string",
          "name": "",
          "type": "string"
        }
      ],
      "stateMutability": "view",
      "type": "function"
    },
    {
      "inputs": [
        {
          "internalType": "address",
          "name": "owner",
          "type": "address"
        }
      ],
      "name": "tokenURI",
      "outputs": [
        {
          "internalType": "string",
          "name": "",
          "type": "string"
        }
      ],
      "stateMutability": "view",
      "type": "function"
    },
    {
      "inputs": [
        {
          "internalType": "uint256",
          "name": "tokenId",
          "type": "uint256"
        }
      ],
      "name": "tokenURI",
      "outputs": [
        {
          "internalType": "string",
          "name": "",
          "type": "string"
        }
      ],
      "stateMutability": "view",
      "type": "function"
    },
    {
      "inputs": [],
      "name": "totalSupply",
      "outputs": [
        {
          "internalType": "uint256",
          "name": "",
          "type": "uint256"
        }
      ],
      "stateMutability": "view",
      "type": "function"
    }
  ],
  "transactionHash": "0xc94f5286cca1cb46f71afaaa9fbb778f3291dce193b709e56cfb2e5d8edec0c6",
  "args": [
    "0x3c8D9f130970358b7E8cbc1DbD0a1EbA6EBE368F",
    "https://beta.metadata.masa.finance/v1.0/identity/"
  ],
  "numDeployments": 6,
  "solcInputHash": "adb7df6c4da0f29fe9daa4da8d1fe01f",
  "bytecode": "0x60806040523480156200001157600080fd5b5060405162002a1238038062002a128339810160408190526200003491620002fa565b816040518060400160405280600d81526020016c4d617361204964656e7469747960981b8152506040518060400160405280600381526020016213525160ea1b81525083838383838282816000908051906020019062000096929190620001ce565b508051620000ac906001906020840190620001ce565b50620000be9150600090508562000116565b8051620000d3906009906020840190620001ce565b50505050506200010a7f9f2df0fed2c77648de5860a4cc508cd0818c85b8b8a1ab4ceeef8d981c8956a6856200011660201b60201c565b505050505050620004a0565b620001228282620001a1565b6200019d5760008281526008602090815260408083206001600160a01b03851684529091529020805460ff191660011790556200015c3390565b6001600160a01b0316816001600160a01b0316837f2f8788117e7eff1d82e926ec794901d17c78024a50270940304540a733656f0d60405160405180910390a45b5050565b60008281526008602090815260408083206001600160a01b038516845290915290205460ff165b92915050565b828054620001dc90620003ed565b90600052602060002090601f0160209004810192826200020057600085556200024b565b82601f106200021b57805160ff19168380011785556200024b565b828001600101855582156200024b579182015b828111156200024b5782518255916020019190600101906200022e565b50620002599291506200025d565b5090565b5b808211156200025957600081556001016200025e565b60006200028b620002858462000378565b62000359565b905082815260208101848484011115620002a857620002a8600080fd5b620002b5848285620003ba565b509392505050565b8051620001c88162000486565b600082601f830112620002e057620002e0600080fd5b8151620002f284826020860162000274565b949350505050565b60008060408385031215620003125762000312600080fd5b6000620003208585620002bd565b92505060208301516001600160401b03811115620003415762000341600080fd5b6200034f85828601620002ca565b9150509250929050565b60006200036560405190565b90506200037382826200041e565b919050565b60006001600160401b0382111562000394576200039462000466565b6200039f826200047c565b60200192915050565b60006001600160a01b038216620001c8565b60005b83811015620003d7578181015183820152602001620003bd565b83811115620003e7576000848401525b50505050565b6002810460018216806200040257607f821691505b6020821081141562000418576200041862000450565b50919050565b62000429826200047c565b81018181106001600160401b038211171562000449576200044962000466565b6040525050565b634e487b7160e01b600052602260045260246000fd5b634e487b7160e01b600052604160045260246000fd5b601f01601f191690565b6200049181620003a8565b81146200049d57600080fd5b50565b61256280620004b06000396000f3fe6080604052600436106101685760003560e01c806301ffc9a71461016d57806306fdde03146101a35780630f2e68af146101c557806318160ddd146101f2578063248a9ca314610210578063294cdf0d146102305780632f2ff15d146102505780632f745c591461027257806336568abe1461029257806342966c68146102b257806346b2b087146102d25780634cf12d26146103045780634f6ccce7146103245780635141453e146103445780636352211e146103575780636a6278421461038457806370a08231146103a4578063776ce6a1146103c45780637e669891146103d957806391d1485414610406578063920ffa261461042657806393702f331461044657806395d89b4114610466578063965306aa1461047b578063a217fddf1461049b578063b507d481146104b0578063b79636b6146104ce578063c87b56dd146104ee578063d53913931461050e578063d547741f14610530578063ee7a9ec514610550575b600080fd5b34801561017957600080fd5b5061018d610188366004611b07565b610570565b60405161019a9190612115565b60405180910390f35b3480156101af57600080fd5b506101b8610581565b60405161019a919061213f565b3480156101d157600080fd5b50600b546101e5906001600160a01b031681565b60405161019a9190612131565b3480156101fe57600080fd5b506006545b60405161019a9190612123565b34801561021c57600080fd5b5061020361022b366004611ab3565b610613565b34801561023c57600080fd5b5061020361024b366004611962565b610628565b34801561025c57600080fd5b5061027061026b366004611ad4565b610635565b005b34801561027e57600080fd5b5061020361028d366004611a1b565b610656565b34801561029e57600080fd5b506102706102ad366004611ad4565b6106b1565b3480156102be57600080fd5b506102706102cd366004611ab3565b6106e7565b3480156102de57600080fd5b506102f26102ed366004611b49565b610719565b60405161019a96959493929190612150565b34801561031057600080fd5b506101b861031f366004611b49565b6107e7565b34801561033057600080fd5b5061020361033f366004611ab3565b6108b0565b610203610352366004611983565b6108fe565b34801561036357600080fd5b50610377610372366004611ab3565b6109c7565b60405161019a91906120ab565b34801561039057600080fd5b5061020361039f366004611962565b6109d2565b3480156103b057600080fd5b506102036103bf366004611962565b610a05565b3480156103d057600080fd5b506101b8610a49565b3480156103e557600080fd5b506103f96103f4366004611ab3565b610acf565b60405161019a9190612104565b34801561041257600080fd5b5061018d610421366004611ad4565b610b7e565b34801561043257600080fd5b50610377610441366004611b49565b610ba9565b34801561045257600080fd5b506101b8610461366004611962565b610c69565b34801561047257600080fd5b506101b8610c81565b34801561048757600080fd5b5061018d610496366004611b49565b610c90565b3480156104a757600080fd5b50610203600081565b3480156104bc57600080fd5b50600b546001600160a01b03166101e5565b3480156104da57600080fd5b506103f96104e9366004611962565b610d3b565b3480156104fa57600080fd5b506101b8610509366004611ab3565b610d96565b34801561051a57600080fd5b5061020360008051602061250d83398151915281565b34801561053c57600080fd5b5061027061054b366004611ad4565b610dfc565b34801561055c57600080fd5b5061027061056b366004611b28565b610e18565b600061057b82610e9a565b92915050565b606060008054610590906123c0565b80601f01602080910402602001604051908101604052809291908181526020018280546105bc906123c0565b80156106095780601f106105de57610100808354040283529160200191610609565b820191906000526020600020905b8154815290600101906020018083116105ec57829003601f168201915b5050505050905090565b60009081526008602052604090206001015490565b600061057b826000610656565b61063e82610613565b61064781610ebf565b6106518383610ec9565b505050565b600061066183610a05565b82106106885760405162461bcd60e51b815260040161067f906121ef565b60405180910390fd5b506001600160a01b03919091166000908152600460209081526040808320938352929052205490565b6001600160a01b03811633146106d95760405162461bcd60e51b815260040161067f9061226f565b6106e38282610f4f565b5050565b6106f13382610fb6565b61070d5760405162461bcd60e51b815260040161067f9061221f565b61071681610fd9565b50565b600b5460609060009081908190819081906001600160a01b031661074f5760405162461bcd60e51b815260040161067f906121df565b600b546040516346b2b08760e01b81526001600160a01b03909116906346b2b0879061077f908a9060040161213f565b60006040518083038186803b15801561079757600080fd5b505afa1580156107ab573d6000803e3d6000fd5b505050506040513d6000823e601f3d908101601f191682016040526107d39190810190611bbd565b949c939b5091995097509550909350915050565b600b546060906001600160a01b03166108125760405162461bcd60e51b815260040161067f906121df565b600b546040516346b2b08760e01b81526000916001600160a01b0316906346b2b0879061084390869060040161213f565b60006040518083038186803b15801561085b57600080fd5b505afa15801561086f573d6000803e3d6000fd5b505050506040513d6000823e601f3d908101601f191682016040526108979190810190611bbd565b505050925050506108a781610d96565b9150505b919050565b60006108bb60065490565b82106108d95760405162461bcd60e51b815260040161067f9061225f565b600682815481106108ec576108ec61249b565b90600052602060002001549050919050565b600b546000906001600160a01b03166109295760405162461bcd60e51b815260040161067f906121df565b6000610934866109d2565b600b546040516303dd904360e41b81529192506001600160a01b031690633dd904309061096b9089908990899089906004016120b9565b602060405180830381600087803b15801561098557600080fd5b505af1158015610999573d6000803e3d6000fd5b505050506040513d601f19601f820116820180604052508101906109bd9190611c60565b5095945050505050565b600061057b82611073565b600060016109df83610a05565b106109fc5760405162461bcd60e51b815260040161067f906121cf565b61057b826110a8565b60006001600160a01b038216610a2d5760405162461bcd60e51b815260040161067f9061220f565b506001600160a01b031660009081526003602052604090205490565b600b546040805163776ce6a160e01b815290516060926001600160a01b03169163776ce6a1916004808301926000929190829003018186803b158015610a8e57600080fd5b505afa158015610aa2573d6000803e3d6000fd5b505050506040513d6000823e601f3d908101601f19168201604052610aca9190810190611b83565b905090565b600b546060906001600160a01b0316610afa5760405162461bcd60e51b815260040161067f906121df565b600b54604051637e66989160e01b81526001600160a01b0390911690637e66989190610b2a908590600401612123565b60006040518083038186803b158015610b4257600080fd5b505afa158015610b56573d6000803e3d6000fd5b505050506040513d6000823e601f3d908101601f1916820160405261057b9190810190611a58565b60009182526008602090815260408084206001600160a01b0393909316845291905290205460ff1690565b600b546000906001600160a01b0316610bd45760405162461bcd60e51b815260040161067f906121df565b600b546040516346b2b08760e01b81526000916001600160a01b0316906346b2b08790610c0590869060040161213f565b60006040518083038186803b158015610c1d57600080fd5b505afa158015610c31573d6000803e3d6000fd5b505050506040513d6000823e601f3d908101601f19168201604052610c599190810190611bbd565b505050925050506108a781611073565b60606000610c7683610628565b90506108a781610d96565b606060018054610590906123c0565b600b546000906001600160a01b0316610cbb5760405162461bcd60e51b815260040161067f906121df565b600b54604051634b29835560e11b81526001600160a01b039091169063965306aa90610ceb90859060040161213f565b60206040518083038186803b158015610d0357600080fd5b505afa158015610d17573d6000803e3d6000fd5b505050506040513d601f19601f8201168201806040525081019061057b9190611a92565b600b546060906001600160a01b0316610d665760405162461bcd60e51b815260040161067f906121df565b600b54604051635bcb1b5b60e11b81526001600160a01b039091169063b79636b690610b2a9085906004016120ab565b6060610da1826110ed565b6000610dab611112565b90506000815111610dcb57604051806020016040528060008152506108a7565b80610dd584611121565b604051602001610de692919061202b565b6040516020818303038152906040529392505050565b610e0582610613565b610e0e81610ebf565b6106518383610f4f565b6000610e2381610ebf565b6001600160a01b038216610e495760405162461bcd60e51b815260040161067f9061222f565b600b546001600160a01b0383811691161415610e775760405162461bcd60e51b815260040161067f906121ff565b50600b80546001600160a01b0319166001600160a01b0392909216919091179055565b60006001600160e01b03198216637965db0b60e01b148061057b575061057b82611226565b610716813361124b565b610ed38282610b7e565b6106e35760008281526008602090815260408083206001600160a01b03851684529091529020805460ff19166001179055610f0b3390565b6001600160a01b0316816001600160a01b0316837f2f8788117e7eff1d82e926ec794901d17c78024a50270940304540a733656f0d60405160405180910390a45050565b610f598282610b7e565b156106e35760008281526008602090815260408083206001600160a01b0385168085529252808320805460ff1916905551339285917ff6391f5c32d9c69d2a47ea670b442974b53935d1edc7fd64eb21e047a839171b9190a45050565b600080610fc283611073565b6001600160a01b0385811691161491505092915050565b6000610fe482611073565b9050610ff2816000846112af565b6001600160a01b038116600090815260036020526040812080546001929061101b90849061232f565b909155505060008281526002602052604080822080546001600160a01b03191690555183916001600160a01b038416917fcc16f5dbb4873280815c1ee09dbd06736cffcc184412cf7a71a0fdb75d397ca59190a35050565b6000818152600260205260408120546001600160a01b03168061057b5760405162461bcd60e51b815260040161067f9061224f565b600060008051602061250d8339815191526110c281610ebf565b60006110cd600a5490565b90506110dd600a80546001019055565b6108a784826112ba565b50919050565b6110f681611396565b6107165760405162461bcd60e51b815260040161067f9061224f565b606060098054610590906123c0565b6060816111455750506040805180820190915260018152600360fc1b602082015290565b8160005b811561116f578061115981612414565b91506111689050600a836122fc565b9150611149565b6000816001600160401b03811115611189576111896124b1565b6040519080825280601f01601f1916602001820160405280156111b3576020820181803683370190505b5090505b841561121e576111c860018361232f565b91506111d5600a8661242f565b6111e09060306122e4565b60f81b8183815181106111f5576111f561249b565b60200101906001600160f81b031916908160001a905350611217600a866122fc565b94506111b7565b949350505050565b60006001600160e01b0319821663780e9d6360e01b148061057b575061057b826113b3565b6112558282610b7e565b6106e35761126d816001600160a01b03166014611403565b611278836020611403565b604051602001611289929190612059565b60408051601f198184030181529082905262461bcd60e51b825261067f9160040161213f565b610651838383611575565b6001600160a01b0382166112e05760405162461bcd60e51b815260040161067f906121bf565b6112e981611396565b156113065760405162461bcd60e51b815260040161067f9061223f565b611312600083836112af565b6001600160a01b038216600090815260036020526040812080546001929061133b9084906122e4565b909155505060008181526002602052604080822080546001600160a01b0319166001600160a01b038616908117909155905183927f0f6798a560793a54c3bcfe86a93cde1e73087d944c0ea20544137d412139688591a35050565b6000908152600260205260409020546001600160a01b0316151590565b60006001600160e01b031982166313f2a32f60e01b14806113e457506001600160e01b03198216635b5e139f60e01b145b8061057b57506301ffc9a760e01b6001600160e01b031983161461057b565b60606000611412836002612310565b61141d9060026122e4565b6001600160401b03811115611434576114346124b1565b6040519080825280601f01601f19166020018201604052801561145e576020820181803683370190505b509050600360fc1b816000815181106114795761147961249b565b60200101906001600160f81b031916908160001a905350600f60fb1b816001815181106114a8576114a861249b565b60200101906001600160f81b031916908160001a90535060006114cc846002612310565b6114d79060016122e4565b90505b600181111561154f576f181899199a1a9b1b9c1cb0b131b232b360811b85600f166010811061150b5761150b61249b565b1a60f81b8282815181106115215761152161249b565b60200101906001600160f81b031916908160001a90535060049490941c93611548816123a9565b90506114da565b50831561156e5760405162461bcd60e51b815260040161067f906121af565b9392505050565b6001600160a01b0383166115d0576115cb81600680546000838152600760205260408120829055600182018355919091527ff652222313e28459528d920b65115c16c04f3efc82aaedc97be59f3f377c0d3f0155565b6115f3565b816001600160a01b0316836001600160a01b0316146115f3576115f3838261162d565b6001600160a01b03821661160a57610651816116ca565b826001600160a01b0316826001600160a01b031614610651576106518282611779565b6000600161163a84610a05565b611644919061232f565b600083815260056020526040902054909150808214611697576001600160a01b03841660009081526004602090815260408083208584528252808320548484528184208190558352600590915290208190555b5060009182526005602090815260408084208490556001600160a01b039094168352600481528383209183525290812055565b6006546000906116dc9060019061232f565b600083815260076020526040812054600680549394509092849081106117045761170461249b565b9060005260206000200154905080600683815481106117255761172561249b565b600091825260208083209091019290925582815260079091526040808220849055858252812055600680548061175d5761175d612485565b6001900381819060005260206000200160009055905550505050565b600061178483610a05565b6001600160a01b039093166000908152600460209081526040808320868452825280832085905593825260059052919091209190915550565b60006117d06117cb84612296565b61227f565b905080838252602082019050828560208602820111156117f2576117f2600080fd5b60005b8581101561183a5781516001600160401b0381111561181657611816600080fd5b8086016118238982611933565b8552505060209283019291909101906001016117f5565b5050509392505050565b60006118526117cb846122b9565b90508281526020810184848401111561186d5761186d600080fd5b61187884828561236d565b509392505050565b600061188e6117cb846122b9565b9050828152602081018484840111156118a9576118a9600080fd5b611878848285612379565b803561057b816124d1565b600082601f8301126118d3576118d3600080fd5b815161121e8482602086016117bd565b805161057b816124e5565b803561057b816124ed565b803561057b816124f3565b803561057b81612503565b600082601f83011261192357611923600080fd5b813561121e848260208601611844565b600082601f83011261194757611947600080fd5b815161121e848260208601611880565b805161057b816124ed565b60006020828403121561197757611977600080fd5b600061121e84846118b4565b6000806000806080858703121561199c5761199c600080fd5b60006119a887876118b4565b94505060208501356001600160401b038111156119c7576119c7600080fd5b6119d38782880161190f565b93505060406119e4878288016118ee565b92505060608501356001600160401b03811115611a0357611a03600080fd5b611a0f8782880161190f565b91505092959194509250565b60008060408385031215611a3157611a31600080fd5b6000611a3d85856118b4565b9250506020611a4e858286016118ee565b9150509250929050565b600060208284031215611a6d57611a6d600080fd5b81516001600160401b03811115611a8657611a86600080fd5b61121e848285016118bf565b600060208284031215611aa757611aa7600080fd5b600061121e84846118e3565b600060208284031215611ac857611ac8600080fd5b600061121e84846118ee565b60008060408385031215611aea57611aea600080fd5b6000611af685856118ee565b9250506020611a4e858286016118b4565b600060208284031215611b1c57611b1c600080fd5b600061121e84846118f9565b600060208284031215611b3d57611b3d600080fd5b600061121e8484611904565b600060208284031215611b5e57611b5e600080fd5b81356001600160401b03811115611b7757611b77600080fd5b61121e8482850161190f565b600060208284031215611b9857611b98600080fd5b81516001600160401b03811115611bb157611bb1600080fd5b61121e84828501611933565b60008060008060008060c08789031215611bd957611bd9600080fd5b86516001600160401b03811115611bf257611bf2600080fd5b611bfe89828a01611933565b9650506020611c0f89828a016118e3565b9550506040611c2089828a01611957565b9450506060611c3189828a01611957565b9350506080611c4289828a01611957565b92505060a0611c5389828a016118e3565b9150509295509295509295565b600060208284031215611c7557611c75600080fd5b600061121e8484611957565b600061156e8383611d19565b611c9681612346565b82525050565b6000611ca6825190565b80845260208401935083602082028501611cc08560200190565b8060005b85811015611cf55784840389528151611cdd8582611c81565b94506020830160209a909a0199925050600101611cc4565b5091979650505050505050565b801515611c96565b80611c96565b611c9681612362565b6000611d23825190565b808452602084019350611d3a818560208601612379565b611d43816124c7565b9093019392505050565b6000611d57825190565b611d65818560208601612379565b9290920192915050565b60208082527f537472696e67733a20686578206c656e67746820696e73756666696369656e74910190815260005b5060200190565b601d81526000602082017f5342543a206d696e7420746f20746865207a65726f206164647265737300000081529150611d9d565b601b81526000602082017a14d097d25111539512551657d053149150511657d0d49150551151602a1b81529150611d9d565b601981526000602082017814d3d5531390535157d0d3d395149050d517d393d517d4d155603a1b81529150611d9d565b602881526000602082017f534254456e756d657261626c653a206f776e657220696e646578206f7574206f8152676620626f756e647360c01b602082015291505b5060400190565b600a81526000602082016953414d455f56414c554560b01b81529150611d9d565b602681526000602082017f5342543a2061646472657373207a65726f206973206e6f7420612076616c69648152651037bbb732b960d11b60208201529150611e7b565b601e81526000602082017f5342543a2063616c6c6572206973206e6f7420746f6b656e206f776e6572000081529150611d9d565b600c81526000602082016b5a45524f5f4144445245535360a01b81529150611d9d565b601981526000602082017814d0950e881d1bdad95b88185b1c9958591e481b5a5b9d1959603a1b81529150611d9d565b601581526000602082017414d0950e881a5b9d985b1a59081d1bdad95b881251605a1b81529150611d9d565b602981526000602082017f534254456e756d657261626c653a20676c6f62616c20696e646578206f7574208152686f6620626f756e647360b81b60208201529150611e7b565b602f81526000602082017f416363657373436f6e74726f6c3a2063616e206f6e6c792072656e6f756e636581526e103937b632b9903337b91039b2b63360891b60208201529150611e7b565b60006120378285611d4d565b91506120438284611d4d565b64173539b7b760d91b815291506005820161121e565b76020b1b1b2b9b9a1b7b73a3937b61d1030b1b1b7bab73a1604d1b815260170160006120858285611d4d565b7001034b99036b4b9b9b4b733903937b6329607d1b8152601101915061121e8284611d4d565b6020810161057b8284611c8d565b608081016120c78287611c8d565b81810360208301526120d98186611d19565b90506120e86040830185611d0a565b81810360608301526120fa8184611d19565b9695505050505050565b6020808252810161156e8184611c9c565b6020810161057b8284611d02565b6020810161057b8284611d0a565b6020810161057b8284611d10565b6020808252810161156e8184611d19565b60c080825281016121618189611d19565b90506121706020830188611d02565b61217d6040830187611d0a565b61218a6060830186611d0a565b6121976080830185611d0a565b6121a460a0830184611d02565b979650505050505050565b6020808252810161057b81611d6f565b6020808252810161057b81611da4565b6020808252810161057b81611dd8565b6020808252810161057b81611e0a565b6020808252810161057b81611e3a565b6020808252810161057b81611e82565b6020808252810161057b81611ea3565b6020808252810161057b81611ee6565b6020808252810161057b81611f1a565b6020808252810161057b81611f3d565b6020808252810161057b81611f6d565b6020808252810161057b81611f99565b6020808252810161057b81611fdf565b600061228a60405190565b90506108ab82826123e7565b60006001600160401b038211156122af576122af6124b1565b5060209081020190565b60006001600160401b038211156122d2576122d26124b1565b6122db826124c7565b60200192915050565b600082198211156122f7576122f7612443565b500190565b60008261230b5761230b612459565b500490565b600081600019048311821515161561232a5761232a612443565b500290565b60008282101561234157612341612443565b500390565b60006001600160a01b03821661057b565b600061057b82612346565b600061057b82612357565b82818337506000910152565b60005b8381101561239457818101518382015260200161237c565b838111156123a3576000848401525b50505050565b6000816123b8576123b8612443565b506000190190565b6002810460018216806123d457607f821691505b602082108114156110e7576110e761246f565b6123f0826124c7565b81018181106001600160401b038211171561240d5761240d6124b1565b6040525050565b600060001982141561242857612428612443565b5060010190565b60008261243e5761243e612459565b500690565b634e487b7160e01b600052601160045260246000fd5b634e487b7160e01b600052601260045260246000fd5b634e487b7160e01b600052602260045260246000fd5b634e487b7160e01b600052603160045260246000fd5b634e487b7160e01b600052603260045260246000fd5b634e487b7160e01b600052604160045260246000fd5b601f01601f191690565b6124da81612346565b811461071657600080fd5b8015156124da565b806124da565b6001600160e01b031981166124da565b6124da8161235756fe9f2df0fed2c77648de5860a4cc508cd0818c85b8b8a1ab4ceeef8d981c8956a6a26469706673582212206fec9c49fea96cf5c475b14fb29f28b168259657980c0b1edbdb784714babe7a64736f6c63430008070033",
  "devdoc": {
    "author": "Masa Finance",
    "details": "Soulbound identity, that inherits from the SBT contract.",
    "kind": "dev",
    "methods": {
      "balanceOf(address)": {
        "details": "See {ISBT-balanceOf}."
      },
      "burn(uint256)": {
        "details": "Burns `tokenId`. See {SBT-_burn}. Requirements: - The caller must own `tokenId` or be an approved operator."
      },
      "constructor": {
        "details": "Creates a new soulbound identity, inheriting from the SBT contract.",
        "params": {
          "admin": "Administrator of the smart contract",
          "baseTokenURI": "Base URI of the token"
        }
      },
      "getExtension()": {
        "details": "This function returns the extension of the soul name",
        "returns": {
          "_0": "Extension of the soul name"
        }
      },
      "getRoleAdmin(bytes32)": {
        "details": "Returns the admin role that controls `role`. See {grantRole} and {revokeRole}. To change a role's admin, use {_setRoleAdmin}."
      },
      "getSoulName()": {
        "details": "This function returns the address of the SoulName contract linked to this identity",
        "returns": {
          "_0": "Address of the SoulName contract"
        }
      },
      "getSoulNames(address)": {
        "details": "This function queries all the identity names of the specified account",
        "params": {
          "owner": "Address of the owner of the identities"
        },
        "returns": {
          "sbtNames": "Array of soul names associated to the account"
        }
      },
      "getSoulNames(uint256)": {
        "details": "This function queries all the identity names of the specified identity Id",
        "params": {
          "tokenId": "TokenId of the identity"
        },
        "returns": {
          "sbtNames": "Array of soul names associated to the identity Id"
        }
      },
      "getTokenData(string)": {
        "details": "This function queries the information of a soul name",
        "params": {
          "name": "Name of the soul name"
        },
        "returns": {
          "active": "`true` if the soul name is active, `false` otherwise",
          "expirationDate": "Expiration date of the soul name",
          "identityId": "Identity id of the soul name",
          "linked": "`true` if the soul name is linked, `false` otherwise",
          "sbtName": "Soul name, in upper/lower case and extension",
          "tokenId": "SoulName id of the soul name"
        }
      },
      "grantRole(bytes32,address)": {
        "details": "Grants `role` to `account`. If `account` had not been already granted `role`, emits a {RoleGranted} event. Requirements: - the caller must have ``role``'s admin role. May emit a {RoleGranted} event."
      },
      "hasRole(bytes32,address)": {
        "details": "Returns `true` if `account` has been granted `role`."
      },
      "isAvailable(string)": {
        "details": "This function queries if a soul name already exists and is in the available state",
        "params": {
          "name": "Name of the soul name"
        },
        "returns": {
          "available": "`true` if the soul name is available, `false` otherwise"
        }
      },
      "mint(address)": {
        "details": "The caller can only mint one identity per address",
        "params": {
          "to": "Address of the admin of the new identity"
        }
      },
      "mintIdentityWithName(address,string,uint256,string)": {
        "details": "The caller can only mint one identity per address, and the name must be unique",
        "params": {
          "_tokenURI": "URI of the NFT",
          "name": "Name of the new identity",
          "to": "Address of the admin of the new identity",
          "yearsPeriod": "Years of validity of the name"
        }
      },
      "name()": {
        "details": "See {ISBTMetadata-name}."
      },
      "ownerOf(string)": {
        "details": "This function returns the owner address of the soul name identity specified by the name",
        "params": {
          "name": "Name of the soul name"
        },
        "returns": {
          "_0": "Address of the owner of the identity"
        }
      },
      "ownerOf(uint256)": {
        "details": "This function returns the owner address of the identity specified by the tokenId",
        "params": {
          "tokenId": "TokenId of the identity"
        },
        "returns": {
          "_0": "Address of the owner of the identity"
        }
      },
      "renounceRole(bytes32,address)": {
        "details": "Revokes `role` from the calling account. Roles are often managed via {grantRole} and {revokeRole}: this function's purpose is to provide a mechanism for accounts to lose their privileges if they are compromised (such as when a trusted device is misplaced). If the calling account had been revoked `role`, emits a {RoleRevoked} event. Requirements: - the caller must be `account`. May emit a {RoleRevoked} event."
      },
      "revokeRole(bytes32,address)": {
        "details": "Revokes `role` from `account`. If `account` had been granted `role`, emits a {RoleRevoked} event. Requirements: - the caller must have ``role``'s admin role. May emit a {RoleRevoked} event."
      },
      "setSoulName(address)": {
        "details": "The caller must have the admin to call this function",
        "params": {
          "_soulName": "Address of the SoulName contract"
        }
      },
      "supportsInterface(bytes4)": {
        "details": "Interface identification is specified in ERC-165.",
        "params": {
          "interfaceId": "The interface identifier, as specified in ERC-165"
        },
        "returns": {
          "_0": "`true` if the contract implements `interfaceId` and  `interfaceId` is not 0xffffffff, `false` otherwise"
        }
      },
      "symbol()": {
        "details": "See {ISBTMetadata-symbol}."
      },
      "tokenByIndex(uint256)": {
        "details": "See {ISBTEnumerable-tokenByIndex}."
      },
      "tokenOfOwner(address)": {
        "details": "This function returns the tokenId of the identity owned by an account",
        "params": {
          "owner": "Address of the owner of the identity"
        },
        "returns": {
          "_0": "TokenId of the identity owned by the account"
        }
      },
      "tokenOfOwnerByIndex(address,uint256)": {
        "details": "See {ISBTEnumerable-tokenOfOwnerByIndex}."
      },
      "tokenURI(address)": {
        "details": "This function returns the token URI of the identity owned by an account",
        "params": {
          "owner": "Address of the owner of the identity"
        },
        "returns": {
          "_0": "URI of the identity owned by the account"
        }
      },
      "tokenURI(string)": {
        "details": "This function returns the token URI of the soul name identity specified by the name",
        "params": {
          "name": "Name of the soul name"
        },
        "returns": {
          "_0": "URI of the identity associated to a soul name"
        }
      },
      "tokenURI(uint256)": {
        "details": "Throws if `_tokenId` is not a valid SBT. URIs are defined in RFC  3986. The URI may point to a JSON file that conforms to the \"ERC721  Metadata JSON Schema\".",
        "params": {
          "tokenId": "SBT to get the URI of"
        },
        "returns": {
          "_0": "URI of the SBT"
        }
      },
      "totalSupply()": {
        "details": "See {ISBTEnumerable-totalSupply}."
      }
    },
    "title": "Soulbound Identity",
    "version": 1
  },
  "userdoc": {
    "kind": "user",
    "methods": {
      "constructor": {
        "notice": "Creates a new soulbound identity"
      },
      "getExtension()": {
        "notice": "Returns the extension of the soul name"
      },
      "getSoulName()": {
        "notice": "Returns the address of the SoulName contract linked to this identity"
      },
      "getSoulNames(address)": {
        "notice": "Returns all the active soul names of an account"
      },
      "getSoulNames(uint256)": {
        "notice": "Returns all the active soul names of an account"
      },
      "getTokenData(string)": {
        "notice": "Returns the information of a soul name"
      },
      "isAvailable(string)": {
        "notice": "Checks if a soul name is available"
      },
      "mint(address)": {
        "notice": "Mints a new soulbound identity"
      },
      "mintIdentityWithName(address,string,uint256,string)": {
        "notice": "Mints a new soulbound identity with a SoulName associated to it"
      },
      "ownerOf(string)": {
        "notice": "Returns the owner address of a soul name"
      },
      "ownerOf(uint256)": {
        "notice": "Returns the owner address of an identity"
      },
      "setSoulName(address)": {
        "notice": "Sets the SoulName contract address linked to this identity"
      },
      "supportsInterface(bytes4)": {
        "notice": "Query if a contract implements an interface"
      },
      "tokenOfOwner(address)": {
        "notice": "Returns the identity id of an account"
      },
      "tokenURI(address)": {
        "notice": "Returns the URI of the owner of an identity"
      },
      "tokenURI(string)": {
        "notice": "Returns the URI of a soul name"
      },
      "tokenURI(uint256)": {
        "notice": "A distinct Uniform Resource Identifier (URI) for a given asset."
      }
    },
    "notice": "Soulbound token that represents an identity.",
    "version": 1
  },
  "storageLayout": {
    "storage": [
      {
        "astId": 9409,
        "contract": "contracts/SoulboundIdentity.sol:SoulboundIdentity",
        "label": "_name",
        "offset": 0,
        "slot": "0",
        "type": "t_string_storage"
      },
      {
        "astId": 9411,
        "contract": "contracts/SoulboundIdentity.sol:SoulboundIdentity",
        "label": "_symbol",
        "offset": 0,
        "slot": "1",
        "type": "t_string_storage"
      },
      {
        "astId": 9415,
        "contract": "contracts/SoulboundIdentity.sol:SoulboundIdentity",
        "label": "_owners",
        "offset": 0,
        "slot": "2",
        "type": "t_mapping(t_uint256,t_address)"
      },
      {
        "astId": 9419,
        "contract": "contracts/SoulboundIdentity.sol:SoulboundIdentity",
        "label": "_balances",
        "offset": 0,
        "slot": "3",
        "type": "t_mapping(t_address,t_uint256)"
      },
      {
        "astId": 9878,
        "contract": "contracts/SoulboundIdentity.sol:SoulboundIdentity",
        "label": "_ownedTokens",
        "offset": 0,
        "slot": "4",
        "type": "t_mapping(t_address,t_mapping(t_uint256,t_uint256))"
      },
      {
        "astId": 9882,
        "contract": "contracts/SoulboundIdentity.sol:SoulboundIdentity",
        "label": "_ownedTokensIndex",
        "offset": 0,
        "slot": "5",
        "type": "t_mapping(t_uint256,t_uint256)"
      },
      {
        "astId": 9885,
        "contract": "contracts/SoulboundIdentity.sol:SoulboundIdentity",
        "label": "_allTokens",
        "offset": 0,
        "slot": "6",
        "type": "t_array(t_uint256)dyn_storage"
      },
      {
        "astId": 9889,
        "contract": "contracts/SoulboundIdentity.sol:SoulboundIdentity",
        "label": "_allTokensIndex",
        "offset": 0,
        "slot": "7",
        "type": "t_mapping(t_uint256,t_uint256)"
      },
      {
        "astId": 24,
        "contract": "contracts/SoulboundIdentity.sol:SoulboundIdentity",
        "label": "_roles",
        "offset": 0,
        "slot": "8",
        "type": "t_mapping(t_bytes32,t_struct(RoleData)19_storage)"
      },
      {
        "astId": 8863,
        "contract": "contracts/SoulboundIdentity.sol:SoulboundIdentity",
        "label": "_baseTokenURI",
        "offset": 0,
        "slot": "9",
        "type": "t_string_storage"
      },
      {
        "astId": 8997,
        "contract": "contracts/SoulboundIdentity.sol:SoulboundIdentity",
        "label": "_tokenIdCounter",
        "offset": 0,
        "slot": "10",
        "type": "t_struct(Counter)3369_storage"
      },
      {
        "astId": 7255,
        "contract": "contracts/SoulboundIdentity.sol:SoulboundIdentity",
        "label": "soulName",
        "offset": 0,
        "slot": "11",
        "type": "t_contract(ISoulName)8355"
      }
    ],
    "types": {
      "t_address": {
        "encoding": "inplace",
        "label": "address",
        "numberOfBytes": "20"
      },
      "t_array(t_uint256)dyn_storage": {
        "base": "t_uint256",
        "encoding": "dynamic_array",
        "label": "uint256[]",
        "numberOfBytes": "32"
      },
      "t_bool": {
        "encoding": "inplace",
        "label": "bool",
        "numberOfBytes": "1"
      },
      "t_bytes32": {
        "encoding": "inplace",
        "label": "bytes32",
        "numberOfBytes": "32"
      },
      "t_contract(ISoulName)8355": {
        "encoding": "inplace",
        "label": "contract ISoulName",
        "numberOfBytes": "20"
      },
      "t_mapping(t_address,t_bool)": {
        "encoding": "mapping",
        "key": "t_address",
        "label": "mapping(address => bool)",
        "numberOfBytes": "32",
        "value": "t_bool"
      },
      "t_mapping(t_address,t_mapping(t_uint256,t_uint256))": {
        "encoding": "mapping",
        "key": "t_address",
        "label": "mapping(address => mapping(uint256 => uint256))",
        "numberOfBytes": "32",
        "value": "t_mapping(t_uint256,t_uint256)"
      },
      "t_mapping(t_address,t_uint256)": {
        "encoding": "mapping",
        "key": "t_address",
        "label": "mapping(address => uint256)",
        "numberOfBytes": "32",
        "value": "t_uint256"
      },
      "t_mapping(t_bytes32,t_struct(RoleData)19_storage)": {
        "encoding": "mapping",
        "key": "t_bytes32",
        "label": "mapping(bytes32 => struct AccessControl.RoleData)",
        "numberOfBytes": "32",
        "value": "t_struct(RoleData)19_storage"
      },
      "t_mapping(t_uint256,t_address)": {
        "encoding": "mapping",
        "key": "t_uint256",
        "label": "mapping(uint256 => address)",
        "numberOfBytes": "32",
        "value": "t_address"
      },
      "t_mapping(t_uint256,t_uint256)": {
        "encoding": "mapping",
        "key": "t_uint256",
        "label": "mapping(uint256 => uint256)",
        "numberOfBytes": "32",
        "value": "t_uint256"
      },
      "t_string_storage": {
        "encoding": "bytes",
        "label": "string",
        "numberOfBytes": "32"
      },
      "t_struct(Counter)3369_storage": {
        "encoding": "inplace",
        "label": "struct Counters.Counter",
        "members": [
          {
            "astId": 3368,
            "contract": "contracts/SoulboundIdentity.sol:SoulboundIdentity",
            "label": "_value",
            "offset": 0,
            "slot": "0",
            "type": "t_uint256"
          }
        ],
        "numberOfBytes": "32"
      },
      "t_struct(RoleData)19_storage": {
        "encoding": "inplace",
        "label": "struct AccessControl.RoleData",
        "members": [
          {
            "astId": 16,
            "contract": "contracts/SoulboundIdentity.sol:SoulboundIdentity",
            "label": "members",
            "offset": 0,
            "slot": "0",
            "type": "t_mapping(t_address,t_bool)"
          },
          {
            "astId": 18,
            "contract": "contracts/SoulboundIdentity.sol:SoulboundIdentity",
            "label": "adminRole",
            "offset": 0,
            "slot": "1",
            "type": "t_bytes32"
          }
        ],
        "numberOfBytes": "64"
      },
      "t_uint256": {
        "encoding": "inplace",
        "label": "uint256",
        "numberOfBytes": "32"
      }
    }
  }
}