{
  "address": "0xf2A344A63F3346f78474eA4e60aEB516AfA39875",
  "abi": [
    {
      "inputs": [
        {
          "internalType": "address",
          "name": "admin",
          "type": "address"
        },
        {
          "internalType": "string",
          "name": "baseTokenURI",
          "type": "string"
        },
        {
          "internalType": "contract ISoulboundIdentity",
          "name": "soulboundIdentity",
          "type": "address"
        },
        {
          "components": [
            {
              "internalType": "address",
              "name": "swapRouter",
              "type": "address"
            },
            {
              "internalType": "address",
              "name": "wrappedNativeToken",
              "type": "address"
            },
            {
              "internalType": "address",
              "name": "stableCoin",
              "type": "address"
            },
            {
              "internalType": "address",
              "name": "masaToken",
              "type": "address"
            },
            {
              "internalType": "address",
              "name": "reserveWallet",
              "type": "address"
            }
          ],
          "internalType": "struct PaymentGateway.PaymentParams",
          "name": "paymentParams",
          "type": "tuple"
        }
      ],
      "stateMutability": "nonpayable",
      "type": "constructor"
    },
    {
      "inputs": [],
      "name": "AlreadyAdded",
      "type": "error"
    },
    {
      "inputs": [
        {
          "internalType": "address",
          "name": "caller",
          "type": "address"
        }
      ],
      "name": "CallerNotOwner",
      "type": "error"
    },
    {
      "inputs": [
        {
          "internalType": "uint256",
          "name": "amount",
          "type": "uint256"
        }
      ],
      "name": "InsufficientEthAmount",
      "type": "error"
    },
    {
      "inputs": [
        {
          "internalType": "address",
          "name": "paymentMethod",
          "type": "address"
        }
      ],
      "name": "InvalidPaymentMethod",
      "type": "error"
    },
    {
      "inputs": [],
      "name": "InvalidSignature",
      "type": "error"
    },
    {
      "inputs": [
        {
          "internalType": "address",
          "name": "token",
          "type": "address"
        }
      ],
      "name": "InvalidToken",
      "type": "error"
    },
    {
      "inputs": [
        {
          "internalType": "address",
          "name": "erc20token",
          "type": "address"
        }
      ],
      "name": "NonExistingErc20Token",
      "type": "error"
    },
    {
      "inputs": [
        {
          "internalType": "address",
          "name": "signer",
          "type": "address"
        }
      ],
      "name": "NotAuthorized",
      "type": "error"
    },
    {
      "inputs": [],
      "name": "RefundFailed",
      "type": "error"
    },
    {
      "inputs": [],
      "name": "SameValue",
      "type": "error"
    },
    {
      "inputs": [],
      "name": "TransferFailed",
      "type": "error"
    },
    {
      "inputs": [],
      "name": "ZeroAddress",
      "type": "error"
    },
    {
      "anonymous": false,
      "inputs": [
        {
          "indexed": true,
          "internalType": "address",
          "name": "_owner",
          "type": "address"
        },
        {
          "indexed": true,
          "internalType": "uint256",
          "name": "_tokenId",
          "type": "uint256"
        }
      ],
      "name": "Burn",
      "type": "event"
    },
    {
      "anonymous": false,
      "inputs": [
        {
          "indexed": true,
          "internalType": "address",
          "name": "_owner",
          "type": "address"
        },
        {
          "indexed": true,
          "internalType": "uint256",
          "name": "_tokenId",
          "type": "uint256"
        }
      ],
      "name": "Mint",
      "type": "event"
    },
    {
      "anonymous": false,
      "inputs": [
        {
          "indexed": true,
          "internalType": "address",
          "name": "previousOwner",
          "type": "address"
        },
        {
          "indexed": true,
          "internalType": "address",
          "name": "newOwner",
          "type": "address"
        }
      ],
      "name": "OwnershipTransferred",
      "type": "event"
    },
    {
      "anonymous": false,
      "inputs": [
        {
          "indexed": true,
          "internalType": "bytes32",
          "name": "role",
          "type": "bytes32"
        },
        {
          "indexed": true,
          "internalType": "bytes32",
          "name": "previousAdminRole",
          "type": "bytes32"
        },
        {
          "indexed": true,
          "internalType": "bytes32",
          "name": "newAdminRole",
          "type": "bytes32"
        }
      ],
      "name": "RoleAdminChanged",
      "type": "event"
    },
    {
      "anonymous": false,
      "inputs": [
        {
          "indexed": true,
          "internalType": "bytes32",
          "name": "role",
          "type": "bytes32"
        },
        {
          "indexed": true,
          "internalType": "address",
          "name": "account",
          "type": "address"
        },
        {
          "indexed": true,
          "internalType": "address",
          "name": "sender",
          "type": "address"
        }
      ],
      "name": "RoleGranted",
      "type": "event"
    },
    {
      "anonymous": false,
      "inputs": [
        {
          "indexed": true,
          "internalType": "bytes32",
          "name": "role",
          "type": "bytes32"
        },
        {
          "indexed": true,
          "internalType": "address",
          "name": "account",
          "type": "address"
        },
        {
          "indexed": true,
          "internalType": "address",
          "name": "sender",
          "type": "address"
        }
      ],
      "name": "RoleRevoked",
      "type": "event"
    },
    {
      "anonymous": false,
      "inputs": [
        {
          "indexed": false,
          "internalType": "uint256",
          "name": "tokenId",
          "type": "uint256"
        },
        {
          "indexed": false,
          "internalType": "uint256",
          "name": "identityId",
          "type": "uint256"
        },
        {
          "indexed": false,
          "internalType": "address",
          "name": "authorityAddress",
          "type": "address"
        },
        {
          "indexed": false,
          "internalType": "uint256",
          "name": "signatureDate",
          "type": "uint256"
        },
        {
          "indexed": false,
          "internalType": "address",
          "name": "paymentMethod",
          "type": "address"
        },
        {
          "indexed": false,
          "internalType": "uint256",
          "name": "mintPrice",
          "type": "uint256"
        }
      ],
      "name": "Soulbound2FAMinted",
      "type": "event"
    },
    {
      "inputs": [],
      "name": "DEFAULT_ADMIN_ROLE",
      "outputs": [
        {
          "internalType": "bytes32",
          "name": "",
          "type": "bytes32"
        }
      ],
      "stateMutability": "view",
      "type": "function"
    },
    {
      "inputs": [
        {
          "internalType": "address",
          "name": "_authority",
          "type": "address"
        }
      ],
      "name": "addAuthority",
      "outputs": [],
      "stateMutability": "nonpayable",
      "type": "function"
    },
    {
      "inputs": [],
      "name": "addLinkPrice",
      "outputs": [
        {
          "internalType": "uint256",
          "name": "",
          "type": "uint256"
        }
      ],
      "stateMutability": "view",
      "type": "function"
    },
    {
      "inputs": [],
      "name": "addLinkPriceMASA",
      "outputs": [
        {
          "internalType": "uint256",
          "name": "",
          "type": "uint256"
        }
      ],
      "stateMutability": "view",
      "type": "function"
    },
    {
      "inputs": [
        {
          "internalType": "address",
          "name": "",
          "type": "address"
        }
      ],
      "name": "authorities",
      "outputs": [
        {
          "internalType": "bool",
          "name": "",
          "type": "bool"
        }
      ],
      "stateMutability": "view",
      "type": "function"
    },
    {
      "inputs": [
        {
          "internalType": "address",
          "name": "owner",
          "type": "address"
        }
      ],
      "name": "balanceOf",
      "outputs": [
        {
          "internalType": "uint256",
          "name": "",
          "type": "uint256"
        }
      ],
      "stateMutability": "view",
      "type": "function"
    },
    {
      "inputs": [
        {
          "internalType": "uint256",
          "name": "tokenId",
          "type": "uint256"
        }
      ],
      "name": "burn",
      "outputs": [],
      "stateMutability": "nonpayable",
      "type": "function"
    },
    {
      "inputs": [
        {
          "internalType": "address",
          "name": "_paymentMethod",
          "type": "address"
        }
      ],
      "name": "disablePaymentMethod",
      "outputs": [],
      "stateMutability": "nonpayable",
      "type": "function"
    },
    {
      "inputs": [
        {
          "internalType": "address",
          "name": "_paymentMethod",
          "type": "address"
        }
      ],
      "name": "enablePaymentMethod",
      "outputs": [],
      "stateMutability": "nonpayable",
      "type": "function"
    },
    {
      "inputs": [
        {
          "internalType": "address",
          "name": "",
          "type": "address"
        }
      ],
      "name": "enabledPaymentMethod",
      "outputs": [
        {
          "internalType": "bool",
          "name": "",
          "type": "bool"
        }
      ],
      "stateMutability": "view",
      "type": "function"
    },
    {
      "inputs": [
        {
          "internalType": "uint256",
          "name": "",
          "type": "uint256"
        }
      ],
      "name": "enabledPaymentMethods",
      "outputs": [
        {
          "internalType": "address",
          "name": "",
          "type": "address"
        }
      ],
      "stateMutability": "view",
      "type": "function"
    },
    {
      "inputs": [
        {
          "internalType": "uint256",
          "name": "tokenId",
          "type": "uint256"
        }
      ],
      "name": "exists",
      "outputs": [
        {
          "internalType": "bool",
          "name": "",
          "type": "bool"
        }
      ],
      "stateMutability": "view",
      "type": "function"
    },
    {
      "inputs": [],
      "name": "getEnabledPaymentMethods",
      "outputs": [
        {
          "internalType": "address[]",
          "name": "",
          "type": "address[]"
        }
      ],
      "stateMutability": "view",
      "type": "function"
    },
    {
      "inputs": [
        {
          "internalType": "uint256",
          "name": "tokenId",
          "type": "uint256"
        }
      ],
      "name": "getIdentityId",
      "outputs": [
        {
          "internalType": "uint256",
          "name": "",
          "type": "uint256"
        }
      ],
      "stateMutability": "view",
      "type": "function"
    },
    {
      "inputs": [
        {
          "internalType": "address",
          "name": "paymentMethod",
          "type": "address"
        }
      ],
      "name": "getMintPrice",
      "outputs": [
        {
          "internalType": "uint256",
          "name": "",
          "type": "uint256"
        }
      ],
      "stateMutability": "view",
      "type": "function"
    },
    {
      "inputs": [
        {
          "internalType": "bytes32",
          "name": "role",
          "type": "bytes32"
        }
      ],
      "name": "getRoleAdmin",
      "outputs": [
        {
          "internalType": "bytes32",
          "name": "",
          "type": "bytes32"
        }
      ],
      "stateMutability": "view",
      "type": "function"
    },
    {
      "inputs": [
        {
          "internalType": "bytes32",
          "name": "role",
          "type": "bytes32"
        },
        {
          "internalType": "address",
          "name": "account",
          "type": "address"
        }
      ],
      "name": "grantRole",
      "outputs": [],
      "stateMutability": "nonpayable",
      "type": "function"
    },
    {
      "inputs": [
        {
          "internalType": "bytes32",
          "name": "role",
          "type": "bytes32"
        },
        {
          "internalType": "address",
          "name": "account",
          "type": "address"
        }
      ],
      "name": "hasRole",
      "outputs": [
        {
          "internalType": "bool",
          "name": "",
          "type": "bool"
        }
      ],
      "stateMutability": "view",
      "type": "function"
    },
    {
      "inputs": [],
      "name": "masaToken",
      "outputs": [
        {
          "internalType": "address",
          "name": "",
          "type": "address"
        }
      ],
      "stateMutability": "view",
      "type": "function"
    },
    {
      "inputs": [
        {
          "internalType": "address",
          "name": "paymentMethod",
          "type": "address"
        },
        {
          "internalType": "uint256",
          "name": "identityId",
          "type": "uint256"
        },
        {
          "internalType": "address",
          "name": "authorityAddress",
          "type": "address"
        },
        {
          "internalType": "uint256",
          "name": "signatureDate",
          "type": "uint256"
        },
        {
          "internalType": "bytes",
          "name": "signature",
          "type": "bytes"
        }
      ],
      "name": "mint",
      "outputs": [
        {
          "internalType": "uint256",
          "name": "",
          "type": "uint256"
        }
      ],
      "stateMutability": "payable",
      "type": "function"
    },
    {
      "inputs": [
        {
          "internalType": "address",
          "name": "paymentMethod",
          "type": "address"
        },
        {
          "internalType": "address",
          "name": "to",
          "type": "address"
        },
        {
          "internalType": "address",
          "name": "authorityAddress",
          "type": "address"
        },
        {
          "internalType": "uint256",
          "name": "signatureDate",
          "type": "uint256"
        },
        {
          "internalType": "bytes",
          "name": "signature",
          "type": "bytes"
        }
      ],
      "name": "mint",
      "outputs": [
        {
          "internalType": "uint256",
          "name": "",
          "type": "uint256"
        }
      ],
      "stateMutability": "payable",
      "type": "function"
    },
    {
      "inputs": [],
      "name": "mintPrice",
      "outputs": [
        {
          "internalType": "uint256",
          "name": "",
          "type": "uint256"
        }
      ],
      "stateMutability": "view",
      "type": "function"
    },
    {
      "inputs": [],
      "name": "mintPriceMASA",
      "outputs": [
        {
          "internalType": "uint256",
          "name": "",
          "type": "uint256"
        }
      ],
      "stateMutability": "view",
      "type": "function"
    },
    {
      "inputs": [],
      "name": "name",
      "outputs": [
        {
          "internalType": "string",
          "name": "",
          "type": "string"
        }
      ],
      "stateMutability": "view",
      "type": "function"
    },
    {
      "inputs": [],
      "name": "owner",
      "outputs": [
        {
          "internalType": "address",
          "name": "",
          "type": "address"
        }
      ],
      "stateMutability": "view",
      "type": "function"
    },
    {
      "inputs": [
        {
          "internalType": "uint256",
          "name": "tokenId",
          "type": "uint256"
        }
      ],
      "name": "ownerOf",
      "outputs": [
        {
          "internalType": "address",
          "name": "",
          "type": "address"
        }
      ],
      "stateMutability": "view",
      "type": "function"
    },
    {
      "inputs": [],
      "name": "readDataPrice",
      "outputs": [
        {
          "internalType": "uint256",
          "name": "",
          "type": "uint256"
        }
      ],
      "stateMutability": "view",
      "type": "function"
    },
    {
      "inputs": [],
      "name": "readDataPriceMASA",
      "outputs": [
        {
          "internalType": "uint256",
          "name": "",
          "type": "uint256"
        }
      ],
      "stateMutability": "view",
      "type": "function"
    },
    {
      "inputs": [],
      "name": "renounceOwnership",
      "outputs": [],
      "stateMutability": "nonpayable",
      "type": "function"
    },
    {
      "inputs": [
        {
          "internalType": "bytes32",
          "name": "role",
          "type": "bytes32"
        },
        {
          "internalType": "address",
          "name": "account",
          "type": "address"
        }
      ],
      "name": "renounceRole",
      "outputs": [],
      "stateMutability": "nonpayable",
      "type": "function"
    },
    {
      "inputs": [],
      "name": "reserveWallet",
      "outputs": [
        {
          "internalType": "address",
          "name": "",
          "type": "address"
        }
      ],
      "stateMutability": "view",
      "type": "function"
    },
    {
      "inputs": [
        {
          "internalType": "bytes32",
          "name": "role",
          "type": "bytes32"
        },
        {
          "internalType": "address",
          "name": "account",
          "type": "address"
        }
      ],
      "name": "revokeRole",
      "outputs": [],
      "stateMutability": "nonpayable",
      "type": "function"
    },
    {
      "inputs": [
        {
          "internalType": "uint256",
          "name": "_addLinkPrice",
          "type": "uint256"
        }
      ],
      "name": "setAddLinkPrice",
      "outputs": [],
      "stateMutability": "nonpayable",
      "type": "function"
    },
    {
      "inputs": [
        {
          "internalType": "uint256",
          "name": "_addLinkPriceMASA",
          "type": "uint256"
        }
      ],
      "name": "setAddLinkPriceMASA",
      "outputs": [],
      "stateMutability": "nonpayable",
      "type": "function"
    },
    {
      "inputs": [
        {
          "internalType": "address",
          "name": "_masaToken",
          "type": "address"
        }
      ],
      "name": "setMasaToken",
      "outputs": [],
      "stateMutability": "nonpayable",
      "type": "function"
    },
    {
      "inputs": [
        {
          "internalType": "uint256",
          "name": "_mintPrice",
          "type": "uint256"
        }
      ],
      "name": "setMintPrice",
      "outputs": [],
      "stateMutability": "nonpayable",
      "type": "function"
    },
    {
      "inputs": [
        {
          "internalType": "uint256",
          "name": "_mintPriceMASA",
          "type": "uint256"
        }
      ],
      "name": "setMintPriceMASA",
      "outputs": [],
      "stateMutability": "nonpayable",
      "type": "function"
    },
    {
      "inputs": [
        {
          "internalType": "uint256",
          "name": "_readDataPrice",
          "type": "uint256"
        }
      ],
      "name": "setReadDataPrice",
      "outputs": [],
      "stateMutability": "nonpayable",
      "type": "function"
    },
    {
      "inputs": [
        {
          "internalType": "uint256",
          "name": "_readDataPriceMASA",
          "type": "uint256"
        }
      ],
      "name": "setReadDataPriceMASA",
      "outputs": [],
      "stateMutability": "nonpayable",
      "type": "function"
    },
    {
      "inputs": [
        {
          "internalType": "address",
          "name": "_reserveWallet",
          "type": "address"
        }
      ],
      "name": "setReserveWallet",
      "outputs": [],
      "stateMutability": "nonpayable",
      "type": "function"
    },
    {
      "inputs": [
        {
          "internalType": "contract ISoulboundIdentity",
          "name": "_soulboundIdentity",
          "type": "address"
        }
      ],
      "name": "setSoulboundIdentity",
      "outputs": [],
      "stateMutability": "nonpayable",
      "type": "function"
    },
    {
      "inputs": [
        {
          "internalType": "address",
          "name": "_stableCoin",
          "type": "address"
        }
      ],
      "name": "setStableCoin",
      "outputs": [],
      "stateMutability": "nonpayable",
      "type": "function"
    },
    {
      "inputs": [
        {
          "internalType": "address",
          "name": "_swapRouter",
          "type": "address"
        }
      ],
      "name": "setSwapRouter",
      "outputs": [],
      "stateMutability": "nonpayable",
      "type": "function"
    },
    {
      "inputs": [
        {
          "internalType": "address",
          "name": "_wrappedNativeToken",
          "type": "address"
        }
      ],
      "name": "setWrappedNativeToken",
      "outputs": [],
      "stateMutability": "nonpayable",
      "type": "function"
    },
    {
      "inputs": [],
      "name": "soulboundIdentity",
      "outputs": [
        {
          "internalType": "contract ISoulboundIdentity",
          "name": "",
          "type": "address"
        }
      ],
      "stateMutability": "view",
      "type": "function"
    },
    {
      "inputs": [],
      "name": "stableCoin",
      "outputs": [
        {
          "internalType": "address",
          "name": "",
          "type": "address"
        }
      ],
      "stateMutability": "view",
      "type": "function"
    },
    {
      "inputs": [
        {
          "internalType": "bytes4",
          "name": "interfaceId",
          "type": "bytes4"
        }
      ],
      "name": "supportsInterface",
      "outputs": [
        {
          "internalType": "bool",
          "name": "",
          "type": "bool"
        }
      ],
      "stateMutability": "view",
      "type": "function"
    },
    {
      "inputs": [],
      "name": "swapRouter",
      "outputs": [
        {
          "internalType": "address",
          "name": "",
          "type": "address"
        }
      ],
      "stateMutability": "view",
      "type": "function"
    },
    {
      "inputs": [],
      "name": "symbol",
      "outputs": [
        {
          "internalType": "string",
          "name": "",
          "type": "string"
        }
      ],
      "stateMutability": "view",
      "type": "function"
    },
    {
      "inputs": [
        {
          "internalType": "uint256",
          "name": "index",
          "type": "uint256"
        }
      ],
      "name": "tokenByIndex",
      "outputs": [
        {
          "internalType": "uint256",
          "name": "",
          "type": "uint256"
        }
      ],
      "stateMutability": "view",
      "type": "function"
    },
    {
      "inputs": [
        {
          "internalType": "address",
          "name": "owner",
          "type": "address"
        },
        {
          "internalType": "uint256",
          "name": "index",
          "type": "uint256"
        }
      ],
      "name": "tokenOfOwnerByIndex",
      "outputs": [
        {
          "internalType": "uint256",
          "name": "",
          "type": "uint256"
        }
      ],
      "stateMutability": "view",
      "type": "function"
    },
    {
      "inputs": [
        {
          "internalType": "uint256",
          "name": "tokenId",
          "type": "uint256"
        }
      ],
      "name": "tokenURI",
      "outputs": [
        {
          "internalType": "string",
          "name": "",
          "type": "string"
        }
      ],
      "stateMutability": "view",
      "type": "function"
    },
    {
      "inputs": [],
      "name": "totalSupply",
      "outputs": [
        {
          "internalType": "uint256",
          "name": "",
          "type": "uint256"
        }
      ],
      "stateMutability": "view",
      "type": "function"
    },
    {
      "inputs": [
        {
          "internalType": "address",
          "name": "newOwner",
          "type": "address"
        }
      ],
      "name": "transferOwnership",
      "outputs": [],
      "stateMutability": "nonpayable",
      "type": "function"
    },
    {
      "inputs": [],
      "name": "wrappedNativeToken",
      "outputs": [
        {
          "internalType": "address",
          "name": "",
          "type": "address"
        }
      ],
      "stateMutability": "view",
      "type": "function"
    }
  ],
  "transactionHash": "0xae8cf4f3edcca7a8b3ee76a0b4f71ba8106d06384f47cfe3aea2b625d55e1a3e",
  "args": [
    "0xA38dd237a3A8D50537B74a4B0D4E7E8A5359386F",
    "https://beta.metadata.masa.finance/v1.0/2fa/",
    "0x43B0b4a74dc61a282028E7021563F16eE52ad77e",
    [
      "0x7a250d5630B4cF539739dF2C5dAcb4c659F2488D",
      "0xB4FBF271143F4FBf7B91A5ded31805e42b2208d6",
      "0xD87Ba7A50B2E7E660f678A895E4B72E7CB4CCd9C",
      "0x1f9840a85d5aF5bf1D1762F925BDADdC4201F984",
      "0xA38dd237a3A8D50537B74a4B0D4E7E8A5359386F"
    ]
  ],
  "numDeployments": 4,
  "solcInputHash": "c4cbbed3778c39eb83a2139990343971",
  "bytecode": "0x6101406040523480156200001257600080fd5b506040516200446e3803806200446e8339810160408190526200003591620006b4565b83604051806040016040528060088152602001674d6173612032464160c01b8152506040518060400160405280600381526020016226992360e91b8152508585856040518060400160405280600c81526020016b536f756c626f756e6432464160a01b815250604051806040016040528060058152602001640312e302e360dc1b8152508787878782828d89620000db620000d56200032660201b60201c565b6200032a565b80516001600160a01b0316620001045760405163d92e233d60e01b815260040160405180910390fd5b60208101516001600160a01b0316620001305760405163d92e233d60e01b815260040160405180910390fd5b60408101516001600160a01b03166200015c5760405163d92e233d60e01b815260040160405180910390fd5b60808101516001600160a01b0316620001885760405163d92e233d60e01b815260040160405180910390fd5b6200019e826200037a60201b620017251760201c565b8051600180546001600160a01b03199081166001600160a01b0393841617909155602080840151600280548416918516919091179055604084015160038054841691851691909117905560608401516004805484169185169190911790556080909301516007805490921692169190911790558351620002259250600891850190620004e7565b5080516200023b906009906020840190620004e7565b506200024d91506000905085620003c4565b805162000262906011906020840190620004e7565b5050845160208087019190912085519186019190912060e08290526101008190524660a05290935091507f8b73c3c69bb8fe3d512ecc4cf759cc79239f7b179b0ffacaa9a75d522b39400f9050620002bc8184846200044f565b6080523060601b60c05261012052505050506001600160a01b038216620002f65760405163d92e233d60e01b815260040160405180910390fd5b50601780546001600160a01b0319166001600160a01b0392909216919091179055506200098f9650505050505050565b3390565b600080546001600160a01b038381166001600160a01b0319831681178455604051919092169283917f8be0079c531659141344cd1fd0a4f28419497f9722a3daafe3b4186f6b6457e09190a35050565b620003846200048b565b6001600160a01b038116620003b65760405162461bcd60e51b8152600401620003ad90620007ad565b60405180910390fd5b620003c1816200032a565b50565b620003d08282620004ba565b6200044b5760008281526010602090815260408083206001600160a01b03851684529091529020805460ff191660011790556200040a3390565b6001600160a01b0316816001600160a01b0316837f2f8788117e7eff1d82e926ec794901d17c78024a50270940304540a733656f0d60405160405180910390a45b5050565b600083838346306040516020016200046c95949392919062000757565b6040516020818303038152906040528051906020012090509392505050565b6000546001600160a01b03163314620004b85760405162461bcd60e51b8152600401620003ad90620007f8565b565b60008281526010602090815260408083206001600160a01b038516845290915290205460ff165b92915050565b828054620004f590620008d4565b90600052602060002090601f01602090048101928262000519576000855562000564565b82601f106200053457805160ff191683800117855562000564565b8280016001018555821562000564579182015b828111156200056457825182559160200191906001019062000547565b506200057292915062000576565b5090565b5b8082111562000572576000815560010162000577565b6000620005a46200059e8462000852565b62000833565b905082815260208101848484011115620005c157620005c1600080fd5b620005ce848285620008a1565b509392505050565b8051620004e1816200096d565b8051620004e18162000984565b600082601f830112620006065762000606600080fd5b8151620006188482602086016200058d565b949350505050565b600060a08284031215620006375762000637600080fd5b6200064360a062000833565b90506000620006538484620005d6565b82525060206200066684848301620005d6565b60208301525060406200067c84828501620005d6565b60408301525060606200069284828501620005d6565b6060830152506080620006a884828501620005d6565b60808301525092915050565b6000806000806101008587031215620006d057620006d0600080fd5b6000620006de8787620005d6565b94505060208501516001600160401b03811115620006ff57620006ff600080fd5b6200070d87828801620005f0565b93505060406200072087828801620005e3565b9250506060620007338782880162000620565b91505092959194509250565b6200074a8162000882565b82525050565b806200074a565b60a0810162000767828862000750565b62000776602083018762000750565b62000785604083018662000750565b62000794606083018562000750565b620007a360808301846200073f565b9695505050505050565b60208082528101620004e181602681527f4f776e61626c653a206e6577206f776e657220697320746865207a65726f206160208201526564647265737360d01b604082015260600190565b60208082528181019081527f4f776e61626c653a2063616c6c6572206973206e6f7420746865206f776e6572604083015260608201620004e1565b60006200083f60405190565b90506200084d828262000905565b919050565b60006001600160401b038211156200086e576200086e6200094d565b620008798262000963565b60200192915050565b60006001600160a01b038216620004e1565b6000620004e18262000882565b60005b83811015620008be578181015183820152602001620008a4565b83811115620008ce576000848401525b50505050565b600281046001821680620008e957607f821691505b60208210811415620008ff57620008ff62000937565b50919050565b620009108262000963565b81018181106001600160401b03821117156200093057620009306200094d565b6040525050565b634e487b7160e01b600052602260045260246000fd5b634e487b7160e01b600052604160045260246000fd5b601f01601f191690565b620009788162000882565b8114620003c157600080fd5b620009788162000894565b60805160a05160c05160601c60e0516101005161012051613a8c620009e2600039600061238d015260006123cf015260006123ae015260006123120152600061233c015260006123660152613a8c6000f3fe6080604052600436106102705760003560e01c806301ffc9a7146102755780630513c3e9146102ab57806306fdde03146102d85780630effc8f6146102fa578063102005191461031c57806317fcb39b1461033e57806318160ddd1461035e5780631830e8811461037c5780631f37c1241461039257806320d558aa146103a857806323af4e17146103bb578063248a9ca3146103db57806326defa73146103fb578063289c686b1461041b5780632f2ff15d1461043b5780632f745c591461045b57806336568abe1461047b5780633ad3033e1461049b5780633c72ae70146104bb57806341273657146104db57806342966c68146104fb57806345f455391461051b5780634962a1581461053b5780634f558e791461055b5780634f6ccce71461057b5780635b8278cf1461059b5780636352211e146105b15780636817c76c146105d157806370a08231146105e7578063715018a614610607578063719d0f2b1461061c57806376ad19971461063c578063776d1a541461065c57806377bed5ed146106725780637a0d16461461069f5780637ad09dff146106cf5780638da5cb5b146106e257806391223d69146106f757806391d148541461072757806394a665e91461074757806395d89b411461076757806396329e8d1461077c578063992642e514610792578063a217fddf146107b2578063c1177d19146107c7578063c31c9c07146107e7578063c86aadb614610807578063c87b56dd14610827578063d547741f14610847578063d72b11bd14610867578063da058ae314610887578063dda4fa8f146108a7578063ebda4396146108c7578063f2fde38b146108e7578063f4a0a52814610907575b600080fd5b34801561028157600080fd5b50610295610290366004612efb565b610927565b6040516102a29190613576565b60405180910390f35b3480156102b757600080fd5b506102cb6102c6366004612ea7565b610938565b6040516102a2919061352f565b3480156102e457600080fd5b506102ed610962565b6040516102a29190613648565b34801561030657600080fd5b5061031a610315366004612ea7565b6109f4565b005b34801561032857600080fd5b50610331610a28565b6040516102a29190613565565b34801561034a57600080fd5b506002546102cb906001600160a01b031681565b34801561036a57600080fd5b50600e545b6040516102a29190613584565b34801561038857600080fd5b5061036f60195481565b34801561039e57600080fd5b5061036f60125481565b61036f6103b6366004612e13565b610a89565b3480156103c757600080fd5b5061031a6103d6366004612cff565b610c00565b3480156103e757600080fd5b5061036f6103f6366004612ea7565b610c80565b34801561040757600080fd5b5061031a610416366004612cff565b610c95565b34801561042757600080fd5b5061031a610436366004612ea7565b610d26565b34801561044757600080fd5b5061031a610456366004612ec8565b610d5a565b34801561046757600080fd5b5061036f610476366004612dd6565b610d7b565b34801561048757600080fd5b5061031a610496366004612ec8565b610dcd565b3480156104a757600080fd5b5061031a6104b6366004612f1c565b610e03565b3480156104c757600080fd5b5061031a6104d6366004612ea7565b610e87565b3480156104e757600080fd5b5061031a6104f6366004612cff565b610ebb565b34801561050757600080fd5b5061031a610516366004612ea7565b610f3b565b34801561052757600080fd5b5061031a610536366004612ea7565b610f6d565b34801561054757600080fd5b5061031a610556366004612ea7565b610fa1565b34801561056757600080fd5b50610295610576366004612ea7565b610fd5565b34801561058757600080fd5b5061036f610596366004612ea7565b610fe0565b3480156105a757600080fd5b5061036f60155481565b3480156105bd57600080fd5b506102cb6105cc366004612ea7565b61102e565b3480156105dd57600080fd5b5061036f60185481565b3480156105f357600080fd5b5061036f610602366004612cff565b611063565b34801561061357600080fd5b5061031a6110a7565b34801561062857600080fd5b5061036f610637366004612cff565b6110bb565b34801561064857600080fd5b5061031a610657366004612cff565b6111bb565b34801561066857600080fd5b5061036f60135481565b34801561067e57600080fd5b50601754610692906001600160a01b031681565b6040516102a2919061363a565b3480156106ab57600080fd5b506102956106ba366004612cff565b60056020526000908152604090205460ff1681565b61036f6106dd366004612d41565b611214565b3480156106ee57600080fd5b506102cb6112b5565b34801561070357600080fd5b50610295610712366004612cff565b601a6020526000908152604090205460ff1681565b34801561073357600080fd5b50610295610742366004612ec8565b6112c4565b34801561075357600080fd5b5061031a610762366004612cff565b6112ef565b34801561077357600080fd5b506102ed611458565b34801561078857600080fd5b5061036f60145481565b34801561079e57600080fd5b506003546102cb906001600160a01b031681565b3480156107be57600080fd5b5061036f600081565b3480156107d357600080fd5b5061036f6107e2366004612ea7565b611467565b3480156107f357600080fd5b506001546102cb906001600160a01b031681565b34801561081357600080fd5b5061031a610822366004612cff565b6114fb565b34801561083357600080fd5b506102ed610842366004612ea7565b6115a3565b34801561085357600080fd5b5061031a610862366004612ec8565b611609565b34801561087357600080fd5b506007546102cb906001600160a01b031681565b34801561089357600080fd5b5061031a6108a2366004612cff565b611625565b3480156108b357600080fd5b5061031a6108c2366004612cff565b6116a5565b3480156108d357600080fd5b506004546102cb906001600160a01b031681565b3480156108f357600080fd5b5061031a610902366004612cff565b611725565b34801561091357600080fd5b5061031a610922366004612ea7565b61175c565b600061093282611790565b92915050565b6006818154811061094857600080fd5b6000918252602090912001546001600160a01b0316905081565b606060088054610971906138ee565b80601f016020809104026020016040519081016040528092919081815260200182805461099d906138ee565b80156109ea5780601f106109bf576101008083540402835291602001916109ea565b820191906000526020600020905b8154815290600101906020018083116109cd57829003601f168201915b5050505050905090565b60006109ff816117b5565b816015541415610a225760405163c23f6ccb60e01b815260040160405180910390fd5b50601555565b606060068054806020026020016040519081016040528092919081815260200182805480156109ea57602002820191906000526020600020905b81546001600160a01b03168152600190910190602001808311610a62575050505050905090565b6017546040516331a9108f60e11b815260009182916001600160a01b0390911690636352211e90610abe908a90600401613584565b60206040518083038186803b158015610ad657600080fd5b505afa158015610aea573d6000803e3d6000fd5b505050506040513d601f19601f82011682018060405250810190610b0e9190612d20565b90506001600160a01b0381163314610b44573360405163060296c760e31b8152600401610b3b919061352f565b60405180910390fd5b610b90610b528888886117bf565b85858080601f0160208091040260200160405190810160405280939291908181526020018383808284376000920191909152508b925061181e915050565b610ba288610b9d8a6110bb565b61189f565b6000610bad82611a45565b90507f7cb2a8af38fc0c5e237e90b7da012d3efe0c31a258dce47a5b65f8dd1dad828e818989898d601854604051610bea96959493929190613799565b60405180910390a19150505b9695505050505050565b610c08611a6b565b6001600160a01b038116610c2f5760405163d92e233d60e01b815260040160405180910390fd5b6003546001600160a01b0382811691161415610c5e5760405163c23f6ccb60e01b815260040160405180910390fd5b600380546001600160a01b0319166001600160a01b0392909216919091179055565b60009081526010602052604090206001015490565b6000610ca0816117b5565b6001600160a01b038216610cc75760405163d92e233d60e01b815260040160405180910390fd5b6001600160a01b0382166000908152601a602052604090205460ff1615610d015760405163f411c32760e01b815260040160405180910390fd5b506001600160a01b03166000908152601a60205260409020805460ff19166001179055565b6000610d31816117b5565b816012541415610d545760405163c23f6ccb60e01b815260040160405180910390fd5b50601255565b610d6382610c80565b610d6c816117b5565b610d768383611a9a565b505050565b6000610d8683611063565b8210610da45760405162461bcd60e51b8152600401610b3b906136a9565b506001600160a01b03919091166000908152600c60209081526040808320938352929052205490565b6001600160a01b0381163314610df55760405162461bcd60e51b8152600401610b3b90613769565b610dff8282611b20565b5050565b6000610e0e816117b5565b6001600160a01b038216610e355760405163d92e233d60e01b815260040160405180910390fd5b6017546001600160a01b0383811691161415610e645760405163c23f6ccb60e01b815260040160405180910390fd5b50601780546001600160a01b0319166001600160a01b0392909216919091179055565b6000610e92816117b5565b816013541415610eb55760405163c23f6ccb60e01b815260040160405180910390fd5b50601355565b610ec3611a6b565b6001600160a01b038116610eea5760405163d92e233d60e01b815260040160405180910390fd5b6001546001600160a01b0382811691161415610f195760405163c23f6ccb60e01b815260040160405180910390fd5b600180546001600160a01b0319166001600160a01b0392909216919091179055565b610f453382611b87565b610f615760405162461bcd60e51b8152600401610b3b906136e9565b610f6a81611baa565b50565b6000610f78816117b5565b816014541415610f9b5760405163c23f6ccb60e01b815260040160405180910390fd5b50601455565b6000610fac816117b5565b816019541415610fcf5760405163c23f6ccb60e01b815260040160405180910390fd5b50601955565b600061093282611c44565b6000610feb600e5490565b82106110095760405162461bcd60e51b8152600401610b3b90613759565b600e828154811061101c5761101c6139e5565b90600052602060002001549050919050565b6000818152600a60205260408120546001600160a01b0316806109325760405162461bcd60e51b8152600401610b3b90613729565b60006001600160a01b03821661108b5760405162461bcd60e51b8152600401610b3b906136d9565b506001600160a01b03166000908152600b602052604090205490565b6110af611a6b565b6110b96000611c61565b565b600060185460001480156110cf5750601954155b156110dc57506000919050565b6004546001600160a01b03838116911614801561111157506001600160a01b03821660009081526005602052604090205460ff165b801561111f57506000601954115b1561112c57505060195490565b6003546001600160a01b03838116911614801561116157506001600160a01b03821660009081526005602052604090205460ff165b1561116e57505060185490565b6001600160a01b03821660009081526005602052604090205460ff161561119b5761093282601854611cb1565b81604051630ac29ab760e31b8152600401610b3b919061352f565b919050565b6111c3611a6b565b6004546001600160a01b03828116911614156111f25760405163c23f6ccb60e01b815260040160405180910390fd5b600480546001600160a01b0319166001600160a01b0392909216919091179055565b60175460405163294cdf0d60e01b815260009182916001600160a01b039091169063294cdf0d90611249908a9060040161352f565b60206040518083038186803b15801561126157600080fd5b505afa158015611275573d6000803e3d6000fd5b505050506040513d601f19601f820116820180604052508101906112999190612f3d565b90506112a9888288888888610a89565b98975050505050505050565b6000546001600160a01b031690565b60009182526010602090815260408084206001600160a01b0393909316845291905290205460ff1690565b6112f7611a6b565b6001600160a01b03811660009081526005602052604090205460ff1661133257806040516318317bd560e01b8152600401610b3b919061352f565b6001600160a01b0381166000908152600560205260408120805460ff191690555b600654811015610dff57816001600160a01b03166006828154811061137a5761137a6139e5565b6000918252602090912001546001600160a01b0316141561144657600680546113a59060019061386d565b815481106113b5576113b56139e5565b600091825260209091200154600680546001600160a01b0390921691839081106113e1576113e16139e5565b9060005260206000200160006101000a8154816001600160a01b0302191690836001600160a01b031602179055506006805480611420576114206139cf565b600082815260209020810160001990810180546001600160a01b03191690550190555050565b8061145081613948565b915050611353565b606060098054610971906138ee565b6000806114738361102e565b60175460405163294cdf0d60e01b81529192506001600160a01b03169063294cdf0d906114a490849060040161352f565b60206040518083038186803b1580156114bc57600080fd5b505afa1580156114d0573d6000803e3d6000fd5b505050506040513d601f19601f820116820180604052508101906114f49190612f3d565b9392505050565b611503611a6b565b6001600160a01b03811660009081526005602052604090205460ff161561153d5760405163f411c32760e01b815260040160405180910390fd5b6001600160a01b03166000818152600560205260408120805460ff191660019081179091556006805491820181559091527ff652222313e28459528d920b65115c16c04f3efc82aaedc97be59f3f377c0d3f0180546001600160a01b0319169091179055565b60606115ae82611d50565b60006115b8611d75565b905060008151116115d857604051806020016040528060008152506114f4565b806115e284611d84565b6040516020016115f3929190613476565b6040516020818303038152906040529392505050565b61161282610c80565b61161b816117b5565b610d768383611b20565b61162d611a6b565b6001600160a01b0381166116545760405163d92e233d60e01b815260040160405180910390fd5b6002546001600160a01b03828116911614156116835760405163c23f6ccb60e01b815260040160405180910390fd5b600280546001600160a01b0319166001600160a01b0392909216919091179055565b6116ad611a6b565b6001600160a01b0381166116d45760405163d92e233d60e01b815260040160405180910390fd5b6007546001600160a01b03828116911614156117035760405163c23f6ccb60e01b815260040160405180910390fd5b600780546001600160a01b0319166001600160a01b0392909216919091179055565b61172d611a6b565b6001600160a01b0381166117535760405162461bcd60e51b8152600401610b3b90613699565b610f6a81611c61565b6000611767816117b5565b81601854141561178a5760405163c23f6ccb60e01b815260040160405180910390fd5b50601855565b60006001600160e01b03198216637965db0b60e01b1480610932575061093282611e81565b610f6a8133611ea6565b60006118167f34ec28456d08f4e49693917808b7282a69eadae2824d33b92474bc8bdfdb7be68585856040516020016117fb94939291906135d4565b60405160208183030381529060405280519060200120611f0a565b949350505050565b600061182a8484611f1d565b9050816001600160a01b0316816001600160a01b03161461185e57604051638baa579f60e01b815260040160405180910390fd5b6001600160a01b0381166000908152601a602052604090205460ff166118995780604051634a0bfec160e01b8152600401610b3b919061352f565b50505050565b806118a8575050565b6001600160a01b03821660009081526005602052604090205460ff166118e35781604051630ac29ab760e31b8152600401610b3b919061352f565b6001600160a01b038216611a295780341015611914578060405163091a6d0f60e01b8152600401610b3b9190613584565b6007546040516000916001600160a01b0316908390611932906134d5565b60006040518083038185875af1925050503d806000811461196f576040519150601f19603f3d011682016040523d82523d6000602084013e611974565b606091505b5050905080611996576040516312171d8360e31b815260040160405180910390fd5b81341115610d765760006119aa3484611f41565b9050336001600160a01b0316816040516119c3906134d5565b60006040518083038185875af1925050503d8060008114611a00576040519150601f19603f3d011682016040523d82523d6000602084013e611a05565b606091505b5050809250508161189957604051633c31275160e21b815260040160405180910390fd5b600754610dff906001600160a01b038481169133911684611f4d565b600080611a5160165490565b9050611a61601680546001019055565b6109328382611fa5565b33611a746112b5565b6001600160a01b0316146110b95760405162461bcd60e51b8152600401610b3b90613709565b611aa482826112c4565b610dff5760008281526010602090815260408083206001600160a01b03851684529091529020805460ff19166001179055611adc3390565b6001600160a01b0316816001600160a01b0316837f2f8788117e7eff1d82e926ec794901d17c78024a50270940304540a733656f0d60405160405180910390a45050565b611b2a82826112c4565b15610dff5760008281526010602090815260408083206001600160a01b0385168085529252808320805460ff1916905551339285917ff6391f5c32d9c69d2a47ea670b442974b53935d1edc7fd64eb21e047a839171b9190a45050565b600080611b938361102e565b6001600160a01b0385811691161491505092915050565b6000611bb58261102e565b9050611bc381600084612081565b6001600160a01b0381166000908152600b60205260408120805460019290611bec90849061386d565b90915550506000828152600a602052604080822080546001600160a01b03191690555183916001600160a01b038416917fcc16f5dbb4873280815c1ee09dbd06736cffcc184412cf7a71a0fdb75d397ca59190a35050565b6000908152600a60205260409020546001600160a01b0316151590565b600080546001600160a01b038381166001600160a01b0319831681178455604051919092169283917f8be0079c531659141344cd1fd0a4f28419497f9722a3daafe3b4186f6b6457e09190a35050565b6001600160a01b03821660009081526005602052604081205460ff161580611ce657506003546001600160a01b038481169116145b15611d06578260405163961c9a4f60e01b8152600401610b3b919061352f565b6001600160a01b038316611d3857600254600354611d31916001600160a01b0390811691168461208c565b9050610932565b600354611d319084906001600160a01b03168461208c565b611d5981611c44565b610f6a5760405162461bcd60e51b8152600401610b3b90613729565b606060118054610971906138ee565b606081611da85750506040805180820190915260018152600360fc1b602082015290565b8160005b8115611dd25780611dbc81613948565b9150611dcb9050600a8361383a565b9150611dac565b6000816001600160401b03811115611dec57611dec6139fb565b6040519080825280601f01601f191660200182016040528015611e16576020820181803683370190505b5090505b841561181657611e2b60018361386d565b9150611e38600a86613963565b611e43906030613822565b60f81b818381518110611e5857611e586139e5565b60200101906001600160f81b031916908160001a905350611e7a600a8661383a565b9450611e1a565b60006001600160e01b0319821663780e9d6360e01b148061093257506109328261214a565b611eb082826112c4565b610dff57611ec8816001600160a01b0316601461219a565b611ed383602061219a565b604051602001611ee49291906134dd565b60408051601f198184030181529082905262461bcd60e51b8252610b3b91600401613648565b6000610932611f17612305565b836123f8565b6000806000611f2c858561242b565b91509150611f3981612471565b509392505050565b60006114f4828461386d565b611899846323b872dd60e01b858585604051602401611f6e9392919061353d565b60408051601f198184030181529190526020810180516001600160e01b03166001600160e01b031990931692909217909152612556565b6001600160a01b038216611fcb5760405162461bcd60e51b8152600401610b3b90613689565b611fd481611c44565b15611ff15760405162461bcd60e51b8152600401610b3b90613719565b611ffd60008383612081565b6001600160a01b0382166000908152600b60205260408120805460019290612026908490613822565b90915550506000818152600a602052604080822080546001600160a01b0319166001600160a01b038616908117909155905183927f0f6798a560793a54c3bcfe86a93cde1e73087d944c0ea20544137d412139688591a35050565b610d768383836125e5565b600060608061209b868661269d565b6001546040516307c0329d60e21b81529192506001600160a01b031690631f00ca74906120ce9087908590600401613779565b60006040518083038186803b1580156120e657600080fd5b505afa1580156120fa573d6000803e3d6000fd5b505050506040513d6000823e601f3d908101601f191682016040526121229190810190612e4c565b915081600081518110612137576121376139e5565b6020026020010151925050509392505050565b60006001600160e01b031982166313f2a32f60e01b148061217b57506001600160e01b03198216635b5e139f60e01b145b8061093257506301ffc9a760e01b6001600160e01b0319831614610932565b606060006121a983600261384e565b6121b4906002613822565b6001600160401b038111156121cb576121cb6139fb565b6040519080825280601f01601f1916602001820160405280156121f5576020820181803683370190505b509050600360fc1b81600081518110612210576122106139e5565b60200101906001600160f81b031916908160001a905350600f60fb1b8160018151811061223f5761223f6139e5565b60200101906001600160f81b031916908160001a905350600061226384600261384e565b61226e906001613822565b90505b60018111156122e6576f181899199a1a9b1b9c1cb0b131b232b360811b85600f16601081106122a2576122a26139e5565b1a60f81b8282815181106122b8576122b86139e5565b60200101906001600160f81b031916908160001a90535060049490941c936122df816138d7565b9050612271565b5083156114f45760405162461bcd60e51b8152600401610b3b90613669565b6000306001600160a01b037f00000000000000000000000000000000000000000000000000000000000000001614801561235e57507f000000000000000000000000000000000000000000000000000000000000000046145b1561238857507f000000000000000000000000000000000000000000000000000000000000000090565b6123f37f00000000000000000000000000000000000000000000000000000000000000007f00000000000000000000000000000000000000000000000000000000000000007f000000000000000000000000000000000000000000000000000000000000000061282f565b905090565b6000828260405160200161240d9291906134a4565b60405160208183030381529060405280519060200120905092915050565b6000808251604114156124625760208301516040840151606085015160001a61245687828585612869565b9450945050505061246a565b506000905060025b9250929050565b6000816004811115612485576124856139a3565b141561248e5750565b60018160048111156124a2576124a26139a3565b14156124c05760405162461bcd60e51b8152600401610b3b90613659565b60028160048111156124d4576124d46139a3565b14156124f25760405162461bcd60e51b8152600401610b3b90613679565b6003816004811115612506576125066139a3565b14156125245760405162461bcd60e51b8152600401610b3b906136b9565b6004816004811115612538576125386139a3565b1415610f6a5760405162461bcd60e51b8152600401610b3b906136f9565b60006125ab826040518060400160405280602081526020017f5361666545524332303a206c6f772d6c6576656c2063616c6c206661696c6564815250856001600160a01b031661293f9092919063ffffffff16565b805190915015610d7657808060200190518101906125c99190612e86565b610d765760405162461bcd60e51b8152600401610b3b90613749565b6001600160a01b0383166126405761263b81600e80546000838152600f60205260408120829055600182018355919091527fbb7b4a454dc3493923482f07822329ed19e8244eff582cc204f8554c3620c3fd0155565b612663565b816001600160a01b0316836001600160a01b03161461266357612663838261294e565b6001600160a01b03821661267a57610d76816129eb565b826001600160a01b0316826001600160a01b031614610d7657610d768282612a9a565b6002546060906001600160a01b03848116911614806126c957506002546001600160a01b038381169116145b1561279357604080516002808252606082018352600092602083019080368337019050506002549091506001600160a01b0385811691161461270b5783612718565b6002546001600160a01b03165b8160008151811061272b5761272b6139e5565b6001600160a01b0392831660209182029290920101526002548482169116146127545782612761565b6002546001600160a01b03165b81600181518110612774576127746139e5565b6001600160a01b03909216602092830291909101909101529050610932565b604080516003808252608082019092526000916020820160608036833701905050905083816000815181106127ca576127ca6139e5565b6001600160a01b0392831660209182029290920101526002548251911690829060019081106127fb576127fb6139e5565b60200260200101906001600160a01b031690816001600160a01b0316815250508281600281518110612774576127746139e5565b6000838383463060405160200161284a959493929190613592565b6040516020818303038152906040528051906020012090509392505050565b6000806fa2a8918ca85bafe22016d0b997e4df60600160ff1b038311156128965750600090506003612936565b8460ff16601b141580156128ae57508460ff16601c14155b156128bf5750600090506004612936565b6000600187878787604051600081526020016040526040516128e49493929190613612565b6020604051602081039080840390855afa158015612906573d6000803e3d6000fd5b5050604051601f1901519150506001600160a01b03811661292f57600060019250925050612936565b9150600090505b94509492505050565b60606118168484600085612ade565b6000600161295b84611063565b612965919061386d565b6000838152600d60205260409020549091508082146129b8576001600160a01b0384166000908152600c602090815260408083208584528252808320548484528184208190558352600d90915290208190555b506000918252600d602090815260408084208490556001600160a01b039094168352600c81528383209183525290812055565b600e546000906129fd9060019061386d565b6000838152600f6020526040812054600e8054939450909284908110612a2557612a256139e5565b9060005260206000200154905080600e8381548110612a4657612a466139e5565b6000918252602080832090910192909255828152600f9091526040808220849055858252812055600e805480612a7e57612a7e6139cf565b6001900381819060005260206000200160009055905550505050565b6000612aa583611063565b6001600160a01b039093166000908152600c602090815260408083208684528252808320859055938252600d9052919091209190915550565b606082471015612b005760405162461bcd60e51b8152600401610b3b906136c9565b6001600160a01b0385163b612b275760405162461bcd60e51b8152600401610b3b90613739565b600080866001600160a01b03168587604051612b43919061346a565b60006040518083038185875af1925050503d8060008114612b80576040519150601f19603f3d011682016040523d82523d6000602084013e612b85565b606091505b5091509150612b95828286612ba0565b979650505050505050565b60608315612baf5750816114f4565b825115612bbf5782518084602001fd5b8160405162461bcd60e51b8152600401610b3b9190613648565b6000612bec612be7846137ff565b6137e8565b90508083825260208201905082856020860282011115612c0e57612c0e600080fd5b60005b85811015612c3a5781612c248882612cf4565b8452506020928301929190910190600101612c11565b5050509392505050565b803561093281613a1b565b805161093281613a1b565b600082601f830112612c6e57612c6e600080fd5b8151611816848260208601612bd9565b805161093281613a2f565b803561093281613a37565b803561093281613a3d565b60008083601f840112612cb457612cb4600080fd5b5081356001600160401b03811115612cce57612cce600080fd5b60208301915083600182028301111561246a5761246a600080fd5b803561093281613a4d565b805161093281613a37565b600060208284031215612d1457612d14600080fd5b60006118168484612c44565b600060208284031215612d3557612d35600080fd5b60006118168484612c4f565b60008060008060008060a08789031215612d5d57612d5d600080fd5b6000612d698989612c44565b9650506020612d7a89828a01612c44565b9550506040612d8b89828a01612c44565b9450506060612d9c89828a01612c89565b93505060808701356001600160401b03811115612dbb57612dbb600080fd5b612dc789828a01612c9f565b92509250509295509295509295565b60008060408385031215612dec57612dec600080fd5b6000612df88585612c44565b9250506020612e0985828601612c89565b9150509250929050565b60008060008060008060a08789031215612e2f57612e2f600080fd5b6000612e3b8989612c44565b9650506020612d7a89828a01612c89565b600060208284031215612e6157612e61600080fd5b81516001600160401b03811115612e7a57612e7a600080fd5b61181684828501612c5a565b600060208284031215612e9b57612e9b600080fd5b60006118168484612c7e565b600060208284031215612ebc57612ebc600080fd5b60006118168484612c89565b60008060408385031215612ede57612ede600080fd5b6000612eea8585612c89565b9250506020612e0985828601612c44565b600060208284031215612f1057612f10600080fd5b60006118168484612c94565b600060208284031215612f3157612f31600080fd5b60006118168484612ce9565b600060208284031215612f5257612f52600080fd5b60006118168484612cf4565b6000612f6a8383612f72565b505060200190565b612f7b81613884565b82525050565b6000612f8b825190565b80845260209384019383018060005b83811015612fbf578151612fae8882612f5e565b975060208301925050600101612f9a565b509495945050505050565b801515612f7b565b80612f7b565b6000612fe2825190565b612ff08185602086016138ab565b9290920192915050565b612f7b816138a0565b600061300d825190565b8084526020840193506130248185602086016138ab565b61302d81613a11565b9093019392505050565b601881526000602082017745434453413a20696e76616c6964207369676e617475726560401b815291505b5060200190565b60208082527f537472696e67733a20686578206c656e67746820696e73756666696369656e7491019081526000613062565b601f81526000602082017f45434453413a20696e76616c6964207369676e6174757265206c656e6774680081529150613062565b601d81526000602082017f5342543a206d696e7420746f20746865207a65726f206164647265737300000081529150613062565b602681526000602082017f4f776e61626c653a206e6577206f776e657220697320746865207a65726f206181526564647265737360d01b602082015291505b5060400190565b602881526000602082017f534254456e756d657261626c653a206f776e657220696e646578206f7574206f8152676620626f756e647360c01b60208201529150613142565b602281526000602082017f45434453413a20696e76616c6964207369676e6174757265202773272076616c815261756560f01b60208201529150613142565b602681526000602082017f416464726573733a20696e73756666696369656e742062616c616e636520666f8152651c8818d85b1b60d21b60208201529150613142565b602681526000602082017f5342543a2061646472657373207a65726f206973206e6f7420612076616c69648152651037bbb732b960d11b60208201529150613142565b601e81526000602082017f5342543a2063616c6c6572206973206e6f7420746f6b656e206f776e6572000081529150613062565b602281526000602082017f45434453413a20696e76616c6964207369676e6174757265202776272076616c815261756560f01b60208201529150613142565b60208082527f4f776e61626c653a2063616c6c6572206973206e6f7420746865206f776e657291019081526000613062565b601981526000602082017814d0950e881d1bdad95b88185b1c9958591e481b5a5b9d1959603a1b81529150613062565b601581526000602082017414d0950e881a5b9d985b1a59081d1bdad95b881251605a1b81529150613062565b601d81526000602082017f416464726573733a2063616c6c20746f206e6f6e2d636f6e747261637400000081529150613062565b602a81526000602082017f5361666545524332303a204552433230206f7065726174696f6e20646964206e8152691bdd081cdd58d8d9595960b21b60208201529150613142565b602981526000602082017f534254456e756d657261626c653a20676c6f62616c20696e646578206f7574208152686f6620626f756e647360b81b60208201529150613142565b602f81526000602082017f416363657373436f6e74726f6c3a2063616e206f6e6c792072656e6f756e636581526e103937b632b9903337b91039b2b63360891b60208201529150613142565b60ff8116612f7b565b60006114f48284612fd8565b60006134828285612fd8565b915061348e8284612fd8565b64173539b7b760d91b8152915060058201611816565b61190160f01b815260020160006134bb8285612fd2565b6020820191506134cb8284612fd2565b5060200192915050565b600081610932565b76020b1b1b2b9b9a1b7b73a3937b61d1030b1b1b7bab73a1604d1b815260170160006135098285612fd8565b7001034b99036b4b9b9b4b733903937b6329607d1b815260110191506118168284612fd8565b602081016109328284612f72565b6060810161354b8286612f72565b6135586020830185612f72565b6118166040830184612fd2565b602080825281016114f48184612f81565b602081016109328284612fca565b602081016109328284612fd2565b60a081016135a08288612fd2565b6135ad6020830187612fd2565b6135ba6040830186612fd2565b6135c76060830185612fd2565b610bf66080830184612f72565b608081016135e28287612fd2565b6135ef6020830186612fd2565b6135fc6040830185612f72565b6136096060830184612fd2565b95945050505050565b608081016136208287612fd2565b61362d6020830186613461565b6135fc6040830185612fd2565b602081016109328284612ffa565b602080825281016114f48184613003565b6020808252810161093281613037565b6020808252810161093281613069565b602080825281016109328161309b565b60208082528101610932816130cf565b6020808252810161093281613103565b6020808252810161093281613149565b602080825281016109328161318e565b60208082528101610932816131cd565b6020808252810161093281613210565b6020808252810161093281613253565b6020808252810161093281613287565b60208082528101610932816132c6565b60208082528101610932816132f8565b6020808252810161093281613328565b6020808252810161093281613354565b6020808252810161093281613388565b60208082528101610932816133cf565b6020808252810161093281613415565b604081016137878285612fd2565b81810360208301526118168184612f81565b60c081016137a78289612fd2565b6137b46020830188612fd2565b6137c16040830187612f72565b6137ce6060830186612fd2565b6137db6080830185612f72565b612b9560a0830184612fd2565b60006137f360405190565b90506111b6828261391b565b60006001600160401b03821115613818576138186139fb565b5060209081020190565b6000821982111561383557613835613977565b500190565b6000826138495761384961398d565b500490565b600081600019048311821515161561386857613868613977565b500290565b60008282101561387f5761387f613977565b500390565b60006001600160a01b038216610932565b600061093282613884565b600061093282613895565b60005b838110156138c65781810151838201526020016138ae565b838111156118995750506000910152565b6000816138e6576138e6613977565b506000190190565b60028104600182168061390257607f821691505b60208210811415613915576139156139b9565b50919050565b61392482613a11565b81018181106001600160401b0382111715613941576139416139fb565b6040525050565b600060001982141561395c5761395c613977565b5060010190565b6000826139725761397261398d565b500690565b634e487b7160e01b600052601160045260246000fd5b634e487b7160e01b600052601260045260246000fd5b634e487b7160e01b600052602160045260246000fd5b634e487b7160e01b600052602260045260246000fd5b634e487b7160e01b600052603160045260246000fd5b634e487b7160e01b600052603260045260246000fd5b634e487b7160e01b600052604160045260246000fd5b601f01601f191690565b613a2481613884565b8114610f6a57600080fd5b801515613a24565b80613a24565b6001600160e01b03198116613a24565b613a248161389556fea26469706673582212207179ab08e8d47a73c550596836b19b41a611fb5e005205c50be986ce45c4aeb464736f6c63430008070033",
  "devdoc": {
    "author": "Masa Finance",
    "details": "Soulbound 2FA, that inherits from the SBT contract.",
    "kind": "dev",
    "methods": {
      "addAuthority(address)": {
        "details": "The caller must have the admin to call this function",
        "params": {
          "_authority": "New authority to add"
        }
      },
      "balanceOf(address)": {
        "details": "See {ISBT-balanceOf}."
      },
      "burn(uint256)": {
        "details": "Burns `tokenId`. See {SBT-_burn}. Requirements: - The caller must own `tokenId` or be an approved operator."
      },
      "constructor": {
        "details": "Creates a new soulbound 2FA, inheriting from the SBT contract.",
        "params": {
          "admin": "Administrator of the smart contract",
          "baseTokenURI": "Base URI of the token",
          "paymentParams": "Payment gateway params",
          "soulboundIdentity": "Address of the SoulboundIdentity contract"
        }
      },
      "disablePaymentMethod(address)": {
        "details": "The caller must have the owner to call this function",
        "params": {
          "_paymentMethod": "Token to remove"
        }
      },
      "enablePaymentMethod(address)": {
        "details": "The caller must have the owner to call this function",
        "params": {
          "_paymentMethod": "New token to add"
        }
      },
      "exists(uint256)": {
        "details": "Returns true if the token has been minted",
        "params": {
          "tokenId": "Token to check"
        },
        "returns": {
          "_0": "True if the token exists"
        }
      },
      "getEnabledPaymentMethods()": {
        "details": "Returns the address of all available payment methods",
        "returns": {
          "_0": "Array of all enabled payment methods"
        }
      },
      "getIdentityId(uint256)": {
        "params": {
          "tokenId": "Id of the token"
        },
        "returns": {
          "_0": "Id of the identity"
        }
      },
      "getMintPrice(address)": {
        "details": "Returns current pricing for minting",
        "params": {
          "paymentMethod": "Address of token that user want to pay"
        },
        "returns": {
          "_0": "Current price for minting in the given payment method"
        }
      },
      "getRoleAdmin(bytes32)": {
        "details": "Returns the admin role that controls `role`. See {grantRole} and {revokeRole}. To change a role's admin, use {_setRoleAdmin}."
      },
      "grantRole(bytes32,address)": {
        "details": "Grants `role` to `account`. If `account` had not been already granted `role`, emits a {RoleGranted} event. Requirements: - the caller must have ``role``'s admin role. May emit a {RoleGranted} event."
      },
      "hasRole(bytes32,address)": {
        "details": "Returns `true` if `account` has been granted `role`."
      },
      "mint(address,address,address,uint256,bytes)": {
        "details": "The caller must have the MINTER role",
        "params": {
          "paymentMethod": "Address of token that user want to pay",
          "to": "The address to mint the SBT to"
        },
        "returns": {
          "_0": "The SBT ID of the newly minted SBT"
        }
      },
      "mint(address,uint256,address,uint256,bytes)": {
        "details": "The caller must have the MINTER role",
        "params": {
          "identityId": "TokenId of the identity to mint the NFT to",
          "paymentMethod": "Address of token that user want to pay"
        },
        "returns": {
          "_0": "The NFT ID of the newly minted SBT"
        }
      },
      "name()": {
        "details": "See {ISBTMetadata-name}."
      },
      "owner()": {
        "details": "Returns the address of the current owner."
      },
      "ownerOf(uint256)": {
        "details": "See {ISBT-ownerOf}."
      },
      "renounceOwnership()": {
        "details": "Leaves the contract without owner. It will not be possible to call `onlyOwner` functions anymore. Can only be called by the current owner. NOTE: Renouncing ownership will leave the contract without an owner, thereby removing any functionality that is only available to the owner."
      },
      "renounceRole(bytes32,address)": {
        "details": "Revokes `role` from the calling account. Roles are often managed via {grantRole} and {revokeRole}: this function's purpose is to provide a mechanism for accounts to lose their privileges if they are compromised (such as when a trusted device is misplaced). If the calling account had been revoked `role`, emits a {RoleRevoked} event. Requirements: - the caller must be `account`. May emit a {RoleRevoked} event."
      },
      "revokeRole(bytes32,address)": {
        "details": "Revokes `role` from `account`. If `account` had been granted `role`, emits a {RoleRevoked} event. Requirements: - the caller must have ``role``'s admin role. May emit a {RoleRevoked} event."
      },
      "setAddLinkPrice(uint256)": {
        "details": "The caller must have the admin to call this function",
        "params": {
          "_addLinkPrice": "New price for adding the link in SoulLinker in stable coin"
        }
      },
      "setAddLinkPriceMASA(uint256)": {
        "details": "The caller must have the admin to call this function",
        "params": {
          "_addLinkPriceMASA": "New price for adding the link in SoulLinker in MASA"
        }
      },
      "setMasaToken(address)": {
        "details": "The caller must have the owner to call this function It can be set to address(0) to disable paying in MASA",
        "params": {
          "_masaToken": "New utility token to pay the fee in"
        }
      },
      "setMintPrice(uint256)": {
        "details": "The caller must have the admin to call this function",
        "params": {
          "_mintPrice": "New price of minting in stable coin"
        }
      },
      "setMintPriceMASA(uint256)": {
        "details": "The caller must have the admin to call this function",
        "params": {
          "_mintPriceMASA": "New price of minting in MASA"
        }
      },
      "setReadDataPrice(uint256)": {
        "details": "The caller must have the admin to call this function",
        "params": {
          "_readDataPrice": "New price for reading data in SoulLinker in stable coin"
        }
      },
      "setReadDataPriceMASA(uint256)": {
        "details": "The caller must have the admin to call this function",
        "params": {
          "_readDataPriceMASA": "New price for reading data in SoulLinker in MASA"
        }
      },
      "setReserveWallet(address)": {
        "details": "Let change the reserve walled. It can be triggered by an authorized account.",
        "params": {
          "_reserveWallet": "New reserve wallet"
        }
      },
      "setSoulboundIdentity(address)": {
        "details": "The caller must be the admin to call this function",
        "params": {
          "_soulboundIdentity": "Address of the SoulboundIdentity contract"
        }
      },
      "setStableCoin(address)": {
        "details": "The caller must have the owner to call this function",
        "params": {
          "_stableCoin": "New stable coin to pay the fee in"
        }
      },
      "setSwapRouter(address)": {
        "details": "The caller must have the owner to call this function",
        "params": {
          "_swapRouter": "New swap router address"
        }
      },
      "setWrappedNativeToken(address)": {
        "details": "The caller must have the owner to call this function",
        "params": {
          "_wrappedNativeToken": "New wrapped native token address"
        }
      },
      "supportsInterface(bytes4)": {
        "details": "Interface identification is specified in ERC-165.",
        "params": {
          "interfaceId": "The interface identifier, as specified in ERC-165"
        },
        "returns": {
          "_0": "`true` if the contract implements `interfaceId` and  `interfaceId` is not 0xffffffff, `false` otherwise"
        }
      },
      "symbol()": {
        "details": "See {ISBTMetadata-symbol}."
      },
      "tokenByIndex(uint256)": {
        "details": "See {ISBTEnumerable-tokenByIndex}."
      },
      "tokenOfOwnerByIndex(address,uint256)": {
        "details": "See {ISBTEnumerable-tokenOfOwnerByIndex}."
      },
      "tokenURI(uint256)": {
        "details": "Throws if `_tokenId` is not a valid SBT. URIs are defined in RFC  3986. The URI may point to a JSON file that conforms to the \"ERC721  Metadata JSON Schema\".",
        "params": {
          "tokenId": "SBT to get the URI of"
        },
        "returns": {
          "_0": "URI of the SBT"
        }
      },
      "totalSupply()": {
        "details": "See {ISBTEnumerable-totalSupply}."
      },
      "transferOwnership(address)": {
        "details": "Transfers ownership of the contract to a new account (`newOwner`). Can only be called by the current owner."
      }
    },
    "title": "Soulbound Two-factor authentication (2FA)",
    "version": 1
  },
  "userdoc": {
    "kind": "user",
    "methods": {
      "addAuthority(address)": {
        "notice": "Adds a new authority to the list of authorities"
      },
      "constructor": {
        "notice": "Creates a new soulbound Two-factor authentication (2FA)"
      },
      "disablePaymentMethod(address)": {
        "notice": "Removes a token as a valid payment method"
      },
      "enablePaymentMethod(address)": {
        "notice": "Adds a new token as a valid payment method"
      },
      "exists(uint256)": {
        "notice": "Returns true if the token exists"
      },
      "getEnabledPaymentMethods()": {
        "notice": "Returns all available payment methods"
      },
      "getIdentityId(uint256)": {
        "notice": "Returns the identityId owned by the given token"
      },
      "getMintPrice(address)": {
        "notice": "Returns the price for minting"
      },
      "mint(address,address,address,uint256,bytes)": {
        "notice": "Mints a new SBT"
      },
      "mint(address,uint256,address,uint256,bytes)": {
        "notice": "Mints a new SBT"
      },
      "setAddLinkPrice(uint256)": {
        "notice": "Sets the price for adding the link in SoulLinker in stable coin"
      },
      "setAddLinkPriceMASA(uint256)": {
        "notice": "Sets the price for adding the link in SoulLinker in MASA"
      },
      "setMasaToken(address)": {
        "notice": "Sets the utility token to pay the fee in (MASA)"
      },
      "setMintPrice(uint256)": {
        "notice": "Sets the price of minting in stable coin"
      },
      "setMintPriceMASA(uint256)": {
        "notice": "Sets the price of minting in MASA"
      },
      "setReadDataPrice(uint256)": {
        "notice": "Sets the price for reading data in SoulLinker in stable coin"
      },
      "setReadDataPriceMASA(uint256)": {
        "notice": "Sets the price for reading data in SoulLinker in MASA"
      },
      "setReserveWallet(address)": {
        "notice": "Set the reserve wallet"
      },
      "setSoulboundIdentity(address)": {
        "notice": "Sets the SoulboundIdentity contract address linked to this SBT"
      },
      "setStableCoin(address)": {
        "notice": "Sets the stable coin to pay the fee in (USDC)"
      },
      "setSwapRouter(address)": {
        "notice": "Sets the swap router address"
      },
      "setWrappedNativeToken(address)": {
        "notice": "Sets the wrapped native token address"
      },
      "supportsInterface(bytes4)": {
        "notice": "Query if a contract implements an interface"
      },
      "tokenURI(uint256)": {
        "notice": "A distinct Uniform Resource Identifier (URI) for a given asset."
      }
    },
    "notice": "Soulbound token that represents a Two-factor authentication (2FA)",
    "version": 1
  },
  "storageLayout": {
    "storage": [
      {
        "astId": 400,
        "contract": "contracts/Soulbound2FA.sol:Soulbound2FA",
        "label": "_owner",
        "offset": 0,
        "slot": "0",
        "type": "t_address"
      },
      {
        "astId": 7655,
        "contract": "contracts/Soulbound2FA.sol:Soulbound2FA",
        "label": "swapRouter",
        "offset": 0,
        "slot": "1",
        "type": "t_address"
      },
      {
        "astId": 7657,
        "contract": "contracts/Soulbound2FA.sol:Soulbound2FA",
        "label": "wrappedNativeToken",
        "offset": 0,
        "slot": "2",
        "type": "t_address"
      },
      {
        "astId": 7659,
        "contract": "contracts/Soulbound2FA.sol:Soulbound2FA",
        "label": "stableCoin",
        "offset": 0,
        "slot": "3",
        "type": "t_address"
      },
      {
        "astId": 7661,
        "contract": "contracts/Soulbound2FA.sol:Soulbound2FA",
        "label": "masaToken",
        "offset": 0,
        "slot": "4",
        "type": "t_address"
      },
      {
        "astId": 7665,
        "contract": "contracts/Soulbound2FA.sol:Soulbound2FA",
        "label": "enabledPaymentMethod",
        "offset": 0,
        "slot": "5",
        "type": "t_mapping(t_address,t_bool)"
      },
      {
        "astId": 7668,
        "contract": "contracts/Soulbound2FA.sol:Soulbound2FA",
        "label": "enabledPaymentMethods",
        "offset": 0,
        "slot": "6",
        "type": "t_array(t_address)dyn_storage"
      },
      {
        "astId": 7670,
        "contract": "contracts/Soulbound2FA.sol:Soulbound2FA",
        "label": "reserveWallet",
        "offset": 0,
        "slot": "7",
        "type": "t_address"
      },
      {
        "astId": 9689,
        "contract": "contracts/Soulbound2FA.sol:Soulbound2FA",
        "label": "_name",
        "offset": 0,
        "slot": "8",
        "type": "t_string_storage"
      },
      {
        "astId": 9691,
        "contract": "contracts/Soulbound2FA.sol:Soulbound2FA",
        "label": "_symbol",
        "offset": 0,
        "slot": "9",
        "type": "t_string_storage"
      },
      {
        "astId": 9695,
        "contract": "contracts/Soulbound2FA.sol:Soulbound2FA",
        "label": "_owners",
        "offset": 0,
        "slot": "10",
        "type": "t_mapping(t_uint256,t_address)"
      },
      {
        "astId": 9699,
        "contract": "contracts/Soulbound2FA.sol:Soulbound2FA",
        "label": "_balances",
        "offset": 0,
        "slot": "11",
        "type": "t_mapping(t_address,t_uint256)"
      },
      {
        "astId": 10158,
        "contract": "contracts/Soulbound2FA.sol:Soulbound2FA",
        "label": "_ownedTokens",
        "offset": 0,
        "slot": "12",
        "type": "t_mapping(t_address,t_mapping(t_uint256,t_uint256))"
      },
      {
        "astId": 10162,
        "contract": "contracts/Soulbound2FA.sol:Soulbound2FA",
        "label": "_ownedTokensIndex",
        "offset": 0,
        "slot": "13",
        "type": "t_mapping(t_uint256,t_uint256)"
      },
      {
        "astId": 10165,
        "contract": "contracts/Soulbound2FA.sol:Soulbound2FA",
        "label": "_allTokens",
        "offset": 0,
        "slot": "14",
        "type": "t_array(t_uint256)dyn_storage"
      },
      {
        "astId": 10169,
        "contract": "contracts/Soulbound2FA.sol:Soulbound2FA",
        "label": "_allTokensIndex",
        "offset": 0,
        "slot": "15",
        "type": "t_mapping(t_uint256,t_uint256)"
      },
      {
        "astId": 24,
        "contract": "contracts/Soulbound2FA.sol:Soulbound2FA",
        "label": "_roles",
        "offset": 0,
        "slot": "16",
        "type": "t_mapping(t_bytes32,t_struct(RoleData)19_storage)"
      },
      {
        "astId": 9001,
        "contract": "contracts/Soulbound2FA.sol:Soulbound2FA",
        "label": "_baseTokenURI",
        "offset": 0,
        "slot": "17",
        "type": "t_string_storage"
      },
      {
        "astId": 9004,
        "contract": "contracts/Soulbound2FA.sol:Soulbound2FA",
        "label": "addLinkPrice",
        "offset": 0,
        "slot": "18",
        "type": "t_uint256"
      },
      {
        "astId": 9007,
        "contract": "contracts/Soulbound2FA.sol:Soulbound2FA",
        "label": "addLinkPriceMASA",
        "offset": 0,
        "slot": "19",
        "type": "t_uint256"
      },
      {
        "astId": 9010,
        "contract": "contracts/Soulbound2FA.sol:Soulbound2FA",
        "label": "readDataPrice",
        "offset": 0,
        "slot": "20",
        "type": "t_uint256"
      },
      {
        "astId": 9013,
        "contract": "contracts/Soulbound2FA.sol:Soulbound2FA",
        "label": "readDataPriceMASA",
        "offset": 0,
        "slot": "21",
        "type": "t_uint256"
      },
      {
        "astId": 9322,
        "contract": "contracts/Soulbound2FA.sol:Soulbound2FA",
        "label": "_tokenIdCounter",
        "offset": 0,
        "slot": "22",
        "type": "t_struct(Counter)3369_storage"
      },
      {
        "astId": 9325,
        "contract": "contracts/Soulbound2FA.sol:Soulbound2FA",
        "label": "soulboundIdentity",
        "offset": 0,
        "slot": "23",
        "type": "t_contract(ISoulboundIdentity)8408"
      },
      {
        "astId": 9327,
        "contract": "contracts/Soulbound2FA.sol:Soulbound2FA",
        "label": "mintPrice",
        "offset": 0,
        "slot": "24",
        "type": "t_uint256"
      },
      {
        "astId": 9329,
        "contract": "contracts/Soulbound2FA.sol:Soulbound2FA",
        "label": "mintPriceMASA",
        "offset": 0,
        "slot": "25",
        "type": "t_uint256"
      },
      {
        "astId": 9333,
        "contract": "contracts/Soulbound2FA.sol:Soulbound2FA",
        "label": "authorities",
        "offset": 0,
        "slot": "26",
        "type": "t_mapping(t_address,t_bool)"
      }
    ],
    "types": {
      "t_address": {
        "encoding": "inplace",
        "label": "address",
        "numberOfBytes": "20"
      },
      "t_array(t_address)dyn_storage": {
        "base": "t_address",
        "encoding": "dynamic_array",
        "label": "address[]",
        "numberOfBytes": "32"
      },
      "t_array(t_uint256)dyn_storage": {
        "base": "t_uint256",
        "encoding": "dynamic_array",
        "label": "uint256[]",
        "numberOfBytes": "32"
      },
      "t_bool": {
        "encoding": "inplace",
        "label": "bool",
        "numberOfBytes": "1"
      },
      "t_bytes32": {
        "encoding": "inplace",
        "label": "bytes32",
        "numberOfBytes": "32"
      },
      "t_contract(ISoulboundIdentity)8408": {
        "encoding": "inplace",
        "label": "contract ISoulboundIdentity",
        "numberOfBytes": "20"
      },
      "t_mapping(t_address,t_bool)": {
        "encoding": "mapping",
        "key": "t_address",
        "label": "mapping(address => bool)",
        "numberOfBytes": "32",
        "value": "t_bool"
      },
      "t_mapping(t_address,t_mapping(t_uint256,t_uint256))": {
        "encoding": "mapping",
        "key": "t_address",
        "label": "mapping(address => mapping(uint256 => uint256))",
        "numberOfBytes": "32",
        "value": "t_mapping(t_uint256,t_uint256)"
      },
      "t_mapping(t_address,t_uint256)": {
        "encoding": "mapping",
        "key": "t_address",
        "label": "mapping(address => uint256)",
        "numberOfBytes": "32",
        "value": "t_uint256"
      },
      "t_mapping(t_bytes32,t_struct(RoleData)19_storage)": {
        "encoding": "mapping",
        "key": "t_bytes32",
        "label": "mapping(bytes32 => struct AccessControl.RoleData)",
        "numberOfBytes": "32",
        "value": "t_struct(RoleData)19_storage"
      },
      "t_mapping(t_uint256,t_address)": {
        "encoding": "mapping",
        "key": "t_uint256",
        "label": "mapping(uint256 => address)",
        "numberOfBytes": "32",
        "value": "t_address"
      },
      "t_mapping(t_uint256,t_uint256)": {
        "encoding": "mapping",
        "key": "t_uint256",
        "label": "mapping(uint256 => uint256)",
        "numberOfBytes": "32",
        "value": "t_uint256"
      },
      "t_string_storage": {
        "encoding": "bytes",
        "label": "string",
        "numberOfBytes": "32"
      },
      "t_struct(Counter)3369_storage": {
        "encoding": "inplace",
        "label": "struct Counters.Counter",
        "members": [
          {
            "astId": 3368,
            "contract": "contracts/Soulbound2FA.sol:Soulbound2FA",
            "label": "_value",
            "offset": 0,
            "slot": "0",
            "type": "t_uint256"
          }
        ],
        "numberOfBytes": "32"
      },
      "t_struct(RoleData)19_storage": {
        "encoding": "inplace",
        "label": "struct AccessControl.RoleData",
        "members": [
          {
            "astId": 16,
            "contract": "contracts/Soulbound2FA.sol:Soulbound2FA",
            "label": "members",
            "offset": 0,
            "slot": "0",
            "type": "t_mapping(t_address,t_bool)"
          },
          {
            "astId": 18,
            "contract": "contracts/Soulbound2FA.sol:Soulbound2FA",
            "label": "adminRole",
            "offset": 0,
            "slot": "1",
            "type": "t_bytes32"
          }
        ],
        "numberOfBytes": "64"
      },
      "t_uint256": {
        "encoding": "inplace",
        "label": "uint256",
        "numberOfBytes": "32"
      }
    }
  }
}