{
  "address": "0xc51cC18238426108f9eC51203d6a590ce8516B68",
  "abi": [
    {
      "inputs": [
        {
          "internalType": "address",
          "name": "admin",
          "type": "address"
        },
        {
          "internalType": "string",
          "name": "baseTokenURI",
          "type": "string"
        },
        {
          "internalType": "contract ISoulboundIdentity",
          "name": "soulboundIdentity",
          "type": "address"
        },
        {
          "internalType": "uint256",
          "name": "_mintingPrice",
          "type": "uint256"
        },
        {
          "components": [
            {
              "internalType": "address",
              "name": "swapRouter",
              "type": "address"
            },
            {
              "internalType": "address",
              "name": "wrappedNativeToken",
              "type": "address"
            },
            {
              "internalType": "address",
              "name": "stableCoin",
              "type": "address"
            },
            {
              "internalType": "address",
              "name": "masaToken",
              "type": "address"
            },
            {
              "internalType": "address",
              "name": "reserveWallet",
              "type": "address"
            }
          ],
          "internalType": "struct PaymentGateway.PaymentParams",
          "name": "paymentParams",
          "type": "tuple"
        }
      ],
      "stateMutability": "nonpayable",
      "type": "constructor"
    },
    {
      "anonymous": false,
      "inputs": [
        {
          "indexed": true,
          "internalType": "address",
          "name": "_owner",
          "type": "address"
        },
        {
          "indexed": true,
          "internalType": "uint256",
          "name": "_tokenId",
          "type": "uint256"
        }
      ],
      "name": "Burn",
      "type": "event"
    },
    {
      "anonymous": false,
      "inputs": [
        {
          "indexed": true,
          "internalType": "address",
          "name": "_owner",
          "type": "address"
        },
        {
          "indexed": true,
          "internalType": "uint256",
          "name": "_tokenId",
          "type": "uint256"
        }
      ],
      "name": "Mint",
      "type": "event"
    },
    {
      "anonymous": false,
      "inputs": [
        {
          "indexed": true,
          "internalType": "address",
          "name": "previousOwner",
          "type": "address"
        },
        {
          "indexed": true,
          "internalType": "address",
          "name": "newOwner",
          "type": "address"
        }
      ],
      "name": "OwnershipTransferred",
      "type": "event"
    },
    {
      "anonymous": false,
      "inputs": [
        {
          "indexed": true,
          "internalType": "bytes32",
          "name": "role",
          "type": "bytes32"
        },
        {
          "indexed": true,
          "internalType": "bytes32",
          "name": "previousAdminRole",
          "type": "bytes32"
        },
        {
          "indexed": true,
          "internalType": "bytes32",
          "name": "newAdminRole",
          "type": "bytes32"
        }
      ],
      "name": "RoleAdminChanged",
      "type": "event"
    },
    {
      "anonymous": false,
      "inputs": [
        {
          "indexed": true,
          "internalType": "bytes32",
          "name": "role",
          "type": "bytes32"
        },
        {
          "indexed": true,
          "internalType": "address",
          "name": "account",
          "type": "address"
        },
        {
          "indexed": true,
          "internalType": "address",
          "name": "sender",
          "type": "address"
        }
      ],
      "name": "RoleGranted",
      "type": "event"
    },
    {
      "anonymous": false,
      "inputs": [
        {
          "indexed": true,
          "internalType": "bytes32",
          "name": "role",
          "type": "bytes32"
        },
        {
          "indexed": true,
          "internalType": "address",
          "name": "account",
          "type": "address"
        },
        {
          "indexed": true,
          "internalType": "address",
          "name": "sender",
          "type": "address"
        }
      ],
      "name": "RoleRevoked",
      "type": "event"
    },
    {
      "anonymous": false,
      "inputs": [
        {
          "indexed": false,
          "internalType": "uint256",
          "name": "tokenId",
          "type": "uint256"
        },
        {
          "indexed": false,
          "internalType": "uint256",
          "name": "identityId",
          "type": "uint256"
        },
        {
          "indexed": false,
          "internalType": "address",
          "name": "authorityAddress",
          "type": "address"
        },
        {
          "indexed": false,
          "internalType": "uint256",
          "name": "signatureDate",
          "type": "uint256"
        },
        {
          "indexed": false,
          "internalType": "address",
          "name": "paymentMethod",
          "type": "address"
        },
        {
          "indexed": false,
          "internalType": "uint256",
          "name": "mintingPrice",
          "type": "uint256"
        }
      ],
      "name": "SoulboundCreditScoreMinted",
      "type": "event"
    },
    {
      "inputs": [],
      "name": "DEFAULT_ADMIN_ROLE",
      "outputs": [
        {
          "internalType": "bytes32",
          "name": "",
          "type": "bytes32"
        }
      ],
      "stateMutability": "view",
      "type": "function"
    },
    {
      "inputs": [
        {
          "internalType": "address",
          "name": "_authority",
          "type": "address"
        }
      ],
      "name": "addAuthority",
      "outputs": [],
      "stateMutability": "nonpayable",
      "type": "function"
    },
    {
      "inputs": [
        {
          "internalType": "address",
          "name": "_erc20token",
          "type": "address"
        }
      ],
      "name": "addErc20Token",
      "outputs": [],
      "stateMutability": "nonpayable",
      "type": "function"
    },
    {
      "inputs": [
        {
          "internalType": "address",
          "name": "",
          "type": "address"
        }
      ],
      "name": "authorities",
      "outputs": [
        {
          "internalType": "bool",
          "name": "",
          "type": "bool"
        }
      ],
      "stateMutability": "view",
      "type": "function"
    },
    {
      "inputs": [
        {
          "internalType": "address",
          "name": "owner",
          "type": "address"
        }
      ],
      "name": "balanceOf",
      "outputs": [
        {
          "internalType": "uint256",
          "name": "",
          "type": "uint256"
        }
      ],
      "stateMutability": "view",
      "type": "function"
    },
    {
      "inputs": [
        {
          "internalType": "uint256",
          "name": "tokenId",
          "type": "uint256"
        }
      ],
      "name": "burn",
      "outputs": [],
      "stateMutability": "nonpayable",
      "type": "function"
    },
    {
      "inputs": [
        {
          "internalType": "address",
          "name": "",
          "type": "address"
        }
      ],
      "name": "erc20token",
      "outputs": [
        {
          "internalType": "bool",
          "name": "",
          "type": "bool"
        }
      ],
      "stateMutability": "view",
      "type": "function"
    },
    {
      "inputs": [
        {
          "internalType": "uint256",
          "name": "",
          "type": "uint256"
        }
      ],
      "name": "erc20tokens",
      "outputs": [
        {
          "internalType": "address",
          "name": "",
          "type": "address"
        }
      ],
      "stateMutability": "view",
      "type": "function"
    },
    {
      "inputs": [],
      "name": "getErc20Tokens",
      "outputs": [
        {
          "internalType": "address[]",
          "name": "",
          "type": "address[]"
        }
      ],
      "stateMutability": "view",
      "type": "function"
    },
    {
      "inputs": [
        {
          "internalType": "uint256",
          "name": "tokenId",
          "type": "uint256"
        }
      ],
      "name": "getIdentityId",
      "outputs": [
        {
          "internalType": "uint256",
          "name": "",
          "type": "uint256"
        }
      ],
      "stateMutability": "view",
      "type": "function"
    },
    {
      "inputs": [
        {
          "internalType": "address",
          "name": "paymentMethod",
          "type": "address"
        }
      ],
      "name": "getMintingPrice",
      "outputs": [
        {
          "internalType": "uint256",
          "name": "",
          "type": "uint256"
        }
      ],
      "stateMutability": "view",
      "type": "function"
    },
    {
      "inputs": [
        {
          "internalType": "bytes32",
          "name": "role",
          "type": "bytes32"
        }
      ],
      "name": "getRoleAdmin",
      "outputs": [
        {
          "internalType": "bytes32",
          "name": "",
          "type": "bytes32"
        }
      ],
      "stateMutability": "view",
      "type": "function"
    },
    {
      "inputs": [
        {
          "internalType": "bytes32",
          "name": "role",
          "type": "bytes32"
        },
        {
          "internalType": "address",
          "name": "account",
          "type": "address"
        }
      ],
      "name": "grantRole",
      "outputs": [],
      "stateMutability": "nonpayable",
      "type": "function"
    },
    {
      "inputs": [
        {
          "internalType": "bytes32",
          "name": "role",
          "type": "bytes32"
        },
        {
          "internalType": "address",
          "name": "account",
          "type": "address"
        }
      ],
      "name": "hasRole",
      "outputs": [
        {
          "internalType": "bool",
          "name": "",
          "type": "bool"
        }
      ],
      "stateMutability": "view",
      "type": "function"
    },
    {
      "inputs": [],
      "name": "masaToken",
      "outputs": [
        {
          "internalType": "address",
          "name": "",
          "type": "address"
        }
      ],
      "stateMutability": "view",
      "type": "function"
    },
    {
      "inputs": [
        {
          "internalType": "address",
          "name": "paymentMethod",
          "type": "address"
        },
        {
          "internalType": "uint256",
          "name": "identityId",
          "type": "uint256"
        },
        {
          "internalType": "address",
          "name": "authorityAddress",
          "type": "address"
        },
        {
          "internalType": "uint256",
          "name": "signatureDate",
          "type": "uint256"
        },
        {
          "internalType": "bytes",
          "name": "signature",
          "type": "bytes"
        }
      ],
      "name": "mint",
      "outputs": [
        {
          "internalType": "uint256",
          "name": "",
          "type": "uint256"
        }
      ],
      "stateMutability": "payable",
      "type": "function"
    },
    {
      "inputs": [
        {
          "internalType": "address",
          "name": "paymentMethod",
          "type": "address"
        },
        {
          "internalType": "address",
          "name": "to",
          "type": "address"
        },
        {
          "internalType": "address",
          "name": "authorityAddress",
          "type": "address"
        },
        {
          "internalType": "uint256",
          "name": "signatureDate",
          "type": "uint256"
        },
        {
          "internalType": "bytes",
          "name": "signature",
          "type": "bytes"
        }
      ],
      "name": "mint",
      "outputs": [
        {
          "internalType": "uint256",
          "name": "",
          "type": "uint256"
        }
      ],
      "stateMutability": "payable",
      "type": "function"
    },
    {
      "inputs": [],
      "name": "mintingPrice",
      "outputs": [
        {
          "internalType": "uint256",
          "name": "",
          "type": "uint256"
        }
      ],
      "stateMutability": "view",
      "type": "function"
    },
    {
      "inputs": [],
      "name": "name",
      "outputs": [
        {
          "internalType": "string",
          "name": "",
          "type": "string"
        }
      ],
      "stateMutability": "view",
      "type": "function"
    },
    {
      "inputs": [],
      "name": "owner",
      "outputs": [
        {
          "internalType": "address",
          "name": "",
          "type": "address"
        }
      ],
      "stateMutability": "view",
      "type": "function"
    },
    {
      "inputs": [
        {
          "internalType": "uint256",
          "name": "tokenId",
          "type": "uint256"
        }
      ],
      "name": "ownerOf",
      "outputs": [
        {
          "internalType": "address",
          "name": "",
          "type": "address"
        }
      ],
      "stateMutability": "view",
      "type": "function"
    },
    {
      "inputs": [
        {
          "internalType": "address",
          "name": "_erc20token",
          "type": "address"
        }
      ],
      "name": "removeErc20Token",
      "outputs": [],
      "stateMutability": "nonpayable",
      "type": "function"
    },
    {
      "inputs": [],
      "name": "renounceOwnership",
      "outputs": [],
      "stateMutability": "nonpayable",
      "type": "function"
    },
    {
      "inputs": [
        {
          "internalType": "bytes32",
          "name": "role",
          "type": "bytes32"
        },
        {
          "internalType": "address",
          "name": "account",
          "type": "address"
        }
      ],
      "name": "renounceRole",
      "outputs": [],
      "stateMutability": "nonpayable",
      "type": "function"
    },
    {
      "inputs": [],
      "name": "reserveWallet",
      "outputs": [
        {
          "internalType": "address",
          "name": "",
          "type": "address"
        }
      ],
      "stateMutability": "view",
      "type": "function"
    },
    {
      "inputs": [
        {
          "internalType": "bytes32",
          "name": "role",
          "type": "bytes32"
        },
        {
          "internalType": "address",
          "name": "account",
          "type": "address"
        }
      ],
      "name": "revokeRole",
      "outputs": [],
      "stateMutability": "nonpayable",
      "type": "function"
    },
    {
      "inputs": [
        {
          "internalType": "address",
          "name": "_masaToken",
          "type": "address"
        }
      ],
      "name": "setMasaToken",
      "outputs": [],
      "stateMutability": "nonpayable",
      "type": "function"
    },
    {
      "inputs": [
        {
          "internalType": "uint256",
          "name": "_mintingPrice",
          "type": "uint256"
        }
      ],
      "name": "setMintingPrice",
      "outputs": [],
      "stateMutability": "nonpayable",
      "type": "function"
    },
    {
      "inputs": [
        {
          "internalType": "address",
          "name": "_reserveWallet",
          "type": "address"
        }
      ],
      "name": "setReserveWallet",
      "outputs": [],
      "stateMutability": "nonpayable",
      "type": "function"
    },
    {
      "inputs": [
        {
          "internalType": "contract ISoulboundIdentity",
          "name": "_soulboundIdentity",
          "type": "address"
        }
      ],
      "name": "setSoulboundIdentity",
      "outputs": [],
      "stateMutability": "nonpayable",
      "type": "function"
    },
    {
      "inputs": [
        {
          "internalType": "address",
          "name": "_stableCoin",
          "type": "address"
        }
      ],
      "name": "setStableCoin",
      "outputs": [],
      "stateMutability": "nonpayable",
      "type": "function"
    },
    {
      "inputs": [
        {
          "internalType": "address",
          "name": "_swapRouter",
          "type": "address"
        }
      ],
      "name": "setSwapRouter",
      "outputs": [],
      "stateMutability": "nonpayable",
      "type": "function"
    },
    {
      "inputs": [
        {
          "internalType": "address",
          "name": "_wrappedNativeToken",
          "type": "address"
        }
      ],
      "name": "setWrappedNativeToken",
      "outputs": [],
      "stateMutability": "nonpayable",
      "type": "function"
    },
    {
      "inputs": [],
      "name": "soulboundIdentity",
      "outputs": [
        {
          "internalType": "contract ISoulboundIdentity",
          "name": "",
          "type": "address"
        }
      ],
      "stateMutability": "view",
      "type": "function"
    },
    {
      "inputs": [],
      "name": "stableCoin",
      "outputs": [
        {
          "internalType": "address",
          "name": "",
          "type": "address"
        }
      ],
      "stateMutability": "view",
      "type": "function"
    },
    {
      "inputs": [
        {
          "internalType": "bytes4",
          "name": "interfaceId",
          "type": "bytes4"
        }
      ],
      "name": "supportsInterface",
      "outputs": [
        {
          "internalType": "bool",
          "name": "",
          "type": "bool"
        }
      ],
      "stateMutability": "view",
      "type": "function"
    },
    {
      "inputs": [],
      "name": "swapRouter",
      "outputs": [
        {
          "internalType": "address",
          "name": "",
          "type": "address"
        }
      ],
      "stateMutability": "view",
      "type": "function"
    },
    {
      "inputs": [],
      "name": "symbol",
      "outputs": [
        {
          "internalType": "string",
          "name": "",
          "type": "string"
        }
      ],
      "stateMutability": "view",
      "type": "function"
    },
    {
      "inputs": [
        {
          "internalType": "uint256",
          "name": "index",
          "type": "uint256"
        }
      ],
      "name": "tokenByIndex",
      "outputs": [
        {
          "internalType": "uint256",
          "name": "",
          "type": "uint256"
        }
      ],
      "stateMutability": "view",
      "type": "function"
    },
    {
      "inputs": [
        {
          "internalType": "address",
          "name": "owner",
          "type": "address"
        },
        {
          "internalType": "uint256",
          "name": "index",
          "type": "uint256"
        }
      ],
      "name": "tokenOfOwnerByIndex",
      "outputs": [
        {
          "internalType": "uint256",
          "name": "",
          "type": "uint256"
        }
      ],
      "stateMutability": "view",
      "type": "function"
    },
    {
      "inputs": [
        {
          "internalType": "uint256",
          "name": "tokenId",
          "type": "uint256"
        }
      ],
      "name": "tokenURI",
      "outputs": [
        {
          "internalType": "string",
          "name": "",
          "type": "string"
        }
      ],
      "stateMutability": "view",
      "type": "function"
    },
    {
      "inputs": [],
      "name": "totalSupply",
      "outputs": [
        {
          "internalType": "uint256",
          "name": "",
          "type": "uint256"
        }
      ],
      "stateMutability": "view",
      "type": "function"
    },
    {
      "inputs": [
        {
          "internalType": "address",
          "name": "newOwner",
          "type": "address"
        }
      ],
      "name": "transferOwnership",
      "outputs": [],
      "stateMutability": "nonpayable",
      "type": "function"
    },
    {
      "inputs": [],
      "name": "wrappedNativeToken",
      "outputs": [
        {
          "internalType": "address",
          "name": "",
          "type": "address"
        }
      ],
      "stateMutability": "view",
      "type": "function"
    }
  ],
  "transactionHash": "0x504df712a973b30fc58171e16f8a971c4e92f4d9981e4381e46063875d70067b",
  "args": [
    "0x3c8D9f130970358b7E8cbc1DbD0a1EbA6EBE368F",
    "https://beta.metadata.masa.finance/v1.0/credit-score/",
    "0x270265B1c6b31ae53f75BC2f6a5D5F7f422BB9e8",
    "0",
    [
      "0x7a250d5630B4cF539739dF2C5dAcb4c659F2488D",
      "0xB4FBF271143F4FBf7B91A5ded31805e42b2208d6",
      "0xD87Ba7A50B2E7E660f678A895E4B72E7CB4CCd9C",
      "0x1f9840a85d5aF5bf1D1762F925BDADdC4201F984",
      "0x3c8D9f130970358b7E8cbc1DbD0a1EbA6EBE368F"
    ]
  ],
  "numDeployments": 1,
  "solcInputHash": "4bf8882c6e622b87358041c9ad51929b",
  "bytecode": "0x6101406040523480156200001257600080fd5b5060405162004530380380620045308339810160408190526200003591620006e6565b84604051806040016040528060118152602001704d617361204372656469742053636f726560781b815250604051806040016040528060038152602001624d435360e81b815250868686866040518060400160405280601481526020017f536f756c626f756e6443726564697453636f7265000000000000000000000000815250604051806040016040528060058152602001640312e302e360dc1b8152508888888882828e89620000f6620000f06200035460201b60201c565b62000358565b80516001600160a01b0316620001295760405162461bcd60e51b8152600401620001209062000899565b60405180910390fd5b60208101516001600160a01b0316620001565760405162461bcd60e51b8152600401620001209062000899565b60408101516001600160a01b0316620001835760405162461bcd60e51b8152600401620001209062000899565b60808101516001600160a01b0316620001b05760405162461bcd60e51b8152600401620001209062000899565b620001c682620003a860201b620014b11760201c565b8051600180546001600160a01b03199081166001600160a01b03938416179091556020808401516002805484169185169190911790556040840151600380548416918516919091179055606084015160048054841691851691909117905560809093015160078054909216921691909117905583516200024d92506008918501906200050c565b508051620002639060099060208401906200050c565b506200027591506000905085620003e9565b80516200028a9060119060208401906200050c565b5050845160208087019190912085519186019190912060e08290526101008190524660a05290935091507f8b73c3c69bb8fe3d512ecc4cf759cc79239f7b179b0ffacaa9a75d522b39400f9050620002e481848462000474565b6080523060601b60c05261012052505050506001600160a01b0383166200031f5760405162461bcd60e51b8152600401620001209062000899565b50601380546001600160a01b0319166001600160a01b0393909316929092179091556014555062000a20975050505050505050565b3390565b600080546001600160a01b038381166001600160a01b0319831681178455604051919092169283917f8be0079c531659141344cd1fd0a4f28419497f9722a3daafe3b4186f6b6457e09190a35050565b620003b2620004b0565b6001600160a01b038116620003db5760405162461bcd60e51b815260040162000120906200084e565b620003e68162000358565b50565b620003f58282620004df565b620004705760008281526010602090815260408083206001600160a01b03851684529091529020805460ff191660011790556200042f3390565b6001600160a01b0316816001600160a01b0316837f2f8788117e7eff1d82e926ec794901d17c78024a50270940304540a733656f0d60405160405180910390a45b5050565b6000838383463060405160200162000491959493929190620007f8565b6040516020818303038152906040528051906020012090509392505050565b6000546001600160a01b03163314620004dd5760405162461bcd60e51b81526004016200012090620008ab565b565b60008281526010602090815260408083206001600160a01b038516845290915290205460ff165b92915050565b8280546200051a906200095e565b90600052602060002090601f0160209004810192826200053e576000855562000589565b82601f106200055957805160ff191683800117855562000589565b8280016001018555821562000589579182015b82811115620005895782518255916020019190600101906200056c565b50620005979291506200059b565b5090565b5b808211156200059757600081556001016200059c565b6000620005c9620005c384620008dc565b620008bd565b905082815260208101848484011115620005e657620005e6600080fd5b620005f38482856200092b565b509392505050565b80516200050681620009f7565b8051620005068162000a0e565b600082601f8301126200062b576200062b600080fd5b81516200063d848260208601620005b2565b949350505050565b600060a082840312156200065c576200065c600080fd5b6200066860a0620008bd565b90506000620006788484620005fb565b82525060206200068b84848301620005fb565b6020830152506040620006a184828501620005fb565b6040830152506060620006b784828501620005fb565b6060830152506080620006cd84828501620005fb565b60808301525092915050565b8051620005068162000a19565b60008060008060006101208688031215620007045762000704600080fd5b6000620007128888620005fb565b95505060208601516001600160401b03811115620007335762000733600080fd5b620007418882890162000615565b9450506040620007548882890162000608565b93505060606200076788828901620006d9565b92505060806200077a8882890162000645565b9150509295509295909350565b62000792816200090c565b82525050565b8062000792565b600c81526000602082016b5a45524f5f4144445245535360a01b815291505b5060200190565b60208082527f4f776e61626c653a2063616c6c6572206973206e6f7420746865206f776e657291019081526000620007be565b60a0810162000808828862000798565b62000817602083018762000798565b62000826604083018662000798565b62000835606083018562000798565b62000844608083018462000787565b9695505050505050565b602080825281016200050681602681527f4f776e61626c653a206e6577206f776e657220697320746865207a65726f206160208201526564647265737360d01b604082015260600190565b6020808252810162000506816200079f565b602080825281016200050681620007c5565b6000620008c960405190565b9050620008d782826200098f565b919050565b60006001600160401b03821115620008f857620008f8620009d7565b6200090382620009ed565b60200192915050565b60006001600160a01b03821662000506565b600062000506826200090c565b60005b83811015620009485781810151838201526020016200092e565b8381111562000958576000848401525b50505050565b6002810460018216806200097357607f821691505b60208210811415620009895762000989620009c1565b50919050565b6200099a82620009ed565b81018181106001600160401b0382111715620009ba57620009ba620009d7565b6040525050565b634e487b7160e01b600052602260045260246000fd5b634e487b7160e01b600052604160045260246000fd5b601f01601f191690565b62000a02816200090c565b8114620003e657600080fd5b62000a02816200091e565b8062000a02565b60805160a05160c05160601c60e0516101005161012051613abd62000a736000396000611fb101526000611ff301526000611fd201526000611f3601526000611f6001526000611f8a0152613abd6000f3fe6080604052600436106101f75760003560e01c806301ffc9a7146101fc57806306fdde031461023257806317fcb39b1461025457806318160ddd1461028157806320d558aa1461029f57806323af4e17146102b2578063248a9ca3146102d457806326defa73146102f45780632f2ff15d146103145780632f745c591461033457806335db70b51461035457806336568abe1461036a5780633ad3033e1461038a57806341273657146103aa57806342966c68146103ca5780634f6ccce7146103ea5780636352211e1461040a5780636a4acb3a1461042a5780636d0365351461044a57806370a082311461046c578063715018a61461048c57806376ad1997146104a157806377bed5ed146104c15780637ad09dff146104ee5780638417b47f146105015780638da5cb5b1461052157806391223d691461053657806391d148541461056657806395d89b41146105865780639800c1051461059b578063992642e5146105bb5780639f3fbecf146105db578063a217fddf146105fb578063bd5c297614610610578063c1177d1914610630578063c31c9c0714610650578063c87b56dd14610670578063d547741f14610690578063d72b11bd146106b0578063da058ae3146106d0578063dcbed008146106f0578063dda4fa8f14610720578063ebda439614610740578063f2fde38b14610760575b600080fd5b34801561020857600080fd5b5061021c610217366004612c8a565b610780565b60405161022991906134e7565b60405180910390f35b34801561023e57600080fd5b50610247610791565b60405161022991906135b9565b34801561026057600080fd5b50600254610274906001600160a01b031681565b60405161022991906134a0565b34801561028d57600080fd5b50600e545b60405161022991906134f5565b6102926102ad366004612ba2565b610823565b3480156102be57600080fd5b506102d26102cd366004612a8e565b6109b9565b005b3480156102e057600080fd5b506102926102ef366004612c36565b610a37565b34801561030057600080fd5b506102d261030f366004612a8e565b610a4c565b34801561032057600080fd5b506102d261032f366004612c57565b610adb565b34801561034057600080fd5b5061029261034f366004612b65565b610afc565b34801561036057600080fd5b5061029260145481565b34801561037657600080fd5b506102d2610385366004612c57565b610b4e565b34801561039657600080fd5b506102d26103a5366004612cab565b610b84565b3480156103b657600080fd5b506102d26103c5366004612a8e565b610c06565b3480156103d657600080fd5b506102d26103e5366004612c36565b610c84565b3480156103f657600080fd5b50610292610405366004612c36565b610cb6565b34801561041657600080fd5b50610274610425366004612c36565b610d04565b34801561043657600080fd5b506102d2610445366004612a8e565b610d39565b34801561045657600080fd5b5061045f610e06565b60405161022991906134d6565b34801561047857600080fd5b50610292610487366004612a8e565b610e67565b34801561049857600080fd5b506102d2610eab565b3480156104ad57600080fd5b506102d26104bc366004612a8e565b610ebf565b3480156104cd57600080fd5b506013546104e1906001600160a01b031681565b60405161022991906135ab565b6102926104fc366004612ad0565b610f17565b34801561050d57600080fd5b506102d261051c366004612c36565b610fb8565b34801561052d57600080fd5b50610274610feb565b34801561054257600080fd5b5061021c610551366004612a8e565b60156020526000908152604090205460ff1681565b34801561057257600080fd5b5061021c610581366004612c57565b610ffa565b34801561059257600080fd5b50610247611025565b3480156105a757600080fd5b506102d26105b6366004612a8e565b611034565b3480156105c757600080fd5b50600354610274906001600160a01b031681565b3480156105e757600080fd5b506102926105f6366004612a8e565b6111c0565b34801561060757600080fd5b50610292600081565b34801561061c57600080fd5b5061027461062b366004612c36565b611275565b34801561063c57600080fd5b5061029261064b366004612c36565b61129f565b34801561065c57600080fd5b50600154610274906001600160a01b031681565b34801561067c57600080fd5b5061024761068b366004612c36565b611333565b34801561069c57600080fd5b506102d26106ab366004612c57565b611399565b3480156106bc57600080fd5b50600754610274906001600160a01b031681565b3480156106dc57600080fd5b506102d26106eb366004612a8e565b6113b5565b3480156106fc57600080fd5b5061021c61070b366004612a8e565b60056020526000908152604090205460ff1681565b34801561072c57600080fd5b506102d261073b366004612a8e565b611433565b34801561074c57600080fd5b50600454610274906001600160a01b031681565b34801561076c57600080fd5b506102d261077b366004612a8e565b6114b1565b600061078b826114e8565b92915050565b6060600880546107a09061391f565b80601f01602080910402602001604051908101604052809291908181526020018280546107cc9061391f565b80156108195780601f106107ee57610100808354040283529160200191610819565b820191906000526020600020905b8154815290600101906020018083116107fc57829003601f168201915b5050505050905090565b6013546040516331a9108f60e11b815260009182916001600160a01b0390911690636352211e90610858908a906004016134f5565b60206040518083038186803b15801561087057600080fd5b505afa158015610884573d6000803e3d6000fd5b505050506040513d601f19601f820116820180604052508101906108a89190612aaf565b90506001600160a01b03811633146108db5760405162461bcd60e51b81526004016108d29061371a565b60405180910390fd5b60016108e682610e67565b106109035760405162461bcd60e51b81526004016108d29061372a565b61094f61091188888861150d565b85858080601f0160208091040260200160405190810160405280939291908181526020018383808284376000920191909152508b925061156c915050565b61095b886014546115e9565b6000610966826117e4565b90507fba587fc996588eaf73691ecc5a1c4c42228fab71b44f01544686211cb1e68177818989898d6014546040516109a3969594939291906137ca565b60405180910390a19150505b9695505050505050565b6109c161180a565b6001600160a01b0381166109e75760405162461bcd60e51b81526004016108d2906136aa565b6003546001600160a01b0382811691161415610a155760405162461bcd60e51b81526004016108d29061365a565b600380546001600160a01b0319166001600160a01b0392909216919091179055565b60009081526010602052604090206001015490565b6000610a5781611839565b6001600160a01b038216610a7d5760405162461bcd60e51b81526004016108d2906136aa565b6001600160a01b03821660009081526015602052604090205460ff1615610ab65760405162461bcd60e51b81526004016108d29061374a565b506001600160a01b03166000908152601560205260409020805460ff19166001179055565b610ae482610a37565b610aed81611839565b610af78383611843565b505050565b6000610b0783610e67565b8210610b255760405162461bcd60e51b81526004016108d29061363a565b506001600160a01b03919091166000908152600c60209081526040808320938352929052205490565b6001600160a01b0381163314610b765760405162461bcd60e51b81526004016108d29061379a565b610b8082826118c9565b5050565b6000610b8f81611839565b6001600160a01b038216610bb55760405162461bcd60e51b81526004016108d2906136aa565b6013546001600160a01b0383811691161415610be35760405162461bcd60e51b81526004016108d29061365a565b50601380546001600160a01b0319166001600160a01b0392909216919091179055565b610c0e61180a565b6001600160a01b038116610c345760405162461bcd60e51b81526004016108d2906136aa565b6001546001600160a01b0382811691161415610c625760405162461bcd60e51b81526004016108d29061365a565b600180546001600160a01b0319166001600160a01b0392909216919091179055565b610c8e3382611930565b610caa5760405162461bcd60e51b81526004016108d29061369a565b610cb381611953565b50565b6000610cc1600e5490565b8210610cdf5760405162461bcd60e51b81526004016108d29061377a565b600e8281548110610cf257610cf2613a16565b90600052602060002001549050919050565b6000818152600a60205260408120546001600160a01b03168061078b5760405162461bcd60e51b81526004016108d29061370a565b610d4161180a565b6001600160a01b038116610d675760405162461bcd60e51b81526004016108d2906136aa565b6001600160a01b03811660009081526005602052604090205460ff1615610da05760405162461bcd60e51b81526004016108d29061374a565b6001600160a01b03166000818152600560205260408120805460ff191660019081179091556006805491820181559091527ff652222313e28459528d920b65115c16c04f3efc82aaedc97be59f3f377c0d3f0180546001600160a01b0319169091179055565b6060600680548060200260200160405190810160405280929190818152602001828054801561081957602002820191906000526020600020905b81546001600160a01b03168152600190910190602001808311610e40575050505050905090565b60006001600160a01b038216610e8f5760405162461bcd60e51b81526004016108d29061368a565b506001600160a01b03166000908152600b602052604090205490565b610eb361180a565b610ebd60006119ed565b565b610ec761180a565b6004546001600160a01b0382811691161415610ef55760405162461bcd60e51b81526004016108d29061365a565b600480546001600160a01b0319166001600160a01b0392909216919091179055565b60135460405163294cdf0d60e01b815260009182916001600160a01b039091169063294cdf0d90610f4c908a906004016134a0565b60206040518083038186803b158015610f6457600080fd5b505afa158015610f78573d6000803e3d6000fd5b505050506040513d601f19601f82011682018060405250810190610f9c9190612ccc565b9050610fac888288888888610823565b98975050505050505050565b6000610fc381611839565b816014541415610fe55760405162461bcd60e51b81526004016108d29061365a565b50601455565b6000546001600160a01b031690565b60009182526010602090815260408084206001600160a01b0393909316845291905290205460ff1690565b6060600980546107a09061391f565b61103c61180a565b6001600160a01b0381166110625760405162461bcd60e51b81526004016108d2906136aa565b6001600160a01b03811660009081526005602052604090205460ff1661109a5760405162461bcd60e51b81526004016108d29061360a565b6001600160a01b0381166000908152600560205260408120805460ff191690555b600654811015610b8057816001600160a01b0316600682815481106110e2576110e2613a16565b6000918252602090912001546001600160a01b031614156111ae576006805461110d9060019061389e565b8154811061111d5761111d613a16565b600091825260209091200154600680546001600160a01b03909216918390811061114957611149613a16565b9060005260206000200160006101000a8154816001600160a01b0302191690836001600160a01b03160217905550600680548061118857611188613a00565b600082815260209020810160001990810180546001600160a01b03191690550190555050565b806111b881613979565b9150506110bb565b60006001600160a01b0382166111e95760025460145461078b916001600160a01b031690611a3d565b6003546001600160a01b03838116911614801561121e57506001600160a01b03821660009081526005602052604090205460ff165b1561122b57505060145490565b6001600160a01b03821660009081526005602052604090205460ff16156112585761078b82601454611a3d565b60405162461bcd60e51b81526004016108d2906136da565b919050565b6006818154811061128557600080fd5b6000918252602090912001546001600160a01b0316905081565b6000806112ab83610d04565b60135460405163294cdf0d60e01b81529192506001600160a01b03169063294cdf0d906112dc9084906004016134a0565b60206040518083038186803b1580156112f457600080fd5b505afa158015611308573d6000803e3d6000fd5b505050506040513d601f19601f8201168201806040525081019061132c9190612ccc565b9392505050565b606061133e82611ac2565b6000611348611ae7565b90506000815111611368576040518060200160405280600081525061132c565b8061137284611af6565b6040516020016113839291906133e7565b6040516020818303038152906040529392505050565b6113a282610a37565b6113ab81611839565b610af783836118c9565b6113bd61180a565b6001600160a01b0381166113e35760405162461bcd60e51b81526004016108d2906136aa565b6002546001600160a01b03828116911614156114115760405162461bcd60e51b81526004016108d29061365a565b600280546001600160a01b0319166001600160a01b0392909216919091179055565b61143b61180a565b6001600160a01b0381166114615760405162461bcd60e51b81526004016108d2906136aa565b6007546001600160a01b038281169116141561148f5760405162461bcd60e51b81526004016108d29061365a565b600780546001600160a01b0319166001600160a01b0392909216919091179055565b6114b961180a565b6001600160a01b0381166114df5760405162461bcd60e51b81526004016108d29061361a565b610cb3816119ed565b60006001600160e01b03198216637965db0b60e01b148061078b575061078b82611bf3565b60006115647fbf4c764a640e301e74685ff05395cceaed1d80e171501b6b6ffb339acfef6f188585856040516020016115499493929190613545565b60405160208183030381529060405280519060200120611c18565b949350505050565b60006115788484611c2b565b9050816001600160a01b0316816001600160a01b0316146115ab5760405162461bcd60e51b81526004016108d29061367a565b6001600160a01b03811660009081526015602052604090205460ff166115e35760405162461bcd60e51b81526004016108d29061378a565b50505050565b806115f2575050565b6001600160a01b03821661174257600254600090611619906001600160a01b031683611a3d565b90508034101561163b5760405162461bcd60e51b81526004016108d29061373a565b6007546040516000916001600160a01b031690839061165990613446565b60006040518083038185875af1925050503d8060008114611696576040519150601f19603f3d011682016040523d82523d6000602084013e61169b565b606091505b50509050806116bc5760405162461bcd60e51b81526004016108d2906136ca565b813411156115e35760006116d03484611c4f565b9050336001600160a01b0316816040516116e990613446565b60006040518083038185875af1925050503d8060008114611726576040519150601f19603f3d011682016040523d82523d6000602084013e61172b565b606091505b5050809250508161173b57600080fd5b5050505050565b6003546001600160a01b03838116911614801561177757506001600160a01b03821660009081526005602052604090205460ff165b1561179857600754610b80906001600160a01b038481169133911684611c5b565b6001600160a01b03821660009081526005602052604090205460ff16156112585760006117c58383611a3d565b600754909150610af7906001600160a01b038581169133911684611c5b565b6000806117f060125490565b9050611800601280546001019055565b61078b8382611cb3565b33611813610feb565b6001600160a01b031614610ebd5760405162461bcd60e51b81526004016108d2906136ea565b610cb38133611d8f565b61184d8282610ffa565b610b805760008281526010602090815260408083206001600160a01b03851684529091529020805460ff191660011790556118853390565b6001600160a01b0316816001600160a01b0316837f2f8788117e7eff1d82e926ec794901d17c78024a50270940304540a733656f0d60405160405180910390a45050565b6118d38282610ffa565b15610b805760008281526010602090815260408083206001600160a01b0385168085529252808320805460ff1916905551339285917ff6391f5c32d9c69d2a47ea670b442974b53935d1edc7fd64eb21e047a839171b9190a45050565b60008061193c83610d04565b6001600160a01b0385811691161491505092915050565b600061195e82610d04565b905061196c81600084611df3565b6001600160a01b0381166000908152600b6020526040812080546001929061199590849061389e565b90915550506000828152600a602052604080822080546001600160a01b03191690555183916001600160a01b038416917fcc16f5dbb4873280815c1ee09dbd06736cffcc184412cf7a71a0fdb75d397ca59190a35050565b600080546001600160a01b038381166001600160a01b0319831681178455604051919092169283917f8be0079c531659141344cd1fd0a4f28419497f9722a3daafe3b4186f6b6457e09190a35050565b6002546000906001600160a01b0384811691161480611a7457506001600160a01b03831660009081526005602052604090205460ff165b8015611a8e57506003546001600160a01b03848116911614155b611aaa5760405162461bcd60e51b81526004016108d29061362a565b60035461132c9084906001600160a01b031684611dfe565b611acb81611ebc565b610cb35760405162461bcd60e51b81526004016108d29061370a565b6060601180546107a09061391f565b606081611b1a5750506040805180820190915260018152600360fc1b602082015290565b8160005b8115611b445780611b2e81613979565b9150611b3d9050600a8361386b565b9150611b1e565b6000816001600160401b03811115611b5e57611b5e613a2c565b6040519080825280601f01601f191660200182016040528015611b88576020820181803683370190505b5090505b841561156457611b9d60018361389e565b9150611baa600a86613994565b611bb5906030613853565b60f81b818381518110611bca57611bca613a16565b60200101906001600160f81b031916908160001a905350611bec600a8661386b565b9450611b8c565b60006001600160e01b0319821663780e9d6360e01b148061078b575061078b82611ed9565b600061078b611c25611f29565b8361201c565b6000806000611c3a858561204f565b91509150611c4781612095565b509392505050565b600061132c828461389e565b6115e3846323b872dd60e01b858585604051602401611c7c939291906134ae565b60408051601f198184030181529190526020810180516001600160e01b03166001600160e01b03199093169290921790915261217a565b6001600160a01b038216611cd95760405162461bcd60e51b81526004016108d2906135fa565b611ce281611ebc565b15611cff5760405162461bcd60e51b81526004016108d2906136fa565b611d0b60008383611df3565b6001600160a01b0382166000908152600b60205260408120805460019290611d34908490613853565b90915550506000818152600a602052604080822080546001600160a01b0319166001600160a01b038616908117909155905183927f0f6798a560793a54c3bcfe86a93cde1e73087d944c0ea20544137d412139688591a35050565b611d998282610ffa565b610b8057611db1816001600160a01b03166014612209565b611dbc836020612209565b604051602001611dcd92919061344e565b60408051601f198184030181529082905262461bcd60e51b82526108d2916004016135b9565b610af7838383612374565b6000606080611e0d868661242c565b6001546040516307c0329d60e21b81529192506001600160a01b031690631f00ca7490611e4090879085906004016137aa565b60006040518083038186803b158015611e5857600080fd5b505afa158015611e6c573d6000803e3d6000fd5b505050506040513d6000823e601f3d908101601f19168201604052611e949190810190612bdb565b915081600081518110611ea957611ea9613a16565b6020026020010151925050509392505050565b6000908152600a60205260409020546001600160a01b0316151590565b60006001600160e01b031982166313f2a32f60e01b1480611f0a57506001600160e01b03198216635b5e139f60e01b145b8061078b57506301ffc9a760e01b6001600160e01b031983161461078b565b6000306001600160a01b037f000000000000000000000000000000000000000000000000000000000000000016148015611f8257507f000000000000000000000000000000000000000000000000000000000000000046145b15611fac57507f000000000000000000000000000000000000000000000000000000000000000090565b6120177f00000000000000000000000000000000000000000000000000000000000000007f00000000000000000000000000000000000000000000000000000000000000007f00000000000000000000000000000000000000000000000000000000000000006125be565b905090565b60008282604051602001612031929190613415565b60405160208183030381529060405280519060200120905092915050565b6000808251604114156120865760208301516040840151606085015160001a61207a878285856125f8565b9450945050505061208e565b506000905060025b9250929050565b60008160048111156120a9576120a96139d4565b14156120b25750565b60018160048111156120c6576120c66139d4565b14156120e45760405162461bcd60e51b81526004016108d2906135ca565b60028160048111156120f8576120f86139d4565b14156121165760405162461bcd60e51b81526004016108d2906135ea565b600381600481111561212a5761212a6139d4565b14156121485760405162461bcd60e51b81526004016108d29061364a565b600481600481111561215c5761215c6139d4565b1415610cb35760405162461bcd60e51b81526004016108d2906136ba565b60006121cf826040518060400160405280602081526020017f5361666545524332303a206c6f772d6c6576656c2063616c6c206661696c6564815250856001600160a01b03166126ce9092919063ffffffff16565b805190915015610af757808060200190518101906121ed9190612c15565b610af75760405162461bcd60e51b81526004016108d29061376a565b6060600061221883600261387f565b612223906002613853565b6001600160401b0381111561223a5761223a613a2c565b6040519080825280601f01601f191660200182016040528015612264576020820181803683370190505b509050600360fc1b8160008151811061227f5761227f613a16565b60200101906001600160f81b031916908160001a905350600f60fb1b816001815181106122ae576122ae613a16565b60200101906001600160f81b031916908160001a90535060006122d284600261387f565b6122dd906001613853565b90505b6001811115612355576f181899199a1a9b1b9c1cb0b131b232b360811b85600f166010811061231157612311613a16565b1a60f81b82828151811061232757612327613a16565b60200101906001600160f81b031916908160001a90535060049490941c9361234e81613908565b90506122e0565b50831561132c5760405162461bcd60e51b81526004016108d2906135da565b6001600160a01b0383166123cf576123ca81600e80546000838152600f60205260408120829055600182018355919091527fbb7b4a454dc3493923482f07822329ed19e8244eff582cc204f8554c3620c3fd0155565b6123f2565b816001600160a01b0316836001600160a01b0316146123f2576123f283826126dd565b6001600160a01b03821661240957610af78161277a565b826001600160a01b0316826001600160a01b031614610af757610af78282612829565b6002546060906001600160a01b038481169116148061245857506002546001600160a01b038381169116145b1561252257604080516002808252606082018352600092602083019080368337019050506002549091506001600160a01b0385811691161461249a57836124a7565b6002546001600160a01b03165b816000815181106124ba576124ba613a16565b6001600160a01b0392831660209182029290920101526002548482169116146124e357826124f0565b6002546001600160a01b03165b8160018151811061250357612503613a16565b6001600160a01b0390921660209283029190910190910152905061078b565b6040805160038082526080820190925260009160208201606080368337019050509050838160008151811061255957612559613a16565b6001600160a01b03928316602091820292909201015260025482519116908290600190811061258a5761258a613a16565b60200260200101906001600160a01b031690816001600160a01b031681525050828160028151811061250357612503613a16565b600083838346306040516020016125d9959493929190613503565b6040516020818303038152906040528051906020012090509392505050565b6000806fa2a8918ca85bafe22016d0b997e4df60600160ff1b0383111561262557506000905060036126c5565b8460ff16601b1415801561263d57508460ff16601c14155b1561264e57506000905060046126c5565b6000600187878787604051600081526020016040526040516126739493929190613583565b6020604051602081039080840390855afa158015612695573d6000803e3d6000fd5b5050604051601f1901519150506001600160a01b0381166126be576000600192509250506126c5565b9150600090505b94509492505050565b6060611564848460008561286d565b600060016126ea84610e67565b6126f4919061389e565b6000838152600d6020526040902054909150808214612747576001600160a01b0384166000908152600c602090815260408083208584528252808320548484528184208190558352600d90915290208190555b506000918252600d602090815260408084208490556001600160a01b039094168352600c81528383209183525290812055565b600e5460009061278c9060019061389e565b6000838152600f6020526040812054600e80549394509092849081106127b4576127b4613a16565b9060005260206000200154905080600e83815481106127d5576127d5613a16565b6000918252602080832090910192909255828152600f9091526040808220849055858252812055600e80548061280d5761280d613a00565b6001900381819060005260206000200160009055905550505050565b600061283483610e67565b6001600160a01b039093166000908152600c602090815260408083208684528252808320859055938252600d9052919091209190915550565b60608247101561288f5760405162461bcd60e51b81526004016108d29061366a565b6001600160a01b0385163b6128b65760405162461bcd60e51b81526004016108d29061375a565b600080866001600160a01b031685876040516128d291906133db565b60006040518083038185875af1925050503d806000811461290f576040519150601f19603f3d011682016040523d82523d6000602084013e612914565b606091505b509150915061292482828661292f565b979650505050505050565b6060831561293e57508161132c565b82511561294e5782518084602001fd5b8160405162461bcd60e51b81526004016108d291906135b9565b600061297b61297684613830565b613819565b9050808382526020820190508285602086028201111561299d5761299d600080fd5b60005b858110156129c957816129b38882612a83565b84525060209283019291909101906001016129a0565b5050509392505050565b803561078b81613a4c565b805161078b81613a4c565b600082601f8301126129fd576129fd600080fd5b8151611564848260208601612968565b805161078b81613a60565b803561078b81613a68565b803561078b81613a6e565b60008083601f840112612a4357612a43600080fd5b5081356001600160401b03811115612a5d57612a5d600080fd5b60208301915083600182028301111561208e5761208e600080fd5b803561078b81613a7e565b805161078b81613a68565b600060208284031215612aa357612aa3600080fd5b600061156484846129d3565b600060208284031215612ac457612ac4600080fd5b600061156484846129de565b60008060008060008060a08789031215612aec57612aec600080fd5b6000612af889896129d3565b9650506020612b0989828a016129d3565b9550506040612b1a89828a016129d3565b9450506060612b2b89828a01612a18565b93505060808701356001600160401b03811115612b4a57612b4a600080fd5b612b5689828a01612a2e565b92509250509295509295509295565b60008060408385031215612b7b57612b7b600080fd5b6000612b8785856129d3565b9250506020612b9885828601612a18565b9150509250929050565b60008060008060008060a08789031215612bbe57612bbe600080fd5b6000612bca89896129d3565b9650506020612b0989828a01612a18565b600060208284031215612bf057612bf0600080fd5b81516001600160401b03811115612c0957612c09600080fd5b611564848285016129e9565b600060208284031215612c2a57612c2a600080fd5b60006115648484612a0d565b600060208284031215612c4b57612c4b600080fd5b60006115648484612a18565b60008060408385031215612c6d57612c6d600080fd5b6000612c798585612a18565b9250506020612b98858286016129d3565b600060208284031215612c9f57612c9f600080fd5b60006115648484612a23565b600060208284031215612cc057612cc0600080fd5b60006115648484612a78565b600060208284031215612ce157612ce1600080fd5b60006115648484612a83565b6000612cf98383612d01565b505060200190565b612d0a816138b5565b82525050565b6000612d1a825190565b80845260209384019383018060005b83811015612d4e578151612d3d8882612ced565b975060208301925050600101612d29565b509495945050505050565b801515612d0a565b80612d0a565b6000612d71825190565b612d7f8185602086016138dc565b9290920192915050565b612d0a816138d1565b6000612d9c825190565b808452602084019350612db38185602086016138dc565b612dbc81613a42565b9093019392505050565b601881526000602082017745434453413a20696e76616c6964207369676e617475726560401b815291505b5060200190565b60208082527f537472696e67733a20686578206c656e67746820696e73756666696369656e7491019081526000612df1565b601f81526000602082017f45434453413a20696e76616c6964207369676e6174757265206c656e6774680081529150612df1565b601d81526000602082017f5342543a206d696e7420746f20746865207a65726f206164647265737300000081529150612df1565b60188152600060208201772727aa2fa2ac24a9a4aa24a723afa2a92199182a27a5a2a760411b81529150612df1565b602681526000602082017f4f776e61626c653a206e6577206f776e657220697320746865207a65726f206181526564647265737360d01b602082015291505b5060400190565b600d81526000602082016c24a72b20a624a22faa27a5a2a760991b81529150612df1565b602881526000602082017f534254456e756d657261626c653a206f776e657220696e646578206f7574206f8152676620626f756e647360c01b60208201529150612f00565b602281526000602082017f45434453413a20696e76616c6964207369676e6174757265202773272076616c815261756560f01b60208201529150612f00565b600a81526000602082016953414d455f56414c554560b01b81529150612df1565b602681526000602082017f416464726573733a20696e73756666696369656e742062616c616e636520666f8152651c8818d85b1b60d21b60208201529150612f00565b6011815260006020820170494e56414c49445f5349474e415455524560781b81529150612df1565b602681526000602082017f5342543a2061646472657373207a65726f206973206e6f7420612076616c69648152651037bbb732b960d11b60208201529150612f00565b601e81526000602082017f5342543a2063616c6c6572206973206e6f7420746f6b656e206f776e6572000081529150612df1565b600c81526000602082016b5a45524f5f4144445245535360a01b81529150612df1565b602281526000602082017f45434453413a20696e76616c6964207369676e6174757265202776272076616c815261756560f01b60208201529150612f00565b600f81526000602082016e1514905394d1915497d19052531151608a1b81529150612df1565b60168152600060208201751253959053125117d410565351539517d351551213d160521b81529150612df1565b60208082527f4f776e61626c653a2063616c6c6572206973206e6f7420746865206f776e657291019081526000612df1565b601981526000602082017814d0950e881d1bdad95b88185b1c9958591e481b5a5b9d1959603a1b81529150612df1565b601581526000602082017414d0950e881a5b9d985b1a59081d1bdad95b881251605a1b81529150612df1565b601081526000602082016f21a0a62622a92fa727aa2fa7aba722a960811b81529150612df1565b601b81526000602082017a10d49151125514d0d3d49157d053149150511657d0d49150551151602a1b81529150612df1565b6017815260006020820176125394d551919250d251539517d1551217d05353d55395604a1b81529150612df1565b600d81526000602082016c1053149150511657d051111151609a1b81529150612df1565b601d81526000602082017f416464726573733a2063616c6c20746f206e6f6e2d636f6e747261637400000081529150612df1565b602a81526000602082017f5361666545524332303a204552433230206f7065726174696f6e20646964206e8152691bdd081cdd58d8d9595960b21b60208201529150612f00565b602981526000602082017f534254456e756d657261626c653a20676c6f62616c20696e646578206f7574208152686f6620626f756e647360b81b60208201529150612f00565b600e81526000602082016d1393d517d055551213d49256915160921b81529150612df1565b602f81526000602082017f416363657373436f6e74726f6c3a2063616e206f6e6c792072656e6f756e636581526e103937b632b9903337b91039b2b63360891b60208201529150612f00565b60ff8116612d0a565b600061132c8284612d67565b60006133f38285612d67565b91506133ff8284612d67565b64173539b7b760d91b8152915060058201611564565b61190160f01b8152600201600061342c8285612d61565b60208201915061343c8284612d61565b5060200192915050565b60008161078b565b76020b1b1b2b9b9a1b7b73a3937b61d1030b1b1b7bab73a1604d1b8152601701600061347a8285612d67565b7001034b99036b4b9b9b4b733903937b6329607d1b815260110191506115648284612d67565b6020810161078b8284612d01565b606081016134bc8286612d01565b6134c96020830185612d01565b6115646040830184612d61565b6020808252810161132c8184612d10565b6020810161078b8284612d59565b6020810161078b8284612d61565b60a081016135118288612d61565b61351e6020830187612d61565b61352b6040830186612d61565b6135386060830185612d61565b6109af6080830184612d01565b608081016135538287612d61565b6135606020830186612d61565b61356d6040830185612d01565b61357a6060830184612d61565b95945050505050565b608081016135918287612d61565b61359e60208301866133d2565b61356d6040830185612d61565b6020810161078b8284612d89565b6020808252810161132c8184612d92565b6020808252810161078b81612dc6565b6020808252810161078b81612df8565b6020808252810161078b81612e2a565b6020808252810161078b81612e5e565b6020808252810161078b81612e92565b6020808252810161078b81612ec1565b6020808252810161078b81612f07565b6020808252810161078b81612f2b565b6020808252810161078b81612f70565b6020808252810161078b81612faf565b6020808252810161078b81612fd0565b6020808252810161078b81613013565b6020808252810161078b8161303b565b6020808252810161078b8161307e565b6020808252810161078b816130b2565b6020808252810161078b816130d5565b6020808252810161078b81613114565b6020808252810161078b8161313a565b6020808252810161078b81613167565b6020808252810161078b81613199565b6020808252810161078b816131c9565b6020808252810161078b816131f5565b6020808252810161078b8161321c565b6020808252810161078b8161324e565b6020808252810161078b8161327c565b6020808252810161078b816132a0565b6020808252810161078b816132d4565b6020808252810161078b8161331b565b6020808252810161078b81613361565b6020808252810161078b81613386565b604081016137b88285612d61565b81810360208301526115648184612d10565b60c081016137d88289612d61565b6137e56020830188612d61565b6137f26040830187612d01565b6137ff6060830186612d61565b61380c6080830185612d01565b61292460a0830184612d61565b600061382460405190565b9050611270828261394c565b60006001600160401b0382111561384957613849613a2c565b5060209081020190565b60008219821115613866576138666139a8565b500190565b60008261387a5761387a6139be565b500490565b6000816000190483118215151615613899576138996139a8565b500290565b6000828210156138b0576138b06139a8565b500390565b60006001600160a01b03821661078b565b600061078b826138b5565b600061078b826138c6565b60005b838110156138f75781810151838201526020016138df565b838111156115e35750506000910152565b600081613917576139176139a8565b506000190190565b60028104600182168061393357607f821691505b60208210811415613946576139466139ea565b50919050565b61395582613a42565b81018181106001600160401b038211171561397257613972613a2c565b6040525050565b600060001982141561398d5761398d6139a8565b5060010190565b6000826139a3576139a36139be565b500690565b634e487b7160e01b600052601160045260246000fd5b634e487b7160e01b600052601260045260246000fd5b634e487b7160e01b600052602160045260246000fd5b634e487b7160e01b600052602260045260246000fd5b634e487b7160e01b600052603160045260246000fd5b634e487b7160e01b600052603260045260246000fd5b634e487b7160e01b600052604160045260246000fd5b601f01601f191690565b613a55816138b5565b8114610cb357600080fd5b801515613a55565b80613a55565b6001600160e01b03198116613a55565b613a55816138c656fea2646970667358221220d050315c90725a74355b6a44374fe2f6e8b26f48a37d2280282d5b7c353090e864736f6c63430008070033",
  "devdoc": {
    "author": "Masa Finance",
    "details": "Soulbound credit score, that inherits from the SBT contract.",
    "kind": "dev",
    "methods": {
      "addAuthority(address)": {
        "details": "The caller must have the admin to call this function",
        "params": {
          "_authority": "New authority to add"
        }
      },
      "addErc20Token(address)": {
        "details": "The caller must have the owner to call this function",
        "params": {
          "_erc20token": "New ERC20 token to add"
        }
      },
      "balanceOf(address)": {
        "details": "See {ISBT-balanceOf}."
      },
      "burn(uint256)": {
        "details": "Burns `tokenId`. See {SBT-_burn}. Requirements: - The caller must own `tokenId` or be an approved operator."
      },
      "constructor": {
        "details": "Creates a new soulbound credit score, inheriting from the SBT contract.",
        "params": {
          "_mintingPrice": "Price of minting in stable coin",
          "admin": "Administrator of the smart contract",
          "baseTokenURI": "Base URI of the token",
          "paymentParams": "Payment gateway params",
          "soulboundIdentity": "Address of the SoulboundIdentity contract"
        }
      },
      "getErc20Tokens()": {
        "details": "Returns the address of all available ERC 20 tokens",
        "returns": {
          "_0": "Array of all enabled ERC20 tokens"
        }
      },
      "getIdentityId(uint256)": {
        "params": {
          "tokenId": "Id of the token"
        },
        "returns": {
          "_0": "Id of the identity"
        }
      },
      "getMintingPrice(address)": {
        "details": "Returns current pricing for minting",
        "params": {
          "paymentMethod": "Address of token that user want to pay"
        },
        "returns": {
          "_0": "Current price for minting in the given payment method"
        }
      },
      "getRoleAdmin(bytes32)": {
        "details": "Returns the admin role that controls `role`. See {grantRole} and {revokeRole}. To change a role's admin, use {_setRoleAdmin}."
      },
      "grantRole(bytes32,address)": {
        "details": "Grants `role` to `account`. If `account` had not been already granted `role`, emits a {RoleGranted} event. Requirements: - the caller must have ``role``'s admin role. May emit a {RoleGranted} event."
      },
      "hasRole(bytes32,address)": {
        "details": "Returns `true` if `account` has been granted `role`."
      },
      "mint(address,address,address,uint256,bytes)": {
        "details": "The caller must have the MINTER role",
        "params": {
          "paymentMethod": "Address of token that user want to pay",
          "to": "The address to mint the SBT to"
        },
        "returns": {
          "_0": "The SBT ID of the newly minted SBT"
        }
      },
      "mint(address,uint256,address,uint256,bytes)": {
        "details": "The caller must have the MINTER role",
        "params": {
          "identityId": "TokenId of the identity to mint the NFT to",
          "paymentMethod": "Address of token that user want to pay"
        },
        "returns": {
          "_0": "The NFT ID of the newly minted SBT"
        }
      },
      "name()": {
        "details": "See {ISBTMetadata-name}."
      },
      "owner()": {
        "details": "Returns the address of the current owner."
      },
      "ownerOf(uint256)": {
        "details": "See {ISBT-ownerOf}."
      },
      "removeErc20Token(address)": {
        "details": "The caller must have the owner to call this function",
        "params": {
          "_erc20token": "ERC20 token to remove"
        }
      },
      "renounceOwnership()": {
        "details": "Leaves the contract without owner. It will not be possible to call `onlyOwner` functions anymore. Can only be called by the current owner. NOTE: Renouncing ownership will leave the contract without an owner, thereby removing any functionality that is only available to the owner."
      },
      "renounceRole(bytes32,address)": {
        "details": "Revokes `role` from the calling account. Roles are often managed via {grantRole} and {revokeRole}: this function's purpose is to provide a mechanism for accounts to lose their privileges if they are compromised (such as when a trusted device is misplaced). If the calling account had been revoked `role`, emits a {RoleRevoked} event. Requirements: - the caller must be `account`. May emit a {RoleRevoked} event."
      },
      "revokeRole(bytes32,address)": {
        "details": "Revokes `role` from `account`. If `account` had been granted `role`, emits a {RoleRevoked} event. Requirements: - the caller must have ``role``'s admin role. May emit a {RoleRevoked} event."
      },
      "setMasaToken(address)": {
        "details": "The caller must have the owner to call this function It can be set to address(0) to disable paying in $MASA",
        "params": {
          "_masaToken": "New utility token to pay the fee in"
        }
      },
      "setMintingPrice(uint256)": {
        "details": "The caller must have the admin to call this function",
        "params": {
          "_mintingPrice": "New price of minting in stable coin"
        }
      },
      "setReserveWallet(address)": {
        "details": "Let change the reserve walled. It can be triggered by an authorized account.",
        "params": {
          "_reserveWallet": "New reserve wallet"
        }
      },
      "setSoulboundIdentity(address)": {
        "details": "The caller must be the admin to call this function",
        "params": {
          "_soulboundIdentity": "Address of the SoulboundIdentity contract"
        }
      },
      "setStableCoin(address)": {
        "details": "The caller must have the owner to call this function",
        "params": {
          "_stableCoin": "New stable coin to pay the fee in"
        }
      },
      "setSwapRouter(address)": {
        "details": "The caller must have the owner to call this function",
        "params": {
          "_swapRouter": "New swap router address"
        }
      },
      "setWrappedNativeToken(address)": {
        "details": "The caller must have the owner to call this function",
        "params": {
          "_wrappedNativeToken": "New wrapped native token address"
        }
      },
      "supportsInterface(bytes4)": {
        "details": "Interface identification is specified in ERC-165.",
        "params": {
          "interfaceId": "The interface identifier, as specified in ERC-165"
        },
        "returns": {
          "_0": "`true` if the contract implements `interfaceId` and  `interfaceId` is not 0xffffffff, `false` otherwise"
        }
      },
      "symbol()": {
        "details": "See {ISBTMetadata-symbol}."
      },
      "tokenByIndex(uint256)": {
        "details": "See {ISBTEnumerable-tokenByIndex}."
      },
      "tokenOfOwnerByIndex(address,uint256)": {
        "details": "See {ISBTEnumerable-tokenOfOwnerByIndex}."
      },
      "tokenURI(uint256)": {
        "details": "Throws if `_tokenId` is not a valid SBT. URIs are defined in RFC  3986. The URI may point to a JSON file that conforms to the \"ERC721  Metadata JSON Schema\".",
        "params": {
          "tokenId": "SBT to get the URI of"
        },
        "returns": {
          "_0": "URI of the SBT"
        }
      },
      "totalSupply()": {
        "details": "See {ISBTEnumerable-totalSupply}."
      },
      "transferOwnership(address)": {
        "details": "Transfers ownership of the contract to a new account (`newOwner`). Can only be called by the current owner."
      }
    },
    "title": "Soulbound Credit Score",
    "version": 1
  },
  "userdoc": {
    "kind": "user",
    "methods": {
      "addAuthority(address)": {
        "notice": "Adds a new authority to the list of authorities"
      },
      "addErc20Token(address)": {
        "notice": "Adds a new ERC20 token as a valid payment method"
      },
      "constructor": {
        "notice": "Creates a new soulbound credit score"
      },
      "getErc20Tokens()": {
        "notice": "Returns all available ERC 20 tokens"
      },
      "getIdentityId(uint256)": {
        "notice": "Returns the identityId owned by the given token"
      },
      "getMintingPrice(address)": {
        "notice": "Returns the price for minting"
      },
      "mint(address,address,address,uint256,bytes)": {
        "notice": "Mints a new SBT"
      },
      "mint(address,uint256,address,uint256,bytes)": {
        "notice": "Mints a new SBT"
      },
      "removeErc20Token(address)": {
        "notice": "Removes an ERC20 token as a valid payment method"
      },
      "setMasaToken(address)": {
        "notice": "Sets the utility token to pay the fee in ($MASA)"
      },
      "setMintingPrice(uint256)": {
        "notice": "Sets the price of minting in stable coin"
      },
      "setReserveWallet(address)": {
        "notice": "Set the reserve wallet"
      },
      "setSoulboundIdentity(address)": {
        "notice": "Sets the SoulboundIdentity contract address linked to this SBT"
      },
      "setStableCoin(address)": {
        "notice": "Sets the stable coin to pay the fee in (USDC)"
      },
      "setSwapRouter(address)": {
        "notice": "Sets the swap router address"
      },
      "setWrappedNativeToken(address)": {
        "notice": "Sets the wrapped native token address"
      },
      "supportsInterface(bytes4)": {
        "notice": "Query if a contract implements an interface"
      },
      "tokenURI(uint256)": {
        "notice": "A distinct Uniform Resource Identifier (URI) for a given asset."
      }
    },
    "notice": "Soulbound token that represents a credit score.",
    "version": 1
  },
  "storageLayout": {
    "storage": [
      {
        "astId": 400,
        "contract": "contracts/SoulboundCreditScore.sol:SoulboundCreditScore",
        "label": "_owner",
        "offset": 0,
        "slot": "0",
        "type": "t_address"
      },
      {
        "astId": 7608,
        "contract": "contracts/SoulboundCreditScore.sol:SoulboundCreditScore",
        "label": "swapRouter",
        "offset": 0,
        "slot": "1",
        "type": "t_address"
      },
      {
        "astId": 7610,
        "contract": "contracts/SoulboundCreditScore.sol:SoulboundCreditScore",
        "label": "wrappedNativeToken",
        "offset": 0,
        "slot": "2",
        "type": "t_address"
      },
      {
        "astId": 7612,
        "contract": "contracts/SoulboundCreditScore.sol:SoulboundCreditScore",
        "label": "stableCoin",
        "offset": 0,
        "slot": "3",
        "type": "t_address"
      },
      {
        "astId": 7614,
        "contract": "contracts/SoulboundCreditScore.sol:SoulboundCreditScore",
        "label": "masaToken",
        "offset": 0,
        "slot": "4",
        "type": "t_address"
      },
      {
        "astId": 7618,
        "contract": "contracts/SoulboundCreditScore.sol:SoulboundCreditScore",
        "label": "erc20token",
        "offset": 0,
        "slot": "5",
        "type": "t_mapping(t_address,t_bool)"
      },
      {
        "astId": 7621,
        "contract": "contracts/SoulboundCreditScore.sol:SoulboundCreditScore",
        "label": "erc20tokens",
        "offset": 0,
        "slot": "6",
        "type": "t_array(t_address)dyn_storage"
      },
      {
        "astId": 7623,
        "contract": "contracts/SoulboundCreditScore.sol:SoulboundCreditScore",
        "label": "reserveWallet",
        "offset": 0,
        "slot": "7",
        "type": "t_address"
      },
      {
        "astId": 9409,
        "contract": "contracts/SoulboundCreditScore.sol:SoulboundCreditScore",
        "label": "_name",
        "offset": 0,
        "slot": "8",
        "type": "t_string_storage"
      },
      {
        "astId": 9411,
        "contract": "contracts/SoulboundCreditScore.sol:SoulboundCreditScore",
        "label": "_symbol",
        "offset": 0,
        "slot": "9",
        "type": "t_string_storage"
      },
      {
        "astId": 9415,
        "contract": "contracts/SoulboundCreditScore.sol:SoulboundCreditScore",
        "label": "_owners",
        "offset": 0,
        "slot": "10",
        "type": "t_mapping(t_uint256,t_address)"
      },
      {
        "astId": 9419,
        "contract": "contracts/SoulboundCreditScore.sol:SoulboundCreditScore",
        "label": "_balances",
        "offset": 0,
        "slot": "11",
        "type": "t_mapping(t_address,t_uint256)"
      },
      {
        "astId": 9878,
        "contract": "contracts/SoulboundCreditScore.sol:SoulboundCreditScore",
        "label": "_ownedTokens",
        "offset": 0,
        "slot": "12",
        "type": "t_mapping(t_address,t_mapping(t_uint256,t_uint256))"
      },
      {
        "astId": 9882,
        "contract": "contracts/SoulboundCreditScore.sol:SoulboundCreditScore",
        "label": "_ownedTokensIndex",
        "offset": 0,
        "slot": "13",
        "type": "t_mapping(t_uint256,t_uint256)"
      },
      {
        "astId": 9885,
        "contract": "contracts/SoulboundCreditScore.sol:SoulboundCreditScore",
        "label": "_allTokens",
        "offset": 0,
        "slot": "14",
        "type": "t_array(t_uint256)dyn_storage"
      },
      {
        "astId": 9889,
        "contract": "contracts/SoulboundCreditScore.sol:SoulboundCreditScore",
        "label": "_allTokensIndex",
        "offset": 0,
        "slot": "15",
        "type": "t_mapping(t_uint256,t_uint256)"
      },
      {
        "astId": 24,
        "contract": "contracts/SoulboundCreditScore.sol:SoulboundCreditScore",
        "label": "_roles",
        "offset": 0,
        "slot": "16",
        "type": "t_mapping(t_bytes32,t_struct(RoleData)19_storage)"
      },
      {
        "astId": 8863,
        "contract": "contracts/SoulboundCreditScore.sol:SoulboundCreditScore",
        "label": "_baseTokenURI",
        "offset": 0,
        "slot": "17",
        "type": "t_string_storage"
      },
      {
        "astId": 9073,
        "contract": "contracts/SoulboundCreditScore.sol:SoulboundCreditScore",
        "label": "_tokenIdCounter",
        "offset": 0,
        "slot": "18",
        "type": "t_struct(Counter)3369_storage"
      },
      {
        "astId": 9076,
        "contract": "contracts/SoulboundCreditScore.sol:SoulboundCreditScore",
        "label": "soulboundIdentity",
        "offset": 0,
        "slot": "19",
        "type": "t_contract(ISoulboundIdentity)8395"
      },
      {
        "astId": 9078,
        "contract": "contracts/SoulboundCreditScore.sol:SoulboundCreditScore",
        "label": "mintingPrice",
        "offset": 0,
        "slot": "20",
        "type": "t_uint256"
      },
      {
        "astId": 9082,
        "contract": "contracts/SoulboundCreditScore.sol:SoulboundCreditScore",
        "label": "authorities",
        "offset": 0,
        "slot": "21",
        "type": "t_mapping(t_address,t_bool)"
      }
    ],
    "types": {
      "t_address": {
        "encoding": "inplace",
        "label": "address",
        "numberOfBytes": "20"
      },
      "t_array(t_address)dyn_storage": {
        "base": "t_address",
        "encoding": "dynamic_array",
        "label": "address[]",
        "numberOfBytes": "32"
      },
      "t_array(t_uint256)dyn_storage": {
        "base": "t_uint256",
        "encoding": "dynamic_array",
        "label": "uint256[]",
        "numberOfBytes": "32"
      },
      "t_bool": {
        "encoding": "inplace",
        "label": "bool",
        "numberOfBytes": "1"
      },
      "t_bytes32": {
        "encoding": "inplace",
        "label": "bytes32",
        "numberOfBytes": "32"
      },
      "t_contract(ISoulboundIdentity)8395": {
        "encoding": "inplace",
        "label": "contract ISoulboundIdentity",
        "numberOfBytes": "20"
      },
      "t_mapping(t_address,t_bool)": {
        "encoding": "mapping",
        "key": "t_address",
        "label": "mapping(address => bool)",
        "numberOfBytes": "32",
        "value": "t_bool"
      },
      "t_mapping(t_address,t_mapping(t_uint256,t_uint256))": {
        "encoding": "mapping",
        "key": "t_address",
        "label": "mapping(address => mapping(uint256 => uint256))",
        "numberOfBytes": "32",
        "value": "t_mapping(t_uint256,t_uint256)"
      },
      "t_mapping(t_address,t_uint256)": {
        "encoding": "mapping",
        "key": "t_address",
        "label": "mapping(address => uint256)",
        "numberOfBytes": "32",
        "value": "t_uint256"
      },
      "t_mapping(t_bytes32,t_struct(RoleData)19_storage)": {
        "encoding": "mapping",
        "key": "t_bytes32",
        "label": "mapping(bytes32 => struct AccessControl.RoleData)",
        "numberOfBytes": "32",
        "value": "t_struct(RoleData)19_storage"
      },
      "t_mapping(t_uint256,t_address)": {
        "encoding": "mapping",
        "key": "t_uint256",
        "label": "mapping(uint256 => address)",
        "numberOfBytes": "32",
        "value": "t_address"
      },
      "t_mapping(t_uint256,t_uint256)": {
        "encoding": "mapping",
        "key": "t_uint256",
        "label": "mapping(uint256 => uint256)",
        "numberOfBytes": "32",
        "value": "t_uint256"
      },
      "t_string_storage": {
        "encoding": "bytes",
        "label": "string",
        "numberOfBytes": "32"
      },
      "t_struct(Counter)3369_storage": {
        "encoding": "inplace",
        "label": "struct Counters.Counter",
        "members": [
          {
            "astId": 3368,
            "contract": "contracts/SoulboundCreditScore.sol:SoulboundCreditScore",
            "label": "_value",
            "offset": 0,
            "slot": "0",
            "type": "t_uint256"
          }
        ],
        "numberOfBytes": "32"
      },
      "t_struct(RoleData)19_storage": {
        "encoding": "inplace",
        "label": "struct AccessControl.RoleData",
        "members": [
          {
            "astId": 16,
            "contract": "contracts/SoulboundCreditScore.sol:SoulboundCreditScore",
            "label": "members",
            "offset": 0,
            "slot": "0",
            "type": "t_mapping(t_address,t_bool)"
          },
          {
            "astId": 18,
            "contract": "contracts/SoulboundCreditScore.sol:SoulboundCreditScore",
            "label": "adminRole",
            "offset": 0,
            "slot": "1",
            "type": "t_bytes32"
          }
        ],
        "numberOfBytes": "64"
      },
      "t_uint256": {
        "encoding": "inplace",
        "label": "uint256",
        "numberOfBytes": "32"
      }
    }
  }
}