{
  "address": "0x43B0b4a74dc61a282028E7021563F16eE52ad77e",
  "abi": [
    {
      "inputs": [
        {
          "internalType": "address",
          "name": "admin",
          "type": "address"
        },
        {
          "internalType": "string",
          "name": "baseTokenURI",
          "type": "string"
        }
      ],
      "stateMutability": "nonpayable",
      "type": "constructor"
    },
    {
      "inputs": [
        {
          "internalType": "address",
          "name": "to",
          "type": "address"
        }
      ],
      "name": "IdentityAlreadyCreated",
      "type": "error"
    },
    {
      "inputs": [],
      "name": "SameValue",
      "type": "error"
    },
    {
      "inputs": [],
      "name": "SoulNameContractNotSet",
      "type": "error"
    },
    {
      "inputs": [],
      "name": "ZeroAddress",
      "type": "error"
    },
    {
      "anonymous": false,
      "inputs": [
        {
          "indexed": true,
          "internalType": "address",
          "name": "_owner",
          "type": "address"
        },
        {
          "indexed": true,
          "internalType": "uint256",
          "name": "_tokenId",
          "type": "uint256"
        }
      ],
      "name": "Burn",
      "type": "event"
    },
    {
      "anonymous": false,
      "inputs": [
        {
          "indexed": true,
          "internalType": "address",
          "name": "_owner",
          "type": "address"
        },
        {
          "indexed": true,
          "internalType": "uint256",
          "name": "_tokenId",
          "type": "uint256"
        }
      ],
      "name": "Mint",
      "type": "event"
    },
    {
      "anonymous": false,
      "inputs": [
        {
          "indexed": true,
          "internalType": "bytes32",
          "name": "role",
          "type": "bytes32"
        },
        {
          "indexed": true,
          "internalType": "bytes32",
          "name": "previousAdminRole",
          "type": "bytes32"
        },
        {
          "indexed": true,
          "internalType": "bytes32",
          "name": "newAdminRole",
          "type": "bytes32"
        }
      ],
      "name": "RoleAdminChanged",
      "type": "event"
    },
    {
      "anonymous": false,
      "inputs": [
        {
          "indexed": true,
          "internalType": "bytes32",
          "name": "role",
          "type": "bytes32"
        },
        {
          "indexed": true,
          "internalType": "address",
          "name": "account",
          "type": "address"
        },
        {
          "indexed": true,
          "internalType": "address",
          "name": "sender",
          "type": "address"
        }
      ],
      "name": "RoleGranted",
      "type": "event"
    },
    {
      "anonymous": false,
      "inputs": [
        {
          "indexed": true,
          "internalType": "bytes32",
          "name": "role",
          "type": "bytes32"
        },
        {
          "indexed": true,
          "internalType": "address",
          "name": "account",
          "type": "address"
        },
        {
          "indexed": true,
          "internalType": "address",
          "name": "sender",
          "type": "address"
        }
      ],
      "name": "RoleRevoked",
      "type": "event"
    },
    {
      "inputs": [],
      "name": "DEFAULT_ADMIN_ROLE",
      "outputs": [
        {
          "internalType": "bytes32",
          "name": "",
          "type": "bytes32"
        }
      ],
      "stateMutability": "view",
      "type": "function"
    },
    {
      "inputs": [],
      "name": "MINTER_ROLE",
      "outputs": [
        {
          "internalType": "bytes32",
          "name": "",
          "type": "bytes32"
        }
      ],
      "stateMutability": "view",
      "type": "function"
    },
    {
      "inputs": [],
      "name": "addLinkPrice",
      "outputs": [
        {
          "internalType": "uint256",
          "name": "",
          "type": "uint256"
        }
      ],
      "stateMutability": "view",
      "type": "function"
    },
    {
      "inputs": [],
      "name": "addLinkPriceMASA",
      "outputs": [
        {
          "internalType": "uint256",
          "name": "",
          "type": "uint256"
        }
      ],
      "stateMutability": "view",
      "type": "function"
    },
    {
      "inputs": [
        {
          "internalType": "address",
          "name": "owner",
          "type": "address"
        }
      ],
      "name": "balanceOf",
      "outputs": [
        {
          "internalType": "uint256",
          "name": "",
          "type": "uint256"
        }
      ],
      "stateMutability": "view",
      "type": "function"
    },
    {
      "inputs": [
        {
          "internalType": "uint256",
          "name": "tokenId",
          "type": "uint256"
        }
      ],
      "name": "burn",
      "outputs": [],
      "stateMutability": "nonpayable",
      "type": "function"
    },
    {
      "inputs": [
        {
          "internalType": "uint256",
          "name": "tokenId",
          "type": "uint256"
        }
      ],
      "name": "exists",
      "outputs": [
        {
          "internalType": "bool",
          "name": "",
          "type": "bool"
        }
      ],
      "stateMutability": "view",
      "type": "function"
    },
    {
      "inputs": [],
      "name": "getExtension",
      "outputs": [
        {
          "internalType": "string",
          "name": "",
          "type": "string"
        }
      ],
      "stateMutability": "view",
      "type": "function"
    },
    {
      "inputs": [
        {
          "internalType": "bytes32",
          "name": "role",
          "type": "bytes32"
        }
      ],
      "name": "getRoleAdmin",
      "outputs": [
        {
          "internalType": "bytes32",
          "name": "",
          "type": "bytes32"
        }
      ],
      "stateMutability": "view",
      "type": "function"
    },
    {
      "inputs": [],
      "name": "getSoulName",
      "outputs": [
        {
          "internalType": "contract ISoulName",
          "name": "",
          "type": "address"
        }
      ],
      "stateMutability": "view",
      "type": "function"
    },
    {
      "inputs": [
        {
          "internalType": "uint256",
          "name": "tokenId",
          "type": "uint256"
        }
      ],
      "name": "getSoulNames",
      "outputs": [
        {
          "internalType": "string[]",
          "name": "sbtNames",
          "type": "string[]"
        }
      ],
      "stateMutability": "view",
      "type": "function"
    },
    {
      "inputs": [
        {
          "internalType": "address",
          "name": "owner",
          "type": "address"
        }
      ],
      "name": "getSoulNames",
      "outputs": [
        {
          "internalType": "string[]",
          "name": "sbtNames",
          "type": "string[]"
        }
      ],
      "stateMutability": "view",
      "type": "function"
    },
    {
      "inputs": [
        {
          "internalType": "string",
          "name": "name",
          "type": "string"
        }
      ],
      "name": "getTokenData",
      "outputs": [
        {
          "internalType": "string",
          "name": "sbtName",
          "type": "string"
        },
        {
          "internalType": "bool",
          "name": "linked",
          "type": "bool"
        },
        {
          "internalType": "uint256",
          "name": "identityId",
          "type": "uint256"
        },
        {
          "internalType": "uint256",
          "name": "tokenId",
          "type": "uint256"
        },
        {
          "internalType": "uint256",
          "name": "expirationDate",
          "type": "uint256"
        },
        {
          "internalType": "bool",
          "name": "active",
          "type": "bool"
        }
      ],
      "stateMutability": "view",
      "type": "function"
    },
    {
      "inputs": [
        {
          "internalType": "bytes32",
          "name": "role",
          "type": "bytes32"
        },
        {
          "internalType": "address",
          "name": "account",
          "type": "address"
        }
      ],
      "name": "grantRole",
      "outputs": [],
      "stateMutability": "nonpayable",
      "type": "function"
    },
    {
      "inputs": [
        {
          "internalType": "bytes32",
          "name": "role",
          "type": "bytes32"
        },
        {
          "internalType": "address",
          "name": "account",
          "type": "address"
        }
      ],
      "name": "hasRole",
      "outputs": [
        {
          "internalType": "bool",
          "name": "",
          "type": "bool"
        }
      ],
      "stateMutability": "view",
      "type": "function"
    },
    {
      "inputs": [
        {
          "internalType": "string",
          "name": "name",
          "type": "string"
        }
      ],
      "name": "isAvailable",
      "outputs": [
        {
          "internalType": "bool",
          "name": "available",
          "type": "bool"
        }
      ],
      "stateMutability": "view",
      "type": "function"
    },
    {
      "inputs": [
        {
          "internalType": "address",
          "name": "to",
          "type": "address"
        }
      ],
      "name": "mint",
      "outputs": [
        {
          "internalType": "uint256",
          "name": "",
          "type": "uint256"
        }
      ],
      "stateMutability": "nonpayable",
      "type": "function"
    },
    {
      "inputs": [
        {
          "internalType": "address",
          "name": "to",
          "type": "address"
        },
        {
          "internalType": "string",
          "name": "name",
          "type": "string"
        },
        {
          "internalType": "uint256",
          "name": "yearsPeriod",
          "type": "uint256"
        },
        {
          "internalType": "string",
          "name": "_tokenURI",
          "type": "string"
        }
      ],
      "name": "mintIdentityWithName",
      "outputs": [
        {
          "internalType": "uint256",
          "name": "",
          "type": "uint256"
        }
      ],
      "stateMutability": "payable",
      "type": "function"
    },
    {
      "inputs": [],
      "name": "name",
      "outputs": [
        {
          "internalType": "string",
          "name": "",
          "type": "string"
        }
      ],
      "stateMutability": "view",
      "type": "function"
    },
    {
      "inputs": [
        {
          "internalType": "uint256",
          "name": "tokenId",
          "type": "uint256"
        }
      ],
      "name": "ownerOf",
      "outputs": [
        {
          "internalType": "address",
          "name": "",
          "type": "address"
        }
      ],
      "stateMutability": "view",
      "type": "function"
    },
    {
      "inputs": [
        {
          "internalType": "string",
          "name": "name",
          "type": "string"
        }
      ],
      "name": "ownerOf",
      "outputs": [
        {
          "internalType": "address",
          "name": "",
          "type": "address"
        }
      ],
      "stateMutability": "view",
      "type": "function"
    },
    {
      "inputs": [],
      "name": "readDataPrice",
      "outputs": [
        {
          "internalType": "uint256",
          "name": "",
          "type": "uint256"
        }
      ],
      "stateMutability": "view",
      "type": "function"
    },
    {
      "inputs": [],
      "name": "readDataPriceMASA",
      "outputs": [
        {
          "internalType": "uint256",
          "name": "",
          "type": "uint256"
        }
      ],
      "stateMutability": "view",
      "type": "function"
    },
    {
      "inputs": [
        {
          "internalType": "bytes32",
          "name": "role",
          "type": "bytes32"
        },
        {
          "internalType": "address",
          "name": "account",
          "type": "address"
        }
      ],
      "name": "renounceRole",
      "outputs": [],
      "stateMutability": "nonpayable",
      "type": "function"
    },
    {
      "inputs": [
        {
          "internalType": "bytes32",
          "name": "role",
          "type": "bytes32"
        },
        {
          "internalType": "address",
          "name": "account",
          "type": "address"
        }
      ],
      "name": "revokeRole",
      "outputs": [],
      "stateMutability": "nonpayable",
      "type": "function"
    },
    {
      "inputs": [
        {
          "internalType": "uint256",
          "name": "_addLinkPrice",
          "type": "uint256"
        }
      ],
      "name": "setAddLinkPrice",
      "outputs": [],
      "stateMutability": "nonpayable",
      "type": "function"
    },
    {
      "inputs": [
        {
          "internalType": "uint256",
          "name": "_addLinkPriceMASA",
          "type": "uint256"
        }
      ],
      "name": "setAddLinkPriceMASA",
      "outputs": [],
      "stateMutability": "nonpayable",
      "type": "function"
    },
    {
      "inputs": [
        {
          "internalType": "uint256",
          "name": "_readDataPrice",
          "type": "uint256"
        }
      ],
      "name": "setReadDataPrice",
      "outputs": [],
      "stateMutability": "nonpayable",
      "type": "function"
    },
    {
      "inputs": [
        {
          "internalType": "uint256",
          "name": "_readDataPriceMASA",
          "type": "uint256"
        }
      ],
      "name": "setReadDataPriceMASA",
      "outputs": [],
      "stateMutability": "nonpayable",
      "type": "function"
    },
    {
      "inputs": [
        {
          "internalType": "contract ISoulName",
          "name": "_soulName",
          "type": "address"
        }
      ],
      "name": "setSoulName",
      "outputs": [],
      "stateMutability": "nonpayable",
      "type": "function"
    },
    {
      "inputs": [],
      "name": "soulName",
      "outputs": [
        {
          "internalType": "contract ISoulName",
          "name": "",
          "type": "address"
        }
      ],
      "stateMutability": "view",
      "type": "function"
    },
    {
      "inputs": [
        {
          "internalType": "bytes4",
          "name": "interfaceId",
          "type": "bytes4"
        }
      ],
      "name": "supportsInterface",
      "outputs": [
        {
          "internalType": "bool",
          "name": "",
          "type": "bool"
        }
      ],
      "stateMutability": "view",
      "type": "function"
    },
    {
      "inputs": [],
      "name": "symbol",
      "outputs": [
        {
          "internalType": "string",
          "name": "",
          "type": "string"
        }
      ],
      "stateMutability": "view",
      "type": "function"
    },
    {
      "inputs": [
        {
          "internalType": "uint256",
          "name": "index",
          "type": "uint256"
        }
      ],
      "name": "tokenByIndex",
      "outputs": [
        {
          "internalType": "uint256",
          "name": "",
          "type": "uint256"
        }
      ],
      "stateMutability": "view",
      "type": "function"
    },
    {
      "inputs": [
        {
          "internalType": "address",
          "name": "owner",
          "type": "address"
        }
      ],
      "name": "tokenOfOwner",
      "outputs": [
        {
          "internalType": "uint256",
          "name": "",
          "type": "uint256"
        }
      ],
      "stateMutability": "view",
      "type": "function"
    },
    {
      "inputs": [
        {
          "internalType": "address",
          "name": "owner",
          "type": "address"
        },
        {
          "internalType": "uint256",
          "name": "index",
          "type": "uint256"
        }
      ],
      "name": "tokenOfOwnerByIndex",
      "outputs": [
        {
          "internalType": "uint256",
          "name": "",
          "type": "uint256"
        }
      ],
      "stateMutability": "view",
      "type": "function"
    },
    {
      "inputs": [
        {
          "internalType": "string",
          "name": "name",
          "type": "string"
        }
      ],
      "name": "tokenURI",
      "outputs": [
        {
          "internalType": "string",
          "name": "",
          "type": "string"
        }
      ],
      "stateMutability": "view",
      "type": "function"
    },
    {
      "inputs": [
        {
          "internalType": "address",
          "name": "owner",
          "type": "address"
        }
      ],
      "name": "tokenURI",
      "outputs": [
        {
          "internalType": "string",
          "name": "",
          "type": "string"
        }
      ],
      "stateMutability": "view",
      "type": "function"
    },
    {
      "inputs": [
        {
          "internalType": "uint256",
          "name": "tokenId",
          "type": "uint256"
        }
      ],
      "name": "tokenURI",
      "outputs": [
        {
          "internalType": "string",
          "name": "",
          "type": "string"
        }
      ],
      "stateMutability": "view",
      "type": "function"
    },
    {
      "inputs": [],
      "name": "totalSupply",
      "outputs": [
        {
          "internalType": "uint256",
          "name": "",
          "type": "uint256"
        }
      ],
      "stateMutability": "view",
      "type": "function"
    }
  ],
  "transactionHash": "0xf3f847023e119a78691ae315d024ee126cf475f40aa3702ecc37801d1d791921",
  "args": [
    "0xA38dd237a3A8D50537B74a4B0D4E7E8A5359386F",
    "https://beta.metadata.masa.finance/v1.0/identity/"
  ],
  "numDeployments": 7,
  "solcInputHash": "cf868c23561bd9ad8523c20e38fc02f9",
  "bytecode": "0x60806040523480156200001157600080fd5b5060405162002b6e38038062002b6e8339810160408190526200003491620002fa565b816040518060400160405280600d81526020016c4d617361204964656e7469747960981b8152506040518060400160405280600381526020016213525160ea1b81525083838383838282816000908051906020019062000096929190620001ce565b508051620000ac906001906020840190620001ce565b50620000be9150600090508562000116565b8051620000d3906009906020840190620001ce565b50505050506200010a7f9f2df0fed2c77648de5860a4cc508cd0818c85b8b8a1ab4ceeef8d981c8956a6856200011660201b60201c565b505050505050620004a0565b620001228282620001a1565b6200019d5760008281526008602090815260408083206001600160a01b03851684529091529020805460ff191660011790556200015c3390565b6001600160a01b0316816001600160a01b0316837f2f8788117e7eff1d82e926ec794901d17c78024a50270940304540a733656f0d60405160405180910390a45b5050565b60008281526008602090815260408083206001600160a01b038516845290915290205460ff165b92915050565b828054620001dc90620003ed565b90600052602060002090601f0160209004810192826200020057600085556200024b565b82601f106200021b57805160ff19168380011785556200024b565b828001600101855582156200024b579182015b828111156200024b5782518255916020019190600101906200022e565b50620002599291506200025d565b5090565b5b808211156200025957600081556001016200025e565b60006200028b620002858462000378565b62000359565b905082815260208101848484011115620002a857620002a8600080fd5b620002b5848285620003ba565b509392505050565b8051620001c88162000486565b600082601f830112620002e057620002e0600080fd5b8151620002f284826020860162000274565b949350505050565b60008060408385031215620003125762000312600080fd5b6000620003208585620002bd565b92505060208301516001600160401b03811115620003415762000341600080fd5b6200034f85828601620002ca565b9150509250929050565b60006200036560405190565b90506200037382826200041e565b919050565b60006001600160401b0382111562000394576200039462000466565b6200039f826200047c565b60200192915050565b60006001600160a01b038216620001c8565b60005b83811015620003d7578181015183820152602001620003bd565b83811115620003e7576000848401525b50505050565b6002810460018216806200040257607f821691505b6020821081141562000418576200041862000450565b50919050565b62000429826200047c565b81018181106001600160401b038211171562000449576200044962000466565b6040525050565b634e487b7160e01b600052602260045260246000fd5b634e487b7160e01b600052604160045260246000fd5b601f01601f191690565b6200049181620003a8565b81146200049d57600080fd5b50565b6126be80620004b06000396000f3fe6080604052600436106101cb5760003560e01c806301ffc9a7146101d057806306fdde03146102065780630effc8f6146102285780630f2e68af1461024a57806318160ddd146102775780631f37c12414610295578063248a9ca3146102ab578063289c686b146102cb578063294cdf0d146102eb5780632f2ff15d1461030b5780632f745c591461032b57806336568abe1461034b5780633c72ae701461036b57806342966c681461038b57806345f45539146103ab57806346b2b087146103cb5780634cf12d26146103fd5780634f558e791461041d5780634f6ccce71461043d5780635141453e1461045d5780635b8278cf146104705780636352211e146104865780636a627842146104b357806370a08231146104d3578063776ce6a1146104f3578063776d1a54146105085780637e6698911461051e57806391d148541461054b578063920ffa261461056b57806393702f331461058b57806395d89b41146105ab57806396329e8d146105c0578063965306aa146105d6578063a217fddf146105f6578063b507d4811461060b578063b79636b614610629578063c87b56dd14610649578063d539139314610669578063d547741f1461068b578063ee7a9ec5146106ab575b600080fd5b3480156101dc57600080fd5b506101f06101eb366004611d49565b6106cb565b6040516101fd91906122b1565b60405180910390f35b34801561021257600080fd5b5061021b6106dc565b6040516101fd91906122db565b34801561023457600080fd5b50610248610243366004611cf5565b61076e565b005b34801561025657600080fd5b50600f5461026a906001600160a01b031681565b6040516101fd91906122cd565b34801561028357600080fd5b506006545b6040516101fd91906122bf565b3480156102a157600080fd5b50610288600a5481565b3480156102b757600080fd5b506102886102c6366004611cf5565b6107a2565b3480156102d757600080fd5b506102486102e6366004611cf5565b6107b7565b3480156102f757600080fd5b50610288610306366004611ba4565b6107eb565b34801561031757600080fd5b50610248610326366004611d16565b6107f8565b34801561033757600080fd5b50610288610346366004611c5d565b610819565b34801561035757600080fd5b50610248610366366004611d16565b610874565b34801561037757600080fd5b50610248610386366004611cf5565b6108aa565b34801561039757600080fd5b506102486103a6366004611cf5565b6108de565b3480156103b757600080fd5b506102486103c6366004611cf5565b610910565b3480156103d757600080fd5b506103eb6103e6366004611d8b565b610944565b6040516101fd969594939291906122ec565b34801561040957600080fd5b5061021b610418366004611d8b565b610a13565b34801561042957600080fd5b506101f0610438366004611cf5565b610add565b34801561044957600080fd5b50610288610458366004611cf5565b610ae8565b61028861046b366004611bc5565b610b36565b34801561047c57600080fd5b50610288600d5481565b34801561049257600080fd5b506104a66104a1366004611cf5565b610c00565b6040516101fd9190612247565b3480156104bf57600080fd5b506102886104ce366004611ba4565b610c0b565b3480156104df57600080fd5b506102886104ee366004611ba4565b610c41565b3480156104ff57600080fd5b5061021b610c85565b34801561051457600080fd5b50610288600b5481565b34801561052a57600080fd5b5061053e610539366004611cf5565b610d0b565b6040516101fd91906122a0565b34801561055757600080fd5b506101f0610566366004611d16565b610dbb565b34801561057757600080fd5b506104a6610586366004611d8b565b610de6565b34801561059757600080fd5b5061021b6105a6366004611ba4565b610ea7565b3480156105b757600080fd5b5061021b610ebf565b3480156105cc57600080fd5b50610288600c5481565b3480156105e257600080fd5b506101f06105f1366004611d8b565b610ece565b34801561060257600080fd5b50610288600081565b34801561061757600080fd5b50600f546001600160a01b031661026a565b34801561063557600080fd5b5061053e610644366004611ba4565b610f7a565b34801561065557600080fd5b5061021b610664366004611cf5565b610fd6565b34801561067557600080fd5b5061028860008051602061266983398151915281565b34801561069757600080fd5b506102486106a6366004611d16565b61103c565b3480156106b757600080fd5b506102486106c6366004611d6a565b611058565b60006106d6826110dc565b92915050565b6060600080546106eb9061251c565b80601f01602080910402602001604051908101604052809291908181526020018280546107179061251c565b80156107645780601f1061073957610100808354040283529160200191610764565b820191906000526020600020905b81548152906001019060200180831161074757829003601f168201915b5050505050905090565b600061077981611101565b81600d54141561079c5760405163c23f6ccb60e01b815260040160405180910390fd5b50600d55565b60009081526008602052604090206001015490565b60006107c281611101565b81600a5414156107e55760405163c23f6ccb60e01b815260040160405180910390fd5b50600a55565b60006106d6826000610819565b610801826107a2565b61080a81611101565b610814838361110b565b505050565b600061082483610c41565b821061084b5760405162461bcd60e51b81526004016108429061236b565b60405180910390fd5b506001600160a01b03919091166000908152600460209081526040808320938352929052205490565b6001600160a01b038116331461089c5760405162461bcd60e51b8152600401610842906123cb565b6108a68282611191565b5050565b60006108b581611101565b81600b5414156108d85760405163c23f6ccb60e01b815260040160405180910390fd5b50600b55565b6108e833826111f8565b6109045760405162461bcd60e51b81526004016108429061238b565b61090d8161121b565b50565b600061091b81611101565b81600c54141561093e5760405163c23f6ccb60e01b815260040160405180910390fd5b50600c55565b600f5460609060009081908190819081906001600160a01b031661097b57604051636d9e949f60e01b815260040160405180910390fd5b600f546040516346b2b08760e01b81526001600160a01b03909116906346b2b087906109ab908a906004016122db565b60006040518083038186803b1580156109c357600080fd5b505afa1580156109d7573d6000803e3d6000fd5b505050506040513d6000823e601f3d908101601f191682016040526109ff9190810190611dff565b949c939b5091995097509550909350915050565b600f546060906001600160a01b0316610a3f57604051636d9e949f60e01b815260040160405180910390fd5b600f546040516346b2b08760e01b81526000916001600160a01b0316906346b2b08790610a709086906004016122db565b60006040518083038186803b158015610a8857600080fd5b505afa158015610a9c573d6000803e3d6000fd5b505050506040513d6000823e601f3d908101601f19168201604052610ac49190810190611dff565b50505092505050610ad481610fd6565b9150505b919050565b60006106d6826112b5565b6000610af360065490565b8210610b115760405162461bcd60e51b8152600401610842906123bb565b60068281548110610b2457610b246125f7565b90600052602060002001549050919050565b600f546000906001600160a01b0316610b6257604051636d9e949f60e01b815260040160405180910390fd5b6000610b6d86610c0b565b600f546040516303dd904360e41b81529192506001600160a01b031690633dd9043090610ba4908990899089908990600401612255565b602060405180830381600087803b158015610bbe57600080fd5b505af1158015610bd2573d6000803e3d6000fd5b505050506040513d601f19601f82011682018060405250810190610bf69190611ea2565b5095945050505050565b60006106d6826112d2565b600080610c1783610c41565b1115610c3857816040516312d5c31d60e01b81526004016108429190612247565b6106d682611307565b60006001600160a01b038216610c695760405162461bcd60e51b81526004016108429061237b565b506001600160a01b031660009081526003602052604090205490565b600f546040805163776ce6a160e01b815290516060926001600160a01b03169163776ce6a1916004808301926000929190829003018186803b158015610cca57600080fd5b505afa158015610cde573d6000803e3d6000fd5b505050506040513d6000823e601f3d908101601f19168201604052610d069190810190611dc5565b905090565b600f546060906001600160a01b0316610d3757604051636d9e949f60e01b815260040160405180910390fd5b600f54604051637e66989160e01b81526001600160a01b0390911690637e66989190610d679085906004016122bf565b60006040518083038186803b158015610d7f57600080fd5b505afa158015610d93573d6000803e3d6000fd5b505050506040513d6000823e601f3d908101601f191682016040526106d69190810190611c9a565b60009182526008602090815260408084206001600160a01b0393909316845291905290205460ff1690565b600f546000906001600160a01b0316610e1257604051636d9e949f60e01b815260040160405180910390fd5b600f546040516346b2b08760e01b81526000916001600160a01b0316906346b2b08790610e439086906004016122db565b60006040518083038186803b158015610e5b57600080fd5b505afa158015610e6f573d6000803e3d6000fd5b505050506040513d6000823e601f3d908101601f19168201604052610e979190810190611dff565b50505092505050610ad4816112d2565b60606000610eb4836107eb565b9050610ad481610fd6565b6060600180546106eb9061251c565b600f546000906001600160a01b0316610efa57604051636d9e949f60e01b815260040160405180910390fd5b600f54604051634b29835560e11b81526001600160a01b039091169063965306aa90610f2a9085906004016122db565b60206040518083038186803b158015610f4257600080fd5b505afa158015610f56573d6000803e3d6000fd5b505050506040513d601f19601f820116820180604052508101906106d69190611cd4565b600f546060906001600160a01b0316610fa657604051636d9e949f60e01b815260040160405180910390fd5b600f54604051635bcb1b5b60e11b81526001600160a01b039091169063b79636b690610d67908590600401612247565b6060610fe18261134c565b6000610feb611371565b9050600081511161100b5760405180602001604052806000815250610ad4565b8061101584611380565b6040516020016110269291906121c7565b6040516020818303038152906040529392505050565b611045826107a2565b61104e81611101565b6108148383611191565b600061106381611101565b6001600160a01b03821661108a5760405163d92e233d60e01b815260040160405180910390fd5b600f546001600160a01b03838116911614156110b95760405163c23f6ccb60e01b815260040160405180910390fd5b50600f80546001600160a01b0319166001600160a01b0392909216919091179055565b60006001600160e01b03198216637965db0b60e01b14806106d657506106d682611485565b61090d81336114aa565b6111158282610dbb565b6108a65760008281526008602090815260408083206001600160a01b03851684529091529020805460ff1916600117905561114d3390565b6001600160a01b0316816001600160a01b0316837f2f8788117e7eff1d82e926ec794901d17c78024a50270940304540a733656f0d60405160405180910390a45050565b61119b8282610dbb565b156108a65760008281526008602090815260408083206001600160a01b0385168085529252808320805460ff1916905551339285917ff6391f5c32d9c69d2a47ea670b442974b53935d1edc7fd64eb21e047a839171b9190a45050565b600080611204836112d2565b6001600160a01b0385811691161491505092915050565b6000611226826112d2565b90506112348160008461150e565b6001600160a01b038116600090815260036020526040812080546001929061125d90849061248b565b909155505060008281526002602052604080822080546001600160a01b03191690555183916001600160a01b038416917fcc16f5dbb4873280815c1ee09dbd06736cffcc184412cf7a71a0fdb75d397ca59190a35050565b6000908152600260205260409020546001600160a01b0316151590565b6000818152600260205260408120546001600160a01b0316806106d65760405162461bcd60e51b8152600401610842906123ab565b600060008051602061266983398151915261132181611101565b600061132c600e5490565b905061133c600e80546001019055565b610ad48482611519565b50919050565b611355816112b5565b61090d5760405162461bcd60e51b8152600401610842906123ab565b6060600980546106eb9061251c565b6060816113a45750506040805180820190915260018152600360fc1b602082015290565b8160005b81156113ce57806113b881612570565b91506113c79050600a83612458565b91506113a8565b6000816001600160401b038111156113e8576113e861260d565b6040519080825280601f01601f191660200182016040528015611412576020820181803683370190505b5090505b841561147d5761142760018361248b565b9150611434600a8661258b565b61143f906030612440565b60f81b818381518110611454576114546125f7565b60200101906001600160f81b031916908160001a905350611476600a86612458565b9450611416565b949350505050565b60006001600160e01b0319821663780e9d6360e01b14806106d657506106d6826115f5565b6114b48282610dbb565b6108a6576114cc816001600160a01b03166014611645565b6114d7836020611645565b6040516020016114e89291906121f5565b60408051601f198184030181529082905262461bcd60e51b8252610842916004016122db565b6108148383836117b7565b6001600160a01b03821661153f5760405162461bcd60e51b81526004016108429061235b565b611548816112b5565b156115655760405162461bcd60e51b81526004016108429061239b565b6115716000838361150e565b6001600160a01b038216600090815260036020526040812080546001929061159a908490612440565b909155505060008181526002602052604080822080546001600160a01b0319166001600160a01b038616908117909155905183927f0f6798a560793a54c3bcfe86a93cde1e73087d944c0ea20544137d412139688591a35050565b60006001600160e01b031982166313f2a32f60e01b148061162657506001600160e01b03198216635b5e139f60e01b145b806106d657506301ffc9a760e01b6001600160e01b03198316146106d6565b6060600061165483600261246c565b61165f906002612440565b6001600160401b038111156116765761167661260d565b6040519080825280601f01601f1916602001820160405280156116a0576020820181803683370190505b509050600360fc1b816000815181106116bb576116bb6125f7565b60200101906001600160f81b031916908160001a905350600f60fb1b816001815181106116ea576116ea6125f7565b60200101906001600160f81b031916908160001a905350600061170e84600261246c565b611719906001612440565b90505b6001811115611791576f181899199a1a9b1b9c1cb0b131b232b360811b85600f166010811061174d5761174d6125f7565b1a60f81b828281518110611763576117636125f7565b60200101906001600160f81b031916908160001a90535060049490941c9361178a81612505565b905061171c565b5083156117b05760405162461bcd60e51b81526004016108429061234b565b9392505050565b6001600160a01b0383166118125761180d81600680546000838152600760205260408120829055600182018355919091527ff652222313e28459528d920b65115c16c04f3efc82aaedc97be59f3f377c0d3f0155565b611835565b816001600160a01b0316836001600160a01b03161461183557611835838261186f565b6001600160a01b03821661184c576108148161190c565b826001600160a01b0316826001600160a01b0316146108145761081482826119bb565b6000600161187c84610c41565b611886919061248b565b6000838152600560205260409020549091508082146118d9576001600160a01b03841660009081526004602090815260408083208584528252808320548484528184208190558352600590915290208190555b5060009182526005602090815260408084208490556001600160a01b039094168352600481528383209183525290812055565b60065460009061191e9060019061248b565b60008381526007602052604081205460068054939450909284908110611946576119466125f7565b906000526020600020015490508060068381548110611967576119676125f7565b600091825260208083209091019290925582815260079091526040808220849055858252812055600680548061199f5761199f6125e1565b6001900381819060005260206000200160009055905550505050565b60006119c683610c41565b6001600160a01b039093166000908152600460209081526040808320868452825280832085905593825260059052919091209190915550565b6000611a12611a0d846123f2565b6123db565b90508083825260208201905082856020860282011115611a3457611a34600080fd5b60005b85811015611a7c5781516001600160401b03811115611a5857611a58600080fd5b808601611a658982611b75565b855250506020928301929190910190600101611a37565b5050509392505050565b6000611a94611a0d84612415565b905082815260208101848484011115611aaf57611aaf600080fd5b611aba8482856124c9565b509392505050565b6000611ad0611a0d84612415565b905082815260208101848484011115611aeb57611aeb600080fd5b611aba8482856124d5565b80356106d68161262d565b600082601f830112611b1557611b15600080fd5b815161147d8482602086016119ff565b80516106d681612641565b80356106d681612649565b80356106d68161264f565b80356106d68161265f565b600082601f830112611b6557611b65600080fd5b813561147d848260208601611a86565b600082601f830112611b8957611b89600080fd5b815161147d848260208601611ac2565b80516106d681612649565b600060208284031215611bb957611bb9600080fd5b600061147d8484611af6565b60008060008060808587031215611bde57611bde600080fd5b6000611bea8787611af6565b94505060208501356001600160401b03811115611c0957611c09600080fd5b611c1587828801611b51565b9350506040611c2687828801611b30565b92505060608501356001600160401b03811115611c4557611c45600080fd5b611c5187828801611b51565b91505092959194509250565b60008060408385031215611c7357611c73600080fd5b6000611c7f8585611af6565b9250506020611c9085828601611b30565b9150509250929050565b600060208284031215611caf57611caf600080fd5b81516001600160401b03811115611cc857611cc8600080fd5b61147d84828501611b01565b600060208284031215611ce957611ce9600080fd5b600061147d8484611b25565b600060208284031215611d0a57611d0a600080fd5b600061147d8484611b30565b60008060408385031215611d2c57611d2c600080fd5b6000611d388585611b30565b9250506020611c9085828601611af6565b600060208284031215611d5e57611d5e600080fd5b600061147d8484611b3b565b600060208284031215611d7f57611d7f600080fd5b600061147d8484611b46565b600060208284031215611da057611da0600080fd5b81356001600160401b03811115611db957611db9600080fd5b61147d84828501611b51565b600060208284031215611dda57611dda600080fd5b81516001600160401b03811115611df357611df3600080fd5b61147d84828501611b75565b60008060008060008060c08789031215611e1b57611e1b600080fd5b86516001600160401b03811115611e3457611e34600080fd5b611e4089828a01611b75565b9650506020611e5189828a01611b25565b9550506040611e6289828a01611b99565b9450506060611e7389828a01611b99565b9350506080611e8489828a01611b99565b92505060a0611e9589828a01611b25565b9150509295509295509295565b600060208284031215611eb757611eb7600080fd5b600061147d8484611b99565b60006117b08383611f5b565b611ed8816124a2565b82525050565b6000611ee8825190565b80845260208401935083602082028501611f028560200190565b8060005b85811015611f375784840389528151611f1f8582611ec3565b94506020830160209a909a0199925050600101611f06565b5091979650505050505050565b801515611ed8565b80611ed8565b611ed8816124be565b6000611f65825190565b808452602084019350611f7c8185602086016124d5565b611f8581612623565b9093019392505050565b6000611f99825190565b611fa78185602086016124d5565b9290920192915050565b60208082527f537472696e67733a20686578206c656e67746820696e73756666696369656e74910190815260005b5060200190565b601d81526000602082017f5342543a206d696e7420746f20746865207a65726f206164647265737300000081529150611fdf565b602881526000602082017f534254456e756d657261626c653a206f776e657220696e646578206f7574206f8152676620626f756e647360c01b602082015291505b5060400190565b602681526000602082017f5342543a2061646472657373207a65726f206973206e6f7420612076616c69648152651037bbb732b960d11b6020820152915061205b565b601e81526000602082017f5342543a2063616c6c6572206973206e6f7420746f6b656e206f776e6572000081529150611fdf565b601981526000602082017814d0950e881d1bdad95b88185b1c9958591e481b5a5b9d1959603a1b81529150611fdf565b601581526000602082017414d0950e881a5b9d985b1a59081d1bdad95b881251605a1b81529150611fdf565b602981526000602082017f534254456e756d657261626c653a20676c6f62616c20696e646578206f7574208152686f6620626f756e647360b81b6020820152915061205b565b602f81526000602082017f416363657373436f6e74726f6c3a2063616e206f6e6c792072656e6f756e636581526e103937b632b9903337b91039b2b63360891b6020820152915061205b565b60006121d38285611f8f565b91506121df8284611f8f565b64173539b7b760d91b815291506005820161147d565b76020b1b1b2b9b9a1b7b73a3937b61d1030b1b1b7bab73a1604d1b815260170160006122218285611f8f565b7001034b99036b4b9b9b4b733903937b6329607d1b8152601101915061147d8284611f8f565b602081016106d68284611ecf565b608081016122638287611ecf565b81810360208301526122758186611f5b565b90506122846040830185611f4c565b81810360608301526122968184611f5b565b9695505050505050565b602080825281016117b08184611ede565b602081016106d68284611f44565b602081016106d68284611f4c565b602081016106d68284611f52565b602080825281016117b08184611f5b565b60c080825281016122fd8189611f5b565b905061230c6020830188611f44565b6123196040830187611f4c565b6123266060830186611f4c565b6123336080830185611f4c565b61234060a0830184611f44565b979650505050505050565b602080825281016106d681611fb1565b602080825281016106d681611fe6565b602080825281016106d68161201a565b602080825281016106d681612062565b602080825281016106d6816120a5565b602080825281016106d6816120d9565b602080825281016106d681612109565b602080825281016106d681612135565b602080825281016106d68161217b565b60006123e660405190565b9050610ad88282612543565b60006001600160401b0382111561240b5761240b61260d565b5060209081020190565b60006001600160401b0382111561242e5761242e61260d565b61243782612623565b60200192915050565b600082198211156124535761245361259f565b500190565b600082612467576124676125b5565b500490565b60008160001904831182151516156124865761248661259f565b500290565b60008282101561249d5761249d61259f565b500390565b60006001600160a01b0382166106d6565b60006106d6826124a2565b60006106d6826124b3565b82818337506000910152565b60005b838110156124f05781810151838201526020016124d8565b838111156124ff576000848401525b50505050565b6000816125145761251461259f565b506000190190565b60028104600182168061253057607f821691505b60208210811415611346576113466125cb565b61254c82612623565b81018181106001600160401b03821117156125695761256961260d565b6040525050565b60006000198214156125845761258461259f565b5060010190565b60008261259a5761259a6125b5565b500690565b634e487b7160e01b600052601160045260246000fd5b634e487b7160e01b600052601260045260246000fd5b634e487b7160e01b600052602260045260246000fd5b634e487b7160e01b600052603160045260246000fd5b634e487b7160e01b600052603260045260246000fd5b634e487b7160e01b600052604160045260246000fd5b601f01601f191690565b612636816124a2565b811461090d57600080fd5b801515612636565b80612636565b6001600160e01b03198116612636565b612636816124b356fe9f2df0fed2c77648de5860a4cc508cd0818c85b8b8a1ab4ceeef8d981c8956a6a26469706673582212204ce5b4b001fa4fd23a15c601503a770170b85e82c288c44c25e050e1babec07d64736f6c63430008070033",
  "devdoc": {
    "author": "Masa Finance",
    "details": "Soulbound identity, that inherits from the SBT contract.",
    "kind": "dev",
    "methods": {
      "balanceOf(address)": {
        "details": "See {ISBT-balanceOf}."
      },
      "burn(uint256)": {
        "details": "Burns `tokenId`. See {SBT-_burn}. Requirements: - The caller must own `tokenId` or be an approved operator."
      },
      "constructor": {
        "details": "Creates a new soulbound identity, inheriting from the SBT contract.",
        "params": {
          "admin": "Administrator of the smart contract",
          "baseTokenURI": "Base URI of the token"
        }
      },
      "exists(uint256)": {
        "details": "Returns true if the token has been minted",
        "params": {
          "tokenId": "Token to check"
        },
        "returns": {
          "_0": "True if the token exists"
        }
      },
      "getExtension()": {
        "details": "This function returns the extension of the soul name",
        "returns": {
          "_0": "Extension of the soul name"
        }
      },
      "getRoleAdmin(bytes32)": {
        "details": "Returns the admin role that controls `role`. See {grantRole} and {revokeRole}. To change a role's admin, use {_setRoleAdmin}."
      },
      "getSoulName()": {
        "details": "This function returns the address of the SoulName contract linked to this identity",
        "returns": {
          "_0": "Address of the SoulName contract"
        }
      },
      "getSoulNames(address)": {
        "details": "This function queries all the identity names of the specified account",
        "params": {
          "owner": "Address of the owner of the identities"
        },
        "returns": {
          "sbtNames": "Array of soul names associated to the account"
        }
      },
      "getSoulNames(uint256)": {
        "details": "This function queries all the identity names of the specified identity Id",
        "params": {
          "tokenId": "TokenId of the identity"
        },
        "returns": {
          "sbtNames": "Array of soul names associated to the identity Id"
        }
      },
      "getTokenData(string)": {
        "details": "This function queries the information of a soul name",
        "params": {
          "name": "Name of the soul name"
        },
        "returns": {
          "active": "`true` if the soul name is active, `false` otherwise",
          "expirationDate": "Expiration date of the soul name",
          "identityId": "Identity id of the soul name",
          "linked": "`true` if the soul name is linked, `false` otherwise",
          "sbtName": "Soul name, in upper/lower case and extension",
          "tokenId": "SoulName id of the soul name"
        }
      },
      "grantRole(bytes32,address)": {
        "details": "Grants `role` to `account`. If `account` had not been already granted `role`, emits a {RoleGranted} event. Requirements: - the caller must have ``role``'s admin role. May emit a {RoleGranted} event."
      },
      "hasRole(bytes32,address)": {
        "details": "Returns `true` if `account` has been granted `role`."
      },
      "isAvailable(string)": {
        "details": "This function queries if a soul name already exists and is in the available state",
        "params": {
          "name": "Name of the soul name"
        },
        "returns": {
          "available": "`true` if the soul name is available, `false` otherwise"
        }
      },
      "mint(address)": {
        "details": "The caller can only mint one identity per address",
        "params": {
          "to": "Address of the admin of the new identity"
        }
      },
      "mintIdentityWithName(address,string,uint256,string)": {
        "details": "The caller can only mint one identity per address, and the name must be unique",
        "params": {
          "_tokenURI": "URI of the NFT",
          "name": "Name of the new identity",
          "to": "Address of the admin of the new identity",
          "yearsPeriod": "Years of validity of the name"
        }
      },
      "name()": {
        "details": "See {ISBTMetadata-name}."
      },
      "ownerOf(string)": {
        "details": "This function returns the owner address of the soul name identity specified by the name",
        "params": {
          "name": "Name of the soul name"
        },
        "returns": {
          "_0": "Address of the owner of the identity"
        }
      },
      "ownerOf(uint256)": {
        "details": "This function returns the owner address of the identity specified by the tokenId",
        "params": {
          "tokenId": "TokenId of the identity"
        },
        "returns": {
          "_0": "Address of the owner of the identity"
        }
      },
      "renounceRole(bytes32,address)": {
        "details": "Revokes `role` from the calling account. Roles are often managed via {grantRole} and {revokeRole}: this function's purpose is to provide a mechanism for accounts to lose their privileges if they are compromised (such as when a trusted device is misplaced). If the calling account had been revoked `role`, emits a {RoleRevoked} event. Requirements: - the caller must be `account`. May emit a {RoleRevoked} event."
      },
      "revokeRole(bytes32,address)": {
        "details": "Revokes `role` from `account`. If `account` had been granted `role`, emits a {RoleRevoked} event. Requirements: - the caller must have ``role``'s admin role. May emit a {RoleRevoked} event."
      },
      "setAddLinkPrice(uint256)": {
        "details": "The caller must have the admin to call this function",
        "params": {
          "_addLinkPrice": "New price for adding the link in SoulLinker in stable coin"
        }
      },
      "setAddLinkPriceMASA(uint256)": {
        "details": "The caller must have the admin to call this function",
        "params": {
          "_addLinkPriceMASA": "New price for adding the link in SoulLinker in MASA"
        }
      },
      "setReadDataPrice(uint256)": {
        "details": "The caller must have the admin to call this function",
        "params": {
          "_readDataPrice": "New price for reading data in SoulLinker in stable coin"
        }
      },
      "setReadDataPriceMASA(uint256)": {
        "details": "The caller must have the admin to call this function",
        "params": {
          "_readDataPriceMASA": "New price for reading data in SoulLinker in MASA"
        }
      },
      "setSoulName(address)": {
        "details": "The caller must have the admin to call this function",
        "params": {
          "_soulName": "Address of the SoulName contract"
        }
      },
      "supportsInterface(bytes4)": {
        "details": "Interface identification is specified in ERC-165.",
        "params": {
          "interfaceId": "The interface identifier, as specified in ERC-165"
        },
        "returns": {
          "_0": "`true` if the contract implements `interfaceId` and  `interfaceId` is not 0xffffffff, `false` otherwise"
        }
      },
      "symbol()": {
        "details": "See {ISBTMetadata-symbol}."
      },
      "tokenByIndex(uint256)": {
        "details": "See {ISBTEnumerable-tokenByIndex}."
      },
      "tokenOfOwner(address)": {
        "details": "This function returns the tokenId of the identity owned by an account",
        "params": {
          "owner": "Address of the owner of the identity"
        },
        "returns": {
          "_0": "TokenId of the identity owned by the account"
        }
      },
      "tokenOfOwnerByIndex(address,uint256)": {
        "details": "See {ISBTEnumerable-tokenOfOwnerByIndex}."
      },
      "tokenURI(address)": {
        "details": "This function returns the token URI of the identity owned by an account",
        "params": {
          "owner": "Address of the owner of the identity"
        },
        "returns": {
          "_0": "URI of the identity owned by the account"
        }
      },
      "tokenURI(string)": {
        "details": "This function returns the token URI of the soul name identity specified by the name",
        "params": {
          "name": "Name of the soul name"
        },
        "returns": {
          "_0": "URI of the identity associated to a soul name"
        }
      },
      "tokenURI(uint256)": {
        "details": "Throws if `_tokenId` is not a valid SBT. URIs are defined in RFC  3986. The URI may point to a JSON file that conforms to the \"ERC721  Metadata JSON Schema\".",
        "params": {
          "tokenId": "SBT to get the URI of"
        },
        "returns": {
          "_0": "URI of the SBT"
        }
      },
      "totalSupply()": {
        "details": "See {ISBTEnumerable-totalSupply}."
      }
    },
    "title": "Soulbound Identity",
    "version": 1
  },
  "userdoc": {
    "kind": "user",
    "methods": {
      "constructor": {
        "notice": "Creates a new soulbound identity"
      },
      "exists(uint256)": {
        "notice": "Returns true if the token exists"
      },
      "getExtension()": {
        "notice": "Returns the extension of the soul name"
      },
      "getSoulName()": {
        "notice": "Returns the address of the SoulName contract linked to this identity"
      },
      "getSoulNames(address)": {
        "notice": "Returns all the active soul names of an account"
      },
      "getSoulNames(uint256)": {
        "notice": "Returns all the active soul names of an account"
      },
      "getTokenData(string)": {
        "notice": "Returns the information of a soul name"
      },
      "isAvailable(string)": {
        "notice": "Checks if a soul name is available"
      },
      "mint(address)": {
        "notice": "Mints a new soulbound identity"
      },
      "mintIdentityWithName(address,string,uint256,string)": {
        "notice": "Mints a new soulbound identity with a SoulName associated to it"
      },
      "ownerOf(string)": {
        "notice": "Returns the owner address of a soul name"
      },
      "ownerOf(uint256)": {
        "notice": "Returns the owner address of an identity"
      },
      "setAddLinkPrice(uint256)": {
        "notice": "Sets the price for adding the link in SoulLinker in stable coin"
      },
      "setAddLinkPriceMASA(uint256)": {
        "notice": "Sets the price for adding the link in SoulLinker in MASA"
      },
      "setReadDataPrice(uint256)": {
        "notice": "Sets the price for reading data in SoulLinker in stable coin"
      },
      "setReadDataPriceMASA(uint256)": {
        "notice": "Sets the price for reading data in SoulLinker in MASA"
      },
      "setSoulName(address)": {
        "notice": "Sets the SoulName contract address linked to this identity"
      },
      "supportsInterface(bytes4)": {
        "notice": "Query if a contract implements an interface"
      },
      "tokenOfOwner(address)": {
        "notice": "Returns the identity id of an account"
      },
      "tokenURI(address)": {
        "notice": "Returns the URI of the owner of an identity"
      },
      "tokenURI(string)": {
        "notice": "Returns the URI of a soul name"
      },
      "tokenURI(uint256)": {
        "notice": "A distinct Uniform Resource Identifier (URI) for a given asset."
      }
    },
    "notice": "Soulbound token that represents an identity.",
    "version": 1
  },
  "storageLayout": {
    "storage": [
      {
        "astId": 9689,
        "contract": "contracts/SoulboundIdentity.sol:SoulboundIdentity",
        "label": "_name",
        "offset": 0,
        "slot": "0",
        "type": "t_string_storage"
      },
      {
        "astId": 9691,
        "contract": "contracts/SoulboundIdentity.sol:SoulboundIdentity",
        "label": "_symbol",
        "offset": 0,
        "slot": "1",
        "type": "t_string_storage"
      },
      {
        "astId": 9695,
        "contract": "contracts/SoulboundIdentity.sol:SoulboundIdentity",
        "label": "_owners",
        "offset": 0,
        "slot": "2",
        "type": "t_mapping(t_uint256,t_address)"
      },
      {
        "astId": 9699,
        "contract": "contracts/SoulboundIdentity.sol:SoulboundIdentity",
        "label": "_balances",
        "offset": 0,
        "slot": "3",
        "type": "t_mapping(t_address,t_uint256)"
      },
      {
        "astId": 10158,
        "contract": "contracts/SoulboundIdentity.sol:SoulboundIdentity",
        "label": "_ownedTokens",
        "offset": 0,
        "slot": "4",
        "type": "t_mapping(t_address,t_mapping(t_uint256,t_uint256))"
      },
      {
        "astId": 10162,
        "contract": "contracts/SoulboundIdentity.sol:SoulboundIdentity",
        "label": "_ownedTokensIndex",
        "offset": 0,
        "slot": "5",
        "type": "t_mapping(t_uint256,t_uint256)"
      },
      {
        "astId": 10165,
        "contract": "contracts/SoulboundIdentity.sol:SoulboundIdentity",
        "label": "_allTokens",
        "offset": 0,
        "slot": "6",
        "type": "t_array(t_uint256)dyn_storage"
      },
      {
        "astId": 10169,
        "contract": "contracts/SoulboundIdentity.sol:SoulboundIdentity",
        "label": "_allTokensIndex",
        "offset": 0,
        "slot": "7",
        "type": "t_mapping(t_uint256,t_uint256)"
      },
      {
        "astId": 24,
        "contract": "contracts/SoulboundIdentity.sol:SoulboundIdentity",
        "label": "_roles",
        "offset": 0,
        "slot": "8",
        "type": "t_mapping(t_bytes32,t_struct(RoleData)19_storage)"
      },
      {
        "astId": 9001,
        "contract": "contracts/SoulboundIdentity.sol:SoulboundIdentity",
        "label": "_baseTokenURI",
        "offset": 0,
        "slot": "9",
        "type": "t_string_storage"
      },
      {
        "astId": 9004,
        "contract": "contracts/SoulboundIdentity.sol:SoulboundIdentity",
        "label": "addLinkPrice",
        "offset": 0,
        "slot": "10",
        "type": "t_uint256"
      },
      {
        "astId": 9007,
        "contract": "contracts/SoulboundIdentity.sol:SoulboundIdentity",
        "label": "addLinkPriceMASA",
        "offset": 0,
        "slot": "11",
        "type": "t_uint256"
      },
      {
        "astId": 9010,
        "contract": "contracts/SoulboundIdentity.sol:SoulboundIdentity",
        "label": "readDataPrice",
        "offset": 0,
        "slot": "12",
        "type": "t_uint256"
      },
      {
        "astId": 9013,
        "contract": "contracts/SoulboundIdentity.sol:SoulboundIdentity",
        "label": "readDataPriceMASA",
        "offset": 0,
        "slot": "13",
        "type": "t_uint256"
      },
      {
        "astId": 9245,
        "contract": "contracts/SoulboundIdentity.sol:SoulboundIdentity",
        "label": "_tokenIdCounter",
        "offset": 0,
        "slot": "14",
        "type": "t_struct(Counter)3369_storage"
      },
      {
        "astId": 7300,
        "contract": "contracts/SoulboundIdentity.sol:SoulboundIdentity",
        "label": "soulName",
        "offset": 0,
        "slot": "15",
        "type": "t_contract(ISoulName)8368"
      }
    ],
    "types": {
      "t_address": {
        "encoding": "inplace",
        "label": "address",
        "numberOfBytes": "20"
      },
      "t_array(t_uint256)dyn_storage": {
        "base": "t_uint256",
        "encoding": "dynamic_array",
        "label": "uint256[]",
        "numberOfBytes": "32"
      },
      "t_bool": {
        "encoding": "inplace",
        "label": "bool",
        "numberOfBytes": "1"
      },
      "t_bytes32": {
        "encoding": "inplace",
        "label": "bytes32",
        "numberOfBytes": "32"
      },
      "t_contract(ISoulName)8368": {
        "encoding": "inplace",
        "label": "contract ISoulName",
        "numberOfBytes": "20"
      },
      "t_mapping(t_address,t_bool)": {
        "encoding": "mapping",
        "key": "t_address",
        "label": "mapping(address => bool)",
        "numberOfBytes": "32",
        "value": "t_bool"
      },
      "t_mapping(t_address,t_mapping(t_uint256,t_uint256))": {
        "encoding": "mapping",
        "key": "t_address",
        "label": "mapping(address => mapping(uint256 => uint256))",
        "numberOfBytes": "32",
        "value": "t_mapping(t_uint256,t_uint256)"
      },
      "t_mapping(t_address,t_uint256)": {
        "encoding": "mapping",
        "key": "t_address",
        "label": "mapping(address => uint256)",
        "numberOfBytes": "32",
        "value": "t_uint256"
      },
      "t_mapping(t_bytes32,t_struct(RoleData)19_storage)": {
        "encoding": "mapping",
        "key": "t_bytes32",
        "label": "mapping(bytes32 => struct AccessControl.RoleData)",
        "numberOfBytes": "32",
        "value": "t_struct(RoleData)19_storage"
      },
      "t_mapping(t_uint256,t_address)": {
        "encoding": "mapping",
        "key": "t_uint256",
        "label": "mapping(uint256 => address)",
        "numberOfBytes": "32",
        "value": "t_address"
      },
      "t_mapping(t_uint256,t_uint256)": {
        "encoding": "mapping",
        "key": "t_uint256",
        "label": "mapping(uint256 => uint256)",
        "numberOfBytes": "32",
        "value": "t_uint256"
      },
      "t_string_storage": {
        "encoding": "bytes",
        "label": "string",
        "numberOfBytes": "32"
      },
      "t_struct(Counter)3369_storage": {
        "encoding": "inplace",
        "label": "struct Counters.Counter",
        "members": [
          {
            "astId": 3368,
            "contract": "contracts/SoulboundIdentity.sol:SoulboundIdentity",
            "label": "_value",
            "offset": 0,
            "slot": "0",
            "type": "t_uint256"
          }
        ],
        "numberOfBytes": "32"
      },
      "t_struct(RoleData)19_storage": {
        "encoding": "inplace",
        "label": "struct AccessControl.RoleData",
        "members": [
          {
            "astId": 16,
            "contract": "contracts/SoulboundIdentity.sol:SoulboundIdentity",
            "label": "members",
            "offset": 0,
            "slot": "0",
            "type": "t_mapping(t_address,t_bool)"
          },
          {
            "astId": 18,
            "contract": "contracts/SoulboundIdentity.sol:SoulboundIdentity",
            "label": "adminRole",
            "offset": 0,
            "slot": "1",
            "type": "t_bytes32"
          }
        ],
        "numberOfBytes": "64"
      },
      "t_uint256": {
        "encoding": "inplace",
        "label": "uint256",
        "numberOfBytes": "32"
      }
    }
  }
}