{
  "address": "0xF1E2688fBB5B360C687116D1Ec64371433Ab6F4b",
  "abi": [
    {
      "inputs": [
        {
          "internalType": "address",
          "name": "owner",
          "type": "address"
        },
        {
          "internalType": "contract ISoulboundIdentity",
          "name": "_soulboundIdentity",
          "type": "address"
        },
        {
          "internalType": "uint256",
          "name": "_addPermissionPrice",
          "type": "uint256"
        },
        {
          "internalType": "uint256",
          "name": "_addPermissionPriceMASA",
          "type": "uint256"
        },
        {
          "components": [
            {
              "internalType": "address",
              "name": "swapRouter",
              "type": "address"
            },
            {
              "internalType": "address",
              "name": "wrappedNativeToken",
              "type": "address"
            },
            {
              "internalType": "address",
              "name": "stableCoin",
              "type": "address"
            },
            {
              "internalType": "address",
              "name": "masaToken",
              "type": "address"
            },
            {
              "internalType": "address",
              "name": "reserveWallet",
              "type": "address"
            }
          ],
          "internalType": "struct PaymentGateway.PaymentParams",
          "name": "paymentParams",
          "type": "tuple"
        }
      ],
      "stateMutability": "nonpayable",
      "type": "constructor"
    },
    {
      "anonymous": false,
      "inputs": [
        {
          "indexed": true,
          "internalType": "address",
          "name": "previousOwner",
          "type": "address"
        },
        {
          "indexed": true,
          "internalType": "address",
          "name": "newOwner",
          "type": "address"
        }
      ],
      "name": "OwnershipTransferred",
      "type": "event"
    },
    {
      "anonymous": false,
      "inputs": [
        {
          "indexed": false,
          "internalType": "address",
          "name": "account",
          "type": "address"
        }
      ],
      "name": "Paused",
      "type": "event"
    },
    {
      "anonymous": false,
      "inputs": [
        {
          "indexed": false,
          "internalType": "uint256",
          "name": "readerIdentityId",
          "type": "uint256"
        },
        {
          "indexed": false,
          "internalType": "uint256",
          "name": "ownerIdentityId",
          "type": "uint256"
        },
        {
          "indexed": false,
          "internalType": "address",
          "name": "token",
          "type": "address"
        },
        {
          "indexed": false,
          "internalType": "uint256",
          "name": "tokenId",
          "type": "uint256"
        },
        {
          "indexed": false,
          "internalType": "string",
          "name": "data",
          "type": "string"
        },
        {
          "indexed": false,
          "internalType": "uint256",
          "name": "signatureDate",
          "type": "uint256"
        },
        {
          "indexed": false,
          "internalType": "uint256",
          "name": "expirationDate",
          "type": "uint256"
        }
      ],
      "name": "PermissionAdded",
      "type": "event"
    },
    {
      "anonymous": false,
      "inputs": [
        {
          "indexed": false,
          "internalType": "uint256",
          "name": "readerIdentityId",
          "type": "uint256"
        },
        {
          "indexed": false,
          "internalType": "uint256",
          "name": "ownerIdentityId",
          "type": "uint256"
        },
        {
          "indexed": false,
          "internalType": "address",
          "name": "token",
          "type": "address"
        },
        {
          "indexed": false,
          "internalType": "uint256",
          "name": "tokenId",
          "type": "uint256"
        },
        {
          "indexed": false,
          "internalType": "uint256",
          "name": "signatureDate",
          "type": "uint256"
        }
      ],
      "name": "PermissionRevoked",
      "type": "event"
    },
    {
      "anonymous": false,
      "inputs": [
        {
          "indexed": false,
          "internalType": "address",
          "name": "account",
          "type": "address"
        }
      ],
      "name": "Unpaused",
      "type": "event"
    },
    {
      "inputs": [
        {
          "internalType": "address",
          "name": "_erc20token",
          "type": "address"
        }
      ],
      "name": "addErc20Token",
      "outputs": [],
      "stateMutability": "nonpayable",
      "type": "function"
    },
    {
      "inputs": [
        {
          "internalType": "address",
          "name": "token",
          "type": "address"
        }
      ],
      "name": "addLinkedSBT",
      "outputs": [],
      "stateMutability": "nonpayable",
      "type": "function"
    },
    {
      "inputs": [
        {
          "internalType": "address",
          "name": "paymentMethod",
          "type": "address"
        },
        {
          "internalType": "uint256",
          "name": "readerIdentityId",
          "type": "uint256"
        },
        {
          "internalType": "uint256",
          "name": "ownerIdentityId",
          "type": "uint256"
        },
        {
          "internalType": "address",
          "name": "token",
          "type": "address"
        },
        {
          "internalType": "uint256",
          "name": "tokenId",
          "type": "uint256"
        },
        {
          "internalType": "string",
          "name": "data",
          "type": "string"
        },
        {
          "internalType": "uint256",
          "name": "signatureDate",
          "type": "uint256"
        },
        {
          "internalType": "uint256",
          "name": "expirationDate",
          "type": "uint256"
        },
        {
          "internalType": "bytes",
          "name": "signature",
          "type": "bytes"
        }
      ],
      "name": "addPermission",
      "outputs": [],
      "stateMutability": "nonpayable",
      "type": "function"
    },
    {
      "inputs": [],
      "name": "addPermissionPrice",
      "outputs": [
        {
          "internalType": "uint256",
          "name": "",
          "type": "uint256"
        }
      ],
      "stateMutability": "view",
      "type": "function"
    },
    {
      "inputs": [],
      "name": "addPermissionPriceMASA",
      "outputs": [
        {
          "internalType": "uint256",
          "name": "",
          "type": "uint256"
        }
      ],
      "stateMutability": "view",
      "type": "function"
    },
    {
      "inputs": [
        {
          "internalType": "address",
          "name": "",
          "type": "address"
        }
      ],
      "name": "erc20token",
      "outputs": [
        {
          "internalType": "bool",
          "name": "",
          "type": "bool"
        }
      ],
      "stateMutability": "view",
      "type": "function"
    },
    {
      "inputs": [
        {
          "internalType": "uint256",
          "name": "",
          "type": "uint256"
        }
      ],
      "name": "erc20tokens",
      "outputs": [
        {
          "internalType": "address",
          "name": "",
          "type": "address"
        }
      ],
      "stateMutability": "view",
      "type": "function"
    },
    {
      "inputs": [],
      "name": "getErc20Tokens",
      "outputs": [
        {
          "internalType": "address[]",
          "name": "",
          "type": "address[]"
        }
      ],
      "stateMutability": "view",
      "type": "function"
    },
    {
      "inputs": [
        {
          "internalType": "address",
          "name": "token",
          "type": "address"
        },
        {
          "internalType": "uint256",
          "name": "tokenId",
          "type": "uint256"
        }
      ],
      "name": "getIdentityId",
      "outputs": [
        {
          "internalType": "uint256",
          "name": "",
          "type": "uint256"
        }
      ],
      "stateMutability": "view",
      "type": "function"
    },
    {
      "inputs": [
        {
          "internalType": "address",
          "name": "token",
          "type": "address"
        },
        {
          "internalType": "uint256",
          "name": "tokenId",
          "type": "uint256"
        },
        {
          "internalType": "uint256",
          "name": "readerIdentityId",
          "type": "uint256"
        },
        {
          "internalType": "uint256",
          "name": "signatureDate",
          "type": "uint256"
        }
      ],
      "name": "getPermissionInfo",
      "outputs": [
        {
          "components": [
            {
              "internalType": "uint256",
              "name": "ownerIdentityId",
              "type": "uint256"
            },
            {
              "internalType": "string",
              "name": "data",
              "type": "string"
            },
            {
              "internalType": "uint256",
              "name": "expirationDate",
              "type": "uint256"
            },
            {
              "internalType": "bool",
              "name": "isRevoked",
              "type": "bool"
            }
          ],
          "internalType": "struct SoulLinker.PermissionData",
          "name": "",
          "type": "tuple"
        }
      ],
      "stateMutability": "view",
      "type": "function"
    },
    {
      "inputs": [
        {
          "internalType": "address",
          "name": "token",
          "type": "address"
        },
        {
          "internalType": "uint256",
          "name": "tokenId",
          "type": "uint256"
        },
        {
          "internalType": "uint256",
          "name": "readerIdentityId",
          "type": "uint256"
        }
      ],
      "name": "getPermissionSignatureDates",
      "outputs": [
        {
          "internalType": "uint256[]",
          "name": "",
          "type": "uint256[]"
        }
      ],
      "stateMutability": "view",
      "type": "function"
    },
    {
      "inputs": [
        {
          "internalType": "address",
          "name": "paymentMethod",
          "type": "address"
        }
      ],
      "name": "getPriceForAddPermission",
      "outputs": [
        {
          "internalType": "uint256",
          "name": "price",
          "type": "uint256"
        },
        {
          "internalType": "address",
          "name": "paymentMethodUsed",
          "type": "address"
        }
      ],
      "stateMutability": "view",
      "type": "function"
    },
    {
      "inputs": [
        {
          "internalType": "uint256",
          "name": "identityId",
          "type": "uint256"
        },
        {
          "internalType": "address",
          "name": "token",
          "type": "address"
        }
      ],
      "name": "getSBTLinks",
      "outputs": [
        {
          "internalType": "uint256[]",
          "name": "",
          "type": "uint256[]"
        }
      ],
      "stateMutability": "view",
      "type": "function"
    },
    {
      "inputs": [
        {
          "internalType": "address",
          "name": "owner",
          "type": "address"
        },
        {
          "internalType": "address",
          "name": "token",
          "type": "address"
        }
      ],
      "name": "getSBTLinks",
      "outputs": [
        {
          "internalType": "uint256[]",
          "name": "",
          "type": "uint256[]"
        }
      ],
      "stateMutability": "view",
      "type": "function"
    },
    {
      "inputs": [
        {
          "internalType": "address",
          "name": "",
          "type": "address"
        }
      ],
      "name": "linkedSBT",
      "outputs": [
        {
          "internalType": "bool",
          "name": "",
          "type": "bool"
        }
      ],
      "stateMutability": "view",
      "type": "function"
    },
    {
      "inputs": [
        {
          "internalType": "uint256",
          "name": "",
          "type": "uint256"
        }
      ],
      "name": "linkedSBTs",
      "outputs": [
        {
          "internalType": "address",
          "name": "",
          "type": "address"
        }
      ],
      "stateMutability": "view",
      "type": "function"
    },
    {
      "inputs": [],
      "name": "masaToken",
      "outputs": [
        {
          "internalType": "address",
          "name": "",
          "type": "address"
        }
      ],
      "stateMutability": "view",
      "type": "function"
    },
    {
      "inputs": [],
      "name": "owner",
      "outputs": [
        {
          "internalType": "address",
          "name": "",
          "type": "address"
        }
      ],
      "stateMutability": "view",
      "type": "function"
    },
    {
      "inputs": [],
      "name": "pause",
      "outputs": [],
      "stateMutability": "nonpayable",
      "type": "function"
    },
    {
      "inputs": [],
      "name": "paused",
      "outputs": [
        {
          "internalType": "bool",
          "name": "",
          "type": "bool"
        }
      ],
      "stateMutability": "view",
      "type": "function"
    },
    {
      "inputs": [
        {
          "internalType": "address",
          "name": "_erc20token",
          "type": "address"
        }
      ],
      "name": "removeErc20Token",
      "outputs": [],
      "stateMutability": "nonpayable",
      "type": "function"
    },
    {
      "inputs": [
        {
          "internalType": "address",
          "name": "token",
          "type": "address"
        }
      ],
      "name": "removeLinkedSBT",
      "outputs": [],
      "stateMutability": "nonpayable",
      "type": "function"
    },
    {
      "inputs": [],
      "name": "renounceOwnership",
      "outputs": [],
      "stateMutability": "nonpayable",
      "type": "function"
    },
    {
      "inputs": [],
      "name": "reserveWallet",
      "outputs": [
        {
          "internalType": "address",
          "name": "",
          "type": "address"
        }
      ],
      "stateMutability": "view",
      "type": "function"
    },
    {
      "inputs": [
        {
          "internalType": "uint256",
          "name": "readerIdentityId",
          "type": "uint256"
        },
        {
          "internalType": "uint256",
          "name": "ownerIdentityId",
          "type": "uint256"
        },
        {
          "internalType": "address",
          "name": "token",
          "type": "address"
        },
        {
          "internalType": "uint256",
          "name": "tokenId",
          "type": "uint256"
        },
        {
          "internalType": "uint256",
          "name": "signatureDate",
          "type": "uint256"
        }
      ],
      "name": "revokePermission",
      "outputs": [],
      "stateMutability": "nonpayable",
      "type": "function"
    },
    {
      "inputs": [
        {
          "internalType": "uint256",
          "name": "_addPermissionPrice",
          "type": "uint256"
        }
      ],
      "name": "setAddPermissionPrice",
      "outputs": [],
      "stateMutability": "nonpayable",
      "type": "function"
    },
    {
      "inputs": [
        {
          "internalType": "uint256",
          "name": "_addPermissionPriceMASA",
          "type": "uint256"
        }
      ],
      "name": "setAddPermissionPriceMASA",
      "outputs": [],
      "stateMutability": "nonpayable",
      "type": "function"
    },
    {
      "inputs": [
        {
          "internalType": "address",
          "name": "_masaToken",
          "type": "address"
        }
      ],
      "name": "setMasaToken",
      "outputs": [],
      "stateMutability": "nonpayable",
      "type": "function"
    },
    {
      "inputs": [
        {
          "internalType": "address",
          "name": "_reserveWallet",
          "type": "address"
        }
      ],
      "name": "setReserveWallet",
      "outputs": [],
      "stateMutability": "nonpayable",
      "type": "function"
    },
    {
      "inputs": [
        {
          "internalType": "contract ISoulboundIdentity",
          "name": "_soulboundIdentity",
          "type": "address"
        }
      ],
      "name": "setSoulboundIdentity",
      "outputs": [],
      "stateMutability": "nonpayable",
      "type": "function"
    },
    {
      "inputs": [
        {
          "internalType": "address",
          "name": "_stableCoin",
          "type": "address"
        }
      ],
      "name": "setStableCoin",
      "outputs": [],
      "stateMutability": "nonpayable",
      "type": "function"
    },
    {
      "inputs": [
        {
          "internalType": "address",
          "name": "_swapRouter",
          "type": "address"
        }
      ],
      "name": "setSwapRouter",
      "outputs": [],
      "stateMutability": "nonpayable",
      "type": "function"
    },
    {
      "inputs": [
        {
          "internalType": "address",
          "name": "_wrappedNativeToken",
          "type": "address"
        }
      ],
      "name": "setWrappedNativeToken",
      "outputs": [],
      "stateMutability": "nonpayable",
      "type": "function"
    },
    {
      "inputs": [],
      "name": "soulboundIdentity",
      "outputs": [
        {
          "internalType": "contract ISoulboundIdentity",
          "name": "",
          "type": "address"
        }
      ],
      "stateMutability": "view",
      "type": "function"
    },
    {
      "inputs": [],
      "name": "stableCoin",
      "outputs": [
        {
          "internalType": "address",
          "name": "",
          "type": "address"
        }
      ],
      "stateMutability": "view",
      "type": "function"
    },
    {
      "inputs": [],
      "name": "swapRouter",
      "outputs": [
        {
          "internalType": "address",
          "name": "",
          "type": "address"
        }
      ],
      "stateMutability": "view",
      "type": "function"
    },
    {
      "inputs": [
        {
          "internalType": "address",
          "name": "newOwner",
          "type": "address"
        }
      ],
      "name": "transferOwnership",
      "outputs": [],
      "stateMutability": "nonpayable",
      "type": "function"
    },
    {
      "inputs": [],
      "name": "unpause",
      "outputs": [],
      "stateMutability": "nonpayable",
      "type": "function"
    },
    {
      "inputs": [
        {
          "internalType": "uint256",
          "name": "readerIdentityId",
          "type": "uint256"
        },
        {
          "internalType": "uint256",
          "name": "ownerIdentityId",
          "type": "uint256"
        },
        {
          "internalType": "address",
          "name": "token",
          "type": "address"
        },
        {
          "internalType": "uint256",
          "name": "tokenId",
          "type": "uint256"
        },
        {
          "internalType": "uint256",
          "name": "signatureDate",
          "type": "uint256"
        }
      ],
      "name": "validatePermission",
      "outputs": [
        {
          "internalType": "string",
          "name": "",
          "type": "string"
        }
      ],
      "stateMutability": "view",
      "type": "function"
    },
    {
      "inputs": [],
      "name": "wrappedNativeToken",
      "outputs": [
        {
          "internalType": "address",
          "name": "",
          "type": "address"
        }
      ],
      "stateMutability": "view",
      "type": "function"
    }
  ],
  "transactionHash": "0x898c52b718a8818e2ac8635d4a66ae406177f18dd59f59e44048a9bb68fe388a",
  "args": [
    "0x3c8D9f130970358b7E8cbc1DbD0a1EbA6EBE368F",
    "0x270265B1c6b31ae53f75BC2f6a5D5F7f422BB9e8",
    "1000000",
    0,
    [
      "0x7a250d5630B4cF539739dF2C5dAcb4c659F2488D",
      "0xB4FBF271143F4FBf7B91A5ded31805e42b2208d6",
      "0xD87Ba7A50B2E7E660f678A895E4B72E7CB4CCd9C",
      "0x1f9840a85d5aF5bf1D1762F925BDADdC4201F984",
      "0x3c8D9f130970358b7E8cbc1DbD0a1EbA6EBE368F"
    ]
  ],
  "numDeployments": 6,
  "solcInputHash": "379e480437147b9057cf26f78512ad3a",
  "bytecode": "0x6101406040523480156200001257600080fd5b50604051620044103803806200441083398101604081905262000035916200045c565b6040518060400160405280600a81526020016929b7bab62634b735b2b960b11b815250604051806040016040528060058152602001640312e302e360dc1b8152508683620000926200008c6200029b60201b60201c565b6200029f565b80516001600160a01b0316620000c55760405162461bcd60e51b8152600401620000bc90620005f3565b60405180910390fd5b60208101516001600160a01b0316620000f25760405162461bcd60e51b8152600401620000bc90620005f3565b60408101516001600160a01b03166200011f5760405162461bcd60e51b8152600401620000bc90620005f3565b60808101516001600160a01b03166200014c5760405162461bcd60e51b8152600401620000bc90620005f3565b6200016282620002ef60201b62001bfa1760201c565b8051600180546001600160a01b03199081166001600160a01b03938416179091556020808401516002805484169185169190911790556040840151600380548416918516919091179055606084015160048054841691851691909117905560809093015160078054909216921691909117905583518482012083519184019190912060e08290526101008190524660a0529091507f8b73c3c69bb8fe3d512ecc4cf759cc79239f7b179b0ffacaa9a75d522b39400f6200022481848462000330565b6080523060601b60c0526101205250506007805460ff60a01b1916905550506001600160a01b0384166200026c5760405162461bcd60e51b8152600401620000bc90620005f3565b50600880546001600160a01b0319166001600160a01b039490941693909317909255600b55600c5550620006c3565b3390565b600080546001600160a01b038381166001600160a01b0319831681178455604051919092169283917f8be0079c531659141344cd1fd0a4f28419497f9722a3daafe3b4186f6b6457e09190a35050565b620002f96200036c565b6001600160a01b038116620003225760405162461bcd60e51b8152600401620000bc90620005a8565b6200032d816200029f565b50565b600083838346306040516020016200034d95949392919062000552565b6040516020818303038152906040528051906020012090509392505050565b6000546001600160a01b03163314620003995760405162461bcd60e51b8152600401620000bc9062000605565b565b8051620003a8816200069a565b92915050565b8051620003a881620006b1565b600060a08284031215620003d257620003d2600080fd5b620003de60a062000617565b90506000620003ee84846200039b565b825250602062000401848483016200039b565b602083015250604062000417848285016200039b565b60408301525060606200042d848285016200039b565b606083015250608062000443848285016200039b565b60808301525092915050565b8051620003a881620006bc565b600080600080600061012086880312156200047a576200047a600080fd5b60006200048888886200039b565b95505060206200049b88828901620003ae565b9450506040620004ae888289016200044f565b9350506060620004c1888289016200044f565b9250506080620004d488828901620003bb565b9150509295509295909350565b620004ec8162000636565b82525050565b80620004ec565b600c81526000602082016b5a45524f5f4144445245535360a01b815291505b5060200190565b60208082527f4f776e61626c653a2063616c6c6572206973206e6f7420746865206f776e65729101908152600062000518565b60a08101620005628288620004f2565b620005716020830187620004f2565b620005806040830186620004f2565b6200058f6060830185620004f2565b6200059e6080830184620004e1565b9695505050505050565b60208082528101620003a881602681527f4f776e61626c653a206e6577206f776e657220697320746865207a65726f206160208201526564647265737360d01b604082015260600190565b60208082528101620003a881620004f9565b60208082528101620003a8816200051f565b60006200062360405190565b905062000631828262000655565b919050565b60006001600160a01b038216620003a8565b6000620003a88262000636565b601f19601f83011681018181106001600160401b03821117156200067d576200067d62000684565b6040525050565b634e487b7160e01b600052604160045260246000fd5b620006a58162000636565b81146200032d57600080fd5b620006a58162000648565b80620006a5565b60805160a05160c05160601c60e0516101005161012051613cfa620007166000396000612571015260006125b301526000612592015260006124f6015260006125200152600061254a0152613cfa6000f3fe608060405234801561001057600080fd5b50600436106101d85760003560e01c806304b6b5dd146101dd578063095613761461020657806317fcb39b1461021c57806323af4e171461023c5780632c94160414610251578063342c27ad146102725780633450793f146102855780633ad3033e146102985780633f4ba83a146102ab57806341273657146102b357806342231b24146102c65780634f236392146102f65780635c975abb14610316578063647ec1e11461031e5780636a4acb3a146103315780636ccaaa7b146103445780636d03653514610357578063715018a61461036c57806376ad19971461037457806377bed5ed1461038757806380776ac4146103a75780638456cb59146103ba5780638da5cb5b146103c257806395fa69db146103ca5780639800c105146103ea578063992642e5146103fd578063b02124de14610410578063bd5c297614610423578063c31c9c0714610436578063d1d105de14610449578063d454e50f1461045c578063d72b11bd1461046f578063d7be16c114610482578063da058ae314610495578063dcbed008146104a8578063dd9b82ea146104cb578063dda4fa8f146104de578063ebda4396146104f1578063f2fde38b14610504578063fecbd40914610517575b600080fd5b6101f06101eb366004612eed565b610520565b6040516101fd91906136c1565b60405180910390f35b61020f600c5481565b6040516101fd91906139c8565b60025461022f906001600160a01b031681565b6040516101fd919061365f565b61024f61024a366004612bc9565b6105fb565b005b61026461025f366004612bc9565b610679565b6040516101fd9291906139d6565b61022f610280366004612eab565b6106ee565b61024f610293366004612bc9565b610718565b61024f6102a6366004612e8a565b610784565b61024f610802565b61024f6102c1366004612bc9565b610814565b6102e96102d4366004612bc9565b60096020526000908152604090205460ff1681565b6040516101fd91906136d2565b610309610304366004612dcb565b610892565b6040516101fd91906139b7565b6102e96109bb565b61024f61032c366004612eab565b6109cb565b61024f61033f366004612bc9565b6109fa565b61024f610352366004612bc9565b610ac7565b61035f610b94565b6040516101fd91906136b0565b61024f610bf6565b61024f610382366004612bc9565b610c08565b60085461039a906001600160a01b031681565b6040516101fd91906137d8565b61020f6103b5366004612c48565b610c60565b61024f610d60565b61022f610d70565b6103dd6103d8366004612f0f565b610d7f565b6040516101fd91906137e6565b61024f6103f8366004612bc9565b61110a565b60035461022f906001600160a01b031681565b61024f61041e366004612eab565b61129a565b61022f610431366004612eab565b6112c9565b60015461022f906001600160a01b031681565b6101f0610457366004612c0b565b6112d9565b61024f61046a366004612ccb565b61149c565b60075461022f906001600160a01b031681565b6101f0610490366004612c7b565b61183a565b61024f6104a3366004612bc9565b6118b9565b6102e96104b6366004612bc9565b60056020526000908152604090205460ff1681565b61024f6104d9366004612f0f565b611937565b61024f6104ec366004612bc9565b611b7c565b60045461022f906001600160a01b031681565b61024f610512366004612bc9565b611bfa565b61020f600b5481565b6001600160a01b03811660009081526009602052604090205460609060ff166105645760405162461bcd60e51b815260040161055b90613987565b60405180910390fd5b6008546040516331a9108f60e11b81526000916001600160a01b031690636352211e906105959087906004016139c8565b60206040518083038186803b1580156105ad57600080fd5b505afa1580156105c1573d6000803e3d6000fd5b505050506040513d601f19601f820116820180604052508101906105e59190612bea565b90506105f181846112d9565b9150505b92915050565b610603611c31565b6001600160a01b0381166106295760405162461bcd60e51b815260040161055b906138b7565b6003546001600160a01b03828116911614156106575760405162461bcd60e51b815260040161055b90613877565b600380546001600160a01b0319166001600160a01b0392909216919091179055565b6000806000600c5411801561069857506004546001600160a01b031615155b80156106be57506004546001600160a01b031660009081526005602052604090205460ff165b156106dc575050600c5460045490926001600160a01b039091169150565b6106e883600b54611c60565b93915050565b600a81815481106106fe57600080fd5b6000918252602090912001546001600160a01b0316905081565b610720611c31565b6001600160a01b03811660009081526009602052604090205460ff166107585760405162461bcd60e51b815260040161055b90613987565b6001600160a01b0381166000908152600960205260409020805460ff1916905561078181611ce5565b50565b61078c611c31565b6001600160a01b0381166107b25760405162461bcd60e51b815260040161055b906138b7565b6008546001600160a01b03828116911614156107e05760405162461bcd60e51b815260040161055b90613877565b600880546001600160a01b0319166001600160a01b0392909216919091179055565b61080a611c31565b610812611dc7565b565b61081c611c31565b6001600160a01b0381166108425760405162461bcd60e51b815260040161055b906138b7565b6001546001600160a01b03828116911614156108705760405162461bcd60e51b815260040161055b90613877565b600180546001600160a01b0319166001600160a01b0392909216919091179055565b6108bf60405180608001604052806000815260200160608152602001600081526020016000151581525090565b6001600160a01b0385166000908152600d602090815260408083208784528252808320868452825280832085845282529182902082516080810190935280548352600181018054919284019161091490613b96565b80601f016020809104026020016040519081016040528092919081815260200182805461094090613b96565b801561098d5780601f106109625761010080835404028352916020019161098d565b820191906000526020600020905b81548152906001019060200180831161097057829003601f168201915b50505091835250506002820154602082015260039091015460ff16151560409091015290505b949350505050565b600754600160a01b900460ff1690565b6109d3611c31565b80600c5414156109f55760405162461bcd60e51b815260040161055b90613877565b600c55565b610a02611c31565b6001600160a01b038116610a285760405162461bcd60e51b815260040161055b906138b7565b6001600160a01b03811660009081526005602052604090205460ff1615610a615760405162461bcd60e51b815260040161055b90613947565b6001600160a01b03166000818152600560205260408120805460ff191660019081179091556006805491820181559091527ff652222313e28459528d920b65115c16c04f3efc82aaedc97be59f3f377c0d3f0180546001600160a01b0319169091179055565b610acf611c31565b6001600160a01b038116610af55760405162461bcd60e51b815260040161055b906138b7565b6001600160a01b03811660009081526009602052604090205460ff1615610b2e5760405162461bcd60e51b815260040161055b906139a7565b6001600160a01b03166000818152600960205260408120805460ff19166001908117909155600a805491820181559091527fc65a7bb8d6351c1cf70c95a316cc6a92839c986682d98bc35f958f4883f9d2a80180546001600160a01b0319169091179055565b60606006805480602002602001604051908101604052809291908181526020018280548015610bec57602002820191906000526020600020905b81546001600160a01b03168152600190910190602001808311610bce575b5050505050905090565b610bfe611c31565b6108126000611e16565b610c10611c31565b6004546001600160a01b0382811691161415610c3e5760405162461bcd60e51b815260040161055b90613877565b600480546001600160a01b0319166001600160a01b0392909216919091179055565b600080836001600160a01b0316636352211e846040518263ffffffff1660e01b8152600401610c8f91906139c8565b60206040518083038186803b158015610ca757600080fd5b505afa158015610cbb573d6000803e3d6000fd5b505050506040513d601f19601f82011682018060405250810190610cdf9190612bea565b60085460405163294cdf0d60e01b81529192506001600160a01b03169063294cdf0d90610d1090849060040161365f565b60206040518083038186803b158015610d2857600080fd5b505afa158015610d3c573d6000803e3d6000fd5b505050506040513d601f19601f820116820180604052508101906105f19190612ecc565b610d68611c31565b610812611e66565b6000546001600160a01b031690565b6001600160a01b03831660009081526009602052604090205460609060ff16610dba5760405162461bcd60e51b815260040161055b90613987565b6008546040516331a9108f60e11b81526000916001600160a01b031690636352211e90610deb908a906004016139c8565b60206040518083038186803b158015610e0357600080fd5b505afa158015610e17573d6000803e3d6000fd5b505050506040513d601f19601f82011682018060405250810190610e3b9190612bea565b6008546040516331a9108f60e11b81529192506000916001600160a01b0390911690636352211e90610e71908a906004016139c8565b60206040518083038186803b158015610e8957600080fd5b505afa158015610e9d573d6000803e3d6000fd5b505050506040513d601f19601f82011682018060405250810190610ec19190612bea565b90506000866001600160a01b0316636352211e876040518263ffffffff1660e01b8152600401610ef191906139c8565b60206040518083038186803b158015610f0957600080fd5b505afa158015610f1d573d6000803e3d6000fd5b505050506040513d601f19601f82011682018060405250810190610f419190612bea565b6001600160a01b0388166000908152600d602090815260408083208a845282528083208d84528252808320898452825280832081516080810190925280548252600181018054959650939491939092840191610f9c90613b96565b80601f0160208091040260200160405190810160405280929190818152602001828054610fc890613b96565b80156110155780601f10610fea57610100808354040283529160200191611015565b820191906000526020600020905b815481529060010190602001808311610ff857829003601f168201915b50505091835250506002820154602082015260039091015460ff16151560409091015290506001600160a01b03838116908316146110655760405162461bcd60e51b815260040161055b90613847565b6001600160a01b038416331461108d5760405162461bcd60e51b815260040161055b90613977565b60008160400151116110b15760405162461bcd60e51b815260040161055b90613907565b42816040015110156110d55760405162461bcd60e51b815260040161055b90613927565b6060810151156110f75760405162461bcd60e51b815260040161055b90613887565b6020015193505050505b95945050505050565b611112611c31565b6001600160a01b0381166111385760405162461bcd60e51b815260040161055b906138b7565b6001600160a01b03811660009081526005602052604090205460ff166111705760405162461bcd60e51b815260040161055b90613827565b6001600160a01b0381166000908152600560205260408120805460ff191690555b60065481101561129657816001600160a01b0316600682815481106111b8576111b8613c63565b6000918252602090912001546001600160a01b0316141561128457600680546111e390600190613b20565b815481106111f3576111f3613c63565b600091825260209091200154600680546001600160a01b03909216918390811061121f5761121f613c63565b9060005260206000200160006101000a8154816001600160a01b0302191690836001600160a01b03160217905550600680548061125e5761125e613c4d565b600082815260209020810160001990810180546001600160a01b03191690550190555050565b8061128e81613bf0565b915050611191565b5050565b6112a2611c31565b80600b5414156112c45760405162461bcd60e51b815260040161055b90613877565b600b55565b600681815481106106fe57600080fd5b6001600160a01b03811660009081526009602052604090205460609060ff166113145760405162461bcd60e51b815260040161055b90613987565b6040516370a0823160e01b81526000906001600160a01b038416906370a082319061134390879060040161365f565b60206040518083038186803b15801561135b57600080fd5b505afa15801561136f573d6000803e3d6000fd5b505050506040513d601f19601f820116820180604052508101906113939190612ecc565b90506000816001600160401b038111156113af576113af613c79565b6040519080825280602002602001820160405280156113d8578160200160208202803683370190505b50905060005b8281101561149357604051632f745c5960e01b81526001600160a01b03861690632f745c59906114149089908590600401613695565b60206040518083038186803b15801561142c57600080fd5b505afa158015611440573d6000803e3d6000fd5b505050506040513d601f19601f820116820180604052508101906114649190612ecc565b82828151811061147657611476613c63565b60209081029190910101528061148b81613bf0565b9150506113de565b50949350505050565b6114a4611ea9565b6001600160a01b03871660009081526009602052604090205460ff166114dc5760405162461bcd60e51b815260040161055b90613987565b6008546040516331a9108f60e11b81526000916001600160a01b031690636352211e9061150d908c906004016139c8565b60206040518083038186803b15801561152557600080fd5b505afa158015611539573d6000803e3d6000fd5b505050506040513d601f19601f8201168201806040525081019061155d9190612bea565b90506000886001600160a01b0316636352211e896040518263ffffffff1660e01b815260040161158d91906139c8565b60206040518083038186803b1580156115a557600080fd5b505afa1580156115b9573d6000803e3d6000fd5b505050506040513d601f19601f820116820180604052508101906115dd9190612bea565b9050806001600160a01b0316826001600160a01b0316146116105760405162461bcd60e51b815260040161055b90613847565b6001600160a01b03821633146116385760405162461bcd60e51b815260040161055b90613917565b428510156116585760405162461bcd60e51b815260040161055b90613927565b6116a861166a8c8c8c8c8c8c8c611ece565b85858080601f016020809104026020016040519081016040528093929190818152602001838380828437600092019190915250879250611f40915050565b6116c45760405162461bcd60e51b815260040161055b90613897565b600c54156116dc576116d7600c54611f68565b6116e8565b6116e88c600b54611fc1565b60405180608001604052808b815260200188815260200186815260200160001515815250600d60008b6001600160a01b03166001600160a01b0316815260200190815260200160002060008a815260200190815260200160002060008d8152602001908152602001600020600088815260200190815260200160002060008201518160000155602082015181600101908051906020019061178a9291906129bd565b5060408281015160028301556060909201516003909101805460ff19169115159190911790556001600160a01b038a166000908152600e60209081528282208b835281528282208e835281528282208054600181018255908352912001879055517f828f54597b33727d3f31751cb757a89b0a5e4711646f3604778d1567fb7e7b5b90611824908d908d908d908d908d908d908d90613a11565b60405180910390a1505050505050505050505050565b6001600160a01b0383166000908152600e6020908152604080832085845282528083208484528252918290208054835181840281018401909452808452606093928301828280156118aa57602002820191906000526020600020905b815481526020019060010190808311611896575b505050505090505b9392505050565b6118c1611c31565b6001600160a01b0381166118e75760405162461bcd60e51b815260040161055b906138b7565b6002546001600160a01b03828116911614156119155760405162461bcd60e51b815260040161055b90613877565b600280546001600160a01b0319166001600160a01b0392909216919091179055565b61193f611ea9565b6008546040516331a9108f60e11b81526000916001600160a01b031690636352211e906119709088906004016139c8565b60206040518083038186803b15801561198857600080fd5b505afa15801561199c573d6000803e3d6000fd5b505050506040513d601f19601f820116820180604052508101906119c09190612bea565b90506000846001600160a01b0316636352211e856040518263ffffffff1660e01b81526004016119f091906139c8565b60206040518083038186803b158015611a0857600080fd5b505afa158015611a1c573d6000803e3d6000fd5b505050506040513d601f19601f82011682018060405250810190611a409190612bea565b9050806001600160a01b0316826001600160a01b031614611a735760405162461bcd60e51b815260040161055b90613847565b6001600160a01b0382163314611a9b5760405162461bcd60e51b815260040161055b90613917565b6001600160a01b0385166000908152600d6020908152604080832087845282528083208a8452825280832086845290915290206003015460ff1615611af25760405162461bcd60e51b815260040161055b90613967565b6001600160a01b0385166000908152600d6020908152604080832087845282528083208a8452825280832086845290915290819020600301805460ff19166001179055517f02ad9bd5cc7c8326b1ad69d049bf754423c8fb9f2ce47d72149a9979aaf35e4290611b6b9089908990899089908990613a74565b60405180910390a150505050505050565b611b84611c31565b6001600160a01b038116611baa5760405162461bcd60e51b815260040161055b906138b7565b6007546001600160a01b0382811691161415611bd85760405162461bcd60e51b815260040161055b90613877565b600780546001600160a01b0319166001600160a01b0392909216919091179055565b611c02611c31565b6001600160a01b038116611c285760405162461bcd60e51b815260040161055b90613837565b61078181611e16565b33611c3a610d70565b6001600160a01b0316146108125760405162461bcd60e51b815260040161055b906138f7565b6002546000906001600160a01b0384811691161480611c9757506001600160a01b03831660009081526005602052604090205460ff165b8015611cb157506003546001600160a01b03848116911614155b611ccd5760405162461bcd60e51b815260040161055b90613857565b6003546118b29084906001600160a01b0316846121da565b60005b600a5481101561129657816001600160a01b0316600a8281548110611d0f57611d0f613c63565b6000918252602090912001546001600160a01b03161415611db557600a8054611d3a90600190613b20565b81548110611d4a57611d4a613c63565b600091825260209091200154600a80546001600160a01b039092169183908110611d7657611d76613c63565b9060005260206000200160006101000a8154816001600160a01b0302191690836001600160a01b03160217905550600a80548061125e5761125e613c4d565b80611dbf81613bf0565b915050611ce8565b611dcf612298565b6007805460ff60a01b191690557f5db9ee0a495bf2e6ff9c91a7834c1ba4fdd244a5e8aa4e537bd38aeae4b073aa335b604051611e0c919061365f565b60405180910390a1565b600080546001600160a01b038381166001600160a01b0319831681178455604051919092169283917f8be0079c531659141344cd1fd0a4f28419497f9722a3daafe3b4186f6b6457e09190a35050565b611e6e611ea9565b6007805460ff60a01b1916600160a01b1790557f62e78cea01bee320cd4e420270b5ea74000d11b0c9f74754ebdbfc544b05a258611dff3390565b611eb16109bb565b156108125760405162461bcd60e51b815260040161055b906138a7565b6000611f347f44e118710828ed48fd94dbddafdb622ea2e4d2ac8963913e565b61b1a29c10e18989898989805190602001208989604051602001611f1998979695949392919061372c565b604051602081830303815290604052805190602001206122bc565b98975050505050505050565b6000816001600160a01b0316611f5685856122cf565b6001600160a01b031614949350505050565b6004546001600160a01b031660009081526005602052604090205460ff16611fa25760405162461bcd60e51b815260040161055b906138e7565b600754600454610781916001600160a01b0391821691339116846122f3565b80611fca575050565b6001600160a01b03821661211b57600254600090611ff1906001600160a01b031683611c60565b9050803410156120135760405162461bcd60e51b815260040161055b90613937565b6007546040516000916001600160a01b031690839061203190613657565b60006040518083038185875af1925050503d806000811461206e576040519150601f19603f3d011682016040523d82523d6000602084013e612073565b606091505b50509050806120945760405162461bcd60e51b815260040161055b906138d7565b813411156121155760006120a8348461234b565b9050336001600160a01b0316816040516120c190613657565b60006040518083038185875af1925050503d80600081146120fe576040519150601f19603f3d011682016040523d82523d6000602084013e612103565b606091505b5050809250508161211357600080fd5b505b50505050565b6003546001600160a01b03838116911614801561215057506001600160a01b03821660009081526005602052604090205460ff165b1561217157600754611296906001600160a01b0384811691339116846122f3565b6001600160a01b03821660009081526005602052604090205460ff16156121c257600061219e8383611c60565b6007549091506121bd906001600160a01b0385811691339116846122f3565b505050565b60405162461bcd60e51b815260040161055b906138e7565b60006060806121e98686612357565b6001546040516307c0329d60e21b81529192506001600160a01b031690631f00ca749061221c90879085906004016139f1565b60006040518083038186803b15801561223457600080fd5b505afa158015612248573d6000803e3d6000fd5b505050506040513d6000823e601f3d908101601f191682016040526122709190810190612e2f565b91508160008151811061228557612285613c63565b6020026020010151925050509392505050565b6122a06109bb565b6108125760405162461bcd60e51b815260040161055b90613807565b60006105f56122c96124e9565b836125dc565b60008060006122de858561260f565b915091506122eb81612655565b509392505050565b612115846323b872dd60e01b8585856040516024016123149392919061366d565b60408051601f198184030181529190526020810180516001600160e01b03166001600160e01b03199093169290921790915261273a565b60006118b28284613b20565b6002546060906001600160a01b038481169116148061238357506002546001600160a01b038381169116145b1561244d57604080516002808252606082018352600092602083019080368337019050506002549091506001600160a01b038581169116146123c557836123d2565b6002546001600160a01b03165b816000815181106123e5576123e5613c63565b6001600160a01b03928316602091820292909201015260025484821691161461240e578261241b565b6002546001600160a01b03165b8160018151811061242e5761242e613c63565b6001600160a01b039092166020928302919091019091015290506105f5565b6040805160038082526080820190925260009160208201606080368337019050509050838160008151811061248457612484613c63565b6001600160a01b0392831660209182029290920101526002548251911690829060019081106124b5576124b5613c63565b60200260200101906001600160a01b031690816001600160a01b031681525050828160028151811061242e5761242e613c63565b6000306001600160a01b037f00000000000000000000000000000000000000000000000000000000000000001614801561254257507f000000000000000000000000000000000000000000000000000000000000000046145b1561256c57507f000000000000000000000000000000000000000000000000000000000000000090565b6125d77f00000000000000000000000000000000000000000000000000000000000000007f00000000000000000000000000000000000000000000000000000000000000007f00000000000000000000000000000000000000000000000000000000000000006127c9565b905090565b600082826040516020016125f1929190613626565b60405160208183030381529060405280519060200120905092915050565b6000808251604114156126465760208301516040840151606085015160001a61263a87828585612803565b9450945050505061264e565b506000905060025b9250929050565b600081600481111561266957612669613c21565b14156126725750565b600181600481111561268657612686613c21565b14156126a45760405162461bcd60e51b815260040161055b906137f7565b60028160048111156126b8576126b8613c21565b14156126d65760405162461bcd60e51b815260040161055b90613817565b60038160048111156126ea576126ea613c21565b14156127085760405162461bcd60e51b815260040161055b90613867565b600481600481111561271c5761271c613c21565b14156107815760405162461bcd60e51b815260040161055b906138c7565b600061278f826040518060400160405280602081526020017f5361666545524332303a206c6f772d6c6576656c2063616c6c206661696c6564815250856001600160a01b03166128d99092919063ffffffff16565b8051909150156121bd57808060200190518101906127ad9190612e69565b6121bd5760405162461bcd60e51b815260040161055b90613997565b600083838346306040516020016127e49594939291906136e0565b6040516020818303038152906040528051906020012090509392505050565b6000806fa2a8918ca85bafe22016d0b997e4df60600160ff1b0383111561283057506000905060036128d0565b8460ff16601b1415801561284857508460ff16601c14155b1561285957506000905060046128d0565b60006001878787876040516000815260200160405260405161287e94939291906137a3565b6020604051602081039080840390855afa1580156128a0573d6000803e3d6000fd5b5050604051601f1901519150506001600160a01b0381166128c9576000600192509250506128d0565b9150600090505b94509492505050565b60606109b38484600085856001600160a01b0385163b61290b5760405162461bcd60e51b815260040161055b90613957565b600080866001600160a01b03168587604051612927919061361a565b60006040518083038185875af1925050503d8060008114612964576040519150601f19603f3d011682016040523d82523d6000602084013e612969565b606091505b5091509150612979828286612984565b979650505050505050565b606083156129935750816118b2565b8251156129a35782518084602001fd5b8160405162461bcd60e51b815260040161055b91906137e6565b8280546129c990613b96565b90600052602060002090601f0160209004810192826129eb5760008555612a31565b82601f10612a0457805160ff1916838001178555612a31565b82800160010185558215612a31579182015b82811115612a31578251825591602001919060010190612a16565b50612a3d929150612a41565b5090565b5b80821115612a3d5760008155600101612a42565b6000612a69612a6484613ad2565b613ab6565b90508083825260208201905082856020860282011115612a8b57612a8b600080fd5b60005b85811015612ab75781612aa18882612bbe565b8452506020928301929190910190600101612a8e565b5050509392505050565b6000612acf612a6484613af5565b905082815260208101848484011115612aea57612aea600080fd5b6122eb848285613b5e565b80356105f581613c99565b80516105f581613c99565b600082601f830112612b1f57612b1f600080fd5b81516105f1848260208601612a56565b80516105f581613cad565b60008083601f840112612b4f57612b4f600080fd5b5081356001600160401b03811115612b6957612b69600080fd5b60208301915083600182028301111561264e5761264e600080fd5b80356105f581613cb5565b600082601f830112612ba357612ba3600080fd5b81356105f1848260208601612ac1565b80356105f581613cbe565b80516105f581613cbe565b600060208284031215612bde57612bde600080fd5b60006105f18484612af5565b600060208284031215612bff57612bff600080fd5b60006105f18484612b00565b60008060408385031215612c2157612c21600080fd5b6000612c2d8585612af5565b9250506020612c3e85828601612af5565b9150509250929050565b60008060408385031215612c5e57612c5e600080fd5b6000612c6a8585612af5565b9250506020612c3e85828601612bb3565b600080600060608486031215612c9357612c93600080fd5b6000612c9f8686612af5565b9350506020612cb086828701612bb3565b9250506040612cc186828701612bb3565b9150509250925092565b6000806000806000806000806000806101208b8d031215612cee57612cee600080fd5b6000612cfa8d8d612af5565b9a50506020612d0b8d828e01612bb3565b9950506040612d1c8d828e01612bb3565b9850506060612d2d8d828e01612af5565b9750506080612d3e8d828e01612bb3565b96505060a08b01356001600160401b03811115612d5d57612d5d600080fd5b612d698d828e01612b8f565b95505060c0612d7a8d828e01612bb3565b94505060e0612d8b8d828e01612bb3565b9350506101008b01356001600160401b03811115612dab57612dab600080fd5b612db78d828e01612b3a565b92509250509295989b9194979a5092959850565b60008060008060808587031215612de457612de4600080fd5b6000612df08787612af5565b9450506020612e0187828801612bb3565b9350506040612e1287828801612bb3565b9250506060612e2387828801612bb3565b91505092959194509250565b600060208284031215612e4457612e44600080fd5b81516001600160401b03811115612e5d57612e5d600080fd5b6105f184828501612b0b565b600060208284031215612e7e57612e7e600080fd5b60006105f18484612b2f565b600060208284031215612e9f57612e9f600080fd5b60006105f18484612b84565b600060208284031215612ec057612ec0600080fd5b60006105f18484612bb3565b600060208284031215612ee157612ee1600080fd5b60006105f18484612bbe565b60008060408385031215612f0357612f03600080fd5b6000612c2d8585612bb3565b600080600080600060a08688031215612f2a57612f2a600080fd5b6000612f368888612bb3565b9550506020612f4788828901612bb3565b9450506040612f5888828901612af5565b9350506060612f6988828901612bb3565b9250506080612f7a88828901612bb3565b9150509295509295909350565b6000612f938383612fa7565b505060200190565b6000612f938383613045565b612fb081613b37565b82525050565b6000612fc0825190565b80845260209384019383018060005b83811015612ff4578151612fe38882612f87565b975060208301925050600101612fcf565b509495945050505050565b6000613009825190565b80845260209384019383018060005b83811015612ff457815161302c8882612f9b565b975060208301925050600101613018565b801515612fb0565b80612fb0565b6000613055825190565b613063818560208601613b6a565b9290920192915050565b612fb081613b53565b6000613080825190565b808452602084019350613097818560208601613b6a565b6130a081613c8f565b9093019392505050565b601881526000602082017745434453413a20696e76616c6964207369676e617475726560401b815291505b5060200190565b601481526000602082017314185d5cd8589b194e881b9bdd081c185d5cd95960621b815291506130d5565b601f81526000602082017f45434453413a20696e76616c6964207369676e6174757265206c656e67746800815291506130d5565b60188152600060208201772727aa2fa2ac24a9a4aa24a723afa2a92199182a27a5a2a760411b815291506130d5565b602681526000602082017f4f776e61626c653a206e6577206f776e657220697320746865207a65726f206181526564647265737360d01b602082015291505b5060400190565b601e81526000602082017f4944454e544954595f4f574e45525f4e4f545f544f4b454e5f4f574e45520000815291506130d5565b600d81526000602082016c24a72b20a624a22faa27a5a2a760991b815291506130d5565b602281526000602082017f45434453413a20696e76616c6964207369676e6174757265202773272076616c815261756560f01b602082015291506131a9565b600a81526000602082016953414d455f56414c554560b01b815291506130d5565b6012815260006020820171141154935254d4d253d397d4915593d2d15160721b815291506130d5565b6011815260006020820170494e56414c49445f5349474e415455524560781b815291506130d5565b601081526000602082016f14185d5cd8589b194e881c185d5cd95960821b815291506130d5565b600c81526000602082016b5a45524f5f4144445245535360a01b815291506130d5565b602281526000602082017f45434453413a20696e76616c6964207369676e6174757265202776272076616c815261756560f01b602082015291506131a9565b600f81526000602082016e1514905394d1915497d19052531151608a1b815291506130d5565b60168152600060208201751253959053125117d410565351539517d351551213d160521b815291506130d5565b60208082527f4f776e61626c653a2063616c6c6572206973206e6f7420746865206f776e6572910190815260006130d5565b6019815260006020820178141154935254d4d253d397d113d154d7d393d517d1561254d5603a1b815291506130d5565b601081526000602082016f21a0a62622a92fa727aa2fa7aba722a960811b815291506130d5565b6014815260006020820173159053125117d411549253d117d156141254915160621b815291506130d5565b6017815260006020820176125394d551919250d251539517d1551217d05353d55395604a1b815291506130d5565b600d81526000602082016c1053149150511657d051111151609a1b815291506130d5565b601d81526000602082017f416464726573733a2063616c6c20746f206e6f6e2d636f6e7472616374000000815291506130d5565b601a815260006020820179141154935254d4d253d397d053149150511657d4915593d2d15160321b815291506130d5565b601181526000602082017021a0a62622a92fa727aa2fa922a0a222a960791b815291506130d5565b600e81526000602082016d14d09517d393d517d3125392d15160921b815291506130d5565b602a81526000602082017f5361666545524332303a204552433230206f7065726174696f6e20646964206e8152691bdd081cdd58d8d9595960b21b602082015291506131a9565b601281526000602082017114d09517d053149150511657d3125392d15160721b815291506130d5565b805160009060808401906135d18582613045565b50602083015184820360208601526135e98282613076565b91505060408301516135fe6040860182613045565b5060608301516122eb606086018261303d565b60ff8116612fb0565b60006118b2828461304b565b61190160f01b8152600201600061363d8285613045565b60208201915061364d8284613045565b5060200192915050565b6000816105f5565b602081016105f58284612fa7565b6060810161367b8286612fa7565b6136886020830185612fa7565b6109b36040830184613045565b604081016136a38285612fa7565b6118b26020830184613045565b602080825281016118b28184612fb6565b602080825281016118b28184612fff565b602081016105f5828461303d565b60a081016136ee8288613045565b6136fb6020830187613045565b6137086040830186613045565b6137156060830185613045565b6137226080830184612fa7565b9695505050505050565b610100810161373b828b613045565b613748602083018a613045565b6137556040830189613045565b6137626060830188612fa7565b61376f6080830187613045565b61377c60a0830186613045565b61378960c0830185613045565b61379660e0830184613045565b9998505050505050505050565b608081016137b18287613045565b6137be6020830186613611565b6137cb6040830185613045565b6111016060830184613045565b602081016105f5828461306d565b602080825281016118b28184613076565b602080825281016105f5816130aa565b602080825281016105f5816130dc565b602080825281016105f581613107565b602080825281016105f58161313b565b602080825281016105f58161316a565b602080825281016105f5816131b0565b602080825281016105f5816131e4565b602080825281016105f581613208565b602080825281016105f581613247565b602080825281016105f581613268565b602080825281016105f581613291565b602080825281016105f5816132b9565b602080825281016105f5816132e0565b602080825281016105f581613303565b602080825281016105f581613342565b602080825281016105f581613368565b602080825281016105f581613395565b602080825281016105f5816133c7565b602080825281016105f5816133f7565b602080825281016105f58161341e565b602080825281016105f581613449565b602080825281016105f581613477565b602080825281016105f58161349b565b602080825281016105f5816134cf565b602080825281016105f581613500565b602080825281016105f581613528565b602080825281016105f58161354d565b602080825281016105f581613594565b602080825281016118b281846135bd565b602081016105f58284613045565b604081016139e48285613045565b6118b26020830184612fa7565b604081016139ff8285613045565b81810360208301526109b38184612fb6565b60e08101613a1f828a613045565b613a2c6020830189613045565b613a396040830188612fa7565b613a466060830187613045565b8181036080830152613a588186613076565b9050613a6760a0830185613045565b611f3460c0830184613045565b60a08101613a828288613045565b613a8f6020830187613045565b613a9c6040830186612fa7565b613aa96060830185613045565b6137226080830184613045565b6000613ac160405190565b9050613acd8282613bc3565b919050565b60006001600160401b03821115613aeb57613aeb613c79565b5060209081020190565b60006001600160401b03821115613b0e57613b0e613c79565b613b1782613c8f565b60200192915050565b600082821015613b3257613b32613c0b565b500390565b60006001600160a01b0382166105f5565b60006105f582613b37565b60006105f582613b48565b82818337506000910152565b60005b83811015613b85578181015183820152602001613b6d565b838111156121155750506000910152565b600281046001821680613baa57607f821691505b60208210811415613bbd57613bbd613c37565b50919050565b613bcc82613c8f565b81018181106001600160401b0382111715613be957613be9613c79565b6040525050565b6000600019821415613c0457613c04613c0b565b5060010190565b634e487b7160e01b600052601160045260246000fd5b634e487b7160e01b600052602160045260246000fd5b634e487b7160e01b600052602260045260246000fd5b634e487b7160e01b600052603160045260246000fd5b634e487b7160e01b600052603260045260246000fd5b634e487b7160e01b600052604160045260246000fd5b601f01601f191690565b613ca281613b37565b811461078157600080fd5b801515613ca2565b613ca281613b48565b80613ca256fea26469706673582212201406716a5167e44e3cbbef83eb7af75c35a67e47cd19abf43119393b64b3598d64736f6c63430008070033",
  "devdoc": {
    "author": "Masa Finance",
    "kind": "dev",
    "methods": {
      "addErc20Token(address)": {
        "details": "The caller must have the owner to call this function",
        "params": {
          "_erc20token": "New ERC20 token to add"
        }
      },
      "addLinkedSBT(address)": {
        "details": "The caller must be the owner to call this function",
        "params": {
          "token": "Address of the SBT contract"
        }
      },
      "addPermission(address,uint256,uint256,address,uint256,string,uint256,uint256,bytes)": {
        "details": "The token must be linked to this soul linker",
        "params": {
          "data": "Data that owner wants to share",
          "expirationDate": "Expiration date of the signature",
          "ownerIdentityId": "Id of the identity of the owner of the SBT",
          "readerIdentityId": "Id of the identity of the reader",
          "signature": "Signature of the read link request made by the owner",
          "signatureDate": "Signature date of the signature",
          "token": "Address of the SBT contract",
          "tokenId": "Id of the token"
        }
      },
      "constructor": {
        "params": {
          "_addPermissionPrice": "Store permission price in stable coin",
          "_addPermissionPriceMASA": "Store permission price in $MASA",
          "_soulboundIdentity": "Soulbound identity smart contract",
          "owner": "Owner of the smart contract",
          "paymentParams": "Payment gateway params"
        }
      },
      "getErc20Tokens()": {
        "details": "Returns the address of all available ERC 20 tokens",
        "returns": {
          "_0": "Array of all enabled ERC20 tokens"
        }
      },
      "getIdentityId(address,uint256)": {
        "details": "The token must be linked to this soul linker",
        "params": {
          "token": "Address of the SBT contract",
          "tokenId": "Id of the token"
        },
        "returns": {
          "_0": "Id of the identity"
        }
      },
      "getPermissionInfo(address,uint256,uint256,uint256)": {
        "params": {
          "readerIdentityId": "Id of the identity of the reader of the SBT",
          "signatureDate": "Signature date of the signature",
          "token": "Address of the SBT contract",
          "tokenId": "Id of the token"
        },
        "returns": {
          "_0": "permissionData List of linked SBTs"
        }
      },
      "getPermissionSignatureDates(address,uint256,uint256)": {
        "params": {
          "readerIdentityId": "Id of the identity of the reader of the SBT",
          "token": "Address of the SBT contract",
          "tokenId": "Id of the token"
        },
        "returns": {
          "_0": "List of linked SBTs"
        }
      },
      "getPriceForAddPermission(address)": {
        "details": "Returns the current pricing for storing a permission",
        "params": {
          "paymentMethod": "Address of token that user want to pay"
        },
        "returns": {
          "paymentMethodUsed": "Address of the token used to pay",
          "price": "Current price of storing a permission"
        }
      },
      "getSBTLinks(address,address)": {
        "details": "The token must be linked to this soul linker",
        "params": {
          "owner": "Address of the owner of the identity",
          "token": "Address of the SBT contract"
        },
        "returns": {
          "_0": "List of linked SBTs"
        }
      },
      "getSBTLinks(uint256,address)": {
        "details": "The token must be linked to this soul linker",
        "params": {
          "identityId": "Id of the identity",
          "token": "Address of the SBT contract"
        },
        "returns": {
          "_0": "List of linked SBTs"
        }
      },
      "owner()": {
        "details": "Returns the address of the current owner."
      },
      "pause()": {
        "details": "The caller must have the owner to call this function"
      },
      "paused()": {
        "details": "Returns true if the contract is paused, and false otherwise."
      },
      "removeErc20Token(address)": {
        "details": "The caller must have the owner to call this function",
        "params": {
          "_erc20token": "ERC20 token to remove"
        }
      },
      "removeLinkedSBT(address)": {
        "details": "The caller must be the owner to call this function",
        "params": {
          "token": "Address of the SBT contract"
        }
      },
      "renounceOwnership()": {
        "details": "Leaves the contract without owner. It will not be possible to call `onlyOwner` functions anymore. Can only be called by the current owner. NOTE: Renouncing ownership will leave the contract without an owner, thereby removing any functionality that is only available to the owner."
      },
      "revokePermission(uint256,uint256,address,uint256,uint256)": {
        "details": "The token must be linked to this soul linker",
        "params": {
          "ownerIdentityId": "Id of the identity of the owner of the SBT",
          "readerIdentityId": "Id of the identity of the reader",
          "signatureDate": "Signature date of the signature",
          "token": "Address of the SBT contract",
          "tokenId": "Id of the token"
        }
      },
      "setAddPermissionPrice(uint256)": {
        "details": "The caller must have the owner to call this function",
        "params": {
          "_addPermissionPrice": "New price of the store permission in stable coin"
        }
      },
      "setAddPermissionPriceMASA(uint256)": {
        "details": "The caller must have the owner to call this function",
        "params": {
          "_addPermissionPriceMASA": "New price of the store permission in $MASA"
        }
      },
      "setMasaToken(address)": {
        "details": "The caller must have the owner to call this function It can be set to address(0) to disable paying in $MASA",
        "params": {
          "_masaToken": "New utility token to pay the fee in"
        }
      },
      "setReserveWallet(address)": {
        "details": "Let change the reserve walled. It can be triggered by an authorized account.",
        "params": {
          "_reserveWallet": "New reserve wallet"
        }
      },
      "setSoulboundIdentity(address)": {
        "details": "The caller must be the owner to call this function",
        "params": {
          "_soulboundIdentity": "Address of the SoulboundIdentity contract"
        }
      },
      "setStableCoin(address)": {
        "details": "The caller must have the owner to call this function",
        "params": {
          "_stableCoin": "New stable coin to pay the fee in"
        }
      },
      "setSwapRouter(address)": {
        "details": "The caller must have the owner to call this function",
        "params": {
          "_swapRouter": "New swap router address"
        }
      },
      "setWrappedNativeToken(address)": {
        "details": "The caller must have the owner to call this function",
        "params": {
          "_wrappedNativeToken": "New wrapped native token address"
        }
      },
      "transferOwnership(address)": {
        "details": "Transfers ownership of the contract to a new account (`newOwner`). Can only be called by the current owner."
      },
      "unpause()": {
        "details": "The caller must have the owner to call this function"
      },
      "validatePermission(uint256,uint256,address,uint256,uint256)": {
        "details": "The token must be linked to this soul linker",
        "params": {
          "ownerIdentityId": "Id of the identity of the owner of the SBT",
          "readerIdentityId": "Id of the identity of the reader",
          "signatureDate": "Signature date of the signature",
          "token": "Address of the SBT contract",
          "tokenId": "Id of the token"
        },
        "returns": {
          "_0": "Data that the reader can read"
        }
      }
    },
    "title": "Soul linker",
    "version": 1
  },
  "userdoc": {
    "kind": "user",
    "methods": {
      "addErc20Token(address)": {
        "notice": "Adds a new ERC20 token as a valid payment method"
      },
      "addLinkedSBT(address)": {
        "notice": "Adds an SBT to the list of linked SBTs"
      },
      "addPermission(address,uint256,uint256,address,uint256,string,uint256,uint256,bytes)": {
        "notice": "Stores the permission, validating the signature of the given read link request"
      },
      "constructor": {
        "notice": "Creates a new soul linker"
      },
      "getErc20Tokens()": {
        "notice": "Returns all available ERC 20 tokens"
      },
      "getIdentityId(address,uint256)": {
        "notice": "Returns the identityId owned by the given token"
      },
      "getPermissionInfo(address,uint256,uint256,uint256)": {
        "notice": "Returns the information of permission dates for a given SBT token and reader"
      },
      "getPermissionSignatureDates(address,uint256,uint256)": {
        "notice": "Returns the list of permission signature dates for a given SBT token and reader"
      },
      "getPriceForAddPermission(address)": {
        "notice": "Returns the price for storing a permission"
      },
      "getSBTLinks(address,address)": {
        "notice": "Returns the list of linked SBTs by a given SBT token"
      },
      "getSBTLinks(uint256,address)": {
        "notice": "Returns the list of linked SBTs by a given SBT token"
      },
      "pause()": {
        "notice": "Pauses the smart contract"
      },
      "removeErc20Token(address)": {
        "notice": "Removes an ERC20 token as a valid payment method"
      },
      "removeLinkedSBT(address)": {
        "notice": "Removes an SBT from the list of linked SBTs"
      },
      "revokePermission(uint256,uint256,address,uint256,uint256)": {
        "notice": "Revokes the permission"
      },
      "setAddPermissionPrice(uint256)": {
        "notice": "Sets the price of store permission in stable coin"
      },
      "setAddPermissionPriceMASA(uint256)": {
        "notice": "Sets the price of store permission in $MASA"
      },
      "setMasaToken(address)": {
        "notice": "Sets the utility token to pay the fee in ($MASA)"
      },
      "setReserveWallet(address)": {
        "notice": "Set the reserve wallet"
      },
      "setSoulboundIdentity(address)": {
        "notice": "Sets the SoulboundIdentity contract address linked to this soul name"
      },
      "setStableCoin(address)": {
        "notice": "Sets the stable coin to pay the fee in (USDC)"
      },
      "setSwapRouter(address)": {
        "notice": "Sets the swap router address"
      },
      "setWrappedNativeToken(address)": {
        "notice": "Sets the wrapped native token address"
      },
      "unpause()": {
        "notice": "Unpauses the smart contract"
      },
      "validatePermission(uint256,uint256,address,uint256,uint256)": {
        "notice": "Validates the permission of the given read link request and returns the data that reader can read if the permission is valid"
      }
    },
    "notice": "Soul linker smart contract that let add links to a Soulbound token.",
    "version": 1
  },
  "storageLayout": {
    "storage": [
      {
        "astId": 400,
        "contract": "contracts/SoulLinker.sol:SoulLinker",
        "label": "_owner",
        "offset": 0,
        "slot": "0",
        "type": "t_address"
      },
      {
        "astId": 7608,
        "contract": "contracts/SoulLinker.sol:SoulLinker",
        "label": "swapRouter",
        "offset": 0,
        "slot": "1",
        "type": "t_address"
      },
      {
        "astId": 7610,
        "contract": "contracts/SoulLinker.sol:SoulLinker",
        "label": "wrappedNativeToken",
        "offset": 0,
        "slot": "2",
        "type": "t_address"
      },
      {
        "astId": 7612,
        "contract": "contracts/SoulLinker.sol:SoulLinker",
        "label": "stableCoin",
        "offset": 0,
        "slot": "3",
        "type": "t_address"
      },
      {
        "astId": 7614,
        "contract": "contracts/SoulLinker.sol:SoulLinker",
        "label": "masaToken",
        "offset": 0,
        "slot": "4",
        "type": "t_address"
      },
      {
        "astId": 7618,
        "contract": "contracts/SoulLinker.sol:SoulLinker",
        "label": "erc20token",
        "offset": 0,
        "slot": "5",
        "type": "t_mapping(t_address,t_bool)"
      },
      {
        "astId": 7621,
        "contract": "contracts/SoulLinker.sol:SoulLinker",
        "label": "erc20tokens",
        "offset": 0,
        "slot": "6",
        "type": "t_array(t_address)dyn_storage"
      },
      {
        "astId": 7623,
        "contract": "contracts/SoulLinker.sol:SoulLinker",
        "label": "reserveWallet",
        "offset": 0,
        "slot": "7",
        "type": "t_address"
      },
      {
        "astId": 523,
        "contract": "contracts/SoulLinker.sol:SoulLinker",
        "label": "_paused",
        "offset": 20,
        "slot": "7",
        "type": "t_bool"
      },
      {
        "astId": 4571,
        "contract": "contracts/SoulLinker.sol:SoulLinker",
        "label": "soulboundIdentity",
        "offset": 0,
        "slot": "8",
        "type": "t_contract(ISoulboundIdentity)8395"
      },
      {
        "astId": 4575,
        "contract": "contracts/SoulLinker.sol:SoulLinker",
        "label": "linkedSBT",
        "offset": 0,
        "slot": "9",
        "type": "t_mapping(t_address,t_bool)"
      },
      {
        "astId": 4578,
        "contract": "contracts/SoulLinker.sol:SoulLinker",
        "label": "linkedSBTs",
        "offset": 0,
        "slot": "10",
        "type": "t_array(t_address)dyn_storage"
      },
      {
        "astId": 4580,
        "contract": "contracts/SoulLinker.sol:SoulLinker",
        "label": "addPermissionPrice",
        "offset": 0,
        "slot": "11",
        "type": "t_uint256"
      },
      {
        "astId": 4582,
        "contract": "contracts/SoulLinker.sol:SoulLinker",
        "label": "addPermissionPriceMASA",
        "offset": 0,
        "slot": "12",
        "type": "t_uint256"
      },
      {
        "astId": 4593,
        "contract": "contracts/SoulLinker.sol:SoulLinker",
        "label": "_permissions",
        "offset": 0,
        "slot": "13",
        "type": "t_mapping(t_address,t_mapping(t_uint256,t_mapping(t_uint256,t_mapping(t_uint256,t_struct(PermissionData)4611_storage))))"
      },
      {
        "astId": 4602,
        "contract": "contracts/SoulLinker.sol:SoulLinker",
        "label": "_permissionSignatureDates",
        "offset": 0,
        "slot": "14",
        "type": "t_mapping(t_address,t_mapping(t_uint256,t_mapping(t_uint256,t_array(t_uint256)dyn_storage)))"
      }
    ],
    "types": {
      "t_address": {
        "encoding": "inplace",
        "label": "address",
        "numberOfBytes": "20"
      },
      "t_array(t_address)dyn_storage": {
        "base": "t_address",
        "encoding": "dynamic_array",
        "label": "address[]",
        "numberOfBytes": "32"
      },
      "t_array(t_uint256)dyn_storage": {
        "base": "t_uint256",
        "encoding": "dynamic_array",
        "label": "uint256[]",
        "numberOfBytes": "32"
      },
      "t_bool": {
        "encoding": "inplace",
        "label": "bool",
        "numberOfBytes": "1"
      },
      "t_contract(ISoulboundIdentity)8395": {
        "encoding": "inplace",
        "label": "contract ISoulboundIdentity",
        "numberOfBytes": "20"
      },
      "t_mapping(t_address,t_bool)": {
        "encoding": "mapping",
        "key": "t_address",
        "label": "mapping(address => bool)",
        "numberOfBytes": "32",
        "value": "t_bool"
      },
      "t_mapping(t_address,t_mapping(t_uint256,t_mapping(t_uint256,t_array(t_uint256)dyn_storage)))": {
        "encoding": "mapping",
        "key": "t_address",
        "label": "mapping(address => mapping(uint256 => mapping(uint256 => uint256[])))",
        "numberOfBytes": "32",
        "value": "t_mapping(t_uint256,t_mapping(t_uint256,t_array(t_uint256)dyn_storage))"
      },
      "t_mapping(t_address,t_mapping(t_uint256,t_mapping(t_uint256,t_mapping(t_uint256,t_struct(PermissionData)4611_storage))))": {
        "encoding": "mapping",
        "key": "t_address",
        "label": "mapping(address => mapping(uint256 => mapping(uint256 => mapping(uint256 => struct SoulLinker.PermissionData))))",
        "numberOfBytes": "32",
        "value": "t_mapping(t_uint256,t_mapping(t_uint256,t_mapping(t_uint256,t_struct(PermissionData)4611_storage)))"
      },
      "t_mapping(t_uint256,t_array(t_uint256)dyn_storage)": {
        "encoding": "mapping",
        "key": "t_uint256",
        "label": "mapping(uint256 => uint256[])",
        "numberOfBytes": "32",
        "value": "t_array(t_uint256)dyn_storage"
      },
      "t_mapping(t_uint256,t_mapping(t_uint256,t_array(t_uint256)dyn_storage))": {
        "encoding": "mapping",
        "key": "t_uint256",
        "label": "mapping(uint256 => mapping(uint256 => uint256[]))",
        "numberOfBytes": "32",
        "value": "t_mapping(t_uint256,t_array(t_uint256)dyn_storage)"
      },
      "t_mapping(t_uint256,t_mapping(t_uint256,t_mapping(t_uint256,t_struct(PermissionData)4611_storage)))": {
        "encoding": "mapping",
        "key": "t_uint256",
        "label": "mapping(uint256 => mapping(uint256 => mapping(uint256 => struct SoulLinker.PermissionData)))",
        "numberOfBytes": "32",
        "value": "t_mapping(t_uint256,t_mapping(t_uint256,t_struct(PermissionData)4611_storage))"
      },
      "t_mapping(t_uint256,t_mapping(t_uint256,t_struct(PermissionData)4611_storage))": {
        "encoding": "mapping",
        "key": "t_uint256",
        "label": "mapping(uint256 => mapping(uint256 => struct SoulLinker.PermissionData))",
        "numberOfBytes": "32",
        "value": "t_mapping(t_uint256,t_struct(PermissionData)4611_storage)"
      },
      "t_mapping(t_uint256,t_struct(PermissionData)4611_storage)": {
        "encoding": "mapping",
        "key": "t_uint256",
        "label": "mapping(uint256 => struct SoulLinker.PermissionData)",
        "numberOfBytes": "32",
        "value": "t_struct(PermissionData)4611_storage"
      },
      "t_string_storage": {
        "encoding": "bytes",
        "label": "string",
        "numberOfBytes": "32"
      },
      "t_struct(PermissionData)4611_storage": {
        "encoding": "inplace",
        "label": "struct SoulLinker.PermissionData",
        "members": [
          {
            "astId": 4604,
            "contract": "contracts/SoulLinker.sol:SoulLinker",
            "label": "ownerIdentityId",
            "offset": 0,
            "slot": "0",
            "type": "t_uint256"
          },
          {
            "astId": 4606,
            "contract": "contracts/SoulLinker.sol:SoulLinker",
            "label": "data",
            "offset": 0,
            "slot": "1",
            "type": "t_string_storage"
          },
          {
            "astId": 4608,
            "contract": "contracts/SoulLinker.sol:SoulLinker",
            "label": "expirationDate",
            "offset": 0,
            "slot": "2",
            "type": "t_uint256"
          },
          {
            "astId": 4610,
            "contract": "contracts/SoulLinker.sol:SoulLinker",
            "label": "isRevoked",
            "offset": 0,
            "slot": "3",
            "type": "t_bool"
          }
        ],
        "numberOfBytes": "128"
      },
      "t_uint256": {
        "encoding": "inplace",
        "label": "uint256",
        "numberOfBytes": "32"
      }
    }
  }
}