{
  "address": "0x49D654137c14423B435Ce51F8c213EECcFD90576",
  "abi": [
    {
      "inputs": [
        {
          "internalType": "address",
          "name": "admin",
          "type": "address"
        },
        {
          "internalType": "contract ISoulLinker",
          "name": "_soulLinker",
          "type": "address"
        },
        {
          "internalType": "string",
          "name": "baseTokenURI",
          "type": "string"
        }
      ],
      "stateMutability": "nonpayable",
      "type": "constructor"
    },
    {
      "anonymous": false,
      "inputs": [
        {
          "indexed": true,
          "internalType": "address",
          "name": "owner",
          "type": "address"
        },
        {
          "indexed": true,
          "internalType": "address",
          "name": "approved",
          "type": "address"
        },
        {
          "indexed": true,
          "internalType": "uint256",
          "name": "tokenId",
          "type": "uint256"
        }
      ],
      "name": "Approval",
      "type": "event"
    },
    {
      "anonymous": false,
      "inputs": [
        {
          "indexed": true,
          "internalType": "address",
          "name": "owner",
          "type": "address"
        },
        {
          "indexed": true,
          "internalType": "address",
          "name": "operator",
          "type": "address"
        },
        {
          "indexed": false,
          "internalType": "bool",
          "name": "approved",
          "type": "bool"
        }
      ],
      "name": "ApprovalForAll",
      "type": "event"
    },
    {
      "anonymous": false,
      "inputs": [
        {
          "indexed": false,
          "internalType": "address",
          "name": "account",
          "type": "address"
        }
      ],
      "name": "Paused",
      "type": "event"
    },
    {
      "anonymous": false,
      "inputs": [
        {
          "indexed": true,
          "internalType": "bytes32",
          "name": "role",
          "type": "bytes32"
        },
        {
          "indexed": true,
          "internalType": "bytes32",
          "name": "previousAdminRole",
          "type": "bytes32"
        },
        {
          "indexed": true,
          "internalType": "bytes32",
          "name": "newAdminRole",
          "type": "bytes32"
        }
      ],
      "name": "RoleAdminChanged",
      "type": "event"
    },
    {
      "anonymous": false,
      "inputs": [
        {
          "indexed": true,
          "internalType": "bytes32",
          "name": "role",
          "type": "bytes32"
        },
        {
          "indexed": true,
          "internalType": "address",
          "name": "account",
          "type": "address"
        },
        {
          "indexed": true,
          "internalType": "address",
          "name": "sender",
          "type": "address"
        }
      ],
      "name": "RoleGranted",
      "type": "event"
    },
    {
      "anonymous": false,
      "inputs": [
        {
          "indexed": true,
          "internalType": "bytes32",
          "name": "role",
          "type": "bytes32"
        },
        {
          "indexed": true,
          "internalType": "address",
          "name": "account",
          "type": "address"
        },
        {
          "indexed": true,
          "internalType": "address",
          "name": "sender",
          "type": "address"
        }
      ],
      "name": "RoleRevoked",
      "type": "event"
    },
    {
      "anonymous": false,
      "inputs": [
        {
          "indexed": true,
          "internalType": "address",
          "name": "from",
          "type": "address"
        },
        {
          "indexed": true,
          "internalType": "address",
          "name": "to",
          "type": "address"
        },
        {
          "indexed": true,
          "internalType": "uint256",
          "name": "tokenId",
          "type": "uint256"
        }
      ],
      "name": "Transfer",
      "type": "event"
    },
    {
      "anonymous": false,
      "inputs": [
        {
          "indexed": false,
          "internalType": "address",
          "name": "account",
          "type": "address"
        }
      ],
      "name": "Unpaused",
      "type": "event"
    },
    {
      "inputs": [],
      "name": "DEFAULT_ADMIN_ROLE",
      "outputs": [
        {
          "internalType": "bytes32",
          "name": "",
          "type": "bytes32"
        }
      ],
      "stateMutability": "view",
      "type": "function"
    },
    {
      "inputs": [],
      "name": "MINTER_ROLE",
      "outputs": [
        {
          "internalType": "bytes32",
          "name": "",
          "type": "bytes32"
        }
      ],
      "stateMutability": "view",
      "type": "function"
    },
    {
      "inputs": [],
      "name": "PAUSER_ROLE",
      "outputs": [
        {
          "internalType": "bytes32",
          "name": "",
          "type": "bytes32"
        }
      ],
      "stateMutability": "view",
      "type": "function"
    },
    {
      "inputs": [
        {
          "internalType": "address",
          "name": "to",
          "type": "address"
        },
        {
          "internalType": "uint256",
          "name": "tokenId",
          "type": "uint256"
        }
      ],
      "name": "approve",
      "outputs": [],
      "stateMutability": "nonpayable",
      "type": "function"
    },
    {
      "inputs": [
        {
          "internalType": "address",
          "name": "owner",
          "type": "address"
        }
      ],
      "name": "balanceOf",
      "outputs": [
        {
          "internalType": "uint256",
          "name": "",
          "type": "uint256"
        }
      ],
      "stateMutability": "view",
      "type": "function"
    },
    {
      "inputs": [
        {
          "internalType": "uint256",
          "name": "tokenId",
          "type": "uint256"
        }
      ],
      "name": "burn",
      "outputs": [],
      "stateMutability": "nonpayable",
      "type": "function"
    },
    {
      "inputs": [
        {
          "internalType": "uint256",
          "name": "tokenId",
          "type": "uint256"
        }
      ],
      "name": "getApproved",
      "outputs": [
        {
          "internalType": "address",
          "name": "",
          "type": "address"
        }
      ],
      "stateMutability": "view",
      "type": "function"
    },
    {
      "inputs": [
        {
          "internalType": "bytes32",
          "name": "role",
          "type": "bytes32"
        }
      ],
      "name": "getRoleAdmin",
      "outputs": [
        {
          "internalType": "bytes32",
          "name": "",
          "type": "bytes32"
        }
      ],
      "stateMutability": "view",
      "type": "function"
    },
    {
      "inputs": [
        {
          "internalType": "bytes32",
          "name": "role",
          "type": "bytes32"
        },
        {
          "internalType": "address",
          "name": "account",
          "type": "address"
        }
      ],
      "name": "grantRole",
      "outputs": [],
      "stateMutability": "nonpayable",
      "type": "function"
    },
    {
      "inputs": [
        {
          "internalType": "bytes32",
          "name": "role",
          "type": "bytes32"
        },
        {
          "internalType": "address",
          "name": "account",
          "type": "address"
        }
      ],
      "name": "hasRole",
      "outputs": [
        {
          "internalType": "bool",
          "name": "",
          "type": "bool"
        }
      ],
      "stateMutability": "view",
      "type": "function"
    },
    {
      "inputs": [
        {
          "internalType": "address",
          "name": "owner",
          "type": "address"
        },
        {
          "internalType": "address",
          "name": "operator",
          "type": "address"
        }
      ],
      "name": "isApprovedForAll",
      "outputs": [
        {
          "internalType": "bool",
          "name": "",
          "type": "bool"
        }
      ],
      "stateMutability": "view",
      "type": "function"
    },
    {
      "inputs": [
        {
          "internalType": "address",
          "name": "to",
          "type": "address"
        }
      ],
      "name": "mint",
      "outputs": [
        {
          "internalType": "uint256",
          "name": "",
          "type": "uint256"
        }
      ],
      "stateMutability": "nonpayable",
      "type": "function"
    },
    {
      "inputs": [],
      "name": "name",
      "outputs": [
        {
          "internalType": "string",
          "name": "",
          "type": "string"
        }
      ],
      "stateMutability": "view",
      "type": "function"
    },
    {
      "inputs": [
        {
          "internalType": "uint256",
          "name": "tokenId",
          "type": "uint256"
        }
      ],
      "name": "ownerOf",
      "outputs": [
        {
          "internalType": "address",
          "name": "",
          "type": "address"
        }
      ],
      "stateMutability": "view",
      "type": "function"
    },
    {
      "inputs": [],
      "name": "pause",
      "outputs": [],
      "stateMutability": "nonpayable",
      "type": "function"
    },
    {
      "inputs": [],
      "name": "paused",
      "outputs": [
        {
          "internalType": "bool",
          "name": "",
          "type": "bool"
        }
      ],
      "stateMutability": "view",
      "type": "function"
    },
    {
      "inputs": [
        {
          "internalType": "bytes32",
          "name": "role",
          "type": "bytes32"
        },
        {
          "internalType": "address",
          "name": "account",
          "type": "address"
        }
      ],
      "name": "renounceRole",
      "outputs": [],
      "stateMutability": "nonpayable",
      "type": "function"
    },
    {
      "inputs": [
        {
          "internalType": "bytes32",
          "name": "role",
          "type": "bytes32"
        },
        {
          "internalType": "address",
          "name": "account",
          "type": "address"
        }
      ],
      "name": "revokeRole",
      "outputs": [],
      "stateMutability": "nonpayable",
      "type": "function"
    },
    {
      "inputs": [
        {
          "internalType": "address",
          "name": "",
          "type": "address"
        },
        {
          "internalType": "address",
          "name": "",
          "type": "address"
        },
        {
          "internalType": "uint256",
          "name": "",
          "type": "uint256"
        }
      ],
      "name": "safeTransferFrom",
      "outputs": [],
      "stateMutability": "pure",
      "type": "function"
    },
    {
      "inputs": [
        {
          "internalType": "address",
          "name": "",
          "type": "address"
        },
        {
          "internalType": "address",
          "name": "",
          "type": "address"
        },
        {
          "internalType": "uint256",
          "name": "",
          "type": "uint256"
        },
        {
          "internalType": "bytes",
          "name": "",
          "type": "bytes"
        }
      ],
      "name": "safeTransferFrom",
      "outputs": [],
      "stateMutability": "pure",
      "type": "function"
    },
    {
      "inputs": [
        {
          "internalType": "address",
          "name": "operator",
          "type": "address"
        },
        {
          "internalType": "bool",
          "name": "approved",
          "type": "bool"
        }
      ],
      "name": "setApprovalForAll",
      "outputs": [],
      "stateMutability": "nonpayable",
      "type": "function"
    },
    {
      "inputs": [],
      "name": "soulLinker",
      "outputs": [
        {
          "internalType": "contract ISoulLinker",
          "name": "",
          "type": "address"
        }
      ],
      "stateMutability": "view",
      "type": "function"
    },
    {
      "inputs": [
        {
          "internalType": "bytes4",
          "name": "interfaceId",
          "type": "bytes4"
        }
      ],
      "name": "supportsInterface",
      "outputs": [
        {
          "internalType": "bool",
          "name": "",
          "type": "bool"
        }
      ],
      "stateMutability": "view",
      "type": "function"
    },
    {
      "inputs": [],
      "name": "symbol",
      "outputs": [
        {
          "internalType": "string",
          "name": "",
          "type": "string"
        }
      ],
      "stateMutability": "view",
      "type": "function"
    },
    {
      "inputs": [
        {
          "internalType": "uint256",
          "name": "index",
          "type": "uint256"
        }
      ],
      "name": "tokenByIndex",
      "outputs": [
        {
          "internalType": "uint256",
          "name": "",
          "type": "uint256"
        }
      ],
      "stateMutability": "view",
      "type": "function"
    },
    {
      "inputs": [
        {
          "internalType": "address",
          "name": "owner",
          "type": "address"
        },
        {
          "internalType": "uint256",
          "name": "index",
          "type": "uint256"
        }
      ],
      "name": "tokenOfOwnerByIndex",
      "outputs": [
        {
          "internalType": "uint256",
          "name": "",
          "type": "uint256"
        }
      ],
      "stateMutability": "view",
      "type": "function"
    },
    {
      "inputs": [
        {
          "internalType": "uint256",
          "name": "tokenId",
          "type": "uint256"
        }
      ],
      "name": "tokenURI",
      "outputs": [
        {
          "internalType": "string",
          "name": "",
          "type": "string"
        }
      ],
      "stateMutability": "view",
      "type": "function"
    },
    {
      "inputs": [],
      "name": "totalSupply",
      "outputs": [
        {
          "internalType": "uint256",
          "name": "",
          "type": "uint256"
        }
      ],
      "stateMutability": "view",
      "type": "function"
    },
    {
      "inputs": [
        {
          "internalType": "address",
          "name": "",
          "type": "address"
        },
        {
          "internalType": "address",
          "name": "",
          "type": "address"
        },
        {
          "internalType": "uint256",
          "name": "",
          "type": "uint256"
        }
      ],
      "name": "transferFrom",
      "outputs": [],
      "stateMutability": "pure",
      "type": "function"
    },
    {
      "inputs": [],
      "name": "unpause",
      "outputs": [],
      "stateMutability": "nonpayable",
      "type": "function"
    }
  ],
  "transactionHash": "0xc19b1f8ecee24eaac4d4a5cc03b08f52ca3edb02d03edc03be83b38ce8d0d862",
  "args": [
    "0x3c8D9f130970358b7E8cbc1DbD0a1EbA6EBE368F",
    "0x23d51359178282eF95f17A8f33E72648220bCBa8",
    "https://beta.metadata.masa.finance/v1.0/credit-report/"
  ],
  "numDeployments": 1,
  "solcInputHash": "820f86c65d0294b251813f2382387c11",
  "bytecode": "0x60806040523480156200001157600080fd5b50604051620026c4380380620026c483398101604081905262000034916200035e565b82826040518060400160405280601281526020017113585cd84810dc99591a5d0814995c1bdc9d60721b8152506040518060400160405280600381526020016226a1a960e91b8152508484838383828281600090805190602001906200009c92919062000225565b508051620000b290600190602084019062000225565b5050600a805460ff1916905550620000cc6000856200016d565b620000f87f65d7a28e3265b37a6474929f336521b332c1681b933f6cb9f3376673440d862a856200016d565b620001247f9f2df0fed2c77648de5860a4cc508cd0818c85b8b8a1ab4ceeef8d981c8956a6856200016d565b80516200013990600d90602084019062000225565b5050600e80546001600160a01b0319166001600160a01b039890981697909717909655506200053198505050505050505050565b620001798282620001f8565b620001f4576000828152600b602090815260408083206001600160a01b03851684529091529020805460ff19166001179055620001b33390565b6001600160a01b0316816001600160a01b0316837f2f8788117e7eff1d82e926ec794901d17c78024a50270940304540a733656f0d60405160405180910390a45b5050565b6000828152600b602090815260408083206001600160a01b038516845290915290205460ff165b92915050565b828054620002339062000473565b90600052602060002090601f016020900481019282620002575760008555620002a2565b82601f106200027257805160ff1916838001178555620002a2565b82800160010185558215620002a2579182015b82811115620002a257825182559160200191906001019062000285565b50620002b0929150620002b4565b5090565b5b80821115620002b05760008155600101620002b5565b6000620002e2620002dc84620003f1565b620003d2565b905082815260208101848484011115620002ff57620002ff600080fd5b6200030c84828562000440565b509392505050565b80516200021f816200050c565b80516200021f8162000526565b600082601f830112620003445762000344600080fd5b815162000356848260208601620002cb565b949350505050565b600080600060608486031215620003785762000378600080fd5b600062000386868662000314565b9350506020620003998682870162000321565b92505060408401516001600160401b03811115620003ba57620003ba600080fd5b620003c8868287016200032e565b9150509250925092565b6000620003de60405190565b9050620003ec8282620004a4565b919050565b60006001600160401b038211156200040d576200040d620004ec565b620004188262000502565b60200192915050565b60006001600160a01b0382166200021f565b60006200021f8262000421565b60005b838110156200045d57818101518382015260200162000443565b838111156200046d576000848401525b50505050565b6002810460018216806200048857607f821691505b602082108114156200049e576200049e620004d6565b50919050565b620004af8262000502565b81018181106001600160401b0382111715620004cf57620004cf620004ec565b6040525050565b634e487b7160e01b600052602260045260246000fd5b634e487b7160e01b600052604160045260246000fd5b601f01601f191690565b620005178162000421565b81146200052357600080fd5b50565b620005178162000433565b61218380620005416000396000f3fe608060405234801561001057600080fd5b506004361061016a5760003560e01c806301ffc9a71461016f57806306fdde0314610198578063081812fc146101ad578063095ea7b3146101cd57806318160ddd146101e257806323b872dd146101f3578063248a9ca3146102065780632f2ff15d146102195780632f745c591461022c57806336568abe1461023f5780633f4ba83a1461025257806342842e0e146101f357806342966c681461025a578063453900701461026d5780634f6ccce71461028d5780635c975abb146102a05780636352211e146102ab5780636a627842146102be57806370a08231146102d15780638456cb59146102e457806391d14854146102ec57806395d89b41146102ff578063a217fddf14610307578063a22cb4651461030f578063b88d4fde14610322578063c87b56dd14610330578063d539139314610343578063d547741f14610358578063e63ab1e91461036b578063e985e9c514610380575b600080fd5b61018261017d366004611790565b610393565b60405161018f9190611d41565b60405180910390f35b6101a06103a4565b60405161018f9190611d6b565b6101c06101bb36600461174d565b610436565b60405161018f9190611cd4565b6101e06101db3660046116f9565b61045d565b005b6008545b60405161018f9190611d4f565b6101e06102013660046115f8565b6104ec565b6101e661021436600461174d565b610504565b6101e061022736600461176e565b610519565b6101e661023a3660046116f9565b610535565b6101e061024d36600461176e565b610587565b6101e06105bd565b6101e061026836600461174d565b6105e0565b600e54610280906001600160a01b031681565b60405161018f9190611d5d565b6101e661029b36600461174d565b610688565b600a5460ff16610182565b6101c06102b936600461174d565b6106d6565b6101e66102cc36600461159a565b61070b565b6101e66102df36600461159a565b610716565b6101e061075a565b6101826102fa36600461176e565b61077a565b6101a06107a5565b6101e6600081565b6101e061031d3660046116c6565b6107b4565b6101e0610201366004611648565b6101a061033e36600461174d565b6107bf565b6101e660008051602061210e83398151915281565b6101e061036636600461176e565b610826565b6101e66000805160206120ee83398151915281565b61018261038e3660046115bb565b610842565b600061039e82610870565b92915050565b6060600080546103b390611faa565b80601f01602080910402602001604051908101604052809291908181526020018280546103df90611faa565b801561042c5780601f106104015761010080835404028352916020019161042c565b820191906000526020600020905b81548152906001019060200180831161040f57829003601f168201915b5050505050905090565b600061044182610895565b506000908152600460205260409020546001600160a01b031690565b6000610468826106d6565b9050806001600160a01b0316836001600160a01b031614156104a55760405162461bcd60e51b815260040161049c90611e3c565b60405180910390fd5b336001600160a01b03821614806104c157506104c18133610842565b6104dd5760405162461bcd60e51b815260040161049c90611e0c565b6104e783836108ba565b505050565b60405162461bcd60e51b815260040161049c90611ddc565b6000908152600b602052604090206001015490565b61052282610504565b61052b81610928565b6104e78383610932565b600061054083610716565b821061055e5760405162461bcd60e51b815260040161049c90611d9c565b506001600160a01b03919091166000908152600660209081526040808320938352929052205490565b6001600160a01b03811633146105af5760405162461bcd60e51b815260040161049c90611e7c565b6105b982826109b8565b5050565b6000805160206120ee8339815191526105d581610928565b6105dd610a1f565b50565b600e54604051633f278e0b60e21b81526001600160a01b039091169063fc9e382c906106129030908590600401611d26565b60206040518083038186803b15801561062a57600080fd5b505afa15801561063e573d6000803e3d6000fd5b505050506040513d601f19601f82011682018060405250810190610662919061172c565b1561067f5760405162461bcd60e51b815260040161049c90611e4c565b6105dd81610a6b565b600061069360085490565b82106106b15760405162461bcd60e51b815260040161049c90611e5c565b600882815481106106c4576106c4612085565b90600052602060002001549050919050565b6000818152600260205260408120546001600160a01b03168061039e5760405162461bcd60e51b815260040161049c90611e2c565b600061039e82610a9a565b60006001600160a01b03821661073e5760405162461bcd60e51b815260040161049c90611dfc565b506001600160a01b031660009081526003602052604090205490565b6000805160206120ee83398151915261077281610928565b6105dd610ae2565b6000918252600b602090815260408084206001600160a01b0393909316845291905290205460ff1690565b6060600180546103b390611faa565b6105b9338383610b1f565b60606107ca82610895565b60006107d4610bc2565b905060008151116107f4576040518060200160405280600081525061081f565b806107fe84610bd1565b60405160200161080f929190611c54565b6040516020818303038152906040525b9392505050565b61082f82610504565b61083881610928565b6104e783836109b8565b6001600160a01b03918216600090815260056020908152604080832093909416825291909152205460ff1690565b60006001600160e01b03198216637965db0b60e01b148061039e575061039e82610cd6565b61089e81610cfb565b6105dd5760405162461bcd60e51b815260040161049c90611e2c565b600081815260046020526040902080546001600160a01b0319166001600160a01b03841690811790915581906108ef826106d6565b6001600160a01b03167f8c5be1e5ebec7d5bd14f71427d1e84f3dd0314c0f7b2291e5b200ac8c7c3b92560405160405180910390a45050565b6105dd8133610d18565b61093c828261077a565b6105b9576000828152600b602090815260408083206001600160a01b03851684529091529020805460ff191660011790556109743390565b6001600160a01b0316816001600160a01b0316837f2f8788117e7eff1d82e926ec794901d17c78024a50270940304540a733656f0d60405160405180910390a45050565b6109c2828261077a565b156105b9576000828152600b602090815260408083206001600160a01b0385168085529252808320805460ff1916905551339285917ff6391f5c32d9c69d2a47ea670b442974b53935d1edc7fd64eb21e047a839171b9190a45050565b610a27610d7c565b600a805460ff191690557f5db9ee0a495bf2e6ff9c91a7834c1ba4fdd244a5e8aa4e537bd38aeae4b073aa335b604051610a619190611cd4565b60405180910390a1565b610a753382610da0565b610a915760405162461bcd60e51b815260040161049c90611e6c565b6105dd81610dfe565b600060008051602061210e833981519152610ab481610928565b6000610abf600c5490565b9050610acf600c80546001019055565b610ad98482610e93565b91505b50919050565b610aea610ead565b600a805460ff191660011790557f62e78cea01bee320cd4e420270b5ea74000d11b0c9f74754ebdbfc544b05a258610a543390565b816001600160a01b0316836001600160a01b03161415610b515760405162461bcd60e51b815260040161049c90611dcc565b6001600160a01b0383811660008181526005602090815260408083209487168084529490915290819020805460ff1916851515179055517f17307eab39ab6107e8899845ad3d59bd9653f200f220920489ca2b5937696c3190610bb5908590611d41565b60405180910390a3505050565b6060600d80546103b390611faa565b606081610bf55750506040805180820190915260018152600360fc1b602082015290565b8160005b8115610c1f5780610c0981611ffe565b9150610c189050600a83611eeb565b9150610bf9565b6000816001600160401b03811115610c3957610c3961209b565b6040519080825280601f01601f191660200182016040528015610c63576020820181803683370190505b5090505b8415610cce57610c78600183611f1e565b9150610c85600a86612019565b610c90906030611ed3565b60f81b818381518110610ca557610ca5612085565b60200101906001600160f81b031916908160001a905350610cc7600a86611eeb565b9450610c67565b949350505050565b60006001600160e01b0319821663780e9d6360e01b148061039e575061039e82610ed0565b6000908152600260205260409020546001600160a01b0316151590565b610d22828261077a565b6105b957610d3a816001600160a01b03166014610f20565b610d45836020610f20565b604051602001610d56929190611c82565b60408051601f198184030181529082905262461bcd60e51b825261049c91600401611d6b565b600a5460ff16610d9e5760405162461bcd60e51b815260040161049c90611d8c565b565b600080610dac836106d6565b9050806001600160a01b0316846001600160a01b03161480610dd35750610dd38185610842565b80610cce5750836001600160a01b0316610dec84610436565b6001600160a01b031614949350505050565b6000610e09826106d6565b9050610e178160008461108b565b610e226000836108ba565b6001600160a01b0381166000908152600360205260408120805460019290610e4b908490611f1e565b909155505060008281526002602052604080822080546001600160a01b0319169055518391906001600160a01b0384169060008051602061212e833981519152908390a45050565b6105b982826040518060200160405280600081525061109e565b600a5460ff1615610d9e5760405162461bcd60e51b815260040161049c90611dec565b60006001600160e01b031982166380ac58cd60e01b1480610f0157506001600160e01b03198216635b5e139f60e01b145b8061039e57506301ffc9a760e01b6001600160e01b031983161461039e565b60606000610f2f836002611eff565b610f3a906002611ed3565b6001600160401b03811115610f5157610f5161209b565b6040519080825280601f01601f191660200182016040528015610f7b576020820181803683370190505b509050600360fc1b81600081518110610f9657610f96612085565b60200101906001600160f81b031916908160001a905350600f60fb1b81600181518110610fc557610fc5612085565b60200101906001600160f81b031916908160001a9053506000610fe9846002611eff565b610ff4906001611ed3565b90505b600181111561106c576f181899199a1a9b1b9c1cb0b131b232b360811b85600f166010811061102857611028612085565b1a60f81b82828151811061103e5761103e612085565b60200101906001600160f81b031916908160001a90535060049490941c9361106581611f93565b9050610ff7565b50831561081f5760405162461bcd60e51b815260040161049c90611d7c565b611093610ead565b6104e78383836110d1565b6110a88383611189565b6110b56000848484611256565b6104e75760405162461bcd60e51b815260040161049c90611dac565b6001600160a01b03831661112c5761112781600880546000838152600960205260408120829055600182018355919091527ff3f7a9fe364faab93b216da50a3214154f22a0a2b415b23a84c8169e8b636ee30155565b61114f565b816001600160a01b0316836001600160a01b03161461114f5761114f8382611363565b6001600160a01b038216611166576104e781611400565b826001600160a01b0316826001600160a01b0316146104e7576104e782826114af565b6001600160a01b0382166111af5760405162461bcd60e51b815260040161049c90611e1c565b6111b881610cfb565b156111d55760405162461bcd60e51b815260040161049c90611dbc565b6111e16000838361108b565b6001600160a01b038216600090815260036020526040812080546001929061120a908490611ed3565b909155505060008181526002602052604080822080546001600160a01b0319166001600160a01b038616908117909155905183929060008051602061212e833981519152908290a45050565b60006001600160a01b0384163b1561135857604051630a85bd0160e11b81526001600160a01b0385169063150b7a029061129a903390899088908890600401611ce2565b602060405180830381600087803b1580156112b457600080fd5b505af19250505080156112e4575060408051601f3d908101601f191682019092526112e1918101906117b1565b60015b61133e573d808015611312576040519150601f19603f3d011682016040523d82523d6000602084013e611317565b606091505b5080516113365760405162461bcd60e51b815260040161049c90611dac565b805181602001fd5b6001600160e01b031916630a85bd0160e11b149050610cce565b506001949350505050565b6000600161137084610716565b61137a9190611f1e565b6000838152600760205260409020549091508082146113cd576001600160a01b03841660009081526006602090815260408083208584528252808320548484528184208190558352600790915290208190555b5060009182526007602090815260408084208490556001600160a01b039094168352600681528383209183525290812055565b60085460009061141290600190611f1e565b6000838152600960205260408120546008805493945090928490811061143a5761143a612085565b90600052602060002001549050806008838154811061145b5761145b612085565b60009182526020808320909101929092558281526009909152604080822084905585825281205560088054806114935761149361206f565b6001900381819060005260206000200160009055905550505050565b60006114ba83610716565b6001600160a01b039093166000908152600660209081526040808320868452825280832085905593825260079052919091209190915550565b600061150661150184611ea8565b611e8c565b90508281526020810184848401111561152157611521600080fd5b61152c848285611f57565b509392505050565b803561039e816120bb565b803561039e816120cf565b805161039e816120cf565b803561039e816120d7565b803561039e816120dd565b805161039e816120dd565b600082601f83011261158a5761158a600080fd5b8135610cce8482602086016114f3565b6000602082840312156115af576115af600080fd5b6000610cce8484611534565b600080604083850312156115d1576115d1600080fd5b60006115dd8585611534565b92505060206115ee85828601611534565b9150509250929050565b60008060006060848603121561161057611610600080fd5b600061161c8686611534565b935050602061162d86828701611534565b925050604061163e86828701611555565b9150509250925092565b6000806000806080858703121561166157611661600080fd5b600061166d8787611534565b945050602061167e87828801611534565b935050604061168f87828801611555565b92505060608501356001600160401b038111156116ae576116ae600080fd5b6116ba87828801611576565b91505092959194509250565b600080604083850312156116dc576116dc600080fd5b60006116e88585611534565b92505060206115ee8582860161153f565b6000806040838503121561170f5761170f600080fd5b600061171b8585611534565b92505060206115ee85828601611555565b60006020828403121561174157611741600080fd5b6000610cce848461154a565b60006020828403121561176257611762600080fd5b6000610cce8484611555565b6000806040838503121561178457611784600080fd5b60006115dd8585611555565b6000602082840312156117a5576117a5600080fd5b6000610cce8484611560565b6000602082840312156117c6576117c6600080fd5b6000610cce848461156b565b6117db81611f35565b82525050565b8015156117db565b806117db565b60006117f9825190565b808452602084019350611810818560208601611f63565b611819816120b1565b9093019392505050565b6117db81611f46565b6000611836825190565b611844818560208601611f63565b9290920192915050565b60208082527f537472696e67733a20686578206c656e67746820696e73756666696369656e74910190815260005b5060200190565b601481526000602082017314185d5cd8589b194e881b9bdd081c185d5cd95960621b8152915061187c565b602b81526000602082017f455243373231456e756d657261626c653a206f776e657220696e646578206f7581526a74206f6620626f756e647360a81b602082015291505b5060400190565b603281526000602082017f4552433732313a207472616e7366657220746f206e6f6e20455243373231526581527131b2b4bb32b91034b6b83632b6b2b73a32b960711b602082015291506118f2565b601c81526000602082017b115490cdcc8c4e881d1bdad95b88185b1c9958591e481b5a5b9d195960221b8152915061187c565b601981526000602082017822a9219b99189d1030b8383937bb32903a379031b0b63632b960391b8152915061187c565b601a81526000602082017914d09517d514905394d1915497d393d517d4115493525515115160321b8152915061187c565b601081526000602082016f14185d5cd8589b194e881c185d5cd95960821b8152915061187c565b602981526000602082017f4552433732313a2061646472657373207a65726f206973206e6f7420612076618152683634b21037bbb732b960b91b602082015291506118f2565b603e81526000602082017f4552433732313a20617070726f76652063616c6c6572206973206e6f7420746f81527f6b656e206f776e6572206e6f7220617070726f76656420666f7220616c6c0000602082015291506118f2565b60208082527f4552433732313a206d696e7420746f20746865207a65726f20616464726573739101908152600061187c565b6018815260006020820177115490cdcc8c4e881a5b9d985b1a59081d1bdad95b88125160421b8152915061187c565b602181526000602082017f4552433732313a20617070726f76616c20746f2063757272656e74206f776e658152603960f91b602082015291506118f2565b601b81526000602082017a5342545f574954485f4c494e4b535f4e4f545f4255524e41424c4560281b8152915061187c565b602c81526000602082017f455243373231456e756d657261626c653a20676c6f62616c20696e646578206f81526b7574206f6620626f756e647360a01b602082015291506118f2565b602e81526000602082017f4552433732313a2063616c6c6572206973206e6f7420746f6b656e206f776e6581526d1c881b9bdc88185c1c1c9bdd995960921b602082015291506118f2565b602f81526000602082017f416363657373436f6e74726f6c3a2063616e206f6e6c792072656e6f756e636581526e103937b632b9903337b91039b2b63360891b602082015291506118f2565b6000611c60828561182c565b9150611c6c828461182c565b64173539b7b760d91b8152915060058201610cce565b76020b1b1b2b9b9a1b7b73a3937b61d1030b1b1b7bab73a1604d1b81526017016000611cae828561182c565b7001034b99036b4b9b9b4b733903937b6329607d1b81526011019150610cce828461182c565b6020810161039e82846117d2565b60808101611cf082876117d2565b611cfd60208301866117d2565b611d0a60408301856117e9565b8181036060830152611d1c81846117ef565b9695505050505050565b60408101611d3482856117d2565b61081f60208301846117e9565b6020810161039e82846117e1565b6020810161039e82846117e9565b6020810161039e8284611823565b6020808252810161081f81846117ef565b6020808252810161039e8161184e565b6020808252810161039e81611883565b6020808252810161039e816118ae565b6020808252810161039e816118f9565b6020808252810161039e81611948565b6020808252810161039e8161197b565b6020808252810161039e816119ab565b6020808252810161039e816119dc565b6020808252810161039e81611a03565b6020808252810161039e81611a49565b6020808252810161039e81611aa3565b6020808252810161039e81611ad5565b6020808252810161039e81611b04565b6020808252810161039e81611b42565b6020808252810161039e81611b74565b6020808252810161039e81611bbd565b6020808252810161039e81611c08565b6000611e9760405190565b9050611ea38282611fd1565b919050565b60006001600160401b03821115611ec157611ec161209b565b611eca826120b1565b60200192915050565b60008219821115611ee657611ee661202d565b500190565b600082611efa57611efa612043565b500490565b6000816000190483118215151615611f1957611f1961202d565b500290565b600082821015611f3057611f3061202d565b500390565b60006001600160a01b03821661039e565b600061039e82600061039e82611f35565b82818337506000910152565b60005b83811015611f7e578181015183820152602001611f66565b83811115611f8d576000848401525b50505050565b600081611fa257611fa261202d565b506000190190565b600281046001821680611fbe57607f821691505b60208210811415610adc57610adc612059565b611fda826120b1565b81018181106001600160401b0382111715611ff757611ff761209b565b6040525050565b60006000198214156120125761201261202d565b5060010190565b60008261202857612028612043565b500690565b634e487b7160e01b600052601160045260246000fd5b634e487b7160e01b600052601260045260246000fd5b634e487b7160e01b600052602260045260246000fd5b634e487b7160e01b600052603160045260246000fd5b634e487b7160e01b600052603260045260246000fd5b634e487b7160e01b600052604160045260246000fd5b601f01601f191690565b6120c481611f35565b81146105dd57600080fd5b8015156120c4565b806120c4565b6001600160e01b031981166120c456fe65d7a28e3265b37a6474929f336521b332c1681b933f6cb9f3376673440d862a9f2df0fed2c77648de5860a4cc508cd0818c85b8b8a1ab4ceeef8d981c8956a6ddf252ad1be2c89b69c2b068fc378daa952ba7f163c4a11628f55a4df523b3efa26469706673582212208aa3a3d9646a6c122cd7701ca1952180892dbf2a335276f5b0ea5ad131895bd964736f6c63430008070033",
  "devdoc": {
    "author": "Masa Finance",
    "details": "Soulbound credit report, that inherits from the SBT contract.",
    "kind": "dev",
    "methods": {
      "approve(address,uint256)": {
        "details": "See {IERC721-approve}."
      },
      "balanceOf(address)": {
        "details": "See {IERC721-balanceOf}."
      },
      "burn(uint256)": {
        "details": "The caller must own `tokenId` or be an approved operator",
        "params": {
          "tokenId": "The NFT ID to burn"
        }
      },
      "constructor": {
        "details": "Creates a new soulbound credit report, inheriting from the SBT contract.",
        "params": {
          "_soulLinker": "Address of the SoulLinker contract",
          "admin": "Administrator of the smart contract",
          "baseTokenURI": "Base URI of the token"
        }
      },
      "getApproved(uint256)": {
        "details": "See {IERC721-getApproved}."
      },
      "getRoleAdmin(bytes32)": {
        "details": "Returns the admin role that controls `role`. See {grantRole} and {revokeRole}. To change a role's admin, use {_setRoleAdmin}."
      },
      "grantRole(bytes32,address)": {
        "details": "Grants `role` to `account`. If `account` had not been already granted `role`, emits a {RoleGranted} event. Requirements: - the caller must have ``role``'s admin role. May emit a {RoleGranted} event."
      },
      "hasRole(bytes32,address)": {
        "details": "Returns `true` if `account` has been granted `role`."
      },
      "isApprovedForAll(address,address)": {
        "details": "See {IERC721-isApprovedForAll}."
      },
      "mint(address)": {
        "details": "The caller must have the MINTER role",
        "params": {
          "to": "The address to mint the NFT to"
        },
        "returns": {
          "_0": "The NFT ID of the newly minted NFT"
        }
      },
      "name()": {
        "details": "See {IERC721Metadata-name}."
      },
      "ownerOf(uint256)": {
        "details": "See {IERC721-ownerOf}."
      },
      "pause()": {
        "details": "Sets an emergency stop mechanism that can be triggered by an authorized account."
      },
      "paused()": {
        "details": "Returns true if the contract is paused, and false otherwise."
      },
      "renounceRole(bytes32,address)": {
        "details": "Revokes `role` from the calling account. Roles are often managed via {grantRole} and {revokeRole}: this function's purpose is to provide a mechanism for accounts to lose their privileges if they are compromised (such as when a trusted device is misplaced). If the calling account had been revoked `role`, emits a {RoleRevoked} event. Requirements: - the caller must be `account`. May emit a {RoleRevoked} event."
      },
      "revokeRole(bytes32,address)": {
        "details": "Revokes `role` from `account`. If `account` had been granted `role`, emits a {RoleRevoked} event. Requirements: - the caller must have ``role``'s admin role. May emit a {RoleRevoked} event."
      },
      "safeTransferFrom(address,address,uint256)": {
        "details": "This will raise an exception because the token is not transferable."
      },
      "safeTransferFrom(address,address,uint256,bytes)": {
        "details": "This will raise an exception because the token is not transferable."
      },
      "setApprovalForAll(address,bool)": {
        "details": "See {IERC721-setApprovalForAll}."
      },
      "supportsInterface(bytes4)": {
        "details": "Interface identification is specified in ERC-165.",
        "params": {
          "interfaceId": "The interface identifier, as specified in ERC-165"
        },
        "returns": {
          "_0": "`true` if the contract implements `interfaceId` and  `interfaceId` is not 0xffffffff, `false` otherwise"
        }
      },
      "symbol()": {
        "details": "See {IERC721Metadata-symbol}."
      },
      "tokenByIndex(uint256)": {
        "details": "See {IERC721Enumerable-tokenByIndex}."
      },
      "tokenOfOwnerByIndex(address,uint256)": {
        "details": "See {IERC721Enumerable-tokenOfOwnerByIndex}."
      },
      "tokenURI(uint256)": {
        "details": "Throws if `_tokenId` is not a valid NFT. URIs are defined in RFC  3986. The URI may point to a JSON file that conforms to the \"ERC721  Metadata JSON Schema\".",
        "params": {
          "tokenId": "NFT to get the URI of"
        },
        "returns": {
          "_0": "URI of the NFT"
        }
      },
      "totalSupply()": {
        "details": "See {IERC721Enumerable-totalSupply}."
      },
      "transferFrom(address,address,uint256)": {
        "details": "This will raise an exception because the token is not transferable."
      },
      "unpause()": {
        "details": "Unsets an emergency stop mechanism. It can be triggered by an authorized account."
      }
    },
    "title": "Soulbound Credit Report",
    "version": 1
  },
  "userdoc": {
    "kind": "user",
    "methods": {
      "burn(uint256)": {
        "notice": "Burns the token"
      },
      "constructor": {
        "notice": "Creates a new soulbound credit report"
      },
      "mint(address)": {
        "notice": "Mints a new NFT"
      },
      "pause()": {
        "notice": "Pauses the operations in the smart contract"
      },
      "safeTransferFrom(address,address,uint256)": {
        "notice": "Transfers the ownership of an NFT from one address to another address"
      },
      "safeTransferFrom(address,address,uint256,bytes)": {
        "notice": "Transfer ownership of the token to another address safely"
      },
      "supportsInterface(bytes4)": {
        "notice": "Query if a contract implements an interface"
      },
      "tokenURI(uint256)": {
        "notice": "A distinct Uniform Resource Identifier (URI) for a given asset."
      },
      "transferFrom(address,address,uint256)": {
        "notice": "Transfer ownership of an NFT -- THE CALLER IS RESPONSIBLE  TO CONFIRM THAT `_to` IS CAPABLE OF RECEIVING NFTS OR ELSE  THEY MAY BE PERMANENTLY LOST"
      },
      "unpause()": {
        "notice": "Unpauses the operations in the smart contract"
      }
    },
    "notice": "Soulbound token that represents a credit report.",
    "version": 1
  },
  "storageLayout": {
    "storage": [
      {
        "astId": 1532,
        "contract": "contracts/SoulboundCreditReport.sol:SoulboundCreditReport",
        "label": "_name",
        "offset": 0,
        "slot": "0",
        "type": "t_string_storage"
      },
      {
        "astId": 1534,
        "contract": "contracts/SoulboundCreditReport.sol:SoulboundCreditReport",
        "label": "_symbol",
        "offset": 0,
        "slot": "1",
        "type": "t_string_storage"
      },
      {
        "astId": 1538,
        "contract": "contracts/SoulboundCreditReport.sol:SoulboundCreditReport",
        "label": "_owners",
        "offset": 0,
        "slot": "2",
        "type": "t_mapping(t_uint256,t_address)"
      },
      {
        "astId": 1542,
        "contract": "contracts/SoulboundCreditReport.sol:SoulboundCreditReport",
        "label": "_balances",
        "offset": 0,
        "slot": "3",
        "type": "t_mapping(t_address,t_uint256)"
      },
      {
        "astId": 1546,
        "contract": "contracts/SoulboundCreditReport.sol:SoulboundCreditReport",
        "label": "_tokenApprovals",
        "offset": 0,
        "slot": "4",
        "type": "t_mapping(t_uint256,t_address)"
      },
      {
        "astId": 1552,
        "contract": "contracts/SoulboundCreditReport.sol:SoulboundCreditReport",
        "label": "_operatorApprovals",
        "offset": 0,
        "slot": "5",
        "type": "t_mapping(t_address,t_mapping(t_address,t_bool))"
      },
      {
        "astId": 2552,
        "contract": "contracts/SoulboundCreditReport.sol:SoulboundCreditReport",
        "label": "_ownedTokens",
        "offset": 0,
        "slot": "6",
        "type": "t_mapping(t_address,t_mapping(t_uint256,t_uint256))"
      },
      {
        "astId": 2556,
        "contract": "contracts/SoulboundCreditReport.sol:SoulboundCreditReport",
        "label": "_ownedTokensIndex",
        "offset": 0,
        "slot": "7",
        "type": "t_mapping(t_uint256,t_uint256)"
      },
      {
        "astId": 2559,
        "contract": "contracts/SoulboundCreditReport.sol:SoulboundCreditReport",
        "label": "_allTokens",
        "offset": 0,
        "slot": "8",
        "type": "t_array(t_uint256)dyn_storage"
      },
      {
        "astId": 2563,
        "contract": "contracts/SoulboundCreditReport.sol:SoulboundCreditReport",
        "label": "_allTokensIndex",
        "offset": 0,
        "slot": "9",
        "type": "t_mapping(t_uint256,t_uint256)"
      },
      {
        "astId": 410,
        "contract": "contracts/SoulboundCreditReport.sol:SoulboundCreditReport",
        "label": "_paused",
        "offset": 0,
        "slot": "10",
        "type": "t_bool"
      },
      {
        "astId": 24,
        "contract": "contracts/SoulboundCreditReport.sol:SoulboundCreditReport",
        "label": "_roles",
        "offset": 0,
        "slot": "11",
        "type": "t_mapping(t_bytes32,t_struct(RoleData)19_storage)"
      },
      {
        "astId": 6684,
        "contract": "contracts/SoulboundCreditReport.sol:SoulboundCreditReport",
        "label": "_tokenIdCounter",
        "offset": 0,
        "slot": "12",
        "type": "t_struct(Counter)3256_storage"
      },
      {
        "astId": 6686,
        "contract": "contracts/SoulboundCreditReport.sol:SoulboundCreditReport",
        "label": "_baseTokenURI",
        "offset": 0,
        "slot": "13",
        "type": "t_string_storage"
      },
      {
        "astId": 6874,
        "contract": "contracts/SoulboundCreditReport.sol:SoulboundCreditReport",
        "label": "soulLinker",
        "offset": 0,
        "slot": "14",
        "type": "t_contract(ISoulLinker)6297"
      }
    ],
    "types": {
      "t_address": {
        "encoding": "inplace",
        "label": "address",
        "numberOfBytes": "20"
      },
      "t_array(t_uint256)dyn_storage": {
        "base": "t_uint256",
        "encoding": "dynamic_array",
        "label": "uint256[]",
        "numberOfBytes": "32"
      },
      "t_bool": {
        "encoding": "inplace",
        "label": "bool",
        "numberOfBytes": "1"
      },
      "t_bytes32": {
        "encoding": "inplace",
        "label": "bytes32",
        "numberOfBytes": "32"
      },
      "t_contract(ISoulLinker)6297": {
        "encoding": "inplace",
        "label": "contract ISoulLinker",
        "numberOfBytes": "20"
      },
      "t_mapping(t_address,t_bool)": {
        "encoding": "mapping",
        "key": "t_address",
        "label": "mapping(address => bool)",
        "numberOfBytes": "32",
        "value": "t_bool"
      },
      "t_mapping(t_address,t_mapping(t_address,t_bool))": {
        "encoding": "mapping",
        "key": "t_address",
        "label": "mapping(address => mapping(address => bool))",
        "numberOfBytes": "32",
        "value": "t_mapping(t_address,t_bool)"
      },
      "t_mapping(t_address,t_mapping(t_uint256,t_uint256))": {
        "encoding": "mapping",
        "key": "t_address",
        "label": "mapping(address => mapping(uint256 => uint256))",
        "numberOfBytes": "32",
        "value": "t_mapping(t_uint256,t_uint256)"
      },
      "t_mapping(t_address,t_uint256)": {
        "encoding": "mapping",
        "key": "t_address",
        "label": "mapping(address => uint256)",
        "numberOfBytes": "32",
        "value": "t_uint256"
      },
      "t_mapping(t_bytes32,t_struct(RoleData)19_storage)": {
        "encoding": "mapping",
        "key": "t_bytes32",
        "label": "mapping(bytes32 => struct AccessControl.RoleData)",
        "numberOfBytes": "32",
        "value": "t_struct(RoleData)19_storage"
      },
      "t_mapping(t_uint256,t_address)": {
        "encoding": "mapping",
        "key": "t_uint256",
        "label": "mapping(uint256 => address)",
        "numberOfBytes": "32",
        "value": "t_address"
      },
      "t_mapping(t_uint256,t_uint256)": {
        "encoding": "mapping",
        "key": "t_uint256",
        "label": "mapping(uint256 => uint256)",
        "numberOfBytes": "32",
        "value": "t_uint256"
      },
      "t_string_storage": {
        "encoding": "bytes",
        "label": "string",
        "numberOfBytes": "32"
      },
      "t_struct(Counter)3256_storage": {
        "encoding": "inplace",
        "label": "struct Counters.Counter",
        "members": [
          {
            "astId": 3255,
            "contract": "contracts/SoulboundCreditReport.sol:SoulboundCreditReport",
            "label": "_value",
            "offset": 0,
            "slot": "0",
            "type": "t_uint256"
          }
        ],
        "numberOfBytes": "32"
      },
      "t_struct(RoleData)19_storage": {
        "encoding": "inplace",
        "label": "struct AccessControl.RoleData",
        "members": [
          {
            "astId": 16,
            "contract": "contracts/SoulboundCreditReport.sol:SoulboundCreditReport",
            "label": "members",
            "offset": 0,
            "slot": "0",
            "type": "t_mapping(t_address,t_bool)"
          },
          {
            "astId": 18,
            "contract": "contracts/SoulboundCreditReport.sol:SoulboundCreditReport",
            "label": "adminRole",
            "offset": 0,
            "slot": "1",
            "type": "t_bytes32"
          }
        ],
        "numberOfBytes": "64"
      },
      "t_uint256": {
        "encoding": "inplace",
        "label": "uint256",
        "numberOfBytes": "32"
      }
    }
  }
}