{
  "address": "0x3f80F551459440524caeC9fce97fFB4B3F6BFFC0",
  "abi": [
    {
      "inputs": [
        {
          "internalType": "address",
          "name": "owner",
          "type": "address"
        },
        {
          "internalType": "contract ISoulboundIdentity",
          "name": "_soulboundIdentity",
          "type": "address"
        },
        {
          "internalType": "string",
          "name": "_extension",
          "type": "string"
        },
        {
          "internalType": "string",
          "name": "baseTokenURI",
          "type": "string"
        }
      ],
      "stateMutability": "nonpayable",
      "type": "constructor"
    },
    {
      "anonymous": false,
      "inputs": [
        {
          "indexed": true,
          "internalType": "address",
          "name": "owner",
          "type": "address"
        },
        {
          "indexed": true,
          "internalType": "address",
          "name": "approved",
          "type": "address"
        },
        {
          "indexed": true,
          "internalType": "uint256",
          "name": "tokenId",
          "type": "uint256"
        }
      ],
      "name": "Approval",
      "type": "event"
    },
    {
      "anonymous": false,
      "inputs": [
        {
          "indexed": true,
          "internalType": "address",
          "name": "owner",
          "type": "address"
        },
        {
          "indexed": true,
          "internalType": "address",
          "name": "operator",
          "type": "address"
        },
        {
          "indexed": false,
          "internalType": "bool",
          "name": "approved",
          "type": "bool"
        }
      ],
      "name": "ApprovalForAll",
      "type": "event"
    },
    {
      "anonymous": false,
      "inputs": [
        {
          "indexed": false,
          "internalType": "address",
          "name": "account",
          "type": "address"
        }
      ],
      "name": "Paused",
      "type": "event"
    },
    {
      "anonymous": false,
      "inputs": [
        {
          "indexed": true,
          "internalType": "bytes32",
          "name": "role",
          "type": "bytes32"
        },
        {
          "indexed": true,
          "internalType": "bytes32",
          "name": "previousAdminRole",
          "type": "bytes32"
        },
        {
          "indexed": true,
          "internalType": "bytes32",
          "name": "newAdminRole",
          "type": "bytes32"
        }
      ],
      "name": "RoleAdminChanged",
      "type": "event"
    },
    {
      "anonymous": false,
      "inputs": [
        {
          "indexed": true,
          "internalType": "bytes32",
          "name": "role",
          "type": "bytes32"
        },
        {
          "indexed": true,
          "internalType": "address",
          "name": "account",
          "type": "address"
        },
        {
          "indexed": true,
          "internalType": "address",
          "name": "sender",
          "type": "address"
        }
      ],
      "name": "RoleGranted",
      "type": "event"
    },
    {
      "anonymous": false,
      "inputs": [
        {
          "indexed": true,
          "internalType": "bytes32",
          "name": "role",
          "type": "bytes32"
        },
        {
          "indexed": true,
          "internalType": "address",
          "name": "account",
          "type": "address"
        },
        {
          "indexed": true,
          "internalType": "address",
          "name": "sender",
          "type": "address"
        }
      ],
      "name": "RoleRevoked",
      "type": "event"
    },
    {
      "anonymous": false,
      "inputs": [
        {
          "indexed": true,
          "internalType": "address",
          "name": "from",
          "type": "address"
        },
        {
          "indexed": true,
          "internalType": "address",
          "name": "to",
          "type": "address"
        },
        {
          "indexed": true,
          "internalType": "uint256",
          "name": "tokenId",
          "type": "uint256"
        }
      ],
      "name": "Transfer",
      "type": "event"
    },
    {
      "anonymous": false,
      "inputs": [
        {
          "indexed": false,
          "internalType": "address",
          "name": "account",
          "type": "address"
        }
      ],
      "name": "Unpaused",
      "type": "event"
    },
    {
      "inputs": [],
      "name": "DEFAULT_ADMIN_ROLE",
      "outputs": [
        {
          "internalType": "bytes32",
          "name": "",
          "type": "bytes32"
        }
      ],
      "stateMutability": "view",
      "type": "function"
    },
    {
      "inputs": [],
      "name": "MINTER_ROLE",
      "outputs": [
        {
          "internalType": "bytes32",
          "name": "",
          "type": "bytes32"
        }
      ],
      "stateMutability": "view",
      "type": "function"
    },
    {
      "inputs": [],
      "name": "PAUSER_ROLE",
      "outputs": [
        {
          "internalType": "bytes32",
          "name": "",
          "type": "bytes32"
        }
      ],
      "stateMutability": "view",
      "type": "function"
    },
    {
      "inputs": [
        {
          "internalType": "address",
          "name": "to",
          "type": "address"
        },
        {
          "internalType": "uint256",
          "name": "tokenId",
          "type": "uint256"
        }
      ],
      "name": "approve",
      "outputs": [],
      "stateMutability": "nonpayable",
      "type": "function"
    },
    {
      "inputs": [
        {
          "internalType": "address",
          "name": "owner",
          "type": "address"
        }
      ],
      "name": "balanceOf",
      "outputs": [
        {
          "internalType": "uint256",
          "name": "",
          "type": "uint256"
        }
      ],
      "stateMutability": "view",
      "type": "function"
    },
    {
      "inputs": [
        {
          "internalType": "uint256",
          "name": "tokenId",
          "type": "uint256"
        }
      ],
      "name": "burn",
      "outputs": [],
      "stateMutability": "nonpayable",
      "type": "function"
    },
    {
      "inputs": [],
      "name": "extension",
      "outputs": [
        {
          "internalType": "string",
          "name": "",
          "type": "string"
        }
      ],
      "stateMutability": "view",
      "type": "function"
    },
    {
      "inputs": [
        {
          "internalType": "uint256",
          "name": "tokenId",
          "type": "uint256"
        }
      ],
      "name": "getApproved",
      "outputs": [
        {
          "internalType": "address",
          "name": "",
          "type": "address"
        }
      ],
      "stateMutability": "view",
      "type": "function"
    },
    {
      "inputs": [],
      "name": "getExtension",
      "outputs": [
        {
          "internalType": "string",
          "name": "",
          "type": "string"
        }
      ],
      "stateMutability": "view",
      "type": "function"
    },
    {
      "inputs": [
        {
          "internalType": "bytes32",
          "name": "role",
          "type": "bytes32"
        }
      ],
      "name": "getRoleAdmin",
      "outputs": [
        {
          "internalType": "bytes32",
          "name": "",
          "type": "bytes32"
        }
      ],
      "stateMutability": "view",
      "type": "function"
    },
    {
      "inputs": [
        {
          "internalType": "uint256",
          "name": "identityId",
          "type": "uint256"
        }
      ],
      "name": "getSoulNames",
      "outputs": [
        {
          "internalType": "string[]",
          "name": "sbtNames",
          "type": "string[]"
        }
      ],
      "stateMutability": "view",
      "type": "function"
    },
    {
      "inputs": [
        {
          "internalType": "address",
          "name": "owner",
          "type": "address"
        }
      ],
      "name": "getSoulNames",
      "outputs": [
        {
          "internalType": "string[]",
          "name": "sbtNames",
          "type": "string[]"
        }
      ],
      "stateMutability": "view",
      "type": "function"
    },
    {
      "inputs": [
        {
          "internalType": "string",
          "name": "name",
          "type": "string"
        }
      ],
      "name": "getTokenData",
      "outputs": [
        {
          "internalType": "string",
          "name": "sbtName",
          "type": "string"
        },
        {
          "internalType": "uint256",
          "name": "identityId",
          "type": "uint256"
        },
        {
          "internalType": "uint256",
          "name": "expirationDate",
          "type": "uint256"
        },
        {
          "internalType": "bool",
          "name": "active",
          "type": "bool"
        }
      ],
      "stateMutability": "view",
      "type": "function"
    },
    {
      "inputs": [
        {
          "internalType": "bytes32",
          "name": "role",
          "type": "bytes32"
        },
        {
          "internalType": "address",
          "name": "account",
          "type": "address"
        }
      ],
      "name": "grantRole",
      "outputs": [],
      "stateMutability": "nonpayable",
      "type": "function"
    },
    {
      "inputs": [
        {
          "internalType": "bytes32",
          "name": "role",
          "type": "bytes32"
        },
        {
          "internalType": "address",
          "name": "account",
          "type": "address"
        }
      ],
      "name": "hasRole",
      "outputs": [
        {
          "internalType": "bool",
          "name": "",
          "type": "bool"
        }
      ],
      "stateMutability": "view",
      "type": "function"
    },
    {
      "inputs": [
        {
          "internalType": "address",
          "name": "owner",
          "type": "address"
        },
        {
          "internalType": "address",
          "name": "operator",
          "type": "address"
        }
      ],
      "name": "isApprovedForAll",
      "outputs": [
        {
          "internalType": "bool",
          "name": "",
          "type": "bool"
        }
      ],
      "stateMutability": "view",
      "type": "function"
    },
    {
      "inputs": [
        {
          "internalType": "string",
          "name": "name",
          "type": "string"
        }
      ],
      "name": "isAvailable",
      "outputs": [
        {
          "internalType": "bool",
          "name": "available",
          "type": "bool"
        }
      ],
      "stateMutability": "view",
      "type": "function"
    },
    {
      "inputs": [
        {
          "internalType": "address",
          "name": "to",
          "type": "address"
        },
        {
          "internalType": "string",
          "name": "name",
          "type": "string"
        },
        {
          "internalType": "uint256",
          "name": "identityId",
          "type": "uint256"
        },
        {
          "internalType": "uint256",
          "name": "yearsPeriod",
          "type": "uint256"
        }
      ],
      "name": "mint",
      "outputs": [
        {
          "internalType": "uint256",
          "name": "",
          "type": "uint256"
        }
      ],
      "stateMutability": "nonpayable",
      "type": "function"
    },
    {
      "inputs": [],
      "name": "name",
      "outputs": [
        {
          "internalType": "string",
          "name": "",
          "type": "string"
        }
      ],
      "stateMutability": "view",
      "type": "function"
    },
    {
      "inputs": [
        {
          "internalType": "string",
          "name": "",
          "type": "string"
        }
      ],
      "name": "nameData",
      "outputs": [
        {
          "internalType": "bool",
          "name": "exists",
          "type": "bool"
        },
        {
          "internalType": "uint256",
          "name": "tokenId",
          "type": "uint256"
        }
      ],
      "stateMutability": "view",
      "type": "function"
    },
    {
      "inputs": [
        {
          "internalType": "uint256",
          "name": "tokenId",
          "type": "uint256"
        }
      ],
      "name": "ownerOf",
      "outputs": [
        {
          "internalType": "address",
          "name": "",
          "type": "address"
        }
      ],
      "stateMutability": "view",
      "type": "function"
    },
    {
      "inputs": [],
      "name": "pause",
      "outputs": [],
      "stateMutability": "nonpayable",
      "type": "function"
    },
    {
      "inputs": [],
      "name": "paused",
      "outputs": [
        {
          "internalType": "bool",
          "name": "",
          "type": "bool"
        }
      ],
      "stateMutability": "view",
      "type": "function"
    },
    {
      "inputs": [
        {
          "internalType": "uint256",
          "name": "tokenId",
          "type": "uint256"
        },
        {
          "internalType": "uint256",
          "name": "yearsPeriod",
          "type": "uint256"
        }
      ],
      "name": "renewYearsPeriod",
      "outputs": [],
      "stateMutability": "nonpayable",
      "type": "function"
    },
    {
      "inputs": [
        {
          "internalType": "bytes32",
          "name": "role",
          "type": "bytes32"
        },
        {
          "internalType": "address",
          "name": "account",
          "type": "address"
        }
      ],
      "name": "renounceRole",
      "outputs": [],
      "stateMutability": "nonpayable",
      "type": "function"
    },
    {
      "inputs": [
        {
          "internalType": "bytes32",
          "name": "role",
          "type": "bytes32"
        },
        {
          "internalType": "address",
          "name": "account",
          "type": "address"
        }
      ],
      "name": "revokeRole",
      "outputs": [],
      "stateMutability": "nonpayable",
      "type": "function"
    },
    {
      "inputs": [
        {
          "internalType": "address",
          "name": "from",
          "type": "address"
        },
        {
          "internalType": "address",
          "name": "to",
          "type": "address"
        },
        {
          "internalType": "uint256",
          "name": "tokenId",
          "type": "uint256"
        }
      ],
      "name": "safeTransferFrom",
      "outputs": [],
      "stateMutability": "nonpayable",
      "type": "function"
    },
    {
      "inputs": [
        {
          "internalType": "address",
          "name": "from",
          "type": "address"
        },
        {
          "internalType": "address",
          "name": "to",
          "type": "address"
        },
        {
          "internalType": "uint256",
          "name": "tokenId",
          "type": "uint256"
        },
        {
          "internalType": "bytes",
          "name": "data",
          "type": "bytes"
        }
      ],
      "name": "safeTransferFrom",
      "outputs": [],
      "stateMutability": "nonpayable",
      "type": "function"
    },
    {
      "inputs": [
        {
          "internalType": "address",
          "name": "operator",
          "type": "address"
        },
        {
          "internalType": "bool",
          "name": "approved",
          "type": "bool"
        }
      ],
      "name": "setApprovalForAll",
      "outputs": [],
      "stateMutability": "nonpayable",
      "type": "function"
    },
    {
      "inputs": [
        {
          "internalType": "string",
          "name": "_extension",
          "type": "string"
        }
      ],
      "name": "setExtension",
      "outputs": [],
      "stateMutability": "nonpayable",
      "type": "function"
    },
    {
      "inputs": [
        {
          "internalType": "contract ISoulboundIdentity",
          "name": "_soulboundIdentity",
          "type": "address"
        }
      ],
      "name": "setSoulboundIdentity",
      "outputs": [],
      "stateMutability": "nonpayable",
      "type": "function"
    },
    {
      "inputs": [],
      "name": "soulboundIdentity",
      "outputs": [
        {
          "internalType": "contract ISoulboundIdentity",
          "name": "",
          "type": "address"
        }
      ],
      "stateMutability": "view",
      "type": "function"
    },
    {
      "inputs": [
        {
          "internalType": "bytes4",
          "name": "interfaceId",
          "type": "bytes4"
        }
      ],
      "name": "supportsInterface",
      "outputs": [
        {
          "internalType": "bool",
          "name": "",
          "type": "bool"
        }
      ],
      "stateMutability": "view",
      "type": "function"
    },
    {
      "inputs": [],
      "name": "symbol",
      "outputs": [
        {
          "internalType": "string",
          "name": "",
          "type": "string"
        }
      ],
      "stateMutability": "view",
      "type": "function"
    },
    {
      "inputs": [
        {
          "internalType": "uint256",
          "name": "index",
          "type": "uint256"
        }
      ],
      "name": "tokenByIndex",
      "outputs": [
        {
          "internalType": "uint256",
          "name": "",
          "type": "uint256"
        }
      ],
      "stateMutability": "view",
      "type": "function"
    },
    {
      "inputs": [
        {
          "internalType": "uint256",
          "name": "",
          "type": "uint256"
        }
      ],
      "name": "tokenData",
      "outputs": [
        {
          "internalType": "string",
          "name": "name",
          "type": "string"
        },
        {
          "internalType": "uint256",
          "name": "identityId",
          "type": "uint256"
        },
        {
          "internalType": "uint256",
          "name": "expirationDate",
          "type": "uint256"
        }
      ],
      "stateMutability": "view",
      "type": "function"
    },
    {
      "inputs": [
        {
          "internalType": "address",
          "name": "owner",
          "type": "address"
        },
        {
          "internalType": "uint256",
          "name": "index",
          "type": "uint256"
        }
      ],
      "name": "tokenOfOwnerByIndex",
      "outputs": [
        {
          "internalType": "uint256",
          "name": "",
          "type": "uint256"
        }
      ],
      "stateMutability": "view",
      "type": "function"
    },
    {
      "inputs": [
        {
          "internalType": "uint256",
          "name": "tokenId",
          "type": "uint256"
        }
      ],
      "name": "tokenURI",
      "outputs": [
        {
          "internalType": "string",
          "name": "",
          "type": "string"
        }
      ],
      "stateMutability": "view",
      "type": "function"
    },
    {
      "inputs": [],
      "name": "totalSupply",
      "outputs": [
        {
          "internalType": "uint256",
          "name": "",
          "type": "uint256"
        }
      ],
      "stateMutability": "view",
      "type": "function"
    },
    {
      "inputs": [
        {
          "internalType": "address",
          "name": "from",
          "type": "address"
        },
        {
          "internalType": "address",
          "name": "to",
          "type": "address"
        },
        {
          "internalType": "uint256",
          "name": "tokenId",
          "type": "uint256"
        }
      ],
      "name": "transferFrom",
      "outputs": [],
      "stateMutability": "nonpayable",
      "type": "function"
    },
    {
      "inputs": [],
      "name": "unpause",
      "outputs": [],
      "stateMutability": "nonpayable",
      "type": "function"
    },
    {
      "inputs": [
        {
          "internalType": "uint256",
          "name": "tokenId",
          "type": "uint256"
        },
        {
          "internalType": "uint256",
          "name": "identityId",
          "type": "uint256"
        }
      ],
      "name": "updateIdentityId",
      "outputs": [],
      "stateMutability": "nonpayable",
      "type": "function"
    }
  ],
  "transactionHash": "0x067999b702a21d0790b37d121df624bd06fd763bb9bf7d99f6704ef39edddc71",
  "args": [
    "0x3c8D9f130970358b7E8cbc1DbD0a1EbA6EBE368F",
    "0xF8625D0131116A13BC2e8d5953f6ed8A3F7C7353",
    ".soul",
    "https://beta.metadata.masa.finance/v1.0/name/"
  ],
  "numDeployments": 2,
  "solcInputHash": "b1fb53963dd8eea3dd3b254d6891160f",
  "bytecode": "0x60806040523480156200001157600080fd5b50604051620041c0380380620041c083398101604081905262000034916200038f565b60408051808201825260128152714d617361204964656e74697479204e616d6560701b60208083019182528351808501909452600384526226a4a760e91b9084015281518793918591849184916200008f9160009162000256565b508051620000a590600190602084019062000256565b5050600a805460ff1916905550620000bf6000856200019e565b620000eb7f65d7a28e3265b37a6474929f336521b332c1681b933f6cb9f3376673440d862a856200019e565b620001177f9f2df0fed2c77648de5860a4cc508cd0818c85b8b8a1ab4ceeef8d981c8956a6856200019e565b80516200012c90600d90602084019062000256565b50505050506001600160a01b038316620001635760405162461bcd60e51b81526004016200015a9062000435565b60405180910390fd5b600e80546001600160a01b0319166001600160a01b03851617905581516200019390600f90602085019062000256565b5050505050620005bf565b620001aa828262000229565b62000225576000828152600b602090815260408083206001600160a01b03851684529091529020805460ff19166001179055620001e43390565b6001600160a01b0316816001600160a01b0316837f2f8788117e7eff1d82e926ec794901d17c78024a50270940304540a733656f0d60405160405180910390a45b5050565b6000828152600b602090815260408083206001600160a01b038516845290915290205460ff165b92915050565b828054620002649062000501565b90600052602060002090601f016020900481019282620002885760008555620002d3565b82601f10620002a357805160ff1916838001178555620002d3565b82800160010185558215620002d3579182015b82811115620002d3578251825591602001919060010190620002b6565b50620002e1929150620002e5565b5090565b5b80821115620002e15760008155600101620002e6565b6000620003136200030d846200047f565b62000460565b905082815260208101848484011115620003305762000330600080fd5b6200033d848285620004ce565b509392505050565b805162000250816200059a565b80516200025081620005b4565b600082601f830112620003755762000375600080fd5b815162000387848260208601620002fc565b949350505050565b60008060008060808587031215620003aa57620003aa600080fd5b6000620003b8878762000345565b9450506020620003cb8782880162000352565b93505060408501516001600160401b03811115620003ec57620003ec600080fd5b620003fa878288016200035f565b92505060608501516001600160401b038111156200041b576200041b600080fd5b62000429878288016200035f565b91505092959194509250565b602080825281016200025081600c81526b5a45524f5f4144445245535360a01b602082015260400190565b60006200046c60405190565b90506200047a828262000532565b919050565b60006001600160401b038211156200049b576200049b6200057a565b620004a68262000590565b60200192915050565b60006001600160a01b03821662000250565b60006200025082620004af565b60005b83811015620004eb578181015183820152602001620004d1565b83811115620004fb576000848401525b50505050565b6002810460018216806200051657607f821691505b602082108114156200052c576200052c62000564565b50919050565b6200053d8262000590565b81018181106001600160401b03821117156200055d576200055d6200057a565b6040525050565b634e487b7160e01b600052602260045260246000fd5b634e487b7160e01b600052604160045260246000fd5b601f01601f191690565b620005a581620004af565b8114620005b157600080fd5b50565b620005a581620004c1565b613bf180620005cf6000396000f3fe608060405234801561001057600080fd5b50600436106101ee5760003560e01c806301ffc9a7146101f357806306fdde031461021c578063081812fc14610231578063095ea7b31461025157806318160ddd1461026657806323b872dd14610277578063248a9ca31461028a5780632d5537b01461029d5780632f2ff15d146102a55780632f745c59146102b857806336568abe146102cb5780633ad3033e146102de5780633d44f8e0146102f15780633f4ba83a1461030457806342842e0e1461030c57806342966c681461031f57806346b2b087146103325780634a5dc3aa146103555780634f6ccce7146103685780635c975abb1461037b5780636352211e1461038657806370a0823114610399578063776ce6a1146103ac57806377bed5ed146103b45780637e2285aa146103d45780637e669891146103e75780638456cb591461040757806391d148541461040f57806395d89b4114610422578063965306aa1461042a578063a217fddf1461043d578063a22cb46514610445578063b4b5b48f14610458578063b79636b61461047a578063b88d4fde1461048d578063bdf29a85146104a0578063c87b56dd146104e6578063d5391393146104f9578063d547741f1461050e578063e63ab1e914610521578063e985e9c514610536578063ebfcbee114610549575b600080fd5b610206610201366004612d61565b61055c565b6040516102139190613659565b60405180910390f35b61022461056d565b604051610213919061369e565b61024461023f366004612d1e565b6105ff565b60405161021391906135f6565b61026461025f366004612ceb565b610626565b005b6008545b6040516102139190613682565b610264610285366004612b78565b6106b5565b61026a610298366004612d1e565b6106e7565b6102246106fc565b6102646102b3366004612d3f565b61078a565b61026a6102c6366004612ceb565b6107a6565b6102646102d9366004612d3f565b6107f8565b6102646102ec366004612da3565b61082e565b6102646102ff366004612e1f565b6108b0565b610264610aad565b61026461031a366004612b78565b610ad0565b61026461032d366004612d1e565b610aeb565b610345610340366004612dc4565b610bdb565b60405161021394939291906136dc565b61026a610363366004612c79565b610d47565b61026a610376366004612d1e565b610f69565b600a5460ff16610206565b610244610394366004612d1e565b610fb7565b61026a6103a7366004612af9565b610fec565b610224611030565b600e546103c7906001600160a01b031681565b6040516102139190613690565b6102646103e2366004612dc4565b61103f565b6103fa6103f5366004612d1e565b6110ca565b6040516102139190613648565b6102646113ff565b61020661041d366004612d3f565b61141f565b61022461144a565b610206610438366004612dc4565b611459565b61026a600081565b610264610453366004612c46565b6114e0565b61046b610466366004612d1e565b6114eb565b604051610213939291906136af565b6103fa610488366004612af9565b611595565b61026461049b366004612bc8565b61162d565b6104d86104ae366004612dc4565b80516020818301810180516011825292820191909301209152805460019091015460ff9091169082565b604051610213929190613667565b6102246104f4366004612d1e565b611664565b61026a600080516020613b7c83398151915281565b61026461051c366004612d3f565b6116ca565b61026a600080516020613b5c83398151915281565b610206610544366004612b3b565b6116e6565b610264610557366004612e1f565b611714565b600061056782611862565b92915050565b60606000805461057c90613a0f565b80601f01602080910402602001604051908101604052809291908181526020018280546105a890613a0f565b80156105f55780601f106105ca576101008083540402835291602001916105f5565b820191906000526020600020905b8154815290600101906020018083116105d857829003601f168201915b5050505050905090565b600061060a82611887565b506000908152600460205260409020546001600160a01b031690565b600061063182610fb7565b9050806001600160a01b0316836001600160a01b0316141561066e5760405162461bcd60e51b81526004016106659061387f565b60405180910390fd5b336001600160a01b038216148061068a575061068a81336116e6565b6106a65760405162461bcd60e51b81526004016106659061382f565b6106b083836118ac565b505050565b6106c0335b8261191a565b6106dc5760405162461bcd60e51b8152600401610665906138af565b6106b0838383611978565b6000908152600b602052604090206001015490565b600f805461070990613a0f565b80601f016020809104026020016040519081016040528092919081815260200182805461073590613a0f565b80156107825780601f1061075757610100808354040283529160200191610782565b820191906000526020600020905b81548152906001019060200180831161076557829003601f168201915b505050505081565b610793826106e7565b61079c81611a93565b6106b08383611a9d565b60006107b183610fec565b82106107cf5760405162461bcd60e51b81526004016106659061373f565b506001600160a01b03919091166000908152600660209081526040808320938352929052205490565b6001600160a01b03811633146108205760405162461bcd60e51b8152600401610665906138bf565b61082a8282611b23565b5050565b600061083981611a93565b6001600160a01b03821661085f5760405162461bcd60e51b81526004016106659061380f565b600e546001600160a01b038381169116141561088d5760405162461bcd60e51b8152600401610665906137bf565b50600e80546001600160a01b0319166001600160a01b0392909216919091179055565b6108bb335b8361191a565b6108d75760405162461bcd60e51b81526004016106659061381f565b600e546040516331a9108f60e11b81526000916001600160a01b031690636352211e90610908908590600401613682565b60206040518083038186803b15801561092057600080fd5b505afa158015610934573d6000803e3d6000fd5b505050506040513d601f19601f820116820180604052508101906109589190612b1a565b6001600160a01b0316141561097f5760405162461bcd60e51b81526004016106659061385f565b600082815260106020526040902060010154818114156109b15760405162461bcd60e51b8152600401610665906137bf565b6000838152601060205260408120600181018490558054610a5991906109d690613a0f565b80601f0160208091040260200160405190810160405280929190818152602001828054610a0290613a0f565b8015610a4f5780601f10610a2457610100808354040283529160200191610a4f565b820191906000526020600020905b815481529060010190602001808311610a3257829003601f168201915b5050505050611b8a565b6000838152601260205260409020909150610a749082611d00565b600083815260126020908152604082208054600181018255908352918190208351610aa69391909101918401906128f6565b5050505050565b600080516020613b5c833981519152610ac581611a93565b610acd611e1e565b50565b6106b08383836040518060200160405280600081525061162d565b610af481611e6a565b610b105760405162461bcd60e51b81526004016106659061384f565b60008181526010602052604081208054610b2e91906109d690613a0f565b6000838152601060205260408120600181015492935090610b4f828261297a565b60018201600090556002820160009055505082601183604051610b72919061355e565b9081526020016040518091039020600101541415610bba57601182604051610b9a919061355e565b908152604051908190036020019020805460ff1916815560006001909101555b6000818152601260205260409020610bd29083611d00565b6106b083611e87565b6060600080600080610bec86611b8a565b9050601181604051610bfe919061355e565b9081526040519081900360200190205460ff16610c2d5760405162461bcd60e51b81526004016106659061388f565b6000601182604051610c3f919061355e565b9081526020016040518091039020600101549050600060106000838152602001908152602001600020604051806060016040529081600082018054610c8390613a0f565b80601f0160208091040260200160405190810160405280929190818152602001828054610caf90613a0f565b8015610cfc5780601f10610cd157610100808354040283529160200191610cfc565b820191906000526020600020905b815481529060010190602001808311610cdf57829003601f168201915b50505050508152602001600182015481526020016002820154815250509050610d288160000151611eb5565b6020820151604090920151909991985096504287101595509350505050565b6000610d5284611459565b15610d6f5760405162461bcd60e51b81526004016106659061377f565b6000845111610d905760405162461bcd60e51b81526004016106659061378f565b60008211610db05760405162461bcd60e51b8152600401610665906137ff565b600e546040516331a9108f60e11b81526000916001600160a01b031690636352211e90610de1908790600401613682565b60206040518083038186803b158015610df957600080fd5b505afa158015610e0d573d6000803e3d6000fd5b505050506040513d601f19601f82011682018060405250810190610e319190612b1a565b6001600160a01b03161415610e585760405162461bcd60e51b81526004016106659061385f565b6000610e6386611ee1565b60008181526010602090815260409091208751929350610e879290918801906128f6565b506000818152601060205260409020600101849055610eb4610ead6301e1338085611f20565b4290611f2c565b600082815260106020526040812060020191909155610ed286611b8a565b905081601182604051610ee5919061355e565b9081526020016040518091039020600101819055506001601182604051610f0c919061355e565b9081526040805160209281900383019020805460ff1916931515939093179092556000878152601282529182208054600181018255908352918190208351610f5b9391909101918401906128f6565b50909150505b949350505050565b6000610f7460085490565b8210610f925760405162461bcd60e51b81526004016106659061389f565b60088281548110610fa557610fa5613aea565b90600052602060002001549050919050565b6000818152600260205260408120546001600160a01b0316806105675760405162461bcd60e51b81526004016106659061386f565b60006001600160a01b0382166110145760405162461bcd60e51b8152600401610665906137ef565b506001600160a01b031660009081526003602052604090205490565b6060600f805461057c90613a0f565b600061104a81611a93565b8160405160200161105b919061355e565b60405160208183030381529060405280519060200120600f6040516020016110839190613598565b6040516020818303038152906040528051906020012014156110b75760405162461bcd60e51b8152600401610665906137bf565b81516106b090600f9060208501906128f6565b60606000805b60008481526012602052604090205481101561122957600084815260126020526040812080548390811061110657611106613aea565b90600052602060002001805461111b90613a0f565b80601f016020809104026020016040519081016040528092919081815260200182805461114790613a0f565b80156111945780601f1061116957610100808354040283529160200191611194565b820191906000526020600020905b81548152906001019060200180831161117757829003601f168201915b505050505090506011816040516111ab919061355e565b9081526040519081900360200190205460ff16156112165760006011826040516111d5919061355e565b90815260200160405180910390206001015490504260106000838152602001908152602001600020600201541061121457611211846001611f2c565b93505b505b508061122181613a63565b9150506110d0565b506000816001600160401b0381111561124457611244613b00565b60405190808252806020026020018201604052801561127757816020015b60608152602001906001900390816112625790505b5090506000805b6000868152601260205260409020548110156113f55760008681526012602052604081208054839081106112b4576112b4613aea565b9060005260206000200180546112c990613a0f565b80601f01602080910402602001604051908101604052809291908181526020018280546112f590613a0f565b80156113425780601f1061131757610100808354040283529160200191611342565b820191906000526020600020905b81548152906001019060200180831161132557829003601f168201915b50505050509050601181604051611359919061355e565b9081526040519081900360200190205460ff16156113e2576000601182604051611383919061355e565b9081526020016040518091039020600101549050426010600083815260200190815260200160002060020154106113e057818585815181106113c7576113c7613aea565b60209081029190910101526113dd846001611f2c565b93505b505b50806113ed81613a63565b91505061127e565b5090949350505050565b600080516020613b5c83398151915261141781611a93565b610acd611f38565b6000918252600b602090815260408084206001600160a01b0393909316845291905290205460ff1690565b60606001805461057c90613a0f565b60008061146583611b8a565b9050601181604051611477919061355e565b9081526040519081900360200190205460ff16156114d15760006011826040516114a1919061355e565b90815260408051602092819003830190206001015460009081526010909252902060020154421115949350505050565b50600092915050565b50919050565b61082a338383611f75565b60106020526000908152604090208054819061150690613a0f565b80601f016020809104026020016040519081016040528092919081815260200182805461153290613a0f565b801561157f5780601f106115545761010080835404028352916020019161157f565b820191906000526020600020905b81548152906001019060200180831161156257829003601f168201915b5050505050908060010154908060020154905083565b600e5460405163294cdf0d60e01b81526060916000916001600160a01b039091169063294cdf0d906115cb9086906004016135f6565b60206040518083038186803b1580156115e357600080fd5b505afa1580156115f7573d6000803e3d6000fd5b505050506040513d601f19601f8201168201806040525081019061161b9190612dfe565b9050611626816110ca565b9392505050565b611636336108b5565b6116525760405162461bcd60e51b8152600401610665906138af565b61165e84848484612018565b50505050565b606061166f82611887565b600061167961204b565b905060008151116116995760405180602001604052806000815250611626565b806116a38461205a565b6040516020016116b492919061356a565b6040516020818303038152906040529392505050565b6116d3826106e7565b6116dc81611a93565b6106b08383611b23565b6001600160a01b03918216600090815260056020908152604080832093909416825291909152205460ff1690565b61171d336108b5565b6117395760405162461bcd60e51b81526004016106659061381f565b600081116117595760405162461bcd60e51b8152600401610665906137ff565b6000828152601060205260408120805461177791906109d690613a0f565b9050601181604051611789919061355e565b9081526040519081900360200190205460ff166117b85760405162461bcd60e51b81526004016106659061388f565b826011826040516117c9919061355e565b908152602001604051809103902060010154146117f85760405162461bcd60e51b8152600401610665906137cf565b60008381526010602052604090206002015442111561183957611822610ead6301e1338084611f20565b600084815260106020526040902060020155505050565b61182261184a6301e1338084611f20565b60008581526010602052604090206002015490611f2c565b60006001600160e01b03198216637965db0b60e01b1480610567575061056782612157565b61189081611e6a565b610acd5760405162461bcd60e51b81526004016106659061386f565b600081815260046020526040902080546001600160a01b0319166001600160a01b03841690811790915581906118e182610fb7565b6001600160a01b03167f8c5be1e5ebec7d5bd14f71427d1e84f3dd0314c0f7b2291e5b200ac8c7c3b92560405160405180910390a45050565b60008061192683610fb7565b9050806001600160a01b0316846001600160a01b0316148061194d575061194d81856116e6565b80610f615750836001600160a01b0316611966846105ff565b6001600160a01b031614949350505050565b826001600160a01b031661198b82610fb7565b6001600160a01b0316146119b15760405162461bcd60e51b81526004016106659061375f565b6001600160a01b0382166119d75760405162461bcd60e51b81526004016106659061379f565b6119e283838361217c565b6119ed6000826118ac565b6001600160a01b0383166000908152600360205260408120805460019290611a16908490613982565b90915550506001600160a01b0382166000908152600360205260408120805460019290611a44908490613916565b909155505060008181526002602052604080822080546001600160a01b0319166001600160a01b038681169182179092559151849391871691600080516020613b9c83398151915291a4505050565b610acd813361218f565b611aa7828261141f565b61082a576000828152600b602090815260408083206001600160a01b03851684529091529020805460ff19166001179055611adf3390565b6001600160a01b0316816001600160a01b0316837f2f8788117e7eff1d82e926ec794901d17c78024a50270940304540a733656f0d60405160405180910390a45050565b611b2d828261141f565b1561082a576000828152600b602090815260408083206001600160a01b0385168085529252808320805460ff1916905551339285917ff6391f5c32d9c69d2a47ea670b442974b53935d1edc7fd64eb21e047a839171b9190a45050565b60606000829050600081516001600160401b03811115611bac57611bac613b00565b6040519080825280601f01601f191660200182016040528015611bd6576020820181803683370190505b50905060005b8251811015611cf857604160f81b838281518110611bfc57611bfc613aea565b01602001516001600160f81b03191610801590611c3d5750605a60f81b838281518110611c2b57611c2b613aea565b01602001516001600160f81b03191611155b15611c9f57828181518110611c5457611c54613aea565b602001015160f81c60f81b60f81c6020611c6e919061392e565b60f81b828281518110611c8357611c83613aea565b60200101906001600160f81b031916908160001a905350611ce6565b828181518110611cb157611cb1613aea565b602001015160f81c60f81b828281518110611cce57611cce613aea565b60200101906001600160f81b031916908160001a9053505b80611cf081613a63565b915050611bdc565b509392505050565b60005b82548110156106b05781604051602001611d1d919061355e565b60405160208183030381529060405280519060200120838281548110611d4557611d45613aea565b90600052602060002001604051602001611d5f9190613598565b604051602081830303815290604052805190602001201415611e0c5782548390611d8b90600190613982565b81548110611d9b57611d9b613aea565b90600052602060002001838281548110611db757611db7613aea565b90600052602060002001908054611dcd90613a0f565b611dd89291906129b4565b5082805480611de957611de9613ad4565b600190038181906000526020600020016000611e05919061297a565b9055505050565b80611e1681613a63565b915050611d03565b611e266121f3565b600a805460ff191690557f5db9ee0a495bf2e6ff9c91a7834c1ba4fdd244a5e8aa4e537bd38aeae4b073aa335b604051611e6091906135f6565b60405180910390a1565b6000908152600260205260409020546001600160a01b0316151590565b611e90336106ba565b611eac5760405162461bcd60e51b8152600401610665906138af565b610acd81612217565b606081600f604051602001611ecb929190613546565b6040516020818303038152906040529050919050565b6000600080516020613b7c833981519152611efb81611a93565b6000611f06600c5490565b9050611f16600c80546001019055565b61162684826122ac565b60006116268284613963565b60006116268284613916565b611f406122c6565b600a805460ff191660011790557f62e78cea01bee320cd4e420270b5ea74000d11b0c9f74754ebdbfc544b05a258611e533390565b816001600160a01b0316836001600160a01b03161415611fa75760405162461bcd60e51b8152600401610665906137af565b6001600160a01b0383811660008181526005602090815260408083209487168084529490915290819020805460ff1916851515179055517f17307eab39ab6107e8899845ad3d59bd9653f200f220920489ca2b5937696c319061200b908590613659565b60405180910390a3505050565b612023848484611978565b61202f848484846122e9565b61165e5760405162461bcd60e51b81526004016106659061374f565b6060600d805461057c90613a0f565b60608161207e5750506040805180820190915260018152600360fc1b602082015290565b8160005b81156120a8578061209281613a63565b91506120a19050600a8361394f565b9150612082565b6000816001600160401b038111156120c2576120c2613b00565b6040519080825280601f01601f1916602001820160405280156120ec576020820181803683370190505b5090505b8415610f6157612101600183613982565b915061210e600a86613a7e565b612119906030613916565b60f81b81838151811061212e5761212e613aea565b60200101906001600160f81b031916908160001a905350612150600a8661394f565b94506120f0565b60006001600160e01b0319821663780e9d6360e01b14806105675750610567826123f3565b6121846122c6565b6106b0838383612443565b612199828261141f565b61082a576121b1816001600160a01b031660146124fb565b6121bc8360206124fb565b6040516020016121cd9291906135a4565b60408051601f198184030181529082905262461bcd60e51b82526106659160040161369e565b600a5460ff166122155760405162461bcd60e51b81526004016106659061372f565b565b600061222282610fb7565b90506122308160008461217c565b61223b6000836118ac565b6001600160a01b0381166000908152600360205260408120805460019290612264908490613982565b909155505060008281526002602052604080822080546001600160a01b0319169055518391906001600160a01b03841690600080516020613b9c833981519152908390a45050565b61082a828260405180602001604052806000815250612666565b600a5460ff16156122155760405162461bcd60e51b8152600401610665906137df565b60006001600160a01b0384163b156123eb57604051630a85bd0160e11b81526001600160a01b0385169063150b7a029061232d903390899088908890600401613604565b602060405180830381600087803b15801561234757600080fd5b505af1925050508015612377575060408051601f3d908101601f1916820190925261237491810190612d82565b60015b6123d1573d8080156123a5576040519150601f19603f3d011682016040523d82523d6000602084013e6123aa565b606091505b5080516123c95760405162461bcd60e51b81526004016106659061374f565b805181602001fd5b6001600160e01b031916630a85bd0160e11b149050610f61565b506001610f61565b60006001600160e01b031982166380ac58cd60e01b148061242457506001600160e01b03198216635b5e139f60e01b145b8061056757506301ffc9a760e01b6001600160e01b0319831614610567565b6001600160a01b03831661249e5761249981600880546000838152600960205260408120829055600182018355919091527ff3f7a9fe364faab93b216da50a3214154f22a0a2b415b23a84c8169e8b636ee30155565b6124c1565b816001600160a01b0316836001600160a01b0316146124c1576124c18382612699565b6001600160a01b0382166124d8576106b081612736565b826001600160a01b0316826001600160a01b0316146106b0576106b082826127e5565b6060600061250a836002613963565b612515906002613916565b6001600160401b0381111561252c5761252c613b00565b6040519080825280601f01601f191660200182016040528015612556576020820181803683370190505b509050600360fc1b8160008151811061257157612571613aea565b60200101906001600160f81b031916908160001a905350600f60fb1b816001815181106125a0576125a0613aea565b60200101906001600160f81b031916908160001a90535060006125c4846002613963565b6125cf906001613916565b90505b6001811115612647576f181899199a1a9b1b9c1cb0b131b232b360811b85600f166010811061260357612603613aea565b1a60f81b82828151811061261957612619613aea565b60200101906001600160f81b031916908160001a90535060049490941c93612640816139f8565b90506125d2565b5083156116265760405162461bcd60e51b81526004016106659061371f565b6126708383612829565b61267d60008484846122e9565b6106b05760405162461bcd60e51b81526004016106659061374f565b600060016126a684610fec565b6126b09190613982565b600083815260076020526040902054909150808214612703576001600160a01b03841660009081526006602090815260408083208584528252808320548484528184208190558352600790915290208190555b5060009182526007602090815260408084208490556001600160a01b039094168352600681528383209183525290812055565b60085460009061274890600190613982565b6000838152600960205260408120546008805493945090928490811061277057612770613aea565b90600052602060002001549050806008838154811061279157612791613aea565b60009182526020808320909101929092558281526009909152604080822084905585825281205560088054806127c9576127c9613ad4565b6001900381819060005260206000200160009055905550505050565b60006127f083610fec565b6001600160a01b039093166000908152600660209081526040808320868452825280832085905593825260079052919091209190915550565b6001600160a01b03821661284f5760405162461bcd60e51b81526004016106659061383f565b61285881611e6a565b156128755760405162461bcd60e51b81526004016106659061376f565b6128816000838361217c565b6001600160a01b03821660009081526003602052604081208054600192906128aa908490613916565b909155505060008181526002602052604080822080546001600160a01b0319166001600160a01b0386169081179091559051839290600080516020613b9c833981519152908290a45050565b82805461290290613a0f565b90600052602060002090601f016020900481019282612924576000855561296a565b82601f1061293d57805160ff191683800117855561296a565b8280016001018555821561296a579182015b8281111561296a57825182559160200191906001019061294f565b50612976929150612a2f565b5090565b50805461298690613a0f565b6000825580601f10612996575050565b601f016020900490600052602060002090810190610acd9190612a2f565b8280546129c090613a0f565b90600052602060002090601f0160209004810192826129e2576000855561296a565b82601f106129f3578054855561296a565b8280016001018555821561296a57600052602060002091601f016020900482015b8281111561296a578254825591600101919060010190612a14565b5b808211156129765760008155600101612a30565b6000612a57612a52846138eb565b6138cf565b905082815260208101848484011115612a7257612a72600080fd5b611cf88482856139c0565b803561056781613b20565b805161056781613b20565b803561056781613b34565b803561056781613b3c565b803561056781613b42565b805161056781613b42565b600082601f830112612ad357612ad3600080fd5b8135610f61848260208601612a44565b803561056781613b52565b805161056781613b3c565b600060208284031215612b0e57612b0e600080fd5b6000610f618484612a7d565b600060208284031215612b2f57612b2f600080fd5b6000610f618484612a88565b60008060408385031215612b5157612b51600080fd5b6000612b5d8585612a7d565b9250506020612b6e85828601612a7d565b9150509250929050565b600080600060608486031215612b9057612b90600080fd5b6000612b9c8686612a7d565b9350506020612bad86828701612a7d565b9250506040612bbe86828701612a9e565b9150509250925092565b60008060008060808587031215612be157612be1600080fd5b6000612bed8787612a7d565b9450506020612bfe87828801612a7d565b9350506040612c0f87828801612a9e565b92505060608501356001600160401b03811115612c2e57612c2e600080fd5b612c3a87828801612abf565b91505092959194509250565b60008060408385031215612c5c57612c5c600080fd5b6000612c688585612a7d565b9250506020612b6e85828601612a93565b60008060008060808587031215612c9257612c92600080fd5b6000612c9e8787612a7d565b94505060208501356001600160401b03811115612cbd57612cbd600080fd5b612cc987828801612abf565b9350506040612cda87828801612a9e565b9250506060612c3a87828801612a9e565b60008060408385031215612d0157612d01600080fd5b6000612d0d8585612a7d565b9250506020612b6e85828601612a9e565b600060208284031215612d3357612d33600080fd5b6000610f618484612a9e565b60008060408385031215612d5557612d55600080fd5b6000612b5d8585612a9e565b600060208284031215612d7657612d76600080fd5b6000610f618484612aa9565b600060208284031215612d9757612d97600080fd5b6000610f618484612ab4565b600060208284031215612db857612db8600080fd5b6000610f618484612ae3565b600060208284031215612dd957612dd9600080fd5b81356001600160401b03811115612df257612df2600080fd5b610f6184828501612abf565b600060208284031215612e1357612e13600080fd5b6000610f618484612aee565b60008060408385031215612e3557612e35600080fd5b6000612d0d8585612a9e565b60006116268383612ed0565b612e5681613999565b82525050565b6000612e66825190565b80845260208401935083602082028501612e808560200190565b8060005b85811015612eb55784840389528151612e9d8582612e41565b94506020830160209a909a0199925050600101612e84565b5091979650505050505050565b801515612e56565b80612e56565b6000612eda825190565b808452602084019350612ef18185602086016139cc565b612efa81613b16565b9093019392505050565b6000612f0e825190565b612f1c8185602086016139cc565b9290920192915050565b60008154612f3381613a0f565b600182168015612f4a5760018114612f5b57612f8b565b60ff19831686528186019350612f8b565b60008581526020902060005b83811015612f8357815488820152600190910190602001612f67565b838801955050505b50505092915050565b612e56816139b5565b60208082527f537472696e67733a20686578206c656e67746820696e73756666696369656e74910190815260005b5060200190565b601481526000602082017314185d5cd8589b194e881b9bdd081c185d5cd95960621b81529150612fcb565b602b81526000602082017f455243373231456e756d657261626c653a206f776e657220696e646578206f7581526a74206f6620626f756e647360a81b602082015291505b5060400190565b603281526000602082017f4552433732313a207472616e7366657220746f206e6f6e20455243373231526581527131b2b4bb32b91034b6b83632b6b2b73a32b960711b60208201529150613041565b602581526000602082017f4552433732313a207472616e736665722066726f6d20696e636f72726563742081526437bbb732b960d91b60208201529150613041565b601c81526000602082017b115490cdcc8c4e881d1bdad95b88185b1c9958591e481b5a5b9d195960221b81529150612fcb565b60138152600060208201724e414d455f414c52454144595f45584953545360681b81529150612fcb565b601081526000602082016f5a45524f5f4c454e4754485f4e414d4560801b81529150612fcb565b602481526000602082017f4552433732313a207472616e7366657220746f20746865207a65726f206164648152637265737360e01b60208201529150613041565b601981526000602082017822a9219b99189d1030b8383937bb32903a379031b0b63632b960391b81529150612fcb565b600a81526000602082016953414d455f56414c554560b01b81529150612fcb565b600d81526000602082016c43414e5f4e4f545f52454e455760981b81529150612fcb565b601081526000602082016f14185d5cd8589b194e881c185d5cd95960821b81529150612fcb565b602981526000602082017f4552433732313a2061646472657373207a65726f206973206e6f7420612076618152683634b21037bbb732b960b91b60208201529150613041565b601181526000602082017016915493d7d651505494d7d411549253d1607a1b81529150612fcb565b600c81526000602082016b5a45524f5f4144445245535360a01b81529150612fcb565b601781526000602082017622a9219b9918afa1a0a62622a92fa727aa2fa7aba722a960491b81529150612fcb565b603e81526000602082017f4552433732313a20617070726f76652063616c6c6572206973206e6f7420746f81527f6b656e206f776e6572206e6f7220617070726f76656420666f7220616c6c000060208201529150613041565b60208082527f4552433732313a206d696e7420746f20746865207a65726f206164647265737391019081526000612fcb565b600f81526000602082016e1513d2d15397d393d517d193d55391608a1b81529150612fcb565b6012815260006020820171125111539512551657d393d517d193d5539160721b81529150612fcb565b6018815260006020820177115490cdcc8c4e881a5b9d985b1a59081d1bdad95b88125160421b81529150612fcb565b602181526000602082017f4552433732313a20617070726f76616c20746f2063757272656e74206f776e658152603960f91b60208201529150613041565b600e81526000602082016d1390535157d393d517d193d5539160921b81529150612fcb565b602c81526000602082017f455243373231456e756d657261626c653a20676c6f62616c20696e646578206f81526b7574206f6620626f756e647360a01b60208201529150613041565b602e81526000602082017f4552433732313a2063616c6c6572206973206e6f7420746f6b656e206f776e6581526d1c881b9bdc88185c1c1c9bdd995960921b60208201529150613041565b602f81526000602082017f416363657373436f6e74726f6c3a2063616e206f6e6c792072656e6f756e636581526e103937b632b9903337b91039b2b63360891b60208201529150613041565b60006135528285612f04565b9150610f618284612f26565b60006116268284612f04565b60006135768285612f04565b91506135828284612f04565b64173539b7b760d91b8152915060058201610f61565b60006116268284612f26565b76020b1b1b2b9b9a1b7b73a3937b61d1030b1b1b7bab73a1604d1b815260170160006135d08285612f04565b7001034b99036b4b9b9b4b733903937b6329607d1b81526011019150610f618284612f04565b602081016105678284612e4d565b608081016136128287612e4d565b61361f6020830186612e4d565b61362c6040830185612eca565b818103606083015261363e8184612ed0565b9695505050505050565b602080825281016116268184612e5c565b602081016105678284612ec2565b604081016136758285612ec2565b6116266020830184612eca565b602081016105678284612eca565b602081016105678284612f94565b602080825281016116268184612ed0565b606080825281016136c08186612ed0565b90506136cf6020830185612eca565b610f616040830184612eca565b608080825281016136ed8187612ed0565b90506136fc6020830186612eca565b6137096040830185612eca565b6137166060830184612ec2565b95945050505050565b6020808252810161056781612f9d565b6020808252810161056781612fd2565b6020808252810161056781612ffd565b6020808252810161056781613048565b6020808252810161056781613097565b60208082528101610567816130d9565b602080825281016105678161310c565b6020808252810161056781613136565b602080825281016105678161315d565b602080825281016105678161319e565b60208082528101610567816131ce565b60208082528101610567816131ef565b6020808252810161056781613213565b602080825281016105678161323a565b6020808252810161056781613280565b60208082528101610567816132a8565b60208082528101610567816132cb565b60208082528101610567816132f9565b6020808252810161056781613353565b6020808252810161056781613385565b60208082528101610567816133ab565b60208082528101610567816133d4565b6020808252810161056781613403565b6020808252810161056781613441565b6020808252810161056781613466565b60208082528101610567816134af565b60208082528101610567816134fa565b60006138da60405190565b90506138e68282613a36565b919050565b60006001600160401b0382111561390457613904613b00565b61390d82613b16565b60200192915050565b6000821982111561392957613929613a92565b500190565b600060ff8216915060ff831692508260ff0382111561392957613929613a92565b60008261395e5761395e613aa8565b500490565b600081600019048311821515161561397d5761397d613a92565b500290565b60008282101561399457613994613a92565b500390565b60006001600160a01b038216610567565b600061056782613999565b6000610567826139aa565b82818337506000910152565b60005b838110156139e75781810151838201526020016139cf565b8381111561165e5750506000910152565b600081613a0757613a07613a92565b506000190190565b600281046001821680613a2357607f821691505b602082108114156114da576114da613abe565b613a3f82613b16565b81018181106001600160401b0382111715613a5c57613a5c613b00565b6040525050565b6000600019821415613a7757613a77613a92565b5060010190565b600082613a8d57613a8d613aa8565b500690565b634e487b7160e01b600052601160045260246000fd5b634e487b7160e01b600052601260045260246000fd5b634e487b7160e01b600052602260045260246000fd5b634e487b7160e01b600052603160045260246000fd5b634e487b7160e01b600052603260045260246000fd5b634e487b7160e01b600052604160045260246000fd5b601f01601f191690565b613b2981613999565b8114610acd57600080fd5b801515613b29565b80613b29565b6001600160e01b03198116613b29565b613b29816139aa56fe65d7a28e3265b37a6474929f336521b332c1681b933f6cb9f3376673440d862a9f2df0fed2c77648de5860a4cc508cd0818c85b8b8a1ab4ceeef8d981c8956a6ddf252ad1be2c89b69c2b068fc378daa952ba7f163c4a11628f55a4df523b3efa2646970667358221220467b2672be47a81086c45d04f6d605a74e5195488e2aa352d0173e5e2d19fe3164736f6c63430008070033",
  "devdoc": {
    "author": "Masa Finance",
    "details": "SoulName NFT, that inherits from the NFT contract, and points to a Soulbound identity token. It has an extension, and stores all the information about the identity names.",
    "kind": "dev",
    "methods": {
      "approve(address,uint256)": {
        "details": "See {IERC721-approve}."
      },
      "balanceOf(address)": {
        "details": "See {IERC721-balanceOf}."
      },
      "burn(uint256)": {
        "details": "The caller must be the owner or an approved address of the soul name.",
        "params": {
          "tokenId": "TokenId of the soul name to burn"
        }
      },
      "constructor": {
        "details": "Creates a new SoulName NFT, that points to a Soulbound identity, inheriting from the NFT contract.",
        "params": {
          "_extension": "Extension of the soul name",
          "_soulboundIdentity": "Address of the Soulbound identity contract",
          "baseTokenURI": "Base URI of the token",
          "owner": "Owner of the smart contract"
        }
      },
      "getApproved(uint256)": {
        "details": "See {IERC721-getApproved}."
      },
      "getExtension()": {
        "details": "This function is used to get the extension of the soul name",
        "returns": {
          "_0": "Extension of the soul name"
        }
      },
      "getRoleAdmin(bytes32)": {
        "details": "Returns the admin role that controls `role`. See {grantRole} and {revokeRole}. To change a role's admin, use {_setRoleAdmin}."
      },
      "getSoulNames(address)": {
        "details": "This function queries all the identity names of the specified account",
        "params": {
          "owner": "Address of the owner of the identities"
        },
        "returns": {
          "sbtNames": "Array of soul names associated to the account"
        }
      },
      "getSoulNames(uint256)": {
        "details": "This function queries all the identity names of the specified identity Id",
        "params": {
          "identityId": "TokenId of the identity"
        },
        "returns": {
          "sbtNames": "Array of soul names associated to the identity Id"
        }
      },
      "getTokenData(string)": {
        "details": "This function queries the information of a soul name",
        "params": {
          "name": "Name of the soul name"
        },
        "returns": {
          "active": "`true` if the soul name is active, `false` otherwise",
          "expirationDate": "Expiration date of the soul name",
          "identityId": "Identity id of the soul name",
          "sbtName": "Soul name, in upper/lower case and extension"
        }
      },
      "grantRole(bytes32,address)": {
        "details": "Grants `role` to `account`. If `account` had not been already granted `role`, emits a {RoleGranted} event. Requirements: - the caller must have ``role``'s admin role. May emit a {RoleGranted} event."
      },
      "hasRole(bytes32,address)": {
        "details": "Returns `true` if `account` has been granted `role`."
      },
      "isApprovedForAll(address,address)": {
        "details": "See {IERC721-isApprovedForAll}."
      },
      "isAvailable(string)": {
        "details": "This function queries if a soul name already exists and is in the available state",
        "params": {
          "name": "Name of the soul name"
        },
        "returns": {
          "available": "`true` if the soul name is available, `false` otherwise"
        }
      },
      "mint(address,string,uint256,uint256)": {
        "details": "The caller can mint more than one name. The soul name must be unique.",
        "params": {
          "identityId": "TokenId of the soulbound identity that will be pointed from this soul name",
          "name": "Name of the new soul name",
          "to": "Address of the owner of the new soul name",
          "yearsPeriod": "Years of validity of the name"
        }
      },
      "name()": {
        "details": "See {IERC721Metadata-name}."
      },
      "ownerOf(uint256)": {
        "details": "See {IERC721-ownerOf}."
      },
      "pause()": {
        "details": "Sets an emergency stop mechanism that can be triggered by an authorized account."
      },
      "paused()": {
        "details": "Returns true if the contract is paused, and false otherwise."
      },
      "renewYearsPeriod(uint256,uint256)": {
        "details": "The caller must be the owner or an approved address of the soul name.",
        "params": {
          "tokenId": "TokenId of the soul name",
          "yearsPeriod": "Years of validity of the name"
        }
      },
      "renounceRole(bytes32,address)": {
        "details": "Revokes `role` from the calling account. Roles are often managed via {grantRole} and {revokeRole}: this function's purpose is to provide a mechanism for accounts to lose their privileges if they are compromised (such as when a trusted device is misplaced). If the calling account had been revoked `role`, emits a {RoleRevoked} event. Requirements: - the caller must be `account`. May emit a {RoleRevoked} event."
      },
      "revokeRole(bytes32,address)": {
        "details": "Revokes `role` from `account`. If `account` had been granted `role`, emits a {RoleRevoked} event. Requirements: - the caller must have ``role``'s admin role. May emit a {RoleRevoked} event."
      },
      "safeTransferFrom(address,address,uint256)": {
        "details": "See {IERC721-safeTransferFrom}."
      },
      "safeTransferFrom(address,address,uint256,bytes)": {
        "details": "See {IERC721-safeTransferFrom}."
      },
      "setApprovalForAll(address,bool)": {
        "details": "See {IERC721-setApprovalForAll}."
      },
      "setExtension(string)": {
        "details": "The caller must have the admin role to call this function",
        "params": {
          "_extension": "Extension of the soul name"
        }
      },
      "setSoulboundIdentity(address)": {
        "details": "The caller must have the admin role to call this function",
        "params": {
          "_soulboundIdentity": "Address of the SoulboundIdentity contract"
        }
      },
      "supportsInterface(bytes4)": {
        "details": "Interface identification is specified in ERC-165.",
        "params": {
          "interfaceId": "The interface identifier, as specified in ERC-165"
        },
        "returns": {
          "_0": "`true` if the contract implements `interfaceId` and  `interfaceId` is not 0xffffffff, `false` otherwise"
        }
      },
      "symbol()": {
        "details": "See {IERC721Metadata-symbol}."
      },
      "tokenByIndex(uint256)": {
        "details": "See {IERC721Enumerable-tokenByIndex}."
      },
      "tokenOfOwnerByIndex(address,uint256)": {
        "details": "See {IERC721Enumerable-tokenOfOwnerByIndex}."
      },
      "tokenURI(uint256)": {
        "details": "Throws if `_tokenId` is not a valid NFT. URIs are defined in RFC  3986. The URI may point to a JSON file that conforms to the \"ERC721  Metadata JSON Schema\".",
        "params": {
          "tokenId": "NFT to get the URI of"
        },
        "returns": {
          "_0": "URI of the NFT"
        }
      },
      "totalSupply()": {
        "details": "See {IERC721Enumerable-totalSupply}."
      },
      "transferFrom(address,address,uint256)": {
        "details": "See {IERC721-transferFrom}."
      },
      "unpause()": {
        "details": "Unsets an emergency stop mechanism. It can be triggered by an authorized account."
      },
      "updateIdentityId(uint256,uint256)": {
        "details": "The caller must be the owner or an approved address of the soul name.",
        "params": {
          "identityId": "New TokenId of the soulbound identity that will be pointed from this soul name",
          "tokenId": "TokenId of the soul name"
        }
      }
    },
    "title": "SoulName NFT",
    "version": 1
  },
  "userdoc": {
    "kind": "user",
    "methods": {
      "burn(uint256)": {
        "notice": "Burn a soul name"
      },
      "constructor": {
        "notice": "Creates a new SoulName NFT"
      },
      "getExtension()": {
        "notice": "Returns the extension of the soul name"
      },
      "getSoulNames(address)": {
        "notice": "Returns all the active soul names of an account"
      },
      "getSoulNames(uint256)": {
        "notice": "Returns all the active soul names of an account"
      },
      "getTokenData(string)": {
        "notice": "Returns the information of a soul name"
      },
      "isAvailable(string)": {
        "notice": "Checks if a soul name is available"
      },
      "mint(address,string,uint256,uint256)": {
        "notice": "Mints a new soul name"
      },
      "pause()": {
        "notice": "Pauses the operations in the smart contract"
      },
      "renewYearsPeriod(uint256,uint256)": {
        "notice": "Update the expiration date of a soul name"
      },
      "setExtension(string)": {
        "notice": "Sets the extension of the soul name"
      },
      "setSoulboundIdentity(address)": {
        "notice": "Sets the SoulboundIdentity contract address linked to this soul name"
      },
      "supportsInterface(bytes4)": {
        "notice": "Query if a contract implements an interface"
      },
      "tokenURI(uint256)": {
        "notice": "A distinct Uniform Resource Identifier (URI) for a given asset."
      },
      "unpause()": {
        "notice": "Unpauses the operations in the smart contract"
      },
      "updateIdentityId(uint256,uint256)": {
        "notice": "Update the identity id pointed from a soul name"
      }
    },
    "notice": "SoulName NFT that points to a Soulbound identity token",
    "version": 1
  },
  "storageLayout": {
    "storage": [
      {
        "astId": 1645,
        "contract": "contracts/SoulName.sol:SoulName",
        "label": "_name",
        "offset": 0,
        "slot": "0",
        "type": "t_string_storage"
      },
      {
        "astId": 1647,
        "contract": "contracts/SoulName.sol:SoulName",
        "label": "_symbol",
        "offset": 0,
        "slot": "1",
        "type": "t_string_storage"
      },
      {
        "astId": 1651,
        "contract": "contracts/SoulName.sol:SoulName",
        "label": "_owners",
        "offset": 0,
        "slot": "2",
        "type": "t_mapping(t_uint256,t_address)"
      },
      {
        "astId": 1655,
        "contract": "contracts/SoulName.sol:SoulName",
        "label": "_balances",
        "offset": 0,
        "slot": "3",
        "type": "t_mapping(t_address,t_uint256)"
      },
      {
        "astId": 1659,
        "contract": "contracts/SoulName.sol:SoulName",
        "label": "_tokenApprovals",
        "offset": 0,
        "slot": "4",
        "type": "t_mapping(t_uint256,t_address)"
      },
      {
        "astId": 1665,
        "contract": "contracts/SoulName.sol:SoulName",
        "label": "_operatorApprovals",
        "offset": 0,
        "slot": "5",
        "type": "t_mapping(t_address,t_mapping(t_address,t_bool))"
      },
      {
        "astId": 2665,
        "contract": "contracts/SoulName.sol:SoulName",
        "label": "_ownedTokens",
        "offset": 0,
        "slot": "6",
        "type": "t_mapping(t_address,t_mapping(t_uint256,t_uint256))"
      },
      {
        "astId": 2669,
        "contract": "contracts/SoulName.sol:SoulName",
        "label": "_ownedTokensIndex",
        "offset": 0,
        "slot": "7",
        "type": "t_mapping(t_uint256,t_uint256)"
      },
      {
        "astId": 2672,
        "contract": "contracts/SoulName.sol:SoulName",
        "label": "_allTokens",
        "offset": 0,
        "slot": "8",
        "type": "t_array(t_uint256)dyn_storage"
      },
      {
        "astId": 2676,
        "contract": "contracts/SoulName.sol:SoulName",
        "label": "_allTokensIndex",
        "offset": 0,
        "slot": "9",
        "type": "t_mapping(t_uint256,t_uint256)"
      },
      {
        "astId": 523,
        "contract": "contracts/SoulName.sol:SoulName",
        "label": "_paused",
        "offset": 0,
        "slot": "10",
        "type": "t_bool"
      },
      {
        "astId": 24,
        "contract": "contracts/SoulName.sol:SoulName",
        "label": "_roles",
        "offset": 0,
        "slot": "11",
        "type": "t_mapping(t_bytes32,t_struct(RoleData)19_storage)"
      },
      {
        "astId": 6604,
        "contract": "contracts/SoulName.sol:SoulName",
        "label": "_tokenIdCounter",
        "offset": 0,
        "slot": "12",
        "type": "t_struct(Counter)3369_storage"
      },
      {
        "astId": 6606,
        "contract": "contracts/SoulName.sol:SoulName",
        "label": "_baseTokenURI",
        "offset": 0,
        "slot": "13",
        "type": "t_string_storage"
      },
      {
        "astId": 4076,
        "contract": "contracts/SoulName.sol:SoulName",
        "label": "soulboundIdentity",
        "offset": 0,
        "slot": "14",
        "type": "t_contract(ISoulboundIdentity)6316"
      },
      {
        "astId": 4078,
        "contract": "contracts/SoulName.sol:SoulName",
        "label": "extension",
        "offset": 0,
        "slot": "15",
        "type": "t_string_storage"
      },
      {
        "astId": 4083,
        "contract": "contracts/SoulName.sol:SoulName",
        "label": "tokenData",
        "offset": 0,
        "slot": "16",
        "type": "t_mapping(t_uint256,t_struct(TokenData)4100_storage)"
      },
      {
        "astId": 4088,
        "contract": "contracts/SoulName.sol:SoulName",
        "label": "nameData",
        "offset": 0,
        "slot": "17",
        "type": "t_mapping(t_string_memory_ptr,t_struct(NameData)4105_storage)"
      },
      {
        "astId": 4093,
        "contract": "contracts/SoulName.sol:SoulName",
        "label": "identityNames",
        "offset": 0,
        "slot": "18",
        "type": "t_mapping(t_uint256,t_array(t_string_storage)dyn_storage)"
      }
    ],
    "types": {
      "t_address": {
        "encoding": "inplace",
        "label": "address",
        "numberOfBytes": "20"
      },
      "t_array(t_string_storage)dyn_storage": {
        "base": "t_string_storage",
        "encoding": "dynamic_array",
        "label": "string[]",
        "numberOfBytes": "32"
      },
      "t_array(t_uint256)dyn_storage": {
        "base": "t_uint256",
        "encoding": "dynamic_array",
        "label": "uint256[]",
        "numberOfBytes": "32"
      },
      "t_bool": {
        "encoding": "inplace",
        "label": "bool",
        "numberOfBytes": "1"
      },
      "t_bytes32": {
        "encoding": "inplace",
        "label": "bytes32",
        "numberOfBytes": "32"
      },
      "t_contract(ISoulboundIdentity)6316": {
        "encoding": "inplace",
        "label": "contract ISoulboundIdentity",
        "numberOfBytes": "20"
      },
      "t_mapping(t_address,t_bool)": {
        "encoding": "mapping",
        "key": "t_address",
        "label": "mapping(address => bool)",
        "numberOfBytes": "32",
        "value": "t_bool"
      },
      "t_mapping(t_address,t_mapping(t_address,t_bool))": {
        "encoding": "mapping",
        "key": "t_address",
        "label": "mapping(address => mapping(address => bool))",
        "numberOfBytes": "32",
        "value": "t_mapping(t_address,t_bool)"
      },
      "t_mapping(t_address,t_mapping(t_uint256,t_uint256))": {
        "encoding": "mapping",
        "key": "t_address",
        "label": "mapping(address => mapping(uint256 => uint256))",
        "numberOfBytes": "32",
        "value": "t_mapping(t_uint256,t_uint256)"
      },
      "t_mapping(t_address,t_uint256)": {
        "encoding": "mapping",
        "key": "t_address",
        "label": "mapping(address => uint256)",
        "numberOfBytes": "32",
        "value": "t_uint256"
      },
      "t_mapping(t_bytes32,t_struct(RoleData)19_storage)": {
        "encoding": "mapping",
        "key": "t_bytes32",
        "label": "mapping(bytes32 => struct AccessControl.RoleData)",
        "numberOfBytes": "32",
        "value": "t_struct(RoleData)19_storage"
      },
      "t_mapping(t_string_memory_ptr,t_struct(NameData)4105_storage)": {
        "encoding": "mapping",
        "key": "t_string_memory_ptr",
        "label": "mapping(string => struct SoulName.NameData)",
        "numberOfBytes": "32",
        "value": "t_struct(NameData)4105_storage"
      },
      "t_mapping(t_uint256,t_address)": {
        "encoding": "mapping",
        "key": "t_uint256",
        "label": "mapping(uint256 => address)",
        "numberOfBytes": "32",
        "value": "t_address"
      },
      "t_mapping(t_uint256,t_array(t_string_storage)dyn_storage)": {
        "encoding": "mapping",
        "key": "t_uint256",
        "label": "mapping(uint256 => string[])",
        "numberOfBytes": "32",
        "value": "t_array(t_string_storage)dyn_storage"
      },
      "t_mapping(t_uint256,t_struct(TokenData)4100_storage)": {
        "encoding": "mapping",
        "key": "t_uint256",
        "label": "mapping(uint256 => struct SoulName.TokenData)",
        "numberOfBytes": "32",
        "value": "t_struct(TokenData)4100_storage"
      },
      "t_mapping(t_uint256,t_uint256)": {
        "encoding": "mapping",
        "key": "t_uint256",
        "label": "mapping(uint256 => uint256)",
        "numberOfBytes": "32",
        "value": "t_uint256"
      },
      "t_string_memory_ptr": {
        "encoding": "bytes",
        "label": "string",
        "numberOfBytes": "32"
      },
      "t_string_storage": {
        "encoding": "bytes",
        "label": "string",
        "numberOfBytes": "32"
      },
      "t_struct(Counter)3369_storage": {
        "encoding": "inplace",
        "label": "struct Counters.Counter",
        "members": [
          {
            "astId": 3368,
            "contract": "contracts/SoulName.sol:SoulName",
            "label": "_value",
            "offset": 0,
            "slot": "0",
            "type": "t_uint256"
          }
        ],
        "numberOfBytes": "32"
      },
      "t_struct(NameData)4105_storage": {
        "encoding": "inplace",
        "label": "struct SoulName.NameData",
        "members": [
          {
            "astId": 4102,
            "contract": "contracts/SoulName.sol:SoulName",
            "label": "exists",
            "offset": 0,
            "slot": "0",
            "type": "t_bool"
          },
          {
            "astId": 4104,
            "contract": "contracts/SoulName.sol:SoulName",
            "label": "tokenId",
            "offset": 0,
            "slot": "1",
            "type": "t_uint256"
          }
        ],
        "numberOfBytes": "64"
      },
      "t_struct(RoleData)19_storage": {
        "encoding": "inplace",
        "label": "struct AccessControl.RoleData",
        "members": [
          {
            "astId": 16,
            "contract": "contracts/SoulName.sol:SoulName",
            "label": "members",
            "offset": 0,
            "slot": "0",
            "type": "t_mapping(t_address,t_bool)"
          },
          {
            "astId": 18,
            "contract": "contracts/SoulName.sol:SoulName",
            "label": "adminRole",
            "offset": 0,
            "slot": "1",
            "type": "t_bytes32"
          }
        ],
        "numberOfBytes": "64"
      },
      "t_struct(TokenData)4100_storage": {
        "encoding": "inplace",
        "label": "struct SoulName.TokenData",
        "members": [
          {
            "astId": 4095,
            "contract": "contracts/SoulName.sol:SoulName",
            "label": "name",
            "offset": 0,
            "slot": "0",
            "type": "t_string_storage"
          },
          {
            "astId": 4097,
            "contract": "contracts/SoulName.sol:SoulName",
            "label": "identityId",
            "offset": 0,
            "slot": "1",
            "type": "t_uint256"
          },
          {
            "astId": 4099,
            "contract": "contracts/SoulName.sol:SoulName",
            "label": "expirationDate",
            "offset": 0,
            "slot": "2",
            "type": "t_uint256"
          }
        ],
        "numberOfBytes": "96"
      },
      "t_uint256": {
        "encoding": "inplace",
        "label": "uint256",
        "numberOfBytes": "32"
      }
    }
  }
}