{
  "address": "0xF8625D0131116A13BC2e8d5953f6ed8A3F7C7353",
  "abi": [
    {
      "inputs": [
        {
          "internalType": "address",
          "name": "owner",
          "type": "address"
        },
        {
          "internalType": "contract ISoulLinker",
          "name": "_soulLinker",
          "type": "address"
        },
        {
          "internalType": "string",
          "name": "baseTokenURI",
          "type": "string"
        }
      ],
      "stateMutability": "nonpayable",
      "type": "constructor"
    },
    {
      "anonymous": false,
      "inputs": [
        {
          "indexed": true,
          "internalType": "address",
          "name": "owner",
          "type": "address"
        },
        {
          "indexed": true,
          "internalType": "address",
          "name": "approved",
          "type": "address"
        },
        {
          "indexed": true,
          "internalType": "uint256",
          "name": "tokenId",
          "type": "uint256"
        }
      ],
      "name": "Approval",
      "type": "event"
    },
    {
      "anonymous": false,
      "inputs": [
        {
          "indexed": true,
          "internalType": "address",
          "name": "owner",
          "type": "address"
        },
        {
          "indexed": true,
          "internalType": "address",
          "name": "operator",
          "type": "address"
        },
        {
          "indexed": false,
          "internalType": "bool",
          "name": "approved",
          "type": "bool"
        }
      ],
      "name": "ApprovalForAll",
      "type": "event"
    },
    {
      "anonymous": false,
      "inputs": [
        {
          "indexed": false,
          "internalType": "address",
          "name": "account",
          "type": "address"
        }
      ],
      "name": "Paused",
      "type": "event"
    },
    {
      "anonymous": false,
      "inputs": [
        {
          "indexed": true,
          "internalType": "bytes32",
          "name": "role",
          "type": "bytes32"
        },
        {
          "indexed": true,
          "internalType": "bytes32",
          "name": "previousAdminRole",
          "type": "bytes32"
        },
        {
          "indexed": true,
          "internalType": "bytes32",
          "name": "newAdminRole",
          "type": "bytes32"
        }
      ],
      "name": "RoleAdminChanged",
      "type": "event"
    },
    {
      "anonymous": false,
      "inputs": [
        {
          "indexed": true,
          "internalType": "bytes32",
          "name": "role",
          "type": "bytes32"
        },
        {
          "indexed": true,
          "internalType": "address",
          "name": "account",
          "type": "address"
        },
        {
          "indexed": true,
          "internalType": "address",
          "name": "sender",
          "type": "address"
        }
      ],
      "name": "RoleGranted",
      "type": "event"
    },
    {
      "anonymous": false,
      "inputs": [
        {
          "indexed": true,
          "internalType": "bytes32",
          "name": "role",
          "type": "bytes32"
        },
        {
          "indexed": true,
          "internalType": "address",
          "name": "account",
          "type": "address"
        },
        {
          "indexed": true,
          "internalType": "address",
          "name": "sender",
          "type": "address"
        }
      ],
      "name": "RoleRevoked",
      "type": "event"
    },
    {
      "anonymous": false,
      "inputs": [
        {
          "indexed": true,
          "internalType": "address",
          "name": "from",
          "type": "address"
        },
        {
          "indexed": true,
          "internalType": "address",
          "name": "to",
          "type": "address"
        },
        {
          "indexed": true,
          "internalType": "uint256",
          "name": "tokenId",
          "type": "uint256"
        }
      ],
      "name": "Transfer",
      "type": "event"
    },
    {
      "anonymous": false,
      "inputs": [
        {
          "indexed": false,
          "internalType": "address",
          "name": "account",
          "type": "address"
        }
      ],
      "name": "Unpaused",
      "type": "event"
    },
    {
      "inputs": [],
      "name": "DEFAULT_ADMIN_ROLE",
      "outputs": [
        {
          "internalType": "bytes32",
          "name": "",
          "type": "bytes32"
        }
      ],
      "stateMutability": "view",
      "type": "function"
    },
    {
      "inputs": [],
      "name": "MINTER_ROLE",
      "outputs": [
        {
          "internalType": "bytes32",
          "name": "",
          "type": "bytes32"
        }
      ],
      "stateMutability": "view",
      "type": "function"
    },
    {
      "inputs": [],
      "name": "PAUSER_ROLE",
      "outputs": [
        {
          "internalType": "bytes32",
          "name": "",
          "type": "bytes32"
        }
      ],
      "stateMutability": "view",
      "type": "function"
    },
    {
      "inputs": [
        {
          "internalType": "address",
          "name": "to",
          "type": "address"
        },
        {
          "internalType": "uint256",
          "name": "tokenId",
          "type": "uint256"
        }
      ],
      "name": "approve",
      "outputs": [],
      "stateMutability": "nonpayable",
      "type": "function"
    },
    {
      "inputs": [
        {
          "internalType": "address",
          "name": "owner",
          "type": "address"
        }
      ],
      "name": "balanceOf",
      "outputs": [
        {
          "internalType": "uint256",
          "name": "",
          "type": "uint256"
        }
      ],
      "stateMutability": "view",
      "type": "function"
    },
    {
      "inputs": [
        {
          "internalType": "uint256",
          "name": "tokenId",
          "type": "uint256"
        }
      ],
      "name": "burn",
      "outputs": [],
      "stateMutability": "nonpayable",
      "type": "function"
    },
    {
      "inputs": [
        {
          "internalType": "uint256",
          "name": "tokenId",
          "type": "uint256"
        }
      ],
      "name": "getApproved",
      "outputs": [
        {
          "internalType": "address",
          "name": "",
          "type": "address"
        }
      ],
      "stateMutability": "view",
      "type": "function"
    },
    {
      "inputs": [],
      "name": "getExtension",
      "outputs": [
        {
          "internalType": "string",
          "name": "",
          "type": "string"
        }
      ],
      "stateMutability": "view",
      "type": "function"
    },
    {
      "inputs": [
        {
          "internalType": "bytes32",
          "name": "role",
          "type": "bytes32"
        }
      ],
      "name": "getRoleAdmin",
      "outputs": [
        {
          "internalType": "bytes32",
          "name": "",
          "type": "bytes32"
        }
      ],
      "stateMutability": "view",
      "type": "function"
    },
    {
      "inputs": [],
      "name": "getSoulName",
      "outputs": [
        {
          "internalType": "contract ISoulName",
          "name": "",
          "type": "address"
        }
      ],
      "stateMutability": "view",
      "type": "function"
    },
    {
      "inputs": [
        {
          "internalType": "uint256",
          "name": "tokenId",
          "type": "uint256"
        }
      ],
      "name": "getSoulNames",
      "outputs": [
        {
          "internalType": "string[]",
          "name": "sbtNames",
          "type": "string[]"
        }
      ],
      "stateMutability": "view",
      "type": "function"
    },
    {
      "inputs": [
        {
          "internalType": "address",
          "name": "owner",
          "type": "address"
        }
      ],
      "name": "getSoulNames",
      "outputs": [
        {
          "internalType": "string[]",
          "name": "sbtNames",
          "type": "string[]"
        }
      ],
      "stateMutability": "view",
      "type": "function"
    },
    {
      "inputs": [
        {
          "internalType": "string",
          "name": "name",
          "type": "string"
        }
      ],
      "name": "getTokenData",
      "outputs": [
        {
          "internalType": "string",
          "name": "sbtName",
          "type": "string"
        },
        {
          "internalType": "uint256",
          "name": "identityId",
          "type": "uint256"
        },
        {
          "internalType": "uint256",
          "name": "expirationDate",
          "type": "uint256"
        },
        {
          "internalType": "bool",
          "name": "active",
          "type": "bool"
        }
      ],
      "stateMutability": "view",
      "type": "function"
    },
    {
      "inputs": [
        {
          "internalType": "bytes32",
          "name": "role",
          "type": "bytes32"
        },
        {
          "internalType": "address",
          "name": "account",
          "type": "address"
        }
      ],
      "name": "grantRole",
      "outputs": [],
      "stateMutability": "nonpayable",
      "type": "function"
    },
    {
      "inputs": [
        {
          "internalType": "bytes32",
          "name": "role",
          "type": "bytes32"
        },
        {
          "internalType": "address",
          "name": "account",
          "type": "address"
        }
      ],
      "name": "hasRole",
      "outputs": [
        {
          "internalType": "bool",
          "name": "",
          "type": "bool"
        }
      ],
      "stateMutability": "view",
      "type": "function"
    },
    {
      "inputs": [
        {
          "internalType": "address",
          "name": "owner",
          "type": "address"
        },
        {
          "internalType": "address",
          "name": "operator",
          "type": "address"
        }
      ],
      "name": "isApprovedForAll",
      "outputs": [
        {
          "internalType": "bool",
          "name": "",
          "type": "bool"
        }
      ],
      "stateMutability": "view",
      "type": "function"
    },
    {
      "inputs": [
        {
          "internalType": "string",
          "name": "name",
          "type": "string"
        }
      ],
      "name": "isAvailable",
      "outputs": [
        {
          "internalType": "bool",
          "name": "available",
          "type": "bool"
        }
      ],
      "stateMutability": "view",
      "type": "function"
    },
    {
      "inputs": [
        {
          "internalType": "address",
          "name": "to",
          "type": "address"
        }
      ],
      "name": "mint",
      "outputs": [
        {
          "internalType": "uint256",
          "name": "",
          "type": "uint256"
        }
      ],
      "stateMutability": "nonpayable",
      "type": "function"
    },
    {
      "inputs": [
        {
          "internalType": "address",
          "name": "to",
          "type": "address"
        },
        {
          "internalType": "string",
          "name": "name",
          "type": "string"
        },
        {
          "internalType": "uint256",
          "name": "yearsPeriod",
          "type": "uint256"
        }
      ],
      "name": "mintIdentityWithName",
      "outputs": [
        {
          "internalType": "uint256",
          "name": "",
          "type": "uint256"
        }
      ],
      "stateMutability": "payable",
      "type": "function"
    },
    {
      "inputs": [],
      "name": "name",
      "outputs": [
        {
          "internalType": "string",
          "name": "",
          "type": "string"
        }
      ],
      "stateMutability": "view",
      "type": "function"
    },
    {
      "inputs": [
        {
          "internalType": "uint256",
          "name": "tokenId",
          "type": "uint256"
        }
      ],
      "name": "ownerOf",
      "outputs": [
        {
          "internalType": "address",
          "name": "",
          "type": "address"
        }
      ],
      "stateMutability": "view",
      "type": "function"
    },
    {
      "inputs": [
        {
          "internalType": "string",
          "name": "name",
          "type": "string"
        }
      ],
      "name": "ownerOf",
      "outputs": [
        {
          "internalType": "address",
          "name": "",
          "type": "address"
        }
      ],
      "stateMutability": "view",
      "type": "function"
    },
    {
      "inputs": [],
      "name": "pause",
      "outputs": [],
      "stateMutability": "nonpayable",
      "type": "function"
    },
    {
      "inputs": [],
      "name": "paused",
      "outputs": [
        {
          "internalType": "bool",
          "name": "",
          "type": "bool"
        }
      ],
      "stateMutability": "view",
      "type": "function"
    },
    {
      "inputs": [
        {
          "internalType": "bytes32",
          "name": "role",
          "type": "bytes32"
        },
        {
          "internalType": "address",
          "name": "account",
          "type": "address"
        }
      ],
      "name": "renounceRole",
      "outputs": [],
      "stateMutability": "nonpayable",
      "type": "function"
    },
    {
      "inputs": [
        {
          "internalType": "bytes32",
          "name": "role",
          "type": "bytes32"
        },
        {
          "internalType": "address",
          "name": "account",
          "type": "address"
        }
      ],
      "name": "revokeRole",
      "outputs": [],
      "stateMutability": "nonpayable",
      "type": "function"
    },
    {
      "inputs": [
        {
          "internalType": "address",
          "name": "",
          "type": "address"
        },
        {
          "internalType": "address",
          "name": "",
          "type": "address"
        },
        {
          "internalType": "uint256",
          "name": "",
          "type": "uint256"
        }
      ],
      "name": "safeTransferFrom",
      "outputs": [],
      "stateMutability": "pure",
      "type": "function"
    },
    {
      "inputs": [
        {
          "internalType": "address",
          "name": "",
          "type": "address"
        },
        {
          "internalType": "address",
          "name": "",
          "type": "address"
        },
        {
          "internalType": "uint256",
          "name": "",
          "type": "uint256"
        },
        {
          "internalType": "bytes",
          "name": "",
          "type": "bytes"
        }
      ],
      "name": "safeTransferFrom",
      "outputs": [],
      "stateMutability": "pure",
      "type": "function"
    },
    {
      "inputs": [
        {
          "internalType": "address",
          "name": "operator",
          "type": "address"
        },
        {
          "internalType": "bool",
          "name": "approved",
          "type": "bool"
        }
      ],
      "name": "setApprovalForAll",
      "outputs": [],
      "stateMutability": "nonpayable",
      "type": "function"
    },
    {
      "inputs": [
        {
          "internalType": "contract ISoulName",
          "name": "_soulName",
          "type": "address"
        }
      ],
      "name": "setSoulName",
      "outputs": [],
      "stateMutability": "nonpayable",
      "type": "function"
    },
    {
      "inputs": [],
      "name": "soulLinker",
      "outputs": [
        {
          "internalType": "contract ISoulLinker",
          "name": "",
          "type": "address"
        }
      ],
      "stateMutability": "view",
      "type": "function"
    },
    {
      "inputs": [],
      "name": "soulName",
      "outputs": [
        {
          "internalType": "contract ISoulName",
          "name": "",
          "type": "address"
        }
      ],
      "stateMutability": "view",
      "type": "function"
    },
    {
      "inputs": [
        {
          "internalType": "bytes4",
          "name": "interfaceId",
          "type": "bytes4"
        }
      ],
      "name": "supportsInterface",
      "outputs": [
        {
          "internalType": "bool",
          "name": "",
          "type": "bool"
        }
      ],
      "stateMutability": "view",
      "type": "function"
    },
    {
      "inputs": [],
      "name": "symbol",
      "outputs": [
        {
          "internalType": "string",
          "name": "",
          "type": "string"
        }
      ],
      "stateMutability": "view",
      "type": "function"
    },
    {
      "inputs": [
        {
          "internalType": "uint256",
          "name": "index",
          "type": "uint256"
        }
      ],
      "name": "tokenByIndex",
      "outputs": [
        {
          "internalType": "uint256",
          "name": "",
          "type": "uint256"
        }
      ],
      "stateMutability": "view",
      "type": "function"
    },
    {
      "inputs": [
        {
          "internalType": "address",
          "name": "owner",
          "type": "address"
        }
      ],
      "name": "tokenOfOwner",
      "outputs": [
        {
          "internalType": "uint256",
          "name": "",
          "type": "uint256"
        }
      ],
      "stateMutability": "view",
      "type": "function"
    },
    {
      "inputs": [
        {
          "internalType": "address",
          "name": "owner",
          "type": "address"
        },
        {
          "internalType": "uint256",
          "name": "index",
          "type": "uint256"
        }
      ],
      "name": "tokenOfOwnerByIndex",
      "outputs": [
        {
          "internalType": "uint256",
          "name": "",
          "type": "uint256"
        }
      ],
      "stateMutability": "view",
      "type": "function"
    },
    {
      "inputs": [
        {
          "internalType": "string",
          "name": "name",
          "type": "string"
        }
      ],
      "name": "tokenURI",
      "outputs": [
        {
          "internalType": "string",
          "name": "",
          "type": "string"
        }
      ],
      "stateMutability": "view",
      "type": "function"
    },
    {
      "inputs": [
        {
          "internalType": "address",
          "name": "owner",
          "type": "address"
        }
      ],
      "name": "tokenURI",
      "outputs": [
        {
          "internalType": "string",
          "name": "",
          "type": "string"
        }
      ],
      "stateMutability": "view",
      "type": "function"
    },
    {
      "inputs": [
        {
          "internalType": "uint256",
          "name": "tokenId",
          "type": "uint256"
        }
      ],
      "name": "tokenURI",
      "outputs": [
        {
          "internalType": "string",
          "name": "",
          "type": "string"
        }
      ],
      "stateMutability": "view",
      "type": "function"
    },
    {
      "inputs": [],
      "name": "totalSupply",
      "outputs": [
        {
          "internalType": "uint256",
          "name": "",
          "type": "uint256"
        }
      ],
      "stateMutability": "view",
      "type": "function"
    },
    {
      "inputs": [
        {
          "internalType": "address",
          "name": "",
          "type": "address"
        },
        {
          "internalType": "address",
          "name": "",
          "type": "address"
        },
        {
          "internalType": "uint256",
          "name": "",
          "type": "uint256"
        }
      ],
      "name": "transferFrom",
      "outputs": [],
      "stateMutability": "pure",
      "type": "function"
    },
    {
      "inputs": [],
      "name": "unpause",
      "outputs": [],
      "stateMutability": "nonpayable",
      "type": "function"
    }
  ],
  "transactionHash": "0x95f4074f016d0c2862cae27f12590d7a3543574cbdb129c3f0b8c0b701fecbc4",
  "args": [
    "0x3c8D9f130970358b7E8cbc1DbD0a1EbA6EBE368F",
    "0xA0cDCD91536Ab81D3bE9734354263bC3d00e8C82",
    "https://beta.metadata.masa.finance/v1.0/identity/"
  ],
  "numDeployments": 2,
  "solcInputHash": "3335565af2231b511d8d12ad073b8a10",
  "bytecode": "0x60806040523480156200001157600080fd5b506040516200356838038062003568833981016040819052620000349162000359565b82826040518060400160405280600d81526020016c4d617361204964656e7469747960981b8152506040518060400160405280600381526020016213525160ea1b8152508484838383828281600090805190602001906200009792919062000220565b508051620000ad90600190602084019062000220565b5050600a805460ff1916905550620000c760008562000168565b620000f37f65d7a28e3265b37a6474929f336521b332c1681b933f6cb9f3376673440d862a8562000168565b6200011f7f9f2df0fed2c77648de5860a4cc508cd0818c85b8b8a1ab4ceeef8d981c8956a68562000168565b80516200013490600d90602084019062000220565b5050600e80546001600160a01b0319166001600160a01b039890981697909717909655506200052c98505050505050505050565b620001748282620001f3565b620001ef576000828152600b602090815260408083206001600160a01b03851684529091529020805460ff19166001179055620001ae3390565b6001600160a01b0316816001600160a01b0316837f2f8788117e7eff1d82e926ec794901d17c78024a50270940304540a733656f0d60405160405180910390a45b5050565b6000828152600b602090815260408083206001600160a01b038516845290915290205460ff165b92915050565b8280546200022e906200046e565b90600052602060002090601f0160209004810192826200025257600085556200029d565b82601f106200026d57805160ff19168380011785556200029d565b828001600101855582156200029d579182015b828111156200029d57825182559160200191906001019062000280565b50620002ab929150620002af565b5090565b5b80821115620002ab5760008155600101620002b0565b6000620002dd620002d784620003ec565b620003cd565b905082815260208101848484011115620002fa57620002fa600080fd5b620003078482856200043b565b509392505050565b80516200021a8162000507565b80516200021a8162000521565b600082601f8301126200033f576200033f600080fd5b815162000351848260208601620002c6565b949350505050565b600080600060608486031215620003735762000373600080fd5b60006200038186866200030f565b935050602062000394868287016200031c565b92505060408401516001600160401b03811115620003b557620003b5600080fd5b620003c38682870162000329565b9150509250925092565b6000620003d960405190565b9050620003e782826200049f565b919050565b60006001600160401b03821115620004085762000408620004e7565b6200041382620004fd565b60200192915050565b60006001600160a01b0382166200021a565b60006200021a826200041c565b60005b83811015620004585781810151838201526020016200043e565b8381111562000468576000848401525b50505050565b6002810460018216806200048357607f821691505b60208210811415620004995762000499620004d1565b50919050565b620004aa82620004fd565b81018181106001600160401b0382111715620004ca57620004ca620004e7565b6040525050565b634e487b7160e01b600052602260045260246000fd5b634e487b7160e01b600052604160045260246000fd5b601f01601f191690565b62000512816200041c565b81146200051e57600080fd5b50565b62000512816200042e565b61302c806200053c6000396000f3fe6080604052600436106101eb5760003560e01c8062119a07146101f057806301ffc9a71461021957806306fdde0314610246578063081812fc14610268578063095ea7b3146102955780630f2e68af146102b757806318160ddd146102e457806323b872dd146102f9578063248a9ca314610319578063294cdf0d146103395780632f2ff15d146103595780632f745c591461037957806336568abe146103995780633f4ba83a146103b957806342842e0e146102f957806342966c68146103ce57806345390070146103ee57806346b2b0871461040e5780634cf12d261461043e5780634f6ccce71461045e5780635c975abb1461047e5780636352211e146104965780636a627842146104b657806370a08231146104d6578063776ce6a1146104f65780637e6698911461050b5780638456cb591461053857806391d148541461054d578063920ffa261461056d57806393702f331461058d57806395d89b41146105ad578063965306aa146105c2578063a217fddf146105e2578063a22cb465146105f7578063b507d48114610617578063b79636b614610635578063b88d4fde14610655578063c87b56dd14610670578063d539139314610690578063d547741f146106b2578063e63ab1e9146106d2578063e985e9c5146106f4578063ee7a9ec514610714575b600080fd5b6102036101fe3660046121de565b610734565b6040516102109190612b52565b60405180910390f35b34801561022557600080fd5b506102396102343660046122fe565b610807565b6040516102109190612b44565b34801561025257600080fd5b5061025b610818565b6040516102109190612b6e565b34801561027457600080fd5b506102886102833660046122bb565b6108aa565b6040516102109190612a81565b3480156102a157600080fd5b506102b56102b036600461222d565b6108d1565b005b3480156102c357600080fd5b50600f546102d7906001600160a01b031681565b6040516102109190612b60565b3480156102f057600080fd5b50600854610203565b34801561030557600080fd5b506102b56103143660046120dd565b610957565b34801561032557600080fd5b506102036103343660046122bb565b61096f565b34801561034557600080fd5b5061020361035436600461207f565b610984565b34801561036557600080fd5b506102b56103743660046122dc565b610991565b34801561038557600080fd5b5061020361039436600461222d565b6109ad565b3480156103a557600080fd5b506102b56103b43660046122dc565b6109ff565b3480156103c557600080fd5b506102b5610a35565b3480156103da57600080fd5b506102b56103e93660046122bb565b610a58565b3480156103fa57600080fd5b50600e546102d7906001600160a01b031681565b34801561041a57600080fd5b5061042e610429366004612361565b610b00565b6040516102109493929190612b7f565b34801561044a57600080fd5b5061025b610459366004612361565b610bc5565b34801561046a57600080fd5b506102036104793660046122bb565b610c8c565b34801561048a57600080fd5b50600a5460ff16610239565b3480156104a257600080fd5b506102886104b13660046122bb565b610cda565b3480156104c257600080fd5b506102036104d136600461207f565b610ce5565b3480156104e257600080fd5b506102036104f136600461207f565b610d18565b34801561050257600080fd5b5061025b610d5c565b34801561051757600080fd5b5061052b6105263660046122bb565b610de2565b6040516102109190612b33565b34801561054457600080fd5b506102b5610e91565b34801561055957600080fd5b506102396105683660046122dc565b610eb1565b34801561057957600080fd5b50610288610588366004612361565b610edc565b34801561059957600080fd5b5061025b6105a836600461207f565b610f9a565b3480156105b957600080fd5b5061025b610fb2565b3480156105ce57600080fd5b506102396105dd366004612361565b610fc1565b3480156105ee57600080fd5b50610203600081565b34801561060357600080fd5b506102b56106123660046121ab565b61106c565b34801561062357600080fd5b50600f546001600160a01b03166102d7565b34801561064157600080fd5b5061052b61065036600461207f565b611077565b34801561066157600080fd5b506102b561031436600461212d565b34801561067c57600080fd5b5061025b61068b3660046122bb565b6110d2565b34801561069c57600080fd5b50610203600080516020612fb783398151915281565b3480156106be57600080fd5b506102b56106cd3660046122dc565b611138565b3480156106de57600080fd5b50610203600080516020612f9783398151915281565b34801561070057600080fd5b5061023961070f3660046120a0565b611154565b34801561072057600080fd5b506102b561072f366004612340565b611182565b600f546000906001600160a01b03166107685760405162461bcd60e51b815260040161075f90612c19565b60405180910390fd5b600061077385610ce5565b600f5460405163252ee1d560e11b81529192506001600160a01b031690634a5dc3aa906107aa908890889086908990600401612ad3565b602060405180830381600087803b1580156107c457600080fd5b505af11580156107d8573d6000803e3d6000fd5b505050506040513d601f19601f820116820180604052508101906107fc9190612446565b5090505b9392505050565b600061081282611204565b92915050565b60606000805461082790612e4a565b80601f016020809104026020016040519081016040528092919081815260200182805461085390612e4a565b80156108a05780601f10610875576101008083540402835291602001916108a0565b820191906000526020600020905b81548152906001019060200180831161088357829003601f168201915b5050505050905090565b60006108b582611229565b506000908152600460205260409020546001600160a01b031690565b60006108dc8261124e565b9050806001600160a01b0316836001600160a01b031614156109105760405162461bcd60e51b815260040161075f90612cb9565b336001600160a01b038216148061092c575061092c8133611154565b6109485760405162461bcd60e51b815260040161075f90612c89565b6109528383611283565b505050565b60405162461bcd60e51b815260040161075f90612c39565b6000908152600b602052604090206001015490565b60006108128260006109ad565b61099a8261096f565b6109a3816112f1565b61095283836112fb565b60006109b883610d18565b82106109d65760405162461bcd60e51b815260040161075f90612bd9565b506001600160a01b03919091166000908152600660209081526040808320938352929052205490565b6001600160a01b0381163314610a275760405162461bcd60e51b815260040161075f90612cf9565b610a318282611381565b5050565b600080516020612f97833981519152610a4d816112f1565b610a556113e8565b50565b600e54604051633f278e0b60e21b81526001600160a01b039091169063fc9e382c90610a8a9030908590600401612b18565b60206040518083038186803b158015610aa257600080fd5b505afa158015610ab6573d6000803e3d6000fd5b505050506040513d601f19601f82011682018060405250810190610ada919061229a565b15610af75760405162461bcd60e51b815260040161075f90612cc9565b610a5581611434565b600f54606090600090819081906001600160a01b0316610b325760405162461bcd60e51b815260040161075f90612c19565b600f546040516346b2b08760e01b81526001600160a01b03909116906346b2b08790610b62908890600401612b6e565b60006040518083038186803b158015610b7a57600080fd5b505afa158015610b8e573d6000803e3d6000fd5b505050506040513d6000823e601f3d908101601f19168201604052610bb691908101906123d5565b93509350935093509193509193565b600f546060906001600160a01b0316610bf05760405162461bcd60e51b815260040161075f90612c19565b600f546040516346b2b08760e01b81526000916001600160a01b0316906346b2b08790610c21908690600401612b6e565b60006040518083038186803b158015610c3957600080fd5b505afa158015610c4d573d6000803e3d6000fd5b505050506040513d6000823e601f3d908101601f19168201604052610c7591908101906123d5565b5050915050610c83816110d2565b9150505b919050565b6000610c9760085490565b8210610cb55760405162461bcd60e51b815260040161075f90612cd9565b60088281548110610cc857610cc8612f25565b90600052602060002001549050919050565b60006108128261124e565b60006001610cf283610d18565b10610d0f5760405162461bcd60e51b815260040161075f90612c09565b61081282611463565b60006001600160a01b038216610d405760405162461bcd60e51b815260040161075f90612c69565b506001600160a01b031660009081526003602052604090205490565b600f546040805163776ce6a160e01b815290516060926001600160a01b03169163776ce6a1916004808301926000929190829003018186803b158015610da157600080fd5b505afa158015610db5573d6000803e3d6000fd5b505050506040513d6000823e601f3d908101601f19168201604052610ddd919081019061239b565b905090565b600f546060906001600160a01b0316610e0d5760405162461bcd60e51b815260040161075f90612c19565b600f54604051637e66989160e01b81526001600160a01b0390911690637e66989190610e3d908590600401612b52565b60006040518083038186803b158015610e5557600080fd5b505afa158015610e69573d6000803e3d6000fd5b505050506040513d6000823e601f3d908101601f191682016040526108129190810190612260565b600080516020612f97833981519152610ea9816112f1565b610a5561146e565b6000918252600b602090815260408084206001600160a01b0393909316845291905290205460ff1690565b600f546000906001600160a01b0316610f075760405162461bcd60e51b815260040161075f90612c19565b600f546040516346b2b08760e01b81526000916001600160a01b0316906346b2b08790610f38908690600401612b6e565b60006040518083038186803b158015610f5057600080fd5b505afa158015610f64573d6000803e3d6000fd5b505050506040513d6000823e601f3d908101601f19168201604052610f8c91908101906123d5565b5050915050610c838161124e565b60606000610fa783610984565b9050610c83816110d2565b60606001805461082790612e4a565b600f546000906001600160a01b0316610fec5760405162461bcd60e51b815260040161075f90612c19565b600f54604051634b29835560e11b81526001600160a01b039091169063965306aa9061101c908590600401612b6e565b60206040518083038186803b15801561103457600080fd5b505afa158015611048573d6000803e3d6000fd5b505050506040513d601f19601f82011682018060405250810190610812919061229a565b610a313383836114ab565b600f546060906001600160a01b03166110a25760405162461bcd60e51b815260040161075f90612c19565b600f54604051635bcb1b5b60e11b81526001600160a01b039091169063b79636b690610e3d908590600401612a81565b60606110dd82611229565b60006110e761154e565b905060008151116111075760405180602001604052806000815250610c83565b806111118461155d565b604051602001611122929190612a01565b6040516020818303038152906040529392505050565b6111418261096f565b61114a816112f1565b6109528383611381565b6001600160a01b03918216600090815260056020908152604080832093909416825291909152205460ff1690565b600061118d816112f1565b6001600160a01b0382166111b35760405162461bcd60e51b815260040161075f90612c79565b600f546001600160a01b03838116911614156111e15760405162461bcd60e51b815260040161075f90612c49565b50600f80546001600160a01b0319166001600160a01b0392909216919091179055565b60006001600160e01b03198216637965db0b60e01b1480610812575061081282611662565b61123281611687565b610a555760405162461bcd60e51b815260040161075f90612ca9565b6000818152600260205260408120546001600160a01b0316806108125760405162461bcd60e51b815260040161075f90612ca9565b600081815260046020526040902080546001600160a01b0319166001600160a01b03841690811790915581906112b88261124e565b6001600160a01b03167f8c5be1e5ebec7d5bd14f71427d1e84f3dd0314c0f7b2291e5b200ac8c7c3b92560405160405180910390a45050565b610a5581336116a4565b6113058282610eb1565b610a31576000828152600b602090815260408083206001600160a01b03851684529091529020805460ff1916600117905561133d3390565b6001600160a01b0316816001600160a01b0316837f2f8788117e7eff1d82e926ec794901d17c78024a50270940304540a733656f0d60405160405180910390a45050565b61138b8282610eb1565b15610a31576000828152600b602090815260408083206001600160a01b0385168085529252808320805460ff1916905551339285917ff6391f5c32d9c69d2a47ea670b442974b53935d1edc7fd64eb21e047a839171b9190a45050565b6113f0611708565b600a805460ff191690557f5db9ee0a495bf2e6ff9c91a7834c1ba4fdd244a5e8aa4e537bd38aeae4b073aa335b60405161142a9190612a81565b60405180910390a1565b61143e338261172c565b61145a5760405162461bcd60e51b815260040161075f90612ce9565b610a558161178a565b60006108128261181f565b611476611864565b600a805460ff191660011790557f62e78cea01bee320cd4e420270b5ea74000d11b0c9f74754ebdbfc544b05a25861141d3390565b816001600160a01b0316836001600160a01b031614156114dd5760405162461bcd60e51b815260040161075f90612c29565b6001600160a01b0383811660008181526005602090815260408083209487168084529490915290819020805460ff1916851515179055517f17307eab39ab6107e8899845ad3d59bd9653f200f220920489ca2b5937696c3190611541908590612b44565b60405180910390a3505050565b6060600d805461082790612e4a565b6060816115815750506040805180820190915260018152600360fc1b602082015290565b8160005b81156115ab578061159581612e9e565b91506115a49050600a83612d86565b9150611585565b6000816001600160401b038111156115c5576115c5612f3b565b6040519080825280601f01601f1916602001820160405280156115ef576020820181803683370190505b5090505b841561165a57611604600183612db9565b9150611611600a86612eb9565b61161c906030612d6e565b60f81b81838151811061163157611631612f25565b60200101906001600160f81b031916908160001a905350611653600a86612d86565b94506115f3565b949350505050565b60006001600160e01b0319821663780e9d6360e01b1480610812575061081282611887565b6000908152600260205260409020546001600160a01b0316151590565b6116ae8282610eb1565b610a31576116c6816001600160a01b031660146118d7565b6116d18360206118d7565b6040516020016116e2929190612a2f565b60408051601f198184030181529082905262461bcd60e51b825261075f91600401612b6e565b600a5460ff1661172a5760405162461bcd60e51b815260040161075f90612bc9565b565b6000806117388361124e565b9050806001600160a01b0316846001600160a01b0316148061175f575061175f8185611154565b8061165a5750836001600160a01b0316611778846108aa565b6001600160a01b031614949350505050565b60006117958261124e565b90506117a381600084611a42565b6117ae600083611283565b6001600160a01b03811660009081526003602052604081208054600192906117d7908490612db9565b909155505060008281526002602052604080822080546001600160a01b0319169055518391906001600160a01b03841690600080516020612fd7833981519152908390a45050565b6000600080516020612fb7833981519152611839816112f1565b6000611844600c5490565b9050611854600c80546001019055565b610c838482611a55565b50919050565b600a5460ff161561172a5760405162461bcd60e51b815260040161075f90612c59565b60006001600160e01b031982166380ac58cd60e01b14806118b857506001600160e01b03198216635b5e139f60e01b145b8061081257506301ffc9a760e01b6001600160e01b0319831614610812565b606060006118e6836002612d9a565b6118f1906002612d6e565b6001600160401b0381111561190857611908612f3b565b6040519080825280601f01601f191660200182016040528015611932576020820181803683370190505b509050600360fc1b8160008151811061194d5761194d612f25565b60200101906001600160f81b031916908160001a905350600f60fb1b8160018151811061197c5761197c612f25565b60200101906001600160f81b031916908160001a90535060006119a0846002612d9a565b6119ab906001612d6e565b90505b6001811115611a23576f181899199a1a9b1b9c1cb0b131b232b360811b85600f16601081106119df576119df612f25565b1a60f81b8282815181106119f5576119f5612f25565b60200101906001600160f81b031916908160001a90535060049490941c93611a1c81612e33565b90506119ae565b5083156108005760405162461bcd60e51b815260040161075f90612bb9565b611a4a611864565b610952838383611a6f565b610a31828260405180602001604052806000815250611b27565b6001600160a01b038316611aca57611ac581600880546000838152600960205260408120829055600182018355919091527ff3f7a9fe364faab93b216da50a3214154f22a0a2b415b23a84c8169e8b636ee30155565b611aed565b816001600160a01b0316836001600160a01b031614611aed57611aed8382611b5a565b6001600160a01b038216611b045761095281611bf7565b826001600160a01b0316826001600160a01b031614610952576109528282611ca6565b611b318383611cea565b611b3e6000848484611db7565b6109525760405162461bcd60e51b815260040161075f90612be9565b60006001611b6784610d18565b611b719190612db9565b600083815260076020526040902054909150808214611bc4576001600160a01b03841660009081526006602090815260408083208584528252808320548484528184208190558352600790915290208190555b5060009182526007602090815260408084208490556001600160a01b039094168352600681528383209183525290812055565b600854600090611c0990600190612db9565b60008381526009602052604081205460088054939450909284908110611c3157611c31612f25565b906000526020600020015490508060088381548110611c5257611c52612f25565b6000918252602080832090910192909255828152600990915260408082208490558582528120556008805480611c8a57611c8a612f0f565b6001900381819060005260206000200160009055905550505050565b6000611cb183610d18565b6001600160a01b039093166000908152600660209081526040808320868452825280832085905593825260079052919091209190915550565b6001600160a01b038216611d105760405162461bcd60e51b815260040161075f90612c99565b611d1981611687565b15611d365760405162461bcd60e51b815260040161075f90612bf9565b611d4260008383611a42565b6001600160a01b0382166000908152600360205260408120805460019290611d6b908490612d6e565b909155505060008181526002602052604080822080546001600160a01b0319166001600160a01b0386169081179091559051839290600080516020612fd7833981519152908290a45050565b60006001600160a01b0384163b15611eb957604051630a85bd0160e11b81526001600160a01b0385169063150b7a0290611dfb903390899088908890600401612a8f565b602060405180830381600087803b158015611e1557600080fd5b505af1925050508015611e45575060408051601f3d908101601f19168201909252611e429181019061231f565b60015b611e9f573d808015611e73576040519150601f19603f3d011682016040523d82523d6000602084013e611e78565b606091505b508051611e975760405162461bcd60e51b815260040161075f90612be9565b805181602001fd5b6001600160e01b031916630a85bd0160e11b14905061165a565b506001949350505050565b6000611ed7611ed284612d20565b612d09565b90508083825260208201905082856020860282011115611ef957611ef9600080fd5b60005b85811015611f415781516001600160401b03811115611f1d57611f1d600080fd5b808601611f2a8982612050565b855250506020928301929190910190600101611efc565b5050509392505050565b6000611f59611ed284612d43565b905082815260208101848484011115611f7457611f74600080fd5b611f7f848285612df7565b509392505050565b6000611f95611ed284612d43565b905082815260208101848484011115611fb057611fb0600080fd5b611f7f848285612e03565b803561081281612f5b565b600082601f830112611fda57611fda600080fd5b815161165a848260208601611ec4565b803561081281612f6f565b805161081281612f6f565b803561081281612f77565b803561081281612f7d565b805161081281612f7d565b600082601f83011261203557612035600080fd5b813561165a848260208601611f4b565b803561081281612f8d565b600082601f83011261206457612064600080fd5b815161165a848260208601611f87565b805161081281612f77565b60006020828403121561209457612094600080fd5b600061165a8484611fbb565b600080604083850312156120b6576120b6600080fd5b60006120c28585611fbb565b92505060206120d385828601611fbb565b9150509250929050565b6000806000606084860312156120f5576120f5600080fd5b60006121018686611fbb565b935050602061211286828701611fbb565b925050604061212386828701612000565b9150509250925092565b6000806000806080858703121561214657612146600080fd5b60006121528787611fbb565b945050602061216387828801611fbb565b935050604061217487828801612000565b92505060608501356001600160401b0381111561219357612193600080fd5b61219f87828801612021565b91505092959194509250565b600080604083850312156121c1576121c1600080fd5b60006121cd8585611fbb565b92505060206120d385828601611fea565b6000806000606084860312156121f6576121f6600080fd5b60006122028686611fbb565b93505060208401356001600160401b0381111561222157612221600080fd5b61211286828701612021565b6000806040838503121561224357612243600080fd5b600061224f8585611fbb565b92505060206120d385828601612000565b60006020828403121561227557612275600080fd5b81516001600160401b0381111561228e5761228e600080fd5b61165a84828501611fc6565b6000602082840312156122af576122af600080fd5b600061165a8484611ff5565b6000602082840312156122d0576122d0600080fd5b600061165a8484612000565b600080604083850312156122f2576122f2600080fd5b60006120c28585612000565b60006020828403121561231357612313600080fd5b600061165a848461200b565b60006020828403121561233457612334600080fd5b600061165a8484612016565b60006020828403121561235557612355600080fd5b600061165a8484612045565b60006020828403121561237657612376600080fd5b81356001600160401b0381111561238f5761238f600080fd5b61165a84828501612021565b6000602082840312156123b0576123b0600080fd5b81516001600160401b038111156123c9576123c9600080fd5b61165a84828501612050565b600080600080608085870312156123ee576123ee600080fd5b84516001600160401b0381111561240757612407600080fd5b61241387828801612050565b945050602061242487828801612074565b935050604061243587828801612074565b925050606061219f87828801611ff5565b60006020828403121561245b5761245b600080fd5b600061165a8484612074565b600061080083836124f6565b61247c81612dd0565b82525050565b600061248c825190565b808452602084019350836020820285016124a68560200190565b8060005b858110156124db57848403895281516124c38582612467565b94506020830160209a909a01999250506001016124aa565b5091979650505050505050565b80151561247c565b8061247c565b6000612500825190565b808452602084019350612517818560208601612e03565b61252081612f51565b9093019392505050565b61247c81612dec565b600061253d825190565b61254b818560208601612e03565b9290920192915050565b60208082527f537472696e67733a20686578206c656e67746820696e73756666696369656e74910190815260005b5060200190565b601481526000602082017314185d5cd8589b194e881b9bdd081c185d5cd95960621b81529150612583565b602b81526000602082017f455243373231456e756d657261626c653a206f776e657220696e646578206f7581526a74206f6620626f756e647360a81b602082015291505b5060400190565b603281526000602082017f4552433732313a207472616e7366657220746f206e6f6e20455243373231526581527131b2b4bb32b91034b6b83632b6b2b73a32b960711b602082015291506125f9565b601c81526000602082017b115490cdcc8c4e881d1bdad95b88185b1c9958591e481b5a5b9d195960221b81529150612583565b601b81526000602082017a14d097d25111539512551657d053149150511657d0d49150551151602a1b81529150612583565b601981526000602082017814d3d5531390535157d0d3d395149050d517d393d517d4d155603a1b81529150612583565b601981526000602082017822a9219b99189d1030b8383937bb32903a379031b0b63632b960391b81529150612583565b601a81526000602082017914d09517d514905394d1915497d393d517d4115493525515115160321b81529150612583565b600a81526000602082016953414d455f56414c554560b01b81529150612583565b601081526000602082016f14185d5cd8589b194e881c185d5cd95960821b81529150612583565b602981526000602082017f4552433732313a2061646472657373207a65726f206973206e6f7420612076618152683634b21037bbb732b960b91b602082015291506125f9565b600c81526000602082016b5a45524f5f4144445245535360a01b81529150612583565b603e81526000602082017f4552433732313a20617070726f76652063616c6c6572206973206e6f7420746f81527f6b656e206f776e6572206e6f7220617070726f76656420666f7220616c6c0000602082015291506125f9565b60208082527f4552433732313a206d696e7420746f20746865207a65726f206164647265737391019081526000612583565b6018815260006020820177115490cdcc8c4e881a5b9d985b1a59081d1bdad95b88125160421b81529150612583565b602181526000602082017f4552433732313a20617070726f76616c20746f2063757272656e74206f776e658152603960f91b602082015291506125f9565b601b81526000602082017a5342545f574954485f4c494e4b535f4e4f545f4255524e41424c4560281b81529150612583565b602c81526000602082017f455243373231456e756d657261626c653a20676c6f62616c20696e646578206f81526b7574206f6620626f756e647360a01b602082015291506125f9565b602e81526000602082017f4552433732313a2063616c6c6572206973206e6f7420746f6b656e206f776e6581526d1c881b9bdc88185c1c1c9bdd995960921b602082015291506125f9565b602f81526000602082017f416363657373436f6e74726f6c3a2063616e206f6e6c792072656e6f756e636581526e103937b632b9903337b91039b2b63360891b602082015291506125f9565b6000612a0d8285612533565b9150612a198284612533565b64173539b7b760d91b815291506005820161165a565b76020b1b1b2b9b9a1b7b73a3937b61d1030b1b1b7bab73a1604d1b81526017016000612a5b8285612533565b7001034b99036b4b9b9b4b733903937b6329607d1b8152601101915061165a8284612533565b602081016108128284612473565b60808101612a9d8287612473565b612aaa6020830186612473565b612ab760408301856124f0565b8181036060830152612ac981846124f6565b9695505050505050565b60808101612ae18287612473565b8181036020830152612af381866124f6565b9050612b0260408301856124f0565b612b0f60608301846124f0565b95945050505050565b60408101612b268285612473565b61080060208301846124f0565b602080825281016108008184612482565b6020810161081282846124e8565b6020810161081282846124f0565b60208101610812828461252a565b6020808252810161080081846124f6565b60808082528101612b9081876124f6565b9050612b9f60208301866124f0565b612bac60408301856124f0565b612b0f60608301846124e8565b6020808252810161081281612555565b602080825281016108128161258a565b60208082528101610812816125b5565b6020808252810161081281612600565b602080825281016108128161264f565b6020808252810161081281612682565b60208082528101610812816126b4565b60208082528101610812816126e4565b6020808252810161081281612714565b6020808252810161081281612745565b6020808252810161081281612766565b602080825281016108128161278d565b60208082528101610812816127d3565b60208082528101610812816127f6565b6020808252810161081281612850565b6020808252810161081281612882565b60208082528101610812816128b1565b60208082528101610812816128ef565b6020808252810161081281612921565b602080825281016108128161296a565b60208082528101610812816129b5565b6000612d1460405190565b9050610c878282612e71565b60006001600160401b03821115612d3957612d39612f3b565b5060209081020190565b60006001600160401b03821115612d5c57612d5c612f3b565b612d6582612f51565b60200192915050565b60008219821115612d8157612d81612ecd565b500190565b600082612d9557612d95612ee3565b500490565b6000816000190483118215151615612db457612db4612ecd565b500290565b600082821015612dcb57612dcb612ecd565b500390565b60006001600160a01b038216610812565b600061081282612dd0565b600061081282612de1565b82818337506000910152565b60005b83811015612e1e578181015183820152602001612e06565b83811115612e2d576000848401525b50505050565b600081612e4257612e42612ecd565b506000190190565b600281046001821680612e5e57607f821691505b6020821081141561185e5761185e612ef9565b612e7a82612f51565b81018181106001600160401b0382111715612e9757612e97612f3b565b6040525050565b6000600019821415612eb257612eb2612ecd565b5060010190565b600082612ec857612ec8612ee3565b500690565b634e487b7160e01b600052601160045260246000fd5b634e487b7160e01b600052601260045260246000fd5b634e487b7160e01b600052602260045260246000fd5b634e487b7160e01b600052603160045260246000fd5b634e487b7160e01b600052603260045260246000fd5b634e487b7160e01b600052604160045260246000fd5b601f01601f191690565b612f6481612dd0565b8114610a5557600080fd5b801515612f64565b80612f64565b6001600160e01b03198116612f64565b612f6481612de156fe65d7a28e3265b37a6474929f336521b332c1681b933f6cb9f3376673440d862a9f2df0fed2c77648de5860a4cc508cd0818c85b8b8a1ab4ceeef8d981c8956a6ddf252ad1be2c89b69c2b068fc378daa952ba7f163c4a11628f55a4df523b3efa2646970667358221220f4e7ae9bb0d8bcea1aae4a51cc8638504ed7497065d95f97fc45e8f31fa73ed064736f6c63430008070033",
  "devdoc": {
    "author": "Masa Finance",
    "details": "Soulbound identity, that inherits from the SBT contract.",
    "kind": "dev",
    "methods": {
      "approve(address,uint256)": {
        "details": "See {IERC721-approve}."
      },
      "balanceOf(address)": {
        "details": "See {IERC721-balanceOf}."
      },
      "burn(uint256)": {
        "details": "The caller must own `tokenId` or be an approved operator",
        "params": {
          "tokenId": "The NFT ID to burn"
        }
      },
      "constructor": {
        "details": "Creates a new soulbound identity, inheriting from the SBT contract.",
        "params": {
          "_soulLinker": "Address of the SoulLinker contract",
          "baseTokenURI": "Base URI of the token",
          "owner": "Owner of the smart contract"
        }
      },
      "getApproved(uint256)": {
        "details": "See {IERC721-getApproved}."
      },
      "getExtension()": {
        "details": "This function returns the extension of the soul name",
        "returns": {
          "_0": "Extension of the soul name"
        }
      },
      "getRoleAdmin(bytes32)": {
        "details": "Returns the admin role that controls `role`. See {grantRole} and {revokeRole}. To change a role's admin, use {_setRoleAdmin}."
      },
      "getSoulName()": {
        "details": "This function returns the address of the SoulName contract linked to this identity",
        "returns": {
          "_0": "Address of the SoulName contract"
        }
      },
      "getSoulNames(address)": {
        "details": "This function queries all the identity names of the specified account",
        "params": {
          "owner": "Address of the owner of the identities"
        },
        "returns": {
          "sbtNames": "Array of soul names associated to the account"
        }
      },
      "getSoulNames(uint256)": {
        "details": "This function queries all the identity names of the specified identity Id",
        "params": {
          "tokenId": "TokenId of the identity"
        },
        "returns": {
          "sbtNames": "Array of soul names associated to the identity Id"
        }
      },
      "getTokenData(string)": {
        "details": "This function queries the information of a soul name",
        "params": {
          "name": "Name of the soul name"
        },
        "returns": {
          "active": "`true` if the soul name is active, `false` otherwise",
          "expirationDate": "Expiration date of the soul name",
          "identityId": "Identity id of the soul name",
          "sbtName": "Soul name, in upper/lower case and extension"
        }
      },
      "grantRole(bytes32,address)": {
        "details": "Grants `role` to `account`. If `account` had not been already granted `role`, emits a {RoleGranted} event. Requirements: - the caller must have ``role``'s admin role. May emit a {RoleGranted} event."
      },
      "hasRole(bytes32,address)": {
        "details": "Returns `true` if `account` has been granted `role`."
      },
      "isApprovedForAll(address,address)": {
        "details": "See {IERC721-isApprovedForAll}."
      },
      "isAvailable(string)": {
        "details": "This function queries if a soul name already exists and is in the available state",
        "params": {
          "name": "Name of the soul name"
        },
        "returns": {
          "available": "`true` if the soul name is available, `false` otherwise"
        }
      },
      "mint(address)": {
        "details": "The caller can only mint one identity per address",
        "params": {
          "to": "Address of the owner of the new identity"
        }
      },
      "mintIdentityWithName(address,string,uint256)": {
        "details": "The caller can only mint one identity per address, and the name must be unique",
        "params": {
          "name": "Name of the new identity",
          "to": "Address of the owner of the new identity",
          "yearsPeriod": "Years of validity of the name"
        }
      },
      "name()": {
        "details": "See {IERC721Metadata-name}."
      },
      "ownerOf(string)": {
        "details": "This function returns the owner address of the soul name identity specified by the name",
        "params": {
          "name": "Name of the soul name"
        },
        "returns": {
          "_0": "Address of the owner of the identity"
        }
      },
      "ownerOf(uint256)": {
        "details": "This function returns the owner address of the identity specified by the tokenId",
        "params": {
          "tokenId": "TokenId of the identity"
        },
        "returns": {
          "_0": "Address of the owner of the identity"
        }
      },
      "pause()": {
        "details": "Sets an emergency stop mechanism that can be triggered by an authorized account."
      },
      "paused()": {
        "details": "Returns true if the contract is paused, and false otherwise."
      },
      "renounceRole(bytes32,address)": {
        "details": "Revokes `role` from the calling account. Roles are often managed via {grantRole} and {revokeRole}: this function's purpose is to provide a mechanism for accounts to lose their privileges if they are compromised (such as when a trusted device is misplaced). If the calling account had been revoked `role`, emits a {RoleRevoked} event. Requirements: - the caller must be `account`. May emit a {RoleRevoked} event."
      },
      "revokeRole(bytes32,address)": {
        "details": "Revokes `role` from `account`. If `account` had been granted `role`, emits a {RoleRevoked} event. Requirements: - the caller must have ``role``'s admin role. May emit a {RoleRevoked} event."
      },
      "safeTransferFrom(address,address,uint256)": {
        "details": "This will raise an exception because the token is not transferable."
      },
      "safeTransferFrom(address,address,uint256,bytes)": {
        "details": "This will raise an exception because the token is not transferable."
      },
      "setApprovalForAll(address,bool)": {
        "details": "See {IERC721-setApprovalForAll}."
      },
      "setSoulName(address)": {
        "details": "The caller must have the admin role to call this function",
        "params": {
          "_soulName": "Address of the SoulName contract"
        }
      },
      "supportsInterface(bytes4)": {
        "details": "Interface identification is specified in ERC-165.",
        "params": {
          "interfaceId": "The interface identifier, as specified in ERC-165"
        },
        "returns": {
          "_0": "`true` if the contract implements `interfaceId` and  `interfaceId` is not 0xffffffff, `false` otherwise"
        }
      },
      "symbol()": {
        "details": "See {IERC721Metadata-symbol}."
      },
      "tokenByIndex(uint256)": {
        "details": "See {IERC721Enumerable-tokenByIndex}."
      },
      "tokenOfOwner(address)": {
        "details": "This function returns the tokenId of the identity owned by an account",
        "params": {
          "owner": "Address of the owner of the identity"
        },
        "returns": {
          "_0": "TokenId of the identity owned by the account"
        }
      },
      "tokenOfOwnerByIndex(address,uint256)": {
        "details": "See {IERC721Enumerable-tokenOfOwnerByIndex}."
      },
      "tokenURI(address)": {
        "details": "This function returns the token URI of the identity owned by an account",
        "params": {
          "owner": "Address of the owner of the identity"
        },
        "returns": {
          "_0": "URI of the identity owned by the account"
        }
      },
      "tokenURI(string)": {
        "details": "This function returns the token URI of the soul name identity specified by the name",
        "params": {
          "name": "Name of the soul name"
        },
        "returns": {
          "_0": "URI of the identity associated to a soul name"
        }
      },
      "tokenURI(uint256)": {
        "details": "Throws if `_tokenId` is not a valid NFT. URIs are defined in RFC  3986. The URI may point to a JSON file that conforms to the \"ERC721  Metadata JSON Schema\".",
        "params": {
          "tokenId": "NFT to get the URI of"
        },
        "returns": {
          "_0": "URI of the NFT"
        }
      },
      "totalSupply()": {
        "details": "See {IERC721Enumerable-totalSupply}."
      },
      "transferFrom(address,address,uint256)": {
        "details": "This will raise an exception because the token is not transferable."
      },
      "unpause()": {
        "details": "Unsets an emergency stop mechanism. It can be triggered by an authorized account."
      }
    },
    "title": "Soulbound Identity",
    "version": 1
  },
  "userdoc": {
    "kind": "user",
    "methods": {
      "burn(uint256)": {
        "notice": "Burns the token"
      },
      "constructor": {
        "notice": "Creates a new soulbound identity"
      },
      "getExtension()": {
        "notice": "Returns the extension of the soul name"
      },
      "getSoulName()": {
        "notice": "Returns the address of the SoulName contract linked to this identity"
      },
      "getSoulNames(address)": {
        "notice": "Returns all the active soul names of an account"
      },
      "getSoulNames(uint256)": {
        "notice": "Returns all the active soul names of an account"
      },
      "getTokenData(string)": {
        "notice": "Returns the information of a soul name"
      },
      "isAvailable(string)": {
        "notice": "Checks if a soul name is available"
      },
      "mint(address)": {
        "notice": "Mints a new soulbound identity"
      },
      "mintIdentityWithName(address,string,uint256)": {
        "notice": "Mints a new soulbound identity with a SoulName associated to it"
      },
      "ownerOf(string)": {
        "notice": "Returns the owner address of a soul name"
      },
      "ownerOf(uint256)": {
        "notice": "Returns the owner address of an identity"
      },
      "pause()": {
        "notice": "Pauses the operations in the smart contract"
      },
      "safeTransferFrom(address,address,uint256)": {
        "notice": "Transfers the ownership of an NFT from one address to another address"
      },
      "safeTransferFrom(address,address,uint256,bytes)": {
        "notice": "Transfer ownership of the token to another address safely"
      },
      "setSoulName(address)": {
        "notice": "Sets the SoulName contract address linked to this identity"
      },
      "supportsInterface(bytes4)": {
        "notice": "Query if a contract implements an interface"
      },
      "tokenOfOwner(address)": {
        "notice": "Returns the identity id of an account"
      },
      "tokenURI(address)": {
        "notice": "Returns the URI of the owner of an identity"
      },
      "tokenURI(string)": {
        "notice": "Returns the URI of a soul name"
      },
      "tokenURI(uint256)": {
        "notice": "A distinct Uniform Resource Identifier (URI) for a given asset."
      },
      "transferFrom(address,address,uint256)": {
        "notice": "Transfer ownership of an NFT -- THE CALLER IS RESPONSIBLE  TO CONFIRM THAT `_to` IS CAPABLE OF RECEIVING NFTS OR ELSE  THEY MAY BE PERMANENTLY LOST"
      },
      "unpause()": {
        "notice": "Unpauses the operations in the smart contract"
      }
    },
    "notice": "Soulbound token that represents an identity.",
    "version": 1
  },
  "storageLayout": {
    "storage": [
      {
        "astId": 1645,
        "contract": "contracts/SoulboundIdentity.sol:SoulboundIdentity",
        "label": "_name",
        "offset": 0,
        "slot": "0",
        "type": "t_string_storage"
      },
      {
        "astId": 1647,
        "contract": "contracts/SoulboundIdentity.sol:SoulboundIdentity",
        "label": "_symbol",
        "offset": 0,
        "slot": "1",
        "type": "t_string_storage"
      },
      {
        "astId": 1651,
        "contract": "contracts/SoulboundIdentity.sol:SoulboundIdentity",
        "label": "_owners",
        "offset": 0,
        "slot": "2",
        "type": "t_mapping(t_uint256,t_address)"
      },
      {
        "astId": 1655,
        "contract": "contracts/SoulboundIdentity.sol:SoulboundIdentity",
        "label": "_balances",
        "offset": 0,
        "slot": "3",
        "type": "t_mapping(t_address,t_uint256)"
      },
      {
        "astId": 1659,
        "contract": "contracts/SoulboundIdentity.sol:SoulboundIdentity",
        "label": "_tokenApprovals",
        "offset": 0,
        "slot": "4",
        "type": "t_mapping(t_uint256,t_address)"
      },
      {
        "astId": 1665,
        "contract": "contracts/SoulboundIdentity.sol:SoulboundIdentity",
        "label": "_operatorApprovals",
        "offset": 0,
        "slot": "5",
        "type": "t_mapping(t_address,t_mapping(t_address,t_bool))"
      },
      {
        "astId": 2665,
        "contract": "contracts/SoulboundIdentity.sol:SoulboundIdentity",
        "label": "_ownedTokens",
        "offset": 0,
        "slot": "6",
        "type": "t_mapping(t_address,t_mapping(t_uint256,t_uint256))"
      },
      {
        "astId": 2669,
        "contract": "contracts/SoulboundIdentity.sol:SoulboundIdentity",
        "label": "_ownedTokensIndex",
        "offset": 0,
        "slot": "7",
        "type": "t_mapping(t_uint256,t_uint256)"
      },
      {
        "astId": 2672,
        "contract": "contracts/SoulboundIdentity.sol:SoulboundIdentity",
        "label": "_allTokens",
        "offset": 0,
        "slot": "8",
        "type": "t_array(t_uint256)dyn_storage"
      },
      {
        "astId": 2676,
        "contract": "contracts/SoulboundIdentity.sol:SoulboundIdentity",
        "label": "_allTokensIndex",
        "offset": 0,
        "slot": "9",
        "type": "t_mapping(t_uint256,t_uint256)"
      },
      {
        "astId": 523,
        "contract": "contracts/SoulboundIdentity.sol:SoulboundIdentity",
        "label": "_paused",
        "offset": 0,
        "slot": "10",
        "type": "t_bool"
      },
      {
        "astId": 24,
        "contract": "contracts/SoulboundIdentity.sol:SoulboundIdentity",
        "label": "_roles",
        "offset": 0,
        "slot": "11",
        "type": "t_mapping(t_bytes32,t_struct(RoleData)19_storage)"
      },
      {
        "astId": 6604,
        "contract": "contracts/SoulboundIdentity.sol:SoulboundIdentity",
        "label": "_tokenIdCounter",
        "offset": 0,
        "slot": "12",
        "type": "t_struct(Counter)3369_storage"
      },
      {
        "astId": 6606,
        "contract": "contracts/SoulboundIdentity.sol:SoulboundIdentity",
        "label": "_baseTokenURI",
        "offset": 0,
        "slot": "13",
        "type": "t_string_storage"
      },
      {
        "astId": 6794,
        "contract": "contracts/SoulboundIdentity.sol:SoulboundIdentity",
        "label": "soulLinker",
        "offset": 0,
        "slot": "14",
        "type": "t_contract(ISoulLinker)6221"
      },
      {
        "astId": 5698,
        "contract": "contracts/SoulboundIdentity.sol:SoulboundIdentity",
        "label": "soulName",
        "offset": 0,
        "slot": "15",
        "type": "t_contract(ISoulName)6278"
      }
    ],
    "types": {
      "t_address": {
        "encoding": "inplace",
        "label": "address",
        "numberOfBytes": "20"
      },
      "t_array(t_uint256)dyn_storage": {
        "base": "t_uint256",
        "encoding": "dynamic_array",
        "label": "uint256[]",
        "numberOfBytes": "32"
      },
      "t_bool": {
        "encoding": "inplace",
        "label": "bool",
        "numberOfBytes": "1"
      },
      "t_bytes32": {
        "encoding": "inplace",
        "label": "bytes32",
        "numberOfBytes": "32"
      },
      "t_contract(ISoulLinker)6221": {
        "encoding": "inplace",
        "label": "contract ISoulLinker",
        "numberOfBytes": "20"
      },
      "t_contract(ISoulName)6278": {
        "encoding": "inplace",
        "label": "contract ISoulName",
        "numberOfBytes": "20"
      },
      "t_mapping(t_address,t_bool)": {
        "encoding": "mapping",
        "key": "t_address",
        "label": "mapping(address => bool)",
        "numberOfBytes": "32",
        "value": "t_bool"
      },
      "t_mapping(t_address,t_mapping(t_address,t_bool))": {
        "encoding": "mapping",
        "key": "t_address",
        "label": "mapping(address => mapping(address => bool))",
        "numberOfBytes": "32",
        "value": "t_mapping(t_address,t_bool)"
      },
      "t_mapping(t_address,t_mapping(t_uint256,t_uint256))": {
        "encoding": "mapping",
        "key": "t_address",
        "label": "mapping(address => mapping(uint256 => uint256))",
        "numberOfBytes": "32",
        "value": "t_mapping(t_uint256,t_uint256)"
      },
      "t_mapping(t_address,t_uint256)": {
        "encoding": "mapping",
        "key": "t_address",
        "label": "mapping(address => uint256)",
        "numberOfBytes": "32",
        "value": "t_uint256"
      },
      "t_mapping(t_bytes32,t_struct(RoleData)19_storage)": {
        "encoding": "mapping",
        "key": "t_bytes32",
        "label": "mapping(bytes32 => struct AccessControl.RoleData)",
        "numberOfBytes": "32",
        "value": "t_struct(RoleData)19_storage"
      },
      "t_mapping(t_uint256,t_address)": {
        "encoding": "mapping",
        "key": "t_uint256",
        "label": "mapping(uint256 => address)",
        "numberOfBytes": "32",
        "value": "t_address"
      },
      "t_mapping(t_uint256,t_uint256)": {
        "encoding": "mapping",
        "key": "t_uint256",
        "label": "mapping(uint256 => uint256)",
        "numberOfBytes": "32",
        "value": "t_uint256"
      },
      "t_string_storage": {
        "encoding": "bytes",
        "label": "string",
        "numberOfBytes": "32"
      },
      "t_struct(Counter)3369_storage": {
        "encoding": "inplace",
        "label": "struct Counters.Counter",
        "members": [
          {
            "astId": 3368,
            "contract": "contracts/SoulboundIdentity.sol:SoulboundIdentity",
            "label": "_value",
            "offset": 0,
            "slot": "0",
            "type": "t_uint256"
          }
        ],
        "numberOfBytes": "32"
      },
      "t_struct(RoleData)19_storage": {
        "encoding": "inplace",
        "label": "struct AccessControl.RoleData",
        "members": [
          {
            "astId": 16,
            "contract": "contracts/SoulboundIdentity.sol:SoulboundIdentity",
            "label": "members",
            "offset": 0,
            "slot": "0",
            "type": "t_mapping(t_address,t_bool)"
          },
          {
            "astId": 18,
            "contract": "contracts/SoulboundIdentity.sol:SoulboundIdentity",
            "label": "adminRole",
            "offset": 0,
            "slot": "1",
            "type": "t_bytes32"
          }
        ],
        "numberOfBytes": "64"
      },
      "t_uint256": {
        "encoding": "inplace",
        "label": "uint256",
        "numberOfBytes": "32"
      }
    }
  }
}